{
	"contracts/organization/DaoAccessControl.sol": {
		"DaoAccessControl": {
			"abi": [
				{
					"inputs": [],
					"stateMutability": "nonpayable",
					"type": "constructor"
				},
				{
					"anonymous": false,
					"inputs": [
						{
							"indexed": true,
							"internalType": "address",
							"name": "account",
							"type": "address"
						},
						{
							"indexed": true,
							"internalType": "address",
							"name": "sender",
							"type": "address"
						}
					],
					"name": "AccountDeleted",
					"type": "event"
				},
				{
					"anonymous": false,
					"inputs": [
						{
							"indexed": true,
							"internalType": "address",
							"name": "newAdmin",
							"type": "address"
						},
						{
							"indexed": true,
							"internalType": "address",
							"name": "previousAdmin",
							"type": "address"
						}
					],
					"name": "AdminTransfered",
					"type": "event"
				},
				{
					"anonymous": false,
					"inputs": [
						{
							"indexed": true,
							"internalType": "bytes",
							"name": "permissionName",
							"type": "bytes"
						},
						{
							"indexed": true,
							"internalType": "address",
							"name": "sender",
							"type": "address"
						}
					],
					"name": "PermissionCreated",
					"type": "event"
				},
				{
					"anonymous": false,
					"inputs": [
						{
							"indexed": true,
							"internalType": "bytes",
							"name": "permissionName",
							"type": "bytes"
						},
						{
							"indexed": true,
							"internalType": "address",
							"name": "sender",
							"type": "address"
						}
					],
					"name": "PermissionDeleted",
					"type": "event"
				},
				{
					"anonymous": false,
					"inputs": [
						{
							"indexed": true,
							"internalType": "bytes",
							"name": "permissionName",
							"type": "bytes"
						},
						{
							"indexed": true,
							"internalType": "address",
							"name": "account",
							"type": "address"
						},
						{
							"indexed": true,
							"internalType": "address",
							"name": "sender",
							"type": "address"
						}
					],
					"name": "PermissionGranted",
					"type": "event"
				},
				{
					"anonymous": false,
					"inputs": [
						{
							"indexed": true,
							"internalType": "bytes",
							"name": "permissionName",
							"type": "bytes"
						},
						{
							"indexed": true,
							"internalType": "address",
							"name": "account",
							"type": "address"
						},
						{
							"indexed": true,
							"internalType": "address",
							"name": "sender",
							"type": "address"
						}
					],
					"name": "PermissionRevoked",
					"type": "event"
				},
				{
					"inputs": [
						{
							"internalType": "bytes",
							"name": "permissionName",
							"type": "bytes"
						}
					],
					"name": "createPermission",
					"outputs": [],
					"stateMutability": "nonpayable",
					"type": "function"
				},
				{
					"inputs": [
						{
							"internalType": "bytes",
							"name": "permissionName",
							"type": "bytes"
						},
						{
							"internalType": "bytes",
							"name": "permissionAlready",
							"type": "bytes"
						}
					],
					"name": "createPermissionByLevel",
					"outputs": [],
					"stateMutability": "nonpayable",
					"type": "function"
				},
				{
					"inputs": [
						{
							"internalType": "address",
							"name": "account",
							"type": "address"
						}
					],
					"name": "deleteAccount",
					"outputs": [],
					"stateMutability": "nonpayable",
					"type": "function"
				},
				{
					"inputs": [
						{
							"internalType": "bytes",
							"name": "permissionName",
							"type": "bytes"
						}
					],
					"name": "deletePermission",
					"outputs": [],
					"stateMutability": "nonpayable",
					"type": "function"
				},
				{
					"inputs": [
						{
							"internalType": "bytes",
							"name": "permissionName",
							"type": "bytes"
						},
						{
							"internalType": "address",
							"name": "account",
							"type": "address"
						}
					],
					"name": "grantAccountPermission",
					"outputs": [],
					"stateMutability": "nonpayable",
					"type": "function"
				},
				{
					"inputs": [
						{
							"internalType": "string",
							"name": "permissionName",
							"type": "string"
						},
						{
							"internalType": "address",
							"name": "account",
							"type": "address"
						}
					],
					"name": "inquiryAccountPermission",
					"outputs": [
						{
							"internalType": "bool",
							"name": "",
							"type": "bool"
						}
					],
					"stateMutability": "view",
					"type": "function"
				},
				{
					"inputs": [],
					"name": "inquiryAdmin",
					"outputs": [
						{
							"internalType": "address",
							"name": "",
							"type": "address"
						}
					],
					"stateMutability": "view",
					"type": "function"
				},
				{
					"inputs": [
						{
							"internalType": "string",
							"name": "permissionName",
							"type": "string"
						}
					],
					"name": "inquiryAllAccountsByPermission",
					"outputs": [
						{
							"internalType": "address[]",
							"name": "",
							"type": "address[]"
						}
					],
					"stateMutability": "view",
					"type": "function"
				},
				{
					"inputs": [
						{
							"internalType": "address",
							"name": "account",
							"type": "address"
						}
					],
					"name": "inquiryAllPermissionsByAccount",
					"outputs": [
						{
							"internalType": "bytes32[]",
							"name": "",
							"type": "bytes32[]"
						}
					],
					"stateMutability": "view",
					"type": "function"
				},
				{
					"inputs": [
						{
							"internalType": "bytes",
							"name": "permissionName",
							"type": "bytes"
						},
						{
							"internalType": "address",
							"name": "account",
							"type": "address"
						}
					],
					"name": "revokeAccountPermission",
					"outputs": [],
					"stateMutability": "nonpayable",
					"type": "function"
				},
				{
					"inputs": [
						{
							"internalType": "address",
							"name": "account",
							"type": "address"
						}
					],
					"name": "transferAdmin",
					"outputs": [],
					"stateMutability": "nonpayable",
					"type": "function"
				}
			],
			"devdoc": {
				"kind": "dev",
				"methods": {},
				"version": 1
			},
			"evm": {
				"assembly": "    /* \"contracts/organization/DaoAccessControl.sol\":98:2577  contract DaoAccessControl is AccessControl{\r... */\n  mstore(0x40, 0x80)\n    /* \"contracts/organization/DaoAccessControl.sol\":149:195  constructor() {\r... */\n  callvalue\n  dup1\n  iszero\n  tag_1\n  jumpi\n  0x00\n  dup1\n  revert\ntag_1:\n  pop\n    /* \"contracts/organization/DaoAccessControl.sol\":174:187  _initialize() */\n  tag_4\n    /* \"contracts/organization/DaoAccessControl.sol\":174:185  _initialize */\n  shl(0x20, tag_5)\n    /* \"contracts/organization/DaoAccessControl.sol\":174:187  _initialize() */\n  0x20\n  shr\n  jump\t// in\ntag_4:\n    /* \"contracts/organization/DaoAccessControl.sol\":98:2577  contract DaoAccessControl is AccessControl{\r... */\n  jump(tag_6)\n    /* \"contracts/AccessControl.sol\":2472:2805  function _initialize() internal virtual {\r... */\ntag_5:\n    /* \"contracts/AccessControl.sol\":2556:2560  true */\n  0x01\n    /* \"contracts/AccessControl.sol\":2523:2538  _allPermissions */\n  0x00\n    /* \"contracts/AccessControl.sol\":2523:2545  _allPermissions[ADMIN] */\n  dup1\n    /* \"contracts/AccessControl.sol\":677:695  keccak256(\"ADMIN\") */\n  0xdf8b4c520ffe197c5343c6f5aec59570151ef9a492f2c624fd45ddde6135ec42\n    /* \"contracts/AccessControl.sol\":2523:2545  _allPermissions[ADMIN] */\n  dup2\n  mstore\n  0x20\n  add\n  swap1\n  dup2\n  mstore\n  0x20\n  add\n  0x00\n  keccak256\n    /* \"contracts/AccessControl.sol\":2523:2553  _allPermissions[ADMIN].isValid */\n  0x03\n  add\n  0x00\n    /* \"contracts/AccessControl.sol\":2523:2560  _allPermissions[ADMIN].isValid = true */\n  0x0100\n  exp\n  dup2\n  sload\n  dup2\n  0xff\n  mul\n  not\n  and\n  swap1\n  dup4\n  iszero\n  iszero\n  mul\n  or\n  swap1\n  sstore\n  pop\n    /* \"contracts/AccessControl.sol\":2616:2620  true */\n  0x01\n    /* \"contracts/AccessControl.sol\":2571:2586  _allPermissions */\n  0x00\n    /* \"contracts/AccessControl.sol\":2571:2593  _allPermissions[ADMIN] */\n  dup1\n    /* \"contracts/AccessControl.sol\":677:695  keccak256(\"ADMIN\") */\n  0xdf8b4c520ffe197c5343c6f5aec59570151ef9a492f2c624fd45ddde6135ec42\n    /* \"contracts/AccessControl.sol\":2571:2593  _allPermissions[ADMIN] */\n  dup2\n  mstore\n  0x20\n  add\n  swap1\n  dup2\n  mstore\n  0x20\n  add\n  0x00\n  keccak256\n    /* \"contracts/AccessControl.sol\":2571:2601  _allPermissions[ADMIN].members */\n  0x00\n  add\n    /* \"contracts/AccessControl.sol\":2571:2613  _allPermissions[ADMIN].members[msg.sender] */\n  0x00\n    /* \"contracts/AccessControl.sol\":2602:2612  msg.sender */\n  caller\n    /* \"contracts/AccessControl.sol\":2571:2613  _allPermissions[ADMIN].members[msg.sender] */\n  0xffffffffffffffffffffffffffffffffffffffff\n  and\n  0xffffffffffffffffffffffffffffffffffffffff\n  and\n  dup2\n  mstore\n  0x20\n  add\n  swap1\n  dup2\n  mstore\n  0x20\n  add\n  0x00\n  keccak256\n  0x00\n    /* \"contracts/AccessControl.sol\":2571:2620  _allPermissions[ADMIN].members[msg.sender] = true */\n  0x0100\n  exp\n  dup2\n  sload\n  dup2\n  0xff\n  mul\n  not\n  and\n  swap1\n  dup4\n  iszero\n  iszero\n  mul\n  or\n  swap1\n  sstore\n  pop\n    /* \"contracts/AccessControl.sol\":2665:2675  msg.sender */\n  caller\n    /* \"contracts/AccessControl.sol\":2631:2646  _allPermissions */\n  0x00\n    /* \"contracts/AccessControl.sol\":2631:2653  _allPermissions[ADMIN] */\n  dup1\n    /* \"contracts/AccessControl.sol\":677:695  keccak256(\"ADMIN\") */\n  0xdf8b4c520ffe197c5343c6f5aec59570151ef9a492f2c624fd45ddde6135ec42\n    /* \"contracts/AccessControl.sol\":2631:2653  _allPermissions[ADMIN] */\n  dup2\n  mstore\n  0x20\n  add\n  swap1\n  dup2\n  mstore\n  0x20\n  add\n  0x00\n  keccak256\n    /* \"contracts/AccessControl.sol\":2631:2659  _allPermissions[ADMIN].index */\n  0x01\n  add\n    /* \"contracts/AccessControl.sol\":2631:2662  _allPermissions[ADMIN].index[0] */\n  0x00\n    /* \"contracts/AccessControl.sol\":2660:2661  0 */\n  dup1\n    /* \"contracts/AccessControl.sol\":2631:2662  _allPermissions[ADMIN].index[0] */\n  dup2\n  mstore\n  0x20\n  add\n  swap1\n  dup2\n  mstore\n  0x20\n  add\n  0x00\n  keccak256\n  0x00\n    /* \"contracts/AccessControl.sol\":2631:2675  _allPermissions[ADMIN].index[0] = msg.sender */\n  0x0100\n  exp\n  dup2\n  sload\n  dup2\n  0xffffffffffffffffffffffffffffffffffffffff\n  mul\n  not\n  and\n  swap1\n  dup4\n  0xffffffffffffffffffffffffffffffffffffffff\n  and\n  mul\n  or\n  swap1\n  sstore\n  pop\n    /* \"contracts/AccessControl.sol\":2718:2719  1 */\n  0x01\n    /* \"contracts/AccessControl.sol\":2686:2701  _allPermissions */\n  0x00\n    /* \"contracts/AccessControl.sol\":2686:2708  _allPermissions[ADMIN] */\n  dup1\n    /* \"contracts/AccessControl.sol\":677:695  keccak256(\"ADMIN\") */\n  0xdf8b4c520ffe197c5343c6f5aec59570151ef9a492f2c624fd45ddde6135ec42\n    /* \"contracts/AccessControl.sol\":2686:2708  _allPermissions[ADMIN] */\n  dup2\n  mstore\n  0x20\n  add\n  swap1\n  dup2\n  mstore\n  0x20\n  add\n  0x00\n  keccak256\n    /* \"contracts/AccessControl.sol\":2686:2715  _allPermissions[ADMIN].length */\n  0x02\n  add\n    /* \"contracts/AccessControl.sol\":2686:2719  _allPermissions[ADMIN].length = 1 */\n  dup2\n  swap1\n  sstore\n  pop\n    /* \"contracts/AccessControl.sol\":2755:2756  1 */\n  0x01\n    /* \"contracts/AccessControl.sol\":2732:2752  _numberOfPermissions */\n  0x02\n    /* \"contracts/AccessControl.sol\":2732:2756  _numberOfPermissions = 1 */\n  dup2\n  swap1\n  sstore\n  pop\n    /* \"contracts/AccessControl.sol\":677:695  keccak256(\"ADMIN\") */\n  0xdf8b4c520ffe197c5343c6f5aec59570151ef9a492f2c624fd45ddde6135ec42\n    /* \"contracts/AccessControl.sol\":2767:2786  _indexOfPermissions */\n  0x01\n    /* \"contracts/AccessControl.sol\":2767:2789  _indexOfPermissions[0] */\n  0x00\n    /* \"contracts/AccessControl.sol\":2787:2788  0 */\n  dup1\n    /* \"contracts/AccessControl.sol\":2767:2789  _indexOfPermissions[0] */\n  dup2\n  mstore\n  0x20\n  add\n  swap1\n  dup2\n  mstore\n  0x20\n  add\n  0x00\n  keccak256\n    /* \"contracts/AccessControl.sol\":2767:2797  _indexOfPermissions[0] = ADMIN */\n  dup2\n  swap1\n  sstore\n  pop\n    /* \"contracts/AccessControl.sol\":2472:2805  function _initialize() internal virtual {\r... */\n  jump\t// out\n    /* \"contracts/organization/DaoAccessControl.sol\":98:2577  contract DaoAccessControl is AccessControl{\r... */\ntag_6:\n  dataSize(sub_0)\n  dup1\n  dataOffset(sub_0)\n  0x00\n  codecopy\n  0x00\n  return\nstop\n\nsub_0: assembly {\n        /* \"contracts/organization/DaoAccessControl.sol\":98:2577  contract DaoAccessControl is AccessControl{\r... */\n      mstore(0x40, 0x80)\n      callvalue\n      dup1\n      iszero\n      tag_1\n      jumpi\n      0x00\n      dup1\n      revert\n    tag_1:\n      pop\n      jumpi(tag_2, lt(calldatasize, 0x04))\n      shr(0xe0, calldataload(0x00))\n      dup1\n      0x80891cb2\n      gt\n      tag_14\n      jumpi\n      dup1\n      0x80891cb2\n      eq\n      tag_8\n      jumpi\n      dup1\n      0xa076a09e\n      eq\n      tag_9\n      jumpi\n      dup1\n      0xa10f9524\n      eq\n      tag_10\n      jumpi\n      dup1\n      0xaae7c78a\n      eq\n      tag_11\n      jumpi\n      dup1\n      0xc7dc6220\n      eq\n      tag_12\n      jumpi\n      dup1\n      0xc98d6f1e\n      eq\n      tag_13\n      jumpi\n      jump(tag_2)\n    tag_14:\n      dup1\n      0x342da059\n      eq\n      tag_3\n      jumpi\n      dup1\n      0x4c1b64cb\n      eq\n      tag_4\n      jumpi\n      dup1\n      0x56353d82\n      eq\n      tag_5\n      jumpi\n      dup1\n      0x7058dd24\n      eq\n      tag_6\n      jumpi\n      dup1\n      0x75829def\n      eq\n      tag_7\n      jumpi\n    tag_2:\n      0x00\n      dup1\n      revert\n        /* \"contracts/organization/DaoAccessControl.sol\":809:977  function deletePermission(bytes memory permissionName) \r... */\n    tag_3:\n      tag_15\n      0x04\n      dup1\n      calldatasize\n      sub\n      dup2\n      add\n      swap1\n      tag_16\n      swap2\n      swap1\n      tag_17\n      jump\t// in\n    tag_16:\n      tag_18\n      jump\t// in\n    tag_15:\n      stop\n        /* \"contracts/organization/DaoAccessControl.sol\":1415:1558  function deleteAccount(address account) \r... */\n    tag_4:\n      tag_19\n      0x04\n      dup1\n      calldatasize\n      sub\n      dup2\n      add\n      swap1\n      tag_20\n      swap2\n      swap1\n      tag_21\n      jump\t// in\n    tag_20:\n      tag_22\n      jump\t// in\n    tag_19:\n      stop\n        /* \"contracts/organization/DaoAccessControl.sol\":1963:2199  function inquiryAllAccountsByPermission(string memory permissionName) \r... */\n    tag_5:\n      tag_23\n      0x04\n      dup1\n      calldatasize\n      sub\n      dup2\n      add\n      swap1\n      tag_24\n      swap2\n      swap1\n      tag_25\n      jump\t// in\n    tag_24:\n      tag_26\n      jump\t// in\n    tag_23:\n      mload(0x40)\n      tag_27\n      swap2\n      swap1\n      tag_28\n      jump\t// in\n    tag_27:\n      mload(0x40)\n      dup1\n      swap2\n      sub\n      swap1\n      return\n        /* \"contracts/organization/DaoAccessControl.sol\":2431:2570  function inquiryAdmin() public view override allowPermission(ADMIN) returns (address) \r... */\n    tag_6:\n      tag_29\n      tag_30\n      jump\t// in\n    tag_29:\n      mload(0x40)\n      tag_31\n      swap2\n      swap1\n      tag_32\n      jump\t// in\n    tag_31:\n      mload(0x40)\n      dup1\n      swap2\n      sub\n      swap1\n      return\n        /* \"contracts/organization/DaoAccessControl.sol\":1566:1709  function transferAdmin(address account) \r... */\n    tag_7:\n      tag_33\n      0x04\n      dup1\n      calldatasize\n      sub\n      dup2\n      add\n      swap1\n      tag_34\n      swap2\n      swap1\n      tag_21\n      jump\t// in\n    tag_34:\n      tag_35\n      jump\t// in\n    tag_33:\n      stop\n        /* \"contracts/organization/DaoAccessControl.sol\":2207:2423  function inquiryAllPermissionsByAccount(address account) \r... */\n    tag_8:\n      tag_36\n      0x04\n      dup1\n      calldatasize\n      sub\n      dup2\n      add\n      swap1\n      tag_37\n      swap2\n      swap1\n      tag_21\n      jump\t// in\n    tag_37:\n      tag_38\n      jump\t// in\n    tag_36:\n      mload(0x40)\n      tag_39\n      swap2\n      swap1\n      tag_40\n      jump\t// in\n    tag_39:\n      mload(0x40)\n      dup1\n      swap2\n      sub\n      swap1\n      return\n        /* \"contracts/organization/DaoAccessControl.sol\":1717:1955  function inquiryAccountPermission(string memory permissionName, address account) \r... */\n    tag_9:\n      tag_41\n      0x04\n      dup1\n      calldatasize\n      sub\n      dup2\n      add\n      swap1\n      tag_42\n      swap2\n      swap1\n      tag_43\n      jump\t// in\n    tag_42:\n      tag_44\n      jump\t// in\n    tag_41:\n      mload(0x40)\n      tag_45\n      swap2\n      swap1\n      tag_46\n      jump\t// in\n    tag_45:\n      mload(0x40)\n      dup1\n      swap2\n      sub\n      swap1\n      return\n        /* \"contracts/organization/DaoAccessControl.sol\":568:801  function createPermissionByLevel(bytes memory permissionName, bytes memory permissionAlready) \r... */\n    tag_10:\n      tag_47\n      0x04\n      dup1\n      calldatasize\n      sub\n      dup2\n      add\n      swap1\n      tag_48\n      swap2\n      swap1\n      tag_49\n      jump\t// in\n    tag_48:\n      tag_50\n      jump\t// in\n    tag_47:\n      stop\n        /* \"contracts/organization/DaoAccessControl.sol\":392:560  function createPermission(bytes memory permissionName) \r... */\n    tag_11:\n      tag_51\n      0x04\n      dup1\n      calldatasize\n      sub\n      dup2\n      add\n      swap1\n      tag_52\n      swap2\n      swap1\n      tag_17\n      jump\t// in\n    tag_52:\n      tag_53\n      jump\t// in\n    tag_51:\n      stop\n        /* \"contracts/organization/DaoAccessControl.sol\":985:1191  function grantAccountPermission(bytes memory permissionName, address account) \r... */\n    tag_12:\n      tag_54\n      0x04\n      dup1\n      calldatasize\n      sub\n      dup2\n      add\n      swap1\n      tag_55\n      swap2\n      swap1\n      tag_56\n      jump\t// in\n    tag_55:\n      tag_57\n      jump\t// in\n    tag_54:\n      stop\n        /* \"contracts/organization/DaoAccessControl.sol\":1199:1407  function revokeAccountPermission(bytes memory permissionName, address account) \r... */\n    tag_13:\n      tag_58\n      0x04\n      dup1\n      calldatasize\n      sub\n      dup2\n      add\n      swap1\n      tag_59\n      swap2\n      swap1\n      tag_56\n      jump\t// in\n    tag_59:\n      tag_60\n      jump\t// in\n    tag_58:\n      stop\n        /* \"contracts/organization/DaoAccessControl.sol\":809:977  function deletePermission(bytes memory permissionName) \r... */\n    tag_18:\n        /* \"contracts/AccessControl.sol\":1147:1174  keccak256(\"ACCESS_MANAGER\") */\n      0x73d57861095ed1ff7b0e5c00e25f9fc922cf9164e617149ee7073f371364c954\n        /* \"contracts/organization/DaoAccessControl.sol\":267:297  _check(permission, msg.sender) */\n      tag_62\n        /* \"contracts/organization/DaoAccessControl.sol\":274:284  permission */\n      dup2\n        /* \"contracts/organization/DaoAccessControl.sol\":286:296  msg.sender */\n      caller\n        /* \"contracts/organization/DaoAccessControl.sol\":267:273  _check */\n      tag_63\n        /* \"contracts/organization/DaoAccessControl.sol\":267:297  _check(permission, msg.sender) */\n      jump\t// in\n    tag_62:\n        /* \"contracts/organization/DaoAccessControl.sol\":259:364  require(_check(permission, msg.sender), \"AccessControl: You have no permission to access this function.\") */\n      tag_64\n      jumpi\n      mload(0x40)\n      0x08c379a000000000000000000000000000000000000000000000000000000000\n      dup2\n      mstore\n      0x04\n      add\n      tag_65\n      swap1\n      tag_66\n      jump\t// in\n    tag_65:\n      mload(0x40)\n      dup1\n      swap2\n      sub\n      swap1\n      revert\n    tag_64:\n        /* \"contracts/organization/DaoAccessControl.sol\":930:969  super._deletePermission(permissionName) */\n      tag_68\n        /* \"contracts/organization/DaoAccessControl.sol\":954:968  permissionName */\n      dup3\n        /* \"contracts/organization/DaoAccessControl.sol\":930:953  super._deletePermission */\n      tag_69\n        /* \"contracts/organization/DaoAccessControl.sol\":930:969  super._deletePermission(permissionName) */\n      jump\t// in\n    tag_68:\n        /* \"contracts/organization/DaoAccessControl.sol\":809:977  function deletePermission(bytes memory permissionName) \r... */\n      pop\n      pop\n      jump\t// out\n        /* \"contracts/organization/DaoAccessControl.sol\":1415:1558  function deleteAccount(address account) \r... */\n    tag_22:\n        /* \"contracts/AccessControl.sol\":1147:1174  keccak256(\"ACCESS_MANAGER\") */\n      0x73d57861095ed1ff7b0e5c00e25f9fc922cf9164e617149ee7073f371364c954\n        /* \"contracts/organization/DaoAccessControl.sol\":267:297  _check(permission, msg.sender) */\n      tag_71\n        /* \"contracts/organization/DaoAccessControl.sol\":274:284  permission */\n      dup2\n        /* \"contracts/organization/DaoAccessControl.sol\":286:296  msg.sender */\n      caller\n        /* \"contracts/organization/DaoAccessControl.sol\":267:273  _check */\n      tag_63\n        /* \"contracts/organization/DaoAccessControl.sol\":267:297  _check(permission, msg.sender) */\n      jump\t// in\n    tag_71:\n        /* \"contracts/organization/DaoAccessControl.sol\":259:364  require(_check(permission, msg.sender), \"AccessControl: You have no permission to access this function.\") */\n      tag_72\n      jumpi\n      mload(0x40)\n      0x08c379a000000000000000000000000000000000000000000000000000000000\n      dup2\n      mstore\n      0x04\n      add\n      tag_73\n      swap1\n      tag_66\n      jump\t// in\n    tag_73:\n      mload(0x40)\n      dup1\n      swap2\n      sub\n      swap1\n      revert\n    tag_72:\n        /* \"contracts/organization/DaoAccessControl.sol\":1521:1550  super._deleteAccount(account) */\n      tag_75\n        /* \"contracts/organization/DaoAccessControl.sol\":1542:1549  account */\n      dup3\n        /* \"contracts/organization/DaoAccessControl.sol\":1521:1541  super._deleteAccount */\n      tag_76\n        /* \"contracts/organization/DaoAccessControl.sol\":1521:1550  super._deleteAccount(account) */\n      jump\t// in\n    tag_75:\n        /* \"contracts/organization/DaoAccessControl.sol\":1415:1558  function deleteAccount(address account) \r... */\n      pop\n      pop\n      jump\t// out\n        /* \"contracts/organization/DaoAccessControl.sol\":1963:2199  function inquiryAllAccountsByPermission(string memory permissionName) \r... */\n    tag_26:\n        /* \"contracts/organization/DaoAccessControl.sol\":2096:2112  address[] memory */\n      0x60\n        /* \"contracts/AccessControl.sol\":799:817  keccak256(\"STAFF\") */\n      0xa724c0857099da33c38b932ce5d4e84578ee9792153085d9d5e379bfba70cacb\n        /* \"contracts/organization/DaoAccessControl.sol\":267:297  _check(permission, msg.sender) */\n      tag_78\n        /* \"contracts/organization/DaoAccessControl.sol\":274:284  permission */\n      dup2\n        /* \"contracts/organization/DaoAccessControl.sol\":286:296  msg.sender */\n      caller\n        /* \"contracts/organization/DaoAccessControl.sol\":267:273  _check */\n      tag_63\n        /* \"contracts/organization/DaoAccessControl.sol\":267:297  _check(permission, msg.sender) */\n      jump\t// in\n    tag_78:\n        /* \"contracts/organization/DaoAccessControl.sol\":259:364  require(_check(permission, msg.sender), \"AccessControl: You have no permission to access this function.\") */\n      tag_79\n      jumpi\n      mload(0x40)\n      0x08c379a000000000000000000000000000000000000000000000000000000000\n      dup2\n      mstore\n      0x04\n      add\n      tag_80\n      swap1\n      tag_66\n      jump\t// in\n    tag_80:\n      mload(0x40)\n      dup1\n      swap2\n      sub\n      swap1\n      revert\n    tag_79:\n        /* \"contracts/organization/DaoAccessControl.sol\":2138:2191  super._inquiryAllAccountsByPermission(permissionName) */\n      tag_82\n        /* \"contracts/organization/DaoAccessControl.sol\":2176:2190  permissionName */\n      dup4\n        /* \"contracts/organization/DaoAccessControl.sol\":2138:2175  super._inquiryAllAccountsByPermission */\n      tag_83\n        /* \"contracts/organization/DaoAccessControl.sol\":2138:2191  super._inquiryAllAccountsByPermission(permissionName) */\n      jump\t// in\n    tag_82:\n        /* \"contracts/organization/DaoAccessControl.sol\":2131:2191  return super._inquiryAllAccountsByPermission(permissionName) */\n      swap2\n      pop\n        /* \"contracts/organization/DaoAccessControl.sol\":1963:2199  function inquiryAllAccountsByPermission(string memory permissionName) \r... */\n      pop\n      swap2\n      swap1\n      pop\n      jump\t// out\n        /* \"contracts/organization/DaoAccessControl.sol\":2431:2570  function inquiryAdmin() public view override allowPermission(ADMIN) returns (address) \r... */\n    tag_30:\n        /* \"contracts/organization/DaoAccessControl.sol\":2508:2515  address */\n      0x00\n        /* \"contracts/AccessControl.sol\":677:695  keccak256(\"ADMIN\") */\n      0xdf8b4c520ffe197c5343c6f5aec59570151ef9a492f2c624fd45ddde6135ec42\n        /* \"contracts/organization/DaoAccessControl.sol\":267:297  _check(permission, msg.sender) */\n      tag_85\n        /* \"contracts/organization/DaoAccessControl.sol\":274:284  permission */\n      dup2\n        /* \"contracts/organization/DaoAccessControl.sol\":286:296  msg.sender */\n      caller\n        /* \"contracts/organization/DaoAccessControl.sol\":267:273  _check */\n      tag_63\n        /* \"contracts/organization/DaoAccessControl.sol\":267:297  _check(permission, msg.sender) */\n      jump\t// in\n    tag_85:\n        /* \"contracts/organization/DaoAccessControl.sol\":259:364  require(_check(permission, msg.sender), \"AccessControl: You have no permission to access this function.\") */\n      tag_86\n      jumpi\n      mload(0x40)\n      0x08c379a000000000000000000000000000000000000000000000000000000000\n      dup2\n      mstore\n      0x04\n      add\n      tag_87\n      swap1\n      tag_66\n      jump\t// in\n    tag_87:\n      mload(0x40)\n      dup1\n      swap2\n      sub\n      swap1\n      revert\n    tag_86:\n        /* \"contracts/organization/DaoAccessControl.sol\":2541:2562  super._inquiryAdmin() */\n      tag_89\n        /* \"contracts/organization/DaoAccessControl.sol\":2541:2560  super._inquiryAdmin */\n      tag_90\n        /* \"contracts/organization/DaoAccessControl.sol\":2541:2562  super._inquiryAdmin() */\n      jump\t// in\n    tag_89:\n        /* \"contracts/organization/DaoAccessControl.sol\":2534:2562  return super._inquiryAdmin() */\n      swap2\n      pop\n        /* \"contracts/organization/DaoAccessControl.sol\":2431:2570  function inquiryAdmin() public view override allowPermission(ADMIN) returns (address) \r... */\n      pop\n      swap1\n      jump\t// out\n        /* \"contracts/organization/DaoAccessControl.sol\":1566:1709  function transferAdmin(address account) \r... */\n    tag_35:\n        /* \"contracts/AccessControl.sol\":1147:1174  keccak256(\"ACCESS_MANAGER\") */\n      0x73d57861095ed1ff7b0e5c00e25f9fc922cf9164e617149ee7073f371364c954\n        /* \"contracts/organization/DaoAccessControl.sol\":267:297  _check(permission, msg.sender) */\n      tag_92\n        /* \"contracts/organization/DaoAccessControl.sol\":274:284  permission */\n      dup2\n        /* \"contracts/organization/DaoAccessControl.sol\":286:296  msg.sender */\n      caller\n        /* \"contracts/organization/DaoAccessControl.sol\":267:273  _check */\n      tag_63\n        /* \"contracts/organization/DaoAccessControl.sol\":267:297  _check(permission, msg.sender) */\n      jump\t// in\n    tag_92:\n        /* \"contracts/organization/DaoAccessControl.sol\":259:364  require(_check(permission, msg.sender), \"AccessControl: You have no permission to access this function.\") */\n      tag_93\n      jumpi\n      mload(0x40)\n      0x08c379a000000000000000000000000000000000000000000000000000000000\n      dup2\n      mstore\n      0x04\n      add\n      tag_94\n      swap1\n      tag_66\n      jump\t// in\n    tag_94:\n      mload(0x40)\n      dup1\n      swap2\n      sub\n      swap1\n      revert\n    tag_93:\n        /* \"contracts/organization/DaoAccessControl.sol\":1672:1701  super._transferAdmin(account) */\n      tag_96\n        /* \"contracts/organization/DaoAccessControl.sol\":1693:1700  account */\n      dup3\n        /* \"contracts/organization/DaoAccessControl.sol\":1672:1692  super._transferAdmin */\n      tag_97\n        /* \"contracts/organization/DaoAccessControl.sol\":1672:1701  super._transferAdmin(account) */\n      jump\t// in\n    tag_96:\n        /* \"contracts/organization/DaoAccessControl.sol\":1566:1709  function transferAdmin(address account) \r... */\n      pop\n      pop\n      jump\t// out\n        /* \"contracts/organization/DaoAccessControl.sol\":2207:2423  function inquiryAllPermissionsByAccount(address account) \r... */\n    tag_38:\n        /* \"contracts/organization/DaoAccessControl.sol\":2327:2343  bytes32[] memory */\n      0x60\n        /* \"contracts/AccessControl.sol\":799:817  keccak256(\"STAFF\") */\n      0xa724c0857099da33c38b932ce5d4e84578ee9792153085d9d5e379bfba70cacb\n        /* \"contracts/organization/DaoAccessControl.sol\":267:297  _check(permission, msg.sender) */\n      tag_99\n        /* \"contracts/organization/DaoAccessControl.sol\":274:284  permission */\n      dup2\n        /* \"contracts/organization/DaoAccessControl.sol\":286:296  msg.sender */\n      caller\n        /* \"contracts/organization/DaoAccessControl.sol\":267:273  _check */\n      tag_63\n        /* \"contracts/organization/DaoAccessControl.sol\":267:297  _check(permission, msg.sender) */\n      jump\t// in\n    tag_99:\n        /* \"contracts/organization/DaoAccessControl.sol\":259:364  require(_check(permission, msg.sender), \"AccessControl: You have no permission to access this function.\") */\n      tag_100\n      jumpi\n      mload(0x40)\n      0x08c379a000000000000000000000000000000000000000000000000000000000\n      dup2\n      mstore\n      0x04\n      add\n      tag_101\n      swap1\n      tag_66\n      jump\t// in\n    tag_101:\n      mload(0x40)\n      dup1\n      swap2\n      sub\n      swap1\n      revert\n    tag_100:\n        /* \"contracts/organization/DaoAccessControl.sol\":2369:2415  super._inquiryAllPermissionsByAccount(account) */\n      tag_103\n        /* \"contracts/organization/DaoAccessControl.sol\":2407:2414  account */\n      dup4\n        /* \"contracts/organization/DaoAccessControl.sol\":2369:2406  super._inquiryAllPermissionsByAccount */\n      tag_104\n        /* \"contracts/organization/DaoAccessControl.sol\":2369:2415  super._inquiryAllPermissionsByAccount(account) */\n      jump\t// in\n    tag_103:\n        /* \"contracts/organization/DaoAccessControl.sol\":2362:2415  return super._inquiryAllPermissionsByAccount(account) */\n      swap2\n      pop\n        /* \"contracts/organization/DaoAccessControl.sol\":2207:2423  function inquiryAllPermissionsByAccount(address account) \r... */\n      pop\n      swap2\n      swap1\n      pop\n      jump\t// out\n        /* \"contracts/organization/DaoAccessControl.sol\":1717:1955  function inquiryAccountPermission(string memory permissionName, address account) \r... */\n    tag_44:\n        /* \"contracts/organization/DaoAccessControl.sol\":1861:1865  bool */\n      0x00\n        /* \"contracts/AccessControl.sol\":677:695  keccak256(\"ADMIN\") */\n      0xdf8b4c520ffe197c5343c6f5aec59570151ef9a492f2c624fd45ddde6135ec42\n        /* \"contracts/organization/DaoAccessControl.sol\":267:297  _check(permission, msg.sender) */\n      tag_106\n        /* \"contracts/organization/DaoAccessControl.sol\":274:284  permission */\n      dup2\n        /* \"contracts/organization/DaoAccessControl.sol\":286:296  msg.sender */\n      caller\n        /* \"contracts/organization/DaoAccessControl.sol\":267:273  _check */\n      tag_63\n        /* \"contracts/organization/DaoAccessControl.sol\":267:297  _check(permission, msg.sender) */\n      jump\t// in\n    tag_106:\n        /* \"contracts/organization/DaoAccessControl.sol\":259:364  require(_check(permission, msg.sender), \"AccessControl: You have no permission to access this function.\") */\n      tag_107\n      jumpi\n      mload(0x40)\n      0x08c379a000000000000000000000000000000000000000000000000000000000\n      dup2\n      mstore\n      0x04\n      add\n      tag_108\n      swap1\n      tag_66\n      jump\t// in\n    tag_108:\n      mload(0x40)\n      dup1\n      swap2\n      sub\n      swap1\n      revert\n    tag_107:\n        /* \"contracts/organization/DaoAccessControl.sol\":1891:1947  super._inquiryAccountPermission(permissionName, account) */\n      tag_110\n        /* \"contracts/organization/DaoAccessControl.sol\":1923:1937  permissionName */\n      dup5\n        /* \"contracts/organization/DaoAccessControl.sol\":1939:1946  account */\n      dup5\n        /* \"contracts/organization/DaoAccessControl.sol\":1891:1922  super._inquiryAccountPermission */\n      tag_111\n        /* \"contracts/organization/DaoAccessControl.sol\":1891:1947  super._inquiryAccountPermission(permissionName, account) */\n      jump\t// in\n    tag_110:\n        /* \"contracts/organization/DaoAccessControl.sol\":1884:1947  return super._inquiryAccountPermission(permissionName, account) */\n      swap2\n      pop\n        /* \"contracts/organization/DaoAccessControl.sol\":1717:1955  function inquiryAccountPermission(string memory permissionName, address account) \r... */\n      pop\n      swap3\n      swap2\n      pop\n      pop\n      jump\t// out\n        /* \"contracts/organization/DaoAccessControl.sol\":568:801  function createPermissionByLevel(bytes memory permissionName, bytes memory permissionAlready) \r... */\n    tag_50:\n        /* \"contracts/AccessControl.sol\":1147:1174  keccak256(\"ACCESS_MANAGER\") */\n      0x73d57861095ed1ff7b0e5c00e25f9fc922cf9164e617149ee7073f371364c954\n        /* \"contracts/organization/DaoAccessControl.sol\":267:297  _check(permission, msg.sender) */\n      tag_113\n        /* \"contracts/organization/DaoAccessControl.sol\":274:284  permission */\n      dup2\n        /* \"contracts/organization/DaoAccessControl.sol\":286:296  msg.sender */\n      caller\n        /* \"contracts/organization/DaoAccessControl.sol\":267:273  _check */\n      tag_63\n        /* \"contracts/organization/DaoAccessControl.sol\":267:297  _check(permission, msg.sender) */\n      jump\t// in\n    tag_113:\n        /* \"contracts/organization/DaoAccessControl.sol\":259:364  require(_check(permission, msg.sender), \"AccessControl: You have no permission to access this function.\") */\n      tag_114\n      jumpi\n      mload(0x40)\n      0x08c379a000000000000000000000000000000000000000000000000000000000\n      dup2\n      mstore\n      0x04\n      add\n      tag_115\n      swap1\n      tag_66\n      jump\t// in\n    tag_115:\n      mload(0x40)\n      dup1\n      swap2\n      sub\n      swap1\n      revert\n    tag_114:\n        /* \"contracts/organization/DaoAccessControl.sol\":728:793  super._createPermissionByLevel(permissionName, permissionAlready) */\n      tag_117\n        /* \"contracts/organization/DaoAccessControl.sol\":759:773  permissionName */\n      dup4\n        /* \"contracts/organization/DaoAccessControl.sol\":775:792  permissionAlready */\n      dup4\n        /* \"contracts/organization/DaoAccessControl.sol\":728:758  super._createPermissionByLevel */\n      tag_118\n        /* \"contracts/organization/DaoAccessControl.sol\":728:793  super._createPermissionByLevel(permissionName, permissionAlready) */\n      jump\t// in\n    tag_117:\n        /* \"contracts/organization/DaoAccessControl.sol\":568:801  function createPermissionByLevel(bytes memory permissionName, bytes memory permissionAlready) \r... */\n      pop\n      pop\n      pop\n      jump\t// out\n        /* \"contracts/organization/DaoAccessControl.sol\":392:560  function createPermission(bytes memory permissionName) \r... */\n    tag_53:\n        /* \"contracts/AccessControl.sol\":1147:1174  keccak256(\"ACCESS_MANAGER\") */\n      0x73d57861095ed1ff7b0e5c00e25f9fc922cf9164e617149ee7073f371364c954\n        /* \"contracts/organization/DaoAccessControl.sol\":267:297  _check(permission, msg.sender) */\n      tag_120\n        /* \"contracts/organization/DaoAccessControl.sol\":274:284  permission */\n      dup2\n        /* \"contracts/organization/DaoAccessControl.sol\":286:296  msg.sender */\n      caller\n        /* \"contracts/organization/DaoAccessControl.sol\":267:273  _check */\n      tag_63\n        /* \"contracts/organization/DaoAccessControl.sol\":267:297  _check(permission, msg.sender) */\n      jump\t// in\n    tag_120:\n        /* \"contracts/organization/DaoAccessControl.sol\":259:364  require(_check(permission, msg.sender), \"AccessControl: You have no permission to access this function.\") */\n      tag_121\n      jumpi\n      mload(0x40)\n      0x08c379a000000000000000000000000000000000000000000000000000000000\n      dup2\n      mstore\n      0x04\n      add\n      tag_122\n      swap1\n      tag_66\n      jump\t// in\n    tag_122:\n      mload(0x40)\n      dup1\n      swap2\n      sub\n      swap1\n      revert\n    tag_121:\n        /* \"contracts/organization/DaoAccessControl.sol\":513:552  super._createPermission(permissionName) */\n      tag_124\n        /* \"contracts/organization/DaoAccessControl.sol\":537:551  permissionName */\n      dup3\n        /* \"contracts/organization/DaoAccessControl.sol\":513:536  super._createPermission */\n      tag_125\n        /* \"contracts/organization/DaoAccessControl.sol\":513:552  super._createPermission(permissionName) */\n      jump\t// in\n    tag_124:\n        /* \"contracts/organization/DaoAccessControl.sol\":392:560  function createPermission(bytes memory permissionName) \r... */\n      pop\n      pop\n      jump\t// out\n        /* \"contracts/organization/DaoAccessControl.sol\":985:1191  function grantAccountPermission(bytes memory permissionName, address account) \r... */\n    tag_57:\n        /* \"contracts/AccessControl.sol\":1147:1174  keccak256(\"ACCESS_MANAGER\") */\n      0x73d57861095ed1ff7b0e5c00e25f9fc922cf9164e617149ee7073f371364c954\n        /* \"contracts/organization/DaoAccessControl.sol\":267:297  _check(permission, msg.sender) */\n      tag_127\n        /* \"contracts/organization/DaoAccessControl.sol\":274:284  permission */\n      dup2\n        /* \"contracts/organization/DaoAccessControl.sol\":286:296  msg.sender */\n      caller\n        /* \"contracts/organization/DaoAccessControl.sol\":267:273  _check */\n      tag_63\n        /* \"contracts/organization/DaoAccessControl.sol\":267:297  _check(permission, msg.sender) */\n      jump\t// in\n    tag_127:\n        /* \"contracts/organization/DaoAccessControl.sol\":259:364  require(_check(permission, msg.sender), \"AccessControl: You have no permission to access this function.\") */\n      tag_128\n      jumpi\n      mload(0x40)\n      0x08c379a000000000000000000000000000000000000000000000000000000000\n      dup2\n      mstore\n      0x04\n      add\n      tag_129\n      swap1\n      tag_66\n      jump\t// in\n    tag_129:\n      mload(0x40)\n      dup1\n      swap2\n      sub\n      swap1\n      revert\n    tag_128:\n        /* \"contracts/organization/DaoAccessControl.sol\":1129:1183  super._grantAccountPermission(permissionName, account) */\n      tag_131\n        /* \"contracts/organization/DaoAccessControl.sol\":1159:1173  permissionName */\n      dup4\n        /* \"contracts/organization/DaoAccessControl.sol\":1175:1182  account */\n      dup4\n        /* \"contracts/organization/DaoAccessControl.sol\":1129:1158  super._grantAccountPermission */\n      tag_132\n        /* \"contracts/organization/DaoAccessControl.sol\":1129:1183  super._grantAccountPermission(permissionName, account) */\n      jump\t// in\n    tag_131:\n        /* \"contracts/organization/DaoAccessControl.sol\":985:1191  function grantAccountPermission(bytes memory permissionName, address account) \r... */\n      pop\n      pop\n      pop\n      jump\t// out\n        /* \"contracts/organization/DaoAccessControl.sol\":1199:1407  function revokeAccountPermission(bytes memory permissionName, address account) \r... */\n    tag_60:\n        /* \"contracts/AccessControl.sol\":1147:1174  keccak256(\"ACCESS_MANAGER\") */\n      0x73d57861095ed1ff7b0e5c00e25f9fc922cf9164e617149ee7073f371364c954\n        /* \"contracts/organization/DaoAccessControl.sol\":267:297  _check(permission, msg.sender) */\n      tag_134\n        /* \"contracts/organization/DaoAccessControl.sol\":274:284  permission */\n      dup2\n        /* \"contracts/organization/DaoAccessControl.sol\":286:296  msg.sender */\n      caller\n        /* \"contracts/organization/DaoAccessControl.sol\":267:273  _check */\n      tag_63\n        /* \"contracts/organization/DaoAccessControl.sol\":267:297  _check(permission, msg.sender) */\n      jump\t// in\n    tag_134:\n        /* \"contracts/organization/DaoAccessControl.sol\":259:364  require(_check(permission, msg.sender), \"AccessControl: You have no permission to access this function.\") */\n      tag_135\n      jumpi\n      mload(0x40)\n      0x08c379a000000000000000000000000000000000000000000000000000000000\n      dup2\n      mstore\n      0x04\n      add\n      tag_136\n      swap1\n      tag_66\n      jump\t// in\n    tag_136:\n      mload(0x40)\n      dup1\n      swap2\n      sub\n      swap1\n      revert\n    tag_135:\n        /* \"contracts/organization/DaoAccessControl.sol\":1344:1399  super._revokeAccountPermission(permissionName, account) */\n      tag_138\n        /* \"contracts/organization/DaoAccessControl.sol\":1375:1389  permissionName */\n      dup4\n        /* \"contracts/organization/DaoAccessControl.sol\":1391:1398  account */\n      dup4\n        /* \"contracts/organization/DaoAccessControl.sol\":1344:1374  super._revokeAccountPermission */\n      tag_139\n        /* \"contracts/organization/DaoAccessControl.sol\":1344:1399  super._revokeAccountPermission(permissionName, account) */\n      jump\t// in\n    tag_138:\n        /* \"contracts/organization/DaoAccessControl.sol\":1199:1407  function revokeAccountPermission(bytes memory permissionName, address account) \r... */\n      pop\n      pop\n      pop\n      jump\t// out\n        /* \"contracts/AccessControl.sol\":1652:1924  function _check(bytes32 permission, address account) internal view virtual returns (bool) {\r... */\n    tag_63:\n        /* \"contracts/AccessControl.sol\":1736:1740  bool */\n      0x00\n        /* \"contracts/AccessControl.sol\":1757:1772  _allPermissions */\n      dup1\n        /* \"contracts/AccessControl.sol\":1757:1784  _allPermissions[permission] */\n      0x00\n        /* \"contracts/AccessControl.sol\":1773:1783  permission */\n      dup5\n        /* \"contracts/AccessControl.sol\":1757:1784  _allPermissions[permission] */\n      dup2\n      mstore\n      0x20\n      add\n      swap1\n      dup2\n      mstore\n      0x20\n      add\n      0x00\n      keccak256\n        /* \"contracts/AccessControl.sol\":1757:1792  _allPermissions[permission].isValid */\n      0x03\n      add\n      0x00\n      swap1\n      sload\n      swap1\n      0x0100\n      exp\n      swap1\n      div\n      0xff\n      and\n        /* \"contracts/AccessControl.sol\":1753:1917  if(!_allPermissions[permission].isValid) {\r... */\n      tag_141\n      jumpi\n        /* \"contracts/AccessControl.sol\":1816:1821  false */\n      0x00\n        /* \"contracts/AccessControl.sol\":1809:1821  return false */\n      swap1\n      pop\n      jump(tag_140)\n        /* \"contracts/AccessControl.sol\":1753:1917  if(!_allPermissions[permission].isValid) {\r... */\n    tag_141:\n        /* \"contracts/AccessControl.sol\":1861:1876  _allPermissions */\n      0x00\n        /* \"contracts/AccessControl.sol\":1861:1888  _allPermissions[permission] */\n      dup1\n        /* \"contracts/AccessControl.sol\":1877:1887  permission */\n      dup5\n        /* \"contracts/AccessControl.sol\":1861:1888  _allPermissions[permission] */\n      dup2\n      mstore\n      0x20\n      add\n      swap1\n      dup2\n      mstore\n      0x20\n      add\n      0x00\n      keccak256\n        /* \"contracts/AccessControl.sol\":1861:1896  _allPermissions[permission].members */\n      0x00\n      add\n        /* \"contracts/AccessControl.sol\":1861:1905  _allPermissions[permission].members[account] */\n      0x00\n        /* \"contracts/AccessControl.sol\":1897:1904  account */\n      dup4\n        /* \"contracts/AccessControl.sol\":1861:1905  _allPermissions[permission].members[account] */\n      0xffffffffffffffffffffffffffffffffffffffff\n      and\n      0xffffffffffffffffffffffffffffffffffffffff\n      and\n      dup2\n      mstore\n      0x20\n      add\n      swap1\n      dup2\n      mstore\n      0x20\n      add\n      0x00\n      keccak256\n      0x00\n      swap1\n      sload\n      swap1\n      0x0100\n      exp\n      swap1\n      div\n      0xff\n      and\n        /* \"contracts/AccessControl.sol\":1854:1905  return _allPermissions[permission].members[account] */\n      swap1\n      pop\n        /* \"contracts/AccessControl.sol\":1652:1924  function _check(bytes32 permission, address account) internal view virtual returns (bool) {\r... */\n    tag_140:\n      swap3\n      swap2\n      pop\n      pop\n      jump\t// out\n        /* \"contracts/AccessControl.sol\":4976:5480  function _deletePermission(bytes memory permissionName) internal virtual {\r... */\n    tag_69:\n        /* \"contracts/AccessControl.sol\":5060:5078  bytes32 permission */\n      0x00\n        /* \"contracts/AccessControl.sol\":5091:5105  permissionName */\n      dup2\n        /* \"contracts/AccessControl.sol\":5081:5106  keccak256(permissionName) */\n      dup1\n      mload\n      swap1\n      0x20\n      add\n      keccak256\n        /* \"contracts/AccessControl.sol\":5060:5106  bytes32 permission = keccak256(permissionName) */\n      swap1\n      pop\n        /* \"contracts/AccessControl.sol\":5121:5136  _allPermissions */\n      0x00\n        /* \"contracts/AccessControl.sol\":5121:5148  _allPermissions[permission] */\n      dup1\n        /* \"contracts/AccessControl.sol\":5137:5147  permission */\n      dup3\n        /* \"contracts/AccessControl.sol\":5121:5148  _allPermissions[permission] */\n      dup2\n      mstore\n      0x20\n      add\n      swap1\n      dup2\n      mstore\n      0x20\n      add\n      0x00\n      keccak256\n        /* \"contracts/AccessControl.sol\":5121:5156  _allPermissions[permission].isValid */\n      0x03\n      add\n      0x00\n      swap1\n      sload\n      swap1\n      0x0100\n      exp\n      swap1\n      div\n      0xff\n      and\n        /* \"contracts/AccessControl.sol\":5121:5179  _allPermissions[permission].isValid && permission != ADMIN */\n      dup1\n      iszero\n      tag_144\n      jumpi\n      pop\n        /* \"contracts/AccessControl.sol\":677:695  keccak256(\"ADMIN\") */\n      0xdf8b4c520ffe197c5343c6f5aec59570151ef9a492f2c624fd45ddde6135ec42\n        /* \"contracts/AccessControl.sol\":5160:5170  permission */\n      dup2\n        /* \"contracts/AccessControl.sol\":5160:5179  permission != ADMIN */\n      eq\n      iszero\n        /* \"contracts/AccessControl.sol\":5121:5179  _allPermissions[permission].isValid && permission != ADMIN */\n    tag_144:\n        /* \"contracts/AccessControl.sol\":5117:5473  if (_allPermissions[permission].isValid && permission != ADMIN) {\r... */\n      iszero\n      tag_145\n      jumpi\n        /* \"contracts/AccessControl.sol\":5312:5317  false */\n      0x00\n        /* \"contracts/AccessControl.sol\":5274:5289  _allPermissions */\n      dup1\n        /* \"contracts/AccessControl.sol\":5274:5301  _allPermissions[permission] */\n      0x00\n        /* \"contracts/AccessControl.sol\":5290:5300  permission */\n      dup4\n        /* \"contracts/AccessControl.sol\":5274:5301  _allPermissions[permission] */\n      dup2\n      mstore\n      0x20\n      add\n      swap1\n      dup2\n      mstore\n      0x20\n      add\n      0x00\n      keccak256\n        /* \"contracts/AccessControl.sol\":5274:5309  _allPermissions[permission].isValid */\n      0x03\n      add\n      0x00\n        /* \"contracts/AccessControl.sol\":5274:5317  _allPermissions[permission].isValid = false */\n      0x0100\n      exp\n      dup2\n      sload\n      dup2\n      0xff\n      mul\n      not\n      and\n      swap1\n      dup4\n      iszero\n      iszero\n      mul\n      or\n      swap1\n      sstore\n      pop\n        /* \"contracts/AccessControl.sol\":5371:5381  msg.sender */\n      caller\n        /* \"contracts/AccessControl.sol\":5337:5382  PermissionDeleted(permissionName, msg.sender) */\n      0xffffffffffffffffffffffffffffffffffffffff\n      and\n        /* \"contracts/AccessControl.sol\":5355:5369  permissionName */\n      dup3\n        /* \"contracts/AccessControl.sol\":5337:5382  PermissionDeleted(permissionName, msg.sender) */\n      mload(0x40)\n      tag_146\n      swap2\n      swap1\n      tag_147\n      jump\t// in\n    tag_146:\n      mload(0x40)\n      dup1\n      swap2\n      sub\n      swap1\n      keccak256\n      0xef4f3adabb4ce2cc6076cc23d211eff03f6e49839a9d773d7c77f48a83a2d859\n      mload(0x40)\n      mload(0x40)\n      dup1\n      swap2\n      sub\n      swap1\n      log3\n        /* \"contracts/AccessControl.sol\":5117:5473  if (_allPermissions[permission].isValid && permission != ADMIN) {\r... */\n      jump(tag_148)\n    tag_145:\n        /* \"contracts/AccessControl.sol\":5415:5461  _informFailure(\"The permission is not valid.\") */\n      tag_149\n      mload(0x40)\n      dup1\n      0x40\n      add\n      0x40\n      mstore\n      dup1\n      0x1c\n      dup2\n      mstore\n      0x20\n      add\n      0x546865207065726d697373696f6e206973206e6f742076616c69642e00000000\n      dup2\n      mstore\n      pop\n        /* \"contracts/AccessControl.sol\":5415:5429  _informFailure */\n      tag_150\n        /* \"contracts/AccessControl.sol\":5415:5461  _informFailure(\"The permission is not valid.\") */\n      jump\t// in\n    tag_149:\n        /* \"contracts/AccessControl.sol\":5117:5473  if (_allPermissions[permission].isValid && permission != ADMIN) {\r... */\n    tag_148:\n        /* \"contracts/AccessControl.sol\":5049:5480  {\r... */\n      pop\n        /* \"contracts/AccessControl.sol\":4976:5480  function _deletePermission(bytes memory permissionName) internal virtual {\r... */\n      pop\n      jump\t// out\n        /* \"contracts/AccessControl.sol\":7482:8165  function _deleteAccount(address account) internal virtual {\r... */\n    tag_76:\n        /* \"contracts/AccessControl.sol\":7636:7658  _check(ADMIN, account) */\n      tag_152\n        /* \"contracts/AccessControl.sol\":677:695  keccak256(\"ADMIN\") */\n      0xdf8b4c520ffe197c5343c6f5aec59570151ef9a492f2c624fd45ddde6135ec42\n        /* \"contracts/AccessControl.sol\":7650:7657  account */\n      dup3\n        /* \"contracts/AccessControl.sol\":7636:7642  _check */\n      tag_63\n        /* \"contracts/AccessControl.sol\":7636:7658  _check(ADMIN, account) */\n      jump\t// in\n    tag_152:\n        /* \"contracts/AccessControl.sol\":7635:7658  !_check(ADMIN, account) */\n      iszero\n        /* \"contracts/AccessControl.sol\":7635:7687  !_check(ADMIN, account) || _check(ADMIN, msg.sender) */\n      dup1\n      tag_153\n      jumpi\n      pop\n        /* \"contracts/AccessControl.sol\":7662:7687  _check(ADMIN, msg.sender) */\n      tag_154\n        /* \"contracts/AccessControl.sol\":677:695  keccak256(\"ADMIN\") */\n      0xdf8b4c520ffe197c5343c6f5aec59570151ef9a492f2c624fd45ddde6135ec42\n        /* \"contracts/AccessControl.sol\":7676:7686  msg.sender */\n      caller\n        /* \"contracts/AccessControl.sol\":7662:7668  _check */\n      tag_63\n        /* \"contracts/AccessControl.sol\":7662:7687  _check(ADMIN, msg.sender) */\n      jump\t// in\n    tag_154:\n        /* \"contracts/AccessControl.sol\":7635:7687  !_check(ADMIN, account) || _check(ADMIN, msg.sender) */\n    tag_153:\n        /* \"contracts/AccessControl.sol\":7632:8158  if(!_check(ADMIN, account) || _check(ADMIN, msg.sender)) {\r... */\n      iszero\n      tag_155\n      jumpi\n        /* \"contracts/AccessControl.sol\":7777:7783  uint i */\n      0x00\n        /* \"contracts/AccessControl.sol\":7786:7787  1 */\n      0x01\n        /* \"contracts/AccessControl.sol\":7777:7787  uint i = 1 */\n      swap1\n      pop\n        /* \"contracts/AccessControl.sol\":7773:8021  for(uint i = 1; i < _numberOfPermissions; i++) {\r... */\n    tag_156:\n        /* \"contracts/AccessControl.sol\":7793:7813  _numberOfPermissions */\n      sload(0x02)\n        /* \"contracts/AccessControl.sol\":7789:7790  i */\n      dup2\n        /* \"contracts/AccessControl.sol\":7789:7813  i < _numberOfPermissions */\n      lt\n        /* \"contracts/AccessControl.sol\":7773:8021  for(uint i = 1; i < _numberOfPermissions; i++) {\r... */\n      iszero\n      tag_157\n      jumpi\n        /* \"contracts/AccessControl.sol\":7842:7857  _allPermissions */\n      0x00\n        /* \"contracts/AccessControl.sol\":7842:7881  _allPermissions[_indexOfPermissions[i]] */\n      dup1\n        /* \"contracts/AccessControl.sol\":7858:7877  _indexOfPermissions */\n      0x01\n        /* \"contracts/AccessControl.sol\":7858:7880  _indexOfPermissions[i] */\n      0x00\n        /* \"contracts/AccessControl.sol\":7878:7879  i */\n      dup5\n        /* \"contracts/AccessControl.sol\":7858:7880  _indexOfPermissions[i] */\n      dup2\n      mstore\n      0x20\n      add\n      swap1\n      dup2\n      mstore\n      0x20\n      add\n      0x00\n      keccak256\n      sload\n        /* \"contracts/AccessControl.sol\":7842:7881  _allPermissions[_indexOfPermissions[i]] */\n      dup2\n      mstore\n      0x20\n      add\n      swap1\n      dup2\n      mstore\n      0x20\n      add\n      0x00\n      keccak256\n        /* \"contracts/AccessControl.sol\":7842:7889  _allPermissions[_indexOfPermissions[i]].members */\n      0x00\n      add\n        /* \"contracts/AccessControl.sol\":7842:7898  _allPermissions[_indexOfPermissions[i]].members[account] */\n      0x00\n        /* \"contracts/AccessControl.sol\":7890:7897  account */\n      dup4\n        /* \"contracts/AccessControl.sol\":7842:7898  _allPermissions[_indexOfPermissions[i]].members[account] */\n      0xffffffffffffffffffffffffffffffffffffffff\n      and\n      0xffffffffffffffffffffffffffffffffffffffff\n      and\n      dup2\n      mstore\n      0x20\n      add\n      swap1\n      dup2\n      mstore\n      0x20\n      add\n      0x00\n      keccak256\n      0x00\n      swap1\n      sload\n      swap1\n      0x0100\n      exp\n      swap1\n      div\n      0xff\n      and\n        /* \"contracts/AccessControl.sol\":7839:8006  if(_allPermissions[_indexOfPermissions[i]].members[account]){\r... */\n      iszero\n      tag_159\n      jumpi\n        /* \"contracts/AccessControl.sol\":7981:7986  false */\n      0x00\n        /* \"contracts/AccessControl.sol\":7922:7937  _allPermissions */\n      dup1\n        /* \"contracts/AccessControl.sol\":7922:7961  _allPermissions[_indexOfPermissions[i]] */\n      0x00\n        /* \"contracts/AccessControl.sol\":7938:7957  _indexOfPermissions */\n      0x01\n        /* \"contracts/AccessControl.sol\":7938:7960  _indexOfPermissions[i] */\n      0x00\n        /* \"contracts/AccessControl.sol\":7958:7959  i */\n      dup6\n        /* \"contracts/AccessControl.sol\":7938:7960  _indexOfPermissions[i] */\n      dup2\n      mstore\n      0x20\n      add\n      swap1\n      dup2\n      mstore\n      0x20\n      add\n      0x00\n      keccak256\n      sload\n        /* \"contracts/AccessControl.sol\":7922:7961  _allPermissions[_indexOfPermissions[i]] */\n      dup2\n      mstore\n      0x20\n      add\n      swap1\n      dup2\n      mstore\n      0x20\n      add\n      0x00\n      keccak256\n        /* \"contracts/AccessControl.sol\":7922:7969  _allPermissions[_indexOfPermissions[i]].members */\n      0x00\n      add\n        /* \"contracts/AccessControl.sol\":7922:7978  _allPermissions[_indexOfPermissions[i]].members[account] */\n      0x00\n        /* \"contracts/AccessControl.sol\":7970:7977  account */\n      dup5\n        /* \"contracts/AccessControl.sol\":7922:7978  _allPermissions[_indexOfPermissions[i]].members[account] */\n      0xffffffffffffffffffffffffffffffffffffffff\n      and\n      0xffffffffffffffffffffffffffffffffffffffff\n      and\n      dup2\n      mstore\n      0x20\n      add\n      swap1\n      dup2\n      mstore\n      0x20\n      add\n      0x00\n      keccak256\n      0x00\n        /* \"contracts/AccessControl.sol\":7922:7986  _allPermissions[_indexOfPermissions[i]].members[account] = false */\n      0x0100\n      exp\n      dup2\n      sload\n      dup2\n      0xff\n      mul\n      not\n      and\n      swap1\n      dup4\n      iszero\n      iszero\n      mul\n      or\n      swap1\n      sstore\n      pop\n        /* \"contracts/AccessControl.sol\":7839:8006  if(_allPermissions[_indexOfPermissions[i]].members[account]){\r... */\n    tag_159:\n        /* \"contracts/AccessControl.sol\":7815:7818  i++ */\n      dup1\n      dup1\n      tag_160\n      swap1\n      tag_161\n      jump\t// in\n    tag_160:\n      swap2\n      pop\n      pop\n        /* \"contracts/AccessControl.sol\":7773:8021  for(uint i = 1; i < _numberOfPermissions; i++) {\r... */\n      jump(tag_156)\n    tag_157:\n      pop\n        /* \"contracts/AccessControl.sol\":8060:8070  msg.sender */\n      caller\n        /* \"contracts/AccessControl.sol\":8036:8071  AccountDeleted(account, msg.sender) */\n      0xffffffffffffffffffffffffffffffffffffffff\n      and\n        /* \"contracts/AccessControl.sol\":8051:8058  account */\n      dup2\n        /* \"contracts/AccessControl.sol\":8036:8071  AccountDeleted(account, msg.sender) */\n      0xffffffffffffffffffffffffffffffffffffffff\n      and\n      0xfd7e144a5e02c1180e00f9591ef4f60aa95b127c4f134847224a4b6cb99fef96\n      mload(0x40)\n      mload(0x40)\n      dup1\n      swap2\n      sub\n      swap1\n      log3\n        /* \"contracts/AccessControl.sol\":7632:8158  if(!_check(ADMIN, account) || _check(ADMIN, msg.sender)) {\r... */\n      jump(tag_162)\n    tag_155:\n        /* \"contracts/AccessControl.sol\":8104:8146  _informFailure(\"You cannot delete ADMIN.\") */\n      tag_163\n      mload(0x40)\n      dup1\n      0x40\n      add\n      0x40\n      mstore\n      dup1\n      0x18\n      dup2\n      mstore\n      0x20\n      add\n      0x596f752063616e6e6f742064656c6574652041444d494e2e0000000000000000\n      dup2\n      mstore\n      pop\n        /* \"contracts/AccessControl.sol\":8104:8118  _informFailure */\n      tag_150\n        /* \"contracts/AccessControl.sol\":8104:8146  _informFailure(\"You cannot delete ADMIN.\") */\n      jump\t// in\n    tag_163:\n        /* \"contracts/AccessControl.sol\":7632:8158  if(!_check(ADMIN, account) || _check(ADMIN, msg.sender)) {\r... */\n    tag_162:\n        /* \"contracts/AccessControl.sol\":7482:8165  function _deleteAccount(address account) internal virtual {\r... */\n      pop\n      jump\t// out\n        /* \"contracts/AccessControl.sol\":9374:10032  function _inquiryAllAccountsByPermission(string memory permissionName) \r... */\n    tag_83:\n        /* \"contracts/AccessControl.sol\":9496:9512  address[] memory */\n      0x60\n        /* \"contracts/AccessControl.sol\":9531:9563  address[] memory relatedAccounts */\n      dup1\n        /* \"contracts/AccessControl.sol\":9574:9592  bytes32 permission */\n      0x00\n        /* \"contracts/AccessControl.sol\":9611:9625  permissionName */\n      dup4\n        /* \"contracts/AccessControl.sol\":9595:9627  keccak256(bytes(permissionName)) */\n      dup1\n      mload\n      swap1\n      0x20\n      add\n      keccak256\n        /* \"contracts/AccessControl.sol\":9574:9627  bytes32 permission = keccak256(bytes(permissionName)) */\n      swap1\n      pop\n        /* \"contracts/AccessControl.sol\":9638:9644  uint j */\n      0x00\n        /* \"contracts/AccessControl.sol\":9663:9669  uint i */\n      dup1\n        /* \"contracts/AccessControl.sol\":9659:9992  for(uint i = 0; i < _allPermissions[permission].length; i++) {\r... */\n    tag_165:\n        /* \"contracts/AccessControl.sol\":9679:9694  _allPermissions */\n      0x00\n        /* \"contracts/AccessControl.sol\":9679:9706  _allPermissions[permission] */\n      dup1\n        /* \"contracts/AccessControl.sol\":9695:9705  permission */\n      dup5\n        /* \"contracts/AccessControl.sol\":9679:9706  _allPermissions[permission] */\n      dup2\n      mstore\n      0x20\n      add\n      swap1\n      dup2\n      mstore\n      0x20\n      add\n      0x00\n      keccak256\n        /* \"contracts/AccessControl.sol\":9679:9713  _allPermissions[permission].length */\n      0x02\n      add\n      sload\n        /* \"contracts/AccessControl.sol\":9675:9676  i */\n      dup2\n        /* \"contracts/AccessControl.sol\":9675:9713  i < _allPermissions[permission].length */\n      lt\n        /* \"contracts/AccessControl.sol\":9659:9992  for(uint i = 0; i < _allPermissions[permission].length; i++) {\r... */\n      iszero\n      tag_166\n      jumpi\n        /* \"contracts/AccessControl.sol\":9792:9807  _allPermissions */\n      0x00\n        /* \"contracts/AccessControl.sol\":9792:9819  _allPermissions[permission] */\n      dup1\n        /* \"contracts/AccessControl.sol\":9808:9818  permission */\n      dup5\n        /* \"contracts/AccessControl.sol\":9792:9819  _allPermissions[permission] */\n      dup2\n      mstore\n      0x20\n      add\n      swap1\n      dup2\n      mstore\n      0x20\n      add\n      0x00\n      keccak256\n        /* \"contracts/AccessControl.sol\":9792:9827  _allPermissions[permission].members */\n      0x00\n      add\n        /* \"contracts/AccessControl.sol\":9792:9865  _allPermissions[permission].members[_allPermissions[permission].index[i]] */\n      0x00\n        /* \"contracts/AccessControl.sol\":9828:9843  _allPermissions */\n      dup1\n        /* \"contracts/AccessControl.sol\":9828:9855  _allPermissions[permission] */\n      0x00\n        /* \"contracts/AccessControl.sol\":9844:9854  permission */\n      dup7\n        /* \"contracts/AccessControl.sol\":9828:9855  _allPermissions[permission] */\n      dup2\n      mstore\n      0x20\n      add\n      swap1\n      dup2\n      mstore\n      0x20\n      add\n      0x00\n      keccak256\n        /* \"contracts/AccessControl.sol\":9828:9861  _allPermissions[permission].index */\n      0x01\n      add\n        /* \"contracts/AccessControl.sol\":9828:9864  _allPermissions[permission].index[i] */\n      0x00\n        /* \"contracts/AccessControl.sol\":9862:9863  i */\n      dup5\n        /* \"contracts/AccessControl.sol\":9828:9864  _allPermissions[permission].index[i] */\n      dup2\n      mstore\n      0x20\n      add\n      swap1\n      dup2\n      mstore\n      0x20\n      add\n      0x00\n      keccak256\n      0x00\n      swap1\n      sload\n      swap1\n      0x0100\n      exp\n      swap1\n      div\n      0xffffffffffffffffffffffffffffffffffffffff\n      and\n        /* \"contracts/AccessControl.sol\":9792:9865  _allPermissions[permission].members[_allPermissions[permission].index[i]] */\n      0xffffffffffffffffffffffffffffffffffffffff\n      and\n      0xffffffffffffffffffffffffffffffffffffffff\n      and\n      dup2\n      mstore\n      0x20\n      add\n      swap1\n      dup2\n      mstore\n      0x20\n      add\n      0x00\n      keccak256\n      0x00\n      swap1\n      sload\n      swap1\n      0x0100\n      exp\n      swap1\n      div\n      0xff\n      and\n        /* \"contracts/AccessControl.sol\":9789:9981  if(_allPermissions[permission].members[_allPermissions[permission].index[i]]) {\r... */\n      iszero\n      tag_168\n      jumpi\n        /* \"contracts/AccessControl.sol\":9907:9922  _allPermissions */\n      0x00\n        /* \"contracts/AccessControl.sol\":9907:9934  _allPermissions[permission] */\n      dup1\n        /* \"contracts/AccessControl.sol\":9923:9933  permission */\n      dup5\n        /* \"contracts/AccessControl.sol\":9907:9934  _allPermissions[permission] */\n      dup2\n      mstore\n      0x20\n      add\n      swap1\n      dup2\n      mstore\n      0x20\n      add\n      0x00\n      keccak256\n        /* \"contracts/AccessControl.sol\":9907:9940  _allPermissions[permission].index */\n      0x01\n      add\n        /* \"contracts/AccessControl.sol\":9907:9943  _allPermissions[permission].index[i] */\n      0x00\n        /* \"contracts/AccessControl.sol\":9941:9942  i */\n      dup3\n        /* \"contracts/AccessControl.sol\":9907:9943  _allPermissions[permission].index[i] */\n      dup2\n      mstore\n      0x20\n      add\n      swap1\n      dup2\n      mstore\n      0x20\n      add\n      0x00\n      keccak256\n      0x00\n      swap1\n      sload\n      swap1\n      0x0100\n      exp\n      swap1\n      div\n      0xffffffffffffffffffffffffffffffffffffffff\n      and\n        /* \"contracts/AccessControl.sol\":9886:9901  relatedAccounts */\n      dup5\n        /* \"contracts/AccessControl.sol\":9902:9903  j */\n      dup4\n        /* \"contracts/AccessControl.sol\":9886:9904  relatedAccounts[j] */\n      dup2\n      mload\n      dup2\n      lt\n      tag_169\n      jumpi\n      tag_170\n      tag_171\n      jump\t// in\n    tag_170:\n    tag_169:\n      0x20\n      mul\n      0x20\n      add\n      add\n        /* \"contracts/AccessControl.sol\":9886:9943  relatedAccounts[j] = _allPermissions[permission].index[i] */\n      swap1\n      0xffffffffffffffffffffffffffffffffffffffff\n      and\n      swap1\n      dup2\n      0xffffffffffffffffffffffffffffffffffffffff\n      and\n      dup2\n      mstore\n      pop\n      pop\n        /* \"contracts/AccessControl.sol\":9962:9965  j++ */\n      dup2\n      dup1\n      tag_172\n      swap1\n      tag_161\n      jump\t// in\n    tag_172:\n      swap3\n      pop\n      pop\n        /* \"contracts/AccessControl.sol\":9789:9981  if(_allPermissions[permission].members[_allPermissions[permission].index[i]]) {\r... */\n    tag_168:\n        /* \"contracts/AccessControl.sol\":9715:9718  i++ */\n      dup1\n      dup1\n      tag_173\n      swap1\n      tag_161\n      jump\t// in\n    tag_173:\n      swap2\n      pop\n      pop\n        /* \"contracts/AccessControl.sol\":9659:9992  for(uint i = 0; i < _allPermissions[permission].length; i++) {\r... */\n      jump(tag_165)\n    tag_166:\n      pop\n        /* \"contracts/AccessControl.sol\":10009:10024  relatedAccounts */\n      dup3\n        /* \"contracts/AccessControl.sol\":10002:10024  return relatedAccounts */\n      swap4\n      pop\n      pop\n      pop\n      pop\n        /* \"contracts/AccessControl.sol\":9374:10032  function _inquiryAllAccountsByPermission(string memory permissionName) \r... */\n      swap2\n      swap1\n      pop\n      jump\t// out\n        /* \"contracts/AccessControl.sol\":10040:10373  function _inquiryAdmin() internal view virtual returns (address) {\r... */\n    tag_90:\n        /* \"contracts/AccessControl.sol\":10096:10103  address */\n      0x00\n        /* \"contracts/AccessControl.sol\":10116:10122  uint i */\n      dup1\n        /* \"contracts/AccessControl.sol\":10125:10126  0 */\n      0x00\n        /* \"contracts/AccessControl.sol\":10116:10126  uint i = 0 */\n      swap1\n      pop\n        /* \"contracts/AccessControl.sol\":10137:10317  for(; i < _allPermissions[ADMIN].length; i++) {\r... */\n    tag_175:\n        /* \"contracts/AccessControl.sol\":10147:10162  _allPermissions */\n      0x00\n        /* \"contracts/AccessControl.sol\":10147:10169  _allPermissions[ADMIN] */\n      dup1\n        /* \"contracts/AccessControl.sol\":677:695  keccak256(\"ADMIN\") */\n      0xdf8b4c520ffe197c5343c6f5aec59570151ef9a492f2c624fd45ddde6135ec42\n        /* \"contracts/AccessControl.sol\":10147:10169  _allPermissions[ADMIN] */\n      dup2\n      mstore\n      0x20\n      add\n      swap1\n      dup2\n      mstore\n      0x20\n      add\n      0x00\n      keccak256\n        /* \"contracts/AccessControl.sol\":10147:10176  _allPermissions[ADMIN].length */\n      0x02\n      add\n      sload\n        /* \"contracts/AccessControl.sol\":10143:10144  i */\n      dup2\n        /* \"contracts/AccessControl.sol\":10143:10176  i < _allPermissions[ADMIN].length */\n      lt\n        /* \"contracts/AccessControl.sol\":10137:10317  for(; i < _allPermissions[ADMIN].length; i++) {\r... */\n      iszero\n      tag_176\n      jumpi\n        /* \"contracts/AccessControl.sol\":10201:10216  _allPermissions */\n      0x00\n        /* \"contracts/AccessControl.sol\":10201:10223  _allPermissions[ADMIN] */\n      dup1\n        /* \"contracts/AccessControl.sol\":677:695  keccak256(\"ADMIN\") */\n      0xdf8b4c520ffe197c5343c6f5aec59570151ef9a492f2c624fd45ddde6135ec42\n        /* \"contracts/AccessControl.sol\":10201:10223  _allPermissions[ADMIN] */\n      dup2\n      mstore\n      0x20\n      add\n      swap1\n      dup2\n      mstore\n      0x20\n      add\n      0x00\n      keccak256\n        /* \"contracts/AccessControl.sol\":10201:10231  _allPermissions[ADMIN].members */\n      0x00\n      add\n        /* \"contracts/AccessControl.sol\":10201:10264  _allPermissions[ADMIN].members[_allPermissions[ADMIN].index[i]] */\n      0x00\n        /* \"contracts/AccessControl.sol\":10232:10247  _allPermissions */\n      dup1\n        /* \"contracts/AccessControl.sol\":10232:10254  _allPermissions[ADMIN] */\n      0x00\n        /* \"contracts/AccessControl.sol\":677:695  keccak256(\"ADMIN\") */\n      0xdf8b4c520ffe197c5343c6f5aec59570151ef9a492f2c624fd45ddde6135ec42\n        /* \"contracts/AccessControl.sol\":10232:10254  _allPermissions[ADMIN] */\n      dup2\n      mstore\n      0x20\n      add\n      swap1\n      dup2\n      mstore\n      0x20\n      add\n      0x00\n      keccak256\n        /* \"contracts/AccessControl.sol\":10232:10260  _allPermissions[ADMIN].index */\n      0x01\n      add\n        /* \"contracts/AccessControl.sol\":10232:10263  _allPermissions[ADMIN].index[i] */\n      0x00\n        /* \"contracts/AccessControl.sol\":10261:10262  i */\n      dup5\n        /* \"contracts/AccessControl.sol\":10232:10263  _allPermissions[ADMIN].index[i] */\n      dup2\n      mstore\n      0x20\n      add\n      swap1\n      dup2\n      mstore\n      0x20\n      add\n      0x00\n      keccak256\n      0x00\n      swap1\n      sload\n      swap1\n      0x0100\n      exp\n      swap1\n      div\n      0xffffffffffffffffffffffffffffffffffffffff\n      and\n        /* \"contracts/AccessControl.sol\":10201:10264  _allPermissions[ADMIN].members[_allPermissions[ADMIN].index[i]] */\n      0xffffffffffffffffffffffffffffffffffffffff\n      and\n      0xffffffffffffffffffffffffffffffffffffffff\n      and\n      dup2\n      mstore\n      0x20\n      add\n      swap1\n      dup2\n      mstore\n      0x20\n      add\n      0x00\n      keccak256\n      0x00\n      swap1\n      sload\n      swap1\n      0x0100\n      exp\n      swap1\n      div\n      0xff\n      and\n        /* \"contracts/AccessControl.sol\":10198:10306  if(_allPermissions[ADMIN].members[_allPermissions[ADMIN].index[i]]) {\r... */\n      iszero\n      tag_178\n      jumpi\n        /* \"contracts/AccessControl.sol\":10285:10290  break */\n      jump(tag_176)\n        /* \"contracts/AccessControl.sol\":10198:10306  if(_allPermissions[ADMIN].members[_allPermissions[ADMIN].index[i]]) {\r... */\n    tag_178:\n        /* \"contracts/AccessControl.sol\":10178:10181  i++ */\n      dup1\n      dup1\n      tag_179\n      swap1\n      tag_161\n      jump\t// in\n    tag_179:\n      swap2\n      pop\n      pop\n        /* \"contracts/AccessControl.sol\":10137:10317  for(; i < _allPermissions[ADMIN].length; i++) {\r... */\n      jump(tag_175)\n    tag_176:\n        /* \"contracts/AccessControl.sol\":10334:10349  _allPermissions */\n      0x00\n        /* \"contracts/AccessControl.sol\":10334:10356  _allPermissions[ADMIN] */\n      dup1\n        /* \"contracts/AccessControl.sol\":677:695  keccak256(\"ADMIN\") */\n      0xdf8b4c520ffe197c5343c6f5aec59570151ef9a492f2c624fd45ddde6135ec42\n        /* \"contracts/AccessControl.sol\":10334:10356  _allPermissions[ADMIN] */\n      dup2\n      mstore\n      0x20\n      add\n      swap1\n      dup2\n      mstore\n      0x20\n      add\n      0x00\n      keccak256\n        /* \"contracts/AccessControl.sol\":10334:10362  _allPermissions[ADMIN].index */\n      0x01\n      add\n        /* \"contracts/AccessControl.sol\":10334:10365  _allPermissions[ADMIN].index[i] */\n      0x00\n        /* \"contracts/AccessControl.sol\":10363:10364  i */\n      dup3\n        /* \"contracts/AccessControl.sol\":10334:10365  _allPermissions[ADMIN].index[i] */\n      dup2\n      mstore\n      0x20\n      add\n      swap1\n      dup2\n      mstore\n      0x20\n      add\n      0x00\n      keccak256\n      0x00\n      swap1\n      sload\n      swap1\n      0x0100\n      exp\n      swap1\n      div\n      0xffffffffffffffffffffffffffffffffffffffff\n      and\n        /* \"contracts/AccessControl.sol\":10327:10365  return _allPermissions[ADMIN].index[i] */\n      swap2\n      pop\n      pop\n        /* \"contracts/AccessControl.sol\":10040:10373  function _inquiryAdmin() internal view virtual returns (address) {\r... */\n      swap1\n      jump\t// out\n        /* \"contracts/AccessControl.sol\":8173:8455  function _transferAdmin(address account) internal virtual {\r... */\n    tag_97:\n        /* \"contracts/AccessControl.sol\":8287:8292  false */\n      0x00\n        /* \"contracts/AccessControl.sol\":8242:8257  _allPermissions */\n      dup1\n        /* \"contracts/AccessControl.sol\":8242:8264  _allPermissions[ADMIN] */\n      0x00\n        /* \"contracts/AccessControl.sol\":677:695  keccak256(\"ADMIN\") */\n      0xdf8b4c520ffe197c5343c6f5aec59570151ef9a492f2c624fd45ddde6135ec42\n        /* \"contracts/AccessControl.sol\":8242:8264  _allPermissions[ADMIN] */\n      dup2\n      mstore\n      0x20\n      add\n      swap1\n      dup2\n      mstore\n      0x20\n      add\n      0x00\n      keccak256\n        /* \"contracts/AccessControl.sol\":8242:8272  _allPermissions[ADMIN].members */\n      0x00\n      add\n        /* \"contracts/AccessControl.sol\":8242:8284  _allPermissions[ADMIN].members[msg.sender] */\n      0x00\n        /* \"contracts/AccessControl.sol\":8273:8283  msg.sender */\n      caller\n        /* \"contracts/AccessControl.sol\":8242:8284  _allPermissions[ADMIN].members[msg.sender] */\n      0xffffffffffffffffffffffffffffffffffffffff\n      and\n      0xffffffffffffffffffffffffffffffffffffffff\n      and\n      dup2\n      mstore\n      0x20\n      add\n      swap1\n      dup2\n      mstore\n      0x20\n      add\n      0x00\n      keccak256\n      0x00\n        /* \"contracts/AccessControl.sol\":8242:8292  _allPermissions[ADMIN].members[msg.sender] = false */\n      0x0100\n      exp\n      dup2\n      sload\n      dup2\n      0xff\n      mul\n      not\n      and\n      swap1\n      dup4\n      iszero\n      iszero\n      mul\n      or\n      swap1\n      sstore\n      pop\n        /* \"contracts/AccessControl.sol\":8303:8338  _changeAccountIndex(ADMIN, account) */\n      tag_181\n        /* \"contracts/AccessControl.sol\":677:695  keccak256(\"ADMIN\") */\n      0xdf8b4c520ffe197c5343c6f5aec59570151ef9a492f2c624fd45ddde6135ec42\n        /* \"contracts/AccessControl.sol\":8330:8337  account */\n      dup3\n        /* \"contracts/AccessControl.sol\":8303:8322  _changeAccountIndex */\n      tag_182\n        /* \"contracts/AccessControl.sol\":8303:8338  _changeAccountIndex(ADMIN, account) */\n      jump\t// in\n    tag_181:\n        /* \"contracts/AccessControl.sol\":8391:8395  true */\n      0x01\n        /* \"contracts/AccessControl.sol\":8349:8364  _allPermissions */\n      0x00\n        /* \"contracts/AccessControl.sol\":8349:8371  _allPermissions[ADMIN] */\n      dup1\n        /* \"contracts/AccessControl.sol\":677:695  keccak256(\"ADMIN\") */\n      0xdf8b4c520ffe197c5343c6f5aec59570151ef9a492f2c624fd45ddde6135ec42\n        /* \"contracts/AccessControl.sol\":8349:8371  _allPermissions[ADMIN] */\n      dup2\n      mstore\n      0x20\n      add\n      swap1\n      dup2\n      mstore\n      0x20\n      add\n      0x00\n      keccak256\n        /* \"contracts/AccessControl.sol\":8349:8379  _allPermissions[ADMIN].members */\n      0x00\n      add\n        /* \"contracts/AccessControl.sol\":8349:8388  _allPermissions[ADMIN].members[account] */\n      0x00\n        /* \"contracts/AccessControl.sol\":8380:8387  account */\n      dup4\n        /* \"contracts/AccessControl.sol\":8349:8388  _allPermissions[ADMIN].members[account] */\n      0xffffffffffffffffffffffffffffffffffffffff\n      and\n      0xffffffffffffffffffffffffffffffffffffffff\n      and\n      dup2\n      mstore\n      0x20\n      add\n      swap1\n      dup2\n      mstore\n      0x20\n      add\n      0x00\n      keccak256\n      0x00\n        /* \"contracts/AccessControl.sol\":8349:8395  _allPermissions[ADMIN].members[account] = true */\n      0x0100\n      exp\n      dup2\n      sload\n      dup2\n      0xff\n      mul\n      not\n      and\n      swap1\n      dup4\n      iszero\n      iszero\n      mul\n      or\n      swap1\n      sstore\n      pop\n        /* \"contracts/AccessControl.sol\":8436:8446  msg.sender */\n      caller\n        /* \"contracts/AccessControl.sol\":8411:8447  AdminTransfered(account, msg.sender) */\n      0xffffffffffffffffffffffffffffffffffffffff\n      and\n        /* \"contracts/AccessControl.sol\":8427:8434  account */\n      dup2\n        /* \"contracts/AccessControl.sol\":8411:8447  AdminTransfered(account, msg.sender) */\n      0xffffffffffffffffffffffffffffffffffffffff\n      and\n      0x173de3514d8508f36ce8c81d509adcd8c8c76098400f685d3042b36f9a4160c3\n      mload(0x40)\n      mload(0x40)\n      dup1\n      swap2\n      sub\n      swap1\n      log3\n        /* \"contracts/AccessControl.sol\":8173:8455  function _transferAdmin(address account) internal virtual {\r... */\n      pop\n      jump\t// out\n        /* \"contracts/AccessControl.sol\":8875:9366  function _inquiryAllPermissionsByAccount(address account) \r... */\n    tag_104:\n        /* \"contracts/AccessControl.sol\":8984:9000  bytes32[] memory */\n      0x60\n        /* \"contracts/AccessControl.sol\":9019:9054  bytes32[] memory relatedPermissions */\n      dup1\n        /* \"contracts/AccessControl.sol\":9065:9071  uint j */\n      0x00\n        /* \"contracts/AccessControl.sol\":9090:9096  uint i */\n      dup1\n        /* \"contracts/AccessControl.sol\":9086:9323  for(uint i = 0; i < _numberOfPermissions; i++) {\r... */\n    tag_184:\n        /* \"contracts/AccessControl.sol\":9106:9126  _numberOfPermissions */\n      sload(0x02)\n        /* \"contracts/AccessControl.sol\":9102:9103  i */\n      dup2\n        /* \"contracts/AccessControl.sol\":9102:9126  i < _numberOfPermissions */\n      lt\n        /* \"contracts/AccessControl.sol\":9086:9323  for(uint i = 0; i < _numberOfPermissions; i++) {\r... */\n      iszero\n      tag_185\n      jumpi\n        /* \"contracts/AccessControl.sol\":9151:9166  _allPermissions */\n      0x00\n        /* \"contracts/AccessControl.sol\":9151:9190  _allPermissions[_indexOfPermissions[i]] */\n      dup1\n        /* \"contracts/AccessControl.sol\":9167:9186  _indexOfPermissions */\n      0x01\n        /* \"contracts/AccessControl.sol\":9167:9189  _indexOfPermissions[i] */\n      0x00\n        /* \"contracts/AccessControl.sol\":9187:9188  i */\n      dup5\n        /* \"contracts/AccessControl.sol\":9167:9189  _indexOfPermissions[i] */\n      dup2\n      mstore\n      0x20\n      add\n      swap1\n      dup2\n      mstore\n      0x20\n      add\n      0x00\n      keccak256\n      sload\n        /* \"contracts/AccessControl.sol\":9151:9190  _allPermissions[_indexOfPermissions[i]] */\n      dup2\n      mstore\n      0x20\n      add\n      swap1\n      dup2\n      mstore\n      0x20\n      add\n      0x00\n      keccak256\n        /* \"contracts/AccessControl.sol\":9151:9198  _allPermissions[_indexOfPermissions[i]].members */\n      0x00\n      add\n        /* \"contracts/AccessControl.sol\":9151:9207  _allPermissions[_indexOfPermissions[i]].members[account] */\n      0x00\n        /* \"contracts/AccessControl.sol\":9199:9206  account */\n      dup7\n        /* \"contracts/AccessControl.sol\":9151:9207  _allPermissions[_indexOfPermissions[i]].members[account] */\n      0xffffffffffffffffffffffffffffffffffffffff\n      and\n      0xffffffffffffffffffffffffffffffffffffffff\n      and\n      dup2\n      mstore\n      0x20\n      add\n      swap1\n      dup2\n      mstore\n      0x20\n      add\n      0x00\n      keccak256\n      0x00\n      swap1\n      sload\n      swap1\n      0x0100\n      exp\n      swap1\n      div\n      0xff\n      and\n        /* \"contracts/AccessControl.sol\":9148:9312  if(_allPermissions[_indexOfPermissions[i]].members[account]) {\r... */\n      iszero\n      tag_187\n      jumpi\n        /* \"contracts/AccessControl.sol\":9252:9271  _indexOfPermissions */\n      0x01\n        /* \"contracts/AccessControl.sol\":9252:9274  _indexOfPermissions[i] */\n      0x00\n        /* \"contracts/AccessControl.sol\":9272:9273  i */\n      dup3\n        /* \"contracts/AccessControl.sol\":9252:9274  _indexOfPermissions[i] */\n      dup2\n      mstore\n      0x20\n      add\n      swap1\n      dup2\n      mstore\n      0x20\n      add\n      0x00\n      keccak256\n      sload\n        /* \"contracts/AccessControl.sol\":9228:9246  relatedPermissions */\n      dup4\n        /* \"contracts/AccessControl.sol\":9247:9248  j */\n      dup4\n        /* \"contracts/AccessControl.sol\":9228:9249  relatedPermissions[j] */\n      dup2\n      mload\n      dup2\n      lt\n      tag_188\n      jumpi\n      tag_189\n      tag_171\n      jump\t// in\n    tag_189:\n    tag_188:\n      0x20\n      mul\n      0x20\n      add\n      add\n        /* \"contracts/AccessControl.sol\":9228:9274  relatedPermissions[j] = _indexOfPermissions[i] */\n      dup2\n      dup2\n      mstore\n      pop\n      pop\n        /* \"contracts/AccessControl.sol\":9293:9296  j++ */\n      dup2\n      dup1\n      tag_190\n      swap1\n      tag_161\n      jump\t// in\n    tag_190:\n      swap3\n      pop\n      pop\n        /* \"contracts/AccessControl.sol\":9148:9312  if(_allPermissions[_indexOfPermissions[i]].members[account]) {\r... */\n    tag_187:\n        /* \"contracts/AccessControl.sol\":9128:9131  i++ */\n      dup1\n      dup1\n      tag_191\n      swap1\n      tag_161\n      jump\t// in\n    tag_191:\n      swap2\n      pop\n      pop\n        /* \"contracts/AccessControl.sol\":9086:9323  for(uint i = 0; i < _numberOfPermissions; i++) {\r... */\n      jump(tag_184)\n    tag_185:\n      pop\n        /* \"contracts/AccessControl.sol\":9340:9358  relatedPermissions */\n      dup2\n        /* \"contracts/AccessControl.sol\":9333:9358  return relatedPermissions */\n      swap3\n      pop\n      pop\n      pop\n        /* \"contracts/AccessControl.sol\":8875:9366  function _inquiryAllPermissionsByAccount(address account) \r... */\n      swap2\n      swap1\n      pop\n      jump\t// out\n        /* \"contracts/AccessControl.sol\":8647:8867  function _inquiryAccountPermission(string memory permissionName, address account) \r... */\n    tag_111:\n        /* \"contracts/AccessControl.sol\":8780:8784  bool */\n      0x00\n        /* \"contracts/AccessControl.sol\":8810:8859  _check(keccak256(bytes(permissionName)), account) */\n      tag_193\n        /* \"contracts/AccessControl.sol\":8833:8847  permissionName */\n      dup4\n        /* \"contracts/AccessControl.sol\":8817:8849  keccak256(bytes(permissionName)) */\n      dup1\n      mload\n      swap1\n      0x20\n      add\n      keccak256\n        /* \"contracts/AccessControl.sol\":8851:8858  account */\n      dup4\n        /* \"contracts/AccessControl.sol\":8810:8816  _check */\n      tag_63\n        /* \"contracts/AccessControl.sol\":8810:8859  _check(keccak256(bytes(permissionName)), account) */\n      jump\t// in\n    tag_193:\n        /* \"contracts/AccessControl.sol\":8803:8859  return _check(keccak256(bytes(permissionName)), account) */\n      swap1\n      pop\n        /* \"contracts/AccessControl.sol\":8647:8867  function _inquiryAccountPermission(string memory permissionName, address account) \r... */\n      swap3\n      swap2\n      pop\n      pop\n      jump\t// out\n        /* \"contracts/AccessControl.sol\":3907:4968  function _createPermissionByLevel(bytes memory permissionName, bytes memory permissionAlready) internal virtual {\r... */\n    tag_118:\n        /* \"contracts/AccessControl.sol\":4030:4048  bytes32 permission */\n      0x00\n        /* \"contracts/AccessControl.sol\":4061:4075  permissionName */\n      dup3\n        /* \"contracts/AccessControl.sol\":4051:4076  keccak256(permissionName) */\n      dup1\n      mload\n      swap1\n      0x20\n      add\n      keccak256\n        /* \"contracts/AccessControl.sol\":4030:4076  bytes32 permission = keccak256(permissionName) */\n      swap1\n      pop\n        /* \"contracts/AccessControl.sol\":4087:4106  bytes32 permissionA */\n      0x00\n        /* \"contracts/AccessControl.sol\":4119:4136  permissionAlready */\n      dup3\n        /* \"contracts/AccessControl.sol\":4109:4137  keccak256(permissionAlready) */\n      dup1\n      mload\n      swap1\n      0x20\n      add\n      keccak256\n        /* \"contracts/AccessControl.sol\":4087:4137  bytes32 permissionA = keccak256(permissionAlready) */\n      swap1\n      pop\n        /* \"contracts/AccessControl.sol\":4153:4168  _allPermissions */\n      0x00\n        /* \"contracts/AccessControl.sol\":4153:4180  _allPermissions[permission] */\n      dup1\n        /* \"contracts/AccessControl.sol\":4169:4179  permission */\n      dup4\n        /* \"contracts/AccessControl.sol\":4153:4180  _allPermissions[permission] */\n      dup2\n      mstore\n      0x20\n      add\n      swap1\n      dup2\n      mstore\n      0x20\n      add\n      0x00\n      keccak256\n        /* \"contracts/AccessControl.sol\":4153:4188  _allPermissions[permission].isValid */\n      0x03\n      add\n      0x00\n      swap1\n      sload\n      swap1\n      0x0100\n      exp\n      swap1\n      div\n      0xff\n      and\n        /* \"contracts/AccessControl.sol\":4148:4961  if (!_allPermissions[permission].isValid) {\r... */\n      tag_195\n      jumpi\n        /* \"contracts/AccessControl.sol\":4205:4239  _changePermissionIndex(permission) */\n      tag_196\n        /* \"contracts/AccessControl.sol\":4228:4238  permission */\n      dup3\n        /* \"contracts/AccessControl.sol\":4205:4227  _changePermissionIndex */\n      tag_197\n        /* \"contracts/AccessControl.sol\":4205:4239  _changePermissionIndex(permission) */\n      jump\t// in\n    tag_196:\n        /* \"contracts/AccessControl.sol\":4292:4296  true */\n      0x01\n        /* \"contracts/AccessControl.sol\":4254:4269  _allPermissions */\n      0x00\n        /* \"contracts/AccessControl.sol\":4254:4281  _allPermissions[permission] */\n      dup1\n        /* \"contracts/AccessControl.sol\":4270:4280  permission */\n      dup5\n        /* \"contracts/AccessControl.sol\":4254:4281  _allPermissions[permission] */\n      dup2\n      mstore\n      0x20\n      add\n      swap1\n      dup2\n      mstore\n      0x20\n      add\n      0x00\n      keccak256\n        /* \"contracts/AccessControl.sol\":4254:4289  _allPermissions[permission].isValid */\n      0x03\n      add\n      0x00\n        /* \"contracts/AccessControl.sol\":4254:4296  _allPermissions[permission].isValid = true */\n      0x0100\n      exp\n      dup2\n      sload\n      dup2\n      0xff\n      mul\n      not\n      and\n      swap1\n      dup4\n      iszero\n      iszero\n      mul\n      or\n      swap1\n      sstore\n      pop\n        /* \"contracts/AccessControl.sol\":4363:4369  uint i */\n      0x00\n        /* \"contracts/AccessControl.sol\":4359:4715  for(uint i = 0; i < _allPermissions[permissionA].length; i++) {\r... */\n    tag_198:\n        /* \"contracts/AccessControl.sol\":4379:4394  _allPermissions */\n      0x00\n        /* \"contracts/AccessControl.sol\":4379:4407  _allPermissions[permissionA] */\n      dup1\n        /* \"contracts/AccessControl.sol\":4395:4406  permissionA */\n      dup4\n        /* \"contracts/AccessControl.sol\":4379:4407  _allPermissions[permissionA] */\n      dup2\n      mstore\n      0x20\n      add\n      swap1\n      dup2\n      mstore\n      0x20\n      add\n      0x00\n      keccak256\n        /* \"contracts/AccessControl.sol\":4379:4414  _allPermissions[permissionA].length */\n      0x02\n      add\n      sload\n        /* \"contracts/AccessControl.sol\":4375:4376  i */\n      dup2\n        /* \"contracts/AccessControl.sol\":4375:4414  i < _allPermissions[permissionA].length */\n      lt\n        /* \"contracts/AccessControl.sol\":4359:4715  for(uint i = 0; i < _allPermissions[permissionA].length; i++) {\r... */\n      iszero\n      tag_199\n      jumpi\n        /* \"contracts/AccessControl.sol\":4440:4462  address indexOfAddress */\n      0x00\n        /* \"contracts/AccessControl.sol\":4465:4480  _allPermissions */\n      dup1\n        /* \"contracts/AccessControl.sol\":4465:4493  _allPermissions[permissionA] */\n      0x00\n        /* \"contracts/AccessControl.sol\":4481:4492  permissionA */\n      dup5\n        /* \"contracts/AccessControl.sol\":4465:4493  _allPermissions[permissionA] */\n      dup2\n      mstore\n      0x20\n      add\n      swap1\n      dup2\n      mstore\n      0x20\n      add\n      0x00\n      keccak256\n        /* \"contracts/AccessControl.sol\":4465:4499  _allPermissions[permissionA].index */\n      0x01\n      add\n        /* \"contracts/AccessControl.sol\":4465:4502  _allPermissions[permissionA].index[i] */\n      0x00\n        /* \"contracts/AccessControl.sol\":4500:4501  i */\n      dup4\n        /* \"contracts/AccessControl.sol\":4465:4502  _allPermissions[permissionA].index[i] */\n      dup2\n      mstore\n      0x20\n      add\n      swap1\n      dup2\n      mstore\n      0x20\n      add\n      0x00\n      keccak256\n      0x00\n      swap1\n      sload\n      swap1\n      0x0100\n      exp\n      swap1\n      div\n      0xffffffffffffffffffffffffffffffffffffffff\n      and\n        /* \"contracts/AccessControl.sol\":4440:4502  address indexOfAddress = _allPermissions[permissionA].index[i] */\n      swap1\n      pop\n        /* \"contracts/AccessControl.sol\":4575:4590  _allPermissions */\n      0x00\n        /* \"contracts/AccessControl.sol\":4575:4603  _allPermissions[permissionA] */\n      dup1\n        /* \"contracts/AccessControl.sol\":4591:4602  permissionA */\n      dup5\n        /* \"contracts/AccessControl.sol\":4575:4603  _allPermissions[permissionA] */\n      dup2\n      mstore\n      0x20\n      add\n      swap1\n      dup2\n      mstore\n      0x20\n      add\n      0x00\n      keccak256\n        /* \"contracts/AccessControl.sol\":4575:4611  _allPermissions[permissionA].members */\n      0x00\n      add\n        /* \"contracts/AccessControl.sol\":4575:4627  _allPermissions[permissionA].members[indexOfAddress] */\n      0x00\n        /* \"contracts/AccessControl.sol\":4612:4626  indexOfAddress */\n      dup3\n        /* \"contracts/AccessControl.sol\":4575:4627  _allPermissions[permissionA].members[indexOfAddress] */\n      0xffffffffffffffffffffffffffffffffffffffff\n      and\n      0xffffffffffffffffffffffffffffffffffffffff\n      and\n      dup2\n      mstore\n      0x20\n      add\n      swap1\n      dup2\n      mstore\n      0x20\n      add\n      0x00\n      keccak256\n      0x00\n      swap1\n      sload\n      swap1\n      0x0100\n      exp\n      swap1\n      div\n      0xff\n      and\n        /* \"contracts/AccessControl.sol\":4521:4536  _allPermissions */\n      0x00\n        /* \"contracts/AccessControl.sol\":4521:4548  _allPermissions[permission] */\n      dup1\n        /* \"contracts/AccessControl.sol\":4537:4547  permission */\n      dup7\n        /* \"contracts/AccessControl.sol\":4521:4548  _allPermissions[permission] */\n      dup2\n      mstore\n      0x20\n      add\n      swap1\n      dup2\n      mstore\n      0x20\n      add\n      0x00\n      keccak256\n        /* \"contracts/AccessControl.sol\":4521:4556  _allPermissions[permission].members */\n      0x00\n      add\n        /* \"contracts/AccessControl.sol\":4521:4572  _allPermissions[permission].members[indexOfAddress] */\n      0x00\n        /* \"contracts/AccessControl.sol\":4557:4571  indexOfAddress */\n      dup4\n        /* \"contracts/AccessControl.sol\":4521:4572  _allPermissions[permission].members[indexOfAddress] */\n      0xffffffffffffffffffffffffffffffffffffffff\n      and\n      0xffffffffffffffffffffffffffffffffffffffff\n      and\n      dup2\n      mstore\n      0x20\n      add\n      swap1\n      dup2\n      mstore\n      0x20\n      add\n      0x00\n      keccak256\n      0x00\n        /* \"contracts/AccessControl.sol\":4521:4627  _allPermissions[permission].members[indexOfAddress] = _allPermissions[permissionA].members[indexOfAddress] */\n      0x0100\n      exp\n      dup2\n      sload\n      dup2\n      0xff\n      mul\n      not\n      and\n      swap1\n      dup4\n      iszero\n      iszero\n      mul\n      or\n      swap1\n      sstore\n      pop\n        /* \"contracts/AccessControl.sol\":4685:4699  indexOfAddress */\n      dup1\n        /* \"contracts/AccessControl.sol\":4646:4661  _allPermissions */\n      0x00\n        /* \"contracts/AccessControl.sol\":4646:4673  _allPermissions[permission] */\n      dup1\n        /* \"contracts/AccessControl.sol\":4662:4672  permission */\n      dup7\n        /* \"contracts/AccessControl.sol\":4646:4673  _allPermissions[permission] */\n      dup2\n      mstore\n      0x20\n      add\n      swap1\n      dup2\n      mstore\n      0x20\n      add\n      0x00\n      keccak256\n        /* \"contracts/AccessControl.sol\":4646:4679  _allPermissions[permission].index */\n      0x01\n      add\n        /* \"contracts/AccessControl.sol\":4646:4682  _allPermissions[permission].index[i] */\n      0x00\n        /* \"contracts/AccessControl.sol\":4680:4681  i */\n      dup5\n        /* \"contracts/AccessControl.sol\":4646:4682  _allPermissions[permission].index[i] */\n      dup2\n      mstore\n      0x20\n      add\n      swap1\n      dup2\n      mstore\n      0x20\n      add\n      0x00\n      keccak256\n      0x00\n        /* \"contracts/AccessControl.sol\":4646:4699  _allPermissions[permission].index[i] = indexOfAddress */\n      0x0100\n      exp\n      dup2\n      sload\n      dup2\n      0xffffffffffffffffffffffffffffffffffffffff\n      mul\n      not\n      and\n      swap1\n      dup4\n      0xffffffffffffffffffffffffffffffffffffffff\n      and\n      mul\n      or\n      swap1\n      sstore\n      pop\n        /* \"contracts/AccessControl.sol\":4421:4715  {\r... */\n      pop\n        /* \"contracts/AccessControl.sol\":4416:4419  i++ */\n      dup1\n      dup1\n      tag_201\n      swap1\n      tag_161\n      jump\t// in\n    tag_201:\n      swap2\n      pop\n      pop\n        /* \"contracts/AccessControl.sol\":4359:4715  for(uint i = 0; i < _allPermissions[permissionA].length; i++) {\r... */\n      jump(tag_198)\n    tag_199:\n      pop\n        /* \"contracts/AccessControl.sol\":4766:4781  _allPermissions */\n      0x00\n        /* \"contracts/AccessControl.sol\":4766:4794  _allPermissions[permissionA] */\n      dup1\n        /* \"contracts/AccessControl.sol\":4782:4793  permissionA */\n      dup3\n        /* \"contracts/AccessControl.sol\":4766:4794  _allPermissions[permissionA] */\n      dup2\n      mstore\n      0x20\n      add\n      swap1\n      dup2\n      mstore\n      0x20\n      add\n      0x00\n      keccak256\n        /* \"contracts/AccessControl.sol\":4766:4801  _allPermissions[permissionA].length */\n      0x02\n      add\n      sload\n        /* \"contracts/AccessControl.sol\":4729:4744  _allPermissions */\n      0x00\n        /* \"contracts/AccessControl.sol\":4729:4756  _allPermissions[permission] */\n      dup1\n        /* \"contracts/AccessControl.sol\":4745:4755  permission */\n      dup5\n        /* \"contracts/AccessControl.sol\":4729:4756  _allPermissions[permission] */\n      dup2\n      mstore\n      0x20\n      add\n      swap1\n      dup2\n      mstore\n      0x20\n      add\n      0x00\n      keccak256\n        /* \"contracts/AccessControl.sol\":4729:4763  _allPermissions[permission].length */\n      0x02\n      add\n        /* \"contracts/AccessControl.sol\":4729:4801  _allPermissions[permission].length = _allPermissions[permissionA].length */\n      dup2\n      swap1\n      sstore\n      pop\n        /* \"contracts/AccessControl.sol\":4855:4865  msg.sender */\n      caller\n        /* \"contracts/AccessControl.sol\":4821:4866  PermissionCreated(permissionName, msg.sender) */\n      0xffffffffffffffffffffffffffffffffffffffff\n      and\n        /* \"contracts/AccessControl.sol\":4839:4853  permissionName */\n      dup5\n        /* \"contracts/AccessControl.sol\":4821:4866  PermissionCreated(permissionName, msg.sender) */\n      mload(0x40)\n      tag_202\n      swap2\n      swap1\n      tag_147\n      jump\t// in\n    tag_202:\n      mload(0x40)\n      dup1\n      swap2\n      sub\n      swap1\n      keccak256\n      0x629a748ba580fe181c6ae2d3673c4bdfea9e1f2d334f36beec502aff5dbaeff2\n      mload(0x40)\n      mload(0x40)\n      dup1\n      swap2\n      sub\n      swap1\n      log3\n        /* \"contracts/AccessControl.sol\":4148:4961  if (!_allPermissions[permission].isValid) {\r... */\n      jump(tag_203)\n    tag_195:\n        /* \"contracts/AccessControl.sol\":4899:4949  _informFailure(\"The permission has alreay exist.\") */\n      tag_204\n      mload(0x40)\n      dup1\n      0x40\n      add\n      0x40\n      mstore\n      dup1\n      0x20\n      dup2\n      mstore\n      0x20\n      add\n      0x546865207065726d697373696f6e2068617320616c726561792065786973742e\n      dup2\n      mstore\n      pop\n        /* \"contracts/AccessControl.sol\":4899:4913  _informFailure */\n      tag_150\n        /* \"contracts/AccessControl.sol\":4899:4949  _informFailure(\"The permission has alreay exist.\") */\n      jump\t// in\n    tag_204:\n        /* \"contracts/AccessControl.sol\":4148:4961  if (!_allPermissions[permission].isValid) {\r... */\n    tag_203:\n        /* \"contracts/AccessControl.sol\":4019:4968  {\r... */\n      pop\n      pop\n        /* \"contracts/AccessControl.sol\":3907:4968  function _createPermissionByLevel(bytes memory permissionName, bytes memory permissionAlready) internal virtual {\r... */\n      pop\n      pop\n      jump\t// out\n        /* \"contracts/AccessControl.sol\":2813:3770  function _createPermission(bytes memory permissionName) internal virtual {\r... */\n    tag_125:\n        /* \"contracts/AccessControl.sol\":2897:2915  bytes32 permission */\n      0x00\n        /* \"contracts/AccessControl.sol\":2928:2942  permissionName */\n      dup2\n        /* \"contracts/AccessControl.sol\":2918:2943  keccak256(permissionName) */\n      dup1\n      mload\n      swap1\n      0x20\n      add\n      keccak256\n        /* \"contracts/AccessControl.sol\":2897:2943  bytes32 permission = keccak256(permissionName) */\n      swap1\n      pop\n        /* \"contracts/AccessControl.sol\":2959:2974  _allPermissions */\n      0x00\n        /* \"contracts/AccessControl.sol\":2959:2986  _allPermissions[permission] */\n      dup1\n        /* \"contracts/AccessControl.sol\":2975:2985  permission */\n      dup3\n        /* \"contracts/AccessControl.sol\":2959:2986  _allPermissions[permission] */\n      dup2\n      mstore\n      0x20\n      add\n      swap1\n      dup2\n      mstore\n      0x20\n      add\n      0x00\n      keccak256\n        /* \"contracts/AccessControl.sol\":2959:2994  _allPermissions[permission].isValid */\n      0x03\n      add\n      0x00\n      swap1\n      sload\n      swap1\n      0x0100\n      exp\n      swap1\n      div\n      0xff\n      and\n        /* \"contracts/AccessControl.sol\":2954:3763  if (!_allPermissions[permission].isValid) {\r... */\n      tag_206\n      jumpi\n        /* \"contracts/AccessControl.sol\":3011:3045  _changePermissionIndex(permission) */\n      tag_207\n        /* \"contracts/AccessControl.sol\":3034:3044  permission */\n      dup2\n        /* \"contracts/AccessControl.sol\":3011:3033  _changePermissionIndex */\n      tag_197\n        /* \"contracts/AccessControl.sol\":3011:3045  _changePermissionIndex(permission) */\n      jump\t// in\n    tag_207:\n        /* \"contracts/AccessControl.sol\":3098:3102  true */\n      0x01\n        /* \"contracts/AccessControl.sol\":3060:3075  _allPermissions */\n      0x00\n        /* \"contracts/AccessControl.sol\":3060:3087  _allPermissions[permission] */\n      dup1\n        /* \"contracts/AccessControl.sol\":3076:3086  permission */\n      dup4\n        /* \"contracts/AccessControl.sol\":3060:3087  _allPermissions[permission] */\n      dup2\n      mstore\n      0x20\n      add\n      swap1\n      dup2\n      mstore\n      0x20\n      add\n      0x00\n      keccak256\n        /* \"contracts/AccessControl.sol\":3060:3095  _allPermissions[permission].isValid */\n      0x03\n      add\n      0x00\n        /* \"contracts/AccessControl.sol\":3060:3102  _allPermissions[permission].isValid = true */\n      0x0100\n      exp\n      dup2\n      sload\n      dup2\n      0xff\n      mul\n      not\n      and\n      swap1\n      dup4\n      iszero\n      iszero\n      mul\n      or\n      swap1\n      sstore\n      pop\n        /* \"contracts/AccessControl.sol\":3189:3195  uint i */\n      0x00\n        /* \"contracts/AccessControl.sol\":3185:3523  for(uint i = 0; i < _allPermissions[ADMIN].length; i++) {\r... */\n    tag_208:\n        /* \"contracts/AccessControl.sol\":3205:3220  _allPermissions */\n      0x00\n        /* \"contracts/AccessControl.sol\":3205:3227  _allPermissions[ADMIN] */\n      dup1\n        /* \"contracts/AccessControl.sol\":677:695  keccak256(\"ADMIN\") */\n      0xdf8b4c520ffe197c5343c6f5aec59570151ef9a492f2c624fd45ddde6135ec42\n        /* \"contracts/AccessControl.sol\":3205:3227  _allPermissions[ADMIN] */\n      dup2\n      mstore\n      0x20\n      add\n      swap1\n      dup2\n      mstore\n      0x20\n      add\n      0x00\n      keccak256\n        /* \"contracts/AccessControl.sol\":3205:3234  _allPermissions[ADMIN].length */\n      0x02\n      add\n      sload\n        /* \"contracts/AccessControl.sol\":3201:3202  i */\n      dup2\n        /* \"contracts/AccessControl.sol\":3201:3234  i < _allPermissions[ADMIN].length */\n      lt\n        /* \"contracts/AccessControl.sol\":3185:3523  for(uint i = 0; i < _allPermissions[ADMIN].length; i++) {\r... */\n      iszero\n      tag_209\n      jumpi\n        /* \"contracts/AccessControl.sol\":3260:3282  address indexOfAddress */\n      0x00\n        /* \"contracts/AccessControl.sol\":3285:3300  _allPermissions */\n      dup1\n        /* \"contracts/AccessControl.sol\":3285:3307  _allPermissions[ADMIN] */\n      0x00\n        /* \"contracts/AccessControl.sol\":677:695  keccak256(\"ADMIN\") */\n      0xdf8b4c520ffe197c5343c6f5aec59570151ef9a492f2c624fd45ddde6135ec42\n        /* \"contracts/AccessControl.sol\":3285:3307  _allPermissions[ADMIN] */\n      dup2\n      mstore\n      0x20\n      add\n      swap1\n      dup2\n      mstore\n      0x20\n      add\n      0x00\n      keccak256\n        /* \"contracts/AccessControl.sol\":3285:3313  _allPermissions[ADMIN].index */\n      0x01\n      add\n        /* \"contracts/AccessControl.sol\":3285:3316  _allPermissions[ADMIN].index[i] */\n      0x00\n        /* \"contracts/AccessControl.sol\":3314:3315  i */\n      dup4\n        /* \"contracts/AccessControl.sol\":3285:3316  _allPermissions[ADMIN].index[i] */\n      dup2\n      mstore\n      0x20\n      add\n      swap1\n      dup2\n      mstore\n      0x20\n      add\n      0x00\n      keccak256\n      0x00\n      swap1\n      sload\n      swap1\n      0x0100\n      exp\n      swap1\n      div\n      0xffffffffffffffffffffffffffffffffffffffff\n      and\n        /* \"contracts/AccessControl.sol\":3260:3316  address indexOfAddress = _allPermissions[ADMIN].index[i] */\n      swap1\n      pop\n        /* \"contracts/AccessControl.sol\":3389:3404  _allPermissions */\n      0x00\n        /* \"contracts/AccessControl.sol\":3389:3411  _allPermissions[ADMIN] */\n      dup1\n        /* \"contracts/AccessControl.sol\":677:695  keccak256(\"ADMIN\") */\n      0xdf8b4c520ffe197c5343c6f5aec59570151ef9a492f2c624fd45ddde6135ec42\n        /* \"contracts/AccessControl.sol\":3389:3411  _allPermissions[ADMIN] */\n      dup2\n      mstore\n      0x20\n      add\n      swap1\n      dup2\n      mstore\n      0x20\n      add\n      0x00\n      keccak256\n        /* \"contracts/AccessControl.sol\":3389:3419  _allPermissions[ADMIN].members */\n      0x00\n      add\n        /* \"contracts/AccessControl.sol\":3389:3435  _allPermissions[ADMIN].members[indexOfAddress] */\n      0x00\n        /* \"contracts/AccessControl.sol\":3420:3434  indexOfAddress */\n      dup3\n        /* \"contracts/AccessControl.sol\":3389:3435  _allPermissions[ADMIN].members[indexOfAddress] */\n      0xffffffffffffffffffffffffffffffffffffffff\n      and\n      0xffffffffffffffffffffffffffffffffffffffff\n      and\n      dup2\n      mstore\n      0x20\n      add\n      swap1\n      dup2\n      mstore\n      0x20\n      add\n      0x00\n      keccak256\n      0x00\n      swap1\n      sload\n      swap1\n      0x0100\n      exp\n      swap1\n      div\n      0xff\n      and\n        /* \"contracts/AccessControl.sol\":3335:3350  _allPermissions */\n      0x00\n        /* \"contracts/AccessControl.sol\":3335:3362  _allPermissions[permission] */\n      dup1\n        /* \"contracts/AccessControl.sol\":3351:3361  permission */\n      dup6\n        /* \"contracts/AccessControl.sol\":3335:3362  _allPermissions[permission] */\n      dup2\n      mstore\n      0x20\n      add\n      swap1\n      dup2\n      mstore\n      0x20\n      add\n      0x00\n      keccak256\n        /* \"contracts/AccessControl.sol\":3335:3370  _allPermissions[permission].members */\n      0x00\n      add\n        /* \"contracts/AccessControl.sol\":3335:3386  _allPermissions[permission].members[indexOfAddress] */\n      0x00\n        /* \"contracts/AccessControl.sol\":3371:3385  indexOfAddress */\n      dup4\n        /* \"contracts/AccessControl.sol\":3335:3386  _allPermissions[permission].members[indexOfAddress] */\n      0xffffffffffffffffffffffffffffffffffffffff\n      and\n      0xffffffffffffffffffffffffffffffffffffffff\n      and\n      dup2\n      mstore\n      0x20\n      add\n      swap1\n      dup2\n      mstore\n      0x20\n      add\n      0x00\n      keccak256\n      0x00\n        /* \"contracts/AccessControl.sol\":3335:3435  _allPermissions[permission].members[indexOfAddress] = _allPermissions[ADMIN].members[indexOfAddress] */\n      0x0100\n      exp\n      dup2\n      sload\n      dup2\n      0xff\n      mul\n      not\n      and\n      swap1\n      dup4\n      iszero\n      iszero\n      mul\n      or\n      swap1\n      sstore\n      pop\n        /* \"contracts/AccessControl.sol\":3493:3507  indexOfAddress */\n      dup1\n        /* \"contracts/AccessControl.sol\":3454:3469  _allPermissions */\n      0x00\n        /* \"contracts/AccessControl.sol\":3454:3481  _allPermissions[permission] */\n      dup1\n        /* \"contracts/AccessControl.sol\":3470:3480  permission */\n      dup6\n        /* \"contracts/AccessControl.sol\":3454:3481  _allPermissions[permission] */\n      dup2\n      mstore\n      0x20\n      add\n      swap1\n      dup2\n      mstore\n      0x20\n      add\n      0x00\n      keccak256\n        /* \"contracts/AccessControl.sol\":3454:3487  _allPermissions[permission].index */\n      0x01\n      add\n        /* \"contracts/AccessControl.sol\":3454:3490  _allPermissions[permission].index[i] */\n      0x00\n        /* \"contracts/AccessControl.sol\":3488:3489  i */\n      dup5\n        /* \"contracts/AccessControl.sol\":3454:3490  _allPermissions[permission].index[i] */\n      dup2\n      mstore\n      0x20\n      add\n      swap1\n      dup2\n      mstore\n      0x20\n      add\n      0x00\n      keccak256\n      0x00\n        /* \"contracts/AccessControl.sol\":3454:3507  _allPermissions[permission].index[i] = indexOfAddress */\n      0x0100\n      exp\n      dup2\n      sload\n      dup2\n      0xffffffffffffffffffffffffffffffffffffffff\n      mul\n      not\n      and\n      swap1\n      dup4\n      0xffffffffffffffffffffffffffffffffffffffff\n      and\n      mul\n      or\n      swap1\n      sstore\n      pop\n        /* \"contracts/AccessControl.sol\":3241:3523  {\r... */\n      pop\n        /* \"contracts/AccessControl.sol\":3236:3239  i++ */\n      dup1\n      dup1\n      tag_211\n      swap1\n      tag_161\n      jump\t// in\n    tag_211:\n      swap2\n      pop\n      pop\n        /* \"contracts/AccessControl.sol\":3185:3523  for(uint i = 0; i < _allPermissions[ADMIN].length; i++) {\r... */\n      jump(tag_208)\n    tag_209:\n      pop\n        /* \"contracts/AccessControl.sol\":3574:3589  _allPermissions */\n      0x00\n        /* \"contracts/AccessControl.sol\":3574:3596  _allPermissions[ADMIN] */\n      dup1\n        /* \"contracts/AccessControl.sol\":677:695  keccak256(\"ADMIN\") */\n      0xdf8b4c520ffe197c5343c6f5aec59570151ef9a492f2c624fd45ddde6135ec42\n        /* \"contracts/AccessControl.sol\":3574:3596  _allPermissions[ADMIN] */\n      dup2\n      mstore\n      0x20\n      add\n      swap1\n      dup2\n      mstore\n      0x20\n      add\n      0x00\n      keccak256\n        /* \"contracts/AccessControl.sol\":3574:3603  _allPermissions[ADMIN].length */\n      0x02\n      add\n      sload\n        /* \"contracts/AccessControl.sol\":3537:3552  _allPermissions */\n      0x00\n        /* \"contracts/AccessControl.sol\":3537:3564  _allPermissions[permission] */\n      dup1\n        /* \"contracts/AccessControl.sol\":3553:3563  permission */\n      dup4\n        /* \"contracts/AccessControl.sol\":3537:3564  _allPermissions[permission] */\n      dup2\n      mstore\n      0x20\n      add\n      swap1\n      dup2\n      mstore\n      0x20\n      add\n      0x00\n      keccak256\n        /* \"contracts/AccessControl.sol\":3537:3571  _allPermissions[permission].length */\n      0x02\n      add\n        /* \"contracts/AccessControl.sol\":3537:3603  _allPermissions[permission].length = _allPermissions[ADMIN].length */\n      dup2\n      swap1\n      sstore\n      pop\n        /* \"contracts/AccessControl.sol\":3657:3667  msg.sender */\n      caller\n        /* \"contracts/AccessControl.sol\":3623:3668  PermissionCreated(permissionName, msg.sender) */\n      0xffffffffffffffffffffffffffffffffffffffff\n      and\n        /* \"contracts/AccessControl.sol\":3641:3655  permissionName */\n      dup3\n        /* \"contracts/AccessControl.sol\":3623:3668  PermissionCreated(permissionName, msg.sender) */\n      mload(0x40)\n      tag_212\n      swap2\n      swap1\n      tag_147\n      jump\t// in\n    tag_212:\n      mload(0x40)\n      dup1\n      swap2\n      sub\n      swap1\n      keccak256\n      0x629a748ba580fe181c6ae2d3673c4bdfea9e1f2d334f36beec502aff5dbaeff2\n      mload(0x40)\n      mload(0x40)\n      dup1\n      swap2\n      sub\n      swap1\n      log3\n        /* \"contracts/AccessControl.sol\":2954:3763  if (!_allPermissions[permission].isValid) {\r... */\n      jump(tag_213)\n    tag_206:\n        /* \"contracts/AccessControl.sol\":3701:3751  _informFailure(\"The permission has alreay exist.\") */\n      tag_214\n      mload(0x40)\n      dup1\n      0x40\n      add\n      0x40\n      mstore\n      dup1\n      0x20\n      dup2\n      mstore\n      0x20\n      add\n      0x546865207065726d697373696f6e2068617320616c726561792065786973742e\n      dup2\n      mstore\n      pop\n        /* \"contracts/AccessControl.sol\":3701:3715  _informFailure */\n      tag_150\n        /* \"contracts/AccessControl.sol\":3701:3751  _informFailure(\"The permission has alreay exist.\") */\n      jump\t// in\n    tag_214:\n        /* \"contracts/AccessControl.sol\":2954:3763  if (!_allPermissions[permission].isValid) {\r... */\n    tag_213:\n        /* \"contracts/AccessControl.sol\":2886:3770  {\r... */\n      pop\n        /* \"contracts/AccessControl.sol\":2813:3770  function _createPermission(bytes memory permissionName) internal virtual {\r... */\n      pop\n      jump\t// out\n        /* \"contracts/AccessControl.sol\":6238:6837  function _grantAccountPermission(bytes memory permissionName, address account) internal virtual {\r... */\n    tag_132:\n        /* \"contracts/AccessControl.sol\":6345:6363  bytes32 permission */\n      0x00\n        /* \"contracts/AccessControl.sol\":6376:6390  permissionName */\n      dup3\n        /* \"contracts/AccessControl.sol\":6366:6391  keccak256(permissionName) */\n      dup1\n      mload\n      swap1\n      0x20\n      add\n      keccak256\n        /* \"contracts/AccessControl.sol\":6345:6391  bytes32 permission = keccak256(permissionName) */\n      swap1\n      pop\n        /* \"contracts/AccessControl.sol\":6484:6499  _allPermissions */\n      0x00\n        /* \"contracts/AccessControl.sol\":6484:6511  _allPermissions[permission] */\n      dup1\n        /* \"contracts/AccessControl.sol\":6500:6510  permission */\n      dup3\n        /* \"contracts/AccessControl.sol\":6484:6511  _allPermissions[permission] */\n      dup2\n      mstore\n      0x20\n      add\n      swap1\n      dup2\n      mstore\n      0x20\n      add\n      0x00\n      keccak256\n        /* \"contracts/AccessControl.sol\":6484:6519  _allPermissions[permission].isValid */\n      0x03\n      add\n      0x00\n      swap1\n      sload\n      swap1\n      0x0100\n      exp\n      swap1\n      div\n      0xff\n      and\n        /* \"contracts/AccessControl.sol\":6484:6542  _allPermissions[permission].isValid && permission != ADMIN */\n      dup1\n      iszero\n      tag_216\n      jumpi\n      pop\n        /* \"contracts/AccessControl.sol\":677:695  keccak256(\"ADMIN\") */\n      0xdf8b4c520ffe197c5343c6f5aec59570151ef9a492f2c624fd45ddde6135ec42\n        /* \"contracts/AccessControl.sol\":6523:6533  permission */\n      dup2\n        /* \"contracts/AccessControl.sol\":6523:6542  permission != ADMIN */\n      eq\n      iszero\n        /* \"contracts/AccessControl.sol\":6484:6542  _allPermissions[permission].isValid && permission != ADMIN */\n    tag_216:\n        /* \"contracts/AccessControl.sol\":6480:6830  if (_allPermissions[permission].isValid && permission != ADMIN) {\r... */\n      iszero\n      tag_217\n      jumpi\n        /* \"contracts/AccessControl.sol\":6559:6599  _changeAccountIndex(permission, account) */\n      tag_218\n        /* \"contracts/AccessControl.sol\":6579:6589  permission */\n      dup2\n        /* \"contracts/AccessControl.sol\":6591:6598  account */\n      dup4\n        /* \"contracts/AccessControl.sol\":6559:6578  _changeAccountIndex */\n      tag_182\n        /* \"contracts/AccessControl.sol\":6559:6599  _changeAccountIndex(permission, account) */\n      jump\t// in\n    tag_218:\n        /* \"contracts/AccessControl.sol\":6661:6665  true */\n      0x01\n        /* \"contracts/AccessControl.sol\":6614:6629  _allPermissions */\n      0x00\n        /* \"contracts/AccessControl.sol\":6614:6641  _allPermissions[permission] */\n      dup1\n        /* \"contracts/AccessControl.sol\":6630:6640  permission */\n      dup4\n        /* \"contracts/AccessControl.sol\":6614:6641  _allPermissions[permission] */\n      dup2\n      mstore\n      0x20\n      add\n      swap1\n      dup2\n      mstore\n      0x20\n      add\n      0x00\n      keccak256\n        /* \"contracts/AccessControl.sol\":6614:6649  _allPermissions[permission].members */\n      0x00\n      add\n        /* \"contracts/AccessControl.sol\":6614:6658  _allPermissions[permission].members[account] */\n      0x00\n        /* \"contracts/AccessControl.sol\":6650:6657  account */\n      dup5\n        /* \"contracts/AccessControl.sol\":6614:6658  _allPermissions[permission].members[account] */\n      0xffffffffffffffffffffffffffffffffffffffff\n      and\n      0xffffffffffffffffffffffffffffffffffffffff\n      and\n      dup2\n      mstore\n      0x20\n      add\n      swap1\n      dup2\n      mstore\n      0x20\n      add\n      0x00\n      keccak256\n      0x00\n        /* \"contracts/AccessControl.sol\":6614:6665  _allPermissions[permission].members[account] = true */\n      0x0100\n      exp\n      dup2\n      sload\n      dup2\n      0xff\n      mul\n      not\n      and\n      swap1\n      dup4\n      iszero\n      iszero\n      mul\n      or\n      swap1\n      sstore\n      pop\n        /* \"contracts/AccessControl.sol\":6728:6738  msg.sender */\n      caller\n        /* \"contracts/AccessControl.sol\":6685:6739  PermissionGranted(permissionName, account, msg.sender) */\n      0xffffffffffffffffffffffffffffffffffffffff\n      and\n        /* \"contracts/AccessControl.sol\":6719:6726  account */\n      dup3\n        /* \"contracts/AccessControl.sol\":6685:6739  PermissionGranted(permissionName, account, msg.sender) */\n      0xffffffffffffffffffffffffffffffffffffffff\n      and\n        /* \"contracts/AccessControl.sol\":6703:6717  permissionName */\n      dup5\n        /* \"contracts/AccessControl.sol\":6685:6739  PermissionGranted(permissionName, account, msg.sender) */\n      mload(0x40)\n      tag_219\n      swap2\n      swap1\n      tag_147\n      jump\t// in\n    tag_219:\n      mload(0x40)\n      dup1\n      swap2\n      sub\n      swap1\n      keccak256\n      0x1bbdb8ca05419dffb11afa5105f78331a46e3d8a8b900efb115bbb4175a9c2d3\n      mload(0x40)\n      mload(0x40)\n      dup1\n      swap2\n      sub\n      swap1\n      log4\n        /* \"contracts/AccessControl.sol\":6480:6830  if (_allPermissions[permission].isValid && permission != ADMIN) {\r... */\n      jump(tag_220)\n    tag_217:\n        /* \"contracts/AccessControl.sol\":6772:6818  _informFailure(\"The permission is not valid.\") */\n      tag_221\n      mload(0x40)\n      dup1\n      0x40\n      add\n      0x40\n      mstore\n      dup1\n      0x1c\n      dup2\n      mstore\n      0x20\n      add\n      0x546865207065726d697373696f6e206973206e6f742076616c69642e00000000\n      dup2\n      mstore\n      pop\n        /* \"contracts/AccessControl.sol\":6772:6786  _informFailure */\n      tag_150\n        /* \"contracts/AccessControl.sol\":6772:6818  _informFailure(\"The permission is not valid.\") */\n      jump\t// in\n    tag_221:\n        /* \"contracts/AccessControl.sol\":6480:6830  if (_allPermissions[permission].isValid && permission != ADMIN) {\r... */\n    tag_220:\n        /* \"contracts/AccessControl.sol\":6334:6837  {\r... */\n      pop\n        /* \"contracts/AccessControl.sol\":6238:6837  function _grantAccountPermission(bytes memory permissionName, address account) internal virtual {\r... */\n      pop\n      pop\n      jump\t// out\n        /* \"contracts/AccessControl.sol\":6925:7425  function _revokeAccountPermission(bytes memory permissionName, address account) internal virtual {\r... */\n    tag_139:\n        /* \"contracts/AccessControl.sol\":7033:7051  bytes32 permission */\n      0x00\n        /* \"contracts/AccessControl.sol\":7064:7078  permissionName */\n      dup3\n        /* \"contracts/AccessControl.sol\":7054:7079  keccak256(permissionName) */\n      dup1\n      mload\n      swap1\n      0x20\n      add\n      keccak256\n        /* \"contracts/AccessControl.sol\":7033:7079  bytes32 permission = keccak256(permissionName) */\n      swap1\n      pop\n        /* \"contracts/AccessControl.sol\":7094:7121  _check(permission, account) */\n      tag_223\n        /* \"contracts/AccessControl.sol\":7101:7111  permission */\n      dup2\n        /* \"contracts/AccessControl.sol\":7113:7120  account */\n      dup4\n        /* \"contracts/AccessControl.sol\":7094:7100  _check */\n      tag_63\n        /* \"contracts/AccessControl.sol\":7094:7121  _check(permission, account) */\n      jump\t// in\n    tag_223:\n        /* \"contracts/AccessControl.sol\":7094:7144  _check(permission, account) && permission != ADMIN */\n      dup1\n      iszero\n      tag_224\n      jumpi\n      pop\n        /* \"contracts/AccessControl.sol\":677:695  keccak256(\"ADMIN\") */\n      0xdf8b4c520ffe197c5343c6f5aec59570151ef9a492f2c624fd45ddde6135ec42\n        /* \"contracts/AccessControl.sol\":7125:7135  permission */\n      dup2\n        /* \"contracts/AccessControl.sol\":7125:7144  permission != ADMIN */\n      eq\n      iszero\n        /* \"contracts/AccessControl.sol\":7094:7144  _check(permission, account) && permission != ADMIN */\n    tag_224:\n        /* \"contracts/AccessControl.sol\":7090:7418  if (_check(permission, account) && permission != ADMIN) {\r... */\n      iszero\n      tag_225\n      jumpi\n        /* \"contracts/AccessControl.sol\":7208:7213  false */\n      0x00\n        /* \"contracts/AccessControl.sol\":7161:7176  _allPermissions */\n      dup1\n        /* \"contracts/AccessControl.sol\":7161:7188  _allPermissions[permission] */\n      0x00\n        /* \"contracts/AccessControl.sol\":7177:7187  permission */\n      dup4\n        /* \"contracts/AccessControl.sol\":7161:7188  _allPermissions[permission] */\n      dup2\n      mstore\n      0x20\n      add\n      swap1\n      dup2\n      mstore\n      0x20\n      add\n      0x00\n      keccak256\n        /* \"contracts/AccessControl.sol\":7161:7196  _allPermissions[permission].members */\n      0x00\n      add\n        /* \"contracts/AccessControl.sol\":7161:7205  _allPermissions[permission].members[account] */\n      0x00\n        /* \"contracts/AccessControl.sol\":7197:7204  account */\n      dup5\n        /* \"contracts/AccessControl.sol\":7161:7205  _allPermissions[permission].members[account] */\n      0xffffffffffffffffffffffffffffffffffffffff\n      and\n      0xffffffffffffffffffffffffffffffffffffffff\n      and\n      dup2\n      mstore\n      0x20\n      add\n      swap1\n      dup2\n      mstore\n      0x20\n      add\n      0x00\n      keccak256\n      0x00\n        /* \"contracts/AccessControl.sol\":7161:7213  _allPermissions[permission].members[account] = false */\n      0x0100\n      exp\n      dup2\n      sload\n      dup2\n      0xff\n      mul\n      not\n      and\n      swap1\n      dup4\n      iszero\n      iszero\n      mul\n      or\n      swap1\n      sstore\n      pop\n        /* \"contracts/AccessControl.sol\":7276:7286  msg.sender */\n      caller\n        /* \"contracts/AccessControl.sol\":7233:7287  PermissionRevoked(permissionName, account, msg.sender) */\n      0xffffffffffffffffffffffffffffffffffffffff\n      and\n        /* \"contracts/AccessControl.sol\":7267:7274  account */\n      dup3\n        /* \"contracts/AccessControl.sol\":7233:7287  PermissionRevoked(permissionName, account, msg.sender) */\n      0xffffffffffffffffffffffffffffffffffffffff\n      and\n        /* \"contracts/AccessControl.sol\":7251:7265  permissionName */\n      dup5\n        /* \"contracts/AccessControl.sol\":7233:7287  PermissionRevoked(permissionName, account, msg.sender) */\n      mload(0x40)\n      tag_226\n      swap2\n      swap1\n      tag_147\n      jump\t// in\n    tag_226:\n      mload(0x40)\n      dup1\n      swap2\n      sub\n      swap1\n      keccak256\n      0x5658f0a44f1b55364ef0376f818ea716aee06d4e966974edba8ae1b8fa1e379c\n      mload(0x40)\n      mload(0x40)\n      dup1\n      swap2\n      sub\n      swap1\n      log4\n        /* \"contracts/AccessControl.sol\":7090:7418  if (_check(permission, account) && permission != ADMIN) {\r... */\n      jump(tag_227)\n    tag_225:\n        /* \"contracts/AccessControl.sol\":7320:7406  _informFailure(\"The permission is not valid or the account is not in the permission.\") */\n      tag_228\n      mload(0x40)\n      dup1\n      0x80\n      add\n      0x40\n      mstore\n      dup1\n      0x44\n      dup2\n      mstore\n      0x20\n      add\n      data_601972b90d37b25432db4389d8031f8daa2518ef8d99fbf07fd5717b0953de49\n      0x44\n      swap2\n      codecopy\n        /* \"contracts/AccessControl.sol\":7320:7334  _informFailure */\n      tag_150\n        /* \"contracts/AccessControl.sol\":7320:7406  _informFailure(\"The permission is not valid or the account is not in the permission.\") */\n      jump\t// in\n    tag_228:\n        /* \"contracts/AccessControl.sol\":7090:7418  if (_check(permission, account) && permission != ADMIN) {\r... */\n    tag_227:\n        /* \"contracts/AccessControl.sol\":7022:7425  {\r... */\n      pop\n        /* \"contracts/AccessControl.sol\":6925:7425  function _revokeAccountPermission(bytes memory permissionName, address account) internal virtual {\r... */\n      pop\n      pop\n      jump\t// out\n        /* \"contracts/AccessControl.sol\":1386:1644  function _informFailure(string memory response) private pure {\r... */\n    tag_150:\n        /* \"contracts/AccessControl.sol\":1583:1591  response */\n      dup1\n        /* \"contracts/AccessControl.sol\":1504:1610  abi.encodePacked(\r... */\n      add(0x20, mload(0x40))\n      tag_230\n      swap2\n      swap1\n      tag_231\n      jump\t// in\n    tag_230:\n      mload(0x40)\n      0x20\n      dup2\n      dup4\n      sub\n      sub\n      dup2\n      mstore\n      swap1\n      0x40\n      mstore\n        /* \"contracts/AccessControl.sol\":1458:1636  revert(\r... */\n      mload(0x40)\n      0x08c379a000000000000000000000000000000000000000000000000000000000\n      dup2\n      mstore\n      0x04\n      add\n      tag_232\n      swap2\n      swap1\n      tag_233\n      jump\t// in\n    tag_232:\n      mload(0x40)\n      dup1\n      swap2\n      sub\n      swap1\n      revert\n        /* \"contracts/AccessControl.sol\":5488:6151  function _changeAccountIndex(bytes32 permission, address account) private {\r... */\n    tag_182:\n        /* \"contracts/AccessControl.sol\":5721:5733  bool isExist */\n      0x00\n        /* \"contracts/AccessControl.sol\":5756:5762  uint i */\n      dup1\n        /* \"contracts/AccessControl.sol\":5752:5964  for(uint i = 0; i < _allPermissions[permission].length; i++) {\r... */\n    tag_235:\n        /* \"contracts/AccessControl.sol\":5772:5787  _allPermissions */\n      0x00\n        /* \"contracts/AccessControl.sol\":5772:5799  _allPermissions[permission] */\n      dup1\n        /* \"contracts/AccessControl.sol\":5788:5798  permission */\n      dup6\n        /* \"contracts/AccessControl.sol\":5772:5799  _allPermissions[permission] */\n      dup2\n      mstore\n      0x20\n      add\n      swap1\n      dup2\n      mstore\n      0x20\n      add\n      0x00\n      keccak256\n        /* \"contracts/AccessControl.sol\":5772:5806  _allPermissions[permission].length */\n      0x02\n      add\n      sload\n        /* \"contracts/AccessControl.sol\":5768:5769  i */\n      dup2\n        /* \"contracts/AccessControl.sol\":5768:5806  i < _allPermissions[permission].length */\n      lt\n        /* \"contracts/AccessControl.sol\":5752:5964  for(uint i = 0; i < _allPermissions[permission].length; i++) {\r... */\n      iszero\n      tag_236\n      jumpi\n        /* \"contracts/AccessControl.sol\":5871:5878  account */\n      dup3\n        /* \"contracts/AccessControl.sol\":5831:5878  _allPermissions[permission].index[i] == account */\n      0xffffffffffffffffffffffffffffffffffffffff\n      and\n        /* \"contracts/AccessControl.sol\":5831:5846  _allPermissions */\n      0x00\n        /* \"contracts/AccessControl.sol\":5831:5858  _allPermissions[permission] */\n      dup1\n        /* \"contracts/AccessControl.sol\":5847:5857  permission */\n      dup7\n        /* \"contracts/AccessControl.sol\":5831:5858  _allPermissions[permission] */\n      dup2\n      mstore\n      0x20\n      add\n      swap1\n      dup2\n      mstore\n      0x20\n      add\n      0x00\n      keccak256\n        /* \"contracts/AccessControl.sol\":5831:5864  _allPermissions[permission].index */\n      0x01\n      add\n        /* \"contracts/AccessControl.sol\":5831:5867  _allPermissions[permission].index[i] */\n      0x00\n        /* \"contracts/AccessControl.sol\":5865:5866  i */\n      dup4\n        /* \"contracts/AccessControl.sol\":5831:5867  _allPermissions[permission].index[i] */\n      dup2\n      mstore\n      0x20\n      add\n      swap1\n      dup2\n      mstore\n      0x20\n      add\n      0x00\n      keccak256\n      0x00\n      swap1\n      sload\n      swap1\n      0x0100\n      exp\n      swap1\n      div\n      0xffffffffffffffffffffffffffffffffffffffff\n      and\n        /* \"contracts/AccessControl.sol\":5831:5878  _allPermissions[permission].index[i] == account */\n      0xffffffffffffffffffffffffffffffffffffffff\n      and\n      eq\n        /* \"contracts/AccessControl.sol\":5828:5953  if(_allPermissions[permission].index[i] == account) {\r... */\n      iszero\n      tag_238\n      jumpi\n        /* \"contracts/AccessControl.sol\":5909:5913  true */\n      0x01\n        /* \"contracts/AccessControl.sol\":5899:5913  isExist = true */\n      swap2\n      pop\n        /* \"contracts/AccessControl.sol\":5932:5937  break */\n      jump(tag_236)\n        /* \"contracts/AccessControl.sol\":5828:5953  if(_allPermissions[permission].index[i] == account) {\r... */\n    tag_238:\n        /* \"contracts/AccessControl.sol\":5808:5811  i++ */\n      dup1\n      dup1\n      tag_239\n      swap1\n      tag_161\n      jump\t// in\n    tag_239:\n      swap2\n      pop\n      pop\n        /* \"contracts/AccessControl.sol\":5752:5964  for(uint i = 0; i < _allPermissions[permission].length; i++) {\r... */\n      jump(tag_235)\n    tag_236:\n      pop\n        /* \"contracts/AccessControl.sol\":5978:5985  isExist */\n      dup1\n        /* \"contracts/AccessControl.sol\":5974:6144  if(!isExist) {\r... */\n      tag_240\n      jumpi\n        /* \"contracts/AccessControl.sol\":6074:6081  account */\n      dup2\n        /* \"contracts/AccessControl.sol\":6002:6017  _allPermissions */\n      0x00\n        /* \"contracts/AccessControl.sol\":6002:6029  _allPermissions[permission] */\n      dup1\n        /* \"contracts/AccessControl.sol\":6018:6028  permission */\n      dup6\n        /* \"contracts/AccessControl.sol\":6002:6029  _allPermissions[permission] */\n      dup2\n      mstore\n      0x20\n      add\n      swap1\n      dup2\n      mstore\n      0x20\n      add\n      0x00\n      keccak256\n        /* \"contracts/AccessControl.sol\":6002:6035  _allPermissions[permission].index */\n      0x01\n      add\n        /* \"contracts/AccessControl.sol\":6002:6071  _allPermissions[permission].index[_allPermissions[permission].length] */\n      0x00\n        /* \"contracts/AccessControl.sol\":6036:6051  _allPermissions */\n      dup1\n        /* \"contracts/AccessControl.sol\":6036:6063  _allPermissions[permission] */\n      0x00\n        /* \"contracts/AccessControl.sol\":6052:6062  permission */\n      dup8\n        /* \"contracts/AccessControl.sol\":6036:6063  _allPermissions[permission] */\n      dup2\n      mstore\n      0x20\n      add\n      swap1\n      dup2\n      mstore\n      0x20\n      add\n      0x00\n      keccak256\n        /* \"contracts/AccessControl.sol\":6036:6070  _allPermissions[permission].length */\n      0x02\n      add\n      sload\n        /* \"contracts/AccessControl.sol\":6002:6071  _allPermissions[permission].index[_allPermissions[permission].length] */\n      dup2\n      mstore\n      0x20\n      add\n      swap1\n      dup2\n      mstore\n      0x20\n      add\n      0x00\n      keccak256\n      0x00\n        /* \"contracts/AccessControl.sol\":6002:6081  _allPermissions[permission].index[_allPermissions[permission].length] = account */\n      0x0100\n      exp\n      dup2\n      sload\n      dup2\n      0xffffffffffffffffffffffffffffffffffffffff\n      mul\n      not\n      and\n      swap1\n      dup4\n      0xffffffffffffffffffffffffffffffffffffffff\n      and\n      mul\n      or\n      swap1\n      sstore\n      pop\n        /* \"contracts/AccessControl.sol\":6096:6111  _allPermissions */\n      0x00\n        /* \"contracts/AccessControl.sol\":6096:6123  _allPermissions[permission] */\n      dup1\n        /* \"contracts/AccessControl.sol\":6112:6122  permission */\n      dup5\n        /* \"contracts/AccessControl.sol\":6096:6123  _allPermissions[permission] */\n      dup2\n      mstore\n      0x20\n      add\n      swap1\n      dup2\n      mstore\n      0x20\n      add\n      0x00\n      keccak256\n        /* \"contracts/AccessControl.sol\":6096:6130  _allPermissions[permission].length */\n      0x02\n      add\n      0x00\n        /* \"contracts/AccessControl.sol\":6096:6132  _allPermissions[permission].length++ */\n      dup2\n      sload\n      dup1\n      swap3\n      swap2\n      swap1\n      tag_241\n      swap1\n      tag_161\n      jump\t// in\n    tag_241:\n      swap2\n      swap1\n      pop\n      sstore\n      pop\n        /* \"contracts/AccessControl.sol\":5974:6144  if(!isExist) {\r... */\n    tag_240:\n        /* \"contracts/AccessControl.sol\":5562:6151  {\r... */\n      pop\n        /* \"contracts/AccessControl.sol\":5488:6151  function _changeAccountIndex(bytes32 permission, address account) private {\r... */\n      pop\n      pop\n      jump\t// out\n        /* \"contracts/AccessControl.sol\":2027:2464  function _changePermissionIndex(bytes32 permission) private {\r... */\n    tag_197:\n        /* \"contracts/AccessControl.sol\":2098:2110  bool isExist */\n      0x00\n        /* \"contracts/AccessControl.sol\":2133:2139  uint i */\n      dup1\n        /* \"contracts/AccessControl.sol\":2129:2316  for(uint i = 0; i < _numberOfPermissions; i++) {\r... */\n    tag_243:\n        /* \"contracts/AccessControl.sol\":2149:2169  _numberOfPermissions */\n      sload(0x02)\n        /* \"contracts/AccessControl.sol\":2145:2146  i */\n      dup2\n        /* \"contracts/AccessControl.sol\":2145:2169  i < _numberOfPermissions */\n      lt\n        /* \"contracts/AccessControl.sol\":2129:2316  for(uint i = 0; i < _numberOfPermissions; i++) {\r... */\n      iszero\n      tag_244\n      jumpi\n        /* \"contracts/AccessControl.sol\":2220:2230  permission */\n      dup3\n        /* \"contracts/AccessControl.sol\":2194:2213  _indexOfPermissions */\n      0x01\n        /* \"contracts/AccessControl.sol\":2194:2216  _indexOfPermissions[i] */\n      0x00\n        /* \"contracts/AccessControl.sol\":2214:2215  i */\n      dup4\n        /* \"contracts/AccessControl.sol\":2194:2216  _indexOfPermissions[i] */\n      dup2\n      mstore\n      0x20\n      add\n      swap1\n      dup2\n      mstore\n      0x20\n      add\n      0x00\n      keccak256\n      sload\n        /* \"contracts/AccessControl.sol\":2194:2230  _indexOfPermissions[i] == permission */\n      eq\n        /* \"contracts/AccessControl.sol\":2191:2305  if(_indexOfPermissions[i] == permission) {\r... */\n      iszero\n      tag_246\n      jumpi\n        /* \"contracts/AccessControl.sol\":2261:2265  true */\n      0x01\n        /* \"contracts/AccessControl.sol\":2251:2265  isExist = true */\n      swap2\n      pop\n        /* \"contracts/AccessControl.sol\":2284:2289  break */\n      jump(tag_244)\n        /* \"contracts/AccessControl.sol\":2191:2305  if(_indexOfPermissions[i] == permission) {\r... */\n    tag_246:\n        /* \"contracts/AccessControl.sol\":2171:2174  i++ */\n      dup1\n      dup1\n      tag_247\n      swap1\n      tag_161\n      jump\t// in\n    tag_247:\n      swap2\n      pop\n      pop\n        /* \"contracts/AccessControl.sol\":2129:2316  for(uint i = 0; i < _numberOfPermissions; i++) {\r... */\n      jump(tag_243)\n    tag_244:\n      pop\n        /* \"contracts/AccessControl.sol\":2330:2337  isExist */\n      dup1\n        /* \"contracts/AccessControl.sol\":2326:2457  if(!isExist) {\r... */\n      tag_248\n      jumpi\n        /* \"contracts/AccessControl.sol\":2398:2408  permission */\n      dup2\n        /* \"contracts/AccessControl.sol\":2354:2373  _indexOfPermissions */\n      0x01\n        /* \"contracts/AccessControl.sol\":2354:2395  _indexOfPermissions[_numberOfPermissions] */\n      0x00\n        /* \"contracts/AccessControl.sol\":2374:2394  _numberOfPermissions */\n      sload(0x02)\n        /* \"contracts/AccessControl.sol\":2354:2395  _indexOfPermissions[_numberOfPermissions] */\n      dup2\n      mstore\n      0x20\n      add\n      swap1\n      dup2\n      mstore\n      0x20\n      add\n      0x00\n      keccak256\n        /* \"contracts/AccessControl.sol\":2354:2408  _indexOfPermissions[_numberOfPermissions] = permission */\n      dup2\n      swap1\n      sstore\n      pop\n        /* \"contracts/AccessControl.sol\":2423:2443  _numberOfPermissions */\n      0x02\n      0x00\n        /* \"contracts/AccessControl.sol\":2423:2445  _numberOfPermissions++ */\n      dup2\n      sload\n      dup1\n      swap3\n      swap2\n      swap1\n      tag_249\n      swap1\n      tag_161\n      jump\t// in\n    tag_249:\n      swap2\n      swap1\n      pop\n      sstore\n      pop\n        /* \"contracts/AccessControl.sol\":2326:2457  if(!isExist) {\r... */\n    tag_248:\n        /* \"contracts/AccessControl.sol\":2087:2464  {\r... */\n      pop\n        /* \"contracts/AccessControl.sol\":2027:2464  function _changePermissionIndex(bytes32 permission) private {\r... */\n      pop\n      jump\t// out\n        /* \"#utility.yul\":7:417   */\n    tag_251:\n        /* \"#utility.yul\":84:89   */\n      0x00\n        /* \"#utility.yul\":109:174   */\n      tag_253\n        /* \"#utility.yul\":125:173   */\n      tag_254\n        /* \"#utility.yul\":166:172   */\n      dup5\n        /* \"#utility.yul\":125:173   */\n      tag_255\n      jump\t// in\n    tag_254:\n        /* \"#utility.yul\":109:174   */\n      tag_256\n      jump\t// in\n    tag_253:\n        /* \"#utility.yul\":100:174   */\n      swap1\n      pop\n        /* \"#utility.yul\":197:203   */\n      dup3\n        /* \"#utility.yul\":190:195   */\n      dup2\n        /* \"#utility.yul\":183:204   */\n      mstore\n        /* \"#utility.yul\":235:239   */\n      0x20\n        /* \"#utility.yul\":228:233   */\n      dup2\n        /* \"#utility.yul\":224:240   */\n      add\n        /* \"#utility.yul\":273:276   */\n      dup5\n        /* \"#utility.yul\":264:270   */\n      dup5\n        /* \"#utility.yul\":259:262   */\n      dup5\n        /* \"#utility.yul\":255:271   */\n      add\n        /* \"#utility.yul\":252:277   */\n      gt\n        /* \"#utility.yul\":249:361   */\n      iszero\n      tag_257\n      jumpi\n        /* \"#utility.yul\":280:359   */\n      tag_258\n      tag_259\n      jump\t// in\n    tag_258:\n        /* \"#utility.yul\":249:361   */\n    tag_257:\n        /* \"#utility.yul\":370:411   */\n      tag_260\n        /* \"#utility.yul\":404:410   */\n      dup5\n        /* \"#utility.yul\":399:402   */\n      dup3\n        /* \"#utility.yul\":394:397   */\n      dup6\n        /* \"#utility.yul\":370:411   */\n      tag_261\n      jump\t// in\n    tag_260:\n        /* \"#utility.yul\":90:417   */\n      pop\n        /* \"#utility.yul\":7:417   */\n      swap4\n      swap3\n      pop\n      pop\n      pop\n      jump\t// out\n        /* \"#utility.yul\":423:835   */\n    tag_262:\n        /* \"#utility.yul\":501:506   */\n      0x00\n        /* \"#utility.yul\":526:592   */\n      tag_264\n        /* \"#utility.yul\":542:591   */\n      tag_265\n        /* \"#utility.yul\":584:590   */\n      dup5\n        /* \"#utility.yul\":542:591   */\n      tag_266\n      jump\t// in\n    tag_265:\n        /* \"#utility.yul\":526:592   */\n      tag_256\n      jump\t// in\n    tag_264:\n        /* \"#utility.yul\":517:592   */\n      swap1\n      pop\n        /* \"#utility.yul\":615:621   */\n      dup3\n        /* \"#utility.yul\":608:613   */\n      dup2\n        /* \"#utility.yul\":601:622   */\n      mstore\n        /* \"#utility.yul\":653:657   */\n      0x20\n        /* \"#utility.yul\":646:651   */\n      dup2\n        /* \"#utility.yul\":642:658   */\n      add\n        /* \"#utility.yul\":691:694   */\n      dup5\n        /* \"#utility.yul\":682:688   */\n      dup5\n        /* \"#utility.yul\":677:680   */\n      dup5\n        /* \"#utility.yul\":673:689   */\n      add\n        /* \"#utility.yul\":670:695   */\n      gt\n        /* \"#utility.yul\":667:779   */\n      iszero\n      tag_267\n      jumpi\n        /* \"#utility.yul\":698:777   */\n      tag_268\n      tag_259\n      jump\t// in\n    tag_268:\n        /* \"#utility.yul\":667:779   */\n    tag_267:\n        /* \"#utility.yul\":788:829   */\n      tag_269\n        /* \"#utility.yul\":822:828   */\n      dup5\n        /* \"#utility.yul\":817:820   */\n      dup3\n        /* \"#utility.yul\":812:815   */\n      dup6\n        /* \"#utility.yul\":788:829   */\n      tag_261\n      jump\t// in\n    tag_269:\n        /* \"#utility.yul\":507:835   */\n      pop\n        /* \"#utility.yul\":423:835   */\n      swap4\n      swap3\n      pop\n      pop\n      pop\n      jump\t// out\n        /* \"#utility.yul\":841:980   */\n    tag_270:\n        /* \"#utility.yul\":887:892   */\n      0x00\n        /* \"#utility.yul\":925:931   */\n      dup2\n        /* \"#utility.yul\":912:932   */\n      calldataload\n        /* \"#utility.yul\":903:932   */\n      swap1\n      pop\n        /* \"#utility.yul\":941:974   */\n      tag_272\n        /* \"#utility.yul\":968:973   */\n      dup2\n        /* \"#utility.yul\":941:974   */\n      tag_273\n      jump\t// in\n    tag_272:\n        /* \"#utility.yul\":841:980   */\n      swap3\n      swap2\n      pop\n      pop\n      jump\t// out\n        /* \"#utility.yul\":999:1337   */\n    tag_274:\n        /* \"#utility.yul\":1054:1059   */\n      0x00\n        /* \"#utility.yul\":1103:1106   */\n      dup3\n        /* \"#utility.yul\":1096:1100   */\n      0x1f\n        /* \"#utility.yul\":1088:1094   */\n      dup4\n        /* \"#utility.yul\":1084:1101   */\n      add\n        /* \"#utility.yul\":1080:1107   */\n      slt\n        /* \"#utility.yul\":1070:1192   */\n      tag_276\n      jumpi\n        /* \"#utility.yul\":1111:1190   */\n      tag_277\n      tag_278\n      jump\t// in\n    tag_277:\n        /* \"#utility.yul\":1070:1192   */\n    tag_276:\n        /* \"#utility.yul\":1228:1234   */\n      dup2\n        /* \"#utility.yul\":1215:1235   */\n      calldataload\n        /* \"#utility.yul\":1253:1331   */\n      tag_279\n        /* \"#utility.yul\":1327:1330   */\n      dup5\n        /* \"#utility.yul\":1319:1325   */\n      dup3\n        /* \"#utility.yul\":1312:1316   */\n      0x20\n        /* \"#utility.yul\":1304:1310   */\n      dup7\n        /* \"#utility.yul\":1300:1317   */\n      add\n        /* \"#utility.yul\":1253:1331   */\n      tag_251\n      jump\t// in\n    tag_279:\n        /* \"#utility.yul\":1244:1331   */\n      swap2\n      pop\n        /* \"#utility.yul\":1060:1337   */\n      pop\n        /* \"#utility.yul\":999:1337   */\n      swap3\n      swap2\n      pop\n      pop\n      jump\t// out\n        /* \"#utility.yul\":1357:1697   */\n    tag_280:\n        /* \"#utility.yul\":1413:1418   */\n      0x00\n        /* \"#utility.yul\":1462:1465   */\n      dup3\n        /* \"#utility.yul\":1455:1459   */\n      0x1f\n        /* \"#utility.yul\":1447:1453   */\n      dup4\n        /* \"#utility.yul\":1443:1460   */\n      add\n        /* \"#utility.yul\":1439:1466   */\n      slt\n        /* \"#utility.yul\":1429:1551   */\n      tag_282\n      jumpi\n        /* \"#utility.yul\":1470:1549   */\n      tag_283\n      tag_278\n      jump\t// in\n    tag_283:\n        /* \"#utility.yul\":1429:1551   */\n    tag_282:\n        /* \"#utility.yul\":1587:1593   */\n      dup2\n        /* \"#utility.yul\":1574:1594   */\n      calldataload\n        /* \"#utility.yul\":1612:1691   */\n      tag_284\n        /* \"#utility.yul\":1687:1690   */\n      dup5\n        /* \"#utility.yul\":1679:1685   */\n      dup3\n        /* \"#utility.yul\":1672:1676   */\n      0x20\n        /* \"#utility.yul\":1664:1670   */\n      dup7\n        /* \"#utility.yul\":1660:1677   */\n      add\n        /* \"#utility.yul\":1612:1691   */\n      tag_262\n      jump\t// in\n    tag_284:\n        /* \"#utility.yul\":1603:1691   */\n      swap2\n      pop\n        /* \"#utility.yul\":1419:1697   */\n      pop\n        /* \"#utility.yul\":1357:1697   */\n      swap3\n      swap2\n      pop\n      pop\n      jump\t// out\n        /* \"#utility.yul\":1703:2032   */\n    tag_21:\n        /* \"#utility.yul\":1762:1768   */\n      0x00\n        /* \"#utility.yul\":1811:1813   */\n      0x20\n        /* \"#utility.yul\":1799:1808   */\n      dup3\n        /* \"#utility.yul\":1790:1797   */\n      dup5\n        /* \"#utility.yul\":1786:1809   */\n      sub\n        /* \"#utility.yul\":1782:1814   */\n      slt\n        /* \"#utility.yul\":1779:1898   */\n      iszero\n      tag_286\n      jumpi\n        /* \"#utility.yul\":1817:1896   */\n      tag_287\n      tag_288\n      jump\t// in\n    tag_287:\n        /* \"#utility.yul\":1779:1898   */\n    tag_286:\n        /* \"#utility.yul\":1937:1938   */\n      0x00\n        /* \"#utility.yul\":1962:2015   */\n      tag_289\n        /* \"#utility.yul\":2007:2014   */\n      dup5\n        /* \"#utility.yul\":1998:2004   */\n      dup3\n        /* \"#utility.yul\":1987:1996   */\n      dup6\n        /* \"#utility.yul\":1983:2005   */\n      add\n        /* \"#utility.yul\":1962:2015   */\n      tag_270\n      jump\t// in\n    tag_289:\n        /* \"#utility.yul\":1952:2015   */\n      swap2\n      pop\n        /* \"#utility.yul\":1908:2025   */\n      pop\n        /* \"#utility.yul\":1703:2032   */\n      swap3\n      swap2\n      pop\n      pop\n      jump\t// out\n        /* \"#utility.yul\":2038:2545   */\n    tag_17:\n        /* \"#utility.yul\":2106:2112   */\n      0x00\n        /* \"#utility.yul\":2155:2157   */\n      0x20\n        /* \"#utility.yul\":2143:2152   */\n      dup3\n        /* \"#utility.yul\":2134:2141   */\n      dup5\n        /* \"#utility.yul\":2130:2153   */\n      sub\n        /* \"#utility.yul\":2126:2158   */\n      slt\n        /* \"#utility.yul\":2123:2242   */\n      iszero\n      tag_291\n      jumpi\n        /* \"#utility.yul\":2161:2240   */\n      tag_292\n      tag_288\n      jump\t// in\n    tag_292:\n        /* \"#utility.yul\":2123:2242   */\n    tag_291:\n        /* \"#utility.yul\":2309:2310   */\n      0x00\n        /* \"#utility.yul\":2298:2307   */\n      dup3\n        /* \"#utility.yul\":2294:2311   */\n      add\n        /* \"#utility.yul\":2281:2312   */\n      calldataload\n        /* \"#utility.yul\":2339:2357   */\n      0xffffffffffffffff\n        /* \"#utility.yul\":2331:2337   */\n      dup2\n        /* \"#utility.yul\":2328:2358   */\n      gt\n        /* \"#utility.yul\":2325:2442   */\n      iszero\n      tag_293\n      jumpi\n        /* \"#utility.yul\":2361:2440   */\n      tag_294\n      tag_295\n      jump\t// in\n    tag_294:\n        /* \"#utility.yul\":2325:2442   */\n    tag_293:\n        /* \"#utility.yul\":2466:2528   */\n      tag_296\n        /* \"#utility.yul\":2520:2527   */\n      dup5\n        /* \"#utility.yul\":2511:2517   */\n      dup3\n        /* \"#utility.yul\":2500:2509   */\n      dup6\n        /* \"#utility.yul\":2496:2518   */\n      add\n        /* \"#utility.yul\":2466:2528   */\n      tag_274\n      jump\t// in\n    tag_296:\n        /* \"#utility.yul\":2456:2528   */\n      swap2\n      pop\n        /* \"#utility.yul\":2252:2538   */\n      pop\n        /* \"#utility.yul\":2038:2545   */\n      swap3\n      swap2\n      pop\n      pop\n      jump\t// out\n        /* \"#utility.yul\":2551:3203   */\n    tag_56:\n        /* \"#utility.yul\":2628:2634   */\n      0x00\n        /* \"#utility.yul\":2636:2642   */\n      dup1\n        /* \"#utility.yul\":2685:2687   */\n      0x40\n        /* \"#utility.yul\":2673:2682   */\n      dup4\n        /* \"#utility.yul\":2664:2671   */\n      dup6\n        /* \"#utility.yul\":2660:2683   */\n      sub\n        /* \"#utility.yul\":2656:2688   */\n      slt\n        /* \"#utility.yul\":2653:2772   */\n      iszero\n      tag_298\n      jumpi\n        /* \"#utility.yul\":2691:2770   */\n      tag_299\n      tag_288\n      jump\t// in\n    tag_299:\n        /* \"#utility.yul\":2653:2772   */\n    tag_298:\n        /* \"#utility.yul\":2839:2840   */\n      0x00\n        /* \"#utility.yul\":2828:2837   */\n      dup4\n        /* \"#utility.yul\":2824:2841   */\n      add\n        /* \"#utility.yul\":2811:2842   */\n      calldataload\n        /* \"#utility.yul\":2869:2887   */\n      0xffffffffffffffff\n        /* \"#utility.yul\":2861:2867   */\n      dup2\n        /* \"#utility.yul\":2858:2888   */\n      gt\n        /* \"#utility.yul\":2855:2972   */\n      iszero\n      tag_300\n      jumpi\n        /* \"#utility.yul\":2891:2970   */\n      tag_301\n      tag_295\n      jump\t// in\n    tag_301:\n        /* \"#utility.yul\":2855:2972   */\n    tag_300:\n        /* \"#utility.yul\":2996:3058   */\n      tag_302\n        /* \"#utility.yul\":3050:3057   */\n      dup6\n        /* \"#utility.yul\":3041:3047   */\n      dup3\n        /* \"#utility.yul\":3030:3039   */\n      dup7\n        /* \"#utility.yul\":3026:3048   */\n      add\n        /* \"#utility.yul\":2996:3058   */\n      tag_274\n      jump\t// in\n    tag_302:\n        /* \"#utility.yul\":2986:3058   */\n      swap3\n      pop\n        /* \"#utility.yul\":2782:3068   */\n      pop\n        /* \"#utility.yul\":3107:3109   */\n      0x20\n        /* \"#utility.yul\":3133:3186   */\n      tag_303\n        /* \"#utility.yul\":3178:3185   */\n      dup6\n        /* \"#utility.yul\":3169:3175   */\n      dup3\n        /* \"#utility.yul\":3158:3167   */\n      dup7\n        /* \"#utility.yul\":3154:3176   */\n      add\n        /* \"#utility.yul\":3133:3186   */\n      tag_270\n      jump\t// in\n    tag_303:\n        /* \"#utility.yul\":3123:3186   */\n      swap2\n      pop\n        /* \"#utility.yul\":3078:3196   */\n      pop\n        /* \"#utility.yul\":2551:3203   */\n      swap3\n      pop\n      swap3\n      swap1\n      pop\n      jump\t// out\n        /* \"#utility.yul\":3209:4039   */\n    tag_49:\n        /* \"#utility.yul\":3295:3301   */\n      0x00\n        /* \"#utility.yul\":3303:3309   */\n      dup1\n        /* \"#utility.yul\":3352:3354   */\n      0x40\n        /* \"#utility.yul\":3340:3349   */\n      dup4\n        /* \"#utility.yul\":3331:3338   */\n      dup6\n        /* \"#utility.yul\":3327:3350   */\n      sub\n        /* \"#utility.yul\":3323:3355   */\n      slt\n        /* \"#utility.yul\":3320:3439   */\n      iszero\n      tag_305\n      jumpi\n        /* \"#utility.yul\":3358:3437   */\n      tag_306\n      tag_288\n      jump\t// in\n    tag_306:\n        /* \"#utility.yul\":3320:3439   */\n    tag_305:\n        /* \"#utility.yul\":3506:3507   */\n      0x00\n        /* \"#utility.yul\":3495:3504   */\n      dup4\n        /* \"#utility.yul\":3491:3508   */\n      add\n        /* \"#utility.yul\":3478:3509   */\n      calldataload\n        /* \"#utility.yul\":3536:3554   */\n      0xffffffffffffffff\n        /* \"#utility.yul\":3528:3534   */\n      dup2\n        /* \"#utility.yul\":3525:3555   */\n      gt\n        /* \"#utility.yul\":3522:3639   */\n      iszero\n      tag_307\n      jumpi\n        /* \"#utility.yul\":3558:3637   */\n      tag_308\n      tag_295\n      jump\t// in\n    tag_308:\n        /* \"#utility.yul\":3522:3639   */\n    tag_307:\n        /* \"#utility.yul\":3663:3725   */\n      tag_309\n        /* \"#utility.yul\":3717:3724   */\n      dup6\n        /* \"#utility.yul\":3708:3714   */\n      dup3\n        /* \"#utility.yul\":3697:3706   */\n      dup7\n        /* \"#utility.yul\":3693:3715   */\n      add\n        /* \"#utility.yul\":3663:3725   */\n      tag_274\n      jump\t// in\n    tag_309:\n        /* \"#utility.yul\":3653:3725   */\n      swap3\n      pop\n        /* \"#utility.yul\":3449:3735   */\n      pop\n        /* \"#utility.yul\":3802:3804   */\n      0x20\n        /* \"#utility.yul\":3791:3800   */\n      dup4\n        /* \"#utility.yul\":3787:3805   */\n      add\n        /* \"#utility.yul\":3774:3806   */\n      calldataload\n        /* \"#utility.yul\":3833:3851   */\n      0xffffffffffffffff\n        /* \"#utility.yul\":3825:3831   */\n      dup2\n        /* \"#utility.yul\":3822:3852   */\n      gt\n        /* \"#utility.yul\":3819:3936   */\n      iszero\n      tag_310\n      jumpi\n        /* \"#utility.yul\":3855:3934   */\n      tag_311\n      tag_295\n      jump\t// in\n    tag_311:\n        /* \"#utility.yul\":3819:3936   */\n    tag_310:\n        /* \"#utility.yul\":3960:4022   */\n      tag_312\n        /* \"#utility.yul\":4014:4021   */\n      dup6\n        /* \"#utility.yul\":4005:4011   */\n      dup3\n        /* \"#utility.yul\":3994:4003   */\n      dup7\n        /* \"#utility.yul\":3990:4012   */\n      add\n        /* \"#utility.yul\":3960:4022   */\n      tag_274\n      jump\t// in\n    tag_312:\n        /* \"#utility.yul\":3950:4022   */\n      swap2\n      pop\n        /* \"#utility.yul\":3745:4032   */\n      pop\n        /* \"#utility.yul\":3209:4039   */\n      swap3\n      pop\n      swap3\n      swap1\n      pop\n      jump\t// out\n        /* \"#utility.yul\":4045:4554   */\n    tag_25:\n        /* \"#utility.yul\":4114:4120   */\n      0x00\n        /* \"#utility.yul\":4163:4165   */\n      0x20\n        /* \"#utility.yul\":4151:4160   */\n      dup3\n        /* \"#utility.yul\":4142:4149   */\n      dup5\n        /* \"#utility.yul\":4138:4161   */\n      sub\n        /* \"#utility.yul\":4134:4166   */\n      slt\n        /* \"#utility.yul\":4131:4250   */\n      iszero\n      tag_314\n      jumpi\n        /* \"#utility.yul\":4169:4248   */\n      tag_315\n      tag_288\n      jump\t// in\n    tag_315:\n        /* \"#utility.yul\":4131:4250   */\n    tag_314:\n        /* \"#utility.yul\":4317:4318   */\n      0x00\n        /* \"#utility.yul\":4306:4315   */\n      dup3\n        /* \"#utility.yul\":4302:4319   */\n      add\n        /* \"#utility.yul\":4289:4320   */\n      calldataload\n        /* \"#utility.yul\":4347:4365   */\n      0xffffffffffffffff\n        /* \"#utility.yul\":4339:4345   */\n      dup2\n        /* \"#utility.yul\":4336:4366   */\n      gt\n        /* \"#utility.yul\":4333:4450   */\n      iszero\n      tag_316\n      jumpi\n        /* \"#utility.yul\":4369:4448   */\n      tag_317\n      tag_295\n      jump\t// in\n    tag_317:\n        /* \"#utility.yul\":4333:4450   */\n    tag_316:\n        /* \"#utility.yul\":4474:4537   */\n      tag_318\n        /* \"#utility.yul\":4529:4536   */\n      dup5\n        /* \"#utility.yul\":4520:4526   */\n      dup3\n        /* \"#utility.yul\":4509:4518   */\n      dup6\n        /* \"#utility.yul\":4505:4527   */\n      add\n        /* \"#utility.yul\":4474:4537   */\n      tag_280\n      jump\t// in\n    tag_318:\n        /* \"#utility.yul\":4464:4537   */\n      swap2\n      pop\n        /* \"#utility.yul\":4260:4547   */\n      pop\n        /* \"#utility.yul\":4045:4554   */\n      swap3\n      swap2\n      pop\n      pop\n      jump\t// out\n        /* \"#utility.yul\":4560:5214   */\n    tag_43:\n        /* \"#utility.yul\":4638:4644   */\n      0x00\n        /* \"#utility.yul\":4646:4652   */\n      dup1\n        /* \"#utility.yul\":4695:4697   */\n      0x40\n        /* \"#utility.yul\":4683:4692   */\n      dup4\n        /* \"#utility.yul\":4674:4681   */\n      dup6\n        /* \"#utility.yul\":4670:4693   */\n      sub\n        /* \"#utility.yul\":4666:4698   */\n      slt\n        /* \"#utility.yul\":4663:4782   */\n      iszero\n      tag_320\n      jumpi\n        /* \"#utility.yul\":4701:4780   */\n      tag_321\n      tag_288\n      jump\t// in\n    tag_321:\n        /* \"#utility.yul\":4663:4782   */\n    tag_320:\n        /* \"#utility.yul\":4849:4850   */\n      0x00\n        /* \"#utility.yul\":4838:4847   */\n      dup4\n        /* \"#utility.yul\":4834:4851   */\n      add\n        /* \"#utility.yul\":4821:4852   */\n      calldataload\n        /* \"#utility.yul\":4879:4897   */\n      0xffffffffffffffff\n        /* \"#utility.yul\":4871:4877   */\n      dup2\n        /* \"#utility.yul\":4868:4898   */\n      gt\n        /* \"#utility.yul\":4865:4982   */\n      iszero\n      tag_322\n      jumpi\n        /* \"#utility.yul\":4901:4980   */\n      tag_323\n      tag_295\n      jump\t// in\n    tag_323:\n        /* \"#utility.yul\":4865:4982   */\n    tag_322:\n        /* \"#utility.yul\":5006:5069   */\n      tag_324\n        /* \"#utility.yul\":5061:5068   */\n      dup6\n        /* \"#utility.yul\":5052:5058   */\n      dup3\n        /* \"#utility.yul\":5041:5050   */\n      dup7\n        /* \"#utility.yul\":5037:5059   */\n      add\n        /* \"#utility.yul\":5006:5069   */\n      tag_280\n      jump\t// in\n    tag_324:\n        /* \"#utility.yul\":4996:5069   */\n      swap3\n      pop\n        /* \"#utility.yul\":4792:5079   */\n      pop\n        /* \"#utility.yul\":5118:5120   */\n      0x20\n        /* \"#utility.yul\":5144:5197   */\n      tag_325\n        /* \"#utility.yul\":5189:5196   */\n      dup6\n        /* \"#utility.yul\":5180:5186   */\n      dup3\n        /* \"#utility.yul\":5169:5178   */\n      dup7\n        /* \"#utility.yul\":5165:5187   */\n      add\n        /* \"#utility.yul\":5144:5197   */\n      tag_270\n      jump\t// in\n    tag_325:\n        /* \"#utility.yul\":5134:5197   */\n      swap2\n      pop\n        /* \"#utility.yul\":5089:5207   */\n      pop\n        /* \"#utility.yul\":4560:5214   */\n      swap3\n      pop\n      swap3\n      swap1\n      pop\n      jump\t// out\n        /* \"#utility.yul\":5220:5399   */\n    tag_326:\n        /* \"#utility.yul\":5289:5299   */\n      0x00\n        /* \"#utility.yul\":5310:5356   */\n      tag_328\n        /* \"#utility.yul\":5352:5355   */\n      dup4\n        /* \"#utility.yul\":5344:5350   */\n      dup4\n        /* \"#utility.yul\":5310:5356   */\n      tag_329\n      jump\t// in\n    tag_328:\n        /* \"#utility.yul\":5388:5392   */\n      0x20\n        /* \"#utility.yul\":5383:5386   */\n      dup4\n        /* \"#utility.yul\":5379:5393   */\n      add\n        /* \"#utility.yul\":5365:5393   */\n      swap1\n      pop\n        /* \"#utility.yul\":5220:5399   */\n      swap3\n      swap2\n      pop\n      pop\n      jump\t// out\n        /* \"#utility.yul\":5405:5584   */\n    tag_330:\n        /* \"#utility.yul\":5474:5484   */\n      0x00\n        /* \"#utility.yul\":5495:5541   */\n      tag_332\n        /* \"#utility.yul\":5537:5540   */\n      dup4\n        /* \"#utility.yul\":5529:5535   */\n      dup4\n        /* \"#utility.yul\":5495:5541   */\n      tag_333\n      jump\t// in\n    tag_332:\n        /* \"#utility.yul\":5573:5577   */\n      0x20\n        /* \"#utility.yul\":5568:5571   */\n      dup4\n        /* \"#utility.yul\":5564:5578   */\n      add\n        /* \"#utility.yul\":5550:5578   */\n      swap1\n      pop\n        /* \"#utility.yul\":5405:5584   */\n      swap3\n      swap2\n      pop\n      pop\n      jump\t// out\n        /* \"#utility.yul\":5590:5698   */\n    tag_329:\n        /* \"#utility.yul\":5667:5691   */\n      tag_335\n        /* \"#utility.yul\":5685:5690   */\n      dup2\n        /* \"#utility.yul\":5667:5691   */\n      tag_336\n      jump\t// in\n    tag_335:\n        /* \"#utility.yul\":5662:5665   */\n      dup3\n        /* \"#utility.yul\":5655:5692   */\n      mstore\n        /* \"#utility.yul\":5590:5698   */\n      pop\n      pop\n      jump\t// out\n        /* \"#utility.yul\":5704:5822   */\n    tag_337:\n        /* \"#utility.yul\":5791:5815   */\n      tag_339\n        /* \"#utility.yul\":5809:5814   */\n      dup2\n        /* \"#utility.yul\":5791:5815   */\n      tag_336\n      jump\t// in\n    tag_339:\n        /* \"#utility.yul\":5786:5789   */\n      dup3\n        /* \"#utility.yul\":5779:5816   */\n      mstore\n        /* \"#utility.yul\":5704:5822   */\n      pop\n      pop\n      jump\t// out\n        /* \"#utility.yul\":5858:6590   */\n    tag_340:\n        /* \"#utility.yul\":5977:5980   */\n      0x00\n        /* \"#utility.yul\":6006:6060   */\n      tag_342\n        /* \"#utility.yul\":6054:6059   */\n      dup3\n        /* \"#utility.yul\":6006:6060   */\n      tag_343\n      jump\t// in\n    tag_342:\n        /* \"#utility.yul\":6076:6162   */\n      tag_344\n        /* \"#utility.yul\":6155:6161   */\n      dup2\n        /* \"#utility.yul\":6150:6153   */\n      dup6\n        /* \"#utility.yul\":6076:6162   */\n      tag_345\n      jump\t// in\n    tag_344:\n        /* \"#utility.yul\":6069:6162   */\n      swap4\n      pop\n        /* \"#utility.yul\":6186:6242   */\n      tag_346\n        /* \"#utility.yul\":6236:6241   */\n      dup4\n        /* \"#utility.yul\":6186:6242   */\n      tag_347\n      jump\t// in\n    tag_346:\n        /* \"#utility.yul\":6265:6272   */\n      dup1\n        /* \"#utility.yul\":6296:6297   */\n      0x00\n        /* \"#utility.yul\":6281:6565   */\n    tag_348:\n        /* \"#utility.yul\":6306:6312   */\n      dup4\n        /* \"#utility.yul\":6303:6304   */\n      dup2\n        /* \"#utility.yul\":6300:6313   */\n      lt\n        /* \"#utility.yul\":6281:6565   */\n      iszero\n      tag_350\n      jumpi\n        /* \"#utility.yul\":6382:6388   */\n      dup2\n        /* \"#utility.yul\":6376:6389   */\n      mload\n        /* \"#utility.yul\":6409:6472   */\n      tag_351\n        /* \"#utility.yul\":6468:6471   */\n      dup9\n        /* \"#utility.yul\":6453:6466   */\n      dup3\n        /* \"#utility.yul\":6409:6472   */\n      tag_326\n      jump\t// in\n    tag_351:\n        /* \"#utility.yul\":6402:6472   */\n      swap8\n      pop\n        /* \"#utility.yul\":6495:6555   */\n      tag_352\n        /* \"#utility.yul\":6548:6554   */\n      dup4\n        /* \"#utility.yul\":6495:6555   */\n      tag_353\n      jump\t// in\n    tag_352:\n        /* \"#utility.yul\":6485:6555   */\n      swap3\n      pop\n        /* \"#utility.yul\":6341:6565   */\n      pop\n        /* \"#utility.yul\":6328:6329   */\n      0x01\n        /* \"#utility.yul\":6325:6326   */\n      dup2\n        /* \"#utility.yul\":6321:6330   */\n      add\n        /* \"#utility.yul\":6316:6330   */\n      swap1\n      pop\n        /* \"#utility.yul\":6281:6565   */\n      jump(tag_348)\n    tag_350:\n        /* \"#utility.yul\":6285:6299   */\n      pop\n        /* \"#utility.yul\":6581:6584   */\n      dup6\n        /* \"#utility.yul\":6574:6584   */\n      swap4\n      pop\n        /* \"#utility.yul\":5982:6590   */\n      pop\n      pop\n      pop\n        /* \"#utility.yul\":5858:6590   */\n      swap3\n      swap2\n      pop\n      pop\n      jump\t// out\n        /* \"#utility.yul\":6626:7358   */\n    tag_354:\n        /* \"#utility.yul\":6745:6748   */\n      0x00\n        /* \"#utility.yul\":6774:6828   */\n      tag_356\n        /* \"#utility.yul\":6822:6827   */\n      dup3\n        /* \"#utility.yul\":6774:6828   */\n      tag_357\n      jump\t// in\n    tag_356:\n        /* \"#utility.yul\":6844:6930   */\n      tag_358\n        /* \"#utility.yul\":6923:6929   */\n      dup2\n        /* \"#utility.yul\":6918:6921   */\n      dup6\n        /* \"#utility.yul\":6844:6930   */\n      tag_359\n      jump\t// in\n    tag_358:\n        /* \"#utility.yul\":6837:6930   */\n      swap4\n      pop\n        /* \"#utility.yul\":6954:7010   */\n      tag_360\n        /* \"#utility.yul\":7004:7009   */\n      dup4\n        /* \"#utility.yul\":6954:7010   */\n      tag_361\n      jump\t// in\n    tag_360:\n        /* \"#utility.yul\":7033:7040   */\n      dup1\n        /* \"#utility.yul\":7064:7065   */\n      0x00\n        /* \"#utility.yul\":7049:7333   */\n    tag_362:\n        /* \"#utility.yul\":7074:7080   */\n      dup4\n        /* \"#utility.yul\":7071:7072   */\n      dup2\n        /* \"#utility.yul\":7068:7081   */\n      lt\n        /* \"#utility.yul\":7049:7333   */\n      iszero\n      tag_364\n      jumpi\n        /* \"#utility.yul\":7150:7156   */\n      dup2\n        /* \"#utility.yul\":7144:7157   */\n      mload\n        /* \"#utility.yul\":7177:7240   */\n      tag_365\n        /* \"#utility.yul\":7236:7239   */\n      dup9\n        /* \"#utility.yul\":7221:7234   */\n      dup3\n        /* \"#utility.yul\":7177:7240   */\n      tag_330\n      jump\t// in\n    tag_365:\n        /* \"#utility.yul\":7170:7240   */\n      swap8\n      pop\n        /* \"#utility.yul\":7263:7323   */\n      tag_366\n        /* \"#utility.yul\":7316:7322   */\n      dup4\n        /* \"#utility.yul\":7263:7323   */\n      tag_367\n      jump\t// in\n    tag_366:\n        /* \"#utility.yul\":7253:7323   */\n      swap3\n      pop\n        /* \"#utility.yul\":7109:7333   */\n      pop\n        /* \"#utility.yul\":7096:7097   */\n      0x01\n        /* \"#utility.yul\":7093:7094   */\n      dup2\n        /* \"#utility.yul\":7089:7098   */\n      add\n        /* \"#utility.yul\":7084:7098   */\n      swap1\n      pop\n        /* \"#utility.yul\":7049:7333   */\n      jump(tag_362)\n    tag_364:\n        /* \"#utility.yul\":7053:7067   */\n      pop\n        /* \"#utility.yul\":7349:7352   */\n      dup6\n        /* \"#utility.yul\":7342:7352   */\n      swap4\n      pop\n        /* \"#utility.yul\":6750:7358   */\n      pop\n      pop\n      pop\n        /* \"#utility.yul\":6626:7358   */\n      swap3\n      swap2\n      pop\n      pop\n      jump\t// out\n        /* \"#utility.yul\":7364:7473   */\n    tag_368:\n        /* \"#utility.yul\":7445:7466   */\n      tag_370\n        /* \"#utility.yul\":7460:7465   */\n      dup2\n        /* \"#utility.yul\":7445:7466   */\n      tag_371\n      jump\t// in\n    tag_370:\n        /* \"#utility.yul\":7440:7443   */\n      dup3\n        /* \"#utility.yul\":7433:7467   */\n      mstore\n        /* \"#utility.yul\":7364:7473   */\n      pop\n      pop\n      jump\t// out\n        /* \"#utility.yul\":7479:7587   */\n    tag_333:\n        /* \"#utility.yul\":7556:7580   */\n      tag_373\n        /* \"#utility.yul\":7574:7579   */\n      dup2\n        /* \"#utility.yul\":7556:7580   */\n      tag_374\n      jump\t// in\n    tag_373:\n        /* \"#utility.yul\":7551:7554   */\n      dup3\n        /* \"#utility.yul\":7544:7581   */\n      mstore\n        /* \"#utility.yul\":7479:7587   */\n      pop\n      pop\n      jump\t// out\n        /* \"#utility.yul\":7593:7966   */\n    tag_375:\n        /* \"#utility.yul\":7697:7700   */\n      0x00\n        /* \"#utility.yul\":7725:7763   */\n      tag_377\n        /* \"#utility.yul\":7757:7762   */\n      dup3\n        /* \"#utility.yul\":7725:7763   */\n      tag_378\n      jump\t// in\n    tag_377:\n        /* \"#utility.yul\":7779:7867   */\n      tag_379\n        /* \"#utility.yul\":7860:7866   */\n      dup2\n        /* \"#utility.yul\":7855:7858   */\n      dup6\n        /* \"#utility.yul\":7779:7867   */\n      tag_380\n      jump\t// in\n    tag_379:\n        /* \"#utility.yul\":7772:7867   */\n      swap4\n      pop\n        /* \"#utility.yul\":7876:7928   */\n      tag_381\n        /* \"#utility.yul\":7921:7927   */\n      dup2\n        /* \"#utility.yul\":7916:7919   */\n      dup6\n        /* \"#utility.yul\":7909:7913   */\n      0x20\n        /* \"#utility.yul\":7902:7907   */\n      dup7\n        /* \"#utility.yul\":7898:7914   */\n      add\n        /* \"#utility.yul\":7876:7928   */\n      tag_382\n      jump\t// in\n    tag_381:\n        /* \"#utility.yul\":7953:7959   */\n      dup1\n        /* \"#utility.yul\":7948:7951   */\n      dup5\n        /* \"#utility.yul\":7944:7960   */\n      add\n        /* \"#utility.yul\":7937:7960   */\n      swap2\n      pop\n        /* \"#utility.yul\":7701:7966   */\n      pop\n        /* \"#utility.yul\":7593:7966   */\n      swap3\n      swap2\n      pop\n      pop\n      jump\t// out\n        /* \"#utility.yul\":7972:8336   */\n    tag_383:\n        /* \"#utility.yul\":8060:8063   */\n      0x00\n        /* \"#utility.yul\":8088:8127   */\n      tag_385\n        /* \"#utility.yul\":8121:8126   */\n      dup3\n        /* \"#utility.yul\":8088:8127   */\n      tag_386\n      jump\t// in\n    tag_385:\n        /* \"#utility.yul\":8143:8214   */\n      tag_387\n        /* \"#utility.yul\":8207:8213   */\n      dup2\n        /* \"#utility.yul\":8202:8205   */\n      dup6\n        /* \"#utility.yul\":8143:8214   */\n      tag_388\n      jump\t// in\n    tag_387:\n        /* \"#utility.yul\":8136:8214   */\n      swap4\n      pop\n        /* \"#utility.yul\":8223:8275   */\n      tag_389\n        /* \"#utility.yul\":8268:8274   */\n      dup2\n        /* \"#utility.yul\":8263:8266   */\n      dup6\n        /* \"#utility.yul\":8256:8260   */\n      0x20\n        /* \"#utility.yul\":8249:8254   */\n      dup7\n        /* \"#utility.yul\":8245:8261   */\n      add\n        /* \"#utility.yul\":8223:8275   */\n      tag_382\n      jump\t// in\n    tag_389:\n        /* \"#utility.yul\":8300:8329   */\n      tag_390\n        /* \"#utility.yul\":8322:8328   */\n      dup2\n        /* \"#utility.yul\":8300:8329   */\n      tag_391\n      jump\t// in\n    tag_390:\n        /* \"#utility.yul\":8295:8298   */\n      dup5\n        /* \"#utility.yul\":8291:8330   */\n      add\n        /* \"#utility.yul\":8284:8330   */\n      swap2\n      pop\n        /* \"#utility.yul\":8064:8336   */\n      pop\n        /* \"#utility.yul\":7972:8336   */\n      swap3\n      swap2\n      pop\n      pop\n      jump\t// out\n        /* \"#utility.yul\":8342:8719   */\n    tag_392:\n        /* \"#utility.yul\":8448:8451   */\n      0x00\n        /* \"#utility.yul\":8476:8515   */\n      tag_394\n        /* \"#utility.yul\":8509:8514   */\n      dup3\n        /* \"#utility.yul\":8476:8515   */\n      tag_386\n      jump\t// in\n    tag_394:\n        /* \"#utility.yul\":8531:8620   */\n      tag_395\n        /* \"#utility.yul\":8613:8619   */\n      dup2\n        /* \"#utility.yul\":8608:8611   */\n      dup6\n        /* \"#utility.yul\":8531:8620   */\n      tag_396\n      jump\t// in\n    tag_395:\n        /* \"#utility.yul\":8524:8620   */\n      swap4\n      pop\n        /* \"#utility.yul\":8629:8681   */\n      tag_397\n        /* \"#utility.yul\":8674:8680   */\n      dup2\n        /* \"#utility.yul\":8669:8672   */\n      dup6\n        /* \"#utility.yul\":8662:8666   */\n      0x20\n        /* \"#utility.yul\":8655:8660   */\n      dup7\n        /* \"#utility.yul\":8651:8667   */\n      add\n        /* \"#utility.yul\":8629:8681   */\n      tag_382\n      jump\t// in\n    tag_397:\n        /* \"#utility.yul\":8706:8712   */\n      dup1\n        /* \"#utility.yul\":8701:8704   */\n      dup5\n        /* \"#utility.yul\":8697:8713   */\n      add\n        /* \"#utility.yul\":8690:8713   */\n      swap2\n      pop\n        /* \"#utility.yul\":8452:8719   */\n      pop\n        /* \"#utility.yul\":8342:8719   */\n      swap3\n      swap2\n      pop\n      pop\n      jump\t// out\n        /* \"#utility.yul\":8725:9127   */\n    tag_398:\n        /* \"#utility.yul\":8885:8888   */\n      0x00\n        /* \"#utility.yul\":8906:8991   */\n      tag_400\n        /* \"#utility.yul\":8988:8990   */\n      0x0f\n        /* \"#utility.yul\":8983:8986   */\n      dup4\n        /* \"#utility.yul\":8906:8991   */\n      tag_396\n      jump\t// in\n    tag_400:\n        /* \"#utility.yul\":8899:8991   */\n      swap2\n      pop\n        /* \"#utility.yul\":9000:9093   */\n      tag_401\n        /* \"#utility.yul\":9089:9092   */\n      dup3\n        /* \"#utility.yul\":9000:9093   */\n      tag_402\n      jump\t// in\n    tag_401:\n        /* \"#utility.yul\":9118:9120   */\n      0x0f\n        /* \"#utility.yul\":9113:9116   */\n      dup3\n        /* \"#utility.yul\":9109:9121   */\n      add\n        /* \"#utility.yul\":9102:9121   */\n      swap1\n      pop\n        /* \"#utility.yul\":8725:9127   */\n      swap2\n      swap1\n      pop\n      jump\t// out\n        /* \"#utility.yul\":9133:9499   */\n    tag_403:\n        /* \"#utility.yul\":9275:9278   */\n      0x00\n        /* \"#utility.yul\":9296:9363   */\n      tag_405\n        /* \"#utility.yul\":9360:9362   */\n      0x3e\n        /* \"#utility.yul\":9355:9358   */\n      dup4\n        /* \"#utility.yul\":9296:9363   */\n      tag_388\n      jump\t// in\n    tag_405:\n        /* \"#utility.yul\":9289:9363   */\n      swap2\n      pop\n        /* \"#utility.yul\":9372:9465   */\n      tag_406\n        /* \"#utility.yul\":9461:9464   */\n      dup3\n        /* \"#utility.yul\":9372:9465   */\n      tag_407\n      jump\t// in\n    tag_406:\n        /* \"#utility.yul\":9490:9492   */\n      0x40\n        /* \"#utility.yul\":9485:9488   */\n      dup3\n        /* \"#utility.yul\":9481:9493   */\n      add\n        /* \"#utility.yul\":9474:9493   */\n      swap1\n      pop\n        /* \"#utility.yul\":9133:9499   */\n      swap2\n      swap1\n      pop\n      jump\t// out\n        /* \"#utility.yul\":9505:9776   */\n    tag_147:\n        /* \"#utility.yul\":9635:9638   */\n      0x00\n        /* \"#utility.yul\":9657:9750   */\n      tag_409\n        /* \"#utility.yul\":9746:9749   */\n      dup3\n        /* \"#utility.yul\":9737:9743   */\n      dup5\n        /* \"#utility.yul\":9657:9750   */\n      tag_375\n      jump\t// in\n    tag_409:\n        /* \"#utility.yul\":9650:9750   */\n      swap2\n      pop\n        /* \"#utility.yul\":9767:9770   */\n      dup2\n        /* \"#utility.yul\":9760:9770   */\n      swap1\n      pop\n        /* \"#utility.yul\":9505:9776   */\n      swap3\n      swap2\n      pop\n      pop\n      jump\t// out\n        /* \"#utility.yul\":9782:10323   */\n    tag_231:\n        /* \"#utility.yul\":10015:10018   */\n      0x00\n        /* \"#utility.yul\":10037:10185   */\n      tag_411\n        /* \"#utility.yul\":10181:10184   */\n      dup3\n        /* \"#utility.yul\":10037:10185   */\n      tag_398\n      jump\t// in\n    tag_411:\n        /* \"#utility.yul\":10030:10185   */\n      swap2\n      pop\n        /* \"#utility.yul\":10202:10297   */\n      tag_412\n        /* \"#utility.yul\":10293:10296   */\n      dup3\n        /* \"#utility.yul\":10284:10290   */\n      dup5\n        /* \"#utility.yul\":10202:10297   */\n      tag_392\n      jump\t// in\n    tag_412:\n        /* \"#utility.yul\":10195:10297   */\n      swap2\n      pop\n        /* \"#utility.yul\":10314:10317   */\n      dup2\n        /* \"#utility.yul\":10307:10317   */\n      swap1\n      pop\n        /* \"#utility.yul\":9782:10323   */\n      swap3\n      swap2\n      pop\n      pop\n      jump\t// out\n        /* \"#utility.yul\":10329:10551   */\n    tag_32:\n        /* \"#utility.yul\":10422:10426   */\n      0x00\n        /* \"#utility.yul\":10460:10462   */\n      0x20\n        /* \"#utility.yul\":10449:10458   */\n      dup3\n        /* \"#utility.yul\":10445:10463   */\n      add\n        /* \"#utility.yul\":10437:10463   */\n      swap1\n      pop\n        /* \"#utility.yul\":10473:10544   */\n      tag_414\n        /* \"#utility.yul\":10541:10542   */\n      0x00\n        /* \"#utility.yul\":10530:10539   */\n      dup4\n        /* \"#utility.yul\":10526:10543   */\n      add\n        /* \"#utility.yul\":10517:10523   */\n      dup5\n        /* \"#utility.yul\":10473:10544   */\n      tag_337\n      jump\t// in\n    tag_414:\n        /* \"#utility.yul\":10329:10551   */\n      swap3\n      swap2\n      pop\n      pop\n      jump\t// out\n        /* \"#utility.yul\":10557:10930   */\n    tag_28:\n        /* \"#utility.yul\":10700:10704   */\n      0x00\n        /* \"#utility.yul\":10738:10740   */\n      0x20\n        /* \"#utility.yul\":10727:10736   */\n      dup3\n        /* \"#utility.yul\":10723:10741   */\n      add\n        /* \"#utility.yul\":10715:10741   */\n      swap1\n      pop\n        /* \"#utility.yul\":10787:10796   */\n      dup2\n        /* \"#utility.yul\":10781:10785   */\n      dup2\n        /* \"#utility.yul\":10777:10797   */\n      sub\n        /* \"#utility.yul\":10773:10774   */\n      0x00\n        /* \"#utility.yul\":10762:10771   */\n      dup4\n        /* \"#utility.yul\":10758:10775   */\n      add\n        /* \"#utility.yul\":10751:10798   */\n      mstore\n        /* \"#utility.yul\":10815:10923   */\n      tag_416\n        /* \"#utility.yul\":10918:10922   */\n      dup2\n        /* \"#utility.yul\":10909:10915   */\n      dup5\n        /* \"#utility.yul\":10815:10923   */\n      tag_340\n      jump\t// in\n    tag_416:\n        /* \"#utility.yul\":10807:10923   */\n      swap1\n      pop\n        /* \"#utility.yul\":10557:10930   */\n      swap3\n      swap2\n      pop\n      pop\n      jump\t// out\n        /* \"#utility.yul\":10936:11309   */\n    tag_40:\n        /* \"#utility.yul\":11079:11083   */\n      0x00\n        /* \"#utility.yul\":11117:11119   */\n      0x20\n        /* \"#utility.yul\":11106:11115   */\n      dup3\n        /* \"#utility.yul\":11102:11120   */\n      add\n        /* \"#utility.yul\":11094:11120   */\n      swap1\n      pop\n        /* \"#utility.yul\":11166:11175   */\n      dup2\n        /* \"#utility.yul\":11160:11164   */\n      dup2\n        /* \"#utility.yul\":11156:11176   */\n      sub\n        /* \"#utility.yul\":11152:11153   */\n      0x00\n        /* \"#utility.yul\":11141:11150   */\n      dup4\n        /* \"#utility.yul\":11137:11154   */\n      add\n        /* \"#utility.yul\":11130:11177   */\n      mstore\n        /* \"#utility.yul\":11194:11302   */\n      tag_418\n        /* \"#utility.yul\":11297:11301   */\n      dup2\n        /* \"#utility.yul\":11288:11294   */\n      dup5\n        /* \"#utility.yul\":11194:11302   */\n      tag_354\n      jump\t// in\n    tag_418:\n        /* \"#utility.yul\":11186:11302   */\n      swap1\n      pop\n        /* \"#utility.yul\":10936:11309   */\n      swap3\n      swap2\n      pop\n      pop\n      jump\t// out\n        /* \"#utility.yul\":11315:11525   */\n    tag_46:\n        /* \"#utility.yul\":11402:11406   */\n      0x00\n        /* \"#utility.yul\":11440:11442   */\n      0x20\n        /* \"#utility.yul\":11429:11438   */\n      dup3\n        /* \"#utility.yul\":11425:11443   */\n      add\n        /* \"#utility.yul\":11417:11443   */\n      swap1\n      pop\n        /* \"#utility.yul\":11453:11518   */\n      tag_420\n        /* \"#utility.yul\":11515:11516   */\n      0x00\n        /* \"#utility.yul\":11504:11513   */\n      dup4\n        /* \"#utility.yul\":11500:11517   */\n      add\n        /* \"#utility.yul\":11491:11497   */\n      dup5\n        /* \"#utility.yul\":11453:11518   */\n      tag_368\n      jump\t// in\n    tag_420:\n        /* \"#utility.yul\":11315:11525   */\n      swap3\n      swap2\n      pop\n      pop\n      jump\t// out\n        /* \"#utility.yul\":11531:11844   */\n    tag_233:\n        /* \"#utility.yul\":11644:11648   */\n      0x00\n        /* \"#utility.yul\":11682:11684   */\n      0x20\n        /* \"#utility.yul\":11671:11680   */\n      dup3\n        /* \"#utility.yul\":11667:11685   */\n      add\n        /* \"#utility.yul\":11659:11685   */\n      swap1\n      pop\n        /* \"#utility.yul\":11731:11740   */\n      dup2\n        /* \"#utility.yul\":11725:11729   */\n      dup2\n        /* \"#utility.yul\":11721:11741   */\n      sub\n        /* \"#utility.yul\":11717:11718   */\n      0x00\n        /* \"#utility.yul\":11706:11715   */\n      dup4\n        /* \"#utility.yul\":11702:11719   */\n      add\n        /* \"#utility.yul\":11695:11742   */\n      mstore\n        /* \"#utility.yul\":11759:11837   */\n      tag_422\n        /* \"#utility.yul\":11832:11836   */\n      dup2\n        /* \"#utility.yul\":11823:11829   */\n      dup5\n        /* \"#utility.yul\":11759:11837   */\n      tag_383\n      jump\t// in\n    tag_422:\n        /* \"#utility.yul\":11751:11837   */\n      swap1\n      pop\n        /* \"#utility.yul\":11531:11844   */\n      swap3\n      swap2\n      pop\n      pop\n      jump\t// out\n        /* \"#utility.yul\":11850:12269   */\n    tag_66:\n        /* \"#utility.yul\":12016:12020   */\n      0x00\n        /* \"#utility.yul\":12054:12056   */\n      0x20\n        /* \"#utility.yul\":12043:12052   */\n      dup3\n        /* \"#utility.yul\":12039:12057   */\n      add\n        /* \"#utility.yul\":12031:12057   */\n      swap1\n      pop\n        /* \"#utility.yul\":12103:12112   */\n      dup2\n        /* \"#utility.yul\":12097:12101   */\n      dup2\n        /* \"#utility.yul\":12093:12113   */\n      sub\n        /* \"#utility.yul\":12089:12090   */\n      0x00\n        /* \"#utility.yul\":12078:12087   */\n      dup4\n        /* \"#utility.yul\":12074:12091   */\n      add\n        /* \"#utility.yul\":12067:12114   */\n      mstore\n        /* \"#utility.yul\":12131:12262   */\n      tag_424\n        /* \"#utility.yul\":12257:12261   */\n      dup2\n        /* \"#utility.yul\":12131:12262   */\n      tag_403\n      jump\t// in\n    tag_424:\n        /* \"#utility.yul\":12123:12262   */\n      swap1\n      pop\n        /* \"#utility.yul\":11850:12269   */\n      swap2\n      swap1\n      pop\n      jump\t// out\n        /* \"#utility.yul\":12275:12404   */\n    tag_256:\n        /* \"#utility.yul\":12309:12315   */\n      0x00\n        /* \"#utility.yul\":12336:12356   */\n      tag_426\n      tag_427\n      jump\t// in\n    tag_426:\n        /* \"#utility.yul\":12326:12356   */\n      swap1\n      pop\n        /* \"#utility.yul\":12365:12398   */\n      tag_428\n        /* \"#utility.yul\":12393:12397   */\n      dup3\n        /* \"#utility.yul\":12385:12391   */\n      dup3\n        /* \"#utility.yul\":12365:12398   */\n      tag_429\n      jump\t// in\n    tag_428:\n        /* \"#utility.yul\":12275:12404   */\n      swap2\n      swap1\n      pop\n      jump\t// out\n        /* \"#utility.yul\":12410:12485   */\n    tag_427:\n        /* \"#utility.yul\":12443:12449   */\n      0x00\n        /* \"#utility.yul\":12476:12478   */\n      0x40\n        /* \"#utility.yul\":12470:12479   */\n      mload\n        /* \"#utility.yul\":12460:12479   */\n      swap1\n      pop\n        /* \"#utility.yul\":12410:12485   */\n      swap1\n      jump\t// out\n        /* \"#utility.yul\":12491:12798   */\n    tag_255:\n        /* \"#utility.yul\":12552:12556   */\n      0x00\n        /* \"#utility.yul\":12642:12660   */\n      0xffffffffffffffff\n        /* \"#utility.yul\":12634:12640   */\n      dup3\n        /* \"#utility.yul\":12631:12661   */\n      gt\n        /* \"#utility.yul\":12628:12684   */\n      iszero\n      tag_432\n      jumpi\n        /* \"#utility.yul\":12664:12682   */\n      tag_433\n      tag_434\n      jump\t// in\n    tag_433:\n        /* \"#utility.yul\":12628:12684   */\n    tag_432:\n        /* \"#utility.yul\":12702:12731   */\n      tag_435\n        /* \"#utility.yul\":12724:12730   */\n      dup3\n        /* \"#utility.yul\":12702:12731   */\n      tag_391\n      jump\t// in\n    tag_435:\n        /* \"#utility.yul\":12694:12731   */\n      swap1\n      pop\n        /* \"#utility.yul\":12786:12790   */\n      0x20\n        /* \"#utility.yul\":12780:12784   */\n      dup2\n        /* \"#utility.yul\":12776:12791   */\n      add\n        /* \"#utility.yul\":12768:12791   */\n      swap1\n      pop\n        /* \"#utility.yul\":12491:12798   */\n      swap2\n      swap1\n      pop\n      jump\t// out\n        /* \"#utility.yul\":12804:13112   */\n    tag_266:\n        /* \"#utility.yul\":12866:12870   */\n      0x00\n        /* \"#utility.yul\":12956:12974   */\n      0xffffffffffffffff\n        /* \"#utility.yul\":12948:12954   */\n      dup3\n        /* \"#utility.yul\":12945:12975   */\n      gt\n        /* \"#utility.yul\":12942:12998   */\n      iszero\n      tag_437\n      jumpi\n        /* \"#utility.yul\":12978:12996   */\n      tag_438\n      tag_434\n      jump\t// in\n    tag_438:\n        /* \"#utility.yul\":12942:12998   */\n    tag_437:\n        /* \"#utility.yul\":13016:13045   */\n      tag_439\n        /* \"#utility.yul\":13038:13044   */\n      dup3\n        /* \"#utility.yul\":13016:13045   */\n      tag_391\n      jump\t// in\n    tag_439:\n        /* \"#utility.yul\":13008:13045   */\n      swap1\n      pop\n        /* \"#utility.yul\":13100:13104   */\n      0x20\n        /* \"#utility.yul\":13094:13098   */\n      dup2\n        /* \"#utility.yul\":13090:13105   */\n      add\n        /* \"#utility.yul\":13082:13105   */\n      swap1\n      pop\n        /* \"#utility.yul\":12804:13112   */\n      swap2\n      swap1\n      pop\n      jump\t// out\n        /* \"#utility.yul\":13118:13250   */\n    tag_347:\n        /* \"#utility.yul\":13185:13189   */\n      0x00\n        /* \"#utility.yul\":13208:13211   */\n      dup2\n        /* \"#utility.yul\":13200:13211   */\n      swap1\n      pop\n        /* \"#utility.yul\":13238:13242   */\n      0x20\n        /* \"#utility.yul\":13233:13236   */\n      dup3\n        /* \"#utility.yul\":13229:13243   */\n      add\n        /* \"#utility.yul\":13221:13243   */\n      swap1\n      pop\n        /* \"#utility.yul\":13118:13250   */\n      swap2\n      swap1\n      pop\n      jump\t// out\n        /* \"#utility.yul\":13256:13388   */\n    tag_361:\n        /* \"#utility.yul\":13323:13327   */\n      0x00\n        /* \"#utility.yul\":13346:13349   */\n      dup2\n        /* \"#utility.yul\":13338:13349   */\n      swap1\n      pop\n        /* \"#utility.yul\":13376:13380   */\n      0x20\n        /* \"#utility.yul\":13371:13374   */\n      dup3\n        /* \"#utility.yul\":13367:13381   */\n      add\n        /* \"#utility.yul\":13359:13381   */\n      swap1\n      pop\n        /* \"#utility.yul\":13256:13388   */\n      swap2\n      swap1\n      pop\n      jump\t// out\n        /* \"#utility.yul\":13394:13508   */\n    tag_343:\n        /* \"#utility.yul\":13461:13467   */\n      0x00\n        /* \"#utility.yul\":13495:13500   */\n      dup2\n        /* \"#utility.yul\":13489:13501   */\n      mload\n        /* \"#utility.yul\":13479:13501   */\n      swap1\n      pop\n        /* \"#utility.yul\":13394:13508   */\n      swap2\n      swap1\n      pop\n      jump\t// out\n        /* \"#utility.yul\":13514:13628   */\n    tag_357:\n        /* \"#utility.yul\":13581:13587   */\n      0x00\n        /* \"#utility.yul\":13615:13620   */\n      dup2\n        /* \"#utility.yul\":13609:13621   */\n      mload\n        /* \"#utility.yul\":13599:13621   */\n      swap1\n      pop\n        /* \"#utility.yul\":13514:13628   */\n      swap2\n      swap1\n      pop\n      jump\t// out\n        /* \"#utility.yul\":13634:13732   */\n    tag_378:\n        /* \"#utility.yul\":13685:13691   */\n      0x00\n        /* \"#utility.yul\":13719:13724   */\n      dup2\n        /* \"#utility.yul\":13713:13725   */\n      mload\n        /* \"#utility.yul\":13703:13725   */\n      swap1\n      pop\n        /* \"#utility.yul\":13634:13732   */\n      swap2\n      swap1\n      pop\n      jump\t// out\n        /* \"#utility.yul\":13738:13837   */\n    tag_386:\n        /* \"#utility.yul\":13790:13796   */\n      0x00\n        /* \"#utility.yul\":13824:13829   */\n      dup2\n        /* \"#utility.yul\":13818:13830   */\n      mload\n        /* \"#utility.yul\":13808:13830   */\n      swap1\n      pop\n        /* \"#utility.yul\":13738:13837   */\n      swap2\n      swap1\n      pop\n      jump\t// out\n        /* \"#utility.yul\":13843:13956   */\n    tag_353:\n        /* \"#utility.yul\":13913:13917   */\n      0x00\n        /* \"#utility.yul\":13945:13949   */\n      0x20\n        /* \"#utility.yul\":13940:13943   */\n      dup3\n        /* \"#utility.yul\":13936:13950   */\n      add\n        /* \"#utility.yul\":13928:13950   */\n      swap1\n      pop\n        /* \"#utility.yul\":13843:13956   */\n      swap2\n      swap1\n      pop\n      jump\t// out\n        /* \"#utility.yul\":13962:14075   */\n    tag_367:\n        /* \"#utility.yul\":14032:14036   */\n      0x00\n        /* \"#utility.yul\":14064:14068   */\n      0x20\n        /* \"#utility.yul\":14059:14062   */\n      dup3\n        /* \"#utility.yul\":14055:14069   */\n      add\n        /* \"#utility.yul\":14047:14069   */\n      swap1\n      pop\n        /* \"#utility.yul\":13962:14075   */\n      swap2\n      swap1\n      pop\n      jump\t// out\n        /* \"#utility.yul\":14081:14265   */\n    tag_345:\n        /* \"#utility.yul\":14180:14191   */\n      0x00\n        /* \"#utility.yul\":14214:14220   */\n      dup3\n        /* \"#utility.yul\":14209:14212   */\n      dup3\n        /* \"#utility.yul\":14202:14221   */\n      mstore\n        /* \"#utility.yul\":14254:14258   */\n      0x20\n        /* \"#utility.yul\":14249:14252   */\n      dup3\n        /* \"#utility.yul\":14245:14259   */\n      add\n        /* \"#utility.yul\":14230:14259   */\n      swap1\n      pop\n        /* \"#utility.yul\":14081:14265   */\n      swap3\n      swap2\n      pop\n      pop\n      jump\t// out\n        /* \"#utility.yul\":14271:14455   */\n    tag_359:\n        /* \"#utility.yul\":14370:14381   */\n      0x00\n        /* \"#utility.yul\":14404:14410   */\n      dup3\n        /* \"#utility.yul\":14399:14402   */\n      dup3\n        /* \"#utility.yul\":14392:14411   */\n      mstore\n        /* \"#utility.yul\":14444:14448   */\n      0x20\n        /* \"#utility.yul\":14439:14442   */\n      dup3\n        /* \"#utility.yul\":14435:14449   */\n      add\n        /* \"#utility.yul\":14420:14449   */\n      swap1\n      pop\n        /* \"#utility.yul\":14271:14455   */\n      swap3\n      swap2\n      pop\n      pop\n      jump\t// out\n        /* \"#utility.yul\":14461:14608   */\n    tag_380:\n        /* \"#utility.yul\":14562:14573   */\n      0x00\n        /* \"#utility.yul\":14599:14602   */\n      dup2\n        /* \"#utility.yul\":14584:14602   */\n      swap1\n      pop\n        /* \"#utility.yul\":14461:14608   */\n      swap3\n      swap2\n      pop\n      pop\n      jump\t// out\n        /* \"#utility.yul\":14614:14783   */\n    tag_388:\n        /* \"#utility.yul\":14698:14709   */\n      0x00\n        /* \"#utility.yul\":14732:14738   */\n      dup3\n        /* \"#utility.yul\":14727:14730   */\n      dup3\n        /* \"#utility.yul\":14720:14739   */\n      mstore\n        /* \"#utility.yul\":14772:14776   */\n      0x20\n        /* \"#utility.yul\":14767:14770   */\n      dup3\n        /* \"#utility.yul\":14763:14777   */\n      add\n        /* \"#utility.yul\":14748:14777   */\n      swap1\n      pop\n        /* \"#utility.yul\":14614:14783   */\n      swap3\n      swap2\n      pop\n      pop\n      jump\t// out\n        /* \"#utility.yul\":14789:14937   */\n    tag_396:\n        /* \"#utility.yul\":14891:14902   */\n      0x00\n        /* \"#utility.yul\":14928:14931   */\n      dup2\n        /* \"#utility.yul\":14913:14931   */\n      swap1\n      pop\n        /* \"#utility.yul\":14789:14937   */\n      swap3\n      swap2\n      pop\n      pop\n      jump\t// out\n        /* \"#utility.yul\":14943:15039   */\n    tag_336:\n        /* \"#utility.yul\":14980:14987   */\n      0x00\n        /* \"#utility.yul\":15009:15033   */\n      tag_454\n        /* \"#utility.yul\":15027:15032   */\n      dup3\n        /* \"#utility.yul\":15009:15033   */\n      tag_455\n      jump\t// in\n    tag_454:\n        /* \"#utility.yul\":14998:15033   */\n      swap1\n      pop\n        /* \"#utility.yul\":14943:15039   */\n      swap2\n      swap1\n      pop\n      jump\t// out\n        /* \"#utility.yul\":15045:15135   */\n    tag_371:\n        /* \"#utility.yul\":15079:15086   */\n      0x00\n        /* \"#utility.yul\":15122:15127   */\n      dup2\n        /* \"#utility.yul\":15115:15128   */\n      iszero\n        /* \"#utility.yul\":15108:15129   */\n      iszero\n        /* \"#utility.yul\":15097:15129   */\n      swap1\n      pop\n        /* \"#utility.yul\":15045:15135   */\n      swap2\n      swap1\n      pop\n      jump\t// out\n        /* \"#utility.yul\":15141:15218   */\n    tag_374:\n        /* \"#utility.yul\":15178:15185   */\n      0x00\n        /* \"#utility.yul\":15207:15212   */\n      dup2\n        /* \"#utility.yul\":15196:15212   */\n      swap1\n      pop\n        /* \"#utility.yul\":15141:15218   */\n      swap2\n      swap1\n      pop\n      jump\t// out\n        /* \"#utility.yul\":15224:15350   */\n    tag_455:\n        /* \"#utility.yul\":15261:15268   */\n      0x00\n        /* \"#utility.yul\":15301:15343   */\n      0xffffffffffffffffffffffffffffffffffffffff\n        /* \"#utility.yul\":15294:15299   */\n      dup3\n        /* \"#utility.yul\":15290:15344   */\n      and\n        /* \"#utility.yul\":15279:15344   */\n      swap1\n      pop\n        /* \"#utility.yul\":15224:15350   */\n      swap2\n      swap1\n      pop\n      jump\t// out\n        /* \"#utility.yul\":15356:15433   */\n    tag_459:\n        /* \"#utility.yul\":15393:15400   */\n      0x00\n        /* \"#utility.yul\":15422:15427   */\n      dup2\n        /* \"#utility.yul\":15411:15427   */\n      swap1\n      pop\n        /* \"#utility.yul\":15356:15433   */\n      swap2\n      swap1\n      pop\n      jump\t// out\n        /* \"#utility.yul\":15439:15593   */\n    tag_261:\n        /* \"#utility.yul\":15523:15529   */\n      dup3\n        /* \"#utility.yul\":15518:15521   */\n      dup2\n        /* \"#utility.yul\":15513:15516   */\n      dup4\n        /* \"#utility.yul\":15500:15530   */\n      calldatacopy\n        /* \"#utility.yul\":15585:15586   */\n      0x00\n        /* \"#utility.yul\":15576:15582   */\n      dup4\n        /* \"#utility.yul\":15571:15574   */\n      dup4\n        /* \"#utility.yul\":15567:15583   */\n      add\n        /* \"#utility.yul\":15560:15587   */\n      mstore\n        /* \"#utility.yul\":15439:15593   */\n      pop\n      pop\n      pop\n      jump\t// out\n        /* \"#utility.yul\":15599:15906   */\n    tag_382:\n        /* \"#utility.yul\":15667:15668   */\n      0x00\n        /* \"#utility.yul\":15677:15790   */\n    tag_463:\n        /* \"#utility.yul\":15691:15697   */\n      dup4\n        /* \"#utility.yul\":15688:15689   */\n      dup2\n        /* \"#utility.yul\":15685:15698   */\n      lt\n        /* \"#utility.yul\":15677:15790   */\n      iszero\n      tag_465\n      jumpi\n        /* \"#utility.yul\":15776:15777   */\n      dup1\n        /* \"#utility.yul\":15771:15774   */\n      dup3\n        /* \"#utility.yul\":15767:15778   */\n      add\n        /* \"#utility.yul\":15761:15779   */\n      mload\n        /* \"#utility.yul\":15757:15758   */\n      dup2\n        /* \"#utility.yul\":15752:15755   */\n      dup5\n        /* \"#utility.yul\":15748:15759   */\n      add\n        /* \"#utility.yul\":15741:15780   */\n      mstore\n        /* \"#utility.yul\":15713:15715   */\n      0x20\n        /* \"#utility.yul\":15710:15711   */\n      dup2\n        /* \"#utility.yul\":15706:15716   */\n      add\n        /* \"#utility.yul\":15701:15716   */\n      swap1\n      pop\n        /* \"#utility.yul\":15677:15790   */\n      jump(tag_463)\n    tag_465:\n        /* \"#utility.yul\":15808:15814   */\n      dup4\n        /* \"#utility.yul\":15805:15806   */\n      dup2\n        /* \"#utility.yul\":15802:15815   */\n      gt\n        /* \"#utility.yul\":15799:15900   */\n      iszero\n      tag_466\n      jumpi\n        /* \"#utility.yul\":15888:15889   */\n      0x00\n        /* \"#utility.yul\":15879:15885   */\n      dup5\n        /* \"#utility.yul\":15874:15877   */\n      dup5\n        /* \"#utility.yul\":15870:15886   */\n      add\n        /* \"#utility.yul\":15863:15890   */\n      mstore\n        /* \"#utility.yul\":15799:15900   */\n    tag_466:\n        /* \"#utility.yul\":15648:15906   */\n      pop\n        /* \"#utility.yul\":15599:15906   */\n      pop\n      pop\n      pop\n      jump\t// out\n        /* \"#utility.yul\":15912:16193   */\n    tag_429:\n        /* \"#utility.yul\":15995:16022   */\n      tag_468\n        /* \"#utility.yul\":16017:16021   */\n      dup3\n        /* \"#utility.yul\":15995:16022   */\n      tag_391\n      jump\t// in\n    tag_468:\n        /* \"#utility.yul\":15987:15993   */\n      dup2\n        /* \"#utility.yul\":15983:16023   */\n      add\n        /* \"#utility.yul\":16125:16131   */\n      dup2\n        /* \"#utility.yul\":16113:16123   */\n      dup2\n        /* \"#utility.yul\":16110:16132   */\n      lt\n        /* \"#utility.yul\":16089:16107   */\n      0xffffffffffffffff\n        /* \"#utility.yul\":16077:16087   */\n      dup3\n        /* \"#utility.yul\":16074:16108   */\n      gt\n        /* \"#utility.yul\":16071:16133   */\n      or\n        /* \"#utility.yul\":16068:16156   */\n      iszero\n      tag_469\n      jumpi\n        /* \"#utility.yul\":16136:16154   */\n      tag_470\n      tag_434\n      jump\t// in\n    tag_470:\n        /* \"#utility.yul\":16068:16156   */\n    tag_469:\n        /* \"#utility.yul\":16176:16186   */\n      dup1\n        /* \"#utility.yul\":16172:16174   */\n      0x40\n        /* \"#utility.yul\":16165:16187   */\n      mstore\n        /* \"#utility.yul\":15955:16193   */\n      pop\n        /* \"#utility.yul\":15912:16193   */\n      pop\n      pop\n      jump\t// out\n        /* \"#utility.yul\":16199:16432   */\n    tag_161:\n        /* \"#utility.yul\":16238:16241   */\n      0x00\n        /* \"#utility.yul\":16261:16285   */\n      tag_472\n        /* \"#utility.yul\":16279:16284   */\n      dup3\n        /* \"#utility.yul\":16261:16285   */\n      tag_459\n      jump\t// in\n    tag_472:\n        /* \"#utility.yul\":16252:16285   */\n      swap2\n      pop\n        /* \"#utility.yul\":16307:16373   */\n      0xffffffffffffffffffffffffffffffffffffffffffffffffffffffffffffffff\n        /* \"#utility.yul\":16300:16305   */\n      dup3\n        /* \"#utility.yul\":16297:16374   */\n      eq\n        /* \"#utility.yul\":16294:16397   */\n      iszero\n      tag_473\n      jumpi\n        /* \"#utility.yul\":16377:16395   */\n      tag_474\n      tag_475\n      jump\t// in\n    tag_474:\n        /* \"#utility.yul\":16294:16397   */\n    tag_473:\n        /* \"#utility.yul\":16424:16425   */\n      0x01\n        /* \"#utility.yul\":16417:16422   */\n      dup3\n        /* \"#utility.yul\":16413:16426   */\n      add\n        /* \"#utility.yul\":16406:16426   */\n      swap1\n      pop\n        /* \"#utility.yul\":16199:16432   */\n      swap2\n      swap1\n      pop\n      jump\t// out\n        /* \"#utility.yul\":16438:16618   */\n    tag_475:\n        /* \"#utility.yul\":16486:16563   */\n      0x4e487b7100000000000000000000000000000000000000000000000000000000\n        /* \"#utility.yul\":16483:16484   */\n      0x00\n        /* \"#utility.yul\":16476:16564   */\n      mstore\n        /* \"#utility.yul\":16583:16587   */\n      0x11\n        /* \"#utility.yul\":16580:16581   */\n      0x04\n        /* \"#utility.yul\":16573:16588   */\n      mstore\n        /* \"#utility.yul\":16607:16611   */\n      0x24\n        /* \"#utility.yul\":16604:16605   */\n      0x00\n        /* \"#utility.yul\":16597:16612   */\n      revert\n        /* \"#utility.yul\":16624:16804   */\n    tag_171:\n        /* \"#utility.yul\":16672:16749   */\n      0x4e487b7100000000000000000000000000000000000000000000000000000000\n        /* \"#utility.yul\":16669:16670   */\n      0x00\n        /* \"#utility.yul\":16662:16750   */\n      mstore\n        /* \"#utility.yul\":16769:16773   */\n      0x32\n        /* \"#utility.yul\":16766:16767   */\n      0x04\n        /* \"#utility.yul\":16759:16774   */\n      mstore\n        /* \"#utility.yul\":16793:16797   */\n      0x24\n        /* \"#utility.yul\":16790:16791   */\n      0x00\n        /* \"#utility.yul\":16783:16798   */\n      revert\n        /* \"#utility.yul\":16810:16990   */\n    tag_434:\n        /* \"#utility.yul\":16858:16935   */\n      0x4e487b7100000000000000000000000000000000000000000000000000000000\n        /* \"#utility.yul\":16855:16856   */\n      0x00\n        /* \"#utility.yul\":16848:16936   */\n      mstore\n        /* \"#utility.yul\":16955:16959   */\n      0x41\n        /* \"#utility.yul\":16952:16953   */\n      0x04\n        /* \"#utility.yul\":16945:16960   */\n      mstore\n        /* \"#utility.yul\":16979:16983   */\n      0x24\n        /* \"#utility.yul\":16976:16977   */\n      0x00\n        /* \"#utility.yul\":16969:16984   */\n      revert\n        /* \"#utility.yul\":16996:17113   */\n    tag_278:\n        /* \"#utility.yul\":17105:17106   */\n      0x00\n        /* \"#utility.yul\":17102:17103   */\n      dup1\n        /* \"#utility.yul\":17095:17107   */\n      revert\n        /* \"#utility.yul\":17119:17236   */\n    tag_259:\n        /* \"#utility.yul\":17228:17229   */\n      0x00\n        /* \"#utility.yul\":17225:17226   */\n      dup1\n        /* \"#utility.yul\":17218:17230   */\n      revert\n        /* \"#utility.yul\":17242:17359   */\n    tag_295:\n        /* \"#utility.yul\":17351:17352   */\n      0x00\n        /* \"#utility.yul\":17348:17349   */\n      dup1\n        /* \"#utility.yul\":17341:17353   */\n      revert\n        /* \"#utility.yul\":17365:17482   */\n    tag_288:\n        /* \"#utility.yul\":17474:17475   */\n      0x00\n        /* \"#utility.yul\":17471:17472   */\n      dup1\n        /* \"#utility.yul\":17464:17476   */\n      revert\n        /* \"#utility.yul\":17488:17590   */\n    tag_391:\n        /* \"#utility.yul\":17529:17535   */\n      0x00\n        /* \"#utility.yul\":17580:17582   */\n      0x1f\n        /* \"#utility.yul\":17576:17583   */\n      not\n        /* \"#utility.yul\":17571:17573   */\n      0x1f\n        /* \"#utility.yul\":17564:17569   */\n      dup4\n        /* \"#utility.yul\":17560:17574   */\n      add\n        /* \"#utility.yul\":17556:17584   */\n      and\n        /* \"#utility.yul\":17546:17584   */\n      swap1\n      pop\n        /* \"#utility.yul\":17488:17590   */\n      swap2\n      swap1\n      pop\n      jump\t// out\n        /* \"#utility.yul\":17596:17761   */\n    tag_402:\n        /* \"#utility.yul\":17736:17753   */\n      0x416363657373436f6e74726f6c3a200000000000000000000000000000000000\n        /* \"#utility.yul\":17732:17733   */\n      0x00\n        /* \"#utility.yul\":17724:17730   */\n      dup3\n        /* \"#utility.yul\":17720:17734   */\n      add\n        /* \"#utility.yul\":17713:17754   */\n      mstore\n        /* \"#utility.yul\":17596:17761   */\n      pop\n      jump\t// out\n        /* \"#utility.yul\":17767:18016   */\n    tag_407:\n        /* \"#utility.yul\":17907:17941   */\n      0x416363657373436f6e74726f6c3a20596f752068617665206e6f207065726d69\n        /* \"#utility.yul\":17903:17904   */\n      0x00\n        /* \"#utility.yul\":17895:17901   */\n      dup3\n        /* \"#utility.yul\":17891:17905   */\n      add\n        /* \"#utility.yul\":17884:17942   */\n      mstore\n        /* \"#utility.yul\":17976:18008   */\n      0x7373696f6e20746f2061636365737320746869732066756e6374696f6e2e0000\n        /* \"#utility.yul\":17971:17973   */\n      0x20\n        /* \"#utility.yul\":17963:17969   */\n      dup3\n        /* \"#utility.yul\":17959:17974   */\n      add\n        /* \"#utility.yul\":17952:18009   */\n      mstore\n        /* \"#utility.yul\":17767:18016   */\n      pop\n      jump\t// out\n        /* \"#utility.yul\":18022:18144   */\n    tag_273:\n        /* \"#utility.yul\":18095:18119   */\n      tag_487\n        /* \"#utility.yul\":18113:18118   */\n      dup2\n        /* \"#utility.yul\":18095:18119   */\n      tag_336\n      jump\t// in\n    tag_487:\n        /* \"#utility.yul\":18088:18093   */\n      dup2\n        /* \"#utility.yul\":18085:18120   */\n      eq\n        /* \"#utility.yul\":18075:18138   */\n      tag_488\n      jumpi\n        /* \"#utility.yul\":18134:18135   */\n      0x00\n        /* \"#utility.yul\":18131:18132   */\n      dup1\n        /* \"#utility.yul\":18124:18136   */\n      revert\n        /* \"#utility.yul\":18075:18138   */\n    tag_488:\n        /* \"#utility.yul\":18022:18144   */\n      pop\n      jump\t// out\n    stop\n    data_601972b90d37b25432db4389d8031f8daa2518ef8d99fbf07fd5717b0953de49 546865207065726d697373696f6e206973206e6f742076616c6964206f7220746865206163636f756e74206973206e6f7420696e20746865207065726d697373696f6e2e\n\n    auxdata: 0xa26469706673582212200e525da8b119f1beda252c5859f5550caa64f623e9039915fcf7cedde3141c5064736f6c63430008070033\n}\n",
				"bytecode": {
					"linkReferences": {},
					"object": "608060405234801561001057600080fd5b5061001f61002460201b60201c565b6101ff565b60016000807fdf8b4c520ffe197c5343c6f5aec59570151ef9a492f2c624fd45ddde6135ec42815260200190815260200160002060030160006101000a81548160ff02191690831515021790555060016000807fdf8b4c520ffe197c5343c6f5aec59570151ef9a492f2c624fd45ddde6135ec42815260200190815260200160002060000160003373ffffffffffffffffffffffffffffffffffffffff1673ffffffffffffffffffffffffffffffffffffffff16815260200190815260200160002060006101000a81548160ff021916908315150217905550336000807fdf8b4c520ffe197c5343c6f5aec59570151ef9a492f2c624fd45ddde6135ec428152602001908152602001600020600101600080815260200190815260200160002060006101000a81548173ffffffffffffffffffffffffffffffffffffffff021916908373ffffffffffffffffffffffffffffffffffffffff16021790555060016000807fdf8b4c520ffe197c5343c6f5aec59570151ef9a492f2c624fd45ddde6135ec4281526020019081526020016000206002018190555060016002819055507fdf8b4c520ffe197c5343c6f5aec59570151ef9a492f2c624fd45ddde6135ec426001600080815260200190815260200160002081905550565b6126968061020e6000396000f3fe608060405234801561001057600080fd5b50600436106100a95760003560e01c806380891cb21161007157806380891cb214610150578063a076a09e14610180578063a10f9524146101b0578063aae7c78a146101cc578063c7dc6220146101e8578063c98d6f1e14610204576100a9565b8063342da059146100ae5780634c1b64cb146100ca57806356353d82146100e65780637058dd241461011657806375829def14610134575b600080fd5b6100c860048036038101906100c39190611dd7565b610220565b005b6100e460048036038101906100df9190611daa565b610297565b005b61010060048036038101906100fb9190611ef4565b61030e565b60405161010d91906121f6565b60405180910390f35b61011e61038b565b60405161012b91906121db565b60405180910390f35b61014e60048036038101906101499190611daa565b610405565b005b61016a60048036038101906101659190611daa565b61047c565b6040516101779190612218565b60405180910390f35b61019a60048036038101906101959190611f3d565b6104f9565b6040516101a7919061223a565b60405180910390f35b6101ca60048036038101906101c59190611e7c565b610578565b005b6101e660048036038101906101e19190611dd7565b6105f1565b005b61020260048036038101906101fd9190611e20565b610668565b005b61021e60048036038101906102199190611e20565b6106e1565b005b7f73d57861095ed1ff7b0e5c00e25f9fc922cf9164e617149ee7073f371364c95461024b813361075a565b61028a576040517f08c379a000000000000000000000000000000000000000000000000000000000815260040161028190612277565b60405180910390fd5b610293826107f5565b5050565b7f73d57861095ed1ff7b0e5c00e25f9fc922cf9164e617149ee7073f371364c9546102c2813361075a565b610301576040517f08c379a00000000000000000000000000000000000000000000000000000000081526004016102f890612277565b60405180910390fd5b61030a82610924565b5050565b60607fa724c0857099da33c38b932ce5d4e84578ee9792153085d9d5e379bfba70cacb61033b813361075a565b61037a576040517f08c379a000000000000000000000000000000000000000000000000000000000815260040161037190612277565b60405180910390fd5b61038383610b42565b915050919050565b60007fdf8b4c520ffe197c5343c6f5aec59570151ef9a492f2c624fd45ddde6135ec426103b8813361075a565b6103f7576040517f08c379a00000000000000000000000000000000000000000000000000000000081526004016103ee90612277565b60405180910390fd5b6103ff610cdf565b91505090565b7f73d57861095ed1ff7b0e5c00e25f9fc922cf9164e617149ee7073f371364c954610430813361075a565b61046f576040517f08c379a000000000000000000000000000000000000000000000000000000000815260040161046690612277565b60405180910390fd5b61047882610e94565b5050565b60607fa724c0857099da33c38b932ce5d4e84578ee9792153085d9d5e379bfba70cacb6104a9813361075a565b6104e8576040517f08c379a00000000000000000000000000000000000000000000000000000000081526004016104df90612277565b60405180910390fd5b6104f183611031565b915050919050565b60007fdf8b4c520ffe197c5343c6f5aec59570151ef9a492f2c624fd45ddde6135ec42610526813361075a565b610565576040517f08c379a000000000000000000000000000000000000000000000000000000000815260040161055c90612277565b60405180910390fd5b61056f848461111a565b91505092915050565b7f73d57861095ed1ff7b0e5c00e25f9fc922cf9164e617149ee7073f371364c9546105a3813361075a565b6105e2576040517f08c379a00000000000000000000000000000000000000000000000000000000081526004016105d990612277565b60405180910390fd5b6105ec8383611135565b505050565b7f73d57861095ed1ff7b0e5c00e25f9fc922cf9164e617149ee7073f371364c95461061c813361075a565b61065b576040517f08c379a000000000000000000000000000000000000000000000000000000000815260040161065290612277565b60405180910390fd5b6106648261142b565b5050565b7f73d57861095ed1ff7b0e5c00e25f9fc922cf9164e617149ee7073f371364c954610693813361075a565b6106d2576040517f08c379a00000000000000000000000000000000000000000000000000000000081526004016106c990612277565b60405180910390fd5b6106dc8383611793565b505050565b7f73d57861095ed1ff7b0e5c00e25f9fc922cf9164e617149ee7073f371364c95461070c813361075a565b61074b576040517f08c379a000000000000000000000000000000000000000000000000000000000815260040161074290612277565b60405180910390fd5b6107558383611921565b505050565b600080600084815260200190815260200160002060030160009054906101000a900460ff1661078c57600090506107ef565b60008084815260200190815260200160002060000160008373ffffffffffffffffffffffffffffffffffffffff1673ffffffffffffffffffffffffffffffffffffffff16815260200190815260200160002060009054906101000a900460ff1690505b92915050565b60008180519060200120905060008082815260200190815260200160002060030160009054906101000a900460ff16801561085057507fdf8b4c520ffe197c5343c6f5aec59570151ef9a492f2c624fd45ddde6135ec428114155b156108e157600080600083815260200190815260200160002060030160006101000a81548160ff0219169083151502179055503373ffffffffffffffffffffffffffffffffffffffff16826040516108a891906121a2565b60405180910390207fef4f3adabb4ce2cc6076cc23d211eff03f6e49839a9d773d7c77f48a83a2d85960405160405180910390a3610920565b61091f6040518060400160405280601c81526020017f546865207065726d697373696f6e206973206e6f742076616c69642e00000000815250611a6f565b5b5050565b61094e7fdf8b4c520ffe197c5343c6f5aec59570151ef9a492f2c624fd45ddde6135ec428261075a565b1580610980575061097f7fdf8b4c520ffe197c5343c6f5aec59570151ef9a492f2c624fd45ddde6135ec423361075a565b5b15610b00576000600190505b600254811015610aa0576000806001600084815260200190815260200160002054815260200190815260200160002060000160008373ffffffffffffffffffffffffffffffffffffffff1673ffffffffffffffffffffffffffffffffffffffff16815260200190815260200160002060009054906101000a900460ff1615610a8d5760008060006001600085815260200190815260200160002054815260200190815260200160002060000160008473ffffffffffffffffffffffffffffffffffffffff1673ffffffffffffffffffffffffffffffffffffffff16815260200190815260200160002060006101000a81548160ff0219169083151502179055505b8080610a9890612492565b91505061098c565b503373ffffffffffffffffffffffffffffffffffffffff168173ffffffffffffffffffffffffffffffffffffffff167ffd7e144a5e02c1180e00f9591ef4f60aa95b127c4f134847224a4b6cb99fef9660405160405180910390a3610b3f565b610b3e6040518060400160405280601881526020017f596f752063616e6e6f742064656c6574652041444d494e2e0000000000000000815250611a6f565b5b50565b6060806000838051906020012090506000805b60008084815260200190815260200160002060020154811015610cd3576000808481526020019081526020016000206000016000806000868152602001908152602001600020600101600084815260200190815260200160002060009054906101000a900473ffffffffffffffffffffffffffffffffffffffff1673ffffffffffffffffffffffffffffffffffffffff1673ffffffffffffffffffffffffffffffffffffffff16815260200190815260200160002060009054906101000a900460ff1615610cc057600080848152602001908152602001600020600101600082815260200190815260200160002060009054906101000a900473ffffffffffffffffffffffffffffffffffffffff16848381518110610c7757610c7661250a565b5b602002602001019073ffffffffffffffffffffffffffffffffffffffff16908173ffffffffffffffffffffffffffffffffffffffff16815250508180610cbc90612492565b9250505b8080610ccb90612492565b915050610b55565b50829350505050919050565b600080600090505b6000807fdf8b4c520ffe197c5343c6f5aec59570151ef9a492f2c624fd45ddde6135ec42815260200190815260200160002060020154811015610e27576000807fdf8b4c520ffe197c5343c6f5aec59570151ef9a492f2c624fd45ddde6135ec42815260200190815260200160002060000160008060007fdf8b4c520ffe197c5343c6f5aec59570151ef9a492f2c624fd45ddde6135ec428152602001908152602001600020600101600084815260200190815260200160002060009054906101000a900473ffffffffffffffffffffffffffffffffffffffff1673ffffffffffffffffffffffffffffffffffffffff1673ffffffffffffffffffffffffffffffffffffffff16815260200190815260200160002060009054906101000a900460ff1615610e1457610e27565b8080610e1f90612492565b915050610ce7565b6000807fdf8b4c520ffe197c5343c6f5aec59570151ef9a492f2c624fd45ddde6135ec428152602001908152602001600020600101600082815260200190815260200160002060009054906101000a900473ffffffffffffffffffffffffffffffffffffffff1691505090565b60008060007fdf8b4c520ffe197c5343c6f5aec59570151ef9a492f2c624fd45ddde6135ec42815260200190815260200160002060000160003373ffffffffffffffffffffffffffffffffffffffff1673ffffffffffffffffffffffffffffffffffffffff16815260200190815260200160002060006101000a81548160ff021916908315150217905550610f497fdf8b4c520ffe197c5343c6f5aec59570151ef9a492f2c624fd45ddde6135ec4282611acb565b60016000807fdf8b4c520ffe197c5343c6f5aec59570151ef9a492f2c624fd45ddde6135ec42815260200190815260200160002060000160008373ffffffffffffffffffffffffffffffffffffffff1673ffffffffffffffffffffffffffffffffffffffff16815260200190815260200160002060006101000a81548160ff0219169083151502179055503373ffffffffffffffffffffffffffffffffffffffff168173ffffffffffffffffffffffffffffffffffffffff167f173de3514d8508f36ce8c81d509adcd8c8c76098400f685d3042b36f9a4160c360405160405180910390a350565b6060806000805b60025481101561110f576000806001600084815260200190815260200160002054815260200190815260200160002060000160008673ffffffffffffffffffffffffffffffffffffffff1673ffffffffffffffffffffffffffffffffffffffff16815260200190815260200160002060009054906101000a900460ff16156110fc5760016000828152602001908152602001600020548383815181106110e1576110e061250a565b5b60200260200101818152505081806110f890612492565b9250505b808061110790612492565b915050611038565b508192505050919050565b600061112d83805190602001208361075a565b905092915050565b60008280519060200120905060008280519060200120905060008083815260200190815260200160002060030160009054906101000a900460ff166113e65761117d82611c33565b600160008084815260200190815260200160002060030160006101000a81548160ff02191690831515021790555060005b60008083815260200190815260200160002060020154811015611358576000806000848152602001908152602001600020600101600083815260200190815260200160002060009054906101000a900473ffffffffffffffffffffffffffffffffffffffff16905060008084815260200190815260200160002060000160008273ffffffffffffffffffffffffffffffffffffffff1673ffffffffffffffffffffffffffffffffffffffff16815260200190815260200160002060009054906101000a900460ff1660008086815260200190815260200160002060000160008373ffffffffffffffffffffffffffffffffffffffff1673ffffffffffffffffffffffffffffffffffffffff16815260200190815260200160002060006101000a81548160ff02191690831515021790555080600080868152602001908152602001600020600101600084815260200190815260200160002060006101000a81548173ffffffffffffffffffffffffffffffffffffffff021916908373ffffffffffffffffffffffffffffffffffffffff16021790555050808061135090612492565b9150506111ae565b5060008082815260200190815260200160002060020154600080848152602001908152602001600020600201819055503373ffffffffffffffffffffffffffffffffffffffff16846040516113ad91906121a2565b60405180910390207f629a748ba580fe181c6ae2d3673c4bdfea9e1f2d334f36beec502aff5dbaeff260405160405180910390a3611425565b6114246040518060400160405280602081526020017f546865207065726d697373696f6e2068617320616c726561792065786973742e815250611a6f565b5b50505050565b60008180519060200120905060008082815260200190815260200160002060030160009054906101000a900460ff166117505761146781611c33565b600160008083815260200190815260200160002060030160006101000a81548160ff02191690831515021790555060005b6000807fdf8b4c520ffe197c5343c6f5aec59570151ef9a492f2c624fd45ddde6135ec428152602001908152602001600020600201548110156116a25760008060007fdf8b4c520ffe197c5343c6f5aec59570151ef9a492f2c624fd45ddde6135ec428152602001908152602001600020600101600083815260200190815260200160002060009054906101000a900473ffffffffffffffffffffffffffffffffffffffff1690506000807fdf8b4c520ffe197c5343c6f5aec59570151ef9a492f2c624fd45ddde6135ec42815260200190815260200160002060000160008273ffffffffffffffffffffffffffffffffffffffff1673ffffffffffffffffffffffffffffffffffffffff16815260200190815260200160002060009054906101000a900460ff1660008085815260200190815260200160002060000160008373ffffffffffffffffffffffffffffffffffffffff1673ffffffffffffffffffffffffffffffffffffffff16815260200190815260200160002060006101000a81548160ff02191690831515021790555080600080858152602001908152602001600020600101600084815260200190815260200160002060006101000a81548173ffffffffffffffffffffffffffffffffffffffff021916908373ffffffffffffffffffffffffffffffffffffffff16021790555050808061169a90612492565b915050611498565b506000807fdf8b4c520ffe197c5343c6f5aec59570151ef9a492f2c624fd45ddde6135ec42815260200190815260200160002060020154600080838152602001908152602001600020600201819055503373ffffffffffffffffffffffffffffffffffffffff168260405161171791906121a2565b60405180910390207f629a748ba580fe181c6ae2d3673c4bdfea9e1f2d334f36beec502aff5dbaeff260405160405180910390a361178f565b61178e6040518060400160405280602081526020017f546865207065726d697373696f6e2068617320616c726561792065786973742e815250611a6f565b5b5050565b60008280519060200120905060008082815260200190815260200160002060030160009054906101000a900460ff1680156117ee57507fdf8b4c520ffe197c5343c6f5aec59570151ef9a492f2c624fd45ddde6135ec428114155b156118dd576117fd8183611acb565b600160008083815260200190815260200160002060000160008473ffffffffffffffffffffffffffffffffffffffff1673ffffffffffffffffffffffffffffffffffffffff16815260200190815260200160002060006101000a81548160ff0219169083151502179055503373ffffffffffffffffffffffffffffffffffffffff168273ffffffffffffffffffffffffffffffffffffffff16846040516118a491906121a2565b60405180910390207f1bbdb8ca05419dffb11afa5105f78331a46e3d8a8b900efb115bbb4175a9c2d360405160405180910390a461191c565b61191b6040518060400160405280601c81526020017f546865207065726d697373696f6e206973206e6f742076616c69642e00000000815250611a6f565b5b505050565b600082805190602001209050611937818361075a565b801561196357507fdf8b4c520ffe197c5343c6f5aec59570151ef9a492f2c624fd45ddde6135ec428114155b15611a4857600080600083815260200190815260200160002060000160008473ffffffffffffffffffffffffffffffffffffffff1673ffffffffffffffffffffffffffffffffffffffff16815260200190815260200160002060006101000a81548160ff0219169083151502179055503373ffffffffffffffffffffffffffffffffffffffff168273ffffffffffffffffffffffffffffffffffffffff1684604051611a0f91906121a2565b60405180910390207f5658f0a44f1b55364ef0376f818ea716aee06d4e966974edba8ae1b8fa1e379c60405160405180910390a4611a6a565b611a6960405180608001604052806044815260200161261d60449139611a6f565b5b505050565b80604051602001611a8091906121b9565b6040516020818303038152906040526040517f08c379a0000000000000000000000000000000000000000000000000000000008152600401611ac29190612255565b60405180910390fd5b6000805b60008085815260200190815260200160002060020154811015611b82578273ffffffffffffffffffffffffffffffffffffffff16600080868152602001908152602001600020600101600083815260200190815260200160002060009054906101000a900473ffffffffffffffffffffffffffffffffffffffff1673ffffffffffffffffffffffffffffffffffffffff161415611b6f5760019150611b82565b8080611b7a90612492565b915050611acf565b5080611c2e5781600080858152602001908152602001600020600101600080600087815260200190815260200160002060020154815260200190815260200160002060006101000a81548173ffffffffffffffffffffffffffffffffffffffff021916908373ffffffffffffffffffffffffffffffffffffffff1602179055506000808481526020019081526020016000206002016000815480929190611c2890612492565b91905055505b505050565b6000805b600254811015611c78578260016000838152602001908152602001600020541415611c655760019150611c78565b8080611c7090612492565b915050611c37565b5080611cb157816001600060025481526020019081526020016000208190555060026000815480929190611cab90612492565b91905055505b5050565b6000611cc8611cc3846122bc565b612297565b905082815260208101848484011115611ce457611ce361256d565b5b611cef84828561241f565b509392505050565b6000611d0a611d05846122ed565b612297565b905082815260208101848484011115611d2657611d2561256d565b5b611d3184828561241f565b509392505050565b600081359050611d4881612605565b92915050565b600082601f830112611d6357611d62612568565b5b8135611d73848260208601611cb5565b91505092915050565b600082601f830112611d9157611d90612568565b5b8135611da1848260208601611cf7565b91505092915050565b600060208284031215611dc057611dbf612577565b5b6000611dce84828501611d39565b91505092915050565b600060208284031215611ded57611dec612577565b5b600082013567ffffffffffffffff811115611e0b57611e0a612572565b5b611e1784828501611d4e565b91505092915050565b60008060408385031215611e3757611e36612577565b5b600083013567ffffffffffffffff811115611e5557611e54612572565b5b611e6185828601611d4e565b9250506020611e7285828601611d39565b9150509250929050565b60008060408385031215611e9357611e92612577565b5b600083013567ffffffffffffffff811115611eb157611eb0612572565b5b611ebd85828601611d4e565b925050602083013567ffffffffffffffff811115611ede57611edd612572565b5b611eea85828601611d4e565b9150509250929050565b600060208284031215611f0a57611f09612577565b5b600082013567ffffffffffffffff811115611f2857611f27612572565b5b611f3484828501611d7c565b91505092915050565b60008060408385031215611f5457611f53612577565b5b600083013567ffffffffffffffff811115611f7257611f71612572565b5b611f7e85828601611d7c565b9250506020611f8f85828601611d39565b9150509250929050565b6000611fa58383611fc9565b60208301905092915050565b6000611fbd83836120b2565b60208301905092915050565b611fd2816123cd565b82525050565b611fe1816123cd565b82525050565b6000611ff28261233e565b611ffc8185612384565b93506120078361231e565b8060005b8381101561203857815161201f8882611f99565b975061202a8361236a565b92505060018101905061200b565b5085935050505092915050565b600061205082612349565b61205a8185612395565b93506120658361232e565b8060005b8381101561209657815161207d8882611fb1565b975061208883612377565b925050600181019050612069565b5085935050505092915050565b6120ac816123df565b82525050565b6120bb816123eb565b82525050565b60006120cc82612354565b6120d681856123a6565b93506120e681856020860161242e565b80840191505092915050565b60006120fd8261235f565b61210781856123b1565b935061211781856020860161242e565b6121208161257c565b840191505092915050565b60006121368261235f565b61214081856123c2565b935061215081856020860161242e565b80840191505092915050565b6000612169600f836123c2565b91506121748261258d565b600f82019050919050565b600061218c603e836123b1565b9150612197826125b6565b604082019050919050565b60006121ae82846120c1565b915081905092915050565b60006121c48261215c565b91506121d0828461212b565b915081905092915050565b60006020820190506121f06000830184611fd8565b92915050565b600060208201905081810360008301526122108184611fe7565b905092915050565b600060208201905081810360008301526122328184612045565b905092915050565b600060208201905061224f60008301846120a3565b92915050565b6000602082019050818103600083015261226f81846120f2565b905092915050565b600060208201905081810360008301526122908161217f565b9050919050565b60006122a16122b2565b90506122ad8282612461565b919050565b6000604051905090565b600067ffffffffffffffff8211156122d7576122d6612539565b5b6122e08261257c565b9050602081019050919050565b600067ffffffffffffffff82111561230857612307612539565b5b6123118261257c565b9050602081019050919050565b6000819050602082019050919050565b6000819050602082019050919050565b600081519050919050565b600081519050919050565b600081519050919050565b600081519050919050565b6000602082019050919050565b6000602082019050919050565b600082825260208201905092915050565b600082825260208201905092915050565b600081905092915050565b600082825260208201905092915050565b600081905092915050565b60006123d8826123f5565b9050919050565b60008115159050919050565b6000819050919050565b600073ffffffffffffffffffffffffffffffffffffffff82169050919050565b6000819050919050565b82818337600083830152505050565b60005b8381101561244c578082015181840152602081019050612431565b8381111561245b576000848401525b50505050565b61246a8261257c565b810181811067ffffffffffffffff8211171561248957612488612539565b5b80604052505050565b600061249d82612415565b91507fffffffffffffffffffffffffffffffffffffffffffffffffffffffffffffffff8214156124d0576124cf6124db565b5b600182019050919050565b7f4e487b7100000000000000000000000000000000000000000000000000000000600052601160045260246000fd5b7f4e487b7100000000000000000000000000000000000000000000000000000000600052603260045260246000fd5b7f4e487b7100000000000000000000000000000000000000000000000000000000600052604160045260246000fd5b600080fd5b600080fd5b600080fd5b600080fd5b6000601f19601f8301169050919050565b7f416363657373436f6e74726f6c3a200000000000000000000000000000000000600082015250565b7f416363657373436f6e74726f6c3a20596f752068617665206e6f207065726d6960008201527f7373696f6e20746f2061636365737320746869732066756e6374696f6e2e0000602082015250565b61260e816123cd565b811461261957600080fd5b5056fe546865207065726d697373696f6e206973206e6f742076616c6964206f7220746865206163636f756e74206973206e6f7420696e20746865207065726d697373696f6e2ea26469706673582212200e525da8b119f1beda252c5859f5550caa64f623e9039915fcf7cedde3141c5064736f6c63430008070033",
					"opcodes": "PUSH1 0x80 PUSH1 0x40 MSTORE CALLVALUE DUP1 ISZERO PUSH2 0x10 JUMPI PUSH1 0x0 DUP1 REVERT JUMPDEST POP PUSH2 0x1F PUSH2 0x24 PUSH1 0x20 SHL PUSH1 0x20 SHR JUMP JUMPDEST PUSH2 0x1FF JUMP JUMPDEST PUSH1 0x1 PUSH1 0x0 DUP1 PUSH32 0xDF8B4C520FFE197C5343C6F5AEC59570151EF9A492F2C624FD45DDDE6135EC42 DUP2 MSTORE PUSH1 0x20 ADD SWAP1 DUP2 MSTORE PUSH1 0x20 ADD PUSH1 0x0 KECCAK256 PUSH1 0x3 ADD PUSH1 0x0 PUSH2 0x100 EXP DUP2 SLOAD DUP2 PUSH1 0xFF MUL NOT AND SWAP1 DUP4 ISZERO ISZERO MUL OR SWAP1 SSTORE POP PUSH1 0x1 PUSH1 0x0 DUP1 PUSH32 0xDF8B4C520FFE197C5343C6F5AEC59570151EF9A492F2C624FD45DDDE6135EC42 DUP2 MSTORE PUSH1 0x20 ADD SWAP1 DUP2 MSTORE PUSH1 0x20 ADD PUSH1 0x0 KECCAK256 PUSH1 0x0 ADD PUSH1 0x0 CALLER PUSH20 0xFFFFFFFFFFFFFFFFFFFFFFFFFFFFFFFFFFFFFFFF AND PUSH20 0xFFFFFFFFFFFFFFFFFFFFFFFFFFFFFFFFFFFFFFFF AND DUP2 MSTORE PUSH1 0x20 ADD SWAP1 DUP2 MSTORE PUSH1 0x20 ADD PUSH1 0x0 KECCAK256 PUSH1 0x0 PUSH2 0x100 EXP DUP2 SLOAD DUP2 PUSH1 0xFF MUL NOT AND SWAP1 DUP4 ISZERO ISZERO MUL OR SWAP1 SSTORE POP CALLER PUSH1 0x0 DUP1 PUSH32 0xDF8B4C520FFE197C5343C6F5AEC59570151EF9A492F2C624FD45DDDE6135EC42 DUP2 MSTORE PUSH1 0x20 ADD SWAP1 DUP2 MSTORE PUSH1 0x20 ADD PUSH1 0x0 KECCAK256 PUSH1 0x1 ADD PUSH1 0x0 DUP1 DUP2 MSTORE PUSH1 0x20 ADD SWAP1 DUP2 MSTORE PUSH1 0x20 ADD PUSH1 0x0 KECCAK256 PUSH1 0x0 PUSH2 0x100 EXP DUP2 SLOAD DUP2 PUSH20 0xFFFFFFFFFFFFFFFFFFFFFFFFFFFFFFFFFFFFFFFF MUL NOT AND SWAP1 DUP4 PUSH20 0xFFFFFFFFFFFFFFFFFFFFFFFFFFFFFFFFFFFFFFFF AND MUL OR SWAP1 SSTORE POP PUSH1 0x1 PUSH1 0x0 DUP1 PUSH32 0xDF8B4C520FFE197C5343C6F5AEC59570151EF9A492F2C624FD45DDDE6135EC42 DUP2 MSTORE PUSH1 0x20 ADD SWAP1 DUP2 MSTORE PUSH1 0x20 ADD PUSH1 0x0 KECCAK256 PUSH1 0x2 ADD DUP2 SWAP1 SSTORE POP PUSH1 0x1 PUSH1 0x2 DUP2 SWAP1 SSTORE POP PUSH32 0xDF8B4C520FFE197C5343C6F5AEC59570151EF9A492F2C624FD45DDDE6135EC42 PUSH1 0x1 PUSH1 0x0 DUP1 DUP2 MSTORE PUSH1 0x20 ADD SWAP1 DUP2 MSTORE PUSH1 0x20 ADD PUSH1 0x0 KECCAK256 DUP2 SWAP1 SSTORE POP JUMP JUMPDEST PUSH2 0x2696 DUP1 PUSH2 0x20E PUSH1 0x0 CODECOPY PUSH1 0x0 RETURN INVALID PUSH1 0x80 PUSH1 0x40 MSTORE CALLVALUE DUP1 ISZERO PUSH2 0x10 JUMPI PUSH1 0x0 DUP1 REVERT JUMPDEST POP PUSH1 0x4 CALLDATASIZE LT PUSH2 0xA9 JUMPI PUSH1 0x0 CALLDATALOAD PUSH1 0xE0 SHR DUP1 PUSH4 0x80891CB2 GT PUSH2 0x71 JUMPI DUP1 PUSH4 0x80891CB2 EQ PUSH2 0x150 JUMPI DUP1 PUSH4 0xA076A09E EQ PUSH2 0x180 JUMPI DUP1 PUSH4 0xA10F9524 EQ PUSH2 0x1B0 JUMPI DUP1 PUSH4 0xAAE7C78A EQ PUSH2 0x1CC JUMPI DUP1 PUSH4 0xC7DC6220 EQ PUSH2 0x1E8 JUMPI DUP1 PUSH4 0xC98D6F1E EQ PUSH2 0x204 JUMPI PUSH2 0xA9 JUMP JUMPDEST DUP1 PUSH4 0x342DA059 EQ PUSH2 0xAE JUMPI DUP1 PUSH4 0x4C1B64CB EQ PUSH2 0xCA JUMPI DUP1 PUSH4 0x56353D82 EQ PUSH2 0xE6 JUMPI DUP1 PUSH4 0x7058DD24 EQ PUSH2 0x116 JUMPI DUP1 PUSH4 0x75829DEF EQ PUSH2 0x134 JUMPI JUMPDEST PUSH1 0x0 DUP1 REVERT JUMPDEST PUSH2 0xC8 PUSH1 0x4 DUP1 CALLDATASIZE SUB DUP2 ADD SWAP1 PUSH2 0xC3 SWAP2 SWAP1 PUSH2 0x1DD7 JUMP JUMPDEST PUSH2 0x220 JUMP JUMPDEST STOP JUMPDEST PUSH2 0xE4 PUSH1 0x4 DUP1 CALLDATASIZE SUB DUP2 ADD SWAP1 PUSH2 0xDF SWAP2 SWAP1 PUSH2 0x1DAA JUMP JUMPDEST PUSH2 0x297 JUMP JUMPDEST STOP JUMPDEST PUSH2 0x100 PUSH1 0x4 DUP1 CALLDATASIZE SUB DUP2 ADD SWAP1 PUSH2 0xFB SWAP2 SWAP1 PUSH2 0x1EF4 JUMP JUMPDEST PUSH2 0x30E JUMP JUMPDEST PUSH1 0x40 MLOAD PUSH2 0x10D SWAP2 SWAP1 PUSH2 0x21F6 JUMP JUMPDEST PUSH1 0x40 MLOAD DUP1 SWAP2 SUB SWAP1 RETURN JUMPDEST PUSH2 0x11E PUSH2 0x38B JUMP JUMPDEST PUSH1 0x40 MLOAD PUSH2 0x12B SWAP2 SWAP1 PUSH2 0x21DB JUMP JUMPDEST PUSH1 0x40 MLOAD DUP1 SWAP2 SUB SWAP1 RETURN JUMPDEST PUSH2 0x14E PUSH1 0x4 DUP1 CALLDATASIZE SUB DUP2 ADD SWAP1 PUSH2 0x149 SWAP2 SWAP1 PUSH2 0x1DAA JUMP JUMPDEST PUSH2 0x405 JUMP JUMPDEST STOP JUMPDEST PUSH2 0x16A PUSH1 0x4 DUP1 CALLDATASIZE SUB DUP2 ADD SWAP1 PUSH2 0x165 SWAP2 SWAP1 PUSH2 0x1DAA JUMP JUMPDEST PUSH2 0x47C JUMP JUMPDEST PUSH1 0x40 MLOAD PUSH2 0x177 SWAP2 SWAP1 PUSH2 0x2218 JUMP JUMPDEST PUSH1 0x40 MLOAD DUP1 SWAP2 SUB SWAP1 RETURN JUMPDEST PUSH2 0x19A PUSH1 0x4 DUP1 CALLDATASIZE SUB DUP2 ADD SWAP1 PUSH2 0x195 SWAP2 SWAP1 PUSH2 0x1F3D JUMP JUMPDEST PUSH2 0x4F9 JUMP JUMPDEST PUSH1 0x40 MLOAD PUSH2 0x1A7 SWAP2 SWAP1 PUSH2 0x223A JUMP JUMPDEST PUSH1 0x40 MLOAD DUP1 SWAP2 SUB SWAP1 RETURN JUMPDEST PUSH2 0x1CA PUSH1 0x4 DUP1 CALLDATASIZE SUB DUP2 ADD SWAP1 PUSH2 0x1C5 SWAP2 SWAP1 PUSH2 0x1E7C JUMP JUMPDEST PUSH2 0x578 JUMP JUMPDEST STOP JUMPDEST PUSH2 0x1E6 PUSH1 0x4 DUP1 CALLDATASIZE SUB DUP2 ADD SWAP1 PUSH2 0x1E1 SWAP2 SWAP1 PUSH2 0x1DD7 JUMP JUMPDEST PUSH2 0x5F1 JUMP JUMPDEST STOP JUMPDEST PUSH2 0x202 PUSH1 0x4 DUP1 CALLDATASIZE SUB DUP2 ADD SWAP1 PUSH2 0x1FD SWAP2 SWAP1 PUSH2 0x1E20 JUMP JUMPDEST PUSH2 0x668 JUMP JUMPDEST STOP JUMPDEST PUSH2 0x21E PUSH1 0x4 DUP1 CALLDATASIZE SUB DUP2 ADD SWAP1 PUSH2 0x219 SWAP2 SWAP1 PUSH2 0x1E20 JUMP JUMPDEST PUSH2 0x6E1 JUMP JUMPDEST STOP JUMPDEST PUSH32 0x73D57861095ED1FF7B0E5C00E25F9FC922CF9164E617149EE7073F371364C954 PUSH2 0x24B DUP2 CALLER PUSH2 0x75A JUMP JUMPDEST PUSH2 0x28A JUMPI PUSH1 0x40 MLOAD PUSH32 0x8C379A000000000000000000000000000000000000000000000000000000000 DUP2 MSTORE PUSH1 0x4 ADD PUSH2 0x281 SWAP1 PUSH2 0x2277 JUMP JUMPDEST PUSH1 0x40 MLOAD DUP1 SWAP2 SUB SWAP1 REVERT JUMPDEST PUSH2 0x293 DUP3 PUSH2 0x7F5 JUMP JUMPDEST POP POP JUMP JUMPDEST PUSH32 0x73D57861095ED1FF7B0E5C00E25F9FC922CF9164E617149EE7073F371364C954 PUSH2 0x2C2 DUP2 CALLER PUSH2 0x75A JUMP JUMPDEST PUSH2 0x301 JUMPI PUSH1 0x40 MLOAD PUSH32 0x8C379A000000000000000000000000000000000000000000000000000000000 DUP2 MSTORE PUSH1 0x4 ADD PUSH2 0x2F8 SWAP1 PUSH2 0x2277 JUMP JUMPDEST PUSH1 0x40 MLOAD DUP1 SWAP2 SUB SWAP1 REVERT JUMPDEST PUSH2 0x30A DUP3 PUSH2 0x924 JUMP JUMPDEST POP POP JUMP JUMPDEST PUSH1 0x60 PUSH32 0xA724C0857099DA33C38B932CE5D4E84578EE9792153085D9D5E379BFBA70CACB PUSH2 0x33B DUP2 CALLER PUSH2 0x75A JUMP JUMPDEST PUSH2 0x37A JUMPI PUSH1 0x40 MLOAD PUSH32 0x8C379A000000000000000000000000000000000000000000000000000000000 DUP2 MSTORE PUSH1 0x4 ADD PUSH2 0x371 SWAP1 PUSH2 0x2277 JUMP JUMPDEST PUSH1 0x40 MLOAD DUP1 SWAP2 SUB SWAP1 REVERT JUMPDEST PUSH2 0x383 DUP4 PUSH2 0xB42 JUMP JUMPDEST SWAP2 POP POP SWAP2 SWAP1 POP JUMP JUMPDEST PUSH1 0x0 PUSH32 0xDF8B4C520FFE197C5343C6F5AEC59570151EF9A492F2C624FD45DDDE6135EC42 PUSH2 0x3B8 DUP2 CALLER PUSH2 0x75A JUMP JUMPDEST PUSH2 0x3F7 JUMPI PUSH1 0x40 MLOAD PUSH32 0x8C379A000000000000000000000000000000000000000000000000000000000 DUP2 MSTORE PUSH1 0x4 ADD PUSH2 0x3EE SWAP1 PUSH2 0x2277 JUMP JUMPDEST PUSH1 0x40 MLOAD DUP1 SWAP2 SUB SWAP1 REVERT JUMPDEST PUSH2 0x3FF PUSH2 0xCDF JUMP JUMPDEST SWAP2 POP POP SWAP1 JUMP JUMPDEST PUSH32 0x73D57861095ED1FF7B0E5C00E25F9FC922CF9164E617149EE7073F371364C954 PUSH2 0x430 DUP2 CALLER PUSH2 0x75A JUMP JUMPDEST PUSH2 0x46F JUMPI PUSH1 0x40 MLOAD PUSH32 0x8C379A000000000000000000000000000000000000000000000000000000000 DUP2 MSTORE PUSH1 0x4 ADD PUSH2 0x466 SWAP1 PUSH2 0x2277 JUMP JUMPDEST PUSH1 0x40 MLOAD DUP1 SWAP2 SUB SWAP1 REVERT JUMPDEST PUSH2 0x478 DUP3 PUSH2 0xE94 JUMP JUMPDEST POP POP JUMP JUMPDEST PUSH1 0x60 PUSH32 0xA724C0857099DA33C38B932CE5D4E84578EE9792153085D9D5E379BFBA70CACB PUSH2 0x4A9 DUP2 CALLER PUSH2 0x75A JUMP JUMPDEST PUSH2 0x4E8 JUMPI PUSH1 0x40 MLOAD PUSH32 0x8C379A000000000000000000000000000000000000000000000000000000000 DUP2 MSTORE PUSH1 0x4 ADD PUSH2 0x4DF SWAP1 PUSH2 0x2277 JUMP JUMPDEST PUSH1 0x40 MLOAD DUP1 SWAP2 SUB SWAP1 REVERT JUMPDEST PUSH2 0x4F1 DUP4 PUSH2 0x1031 JUMP JUMPDEST SWAP2 POP POP SWAP2 SWAP1 POP JUMP JUMPDEST PUSH1 0x0 PUSH32 0xDF8B4C520FFE197C5343C6F5AEC59570151EF9A492F2C624FD45DDDE6135EC42 PUSH2 0x526 DUP2 CALLER PUSH2 0x75A JUMP JUMPDEST PUSH2 0x565 JUMPI PUSH1 0x40 MLOAD PUSH32 0x8C379A000000000000000000000000000000000000000000000000000000000 DUP2 MSTORE PUSH1 0x4 ADD PUSH2 0x55C SWAP1 PUSH2 0x2277 JUMP JUMPDEST PUSH1 0x40 MLOAD DUP1 SWAP2 SUB SWAP1 REVERT JUMPDEST PUSH2 0x56F DUP5 DUP5 PUSH2 0x111A JUMP JUMPDEST SWAP2 POP POP SWAP3 SWAP2 POP POP JUMP JUMPDEST PUSH32 0x73D57861095ED1FF7B0E5C00E25F9FC922CF9164E617149EE7073F371364C954 PUSH2 0x5A3 DUP2 CALLER PUSH2 0x75A JUMP JUMPDEST PUSH2 0x5E2 JUMPI PUSH1 0x40 MLOAD PUSH32 0x8C379A000000000000000000000000000000000000000000000000000000000 DUP2 MSTORE PUSH1 0x4 ADD PUSH2 0x5D9 SWAP1 PUSH2 0x2277 JUMP JUMPDEST PUSH1 0x40 MLOAD DUP1 SWAP2 SUB SWAP1 REVERT JUMPDEST PUSH2 0x5EC DUP4 DUP4 PUSH2 0x1135 JUMP JUMPDEST POP POP POP JUMP JUMPDEST PUSH32 0x73D57861095ED1FF7B0E5C00E25F9FC922CF9164E617149EE7073F371364C954 PUSH2 0x61C DUP2 CALLER PUSH2 0x75A JUMP JUMPDEST PUSH2 0x65B JUMPI PUSH1 0x40 MLOAD PUSH32 0x8C379A000000000000000000000000000000000000000000000000000000000 DUP2 MSTORE PUSH1 0x4 ADD PUSH2 0x652 SWAP1 PUSH2 0x2277 JUMP JUMPDEST PUSH1 0x40 MLOAD DUP1 SWAP2 SUB SWAP1 REVERT JUMPDEST PUSH2 0x664 DUP3 PUSH2 0x142B JUMP JUMPDEST POP POP JUMP JUMPDEST PUSH32 0x73D57861095ED1FF7B0E5C00E25F9FC922CF9164E617149EE7073F371364C954 PUSH2 0x693 DUP2 CALLER PUSH2 0x75A JUMP JUMPDEST PUSH2 0x6D2 JUMPI PUSH1 0x40 MLOAD PUSH32 0x8C379A000000000000000000000000000000000000000000000000000000000 DUP2 MSTORE PUSH1 0x4 ADD PUSH2 0x6C9 SWAP1 PUSH2 0x2277 JUMP JUMPDEST PUSH1 0x40 MLOAD DUP1 SWAP2 SUB SWAP1 REVERT JUMPDEST PUSH2 0x6DC DUP4 DUP4 PUSH2 0x1793 JUMP JUMPDEST POP POP POP JUMP JUMPDEST PUSH32 0x73D57861095ED1FF7B0E5C00E25F9FC922CF9164E617149EE7073F371364C954 PUSH2 0x70C DUP2 CALLER PUSH2 0x75A JUMP JUMPDEST PUSH2 0x74B JUMPI PUSH1 0x40 MLOAD PUSH32 0x8C379A000000000000000000000000000000000000000000000000000000000 DUP2 MSTORE PUSH1 0x4 ADD PUSH2 0x742 SWAP1 PUSH2 0x2277 JUMP JUMPDEST PUSH1 0x40 MLOAD DUP1 SWAP2 SUB SWAP1 REVERT JUMPDEST PUSH2 0x755 DUP4 DUP4 PUSH2 0x1921 JUMP JUMPDEST POP POP POP JUMP JUMPDEST PUSH1 0x0 DUP1 PUSH1 0x0 DUP5 DUP2 MSTORE PUSH1 0x20 ADD SWAP1 DUP2 MSTORE PUSH1 0x20 ADD PUSH1 0x0 KECCAK256 PUSH1 0x3 ADD PUSH1 0x0 SWAP1 SLOAD SWAP1 PUSH2 0x100 EXP SWAP1 DIV PUSH1 0xFF AND PUSH2 0x78C JUMPI PUSH1 0x0 SWAP1 POP PUSH2 0x7EF JUMP JUMPDEST PUSH1 0x0 DUP1 DUP5 DUP2 MSTORE PUSH1 0x20 ADD SWAP1 DUP2 MSTORE PUSH1 0x20 ADD PUSH1 0x0 KECCAK256 PUSH1 0x0 ADD PUSH1 0x0 DUP4 PUSH20 0xFFFFFFFFFFFFFFFFFFFFFFFFFFFFFFFFFFFFFFFF AND PUSH20 0xFFFFFFFFFFFFFFFFFFFFFFFFFFFFFFFFFFFFFFFF AND DUP2 MSTORE PUSH1 0x20 ADD SWAP1 DUP2 MSTORE PUSH1 0x20 ADD PUSH1 0x0 KECCAK256 PUSH1 0x0 SWAP1 SLOAD SWAP1 PUSH2 0x100 EXP SWAP1 DIV PUSH1 0xFF AND SWAP1 POP JUMPDEST SWAP3 SWAP2 POP POP JUMP JUMPDEST PUSH1 0x0 DUP2 DUP1 MLOAD SWAP1 PUSH1 0x20 ADD KECCAK256 SWAP1 POP PUSH1 0x0 DUP1 DUP3 DUP2 MSTORE PUSH1 0x20 ADD SWAP1 DUP2 MSTORE PUSH1 0x20 ADD PUSH1 0x0 KECCAK256 PUSH1 0x3 ADD PUSH1 0x0 SWAP1 SLOAD SWAP1 PUSH2 0x100 EXP SWAP1 DIV PUSH1 0xFF AND DUP1 ISZERO PUSH2 0x850 JUMPI POP PUSH32 0xDF8B4C520FFE197C5343C6F5AEC59570151EF9A492F2C624FD45DDDE6135EC42 DUP2 EQ ISZERO JUMPDEST ISZERO PUSH2 0x8E1 JUMPI PUSH1 0x0 DUP1 PUSH1 0x0 DUP4 DUP2 MSTORE PUSH1 0x20 ADD SWAP1 DUP2 MSTORE PUSH1 0x20 ADD PUSH1 0x0 KECCAK256 PUSH1 0x3 ADD PUSH1 0x0 PUSH2 0x100 EXP DUP2 SLOAD DUP2 PUSH1 0xFF MUL NOT AND SWAP1 DUP4 ISZERO ISZERO MUL OR SWAP1 SSTORE POP CALLER PUSH20 0xFFFFFFFFFFFFFFFFFFFFFFFFFFFFFFFFFFFFFFFF AND DUP3 PUSH1 0x40 MLOAD PUSH2 0x8A8 SWAP2 SWAP1 PUSH2 0x21A2 JUMP JUMPDEST PUSH1 0x40 MLOAD DUP1 SWAP2 SUB SWAP1 KECCAK256 PUSH32 0xEF4F3ADABB4CE2CC6076CC23D211EFF03F6E49839A9D773D7C77F48A83A2D859 PUSH1 0x40 MLOAD PUSH1 0x40 MLOAD DUP1 SWAP2 SUB SWAP1 LOG3 PUSH2 0x920 JUMP JUMPDEST PUSH2 0x91F PUSH1 0x40 MLOAD DUP1 PUSH1 0x40 ADD PUSH1 0x40 MSTORE DUP1 PUSH1 0x1C DUP2 MSTORE PUSH1 0x20 ADD PUSH32 0x546865207065726D697373696F6E206973206E6F742076616C69642E00000000 DUP2 MSTORE POP PUSH2 0x1A6F JUMP JUMPDEST JUMPDEST POP POP JUMP JUMPDEST PUSH2 0x94E PUSH32 0xDF8B4C520FFE197C5343C6F5AEC59570151EF9A492F2C624FD45DDDE6135EC42 DUP3 PUSH2 0x75A JUMP JUMPDEST ISZERO DUP1 PUSH2 0x980 JUMPI POP PUSH2 0x97F PUSH32 0xDF8B4C520FFE197C5343C6F5AEC59570151EF9A492F2C624FD45DDDE6135EC42 CALLER PUSH2 0x75A JUMP JUMPDEST JUMPDEST ISZERO PUSH2 0xB00 JUMPI PUSH1 0x0 PUSH1 0x1 SWAP1 POP JUMPDEST PUSH1 0x2 SLOAD DUP2 LT ISZERO PUSH2 0xAA0 JUMPI PUSH1 0x0 DUP1 PUSH1 0x1 PUSH1 0x0 DUP5 DUP2 MSTORE PUSH1 0x20 ADD SWAP1 DUP2 MSTORE PUSH1 0x20 ADD PUSH1 0x0 KECCAK256 SLOAD DUP2 MSTORE PUSH1 0x20 ADD SWAP1 DUP2 MSTORE PUSH1 0x20 ADD PUSH1 0x0 KECCAK256 PUSH1 0x0 ADD PUSH1 0x0 DUP4 PUSH20 0xFFFFFFFFFFFFFFFFFFFFFFFFFFFFFFFFFFFFFFFF AND PUSH20 0xFFFFFFFFFFFFFFFFFFFFFFFFFFFFFFFFFFFFFFFF AND DUP2 MSTORE PUSH1 0x20 ADD SWAP1 DUP2 MSTORE PUSH1 0x20 ADD PUSH1 0x0 KECCAK256 PUSH1 0x0 SWAP1 SLOAD SWAP1 PUSH2 0x100 EXP SWAP1 DIV PUSH1 0xFF AND ISZERO PUSH2 0xA8D JUMPI PUSH1 0x0 DUP1 PUSH1 0x0 PUSH1 0x1 PUSH1 0x0 DUP6 DUP2 MSTORE PUSH1 0x20 ADD SWAP1 DUP2 MSTORE PUSH1 0x20 ADD PUSH1 0x0 KECCAK256 SLOAD DUP2 MSTORE PUSH1 0x20 ADD SWAP1 DUP2 MSTORE PUSH1 0x20 ADD PUSH1 0x0 KECCAK256 PUSH1 0x0 ADD PUSH1 0x0 DUP5 PUSH20 0xFFFFFFFFFFFFFFFFFFFFFFFFFFFFFFFFFFFFFFFF AND PUSH20 0xFFFFFFFFFFFFFFFFFFFFFFFFFFFFFFFFFFFFFFFF AND DUP2 MSTORE PUSH1 0x20 ADD SWAP1 DUP2 MSTORE PUSH1 0x20 ADD PUSH1 0x0 KECCAK256 PUSH1 0x0 PUSH2 0x100 EXP DUP2 SLOAD DUP2 PUSH1 0xFF MUL NOT AND SWAP1 DUP4 ISZERO ISZERO MUL OR SWAP1 SSTORE POP JUMPDEST DUP1 DUP1 PUSH2 0xA98 SWAP1 PUSH2 0x2492 JUMP JUMPDEST SWAP2 POP POP PUSH2 0x98C JUMP JUMPDEST POP CALLER PUSH20 0xFFFFFFFFFFFFFFFFFFFFFFFFFFFFFFFFFFFFFFFF AND DUP2 PUSH20 0xFFFFFFFFFFFFFFFFFFFFFFFFFFFFFFFFFFFFFFFF AND PUSH32 0xFD7E144A5E02C1180E00F9591EF4F60AA95B127C4F134847224A4B6CB99FEF96 PUSH1 0x40 MLOAD PUSH1 0x40 MLOAD DUP1 SWAP2 SUB SWAP1 LOG3 PUSH2 0xB3F JUMP JUMPDEST PUSH2 0xB3E PUSH1 0x40 MLOAD DUP1 PUSH1 0x40 ADD PUSH1 0x40 MSTORE DUP1 PUSH1 0x18 DUP2 MSTORE PUSH1 0x20 ADD PUSH32 0x596F752063616E6E6F742064656C6574652041444D494E2E0000000000000000 DUP2 MSTORE POP PUSH2 0x1A6F JUMP JUMPDEST JUMPDEST POP JUMP JUMPDEST PUSH1 0x60 DUP1 PUSH1 0x0 DUP4 DUP1 MLOAD SWAP1 PUSH1 0x20 ADD KECCAK256 SWAP1 POP PUSH1 0x0 DUP1 JUMPDEST PUSH1 0x0 DUP1 DUP5 DUP2 MSTORE PUSH1 0x20 ADD SWAP1 DUP2 MSTORE PUSH1 0x20 ADD PUSH1 0x0 KECCAK256 PUSH1 0x2 ADD SLOAD DUP2 LT ISZERO PUSH2 0xCD3 JUMPI PUSH1 0x0 DUP1 DUP5 DUP2 MSTORE PUSH1 0x20 ADD SWAP1 DUP2 MSTORE PUSH1 0x20 ADD PUSH1 0x0 KECCAK256 PUSH1 0x0 ADD PUSH1 0x0 DUP1 PUSH1 0x0 DUP7 DUP2 MSTORE PUSH1 0x20 ADD SWAP1 DUP2 MSTORE PUSH1 0x20 ADD PUSH1 0x0 KECCAK256 PUSH1 0x1 ADD PUSH1 0x0 DUP5 DUP2 MSTORE PUSH1 0x20 ADD SWAP1 DUP2 MSTORE PUSH1 0x20 ADD PUSH1 0x0 KECCAK256 PUSH1 0x0 SWAP1 SLOAD SWAP1 PUSH2 0x100 EXP SWAP1 DIV PUSH20 0xFFFFFFFFFFFFFFFFFFFFFFFFFFFFFFFFFFFFFFFF AND PUSH20 0xFFFFFFFFFFFFFFFFFFFFFFFFFFFFFFFFFFFFFFFF AND PUSH20 0xFFFFFFFFFFFFFFFFFFFFFFFFFFFFFFFFFFFFFFFF AND DUP2 MSTORE PUSH1 0x20 ADD SWAP1 DUP2 MSTORE PUSH1 0x20 ADD PUSH1 0x0 KECCAK256 PUSH1 0x0 SWAP1 SLOAD SWAP1 PUSH2 0x100 EXP SWAP1 DIV PUSH1 0xFF AND ISZERO PUSH2 0xCC0 JUMPI PUSH1 0x0 DUP1 DUP5 DUP2 MSTORE PUSH1 0x20 ADD SWAP1 DUP2 MSTORE PUSH1 0x20 ADD PUSH1 0x0 KECCAK256 PUSH1 0x1 ADD PUSH1 0x0 DUP3 DUP2 MSTORE PUSH1 0x20 ADD SWAP1 DUP2 MSTORE PUSH1 0x20 ADD PUSH1 0x0 KECCAK256 PUSH1 0x0 SWAP1 SLOAD SWAP1 PUSH2 0x100 EXP SWAP1 DIV PUSH20 0xFFFFFFFFFFFFFFFFFFFFFFFFFFFFFFFFFFFFFFFF AND DUP5 DUP4 DUP2 MLOAD DUP2 LT PUSH2 0xC77 JUMPI PUSH2 0xC76 PUSH2 0x250A JUMP JUMPDEST JUMPDEST PUSH1 0x20 MUL PUSH1 0x20 ADD ADD SWAP1 PUSH20 0xFFFFFFFFFFFFFFFFFFFFFFFFFFFFFFFFFFFFFFFF AND SWAP1 DUP2 PUSH20 0xFFFFFFFFFFFFFFFFFFFFFFFFFFFFFFFFFFFFFFFF AND DUP2 MSTORE POP POP DUP2 DUP1 PUSH2 0xCBC SWAP1 PUSH2 0x2492 JUMP JUMPDEST SWAP3 POP POP JUMPDEST DUP1 DUP1 PUSH2 0xCCB SWAP1 PUSH2 0x2492 JUMP JUMPDEST SWAP2 POP POP PUSH2 0xB55 JUMP JUMPDEST POP DUP3 SWAP4 POP POP POP POP SWAP2 SWAP1 POP JUMP JUMPDEST PUSH1 0x0 DUP1 PUSH1 0x0 SWAP1 POP JUMPDEST PUSH1 0x0 DUP1 PUSH32 0xDF8B4C520FFE197C5343C6F5AEC59570151EF9A492F2C624FD45DDDE6135EC42 DUP2 MSTORE PUSH1 0x20 ADD SWAP1 DUP2 MSTORE PUSH1 0x20 ADD PUSH1 0x0 KECCAK256 PUSH1 0x2 ADD SLOAD DUP2 LT ISZERO PUSH2 0xE27 JUMPI PUSH1 0x0 DUP1 PUSH32 0xDF8B4C520FFE197C5343C6F5AEC59570151EF9A492F2C624FD45DDDE6135EC42 DUP2 MSTORE PUSH1 0x20 ADD SWAP1 DUP2 MSTORE PUSH1 0x20 ADD PUSH1 0x0 KECCAK256 PUSH1 0x0 ADD PUSH1 0x0 DUP1 PUSH1 0x0 PUSH32 0xDF8B4C520FFE197C5343C6F5AEC59570151EF9A492F2C624FD45DDDE6135EC42 DUP2 MSTORE PUSH1 0x20 ADD SWAP1 DUP2 MSTORE PUSH1 0x20 ADD PUSH1 0x0 KECCAK256 PUSH1 0x1 ADD PUSH1 0x0 DUP5 DUP2 MSTORE PUSH1 0x20 ADD SWAP1 DUP2 MSTORE PUSH1 0x20 ADD PUSH1 0x0 KECCAK256 PUSH1 0x0 SWAP1 SLOAD SWAP1 PUSH2 0x100 EXP SWAP1 DIV PUSH20 0xFFFFFFFFFFFFFFFFFFFFFFFFFFFFFFFFFFFFFFFF AND PUSH20 0xFFFFFFFFFFFFFFFFFFFFFFFFFFFFFFFFFFFFFFFF AND PUSH20 0xFFFFFFFFFFFFFFFFFFFFFFFFFFFFFFFFFFFFFFFF AND DUP2 MSTORE PUSH1 0x20 ADD SWAP1 DUP2 MSTORE PUSH1 0x20 ADD PUSH1 0x0 KECCAK256 PUSH1 0x0 SWAP1 SLOAD SWAP1 PUSH2 0x100 EXP SWAP1 DIV PUSH1 0xFF AND ISZERO PUSH2 0xE14 JUMPI PUSH2 0xE27 JUMP JUMPDEST DUP1 DUP1 PUSH2 0xE1F SWAP1 PUSH2 0x2492 JUMP JUMPDEST SWAP2 POP POP PUSH2 0xCE7 JUMP JUMPDEST PUSH1 0x0 DUP1 PUSH32 0xDF8B4C520FFE197C5343C6F5AEC59570151EF9A492F2C624FD45DDDE6135EC42 DUP2 MSTORE PUSH1 0x20 ADD SWAP1 DUP2 MSTORE PUSH1 0x20 ADD PUSH1 0x0 KECCAK256 PUSH1 0x1 ADD PUSH1 0x0 DUP3 DUP2 MSTORE PUSH1 0x20 ADD SWAP1 DUP2 MSTORE PUSH1 0x20 ADD PUSH1 0x0 KECCAK256 PUSH1 0x0 SWAP1 SLOAD SWAP1 PUSH2 0x100 EXP SWAP1 DIV PUSH20 0xFFFFFFFFFFFFFFFFFFFFFFFFFFFFFFFFFFFFFFFF AND SWAP2 POP POP SWAP1 JUMP JUMPDEST PUSH1 0x0 DUP1 PUSH1 0x0 PUSH32 0xDF8B4C520FFE197C5343C6F5AEC59570151EF9A492F2C624FD45DDDE6135EC42 DUP2 MSTORE PUSH1 0x20 ADD SWAP1 DUP2 MSTORE PUSH1 0x20 ADD PUSH1 0x0 KECCAK256 PUSH1 0x0 ADD PUSH1 0x0 CALLER PUSH20 0xFFFFFFFFFFFFFFFFFFFFFFFFFFFFFFFFFFFFFFFF AND PUSH20 0xFFFFFFFFFFFFFFFFFFFFFFFFFFFFFFFFFFFFFFFF AND DUP2 MSTORE PUSH1 0x20 ADD SWAP1 DUP2 MSTORE PUSH1 0x20 ADD PUSH1 0x0 KECCAK256 PUSH1 0x0 PUSH2 0x100 EXP DUP2 SLOAD DUP2 PUSH1 0xFF MUL NOT AND SWAP1 DUP4 ISZERO ISZERO MUL OR SWAP1 SSTORE POP PUSH2 0xF49 PUSH32 0xDF8B4C520FFE197C5343C6F5AEC59570151EF9A492F2C624FD45DDDE6135EC42 DUP3 PUSH2 0x1ACB JUMP JUMPDEST PUSH1 0x1 PUSH1 0x0 DUP1 PUSH32 0xDF8B4C520FFE197C5343C6F5AEC59570151EF9A492F2C624FD45DDDE6135EC42 DUP2 MSTORE PUSH1 0x20 ADD SWAP1 DUP2 MSTORE PUSH1 0x20 ADD PUSH1 0x0 KECCAK256 PUSH1 0x0 ADD PUSH1 0x0 DUP4 PUSH20 0xFFFFFFFFFFFFFFFFFFFFFFFFFFFFFFFFFFFFFFFF AND PUSH20 0xFFFFFFFFFFFFFFFFFFFFFFFFFFFFFFFFFFFFFFFF AND DUP2 MSTORE PUSH1 0x20 ADD SWAP1 DUP2 MSTORE PUSH1 0x20 ADD PUSH1 0x0 KECCAK256 PUSH1 0x0 PUSH2 0x100 EXP DUP2 SLOAD DUP2 PUSH1 0xFF MUL NOT AND SWAP1 DUP4 ISZERO ISZERO MUL OR SWAP1 SSTORE POP CALLER PUSH20 0xFFFFFFFFFFFFFFFFFFFFFFFFFFFFFFFFFFFFFFFF AND DUP2 PUSH20 0xFFFFFFFFFFFFFFFFFFFFFFFFFFFFFFFFFFFFFFFF AND PUSH32 0x173DE3514D8508F36CE8C81D509ADCD8C8C76098400F685D3042B36F9A4160C3 PUSH1 0x40 MLOAD PUSH1 0x40 MLOAD DUP1 SWAP2 SUB SWAP1 LOG3 POP JUMP JUMPDEST PUSH1 0x60 DUP1 PUSH1 0x0 DUP1 JUMPDEST PUSH1 0x2 SLOAD DUP2 LT ISZERO PUSH2 0x110F JUMPI PUSH1 0x0 DUP1 PUSH1 0x1 PUSH1 0x0 DUP5 DUP2 MSTORE PUSH1 0x20 ADD SWAP1 DUP2 MSTORE PUSH1 0x20 ADD PUSH1 0x0 KECCAK256 SLOAD DUP2 MSTORE PUSH1 0x20 ADD SWAP1 DUP2 MSTORE PUSH1 0x20 ADD PUSH1 0x0 KECCAK256 PUSH1 0x0 ADD PUSH1 0x0 DUP7 PUSH20 0xFFFFFFFFFFFFFFFFFFFFFFFFFFFFFFFFFFFFFFFF AND PUSH20 0xFFFFFFFFFFFFFFFFFFFFFFFFFFFFFFFFFFFFFFFF AND DUP2 MSTORE PUSH1 0x20 ADD SWAP1 DUP2 MSTORE PUSH1 0x20 ADD PUSH1 0x0 KECCAK256 PUSH1 0x0 SWAP1 SLOAD SWAP1 PUSH2 0x100 EXP SWAP1 DIV PUSH1 0xFF AND ISZERO PUSH2 0x10FC JUMPI PUSH1 0x1 PUSH1 0x0 DUP3 DUP2 MSTORE PUSH1 0x20 ADD SWAP1 DUP2 MSTORE PUSH1 0x20 ADD PUSH1 0x0 KECCAK256 SLOAD DUP4 DUP4 DUP2 MLOAD DUP2 LT PUSH2 0x10E1 JUMPI PUSH2 0x10E0 PUSH2 0x250A JUMP JUMPDEST JUMPDEST PUSH1 0x20 MUL PUSH1 0x20 ADD ADD DUP2 DUP2 MSTORE POP POP DUP2 DUP1 PUSH2 0x10F8 SWAP1 PUSH2 0x2492 JUMP JUMPDEST SWAP3 POP POP JUMPDEST DUP1 DUP1 PUSH2 0x1107 SWAP1 PUSH2 0x2492 JUMP JUMPDEST SWAP2 POP POP PUSH2 0x1038 JUMP JUMPDEST POP DUP2 SWAP3 POP POP POP SWAP2 SWAP1 POP JUMP JUMPDEST PUSH1 0x0 PUSH2 0x112D DUP4 DUP1 MLOAD SWAP1 PUSH1 0x20 ADD KECCAK256 DUP4 PUSH2 0x75A JUMP JUMPDEST SWAP1 POP SWAP3 SWAP2 POP POP JUMP JUMPDEST PUSH1 0x0 DUP3 DUP1 MLOAD SWAP1 PUSH1 0x20 ADD KECCAK256 SWAP1 POP PUSH1 0x0 DUP3 DUP1 MLOAD SWAP1 PUSH1 0x20 ADD KECCAK256 SWAP1 POP PUSH1 0x0 DUP1 DUP4 DUP2 MSTORE PUSH1 0x20 ADD SWAP1 DUP2 MSTORE PUSH1 0x20 ADD PUSH1 0x0 KECCAK256 PUSH1 0x3 ADD PUSH1 0x0 SWAP1 SLOAD SWAP1 PUSH2 0x100 EXP SWAP1 DIV PUSH1 0xFF AND PUSH2 0x13E6 JUMPI PUSH2 0x117D DUP3 PUSH2 0x1C33 JUMP JUMPDEST PUSH1 0x1 PUSH1 0x0 DUP1 DUP5 DUP2 MSTORE PUSH1 0x20 ADD SWAP1 DUP2 MSTORE PUSH1 0x20 ADD PUSH1 0x0 KECCAK256 PUSH1 0x3 ADD PUSH1 0x0 PUSH2 0x100 EXP DUP2 SLOAD DUP2 PUSH1 0xFF MUL NOT AND SWAP1 DUP4 ISZERO ISZERO MUL OR SWAP1 SSTORE POP PUSH1 0x0 JUMPDEST PUSH1 0x0 DUP1 DUP4 DUP2 MSTORE PUSH1 0x20 ADD SWAP1 DUP2 MSTORE PUSH1 0x20 ADD PUSH1 0x0 KECCAK256 PUSH1 0x2 ADD SLOAD DUP2 LT ISZERO PUSH2 0x1358 JUMPI PUSH1 0x0 DUP1 PUSH1 0x0 DUP5 DUP2 MSTORE PUSH1 0x20 ADD SWAP1 DUP2 MSTORE PUSH1 0x20 ADD PUSH1 0x0 KECCAK256 PUSH1 0x1 ADD PUSH1 0x0 DUP4 DUP2 MSTORE PUSH1 0x20 ADD SWAP1 DUP2 MSTORE PUSH1 0x20 ADD PUSH1 0x0 KECCAK256 PUSH1 0x0 SWAP1 SLOAD SWAP1 PUSH2 0x100 EXP SWAP1 DIV PUSH20 0xFFFFFFFFFFFFFFFFFFFFFFFFFFFFFFFFFFFFFFFF AND SWAP1 POP PUSH1 0x0 DUP1 DUP5 DUP2 MSTORE PUSH1 0x20 ADD SWAP1 DUP2 MSTORE PUSH1 0x20 ADD PUSH1 0x0 KECCAK256 PUSH1 0x0 ADD PUSH1 0x0 DUP3 PUSH20 0xFFFFFFFFFFFFFFFFFFFFFFFFFFFFFFFFFFFFFFFF AND PUSH20 0xFFFFFFFFFFFFFFFFFFFFFFFFFFFFFFFFFFFFFFFF AND DUP2 MSTORE PUSH1 0x20 ADD SWAP1 DUP2 MSTORE PUSH1 0x20 ADD PUSH1 0x0 KECCAK256 PUSH1 0x0 SWAP1 SLOAD SWAP1 PUSH2 0x100 EXP SWAP1 DIV PUSH1 0xFF AND PUSH1 0x0 DUP1 DUP7 DUP2 MSTORE PUSH1 0x20 ADD SWAP1 DUP2 MSTORE PUSH1 0x20 ADD PUSH1 0x0 KECCAK256 PUSH1 0x0 ADD PUSH1 0x0 DUP4 PUSH20 0xFFFFFFFFFFFFFFFFFFFFFFFFFFFFFFFFFFFFFFFF AND PUSH20 0xFFFFFFFFFFFFFFFFFFFFFFFFFFFFFFFFFFFFFFFF AND DUP2 MSTORE PUSH1 0x20 ADD SWAP1 DUP2 MSTORE PUSH1 0x20 ADD PUSH1 0x0 KECCAK256 PUSH1 0x0 PUSH2 0x100 EXP DUP2 SLOAD DUP2 PUSH1 0xFF MUL NOT AND SWAP1 DUP4 ISZERO ISZERO MUL OR SWAP1 SSTORE POP DUP1 PUSH1 0x0 DUP1 DUP7 DUP2 MSTORE PUSH1 0x20 ADD SWAP1 DUP2 MSTORE PUSH1 0x20 ADD PUSH1 0x0 KECCAK256 PUSH1 0x1 ADD PUSH1 0x0 DUP5 DUP2 MSTORE PUSH1 0x20 ADD SWAP1 DUP2 MSTORE PUSH1 0x20 ADD PUSH1 0x0 KECCAK256 PUSH1 0x0 PUSH2 0x100 EXP DUP2 SLOAD DUP2 PUSH20 0xFFFFFFFFFFFFFFFFFFFFFFFFFFFFFFFFFFFFFFFF MUL NOT AND SWAP1 DUP4 PUSH20 0xFFFFFFFFFFFFFFFFFFFFFFFFFFFFFFFFFFFFFFFF AND MUL OR SWAP1 SSTORE POP POP DUP1 DUP1 PUSH2 0x1350 SWAP1 PUSH2 0x2492 JUMP JUMPDEST SWAP2 POP POP PUSH2 0x11AE JUMP JUMPDEST POP PUSH1 0x0 DUP1 DUP3 DUP2 MSTORE PUSH1 0x20 ADD SWAP1 DUP2 MSTORE PUSH1 0x20 ADD PUSH1 0x0 KECCAK256 PUSH1 0x2 ADD SLOAD PUSH1 0x0 DUP1 DUP5 DUP2 MSTORE PUSH1 0x20 ADD SWAP1 DUP2 MSTORE PUSH1 0x20 ADD PUSH1 0x0 KECCAK256 PUSH1 0x2 ADD DUP2 SWAP1 SSTORE POP CALLER PUSH20 0xFFFFFFFFFFFFFFFFFFFFFFFFFFFFFFFFFFFFFFFF AND DUP5 PUSH1 0x40 MLOAD PUSH2 0x13AD SWAP2 SWAP1 PUSH2 0x21A2 JUMP JUMPDEST PUSH1 0x40 MLOAD DUP1 SWAP2 SUB SWAP1 KECCAK256 PUSH32 0x629A748BA580FE181C6AE2D3673C4BDFEA9E1F2D334F36BEEC502AFF5DBAEFF2 PUSH1 0x40 MLOAD PUSH1 0x40 MLOAD DUP1 SWAP2 SUB SWAP1 LOG3 PUSH2 0x1425 JUMP JUMPDEST PUSH2 0x1424 PUSH1 0x40 MLOAD DUP1 PUSH1 0x40 ADD PUSH1 0x40 MSTORE DUP1 PUSH1 0x20 DUP2 MSTORE PUSH1 0x20 ADD PUSH32 0x546865207065726D697373696F6E2068617320616C726561792065786973742E DUP2 MSTORE POP PUSH2 0x1A6F JUMP JUMPDEST JUMPDEST POP POP POP POP JUMP JUMPDEST PUSH1 0x0 DUP2 DUP1 MLOAD SWAP1 PUSH1 0x20 ADD KECCAK256 SWAP1 POP PUSH1 0x0 DUP1 DUP3 DUP2 MSTORE PUSH1 0x20 ADD SWAP1 DUP2 MSTORE PUSH1 0x20 ADD PUSH1 0x0 KECCAK256 PUSH1 0x3 ADD PUSH1 0x0 SWAP1 SLOAD SWAP1 PUSH2 0x100 EXP SWAP1 DIV PUSH1 0xFF AND PUSH2 0x1750 JUMPI PUSH2 0x1467 DUP2 PUSH2 0x1C33 JUMP JUMPDEST PUSH1 0x1 PUSH1 0x0 DUP1 DUP4 DUP2 MSTORE PUSH1 0x20 ADD SWAP1 DUP2 MSTORE PUSH1 0x20 ADD PUSH1 0x0 KECCAK256 PUSH1 0x3 ADD PUSH1 0x0 PUSH2 0x100 EXP DUP2 SLOAD DUP2 PUSH1 0xFF MUL NOT AND SWAP1 DUP4 ISZERO ISZERO MUL OR SWAP1 SSTORE POP PUSH1 0x0 JUMPDEST PUSH1 0x0 DUP1 PUSH32 0xDF8B4C520FFE197C5343C6F5AEC59570151EF9A492F2C624FD45DDDE6135EC42 DUP2 MSTORE PUSH1 0x20 ADD SWAP1 DUP2 MSTORE PUSH1 0x20 ADD PUSH1 0x0 KECCAK256 PUSH1 0x2 ADD SLOAD DUP2 LT ISZERO PUSH2 0x16A2 JUMPI PUSH1 0x0 DUP1 PUSH1 0x0 PUSH32 0xDF8B4C520FFE197C5343C6F5AEC59570151EF9A492F2C624FD45DDDE6135EC42 DUP2 MSTORE PUSH1 0x20 ADD SWAP1 DUP2 MSTORE PUSH1 0x20 ADD PUSH1 0x0 KECCAK256 PUSH1 0x1 ADD PUSH1 0x0 DUP4 DUP2 MSTORE PUSH1 0x20 ADD SWAP1 DUP2 MSTORE PUSH1 0x20 ADD PUSH1 0x0 KECCAK256 PUSH1 0x0 SWAP1 SLOAD SWAP1 PUSH2 0x100 EXP SWAP1 DIV PUSH20 0xFFFFFFFFFFFFFFFFFFFFFFFFFFFFFFFFFFFFFFFF AND SWAP1 POP PUSH1 0x0 DUP1 PUSH32 0xDF8B4C520FFE197C5343C6F5AEC59570151EF9A492F2C624FD45DDDE6135EC42 DUP2 MSTORE PUSH1 0x20 ADD SWAP1 DUP2 MSTORE PUSH1 0x20 ADD PUSH1 0x0 KECCAK256 PUSH1 0x0 ADD PUSH1 0x0 DUP3 PUSH20 0xFFFFFFFFFFFFFFFFFFFFFFFFFFFFFFFFFFFFFFFF AND PUSH20 0xFFFFFFFFFFFFFFFFFFFFFFFFFFFFFFFFFFFFFFFF AND DUP2 MSTORE PUSH1 0x20 ADD SWAP1 DUP2 MSTORE PUSH1 0x20 ADD PUSH1 0x0 KECCAK256 PUSH1 0x0 SWAP1 SLOAD SWAP1 PUSH2 0x100 EXP SWAP1 DIV PUSH1 0xFF AND PUSH1 0x0 DUP1 DUP6 DUP2 MSTORE PUSH1 0x20 ADD SWAP1 DUP2 MSTORE PUSH1 0x20 ADD PUSH1 0x0 KECCAK256 PUSH1 0x0 ADD PUSH1 0x0 DUP4 PUSH20 0xFFFFFFFFFFFFFFFFFFFFFFFFFFFFFFFFFFFFFFFF AND PUSH20 0xFFFFFFFFFFFFFFFFFFFFFFFFFFFFFFFFFFFFFFFF AND DUP2 MSTORE PUSH1 0x20 ADD SWAP1 DUP2 MSTORE PUSH1 0x20 ADD PUSH1 0x0 KECCAK256 PUSH1 0x0 PUSH2 0x100 EXP DUP2 SLOAD DUP2 PUSH1 0xFF MUL NOT AND SWAP1 DUP4 ISZERO ISZERO MUL OR SWAP1 SSTORE POP DUP1 PUSH1 0x0 DUP1 DUP6 DUP2 MSTORE PUSH1 0x20 ADD SWAP1 DUP2 MSTORE PUSH1 0x20 ADD PUSH1 0x0 KECCAK256 PUSH1 0x1 ADD PUSH1 0x0 DUP5 DUP2 MSTORE PUSH1 0x20 ADD SWAP1 DUP2 MSTORE PUSH1 0x20 ADD PUSH1 0x0 KECCAK256 PUSH1 0x0 PUSH2 0x100 EXP DUP2 SLOAD DUP2 PUSH20 0xFFFFFFFFFFFFFFFFFFFFFFFFFFFFFFFFFFFFFFFF MUL NOT AND SWAP1 DUP4 PUSH20 0xFFFFFFFFFFFFFFFFFFFFFFFFFFFFFFFFFFFFFFFF AND MUL OR SWAP1 SSTORE POP POP DUP1 DUP1 PUSH2 0x169A SWAP1 PUSH2 0x2492 JUMP JUMPDEST SWAP2 POP POP PUSH2 0x1498 JUMP JUMPDEST POP PUSH1 0x0 DUP1 PUSH32 0xDF8B4C520FFE197C5343C6F5AEC59570151EF9A492F2C624FD45DDDE6135EC42 DUP2 MSTORE PUSH1 0x20 ADD SWAP1 DUP2 MSTORE PUSH1 0x20 ADD PUSH1 0x0 KECCAK256 PUSH1 0x2 ADD SLOAD PUSH1 0x0 DUP1 DUP4 DUP2 MSTORE PUSH1 0x20 ADD SWAP1 DUP2 MSTORE PUSH1 0x20 ADD PUSH1 0x0 KECCAK256 PUSH1 0x2 ADD DUP2 SWAP1 SSTORE POP CALLER PUSH20 0xFFFFFFFFFFFFFFFFFFFFFFFFFFFFFFFFFFFFFFFF AND DUP3 PUSH1 0x40 MLOAD PUSH2 0x1717 SWAP2 SWAP1 PUSH2 0x21A2 JUMP JUMPDEST PUSH1 0x40 MLOAD DUP1 SWAP2 SUB SWAP1 KECCAK256 PUSH32 0x629A748BA580FE181C6AE2D3673C4BDFEA9E1F2D334F36BEEC502AFF5DBAEFF2 PUSH1 0x40 MLOAD PUSH1 0x40 MLOAD DUP1 SWAP2 SUB SWAP1 LOG3 PUSH2 0x178F JUMP JUMPDEST PUSH2 0x178E PUSH1 0x40 MLOAD DUP1 PUSH1 0x40 ADD PUSH1 0x40 MSTORE DUP1 PUSH1 0x20 DUP2 MSTORE PUSH1 0x20 ADD PUSH32 0x546865207065726D697373696F6E2068617320616C726561792065786973742E DUP2 MSTORE POP PUSH2 0x1A6F JUMP JUMPDEST JUMPDEST POP POP JUMP JUMPDEST PUSH1 0x0 DUP3 DUP1 MLOAD SWAP1 PUSH1 0x20 ADD KECCAK256 SWAP1 POP PUSH1 0x0 DUP1 DUP3 DUP2 MSTORE PUSH1 0x20 ADD SWAP1 DUP2 MSTORE PUSH1 0x20 ADD PUSH1 0x0 KECCAK256 PUSH1 0x3 ADD PUSH1 0x0 SWAP1 SLOAD SWAP1 PUSH2 0x100 EXP SWAP1 DIV PUSH1 0xFF AND DUP1 ISZERO PUSH2 0x17EE JUMPI POP PUSH32 0xDF8B4C520FFE197C5343C6F5AEC59570151EF9A492F2C624FD45DDDE6135EC42 DUP2 EQ ISZERO JUMPDEST ISZERO PUSH2 0x18DD JUMPI PUSH2 0x17FD DUP2 DUP4 PUSH2 0x1ACB JUMP JUMPDEST PUSH1 0x1 PUSH1 0x0 DUP1 DUP4 DUP2 MSTORE PUSH1 0x20 ADD SWAP1 DUP2 MSTORE PUSH1 0x20 ADD PUSH1 0x0 KECCAK256 PUSH1 0x0 ADD PUSH1 0x0 DUP5 PUSH20 0xFFFFFFFFFFFFFFFFFFFFFFFFFFFFFFFFFFFFFFFF AND PUSH20 0xFFFFFFFFFFFFFFFFFFFFFFFFFFFFFFFFFFFFFFFF AND DUP2 MSTORE PUSH1 0x20 ADD SWAP1 DUP2 MSTORE PUSH1 0x20 ADD PUSH1 0x0 KECCAK256 PUSH1 0x0 PUSH2 0x100 EXP DUP2 SLOAD DUP2 PUSH1 0xFF MUL NOT AND SWAP1 DUP4 ISZERO ISZERO MUL OR SWAP1 SSTORE POP CALLER PUSH20 0xFFFFFFFFFFFFFFFFFFFFFFFFFFFFFFFFFFFFFFFF AND DUP3 PUSH20 0xFFFFFFFFFFFFFFFFFFFFFFFFFFFFFFFFFFFFFFFF AND DUP5 PUSH1 0x40 MLOAD PUSH2 0x18A4 SWAP2 SWAP1 PUSH2 0x21A2 JUMP JUMPDEST PUSH1 0x40 MLOAD DUP1 SWAP2 SUB SWAP1 KECCAK256 PUSH32 0x1BBDB8CA05419DFFB11AFA5105F78331A46E3D8A8B900EFB115BBB4175A9C2D3 PUSH1 0x40 MLOAD PUSH1 0x40 MLOAD DUP1 SWAP2 SUB SWAP1 LOG4 PUSH2 0x191C JUMP JUMPDEST PUSH2 0x191B PUSH1 0x40 MLOAD DUP1 PUSH1 0x40 ADD PUSH1 0x40 MSTORE DUP1 PUSH1 0x1C DUP2 MSTORE PUSH1 0x20 ADD PUSH32 0x546865207065726D697373696F6E206973206E6F742076616C69642E00000000 DUP2 MSTORE POP PUSH2 0x1A6F JUMP JUMPDEST JUMPDEST POP POP POP JUMP JUMPDEST PUSH1 0x0 DUP3 DUP1 MLOAD SWAP1 PUSH1 0x20 ADD KECCAK256 SWAP1 POP PUSH2 0x1937 DUP2 DUP4 PUSH2 0x75A JUMP JUMPDEST DUP1 ISZERO PUSH2 0x1963 JUMPI POP PUSH32 0xDF8B4C520FFE197C5343C6F5AEC59570151EF9A492F2C624FD45DDDE6135EC42 DUP2 EQ ISZERO JUMPDEST ISZERO PUSH2 0x1A48 JUMPI PUSH1 0x0 DUP1 PUSH1 0x0 DUP4 DUP2 MSTORE PUSH1 0x20 ADD SWAP1 DUP2 MSTORE PUSH1 0x20 ADD PUSH1 0x0 KECCAK256 PUSH1 0x0 ADD PUSH1 0x0 DUP5 PUSH20 0xFFFFFFFFFFFFFFFFFFFFFFFFFFFFFFFFFFFFFFFF AND PUSH20 0xFFFFFFFFFFFFFFFFFFFFFFFFFFFFFFFFFFFFFFFF AND DUP2 MSTORE PUSH1 0x20 ADD SWAP1 DUP2 MSTORE PUSH1 0x20 ADD PUSH1 0x0 KECCAK256 PUSH1 0x0 PUSH2 0x100 EXP DUP2 SLOAD DUP2 PUSH1 0xFF MUL NOT AND SWAP1 DUP4 ISZERO ISZERO MUL OR SWAP1 SSTORE POP CALLER PUSH20 0xFFFFFFFFFFFFFFFFFFFFFFFFFFFFFFFFFFFFFFFF AND DUP3 PUSH20 0xFFFFFFFFFFFFFFFFFFFFFFFFFFFFFFFFFFFFFFFF AND DUP5 PUSH1 0x40 MLOAD PUSH2 0x1A0F SWAP2 SWAP1 PUSH2 0x21A2 JUMP JUMPDEST PUSH1 0x40 MLOAD DUP1 SWAP2 SUB SWAP1 KECCAK256 PUSH32 0x5658F0A44F1B55364EF0376F818EA716AEE06D4E966974EDBA8AE1B8FA1E379C PUSH1 0x40 MLOAD PUSH1 0x40 MLOAD DUP1 SWAP2 SUB SWAP1 LOG4 PUSH2 0x1A6A JUMP JUMPDEST PUSH2 0x1A69 PUSH1 0x40 MLOAD DUP1 PUSH1 0x80 ADD PUSH1 0x40 MSTORE DUP1 PUSH1 0x44 DUP2 MSTORE PUSH1 0x20 ADD PUSH2 0x261D PUSH1 0x44 SWAP2 CODECOPY PUSH2 0x1A6F JUMP JUMPDEST JUMPDEST POP POP POP JUMP JUMPDEST DUP1 PUSH1 0x40 MLOAD PUSH1 0x20 ADD PUSH2 0x1A80 SWAP2 SWAP1 PUSH2 0x21B9 JUMP JUMPDEST PUSH1 0x40 MLOAD PUSH1 0x20 DUP2 DUP4 SUB SUB DUP2 MSTORE SWAP1 PUSH1 0x40 MSTORE PUSH1 0x40 MLOAD PUSH32 0x8C379A000000000000000000000000000000000000000000000000000000000 DUP2 MSTORE PUSH1 0x4 ADD PUSH2 0x1AC2 SWAP2 SWAP1 PUSH2 0x2255 JUMP JUMPDEST PUSH1 0x40 MLOAD DUP1 SWAP2 SUB SWAP1 REVERT JUMPDEST PUSH1 0x0 DUP1 JUMPDEST PUSH1 0x0 DUP1 DUP6 DUP2 MSTORE PUSH1 0x20 ADD SWAP1 DUP2 MSTORE PUSH1 0x20 ADD PUSH1 0x0 KECCAK256 PUSH1 0x2 ADD SLOAD DUP2 LT ISZERO PUSH2 0x1B82 JUMPI DUP3 PUSH20 0xFFFFFFFFFFFFFFFFFFFFFFFFFFFFFFFFFFFFFFFF AND PUSH1 0x0 DUP1 DUP7 DUP2 MSTORE PUSH1 0x20 ADD SWAP1 DUP2 MSTORE PUSH1 0x20 ADD PUSH1 0x0 KECCAK256 PUSH1 0x1 ADD PUSH1 0x0 DUP4 DUP2 MSTORE PUSH1 0x20 ADD SWAP1 DUP2 MSTORE PUSH1 0x20 ADD PUSH1 0x0 KECCAK256 PUSH1 0x0 SWAP1 SLOAD SWAP1 PUSH2 0x100 EXP SWAP1 DIV PUSH20 0xFFFFFFFFFFFFFFFFFFFFFFFFFFFFFFFFFFFFFFFF AND PUSH20 0xFFFFFFFFFFFFFFFFFFFFFFFFFFFFFFFFFFFFFFFF AND EQ ISZERO PUSH2 0x1B6F JUMPI PUSH1 0x1 SWAP2 POP PUSH2 0x1B82 JUMP JUMPDEST DUP1 DUP1 PUSH2 0x1B7A SWAP1 PUSH2 0x2492 JUMP JUMPDEST SWAP2 POP POP PUSH2 0x1ACF JUMP JUMPDEST POP DUP1 PUSH2 0x1C2E JUMPI DUP2 PUSH1 0x0 DUP1 DUP6 DUP2 MSTORE PUSH1 0x20 ADD SWAP1 DUP2 MSTORE PUSH1 0x20 ADD PUSH1 0x0 KECCAK256 PUSH1 0x1 ADD PUSH1 0x0 DUP1 PUSH1 0x0 DUP8 DUP2 MSTORE PUSH1 0x20 ADD SWAP1 DUP2 MSTORE PUSH1 0x20 ADD PUSH1 0x0 KECCAK256 PUSH1 0x2 ADD SLOAD DUP2 MSTORE PUSH1 0x20 ADD SWAP1 DUP2 MSTORE PUSH1 0x20 ADD PUSH1 0x0 KECCAK256 PUSH1 0x0 PUSH2 0x100 EXP DUP2 SLOAD DUP2 PUSH20 0xFFFFFFFFFFFFFFFFFFFFFFFFFFFFFFFFFFFFFFFF MUL NOT AND SWAP1 DUP4 PUSH20 0xFFFFFFFFFFFFFFFFFFFFFFFFFFFFFFFFFFFFFFFF AND MUL OR SWAP1 SSTORE POP PUSH1 0x0 DUP1 DUP5 DUP2 MSTORE PUSH1 0x20 ADD SWAP1 DUP2 MSTORE PUSH1 0x20 ADD PUSH1 0x0 KECCAK256 PUSH1 0x2 ADD PUSH1 0x0 DUP2 SLOAD DUP1 SWAP3 SWAP2 SWAP1 PUSH2 0x1C28 SWAP1 PUSH2 0x2492 JUMP JUMPDEST SWAP2 SWAP1 POP SSTORE POP JUMPDEST POP POP POP JUMP JUMPDEST PUSH1 0x0 DUP1 JUMPDEST PUSH1 0x2 SLOAD DUP2 LT ISZERO PUSH2 0x1C78 JUMPI DUP3 PUSH1 0x1 PUSH1 0x0 DUP4 DUP2 MSTORE PUSH1 0x20 ADD SWAP1 DUP2 MSTORE PUSH1 0x20 ADD PUSH1 0x0 KECCAK256 SLOAD EQ ISZERO PUSH2 0x1C65 JUMPI PUSH1 0x1 SWAP2 POP PUSH2 0x1C78 JUMP JUMPDEST DUP1 DUP1 PUSH2 0x1C70 SWAP1 PUSH2 0x2492 JUMP JUMPDEST SWAP2 POP POP PUSH2 0x1C37 JUMP JUMPDEST POP DUP1 PUSH2 0x1CB1 JUMPI DUP2 PUSH1 0x1 PUSH1 0x0 PUSH1 0x2 SLOAD DUP2 MSTORE PUSH1 0x20 ADD SWAP1 DUP2 MSTORE PUSH1 0x20 ADD PUSH1 0x0 KECCAK256 DUP2 SWAP1 SSTORE POP PUSH1 0x2 PUSH1 0x0 DUP2 SLOAD DUP1 SWAP3 SWAP2 SWAP1 PUSH2 0x1CAB SWAP1 PUSH2 0x2492 JUMP JUMPDEST SWAP2 SWAP1 POP SSTORE POP JUMPDEST POP POP JUMP JUMPDEST PUSH1 0x0 PUSH2 0x1CC8 PUSH2 0x1CC3 DUP5 PUSH2 0x22BC JUMP JUMPDEST PUSH2 0x2297 JUMP JUMPDEST SWAP1 POP DUP3 DUP2 MSTORE PUSH1 0x20 DUP2 ADD DUP5 DUP5 DUP5 ADD GT ISZERO PUSH2 0x1CE4 JUMPI PUSH2 0x1CE3 PUSH2 0x256D JUMP JUMPDEST JUMPDEST PUSH2 0x1CEF DUP5 DUP3 DUP6 PUSH2 0x241F JUMP JUMPDEST POP SWAP4 SWAP3 POP POP POP JUMP JUMPDEST PUSH1 0x0 PUSH2 0x1D0A PUSH2 0x1D05 DUP5 PUSH2 0x22ED JUMP JUMPDEST PUSH2 0x2297 JUMP JUMPDEST SWAP1 POP DUP3 DUP2 MSTORE PUSH1 0x20 DUP2 ADD DUP5 DUP5 DUP5 ADD GT ISZERO PUSH2 0x1D26 JUMPI PUSH2 0x1D25 PUSH2 0x256D JUMP JUMPDEST JUMPDEST PUSH2 0x1D31 DUP5 DUP3 DUP6 PUSH2 0x241F JUMP JUMPDEST POP SWAP4 SWAP3 POP POP POP JUMP JUMPDEST PUSH1 0x0 DUP2 CALLDATALOAD SWAP1 POP PUSH2 0x1D48 DUP2 PUSH2 0x2605 JUMP JUMPDEST SWAP3 SWAP2 POP POP JUMP JUMPDEST PUSH1 0x0 DUP3 PUSH1 0x1F DUP4 ADD SLT PUSH2 0x1D63 JUMPI PUSH2 0x1D62 PUSH2 0x2568 JUMP JUMPDEST JUMPDEST DUP2 CALLDATALOAD PUSH2 0x1D73 DUP5 DUP3 PUSH1 0x20 DUP7 ADD PUSH2 0x1CB5 JUMP JUMPDEST SWAP2 POP POP SWAP3 SWAP2 POP POP JUMP JUMPDEST PUSH1 0x0 DUP3 PUSH1 0x1F DUP4 ADD SLT PUSH2 0x1D91 JUMPI PUSH2 0x1D90 PUSH2 0x2568 JUMP JUMPDEST JUMPDEST DUP2 CALLDATALOAD PUSH2 0x1DA1 DUP5 DUP3 PUSH1 0x20 DUP7 ADD PUSH2 0x1CF7 JUMP JUMPDEST SWAP2 POP POP SWAP3 SWAP2 POP POP JUMP JUMPDEST PUSH1 0x0 PUSH1 0x20 DUP3 DUP5 SUB SLT ISZERO PUSH2 0x1DC0 JUMPI PUSH2 0x1DBF PUSH2 0x2577 JUMP JUMPDEST JUMPDEST PUSH1 0x0 PUSH2 0x1DCE DUP5 DUP3 DUP6 ADD PUSH2 0x1D39 JUMP JUMPDEST SWAP2 POP POP SWAP3 SWAP2 POP POP JUMP JUMPDEST PUSH1 0x0 PUSH1 0x20 DUP3 DUP5 SUB SLT ISZERO PUSH2 0x1DED JUMPI PUSH2 0x1DEC PUSH2 0x2577 JUMP JUMPDEST JUMPDEST PUSH1 0x0 DUP3 ADD CALLDATALOAD PUSH8 0xFFFFFFFFFFFFFFFF DUP2 GT ISZERO PUSH2 0x1E0B JUMPI PUSH2 0x1E0A PUSH2 0x2572 JUMP JUMPDEST JUMPDEST PUSH2 0x1E17 DUP5 DUP3 DUP6 ADD PUSH2 0x1D4E JUMP JUMPDEST SWAP2 POP POP SWAP3 SWAP2 POP POP JUMP JUMPDEST PUSH1 0x0 DUP1 PUSH1 0x40 DUP4 DUP6 SUB SLT ISZERO PUSH2 0x1E37 JUMPI PUSH2 0x1E36 PUSH2 0x2577 JUMP JUMPDEST JUMPDEST PUSH1 0x0 DUP4 ADD CALLDATALOAD PUSH8 0xFFFFFFFFFFFFFFFF DUP2 GT ISZERO PUSH2 0x1E55 JUMPI PUSH2 0x1E54 PUSH2 0x2572 JUMP JUMPDEST JUMPDEST PUSH2 0x1E61 DUP6 DUP3 DUP7 ADD PUSH2 0x1D4E JUMP JUMPDEST SWAP3 POP POP PUSH1 0x20 PUSH2 0x1E72 DUP6 DUP3 DUP7 ADD PUSH2 0x1D39 JUMP JUMPDEST SWAP2 POP POP SWAP3 POP SWAP3 SWAP1 POP JUMP JUMPDEST PUSH1 0x0 DUP1 PUSH1 0x40 DUP4 DUP6 SUB SLT ISZERO PUSH2 0x1E93 JUMPI PUSH2 0x1E92 PUSH2 0x2577 JUMP JUMPDEST JUMPDEST PUSH1 0x0 DUP4 ADD CALLDATALOAD PUSH8 0xFFFFFFFFFFFFFFFF DUP2 GT ISZERO PUSH2 0x1EB1 JUMPI PUSH2 0x1EB0 PUSH2 0x2572 JUMP JUMPDEST JUMPDEST PUSH2 0x1EBD DUP6 DUP3 DUP7 ADD PUSH2 0x1D4E JUMP JUMPDEST SWAP3 POP POP PUSH1 0x20 DUP4 ADD CALLDATALOAD PUSH8 0xFFFFFFFFFFFFFFFF DUP2 GT ISZERO PUSH2 0x1EDE JUMPI PUSH2 0x1EDD PUSH2 0x2572 JUMP JUMPDEST JUMPDEST PUSH2 0x1EEA DUP6 DUP3 DUP7 ADD PUSH2 0x1D4E JUMP JUMPDEST SWAP2 POP POP SWAP3 POP SWAP3 SWAP1 POP JUMP JUMPDEST PUSH1 0x0 PUSH1 0x20 DUP3 DUP5 SUB SLT ISZERO PUSH2 0x1F0A JUMPI PUSH2 0x1F09 PUSH2 0x2577 JUMP JUMPDEST JUMPDEST PUSH1 0x0 DUP3 ADD CALLDATALOAD PUSH8 0xFFFFFFFFFFFFFFFF DUP2 GT ISZERO PUSH2 0x1F28 JUMPI PUSH2 0x1F27 PUSH2 0x2572 JUMP JUMPDEST JUMPDEST PUSH2 0x1F34 DUP5 DUP3 DUP6 ADD PUSH2 0x1D7C JUMP JUMPDEST SWAP2 POP POP SWAP3 SWAP2 POP POP JUMP JUMPDEST PUSH1 0x0 DUP1 PUSH1 0x40 DUP4 DUP6 SUB SLT ISZERO PUSH2 0x1F54 JUMPI PUSH2 0x1F53 PUSH2 0x2577 JUMP JUMPDEST JUMPDEST PUSH1 0x0 DUP4 ADD CALLDATALOAD PUSH8 0xFFFFFFFFFFFFFFFF DUP2 GT ISZERO PUSH2 0x1F72 JUMPI PUSH2 0x1F71 PUSH2 0x2572 JUMP JUMPDEST JUMPDEST PUSH2 0x1F7E DUP6 DUP3 DUP7 ADD PUSH2 0x1D7C JUMP JUMPDEST SWAP3 POP POP PUSH1 0x20 PUSH2 0x1F8F DUP6 DUP3 DUP7 ADD PUSH2 0x1D39 JUMP JUMPDEST SWAP2 POP POP SWAP3 POP SWAP3 SWAP1 POP JUMP JUMPDEST PUSH1 0x0 PUSH2 0x1FA5 DUP4 DUP4 PUSH2 0x1FC9 JUMP JUMPDEST PUSH1 0x20 DUP4 ADD SWAP1 POP SWAP3 SWAP2 POP POP JUMP JUMPDEST PUSH1 0x0 PUSH2 0x1FBD DUP4 DUP4 PUSH2 0x20B2 JUMP JUMPDEST PUSH1 0x20 DUP4 ADD SWAP1 POP SWAP3 SWAP2 POP POP JUMP JUMPDEST PUSH2 0x1FD2 DUP2 PUSH2 0x23CD JUMP JUMPDEST DUP3 MSTORE POP POP JUMP JUMPDEST PUSH2 0x1FE1 DUP2 PUSH2 0x23CD JUMP JUMPDEST DUP3 MSTORE POP POP JUMP JUMPDEST PUSH1 0x0 PUSH2 0x1FF2 DUP3 PUSH2 0x233E JUMP JUMPDEST PUSH2 0x1FFC DUP2 DUP6 PUSH2 0x2384 JUMP JUMPDEST SWAP4 POP PUSH2 0x2007 DUP4 PUSH2 0x231E JUMP JUMPDEST DUP1 PUSH1 0x0 JUMPDEST DUP4 DUP2 LT ISZERO PUSH2 0x2038 JUMPI DUP2 MLOAD PUSH2 0x201F DUP9 DUP3 PUSH2 0x1F99 JUMP JUMPDEST SWAP8 POP PUSH2 0x202A DUP4 PUSH2 0x236A JUMP JUMPDEST SWAP3 POP POP PUSH1 0x1 DUP2 ADD SWAP1 POP PUSH2 0x200B JUMP JUMPDEST POP DUP6 SWAP4 POP POP POP POP SWAP3 SWAP2 POP POP JUMP JUMPDEST PUSH1 0x0 PUSH2 0x2050 DUP3 PUSH2 0x2349 JUMP JUMPDEST PUSH2 0x205A DUP2 DUP6 PUSH2 0x2395 JUMP JUMPDEST SWAP4 POP PUSH2 0x2065 DUP4 PUSH2 0x232E JUMP JUMPDEST DUP1 PUSH1 0x0 JUMPDEST DUP4 DUP2 LT ISZERO PUSH2 0x2096 JUMPI DUP2 MLOAD PUSH2 0x207D DUP9 DUP3 PUSH2 0x1FB1 JUMP JUMPDEST SWAP8 POP PUSH2 0x2088 DUP4 PUSH2 0x2377 JUMP JUMPDEST SWAP3 POP POP PUSH1 0x1 DUP2 ADD SWAP1 POP PUSH2 0x2069 JUMP JUMPDEST POP DUP6 SWAP4 POP POP POP POP SWAP3 SWAP2 POP POP JUMP JUMPDEST PUSH2 0x20AC DUP2 PUSH2 0x23DF JUMP JUMPDEST DUP3 MSTORE POP POP JUMP JUMPDEST PUSH2 0x20BB DUP2 PUSH2 0x23EB JUMP JUMPDEST DUP3 MSTORE POP POP JUMP JUMPDEST PUSH1 0x0 PUSH2 0x20CC DUP3 PUSH2 0x2354 JUMP JUMPDEST PUSH2 0x20D6 DUP2 DUP6 PUSH2 0x23A6 JUMP JUMPDEST SWAP4 POP PUSH2 0x20E6 DUP2 DUP6 PUSH1 0x20 DUP7 ADD PUSH2 0x242E JUMP JUMPDEST DUP1 DUP5 ADD SWAP2 POP POP SWAP3 SWAP2 POP POP JUMP JUMPDEST PUSH1 0x0 PUSH2 0x20FD DUP3 PUSH2 0x235F JUMP JUMPDEST PUSH2 0x2107 DUP2 DUP6 PUSH2 0x23B1 JUMP JUMPDEST SWAP4 POP PUSH2 0x2117 DUP2 DUP6 PUSH1 0x20 DUP7 ADD PUSH2 0x242E JUMP JUMPDEST PUSH2 0x2120 DUP2 PUSH2 0x257C JUMP JUMPDEST DUP5 ADD SWAP2 POP POP SWAP3 SWAP2 POP POP JUMP JUMPDEST PUSH1 0x0 PUSH2 0x2136 DUP3 PUSH2 0x235F JUMP JUMPDEST PUSH2 0x2140 DUP2 DUP6 PUSH2 0x23C2 JUMP JUMPDEST SWAP4 POP PUSH2 0x2150 DUP2 DUP6 PUSH1 0x20 DUP7 ADD PUSH2 0x242E JUMP JUMPDEST DUP1 DUP5 ADD SWAP2 POP POP SWAP3 SWAP2 POP POP JUMP JUMPDEST PUSH1 0x0 PUSH2 0x2169 PUSH1 0xF DUP4 PUSH2 0x23C2 JUMP JUMPDEST SWAP2 POP PUSH2 0x2174 DUP3 PUSH2 0x258D JUMP JUMPDEST PUSH1 0xF DUP3 ADD SWAP1 POP SWAP2 SWAP1 POP JUMP JUMPDEST PUSH1 0x0 PUSH2 0x218C PUSH1 0x3E DUP4 PUSH2 0x23B1 JUMP JUMPDEST SWAP2 POP PUSH2 0x2197 DUP3 PUSH2 0x25B6 JUMP JUMPDEST PUSH1 0x40 DUP3 ADD SWAP1 POP SWAP2 SWAP1 POP JUMP JUMPDEST PUSH1 0x0 PUSH2 0x21AE DUP3 DUP5 PUSH2 0x20C1 JUMP JUMPDEST SWAP2 POP DUP2 SWAP1 POP SWAP3 SWAP2 POP POP JUMP JUMPDEST PUSH1 0x0 PUSH2 0x21C4 DUP3 PUSH2 0x215C JUMP JUMPDEST SWAP2 POP PUSH2 0x21D0 DUP3 DUP5 PUSH2 0x212B JUMP JUMPDEST SWAP2 POP DUP2 SWAP1 POP SWAP3 SWAP2 POP POP JUMP JUMPDEST PUSH1 0x0 PUSH1 0x20 DUP3 ADD SWAP1 POP PUSH2 0x21F0 PUSH1 0x0 DUP4 ADD DUP5 PUSH2 0x1FD8 JUMP JUMPDEST SWAP3 SWAP2 POP POP JUMP JUMPDEST PUSH1 0x0 PUSH1 0x20 DUP3 ADD SWAP1 POP DUP2 DUP2 SUB PUSH1 0x0 DUP4 ADD MSTORE PUSH2 0x2210 DUP2 DUP5 PUSH2 0x1FE7 JUMP JUMPDEST SWAP1 POP SWAP3 SWAP2 POP POP JUMP JUMPDEST PUSH1 0x0 PUSH1 0x20 DUP3 ADD SWAP1 POP DUP2 DUP2 SUB PUSH1 0x0 DUP4 ADD MSTORE PUSH2 0x2232 DUP2 DUP5 PUSH2 0x2045 JUMP JUMPDEST SWAP1 POP SWAP3 SWAP2 POP POP JUMP JUMPDEST PUSH1 0x0 PUSH1 0x20 DUP3 ADD SWAP1 POP PUSH2 0x224F PUSH1 0x0 DUP4 ADD DUP5 PUSH2 0x20A3 JUMP JUMPDEST SWAP3 SWAP2 POP POP JUMP JUMPDEST PUSH1 0x0 PUSH1 0x20 DUP3 ADD SWAP1 POP DUP2 DUP2 SUB PUSH1 0x0 DUP4 ADD MSTORE PUSH2 0x226F DUP2 DUP5 PUSH2 0x20F2 JUMP JUMPDEST SWAP1 POP SWAP3 SWAP2 POP POP JUMP JUMPDEST PUSH1 0x0 PUSH1 0x20 DUP3 ADD SWAP1 POP DUP2 DUP2 SUB PUSH1 0x0 DUP4 ADD MSTORE PUSH2 0x2290 DUP2 PUSH2 0x217F JUMP JUMPDEST SWAP1 POP SWAP2 SWAP1 POP JUMP JUMPDEST PUSH1 0x0 PUSH2 0x22A1 PUSH2 0x22B2 JUMP JUMPDEST SWAP1 POP PUSH2 0x22AD DUP3 DUP3 PUSH2 0x2461 JUMP JUMPDEST SWAP2 SWAP1 POP JUMP JUMPDEST PUSH1 0x0 PUSH1 0x40 MLOAD SWAP1 POP SWAP1 JUMP JUMPDEST PUSH1 0x0 PUSH8 0xFFFFFFFFFFFFFFFF DUP3 GT ISZERO PUSH2 0x22D7 JUMPI PUSH2 0x22D6 PUSH2 0x2539 JUMP JUMPDEST JUMPDEST PUSH2 0x22E0 DUP3 PUSH2 0x257C JUMP JUMPDEST SWAP1 POP PUSH1 0x20 DUP2 ADD SWAP1 POP SWAP2 SWAP1 POP JUMP JUMPDEST PUSH1 0x0 PUSH8 0xFFFFFFFFFFFFFFFF DUP3 GT ISZERO PUSH2 0x2308 JUMPI PUSH2 0x2307 PUSH2 0x2539 JUMP JUMPDEST JUMPDEST PUSH2 0x2311 DUP3 PUSH2 0x257C JUMP JUMPDEST SWAP1 POP PUSH1 0x20 DUP2 ADD SWAP1 POP SWAP2 SWAP1 POP JUMP JUMPDEST PUSH1 0x0 DUP2 SWAP1 POP PUSH1 0x20 DUP3 ADD SWAP1 POP SWAP2 SWAP1 POP JUMP JUMPDEST PUSH1 0x0 DUP2 SWAP1 POP PUSH1 0x20 DUP3 ADD SWAP1 POP SWAP2 SWAP1 POP JUMP JUMPDEST PUSH1 0x0 DUP2 MLOAD SWAP1 POP SWAP2 SWAP1 POP JUMP JUMPDEST PUSH1 0x0 DUP2 MLOAD SWAP1 POP SWAP2 SWAP1 POP JUMP JUMPDEST PUSH1 0x0 DUP2 MLOAD SWAP1 POP SWAP2 SWAP1 POP JUMP JUMPDEST PUSH1 0x0 DUP2 MLOAD SWAP1 POP SWAP2 SWAP1 POP JUMP JUMPDEST PUSH1 0x0 PUSH1 0x20 DUP3 ADD SWAP1 POP SWAP2 SWAP1 POP JUMP JUMPDEST PUSH1 0x0 PUSH1 0x20 DUP3 ADD SWAP1 POP SWAP2 SWAP1 POP JUMP JUMPDEST PUSH1 0x0 DUP3 DUP3 MSTORE PUSH1 0x20 DUP3 ADD SWAP1 POP SWAP3 SWAP2 POP POP JUMP JUMPDEST PUSH1 0x0 DUP3 DUP3 MSTORE PUSH1 0x20 DUP3 ADD SWAP1 POP SWAP3 SWAP2 POP POP JUMP JUMPDEST PUSH1 0x0 DUP2 SWAP1 POP SWAP3 SWAP2 POP POP JUMP JUMPDEST PUSH1 0x0 DUP3 DUP3 MSTORE PUSH1 0x20 DUP3 ADD SWAP1 POP SWAP3 SWAP2 POP POP JUMP JUMPDEST PUSH1 0x0 DUP2 SWAP1 POP SWAP3 SWAP2 POP POP JUMP JUMPDEST PUSH1 0x0 PUSH2 0x23D8 DUP3 PUSH2 0x23F5 JUMP JUMPDEST SWAP1 POP SWAP2 SWAP1 POP JUMP JUMPDEST PUSH1 0x0 DUP2 ISZERO ISZERO SWAP1 POP SWAP2 SWAP1 POP JUMP JUMPDEST PUSH1 0x0 DUP2 SWAP1 POP SWAP2 SWAP1 POP JUMP JUMPDEST PUSH1 0x0 PUSH20 0xFFFFFFFFFFFFFFFFFFFFFFFFFFFFFFFFFFFFFFFF DUP3 AND SWAP1 POP SWAP2 SWAP1 POP JUMP JUMPDEST PUSH1 0x0 DUP2 SWAP1 POP SWAP2 SWAP1 POP JUMP JUMPDEST DUP3 DUP2 DUP4 CALLDATACOPY PUSH1 0x0 DUP4 DUP4 ADD MSTORE POP POP POP JUMP JUMPDEST PUSH1 0x0 JUMPDEST DUP4 DUP2 LT ISZERO PUSH2 0x244C JUMPI DUP1 DUP3 ADD MLOAD DUP2 DUP5 ADD MSTORE PUSH1 0x20 DUP2 ADD SWAP1 POP PUSH2 0x2431 JUMP JUMPDEST DUP4 DUP2 GT ISZERO PUSH2 0x245B JUMPI PUSH1 0x0 DUP5 DUP5 ADD MSTORE JUMPDEST POP POP POP POP JUMP JUMPDEST PUSH2 0x246A DUP3 PUSH2 0x257C JUMP JUMPDEST DUP2 ADD DUP2 DUP2 LT PUSH8 0xFFFFFFFFFFFFFFFF DUP3 GT OR ISZERO PUSH2 0x2489 JUMPI PUSH2 0x2488 PUSH2 0x2539 JUMP JUMPDEST JUMPDEST DUP1 PUSH1 0x40 MSTORE POP POP POP JUMP JUMPDEST PUSH1 0x0 PUSH2 0x249D DUP3 PUSH2 0x2415 JUMP JUMPDEST SWAP2 POP PUSH32 0xFFFFFFFFFFFFFFFFFFFFFFFFFFFFFFFFFFFFFFFFFFFFFFFFFFFFFFFFFFFFFFFF DUP3 EQ ISZERO PUSH2 0x24D0 JUMPI PUSH2 0x24CF PUSH2 0x24DB JUMP JUMPDEST JUMPDEST PUSH1 0x1 DUP3 ADD SWAP1 POP SWAP2 SWAP1 POP JUMP JUMPDEST PUSH32 0x4E487B7100000000000000000000000000000000000000000000000000000000 PUSH1 0x0 MSTORE PUSH1 0x11 PUSH1 0x4 MSTORE PUSH1 0x24 PUSH1 0x0 REVERT JUMPDEST PUSH32 0x4E487B7100000000000000000000000000000000000000000000000000000000 PUSH1 0x0 MSTORE PUSH1 0x32 PUSH1 0x4 MSTORE PUSH1 0x24 PUSH1 0x0 REVERT JUMPDEST PUSH32 0x4E487B7100000000000000000000000000000000000000000000000000000000 PUSH1 0x0 MSTORE PUSH1 0x41 PUSH1 0x4 MSTORE PUSH1 0x24 PUSH1 0x0 REVERT JUMPDEST PUSH1 0x0 DUP1 REVERT JUMPDEST PUSH1 0x0 DUP1 REVERT JUMPDEST PUSH1 0x0 DUP1 REVERT JUMPDEST PUSH1 0x0 DUP1 REVERT JUMPDEST PUSH1 0x0 PUSH1 0x1F NOT PUSH1 0x1F DUP4 ADD AND SWAP1 POP SWAP2 SWAP1 POP JUMP JUMPDEST PUSH32 0x416363657373436F6E74726F6C3A200000000000000000000000000000000000 PUSH1 0x0 DUP3 ADD MSTORE POP JUMP JUMPDEST PUSH32 0x416363657373436F6E74726F6C3A20596F752068617665206E6F207065726D69 PUSH1 0x0 DUP3 ADD MSTORE PUSH32 0x7373696F6E20746F2061636365737320746869732066756E6374696F6E2E0000 PUSH1 0x20 DUP3 ADD MSTORE POP JUMP JUMPDEST PUSH2 0x260E DUP2 PUSH2 0x23CD JUMP JUMPDEST DUP2 EQ PUSH2 0x2619 JUMPI PUSH1 0x0 DUP1 REVERT JUMPDEST POP JUMP INVALID SLOAD PUSH9 0x65207065726D697373 PUSH10 0x6F6E206973206E6F7420 PUSH23 0x616C6964206F7220746865206163636F756E7420697320 PUSH15 0x6F7420696E20746865207065726D69 PUSH20 0x73696F6E2EA26469706673582212200E525DA8B1 NOT CALL 0xBE 0xDA 0x25 0x2C PC MSIZE CREATE2 SSTORE 0xC 0xAA PUSH5 0xF623E90399 ISZERO 0xFC 0xF7 0xCE 0xDD 0xE3 EQ SHR POP PUSH5 0x736F6C6343 STOP ADDMOD SMOD STOP CALLER "
				},
				"gasEstimates": {
					"creation": {
						"codeDepositCost": "1975600",
						"executionCost": "infinite",
						"totalCost": "infinite"
					},
					"external": {
						"createPermission(bytes)": "infinite",
						"createPermissionByLevel(bytes,bytes)": "infinite",
						"deleteAccount(address)": "infinite",
						"deletePermission(bytes)": "infinite",
						"grantAccountPermission(bytes,address)": "infinite",
						"inquiryAccountPermission(string,address)": "infinite",
						"inquiryAdmin()": "infinite",
						"inquiryAllAccountsByPermission(string)": "infinite",
						"inquiryAllPermissionsByAccount(address)": "infinite",
						"revokeAccountPermission(bytes,address)": "infinite",
						"transferAdmin(address)": "infinite"
					}
				},
				"methodIdentifiers": {
					"createPermission(bytes)": "aae7c78a",
					"createPermissionByLevel(bytes,bytes)": "a10f9524",
					"deleteAccount(address)": "4c1b64cb",
					"deletePermission(bytes)": "342da059",
					"grantAccountPermission(bytes,address)": "c7dc6220",
					"inquiryAccountPermission(string,address)": "a076a09e",
					"inquiryAdmin()": "7058dd24",
					"inquiryAllAccountsByPermission(string)": "56353d82",
					"inquiryAllPermissionsByAccount(address)": "80891cb2",
					"revokeAccountPermission(bytes,address)": "c98d6f1e",
					"transferAdmin(address)": "75829def"
				}
			},
			"storageLayout": {
				"storage": [
					{
						"astId": 22,
						"contract": "contracts/organization/DaoAccessControl.sol:DaoAccessControl",
						"label": "_allPermissions",
						"offset": 0,
						"slot": "0",
						"type": "t_mapping(t_bytes32,t_struct(MembersData)17_storage)"
					},
					{
						"astId": 26,
						"contract": "contracts/organization/DaoAccessControl.sol:DaoAccessControl",
						"label": "_indexOfPermissions",
						"offset": 0,
						"slot": "1",
						"type": "t_mapping(t_uint256,t_bytes32)"
					},
					{
						"astId": 28,
						"contract": "contracts/organization/DaoAccessControl.sol:DaoAccessControl",
						"label": "_numberOfPermissions",
						"offset": 0,
						"slot": "2",
						"type": "t_uint256"
					}
				],
				"types": {
					"t_address": {
						"encoding": "inplace",
						"label": "address",
						"numberOfBytes": "20"
					},
					"t_bool": {
						"encoding": "inplace",
						"label": "bool",
						"numberOfBytes": "1"
					},
					"t_bytes32": {
						"encoding": "inplace",
						"label": "bytes32",
						"numberOfBytes": "32"
					},
					"t_mapping(t_address,t_bool)": {
						"encoding": "mapping",
						"key": "t_address",
						"label": "mapping(address => bool)",
						"numberOfBytes": "32",
						"value": "t_bool"
					},
					"t_mapping(t_bytes32,t_struct(MembersData)17_storage)": {
						"encoding": "mapping",
						"key": "t_bytes32",
						"label": "mapping(bytes32 => struct AccessControl.MembersData)",
						"numberOfBytes": "32",
						"value": "t_struct(MembersData)17_storage"
					},
					"t_mapping(t_uint256,t_address)": {
						"encoding": "mapping",
						"key": "t_uint256",
						"label": "mapping(uint256 => address)",
						"numberOfBytes": "32",
						"value": "t_address"
					},
					"t_mapping(t_uint256,t_bytes32)": {
						"encoding": "mapping",
						"key": "t_uint256",
						"label": "mapping(uint256 => bytes32)",
						"numberOfBytes": "32",
						"value": "t_bytes32"
					},
					"t_struct(MembersData)17_storage": {
						"encoding": "inplace",
						"label": "struct AccessControl.MembersData",
						"members": [
							{
								"astId": 8,
								"contract": "contracts/organization/DaoAccessControl.sol:DaoAccessControl",
								"label": "members",
								"offset": 0,
								"slot": "0",
								"type": "t_mapping(t_address,t_bool)"
							},
							{
								"astId": 12,
								"contract": "contracts/organization/DaoAccessControl.sol:DaoAccessControl",
								"label": "index",
								"offset": 0,
								"slot": "1",
								"type": "t_mapping(t_uint256,t_address)"
							},
							{
								"astId": 14,
								"contract": "contracts/organization/DaoAccessControl.sol:DaoAccessControl",
								"label": "length",
								"offset": 0,
								"slot": "2",
								"type": "t_uint256"
							},
							{
								"astId": 16,
								"contract": "contracts/organization/DaoAccessControl.sol:DaoAccessControl",
								"label": "isValid",
								"offset": 0,
								"slot": "3",
								"type": "t_bool"
							}
						],
						"numberOfBytes": "128"
					},
					"t_uint256": {
						"encoding": "inplace",
						"label": "uint256",
						"numberOfBytes": "32"
					}
				}
			},
			"userdoc": {
				"kind": "user",
				"methods": {},
				"version": 1
			}
		}
	}
}