{
	"contracts/organization/DaoAccessControl.sol": {
		"DaoAccessControl": {
			"abi": [
				{
					"inputs": [],
					"stateMutability": "nonpayable",
					"type": "constructor"
				},
				{
					"anonymous": false,
					"inputs": [
						{
							"indexed": true,
							"internalType": "address",
							"name": "account",
							"type": "address"
						},
						{
							"indexed": true,
							"internalType": "address",
							"name": "sender",
							"type": "address"
						}
					],
					"name": "AccountDeleted",
					"type": "event"
				},
				{
					"anonymous": false,
					"inputs": [
						{
							"indexed": true,
							"internalType": "address",
							"name": "newAdmin",
							"type": "address"
						},
						{
							"indexed": true,
							"internalType": "address",
							"name": "previousAdmin",
							"type": "address"
						}
					],
					"name": "AdminTransfered",
					"type": "event"
				},
				{
					"anonymous": false,
					"inputs": [
						{
							"indexed": true,
							"internalType": "bytes",
							"name": "permissionName",
							"type": "bytes"
						},
						{
							"indexed": true,
							"internalType": "address",
							"name": "sender",
							"type": "address"
						}
					],
					"name": "PermissionCreated",
					"type": "event"
				},
				{
					"anonymous": false,
					"inputs": [
						{
							"indexed": true,
							"internalType": "bytes",
							"name": "permissionName",
							"type": "bytes"
						},
						{
							"indexed": true,
							"internalType": "address",
							"name": "sender",
							"type": "address"
						}
					],
					"name": "PermissionDeleted",
					"type": "event"
				},
				{
					"anonymous": false,
					"inputs": [
						{
							"indexed": true,
							"internalType": "bytes",
							"name": "permissionName",
							"type": "bytes"
						},
						{
							"indexed": true,
							"internalType": "address",
							"name": "account",
							"type": "address"
						},
						{
							"indexed": true,
							"internalType": "address",
							"name": "sender",
							"type": "address"
						}
					],
					"name": "PermissionGranted",
					"type": "event"
				},
				{
					"anonymous": false,
					"inputs": [
						{
							"indexed": true,
							"internalType": "bytes",
							"name": "permissionName",
							"type": "bytes"
						},
						{
							"indexed": true,
							"internalType": "address",
							"name": "account",
							"type": "address"
						},
						{
							"indexed": true,
							"internalType": "address",
							"name": "sender",
							"type": "address"
						}
					],
					"name": "PermissionRevoked",
					"type": "event"
				},
				{
					"inputs": [
						{
							"internalType": "bytes",
							"name": "permissionName",
							"type": "bytes"
						}
					],
					"name": "createPermission",
					"outputs": [],
					"stateMutability": "nonpayable",
					"type": "function"
				},
				{
					"inputs": [
						{
							"internalType": "bytes",
							"name": "permissionName",
							"type": "bytes"
						},
						{
							"internalType": "bytes",
							"name": "permissionAlready",
							"type": "bytes"
						}
					],
					"name": "createPermissionByLevel",
					"outputs": [],
					"stateMutability": "nonpayable",
					"type": "function"
				},
				{
					"inputs": [
						{
							"internalType": "address",
							"name": "account",
							"type": "address"
						}
					],
					"name": "deleteAccount",
					"outputs": [],
					"stateMutability": "nonpayable",
					"type": "function"
				},
				{
					"inputs": [
						{
							"internalType": "bytes",
							"name": "permissionName",
							"type": "bytes"
						}
					],
					"name": "deletePermission",
					"outputs": [],
					"stateMutability": "nonpayable",
					"type": "function"
				},
				{
					"inputs": [
						{
							"internalType": "bytes",
							"name": "permissionName",
							"type": "bytes"
						},
						{
							"internalType": "address",
							"name": "account",
							"type": "address"
						}
					],
					"name": "grantAccountPermission",
					"outputs": [],
					"stateMutability": "nonpayable",
					"type": "function"
				},
				{
					"inputs": [
						{
							"internalType": "bytes",
							"name": "permissionName",
							"type": "bytes"
						},
						{
							"internalType": "address",
							"name": "account",
							"type": "address"
						}
					],
					"name": "inquiryAccountPermission",
					"outputs": [
						{
							"internalType": "bool",
							"name": "",
							"type": "bool"
						}
					],
					"stateMutability": "view",
					"type": "function"
				},
				{
					"inputs": [],
					"name": "inquiryAdmin",
					"outputs": [
						{
							"internalType": "address",
							"name": "",
							"type": "address"
						}
					],
					"stateMutability": "view",
					"type": "function"
				},
				{
					"inputs": [
						{
							"internalType": "bytes",
							"name": "permissionName",
							"type": "bytes"
						}
					],
					"name": "inquiryAllAccountsByPermission",
					"outputs": [
						{
							"internalType": "address[]",
							"name": "",
							"type": "address[]"
						}
					],
					"stateMutability": "view",
					"type": "function"
				},
				{
					"inputs": [
						{
							"internalType": "address",
							"name": "account",
							"type": "address"
						}
					],
					"name": "inquiryAllPermissionsByAccount",
					"outputs": [
						{
							"internalType": "bytes32[]",
							"name": "",
							"type": "bytes32[]"
						}
					],
					"stateMutability": "view",
					"type": "function"
				},
				{
					"inputs": [
						{
							"internalType": "bytes",
							"name": "permissionName",
							"type": "bytes"
						},
						{
							"internalType": "address",
							"name": "account",
							"type": "address"
						}
					],
					"name": "revokeAccountPermission",
					"outputs": [],
					"stateMutability": "nonpayable",
					"type": "function"
				},
				{
					"inputs": [
						{
							"internalType": "address",
							"name": "account",
							"type": "address"
						}
					],
					"name": "transferAdmin",
					"outputs": [],
					"stateMutability": "nonpayable",
					"type": "function"
				}
			],
			"devdoc": {
				"kind": "dev",
				"methods": {},
				"version": 1
			},
			"evm": {
				"assembly": "    /* \"contracts/organization/DaoAccessControl.sol\":98:2575  contract DaoAccessControl is AccessControl{\r... */\n  mstore(0x40, 0x80)\n    /* \"contracts/organization/DaoAccessControl.sol\":149:195  constructor() {\r... */\n  callvalue\n  dup1\n  iszero\n  tag_1\n  jumpi\n  0x00\n  dup1\n  revert\ntag_1:\n  pop\n    /* \"contracts/organization/DaoAccessControl.sol\":174:187  _initialize() */\n  tag_4\n    /* \"contracts/organization/DaoAccessControl.sol\":174:185  _initialize */\n  shl(0x20, tag_5)\n    /* \"contracts/organization/DaoAccessControl.sol\":174:187  _initialize() */\n  0x20\n  shr\n  jump\t// in\ntag_4:\n    /* \"contracts/organization/DaoAccessControl.sol\":98:2575  contract DaoAccessControl is AccessControl{\r... */\n  jump(tag_6)\n    /* \"contracts/AccessControl.sol\":2472:2805  function _initialize() internal virtual {\r... */\ntag_5:\n    /* \"contracts/AccessControl.sol\":2556:2560  true */\n  0x01\n    /* \"contracts/AccessControl.sol\":2523:2538  _allPermissions */\n  0x00\n    /* \"contracts/AccessControl.sol\":2523:2545  _allPermissions[ADMIN] */\n  dup1\n    /* \"contracts/AccessControl.sol\":677:695  keccak256(\"ADMIN\") */\n  0xdf8b4c520ffe197c5343c6f5aec59570151ef9a492f2c624fd45ddde6135ec42\n    /* \"contracts/AccessControl.sol\":2523:2545  _allPermissions[ADMIN] */\n  dup2\n  mstore\n  0x20\n  add\n  swap1\n  dup2\n  mstore\n  0x20\n  add\n  0x00\n  keccak256\n    /* \"contracts/AccessControl.sol\":2523:2553  _allPermissions[ADMIN].isValid */\n  0x03\n  add\n  0x00\n    /* \"contracts/AccessControl.sol\":2523:2560  _allPermissions[ADMIN].isValid = true */\n  0x0100\n  exp\n  dup2\n  sload\n  dup2\n  0xff\n  mul\n  not\n  and\n  swap1\n  dup4\n  iszero\n  iszero\n  mul\n  or\n  swap1\n  sstore\n  pop\n    /* \"contracts/AccessControl.sol\":2616:2620  true */\n  0x01\n    /* \"contracts/AccessControl.sol\":2571:2586  _allPermissions */\n  0x00\n    /* \"contracts/AccessControl.sol\":2571:2593  _allPermissions[ADMIN] */\n  dup1\n    /* \"contracts/AccessControl.sol\":677:695  keccak256(\"ADMIN\") */\n  0xdf8b4c520ffe197c5343c6f5aec59570151ef9a492f2c624fd45ddde6135ec42\n    /* \"contracts/AccessControl.sol\":2571:2593  _allPermissions[ADMIN] */\n  dup2\n  mstore\n  0x20\n  add\n  swap1\n  dup2\n  mstore\n  0x20\n  add\n  0x00\n  keccak256\n    /* \"contracts/AccessControl.sol\":2571:2601  _allPermissions[ADMIN].members */\n  0x00\n  add\n    /* \"contracts/AccessControl.sol\":2571:2613  _allPermissions[ADMIN].members[msg.sender] */\n  0x00\n    /* \"contracts/AccessControl.sol\":2602:2612  msg.sender */\n  caller\n    /* \"contracts/AccessControl.sol\":2571:2613  _allPermissions[ADMIN].members[msg.sender] */\n  0xffffffffffffffffffffffffffffffffffffffff\n  and\n  0xffffffffffffffffffffffffffffffffffffffff\n  and\n  dup2\n  mstore\n  0x20\n  add\n  swap1\n  dup2\n  mstore\n  0x20\n  add\n  0x00\n  keccak256\n  0x00\n    /* \"contracts/AccessControl.sol\":2571:2620  _allPermissions[ADMIN].members[msg.sender] = true */\n  0x0100\n  exp\n  dup2\n  sload\n  dup2\n  0xff\n  mul\n  not\n  and\n  swap1\n  dup4\n  iszero\n  iszero\n  mul\n  or\n  swap1\n  sstore\n  pop\n    /* \"contracts/AccessControl.sol\":2665:2675  msg.sender */\n  caller\n    /* \"contracts/AccessControl.sol\":2631:2646  _allPermissions */\n  0x00\n    /* \"contracts/AccessControl.sol\":2631:2653  _allPermissions[ADMIN] */\n  dup1\n    /* \"contracts/AccessControl.sol\":677:695  keccak256(\"ADMIN\") */\n  0xdf8b4c520ffe197c5343c6f5aec59570151ef9a492f2c624fd45ddde6135ec42\n    /* \"contracts/AccessControl.sol\":2631:2653  _allPermissions[ADMIN] */\n  dup2\n  mstore\n  0x20\n  add\n  swap1\n  dup2\n  mstore\n  0x20\n  add\n  0x00\n  keccak256\n    /* \"contracts/AccessControl.sol\":2631:2659  _allPermissions[ADMIN].index */\n  0x01\n  add\n    /* \"contracts/AccessControl.sol\":2631:2662  _allPermissions[ADMIN].index[0] */\n  0x00\n    /* \"contracts/AccessControl.sol\":2660:2661  0 */\n  dup1\n    /* \"contracts/AccessControl.sol\":2631:2662  _allPermissions[ADMIN].index[0] */\n  dup2\n  mstore\n  0x20\n  add\n  swap1\n  dup2\n  mstore\n  0x20\n  add\n  0x00\n  keccak256\n  0x00\n    /* \"contracts/AccessControl.sol\":2631:2675  _allPermissions[ADMIN].index[0] = msg.sender */\n  0x0100\n  exp\n  dup2\n  sload\n  dup2\n  0xffffffffffffffffffffffffffffffffffffffff\n  mul\n  not\n  and\n  swap1\n  dup4\n  0xffffffffffffffffffffffffffffffffffffffff\n  and\n  mul\n  or\n  swap1\n  sstore\n  pop\n    /* \"contracts/AccessControl.sol\":2718:2719  1 */\n  0x01\n    /* \"contracts/AccessControl.sol\":2686:2701  _allPermissions */\n  0x00\n    /* \"contracts/AccessControl.sol\":2686:2708  _allPermissions[ADMIN] */\n  dup1\n    /* \"contracts/AccessControl.sol\":677:695  keccak256(\"ADMIN\") */\n  0xdf8b4c520ffe197c5343c6f5aec59570151ef9a492f2c624fd45ddde6135ec42\n    /* \"contracts/AccessControl.sol\":2686:2708  _allPermissions[ADMIN] */\n  dup2\n  mstore\n  0x20\n  add\n  swap1\n  dup2\n  mstore\n  0x20\n  add\n  0x00\n  keccak256\n    /* \"contracts/AccessControl.sol\":2686:2715  _allPermissions[ADMIN].length */\n  0x02\n  add\n    /* \"contracts/AccessControl.sol\":2686:2719  _allPermissions[ADMIN].length = 1 */\n  dup2\n  swap1\n  sstore\n  pop\n    /* \"contracts/AccessControl.sol\":2755:2756  1 */\n  0x01\n    /* \"contracts/AccessControl.sol\":2732:2752  _numberOfPermissions */\n  0x02\n    /* \"contracts/AccessControl.sol\":2732:2756  _numberOfPermissions = 1 */\n  dup2\n  swap1\n  sstore\n  pop\n    /* \"contracts/AccessControl.sol\":677:695  keccak256(\"ADMIN\") */\n  0xdf8b4c520ffe197c5343c6f5aec59570151ef9a492f2c624fd45ddde6135ec42\n    /* \"contracts/AccessControl.sol\":2767:2786  _indexOfPermissions */\n  0x01\n    /* \"contracts/AccessControl.sol\":2767:2789  _indexOfPermissions[0] */\n  0x00\n    /* \"contracts/AccessControl.sol\":2787:2788  0 */\n  dup1\n    /* \"contracts/AccessControl.sol\":2767:2789  _indexOfPermissions[0] */\n  dup2\n  mstore\n  0x20\n  add\n  swap1\n  dup2\n  mstore\n  0x20\n  add\n  0x00\n  keccak256\n    /* \"contracts/AccessControl.sol\":2767:2797  _indexOfPermissions[0] = ADMIN */\n  dup2\n  swap1\n  sstore\n  pop\n    /* \"contracts/AccessControl.sol\":2472:2805  function _initialize() internal virtual {\r... */\n  jump\t// out\n    /* \"contracts/organization/DaoAccessControl.sol\":98:2575  contract DaoAccessControl is AccessControl{\r... */\ntag_6:\n  dataSize(sub_0)\n  dup1\n  dataOffset(sub_0)\n  0x00\n  codecopy\n  0x00\n  return\nstop\n\nsub_0: assembly {\n        /* \"contracts/organization/DaoAccessControl.sol\":98:2575  contract DaoAccessControl is AccessControl{\r... */\n      mstore(0x40, 0x80)\n      callvalue\n      dup1\n      iszero\n      tag_1\n      jumpi\n      0x00\n      dup1\n      revert\n    tag_1:\n      pop\n      jumpi(tag_2, lt(calldatasize, 0x04))\n      shr(0xe0, calldataload(0x00))\n      dup1\n      0x75829def\n      gt\n      tag_14\n      jumpi\n      dup1\n      0x75829def\n      eq\n      tag_8\n      jumpi\n      dup1\n      0x80891cb2\n      eq\n      tag_9\n      jumpi\n      dup1\n      0xa10f9524\n      eq\n      tag_10\n      jumpi\n      dup1\n      0xaae7c78a\n      eq\n      tag_11\n      jumpi\n      dup1\n      0xc7dc6220\n      eq\n      tag_12\n      jumpi\n      dup1\n      0xc98d6f1e\n      eq\n      tag_13\n      jumpi\n      jump(tag_2)\n    tag_14:\n      dup1\n      0x342da059\n      eq\n      tag_3\n      jumpi\n      dup1\n      0x383783c6\n      eq\n      tag_4\n      jumpi\n      dup1\n      0x491642bb\n      eq\n      tag_5\n      jumpi\n      dup1\n      0x4c1b64cb\n      eq\n      tag_6\n      jumpi\n      dup1\n      0x7058dd24\n      eq\n      tag_7\n      jumpi\n    tag_2:\n      0x00\n      dup1\n      revert\n        /* \"contracts/organization/DaoAccessControl.sol\":809:977  function deletePermission(bytes memory permissionName) \r... */\n    tag_3:\n      tag_15\n      0x04\n      dup1\n      calldatasize\n      sub\n      dup2\n      add\n      swap1\n      tag_16\n      swap2\n      swap1\n      tag_17\n      jump\t// in\n    tag_16:\n      tag_18\n      jump\t// in\n    tag_15:\n      stop\n        /* \"contracts/organization/DaoAccessControl.sol\":1717:1954  function inquiryAccountPermission(bytes memory permissionName, address account) \r... */\n    tag_4:\n      tag_19\n      0x04\n      dup1\n      calldatasize\n      sub\n      dup2\n      add\n      swap1\n      tag_20\n      swap2\n      swap1\n      tag_21\n      jump\t// in\n    tag_20:\n      tag_22\n      jump\t// in\n    tag_19:\n      mload(0x40)\n      tag_23\n      swap2\n      swap1\n      tag_24\n      jump\t// in\n    tag_23:\n      mload(0x40)\n      dup1\n      swap2\n      sub\n      swap1\n      return\n        /* \"contracts/organization/DaoAccessControl.sol\":1962:2197  function inquiryAllAccountsByPermission(bytes memory permissionName) \r... */\n    tag_5:\n      tag_25\n      0x04\n      dup1\n      calldatasize\n      sub\n      dup2\n      add\n      swap1\n      tag_26\n      swap2\n      swap1\n      tag_17\n      jump\t// in\n    tag_26:\n      tag_27\n      jump\t// in\n    tag_25:\n      mload(0x40)\n      tag_28\n      swap2\n      swap1\n      tag_29\n      jump\t// in\n    tag_28:\n      mload(0x40)\n      dup1\n      swap2\n      sub\n      swap1\n      return\n        /* \"contracts/organization/DaoAccessControl.sol\":1415:1558  function deleteAccount(address account) \r... */\n    tag_6:\n      tag_30\n      0x04\n      dup1\n      calldatasize\n      sub\n      dup2\n      add\n      swap1\n      tag_31\n      swap2\n      swap1\n      tag_32\n      jump\t// in\n    tag_31:\n      tag_33\n      jump\t// in\n    tag_30:\n      stop\n        /* \"contracts/organization/DaoAccessControl.sol\":2429:2568  function inquiryAdmin() public view override allowPermission(ADMIN) returns (address) \r... */\n    tag_7:\n      tag_34\n      tag_35\n      jump\t// in\n    tag_34:\n      mload(0x40)\n      tag_36\n      swap2\n      swap1\n      tag_37\n      jump\t// in\n    tag_36:\n      mload(0x40)\n      dup1\n      swap2\n      sub\n      swap1\n      return\n        /* \"contracts/organization/DaoAccessControl.sol\":1566:1709  function transferAdmin(address account) \r... */\n    tag_8:\n      tag_38\n      0x04\n      dup1\n      calldatasize\n      sub\n      dup2\n      add\n      swap1\n      tag_39\n      swap2\n      swap1\n      tag_32\n      jump\t// in\n    tag_39:\n      tag_40\n      jump\t// in\n    tag_38:\n      stop\n        /* \"contracts/organization/DaoAccessControl.sol\":2205:2421  function inquiryAllPermissionsByAccount(address account) \r... */\n    tag_9:\n      tag_41\n      0x04\n      dup1\n      calldatasize\n      sub\n      dup2\n      add\n      swap1\n      tag_42\n      swap2\n      swap1\n      tag_32\n      jump\t// in\n    tag_42:\n      tag_43\n      jump\t// in\n    tag_41:\n      mload(0x40)\n      tag_44\n      swap2\n      swap1\n      tag_45\n      jump\t// in\n    tag_44:\n      mload(0x40)\n      dup1\n      swap2\n      sub\n      swap1\n      return\n        /* \"contracts/organization/DaoAccessControl.sol\":568:801  function createPermissionByLevel(bytes memory permissionName, bytes memory permissionAlready) \r... */\n    tag_10:\n      tag_46\n      0x04\n      dup1\n      calldatasize\n      sub\n      dup2\n      add\n      swap1\n      tag_47\n      swap2\n      swap1\n      tag_48\n      jump\t// in\n    tag_47:\n      tag_49\n      jump\t// in\n    tag_46:\n      stop\n        /* \"contracts/organization/DaoAccessControl.sol\":392:560  function createPermission(bytes memory permissionName) \r... */\n    tag_11:\n      tag_50\n      0x04\n      dup1\n      calldatasize\n      sub\n      dup2\n      add\n      swap1\n      tag_51\n      swap2\n      swap1\n      tag_17\n      jump\t// in\n    tag_51:\n      tag_52\n      jump\t// in\n    tag_50:\n      stop\n        /* \"contracts/organization/DaoAccessControl.sol\":985:1191  function grantAccountPermission(bytes memory permissionName, address account) \r... */\n    tag_12:\n      tag_53\n      0x04\n      dup1\n      calldatasize\n      sub\n      dup2\n      add\n      swap1\n      tag_54\n      swap2\n      swap1\n      tag_21\n      jump\t// in\n    tag_54:\n      tag_55\n      jump\t// in\n    tag_53:\n      stop\n        /* \"contracts/organization/DaoAccessControl.sol\":1199:1407  function revokeAccountPermission(bytes memory permissionName, address account) \r... */\n    tag_13:\n      tag_56\n      0x04\n      dup1\n      calldatasize\n      sub\n      dup2\n      add\n      swap1\n      tag_57\n      swap2\n      swap1\n      tag_21\n      jump\t// in\n    tag_57:\n      tag_58\n      jump\t// in\n    tag_56:\n      stop\n        /* \"contracts/organization/DaoAccessControl.sol\":809:977  function deletePermission(bytes memory permissionName) \r... */\n    tag_18:\n        /* \"contracts/AccessControl.sol\":1147:1174  keccak256(\"ACCESS_MANAGER\") */\n      0x73d57861095ed1ff7b0e5c00e25f9fc922cf9164e617149ee7073f371364c954\n        /* \"contracts/organization/DaoAccessControl.sol\":267:297  _check(permission, msg.sender) */\n      tag_60\n        /* \"contracts/organization/DaoAccessControl.sol\":274:284  permission */\n      dup2\n        /* \"contracts/organization/DaoAccessControl.sol\":286:296  msg.sender */\n      caller\n        /* \"contracts/organization/DaoAccessControl.sol\":267:273  _check */\n      tag_61\n        /* \"contracts/organization/DaoAccessControl.sol\":267:297  _check(permission, msg.sender) */\n      jump\t// in\n    tag_60:\n        /* \"contracts/organization/DaoAccessControl.sol\":259:364  require(_check(permission, msg.sender), \"AccessControl: You have no permission to access this function.\") */\n      tag_62\n      jumpi\n      mload(0x40)\n      0x08c379a000000000000000000000000000000000000000000000000000000000\n      dup2\n      mstore\n      0x04\n      add\n      tag_63\n      swap1\n      tag_64\n      jump\t// in\n    tag_63:\n      mload(0x40)\n      dup1\n      swap2\n      sub\n      swap1\n      revert\n    tag_62:\n        /* \"contracts/organization/DaoAccessControl.sol\":930:969  super._deletePermission(permissionName) */\n      tag_66\n        /* \"contracts/organization/DaoAccessControl.sol\":954:968  permissionName */\n      dup3\n        /* \"contracts/organization/DaoAccessControl.sol\":930:953  super._deletePermission */\n      tag_67\n        /* \"contracts/organization/DaoAccessControl.sol\":930:969  super._deletePermission(permissionName) */\n      jump\t// in\n    tag_66:\n        /* \"contracts/organization/DaoAccessControl.sol\":809:977  function deletePermission(bytes memory permissionName) \r... */\n      pop\n      pop\n      jump\t// out\n        /* \"contracts/organization/DaoAccessControl.sol\":1717:1954  function inquiryAccountPermission(bytes memory permissionName, address account) \r... */\n    tag_22:\n        /* \"contracts/organization/DaoAccessControl.sol\":1860:1864  bool */\n      0x00\n        /* \"contracts/AccessControl.sol\":799:817  keccak256(\"STAFF\") */\n      0xa724c0857099da33c38b932ce5d4e84578ee9792153085d9d5e379bfba70cacb\n        /* \"contracts/organization/DaoAccessControl.sol\":267:297  _check(permission, msg.sender) */\n      tag_69\n        /* \"contracts/organization/DaoAccessControl.sol\":274:284  permission */\n      dup2\n        /* \"contracts/organization/DaoAccessControl.sol\":286:296  msg.sender */\n      caller\n        /* \"contracts/organization/DaoAccessControl.sol\":267:273  _check */\n      tag_61\n        /* \"contracts/organization/DaoAccessControl.sol\":267:297  _check(permission, msg.sender) */\n      jump\t// in\n    tag_69:\n        /* \"contracts/organization/DaoAccessControl.sol\":259:364  require(_check(permission, msg.sender), \"AccessControl: You have no permission to access this function.\") */\n      tag_70\n      jumpi\n      mload(0x40)\n      0x08c379a000000000000000000000000000000000000000000000000000000000\n      dup2\n      mstore\n      0x04\n      add\n      tag_71\n      swap1\n      tag_64\n      jump\t// in\n    tag_71:\n      mload(0x40)\n      dup1\n      swap2\n      sub\n      swap1\n      revert\n    tag_70:\n        /* \"contracts/organization/DaoAccessControl.sol\":1890:1946  super._inquiryAccountPermission(permissionName, account) */\n      tag_73\n        /* \"contracts/organization/DaoAccessControl.sol\":1922:1936  permissionName */\n      dup5\n        /* \"contracts/organization/DaoAccessControl.sol\":1938:1945  account */\n      dup5\n        /* \"contracts/organization/DaoAccessControl.sol\":1890:1921  super._inquiryAccountPermission */\n      tag_74\n        /* \"contracts/organization/DaoAccessControl.sol\":1890:1946  super._inquiryAccountPermission(permissionName, account) */\n      jump\t// in\n    tag_73:\n        /* \"contracts/organization/DaoAccessControl.sol\":1883:1946  return super._inquiryAccountPermission(permissionName, account) */\n      swap2\n      pop\n        /* \"contracts/organization/DaoAccessControl.sol\":1717:1954  function inquiryAccountPermission(bytes memory permissionName, address account) \r... */\n      pop\n      swap3\n      swap2\n      pop\n      pop\n      jump\t// out\n        /* \"contracts/organization/DaoAccessControl.sol\":1962:2197  function inquiryAllAccountsByPermission(bytes memory permissionName) \r... */\n    tag_27:\n        /* \"contracts/organization/DaoAccessControl.sol\":2094:2110  address[] memory */\n      0x60\n        /* \"contracts/AccessControl.sol\":799:817  keccak256(\"STAFF\") */\n      0xa724c0857099da33c38b932ce5d4e84578ee9792153085d9d5e379bfba70cacb\n        /* \"contracts/organization/DaoAccessControl.sol\":267:297  _check(permission, msg.sender) */\n      tag_76\n        /* \"contracts/organization/DaoAccessControl.sol\":274:284  permission */\n      dup2\n        /* \"contracts/organization/DaoAccessControl.sol\":286:296  msg.sender */\n      caller\n        /* \"contracts/organization/DaoAccessControl.sol\":267:273  _check */\n      tag_61\n        /* \"contracts/organization/DaoAccessControl.sol\":267:297  _check(permission, msg.sender) */\n      jump\t// in\n    tag_76:\n        /* \"contracts/organization/DaoAccessControl.sol\":259:364  require(_check(permission, msg.sender), \"AccessControl: You have no permission to access this function.\") */\n      tag_77\n      jumpi\n      mload(0x40)\n      0x08c379a000000000000000000000000000000000000000000000000000000000\n      dup2\n      mstore\n      0x04\n      add\n      tag_78\n      swap1\n      tag_64\n      jump\t// in\n    tag_78:\n      mload(0x40)\n      dup1\n      swap2\n      sub\n      swap1\n      revert\n    tag_77:\n        /* \"contracts/organization/DaoAccessControl.sol\":2136:2189  super._inquiryAllAccountsByPermission(permissionName) */\n      tag_80\n        /* \"contracts/organization/DaoAccessControl.sol\":2174:2188  permissionName */\n      dup4\n        /* \"contracts/organization/DaoAccessControl.sol\":2136:2173  super._inquiryAllAccountsByPermission */\n      tag_81\n        /* \"contracts/organization/DaoAccessControl.sol\":2136:2189  super._inquiryAllAccountsByPermission(permissionName) */\n      jump\t// in\n    tag_80:\n        /* \"contracts/organization/DaoAccessControl.sol\":2129:2189  return super._inquiryAllAccountsByPermission(permissionName) */\n      swap2\n      pop\n        /* \"contracts/organization/DaoAccessControl.sol\":1962:2197  function inquiryAllAccountsByPermission(bytes memory permissionName) \r... */\n      pop\n      swap2\n      swap1\n      pop\n      jump\t// out\n        /* \"contracts/organization/DaoAccessControl.sol\":1415:1558  function deleteAccount(address account) \r... */\n    tag_33:\n        /* \"contracts/AccessControl.sol\":1147:1174  keccak256(\"ACCESS_MANAGER\") */\n      0x73d57861095ed1ff7b0e5c00e25f9fc922cf9164e617149ee7073f371364c954\n        /* \"contracts/organization/DaoAccessControl.sol\":267:297  _check(permission, msg.sender) */\n      tag_83\n        /* \"contracts/organization/DaoAccessControl.sol\":274:284  permission */\n      dup2\n        /* \"contracts/organization/DaoAccessControl.sol\":286:296  msg.sender */\n      caller\n        /* \"contracts/organization/DaoAccessControl.sol\":267:273  _check */\n      tag_61\n        /* \"contracts/organization/DaoAccessControl.sol\":267:297  _check(permission, msg.sender) */\n      jump\t// in\n    tag_83:\n        /* \"contracts/organization/DaoAccessControl.sol\":259:364  require(_check(permission, msg.sender), \"AccessControl: You have no permission to access this function.\") */\n      tag_84\n      jumpi\n      mload(0x40)\n      0x08c379a000000000000000000000000000000000000000000000000000000000\n      dup2\n      mstore\n      0x04\n      add\n      tag_85\n      swap1\n      tag_64\n      jump\t// in\n    tag_85:\n      mload(0x40)\n      dup1\n      swap2\n      sub\n      swap1\n      revert\n    tag_84:\n        /* \"contracts/organization/DaoAccessControl.sol\":1521:1550  super._deleteAccount(account) */\n      tag_87\n        /* \"contracts/organization/DaoAccessControl.sol\":1542:1549  account */\n      dup3\n        /* \"contracts/organization/DaoAccessControl.sol\":1521:1541  super._deleteAccount */\n      tag_88\n        /* \"contracts/organization/DaoAccessControl.sol\":1521:1550  super._deleteAccount(account) */\n      jump\t// in\n    tag_87:\n        /* \"contracts/organization/DaoAccessControl.sol\":1415:1558  function deleteAccount(address account) \r... */\n      pop\n      pop\n      jump\t// out\n        /* \"contracts/organization/DaoAccessControl.sol\":2429:2568  function inquiryAdmin() public view override allowPermission(ADMIN) returns (address) \r... */\n    tag_35:\n        /* \"contracts/organization/DaoAccessControl.sol\":2506:2513  address */\n      0x00\n        /* \"contracts/AccessControl.sol\":677:695  keccak256(\"ADMIN\") */\n      0xdf8b4c520ffe197c5343c6f5aec59570151ef9a492f2c624fd45ddde6135ec42\n        /* \"contracts/organization/DaoAccessControl.sol\":267:297  _check(permission, msg.sender) */\n      tag_90\n        /* \"contracts/organization/DaoAccessControl.sol\":274:284  permission */\n      dup2\n        /* \"contracts/organization/DaoAccessControl.sol\":286:296  msg.sender */\n      caller\n        /* \"contracts/organization/DaoAccessControl.sol\":267:273  _check */\n      tag_61\n        /* \"contracts/organization/DaoAccessControl.sol\":267:297  _check(permission, msg.sender) */\n      jump\t// in\n    tag_90:\n        /* \"contracts/organization/DaoAccessControl.sol\":259:364  require(_check(permission, msg.sender), \"AccessControl: You have no permission to access this function.\") */\n      tag_91\n      jumpi\n      mload(0x40)\n      0x08c379a000000000000000000000000000000000000000000000000000000000\n      dup2\n      mstore\n      0x04\n      add\n      tag_92\n      swap1\n      tag_64\n      jump\t// in\n    tag_92:\n      mload(0x40)\n      dup1\n      swap2\n      sub\n      swap1\n      revert\n    tag_91:\n        /* \"contracts/organization/DaoAccessControl.sol\":2539:2560  super._inquiryAdmin() */\n      tag_94\n        /* \"contracts/organization/DaoAccessControl.sol\":2539:2558  super._inquiryAdmin */\n      tag_95\n        /* \"contracts/organization/DaoAccessControl.sol\":2539:2560  super._inquiryAdmin() */\n      jump\t// in\n    tag_94:\n        /* \"contracts/organization/DaoAccessControl.sol\":2532:2560  return super._inquiryAdmin() */\n      swap2\n      pop\n        /* \"contracts/organization/DaoAccessControl.sol\":2429:2568  function inquiryAdmin() public view override allowPermission(ADMIN) returns (address) \r... */\n      pop\n      swap1\n      jump\t// out\n        /* \"contracts/organization/DaoAccessControl.sol\":1566:1709  function transferAdmin(address account) \r... */\n    tag_40:\n        /* \"contracts/AccessControl.sol\":1147:1174  keccak256(\"ACCESS_MANAGER\") */\n      0x73d57861095ed1ff7b0e5c00e25f9fc922cf9164e617149ee7073f371364c954\n        /* \"contracts/organization/DaoAccessControl.sol\":267:297  _check(permission, msg.sender) */\n      tag_97\n        /* \"contracts/organization/DaoAccessControl.sol\":274:284  permission */\n      dup2\n        /* \"contracts/organization/DaoAccessControl.sol\":286:296  msg.sender */\n      caller\n        /* \"contracts/organization/DaoAccessControl.sol\":267:273  _check */\n      tag_61\n        /* \"contracts/organization/DaoAccessControl.sol\":267:297  _check(permission, msg.sender) */\n      jump\t// in\n    tag_97:\n        /* \"contracts/organization/DaoAccessControl.sol\":259:364  require(_check(permission, msg.sender), \"AccessControl: You have no permission to access this function.\") */\n      tag_98\n      jumpi\n      mload(0x40)\n      0x08c379a000000000000000000000000000000000000000000000000000000000\n      dup2\n      mstore\n      0x04\n      add\n      tag_99\n      swap1\n      tag_64\n      jump\t// in\n    tag_99:\n      mload(0x40)\n      dup1\n      swap2\n      sub\n      swap1\n      revert\n    tag_98:\n        /* \"contracts/organization/DaoAccessControl.sol\":1672:1701  super._transferAdmin(account) */\n      tag_101\n        /* \"contracts/organization/DaoAccessControl.sol\":1693:1700  account */\n      dup3\n        /* \"contracts/organization/DaoAccessControl.sol\":1672:1692  super._transferAdmin */\n      tag_102\n        /* \"contracts/organization/DaoAccessControl.sol\":1672:1701  super._transferAdmin(account) */\n      jump\t// in\n    tag_101:\n        /* \"contracts/organization/DaoAccessControl.sol\":1566:1709  function transferAdmin(address account) \r... */\n      pop\n      pop\n      jump\t// out\n        /* \"contracts/organization/DaoAccessControl.sol\":2205:2421  function inquiryAllPermissionsByAccount(address account) \r... */\n    tag_43:\n        /* \"contracts/organization/DaoAccessControl.sol\":2325:2341  bytes32[] memory */\n      0x60\n        /* \"contracts/AccessControl.sol\":799:817  keccak256(\"STAFF\") */\n      0xa724c0857099da33c38b932ce5d4e84578ee9792153085d9d5e379bfba70cacb\n        /* \"contracts/organization/DaoAccessControl.sol\":267:297  _check(permission, msg.sender) */\n      tag_104\n        /* \"contracts/organization/DaoAccessControl.sol\":274:284  permission */\n      dup2\n        /* \"contracts/organization/DaoAccessControl.sol\":286:296  msg.sender */\n      caller\n        /* \"contracts/organization/DaoAccessControl.sol\":267:273  _check */\n      tag_61\n        /* \"contracts/organization/DaoAccessControl.sol\":267:297  _check(permission, msg.sender) */\n      jump\t// in\n    tag_104:\n        /* \"contracts/organization/DaoAccessControl.sol\":259:364  require(_check(permission, msg.sender), \"AccessControl: You have no permission to access this function.\") */\n      tag_105\n      jumpi\n      mload(0x40)\n      0x08c379a000000000000000000000000000000000000000000000000000000000\n      dup2\n      mstore\n      0x04\n      add\n      tag_106\n      swap1\n      tag_64\n      jump\t// in\n    tag_106:\n      mload(0x40)\n      dup1\n      swap2\n      sub\n      swap1\n      revert\n    tag_105:\n        /* \"contracts/organization/DaoAccessControl.sol\":2367:2413  super._inquiryAllPermissionsByAccount(account) */\n      tag_108\n        /* \"contracts/organization/DaoAccessControl.sol\":2405:2412  account */\n      dup4\n        /* \"contracts/organization/DaoAccessControl.sol\":2367:2404  super._inquiryAllPermissionsByAccount */\n      tag_109\n        /* \"contracts/organization/DaoAccessControl.sol\":2367:2413  super._inquiryAllPermissionsByAccount(account) */\n      jump\t// in\n    tag_108:\n        /* \"contracts/organization/DaoAccessControl.sol\":2360:2413  return super._inquiryAllPermissionsByAccount(account) */\n      swap2\n      pop\n        /* \"contracts/organization/DaoAccessControl.sol\":2205:2421  function inquiryAllPermissionsByAccount(address account) \r... */\n      pop\n      swap2\n      swap1\n      pop\n      jump\t// out\n        /* \"contracts/organization/DaoAccessControl.sol\":568:801  function createPermissionByLevel(bytes memory permissionName, bytes memory permissionAlready) \r... */\n    tag_49:\n        /* \"contracts/AccessControl.sol\":1147:1174  keccak256(\"ACCESS_MANAGER\") */\n      0x73d57861095ed1ff7b0e5c00e25f9fc922cf9164e617149ee7073f371364c954\n        /* \"contracts/organization/DaoAccessControl.sol\":267:297  _check(permission, msg.sender) */\n      tag_111\n        /* \"contracts/organization/DaoAccessControl.sol\":274:284  permission */\n      dup2\n        /* \"contracts/organization/DaoAccessControl.sol\":286:296  msg.sender */\n      caller\n        /* \"contracts/organization/DaoAccessControl.sol\":267:273  _check */\n      tag_61\n        /* \"contracts/organization/DaoAccessControl.sol\":267:297  _check(permission, msg.sender) */\n      jump\t// in\n    tag_111:\n        /* \"contracts/organization/DaoAccessControl.sol\":259:364  require(_check(permission, msg.sender), \"AccessControl: You have no permission to access this function.\") */\n      tag_112\n      jumpi\n      mload(0x40)\n      0x08c379a000000000000000000000000000000000000000000000000000000000\n      dup2\n      mstore\n      0x04\n      add\n      tag_113\n      swap1\n      tag_64\n      jump\t// in\n    tag_113:\n      mload(0x40)\n      dup1\n      swap2\n      sub\n      swap1\n      revert\n    tag_112:\n        /* \"contracts/organization/DaoAccessControl.sol\":728:793  super._createPermissionByLevel(permissionName, permissionAlready) */\n      tag_115\n        /* \"contracts/organization/DaoAccessControl.sol\":759:773  permissionName */\n      dup4\n        /* \"contracts/organization/DaoAccessControl.sol\":775:792  permissionAlready */\n      dup4\n        /* \"contracts/organization/DaoAccessControl.sol\":728:758  super._createPermissionByLevel */\n      tag_116\n        /* \"contracts/organization/DaoAccessControl.sol\":728:793  super._createPermissionByLevel(permissionName, permissionAlready) */\n      jump\t// in\n    tag_115:\n        /* \"contracts/organization/DaoAccessControl.sol\":568:801  function createPermissionByLevel(bytes memory permissionName, bytes memory permissionAlready) \r... */\n      pop\n      pop\n      pop\n      jump\t// out\n        /* \"contracts/organization/DaoAccessControl.sol\":392:560  function createPermission(bytes memory permissionName) \r... */\n    tag_52:\n        /* \"contracts/AccessControl.sol\":1147:1174  keccak256(\"ACCESS_MANAGER\") */\n      0x73d57861095ed1ff7b0e5c00e25f9fc922cf9164e617149ee7073f371364c954\n        /* \"contracts/organization/DaoAccessControl.sol\":267:297  _check(permission, msg.sender) */\n      tag_118\n        /* \"contracts/organization/DaoAccessControl.sol\":274:284  permission */\n      dup2\n        /* \"contracts/organization/DaoAccessControl.sol\":286:296  msg.sender */\n      caller\n        /* \"contracts/organization/DaoAccessControl.sol\":267:273  _check */\n      tag_61\n        /* \"contracts/organization/DaoAccessControl.sol\":267:297  _check(permission, msg.sender) */\n      jump\t// in\n    tag_118:\n        /* \"contracts/organization/DaoAccessControl.sol\":259:364  require(_check(permission, msg.sender), \"AccessControl: You have no permission to access this function.\") */\n      tag_119\n      jumpi\n      mload(0x40)\n      0x08c379a000000000000000000000000000000000000000000000000000000000\n      dup2\n      mstore\n      0x04\n      add\n      tag_120\n      swap1\n      tag_64\n      jump\t// in\n    tag_120:\n      mload(0x40)\n      dup1\n      swap2\n      sub\n      swap1\n      revert\n    tag_119:\n        /* \"contracts/organization/DaoAccessControl.sol\":513:552  super._createPermission(permissionName) */\n      tag_122\n        /* \"contracts/organization/DaoAccessControl.sol\":537:551  permissionName */\n      dup3\n        /* \"contracts/organization/DaoAccessControl.sol\":513:536  super._createPermission */\n      tag_123\n        /* \"contracts/organization/DaoAccessControl.sol\":513:552  super._createPermission(permissionName) */\n      jump\t// in\n    tag_122:\n        /* \"contracts/organization/DaoAccessControl.sol\":392:560  function createPermission(bytes memory permissionName) \r... */\n      pop\n      pop\n      jump\t// out\n        /* \"contracts/organization/DaoAccessControl.sol\":985:1191  function grantAccountPermission(bytes memory permissionName, address account) \r... */\n    tag_55:\n        /* \"contracts/AccessControl.sol\":1147:1174  keccak256(\"ACCESS_MANAGER\") */\n      0x73d57861095ed1ff7b0e5c00e25f9fc922cf9164e617149ee7073f371364c954\n        /* \"contracts/organization/DaoAccessControl.sol\":267:297  _check(permission, msg.sender) */\n      tag_125\n        /* \"contracts/organization/DaoAccessControl.sol\":274:284  permission */\n      dup2\n        /* \"contracts/organization/DaoAccessControl.sol\":286:296  msg.sender */\n      caller\n        /* \"contracts/organization/DaoAccessControl.sol\":267:273  _check */\n      tag_61\n        /* \"contracts/organization/DaoAccessControl.sol\":267:297  _check(permission, msg.sender) */\n      jump\t// in\n    tag_125:\n        /* \"contracts/organization/DaoAccessControl.sol\":259:364  require(_check(permission, msg.sender), \"AccessControl: You have no permission to access this function.\") */\n      tag_126\n      jumpi\n      mload(0x40)\n      0x08c379a000000000000000000000000000000000000000000000000000000000\n      dup2\n      mstore\n      0x04\n      add\n      tag_127\n      swap1\n      tag_64\n      jump\t// in\n    tag_127:\n      mload(0x40)\n      dup1\n      swap2\n      sub\n      swap1\n      revert\n    tag_126:\n        /* \"contracts/organization/DaoAccessControl.sol\":1129:1183  super._grantAccountPermission(permissionName, account) */\n      tag_129\n        /* \"contracts/organization/DaoAccessControl.sol\":1159:1173  permissionName */\n      dup4\n        /* \"contracts/organization/DaoAccessControl.sol\":1175:1182  account */\n      dup4\n        /* \"contracts/organization/DaoAccessControl.sol\":1129:1158  super._grantAccountPermission */\n      tag_130\n        /* \"contracts/organization/DaoAccessControl.sol\":1129:1183  super._grantAccountPermission(permissionName, account) */\n      jump\t// in\n    tag_129:\n        /* \"contracts/organization/DaoAccessControl.sol\":985:1191  function grantAccountPermission(bytes memory permissionName, address account) \r... */\n      pop\n      pop\n      pop\n      jump\t// out\n        /* \"contracts/organization/DaoAccessControl.sol\":1199:1407  function revokeAccountPermission(bytes memory permissionName, address account) \r... */\n    tag_58:\n        /* \"contracts/AccessControl.sol\":1147:1174  keccak256(\"ACCESS_MANAGER\") */\n      0x73d57861095ed1ff7b0e5c00e25f9fc922cf9164e617149ee7073f371364c954\n        /* \"contracts/organization/DaoAccessControl.sol\":267:297  _check(permission, msg.sender) */\n      tag_132\n        /* \"contracts/organization/DaoAccessControl.sol\":274:284  permission */\n      dup2\n        /* \"contracts/organization/DaoAccessControl.sol\":286:296  msg.sender */\n      caller\n        /* \"contracts/organization/DaoAccessControl.sol\":267:273  _check */\n      tag_61\n        /* \"contracts/organization/DaoAccessControl.sol\":267:297  _check(permission, msg.sender) */\n      jump\t// in\n    tag_132:\n        /* \"contracts/organization/DaoAccessControl.sol\":259:364  require(_check(permission, msg.sender), \"AccessControl: You have no permission to access this function.\") */\n      tag_133\n      jumpi\n      mload(0x40)\n      0x08c379a000000000000000000000000000000000000000000000000000000000\n      dup2\n      mstore\n      0x04\n      add\n      tag_134\n      swap1\n      tag_64\n      jump\t// in\n    tag_134:\n      mload(0x40)\n      dup1\n      swap2\n      sub\n      swap1\n      revert\n    tag_133:\n        /* \"contracts/organization/DaoAccessControl.sol\":1344:1399  super._revokeAccountPermission(permissionName, account) */\n      tag_136\n        /* \"contracts/organization/DaoAccessControl.sol\":1375:1389  permissionName */\n      dup4\n        /* \"contracts/organization/DaoAccessControl.sol\":1391:1398  account */\n      dup4\n        /* \"contracts/organization/DaoAccessControl.sol\":1344:1374  super._revokeAccountPermission */\n      tag_137\n        /* \"contracts/organization/DaoAccessControl.sol\":1344:1399  super._revokeAccountPermission(permissionName, account) */\n      jump\t// in\n    tag_136:\n        /* \"contracts/organization/DaoAccessControl.sol\":1199:1407  function revokeAccountPermission(bytes memory permissionName, address account) \r... */\n      pop\n      pop\n      pop\n      jump\t// out\n        /* \"contracts/AccessControl.sol\":1652:1924  function _check(bytes32 permission, address account) internal view virtual returns (bool) {\r... */\n    tag_61:\n        /* \"contracts/AccessControl.sol\":1736:1740  bool */\n      0x00\n        /* \"contracts/AccessControl.sol\":1757:1772  _allPermissions */\n      dup1\n        /* \"contracts/AccessControl.sol\":1757:1784  _allPermissions[permission] */\n      0x00\n        /* \"contracts/AccessControl.sol\":1773:1783  permission */\n      dup5\n        /* \"contracts/AccessControl.sol\":1757:1784  _allPermissions[permission] */\n      dup2\n      mstore\n      0x20\n      add\n      swap1\n      dup2\n      mstore\n      0x20\n      add\n      0x00\n      keccak256\n        /* \"contracts/AccessControl.sol\":1757:1792  _allPermissions[permission].isValid */\n      0x03\n      add\n      0x00\n      swap1\n      sload\n      swap1\n      0x0100\n      exp\n      swap1\n      div\n      0xff\n      and\n        /* \"contracts/AccessControl.sol\":1753:1917  if(!_allPermissions[permission].isValid) {\r... */\n      tag_139\n      jumpi\n        /* \"contracts/AccessControl.sol\":1816:1821  false */\n      0x00\n        /* \"contracts/AccessControl.sol\":1809:1821  return false */\n      swap1\n      pop\n      jump(tag_138)\n        /* \"contracts/AccessControl.sol\":1753:1917  if(!_allPermissions[permission].isValid) {\r... */\n    tag_139:\n        /* \"contracts/AccessControl.sol\":1861:1876  _allPermissions */\n      0x00\n        /* \"contracts/AccessControl.sol\":1861:1888  _allPermissions[permission] */\n      dup1\n        /* \"contracts/AccessControl.sol\":1877:1887  permission */\n      dup5\n        /* \"contracts/AccessControl.sol\":1861:1888  _allPermissions[permission] */\n      dup2\n      mstore\n      0x20\n      add\n      swap1\n      dup2\n      mstore\n      0x20\n      add\n      0x00\n      keccak256\n        /* \"contracts/AccessControl.sol\":1861:1896  _allPermissions[permission].members */\n      0x00\n      add\n        /* \"contracts/AccessControl.sol\":1861:1905  _allPermissions[permission].members[account] */\n      0x00\n        /* \"contracts/AccessControl.sol\":1897:1904  account */\n      dup4\n        /* \"contracts/AccessControl.sol\":1861:1905  _allPermissions[permission].members[account] */\n      0xffffffffffffffffffffffffffffffffffffffff\n      and\n      0xffffffffffffffffffffffffffffffffffffffff\n      and\n      dup2\n      mstore\n      0x20\n      add\n      swap1\n      dup2\n      mstore\n      0x20\n      add\n      0x00\n      keccak256\n      0x00\n      swap1\n      sload\n      swap1\n      0x0100\n      exp\n      swap1\n      div\n      0xff\n      and\n        /* \"contracts/AccessControl.sol\":1854:1905  return _allPermissions[permission].members[account] */\n      swap1\n      pop\n        /* \"contracts/AccessControl.sol\":1652:1924  function _check(bytes32 permission, address account) internal view virtual returns (bool) {\r... */\n    tag_138:\n      swap3\n      swap2\n      pop\n      pop\n      jump\t// out\n        /* \"contracts/AccessControl.sol\":4976:5480  function _deletePermission(bytes memory permissionName) internal virtual {\r... */\n    tag_67:\n        /* \"contracts/AccessControl.sol\":5060:5078  bytes32 permission */\n      0x00\n        /* \"contracts/AccessControl.sol\":5091:5105  permissionName */\n      dup2\n        /* \"contracts/AccessControl.sol\":5081:5106  keccak256(permissionName) */\n      dup1\n      mload\n      swap1\n      0x20\n      add\n      keccak256\n        /* \"contracts/AccessControl.sol\":5060:5106  bytes32 permission = keccak256(permissionName) */\n      swap1\n      pop\n        /* \"contracts/AccessControl.sol\":5121:5136  _allPermissions */\n      0x00\n        /* \"contracts/AccessControl.sol\":5121:5148  _allPermissions[permission] */\n      dup1\n        /* \"contracts/AccessControl.sol\":5137:5147  permission */\n      dup3\n        /* \"contracts/AccessControl.sol\":5121:5148  _allPermissions[permission] */\n      dup2\n      mstore\n      0x20\n      add\n      swap1\n      dup2\n      mstore\n      0x20\n      add\n      0x00\n      keccak256\n        /* \"contracts/AccessControl.sol\":5121:5156  _allPermissions[permission].isValid */\n      0x03\n      add\n      0x00\n      swap1\n      sload\n      swap1\n      0x0100\n      exp\n      swap1\n      div\n      0xff\n      and\n        /* \"contracts/AccessControl.sol\":5121:5179  _allPermissions[permission].isValid && permission != ADMIN */\n      dup1\n      iszero\n      tag_142\n      jumpi\n      pop\n        /* \"contracts/AccessControl.sol\":677:695  keccak256(\"ADMIN\") */\n      0xdf8b4c520ffe197c5343c6f5aec59570151ef9a492f2c624fd45ddde6135ec42\n        /* \"contracts/AccessControl.sol\":5160:5170  permission */\n      dup2\n        /* \"contracts/AccessControl.sol\":5160:5179  permission != ADMIN */\n      eq\n      iszero\n        /* \"contracts/AccessControl.sol\":5121:5179  _allPermissions[permission].isValid && permission != ADMIN */\n    tag_142:\n        /* \"contracts/AccessControl.sol\":5117:5473  if (_allPermissions[permission].isValid && permission != ADMIN) {\r... */\n      iszero\n      tag_143\n      jumpi\n        /* \"contracts/AccessControl.sol\":5312:5317  false */\n      0x00\n        /* \"contracts/AccessControl.sol\":5274:5289  _allPermissions */\n      dup1\n        /* \"contracts/AccessControl.sol\":5274:5301  _allPermissions[permission] */\n      0x00\n        /* \"contracts/AccessControl.sol\":5290:5300  permission */\n      dup4\n        /* \"contracts/AccessControl.sol\":5274:5301  _allPermissions[permission] */\n      dup2\n      mstore\n      0x20\n      add\n      swap1\n      dup2\n      mstore\n      0x20\n      add\n      0x00\n      keccak256\n        /* \"contracts/AccessControl.sol\":5274:5309  _allPermissions[permission].isValid */\n      0x03\n      add\n      0x00\n        /* \"contracts/AccessControl.sol\":5274:5317  _allPermissions[permission].isValid = false */\n      0x0100\n      exp\n      dup2\n      sload\n      dup2\n      0xff\n      mul\n      not\n      and\n      swap1\n      dup4\n      iszero\n      iszero\n      mul\n      or\n      swap1\n      sstore\n      pop\n        /* \"contracts/AccessControl.sol\":5371:5381  msg.sender */\n      caller\n        /* \"contracts/AccessControl.sol\":5337:5382  PermissionDeleted(permissionName, msg.sender) */\n      0xffffffffffffffffffffffffffffffffffffffff\n      and\n        /* \"contracts/AccessControl.sol\":5355:5369  permissionName */\n      dup3\n        /* \"contracts/AccessControl.sol\":5337:5382  PermissionDeleted(permissionName, msg.sender) */\n      mload(0x40)\n      tag_144\n      swap2\n      swap1\n      tag_145\n      jump\t// in\n    tag_144:\n      mload(0x40)\n      dup1\n      swap2\n      sub\n      swap1\n      keccak256\n      0xef4f3adabb4ce2cc6076cc23d211eff03f6e49839a9d773d7c77f48a83a2d859\n      mload(0x40)\n      mload(0x40)\n      dup1\n      swap2\n      sub\n      swap1\n      log3\n        /* \"contracts/AccessControl.sol\":5117:5473  if (_allPermissions[permission].isValid && permission != ADMIN) {\r... */\n      jump(tag_146)\n    tag_143:\n        /* \"contracts/AccessControl.sol\":5415:5461  _informFailure(\"The permission is not valid.\") */\n      tag_147\n      mload(0x40)\n      dup1\n      0x40\n      add\n      0x40\n      mstore\n      dup1\n      0x1c\n      dup2\n      mstore\n      0x20\n      add\n      0x546865207065726d697373696f6e206973206e6f742076616c69642e00000000\n      dup2\n      mstore\n      pop\n        /* \"contracts/AccessControl.sol\":5415:5429  _informFailure */\n      tag_148\n        /* \"contracts/AccessControl.sol\":5415:5461  _informFailure(\"The permission is not valid.\") */\n      jump\t// in\n    tag_147:\n        /* \"contracts/AccessControl.sol\":5117:5473  if (_allPermissions[permission].isValid && permission != ADMIN) {\r... */\n    tag_146:\n        /* \"contracts/AccessControl.sol\":5049:5480  {\r... */\n      pop\n        /* \"contracts/AccessControl.sol\":4976:5480  function _deletePermission(bytes memory permissionName) internal virtual {\r... */\n      pop\n      jump\t// out\n        /* \"contracts/AccessControl.sol\":8647:8859  function _inquiryAccountPermission(bytes memory permissionName, address account) \r... */\n    tag_74:\n        /* \"contracts/AccessControl.sol\":8779:8783  bool */\n      0x00\n        /* \"contracts/AccessControl.sol\":8809:8851  _check(keccak256(permissionName), account) */\n      tag_150\n        /* \"contracts/AccessControl.sol\":8826:8840  permissionName */\n      dup4\n        /* \"contracts/AccessControl.sol\":8816:8841  keccak256(permissionName) */\n      dup1\n      mload\n      swap1\n      0x20\n      add\n      keccak256\n        /* \"contracts/AccessControl.sol\":8843:8850  account */\n      dup4\n        /* \"contracts/AccessControl.sol\":8809:8815  _check */\n      tag_61\n        /* \"contracts/AccessControl.sol\":8809:8851  _check(keccak256(permissionName), account) */\n      jump\t// in\n    tag_150:\n        /* \"contracts/AccessControl.sol\":8802:8851  return _check(keccak256(permissionName), account) */\n      swap1\n      pop\n        /* \"contracts/AccessControl.sol\":8647:8859  function _inquiryAccountPermission(bytes memory permissionName, address account) \r... */\n      swap3\n      swap2\n      pop\n      pop\n      jump\t// out\n        /* \"contracts/AccessControl.sol\":9366:10016  function _inquiryAllAccountsByPermission(bytes memory permissionName) \r... */\n    tag_81:\n        /* \"contracts/AccessControl.sol\":9487:9503  address[] memory */\n      0x60\n        /* \"contracts/AccessControl.sol\":9522:9554  address[] memory relatedAccounts */\n      dup1\n        /* \"contracts/AccessControl.sol\":9565:9583  bytes32 permission */\n      0x00\n        /* \"contracts/AccessControl.sol\":9596:9610  permissionName */\n      dup4\n        /* \"contracts/AccessControl.sol\":9586:9611  keccak256(permissionName) */\n      dup1\n      mload\n      swap1\n      0x20\n      add\n      keccak256\n        /* \"contracts/AccessControl.sol\":9565:9611  bytes32 permission = keccak256(permissionName) */\n      swap1\n      pop\n        /* \"contracts/AccessControl.sol\":9622:9628  uint j */\n      0x00\n        /* \"contracts/AccessControl.sol\":9647:9653  uint i */\n      dup1\n        /* \"contracts/AccessControl.sol\":9643:9976  for(uint i = 0; i < _allPermissions[permission].length; i++) {\r... */\n    tag_152:\n        /* \"contracts/AccessControl.sol\":9663:9678  _allPermissions */\n      0x00\n        /* \"contracts/AccessControl.sol\":9663:9690  _allPermissions[permission] */\n      dup1\n        /* \"contracts/AccessControl.sol\":9679:9689  permission */\n      dup5\n        /* \"contracts/AccessControl.sol\":9663:9690  _allPermissions[permission] */\n      dup2\n      mstore\n      0x20\n      add\n      swap1\n      dup2\n      mstore\n      0x20\n      add\n      0x00\n      keccak256\n        /* \"contracts/AccessControl.sol\":9663:9697  _allPermissions[permission].length */\n      0x02\n      add\n      sload\n        /* \"contracts/AccessControl.sol\":9659:9660  i */\n      dup2\n        /* \"contracts/AccessControl.sol\":9659:9697  i < _allPermissions[permission].length */\n      lt\n        /* \"contracts/AccessControl.sol\":9643:9976  for(uint i = 0; i < _allPermissions[permission].length; i++) {\r... */\n      iszero\n      tag_153\n      jumpi\n        /* \"contracts/AccessControl.sol\":9776:9791  _allPermissions */\n      0x00\n        /* \"contracts/AccessControl.sol\":9776:9803  _allPermissions[permission] */\n      dup1\n        /* \"contracts/AccessControl.sol\":9792:9802  permission */\n      dup5\n        /* \"contracts/AccessControl.sol\":9776:9803  _allPermissions[permission] */\n      dup2\n      mstore\n      0x20\n      add\n      swap1\n      dup2\n      mstore\n      0x20\n      add\n      0x00\n      keccak256\n        /* \"contracts/AccessControl.sol\":9776:9811  _allPermissions[permission].members */\n      0x00\n      add\n        /* \"contracts/AccessControl.sol\":9776:9849  _allPermissions[permission].members[_allPermissions[permission].index[i]] */\n      0x00\n        /* \"contracts/AccessControl.sol\":9812:9827  _allPermissions */\n      dup1\n        /* \"contracts/AccessControl.sol\":9812:9839  _allPermissions[permission] */\n      0x00\n        /* \"contracts/AccessControl.sol\":9828:9838  permission */\n      dup7\n        /* \"contracts/AccessControl.sol\":9812:9839  _allPermissions[permission] */\n      dup2\n      mstore\n      0x20\n      add\n      swap1\n      dup2\n      mstore\n      0x20\n      add\n      0x00\n      keccak256\n        /* \"contracts/AccessControl.sol\":9812:9845  _allPermissions[permission].index */\n      0x01\n      add\n        /* \"contracts/AccessControl.sol\":9812:9848  _allPermissions[permission].index[i] */\n      0x00\n        /* \"contracts/AccessControl.sol\":9846:9847  i */\n      dup5\n        /* \"contracts/AccessControl.sol\":9812:9848  _allPermissions[permission].index[i] */\n      dup2\n      mstore\n      0x20\n      add\n      swap1\n      dup2\n      mstore\n      0x20\n      add\n      0x00\n      keccak256\n      0x00\n      swap1\n      sload\n      swap1\n      0x0100\n      exp\n      swap1\n      div\n      0xffffffffffffffffffffffffffffffffffffffff\n      and\n        /* \"contracts/AccessControl.sol\":9776:9849  _allPermissions[permission].members[_allPermissions[permission].index[i]] */\n      0xffffffffffffffffffffffffffffffffffffffff\n      and\n      0xffffffffffffffffffffffffffffffffffffffff\n      and\n      dup2\n      mstore\n      0x20\n      add\n      swap1\n      dup2\n      mstore\n      0x20\n      add\n      0x00\n      keccak256\n      0x00\n      swap1\n      sload\n      swap1\n      0x0100\n      exp\n      swap1\n      div\n      0xff\n      and\n        /* \"contracts/AccessControl.sol\":9773:9965  if(_allPermissions[permission].members[_allPermissions[permission].index[i]]) {\r... */\n      iszero\n      tag_155\n      jumpi\n        /* \"contracts/AccessControl.sol\":9891:9906  _allPermissions */\n      0x00\n        /* \"contracts/AccessControl.sol\":9891:9918  _allPermissions[permission] */\n      dup1\n        /* \"contracts/AccessControl.sol\":9907:9917  permission */\n      dup5\n        /* \"contracts/AccessControl.sol\":9891:9918  _allPermissions[permission] */\n      dup2\n      mstore\n      0x20\n      add\n      swap1\n      dup2\n      mstore\n      0x20\n      add\n      0x00\n      keccak256\n        /* \"contracts/AccessControl.sol\":9891:9924  _allPermissions[permission].index */\n      0x01\n      add\n        /* \"contracts/AccessControl.sol\":9891:9927  _allPermissions[permission].index[i] */\n      0x00\n        /* \"contracts/AccessControl.sol\":9925:9926  i */\n      dup3\n        /* \"contracts/AccessControl.sol\":9891:9927  _allPermissions[permission].index[i] */\n      dup2\n      mstore\n      0x20\n      add\n      swap1\n      dup2\n      mstore\n      0x20\n      add\n      0x00\n      keccak256\n      0x00\n      swap1\n      sload\n      swap1\n      0x0100\n      exp\n      swap1\n      div\n      0xffffffffffffffffffffffffffffffffffffffff\n      and\n        /* \"contracts/AccessControl.sol\":9870:9885  relatedAccounts */\n      dup5\n        /* \"contracts/AccessControl.sol\":9886:9887  j */\n      dup4\n        /* \"contracts/AccessControl.sol\":9870:9888  relatedAccounts[j] */\n      dup2\n      mload\n      dup2\n      lt\n      tag_156\n      jumpi\n      tag_157\n      tag_158\n      jump\t// in\n    tag_157:\n    tag_156:\n      0x20\n      mul\n      0x20\n      add\n      add\n        /* \"contracts/AccessControl.sol\":9870:9927  relatedAccounts[j] = _allPermissions[permission].index[i] */\n      swap1\n      0xffffffffffffffffffffffffffffffffffffffff\n      and\n      swap1\n      dup2\n      0xffffffffffffffffffffffffffffffffffffffff\n      and\n      dup2\n      mstore\n      pop\n      pop\n        /* \"contracts/AccessControl.sol\":9946:9949  j++ */\n      dup2\n      dup1\n      tag_159\n      swap1\n      tag_160\n      jump\t// in\n    tag_159:\n      swap3\n      pop\n      pop\n        /* \"contracts/AccessControl.sol\":9773:9965  if(_allPermissions[permission].members[_allPermissions[permission].index[i]]) {\r... */\n    tag_155:\n        /* \"contracts/AccessControl.sol\":9699:9702  i++ */\n      dup1\n      dup1\n      tag_161\n      swap1\n      tag_160\n      jump\t// in\n    tag_161:\n      swap2\n      pop\n      pop\n        /* \"contracts/AccessControl.sol\":9643:9976  for(uint i = 0; i < _allPermissions[permission].length; i++) {\r... */\n      jump(tag_152)\n    tag_153:\n      pop\n        /* \"contracts/AccessControl.sol\":9993:10008  relatedAccounts */\n      dup3\n        /* \"contracts/AccessControl.sol\":9986:10008  return relatedAccounts */\n      swap4\n      pop\n      pop\n      pop\n      pop\n        /* \"contracts/AccessControl.sol\":9366:10016  function _inquiryAllAccountsByPermission(bytes memory permissionName) \r... */\n      swap2\n      swap1\n      pop\n      jump\t// out\n        /* \"contracts/AccessControl.sol\":7482:8165  function _deleteAccount(address account) internal virtual {\r... */\n    tag_88:\n        /* \"contracts/AccessControl.sol\":7636:7658  _check(ADMIN, account) */\n      tag_163\n        /* \"contracts/AccessControl.sol\":677:695  keccak256(\"ADMIN\") */\n      0xdf8b4c520ffe197c5343c6f5aec59570151ef9a492f2c624fd45ddde6135ec42\n        /* \"contracts/AccessControl.sol\":7650:7657  account */\n      dup3\n        /* \"contracts/AccessControl.sol\":7636:7642  _check */\n      tag_61\n        /* \"contracts/AccessControl.sol\":7636:7658  _check(ADMIN, account) */\n      jump\t// in\n    tag_163:\n        /* \"contracts/AccessControl.sol\":7635:7658  !_check(ADMIN, account) */\n      iszero\n        /* \"contracts/AccessControl.sol\":7635:7687  !_check(ADMIN, account) || _check(ADMIN, msg.sender) */\n      dup1\n      tag_164\n      jumpi\n      pop\n        /* \"contracts/AccessControl.sol\":7662:7687  _check(ADMIN, msg.sender) */\n      tag_165\n        /* \"contracts/AccessControl.sol\":677:695  keccak256(\"ADMIN\") */\n      0xdf8b4c520ffe197c5343c6f5aec59570151ef9a492f2c624fd45ddde6135ec42\n        /* \"contracts/AccessControl.sol\":7676:7686  msg.sender */\n      caller\n        /* \"contracts/AccessControl.sol\":7662:7668  _check */\n      tag_61\n        /* \"contracts/AccessControl.sol\":7662:7687  _check(ADMIN, msg.sender) */\n      jump\t// in\n    tag_165:\n        /* \"contracts/AccessControl.sol\":7635:7687  !_check(ADMIN, account) || _check(ADMIN, msg.sender) */\n    tag_164:\n        /* \"contracts/AccessControl.sol\":7632:8158  if(!_check(ADMIN, account) || _check(ADMIN, msg.sender)) {\r... */\n      iszero\n      tag_166\n      jumpi\n        /* \"contracts/AccessControl.sol\":7777:7783  uint i */\n      0x00\n        /* \"contracts/AccessControl.sol\":7786:7787  1 */\n      0x01\n        /* \"contracts/AccessControl.sol\":7777:7787  uint i = 1 */\n      swap1\n      pop\n        /* \"contracts/AccessControl.sol\":7773:8021  for(uint i = 1; i < _numberOfPermissions; i++) {\r... */\n    tag_167:\n        /* \"contracts/AccessControl.sol\":7793:7813  _numberOfPermissions */\n      sload(0x02)\n        /* \"contracts/AccessControl.sol\":7789:7790  i */\n      dup2\n        /* \"contracts/AccessControl.sol\":7789:7813  i < _numberOfPermissions */\n      lt\n        /* \"contracts/AccessControl.sol\":7773:8021  for(uint i = 1; i < _numberOfPermissions; i++) {\r... */\n      iszero\n      tag_168\n      jumpi\n        /* \"contracts/AccessControl.sol\":7842:7857  _allPermissions */\n      0x00\n        /* \"contracts/AccessControl.sol\":7842:7881  _allPermissions[_indexOfPermissions[i]] */\n      dup1\n        /* \"contracts/AccessControl.sol\":7858:7877  _indexOfPermissions */\n      0x01\n        /* \"contracts/AccessControl.sol\":7858:7880  _indexOfPermissions[i] */\n      0x00\n        /* \"contracts/AccessControl.sol\":7878:7879  i */\n      dup5\n        /* \"contracts/AccessControl.sol\":7858:7880  _indexOfPermissions[i] */\n      dup2\n      mstore\n      0x20\n      add\n      swap1\n      dup2\n      mstore\n      0x20\n      add\n      0x00\n      keccak256\n      sload\n        /* \"contracts/AccessControl.sol\":7842:7881  _allPermissions[_indexOfPermissions[i]] */\n      dup2\n      mstore\n      0x20\n      add\n      swap1\n      dup2\n      mstore\n      0x20\n      add\n      0x00\n      keccak256\n        /* \"contracts/AccessControl.sol\":7842:7889  _allPermissions[_indexOfPermissions[i]].members */\n      0x00\n      add\n        /* \"contracts/AccessControl.sol\":7842:7898  _allPermissions[_indexOfPermissions[i]].members[account] */\n      0x00\n        /* \"contracts/AccessControl.sol\":7890:7897  account */\n      dup4\n        /* \"contracts/AccessControl.sol\":7842:7898  _allPermissions[_indexOfPermissions[i]].members[account] */\n      0xffffffffffffffffffffffffffffffffffffffff\n      and\n      0xffffffffffffffffffffffffffffffffffffffff\n      and\n      dup2\n      mstore\n      0x20\n      add\n      swap1\n      dup2\n      mstore\n      0x20\n      add\n      0x00\n      keccak256\n      0x00\n      swap1\n      sload\n      swap1\n      0x0100\n      exp\n      swap1\n      div\n      0xff\n      and\n        /* \"contracts/AccessControl.sol\":7839:8006  if(_allPermissions[_indexOfPermissions[i]].members[account]){\r... */\n      iszero\n      tag_170\n      jumpi\n        /* \"contracts/AccessControl.sol\":7981:7986  false */\n      0x00\n        /* \"contracts/AccessControl.sol\":7922:7937  _allPermissions */\n      dup1\n        /* \"contracts/AccessControl.sol\":7922:7961  _allPermissions[_indexOfPermissions[i]] */\n      0x00\n        /* \"contracts/AccessControl.sol\":7938:7957  _indexOfPermissions */\n      0x01\n        /* \"contracts/AccessControl.sol\":7938:7960  _indexOfPermissions[i] */\n      0x00\n        /* \"contracts/AccessControl.sol\":7958:7959  i */\n      dup6\n        /* \"contracts/AccessControl.sol\":7938:7960  _indexOfPermissions[i] */\n      dup2\n      mstore\n      0x20\n      add\n      swap1\n      dup2\n      mstore\n      0x20\n      add\n      0x00\n      keccak256\n      sload\n        /* \"contracts/AccessControl.sol\":7922:7961  _allPermissions[_indexOfPermissions[i]] */\n      dup2\n      mstore\n      0x20\n      add\n      swap1\n      dup2\n      mstore\n      0x20\n      add\n      0x00\n      keccak256\n        /* \"contracts/AccessControl.sol\":7922:7969  _allPermissions[_indexOfPermissions[i]].members */\n      0x00\n      add\n        /* \"contracts/AccessControl.sol\":7922:7978  _allPermissions[_indexOfPermissions[i]].members[account] */\n      0x00\n        /* \"contracts/AccessControl.sol\":7970:7977  account */\n      dup5\n        /* \"contracts/AccessControl.sol\":7922:7978  _allPermissions[_indexOfPermissions[i]].members[account] */\n      0xffffffffffffffffffffffffffffffffffffffff\n      and\n      0xffffffffffffffffffffffffffffffffffffffff\n      and\n      dup2\n      mstore\n      0x20\n      add\n      swap1\n      dup2\n      mstore\n      0x20\n      add\n      0x00\n      keccak256\n      0x00\n        /* \"contracts/AccessControl.sol\":7922:7986  _allPermissions[_indexOfPermissions[i]].members[account] = false */\n      0x0100\n      exp\n      dup2\n      sload\n      dup2\n      0xff\n      mul\n      not\n      and\n      swap1\n      dup4\n      iszero\n      iszero\n      mul\n      or\n      swap1\n      sstore\n      pop\n        /* \"contracts/AccessControl.sol\":7839:8006  if(_allPermissions[_indexOfPermissions[i]].members[account]){\r... */\n    tag_170:\n        /* \"contracts/AccessControl.sol\":7815:7818  i++ */\n      dup1\n      dup1\n      tag_171\n      swap1\n      tag_160\n      jump\t// in\n    tag_171:\n      swap2\n      pop\n      pop\n        /* \"contracts/AccessControl.sol\":7773:8021  for(uint i = 1; i < _numberOfPermissions; i++) {\r... */\n      jump(tag_167)\n    tag_168:\n      pop\n        /* \"contracts/AccessControl.sol\":8060:8070  msg.sender */\n      caller\n        /* \"contracts/AccessControl.sol\":8036:8071  AccountDeleted(account, msg.sender) */\n      0xffffffffffffffffffffffffffffffffffffffff\n      and\n        /* \"contracts/AccessControl.sol\":8051:8058  account */\n      dup2\n        /* \"contracts/AccessControl.sol\":8036:8071  AccountDeleted(account, msg.sender) */\n      0xffffffffffffffffffffffffffffffffffffffff\n      and\n      0xfd7e144a5e02c1180e00f9591ef4f60aa95b127c4f134847224a4b6cb99fef96\n      mload(0x40)\n      mload(0x40)\n      dup1\n      swap2\n      sub\n      swap1\n      log3\n        /* \"contracts/AccessControl.sol\":7632:8158  if(!_check(ADMIN, account) || _check(ADMIN, msg.sender)) {\r... */\n      jump(tag_172)\n    tag_166:\n        /* \"contracts/AccessControl.sol\":8104:8146  _informFailure(\"You cannot delete ADMIN.\") */\n      tag_173\n      mload(0x40)\n      dup1\n      0x40\n      add\n      0x40\n      mstore\n      dup1\n      0x18\n      dup2\n      mstore\n      0x20\n      add\n      0x596f752063616e6e6f742064656c6574652041444d494e2e0000000000000000\n      dup2\n      mstore\n      pop\n        /* \"contracts/AccessControl.sol\":8104:8118  _informFailure */\n      tag_148\n        /* \"contracts/AccessControl.sol\":8104:8146  _informFailure(\"You cannot delete ADMIN.\") */\n      jump\t// in\n    tag_173:\n        /* \"contracts/AccessControl.sol\":7632:8158  if(!_check(ADMIN, account) || _check(ADMIN, msg.sender)) {\r... */\n    tag_172:\n        /* \"contracts/AccessControl.sol\":7482:8165  function _deleteAccount(address account) internal virtual {\r... */\n      pop\n      jump\t// out\n        /* \"contracts/AccessControl.sol\":10024:10357  function _inquiryAdmin() internal view virtual returns (address) {\r... */\n    tag_95:\n        /* \"contracts/AccessControl.sol\":10080:10087  address */\n      0x00\n        /* \"contracts/AccessControl.sol\":10100:10106  uint i */\n      dup1\n        /* \"contracts/AccessControl.sol\":10109:10110  0 */\n      0x00\n        /* \"contracts/AccessControl.sol\":10100:10110  uint i = 0 */\n      swap1\n      pop\n        /* \"contracts/AccessControl.sol\":10121:10301  for(; i < _allPermissions[ADMIN].length; i++) {\r... */\n    tag_175:\n        /* \"contracts/AccessControl.sol\":10131:10146  _allPermissions */\n      0x00\n        /* \"contracts/AccessControl.sol\":10131:10153  _allPermissions[ADMIN] */\n      dup1\n        /* \"contracts/AccessControl.sol\":677:695  keccak256(\"ADMIN\") */\n      0xdf8b4c520ffe197c5343c6f5aec59570151ef9a492f2c624fd45ddde6135ec42\n        /* \"contracts/AccessControl.sol\":10131:10153  _allPermissions[ADMIN] */\n      dup2\n      mstore\n      0x20\n      add\n      swap1\n      dup2\n      mstore\n      0x20\n      add\n      0x00\n      keccak256\n        /* \"contracts/AccessControl.sol\":10131:10160  _allPermissions[ADMIN].length */\n      0x02\n      add\n      sload\n        /* \"contracts/AccessControl.sol\":10127:10128  i */\n      dup2\n        /* \"contracts/AccessControl.sol\":10127:10160  i < _allPermissions[ADMIN].length */\n      lt\n        /* \"contracts/AccessControl.sol\":10121:10301  for(; i < _allPermissions[ADMIN].length; i++) {\r... */\n      iszero\n      tag_176\n      jumpi\n        /* \"contracts/AccessControl.sol\":10185:10200  _allPermissions */\n      0x00\n        /* \"contracts/AccessControl.sol\":10185:10207  _allPermissions[ADMIN] */\n      dup1\n        /* \"contracts/AccessControl.sol\":677:695  keccak256(\"ADMIN\") */\n      0xdf8b4c520ffe197c5343c6f5aec59570151ef9a492f2c624fd45ddde6135ec42\n        /* \"contracts/AccessControl.sol\":10185:10207  _allPermissions[ADMIN] */\n      dup2\n      mstore\n      0x20\n      add\n      swap1\n      dup2\n      mstore\n      0x20\n      add\n      0x00\n      keccak256\n        /* \"contracts/AccessControl.sol\":10185:10215  _allPermissions[ADMIN].members */\n      0x00\n      add\n        /* \"contracts/AccessControl.sol\":10185:10248  _allPermissions[ADMIN].members[_allPermissions[ADMIN].index[i]] */\n      0x00\n        /* \"contracts/AccessControl.sol\":10216:10231  _allPermissions */\n      dup1\n        /* \"contracts/AccessControl.sol\":10216:10238  _allPermissions[ADMIN] */\n      0x00\n        /* \"contracts/AccessControl.sol\":677:695  keccak256(\"ADMIN\") */\n      0xdf8b4c520ffe197c5343c6f5aec59570151ef9a492f2c624fd45ddde6135ec42\n        /* \"contracts/AccessControl.sol\":10216:10238  _allPermissions[ADMIN] */\n      dup2\n      mstore\n      0x20\n      add\n      swap1\n      dup2\n      mstore\n      0x20\n      add\n      0x00\n      keccak256\n        /* \"contracts/AccessControl.sol\":10216:10244  _allPermissions[ADMIN].index */\n      0x01\n      add\n        /* \"contracts/AccessControl.sol\":10216:10247  _allPermissions[ADMIN].index[i] */\n      0x00\n        /* \"contracts/AccessControl.sol\":10245:10246  i */\n      dup5\n        /* \"contracts/AccessControl.sol\":10216:10247  _allPermissions[ADMIN].index[i] */\n      dup2\n      mstore\n      0x20\n      add\n      swap1\n      dup2\n      mstore\n      0x20\n      add\n      0x00\n      keccak256\n      0x00\n      swap1\n      sload\n      swap1\n      0x0100\n      exp\n      swap1\n      div\n      0xffffffffffffffffffffffffffffffffffffffff\n      and\n        /* \"contracts/AccessControl.sol\":10185:10248  _allPermissions[ADMIN].members[_allPermissions[ADMIN].index[i]] */\n      0xffffffffffffffffffffffffffffffffffffffff\n      and\n      0xffffffffffffffffffffffffffffffffffffffff\n      and\n      dup2\n      mstore\n      0x20\n      add\n      swap1\n      dup2\n      mstore\n      0x20\n      add\n      0x00\n      keccak256\n      0x00\n      swap1\n      sload\n      swap1\n      0x0100\n      exp\n      swap1\n      div\n      0xff\n      and\n        /* \"contracts/AccessControl.sol\":10182:10290  if(_allPermissions[ADMIN].members[_allPermissions[ADMIN].index[i]]) {\r... */\n      iszero\n      tag_178\n      jumpi\n        /* \"contracts/AccessControl.sol\":10269:10274  break */\n      jump(tag_176)\n        /* \"contracts/AccessControl.sol\":10182:10290  if(_allPermissions[ADMIN].members[_allPermissions[ADMIN].index[i]]) {\r... */\n    tag_178:\n        /* \"contracts/AccessControl.sol\":10162:10165  i++ */\n      dup1\n      dup1\n      tag_179\n      swap1\n      tag_160\n      jump\t// in\n    tag_179:\n      swap2\n      pop\n      pop\n        /* \"contracts/AccessControl.sol\":10121:10301  for(; i < _allPermissions[ADMIN].length; i++) {\r... */\n      jump(tag_175)\n    tag_176:\n        /* \"contracts/AccessControl.sol\":10318:10333  _allPermissions */\n      0x00\n        /* \"contracts/AccessControl.sol\":10318:10340  _allPermissions[ADMIN] */\n      dup1\n        /* \"contracts/AccessControl.sol\":677:695  keccak256(\"ADMIN\") */\n      0xdf8b4c520ffe197c5343c6f5aec59570151ef9a492f2c624fd45ddde6135ec42\n        /* \"contracts/AccessControl.sol\":10318:10340  _allPermissions[ADMIN] */\n      dup2\n      mstore\n      0x20\n      add\n      swap1\n      dup2\n      mstore\n      0x20\n      add\n      0x00\n      keccak256\n        /* \"contracts/AccessControl.sol\":10318:10346  _allPermissions[ADMIN].index */\n      0x01\n      add\n        /* \"contracts/AccessControl.sol\":10318:10349  _allPermissions[ADMIN].index[i] */\n      0x00\n        /* \"contracts/AccessControl.sol\":10347:10348  i */\n      dup3\n        /* \"contracts/AccessControl.sol\":10318:10349  _allPermissions[ADMIN].index[i] */\n      dup2\n      mstore\n      0x20\n      add\n      swap1\n      dup2\n      mstore\n      0x20\n      add\n      0x00\n      keccak256\n      0x00\n      swap1\n      sload\n      swap1\n      0x0100\n      exp\n      swap1\n      div\n      0xffffffffffffffffffffffffffffffffffffffff\n      and\n        /* \"contracts/AccessControl.sol\":10311:10349  return _allPermissions[ADMIN].index[i] */\n      swap2\n      pop\n      pop\n        /* \"contracts/AccessControl.sol\":10024:10357  function _inquiryAdmin() internal view virtual returns (address) {\r... */\n      swap1\n      jump\t// out\n        /* \"contracts/AccessControl.sol\":8173:8455  function _transferAdmin(address account) internal virtual {\r... */\n    tag_102:\n        /* \"contracts/AccessControl.sol\":8287:8292  false */\n      0x00\n        /* \"contracts/AccessControl.sol\":8242:8257  _allPermissions */\n      dup1\n        /* \"contracts/AccessControl.sol\":8242:8264  _allPermissions[ADMIN] */\n      0x00\n        /* \"contracts/AccessControl.sol\":677:695  keccak256(\"ADMIN\") */\n      0xdf8b4c520ffe197c5343c6f5aec59570151ef9a492f2c624fd45ddde6135ec42\n        /* \"contracts/AccessControl.sol\":8242:8264  _allPermissions[ADMIN] */\n      dup2\n      mstore\n      0x20\n      add\n      swap1\n      dup2\n      mstore\n      0x20\n      add\n      0x00\n      keccak256\n        /* \"contracts/AccessControl.sol\":8242:8272  _allPermissions[ADMIN].members */\n      0x00\n      add\n        /* \"contracts/AccessControl.sol\":8242:8284  _allPermissions[ADMIN].members[msg.sender] */\n      0x00\n        /* \"contracts/AccessControl.sol\":8273:8283  msg.sender */\n      caller\n        /* \"contracts/AccessControl.sol\":8242:8284  _allPermissions[ADMIN].members[msg.sender] */\n      0xffffffffffffffffffffffffffffffffffffffff\n      and\n      0xffffffffffffffffffffffffffffffffffffffff\n      and\n      dup2\n      mstore\n      0x20\n      add\n      swap1\n      dup2\n      mstore\n      0x20\n      add\n      0x00\n      keccak256\n      0x00\n        /* \"contracts/AccessControl.sol\":8242:8292  _allPermissions[ADMIN].members[msg.sender] = false */\n      0x0100\n      exp\n      dup2\n      sload\n      dup2\n      0xff\n      mul\n      not\n      and\n      swap1\n      dup4\n      iszero\n      iszero\n      mul\n      or\n      swap1\n      sstore\n      pop\n        /* \"contracts/AccessControl.sol\":8303:8338  _changeAccountIndex(ADMIN, account) */\n      tag_181\n        /* \"contracts/AccessControl.sol\":677:695  keccak256(\"ADMIN\") */\n      0xdf8b4c520ffe197c5343c6f5aec59570151ef9a492f2c624fd45ddde6135ec42\n        /* \"contracts/AccessControl.sol\":8330:8337  account */\n      dup3\n        /* \"contracts/AccessControl.sol\":8303:8322  _changeAccountIndex */\n      tag_182\n        /* \"contracts/AccessControl.sol\":8303:8338  _changeAccountIndex(ADMIN, account) */\n      jump\t// in\n    tag_181:\n        /* \"contracts/AccessControl.sol\":8391:8395  true */\n      0x01\n        /* \"contracts/AccessControl.sol\":8349:8364  _allPermissions */\n      0x00\n        /* \"contracts/AccessControl.sol\":8349:8371  _allPermissions[ADMIN] */\n      dup1\n        /* \"contracts/AccessControl.sol\":677:695  keccak256(\"ADMIN\") */\n      0xdf8b4c520ffe197c5343c6f5aec59570151ef9a492f2c624fd45ddde6135ec42\n        /* \"contracts/AccessControl.sol\":8349:8371  _allPermissions[ADMIN] */\n      dup2\n      mstore\n      0x20\n      add\n      swap1\n      dup2\n      mstore\n      0x20\n      add\n      0x00\n      keccak256\n        /* \"contracts/AccessControl.sol\":8349:8379  _allPermissions[ADMIN].members */\n      0x00\n      add\n        /* \"contracts/AccessControl.sol\":8349:8388  _allPermissions[ADMIN].members[account] */\n      0x00\n        /* \"contracts/AccessControl.sol\":8380:8387  account */\n      dup4\n        /* \"contracts/AccessControl.sol\":8349:8388  _allPermissions[ADMIN].members[account] */\n      0xffffffffffffffffffffffffffffffffffffffff\n      and\n      0xffffffffffffffffffffffffffffffffffffffff\n      and\n      dup2\n      mstore\n      0x20\n      add\n      swap1\n      dup2\n      mstore\n      0x20\n      add\n      0x00\n      keccak256\n      0x00\n        /* \"contracts/AccessControl.sol\":8349:8395  _allPermissions[ADMIN].members[account] = true */\n      0x0100\n      exp\n      dup2\n      sload\n      dup2\n      0xff\n      mul\n      not\n      and\n      swap1\n      dup4\n      iszero\n      iszero\n      mul\n      or\n      swap1\n      sstore\n      pop\n        /* \"contracts/AccessControl.sol\":8436:8446  msg.sender */\n      caller\n        /* \"contracts/AccessControl.sol\":8411:8447  AdminTransfered(account, msg.sender) */\n      0xffffffffffffffffffffffffffffffffffffffff\n      and\n        /* \"contracts/AccessControl.sol\":8427:8434  account */\n      dup2\n        /* \"contracts/AccessControl.sol\":8411:8447  AdminTransfered(account, msg.sender) */\n      0xffffffffffffffffffffffffffffffffffffffff\n      and\n      0x173de3514d8508f36ce8c81d509adcd8c8c76098400f685d3042b36f9a4160c3\n      mload(0x40)\n      mload(0x40)\n      dup1\n      swap2\n      sub\n      swap1\n      log3\n        /* \"contracts/AccessControl.sol\":8173:8455  function _transferAdmin(address account) internal virtual {\r... */\n      pop\n      jump\t// out\n        /* \"contracts/AccessControl.sol\":8867:9358  function _inquiryAllPermissionsByAccount(address account) \r... */\n    tag_109:\n        /* \"contracts/AccessControl.sol\":8976:8992  bytes32[] memory */\n      0x60\n        /* \"contracts/AccessControl.sol\":9011:9046  bytes32[] memory relatedPermissions */\n      dup1\n        /* \"contracts/AccessControl.sol\":9057:9063  uint j */\n      0x00\n        /* \"contracts/AccessControl.sol\":9082:9088  uint i */\n      dup1\n        /* \"contracts/AccessControl.sol\":9078:9315  for(uint i = 0; i < _numberOfPermissions; i++) {\r... */\n    tag_184:\n        /* \"contracts/AccessControl.sol\":9098:9118  _numberOfPermissions */\n      sload(0x02)\n        /* \"contracts/AccessControl.sol\":9094:9095  i */\n      dup2\n        /* \"contracts/AccessControl.sol\":9094:9118  i < _numberOfPermissions */\n      lt\n        /* \"contracts/AccessControl.sol\":9078:9315  for(uint i = 0; i < _numberOfPermissions; i++) {\r... */\n      iszero\n      tag_185\n      jumpi\n        /* \"contracts/AccessControl.sol\":9143:9158  _allPermissions */\n      0x00\n        /* \"contracts/AccessControl.sol\":9143:9182  _allPermissions[_indexOfPermissions[i]] */\n      dup1\n        /* \"contracts/AccessControl.sol\":9159:9178  _indexOfPermissions */\n      0x01\n        /* \"contracts/AccessControl.sol\":9159:9181  _indexOfPermissions[i] */\n      0x00\n        /* \"contracts/AccessControl.sol\":9179:9180  i */\n      dup5\n        /* \"contracts/AccessControl.sol\":9159:9181  _indexOfPermissions[i] */\n      dup2\n      mstore\n      0x20\n      add\n      swap1\n      dup2\n      mstore\n      0x20\n      add\n      0x00\n      keccak256\n      sload\n        /* \"contracts/AccessControl.sol\":9143:9182  _allPermissions[_indexOfPermissions[i]] */\n      dup2\n      mstore\n      0x20\n      add\n      swap1\n      dup2\n      mstore\n      0x20\n      add\n      0x00\n      keccak256\n        /* \"contracts/AccessControl.sol\":9143:9190  _allPermissions[_indexOfPermissions[i]].members */\n      0x00\n      add\n        /* \"contracts/AccessControl.sol\":9143:9199  _allPermissions[_indexOfPermissions[i]].members[account] */\n      0x00\n        /* \"contracts/AccessControl.sol\":9191:9198  account */\n      dup7\n        /* \"contracts/AccessControl.sol\":9143:9199  _allPermissions[_indexOfPermissions[i]].members[account] */\n      0xffffffffffffffffffffffffffffffffffffffff\n      and\n      0xffffffffffffffffffffffffffffffffffffffff\n      and\n      dup2\n      mstore\n      0x20\n      add\n      swap1\n      dup2\n      mstore\n      0x20\n      add\n      0x00\n      keccak256\n      0x00\n      swap1\n      sload\n      swap1\n      0x0100\n      exp\n      swap1\n      div\n      0xff\n      and\n        /* \"contracts/AccessControl.sol\":9140:9304  if(_allPermissions[_indexOfPermissions[i]].members[account]) {\r... */\n      iszero\n      tag_187\n      jumpi\n        /* \"contracts/AccessControl.sol\":9244:9263  _indexOfPermissions */\n      0x01\n        /* \"contracts/AccessControl.sol\":9244:9266  _indexOfPermissions[i] */\n      0x00\n        /* \"contracts/AccessControl.sol\":9264:9265  i */\n      dup3\n        /* \"contracts/AccessControl.sol\":9244:9266  _indexOfPermissions[i] */\n      dup2\n      mstore\n      0x20\n      add\n      swap1\n      dup2\n      mstore\n      0x20\n      add\n      0x00\n      keccak256\n      sload\n        /* \"contracts/AccessControl.sol\":9220:9238  relatedPermissions */\n      dup4\n        /* \"contracts/AccessControl.sol\":9239:9240  j */\n      dup4\n        /* \"contracts/AccessControl.sol\":9220:9241  relatedPermissions[j] */\n      dup2\n      mload\n      dup2\n      lt\n      tag_188\n      jumpi\n      tag_189\n      tag_158\n      jump\t// in\n    tag_189:\n    tag_188:\n      0x20\n      mul\n      0x20\n      add\n      add\n        /* \"contracts/AccessControl.sol\":9220:9266  relatedPermissions[j] = _indexOfPermissions[i] */\n      dup2\n      dup2\n      mstore\n      pop\n      pop\n        /* \"contracts/AccessControl.sol\":9285:9288  j++ */\n      dup2\n      dup1\n      tag_190\n      swap1\n      tag_160\n      jump\t// in\n    tag_190:\n      swap3\n      pop\n      pop\n        /* \"contracts/AccessControl.sol\":9140:9304  if(_allPermissions[_indexOfPermissions[i]].members[account]) {\r... */\n    tag_187:\n        /* \"contracts/AccessControl.sol\":9120:9123  i++ */\n      dup1\n      dup1\n      tag_191\n      swap1\n      tag_160\n      jump\t// in\n    tag_191:\n      swap2\n      pop\n      pop\n        /* \"contracts/AccessControl.sol\":9078:9315  for(uint i = 0; i < _numberOfPermissions; i++) {\r... */\n      jump(tag_184)\n    tag_185:\n      pop\n        /* \"contracts/AccessControl.sol\":9332:9350  relatedPermissions */\n      dup2\n        /* \"contracts/AccessControl.sol\":9325:9350  return relatedPermissions */\n      swap3\n      pop\n      pop\n      pop\n        /* \"contracts/AccessControl.sol\":8867:9358  function _inquiryAllPermissionsByAccount(address account) \r... */\n      swap2\n      swap1\n      pop\n      jump\t// out\n        /* \"contracts/AccessControl.sol\":3907:4968  function _createPermissionByLevel(bytes memory permissionName, bytes memory permissionAlready) internal virtual {\r... */\n    tag_116:\n        /* \"contracts/AccessControl.sol\":4030:4048  bytes32 permission */\n      0x00\n        /* \"contracts/AccessControl.sol\":4061:4075  permissionName */\n      dup3\n        /* \"contracts/AccessControl.sol\":4051:4076  keccak256(permissionName) */\n      dup1\n      mload\n      swap1\n      0x20\n      add\n      keccak256\n        /* \"contracts/AccessControl.sol\":4030:4076  bytes32 permission = keccak256(permissionName) */\n      swap1\n      pop\n        /* \"contracts/AccessControl.sol\":4087:4106  bytes32 permissionA */\n      0x00\n        /* \"contracts/AccessControl.sol\":4119:4136  permissionAlready */\n      dup3\n        /* \"contracts/AccessControl.sol\":4109:4137  keccak256(permissionAlready) */\n      dup1\n      mload\n      swap1\n      0x20\n      add\n      keccak256\n        /* \"contracts/AccessControl.sol\":4087:4137  bytes32 permissionA = keccak256(permissionAlready) */\n      swap1\n      pop\n        /* \"contracts/AccessControl.sol\":4153:4168  _allPermissions */\n      0x00\n        /* \"contracts/AccessControl.sol\":4153:4180  _allPermissions[permission] */\n      dup1\n        /* \"contracts/AccessControl.sol\":4169:4179  permission */\n      dup4\n        /* \"contracts/AccessControl.sol\":4153:4180  _allPermissions[permission] */\n      dup2\n      mstore\n      0x20\n      add\n      swap1\n      dup2\n      mstore\n      0x20\n      add\n      0x00\n      keccak256\n        /* \"contracts/AccessControl.sol\":4153:4188  _allPermissions[permission].isValid */\n      0x03\n      add\n      0x00\n      swap1\n      sload\n      swap1\n      0x0100\n      exp\n      swap1\n      div\n      0xff\n      and\n        /* \"contracts/AccessControl.sol\":4148:4961  if (!_allPermissions[permission].isValid) {\r... */\n      tag_193\n      jumpi\n        /* \"contracts/AccessControl.sol\":4205:4239  _changePermissionIndex(permission) */\n      tag_194\n        /* \"contracts/AccessControl.sol\":4228:4238  permission */\n      dup3\n        /* \"contracts/AccessControl.sol\":4205:4227  _changePermissionIndex */\n      tag_195\n        /* \"contracts/AccessControl.sol\":4205:4239  _changePermissionIndex(permission) */\n      jump\t// in\n    tag_194:\n        /* \"contracts/AccessControl.sol\":4292:4296  true */\n      0x01\n        /* \"contracts/AccessControl.sol\":4254:4269  _allPermissions */\n      0x00\n        /* \"contracts/AccessControl.sol\":4254:4281  _allPermissions[permission] */\n      dup1\n        /* \"contracts/AccessControl.sol\":4270:4280  permission */\n      dup5\n        /* \"contracts/AccessControl.sol\":4254:4281  _allPermissions[permission] */\n      dup2\n      mstore\n      0x20\n      add\n      swap1\n      dup2\n      mstore\n      0x20\n      add\n      0x00\n      keccak256\n        /* \"contracts/AccessControl.sol\":4254:4289  _allPermissions[permission].isValid */\n      0x03\n      add\n      0x00\n        /* \"contracts/AccessControl.sol\":4254:4296  _allPermissions[permission].isValid = true */\n      0x0100\n      exp\n      dup2\n      sload\n      dup2\n      0xff\n      mul\n      not\n      and\n      swap1\n      dup4\n      iszero\n      iszero\n      mul\n      or\n      swap1\n      sstore\n      pop\n        /* \"contracts/AccessControl.sol\":4363:4369  uint i */\n      0x00\n        /* \"contracts/AccessControl.sol\":4359:4715  for(uint i = 0; i < _allPermissions[permissionA].length; i++) {\r... */\n    tag_196:\n        /* \"contracts/AccessControl.sol\":4379:4394  _allPermissions */\n      0x00\n        /* \"contracts/AccessControl.sol\":4379:4407  _allPermissions[permissionA] */\n      dup1\n        /* \"contracts/AccessControl.sol\":4395:4406  permissionA */\n      dup4\n        /* \"contracts/AccessControl.sol\":4379:4407  _allPermissions[permissionA] */\n      dup2\n      mstore\n      0x20\n      add\n      swap1\n      dup2\n      mstore\n      0x20\n      add\n      0x00\n      keccak256\n        /* \"contracts/AccessControl.sol\":4379:4414  _allPermissions[permissionA].length */\n      0x02\n      add\n      sload\n        /* \"contracts/AccessControl.sol\":4375:4376  i */\n      dup2\n        /* \"contracts/AccessControl.sol\":4375:4414  i < _allPermissions[permissionA].length */\n      lt\n        /* \"contracts/AccessControl.sol\":4359:4715  for(uint i = 0; i < _allPermissions[permissionA].length; i++) {\r... */\n      iszero\n      tag_197\n      jumpi\n        /* \"contracts/AccessControl.sol\":4440:4462  address indexOfAddress */\n      0x00\n        /* \"contracts/AccessControl.sol\":4465:4480  _allPermissions */\n      dup1\n        /* \"contracts/AccessControl.sol\":4465:4493  _allPermissions[permissionA] */\n      0x00\n        /* \"contracts/AccessControl.sol\":4481:4492  permissionA */\n      dup5\n        /* \"contracts/AccessControl.sol\":4465:4493  _allPermissions[permissionA] */\n      dup2\n      mstore\n      0x20\n      add\n      swap1\n      dup2\n      mstore\n      0x20\n      add\n      0x00\n      keccak256\n        /* \"contracts/AccessControl.sol\":4465:4499  _allPermissions[permissionA].index */\n      0x01\n      add\n        /* \"contracts/AccessControl.sol\":4465:4502  _allPermissions[permissionA].index[i] */\n      0x00\n        /* \"contracts/AccessControl.sol\":4500:4501  i */\n      dup4\n        /* \"contracts/AccessControl.sol\":4465:4502  _allPermissions[permissionA].index[i] */\n      dup2\n      mstore\n      0x20\n      add\n      swap1\n      dup2\n      mstore\n      0x20\n      add\n      0x00\n      keccak256\n      0x00\n      swap1\n      sload\n      swap1\n      0x0100\n      exp\n      swap1\n      div\n      0xffffffffffffffffffffffffffffffffffffffff\n      and\n        /* \"contracts/AccessControl.sol\":4440:4502  address indexOfAddress = _allPermissions[permissionA].index[i] */\n      swap1\n      pop\n        /* \"contracts/AccessControl.sol\":4575:4590  _allPermissions */\n      0x00\n        /* \"contracts/AccessControl.sol\":4575:4603  _allPermissions[permissionA] */\n      dup1\n        /* \"contracts/AccessControl.sol\":4591:4602  permissionA */\n      dup5\n        /* \"contracts/AccessControl.sol\":4575:4603  _allPermissions[permissionA] */\n      dup2\n      mstore\n      0x20\n      add\n      swap1\n      dup2\n      mstore\n      0x20\n      add\n      0x00\n      keccak256\n        /* \"contracts/AccessControl.sol\":4575:4611  _allPermissions[permissionA].members */\n      0x00\n      add\n        /* \"contracts/AccessControl.sol\":4575:4627  _allPermissions[permissionA].members[indexOfAddress] */\n      0x00\n        /* \"contracts/AccessControl.sol\":4612:4626  indexOfAddress */\n      dup3\n        /* \"contracts/AccessControl.sol\":4575:4627  _allPermissions[permissionA].members[indexOfAddress] */\n      0xffffffffffffffffffffffffffffffffffffffff\n      and\n      0xffffffffffffffffffffffffffffffffffffffff\n      and\n      dup2\n      mstore\n      0x20\n      add\n      swap1\n      dup2\n      mstore\n      0x20\n      add\n      0x00\n      keccak256\n      0x00\n      swap1\n      sload\n      swap1\n      0x0100\n      exp\n      swap1\n      div\n      0xff\n      and\n        /* \"contracts/AccessControl.sol\":4521:4536  _allPermissions */\n      0x00\n        /* \"contracts/AccessControl.sol\":4521:4548  _allPermissions[permission] */\n      dup1\n        /* \"contracts/AccessControl.sol\":4537:4547  permission */\n      dup7\n        /* \"contracts/AccessControl.sol\":4521:4548  _allPermissions[permission] */\n      dup2\n      mstore\n      0x20\n      add\n      swap1\n      dup2\n      mstore\n      0x20\n      add\n      0x00\n      keccak256\n        /* \"contracts/AccessControl.sol\":4521:4556  _allPermissions[permission].members */\n      0x00\n      add\n        /* \"contracts/AccessControl.sol\":4521:4572  _allPermissions[permission].members[indexOfAddress] */\n      0x00\n        /* \"contracts/AccessControl.sol\":4557:4571  indexOfAddress */\n      dup4\n        /* \"contracts/AccessControl.sol\":4521:4572  _allPermissions[permission].members[indexOfAddress] */\n      0xffffffffffffffffffffffffffffffffffffffff\n      and\n      0xffffffffffffffffffffffffffffffffffffffff\n      and\n      dup2\n      mstore\n      0x20\n      add\n      swap1\n      dup2\n      mstore\n      0x20\n      add\n      0x00\n      keccak256\n      0x00\n        /* \"contracts/AccessControl.sol\":4521:4627  _allPermissions[permission].members[indexOfAddress] = _allPermissions[permissionA].members[indexOfAddress] */\n      0x0100\n      exp\n      dup2\n      sload\n      dup2\n      0xff\n      mul\n      not\n      and\n      swap1\n      dup4\n      iszero\n      iszero\n      mul\n      or\n      swap1\n      sstore\n      pop\n        /* \"contracts/AccessControl.sol\":4685:4699  indexOfAddress */\n      dup1\n        /* \"contracts/AccessControl.sol\":4646:4661  _allPermissions */\n      0x00\n        /* \"contracts/AccessControl.sol\":4646:4673  _allPermissions[permission] */\n      dup1\n        /* \"contracts/AccessControl.sol\":4662:4672  permission */\n      dup7\n        /* \"contracts/AccessControl.sol\":4646:4673  _allPermissions[permission] */\n      dup2\n      mstore\n      0x20\n      add\n      swap1\n      dup2\n      mstore\n      0x20\n      add\n      0x00\n      keccak256\n        /* \"contracts/AccessControl.sol\":4646:4679  _allPermissions[permission].index */\n      0x01\n      add\n        /* \"contracts/AccessControl.sol\":4646:4682  _allPermissions[permission].index[i] */\n      0x00\n        /* \"contracts/AccessControl.sol\":4680:4681  i */\n      dup5\n        /* \"contracts/AccessControl.sol\":4646:4682  _allPermissions[permission].index[i] */\n      dup2\n      mstore\n      0x20\n      add\n      swap1\n      dup2\n      mstore\n      0x20\n      add\n      0x00\n      keccak256\n      0x00\n        /* \"contracts/AccessControl.sol\":4646:4699  _allPermissions[permission].index[i] = indexOfAddress */\n      0x0100\n      exp\n      dup2\n      sload\n      dup2\n      0xffffffffffffffffffffffffffffffffffffffff\n      mul\n      not\n      and\n      swap1\n      dup4\n      0xffffffffffffffffffffffffffffffffffffffff\n      and\n      mul\n      or\n      swap1\n      sstore\n      pop\n        /* \"contracts/AccessControl.sol\":4421:4715  {\r... */\n      pop\n        /* \"contracts/AccessControl.sol\":4416:4419  i++ */\n      dup1\n      dup1\n      tag_199\n      swap1\n      tag_160\n      jump\t// in\n    tag_199:\n      swap2\n      pop\n      pop\n        /* \"contracts/AccessControl.sol\":4359:4715  for(uint i = 0; i < _allPermissions[permissionA].length; i++) {\r... */\n      jump(tag_196)\n    tag_197:\n      pop\n        /* \"contracts/AccessControl.sol\":4766:4781  _allPermissions */\n      0x00\n        /* \"contracts/AccessControl.sol\":4766:4794  _allPermissions[permissionA] */\n      dup1\n        /* \"contracts/AccessControl.sol\":4782:4793  permissionA */\n      dup3\n        /* \"contracts/AccessControl.sol\":4766:4794  _allPermissions[permissionA] */\n      dup2\n      mstore\n      0x20\n      add\n      swap1\n      dup2\n      mstore\n      0x20\n      add\n      0x00\n      keccak256\n        /* \"contracts/AccessControl.sol\":4766:4801  _allPermissions[permissionA].length */\n      0x02\n      add\n      sload\n        /* \"contracts/AccessControl.sol\":4729:4744  _allPermissions */\n      0x00\n        /* \"contracts/AccessControl.sol\":4729:4756  _allPermissions[permission] */\n      dup1\n        /* \"contracts/AccessControl.sol\":4745:4755  permission */\n      dup5\n        /* \"contracts/AccessControl.sol\":4729:4756  _allPermissions[permission] */\n      dup2\n      mstore\n      0x20\n      add\n      swap1\n      dup2\n      mstore\n      0x20\n      add\n      0x00\n      keccak256\n        /* \"contracts/AccessControl.sol\":4729:4763  _allPermissions[permission].length */\n      0x02\n      add\n        /* \"contracts/AccessControl.sol\":4729:4801  _allPermissions[permission].length = _allPermissions[permissionA].length */\n      dup2\n      swap1\n      sstore\n      pop\n        /* \"contracts/AccessControl.sol\":4855:4865  msg.sender */\n      caller\n        /* \"contracts/AccessControl.sol\":4821:4866  PermissionCreated(permissionName, msg.sender) */\n      0xffffffffffffffffffffffffffffffffffffffff\n      and\n        /* \"contracts/AccessControl.sol\":4839:4853  permissionName */\n      dup5\n        /* \"contracts/AccessControl.sol\":4821:4866  PermissionCreated(permissionName, msg.sender) */\n      mload(0x40)\n      tag_200\n      swap2\n      swap1\n      tag_145\n      jump\t// in\n    tag_200:\n      mload(0x40)\n      dup1\n      swap2\n      sub\n      swap1\n      keccak256\n      0x629a748ba580fe181c6ae2d3673c4bdfea9e1f2d334f36beec502aff5dbaeff2\n      mload(0x40)\n      mload(0x40)\n      dup1\n      swap2\n      sub\n      swap1\n      log3\n        /* \"contracts/AccessControl.sol\":4148:4961  if (!_allPermissions[permission].isValid) {\r... */\n      jump(tag_201)\n    tag_193:\n        /* \"contracts/AccessControl.sol\":4899:4949  _informFailure(\"The permission has alreay exist.\") */\n      tag_202\n      mload(0x40)\n      dup1\n      0x40\n      add\n      0x40\n      mstore\n      dup1\n      0x20\n      dup2\n      mstore\n      0x20\n      add\n      0x546865207065726d697373696f6e2068617320616c726561792065786973742e\n      dup2\n      mstore\n      pop\n        /* \"contracts/AccessControl.sol\":4899:4913  _informFailure */\n      tag_148\n        /* \"contracts/AccessControl.sol\":4899:4949  _informFailure(\"The permission has alreay exist.\") */\n      jump\t// in\n    tag_202:\n        /* \"contracts/AccessControl.sol\":4148:4961  if (!_allPermissions[permission].isValid) {\r... */\n    tag_201:\n        /* \"contracts/AccessControl.sol\":4019:4968  {\r... */\n      pop\n      pop\n        /* \"contracts/AccessControl.sol\":3907:4968  function _createPermissionByLevel(bytes memory permissionName, bytes memory permissionAlready) internal virtual {\r... */\n      pop\n      pop\n      jump\t// out\n        /* \"contracts/AccessControl.sol\":2813:3770  function _createPermission(bytes memory permissionName) internal virtual {\r... */\n    tag_123:\n        /* \"contracts/AccessControl.sol\":2897:2915  bytes32 permission */\n      0x00\n        /* \"contracts/AccessControl.sol\":2928:2942  permissionName */\n      dup2\n        /* \"contracts/AccessControl.sol\":2918:2943  keccak256(permissionName) */\n      dup1\n      mload\n      swap1\n      0x20\n      add\n      keccak256\n        /* \"contracts/AccessControl.sol\":2897:2943  bytes32 permission = keccak256(permissionName) */\n      swap1\n      pop\n        /* \"contracts/AccessControl.sol\":2959:2974  _allPermissions */\n      0x00\n        /* \"contracts/AccessControl.sol\":2959:2986  _allPermissions[permission] */\n      dup1\n        /* \"contracts/AccessControl.sol\":2975:2985  permission */\n      dup3\n        /* \"contracts/AccessControl.sol\":2959:2986  _allPermissions[permission] */\n      dup2\n      mstore\n      0x20\n      add\n      swap1\n      dup2\n      mstore\n      0x20\n      add\n      0x00\n      keccak256\n        /* \"contracts/AccessControl.sol\":2959:2994  _allPermissions[permission].isValid */\n      0x03\n      add\n      0x00\n      swap1\n      sload\n      swap1\n      0x0100\n      exp\n      swap1\n      div\n      0xff\n      and\n        /* \"contracts/AccessControl.sol\":2954:3763  if (!_allPermissions[permission].isValid) {\r... */\n      tag_204\n      jumpi\n        /* \"contracts/AccessControl.sol\":3011:3045  _changePermissionIndex(permission) */\n      tag_205\n        /* \"contracts/AccessControl.sol\":3034:3044  permission */\n      dup2\n        /* \"contracts/AccessControl.sol\":3011:3033  _changePermissionIndex */\n      tag_195\n        /* \"contracts/AccessControl.sol\":3011:3045  _changePermissionIndex(permission) */\n      jump\t// in\n    tag_205:\n        /* \"contracts/AccessControl.sol\":3098:3102  true */\n      0x01\n        /* \"contracts/AccessControl.sol\":3060:3075  _allPermissions */\n      0x00\n        /* \"contracts/AccessControl.sol\":3060:3087  _allPermissions[permission] */\n      dup1\n        /* \"contracts/AccessControl.sol\":3076:3086  permission */\n      dup4\n        /* \"contracts/AccessControl.sol\":3060:3087  _allPermissions[permission] */\n      dup2\n      mstore\n      0x20\n      add\n      swap1\n      dup2\n      mstore\n      0x20\n      add\n      0x00\n      keccak256\n        /* \"contracts/AccessControl.sol\":3060:3095  _allPermissions[permission].isValid */\n      0x03\n      add\n      0x00\n        /* \"contracts/AccessControl.sol\":3060:3102  _allPermissions[permission].isValid = true */\n      0x0100\n      exp\n      dup2\n      sload\n      dup2\n      0xff\n      mul\n      not\n      and\n      swap1\n      dup4\n      iszero\n      iszero\n      mul\n      or\n      swap1\n      sstore\n      pop\n        /* \"contracts/AccessControl.sol\":3189:3195  uint i */\n      0x00\n        /* \"contracts/AccessControl.sol\":3185:3523  for(uint i = 0; i < _allPermissions[ADMIN].length; i++) {\r... */\n    tag_206:\n        /* \"contracts/AccessControl.sol\":3205:3220  _allPermissions */\n      0x00\n        /* \"contracts/AccessControl.sol\":3205:3227  _allPermissions[ADMIN] */\n      dup1\n        /* \"contracts/AccessControl.sol\":677:695  keccak256(\"ADMIN\") */\n      0xdf8b4c520ffe197c5343c6f5aec59570151ef9a492f2c624fd45ddde6135ec42\n        /* \"contracts/AccessControl.sol\":3205:3227  _allPermissions[ADMIN] */\n      dup2\n      mstore\n      0x20\n      add\n      swap1\n      dup2\n      mstore\n      0x20\n      add\n      0x00\n      keccak256\n        /* \"contracts/AccessControl.sol\":3205:3234  _allPermissions[ADMIN].length */\n      0x02\n      add\n      sload\n        /* \"contracts/AccessControl.sol\":3201:3202  i */\n      dup2\n        /* \"contracts/AccessControl.sol\":3201:3234  i < _allPermissions[ADMIN].length */\n      lt\n        /* \"contracts/AccessControl.sol\":3185:3523  for(uint i = 0; i < _allPermissions[ADMIN].length; i++) {\r... */\n      iszero\n      tag_207\n      jumpi\n        /* \"contracts/AccessControl.sol\":3260:3282  address indexOfAddress */\n      0x00\n        /* \"contracts/AccessControl.sol\":3285:3300  _allPermissions */\n      dup1\n        /* \"contracts/AccessControl.sol\":3285:3307  _allPermissions[ADMIN] */\n      0x00\n        /* \"contracts/AccessControl.sol\":677:695  keccak256(\"ADMIN\") */\n      0xdf8b4c520ffe197c5343c6f5aec59570151ef9a492f2c624fd45ddde6135ec42\n        /* \"contracts/AccessControl.sol\":3285:3307  _allPermissions[ADMIN] */\n      dup2\n      mstore\n      0x20\n      add\n      swap1\n      dup2\n      mstore\n      0x20\n      add\n      0x00\n      keccak256\n        /* \"contracts/AccessControl.sol\":3285:3313  _allPermissions[ADMIN].index */\n      0x01\n      add\n        /* \"contracts/AccessControl.sol\":3285:3316  _allPermissions[ADMIN].index[i] */\n      0x00\n        /* \"contracts/AccessControl.sol\":3314:3315  i */\n      dup4\n        /* \"contracts/AccessControl.sol\":3285:3316  _allPermissions[ADMIN].index[i] */\n      dup2\n      mstore\n      0x20\n      add\n      swap1\n      dup2\n      mstore\n      0x20\n      add\n      0x00\n      keccak256\n      0x00\n      swap1\n      sload\n      swap1\n      0x0100\n      exp\n      swap1\n      div\n      0xffffffffffffffffffffffffffffffffffffffff\n      and\n        /* \"contracts/AccessControl.sol\":3260:3316  address indexOfAddress = _allPermissions[ADMIN].index[i] */\n      swap1\n      pop\n        /* \"contracts/AccessControl.sol\":3389:3404  _allPermissions */\n      0x00\n        /* \"contracts/AccessControl.sol\":3389:3411  _allPermissions[ADMIN] */\n      dup1\n        /* \"contracts/AccessControl.sol\":677:695  keccak256(\"ADMIN\") */\n      0xdf8b4c520ffe197c5343c6f5aec59570151ef9a492f2c624fd45ddde6135ec42\n        /* \"contracts/AccessControl.sol\":3389:3411  _allPermissions[ADMIN] */\n      dup2\n      mstore\n      0x20\n      add\n      swap1\n      dup2\n      mstore\n      0x20\n      add\n      0x00\n      keccak256\n        /* \"contracts/AccessControl.sol\":3389:3419  _allPermissions[ADMIN].members */\n      0x00\n      add\n        /* \"contracts/AccessControl.sol\":3389:3435  _allPermissions[ADMIN].members[indexOfAddress] */\n      0x00\n        /* \"contracts/AccessControl.sol\":3420:3434  indexOfAddress */\n      dup3\n        /* \"contracts/AccessControl.sol\":3389:3435  _allPermissions[ADMIN].members[indexOfAddress] */\n      0xffffffffffffffffffffffffffffffffffffffff\n      and\n      0xffffffffffffffffffffffffffffffffffffffff\n      and\n      dup2\n      mstore\n      0x20\n      add\n      swap1\n      dup2\n      mstore\n      0x20\n      add\n      0x00\n      keccak256\n      0x00\n      swap1\n      sload\n      swap1\n      0x0100\n      exp\n      swap1\n      div\n      0xff\n      and\n        /* \"contracts/AccessControl.sol\":3335:3350  _allPermissions */\n      0x00\n        /* \"contracts/AccessControl.sol\":3335:3362  _allPermissions[permission] */\n      dup1\n        /* \"contracts/AccessControl.sol\":3351:3361  permission */\n      dup6\n        /* \"contracts/AccessControl.sol\":3335:3362  _allPermissions[permission] */\n      dup2\n      mstore\n      0x20\n      add\n      swap1\n      dup2\n      mstore\n      0x20\n      add\n      0x00\n      keccak256\n        /* \"contracts/AccessControl.sol\":3335:3370  _allPermissions[permission].members */\n      0x00\n      add\n        /* \"contracts/AccessControl.sol\":3335:3386  _allPermissions[permission].members[indexOfAddress] */\n      0x00\n        /* \"contracts/AccessControl.sol\":3371:3385  indexOfAddress */\n      dup4\n        /* \"contracts/AccessControl.sol\":3335:3386  _allPermissions[permission].members[indexOfAddress] */\n      0xffffffffffffffffffffffffffffffffffffffff\n      and\n      0xffffffffffffffffffffffffffffffffffffffff\n      and\n      dup2\n      mstore\n      0x20\n      add\n      swap1\n      dup2\n      mstore\n      0x20\n      add\n      0x00\n      keccak256\n      0x00\n        /* \"contracts/AccessControl.sol\":3335:3435  _allPermissions[permission].members[indexOfAddress] = _allPermissions[ADMIN].members[indexOfAddress] */\n      0x0100\n      exp\n      dup2\n      sload\n      dup2\n      0xff\n      mul\n      not\n      and\n      swap1\n      dup4\n      iszero\n      iszero\n      mul\n      or\n      swap1\n      sstore\n      pop\n        /* \"contracts/AccessControl.sol\":3493:3507  indexOfAddress */\n      dup1\n        /* \"contracts/AccessControl.sol\":3454:3469  _allPermissions */\n      0x00\n        /* \"contracts/AccessControl.sol\":3454:3481  _allPermissions[permission] */\n      dup1\n        /* \"contracts/AccessControl.sol\":3470:3480  permission */\n      dup6\n        /* \"contracts/AccessControl.sol\":3454:3481  _allPermissions[permission] */\n      dup2\n      mstore\n      0x20\n      add\n      swap1\n      dup2\n      mstore\n      0x20\n      add\n      0x00\n      keccak256\n        /* \"contracts/AccessControl.sol\":3454:3487  _allPermissions[permission].index */\n      0x01\n      add\n        /* \"contracts/AccessControl.sol\":3454:3490  _allPermissions[permission].index[i] */\n      0x00\n        /* \"contracts/AccessControl.sol\":3488:3489  i */\n      dup5\n        /* \"contracts/AccessControl.sol\":3454:3490  _allPermissions[permission].index[i] */\n      dup2\n      mstore\n      0x20\n      add\n      swap1\n      dup2\n      mstore\n      0x20\n      add\n      0x00\n      keccak256\n      0x00\n        /* \"contracts/AccessControl.sol\":3454:3507  _allPermissions[permission].index[i] = indexOfAddress */\n      0x0100\n      exp\n      dup2\n      sload\n      dup2\n      0xffffffffffffffffffffffffffffffffffffffff\n      mul\n      not\n      and\n      swap1\n      dup4\n      0xffffffffffffffffffffffffffffffffffffffff\n      and\n      mul\n      or\n      swap1\n      sstore\n      pop\n        /* \"contracts/AccessControl.sol\":3241:3523  {\r... */\n      pop\n        /* \"contracts/AccessControl.sol\":3236:3239  i++ */\n      dup1\n      dup1\n      tag_209\n      swap1\n      tag_160\n      jump\t// in\n    tag_209:\n      swap2\n      pop\n      pop\n        /* \"contracts/AccessControl.sol\":3185:3523  for(uint i = 0; i < _allPermissions[ADMIN].length; i++) {\r... */\n      jump(tag_206)\n    tag_207:\n      pop\n        /* \"contracts/AccessControl.sol\":3574:3589  _allPermissions */\n      0x00\n        /* \"contracts/AccessControl.sol\":3574:3596  _allPermissions[ADMIN] */\n      dup1\n        /* \"contracts/AccessControl.sol\":677:695  keccak256(\"ADMIN\") */\n      0xdf8b4c520ffe197c5343c6f5aec59570151ef9a492f2c624fd45ddde6135ec42\n        /* \"contracts/AccessControl.sol\":3574:3596  _allPermissions[ADMIN] */\n      dup2\n      mstore\n      0x20\n      add\n      swap1\n      dup2\n      mstore\n      0x20\n      add\n      0x00\n      keccak256\n        /* \"contracts/AccessControl.sol\":3574:3603  _allPermissions[ADMIN].length */\n      0x02\n      add\n      sload\n        /* \"contracts/AccessControl.sol\":3537:3552  _allPermissions */\n      0x00\n        /* \"contracts/AccessControl.sol\":3537:3564  _allPermissions[permission] */\n      dup1\n        /* \"contracts/AccessControl.sol\":3553:3563  permission */\n      dup4\n        /* \"contracts/AccessControl.sol\":3537:3564  _allPermissions[permission] */\n      dup2\n      mstore\n      0x20\n      add\n      swap1\n      dup2\n      mstore\n      0x20\n      add\n      0x00\n      keccak256\n        /* \"contracts/AccessControl.sol\":3537:3571  _allPermissions[permission].length */\n      0x02\n      add\n        /* \"contracts/AccessControl.sol\":3537:3603  _allPermissions[permission].length = _allPermissions[ADMIN].length */\n      dup2\n      swap1\n      sstore\n      pop\n        /* \"contracts/AccessControl.sol\":3657:3667  msg.sender */\n      caller\n        /* \"contracts/AccessControl.sol\":3623:3668  PermissionCreated(permissionName, msg.sender) */\n      0xffffffffffffffffffffffffffffffffffffffff\n      and\n        /* \"contracts/AccessControl.sol\":3641:3655  permissionName */\n      dup3\n        /* \"contracts/AccessControl.sol\":3623:3668  PermissionCreated(permissionName, msg.sender) */\n      mload(0x40)\n      tag_210\n      swap2\n      swap1\n      tag_145\n      jump\t// in\n    tag_210:\n      mload(0x40)\n      dup1\n      swap2\n      sub\n      swap1\n      keccak256\n      0x629a748ba580fe181c6ae2d3673c4bdfea9e1f2d334f36beec502aff5dbaeff2\n      mload(0x40)\n      mload(0x40)\n      dup1\n      swap2\n      sub\n      swap1\n      log3\n        /* \"contracts/AccessControl.sol\":2954:3763  if (!_allPermissions[permission].isValid) {\r... */\n      jump(tag_211)\n    tag_204:\n        /* \"contracts/AccessControl.sol\":3701:3751  _informFailure(\"The permission has alreay exist.\") */\n      tag_212\n      mload(0x40)\n      dup1\n      0x40\n      add\n      0x40\n      mstore\n      dup1\n      0x20\n      dup2\n      mstore\n      0x20\n      add\n      0x546865207065726d697373696f6e2068617320616c726561792065786973742e\n      dup2\n      mstore\n      pop\n        /* \"contracts/AccessControl.sol\":3701:3715  _informFailure */\n      tag_148\n        /* \"contracts/AccessControl.sol\":3701:3751  _informFailure(\"The permission has alreay exist.\") */\n      jump\t// in\n    tag_212:\n        /* \"contracts/AccessControl.sol\":2954:3763  if (!_allPermissions[permission].isValid) {\r... */\n    tag_211:\n        /* \"contracts/AccessControl.sol\":2886:3770  {\r... */\n      pop\n        /* \"contracts/AccessControl.sol\":2813:3770  function _createPermission(bytes memory permissionName) internal virtual {\r... */\n      pop\n      jump\t// out\n        /* \"contracts/AccessControl.sol\":6238:6837  function _grantAccountPermission(bytes memory permissionName, address account) internal virtual {\r... */\n    tag_130:\n        /* \"contracts/AccessControl.sol\":6345:6363  bytes32 permission */\n      0x00\n        /* \"contracts/AccessControl.sol\":6376:6390  permissionName */\n      dup3\n        /* \"contracts/AccessControl.sol\":6366:6391  keccak256(permissionName) */\n      dup1\n      mload\n      swap1\n      0x20\n      add\n      keccak256\n        /* \"contracts/AccessControl.sol\":6345:6391  bytes32 permission = keccak256(permissionName) */\n      swap1\n      pop\n        /* \"contracts/AccessControl.sol\":6484:6499  _allPermissions */\n      0x00\n        /* \"contracts/AccessControl.sol\":6484:6511  _allPermissions[permission] */\n      dup1\n        /* \"contracts/AccessControl.sol\":6500:6510  permission */\n      dup3\n        /* \"contracts/AccessControl.sol\":6484:6511  _allPermissions[permission] */\n      dup2\n      mstore\n      0x20\n      add\n      swap1\n      dup2\n      mstore\n      0x20\n      add\n      0x00\n      keccak256\n        /* \"contracts/AccessControl.sol\":6484:6519  _allPermissions[permission].isValid */\n      0x03\n      add\n      0x00\n      swap1\n      sload\n      swap1\n      0x0100\n      exp\n      swap1\n      div\n      0xff\n      and\n        /* \"contracts/AccessControl.sol\":6484:6542  _allPermissions[permission].isValid && permission != ADMIN */\n      dup1\n      iszero\n      tag_214\n      jumpi\n      pop\n        /* \"contracts/AccessControl.sol\":677:695  keccak256(\"ADMIN\") */\n      0xdf8b4c520ffe197c5343c6f5aec59570151ef9a492f2c624fd45ddde6135ec42\n        /* \"contracts/AccessControl.sol\":6523:6533  permission */\n      dup2\n        /* \"contracts/AccessControl.sol\":6523:6542  permission != ADMIN */\n      eq\n      iszero\n        /* \"contracts/AccessControl.sol\":6484:6542  _allPermissions[permission].isValid && permission != ADMIN */\n    tag_214:\n        /* \"contracts/AccessControl.sol\":6480:6830  if (_allPermissions[permission].isValid && permission != ADMIN) {\r... */\n      iszero\n      tag_215\n      jumpi\n        /* \"contracts/AccessControl.sol\":6559:6599  _changeAccountIndex(permission, account) */\n      tag_216\n        /* \"contracts/AccessControl.sol\":6579:6589  permission */\n      dup2\n        /* \"contracts/AccessControl.sol\":6591:6598  account */\n      dup4\n        /* \"contracts/AccessControl.sol\":6559:6578  _changeAccountIndex */\n      tag_182\n        /* \"contracts/AccessControl.sol\":6559:6599  _changeAccountIndex(permission, account) */\n      jump\t// in\n    tag_216:\n        /* \"contracts/AccessControl.sol\":6661:6665  true */\n      0x01\n        /* \"contracts/AccessControl.sol\":6614:6629  _allPermissions */\n      0x00\n        /* \"contracts/AccessControl.sol\":6614:6641  _allPermissions[permission] */\n      dup1\n        /* \"contracts/AccessControl.sol\":6630:6640  permission */\n      dup4\n        /* \"contracts/AccessControl.sol\":6614:6641  _allPermissions[permission] */\n      dup2\n      mstore\n      0x20\n      add\n      swap1\n      dup2\n      mstore\n      0x20\n      add\n      0x00\n      keccak256\n        /* \"contracts/AccessControl.sol\":6614:6649  _allPermissions[permission].members */\n      0x00\n      add\n        /* \"contracts/AccessControl.sol\":6614:6658  _allPermissions[permission].members[account] */\n      0x00\n        /* \"contracts/AccessControl.sol\":6650:6657  account */\n      dup5\n        /* \"contracts/AccessControl.sol\":6614:6658  _allPermissions[permission].members[account] */\n      0xffffffffffffffffffffffffffffffffffffffff\n      and\n      0xffffffffffffffffffffffffffffffffffffffff\n      and\n      dup2\n      mstore\n      0x20\n      add\n      swap1\n      dup2\n      mstore\n      0x20\n      add\n      0x00\n      keccak256\n      0x00\n        /* \"contracts/AccessControl.sol\":6614:6665  _allPermissions[permission].members[account] = true */\n      0x0100\n      exp\n      dup2\n      sload\n      dup2\n      0xff\n      mul\n      not\n      and\n      swap1\n      dup4\n      iszero\n      iszero\n      mul\n      or\n      swap1\n      sstore\n      pop\n        /* \"contracts/AccessControl.sol\":6728:6738  msg.sender */\n      caller\n        /* \"contracts/AccessControl.sol\":6685:6739  PermissionGranted(permissionName, account, msg.sender) */\n      0xffffffffffffffffffffffffffffffffffffffff\n      and\n        /* \"contracts/AccessControl.sol\":6719:6726  account */\n      dup3\n        /* \"contracts/AccessControl.sol\":6685:6739  PermissionGranted(permissionName, account, msg.sender) */\n      0xffffffffffffffffffffffffffffffffffffffff\n      and\n        /* \"contracts/AccessControl.sol\":6703:6717  permissionName */\n      dup5\n        /* \"contracts/AccessControl.sol\":6685:6739  PermissionGranted(permissionName, account, msg.sender) */\n      mload(0x40)\n      tag_217\n      swap2\n      swap1\n      tag_145\n      jump\t// in\n    tag_217:\n      mload(0x40)\n      dup1\n      swap2\n      sub\n      swap1\n      keccak256\n      0x1bbdb8ca05419dffb11afa5105f78331a46e3d8a8b900efb115bbb4175a9c2d3\n      mload(0x40)\n      mload(0x40)\n      dup1\n      swap2\n      sub\n      swap1\n      log4\n        /* \"contracts/AccessControl.sol\":6480:6830  if (_allPermissions[permission].isValid && permission != ADMIN) {\r... */\n      jump(tag_218)\n    tag_215:\n        /* \"contracts/AccessControl.sol\":6772:6818  _informFailure(\"The permission is not valid.\") */\n      tag_219\n      mload(0x40)\n      dup1\n      0x40\n      add\n      0x40\n      mstore\n      dup1\n      0x1c\n      dup2\n      mstore\n      0x20\n      add\n      0x546865207065726d697373696f6e206973206e6f742076616c69642e00000000\n      dup2\n      mstore\n      pop\n        /* \"contracts/AccessControl.sol\":6772:6786  _informFailure */\n      tag_148\n        /* \"contracts/AccessControl.sol\":6772:6818  _informFailure(\"The permission is not valid.\") */\n      jump\t// in\n    tag_219:\n        /* \"contracts/AccessControl.sol\":6480:6830  if (_allPermissions[permission].isValid && permission != ADMIN) {\r... */\n    tag_218:\n        /* \"contracts/AccessControl.sol\":6334:6837  {\r... */\n      pop\n        /* \"contracts/AccessControl.sol\":6238:6837  function _grantAccountPermission(bytes memory permissionName, address account) internal virtual {\r... */\n      pop\n      pop\n      jump\t// out\n        /* \"contracts/AccessControl.sol\":6925:7425  function _revokeAccountPermission(bytes memory permissionName, address account) internal virtual {\r... */\n    tag_137:\n        /* \"contracts/AccessControl.sol\":7033:7051  bytes32 permission */\n      0x00\n        /* \"contracts/AccessControl.sol\":7064:7078  permissionName */\n      dup3\n        /* \"contracts/AccessControl.sol\":7054:7079  keccak256(permissionName) */\n      dup1\n      mload\n      swap1\n      0x20\n      add\n      keccak256\n        /* \"contracts/AccessControl.sol\":7033:7079  bytes32 permission = keccak256(permissionName) */\n      swap1\n      pop\n        /* \"contracts/AccessControl.sol\":7094:7121  _check(permission, account) */\n      tag_221\n        /* \"contracts/AccessControl.sol\":7101:7111  permission */\n      dup2\n        /* \"contracts/AccessControl.sol\":7113:7120  account */\n      dup4\n        /* \"contracts/AccessControl.sol\":7094:7100  _check */\n      tag_61\n        /* \"contracts/AccessControl.sol\":7094:7121  _check(permission, account) */\n      jump\t// in\n    tag_221:\n        /* \"contracts/AccessControl.sol\":7094:7144  _check(permission, account) && permission != ADMIN */\n      dup1\n      iszero\n      tag_222\n      jumpi\n      pop\n        /* \"contracts/AccessControl.sol\":677:695  keccak256(\"ADMIN\") */\n      0xdf8b4c520ffe197c5343c6f5aec59570151ef9a492f2c624fd45ddde6135ec42\n        /* \"contracts/AccessControl.sol\":7125:7135  permission */\n      dup2\n        /* \"contracts/AccessControl.sol\":7125:7144  permission != ADMIN */\n      eq\n      iszero\n        /* \"contracts/AccessControl.sol\":7094:7144  _check(permission, account) && permission != ADMIN */\n    tag_222:\n        /* \"contracts/AccessControl.sol\":7090:7418  if (_check(permission, account) && permission != ADMIN) {\r... */\n      iszero\n      tag_223\n      jumpi\n        /* \"contracts/AccessControl.sol\":7208:7213  false */\n      0x00\n        /* \"contracts/AccessControl.sol\":7161:7176  _allPermissions */\n      dup1\n        /* \"contracts/AccessControl.sol\":7161:7188  _allPermissions[permission] */\n      0x00\n        /* \"contracts/AccessControl.sol\":7177:7187  permission */\n      dup4\n        /* \"contracts/AccessControl.sol\":7161:7188  _allPermissions[permission] */\n      dup2\n      mstore\n      0x20\n      add\n      swap1\n      dup2\n      mstore\n      0x20\n      add\n      0x00\n      keccak256\n        /* \"contracts/AccessControl.sol\":7161:7196  _allPermissions[permission].members */\n      0x00\n      add\n        /* \"contracts/AccessControl.sol\":7161:7205  _allPermissions[permission].members[account] */\n      0x00\n        /* \"contracts/AccessControl.sol\":7197:7204  account */\n      dup5\n        /* \"contracts/AccessControl.sol\":7161:7205  _allPermissions[permission].members[account] */\n      0xffffffffffffffffffffffffffffffffffffffff\n      and\n      0xffffffffffffffffffffffffffffffffffffffff\n      and\n      dup2\n      mstore\n      0x20\n      add\n      swap1\n      dup2\n      mstore\n      0x20\n      add\n      0x00\n      keccak256\n      0x00\n        /* \"contracts/AccessControl.sol\":7161:7213  _allPermissions[permission].members[account] = false */\n      0x0100\n      exp\n      dup2\n      sload\n      dup2\n      0xff\n      mul\n      not\n      and\n      swap1\n      dup4\n      iszero\n      iszero\n      mul\n      or\n      swap1\n      sstore\n      pop\n        /* \"contracts/AccessControl.sol\":7276:7286  msg.sender */\n      caller\n        /* \"contracts/AccessControl.sol\":7233:7287  PermissionRevoked(permissionName, account, msg.sender) */\n      0xffffffffffffffffffffffffffffffffffffffff\n      and\n        /* \"contracts/AccessControl.sol\":7267:7274  account */\n      dup3\n        /* \"contracts/AccessControl.sol\":7233:7287  PermissionRevoked(permissionName, account, msg.sender) */\n      0xffffffffffffffffffffffffffffffffffffffff\n      and\n        /* \"contracts/AccessControl.sol\":7251:7265  permissionName */\n      dup5\n        /* \"contracts/AccessControl.sol\":7233:7287  PermissionRevoked(permissionName, account, msg.sender) */\n      mload(0x40)\n      tag_224\n      swap2\n      swap1\n      tag_145\n      jump\t// in\n    tag_224:\n      mload(0x40)\n      dup1\n      swap2\n      sub\n      swap1\n      keccak256\n      0x5658f0a44f1b55364ef0376f818ea716aee06d4e966974edba8ae1b8fa1e379c\n      mload(0x40)\n      mload(0x40)\n      dup1\n      swap2\n      sub\n      swap1\n      log4\n        /* \"contracts/AccessControl.sol\":7090:7418  if (_check(permission, account) && permission != ADMIN) {\r... */\n      jump(tag_225)\n    tag_223:\n        /* \"contracts/AccessControl.sol\":7320:7406  _informFailure(\"The permission is not valid or the account is not in the permission.\") */\n      tag_226\n      mload(0x40)\n      dup1\n      0x80\n      add\n      0x40\n      mstore\n      dup1\n      0x44\n      dup2\n      mstore\n      0x20\n      add\n      data_601972b90d37b25432db4389d8031f8daa2518ef8d99fbf07fd5717b0953de49\n      0x44\n      swap2\n      codecopy\n        /* \"contracts/AccessControl.sol\":7320:7334  _informFailure */\n      tag_148\n        /* \"contracts/AccessControl.sol\":7320:7406  _informFailure(\"The permission is not valid or the account is not in the permission.\") */\n      jump\t// in\n    tag_226:\n        /* \"contracts/AccessControl.sol\":7090:7418  if (_check(permission, account) && permission != ADMIN) {\r... */\n    tag_225:\n        /* \"contracts/AccessControl.sol\":7022:7425  {\r... */\n      pop\n        /* \"contracts/AccessControl.sol\":6925:7425  function _revokeAccountPermission(bytes memory permissionName, address account) internal virtual {\r... */\n      pop\n      pop\n      jump\t// out\n        /* \"contracts/AccessControl.sol\":1386:1644  function _informFailure(string memory response) private pure {\r... */\n    tag_148:\n        /* \"contracts/AccessControl.sol\":1583:1591  response */\n      dup1\n        /* \"contracts/AccessControl.sol\":1504:1610  abi.encodePacked(\r... */\n      add(0x20, mload(0x40))\n      tag_228\n      swap2\n      swap1\n      tag_229\n      jump\t// in\n    tag_228:\n      mload(0x40)\n      0x20\n      dup2\n      dup4\n      sub\n      sub\n      dup2\n      mstore\n      swap1\n      0x40\n      mstore\n        /* \"contracts/AccessControl.sol\":1458:1636  revert(\r... */\n      mload(0x40)\n      0x08c379a000000000000000000000000000000000000000000000000000000000\n      dup2\n      mstore\n      0x04\n      add\n      tag_230\n      swap2\n      swap1\n      tag_231\n      jump\t// in\n    tag_230:\n      mload(0x40)\n      dup1\n      swap2\n      sub\n      swap1\n      revert\n        /* \"contracts/AccessControl.sol\":5488:6151  function _changeAccountIndex(bytes32 permission, address account) private {\r... */\n    tag_182:\n        /* \"contracts/AccessControl.sol\":5721:5733  bool isExist */\n      0x00\n        /* \"contracts/AccessControl.sol\":5756:5762  uint i */\n      dup1\n        /* \"contracts/AccessControl.sol\":5752:5964  for(uint i = 0; i < _allPermissions[permission].length; i++) {\r... */\n    tag_233:\n        /* \"contracts/AccessControl.sol\":5772:5787  _allPermissions */\n      0x00\n        /* \"contracts/AccessControl.sol\":5772:5799  _allPermissions[permission] */\n      dup1\n        /* \"contracts/AccessControl.sol\":5788:5798  permission */\n      dup6\n        /* \"contracts/AccessControl.sol\":5772:5799  _allPermissions[permission] */\n      dup2\n      mstore\n      0x20\n      add\n      swap1\n      dup2\n      mstore\n      0x20\n      add\n      0x00\n      keccak256\n        /* \"contracts/AccessControl.sol\":5772:5806  _allPermissions[permission].length */\n      0x02\n      add\n      sload\n        /* \"contracts/AccessControl.sol\":5768:5769  i */\n      dup2\n        /* \"contracts/AccessControl.sol\":5768:5806  i < _allPermissions[permission].length */\n      lt\n        /* \"contracts/AccessControl.sol\":5752:5964  for(uint i = 0; i < _allPermissions[permission].length; i++) {\r... */\n      iszero\n      tag_234\n      jumpi\n        /* \"contracts/AccessControl.sol\":5871:5878  account */\n      dup3\n        /* \"contracts/AccessControl.sol\":5831:5878  _allPermissions[permission].index[i] == account */\n      0xffffffffffffffffffffffffffffffffffffffff\n      and\n        /* \"contracts/AccessControl.sol\":5831:5846  _allPermissions */\n      0x00\n        /* \"contracts/AccessControl.sol\":5831:5858  _allPermissions[permission] */\n      dup1\n        /* \"contracts/AccessControl.sol\":5847:5857  permission */\n      dup7\n        /* \"contracts/AccessControl.sol\":5831:5858  _allPermissions[permission] */\n      dup2\n      mstore\n      0x20\n      add\n      swap1\n      dup2\n      mstore\n      0x20\n      add\n      0x00\n      keccak256\n        /* \"contracts/AccessControl.sol\":5831:5864  _allPermissions[permission].index */\n      0x01\n      add\n        /* \"contracts/AccessControl.sol\":5831:5867  _allPermissions[permission].index[i] */\n      0x00\n        /* \"contracts/AccessControl.sol\":5865:5866  i */\n      dup4\n        /* \"contracts/AccessControl.sol\":5831:5867  _allPermissions[permission].index[i] */\n      dup2\n      mstore\n      0x20\n      add\n      swap1\n      dup2\n      mstore\n      0x20\n      add\n      0x00\n      keccak256\n      0x00\n      swap1\n      sload\n      swap1\n      0x0100\n      exp\n      swap1\n      div\n      0xffffffffffffffffffffffffffffffffffffffff\n      and\n        /* \"contracts/AccessControl.sol\":5831:5878  _allPermissions[permission].index[i] == account */\n      0xffffffffffffffffffffffffffffffffffffffff\n      and\n      eq\n        /* \"contracts/AccessControl.sol\":5828:5953  if(_allPermissions[permission].index[i] == account) {\r... */\n      iszero\n      tag_236\n      jumpi\n        /* \"contracts/AccessControl.sol\":5909:5913  true */\n      0x01\n        /* \"contracts/AccessControl.sol\":5899:5913  isExist = true */\n      swap2\n      pop\n        /* \"contracts/AccessControl.sol\":5932:5937  break */\n      jump(tag_234)\n        /* \"contracts/AccessControl.sol\":5828:5953  if(_allPermissions[permission].index[i] == account) {\r... */\n    tag_236:\n        /* \"contracts/AccessControl.sol\":5808:5811  i++ */\n      dup1\n      dup1\n      tag_237\n      swap1\n      tag_160\n      jump\t// in\n    tag_237:\n      swap2\n      pop\n      pop\n        /* \"contracts/AccessControl.sol\":5752:5964  for(uint i = 0; i < _allPermissions[permission].length; i++) {\r... */\n      jump(tag_233)\n    tag_234:\n      pop\n        /* \"contracts/AccessControl.sol\":5978:5985  isExist */\n      dup1\n        /* \"contracts/AccessControl.sol\":5974:6144  if(!isExist) {\r... */\n      tag_238\n      jumpi\n        /* \"contracts/AccessControl.sol\":6074:6081  account */\n      dup2\n        /* \"contracts/AccessControl.sol\":6002:6017  _allPermissions */\n      0x00\n        /* \"contracts/AccessControl.sol\":6002:6029  _allPermissions[permission] */\n      dup1\n        /* \"contracts/AccessControl.sol\":6018:6028  permission */\n      dup6\n        /* \"contracts/AccessControl.sol\":6002:6029  _allPermissions[permission] */\n      dup2\n      mstore\n      0x20\n      add\n      swap1\n      dup2\n      mstore\n      0x20\n      add\n      0x00\n      keccak256\n        /* \"contracts/AccessControl.sol\":6002:6035  _allPermissions[permission].index */\n      0x01\n      add\n        /* \"contracts/AccessControl.sol\":6002:6071  _allPermissions[permission].index[_allPermissions[permission].length] */\n      0x00\n        /* \"contracts/AccessControl.sol\":6036:6051  _allPermissions */\n      dup1\n        /* \"contracts/AccessControl.sol\":6036:6063  _allPermissions[permission] */\n      0x00\n        /* \"contracts/AccessControl.sol\":6052:6062  permission */\n      dup8\n        /* \"contracts/AccessControl.sol\":6036:6063  _allPermissions[permission] */\n      dup2\n      mstore\n      0x20\n      add\n      swap1\n      dup2\n      mstore\n      0x20\n      add\n      0x00\n      keccak256\n        /* \"contracts/AccessControl.sol\":6036:6070  _allPermissions[permission].length */\n      0x02\n      add\n      sload\n        /* \"contracts/AccessControl.sol\":6002:6071  _allPermissions[permission].index[_allPermissions[permission].length] */\n      dup2\n      mstore\n      0x20\n      add\n      swap1\n      dup2\n      mstore\n      0x20\n      add\n      0x00\n      keccak256\n      0x00\n        /* \"contracts/AccessControl.sol\":6002:6081  _allPermissions[permission].index[_allPermissions[permission].length] = account */\n      0x0100\n      exp\n      dup2\n      sload\n      dup2\n      0xffffffffffffffffffffffffffffffffffffffff\n      mul\n      not\n      and\n      swap1\n      dup4\n      0xffffffffffffffffffffffffffffffffffffffff\n      and\n      mul\n      or\n      swap1\n      sstore\n      pop\n        /* \"contracts/AccessControl.sol\":6096:6111  _allPermissions */\n      0x00\n        /* \"contracts/AccessControl.sol\":6096:6123  _allPermissions[permission] */\n      dup1\n        /* \"contracts/AccessControl.sol\":6112:6122  permission */\n      dup5\n        /* \"contracts/AccessControl.sol\":6096:6123  _allPermissions[permission] */\n      dup2\n      mstore\n      0x20\n      add\n      swap1\n      dup2\n      mstore\n      0x20\n      add\n      0x00\n      keccak256\n        /* \"contracts/AccessControl.sol\":6096:6130  _allPermissions[permission].length */\n      0x02\n      add\n      0x00\n        /* \"contracts/AccessControl.sol\":6096:6132  _allPermissions[permission].length++ */\n      dup2\n      sload\n      dup1\n      swap3\n      swap2\n      swap1\n      tag_239\n      swap1\n      tag_160\n      jump\t// in\n    tag_239:\n      swap2\n      swap1\n      pop\n      sstore\n      pop\n        /* \"contracts/AccessControl.sol\":5974:6144  if(!isExist) {\r... */\n    tag_238:\n        /* \"contracts/AccessControl.sol\":5562:6151  {\r... */\n      pop\n        /* \"contracts/AccessControl.sol\":5488:6151  function _changeAccountIndex(bytes32 permission, address account) private {\r... */\n      pop\n      pop\n      jump\t// out\n        /* \"contracts/AccessControl.sol\":2027:2464  function _changePermissionIndex(bytes32 permission) private {\r... */\n    tag_195:\n        /* \"contracts/AccessControl.sol\":2098:2110  bool isExist */\n      0x00\n        /* \"contracts/AccessControl.sol\":2133:2139  uint i */\n      dup1\n        /* \"contracts/AccessControl.sol\":2129:2316  for(uint i = 0; i < _numberOfPermissions; i++) {\r... */\n    tag_241:\n        /* \"contracts/AccessControl.sol\":2149:2169  _numberOfPermissions */\n      sload(0x02)\n        /* \"contracts/AccessControl.sol\":2145:2146  i */\n      dup2\n        /* \"contracts/AccessControl.sol\":2145:2169  i < _numberOfPermissions */\n      lt\n        /* \"contracts/AccessControl.sol\":2129:2316  for(uint i = 0; i < _numberOfPermissions; i++) {\r... */\n      iszero\n      tag_242\n      jumpi\n        /* \"contracts/AccessControl.sol\":2220:2230  permission */\n      dup3\n        /* \"contracts/AccessControl.sol\":2194:2213  _indexOfPermissions */\n      0x01\n        /* \"contracts/AccessControl.sol\":2194:2216  _indexOfPermissions[i] */\n      0x00\n        /* \"contracts/AccessControl.sol\":2214:2215  i */\n      dup4\n        /* \"contracts/AccessControl.sol\":2194:2216  _indexOfPermissions[i] */\n      dup2\n      mstore\n      0x20\n      add\n      swap1\n      dup2\n      mstore\n      0x20\n      add\n      0x00\n      keccak256\n      sload\n        /* \"contracts/AccessControl.sol\":2194:2230  _indexOfPermissions[i] == permission */\n      eq\n        /* \"contracts/AccessControl.sol\":2191:2305  if(_indexOfPermissions[i] == permission) {\r... */\n      iszero\n      tag_244\n      jumpi\n        /* \"contracts/AccessControl.sol\":2261:2265  true */\n      0x01\n        /* \"contracts/AccessControl.sol\":2251:2265  isExist = true */\n      swap2\n      pop\n        /* \"contracts/AccessControl.sol\":2284:2289  break */\n      jump(tag_242)\n        /* \"contracts/AccessControl.sol\":2191:2305  if(_indexOfPermissions[i] == permission) {\r... */\n    tag_244:\n        /* \"contracts/AccessControl.sol\":2171:2174  i++ */\n      dup1\n      dup1\n      tag_245\n      swap1\n      tag_160\n      jump\t// in\n    tag_245:\n      swap2\n      pop\n      pop\n        /* \"contracts/AccessControl.sol\":2129:2316  for(uint i = 0; i < _numberOfPermissions; i++) {\r... */\n      jump(tag_241)\n    tag_242:\n      pop\n        /* \"contracts/AccessControl.sol\":2330:2337  isExist */\n      dup1\n        /* \"contracts/AccessControl.sol\":2326:2457  if(!isExist) {\r... */\n      tag_246\n      jumpi\n        /* \"contracts/AccessControl.sol\":2398:2408  permission */\n      dup2\n        /* \"contracts/AccessControl.sol\":2354:2373  _indexOfPermissions */\n      0x01\n        /* \"contracts/AccessControl.sol\":2354:2395  _indexOfPermissions[_numberOfPermissions] */\n      0x00\n        /* \"contracts/AccessControl.sol\":2374:2394  _numberOfPermissions */\n      sload(0x02)\n        /* \"contracts/AccessControl.sol\":2354:2395  _indexOfPermissions[_numberOfPermissions] */\n      dup2\n      mstore\n      0x20\n      add\n      swap1\n      dup2\n      mstore\n      0x20\n      add\n      0x00\n      keccak256\n        /* \"contracts/AccessControl.sol\":2354:2408  _indexOfPermissions[_numberOfPermissions] = permission */\n      dup2\n      swap1\n      sstore\n      pop\n        /* \"contracts/AccessControl.sol\":2423:2443  _numberOfPermissions */\n      0x02\n      0x00\n        /* \"contracts/AccessControl.sol\":2423:2445  _numberOfPermissions++ */\n      dup2\n      sload\n      dup1\n      swap3\n      swap2\n      swap1\n      tag_247\n      swap1\n      tag_160\n      jump\t// in\n    tag_247:\n      swap2\n      swap1\n      pop\n      sstore\n      pop\n        /* \"contracts/AccessControl.sol\":2326:2457  if(!isExist) {\r... */\n    tag_246:\n        /* \"contracts/AccessControl.sol\":2087:2464  {\r... */\n      pop\n        /* \"contracts/AccessControl.sol\":2027:2464  function _changePermissionIndex(bytes32 permission) private {\r... */\n      pop\n      jump\t// out\n        /* \"#utility.yul\":7:417   */\n    tag_249:\n        /* \"#utility.yul\":84:89   */\n      0x00\n        /* \"#utility.yul\":109:174   */\n      tag_251\n        /* \"#utility.yul\":125:173   */\n      tag_252\n        /* \"#utility.yul\":166:172   */\n      dup5\n        /* \"#utility.yul\":125:173   */\n      tag_253\n      jump\t// in\n    tag_252:\n        /* \"#utility.yul\":109:174   */\n      tag_254\n      jump\t// in\n    tag_251:\n        /* \"#utility.yul\":100:174   */\n      swap1\n      pop\n        /* \"#utility.yul\":197:203   */\n      dup3\n        /* \"#utility.yul\":190:195   */\n      dup2\n        /* \"#utility.yul\":183:204   */\n      mstore\n        /* \"#utility.yul\":235:239   */\n      0x20\n        /* \"#utility.yul\":228:233   */\n      dup2\n        /* \"#utility.yul\":224:240   */\n      add\n        /* \"#utility.yul\":273:276   */\n      dup5\n        /* \"#utility.yul\":264:270   */\n      dup5\n        /* \"#utility.yul\":259:262   */\n      dup5\n        /* \"#utility.yul\":255:271   */\n      add\n        /* \"#utility.yul\":252:277   */\n      gt\n        /* \"#utility.yul\":249:361   */\n      iszero\n      tag_255\n      jumpi\n        /* \"#utility.yul\":280:359   */\n      tag_256\n      tag_257\n      jump\t// in\n    tag_256:\n        /* \"#utility.yul\":249:361   */\n    tag_255:\n        /* \"#utility.yul\":370:411   */\n      tag_258\n        /* \"#utility.yul\":404:410   */\n      dup5\n        /* \"#utility.yul\":399:402   */\n      dup3\n        /* \"#utility.yul\":394:397   */\n      dup6\n        /* \"#utility.yul\":370:411   */\n      tag_259\n      jump\t// in\n    tag_258:\n        /* \"#utility.yul\":90:417   */\n      pop\n        /* \"#utility.yul\":7:417   */\n      swap4\n      swap3\n      pop\n      pop\n      pop\n      jump\t// out\n        /* \"#utility.yul\":423:562   */\n    tag_260:\n        /* \"#utility.yul\":469:474   */\n      0x00\n        /* \"#utility.yul\":507:513   */\n      dup2\n        /* \"#utility.yul\":494:514   */\n      calldataload\n        /* \"#utility.yul\":485:514   */\n      swap1\n      pop\n        /* \"#utility.yul\":523:556   */\n      tag_262\n        /* \"#utility.yul\":550:555   */\n      dup2\n        /* \"#utility.yul\":523:556   */\n      tag_263\n      jump\t// in\n    tag_262:\n        /* \"#utility.yul\":423:562   */\n      swap3\n      swap2\n      pop\n      pop\n      jump\t// out\n        /* \"#utility.yul\":581:919   */\n    tag_264:\n        /* \"#utility.yul\":636:641   */\n      0x00\n        /* \"#utility.yul\":685:688   */\n      dup3\n        /* \"#utility.yul\":678:682   */\n      0x1f\n        /* \"#utility.yul\":670:676   */\n      dup4\n        /* \"#utility.yul\":666:683   */\n      add\n        /* \"#utility.yul\":662:689   */\n      slt\n        /* \"#utility.yul\":652:774   */\n      tag_266\n      jumpi\n        /* \"#utility.yul\":693:772   */\n      tag_267\n      tag_268\n      jump\t// in\n    tag_267:\n        /* \"#utility.yul\":652:774   */\n    tag_266:\n        /* \"#utility.yul\":810:816   */\n      dup2\n        /* \"#utility.yul\":797:817   */\n      calldataload\n        /* \"#utility.yul\":835:913   */\n      tag_269\n        /* \"#utility.yul\":909:912   */\n      dup5\n        /* \"#utility.yul\":901:907   */\n      dup3\n        /* \"#utility.yul\":894:898   */\n      0x20\n        /* \"#utility.yul\":886:892   */\n      dup7\n        /* \"#utility.yul\":882:899   */\n      add\n        /* \"#utility.yul\":835:913   */\n      tag_249\n      jump\t// in\n    tag_269:\n        /* \"#utility.yul\":826:913   */\n      swap2\n      pop\n        /* \"#utility.yul\":642:919   */\n      pop\n        /* \"#utility.yul\":581:919   */\n      swap3\n      swap2\n      pop\n      pop\n      jump\t// out\n        /* \"#utility.yul\":925:1254   */\n    tag_32:\n        /* \"#utility.yul\":984:990   */\n      0x00\n        /* \"#utility.yul\":1033:1035   */\n      0x20\n        /* \"#utility.yul\":1021:1030   */\n      dup3\n        /* \"#utility.yul\":1012:1019   */\n      dup5\n        /* \"#utility.yul\":1008:1031   */\n      sub\n        /* \"#utility.yul\":1004:1036   */\n      slt\n        /* \"#utility.yul\":1001:1120   */\n      iszero\n      tag_271\n      jumpi\n        /* \"#utility.yul\":1039:1118   */\n      tag_272\n      tag_273\n      jump\t// in\n    tag_272:\n        /* \"#utility.yul\":1001:1120   */\n    tag_271:\n        /* \"#utility.yul\":1159:1160   */\n      0x00\n        /* \"#utility.yul\":1184:1237   */\n      tag_274\n        /* \"#utility.yul\":1229:1236   */\n      dup5\n        /* \"#utility.yul\":1220:1226   */\n      dup3\n        /* \"#utility.yul\":1209:1218   */\n      dup6\n        /* \"#utility.yul\":1205:1227   */\n      add\n        /* \"#utility.yul\":1184:1237   */\n      tag_260\n      jump\t// in\n    tag_274:\n        /* \"#utility.yul\":1174:1237   */\n      swap2\n      pop\n        /* \"#utility.yul\":1130:1247   */\n      pop\n        /* \"#utility.yul\":925:1254   */\n      swap3\n      swap2\n      pop\n      pop\n      jump\t// out\n        /* \"#utility.yul\":1260:1767   */\n    tag_17:\n        /* \"#utility.yul\":1328:1334   */\n      0x00\n        /* \"#utility.yul\":1377:1379   */\n      0x20\n        /* \"#utility.yul\":1365:1374   */\n      dup3\n        /* \"#utility.yul\":1356:1363   */\n      dup5\n        /* \"#utility.yul\":1352:1375   */\n      sub\n        /* \"#utility.yul\":1348:1380   */\n      slt\n        /* \"#utility.yul\":1345:1464   */\n      iszero\n      tag_276\n      jumpi\n        /* \"#utility.yul\":1383:1462   */\n      tag_277\n      tag_273\n      jump\t// in\n    tag_277:\n        /* \"#utility.yul\":1345:1464   */\n    tag_276:\n        /* \"#utility.yul\":1531:1532   */\n      0x00\n        /* \"#utility.yul\":1520:1529   */\n      dup3\n        /* \"#utility.yul\":1516:1533   */\n      add\n        /* \"#utility.yul\":1503:1534   */\n      calldataload\n        /* \"#utility.yul\":1561:1579   */\n      0xffffffffffffffff\n        /* \"#utility.yul\":1553:1559   */\n      dup2\n        /* \"#utility.yul\":1550:1580   */\n      gt\n        /* \"#utility.yul\":1547:1664   */\n      iszero\n      tag_278\n      jumpi\n        /* \"#utility.yul\":1583:1662   */\n      tag_279\n      tag_280\n      jump\t// in\n    tag_279:\n        /* \"#utility.yul\":1547:1664   */\n    tag_278:\n        /* \"#utility.yul\":1688:1750   */\n      tag_281\n        /* \"#utility.yul\":1742:1749   */\n      dup5\n        /* \"#utility.yul\":1733:1739   */\n      dup3\n        /* \"#utility.yul\":1722:1731   */\n      dup6\n        /* \"#utility.yul\":1718:1740   */\n      add\n        /* \"#utility.yul\":1688:1750   */\n      tag_264\n      jump\t// in\n    tag_281:\n        /* \"#utility.yul\":1678:1750   */\n      swap2\n      pop\n        /* \"#utility.yul\":1474:1760   */\n      pop\n        /* \"#utility.yul\":1260:1767   */\n      swap3\n      swap2\n      pop\n      pop\n      jump\t// out\n        /* \"#utility.yul\":1773:2425   */\n    tag_21:\n        /* \"#utility.yul\":1850:1856   */\n      0x00\n        /* \"#utility.yul\":1858:1864   */\n      dup1\n        /* \"#utility.yul\":1907:1909   */\n      0x40\n        /* \"#utility.yul\":1895:1904   */\n      dup4\n        /* \"#utility.yul\":1886:1893   */\n      dup6\n        /* \"#utility.yul\":1882:1905   */\n      sub\n        /* \"#utility.yul\":1878:1910   */\n      slt\n        /* \"#utility.yul\":1875:1994   */\n      iszero\n      tag_283\n      jumpi\n        /* \"#utility.yul\":1913:1992   */\n      tag_284\n      tag_273\n      jump\t// in\n    tag_284:\n        /* \"#utility.yul\":1875:1994   */\n    tag_283:\n        /* \"#utility.yul\":2061:2062   */\n      0x00\n        /* \"#utility.yul\":2050:2059   */\n      dup4\n        /* \"#utility.yul\":2046:2063   */\n      add\n        /* \"#utility.yul\":2033:2064   */\n      calldataload\n        /* \"#utility.yul\":2091:2109   */\n      0xffffffffffffffff\n        /* \"#utility.yul\":2083:2089   */\n      dup2\n        /* \"#utility.yul\":2080:2110   */\n      gt\n        /* \"#utility.yul\":2077:2194   */\n      iszero\n      tag_285\n      jumpi\n        /* \"#utility.yul\":2113:2192   */\n      tag_286\n      tag_280\n      jump\t// in\n    tag_286:\n        /* \"#utility.yul\":2077:2194   */\n    tag_285:\n        /* \"#utility.yul\":2218:2280   */\n      tag_287\n        /* \"#utility.yul\":2272:2279   */\n      dup6\n        /* \"#utility.yul\":2263:2269   */\n      dup3\n        /* \"#utility.yul\":2252:2261   */\n      dup7\n        /* \"#utility.yul\":2248:2270   */\n      add\n        /* \"#utility.yul\":2218:2280   */\n      tag_264\n      jump\t// in\n    tag_287:\n        /* \"#utility.yul\":2208:2280   */\n      swap3\n      pop\n        /* \"#utility.yul\":2004:2290   */\n      pop\n        /* \"#utility.yul\":2329:2331   */\n      0x20\n        /* \"#utility.yul\":2355:2408   */\n      tag_288\n        /* \"#utility.yul\":2400:2407   */\n      dup6\n        /* \"#utility.yul\":2391:2397   */\n      dup3\n        /* \"#utility.yul\":2380:2389   */\n      dup7\n        /* \"#utility.yul\":2376:2398   */\n      add\n        /* \"#utility.yul\":2355:2408   */\n      tag_260\n      jump\t// in\n    tag_288:\n        /* \"#utility.yul\":2345:2408   */\n      swap2\n      pop\n        /* \"#utility.yul\":2300:2418   */\n      pop\n        /* \"#utility.yul\":1773:2425   */\n      swap3\n      pop\n      swap3\n      swap1\n      pop\n      jump\t// out\n        /* \"#utility.yul\":2431:3261   */\n    tag_48:\n        /* \"#utility.yul\":2517:2523   */\n      0x00\n        /* \"#utility.yul\":2525:2531   */\n      dup1\n        /* \"#utility.yul\":2574:2576   */\n      0x40\n        /* \"#utility.yul\":2562:2571   */\n      dup4\n        /* \"#utility.yul\":2553:2560   */\n      dup6\n        /* \"#utility.yul\":2549:2572   */\n      sub\n        /* \"#utility.yul\":2545:2577   */\n      slt\n        /* \"#utility.yul\":2542:2661   */\n      iszero\n      tag_290\n      jumpi\n        /* \"#utility.yul\":2580:2659   */\n      tag_291\n      tag_273\n      jump\t// in\n    tag_291:\n        /* \"#utility.yul\":2542:2661   */\n    tag_290:\n        /* \"#utility.yul\":2728:2729   */\n      0x00\n        /* \"#utility.yul\":2717:2726   */\n      dup4\n        /* \"#utility.yul\":2713:2730   */\n      add\n        /* \"#utility.yul\":2700:2731   */\n      calldataload\n        /* \"#utility.yul\":2758:2776   */\n      0xffffffffffffffff\n        /* \"#utility.yul\":2750:2756   */\n      dup2\n        /* \"#utility.yul\":2747:2777   */\n      gt\n        /* \"#utility.yul\":2744:2861   */\n      iszero\n      tag_292\n      jumpi\n        /* \"#utility.yul\":2780:2859   */\n      tag_293\n      tag_280\n      jump\t// in\n    tag_293:\n        /* \"#utility.yul\":2744:2861   */\n    tag_292:\n        /* \"#utility.yul\":2885:2947   */\n      tag_294\n        /* \"#utility.yul\":2939:2946   */\n      dup6\n        /* \"#utility.yul\":2930:2936   */\n      dup3\n        /* \"#utility.yul\":2919:2928   */\n      dup7\n        /* \"#utility.yul\":2915:2937   */\n      add\n        /* \"#utility.yul\":2885:2947   */\n      tag_264\n      jump\t// in\n    tag_294:\n        /* \"#utility.yul\":2875:2947   */\n      swap3\n      pop\n        /* \"#utility.yul\":2671:2957   */\n      pop\n        /* \"#utility.yul\":3024:3026   */\n      0x20\n        /* \"#utility.yul\":3013:3022   */\n      dup4\n        /* \"#utility.yul\":3009:3027   */\n      add\n        /* \"#utility.yul\":2996:3028   */\n      calldataload\n        /* \"#utility.yul\":3055:3073   */\n      0xffffffffffffffff\n        /* \"#utility.yul\":3047:3053   */\n      dup2\n        /* \"#utility.yul\":3044:3074   */\n      gt\n        /* \"#utility.yul\":3041:3158   */\n      iszero\n      tag_295\n      jumpi\n        /* \"#utility.yul\":3077:3156   */\n      tag_296\n      tag_280\n      jump\t// in\n    tag_296:\n        /* \"#utility.yul\":3041:3158   */\n    tag_295:\n        /* \"#utility.yul\":3182:3244   */\n      tag_297\n        /* \"#utility.yul\":3236:3243   */\n      dup6\n        /* \"#utility.yul\":3227:3233   */\n      dup3\n        /* \"#utility.yul\":3216:3225   */\n      dup7\n        /* \"#utility.yul\":3212:3234   */\n      add\n        /* \"#utility.yul\":3182:3244   */\n      tag_264\n      jump\t// in\n    tag_297:\n        /* \"#utility.yul\":3172:3244   */\n      swap2\n      pop\n        /* \"#utility.yul\":2967:3254   */\n      pop\n        /* \"#utility.yul\":2431:3261   */\n      swap3\n      pop\n      swap3\n      swap1\n      pop\n      jump\t// out\n        /* \"#utility.yul\":3267:3446   */\n    tag_298:\n        /* \"#utility.yul\":3336:3346   */\n      0x00\n        /* \"#utility.yul\":3357:3403   */\n      tag_300\n        /* \"#utility.yul\":3399:3402   */\n      dup4\n        /* \"#utility.yul\":3391:3397   */\n      dup4\n        /* \"#utility.yul\":3357:3403   */\n      tag_301\n      jump\t// in\n    tag_300:\n        /* \"#utility.yul\":3435:3439   */\n      0x20\n        /* \"#utility.yul\":3430:3433   */\n      dup4\n        /* \"#utility.yul\":3426:3440   */\n      add\n        /* \"#utility.yul\":3412:3440   */\n      swap1\n      pop\n        /* \"#utility.yul\":3267:3446   */\n      swap3\n      swap2\n      pop\n      pop\n      jump\t// out\n        /* \"#utility.yul\":3452:3631   */\n    tag_302:\n        /* \"#utility.yul\":3521:3531   */\n      0x00\n        /* \"#utility.yul\":3542:3588   */\n      tag_304\n        /* \"#utility.yul\":3584:3587   */\n      dup4\n        /* \"#utility.yul\":3576:3582   */\n      dup4\n        /* \"#utility.yul\":3542:3588   */\n      tag_305\n      jump\t// in\n    tag_304:\n        /* \"#utility.yul\":3620:3624   */\n      0x20\n        /* \"#utility.yul\":3615:3618   */\n      dup4\n        /* \"#utility.yul\":3611:3625   */\n      add\n        /* \"#utility.yul\":3597:3625   */\n      swap1\n      pop\n        /* \"#utility.yul\":3452:3631   */\n      swap3\n      swap2\n      pop\n      pop\n      jump\t// out\n        /* \"#utility.yul\":3637:3745   */\n    tag_301:\n        /* \"#utility.yul\":3714:3738   */\n      tag_307\n        /* \"#utility.yul\":3732:3737   */\n      dup2\n        /* \"#utility.yul\":3714:3738   */\n      tag_308\n      jump\t// in\n    tag_307:\n        /* \"#utility.yul\":3709:3712   */\n      dup3\n        /* \"#utility.yul\":3702:3739   */\n      mstore\n        /* \"#utility.yul\":3637:3745   */\n      pop\n      pop\n      jump\t// out\n        /* \"#utility.yul\":3751:3869   */\n    tag_309:\n        /* \"#utility.yul\":3838:3862   */\n      tag_311\n        /* \"#utility.yul\":3856:3861   */\n      dup2\n        /* \"#utility.yul\":3838:3862   */\n      tag_308\n      jump\t// in\n    tag_311:\n        /* \"#utility.yul\":3833:3836   */\n      dup3\n        /* \"#utility.yul\":3826:3863   */\n      mstore\n        /* \"#utility.yul\":3751:3869   */\n      pop\n      pop\n      jump\t// out\n        /* \"#utility.yul\":3905:4637   */\n    tag_312:\n        /* \"#utility.yul\":4024:4027   */\n      0x00\n        /* \"#utility.yul\":4053:4107   */\n      tag_314\n        /* \"#utility.yul\":4101:4106   */\n      dup3\n        /* \"#utility.yul\":4053:4107   */\n      tag_315\n      jump\t// in\n    tag_314:\n        /* \"#utility.yul\":4123:4209   */\n      tag_316\n        /* \"#utility.yul\":4202:4208   */\n      dup2\n        /* \"#utility.yul\":4197:4200   */\n      dup6\n        /* \"#utility.yul\":4123:4209   */\n      tag_317\n      jump\t// in\n    tag_316:\n        /* \"#utility.yul\":4116:4209   */\n      swap4\n      pop\n        /* \"#utility.yul\":4233:4289   */\n      tag_318\n        /* \"#utility.yul\":4283:4288   */\n      dup4\n        /* \"#utility.yul\":4233:4289   */\n      tag_319\n      jump\t// in\n    tag_318:\n        /* \"#utility.yul\":4312:4319   */\n      dup1\n        /* \"#utility.yul\":4343:4344   */\n      0x00\n        /* \"#utility.yul\":4328:4612   */\n    tag_320:\n        /* \"#utility.yul\":4353:4359   */\n      dup4\n        /* \"#utility.yul\":4350:4351   */\n      dup2\n        /* \"#utility.yul\":4347:4360   */\n      lt\n        /* \"#utility.yul\":4328:4612   */\n      iszero\n      tag_322\n      jumpi\n        /* \"#utility.yul\":4429:4435   */\n      dup2\n        /* \"#utility.yul\":4423:4436   */\n      mload\n        /* \"#utility.yul\":4456:4519   */\n      tag_323\n        /* \"#utility.yul\":4515:4518   */\n      dup9\n        /* \"#utility.yul\":4500:4513   */\n      dup3\n        /* \"#utility.yul\":4456:4519   */\n      tag_298\n      jump\t// in\n    tag_323:\n        /* \"#utility.yul\":4449:4519   */\n      swap8\n      pop\n        /* \"#utility.yul\":4542:4602   */\n      tag_324\n        /* \"#utility.yul\":4595:4601   */\n      dup4\n        /* \"#utility.yul\":4542:4602   */\n      tag_325\n      jump\t// in\n    tag_324:\n        /* \"#utility.yul\":4532:4602   */\n      swap3\n      pop\n        /* \"#utility.yul\":4388:4612   */\n      pop\n        /* \"#utility.yul\":4375:4376   */\n      0x01\n        /* \"#utility.yul\":4372:4373   */\n      dup2\n        /* \"#utility.yul\":4368:4377   */\n      add\n        /* \"#utility.yul\":4363:4377   */\n      swap1\n      pop\n        /* \"#utility.yul\":4328:4612   */\n      jump(tag_320)\n    tag_322:\n        /* \"#utility.yul\":4332:4346   */\n      pop\n        /* \"#utility.yul\":4628:4631   */\n      dup6\n        /* \"#utility.yul\":4621:4631   */\n      swap4\n      pop\n        /* \"#utility.yul\":4029:4637   */\n      pop\n      pop\n      pop\n        /* \"#utility.yul\":3905:4637   */\n      swap3\n      swap2\n      pop\n      pop\n      jump\t// out\n        /* \"#utility.yul\":4673:5405   */\n    tag_326:\n        /* \"#utility.yul\":4792:4795   */\n      0x00\n        /* \"#utility.yul\":4821:4875   */\n      tag_328\n        /* \"#utility.yul\":4869:4874   */\n      dup3\n        /* \"#utility.yul\":4821:4875   */\n      tag_329\n      jump\t// in\n    tag_328:\n        /* \"#utility.yul\":4891:4977   */\n      tag_330\n        /* \"#utility.yul\":4970:4976   */\n      dup2\n        /* \"#utility.yul\":4965:4968   */\n      dup6\n        /* \"#utility.yul\":4891:4977   */\n      tag_331\n      jump\t// in\n    tag_330:\n        /* \"#utility.yul\":4884:4977   */\n      swap4\n      pop\n        /* \"#utility.yul\":5001:5057   */\n      tag_332\n        /* \"#utility.yul\":5051:5056   */\n      dup4\n        /* \"#utility.yul\":5001:5057   */\n      tag_333\n      jump\t// in\n    tag_332:\n        /* \"#utility.yul\":5080:5087   */\n      dup1\n        /* \"#utility.yul\":5111:5112   */\n      0x00\n        /* \"#utility.yul\":5096:5380   */\n    tag_334:\n        /* \"#utility.yul\":5121:5127   */\n      dup4\n        /* \"#utility.yul\":5118:5119   */\n      dup2\n        /* \"#utility.yul\":5115:5128   */\n      lt\n        /* \"#utility.yul\":5096:5380   */\n      iszero\n      tag_336\n      jumpi\n        /* \"#utility.yul\":5197:5203   */\n      dup2\n        /* \"#utility.yul\":5191:5204   */\n      mload\n        /* \"#utility.yul\":5224:5287   */\n      tag_337\n        /* \"#utility.yul\":5283:5286   */\n      dup9\n        /* \"#utility.yul\":5268:5281   */\n      dup3\n        /* \"#utility.yul\":5224:5287   */\n      tag_302\n      jump\t// in\n    tag_337:\n        /* \"#utility.yul\":5217:5287   */\n      swap8\n      pop\n        /* \"#utility.yul\":5310:5370   */\n      tag_338\n        /* \"#utility.yul\":5363:5369   */\n      dup4\n        /* \"#utility.yul\":5310:5370   */\n      tag_339\n      jump\t// in\n    tag_338:\n        /* \"#utility.yul\":5300:5370   */\n      swap3\n      pop\n        /* \"#utility.yul\":5156:5380   */\n      pop\n        /* \"#utility.yul\":5143:5144   */\n      0x01\n        /* \"#utility.yul\":5140:5141   */\n      dup2\n        /* \"#utility.yul\":5136:5145   */\n      add\n        /* \"#utility.yul\":5131:5145   */\n      swap1\n      pop\n        /* \"#utility.yul\":5096:5380   */\n      jump(tag_334)\n    tag_336:\n        /* \"#utility.yul\":5100:5114   */\n      pop\n        /* \"#utility.yul\":5396:5399   */\n      dup6\n        /* \"#utility.yul\":5389:5399   */\n      swap4\n      pop\n        /* \"#utility.yul\":4797:5405   */\n      pop\n      pop\n      pop\n        /* \"#utility.yul\":4673:5405   */\n      swap3\n      swap2\n      pop\n      pop\n      jump\t// out\n        /* \"#utility.yul\":5411:5520   */\n    tag_340:\n        /* \"#utility.yul\":5492:5513   */\n      tag_342\n        /* \"#utility.yul\":5507:5512   */\n      dup2\n        /* \"#utility.yul\":5492:5513   */\n      tag_343\n      jump\t// in\n    tag_342:\n        /* \"#utility.yul\":5487:5490   */\n      dup3\n        /* \"#utility.yul\":5480:5514   */\n      mstore\n        /* \"#utility.yul\":5411:5520   */\n      pop\n      pop\n      jump\t// out\n        /* \"#utility.yul\":5526:5634   */\n    tag_305:\n        /* \"#utility.yul\":5603:5627   */\n      tag_345\n        /* \"#utility.yul\":5621:5626   */\n      dup2\n        /* \"#utility.yul\":5603:5627   */\n      tag_346\n      jump\t// in\n    tag_345:\n        /* \"#utility.yul\":5598:5601   */\n      dup3\n        /* \"#utility.yul\":5591:5628   */\n      mstore\n        /* \"#utility.yul\":5526:5634   */\n      pop\n      pop\n      jump\t// out\n        /* \"#utility.yul\":5640:6013   */\n    tag_347:\n        /* \"#utility.yul\":5744:5747   */\n      0x00\n        /* \"#utility.yul\":5772:5810   */\n      tag_349\n        /* \"#utility.yul\":5804:5809   */\n      dup3\n        /* \"#utility.yul\":5772:5810   */\n      tag_350\n      jump\t// in\n    tag_349:\n        /* \"#utility.yul\":5826:5914   */\n      tag_351\n        /* \"#utility.yul\":5907:5913   */\n      dup2\n        /* \"#utility.yul\":5902:5905   */\n      dup6\n        /* \"#utility.yul\":5826:5914   */\n      tag_352\n      jump\t// in\n    tag_351:\n        /* \"#utility.yul\":5819:5914   */\n      swap4\n      pop\n        /* \"#utility.yul\":5923:5975   */\n      tag_353\n        /* \"#utility.yul\":5968:5974   */\n      dup2\n        /* \"#utility.yul\":5963:5966   */\n      dup6\n        /* \"#utility.yul\":5956:5960   */\n      0x20\n        /* \"#utility.yul\":5949:5954   */\n      dup7\n        /* \"#utility.yul\":5945:5961   */\n      add\n        /* \"#utility.yul\":5923:5975   */\n      tag_354\n      jump\t// in\n    tag_353:\n        /* \"#utility.yul\":6000:6006   */\n      dup1\n        /* \"#utility.yul\":5995:5998   */\n      dup5\n        /* \"#utility.yul\":5991:6007   */\n      add\n        /* \"#utility.yul\":5984:6007   */\n      swap2\n      pop\n        /* \"#utility.yul\":5748:6013   */\n      pop\n        /* \"#utility.yul\":5640:6013   */\n      swap3\n      swap2\n      pop\n      pop\n      jump\t// out\n        /* \"#utility.yul\":6019:6383   */\n    tag_355:\n        /* \"#utility.yul\":6107:6110   */\n      0x00\n        /* \"#utility.yul\":6135:6174   */\n      tag_357\n        /* \"#utility.yul\":6168:6173   */\n      dup3\n        /* \"#utility.yul\":6135:6174   */\n      tag_358\n      jump\t// in\n    tag_357:\n        /* \"#utility.yul\":6190:6261   */\n      tag_359\n        /* \"#utility.yul\":6254:6260   */\n      dup2\n        /* \"#utility.yul\":6249:6252   */\n      dup6\n        /* \"#utility.yul\":6190:6261   */\n      tag_360\n      jump\t// in\n    tag_359:\n        /* \"#utility.yul\":6183:6261   */\n      swap4\n      pop\n        /* \"#utility.yul\":6270:6322   */\n      tag_361\n        /* \"#utility.yul\":6315:6321   */\n      dup2\n        /* \"#utility.yul\":6310:6313   */\n      dup6\n        /* \"#utility.yul\":6303:6307   */\n      0x20\n        /* \"#utility.yul\":6296:6301   */\n      dup7\n        /* \"#utility.yul\":6292:6308   */\n      add\n        /* \"#utility.yul\":6270:6322   */\n      tag_354\n      jump\t// in\n    tag_361:\n        /* \"#utility.yul\":6347:6376   */\n      tag_362\n        /* \"#utility.yul\":6369:6375   */\n      dup2\n        /* \"#utility.yul\":6347:6376   */\n      tag_363\n      jump\t// in\n    tag_362:\n        /* \"#utility.yul\":6342:6345   */\n      dup5\n        /* \"#utility.yul\":6338:6377   */\n      add\n        /* \"#utility.yul\":6331:6377   */\n      swap2\n      pop\n        /* \"#utility.yul\":6111:6383   */\n      pop\n        /* \"#utility.yul\":6019:6383   */\n      swap3\n      swap2\n      pop\n      pop\n      jump\t// out\n        /* \"#utility.yul\":6389:6766   */\n    tag_364:\n        /* \"#utility.yul\":6495:6498   */\n      0x00\n        /* \"#utility.yul\":6523:6562   */\n      tag_366\n        /* \"#utility.yul\":6556:6561   */\n      dup3\n        /* \"#utility.yul\":6523:6562   */\n      tag_358\n      jump\t// in\n    tag_366:\n        /* \"#utility.yul\":6578:6667   */\n      tag_367\n        /* \"#utility.yul\":6660:6666   */\n      dup2\n        /* \"#utility.yul\":6655:6658   */\n      dup6\n        /* \"#utility.yul\":6578:6667   */\n      tag_368\n      jump\t// in\n    tag_367:\n        /* \"#utility.yul\":6571:6667   */\n      swap4\n      pop\n        /* \"#utility.yul\":6676:6728   */\n      tag_369\n        /* \"#utility.yul\":6721:6727   */\n      dup2\n        /* \"#utility.yul\":6716:6719   */\n      dup6\n        /* \"#utility.yul\":6709:6713   */\n      0x20\n        /* \"#utility.yul\":6702:6707   */\n      dup7\n        /* \"#utility.yul\":6698:6714   */\n      add\n        /* \"#utility.yul\":6676:6728   */\n      tag_354\n      jump\t// in\n    tag_369:\n        /* \"#utility.yul\":6753:6759   */\n      dup1\n        /* \"#utility.yul\":6748:6751   */\n      dup5\n        /* \"#utility.yul\":6744:6760   */\n      add\n        /* \"#utility.yul\":6737:6760   */\n      swap2\n      pop\n        /* \"#utility.yul\":6499:6766   */\n      pop\n        /* \"#utility.yul\":6389:6766   */\n      swap3\n      swap2\n      pop\n      pop\n      jump\t// out\n        /* \"#utility.yul\":6772:7174   */\n    tag_370:\n        /* \"#utility.yul\":6932:6935   */\n      0x00\n        /* \"#utility.yul\":6953:7038   */\n      tag_372\n        /* \"#utility.yul\":7035:7037   */\n      0x0f\n        /* \"#utility.yul\":7030:7033   */\n      dup4\n        /* \"#utility.yul\":6953:7038   */\n      tag_368\n      jump\t// in\n    tag_372:\n        /* \"#utility.yul\":6946:7038   */\n      swap2\n      pop\n        /* \"#utility.yul\":7047:7140   */\n      tag_373\n        /* \"#utility.yul\":7136:7139   */\n      dup3\n        /* \"#utility.yul\":7047:7140   */\n      tag_374\n      jump\t// in\n    tag_373:\n        /* \"#utility.yul\":7165:7167   */\n      0x0f\n        /* \"#utility.yul\":7160:7163   */\n      dup3\n        /* \"#utility.yul\":7156:7168   */\n      add\n        /* \"#utility.yul\":7149:7168   */\n      swap1\n      pop\n        /* \"#utility.yul\":6772:7174   */\n      swap2\n      swap1\n      pop\n      jump\t// out\n        /* \"#utility.yul\":7180:7546   */\n    tag_375:\n        /* \"#utility.yul\":7322:7325   */\n      0x00\n        /* \"#utility.yul\":7343:7410   */\n      tag_377\n        /* \"#utility.yul\":7407:7409   */\n      0x3e\n        /* \"#utility.yul\":7402:7405   */\n      dup4\n        /* \"#utility.yul\":7343:7410   */\n      tag_360\n      jump\t// in\n    tag_377:\n        /* \"#utility.yul\":7336:7410   */\n      swap2\n      pop\n        /* \"#utility.yul\":7419:7512   */\n      tag_378\n        /* \"#utility.yul\":7508:7511   */\n      dup3\n        /* \"#utility.yul\":7419:7512   */\n      tag_379\n      jump\t// in\n    tag_378:\n        /* \"#utility.yul\":7537:7539   */\n      0x40\n        /* \"#utility.yul\":7532:7535   */\n      dup3\n        /* \"#utility.yul\":7528:7540   */\n      add\n        /* \"#utility.yul\":7521:7540   */\n      swap1\n      pop\n        /* \"#utility.yul\":7180:7546   */\n      swap2\n      swap1\n      pop\n      jump\t// out\n        /* \"#utility.yul\":7552:7823   */\n    tag_145:\n        /* \"#utility.yul\":7682:7685   */\n      0x00\n        /* \"#utility.yul\":7704:7797   */\n      tag_381\n        /* \"#utility.yul\":7793:7796   */\n      dup3\n        /* \"#utility.yul\":7784:7790   */\n      dup5\n        /* \"#utility.yul\":7704:7797   */\n      tag_347\n      jump\t// in\n    tag_381:\n        /* \"#utility.yul\":7697:7797   */\n      swap2\n      pop\n        /* \"#utility.yul\":7814:7817   */\n      dup2\n        /* \"#utility.yul\":7807:7817   */\n      swap1\n      pop\n        /* \"#utility.yul\":7552:7823   */\n      swap3\n      swap2\n      pop\n      pop\n      jump\t// out\n        /* \"#utility.yul\":7829:8370   */\n    tag_229:\n        /* \"#utility.yul\":8062:8065   */\n      0x00\n        /* \"#utility.yul\":8084:8232   */\n      tag_383\n        /* \"#utility.yul\":8228:8231   */\n      dup3\n        /* \"#utility.yul\":8084:8232   */\n      tag_370\n      jump\t// in\n    tag_383:\n        /* \"#utility.yul\":8077:8232   */\n      swap2\n      pop\n        /* \"#utility.yul\":8249:8344   */\n      tag_384\n        /* \"#utility.yul\":8340:8343   */\n      dup3\n        /* \"#utility.yul\":8331:8337   */\n      dup5\n        /* \"#utility.yul\":8249:8344   */\n      tag_364\n      jump\t// in\n    tag_384:\n        /* \"#utility.yul\":8242:8344   */\n      swap2\n      pop\n        /* \"#utility.yul\":8361:8364   */\n      dup2\n        /* \"#utility.yul\":8354:8364   */\n      swap1\n      pop\n        /* \"#utility.yul\":7829:8370   */\n      swap3\n      swap2\n      pop\n      pop\n      jump\t// out\n        /* \"#utility.yul\":8376:8598   */\n    tag_37:\n        /* \"#utility.yul\":8469:8473   */\n      0x00\n        /* \"#utility.yul\":8507:8509   */\n      0x20\n        /* \"#utility.yul\":8496:8505   */\n      dup3\n        /* \"#utility.yul\":8492:8510   */\n      add\n        /* \"#utility.yul\":8484:8510   */\n      swap1\n      pop\n        /* \"#utility.yul\":8520:8591   */\n      tag_386\n        /* \"#utility.yul\":8588:8589   */\n      0x00\n        /* \"#utility.yul\":8577:8586   */\n      dup4\n        /* \"#utility.yul\":8573:8590   */\n      add\n        /* \"#utility.yul\":8564:8570   */\n      dup5\n        /* \"#utility.yul\":8520:8591   */\n      tag_309\n      jump\t// in\n    tag_386:\n        /* \"#utility.yul\":8376:8598   */\n      swap3\n      swap2\n      pop\n      pop\n      jump\t// out\n        /* \"#utility.yul\":8604:8977   */\n    tag_29:\n        /* \"#utility.yul\":8747:8751   */\n      0x00\n        /* \"#utility.yul\":8785:8787   */\n      0x20\n        /* \"#utility.yul\":8774:8783   */\n      dup3\n        /* \"#utility.yul\":8770:8788   */\n      add\n        /* \"#utility.yul\":8762:8788   */\n      swap1\n      pop\n        /* \"#utility.yul\":8834:8843   */\n      dup2\n        /* \"#utility.yul\":8828:8832   */\n      dup2\n        /* \"#utility.yul\":8824:8844   */\n      sub\n        /* \"#utility.yul\":8820:8821   */\n      0x00\n        /* \"#utility.yul\":8809:8818   */\n      dup4\n        /* \"#utility.yul\":8805:8822   */\n      add\n        /* \"#utility.yul\":8798:8845   */\n      mstore\n        /* \"#utility.yul\":8862:8970   */\n      tag_388\n        /* \"#utility.yul\":8965:8969   */\n      dup2\n        /* \"#utility.yul\":8956:8962   */\n      dup5\n        /* \"#utility.yul\":8862:8970   */\n      tag_312\n      jump\t// in\n    tag_388:\n        /* \"#utility.yul\":8854:8970   */\n      swap1\n      pop\n        /* \"#utility.yul\":8604:8977   */\n      swap3\n      swap2\n      pop\n      pop\n      jump\t// out\n        /* \"#utility.yul\":8983:9356   */\n    tag_45:\n        /* \"#utility.yul\":9126:9130   */\n      0x00\n        /* \"#utility.yul\":9164:9166   */\n      0x20\n        /* \"#utility.yul\":9153:9162   */\n      dup3\n        /* \"#utility.yul\":9149:9167   */\n      add\n        /* \"#utility.yul\":9141:9167   */\n      swap1\n      pop\n        /* \"#utility.yul\":9213:9222   */\n      dup2\n        /* \"#utility.yul\":9207:9211   */\n      dup2\n        /* \"#utility.yul\":9203:9223   */\n      sub\n        /* \"#utility.yul\":9199:9200   */\n      0x00\n        /* \"#utility.yul\":9188:9197   */\n      dup4\n        /* \"#utility.yul\":9184:9201   */\n      add\n        /* \"#utility.yul\":9177:9224   */\n      mstore\n        /* \"#utility.yul\":9241:9349   */\n      tag_390\n        /* \"#utility.yul\":9344:9348   */\n      dup2\n        /* \"#utility.yul\":9335:9341   */\n      dup5\n        /* \"#utility.yul\":9241:9349   */\n      tag_326\n      jump\t// in\n    tag_390:\n        /* \"#utility.yul\":9233:9349   */\n      swap1\n      pop\n        /* \"#utility.yul\":8983:9356   */\n      swap3\n      swap2\n      pop\n      pop\n      jump\t// out\n        /* \"#utility.yul\":9362:9572   */\n    tag_24:\n        /* \"#utility.yul\":9449:9453   */\n      0x00\n        /* \"#utility.yul\":9487:9489   */\n      0x20\n        /* \"#utility.yul\":9476:9485   */\n      dup3\n        /* \"#utility.yul\":9472:9490   */\n      add\n        /* \"#utility.yul\":9464:9490   */\n      swap1\n      pop\n        /* \"#utility.yul\":9500:9565   */\n      tag_392\n        /* \"#utility.yul\":9562:9563   */\n      0x00\n        /* \"#utility.yul\":9551:9560   */\n      dup4\n        /* \"#utility.yul\":9547:9564   */\n      add\n        /* \"#utility.yul\":9538:9544   */\n      dup5\n        /* \"#utility.yul\":9500:9565   */\n      tag_340\n      jump\t// in\n    tag_392:\n        /* \"#utility.yul\":9362:9572   */\n      swap3\n      swap2\n      pop\n      pop\n      jump\t// out\n        /* \"#utility.yul\":9578:9891   */\n    tag_231:\n        /* \"#utility.yul\":9691:9695   */\n      0x00\n        /* \"#utility.yul\":9729:9731   */\n      0x20\n        /* \"#utility.yul\":9718:9727   */\n      dup3\n        /* \"#utility.yul\":9714:9732   */\n      add\n        /* \"#utility.yul\":9706:9732   */\n      swap1\n      pop\n        /* \"#utility.yul\":9778:9787   */\n      dup2\n        /* \"#utility.yul\":9772:9776   */\n      dup2\n        /* \"#utility.yul\":9768:9788   */\n      sub\n        /* \"#utility.yul\":9764:9765   */\n      0x00\n        /* \"#utility.yul\":9753:9762   */\n      dup4\n        /* \"#utility.yul\":9749:9766   */\n      add\n        /* \"#utility.yul\":9742:9789   */\n      mstore\n        /* \"#utility.yul\":9806:9884   */\n      tag_394\n        /* \"#utility.yul\":9879:9883   */\n      dup2\n        /* \"#utility.yul\":9870:9876   */\n      dup5\n        /* \"#utility.yul\":9806:9884   */\n      tag_355\n      jump\t// in\n    tag_394:\n        /* \"#utility.yul\":9798:9884   */\n      swap1\n      pop\n        /* \"#utility.yul\":9578:9891   */\n      swap3\n      swap2\n      pop\n      pop\n      jump\t// out\n        /* \"#utility.yul\":9897:10316   */\n    tag_64:\n        /* \"#utility.yul\":10063:10067   */\n      0x00\n        /* \"#utility.yul\":10101:10103   */\n      0x20\n        /* \"#utility.yul\":10090:10099   */\n      dup3\n        /* \"#utility.yul\":10086:10104   */\n      add\n        /* \"#utility.yul\":10078:10104   */\n      swap1\n      pop\n        /* \"#utility.yul\":10150:10159   */\n      dup2\n        /* \"#utility.yul\":10144:10148   */\n      dup2\n        /* \"#utility.yul\":10140:10160   */\n      sub\n        /* \"#utility.yul\":10136:10137   */\n      0x00\n        /* \"#utility.yul\":10125:10134   */\n      dup4\n        /* \"#utility.yul\":10121:10138   */\n      add\n        /* \"#utility.yul\":10114:10161   */\n      mstore\n        /* \"#utility.yul\":10178:10309   */\n      tag_396\n        /* \"#utility.yul\":10304:10308   */\n      dup2\n        /* \"#utility.yul\":10178:10309   */\n      tag_375\n      jump\t// in\n    tag_396:\n        /* \"#utility.yul\":10170:10309   */\n      swap1\n      pop\n        /* \"#utility.yul\":9897:10316   */\n      swap2\n      swap1\n      pop\n      jump\t// out\n        /* \"#utility.yul\":10322:10451   */\n    tag_254:\n        /* \"#utility.yul\":10356:10362   */\n      0x00\n        /* \"#utility.yul\":10383:10403   */\n      tag_398\n      tag_399\n      jump\t// in\n    tag_398:\n        /* \"#utility.yul\":10373:10403   */\n      swap1\n      pop\n        /* \"#utility.yul\":10412:10445   */\n      tag_400\n        /* \"#utility.yul\":10440:10444   */\n      dup3\n        /* \"#utility.yul\":10432:10438   */\n      dup3\n        /* \"#utility.yul\":10412:10445   */\n      tag_401\n      jump\t// in\n    tag_400:\n        /* \"#utility.yul\":10322:10451   */\n      swap2\n      swap1\n      pop\n      jump\t// out\n        /* \"#utility.yul\":10457:10532   */\n    tag_399:\n        /* \"#utility.yul\":10490:10496   */\n      0x00\n        /* \"#utility.yul\":10523:10525   */\n      0x40\n        /* \"#utility.yul\":10517:10526   */\n      mload\n        /* \"#utility.yul\":10507:10526   */\n      swap1\n      pop\n        /* \"#utility.yul\":10457:10532   */\n      swap1\n      jump\t// out\n        /* \"#utility.yul\":10538:10845   */\n    tag_253:\n        /* \"#utility.yul\":10599:10603   */\n      0x00\n        /* \"#utility.yul\":10689:10707   */\n      0xffffffffffffffff\n        /* \"#utility.yul\":10681:10687   */\n      dup3\n        /* \"#utility.yul\":10678:10708   */\n      gt\n        /* \"#utility.yul\":10675:10731   */\n      iszero\n      tag_404\n      jumpi\n        /* \"#utility.yul\":10711:10729   */\n      tag_405\n      tag_406\n      jump\t// in\n    tag_405:\n        /* \"#utility.yul\":10675:10731   */\n    tag_404:\n        /* \"#utility.yul\":10749:10778   */\n      tag_407\n        /* \"#utility.yul\":10771:10777   */\n      dup3\n        /* \"#utility.yul\":10749:10778   */\n      tag_363\n      jump\t// in\n    tag_407:\n        /* \"#utility.yul\":10741:10778   */\n      swap1\n      pop\n        /* \"#utility.yul\":10833:10837   */\n      0x20\n        /* \"#utility.yul\":10827:10831   */\n      dup2\n        /* \"#utility.yul\":10823:10838   */\n      add\n        /* \"#utility.yul\":10815:10838   */\n      swap1\n      pop\n        /* \"#utility.yul\":10538:10845   */\n      swap2\n      swap1\n      pop\n      jump\t// out\n        /* \"#utility.yul\":10851:10983   */\n    tag_319:\n        /* \"#utility.yul\":10918:10922   */\n      0x00\n        /* \"#utility.yul\":10941:10944   */\n      dup2\n        /* \"#utility.yul\":10933:10944   */\n      swap1\n      pop\n        /* \"#utility.yul\":10971:10975   */\n      0x20\n        /* \"#utility.yul\":10966:10969   */\n      dup3\n        /* \"#utility.yul\":10962:10976   */\n      add\n        /* \"#utility.yul\":10954:10976   */\n      swap1\n      pop\n        /* \"#utility.yul\":10851:10983   */\n      swap2\n      swap1\n      pop\n      jump\t// out\n        /* \"#utility.yul\":10989:11121   */\n    tag_333:\n        /* \"#utility.yul\":11056:11060   */\n      0x00\n        /* \"#utility.yul\":11079:11082   */\n      dup2\n        /* \"#utility.yul\":11071:11082   */\n      swap1\n      pop\n        /* \"#utility.yul\":11109:11113   */\n      0x20\n        /* \"#utility.yul\":11104:11107   */\n      dup3\n        /* \"#utility.yul\":11100:11114   */\n      add\n        /* \"#utility.yul\":11092:11114   */\n      swap1\n      pop\n        /* \"#utility.yul\":10989:11121   */\n      swap2\n      swap1\n      pop\n      jump\t// out\n        /* \"#utility.yul\":11127:11241   */\n    tag_315:\n        /* \"#utility.yul\":11194:11200   */\n      0x00\n        /* \"#utility.yul\":11228:11233   */\n      dup2\n        /* \"#utility.yul\":11222:11234   */\n      mload\n        /* \"#utility.yul\":11212:11234   */\n      swap1\n      pop\n        /* \"#utility.yul\":11127:11241   */\n      swap2\n      swap1\n      pop\n      jump\t// out\n        /* \"#utility.yul\":11247:11361   */\n    tag_329:\n        /* \"#utility.yul\":11314:11320   */\n      0x00\n        /* \"#utility.yul\":11348:11353   */\n      dup2\n        /* \"#utility.yul\":11342:11354   */\n      mload\n        /* \"#utility.yul\":11332:11354   */\n      swap1\n      pop\n        /* \"#utility.yul\":11247:11361   */\n      swap2\n      swap1\n      pop\n      jump\t// out\n        /* \"#utility.yul\":11367:11465   */\n    tag_350:\n        /* \"#utility.yul\":11418:11424   */\n      0x00\n        /* \"#utility.yul\":11452:11457   */\n      dup2\n        /* \"#utility.yul\":11446:11458   */\n      mload\n        /* \"#utility.yul\":11436:11458   */\n      swap1\n      pop\n        /* \"#utility.yul\":11367:11465   */\n      swap2\n      swap1\n      pop\n      jump\t// out\n        /* \"#utility.yul\":11471:11570   */\n    tag_358:\n        /* \"#utility.yul\":11523:11529   */\n      0x00\n        /* \"#utility.yul\":11557:11562   */\n      dup2\n        /* \"#utility.yul\":11551:11563   */\n      mload\n        /* \"#utility.yul\":11541:11563   */\n      swap1\n      pop\n        /* \"#utility.yul\":11471:11570   */\n      swap2\n      swap1\n      pop\n      jump\t// out\n        /* \"#utility.yul\":11576:11689   */\n    tag_325:\n        /* \"#utility.yul\":11646:11650   */\n      0x00\n        /* \"#utility.yul\":11678:11682   */\n      0x20\n        /* \"#utility.yul\":11673:11676   */\n      dup3\n        /* \"#utility.yul\":11669:11683   */\n      add\n        /* \"#utility.yul\":11661:11683   */\n      swap1\n      pop\n        /* \"#utility.yul\":11576:11689   */\n      swap2\n      swap1\n      pop\n      jump\t// out\n        /* \"#utility.yul\":11695:11808   */\n    tag_339:\n        /* \"#utility.yul\":11765:11769   */\n      0x00\n        /* \"#utility.yul\":11797:11801   */\n      0x20\n        /* \"#utility.yul\":11792:11795   */\n      dup3\n        /* \"#utility.yul\":11788:11802   */\n      add\n        /* \"#utility.yul\":11780:11802   */\n      swap1\n      pop\n        /* \"#utility.yul\":11695:11808   */\n      swap2\n      swap1\n      pop\n      jump\t// out\n        /* \"#utility.yul\":11814:11998   */\n    tag_317:\n        /* \"#utility.yul\":11913:11924   */\n      0x00\n        /* \"#utility.yul\":11947:11953   */\n      dup3\n        /* \"#utility.yul\":11942:11945   */\n      dup3\n        /* \"#utility.yul\":11935:11954   */\n      mstore\n        /* \"#utility.yul\":11987:11991   */\n      0x20\n        /* \"#utility.yul\":11982:11985   */\n      dup3\n        /* \"#utility.yul\":11978:11992   */\n      add\n        /* \"#utility.yul\":11963:11992   */\n      swap1\n      pop\n        /* \"#utility.yul\":11814:11998   */\n      swap3\n      swap2\n      pop\n      pop\n      jump\t// out\n        /* \"#utility.yul\":12004:12188   */\n    tag_331:\n        /* \"#utility.yul\":12103:12114   */\n      0x00\n        /* \"#utility.yul\":12137:12143   */\n      dup3\n        /* \"#utility.yul\":12132:12135   */\n      dup3\n        /* \"#utility.yul\":12125:12144   */\n      mstore\n        /* \"#utility.yul\":12177:12181   */\n      0x20\n        /* \"#utility.yul\":12172:12175   */\n      dup3\n        /* \"#utility.yul\":12168:12182   */\n      add\n        /* \"#utility.yul\":12153:12182   */\n      swap1\n      pop\n        /* \"#utility.yul\":12004:12188   */\n      swap3\n      swap2\n      pop\n      pop\n      jump\t// out\n        /* \"#utility.yul\":12194:12341   */\n    tag_352:\n        /* \"#utility.yul\":12295:12306   */\n      0x00\n        /* \"#utility.yul\":12332:12335   */\n      dup2\n        /* \"#utility.yul\":12317:12335   */\n      swap1\n      pop\n        /* \"#utility.yul\":12194:12341   */\n      swap3\n      swap2\n      pop\n      pop\n      jump\t// out\n        /* \"#utility.yul\":12347:12516   */\n    tag_360:\n        /* \"#utility.yul\":12431:12442   */\n      0x00\n        /* \"#utility.yul\":12465:12471   */\n      dup3\n        /* \"#utility.yul\":12460:12463   */\n      dup3\n        /* \"#utility.yul\":12453:12472   */\n      mstore\n        /* \"#utility.yul\":12505:12509   */\n      0x20\n        /* \"#utility.yul\":12500:12503   */\n      dup3\n        /* \"#utility.yul\":12496:12510   */\n      add\n        /* \"#utility.yul\":12481:12510   */\n      swap1\n      pop\n        /* \"#utility.yul\":12347:12516   */\n      swap3\n      swap2\n      pop\n      pop\n      jump\t// out\n        /* \"#utility.yul\":12522:12670   */\n    tag_368:\n        /* \"#utility.yul\":12624:12635   */\n      0x00\n        /* \"#utility.yul\":12661:12664   */\n      dup2\n        /* \"#utility.yul\":12646:12664   */\n      swap1\n      pop\n        /* \"#utility.yul\":12522:12670   */\n      swap3\n      swap2\n      pop\n      pop\n      jump\t// out\n        /* \"#utility.yul\":12676:12772   */\n    tag_308:\n        /* \"#utility.yul\":12713:12720   */\n      0x00\n        /* \"#utility.yul\":12742:12766   */\n      tag_422\n        /* \"#utility.yul\":12760:12765   */\n      dup3\n        /* \"#utility.yul\":12742:12766   */\n      tag_423\n      jump\t// in\n    tag_422:\n        /* \"#utility.yul\":12731:12766   */\n      swap1\n      pop\n        /* \"#utility.yul\":12676:12772   */\n      swap2\n      swap1\n      pop\n      jump\t// out\n        /* \"#utility.yul\":12778:12868   */\n    tag_343:\n        /* \"#utility.yul\":12812:12819   */\n      0x00\n        /* \"#utility.yul\":12855:12860   */\n      dup2\n        /* \"#utility.yul\":12848:12861   */\n      iszero\n        /* \"#utility.yul\":12841:12862   */\n      iszero\n        /* \"#utility.yul\":12830:12862   */\n      swap1\n      pop\n        /* \"#utility.yul\":12778:12868   */\n      swap2\n      swap1\n      pop\n      jump\t// out\n        /* \"#utility.yul\":12874:12951   */\n    tag_346:\n        /* \"#utility.yul\":12911:12918   */\n      0x00\n        /* \"#utility.yul\":12940:12945   */\n      dup2\n        /* \"#utility.yul\":12929:12945   */\n      swap1\n      pop\n        /* \"#utility.yul\":12874:12951   */\n      swap2\n      swap1\n      pop\n      jump\t// out\n        /* \"#utility.yul\":12957:13083   */\n    tag_423:\n        /* \"#utility.yul\":12994:13001   */\n      0x00\n        /* \"#utility.yul\":13034:13076   */\n      0xffffffffffffffffffffffffffffffffffffffff\n        /* \"#utility.yul\":13027:13032   */\n      dup3\n        /* \"#utility.yul\":13023:13077   */\n      and\n        /* \"#utility.yul\":13012:13077   */\n      swap1\n      pop\n        /* \"#utility.yul\":12957:13083   */\n      swap2\n      swap1\n      pop\n      jump\t// out\n        /* \"#utility.yul\":13089:13166   */\n    tag_427:\n        /* \"#utility.yul\":13126:13133   */\n      0x00\n        /* \"#utility.yul\":13155:13160   */\n      dup2\n        /* \"#utility.yul\":13144:13160   */\n      swap1\n      pop\n        /* \"#utility.yul\":13089:13166   */\n      swap2\n      swap1\n      pop\n      jump\t// out\n        /* \"#utility.yul\":13172:13326   */\n    tag_259:\n        /* \"#utility.yul\":13256:13262   */\n      dup3\n        /* \"#utility.yul\":13251:13254   */\n      dup2\n        /* \"#utility.yul\":13246:13249   */\n      dup4\n        /* \"#utility.yul\":13233:13263   */\n      calldatacopy\n        /* \"#utility.yul\":13318:13319   */\n      0x00\n        /* \"#utility.yul\":13309:13315   */\n      dup4\n        /* \"#utility.yul\":13304:13307   */\n      dup4\n        /* \"#utility.yul\":13300:13316   */\n      add\n        /* \"#utility.yul\":13293:13320   */\n      mstore\n        /* \"#utility.yul\":13172:13326   */\n      pop\n      pop\n      pop\n      jump\t// out\n        /* \"#utility.yul\":13332:13639   */\n    tag_354:\n        /* \"#utility.yul\":13400:13401   */\n      0x00\n        /* \"#utility.yul\":13410:13523   */\n    tag_431:\n        /* \"#utility.yul\":13424:13430   */\n      dup4\n        /* \"#utility.yul\":13421:13422   */\n      dup2\n        /* \"#utility.yul\":13418:13431   */\n      lt\n        /* \"#utility.yul\":13410:13523   */\n      iszero\n      tag_433\n      jumpi\n        /* \"#utility.yul\":13509:13510   */\n      dup1\n        /* \"#utility.yul\":13504:13507   */\n      dup3\n        /* \"#utility.yul\":13500:13511   */\n      add\n        /* \"#utility.yul\":13494:13512   */\n      mload\n        /* \"#utility.yul\":13490:13491   */\n      dup2\n        /* \"#utility.yul\":13485:13488   */\n      dup5\n        /* \"#utility.yul\":13481:13492   */\n      add\n        /* \"#utility.yul\":13474:13513   */\n      mstore\n        /* \"#utility.yul\":13446:13448   */\n      0x20\n        /* \"#utility.yul\":13443:13444   */\n      dup2\n        /* \"#utility.yul\":13439:13449   */\n      add\n        /* \"#utility.yul\":13434:13449   */\n      swap1\n      pop\n        /* \"#utility.yul\":13410:13523   */\n      jump(tag_431)\n    tag_433:\n        /* \"#utility.yul\":13541:13547   */\n      dup4\n        /* \"#utility.yul\":13538:13539   */\n      dup2\n        /* \"#utility.yul\":13535:13548   */\n      gt\n        /* \"#utility.yul\":13532:13633   */\n      iszero\n      tag_434\n      jumpi\n        /* \"#utility.yul\":13621:13622   */\n      0x00\n        /* \"#utility.yul\":13612:13618   */\n      dup5\n        /* \"#utility.yul\":13607:13610   */\n      dup5\n        /* \"#utility.yul\":13603:13619   */\n      add\n        /* \"#utility.yul\":13596:13623   */\n      mstore\n        /* \"#utility.yul\":13532:13633   */\n    tag_434:\n        /* \"#utility.yul\":13381:13639   */\n      pop\n        /* \"#utility.yul\":13332:13639   */\n      pop\n      pop\n      pop\n      jump\t// out\n        /* \"#utility.yul\":13645:13926   */\n    tag_401:\n        /* \"#utility.yul\":13728:13755   */\n      tag_436\n        /* \"#utility.yul\":13750:13754   */\n      dup3\n        /* \"#utility.yul\":13728:13755   */\n      tag_363\n      jump\t// in\n    tag_436:\n        /* \"#utility.yul\":13720:13726   */\n      dup2\n        /* \"#utility.yul\":13716:13756   */\n      add\n        /* \"#utility.yul\":13858:13864   */\n      dup2\n        /* \"#utility.yul\":13846:13856   */\n      dup2\n        /* \"#utility.yul\":13843:13865   */\n      lt\n        /* \"#utility.yul\":13822:13840   */\n      0xffffffffffffffff\n        /* \"#utility.yul\":13810:13820   */\n      dup3\n        /* \"#utility.yul\":13807:13841   */\n      gt\n        /* \"#utility.yul\":13804:13866   */\n      or\n        /* \"#utility.yul\":13801:13889   */\n      iszero\n      tag_437\n      jumpi\n        /* \"#utility.yul\":13869:13887   */\n      tag_438\n      tag_406\n      jump\t// in\n    tag_438:\n        /* \"#utility.yul\":13801:13889   */\n    tag_437:\n        /* \"#utility.yul\":13909:13919   */\n      dup1\n        /* \"#utility.yul\":13905:13907   */\n      0x40\n        /* \"#utility.yul\":13898:13920   */\n      mstore\n        /* \"#utility.yul\":13688:13926   */\n      pop\n        /* \"#utility.yul\":13645:13926   */\n      pop\n      pop\n      jump\t// out\n        /* \"#utility.yul\":13932:14165   */\n    tag_160:\n        /* \"#utility.yul\":13971:13974   */\n      0x00\n        /* \"#utility.yul\":13994:14018   */\n      tag_440\n        /* \"#utility.yul\":14012:14017   */\n      dup3\n        /* \"#utility.yul\":13994:14018   */\n      tag_427\n      jump\t// in\n    tag_440:\n        /* \"#utility.yul\":13985:14018   */\n      swap2\n      pop\n        /* \"#utility.yul\":14040:14106   */\n      0xffffffffffffffffffffffffffffffffffffffffffffffffffffffffffffffff\n        /* \"#utility.yul\":14033:14038   */\n      dup3\n        /* \"#utility.yul\":14030:14107   */\n      eq\n        /* \"#utility.yul\":14027:14130   */\n      iszero\n      tag_441\n      jumpi\n        /* \"#utility.yul\":14110:14128   */\n      tag_442\n      tag_443\n      jump\t// in\n    tag_442:\n        /* \"#utility.yul\":14027:14130   */\n    tag_441:\n        /* \"#utility.yul\":14157:14158   */\n      0x01\n        /* \"#utility.yul\":14150:14155   */\n      dup3\n        /* \"#utility.yul\":14146:14159   */\n      add\n        /* \"#utility.yul\":14139:14159   */\n      swap1\n      pop\n        /* \"#utility.yul\":13932:14165   */\n      swap2\n      swap1\n      pop\n      jump\t// out\n        /* \"#utility.yul\":14171:14351   */\n    tag_443:\n        /* \"#utility.yul\":14219:14296   */\n      0x4e487b7100000000000000000000000000000000000000000000000000000000\n        /* \"#utility.yul\":14216:14217   */\n      0x00\n        /* \"#utility.yul\":14209:14297   */\n      mstore\n        /* \"#utility.yul\":14316:14320   */\n      0x11\n        /* \"#utility.yul\":14313:14314   */\n      0x04\n        /* \"#utility.yul\":14306:14321   */\n      mstore\n        /* \"#utility.yul\":14340:14344   */\n      0x24\n        /* \"#utility.yul\":14337:14338   */\n      0x00\n        /* \"#utility.yul\":14330:14345   */\n      revert\n        /* \"#utility.yul\":14357:14537   */\n    tag_158:\n        /* \"#utility.yul\":14405:14482   */\n      0x4e487b7100000000000000000000000000000000000000000000000000000000\n        /* \"#utility.yul\":14402:14403   */\n      0x00\n        /* \"#utility.yul\":14395:14483   */\n      mstore\n        /* \"#utility.yul\":14502:14506   */\n      0x32\n        /* \"#utility.yul\":14499:14500   */\n      0x04\n        /* \"#utility.yul\":14492:14507   */\n      mstore\n        /* \"#utility.yul\":14526:14530   */\n      0x24\n        /* \"#utility.yul\":14523:14524   */\n      0x00\n        /* \"#utility.yul\":14516:14531   */\n      revert\n        /* \"#utility.yul\":14543:14723   */\n    tag_406:\n        /* \"#utility.yul\":14591:14668   */\n      0x4e487b7100000000000000000000000000000000000000000000000000000000\n        /* \"#utility.yul\":14588:14589   */\n      0x00\n        /* \"#utility.yul\":14581:14669   */\n      mstore\n        /* \"#utility.yul\":14688:14692   */\n      0x41\n        /* \"#utility.yul\":14685:14686   */\n      0x04\n        /* \"#utility.yul\":14678:14693   */\n      mstore\n        /* \"#utility.yul\":14712:14716   */\n      0x24\n        /* \"#utility.yul\":14709:14710   */\n      0x00\n        /* \"#utility.yul\":14702:14717   */\n      revert\n        /* \"#utility.yul\":14729:14846   */\n    tag_268:\n        /* \"#utility.yul\":14838:14839   */\n      0x00\n        /* \"#utility.yul\":14835:14836   */\n      dup1\n        /* \"#utility.yul\":14828:14840   */\n      revert\n        /* \"#utility.yul\":14852:14969   */\n    tag_257:\n        /* \"#utility.yul\":14961:14962   */\n      0x00\n        /* \"#utility.yul\":14958:14959   */\n      dup1\n        /* \"#utility.yul\":14951:14963   */\n      revert\n        /* \"#utility.yul\":14975:15092   */\n    tag_280:\n        /* \"#utility.yul\":15084:15085   */\n      0x00\n        /* \"#utility.yul\":15081:15082   */\n      dup1\n        /* \"#utility.yul\":15074:15086   */\n      revert\n        /* \"#utility.yul\":15098:15215   */\n    tag_273:\n        /* \"#utility.yul\":15207:15208   */\n      0x00\n        /* \"#utility.yul\":15204:15205   */\n      dup1\n        /* \"#utility.yul\":15197:15209   */\n      revert\n        /* \"#utility.yul\":15221:15323   */\n    tag_363:\n        /* \"#utility.yul\":15262:15268   */\n      0x00\n        /* \"#utility.yul\":15313:15315   */\n      0x1f\n        /* \"#utility.yul\":15309:15316   */\n      not\n        /* \"#utility.yul\":15304:15306   */\n      0x1f\n        /* \"#utility.yul\":15297:15302   */\n      dup4\n        /* \"#utility.yul\":15293:15307   */\n      add\n        /* \"#utility.yul\":15289:15317   */\n      and\n        /* \"#utility.yul\":15279:15317   */\n      swap1\n      pop\n        /* \"#utility.yul\":15221:15323   */\n      swap2\n      swap1\n      pop\n      jump\t// out\n        /* \"#utility.yul\":15329:15494   */\n    tag_374:\n        /* \"#utility.yul\":15469:15486   */\n      0x416363657373436f6e74726f6c3a200000000000000000000000000000000000\n        /* \"#utility.yul\":15465:15466   */\n      0x00\n        /* \"#utility.yul\":15457:15463   */\n      dup3\n        /* \"#utility.yul\":15453:15467   */\n      add\n        /* \"#utility.yul\":15446:15487   */\n      mstore\n        /* \"#utility.yul\":15329:15494   */\n      pop\n      jump\t// out\n        /* \"#utility.yul\":15500:15749   */\n    tag_379:\n        /* \"#utility.yul\":15640:15674   */\n      0x416363657373436f6e74726f6c3a20596f752068617665206e6f207065726d69\n        /* \"#utility.yul\":15636:15637   */\n      0x00\n        /* \"#utility.yul\":15628:15634   */\n      dup3\n        /* \"#utility.yul\":15624:15638   */\n      add\n        /* \"#utility.yul\":15617:15675   */\n      mstore\n        /* \"#utility.yul\":15709:15741   */\n      0x7373696f6e20746f2061636365737320746869732066756e6374696f6e2e0000\n        /* \"#utility.yul\":15704:15706   */\n      0x20\n        /* \"#utility.yul\":15696:15702   */\n      dup3\n        /* \"#utility.yul\":15692:15707   */\n      add\n        /* \"#utility.yul\":15685:15742   */\n      mstore\n        /* \"#utility.yul\":15500:15749   */\n      pop\n      jump\t// out\n        /* \"#utility.yul\":15755:15877   */\n    tag_263:\n        /* \"#utility.yul\":15828:15852   */\n      tag_455\n        /* \"#utility.yul\":15846:15851   */\n      dup2\n        /* \"#utility.yul\":15828:15852   */\n      tag_308\n      jump\t// in\n    tag_455:\n        /* \"#utility.yul\":15821:15826   */\n      dup2\n        /* \"#utility.yul\":15818:15853   */\n      eq\n        /* \"#utility.yul\":15808:15871   */\n      tag_456\n      jumpi\n        /* \"#utility.yul\":15867:15868   */\n      0x00\n        /* \"#utility.yul\":15864:15865   */\n      dup1\n        /* \"#utility.yul\":15857:15869   */\n      revert\n        /* \"#utility.yul\":15808:15871   */\n    tag_456:\n        /* \"#utility.yul\":15755:15877   */\n      pop\n      jump\t// out\n    stop\n    data_601972b90d37b25432db4389d8031f8daa2518ef8d99fbf07fd5717b0953de49 546865207065726d697373696f6e206973206e6f742076616c6964206f7220746865206163636f756e74206973206e6f7420696e20746865207065726d697373696f6e2e\n\n    auxdata: 0xa26469706673582212200beccac6a0274f460f4c95ed5023f8499c6f6e5458facb174e0960f97665e92d64736f6c63430008070033\n}\n",
				"bytecode": {
					"linkReferences": {},
					"object": "608060405234801561001057600080fd5b5061001f61002460201b60201c565b6101ff565b60016000807fdf8b4c520ffe197c5343c6f5aec59570151ef9a492f2c624fd45ddde6135ec42815260200190815260200160002060030160006101000a81548160ff02191690831515021790555060016000807fdf8b4c520ffe197c5343c6f5aec59570151ef9a492f2c624fd45ddde6135ec42815260200190815260200160002060000160003373ffffffffffffffffffffffffffffffffffffffff1673ffffffffffffffffffffffffffffffffffffffff16815260200190815260200160002060006101000a81548160ff021916908315150217905550336000807fdf8b4c520ffe197c5343c6f5aec59570151ef9a492f2c624fd45ddde6135ec428152602001908152602001600020600101600080815260200190815260200160002060006101000a81548173ffffffffffffffffffffffffffffffffffffffff021916908373ffffffffffffffffffffffffffffffffffffffff16021790555060016000807fdf8b4c520ffe197c5343c6f5aec59570151ef9a492f2c624fd45ddde6135ec4281526020019081526020016000206002018190555060016002819055507fdf8b4c520ffe197c5343c6f5aec59570151ef9a492f2c624fd45ddde6135ec426001600080815260200190815260200160002081905550565b6125508061020e6000396000f3fe608060405234801561001057600080fd5b50600436106100a95760003560e01c806375829def1161007157806375829def1461016457806380891cb214610180578063a10f9524146101b0578063aae7c78a146101cc578063c7dc6220146101e8578063c98d6f1e14610204576100a9565b8063342da059146100ae578063383783c6146100ca578063491642bb146100fa5780634c1b64cb1461012a5780637058dd2414610146575b600080fd5b6100c860048036038101906100c39190611d67565b610220565b005b6100e460048036038101906100df9190611db0565b610297565b6040516100f19190612125565b60405180910390f35b610114600480360381019061010f9190611d67565b610316565b60405161012191906120e1565b60405180910390f35b610144600480360381019061013f9190611d3a565b610393565b005b61014e61040a565b60405161015b91906120c6565b60405180910390f35b61017e60048036038101906101799190611d3a565b610484565b005b61019a60048036038101906101959190611d3a565b6104fb565b6040516101a79190612103565b60405180910390f35b6101ca60048036038101906101c59190611e0c565b610578565b005b6101e660048036038101906101e19190611d67565b6105f1565b005b61020260048036038101906101fd9190611db0565b610668565b005b61021e60048036038101906102199190611db0565b6106e1565b005b7f73d57861095ed1ff7b0e5c00e25f9fc922cf9164e617149ee7073f371364c95461024b813361075a565b61028a576040517f08c379a000000000000000000000000000000000000000000000000000000000815260040161028190612162565b60405180910390fd5b610293826107f5565b5050565b60007fa724c0857099da33c38b932ce5d4e84578ee9792153085d9d5e379bfba70cacb6102c4813361075a565b610303576040517f08c379a00000000000000000000000000000000000000000000000000000000081526004016102fa90612162565b60405180910390fd5b61030d8484610924565b91505092915050565b60607fa724c0857099da33c38b932ce5d4e84578ee9792153085d9d5e379bfba70cacb610343813361075a565b610382576040517f08c379a000000000000000000000000000000000000000000000000000000000815260040161037990612162565b60405180910390fd5b61038b8361093f565b915050919050565b7f73d57861095ed1ff7b0e5c00e25f9fc922cf9164e617149ee7073f371364c9546103be813361075a565b6103fd576040517f08c379a00000000000000000000000000000000000000000000000000000000081526004016103f490612162565b60405180910390fd5b61040682610adc565b5050565b60007fdf8b4c520ffe197c5343c6f5aec59570151ef9a492f2c624fd45ddde6135ec42610437813361075a565b610476576040517f08c379a000000000000000000000000000000000000000000000000000000000815260040161046d90612162565b60405180910390fd5b61047e610cfa565b91505090565b7f73d57861095ed1ff7b0e5c00e25f9fc922cf9164e617149ee7073f371364c9546104af813361075a565b6104ee576040517f08c379a00000000000000000000000000000000000000000000000000000000081526004016104e590612162565b60405180910390fd5b6104f782610eaf565b5050565b60607fa724c0857099da33c38b932ce5d4e84578ee9792153085d9d5e379bfba70cacb610528813361075a565b610567576040517f08c379a000000000000000000000000000000000000000000000000000000000815260040161055e90612162565b60405180910390fd5b6105708361104c565b915050919050565b7f73d57861095ed1ff7b0e5c00e25f9fc922cf9164e617149ee7073f371364c9546105a3813361075a565b6105e2576040517f08c379a00000000000000000000000000000000000000000000000000000000081526004016105d990612162565b60405180910390fd5b6105ec8383611135565b505050565b7f73d57861095ed1ff7b0e5c00e25f9fc922cf9164e617149ee7073f371364c95461061c813361075a565b61065b576040517f08c379a000000000000000000000000000000000000000000000000000000000815260040161065290612162565b60405180910390fd5b6106648261142b565b5050565b7f73d57861095ed1ff7b0e5c00e25f9fc922cf9164e617149ee7073f371364c954610693813361075a565b6106d2576040517f08c379a00000000000000000000000000000000000000000000000000000000081526004016106c990612162565b60405180910390fd5b6106dc8383611793565b505050565b7f73d57861095ed1ff7b0e5c00e25f9fc922cf9164e617149ee7073f371364c95461070c813361075a565b61074b576040517f08c379a000000000000000000000000000000000000000000000000000000000815260040161074290612162565b60405180910390fd5b6107558383611921565b505050565b600080600084815260200190815260200160002060030160009054906101000a900460ff1661078c57600090506107ef565b60008084815260200190815260200160002060000160008373ffffffffffffffffffffffffffffffffffffffff1673ffffffffffffffffffffffffffffffffffffffff16815260200190815260200160002060009054906101000a900460ff1690505b92915050565b60008180519060200120905060008082815260200190815260200160002060030160009054906101000a900460ff16801561085057507fdf8b4c520ffe197c5343c6f5aec59570151ef9a492f2c624fd45ddde6135ec428114155b156108e157600080600083815260200190815260200160002060030160006101000a81548160ff0219169083151502179055503373ffffffffffffffffffffffffffffffffffffffff16826040516108a8919061208d565b60405180910390207fef4f3adabb4ce2cc6076cc23d211eff03f6e49839a9d773d7c77f48a83a2d85960405160405180910390a3610920565b61091f6040518060400160405280601c81526020017f546865207065726d697373696f6e206973206e6f742076616c69642e00000000815250611a6f565b5b5050565b600061093783805190602001208361075a565b905092915050565b6060806000838051906020012090506000805b60008084815260200190815260200160002060020154811015610ad0576000808481526020019081526020016000206000016000806000868152602001908152602001600020600101600084815260200190815260200160002060009054906101000a900473ffffffffffffffffffffffffffffffffffffffff1673ffffffffffffffffffffffffffffffffffffffff1673ffffffffffffffffffffffffffffffffffffffff16815260200190815260200160002060009054906101000a900460ff1615610abd57600080848152602001908152602001600020600101600082815260200190815260200160002060009054906101000a900473ffffffffffffffffffffffffffffffffffffffff16848381518110610a7457610a736123c4565b5b602002602001019073ffffffffffffffffffffffffffffffffffffffff16908173ffffffffffffffffffffffffffffffffffffffff16815250508180610ab99061234c565b9250505b8080610ac89061234c565b915050610952565b50829350505050919050565b610b067fdf8b4c520ffe197c5343c6f5aec59570151ef9a492f2c624fd45ddde6135ec428261075a565b1580610b385750610b377fdf8b4c520ffe197c5343c6f5aec59570151ef9a492f2c624fd45ddde6135ec423361075a565b5b15610cb8576000600190505b600254811015610c58576000806001600084815260200190815260200160002054815260200190815260200160002060000160008373ffffffffffffffffffffffffffffffffffffffff1673ffffffffffffffffffffffffffffffffffffffff16815260200190815260200160002060009054906101000a900460ff1615610c455760008060006001600085815260200190815260200160002054815260200190815260200160002060000160008473ffffffffffffffffffffffffffffffffffffffff1673ffffffffffffffffffffffffffffffffffffffff16815260200190815260200160002060006101000a81548160ff0219169083151502179055505b8080610c509061234c565b915050610b44565b503373ffffffffffffffffffffffffffffffffffffffff168173ffffffffffffffffffffffffffffffffffffffff167ffd7e144a5e02c1180e00f9591ef4f60aa95b127c4f134847224a4b6cb99fef9660405160405180910390a3610cf7565b610cf66040518060400160405280601881526020017f596f752063616e6e6f742064656c6574652041444d494e2e0000000000000000815250611a6f565b5b50565b600080600090505b6000807fdf8b4c520ffe197c5343c6f5aec59570151ef9a492f2c624fd45ddde6135ec42815260200190815260200160002060020154811015610e42576000807fdf8b4c520ffe197c5343c6f5aec59570151ef9a492f2c624fd45ddde6135ec42815260200190815260200160002060000160008060007fdf8b4c520ffe197c5343c6f5aec59570151ef9a492f2c624fd45ddde6135ec428152602001908152602001600020600101600084815260200190815260200160002060009054906101000a900473ffffffffffffffffffffffffffffffffffffffff1673ffffffffffffffffffffffffffffffffffffffff1673ffffffffffffffffffffffffffffffffffffffff16815260200190815260200160002060009054906101000a900460ff1615610e2f57610e42565b8080610e3a9061234c565b915050610d02565b6000807fdf8b4c520ffe197c5343c6f5aec59570151ef9a492f2c624fd45ddde6135ec428152602001908152602001600020600101600082815260200190815260200160002060009054906101000a900473ffffffffffffffffffffffffffffffffffffffff1691505090565b60008060007fdf8b4c520ffe197c5343c6f5aec59570151ef9a492f2c624fd45ddde6135ec42815260200190815260200160002060000160003373ffffffffffffffffffffffffffffffffffffffff1673ffffffffffffffffffffffffffffffffffffffff16815260200190815260200160002060006101000a81548160ff021916908315150217905550610f647fdf8b4c520ffe197c5343c6f5aec59570151ef9a492f2c624fd45ddde6135ec4282611acb565b60016000807fdf8b4c520ffe197c5343c6f5aec59570151ef9a492f2c624fd45ddde6135ec42815260200190815260200160002060000160008373ffffffffffffffffffffffffffffffffffffffff1673ffffffffffffffffffffffffffffffffffffffff16815260200190815260200160002060006101000a81548160ff0219169083151502179055503373ffffffffffffffffffffffffffffffffffffffff168173ffffffffffffffffffffffffffffffffffffffff167f173de3514d8508f36ce8c81d509adcd8c8c76098400f685d3042b36f9a4160c360405160405180910390a350565b6060806000805b60025481101561112a576000806001600084815260200190815260200160002054815260200190815260200160002060000160008673ffffffffffffffffffffffffffffffffffffffff1673ffffffffffffffffffffffffffffffffffffffff16815260200190815260200160002060009054906101000a900460ff16156111175760016000828152602001908152602001600020548383815181106110fc576110fb6123c4565b5b60200260200101818152505081806111139061234c565b9250505b80806111229061234c565b915050611053565b508192505050919050565b60008280519060200120905060008280519060200120905060008083815260200190815260200160002060030160009054906101000a900460ff166113e65761117d82611c33565b600160008084815260200190815260200160002060030160006101000a81548160ff02191690831515021790555060005b60008083815260200190815260200160002060020154811015611358576000806000848152602001908152602001600020600101600083815260200190815260200160002060009054906101000a900473ffffffffffffffffffffffffffffffffffffffff16905060008084815260200190815260200160002060000160008273ffffffffffffffffffffffffffffffffffffffff1673ffffffffffffffffffffffffffffffffffffffff16815260200190815260200160002060009054906101000a900460ff1660008086815260200190815260200160002060000160008373ffffffffffffffffffffffffffffffffffffffff1673ffffffffffffffffffffffffffffffffffffffff16815260200190815260200160002060006101000a81548160ff02191690831515021790555080600080868152602001908152602001600020600101600084815260200190815260200160002060006101000a81548173ffffffffffffffffffffffffffffffffffffffff021916908373ffffffffffffffffffffffffffffffffffffffff1602179055505080806113509061234c565b9150506111ae565b5060008082815260200190815260200160002060020154600080848152602001908152602001600020600201819055503373ffffffffffffffffffffffffffffffffffffffff16846040516113ad919061208d565b60405180910390207f629a748ba580fe181c6ae2d3673c4bdfea9e1f2d334f36beec502aff5dbaeff260405160405180910390a3611425565b6114246040518060400160405280602081526020017f546865207065726d697373696f6e2068617320616c726561792065786973742e815250611a6f565b5b50505050565b60008180519060200120905060008082815260200190815260200160002060030160009054906101000a900460ff166117505761146781611c33565b600160008083815260200190815260200160002060030160006101000a81548160ff02191690831515021790555060005b6000807fdf8b4c520ffe197c5343c6f5aec59570151ef9a492f2c624fd45ddde6135ec428152602001908152602001600020600201548110156116a25760008060007fdf8b4c520ffe197c5343c6f5aec59570151ef9a492f2c624fd45ddde6135ec428152602001908152602001600020600101600083815260200190815260200160002060009054906101000a900473ffffffffffffffffffffffffffffffffffffffff1690506000807fdf8b4c520ffe197c5343c6f5aec59570151ef9a492f2c624fd45ddde6135ec42815260200190815260200160002060000160008273ffffffffffffffffffffffffffffffffffffffff1673ffffffffffffffffffffffffffffffffffffffff16815260200190815260200160002060009054906101000a900460ff1660008085815260200190815260200160002060000160008373ffffffffffffffffffffffffffffffffffffffff1673ffffffffffffffffffffffffffffffffffffffff16815260200190815260200160002060006101000a81548160ff02191690831515021790555080600080858152602001908152602001600020600101600084815260200190815260200160002060006101000a81548173ffffffffffffffffffffffffffffffffffffffff021916908373ffffffffffffffffffffffffffffffffffffffff16021790555050808061169a9061234c565b915050611498565b506000807fdf8b4c520ffe197c5343c6f5aec59570151ef9a492f2c624fd45ddde6135ec42815260200190815260200160002060020154600080838152602001908152602001600020600201819055503373ffffffffffffffffffffffffffffffffffffffff1682604051611717919061208d565b60405180910390207f629a748ba580fe181c6ae2d3673c4bdfea9e1f2d334f36beec502aff5dbaeff260405160405180910390a361178f565b61178e6040518060400160405280602081526020017f546865207065726d697373696f6e2068617320616c726561792065786973742e815250611a6f565b5b5050565b60008280519060200120905060008082815260200190815260200160002060030160009054906101000a900460ff1680156117ee57507fdf8b4c520ffe197c5343c6f5aec59570151ef9a492f2c624fd45ddde6135ec428114155b156118dd576117fd8183611acb565b600160008083815260200190815260200160002060000160008473ffffffffffffffffffffffffffffffffffffffff1673ffffffffffffffffffffffffffffffffffffffff16815260200190815260200160002060006101000a81548160ff0219169083151502179055503373ffffffffffffffffffffffffffffffffffffffff168273ffffffffffffffffffffffffffffffffffffffff16846040516118a4919061208d565b60405180910390207f1bbdb8ca05419dffb11afa5105f78331a46e3d8a8b900efb115bbb4175a9c2d360405160405180910390a461191c565b61191b6040518060400160405280601c81526020017f546865207065726d697373696f6e206973206e6f742076616c69642e00000000815250611a6f565b5b505050565b600082805190602001209050611937818361075a565b801561196357507fdf8b4c520ffe197c5343c6f5aec59570151ef9a492f2c624fd45ddde6135ec428114155b15611a4857600080600083815260200190815260200160002060000160008473ffffffffffffffffffffffffffffffffffffffff1673ffffffffffffffffffffffffffffffffffffffff16815260200190815260200160002060006101000a81548160ff0219169083151502179055503373ffffffffffffffffffffffffffffffffffffffff168273ffffffffffffffffffffffffffffffffffffffff1684604051611a0f919061208d565b60405180910390207f5658f0a44f1b55364ef0376f818ea716aee06d4e966974edba8ae1b8fa1e379c60405160405180910390a4611a6a565b611a696040518060800160405280604481526020016124d760449139611a6f565b5b505050565b80604051602001611a8091906120a4565b6040516020818303038152906040526040517f08c379a0000000000000000000000000000000000000000000000000000000008152600401611ac29190612140565b60405180910390fd5b6000805b60008085815260200190815260200160002060020154811015611b82578273ffffffffffffffffffffffffffffffffffffffff16600080868152602001908152602001600020600101600083815260200190815260200160002060009054906101000a900473ffffffffffffffffffffffffffffffffffffffff1673ffffffffffffffffffffffffffffffffffffffff161415611b6f5760019150611b82565b8080611b7a9061234c565b915050611acf565b5080611c2e5781600080858152602001908152602001600020600101600080600087815260200190815260200160002060020154815260200190815260200160002060006101000a81548173ffffffffffffffffffffffffffffffffffffffff021916908373ffffffffffffffffffffffffffffffffffffffff1602179055506000808481526020019081526020016000206002016000815480929190611c289061234c565b91905055505b505050565b6000805b600254811015611c78578260016000838152602001908152602001600020541415611c655760019150611c78565b8080611c709061234c565b915050611c37565b5080611cb157816001600060025481526020019081526020016000208190555060026000815480929190611cab9061234c565b91905055505b5050565b6000611cc8611cc3846121a7565b612182565b905082815260208101848484011115611ce457611ce3612427565b5b611cef8482856122d9565b509392505050565b600081359050611d06816124bf565b92915050565b600082601f830112611d2157611d20612422565b5b8135611d31848260208601611cb5565b91505092915050565b600060208284031215611d5057611d4f612431565b5b6000611d5e84828501611cf7565b91505092915050565b600060208284031215611d7d57611d7c612431565b5b600082013567ffffffffffffffff811115611d9b57611d9a61242c565b5b611da784828501611d0c565b91505092915050565b60008060408385031215611dc757611dc6612431565b5b600083013567ffffffffffffffff811115611de557611de461242c565b5b611df185828601611d0c565b9250506020611e0285828601611cf7565b9150509250929050565b60008060408385031215611e2357611e22612431565b5b600083013567ffffffffffffffff811115611e4157611e4061242c565b5b611e4d85828601611d0c565b925050602083013567ffffffffffffffff811115611e6e57611e6d61242c565b5b611e7a85828601611d0c565b9150509250929050565b6000611e908383611eb4565b60208301905092915050565b6000611ea88383611f9d565b60208301905092915050565b611ebd81612287565b82525050565b611ecc81612287565b82525050565b6000611edd826121f8565b611ee7818561223e565b9350611ef2836121d8565b8060005b83811015611f23578151611f0a8882611e84565b9750611f1583612224565b925050600181019050611ef6565b5085935050505092915050565b6000611f3b82612203565b611f45818561224f565b9350611f50836121e8565b8060005b83811015611f81578151611f688882611e9c565b9750611f7383612231565b925050600181019050611f54565b5085935050505092915050565b611f9781612299565b82525050565b611fa6816122a5565b82525050565b6000611fb78261220e565b611fc18185612260565b9350611fd18185602086016122e8565b80840191505092915050565b6000611fe882612219565b611ff2818561226b565b93506120028185602086016122e8565b61200b81612436565b840191505092915050565b600061202182612219565b61202b818561227c565b935061203b8185602086016122e8565b80840191505092915050565b6000612054600f8361227c565b915061205f82612447565b600f82019050919050565b6000612077603e8361226b565b915061208282612470565b604082019050919050565b60006120998284611fac565b915081905092915050565b60006120af82612047565b91506120bb8284612016565b915081905092915050565b60006020820190506120db6000830184611ec3565b92915050565b600060208201905081810360008301526120fb8184611ed2565b905092915050565b6000602082019050818103600083015261211d8184611f30565b905092915050565b600060208201905061213a6000830184611f8e565b92915050565b6000602082019050818103600083015261215a8184611fdd565b905092915050565b6000602082019050818103600083015261217b8161206a565b9050919050565b600061218c61219d565b9050612198828261231b565b919050565b6000604051905090565b600067ffffffffffffffff8211156121c2576121c16123f3565b5b6121cb82612436565b9050602081019050919050565b6000819050602082019050919050565b6000819050602082019050919050565b600081519050919050565b600081519050919050565b600081519050919050565b600081519050919050565b6000602082019050919050565b6000602082019050919050565b600082825260208201905092915050565b600082825260208201905092915050565b600081905092915050565b600082825260208201905092915050565b600081905092915050565b6000612292826122af565b9050919050565b60008115159050919050565b6000819050919050565b600073ffffffffffffffffffffffffffffffffffffffff82169050919050565b6000819050919050565b82818337600083830152505050565b60005b838110156123065780820151818401526020810190506122eb565b83811115612315576000848401525b50505050565b61232482612436565b810181811067ffffffffffffffff82111715612343576123426123f3565b5b80604052505050565b6000612357826122cf565b91507fffffffffffffffffffffffffffffffffffffffffffffffffffffffffffffffff82141561238a57612389612395565b5b600182019050919050565b7f4e487b7100000000000000000000000000000000000000000000000000000000600052601160045260246000fd5b7f4e487b7100000000000000000000000000000000000000000000000000000000600052603260045260246000fd5b7f4e487b7100000000000000000000000000000000000000000000000000000000600052604160045260246000fd5b600080fd5b600080fd5b600080fd5b600080fd5b6000601f19601f8301169050919050565b7f416363657373436f6e74726f6c3a200000000000000000000000000000000000600082015250565b7f416363657373436f6e74726f6c3a20596f752068617665206e6f207065726d6960008201527f7373696f6e20746f2061636365737320746869732066756e6374696f6e2e0000602082015250565b6124c881612287565b81146124d357600080fd5b5056fe546865207065726d697373696f6e206973206e6f742076616c6964206f7220746865206163636f756e74206973206e6f7420696e20746865207065726d697373696f6e2ea26469706673582212200beccac6a0274f460f4c95ed5023f8499c6f6e5458facb174e0960f97665e92d64736f6c63430008070033",
					"opcodes": "PUSH1 0x80 PUSH1 0x40 MSTORE CALLVALUE DUP1 ISZERO PUSH2 0x10 JUMPI PUSH1 0x0 DUP1 REVERT JUMPDEST POP PUSH2 0x1F PUSH2 0x24 PUSH1 0x20 SHL PUSH1 0x20 SHR JUMP JUMPDEST PUSH2 0x1FF JUMP JUMPDEST PUSH1 0x1 PUSH1 0x0 DUP1 PUSH32 0xDF8B4C520FFE197C5343C6F5AEC59570151EF9A492F2C624FD45DDDE6135EC42 DUP2 MSTORE PUSH1 0x20 ADD SWAP1 DUP2 MSTORE PUSH1 0x20 ADD PUSH1 0x0 KECCAK256 PUSH1 0x3 ADD PUSH1 0x0 PUSH2 0x100 EXP DUP2 SLOAD DUP2 PUSH1 0xFF MUL NOT AND SWAP1 DUP4 ISZERO ISZERO MUL OR SWAP1 SSTORE POP PUSH1 0x1 PUSH1 0x0 DUP1 PUSH32 0xDF8B4C520FFE197C5343C6F5AEC59570151EF9A492F2C624FD45DDDE6135EC42 DUP2 MSTORE PUSH1 0x20 ADD SWAP1 DUP2 MSTORE PUSH1 0x20 ADD PUSH1 0x0 KECCAK256 PUSH1 0x0 ADD PUSH1 0x0 CALLER PUSH20 0xFFFFFFFFFFFFFFFFFFFFFFFFFFFFFFFFFFFFFFFF AND PUSH20 0xFFFFFFFFFFFFFFFFFFFFFFFFFFFFFFFFFFFFFFFF AND DUP2 MSTORE PUSH1 0x20 ADD SWAP1 DUP2 MSTORE PUSH1 0x20 ADD PUSH1 0x0 KECCAK256 PUSH1 0x0 PUSH2 0x100 EXP DUP2 SLOAD DUP2 PUSH1 0xFF MUL NOT AND SWAP1 DUP4 ISZERO ISZERO MUL OR SWAP1 SSTORE POP CALLER PUSH1 0x0 DUP1 PUSH32 0xDF8B4C520FFE197C5343C6F5AEC59570151EF9A492F2C624FD45DDDE6135EC42 DUP2 MSTORE PUSH1 0x20 ADD SWAP1 DUP2 MSTORE PUSH1 0x20 ADD PUSH1 0x0 KECCAK256 PUSH1 0x1 ADD PUSH1 0x0 DUP1 DUP2 MSTORE PUSH1 0x20 ADD SWAP1 DUP2 MSTORE PUSH1 0x20 ADD PUSH1 0x0 KECCAK256 PUSH1 0x0 PUSH2 0x100 EXP DUP2 SLOAD DUP2 PUSH20 0xFFFFFFFFFFFFFFFFFFFFFFFFFFFFFFFFFFFFFFFF MUL NOT AND SWAP1 DUP4 PUSH20 0xFFFFFFFFFFFFFFFFFFFFFFFFFFFFFFFFFFFFFFFF AND MUL OR SWAP1 SSTORE POP PUSH1 0x1 PUSH1 0x0 DUP1 PUSH32 0xDF8B4C520FFE197C5343C6F5AEC59570151EF9A492F2C624FD45DDDE6135EC42 DUP2 MSTORE PUSH1 0x20 ADD SWAP1 DUP2 MSTORE PUSH1 0x20 ADD PUSH1 0x0 KECCAK256 PUSH1 0x2 ADD DUP2 SWAP1 SSTORE POP PUSH1 0x1 PUSH1 0x2 DUP2 SWAP1 SSTORE POP PUSH32 0xDF8B4C520FFE197C5343C6F5AEC59570151EF9A492F2C624FD45DDDE6135EC42 PUSH1 0x1 PUSH1 0x0 DUP1 DUP2 MSTORE PUSH1 0x20 ADD SWAP1 DUP2 MSTORE PUSH1 0x20 ADD PUSH1 0x0 KECCAK256 DUP2 SWAP1 SSTORE POP JUMP JUMPDEST PUSH2 0x2550 DUP1 PUSH2 0x20E PUSH1 0x0 CODECOPY PUSH1 0x0 RETURN INVALID PUSH1 0x80 PUSH1 0x40 MSTORE CALLVALUE DUP1 ISZERO PUSH2 0x10 JUMPI PUSH1 0x0 DUP1 REVERT JUMPDEST POP PUSH1 0x4 CALLDATASIZE LT PUSH2 0xA9 JUMPI PUSH1 0x0 CALLDATALOAD PUSH1 0xE0 SHR DUP1 PUSH4 0x75829DEF GT PUSH2 0x71 JUMPI DUP1 PUSH4 0x75829DEF EQ PUSH2 0x164 JUMPI DUP1 PUSH4 0x80891CB2 EQ PUSH2 0x180 JUMPI DUP1 PUSH4 0xA10F9524 EQ PUSH2 0x1B0 JUMPI DUP1 PUSH4 0xAAE7C78A EQ PUSH2 0x1CC JUMPI DUP1 PUSH4 0xC7DC6220 EQ PUSH2 0x1E8 JUMPI DUP1 PUSH4 0xC98D6F1E EQ PUSH2 0x204 JUMPI PUSH2 0xA9 JUMP JUMPDEST DUP1 PUSH4 0x342DA059 EQ PUSH2 0xAE JUMPI DUP1 PUSH4 0x383783C6 EQ PUSH2 0xCA JUMPI DUP1 PUSH4 0x491642BB EQ PUSH2 0xFA JUMPI DUP1 PUSH4 0x4C1B64CB EQ PUSH2 0x12A JUMPI DUP1 PUSH4 0x7058DD24 EQ PUSH2 0x146 JUMPI JUMPDEST PUSH1 0x0 DUP1 REVERT JUMPDEST PUSH2 0xC8 PUSH1 0x4 DUP1 CALLDATASIZE SUB DUP2 ADD SWAP1 PUSH2 0xC3 SWAP2 SWAP1 PUSH2 0x1D67 JUMP JUMPDEST PUSH2 0x220 JUMP JUMPDEST STOP JUMPDEST PUSH2 0xE4 PUSH1 0x4 DUP1 CALLDATASIZE SUB DUP2 ADD SWAP1 PUSH2 0xDF SWAP2 SWAP1 PUSH2 0x1DB0 JUMP JUMPDEST PUSH2 0x297 JUMP JUMPDEST PUSH1 0x40 MLOAD PUSH2 0xF1 SWAP2 SWAP1 PUSH2 0x2125 JUMP JUMPDEST PUSH1 0x40 MLOAD DUP1 SWAP2 SUB SWAP1 RETURN JUMPDEST PUSH2 0x114 PUSH1 0x4 DUP1 CALLDATASIZE SUB DUP2 ADD SWAP1 PUSH2 0x10F SWAP2 SWAP1 PUSH2 0x1D67 JUMP JUMPDEST PUSH2 0x316 JUMP JUMPDEST PUSH1 0x40 MLOAD PUSH2 0x121 SWAP2 SWAP1 PUSH2 0x20E1 JUMP JUMPDEST PUSH1 0x40 MLOAD DUP1 SWAP2 SUB SWAP1 RETURN JUMPDEST PUSH2 0x144 PUSH1 0x4 DUP1 CALLDATASIZE SUB DUP2 ADD SWAP1 PUSH2 0x13F SWAP2 SWAP1 PUSH2 0x1D3A JUMP JUMPDEST PUSH2 0x393 JUMP JUMPDEST STOP JUMPDEST PUSH2 0x14E PUSH2 0x40A JUMP JUMPDEST PUSH1 0x40 MLOAD PUSH2 0x15B SWAP2 SWAP1 PUSH2 0x20C6 JUMP JUMPDEST PUSH1 0x40 MLOAD DUP1 SWAP2 SUB SWAP1 RETURN JUMPDEST PUSH2 0x17E PUSH1 0x4 DUP1 CALLDATASIZE SUB DUP2 ADD SWAP1 PUSH2 0x179 SWAP2 SWAP1 PUSH2 0x1D3A JUMP JUMPDEST PUSH2 0x484 JUMP JUMPDEST STOP JUMPDEST PUSH2 0x19A PUSH1 0x4 DUP1 CALLDATASIZE SUB DUP2 ADD SWAP1 PUSH2 0x195 SWAP2 SWAP1 PUSH2 0x1D3A JUMP JUMPDEST PUSH2 0x4FB JUMP JUMPDEST PUSH1 0x40 MLOAD PUSH2 0x1A7 SWAP2 SWAP1 PUSH2 0x2103 JUMP JUMPDEST PUSH1 0x40 MLOAD DUP1 SWAP2 SUB SWAP1 RETURN JUMPDEST PUSH2 0x1CA PUSH1 0x4 DUP1 CALLDATASIZE SUB DUP2 ADD SWAP1 PUSH2 0x1C5 SWAP2 SWAP1 PUSH2 0x1E0C JUMP JUMPDEST PUSH2 0x578 JUMP JUMPDEST STOP JUMPDEST PUSH2 0x1E6 PUSH1 0x4 DUP1 CALLDATASIZE SUB DUP2 ADD SWAP1 PUSH2 0x1E1 SWAP2 SWAP1 PUSH2 0x1D67 JUMP JUMPDEST PUSH2 0x5F1 JUMP JUMPDEST STOP JUMPDEST PUSH2 0x202 PUSH1 0x4 DUP1 CALLDATASIZE SUB DUP2 ADD SWAP1 PUSH2 0x1FD SWAP2 SWAP1 PUSH2 0x1DB0 JUMP JUMPDEST PUSH2 0x668 JUMP JUMPDEST STOP JUMPDEST PUSH2 0x21E PUSH1 0x4 DUP1 CALLDATASIZE SUB DUP2 ADD SWAP1 PUSH2 0x219 SWAP2 SWAP1 PUSH2 0x1DB0 JUMP JUMPDEST PUSH2 0x6E1 JUMP JUMPDEST STOP JUMPDEST PUSH32 0x73D57861095ED1FF7B0E5C00E25F9FC922CF9164E617149EE7073F371364C954 PUSH2 0x24B DUP2 CALLER PUSH2 0x75A JUMP JUMPDEST PUSH2 0x28A JUMPI PUSH1 0x40 MLOAD PUSH32 0x8C379A000000000000000000000000000000000000000000000000000000000 DUP2 MSTORE PUSH1 0x4 ADD PUSH2 0x281 SWAP1 PUSH2 0x2162 JUMP JUMPDEST PUSH1 0x40 MLOAD DUP1 SWAP2 SUB SWAP1 REVERT JUMPDEST PUSH2 0x293 DUP3 PUSH2 0x7F5 JUMP JUMPDEST POP POP JUMP JUMPDEST PUSH1 0x0 PUSH32 0xA724C0857099DA33C38B932CE5D4E84578EE9792153085D9D5E379BFBA70CACB PUSH2 0x2C4 DUP2 CALLER PUSH2 0x75A JUMP JUMPDEST PUSH2 0x303 JUMPI PUSH1 0x40 MLOAD PUSH32 0x8C379A000000000000000000000000000000000000000000000000000000000 DUP2 MSTORE PUSH1 0x4 ADD PUSH2 0x2FA SWAP1 PUSH2 0x2162 JUMP JUMPDEST PUSH1 0x40 MLOAD DUP1 SWAP2 SUB SWAP1 REVERT JUMPDEST PUSH2 0x30D DUP5 DUP5 PUSH2 0x924 JUMP JUMPDEST SWAP2 POP POP SWAP3 SWAP2 POP POP JUMP JUMPDEST PUSH1 0x60 PUSH32 0xA724C0857099DA33C38B932CE5D4E84578EE9792153085D9D5E379BFBA70CACB PUSH2 0x343 DUP2 CALLER PUSH2 0x75A JUMP JUMPDEST PUSH2 0x382 JUMPI PUSH1 0x40 MLOAD PUSH32 0x8C379A000000000000000000000000000000000000000000000000000000000 DUP2 MSTORE PUSH1 0x4 ADD PUSH2 0x379 SWAP1 PUSH2 0x2162 JUMP JUMPDEST PUSH1 0x40 MLOAD DUP1 SWAP2 SUB SWAP1 REVERT JUMPDEST PUSH2 0x38B DUP4 PUSH2 0x93F JUMP JUMPDEST SWAP2 POP POP SWAP2 SWAP1 POP JUMP JUMPDEST PUSH32 0x73D57861095ED1FF7B0E5C00E25F9FC922CF9164E617149EE7073F371364C954 PUSH2 0x3BE DUP2 CALLER PUSH2 0x75A JUMP JUMPDEST PUSH2 0x3FD JUMPI PUSH1 0x40 MLOAD PUSH32 0x8C379A000000000000000000000000000000000000000000000000000000000 DUP2 MSTORE PUSH1 0x4 ADD PUSH2 0x3F4 SWAP1 PUSH2 0x2162 JUMP JUMPDEST PUSH1 0x40 MLOAD DUP1 SWAP2 SUB SWAP1 REVERT JUMPDEST PUSH2 0x406 DUP3 PUSH2 0xADC JUMP JUMPDEST POP POP JUMP JUMPDEST PUSH1 0x0 PUSH32 0xDF8B4C520FFE197C5343C6F5AEC59570151EF9A492F2C624FD45DDDE6135EC42 PUSH2 0x437 DUP2 CALLER PUSH2 0x75A JUMP JUMPDEST PUSH2 0x476 JUMPI PUSH1 0x40 MLOAD PUSH32 0x8C379A000000000000000000000000000000000000000000000000000000000 DUP2 MSTORE PUSH1 0x4 ADD PUSH2 0x46D SWAP1 PUSH2 0x2162 JUMP JUMPDEST PUSH1 0x40 MLOAD DUP1 SWAP2 SUB SWAP1 REVERT JUMPDEST PUSH2 0x47E PUSH2 0xCFA JUMP JUMPDEST SWAP2 POP POP SWAP1 JUMP JUMPDEST PUSH32 0x73D57861095ED1FF7B0E5C00E25F9FC922CF9164E617149EE7073F371364C954 PUSH2 0x4AF DUP2 CALLER PUSH2 0x75A JUMP JUMPDEST PUSH2 0x4EE JUMPI PUSH1 0x40 MLOAD PUSH32 0x8C379A000000000000000000000000000000000000000000000000000000000 DUP2 MSTORE PUSH1 0x4 ADD PUSH2 0x4E5 SWAP1 PUSH2 0x2162 JUMP JUMPDEST PUSH1 0x40 MLOAD DUP1 SWAP2 SUB SWAP1 REVERT JUMPDEST PUSH2 0x4F7 DUP3 PUSH2 0xEAF JUMP JUMPDEST POP POP JUMP JUMPDEST PUSH1 0x60 PUSH32 0xA724C0857099DA33C38B932CE5D4E84578EE9792153085D9D5E379BFBA70CACB PUSH2 0x528 DUP2 CALLER PUSH2 0x75A JUMP JUMPDEST PUSH2 0x567 JUMPI PUSH1 0x40 MLOAD PUSH32 0x8C379A000000000000000000000000000000000000000000000000000000000 DUP2 MSTORE PUSH1 0x4 ADD PUSH2 0x55E SWAP1 PUSH2 0x2162 JUMP JUMPDEST PUSH1 0x40 MLOAD DUP1 SWAP2 SUB SWAP1 REVERT JUMPDEST PUSH2 0x570 DUP4 PUSH2 0x104C JUMP JUMPDEST SWAP2 POP POP SWAP2 SWAP1 POP JUMP JUMPDEST PUSH32 0x73D57861095ED1FF7B0E5C00E25F9FC922CF9164E617149EE7073F371364C954 PUSH2 0x5A3 DUP2 CALLER PUSH2 0x75A JUMP JUMPDEST PUSH2 0x5E2 JUMPI PUSH1 0x40 MLOAD PUSH32 0x8C379A000000000000000000000000000000000000000000000000000000000 DUP2 MSTORE PUSH1 0x4 ADD PUSH2 0x5D9 SWAP1 PUSH2 0x2162 JUMP JUMPDEST PUSH1 0x40 MLOAD DUP1 SWAP2 SUB SWAP1 REVERT JUMPDEST PUSH2 0x5EC DUP4 DUP4 PUSH2 0x1135 JUMP JUMPDEST POP POP POP JUMP JUMPDEST PUSH32 0x73D57861095ED1FF7B0E5C00E25F9FC922CF9164E617149EE7073F371364C954 PUSH2 0x61C DUP2 CALLER PUSH2 0x75A JUMP JUMPDEST PUSH2 0x65B JUMPI PUSH1 0x40 MLOAD PUSH32 0x8C379A000000000000000000000000000000000000000000000000000000000 DUP2 MSTORE PUSH1 0x4 ADD PUSH2 0x652 SWAP1 PUSH2 0x2162 JUMP JUMPDEST PUSH1 0x40 MLOAD DUP1 SWAP2 SUB SWAP1 REVERT JUMPDEST PUSH2 0x664 DUP3 PUSH2 0x142B JUMP JUMPDEST POP POP JUMP JUMPDEST PUSH32 0x73D57861095ED1FF7B0E5C00E25F9FC922CF9164E617149EE7073F371364C954 PUSH2 0x693 DUP2 CALLER PUSH2 0x75A JUMP JUMPDEST PUSH2 0x6D2 JUMPI PUSH1 0x40 MLOAD PUSH32 0x8C379A000000000000000000000000000000000000000000000000000000000 DUP2 MSTORE PUSH1 0x4 ADD PUSH2 0x6C9 SWAP1 PUSH2 0x2162 JUMP JUMPDEST PUSH1 0x40 MLOAD DUP1 SWAP2 SUB SWAP1 REVERT JUMPDEST PUSH2 0x6DC DUP4 DUP4 PUSH2 0x1793 JUMP JUMPDEST POP POP POP JUMP JUMPDEST PUSH32 0x73D57861095ED1FF7B0E5C00E25F9FC922CF9164E617149EE7073F371364C954 PUSH2 0x70C DUP2 CALLER PUSH2 0x75A JUMP JUMPDEST PUSH2 0x74B JUMPI PUSH1 0x40 MLOAD PUSH32 0x8C379A000000000000000000000000000000000000000000000000000000000 DUP2 MSTORE PUSH1 0x4 ADD PUSH2 0x742 SWAP1 PUSH2 0x2162 JUMP JUMPDEST PUSH1 0x40 MLOAD DUP1 SWAP2 SUB SWAP1 REVERT JUMPDEST PUSH2 0x755 DUP4 DUP4 PUSH2 0x1921 JUMP JUMPDEST POP POP POP JUMP JUMPDEST PUSH1 0x0 DUP1 PUSH1 0x0 DUP5 DUP2 MSTORE PUSH1 0x20 ADD SWAP1 DUP2 MSTORE PUSH1 0x20 ADD PUSH1 0x0 KECCAK256 PUSH1 0x3 ADD PUSH1 0x0 SWAP1 SLOAD SWAP1 PUSH2 0x100 EXP SWAP1 DIV PUSH1 0xFF AND PUSH2 0x78C JUMPI PUSH1 0x0 SWAP1 POP PUSH2 0x7EF JUMP JUMPDEST PUSH1 0x0 DUP1 DUP5 DUP2 MSTORE PUSH1 0x20 ADD SWAP1 DUP2 MSTORE PUSH1 0x20 ADD PUSH1 0x0 KECCAK256 PUSH1 0x0 ADD PUSH1 0x0 DUP4 PUSH20 0xFFFFFFFFFFFFFFFFFFFFFFFFFFFFFFFFFFFFFFFF AND PUSH20 0xFFFFFFFFFFFFFFFFFFFFFFFFFFFFFFFFFFFFFFFF AND DUP2 MSTORE PUSH1 0x20 ADD SWAP1 DUP2 MSTORE PUSH1 0x20 ADD PUSH1 0x0 KECCAK256 PUSH1 0x0 SWAP1 SLOAD SWAP1 PUSH2 0x100 EXP SWAP1 DIV PUSH1 0xFF AND SWAP1 POP JUMPDEST SWAP3 SWAP2 POP POP JUMP JUMPDEST PUSH1 0x0 DUP2 DUP1 MLOAD SWAP1 PUSH1 0x20 ADD KECCAK256 SWAP1 POP PUSH1 0x0 DUP1 DUP3 DUP2 MSTORE PUSH1 0x20 ADD SWAP1 DUP2 MSTORE PUSH1 0x20 ADD PUSH1 0x0 KECCAK256 PUSH1 0x3 ADD PUSH1 0x0 SWAP1 SLOAD SWAP1 PUSH2 0x100 EXP SWAP1 DIV PUSH1 0xFF AND DUP1 ISZERO PUSH2 0x850 JUMPI POP PUSH32 0xDF8B4C520FFE197C5343C6F5AEC59570151EF9A492F2C624FD45DDDE6135EC42 DUP2 EQ ISZERO JUMPDEST ISZERO PUSH2 0x8E1 JUMPI PUSH1 0x0 DUP1 PUSH1 0x0 DUP4 DUP2 MSTORE PUSH1 0x20 ADD SWAP1 DUP2 MSTORE PUSH1 0x20 ADD PUSH1 0x0 KECCAK256 PUSH1 0x3 ADD PUSH1 0x0 PUSH2 0x100 EXP DUP2 SLOAD DUP2 PUSH1 0xFF MUL NOT AND SWAP1 DUP4 ISZERO ISZERO MUL OR SWAP1 SSTORE POP CALLER PUSH20 0xFFFFFFFFFFFFFFFFFFFFFFFFFFFFFFFFFFFFFFFF AND DUP3 PUSH1 0x40 MLOAD PUSH2 0x8A8 SWAP2 SWAP1 PUSH2 0x208D JUMP JUMPDEST PUSH1 0x40 MLOAD DUP1 SWAP2 SUB SWAP1 KECCAK256 PUSH32 0xEF4F3ADABB4CE2CC6076CC23D211EFF03F6E49839A9D773D7C77F48A83A2D859 PUSH1 0x40 MLOAD PUSH1 0x40 MLOAD DUP1 SWAP2 SUB SWAP1 LOG3 PUSH2 0x920 JUMP JUMPDEST PUSH2 0x91F PUSH1 0x40 MLOAD DUP1 PUSH1 0x40 ADD PUSH1 0x40 MSTORE DUP1 PUSH1 0x1C DUP2 MSTORE PUSH1 0x20 ADD PUSH32 0x546865207065726D697373696F6E206973206E6F742076616C69642E00000000 DUP2 MSTORE POP PUSH2 0x1A6F JUMP JUMPDEST JUMPDEST POP POP JUMP JUMPDEST PUSH1 0x0 PUSH2 0x937 DUP4 DUP1 MLOAD SWAP1 PUSH1 0x20 ADD KECCAK256 DUP4 PUSH2 0x75A JUMP JUMPDEST SWAP1 POP SWAP3 SWAP2 POP POP JUMP JUMPDEST PUSH1 0x60 DUP1 PUSH1 0x0 DUP4 DUP1 MLOAD SWAP1 PUSH1 0x20 ADD KECCAK256 SWAP1 POP PUSH1 0x0 DUP1 JUMPDEST PUSH1 0x0 DUP1 DUP5 DUP2 MSTORE PUSH1 0x20 ADD SWAP1 DUP2 MSTORE PUSH1 0x20 ADD PUSH1 0x0 KECCAK256 PUSH1 0x2 ADD SLOAD DUP2 LT ISZERO PUSH2 0xAD0 JUMPI PUSH1 0x0 DUP1 DUP5 DUP2 MSTORE PUSH1 0x20 ADD SWAP1 DUP2 MSTORE PUSH1 0x20 ADD PUSH1 0x0 KECCAK256 PUSH1 0x0 ADD PUSH1 0x0 DUP1 PUSH1 0x0 DUP7 DUP2 MSTORE PUSH1 0x20 ADD SWAP1 DUP2 MSTORE PUSH1 0x20 ADD PUSH1 0x0 KECCAK256 PUSH1 0x1 ADD PUSH1 0x0 DUP5 DUP2 MSTORE PUSH1 0x20 ADD SWAP1 DUP2 MSTORE PUSH1 0x20 ADD PUSH1 0x0 KECCAK256 PUSH1 0x0 SWAP1 SLOAD SWAP1 PUSH2 0x100 EXP SWAP1 DIV PUSH20 0xFFFFFFFFFFFFFFFFFFFFFFFFFFFFFFFFFFFFFFFF AND PUSH20 0xFFFFFFFFFFFFFFFFFFFFFFFFFFFFFFFFFFFFFFFF AND PUSH20 0xFFFFFFFFFFFFFFFFFFFFFFFFFFFFFFFFFFFFFFFF AND DUP2 MSTORE PUSH1 0x20 ADD SWAP1 DUP2 MSTORE PUSH1 0x20 ADD PUSH1 0x0 KECCAK256 PUSH1 0x0 SWAP1 SLOAD SWAP1 PUSH2 0x100 EXP SWAP1 DIV PUSH1 0xFF AND ISZERO PUSH2 0xABD JUMPI PUSH1 0x0 DUP1 DUP5 DUP2 MSTORE PUSH1 0x20 ADD SWAP1 DUP2 MSTORE PUSH1 0x20 ADD PUSH1 0x0 KECCAK256 PUSH1 0x1 ADD PUSH1 0x0 DUP3 DUP2 MSTORE PUSH1 0x20 ADD SWAP1 DUP2 MSTORE PUSH1 0x20 ADD PUSH1 0x0 KECCAK256 PUSH1 0x0 SWAP1 SLOAD SWAP1 PUSH2 0x100 EXP SWAP1 DIV PUSH20 0xFFFFFFFFFFFFFFFFFFFFFFFFFFFFFFFFFFFFFFFF AND DUP5 DUP4 DUP2 MLOAD DUP2 LT PUSH2 0xA74 JUMPI PUSH2 0xA73 PUSH2 0x23C4 JUMP JUMPDEST JUMPDEST PUSH1 0x20 MUL PUSH1 0x20 ADD ADD SWAP1 PUSH20 0xFFFFFFFFFFFFFFFFFFFFFFFFFFFFFFFFFFFFFFFF AND SWAP1 DUP2 PUSH20 0xFFFFFFFFFFFFFFFFFFFFFFFFFFFFFFFFFFFFFFFF AND DUP2 MSTORE POP POP DUP2 DUP1 PUSH2 0xAB9 SWAP1 PUSH2 0x234C JUMP JUMPDEST SWAP3 POP POP JUMPDEST DUP1 DUP1 PUSH2 0xAC8 SWAP1 PUSH2 0x234C JUMP JUMPDEST SWAP2 POP POP PUSH2 0x952 JUMP JUMPDEST POP DUP3 SWAP4 POP POP POP POP SWAP2 SWAP1 POP JUMP JUMPDEST PUSH2 0xB06 PUSH32 0xDF8B4C520FFE197C5343C6F5AEC59570151EF9A492F2C624FD45DDDE6135EC42 DUP3 PUSH2 0x75A JUMP JUMPDEST ISZERO DUP1 PUSH2 0xB38 JUMPI POP PUSH2 0xB37 PUSH32 0xDF8B4C520FFE197C5343C6F5AEC59570151EF9A492F2C624FD45DDDE6135EC42 CALLER PUSH2 0x75A JUMP JUMPDEST JUMPDEST ISZERO PUSH2 0xCB8 JUMPI PUSH1 0x0 PUSH1 0x1 SWAP1 POP JUMPDEST PUSH1 0x2 SLOAD DUP2 LT ISZERO PUSH2 0xC58 JUMPI PUSH1 0x0 DUP1 PUSH1 0x1 PUSH1 0x0 DUP5 DUP2 MSTORE PUSH1 0x20 ADD SWAP1 DUP2 MSTORE PUSH1 0x20 ADD PUSH1 0x0 KECCAK256 SLOAD DUP2 MSTORE PUSH1 0x20 ADD SWAP1 DUP2 MSTORE PUSH1 0x20 ADD PUSH1 0x0 KECCAK256 PUSH1 0x0 ADD PUSH1 0x0 DUP4 PUSH20 0xFFFFFFFFFFFFFFFFFFFFFFFFFFFFFFFFFFFFFFFF AND PUSH20 0xFFFFFFFFFFFFFFFFFFFFFFFFFFFFFFFFFFFFFFFF AND DUP2 MSTORE PUSH1 0x20 ADD SWAP1 DUP2 MSTORE PUSH1 0x20 ADD PUSH1 0x0 KECCAK256 PUSH1 0x0 SWAP1 SLOAD SWAP1 PUSH2 0x100 EXP SWAP1 DIV PUSH1 0xFF AND ISZERO PUSH2 0xC45 JUMPI PUSH1 0x0 DUP1 PUSH1 0x0 PUSH1 0x1 PUSH1 0x0 DUP6 DUP2 MSTORE PUSH1 0x20 ADD SWAP1 DUP2 MSTORE PUSH1 0x20 ADD PUSH1 0x0 KECCAK256 SLOAD DUP2 MSTORE PUSH1 0x20 ADD SWAP1 DUP2 MSTORE PUSH1 0x20 ADD PUSH1 0x0 KECCAK256 PUSH1 0x0 ADD PUSH1 0x0 DUP5 PUSH20 0xFFFFFFFFFFFFFFFFFFFFFFFFFFFFFFFFFFFFFFFF AND PUSH20 0xFFFFFFFFFFFFFFFFFFFFFFFFFFFFFFFFFFFFFFFF AND DUP2 MSTORE PUSH1 0x20 ADD SWAP1 DUP2 MSTORE PUSH1 0x20 ADD PUSH1 0x0 KECCAK256 PUSH1 0x0 PUSH2 0x100 EXP DUP2 SLOAD DUP2 PUSH1 0xFF MUL NOT AND SWAP1 DUP4 ISZERO ISZERO MUL OR SWAP1 SSTORE POP JUMPDEST DUP1 DUP1 PUSH2 0xC50 SWAP1 PUSH2 0x234C JUMP JUMPDEST SWAP2 POP POP PUSH2 0xB44 JUMP JUMPDEST POP CALLER PUSH20 0xFFFFFFFFFFFFFFFFFFFFFFFFFFFFFFFFFFFFFFFF AND DUP2 PUSH20 0xFFFFFFFFFFFFFFFFFFFFFFFFFFFFFFFFFFFFFFFF AND PUSH32 0xFD7E144A5E02C1180E00F9591EF4F60AA95B127C4F134847224A4B6CB99FEF96 PUSH1 0x40 MLOAD PUSH1 0x40 MLOAD DUP1 SWAP2 SUB SWAP1 LOG3 PUSH2 0xCF7 JUMP JUMPDEST PUSH2 0xCF6 PUSH1 0x40 MLOAD DUP1 PUSH1 0x40 ADD PUSH1 0x40 MSTORE DUP1 PUSH1 0x18 DUP2 MSTORE PUSH1 0x20 ADD PUSH32 0x596F752063616E6E6F742064656C6574652041444D494E2E0000000000000000 DUP2 MSTORE POP PUSH2 0x1A6F JUMP JUMPDEST JUMPDEST POP JUMP JUMPDEST PUSH1 0x0 DUP1 PUSH1 0x0 SWAP1 POP JUMPDEST PUSH1 0x0 DUP1 PUSH32 0xDF8B4C520FFE197C5343C6F5AEC59570151EF9A492F2C624FD45DDDE6135EC42 DUP2 MSTORE PUSH1 0x20 ADD SWAP1 DUP2 MSTORE PUSH1 0x20 ADD PUSH1 0x0 KECCAK256 PUSH1 0x2 ADD SLOAD DUP2 LT ISZERO PUSH2 0xE42 JUMPI PUSH1 0x0 DUP1 PUSH32 0xDF8B4C520FFE197C5343C6F5AEC59570151EF9A492F2C624FD45DDDE6135EC42 DUP2 MSTORE PUSH1 0x20 ADD SWAP1 DUP2 MSTORE PUSH1 0x20 ADD PUSH1 0x0 KECCAK256 PUSH1 0x0 ADD PUSH1 0x0 DUP1 PUSH1 0x0 PUSH32 0xDF8B4C520FFE197C5343C6F5AEC59570151EF9A492F2C624FD45DDDE6135EC42 DUP2 MSTORE PUSH1 0x20 ADD SWAP1 DUP2 MSTORE PUSH1 0x20 ADD PUSH1 0x0 KECCAK256 PUSH1 0x1 ADD PUSH1 0x0 DUP5 DUP2 MSTORE PUSH1 0x20 ADD SWAP1 DUP2 MSTORE PUSH1 0x20 ADD PUSH1 0x0 KECCAK256 PUSH1 0x0 SWAP1 SLOAD SWAP1 PUSH2 0x100 EXP SWAP1 DIV PUSH20 0xFFFFFFFFFFFFFFFFFFFFFFFFFFFFFFFFFFFFFFFF AND PUSH20 0xFFFFFFFFFFFFFFFFFFFFFFFFFFFFFFFFFFFFFFFF AND PUSH20 0xFFFFFFFFFFFFFFFFFFFFFFFFFFFFFFFFFFFFFFFF AND DUP2 MSTORE PUSH1 0x20 ADD SWAP1 DUP2 MSTORE PUSH1 0x20 ADD PUSH1 0x0 KECCAK256 PUSH1 0x0 SWAP1 SLOAD SWAP1 PUSH2 0x100 EXP SWAP1 DIV PUSH1 0xFF AND ISZERO PUSH2 0xE2F JUMPI PUSH2 0xE42 JUMP JUMPDEST DUP1 DUP1 PUSH2 0xE3A SWAP1 PUSH2 0x234C JUMP JUMPDEST SWAP2 POP POP PUSH2 0xD02 JUMP JUMPDEST PUSH1 0x0 DUP1 PUSH32 0xDF8B4C520FFE197C5343C6F5AEC59570151EF9A492F2C624FD45DDDE6135EC42 DUP2 MSTORE PUSH1 0x20 ADD SWAP1 DUP2 MSTORE PUSH1 0x20 ADD PUSH1 0x0 KECCAK256 PUSH1 0x1 ADD PUSH1 0x0 DUP3 DUP2 MSTORE PUSH1 0x20 ADD SWAP1 DUP2 MSTORE PUSH1 0x20 ADD PUSH1 0x0 KECCAK256 PUSH1 0x0 SWAP1 SLOAD SWAP1 PUSH2 0x100 EXP SWAP1 DIV PUSH20 0xFFFFFFFFFFFFFFFFFFFFFFFFFFFFFFFFFFFFFFFF AND SWAP2 POP POP SWAP1 JUMP JUMPDEST PUSH1 0x0 DUP1 PUSH1 0x0 PUSH32 0xDF8B4C520FFE197C5343C6F5AEC59570151EF9A492F2C624FD45DDDE6135EC42 DUP2 MSTORE PUSH1 0x20 ADD SWAP1 DUP2 MSTORE PUSH1 0x20 ADD PUSH1 0x0 KECCAK256 PUSH1 0x0 ADD PUSH1 0x0 CALLER PUSH20 0xFFFFFFFFFFFFFFFFFFFFFFFFFFFFFFFFFFFFFFFF AND PUSH20 0xFFFFFFFFFFFFFFFFFFFFFFFFFFFFFFFFFFFFFFFF AND DUP2 MSTORE PUSH1 0x20 ADD SWAP1 DUP2 MSTORE PUSH1 0x20 ADD PUSH1 0x0 KECCAK256 PUSH1 0x0 PUSH2 0x100 EXP DUP2 SLOAD DUP2 PUSH1 0xFF MUL NOT AND SWAP1 DUP4 ISZERO ISZERO MUL OR SWAP1 SSTORE POP PUSH2 0xF64 PUSH32 0xDF8B4C520FFE197C5343C6F5AEC59570151EF9A492F2C624FD45DDDE6135EC42 DUP3 PUSH2 0x1ACB JUMP JUMPDEST PUSH1 0x1 PUSH1 0x0 DUP1 PUSH32 0xDF8B4C520FFE197C5343C6F5AEC59570151EF9A492F2C624FD45DDDE6135EC42 DUP2 MSTORE PUSH1 0x20 ADD SWAP1 DUP2 MSTORE PUSH1 0x20 ADD PUSH1 0x0 KECCAK256 PUSH1 0x0 ADD PUSH1 0x0 DUP4 PUSH20 0xFFFFFFFFFFFFFFFFFFFFFFFFFFFFFFFFFFFFFFFF AND PUSH20 0xFFFFFFFFFFFFFFFFFFFFFFFFFFFFFFFFFFFFFFFF AND DUP2 MSTORE PUSH1 0x20 ADD SWAP1 DUP2 MSTORE PUSH1 0x20 ADD PUSH1 0x0 KECCAK256 PUSH1 0x0 PUSH2 0x100 EXP DUP2 SLOAD DUP2 PUSH1 0xFF MUL NOT AND SWAP1 DUP4 ISZERO ISZERO MUL OR SWAP1 SSTORE POP CALLER PUSH20 0xFFFFFFFFFFFFFFFFFFFFFFFFFFFFFFFFFFFFFFFF AND DUP2 PUSH20 0xFFFFFFFFFFFFFFFFFFFFFFFFFFFFFFFFFFFFFFFF AND PUSH32 0x173DE3514D8508F36CE8C81D509ADCD8C8C76098400F685D3042B36F9A4160C3 PUSH1 0x40 MLOAD PUSH1 0x40 MLOAD DUP1 SWAP2 SUB SWAP1 LOG3 POP JUMP JUMPDEST PUSH1 0x60 DUP1 PUSH1 0x0 DUP1 JUMPDEST PUSH1 0x2 SLOAD DUP2 LT ISZERO PUSH2 0x112A JUMPI PUSH1 0x0 DUP1 PUSH1 0x1 PUSH1 0x0 DUP5 DUP2 MSTORE PUSH1 0x20 ADD SWAP1 DUP2 MSTORE PUSH1 0x20 ADD PUSH1 0x0 KECCAK256 SLOAD DUP2 MSTORE PUSH1 0x20 ADD SWAP1 DUP2 MSTORE PUSH1 0x20 ADD PUSH1 0x0 KECCAK256 PUSH1 0x0 ADD PUSH1 0x0 DUP7 PUSH20 0xFFFFFFFFFFFFFFFFFFFFFFFFFFFFFFFFFFFFFFFF AND PUSH20 0xFFFFFFFFFFFFFFFFFFFFFFFFFFFFFFFFFFFFFFFF AND DUP2 MSTORE PUSH1 0x20 ADD SWAP1 DUP2 MSTORE PUSH1 0x20 ADD PUSH1 0x0 KECCAK256 PUSH1 0x0 SWAP1 SLOAD SWAP1 PUSH2 0x100 EXP SWAP1 DIV PUSH1 0xFF AND ISZERO PUSH2 0x1117 JUMPI PUSH1 0x1 PUSH1 0x0 DUP3 DUP2 MSTORE PUSH1 0x20 ADD SWAP1 DUP2 MSTORE PUSH1 0x20 ADD PUSH1 0x0 KECCAK256 SLOAD DUP4 DUP4 DUP2 MLOAD DUP2 LT PUSH2 0x10FC JUMPI PUSH2 0x10FB PUSH2 0x23C4 JUMP JUMPDEST JUMPDEST PUSH1 0x20 MUL PUSH1 0x20 ADD ADD DUP2 DUP2 MSTORE POP POP DUP2 DUP1 PUSH2 0x1113 SWAP1 PUSH2 0x234C JUMP JUMPDEST SWAP3 POP POP JUMPDEST DUP1 DUP1 PUSH2 0x1122 SWAP1 PUSH2 0x234C JUMP JUMPDEST SWAP2 POP POP PUSH2 0x1053 JUMP JUMPDEST POP DUP2 SWAP3 POP POP POP SWAP2 SWAP1 POP JUMP JUMPDEST PUSH1 0x0 DUP3 DUP1 MLOAD SWAP1 PUSH1 0x20 ADD KECCAK256 SWAP1 POP PUSH1 0x0 DUP3 DUP1 MLOAD SWAP1 PUSH1 0x20 ADD KECCAK256 SWAP1 POP PUSH1 0x0 DUP1 DUP4 DUP2 MSTORE PUSH1 0x20 ADD SWAP1 DUP2 MSTORE PUSH1 0x20 ADD PUSH1 0x0 KECCAK256 PUSH1 0x3 ADD PUSH1 0x0 SWAP1 SLOAD SWAP1 PUSH2 0x100 EXP SWAP1 DIV PUSH1 0xFF AND PUSH2 0x13E6 JUMPI PUSH2 0x117D DUP3 PUSH2 0x1C33 JUMP JUMPDEST PUSH1 0x1 PUSH1 0x0 DUP1 DUP5 DUP2 MSTORE PUSH1 0x20 ADD SWAP1 DUP2 MSTORE PUSH1 0x20 ADD PUSH1 0x0 KECCAK256 PUSH1 0x3 ADD PUSH1 0x0 PUSH2 0x100 EXP DUP2 SLOAD DUP2 PUSH1 0xFF MUL NOT AND SWAP1 DUP4 ISZERO ISZERO MUL OR SWAP1 SSTORE POP PUSH1 0x0 JUMPDEST PUSH1 0x0 DUP1 DUP4 DUP2 MSTORE PUSH1 0x20 ADD SWAP1 DUP2 MSTORE PUSH1 0x20 ADD PUSH1 0x0 KECCAK256 PUSH1 0x2 ADD SLOAD DUP2 LT ISZERO PUSH2 0x1358 JUMPI PUSH1 0x0 DUP1 PUSH1 0x0 DUP5 DUP2 MSTORE PUSH1 0x20 ADD SWAP1 DUP2 MSTORE PUSH1 0x20 ADD PUSH1 0x0 KECCAK256 PUSH1 0x1 ADD PUSH1 0x0 DUP4 DUP2 MSTORE PUSH1 0x20 ADD SWAP1 DUP2 MSTORE PUSH1 0x20 ADD PUSH1 0x0 KECCAK256 PUSH1 0x0 SWAP1 SLOAD SWAP1 PUSH2 0x100 EXP SWAP1 DIV PUSH20 0xFFFFFFFFFFFFFFFFFFFFFFFFFFFFFFFFFFFFFFFF AND SWAP1 POP PUSH1 0x0 DUP1 DUP5 DUP2 MSTORE PUSH1 0x20 ADD SWAP1 DUP2 MSTORE PUSH1 0x20 ADD PUSH1 0x0 KECCAK256 PUSH1 0x0 ADD PUSH1 0x0 DUP3 PUSH20 0xFFFFFFFFFFFFFFFFFFFFFFFFFFFFFFFFFFFFFFFF AND PUSH20 0xFFFFFFFFFFFFFFFFFFFFFFFFFFFFFFFFFFFFFFFF AND DUP2 MSTORE PUSH1 0x20 ADD SWAP1 DUP2 MSTORE PUSH1 0x20 ADD PUSH1 0x0 KECCAK256 PUSH1 0x0 SWAP1 SLOAD SWAP1 PUSH2 0x100 EXP SWAP1 DIV PUSH1 0xFF AND PUSH1 0x0 DUP1 DUP7 DUP2 MSTORE PUSH1 0x20 ADD SWAP1 DUP2 MSTORE PUSH1 0x20 ADD PUSH1 0x0 KECCAK256 PUSH1 0x0 ADD PUSH1 0x0 DUP4 PUSH20 0xFFFFFFFFFFFFFFFFFFFFFFFFFFFFFFFFFFFFFFFF AND PUSH20 0xFFFFFFFFFFFFFFFFFFFFFFFFFFFFFFFFFFFFFFFF AND DUP2 MSTORE PUSH1 0x20 ADD SWAP1 DUP2 MSTORE PUSH1 0x20 ADD PUSH1 0x0 KECCAK256 PUSH1 0x0 PUSH2 0x100 EXP DUP2 SLOAD DUP2 PUSH1 0xFF MUL NOT AND SWAP1 DUP4 ISZERO ISZERO MUL OR SWAP1 SSTORE POP DUP1 PUSH1 0x0 DUP1 DUP7 DUP2 MSTORE PUSH1 0x20 ADD SWAP1 DUP2 MSTORE PUSH1 0x20 ADD PUSH1 0x0 KECCAK256 PUSH1 0x1 ADD PUSH1 0x0 DUP5 DUP2 MSTORE PUSH1 0x20 ADD SWAP1 DUP2 MSTORE PUSH1 0x20 ADD PUSH1 0x0 KECCAK256 PUSH1 0x0 PUSH2 0x100 EXP DUP2 SLOAD DUP2 PUSH20 0xFFFFFFFFFFFFFFFFFFFFFFFFFFFFFFFFFFFFFFFF MUL NOT AND SWAP1 DUP4 PUSH20 0xFFFFFFFFFFFFFFFFFFFFFFFFFFFFFFFFFFFFFFFF AND MUL OR SWAP1 SSTORE POP POP DUP1 DUP1 PUSH2 0x1350 SWAP1 PUSH2 0x234C JUMP JUMPDEST SWAP2 POP POP PUSH2 0x11AE JUMP JUMPDEST POP PUSH1 0x0 DUP1 DUP3 DUP2 MSTORE PUSH1 0x20 ADD SWAP1 DUP2 MSTORE PUSH1 0x20 ADD PUSH1 0x0 KECCAK256 PUSH1 0x2 ADD SLOAD PUSH1 0x0 DUP1 DUP5 DUP2 MSTORE PUSH1 0x20 ADD SWAP1 DUP2 MSTORE PUSH1 0x20 ADD PUSH1 0x0 KECCAK256 PUSH1 0x2 ADD DUP2 SWAP1 SSTORE POP CALLER PUSH20 0xFFFFFFFFFFFFFFFFFFFFFFFFFFFFFFFFFFFFFFFF AND DUP5 PUSH1 0x40 MLOAD PUSH2 0x13AD SWAP2 SWAP1 PUSH2 0x208D JUMP JUMPDEST PUSH1 0x40 MLOAD DUP1 SWAP2 SUB SWAP1 KECCAK256 PUSH32 0x629A748BA580FE181C6AE2D3673C4BDFEA9E1F2D334F36BEEC502AFF5DBAEFF2 PUSH1 0x40 MLOAD PUSH1 0x40 MLOAD DUP1 SWAP2 SUB SWAP1 LOG3 PUSH2 0x1425 JUMP JUMPDEST PUSH2 0x1424 PUSH1 0x40 MLOAD DUP1 PUSH1 0x40 ADD PUSH1 0x40 MSTORE DUP1 PUSH1 0x20 DUP2 MSTORE PUSH1 0x20 ADD PUSH32 0x546865207065726D697373696F6E2068617320616C726561792065786973742E DUP2 MSTORE POP PUSH2 0x1A6F JUMP JUMPDEST JUMPDEST POP POP POP POP JUMP JUMPDEST PUSH1 0x0 DUP2 DUP1 MLOAD SWAP1 PUSH1 0x20 ADD KECCAK256 SWAP1 POP PUSH1 0x0 DUP1 DUP3 DUP2 MSTORE PUSH1 0x20 ADD SWAP1 DUP2 MSTORE PUSH1 0x20 ADD PUSH1 0x0 KECCAK256 PUSH1 0x3 ADD PUSH1 0x0 SWAP1 SLOAD SWAP1 PUSH2 0x100 EXP SWAP1 DIV PUSH1 0xFF AND PUSH2 0x1750 JUMPI PUSH2 0x1467 DUP2 PUSH2 0x1C33 JUMP JUMPDEST PUSH1 0x1 PUSH1 0x0 DUP1 DUP4 DUP2 MSTORE PUSH1 0x20 ADD SWAP1 DUP2 MSTORE PUSH1 0x20 ADD PUSH1 0x0 KECCAK256 PUSH1 0x3 ADD PUSH1 0x0 PUSH2 0x100 EXP DUP2 SLOAD DUP2 PUSH1 0xFF MUL NOT AND SWAP1 DUP4 ISZERO ISZERO MUL OR SWAP1 SSTORE POP PUSH1 0x0 JUMPDEST PUSH1 0x0 DUP1 PUSH32 0xDF8B4C520FFE197C5343C6F5AEC59570151EF9A492F2C624FD45DDDE6135EC42 DUP2 MSTORE PUSH1 0x20 ADD SWAP1 DUP2 MSTORE PUSH1 0x20 ADD PUSH1 0x0 KECCAK256 PUSH1 0x2 ADD SLOAD DUP2 LT ISZERO PUSH2 0x16A2 JUMPI PUSH1 0x0 DUP1 PUSH1 0x0 PUSH32 0xDF8B4C520FFE197C5343C6F5AEC59570151EF9A492F2C624FD45DDDE6135EC42 DUP2 MSTORE PUSH1 0x20 ADD SWAP1 DUP2 MSTORE PUSH1 0x20 ADD PUSH1 0x0 KECCAK256 PUSH1 0x1 ADD PUSH1 0x0 DUP4 DUP2 MSTORE PUSH1 0x20 ADD SWAP1 DUP2 MSTORE PUSH1 0x20 ADD PUSH1 0x0 KECCAK256 PUSH1 0x0 SWAP1 SLOAD SWAP1 PUSH2 0x100 EXP SWAP1 DIV PUSH20 0xFFFFFFFFFFFFFFFFFFFFFFFFFFFFFFFFFFFFFFFF AND SWAP1 POP PUSH1 0x0 DUP1 PUSH32 0xDF8B4C520FFE197C5343C6F5AEC59570151EF9A492F2C624FD45DDDE6135EC42 DUP2 MSTORE PUSH1 0x20 ADD SWAP1 DUP2 MSTORE PUSH1 0x20 ADD PUSH1 0x0 KECCAK256 PUSH1 0x0 ADD PUSH1 0x0 DUP3 PUSH20 0xFFFFFFFFFFFFFFFFFFFFFFFFFFFFFFFFFFFFFFFF AND PUSH20 0xFFFFFFFFFFFFFFFFFFFFFFFFFFFFFFFFFFFFFFFF AND DUP2 MSTORE PUSH1 0x20 ADD SWAP1 DUP2 MSTORE PUSH1 0x20 ADD PUSH1 0x0 KECCAK256 PUSH1 0x0 SWAP1 SLOAD SWAP1 PUSH2 0x100 EXP SWAP1 DIV PUSH1 0xFF AND PUSH1 0x0 DUP1 DUP6 DUP2 MSTORE PUSH1 0x20 ADD SWAP1 DUP2 MSTORE PUSH1 0x20 ADD PUSH1 0x0 KECCAK256 PUSH1 0x0 ADD PUSH1 0x0 DUP4 PUSH20 0xFFFFFFFFFFFFFFFFFFFFFFFFFFFFFFFFFFFFFFFF AND PUSH20 0xFFFFFFFFFFFFFFFFFFFFFFFFFFFFFFFFFFFFFFFF AND DUP2 MSTORE PUSH1 0x20 ADD SWAP1 DUP2 MSTORE PUSH1 0x20 ADD PUSH1 0x0 KECCAK256 PUSH1 0x0 PUSH2 0x100 EXP DUP2 SLOAD DUP2 PUSH1 0xFF MUL NOT AND SWAP1 DUP4 ISZERO ISZERO MUL OR SWAP1 SSTORE POP DUP1 PUSH1 0x0 DUP1 DUP6 DUP2 MSTORE PUSH1 0x20 ADD SWAP1 DUP2 MSTORE PUSH1 0x20 ADD PUSH1 0x0 KECCAK256 PUSH1 0x1 ADD PUSH1 0x0 DUP5 DUP2 MSTORE PUSH1 0x20 ADD SWAP1 DUP2 MSTORE PUSH1 0x20 ADD PUSH1 0x0 KECCAK256 PUSH1 0x0 PUSH2 0x100 EXP DUP2 SLOAD DUP2 PUSH20 0xFFFFFFFFFFFFFFFFFFFFFFFFFFFFFFFFFFFFFFFF MUL NOT AND SWAP1 DUP4 PUSH20 0xFFFFFFFFFFFFFFFFFFFFFFFFFFFFFFFFFFFFFFFF AND MUL OR SWAP1 SSTORE POP POP DUP1 DUP1 PUSH2 0x169A SWAP1 PUSH2 0x234C JUMP JUMPDEST SWAP2 POP POP PUSH2 0x1498 JUMP JUMPDEST POP PUSH1 0x0 DUP1 PUSH32 0xDF8B4C520FFE197C5343C6F5AEC59570151EF9A492F2C624FD45DDDE6135EC42 DUP2 MSTORE PUSH1 0x20 ADD SWAP1 DUP2 MSTORE PUSH1 0x20 ADD PUSH1 0x0 KECCAK256 PUSH1 0x2 ADD SLOAD PUSH1 0x0 DUP1 DUP4 DUP2 MSTORE PUSH1 0x20 ADD SWAP1 DUP2 MSTORE PUSH1 0x20 ADD PUSH1 0x0 KECCAK256 PUSH1 0x2 ADD DUP2 SWAP1 SSTORE POP CALLER PUSH20 0xFFFFFFFFFFFFFFFFFFFFFFFFFFFFFFFFFFFFFFFF AND DUP3 PUSH1 0x40 MLOAD PUSH2 0x1717 SWAP2 SWAP1 PUSH2 0x208D JUMP JUMPDEST PUSH1 0x40 MLOAD DUP1 SWAP2 SUB SWAP1 KECCAK256 PUSH32 0x629A748BA580FE181C6AE2D3673C4BDFEA9E1F2D334F36BEEC502AFF5DBAEFF2 PUSH1 0x40 MLOAD PUSH1 0x40 MLOAD DUP1 SWAP2 SUB SWAP1 LOG3 PUSH2 0x178F JUMP JUMPDEST PUSH2 0x178E PUSH1 0x40 MLOAD DUP1 PUSH1 0x40 ADD PUSH1 0x40 MSTORE DUP1 PUSH1 0x20 DUP2 MSTORE PUSH1 0x20 ADD PUSH32 0x546865207065726D697373696F6E2068617320616C726561792065786973742E DUP2 MSTORE POP PUSH2 0x1A6F JUMP JUMPDEST JUMPDEST POP POP JUMP JUMPDEST PUSH1 0x0 DUP3 DUP1 MLOAD SWAP1 PUSH1 0x20 ADD KECCAK256 SWAP1 POP PUSH1 0x0 DUP1 DUP3 DUP2 MSTORE PUSH1 0x20 ADD SWAP1 DUP2 MSTORE PUSH1 0x20 ADD PUSH1 0x0 KECCAK256 PUSH1 0x3 ADD PUSH1 0x0 SWAP1 SLOAD SWAP1 PUSH2 0x100 EXP SWAP1 DIV PUSH1 0xFF AND DUP1 ISZERO PUSH2 0x17EE JUMPI POP PUSH32 0xDF8B4C520FFE197C5343C6F5AEC59570151EF9A492F2C624FD45DDDE6135EC42 DUP2 EQ ISZERO JUMPDEST ISZERO PUSH2 0x18DD JUMPI PUSH2 0x17FD DUP2 DUP4 PUSH2 0x1ACB JUMP JUMPDEST PUSH1 0x1 PUSH1 0x0 DUP1 DUP4 DUP2 MSTORE PUSH1 0x20 ADD SWAP1 DUP2 MSTORE PUSH1 0x20 ADD PUSH1 0x0 KECCAK256 PUSH1 0x0 ADD PUSH1 0x0 DUP5 PUSH20 0xFFFFFFFFFFFFFFFFFFFFFFFFFFFFFFFFFFFFFFFF AND PUSH20 0xFFFFFFFFFFFFFFFFFFFFFFFFFFFFFFFFFFFFFFFF AND DUP2 MSTORE PUSH1 0x20 ADD SWAP1 DUP2 MSTORE PUSH1 0x20 ADD PUSH1 0x0 KECCAK256 PUSH1 0x0 PUSH2 0x100 EXP DUP2 SLOAD DUP2 PUSH1 0xFF MUL NOT AND SWAP1 DUP4 ISZERO ISZERO MUL OR SWAP1 SSTORE POP CALLER PUSH20 0xFFFFFFFFFFFFFFFFFFFFFFFFFFFFFFFFFFFFFFFF AND DUP3 PUSH20 0xFFFFFFFFFFFFFFFFFFFFFFFFFFFFFFFFFFFFFFFF AND DUP5 PUSH1 0x40 MLOAD PUSH2 0x18A4 SWAP2 SWAP1 PUSH2 0x208D JUMP JUMPDEST PUSH1 0x40 MLOAD DUP1 SWAP2 SUB SWAP1 KECCAK256 PUSH32 0x1BBDB8CA05419DFFB11AFA5105F78331A46E3D8A8B900EFB115BBB4175A9C2D3 PUSH1 0x40 MLOAD PUSH1 0x40 MLOAD DUP1 SWAP2 SUB SWAP1 LOG4 PUSH2 0x191C JUMP JUMPDEST PUSH2 0x191B PUSH1 0x40 MLOAD DUP1 PUSH1 0x40 ADD PUSH1 0x40 MSTORE DUP1 PUSH1 0x1C DUP2 MSTORE PUSH1 0x20 ADD PUSH32 0x546865207065726D697373696F6E206973206E6F742076616C69642E00000000 DUP2 MSTORE POP PUSH2 0x1A6F JUMP JUMPDEST JUMPDEST POP POP POP JUMP JUMPDEST PUSH1 0x0 DUP3 DUP1 MLOAD SWAP1 PUSH1 0x20 ADD KECCAK256 SWAP1 POP PUSH2 0x1937 DUP2 DUP4 PUSH2 0x75A JUMP JUMPDEST DUP1 ISZERO PUSH2 0x1963 JUMPI POP PUSH32 0xDF8B4C520FFE197C5343C6F5AEC59570151EF9A492F2C624FD45DDDE6135EC42 DUP2 EQ ISZERO JUMPDEST ISZERO PUSH2 0x1A48 JUMPI PUSH1 0x0 DUP1 PUSH1 0x0 DUP4 DUP2 MSTORE PUSH1 0x20 ADD SWAP1 DUP2 MSTORE PUSH1 0x20 ADD PUSH1 0x0 KECCAK256 PUSH1 0x0 ADD PUSH1 0x0 DUP5 PUSH20 0xFFFFFFFFFFFFFFFFFFFFFFFFFFFFFFFFFFFFFFFF AND PUSH20 0xFFFFFFFFFFFFFFFFFFFFFFFFFFFFFFFFFFFFFFFF AND DUP2 MSTORE PUSH1 0x20 ADD SWAP1 DUP2 MSTORE PUSH1 0x20 ADD PUSH1 0x0 KECCAK256 PUSH1 0x0 PUSH2 0x100 EXP DUP2 SLOAD DUP2 PUSH1 0xFF MUL NOT AND SWAP1 DUP4 ISZERO ISZERO MUL OR SWAP1 SSTORE POP CALLER PUSH20 0xFFFFFFFFFFFFFFFFFFFFFFFFFFFFFFFFFFFFFFFF AND DUP3 PUSH20 0xFFFFFFFFFFFFFFFFFFFFFFFFFFFFFFFFFFFFFFFF AND DUP5 PUSH1 0x40 MLOAD PUSH2 0x1A0F SWAP2 SWAP1 PUSH2 0x208D JUMP JUMPDEST PUSH1 0x40 MLOAD DUP1 SWAP2 SUB SWAP1 KECCAK256 PUSH32 0x5658F0A44F1B55364EF0376F818EA716AEE06D4E966974EDBA8AE1B8FA1E379C PUSH1 0x40 MLOAD PUSH1 0x40 MLOAD DUP1 SWAP2 SUB SWAP1 LOG4 PUSH2 0x1A6A JUMP JUMPDEST PUSH2 0x1A69 PUSH1 0x40 MLOAD DUP1 PUSH1 0x80 ADD PUSH1 0x40 MSTORE DUP1 PUSH1 0x44 DUP2 MSTORE PUSH1 0x20 ADD PUSH2 0x24D7 PUSH1 0x44 SWAP2 CODECOPY PUSH2 0x1A6F JUMP JUMPDEST JUMPDEST POP POP POP JUMP JUMPDEST DUP1 PUSH1 0x40 MLOAD PUSH1 0x20 ADD PUSH2 0x1A80 SWAP2 SWAP1 PUSH2 0x20A4 JUMP JUMPDEST PUSH1 0x40 MLOAD PUSH1 0x20 DUP2 DUP4 SUB SUB DUP2 MSTORE SWAP1 PUSH1 0x40 MSTORE PUSH1 0x40 MLOAD PUSH32 0x8C379A000000000000000000000000000000000000000000000000000000000 DUP2 MSTORE PUSH1 0x4 ADD PUSH2 0x1AC2 SWAP2 SWAP1 PUSH2 0x2140 JUMP JUMPDEST PUSH1 0x40 MLOAD DUP1 SWAP2 SUB SWAP1 REVERT JUMPDEST PUSH1 0x0 DUP1 JUMPDEST PUSH1 0x0 DUP1 DUP6 DUP2 MSTORE PUSH1 0x20 ADD SWAP1 DUP2 MSTORE PUSH1 0x20 ADD PUSH1 0x0 KECCAK256 PUSH1 0x2 ADD SLOAD DUP2 LT ISZERO PUSH2 0x1B82 JUMPI DUP3 PUSH20 0xFFFFFFFFFFFFFFFFFFFFFFFFFFFFFFFFFFFFFFFF AND PUSH1 0x0 DUP1 DUP7 DUP2 MSTORE PUSH1 0x20 ADD SWAP1 DUP2 MSTORE PUSH1 0x20 ADD PUSH1 0x0 KECCAK256 PUSH1 0x1 ADD PUSH1 0x0 DUP4 DUP2 MSTORE PUSH1 0x20 ADD SWAP1 DUP2 MSTORE PUSH1 0x20 ADD PUSH1 0x0 KECCAK256 PUSH1 0x0 SWAP1 SLOAD SWAP1 PUSH2 0x100 EXP SWAP1 DIV PUSH20 0xFFFFFFFFFFFFFFFFFFFFFFFFFFFFFFFFFFFFFFFF AND PUSH20 0xFFFFFFFFFFFFFFFFFFFFFFFFFFFFFFFFFFFFFFFF AND EQ ISZERO PUSH2 0x1B6F JUMPI PUSH1 0x1 SWAP2 POP PUSH2 0x1B82 JUMP JUMPDEST DUP1 DUP1 PUSH2 0x1B7A SWAP1 PUSH2 0x234C JUMP JUMPDEST SWAP2 POP POP PUSH2 0x1ACF JUMP JUMPDEST POP DUP1 PUSH2 0x1C2E JUMPI DUP2 PUSH1 0x0 DUP1 DUP6 DUP2 MSTORE PUSH1 0x20 ADD SWAP1 DUP2 MSTORE PUSH1 0x20 ADD PUSH1 0x0 KECCAK256 PUSH1 0x1 ADD PUSH1 0x0 DUP1 PUSH1 0x0 DUP8 DUP2 MSTORE PUSH1 0x20 ADD SWAP1 DUP2 MSTORE PUSH1 0x20 ADD PUSH1 0x0 KECCAK256 PUSH1 0x2 ADD SLOAD DUP2 MSTORE PUSH1 0x20 ADD SWAP1 DUP2 MSTORE PUSH1 0x20 ADD PUSH1 0x0 KECCAK256 PUSH1 0x0 PUSH2 0x100 EXP DUP2 SLOAD DUP2 PUSH20 0xFFFFFFFFFFFFFFFFFFFFFFFFFFFFFFFFFFFFFFFF MUL NOT AND SWAP1 DUP4 PUSH20 0xFFFFFFFFFFFFFFFFFFFFFFFFFFFFFFFFFFFFFFFF AND MUL OR SWAP1 SSTORE POP PUSH1 0x0 DUP1 DUP5 DUP2 MSTORE PUSH1 0x20 ADD SWAP1 DUP2 MSTORE PUSH1 0x20 ADD PUSH1 0x0 KECCAK256 PUSH1 0x2 ADD PUSH1 0x0 DUP2 SLOAD DUP1 SWAP3 SWAP2 SWAP1 PUSH2 0x1C28 SWAP1 PUSH2 0x234C JUMP JUMPDEST SWAP2 SWAP1 POP SSTORE POP JUMPDEST POP POP POP JUMP JUMPDEST PUSH1 0x0 DUP1 JUMPDEST PUSH1 0x2 SLOAD DUP2 LT ISZERO PUSH2 0x1C78 JUMPI DUP3 PUSH1 0x1 PUSH1 0x0 DUP4 DUP2 MSTORE PUSH1 0x20 ADD SWAP1 DUP2 MSTORE PUSH1 0x20 ADD PUSH1 0x0 KECCAK256 SLOAD EQ ISZERO PUSH2 0x1C65 JUMPI PUSH1 0x1 SWAP2 POP PUSH2 0x1C78 JUMP JUMPDEST DUP1 DUP1 PUSH2 0x1C70 SWAP1 PUSH2 0x234C JUMP JUMPDEST SWAP2 POP POP PUSH2 0x1C37 JUMP JUMPDEST POP DUP1 PUSH2 0x1CB1 JUMPI DUP2 PUSH1 0x1 PUSH1 0x0 PUSH1 0x2 SLOAD DUP2 MSTORE PUSH1 0x20 ADD SWAP1 DUP2 MSTORE PUSH1 0x20 ADD PUSH1 0x0 KECCAK256 DUP2 SWAP1 SSTORE POP PUSH1 0x2 PUSH1 0x0 DUP2 SLOAD DUP1 SWAP3 SWAP2 SWAP1 PUSH2 0x1CAB SWAP1 PUSH2 0x234C JUMP JUMPDEST SWAP2 SWAP1 POP SSTORE POP JUMPDEST POP POP JUMP JUMPDEST PUSH1 0x0 PUSH2 0x1CC8 PUSH2 0x1CC3 DUP5 PUSH2 0x21A7 JUMP JUMPDEST PUSH2 0x2182 JUMP JUMPDEST SWAP1 POP DUP3 DUP2 MSTORE PUSH1 0x20 DUP2 ADD DUP5 DUP5 DUP5 ADD GT ISZERO PUSH2 0x1CE4 JUMPI PUSH2 0x1CE3 PUSH2 0x2427 JUMP JUMPDEST JUMPDEST PUSH2 0x1CEF DUP5 DUP3 DUP6 PUSH2 0x22D9 JUMP JUMPDEST POP SWAP4 SWAP3 POP POP POP JUMP JUMPDEST PUSH1 0x0 DUP2 CALLDATALOAD SWAP1 POP PUSH2 0x1D06 DUP2 PUSH2 0x24BF JUMP JUMPDEST SWAP3 SWAP2 POP POP JUMP JUMPDEST PUSH1 0x0 DUP3 PUSH1 0x1F DUP4 ADD SLT PUSH2 0x1D21 JUMPI PUSH2 0x1D20 PUSH2 0x2422 JUMP JUMPDEST JUMPDEST DUP2 CALLDATALOAD PUSH2 0x1D31 DUP5 DUP3 PUSH1 0x20 DUP7 ADD PUSH2 0x1CB5 JUMP JUMPDEST SWAP2 POP POP SWAP3 SWAP2 POP POP JUMP JUMPDEST PUSH1 0x0 PUSH1 0x20 DUP3 DUP5 SUB SLT ISZERO PUSH2 0x1D50 JUMPI PUSH2 0x1D4F PUSH2 0x2431 JUMP JUMPDEST JUMPDEST PUSH1 0x0 PUSH2 0x1D5E DUP5 DUP3 DUP6 ADD PUSH2 0x1CF7 JUMP JUMPDEST SWAP2 POP POP SWAP3 SWAP2 POP POP JUMP JUMPDEST PUSH1 0x0 PUSH1 0x20 DUP3 DUP5 SUB SLT ISZERO PUSH2 0x1D7D JUMPI PUSH2 0x1D7C PUSH2 0x2431 JUMP JUMPDEST JUMPDEST PUSH1 0x0 DUP3 ADD CALLDATALOAD PUSH8 0xFFFFFFFFFFFFFFFF DUP2 GT ISZERO PUSH2 0x1D9B JUMPI PUSH2 0x1D9A PUSH2 0x242C JUMP JUMPDEST JUMPDEST PUSH2 0x1DA7 DUP5 DUP3 DUP6 ADD PUSH2 0x1D0C JUMP JUMPDEST SWAP2 POP POP SWAP3 SWAP2 POP POP JUMP JUMPDEST PUSH1 0x0 DUP1 PUSH1 0x40 DUP4 DUP6 SUB SLT ISZERO PUSH2 0x1DC7 JUMPI PUSH2 0x1DC6 PUSH2 0x2431 JUMP JUMPDEST JUMPDEST PUSH1 0x0 DUP4 ADD CALLDATALOAD PUSH8 0xFFFFFFFFFFFFFFFF DUP2 GT ISZERO PUSH2 0x1DE5 JUMPI PUSH2 0x1DE4 PUSH2 0x242C JUMP JUMPDEST JUMPDEST PUSH2 0x1DF1 DUP6 DUP3 DUP7 ADD PUSH2 0x1D0C JUMP JUMPDEST SWAP3 POP POP PUSH1 0x20 PUSH2 0x1E02 DUP6 DUP3 DUP7 ADD PUSH2 0x1CF7 JUMP JUMPDEST SWAP2 POP POP SWAP3 POP SWAP3 SWAP1 POP JUMP JUMPDEST PUSH1 0x0 DUP1 PUSH1 0x40 DUP4 DUP6 SUB SLT ISZERO PUSH2 0x1E23 JUMPI PUSH2 0x1E22 PUSH2 0x2431 JUMP JUMPDEST JUMPDEST PUSH1 0x0 DUP4 ADD CALLDATALOAD PUSH8 0xFFFFFFFFFFFFFFFF DUP2 GT ISZERO PUSH2 0x1E41 JUMPI PUSH2 0x1E40 PUSH2 0x242C JUMP JUMPDEST JUMPDEST PUSH2 0x1E4D DUP6 DUP3 DUP7 ADD PUSH2 0x1D0C JUMP JUMPDEST SWAP3 POP POP PUSH1 0x20 DUP4 ADD CALLDATALOAD PUSH8 0xFFFFFFFFFFFFFFFF DUP2 GT ISZERO PUSH2 0x1E6E JUMPI PUSH2 0x1E6D PUSH2 0x242C JUMP JUMPDEST JUMPDEST PUSH2 0x1E7A DUP6 DUP3 DUP7 ADD PUSH2 0x1D0C JUMP JUMPDEST SWAP2 POP POP SWAP3 POP SWAP3 SWAP1 POP JUMP JUMPDEST PUSH1 0x0 PUSH2 0x1E90 DUP4 DUP4 PUSH2 0x1EB4 JUMP JUMPDEST PUSH1 0x20 DUP4 ADD SWAP1 POP SWAP3 SWAP2 POP POP JUMP JUMPDEST PUSH1 0x0 PUSH2 0x1EA8 DUP4 DUP4 PUSH2 0x1F9D JUMP JUMPDEST PUSH1 0x20 DUP4 ADD SWAP1 POP SWAP3 SWAP2 POP POP JUMP JUMPDEST PUSH2 0x1EBD DUP2 PUSH2 0x2287 JUMP JUMPDEST DUP3 MSTORE POP POP JUMP JUMPDEST PUSH2 0x1ECC DUP2 PUSH2 0x2287 JUMP JUMPDEST DUP3 MSTORE POP POP JUMP JUMPDEST PUSH1 0x0 PUSH2 0x1EDD DUP3 PUSH2 0x21F8 JUMP JUMPDEST PUSH2 0x1EE7 DUP2 DUP6 PUSH2 0x223E JUMP JUMPDEST SWAP4 POP PUSH2 0x1EF2 DUP4 PUSH2 0x21D8 JUMP JUMPDEST DUP1 PUSH1 0x0 JUMPDEST DUP4 DUP2 LT ISZERO PUSH2 0x1F23 JUMPI DUP2 MLOAD PUSH2 0x1F0A DUP9 DUP3 PUSH2 0x1E84 JUMP JUMPDEST SWAP8 POP PUSH2 0x1F15 DUP4 PUSH2 0x2224 JUMP JUMPDEST SWAP3 POP POP PUSH1 0x1 DUP2 ADD SWAP1 POP PUSH2 0x1EF6 JUMP JUMPDEST POP DUP6 SWAP4 POP POP POP POP SWAP3 SWAP2 POP POP JUMP JUMPDEST PUSH1 0x0 PUSH2 0x1F3B DUP3 PUSH2 0x2203 JUMP JUMPDEST PUSH2 0x1F45 DUP2 DUP6 PUSH2 0x224F JUMP JUMPDEST SWAP4 POP PUSH2 0x1F50 DUP4 PUSH2 0x21E8 JUMP JUMPDEST DUP1 PUSH1 0x0 JUMPDEST DUP4 DUP2 LT ISZERO PUSH2 0x1F81 JUMPI DUP2 MLOAD PUSH2 0x1F68 DUP9 DUP3 PUSH2 0x1E9C JUMP JUMPDEST SWAP8 POP PUSH2 0x1F73 DUP4 PUSH2 0x2231 JUMP JUMPDEST SWAP3 POP POP PUSH1 0x1 DUP2 ADD SWAP1 POP PUSH2 0x1F54 JUMP JUMPDEST POP DUP6 SWAP4 POP POP POP POP SWAP3 SWAP2 POP POP JUMP JUMPDEST PUSH2 0x1F97 DUP2 PUSH2 0x2299 JUMP JUMPDEST DUP3 MSTORE POP POP JUMP JUMPDEST PUSH2 0x1FA6 DUP2 PUSH2 0x22A5 JUMP JUMPDEST DUP3 MSTORE POP POP JUMP JUMPDEST PUSH1 0x0 PUSH2 0x1FB7 DUP3 PUSH2 0x220E JUMP JUMPDEST PUSH2 0x1FC1 DUP2 DUP6 PUSH2 0x2260 JUMP JUMPDEST SWAP4 POP PUSH2 0x1FD1 DUP2 DUP6 PUSH1 0x20 DUP7 ADD PUSH2 0x22E8 JUMP JUMPDEST DUP1 DUP5 ADD SWAP2 POP POP SWAP3 SWAP2 POP POP JUMP JUMPDEST PUSH1 0x0 PUSH2 0x1FE8 DUP3 PUSH2 0x2219 JUMP JUMPDEST PUSH2 0x1FF2 DUP2 DUP6 PUSH2 0x226B JUMP JUMPDEST SWAP4 POP PUSH2 0x2002 DUP2 DUP6 PUSH1 0x20 DUP7 ADD PUSH2 0x22E8 JUMP JUMPDEST PUSH2 0x200B DUP2 PUSH2 0x2436 JUMP JUMPDEST DUP5 ADD SWAP2 POP POP SWAP3 SWAP2 POP POP JUMP JUMPDEST PUSH1 0x0 PUSH2 0x2021 DUP3 PUSH2 0x2219 JUMP JUMPDEST PUSH2 0x202B DUP2 DUP6 PUSH2 0x227C JUMP JUMPDEST SWAP4 POP PUSH2 0x203B DUP2 DUP6 PUSH1 0x20 DUP7 ADD PUSH2 0x22E8 JUMP JUMPDEST DUP1 DUP5 ADD SWAP2 POP POP SWAP3 SWAP2 POP POP JUMP JUMPDEST PUSH1 0x0 PUSH2 0x2054 PUSH1 0xF DUP4 PUSH2 0x227C JUMP JUMPDEST SWAP2 POP PUSH2 0x205F DUP3 PUSH2 0x2447 JUMP JUMPDEST PUSH1 0xF DUP3 ADD SWAP1 POP SWAP2 SWAP1 POP JUMP JUMPDEST PUSH1 0x0 PUSH2 0x2077 PUSH1 0x3E DUP4 PUSH2 0x226B JUMP JUMPDEST SWAP2 POP PUSH2 0x2082 DUP3 PUSH2 0x2470 JUMP JUMPDEST PUSH1 0x40 DUP3 ADD SWAP1 POP SWAP2 SWAP1 POP JUMP JUMPDEST PUSH1 0x0 PUSH2 0x2099 DUP3 DUP5 PUSH2 0x1FAC JUMP JUMPDEST SWAP2 POP DUP2 SWAP1 POP SWAP3 SWAP2 POP POP JUMP JUMPDEST PUSH1 0x0 PUSH2 0x20AF DUP3 PUSH2 0x2047 JUMP JUMPDEST SWAP2 POP PUSH2 0x20BB DUP3 DUP5 PUSH2 0x2016 JUMP JUMPDEST SWAP2 POP DUP2 SWAP1 POP SWAP3 SWAP2 POP POP JUMP JUMPDEST PUSH1 0x0 PUSH1 0x20 DUP3 ADD SWAP1 POP PUSH2 0x20DB PUSH1 0x0 DUP4 ADD DUP5 PUSH2 0x1EC3 JUMP JUMPDEST SWAP3 SWAP2 POP POP JUMP JUMPDEST PUSH1 0x0 PUSH1 0x20 DUP3 ADD SWAP1 POP DUP2 DUP2 SUB PUSH1 0x0 DUP4 ADD MSTORE PUSH2 0x20FB DUP2 DUP5 PUSH2 0x1ED2 JUMP JUMPDEST SWAP1 POP SWAP3 SWAP2 POP POP JUMP JUMPDEST PUSH1 0x0 PUSH1 0x20 DUP3 ADD SWAP1 POP DUP2 DUP2 SUB PUSH1 0x0 DUP4 ADD MSTORE PUSH2 0x211D DUP2 DUP5 PUSH2 0x1F30 JUMP JUMPDEST SWAP1 POP SWAP3 SWAP2 POP POP JUMP JUMPDEST PUSH1 0x0 PUSH1 0x20 DUP3 ADD SWAP1 POP PUSH2 0x213A PUSH1 0x0 DUP4 ADD DUP5 PUSH2 0x1F8E JUMP JUMPDEST SWAP3 SWAP2 POP POP JUMP JUMPDEST PUSH1 0x0 PUSH1 0x20 DUP3 ADD SWAP1 POP DUP2 DUP2 SUB PUSH1 0x0 DUP4 ADD MSTORE PUSH2 0x215A DUP2 DUP5 PUSH2 0x1FDD JUMP JUMPDEST SWAP1 POP SWAP3 SWAP2 POP POP JUMP JUMPDEST PUSH1 0x0 PUSH1 0x20 DUP3 ADD SWAP1 POP DUP2 DUP2 SUB PUSH1 0x0 DUP4 ADD MSTORE PUSH2 0x217B DUP2 PUSH2 0x206A JUMP JUMPDEST SWAP1 POP SWAP2 SWAP1 POP JUMP JUMPDEST PUSH1 0x0 PUSH2 0x218C PUSH2 0x219D JUMP JUMPDEST SWAP1 POP PUSH2 0x2198 DUP3 DUP3 PUSH2 0x231B JUMP JUMPDEST SWAP2 SWAP1 POP JUMP JUMPDEST PUSH1 0x0 PUSH1 0x40 MLOAD SWAP1 POP SWAP1 JUMP JUMPDEST PUSH1 0x0 PUSH8 0xFFFFFFFFFFFFFFFF DUP3 GT ISZERO PUSH2 0x21C2 JUMPI PUSH2 0x21C1 PUSH2 0x23F3 JUMP JUMPDEST JUMPDEST PUSH2 0x21CB DUP3 PUSH2 0x2436 JUMP JUMPDEST SWAP1 POP PUSH1 0x20 DUP2 ADD SWAP1 POP SWAP2 SWAP1 POP JUMP JUMPDEST PUSH1 0x0 DUP2 SWAP1 POP PUSH1 0x20 DUP3 ADD SWAP1 POP SWAP2 SWAP1 POP JUMP JUMPDEST PUSH1 0x0 DUP2 SWAP1 POP PUSH1 0x20 DUP3 ADD SWAP1 POP SWAP2 SWAP1 POP JUMP JUMPDEST PUSH1 0x0 DUP2 MLOAD SWAP1 POP SWAP2 SWAP1 POP JUMP JUMPDEST PUSH1 0x0 DUP2 MLOAD SWAP1 POP SWAP2 SWAP1 POP JUMP JUMPDEST PUSH1 0x0 DUP2 MLOAD SWAP1 POP SWAP2 SWAP1 POP JUMP JUMPDEST PUSH1 0x0 DUP2 MLOAD SWAP1 POP SWAP2 SWAP1 POP JUMP JUMPDEST PUSH1 0x0 PUSH1 0x20 DUP3 ADD SWAP1 POP SWAP2 SWAP1 POP JUMP JUMPDEST PUSH1 0x0 PUSH1 0x20 DUP3 ADD SWAP1 POP SWAP2 SWAP1 POP JUMP JUMPDEST PUSH1 0x0 DUP3 DUP3 MSTORE PUSH1 0x20 DUP3 ADD SWAP1 POP SWAP3 SWAP2 POP POP JUMP JUMPDEST PUSH1 0x0 DUP3 DUP3 MSTORE PUSH1 0x20 DUP3 ADD SWAP1 POP SWAP3 SWAP2 POP POP JUMP JUMPDEST PUSH1 0x0 DUP2 SWAP1 POP SWAP3 SWAP2 POP POP JUMP JUMPDEST PUSH1 0x0 DUP3 DUP3 MSTORE PUSH1 0x20 DUP3 ADD SWAP1 POP SWAP3 SWAP2 POP POP JUMP JUMPDEST PUSH1 0x0 DUP2 SWAP1 POP SWAP3 SWAP2 POP POP JUMP JUMPDEST PUSH1 0x0 PUSH2 0x2292 DUP3 PUSH2 0x22AF JUMP JUMPDEST SWAP1 POP SWAP2 SWAP1 POP JUMP JUMPDEST PUSH1 0x0 DUP2 ISZERO ISZERO SWAP1 POP SWAP2 SWAP1 POP JUMP JUMPDEST PUSH1 0x0 DUP2 SWAP1 POP SWAP2 SWAP1 POP JUMP JUMPDEST PUSH1 0x0 PUSH20 0xFFFFFFFFFFFFFFFFFFFFFFFFFFFFFFFFFFFFFFFF DUP3 AND SWAP1 POP SWAP2 SWAP1 POP JUMP JUMPDEST PUSH1 0x0 DUP2 SWAP1 POP SWAP2 SWAP1 POP JUMP JUMPDEST DUP3 DUP2 DUP4 CALLDATACOPY PUSH1 0x0 DUP4 DUP4 ADD MSTORE POP POP POP JUMP JUMPDEST PUSH1 0x0 JUMPDEST DUP4 DUP2 LT ISZERO PUSH2 0x2306 JUMPI DUP1 DUP3 ADD MLOAD DUP2 DUP5 ADD MSTORE PUSH1 0x20 DUP2 ADD SWAP1 POP PUSH2 0x22EB JUMP JUMPDEST DUP4 DUP2 GT ISZERO PUSH2 0x2315 JUMPI PUSH1 0x0 DUP5 DUP5 ADD MSTORE JUMPDEST POP POP POP POP JUMP JUMPDEST PUSH2 0x2324 DUP3 PUSH2 0x2436 JUMP JUMPDEST DUP2 ADD DUP2 DUP2 LT PUSH8 0xFFFFFFFFFFFFFFFF DUP3 GT OR ISZERO PUSH2 0x2343 JUMPI PUSH2 0x2342 PUSH2 0x23F3 JUMP JUMPDEST JUMPDEST DUP1 PUSH1 0x40 MSTORE POP POP POP JUMP JUMPDEST PUSH1 0x0 PUSH2 0x2357 DUP3 PUSH2 0x22CF JUMP JUMPDEST SWAP2 POP PUSH32 0xFFFFFFFFFFFFFFFFFFFFFFFFFFFFFFFFFFFFFFFFFFFFFFFFFFFFFFFFFFFFFFFF DUP3 EQ ISZERO PUSH2 0x238A JUMPI PUSH2 0x2389 PUSH2 0x2395 JUMP JUMPDEST JUMPDEST PUSH1 0x1 DUP3 ADD SWAP1 POP SWAP2 SWAP1 POP JUMP JUMPDEST PUSH32 0x4E487B7100000000000000000000000000000000000000000000000000000000 PUSH1 0x0 MSTORE PUSH1 0x11 PUSH1 0x4 MSTORE PUSH1 0x24 PUSH1 0x0 REVERT JUMPDEST PUSH32 0x4E487B7100000000000000000000000000000000000000000000000000000000 PUSH1 0x0 MSTORE PUSH1 0x32 PUSH1 0x4 MSTORE PUSH1 0x24 PUSH1 0x0 REVERT JUMPDEST PUSH32 0x4E487B7100000000000000000000000000000000000000000000000000000000 PUSH1 0x0 MSTORE PUSH1 0x41 PUSH1 0x4 MSTORE PUSH1 0x24 PUSH1 0x0 REVERT JUMPDEST PUSH1 0x0 DUP1 REVERT JUMPDEST PUSH1 0x0 DUP1 REVERT JUMPDEST PUSH1 0x0 DUP1 REVERT JUMPDEST PUSH1 0x0 DUP1 REVERT JUMPDEST PUSH1 0x0 PUSH1 0x1F NOT PUSH1 0x1F DUP4 ADD AND SWAP1 POP SWAP2 SWAP1 POP JUMP JUMPDEST PUSH32 0x416363657373436F6E74726F6C3A200000000000000000000000000000000000 PUSH1 0x0 DUP3 ADD MSTORE POP JUMP JUMPDEST PUSH32 0x416363657373436F6E74726F6C3A20596F752068617665206E6F207065726D69 PUSH1 0x0 DUP3 ADD MSTORE PUSH32 0x7373696F6E20746F2061636365737320746869732066756E6374696F6E2E0000 PUSH1 0x20 DUP3 ADD MSTORE POP JUMP JUMPDEST PUSH2 0x24C8 DUP2 PUSH2 0x2287 JUMP JUMPDEST DUP2 EQ PUSH2 0x24D3 JUMPI PUSH1 0x0 DUP1 REVERT JUMPDEST POP JUMP INVALID SLOAD PUSH9 0x65207065726D697373 PUSH10 0x6F6E206973206E6F7420 PUSH23 0x616C6964206F7220746865206163636F756E7420697320 PUSH15 0x6F7420696E20746865207065726D69 PUSH20 0x73696F6E2EA26469706673582212200BECCAC6A0 0x27 0x4F CHAINID 0xF 0x4C SWAP6 0xED POP 0x23 0xF8 0x49 SWAP13 PUSH16 0x6E5458FACB174E0960F97665E92D6473 PUSH16 0x6C634300080700330000000000000000 "
				},
				"gasEstimates": {
					"creation": {
						"codeDepositCost": "1910400",
						"executionCost": "infinite",
						"totalCost": "infinite"
					},
					"external": {
						"createPermission(bytes)": "infinite",
						"createPermissionByLevel(bytes,bytes)": "infinite",
						"deleteAccount(address)": "infinite",
						"deletePermission(bytes)": "infinite",
						"grantAccountPermission(bytes,address)": "infinite",
						"inquiryAccountPermission(bytes,address)": "infinite",
						"inquiryAdmin()": "infinite",
						"inquiryAllAccountsByPermission(bytes)": "infinite",
						"inquiryAllPermissionsByAccount(address)": "infinite",
						"revokeAccountPermission(bytes,address)": "infinite",
						"transferAdmin(address)": "infinite"
					}
				},
				"methodIdentifiers": {
					"createPermission(bytes)": "aae7c78a",
					"createPermissionByLevel(bytes,bytes)": "a10f9524",
					"deleteAccount(address)": "4c1b64cb",
					"deletePermission(bytes)": "342da059",
					"grantAccountPermission(bytes,address)": "c7dc6220",
					"inquiryAccountPermission(bytes,address)": "383783c6",
					"inquiryAdmin()": "7058dd24",
					"inquiryAllAccountsByPermission(bytes)": "491642bb",
					"inquiryAllPermissionsByAccount(address)": "80891cb2",
					"revokeAccountPermission(bytes,address)": "c98d6f1e",
					"transferAdmin(address)": "75829def"
				}
			},
			"storageLayout": {
				"storage": [
					{
						"astId": 22,
						"contract": "contracts/organization/DaoAccessControl.sol:DaoAccessControl",
						"label": "_allPermissions",
						"offset": 0,
						"slot": "0",
						"type": "t_mapping(t_bytes32,t_struct(MembersData)17_storage)"
					},
					{
						"astId": 26,
						"contract": "contracts/organization/DaoAccessControl.sol:DaoAccessControl",
						"label": "_indexOfPermissions",
						"offset": 0,
						"slot": "1",
						"type": "t_mapping(t_uint256,t_bytes32)"
					},
					{
						"astId": 28,
						"contract": "contracts/organization/DaoAccessControl.sol:DaoAccessControl",
						"label": "_numberOfPermissions",
						"offset": 0,
						"slot": "2",
						"type": "t_uint256"
					}
				],
				"types": {
					"t_address": {
						"encoding": "inplace",
						"label": "address",
						"numberOfBytes": "20"
					},
					"t_bool": {
						"encoding": "inplace",
						"label": "bool",
						"numberOfBytes": "1"
					},
					"t_bytes32": {
						"encoding": "inplace",
						"label": "bytes32",
						"numberOfBytes": "32"
					},
					"t_mapping(t_address,t_bool)": {
						"encoding": "mapping",
						"key": "t_address",
						"label": "mapping(address => bool)",
						"numberOfBytes": "32",
						"value": "t_bool"
					},
					"t_mapping(t_bytes32,t_struct(MembersData)17_storage)": {
						"encoding": "mapping",
						"key": "t_bytes32",
						"label": "mapping(bytes32 => struct AccessControl.MembersData)",
						"numberOfBytes": "32",
						"value": "t_struct(MembersData)17_storage"
					},
					"t_mapping(t_uint256,t_address)": {
						"encoding": "mapping",
						"key": "t_uint256",
						"label": "mapping(uint256 => address)",
						"numberOfBytes": "32",
						"value": "t_address"
					},
					"t_mapping(t_uint256,t_bytes32)": {
						"encoding": "mapping",
						"key": "t_uint256",
						"label": "mapping(uint256 => bytes32)",
						"numberOfBytes": "32",
						"value": "t_bytes32"
					},
					"t_struct(MembersData)17_storage": {
						"encoding": "inplace",
						"label": "struct AccessControl.MembersData",
						"members": [
							{
								"astId": 8,
								"contract": "contracts/organization/DaoAccessControl.sol:DaoAccessControl",
								"label": "members",
								"offset": 0,
								"slot": "0",
								"type": "t_mapping(t_address,t_bool)"
							},
							{
								"astId": 12,
								"contract": "contracts/organization/DaoAccessControl.sol:DaoAccessControl",
								"label": "index",
								"offset": 0,
								"slot": "1",
								"type": "t_mapping(t_uint256,t_address)"
							},
							{
								"astId": 14,
								"contract": "contracts/organization/DaoAccessControl.sol:DaoAccessControl",
								"label": "length",
								"offset": 0,
								"slot": "2",
								"type": "t_uint256"
							},
							{
								"astId": 16,
								"contract": "contracts/organization/DaoAccessControl.sol:DaoAccessControl",
								"label": "isValid",
								"offset": 0,
								"slot": "3",
								"type": "t_bool"
							}
						],
						"numberOfBytes": "128"
					},
					"t_uint256": {
						"encoding": "inplace",
						"label": "uint256",
						"numberOfBytes": "32"
					}
				}
			},
			"userdoc": {
				"kind": "user",
				"methods": {},
				"version": 1
			}
		}
	}
}