{
	"contracts/organization/DaoAccessControl.sol": {
		"DaoAccessControl": {
			"abi": [
				{
					"inputs": [],
					"stateMutability": "nonpayable",
					"type": "constructor"
				},
				{
					"anonymous": false,
					"inputs": [
						{
							"indexed": true,
							"internalType": "address",
							"name": "account",
							"type": "address"
						},
						{
							"indexed": true,
							"internalType": "address",
							"name": "sender",
							"type": "address"
						}
					],
					"name": "AccountDeleted",
					"type": "event"
				},
				{
					"anonymous": false,
					"inputs": [
						{
							"indexed": true,
							"internalType": "address",
							"name": "newAdmin",
							"type": "address"
						},
						{
							"indexed": true,
							"internalType": "address",
							"name": "previousAdmin",
							"type": "address"
						}
					],
					"name": "AdminTransfered",
					"type": "event"
				},
				{
					"anonymous": false,
					"inputs": [
						{
							"indexed": true,
							"internalType": "bytes",
							"name": "permissionName",
							"type": "bytes"
						},
						{
							"indexed": true,
							"internalType": "address",
							"name": "sender",
							"type": "address"
						}
					],
					"name": "PermissionCreated",
					"type": "event"
				},
				{
					"anonymous": false,
					"inputs": [
						{
							"indexed": true,
							"internalType": "bytes",
							"name": "permissionName",
							"type": "bytes"
						},
						{
							"indexed": true,
							"internalType": "address",
							"name": "sender",
							"type": "address"
						}
					],
					"name": "PermissionDeleted",
					"type": "event"
				},
				{
					"anonymous": false,
					"inputs": [
						{
							"indexed": true,
							"internalType": "bytes",
							"name": "permissionName",
							"type": "bytes"
						},
						{
							"indexed": true,
							"internalType": "address",
							"name": "account",
							"type": "address"
						},
						{
							"indexed": true,
							"internalType": "address",
							"name": "sender",
							"type": "address"
						}
					],
					"name": "PermissionGranted",
					"type": "event"
				},
				{
					"anonymous": false,
					"inputs": [
						{
							"indexed": true,
							"internalType": "bytes",
							"name": "permissionName",
							"type": "bytes"
						},
						{
							"indexed": true,
							"internalType": "address",
							"name": "account",
							"type": "address"
						},
						{
							"indexed": true,
							"internalType": "address",
							"name": "sender",
							"type": "address"
						}
					],
					"name": "PermissionRevoked",
					"type": "event"
				},
				{
					"inputs": [
						{
							"internalType": "bytes",
							"name": "permissionName",
							"type": "bytes"
						}
					],
					"name": "createPermission",
					"outputs": [],
					"stateMutability": "nonpayable",
					"type": "function"
				},
				{
					"inputs": [
						{
							"internalType": "bytes",
							"name": "permissionName",
							"type": "bytes"
						},
						{
							"internalType": "bytes",
							"name": "permissionAlready",
							"type": "bytes"
						}
					],
					"name": "createPermissionByLevel",
					"outputs": [],
					"stateMutability": "nonpayable",
					"type": "function"
				},
				{
					"inputs": [
						{
							"internalType": "address",
							"name": "account",
							"type": "address"
						}
					],
					"name": "deleteAccount",
					"outputs": [],
					"stateMutability": "nonpayable",
					"type": "function"
				},
				{
					"inputs": [
						{
							"internalType": "bytes",
							"name": "permissionName",
							"type": "bytes"
						}
					],
					"name": "deletePermission",
					"outputs": [],
					"stateMutability": "nonpayable",
					"type": "function"
				},
				{
					"inputs": [
						{
							"internalType": "bytes",
							"name": "permissionName",
							"type": "bytes"
						},
						{
							"internalType": "address",
							"name": "account",
							"type": "address"
						}
					],
					"name": "grantAccountPermission",
					"outputs": [],
					"stateMutability": "nonpayable",
					"type": "function"
				},
				{
					"inputs": [
						{
							"internalType": "bytes32",
							"name": "permission",
							"type": "bytes32"
						},
						{
							"internalType": "address",
							"name": "account",
							"type": "address"
						}
					],
					"name": "inquiryAccountPermission",
					"outputs": [
						{
							"internalType": "bool",
							"name": "",
							"type": "bool"
						}
					],
					"stateMutability": "view",
					"type": "function"
				},
				{
					"inputs": [],
					"name": "inquiryAdmin",
					"outputs": [
						{
							"internalType": "address",
							"name": "",
							"type": "address"
						}
					],
					"stateMutability": "view",
					"type": "function"
				},
				{
					"inputs": [
						{
							"internalType": "bytes32",
							"name": "permission",
							"type": "bytes32"
						}
					],
					"name": "inquiryAllAccountsByPermission",
					"outputs": [
						{
							"internalType": "address[]",
							"name": "",
							"type": "address[]"
						}
					],
					"stateMutability": "view",
					"type": "function"
				},
				{
					"inputs": [
						{
							"internalType": "address",
							"name": "account",
							"type": "address"
						}
					],
					"name": "inquiryAllPermissionsByAccount",
					"outputs": [
						{
							"internalType": "bytes32[]",
							"name": "",
							"type": "bytes32[]"
						}
					],
					"stateMutability": "view",
					"type": "function"
				},
				{
					"inputs": [
						{
							"internalType": "bytes",
							"name": "permissionName",
							"type": "bytes"
						},
						{
							"internalType": "address",
							"name": "account",
							"type": "address"
						}
					],
					"name": "revokeAccountPermission",
					"outputs": [],
					"stateMutability": "nonpayable",
					"type": "function"
				},
				{
					"inputs": [
						{
							"internalType": "address",
							"name": "account",
							"type": "address"
						}
					],
					"name": "transferAdmin",
					"outputs": [],
					"stateMutability": "nonpayable",
					"type": "function"
				}
			],
			"devdoc": {
				"kind": "dev",
				"methods": {},
				"version": 1
			},
			"evm": {
				"assembly": "    /* \"contracts/organization/DaoAccessControl.sol\":98:2549  contract DaoAccessControl is AccessControl{\r... */\n  mstore(0x40, 0x80)\n    /* \"contracts/organization/DaoAccessControl.sol\":149:195  constructor() {\r... */\n  callvalue\n  dup1\n  iszero\n  tag_1\n  jumpi\n  0x00\n  dup1\n  revert\ntag_1:\n  pop\n    /* \"contracts/organization/DaoAccessControl.sol\":174:187  _initialize() */\n  tag_4\n    /* \"contracts/organization/DaoAccessControl.sol\":174:185  _initialize */\n  shl(0x20, tag_5)\n    /* \"contracts/organization/DaoAccessControl.sol\":174:187  _initialize() */\n  0x20\n  shr\n  jump\t// in\ntag_4:\n    /* \"contracts/organization/DaoAccessControl.sol\":98:2549  contract DaoAccessControl is AccessControl{\r... */\n  jump(tag_6)\n    /* \"contracts/AccessControl.sol\":2472:2805  function _initialize() internal virtual {\r... */\ntag_5:\n    /* \"contracts/AccessControl.sol\":2556:2560  true */\n  0x01\n    /* \"contracts/AccessControl.sol\":2523:2538  _allPermissions */\n  0x00\n    /* \"contracts/AccessControl.sol\":2523:2545  _allPermissions[ADMIN] */\n  dup1\n    /* \"contracts/AccessControl.sol\":677:695  keccak256(\"ADMIN\") */\n  0xdf8b4c520ffe197c5343c6f5aec59570151ef9a492f2c624fd45ddde6135ec42\n    /* \"contracts/AccessControl.sol\":2523:2545  _allPermissions[ADMIN] */\n  dup2\n  mstore\n  0x20\n  add\n  swap1\n  dup2\n  mstore\n  0x20\n  add\n  0x00\n  keccak256\n    /* \"contracts/AccessControl.sol\":2523:2553  _allPermissions[ADMIN].isValid */\n  0x03\n  add\n  0x00\n    /* \"contracts/AccessControl.sol\":2523:2560  _allPermissions[ADMIN].isValid = true */\n  0x0100\n  exp\n  dup2\n  sload\n  dup2\n  0xff\n  mul\n  not\n  and\n  swap1\n  dup4\n  iszero\n  iszero\n  mul\n  or\n  swap1\n  sstore\n  pop\n    /* \"contracts/AccessControl.sol\":2616:2620  true */\n  0x01\n    /* \"contracts/AccessControl.sol\":2571:2586  _allPermissions */\n  0x00\n    /* \"contracts/AccessControl.sol\":2571:2593  _allPermissions[ADMIN] */\n  dup1\n    /* \"contracts/AccessControl.sol\":677:695  keccak256(\"ADMIN\") */\n  0xdf8b4c520ffe197c5343c6f5aec59570151ef9a492f2c624fd45ddde6135ec42\n    /* \"contracts/AccessControl.sol\":2571:2593  _allPermissions[ADMIN] */\n  dup2\n  mstore\n  0x20\n  add\n  swap1\n  dup2\n  mstore\n  0x20\n  add\n  0x00\n  keccak256\n    /* \"contracts/AccessControl.sol\":2571:2601  _allPermissions[ADMIN].members */\n  0x00\n  add\n    /* \"contracts/AccessControl.sol\":2571:2613  _allPermissions[ADMIN].members[msg.sender] */\n  0x00\n    /* \"contracts/AccessControl.sol\":2602:2612  msg.sender */\n  caller\n    /* \"contracts/AccessControl.sol\":2571:2613  _allPermissions[ADMIN].members[msg.sender] */\n  0xffffffffffffffffffffffffffffffffffffffff\n  and\n  0xffffffffffffffffffffffffffffffffffffffff\n  and\n  dup2\n  mstore\n  0x20\n  add\n  swap1\n  dup2\n  mstore\n  0x20\n  add\n  0x00\n  keccak256\n  0x00\n    /* \"contracts/AccessControl.sol\":2571:2620  _allPermissions[ADMIN].members[msg.sender] = true */\n  0x0100\n  exp\n  dup2\n  sload\n  dup2\n  0xff\n  mul\n  not\n  and\n  swap1\n  dup4\n  iszero\n  iszero\n  mul\n  or\n  swap1\n  sstore\n  pop\n    /* \"contracts/AccessControl.sol\":2665:2675  msg.sender */\n  caller\n    /* \"contracts/AccessControl.sol\":2631:2646  _allPermissions */\n  0x00\n    /* \"contracts/AccessControl.sol\":2631:2653  _allPermissions[ADMIN] */\n  dup1\n    /* \"contracts/AccessControl.sol\":677:695  keccak256(\"ADMIN\") */\n  0xdf8b4c520ffe197c5343c6f5aec59570151ef9a492f2c624fd45ddde6135ec42\n    /* \"contracts/AccessControl.sol\":2631:2653  _allPermissions[ADMIN] */\n  dup2\n  mstore\n  0x20\n  add\n  swap1\n  dup2\n  mstore\n  0x20\n  add\n  0x00\n  keccak256\n    /* \"contracts/AccessControl.sol\":2631:2659  _allPermissions[ADMIN].index */\n  0x01\n  add\n    /* \"contracts/AccessControl.sol\":2631:2662  _allPermissions[ADMIN].index[0] */\n  0x00\n    /* \"contracts/AccessControl.sol\":2660:2661  0 */\n  dup1\n    /* \"contracts/AccessControl.sol\":2631:2662  _allPermissions[ADMIN].index[0] */\n  dup2\n  mstore\n  0x20\n  add\n  swap1\n  dup2\n  mstore\n  0x20\n  add\n  0x00\n  keccak256\n  0x00\n    /* \"contracts/AccessControl.sol\":2631:2675  _allPermissions[ADMIN].index[0] = msg.sender */\n  0x0100\n  exp\n  dup2\n  sload\n  dup2\n  0xffffffffffffffffffffffffffffffffffffffff\n  mul\n  not\n  and\n  swap1\n  dup4\n  0xffffffffffffffffffffffffffffffffffffffff\n  and\n  mul\n  or\n  swap1\n  sstore\n  pop\n    /* \"contracts/AccessControl.sol\":2718:2719  1 */\n  0x01\n    /* \"contracts/AccessControl.sol\":2686:2701  _allPermissions */\n  0x00\n    /* \"contracts/AccessControl.sol\":2686:2708  _allPermissions[ADMIN] */\n  dup1\n    /* \"contracts/AccessControl.sol\":677:695  keccak256(\"ADMIN\") */\n  0xdf8b4c520ffe197c5343c6f5aec59570151ef9a492f2c624fd45ddde6135ec42\n    /* \"contracts/AccessControl.sol\":2686:2708  _allPermissions[ADMIN] */\n  dup2\n  mstore\n  0x20\n  add\n  swap1\n  dup2\n  mstore\n  0x20\n  add\n  0x00\n  keccak256\n    /* \"contracts/AccessControl.sol\":2686:2715  _allPermissions[ADMIN].length */\n  0x02\n  add\n    /* \"contracts/AccessControl.sol\":2686:2719  _allPermissions[ADMIN].length = 1 */\n  dup2\n  swap1\n  sstore\n  pop\n    /* \"contracts/AccessControl.sol\":2755:2756  1 */\n  0x01\n    /* \"contracts/AccessControl.sol\":2732:2752  _numberOfPermissions */\n  0x02\n    /* \"contracts/AccessControl.sol\":2732:2756  _numberOfPermissions = 1 */\n  dup2\n  swap1\n  sstore\n  pop\n    /* \"contracts/AccessControl.sol\":677:695  keccak256(\"ADMIN\") */\n  0xdf8b4c520ffe197c5343c6f5aec59570151ef9a492f2c624fd45ddde6135ec42\n    /* \"contracts/AccessControl.sol\":2767:2786  _indexOfPermissions */\n  0x01\n    /* \"contracts/AccessControl.sol\":2767:2789  _indexOfPermissions[0] */\n  0x00\n    /* \"contracts/AccessControl.sol\":2787:2788  0 */\n  dup1\n    /* \"contracts/AccessControl.sol\":2767:2789  _indexOfPermissions[0] */\n  dup2\n  mstore\n  0x20\n  add\n  swap1\n  dup2\n  mstore\n  0x20\n  add\n  0x00\n  keccak256\n    /* \"contracts/AccessControl.sol\":2767:2797  _indexOfPermissions[0] = ADMIN */\n  dup2\n  swap1\n  sstore\n  pop\n    /* \"contracts/AccessControl.sol\":2472:2805  function _initialize() internal virtual {\r... */\n  jump\t// out\n    /* \"contracts/organization/DaoAccessControl.sol\":98:2549  contract DaoAccessControl is AccessControl{\r... */\ntag_6:\n  dataSize(sub_0)\n  dup1\n  dataOffset(sub_0)\n  0x00\n  codecopy\n  0x00\n  return\nstop\n\nsub_0: assembly {\n        /* \"contracts/organization/DaoAccessControl.sol\":98:2549  contract DaoAccessControl is AccessControl{\r... */\n      mstore(0x40, 0x80)\n      callvalue\n      dup1\n      iszero\n      tag_1\n      jumpi\n      0x00\n      dup1\n      revert\n    tag_1:\n      pop\n      jumpi(tag_2, lt(calldatasize, 0x04))\n      shr(0xe0, calldataload(0x00))\n      dup1\n      0x9b8f3bbc\n      gt\n      tag_14\n      jumpi\n      dup1\n      0x9b8f3bbc\n      eq\n      tag_8\n      jumpi\n      dup1\n      0xa10f9524\n      eq\n      tag_9\n      jumpi\n      dup1\n      0xaae7c78a\n      eq\n      tag_10\n      jumpi\n      dup1\n      0xc7dc6220\n      eq\n      tag_11\n      jumpi\n      dup1\n      0xc98d6f1e\n      eq\n      tag_12\n      jumpi\n      dup1\n      0xe9cb00a2\n      eq\n      tag_13\n      jumpi\n      jump(tag_2)\n    tag_14:\n      dup1\n      0x342da059\n      eq\n      tag_3\n      jumpi\n      dup1\n      0x4c1b64cb\n      eq\n      tag_4\n      jumpi\n      dup1\n      0x7058dd24\n      eq\n      tag_5\n      jumpi\n      dup1\n      0x75829def\n      eq\n      tag_6\n      jumpi\n      dup1\n      0x80891cb2\n      eq\n      tag_7\n      jumpi\n    tag_2:\n      0x00\n      dup1\n      revert\n        /* \"contracts/organization/DaoAccessControl.sol\":809:977  function deletePermission(bytes memory permissionName) \r... */\n    tag_3:\n      tag_15\n      0x04\n      dup1\n      calldatasize\n      sub\n      dup2\n      add\n      swap1\n      tag_16\n      swap2\n      swap1\n      tag_17\n      jump\t// in\n    tag_16:\n      tag_18\n      jump\t// in\n    tag_15:\n      stop\n        /* \"contracts/organization/DaoAccessControl.sol\":1415:1558  function deleteAccount(address account) \r... */\n    tag_4:\n      tag_19\n      0x04\n      dup1\n      calldatasize\n      sub\n      dup2\n      add\n      swap1\n      tag_20\n      swap2\n      swap1\n      tag_21\n      jump\t// in\n    tag_20:\n      tag_22\n      jump\t// in\n    tag_19:\n      stop\n        /* \"contracts/organization/DaoAccessControl.sol\":2403:2542  function inquiryAdmin() public view override allowPermission(STAFF) returns (address) \r... */\n    tag_5:\n      tag_23\n      tag_24\n      jump\t// in\n    tag_23:\n      mload(0x40)\n      tag_25\n      swap2\n      swap1\n      tag_26\n      jump\t// in\n    tag_25:\n      mload(0x40)\n      dup1\n      swap2\n      sub\n      swap1\n      return\n        /* \"contracts/organization/DaoAccessControl.sol\":1566:1709  function transferAdmin(address account) \r... */\n    tag_6:\n      tag_27\n      0x04\n      dup1\n      calldatasize\n      sub\n      dup2\n      add\n      swap1\n      tag_28\n      swap2\n      swap1\n      tag_21\n      jump\t// in\n    tag_28:\n      tag_29\n      jump\t// in\n    tag_27:\n      stop\n        /* \"contracts/organization/DaoAccessControl.sol\":2179:2395  function inquiryAllPermissionsByAccount(address account) \r... */\n    tag_7:\n      tag_30\n      0x04\n      dup1\n      calldatasize\n      sub\n      dup2\n      add\n      swap1\n      tag_31\n      swap2\n      swap1\n      tag_21\n      jump\t// in\n    tag_31:\n      tag_32\n      jump\t// in\n    tag_30:\n      mload(0x40)\n      tag_33\n      swap2\n      swap1\n      tag_34\n      jump\t// in\n    tag_33:\n      mload(0x40)\n      dup1\n      swap2\n      sub\n      swap1\n      return\n        /* \"contracts/organization/DaoAccessControl.sol\":1949:2171  function inquiryAllAccountsByPermission(bytes32 permission) \r... */\n    tag_8:\n      tag_35\n      0x04\n      dup1\n      calldatasize\n      sub\n      dup2\n      add\n      swap1\n      tag_36\n      swap2\n      swap1\n      tag_37\n      jump\t// in\n    tag_36:\n      tag_38\n      jump\t// in\n    tag_35:\n      mload(0x40)\n      tag_39\n      swap2\n      swap1\n      tag_40\n      jump\t// in\n    tag_39:\n      mload(0x40)\n      dup1\n      swap2\n      sub\n      swap1\n      return\n        /* \"contracts/organization/DaoAccessControl.sol\":568:801  function createPermissionByLevel(bytes memory permissionName, bytes memory permissionAlready) \r... */\n    tag_9:\n      tag_41\n      0x04\n      dup1\n      calldatasize\n      sub\n      dup2\n      add\n      swap1\n      tag_42\n      swap2\n      swap1\n      tag_43\n      jump\t// in\n    tag_42:\n      tag_44\n      jump\t// in\n    tag_41:\n      stop\n        /* \"contracts/organization/DaoAccessControl.sol\":392:560  function createPermission(bytes memory permissionName) \r... */\n    tag_10:\n      tag_45\n      0x04\n      dup1\n      calldatasize\n      sub\n      dup2\n      add\n      swap1\n      tag_46\n      swap2\n      swap1\n      tag_17\n      jump\t// in\n    tag_46:\n      tag_47\n      jump\t// in\n    tag_45:\n      stop\n        /* \"contracts/organization/DaoAccessControl.sol\":985:1191  function grantAccountPermission(bytes memory permissionName, address account) \r... */\n    tag_11:\n      tag_48\n      0x04\n      dup1\n      calldatasize\n      sub\n      dup2\n      add\n      swap1\n      tag_49\n      swap2\n      swap1\n      tag_50\n      jump\t// in\n    tag_49:\n      tag_51\n      jump\t// in\n    tag_48:\n      stop\n        /* \"contracts/organization/DaoAccessControl.sol\":1199:1407  function revokeAccountPermission(bytes memory permissionName, address account) \r... */\n    tag_12:\n      tag_52\n      0x04\n      dup1\n      calldatasize\n      sub\n      dup2\n      add\n      swap1\n      tag_53\n      swap2\n      swap1\n      tag_50\n      jump\t// in\n    tag_53:\n      tag_54\n      jump\t// in\n    tag_52:\n      stop\n        /* \"contracts/organization/DaoAccessControl.sol\":1717:1941  function inquiryAccountPermission(bytes32 permission, address account) \r... */\n    tag_13:\n      tag_55\n      0x04\n      dup1\n      calldatasize\n      sub\n      dup2\n      add\n      swap1\n      tag_56\n      swap2\n      swap1\n      tag_57\n      jump\t// in\n    tag_56:\n      tag_58\n      jump\t// in\n    tag_55:\n      mload(0x40)\n      tag_59\n      swap2\n      swap1\n      tag_60\n      jump\t// in\n    tag_59:\n      mload(0x40)\n      dup1\n      swap2\n      sub\n      swap1\n      return\n        /* \"contracts/organization/DaoAccessControl.sol\":809:977  function deletePermission(bytes memory permissionName) \r... */\n    tag_18:\n        /* \"contracts/AccessControl.sol\":1147:1174  keccak256(\"ACCESS_MANAGER\") */\n      0x73d57861095ed1ff7b0e5c00e25f9fc922cf9164e617149ee7073f371364c954\n        /* \"contracts/organization/DaoAccessControl.sol\":267:297  _check(permission, msg.sender) */\n      tag_62\n        /* \"contracts/organization/DaoAccessControl.sol\":274:284  permission */\n      dup2\n        /* \"contracts/organization/DaoAccessControl.sol\":286:296  msg.sender */\n      caller\n        /* \"contracts/organization/DaoAccessControl.sol\":267:273  _check */\n      tag_63\n        /* \"contracts/organization/DaoAccessControl.sol\":267:297  _check(permission, msg.sender) */\n      jump\t// in\n    tag_62:\n        /* \"contracts/organization/DaoAccessControl.sol\":259:364  require(_check(permission, msg.sender), \"AccessControl: You have no permission to access this function.\") */\n      tag_64\n      jumpi\n      mload(0x40)\n      0x08c379a000000000000000000000000000000000000000000000000000000000\n      dup2\n      mstore\n      0x04\n      add\n      tag_65\n      swap1\n      tag_66\n      jump\t// in\n    tag_65:\n      mload(0x40)\n      dup1\n      swap2\n      sub\n      swap1\n      revert\n    tag_64:\n        /* \"contracts/organization/DaoAccessControl.sol\":930:969  super._deletePermission(permissionName) */\n      tag_68\n        /* \"contracts/organization/DaoAccessControl.sol\":954:968  permissionName */\n      dup3\n        /* \"contracts/organization/DaoAccessControl.sol\":930:953  super._deletePermission */\n      tag_69\n        /* \"contracts/organization/DaoAccessControl.sol\":930:969  super._deletePermission(permissionName) */\n      jump\t// in\n    tag_68:\n        /* \"contracts/organization/DaoAccessControl.sol\":809:977  function deletePermission(bytes memory permissionName) \r... */\n      pop\n      pop\n      jump\t// out\n        /* \"contracts/organization/DaoAccessControl.sol\":1415:1558  function deleteAccount(address account) \r... */\n    tag_22:\n        /* \"contracts/AccessControl.sol\":1147:1174  keccak256(\"ACCESS_MANAGER\") */\n      0x73d57861095ed1ff7b0e5c00e25f9fc922cf9164e617149ee7073f371364c954\n        /* \"contracts/organization/DaoAccessControl.sol\":267:297  _check(permission, msg.sender) */\n      tag_71\n        /* \"contracts/organization/DaoAccessControl.sol\":274:284  permission */\n      dup2\n        /* \"contracts/organization/DaoAccessControl.sol\":286:296  msg.sender */\n      caller\n        /* \"contracts/organization/DaoAccessControl.sol\":267:273  _check */\n      tag_63\n        /* \"contracts/organization/DaoAccessControl.sol\":267:297  _check(permission, msg.sender) */\n      jump\t// in\n    tag_71:\n        /* \"contracts/organization/DaoAccessControl.sol\":259:364  require(_check(permission, msg.sender), \"AccessControl: You have no permission to access this function.\") */\n      tag_72\n      jumpi\n      mload(0x40)\n      0x08c379a000000000000000000000000000000000000000000000000000000000\n      dup2\n      mstore\n      0x04\n      add\n      tag_73\n      swap1\n      tag_66\n      jump\t// in\n    tag_73:\n      mload(0x40)\n      dup1\n      swap2\n      sub\n      swap1\n      revert\n    tag_72:\n        /* \"contracts/organization/DaoAccessControl.sol\":1521:1550  super._deleteAccount(account) */\n      tag_75\n        /* \"contracts/organization/DaoAccessControl.sol\":1542:1549  account */\n      dup3\n        /* \"contracts/organization/DaoAccessControl.sol\":1521:1541  super._deleteAccount */\n      tag_76\n        /* \"contracts/organization/DaoAccessControl.sol\":1521:1550  super._deleteAccount(account) */\n      jump\t// in\n    tag_75:\n        /* \"contracts/organization/DaoAccessControl.sol\":1415:1558  function deleteAccount(address account) \r... */\n      pop\n      pop\n      jump\t// out\n        /* \"contracts/organization/DaoAccessControl.sol\":2403:2542  function inquiryAdmin() public view override allowPermission(STAFF) returns (address) \r... */\n    tag_24:\n        /* \"contracts/organization/DaoAccessControl.sol\":2480:2487  address */\n      0x00\n        /* \"contracts/AccessControl.sol\":799:817  keccak256(\"STAFF\") */\n      0xa724c0857099da33c38b932ce5d4e84578ee9792153085d9d5e379bfba70cacb\n        /* \"contracts/organization/DaoAccessControl.sol\":267:297  _check(permission, msg.sender) */\n      tag_78\n        /* \"contracts/organization/DaoAccessControl.sol\":274:284  permission */\n      dup2\n        /* \"contracts/organization/DaoAccessControl.sol\":286:296  msg.sender */\n      caller\n        /* \"contracts/organization/DaoAccessControl.sol\":267:273  _check */\n      tag_63\n        /* \"contracts/organization/DaoAccessControl.sol\":267:297  _check(permission, msg.sender) */\n      jump\t// in\n    tag_78:\n        /* \"contracts/organization/DaoAccessControl.sol\":259:364  require(_check(permission, msg.sender), \"AccessControl: You have no permission to access this function.\") */\n      tag_79\n      jumpi\n      mload(0x40)\n      0x08c379a000000000000000000000000000000000000000000000000000000000\n      dup2\n      mstore\n      0x04\n      add\n      tag_80\n      swap1\n      tag_66\n      jump\t// in\n    tag_80:\n      mload(0x40)\n      dup1\n      swap2\n      sub\n      swap1\n      revert\n    tag_79:\n        /* \"contracts/organization/DaoAccessControl.sol\":2513:2534  super._inquiryAdmin() */\n      tag_82\n        /* \"contracts/organization/DaoAccessControl.sol\":2513:2532  super._inquiryAdmin */\n      tag_83\n        /* \"contracts/organization/DaoAccessControl.sol\":2513:2534  super._inquiryAdmin() */\n      jump\t// in\n    tag_82:\n        /* \"contracts/organization/DaoAccessControl.sol\":2506:2534  return super._inquiryAdmin() */\n      swap2\n      pop\n        /* \"contracts/organization/DaoAccessControl.sol\":2403:2542  function inquiryAdmin() public view override allowPermission(STAFF) returns (address) \r... */\n      pop\n      swap1\n      jump\t// out\n        /* \"contracts/organization/DaoAccessControl.sol\":1566:1709  function transferAdmin(address account) \r... */\n    tag_29:\n        /* \"contracts/AccessControl.sol\":1147:1174  keccak256(\"ACCESS_MANAGER\") */\n      0x73d57861095ed1ff7b0e5c00e25f9fc922cf9164e617149ee7073f371364c954\n        /* \"contracts/organization/DaoAccessControl.sol\":267:297  _check(permission, msg.sender) */\n      tag_85\n        /* \"contracts/organization/DaoAccessControl.sol\":274:284  permission */\n      dup2\n        /* \"contracts/organization/DaoAccessControl.sol\":286:296  msg.sender */\n      caller\n        /* \"contracts/organization/DaoAccessControl.sol\":267:273  _check */\n      tag_63\n        /* \"contracts/organization/DaoAccessControl.sol\":267:297  _check(permission, msg.sender) */\n      jump\t// in\n    tag_85:\n        /* \"contracts/organization/DaoAccessControl.sol\":259:364  require(_check(permission, msg.sender), \"AccessControl: You have no permission to access this function.\") */\n      tag_86\n      jumpi\n      mload(0x40)\n      0x08c379a000000000000000000000000000000000000000000000000000000000\n      dup2\n      mstore\n      0x04\n      add\n      tag_87\n      swap1\n      tag_66\n      jump\t// in\n    tag_87:\n      mload(0x40)\n      dup1\n      swap2\n      sub\n      swap1\n      revert\n    tag_86:\n        /* \"contracts/organization/DaoAccessControl.sol\":1672:1701  super._transferAdmin(account) */\n      tag_89\n        /* \"contracts/organization/DaoAccessControl.sol\":1693:1700  account */\n      dup3\n        /* \"contracts/organization/DaoAccessControl.sol\":1672:1692  super._transferAdmin */\n      tag_90\n        /* \"contracts/organization/DaoAccessControl.sol\":1672:1701  super._transferAdmin(account) */\n      jump\t// in\n    tag_89:\n        /* \"contracts/organization/DaoAccessControl.sol\":1566:1709  function transferAdmin(address account) \r... */\n      pop\n      pop\n      jump\t// out\n        /* \"contracts/organization/DaoAccessControl.sol\":2179:2395  function inquiryAllPermissionsByAccount(address account) \r... */\n    tag_32:\n        /* \"contracts/organization/DaoAccessControl.sol\":2299:2315  bytes32[] memory */\n      0x60\n        /* \"contracts/AccessControl.sol\":799:817  keccak256(\"STAFF\") */\n      0xa724c0857099da33c38b932ce5d4e84578ee9792153085d9d5e379bfba70cacb\n        /* \"contracts/organization/DaoAccessControl.sol\":267:297  _check(permission, msg.sender) */\n      tag_92\n        /* \"contracts/organization/DaoAccessControl.sol\":274:284  permission */\n      dup2\n        /* \"contracts/organization/DaoAccessControl.sol\":286:296  msg.sender */\n      caller\n        /* \"contracts/organization/DaoAccessControl.sol\":267:273  _check */\n      tag_63\n        /* \"contracts/organization/DaoAccessControl.sol\":267:297  _check(permission, msg.sender) */\n      jump\t// in\n    tag_92:\n        /* \"contracts/organization/DaoAccessControl.sol\":259:364  require(_check(permission, msg.sender), \"AccessControl: You have no permission to access this function.\") */\n      tag_93\n      jumpi\n      mload(0x40)\n      0x08c379a000000000000000000000000000000000000000000000000000000000\n      dup2\n      mstore\n      0x04\n      add\n      tag_94\n      swap1\n      tag_66\n      jump\t// in\n    tag_94:\n      mload(0x40)\n      dup1\n      swap2\n      sub\n      swap1\n      revert\n    tag_93:\n        /* \"contracts/organization/DaoAccessControl.sol\":2341:2387  super._inquiryAllPermissionsByAccount(account) */\n      tag_96\n        /* \"contracts/organization/DaoAccessControl.sol\":2379:2386  account */\n      dup4\n        /* \"contracts/organization/DaoAccessControl.sol\":2341:2378  super._inquiryAllPermissionsByAccount */\n      tag_97\n        /* \"contracts/organization/DaoAccessControl.sol\":2341:2387  super._inquiryAllPermissionsByAccount(account) */\n      jump\t// in\n    tag_96:\n        /* \"contracts/organization/DaoAccessControl.sol\":2334:2387  return super._inquiryAllPermissionsByAccount(account) */\n      swap2\n      pop\n        /* \"contracts/organization/DaoAccessControl.sol\":2179:2395  function inquiryAllPermissionsByAccount(address account) \r... */\n      pop\n      swap2\n      swap1\n      pop\n      jump\t// out\n        /* \"contracts/organization/DaoAccessControl.sol\":1949:2171  function inquiryAllAccountsByPermission(bytes32 permission) \r... */\n    tag_38:\n        /* \"contracts/organization/DaoAccessControl.sol\":2072:2088  address[] memory */\n      0x60\n        /* \"contracts/AccessControl.sol\":799:817  keccak256(\"STAFF\") */\n      0xa724c0857099da33c38b932ce5d4e84578ee9792153085d9d5e379bfba70cacb\n        /* \"contracts/organization/DaoAccessControl.sol\":267:297  _check(permission, msg.sender) */\n      tag_99\n        /* \"contracts/organization/DaoAccessControl.sol\":274:284  permission */\n      dup2\n        /* \"contracts/organization/DaoAccessControl.sol\":286:296  msg.sender */\n      caller\n        /* \"contracts/organization/DaoAccessControl.sol\":267:273  _check */\n      tag_63\n        /* \"contracts/organization/DaoAccessControl.sol\":267:297  _check(permission, msg.sender) */\n      jump\t// in\n    tag_99:\n        /* \"contracts/organization/DaoAccessControl.sol\":259:364  require(_check(permission, msg.sender), \"AccessControl: You have no permission to access this function.\") */\n      tag_100\n      jumpi\n      mload(0x40)\n      0x08c379a000000000000000000000000000000000000000000000000000000000\n      dup2\n      mstore\n      0x04\n      add\n      tag_101\n      swap1\n      tag_66\n      jump\t// in\n    tag_101:\n      mload(0x40)\n      dup1\n      swap2\n      sub\n      swap1\n      revert\n    tag_100:\n        /* \"contracts/organization/DaoAccessControl.sol\":2114:2163  super._inquiryAllAccountsByPermission(permission) */\n      tag_103\n        /* \"contracts/organization/DaoAccessControl.sol\":2152:2162  permission */\n      dup4\n        /* \"contracts/organization/DaoAccessControl.sol\":2114:2151  super._inquiryAllAccountsByPermission */\n      tag_104\n        /* \"contracts/organization/DaoAccessControl.sol\":2114:2163  super._inquiryAllAccountsByPermission(permission) */\n      jump\t// in\n    tag_103:\n        /* \"contracts/organization/DaoAccessControl.sol\":2107:2163  return super._inquiryAllAccountsByPermission(permission) */\n      swap2\n      pop\n        /* \"contracts/organization/DaoAccessControl.sol\":1949:2171  function inquiryAllAccountsByPermission(bytes32 permission) \r... */\n      pop\n      swap2\n      swap1\n      pop\n      jump\t// out\n        /* \"contracts/organization/DaoAccessControl.sol\":568:801  function createPermissionByLevel(bytes memory permissionName, bytes memory permissionAlready) \r... */\n    tag_44:\n        /* \"contracts/AccessControl.sol\":1147:1174  keccak256(\"ACCESS_MANAGER\") */\n      0x73d57861095ed1ff7b0e5c00e25f9fc922cf9164e617149ee7073f371364c954\n        /* \"contracts/organization/DaoAccessControl.sol\":267:297  _check(permission, msg.sender) */\n      tag_106\n        /* \"contracts/organization/DaoAccessControl.sol\":274:284  permission */\n      dup2\n        /* \"contracts/organization/DaoAccessControl.sol\":286:296  msg.sender */\n      caller\n        /* \"contracts/organization/DaoAccessControl.sol\":267:273  _check */\n      tag_63\n        /* \"contracts/organization/DaoAccessControl.sol\":267:297  _check(permission, msg.sender) */\n      jump\t// in\n    tag_106:\n        /* \"contracts/organization/DaoAccessControl.sol\":259:364  require(_check(permission, msg.sender), \"AccessControl: You have no permission to access this function.\") */\n      tag_107\n      jumpi\n      mload(0x40)\n      0x08c379a000000000000000000000000000000000000000000000000000000000\n      dup2\n      mstore\n      0x04\n      add\n      tag_108\n      swap1\n      tag_66\n      jump\t// in\n    tag_108:\n      mload(0x40)\n      dup1\n      swap2\n      sub\n      swap1\n      revert\n    tag_107:\n        /* \"contracts/organization/DaoAccessControl.sol\":728:793  super._createPermissionByLevel(permissionName, permissionAlready) */\n      tag_110\n        /* \"contracts/organization/DaoAccessControl.sol\":759:773  permissionName */\n      dup4\n        /* \"contracts/organization/DaoAccessControl.sol\":775:792  permissionAlready */\n      dup4\n        /* \"contracts/organization/DaoAccessControl.sol\":728:758  super._createPermissionByLevel */\n      tag_111\n        /* \"contracts/organization/DaoAccessControl.sol\":728:793  super._createPermissionByLevel(permissionName, permissionAlready) */\n      jump\t// in\n    tag_110:\n        /* \"contracts/organization/DaoAccessControl.sol\":568:801  function createPermissionByLevel(bytes memory permissionName, bytes memory permissionAlready) \r... */\n      pop\n      pop\n      pop\n      jump\t// out\n        /* \"contracts/organization/DaoAccessControl.sol\":392:560  function createPermission(bytes memory permissionName) \r... */\n    tag_47:\n        /* \"contracts/AccessControl.sol\":1147:1174  keccak256(\"ACCESS_MANAGER\") */\n      0x73d57861095ed1ff7b0e5c00e25f9fc922cf9164e617149ee7073f371364c954\n        /* \"contracts/organization/DaoAccessControl.sol\":267:297  _check(permission, msg.sender) */\n      tag_113\n        /* \"contracts/organization/DaoAccessControl.sol\":274:284  permission */\n      dup2\n        /* \"contracts/organization/DaoAccessControl.sol\":286:296  msg.sender */\n      caller\n        /* \"contracts/organization/DaoAccessControl.sol\":267:273  _check */\n      tag_63\n        /* \"contracts/organization/DaoAccessControl.sol\":267:297  _check(permission, msg.sender) */\n      jump\t// in\n    tag_113:\n        /* \"contracts/organization/DaoAccessControl.sol\":259:364  require(_check(permission, msg.sender), \"AccessControl: You have no permission to access this function.\") */\n      tag_114\n      jumpi\n      mload(0x40)\n      0x08c379a000000000000000000000000000000000000000000000000000000000\n      dup2\n      mstore\n      0x04\n      add\n      tag_115\n      swap1\n      tag_66\n      jump\t// in\n    tag_115:\n      mload(0x40)\n      dup1\n      swap2\n      sub\n      swap1\n      revert\n    tag_114:\n        /* \"contracts/organization/DaoAccessControl.sol\":513:552  super._createPermission(permissionName) */\n      tag_117\n        /* \"contracts/organization/DaoAccessControl.sol\":537:551  permissionName */\n      dup3\n        /* \"contracts/organization/DaoAccessControl.sol\":513:536  super._createPermission */\n      tag_118\n        /* \"contracts/organization/DaoAccessControl.sol\":513:552  super._createPermission(permissionName) */\n      jump\t// in\n    tag_117:\n        /* \"contracts/organization/DaoAccessControl.sol\":392:560  function createPermission(bytes memory permissionName) \r... */\n      pop\n      pop\n      jump\t// out\n        /* \"contracts/organization/DaoAccessControl.sol\":985:1191  function grantAccountPermission(bytes memory permissionName, address account) \r... */\n    tag_51:\n        /* \"contracts/AccessControl.sol\":1147:1174  keccak256(\"ACCESS_MANAGER\") */\n      0x73d57861095ed1ff7b0e5c00e25f9fc922cf9164e617149ee7073f371364c954\n        /* \"contracts/organization/DaoAccessControl.sol\":267:297  _check(permission, msg.sender) */\n      tag_120\n        /* \"contracts/organization/DaoAccessControl.sol\":274:284  permission */\n      dup2\n        /* \"contracts/organization/DaoAccessControl.sol\":286:296  msg.sender */\n      caller\n        /* \"contracts/organization/DaoAccessControl.sol\":267:273  _check */\n      tag_63\n        /* \"contracts/organization/DaoAccessControl.sol\":267:297  _check(permission, msg.sender) */\n      jump\t// in\n    tag_120:\n        /* \"contracts/organization/DaoAccessControl.sol\":259:364  require(_check(permission, msg.sender), \"AccessControl: You have no permission to access this function.\") */\n      tag_121\n      jumpi\n      mload(0x40)\n      0x08c379a000000000000000000000000000000000000000000000000000000000\n      dup2\n      mstore\n      0x04\n      add\n      tag_122\n      swap1\n      tag_66\n      jump\t// in\n    tag_122:\n      mload(0x40)\n      dup1\n      swap2\n      sub\n      swap1\n      revert\n    tag_121:\n        /* \"contracts/organization/DaoAccessControl.sol\":1129:1183  super._grantAccountPermission(permissionName, account) */\n      tag_124\n        /* \"contracts/organization/DaoAccessControl.sol\":1159:1173  permissionName */\n      dup4\n        /* \"contracts/organization/DaoAccessControl.sol\":1175:1182  account */\n      dup4\n        /* \"contracts/organization/DaoAccessControl.sol\":1129:1158  super._grantAccountPermission */\n      tag_125\n        /* \"contracts/organization/DaoAccessControl.sol\":1129:1183  super._grantAccountPermission(permissionName, account) */\n      jump\t// in\n    tag_124:\n        /* \"contracts/organization/DaoAccessControl.sol\":985:1191  function grantAccountPermission(bytes memory permissionName, address account) \r... */\n      pop\n      pop\n      pop\n      jump\t// out\n        /* \"contracts/organization/DaoAccessControl.sol\":1199:1407  function revokeAccountPermission(bytes memory permissionName, address account) \r... */\n    tag_54:\n        /* \"contracts/AccessControl.sol\":1147:1174  keccak256(\"ACCESS_MANAGER\") */\n      0x73d57861095ed1ff7b0e5c00e25f9fc922cf9164e617149ee7073f371364c954\n        /* \"contracts/organization/DaoAccessControl.sol\":267:297  _check(permission, msg.sender) */\n      tag_127\n        /* \"contracts/organization/DaoAccessControl.sol\":274:284  permission */\n      dup2\n        /* \"contracts/organization/DaoAccessControl.sol\":286:296  msg.sender */\n      caller\n        /* \"contracts/organization/DaoAccessControl.sol\":267:273  _check */\n      tag_63\n        /* \"contracts/organization/DaoAccessControl.sol\":267:297  _check(permission, msg.sender) */\n      jump\t// in\n    tag_127:\n        /* \"contracts/organization/DaoAccessControl.sol\":259:364  require(_check(permission, msg.sender), \"AccessControl: You have no permission to access this function.\") */\n      tag_128\n      jumpi\n      mload(0x40)\n      0x08c379a000000000000000000000000000000000000000000000000000000000\n      dup2\n      mstore\n      0x04\n      add\n      tag_129\n      swap1\n      tag_66\n      jump\t// in\n    tag_129:\n      mload(0x40)\n      dup1\n      swap2\n      sub\n      swap1\n      revert\n    tag_128:\n        /* \"contracts/organization/DaoAccessControl.sol\":1344:1399  super._revokeAccountPermission(permissionName, account) */\n      tag_131\n        /* \"contracts/organization/DaoAccessControl.sol\":1375:1389  permissionName */\n      dup4\n        /* \"contracts/organization/DaoAccessControl.sol\":1391:1398  account */\n      dup4\n        /* \"contracts/organization/DaoAccessControl.sol\":1344:1374  super._revokeAccountPermission */\n      tag_132\n        /* \"contracts/organization/DaoAccessControl.sol\":1344:1399  super._revokeAccountPermission(permissionName, account) */\n      jump\t// in\n    tag_131:\n        /* \"contracts/organization/DaoAccessControl.sol\":1199:1407  function revokeAccountPermission(bytes memory permissionName, address account) \r... */\n      pop\n      pop\n      pop\n      jump\t// out\n        /* \"contracts/organization/DaoAccessControl.sol\":1717:1941  function inquiryAccountPermission(bytes32 permission, address account) \r... */\n    tag_58:\n        /* \"contracts/organization/DaoAccessControl.sol\":1851:1855  bool */\n      0x00\n        /* \"contracts/AccessControl.sol\":799:817  keccak256(\"STAFF\") */\n      0xa724c0857099da33c38b932ce5d4e84578ee9792153085d9d5e379bfba70cacb\n        /* \"contracts/organization/DaoAccessControl.sol\":267:297  _check(permission, msg.sender) */\n      tag_134\n        /* \"contracts/organization/DaoAccessControl.sol\":274:284  permission */\n      dup2\n        /* \"contracts/organization/DaoAccessControl.sol\":286:296  msg.sender */\n      caller\n        /* \"contracts/organization/DaoAccessControl.sol\":267:273  _check */\n      tag_63\n        /* \"contracts/organization/DaoAccessControl.sol\":267:297  _check(permission, msg.sender) */\n      jump\t// in\n    tag_134:\n        /* \"contracts/organization/DaoAccessControl.sol\":259:364  require(_check(permission, msg.sender), \"AccessControl: You have no permission to access this function.\") */\n      tag_135\n      jumpi\n      mload(0x40)\n      0x08c379a000000000000000000000000000000000000000000000000000000000\n      dup2\n      mstore\n      0x04\n      add\n      tag_136\n      swap1\n      tag_66\n      jump\t// in\n    tag_136:\n      mload(0x40)\n      dup1\n      swap2\n      sub\n      swap1\n      revert\n    tag_135:\n        /* \"contracts/organization/DaoAccessControl.sol\":1881:1933  super._inquiryAccountPermission(permission, account) */\n      tag_138\n        /* \"contracts/organization/DaoAccessControl.sol\":1913:1923  permission */\n      dup5\n        /* \"contracts/organization/DaoAccessControl.sol\":1925:1932  account */\n      dup5\n        /* \"contracts/organization/DaoAccessControl.sol\":1881:1912  super._inquiryAccountPermission */\n      tag_139\n        /* \"contracts/organization/DaoAccessControl.sol\":1881:1933  super._inquiryAccountPermission(permission, account) */\n      jump\t// in\n    tag_138:\n        /* \"contracts/organization/DaoAccessControl.sol\":1874:1933  return super._inquiryAccountPermission(permission, account) */\n      swap2\n      pop\n        /* \"contracts/organization/DaoAccessControl.sol\":1717:1941  function inquiryAccountPermission(bytes32 permission, address account) \r... */\n      pop\n      swap3\n      swap2\n      pop\n      pop\n      jump\t// out\n        /* \"contracts/AccessControl.sol\":1652:1924  function _check(bytes32 permission, address account) internal view virtual returns (bool) {\r... */\n    tag_63:\n        /* \"contracts/AccessControl.sol\":1736:1740  bool */\n      0x00\n        /* \"contracts/AccessControl.sol\":1757:1772  _allPermissions */\n      dup1\n        /* \"contracts/AccessControl.sol\":1757:1784  _allPermissions[permission] */\n      0x00\n        /* \"contracts/AccessControl.sol\":1773:1783  permission */\n      dup5\n        /* \"contracts/AccessControl.sol\":1757:1784  _allPermissions[permission] */\n      dup2\n      mstore\n      0x20\n      add\n      swap1\n      dup2\n      mstore\n      0x20\n      add\n      0x00\n      keccak256\n        /* \"contracts/AccessControl.sol\":1757:1792  _allPermissions[permission].isValid */\n      0x03\n      add\n      0x00\n      swap1\n      sload\n      swap1\n      0x0100\n      exp\n      swap1\n      div\n      0xff\n      and\n        /* \"contracts/AccessControl.sol\":1753:1917  if(!_allPermissions[permission].isValid) {\r... */\n      tag_141\n      jumpi\n        /* \"contracts/AccessControl.sol\":1816:1821  false */\n      0x00\n        /* \"contracts/AccessControl.sol\":1809:1821  return false */\n      swap1\n      pop\n      jump(tag_140)\n        /* \"contracts/AccessControl.sol\":1753:1917  if(!_allPermissions[permission].isValid) {\r... */\n    tag_141:\n        /* \"contracts/AccessControl.sol\":1861:1876  _allPermissions */\n      0x00\n        /* \"contracts/AccessControl.sol\":1861:1888  _allPermissions[permission] */\n      dup1\n        /* \"contracts/AccessControl.sol\":1877:1887  permission */\n      dup5\n        /* \"contracts/AccessControl.sol\":1861:1888  _allPermissions[permission] */\n      dup2\n      mstore\n      0x20\n      add\n      swap1\n      dup2\n      mstore\n      0x20\n      add\n      0x00\n      keccak256\n        /* \"contracts/AccessControl.sol\":1861:1896  _allPermissions[permission].members */\n      0x00\n      add\n        /* \"contracts/AccessControl.sol\":1861:1905  _allPermissions[permission].members[account] */\n      0x00\n        /* \"contracts/AccessControl.sol\":1897:1904  account */\n      dup4\n        /* \"contracts/AccessControl.sol\":1861:1905  _allPermissions[permission].members[account] */\n      0xffffffffffffffffffffffffffffffffffffffff\n      and\n      0xffffffffffffffffffffffffffffffffffffffff\n      and\n      dup2\n      mstore\n      0x20\n      add\n      swap1\n      dup2\n      mstore\n      0x20\n      add\n      0x00\n      keccak256\n      0x00\n      swap1\n      sload\n      swap1\n      0x0100\n      exp\n      swap1\n      div\n      0xff\n      and\n        /* \"contracts/AccessControl.sol\":1854:1905  return _allPermissions[permission].members[account] */\n      swap1\n      pop\n        /* \"contracts/AccessControl.sol\":1652:1924  function _check(bytes32 permission, address account) internal view virtual returns (bool) {\r... */\n    tag_140:\n      swap3\n      swap2\n      pop\n      pop\n      jump\t// out\n        /* \"contracts/AccessControl.sol\":4976:5480  function _deletePermission(bytes memory permissionName) internal virtual {\r... */\n    tag_69:\n        /* \"contracts/AccessControl.sol\":5060:5078  bytes32 permission */\n      0x00\n        /* \"contracts/AccessControl.sol\":5091:5105  permissionName */\n      dup2\n        /* \"contracts/AccessControl.sol\":5081:5106  keccak256(permissionName) */\n      dup1\n      mload\n      swap1\n      0x20\n      add\n      keccak256\n        /* \"contracts/AccessControl.sol\":5060:5106  bytes32 permission = keccak256(permissionName) */\n      swap1\n      pop\n        /* \"contracts/AccessControl.sol\":5121:5136  _allPermissions */\n      0x00\n        /* \"contracts/AccessControl.sol\":5121:5148  _allPermissions[permission] */\n      dup1\n        /* \"contracts/AccessControl.sol\":5137:5147  permission */\n      dup3\n        /* \"contracts/AccessControl.sol\":5121:5148  _allPermissions[permission] */\n      dup2\n      mstore\n      0x20\n      add\n      swap1\n      dup2\n      mstore\n      0x20\n      add\n      0x00\n      keccak256\n        /* \"contracts/AccessControl.sol\":5121:5156  _allPermissions[permission].isValid */\n      0x03\n      add\n      0x00\n      swap1\n      sload\n      swap1\n      0x0100\n      exp\n      swap1\n      div\n      0xff\n      and\n        /* \"contracts/AccessControl.sol\":5121:5179  _allPermissions[permission].isValid && permission != ADMIN */\n      dup1\n      iszero\n      tag_144\n      jumpi\n      pop\n        /* \"contracts/AccessControl.sol\":677:695  keccak256(\"ADMIN\") */\n      0xdf8b4c520ffe197c5343c6f5aec59570151ef9a492f2c624fd45ddde6135ec42\n        /* \"contracts/AccessControl.sol\":5160:5170  permission */\n      dup2\n        /* \"contracts/AccessControl.sol\":5160:5179  permission != ADMIN */\n      eq\n      iszero\n        /* \"contracts/AccessControl.sol\":5121:5179  _allPermissions[permission].isValid && permission != ADMIN */\n    tag_144:\n        /* \"contracts/AccessControl.sol\":5117:5473  if (_allPermissions[permission].isValid && permission != ADMIN) {\r... */\n      iszero\n      tag_145\n      jumpi\n        /* \"contracts/AccessControl.sol\":5312:5317  false */\n      0x00\n        /* \"contracts/AccessControl.sol\":5274:5289  _allPermissions */\n      dup1\n        /* \"contracts/AccessControl.sol\":5274:5301  _allPermissions[permission] */\n      0x00\n        /* \"contracts/AccessControl.sol\":5290:5300  permission */\n      dup4\n        /* \"contracts/AccessControl.sol\":5274:5301  _allPermissions[permission] */\n      dup2\n      mstore\n      0x20\n      add\n      swap1\n      dup2\n      mstore\n      0x20\n      add\n      0x00\n      keccak256\n        /* \"contracts/AccessControl.sol\":5274:5309  _allPermissions[permission].isValid */\n      0x03\n      add\n      0x00\n        /* \"contracts/AccessControl.sol\":5274:5317  _allPermissions[permission].isValid = false */\n      0x0100\n      exp\n      dup2\n      sload\n      dup2\n      0xff\n      mul\n      not\n      and\n      swap1\n      dup4\n      iszero\n      iszero\n      mul\n      or\n      swap1\n      sstore\n      pop\n        /* \"contracts/AccessControl.sol\":5371:5381  msg.sender */\n      caller\n        /* \"contracts/AccessControl.sol\":5337:5382  PermissionDeleted(permissionName, msg.sender) */\n      0xffffffffffffffffffffffffffffffffffffffff\n      and\n        /* \"contracts/AccessControl.sol\":5355:5369  permissionName */\n      dup3\n        /* \"contracts/AccessControl.sol\":5337:5382  PermissionDeleted(permissionName, msg.sender) */\n      mload(0x40)\n      tag_146\n      swap2\n      swap1\n      tag_147\n      jump\t// in\n    tag_146:\n      mload(0x40)\n      dup1\n      swap2\n      sub\n      swap1\n      keccak256\n      0xef4f3adabb4ce2cc6076cc23d211eff03f6e49839a9d773d7c77f48a83a2d859\n      mload(0x40)\n      mload(0x40)\n      dup1\n      swap2\n      sub\n      swap1\n      log3\n        /* \"contracts/AccessControl.sol\":5117:5473  if (_allPermissions[permission].isValid && permission != ADMIN) {\r... */\n      jump(tag_148)\n    tag_145:\n        /* \"contracts/AccessControl.sol\":5415:5461  _informFailure(\"The permission is not valid.\") */\n      tag_149\n      mload(0x40)\n      dup1\n      0x40\n      add\n      0x40\n      mstore\n      dup1\n      0x1c\n      dup2\n      mstore\n      0x20\n      add\n      0x546865207065726d697373696f6e206973206e6f742076616c69642e00000000\n      dup2\n      mstore\n      pop\n        /* \"contracts/AccessControl.sol\":5415:5429  _informFailure */\n      tag_150\n        /* \"contracts/AccessControl.sol\":5415:5461  _informFailure(\"The permission is not valid.\") */\n      jump\t// in\n    tag_149:\n        /* \"contracts/AccessControl.sol\":5117:5473  if (_allPermissions[permission].isValid && permission != ADMIN) {\r... */\n    tag_148:\n        /* \"contracts/AccessControl.sol\":5049:5480  {\r... */\n      pop\n        /* \"contracts/AccessControl.sol\":4976:5480  function _deletePermission(bytes memory permissionName) internal virtual {\r... */\n      pop\n      jump\t// out\n        /* \"contracts/AccessControl.sol\":7482:8165  function _deleteAccount(address account) internal virtual {\r... */\n    tag_76:\n        /* \"contracts/AccessControl.sol\":7636:7658  _check(ADMIN, account) */\n      tag_152\n        /* \"contracts/AccessControl.sol\":677:695  keccak256(\"ADMIN\") */\n      0xdf8b4c520ffe197c5343c6f5aec59570151ef9a492f2c624fd45ddde6135ec42\n        /* \"contracts/AccessControl.sol\":7650:7657  account */\n      dup3\n        /* \"contracts/AccessControl.sol\":7636:7642  _check */\n      tag_63\n        /* \"contracts/AccessControl.sol\":7636:7658  _check(ADMIN, account) */\n      jump\t// in\n    tag_152:\n        /* \"contracts/AccessControl.sol\":7635:7658  !_check(ADMIN, account) */\n      iszero\n        /* \"contracts/AccessControl.sol\":7635:7687  !_check(ADMIN, account) || _check(ADMIN, msg.sender) */\n      dup1\n      tag_153\n      jumpi\n      pop\n        /* \"contracts/AccessControl.sol\":7662:7687  _check(ADMIN, msg.sender) */\n      tag_154\n        /* \"contracts/AccessControl.sol\":677:695  keccak256(\"ADMIN\") */\n      0xdf8b4c520ffe197c5343c6f5aec59570151ef9a492f2c624fd45ddde6135ec42\n        /* \"contracts/AccessControl.sol\":7676:7686  msg.sender */\n      caller\n        /* \"contracts/AccessControl.sol\":7662:7668  _check */\n      tag_63\n        /* \"contracts/AccessControl.sol\":7662:7687  _check(ADMIN, msg.sender) */\n      jump\t// in\n    tag_154:\n        /* \"contracts/AccessControl.sol\":7635:7687  !_check(ADMIN, account) || _check(ADMIN, msg.sender) */\n    tag_153:\n        /* \"contracts/AccessControl.sol\":7632:8158  if(!_check(ADMIN, account) || _check(ADMIN, msg.sender)) {\r... */\n      iszero\n      tag_155\n      jumpi\n        /* \"contracts/AccessControl.sol\":7777:7783  uint i */\n      0x00\n        /* \"contracts/AccessControl.sol\":7786:7787  1 */\n      0x01\n        /* \"contracts/AccessControl.sol\":7777:7787  uint i = 1 */\n      swap1\n      pop\n        /* \"contracts/AccessControl.sol\":7773:8021  for(uint i = 1; i < _numberOfPermissions; i++) {\r... */\n    tag_156:\n        /* \"contracts/AccessControl.sol\":7793:7813  _numberOfPermissions */\n      sload(0x02)\n        /* \"contracts/AccessControl.sol\":7789:7790  i */\n      dup2\n        /* \"contracts/AccessControl.sol\":7789:7813  i < _numberOfPermissions */\n      lt\n        /* \"contracts/AccessControl.sol\":7773:8021  for(uint i = 1; i < _numberOfPermissions; i++) {\r... */\n      iszero\n      tag_157\n      jumpi\n        /* \"contracts/AccessControl.sol\":7842:7857  _allPermissions */\n      0x00\n        /* \"contracts/AccessControl.sol\":7842:7881  _allPermissions[_indexOfPermissions[i]] */\n      dup1\n        /* \"contracts/AccessControl.sol\":7858:7877  _indexOfPermissions */\n      0x01\n        /* \"contracts/AccessControl.sol\":7858:7880  _indexOfPermissions[i] */\n      0x00\n        /* \"contracts/AccessControl.sol\":7878:7879  i */\n      dup5\n        /* \"contracts/AccessControl.sol\":7858:7880  _indexOfPermissions[i] */\n      dup2\n      mstore\n      0x20\n      add\n      swap1\n      dup2\n      mstore\n      0x20\n      add\n      0x00\n      keccak256\n      sload\n        /* \"contracts/AccessControl.sol\":7842:7881  _allPermissions[_indexOfPermissions[i]] */\n      dup2\n      mstore\n      0x20\n      add\n      swap1\n      dup2\n      mstore\n      0x20\n      add\n      0x00\n      keccak256\n        /* \"contracts/AccessControl.sol\":7842:7889  _allPermissions[_indexOfPermissions[i]].members */\n      0x00\n      add\n        /* \"contracts/AccessControl.sol\":7842:7898  _allPermissions[_indexOfPermissions[i]].members[account] */\n      0x00\n        /* \"contracts/AccessControl.sol\":7890:7897  account */\n      dup4\n        /* \"contracts/AccessControl.sol\":7842:7898  _allPermissions[_indexOfPermissions[i]].members[account] */\n      0xffffffffffffffffffffffffffffffffffffffff\n      and\n      0xffffffffffffffffffffffffffffffffffffffff\n      and\n      dup2\n      mstore\n      0x20\n      add\n      swap1\n      dup2\n      mstore\n      0x20\n      add\n      0x00\n      keccak256\n      0x00\n      swap1\n      sload\n      swap1\n      0x0100\n      exp\n      swap1\n      div\n      0xff\n      and\n        /* \"contracts/AccessControl.sol\":7839:8006  if(_allPermissions[_indexOfPermissions[i]].members[account]){\r... */\n      iszero\n      tag_159\n      jumpi\n        /* \"contracts/AccessControl.sol\":7981:7986  false */\n      0x00\n        /* \"contracts/AccessControl.sol\":7922:7937  _allPermissions */\n      dup1\n        /* \"contracts/AccessControl.sol\":7922:7961  _allPermissions[_indexOfPermissions[i]] */\n      0x00\n        /* \"contracts/AccessControl.sol\":7938:7957  _indexOfPermissions */\n      0x01\n        /* \"contracts/AccessControl.sol\":7938:7960  _indexOfPermissions[i] */\n      0x00\n        /* \"contracts/AccessControl.sol\":7958:7959  i */\n      dup6\n        /* \"contracts/AccessControl.sol\":7938:7960  _indexOfPermissions[i] */\n      dup2\n      mstore\n      0x20\n      add\n      swap1\n      dup2\n      mstore\n      0x20\n      add\n      0x00\n      keccak256\n      sload\n        /* \"contracts/AccessControl.sol\":7922:7961  _allPermissions[_indexOfPermissions[i]] */\n      dup2\n      mstore\n      0x20\n      add\n      swap1\n      dup2\n      mstore\n      0x20\n      add\n      0x00\n      keccak256\n        /* \"contracts/AccessControl.sol\":7922:7969  _allPermissions[_indexOfPermissions[i]].members */\n      0x00\n      add\n        /* \"contracts/AccessControl.sol\":7922:7978  _allPermissions[_indexOfPermissions[i]].members[account] */\n      0x00\n        /* \"contracts/AccessControl.sol\":7970:7977  account */\n      dup5\n        /* \"contracts/AccessControl.sol\":7922:7978  _allPermissions[_indexOfPermissions[i]].members[account] */\n      0xffffffffffffffffffffffffffffffffffffffff\n      and\n      0xffffffffffffffffffffffffffffffffffffffff\n      and\n      dup2\n      mstore\n      0x20\n      add\n      swap1\n      dup2\n      mstore\n      0x20\n      add\n      0x00\n      keccak256\n      0x00\n        /* \"contracts/AccessControl.sol\":7922:7986  _allPermissions[_indexOfPermissions[i]].members[account] = false */\n      0x0100\n      exp\n      dup2\n      sload\n      dup2\n      0xff\n      mul\n      not\n      and\n      swap1\n      dup4\n      iszero\n      iszero\n      mul\n      or\n      swap1\n      sstore\n      pop\n        /* \"contracts/AccessControl.sol\":7839:8006  if(_allPermissions[_indexOfPermissions[i]].members[account]){\r... */\n    tag_159:\n        /* \"contracts/AccessControl.sol\":7815:7818  i++ */\n      dup1\n      dup1\n      tag_160\n      swap1\n      tag_161\n      jump\t// in\n    tag_160:\n      swap2\n      pop\n      pop\n        /* \"contracts/AccessControl.sol\":7773:8021  for(uint i = 1; i < _numberOfPermissions; i++) {\r... */\n      jump(tag_156)\n    tag_157:\n      pop\n        /* \"contracts/AccessControl.sol\":8060:8070  msg.sender */\n      caller\n        /* \"contracts/AccessControl.sol\":8036:8071  AccountDeleted(account, msg.sender) */\n      0xffffffffffffffffffffffffffffffffffffffff\n      and\n        /* \"contracts/AccessControl.sol\":8051:8058  account */\n      dup2\n        /* \"contracts/AccessControl.sol\":8036:8071  AccountDeleted(account, msg.sender) */\n      0xffffffffffffffffffffffffffffffffffffffff\n      and\n      0xfd7e144a5e02c1180e00f9591ef4f60aa95b127c4f134847224a4b6cb99fef96\n      mload(0x40)\n      mload(0x40)\n      dup1\n      swap2\n      sub\n      swap1\n      log3\n        /* \"contracts/AccessControl.sol\":7632:8158  if(!_check(ADMIN, account) || _check(ADMIN, msg.sender)) {\r... */\n      jump(tag_162)\n    tag_155:\n        /* \"contracts/AccessControl.sol\":8104:8146  _informFailure(\"You cannot delete ADMIN.\") */\n      tag_163\n      mload(0x40)\n      dup1\n      0x40\n      add\n      0x40\n      mstore\n      dup1\n      0x18\n      dup2\n      mstore\n      0x20\n      add\n      0x596f752063616e6e6f742064656c6574652041444d494e2e0000000000000000\n      dup2\n      mstore\n      pop\n        /* \"contracts/AccessControl.sol\":8104:8118  _informFailure */\n      tag_150\n        /* \"contracts/AccessControl.sol\":8104:8146  _informFailure(\"You cannot delete ADMIN.\") */\n      jump\t// in\n    tag_163:\n        /* \"contracts/AccessControl.sol\":7632:8158  if(!_check(ADMIN, account) || _check(ADMIN, msg.sender)) {\r... */\n    tag_162:\n        /* \"contracts/AccessControl.sol\":7482:8165  function _deleteAccount(address account) internal virtual {\r... */\n      pop\n      jump\t// out\n        /* \"contracts/AccessControl.sol\":9934:10267  function _inquiryAdmin() internal view virtual returns (address) {\r... */\n    tag_83:\n        /* \"contracts/AccessControl.sol\":9990:9997  address */\n      0x00\n        /* \"contracts/AccessControl.sol\":10010:10016  uint i */\n      dup1\n        /* \"contracts/AccessControl.sol\":10019:10020  0 */\n      0x00\n        /* \"contracts/AccessControl.sol\":10010:10020  uint i = 0 */\n      swap1\n      pop\n        /* \"contracts/AccessControl.sol\":10031:10211  for(; i < _allPermissions[ADMIN].length; i++) {\r... */\n    tag_165:\n        /* \"contracts/AccessControl.sol\":10041:10056  _allPermissions */\n      0x00\n        /* \"contracts/AccessControl.sol\":10041:10063  _allPermissions[ADMIN] */\n      dup1\n        /* \"contracts/AccessControl.sol\":677:695  keccak256(\"ADMIN\") */\n      0xdf8b4c520ffe197c5343c6f5aec59570151ef9a492f2c624fd45ddde6135ec42\n        /* \"contracts/AccessControl.sol\":10041:10063  _allPermissions[ADMIN] */\n      dup2\n      mstore\n      0x20\n      add\n      swap1\n      dup2\n      mstore\n      0x20\n      add\n      0x00\n      keccak256\n        /* \"contracts/AccessControl.sol\":10041:10070  _allPermissions[ADMIN].length */\n      0x02\n      add\n      sload\n        /* \"contracts/AccessControl.sol\":10037:10038  i */\n      dup2\n        /* \"contracts/AccessControl.sol\":10037:10070  i < _allPermissions[ADMIN].length */\n      lt\n        /* \"contracts/AccessControl.sol\":10031:10211  for(; i < _allPermissions[ADMIN].length; i++) {\r... */\n      iszero\n      tag_166\n      jumpi\n        /* \"contracts/AccessControl.sol\":10095:10110  _allPermissions */\n      0x00\n        /* \"contracts/AccessControl.sol\":10095:10117  _allPermissions[ADMIN] */\n      dup1\n        /* \"contracts/AccessControl.sol\":677:695  keccak256(\"ADMIN\") */\n      0xdf8b4c520ffe197c5343c6f5aec59570151ef9a492f2c624fd45ddde6135ec42\n        /* \"contracts/AccessControl.sol\":10095:10117  _allPermissions[ADMIN] */\n      dup2\n      mstore\n      0x20\n      add\n      swap1\n      dup2\n      mstore\n      0x20\n      add\n      0x00\n      keccak256\n        /* \"contracts/AccessControl.sol\":10095:10125  _allPermissions[ADMIN].members */\n      0x00\n      add\n        /* \"contracts/AccessControl.sol\":10095:10158  _allPermissions[ADMIN].members[_allPermissions[ADMIN].index[i]] */\n      0x00\n        /* \"contracts/AccessControl.sol\":10126:10141  _allPermissions */\n      dup1\n        /* \"contracts/AccessControl.sol\":10126:10148  _allPermissions[ADMIN] */\n      0x00\n        /* \"contracts/AccessControl.sol\":677:695  keccak256(\"ADMIN\") */\n      0xdf8b4c520ffe197c5343c6f5aec59570151ef9a492f2c624fd45ddde6135ec42\n        /* \"contracts/AccessControl.sol\":10126:10148  _allPermissions[ADMIN] */\n      dup2\n      mstore\n      0x20\n      add\n      swap1\n      dup2\n      mstore\n      0x20\n      add\n      0x00\n      keccak256\n        /* \"contracts/AccessControl.sol\":10126:10154  _allPermissions[ADMIN].index */\n      0x01\n      add\n        /* \"contracts/AccessControl.sol\":10126:10157  _allPermissions[ADMIN].index[i] */\n      0x00\n        /* \"contracts/AccessControl.sol\":10155:10156  i */\n      dup5\n        /* \"contracts/AccessControl.sol\":10126:10157  _allPermissions[ADMIN].index[i] */\n      dup2\n      mstore\n      0x20\n      add\n      swap1\n      dup2\n      mstore\n      0x20\n      add\n      0x00\n      keccak256\n      0x00\n      swap1\n      sload\n      swap1\n      0x0100\n      exp\n      swap1\n      div\n      0xffffffffffffffffffffffffffffffffffffffff\n      and\n        /* \"contracts/AccessControl.sol\":10095:10158  _allPermissions[ADMIN].members[_allPermissions[ADMIN].index[i]] */\n      0xffffffffffffffffffffffffffffffffffffffff\n      and\n      0xffffffffffffffffffffffffffffffffffffffff\n      and\n      dup2\n      mstore\n      0x20\n      add\n      swap1\n      dup2\n      mstore\n      0x20\n      add\n      0x00\n      keccak256\n      0x00\n      swap1\n      sload\n      swap1\n      0x0100\n      exp\n      swap1\n      div\n      0xff\n      and\n        /* \"contracts/AccessControl.sol\":10092:10200  if(_allPermissions[ADMIN].members[_allPermissions[ADMIN].index[i]]) {\r... */\n      iszero\n      tag_168\n      jumpi\n        /* \"contracts/AccessControl.sol\":10179:10184  break */\n      jump(tag_166)\n        /* \"contracts/AccessControl.sol\":10092:10200  if(_allPermissions[ADMIN].members[_allPermissions[ADMIN].index[i]]) {\r... */\n    tag_168:\n        /* \"contracts/AccessControl.sol\":10072:10075  i++ */\n      dup1\n      dup1\n      tag_169\n      swap1\n      tag_161\n      jump\t// in\n    tag_169:\n      swap2\n      pop\n      pop\n        /* \"contracts/AccessControl.sol\":10031:10211  for(; i < _allPermissions[ADMIN].length; i++) {\r... */\n      jump(tag_165)\n    tag_166:\n        /* \"contracts/AccessControl.sol\":10228:10243  _allPermissions */\n      0x00\n        /* \"contracts/AccessControl.sol\":10228:10250  _allPermissions[ADMIN] */\n      dup1\n        /* \"contracts/AccessControl.sol\":677:695  keccak256(\"ADMIN\") */\n      0xdf8b4c520ffe197c5343c6f5aec59570151ef9a492f2c624fd45ddde6135ec42\n        /* \"contracts/AccessControl.sol\":10228:10250  _allPermissions[ADMIN] */\n      dup2\n      mstore\n      0x20\n      add\n      swap1\n      dup2\n      mstore\n      0x20\n      add\n      0x00\n      keccak256\n        /* \"contracts/AccessControl.sol\":10228:10256  _allPermissions[ADMIN].index */\n      0x01\n      add\n        /* \"contracts/AccessControl.sol\":10228:10259  _allPermissions[ADMIN].index[i] */\n      0x00\n        /* \"contracts/AccessControl.sol\":10257:10258  i */\n      dup3\n        /* \"contracts/AccessControl.sol\":10228:10259  _allPermissions[ADMIN].index[i] */\n      dup2\n      mstore\n      0x20\n      add\n      swap1\n      dup2\n      mstore\n      0x20\n      add\n      0x00\n      keccak256\n      0x00\n      swap1\n      sload\n      swap1\n      0x0100\n      exp\n      swap1\n      div\n      0xffffffffffffffffffffffffffffffffffffffff\n      and\n        /* \"contracts/AccessControl.sol\":10221:10259  return _allPermissions[ADMIN].index[i] */\n      swap2\n      pop\n      pop\n        /* \"contracts/AccessControl.sol\":9934:10267  function _inquiryAdmin() internal view virtual returns (address) {\r... */\n      swap1\n      jump\t// out\n        /* \"contracts/AccessControl.sol\":8173:8455  function _transferAdmin(address account) internal virtual {\r... */\n    tag_90:\n        /* \"contracts/AccessControl.sol\":8287:8292  false */\n      0x00\n        /* \"contracts/AccessControl.sol\":8242:8257  _allPermissions */\n      dup1\n        /* \"contracts/AccessControl.sol\":8242:8264  _allPermissions[ADMIN] */\n      0x00\n        /* \"contracts/AccessControl.sol\":677:695  keccak256(\"ADMIN\") */\n      0xdf8b4c520ffe197c5343c6f5aec59570151ef9a492f2c624fd45ddde6135ec42\n        /* \"contracts/AccessControl.sol\":8242:8264  _allPermissions[ADMIN] */\n      dup2\n      mstore\n      0x20\n      add\n      swap1\n      dup2\n      mstore\n      0x20\n      add\n      0x00\n      keccak256\n        /* \"contracts/AccessControl.sol\":8242:8272  _allPermissions[ADMIN].members */\n      0x00\n      add\n        /* \"contracts/AccessControl.sol\":8242:8284  _allPermissions[ADMIN].members[msg.sender] */\n      0x00\n        /* \"contracts/AccessControl.sol\":8273:8283  msg.sender */\n      caller\n        /* \"contracts/AccessControl.sol\":8242:8284  _allPermissions[ADMIN].members[msg.sender] */\n      0xffffffffffffffffffffffffffffffffffffffff\n      and\n      0xffffffffffffffffffffffffffffffffffffffff\n      and\n      dup2\n      mstore\n      0x20\n      add\n      swap1\n      dup2\n      mstore\n      0x20\n      add\n      0x00\n      keccak256\n      0x00\n        /* \"contracts/AccessControl.sol\":8242:8292  _allPermissions[ADMIN].members[msg.sender] = false */\n      0x0100\n      exp\n      dup2\n      sload\n      dup2\n      0xff\n      mul\n      not\n      and\n      swap1\n      dup4\n      iszero\n      iszero\n      mul\n      or\n      swap1\n      sstore\n      pop\n        /* \"contracts/AccessControl.sol\":8303:8338  _changeAccountIndex(ADMIN, account) */\n      tag_171\n        /* \"contracts/AccessControl.sol\":677:695  keccak256(\"ADMIN\") */\n      0xdf8b4c520ffe197c5343c6f5aec59570151ef9a492f2c624fd45ddde6135ec42\n        /* \"contracts/AccessControl.sol\":8330:8337  account */\n      dup3\n        /* \"contracts/AccessControl.sol\":8303:8322  _changeAccountIndex */\n      tag_172\n        /* \"contracts/AccessControl.sol\":8303:8338  _changeAccountIndex(ADMIN, account) */\n      jump\t// in\n    tag_171:\n        /* \"contracts/AccessControl.sol\":8391:8395  true */\n      0x01\n        /* \"contracts/AccessControl.sol\":8349:8364  _allPermissions */\n      0x00\n        /* \"contracts/AccessControl.sol\":8349:8371  _allPermissions[ADMIN] */\n      dup1\n        /* \"contracts/AccessControl.sol\":677:695  keccak256(\"ADMIN\") */\n      0xdf8b4c520ffe197c5343c6f5aec59570151ef9a492f2c624fd45ddde6135ec42\n        /* \"contracts/AccessControl.sol\":8349:8371  _allPermissions[ADMIN] */\n      dup2\n      mstore\n      0x20\n      add\n      swap1\n      dup2\n      mstore\n      0x20\n      add\n      0x00\n      keccak256\n        /* \"contracts/AccessControl.sol\":8349:8379  _allPermissions[ADMIN].members */\n      0x00\n      add\n        /* \"contracts/AccessControl.sol\":8349:8388  _allPermissions[ADMIN].members[account] */\n      0x00\n        /* \"contracts/AccessControl.sol\":8380:8387  account */\n      dup4\n        /* \"contracts/AccessControl.sol\":8349:8388  _allPermissions[ADMIN].members[account] */\n      0xffffffffffffffffffffffffffffffffffffffff\n      and\n      0xffffffffffffffffffffffffffffffffffffffff\n      and\n      dup2\n      mstore\n      0x20\n      add\n      swap1\n      dup2\n      mstore\n      0x20\n      add\n      0x00\n      keccak256\n      0x00\n        /* \"contracts/AccessControl.sol\":8349:8395  _allPermissions[ADMIN].members[account] = true */\n      0x0100\n      exp\n      dup2\n      sload\n      dup2\n      0xff\n      mul\n      not\n      and\n      swap1\n      dup4\n      iszero\n      iszero\n      mul\n      or\n      swap1\n      sstore\n      pop\n        /* \"contracts/AccessControl.sol\":8436:8446  msg.sender */\n      caller\n        /* \"contracts/AccessControl.sol\":8411:8447  AdminTransfered(account, msg.sender) */\n      0xffffffffffffffffffffffffffffffffffffffff\n      and\n        /* \"contracts/AccessControl.sol\":8427:8434  account */\n      dup2\n        /* \"contracts/AccessControl.sol\":8411:8447  AdminTransfered(account, msg.sender) */\n      0xffffffffffffffffffffffffffffffffffffffff\n      and\n      0x173de3514d8508f36ce8c81d509adcd8c8c76098400f685d3042b36f9a4160c3\n      mload(0x40)\n      mload(0x40)\n      dup1\n      swap2\n      sub\n      swap1\n      log3\n        /* \"contracts/AccessControl.sol\":8173:8455  function _transferAdmin(address account) internal virtual {\r... */\n      pop\n      jump\t// out\n        /* \"contracts/AccessControl.sol\":8843:9334  function _inquiryAllPermissionsByAccount(address account) \r... */\n    tag_97:\n        /* \"contracts/AccessControl.sol\":8952:8968  bytes32[] memory */\n      0x60\n        /* \"contracts/AccessControl.sol\":8987:9022  bytes32[] memory relatedPermissions */\n      dup1\n        /* \"contracts/AccessControl.sol\":9033:9039  uint j */\n      0x00\n        /* \"contracts/AccessControl.sol\":9058:9064  uint i */\n      dup1\n        /* \"contracts/AccessControl.sol\":9054:9291  for(uint i = 0; i < _numberOfPermissions; i++) {\r... */\n    tag_174:\n        /* \"contracts/AccessControl.sol\":9074:9094  _numberOfPermissions */\n      sload(0x02)\n        /* \"contracts/AccessControl.sol\":9070:9071  i */\n      dup2\n        /* \"contracts/AccessControl.sol\":9070:9094  i < _numberOfPermissions */\n      lt\n        /* \"contracts/AccessControl.sol\":9054:9291  for(uint i = 0; i < _numberOfPermissions; i++) {\r... */\n      iszero\n      tag_175\n      jumpi\n        /* \"contracts/AccessControl.sol\":9119:9134  _allPermissions */\n      0x00\n        /* \"contracts/AccessControl.sol\":9119:9158  _allPermissions[_indexOfPermissions[i]] */\n      dup1\n        /* \"contracts/AccessControl.sol\":9135:9154  _indexOfPermissions */\n      0x01\n        /* \"contracts/AccessControl.sol\":9135:9157  _indexOfPermissions[i] */\n      0x00\n        /* \"contracts/AccessControl.sol\":9155:9156  i */\n      dup5\n        /* \"contracts/AccessControl.sol\":9135:9157  _indexOfPermissions[i] */\n      dup2\n      mstore\n      0x20\n      add\n      swap1\n      dup2\n      mstore\n      0x20\n      add\n      0x00\n      keccak256\n      sload\n        /* \"contracts/AccessControl.sol\":9119:9158  _allPermissions[_indexOfPermissions[i]] */\n      dup2\n      mstore\n      0x20\n      add\n      swap1\n      dup2\n      mstore\n      0x20\n      add\n      0x00\n      keccak256\n        /* \"contracts/AccessControl.sol\":9119:9166  _allPermissions[_indexOfPermissions[i]].members */\n      0x00\n      add\n        /* \"contracts/AccessControl.sol\":9119:9175  _allPermissions[_indexOfPermissions[i]].members[account] */\n      0x00\n        /* \"contracts/AccessControl.sol\":9167:9174  account */\n      dup7\n        /* \"contracts/AccessControl.sol\":9119:9175  _allPermissions[_indexOfPermissions[i]].members[account] */\n      0xffffffffffffffffffffffffffffffffffffffff\n      and\n      0xffffffffffffffffffffffffffffffffffffffff\n      and\n      dup2\n      mstore\n      0x20\n      add\n      swap1\n      dup2\n      mstore\n      0x20\n      add\n      0x00\n      keccak256\n      0x00\n      swap1\n      sload\n      swap1\n      0x0100\n      exp\n      swap1\n      div\n      0xff\n      and\n        /* \"contracts/AccessControl.sol\":9116:9280  if(_allPermissions[_indexOfPermissions[i]].members[account]) {\r... */\n      iszero\n      tag_177\n      jumpi\n        /* \"contracts/AccessControl.sol\":9220:9239  _indexOfPermissions */\n      0x01\n        /* \"contracts/AccessControl.sol\":9220:9242  _indexOfPermissions[i] */\n      0x00\n        /* \"contracts/AccessControl.sol\":9240:9241  i */\n      dup3\n        /* \"contracts/AccessControl.sol\":9220:9242  _indexOfPermissions[i] */\n      dup2\n      mstore\n      0x20\n      add\n      swap1\n      dup2\n      mstore\n      0x20\n      add\n      0x00\n      keccak256\n      sload\n        /* \"contracts/AccessControl.sol\":9196:9214  relatedPermissions */\n      dup4\n        /* \"contracts/AccessControl.sol\":9215:9216  j */\n      dup4\n        /* \"contracts/AccessControl.sol\":9196:9217  relatedPermissions[j] */\n      dup2\n      mload\n      dup2\n      lt\n      tag_178\n      jumpi\n      tag_179\n      tag_180\n      jump\t// in\n    tag_179:\n    tag_178:\n      0x20\n      mul\n      0x20\n      add\n      add\n        /* \"contracts/AccessControl.sol\":9196:9242  relatedPermissions[j] = _indexOfPermissions[i] */\n      dup2\n      dup2\n      mstore\n      pop\n      pop\n        /* \"contracts/AccessControl.sol\":9261:9264  j++ */\n      dup2\n      dup1\n      tag_181\n      swap1\n      tag_161\n      jump\t// in\n    tag_181:\n      swap3\n      pop\n      pop\n        /* \"contracts/AccessControl.sol\":9116:9280  if(_allPermissions[_indexOfPermissions[i]].members[account]) {\r... */\n    tag_177:\n        /* \"contracts/AccessControl.sol\":9096:9099  i++ */\n      dup1\n      dup1\n      tag_182\n      swap1\n      tag_161\n      jump\t// in\n    tag_182:\n      swap2\n      pop\n      pop\n        /* \"contracts/AccessControl.sol\":9054:9291  for(uint i = 0; i < _numberOfPermissions; i++) {\r... */\n      jump(tag_174)\n    tag_175:\n      pop\n        /* \"contracts/AccessControl.sol\":9308:9326  relatedPermissions */\n      dup2\n        /* \"contracts/AccessControl.sol\":9301:9326  return relatedPermissions */\n      swap3\n      pop\n      pop\n      pop\n        /* \"contracts/AccessControl.sol\":8843:9334  function _inquiryAllPermissionsByAccount(address account) \r... */\n      swap2\n      swap1\n      pop\n      jump\t// out\n        /* \"contracts/AccessControl.sol\":9342:9926  function _inquiryAllAccountsByPermission(bytes32 permission) \r... */\n    tag_104:\n        /* \"contracts/AccessControl.sol\":9454:9470  address[] memory */\n      0x60\n        /* \"contracts/AccessControl.sol\":9489:9521  address[] memory relatedAccounts */\n      dup1\n        /* \"contracts/AccessControl.sol\":9532:9538  uint j */\n      0x00\n        /* \"contracts/AccessControl.sol\":9557:9563  uint i */\n      dup1\n        /* \"contracts/AccessControl.sol\":9553:9886  for(uint i = 0; i < _allPermissions[permission].length; i++) {\r... */\n    tag_184:\n        /* \"contracts/AccessControl.sol\":9573:9588  _allPermissions */\n      0x00\n        /* \"contracts/AccessControl.sol\":9573:9600  _allPermissions[permission] */\n      dup1\n        /* \"contracts/AccessControl.sol\":9589:9599  permission */\n      dup7\n        /* \"contracts/AccessControl.sol\":9573:9600  _allPermissions[permission] */\n      dup2\n      mstore\n      0x20\n      add\n      swap1\n      dup2\n      mstore\n      0x20\n      add\n      0x00\n      keccak256\n        /* \"contracts/AccessControl.sol\":9573:9607  _allPermissions[permission].length */\n      0x02\n      add\n      sload\n        /* \"contracts/AccessControl.sol\":9569:9570  i */\n      dup2\n        /* \"contracts/AccessControl.sol\":9569:9607  i < _allPermissions[permission].length */\n      lt\n        /* \"contracts/AccessControl.sol\":9553:9886  for(uint i = 0; i < _allPermissions[permission].length; i++) {\r... */\n      iszero\n      tag_185\n      jumpi\n        /* \"contracts/AccessControl.sol\":9686:9701  _allPermissions */\n      0x00\n        /* \"contracts/AccessControl.sol\":9686:9713  _allPermissions[permission] */\n      dup1\n        /* \"contracts/AccessControl.sol\":9702:9712  permission */\n      dup7\n        /* \"contracts/AccessControl.sol\":9686:9713  _allPermissions[permission] */\n      dup2\n      mstore\n      0x20\n      add\n      swap1\n      dup2\n      mstore\n      0x20\n      add\n      0x00\n      keccak256\n        /* \"contracts/AccessControl.sol\":9686:9721  _allPermissions[permission].members */\n      0x00\n      add\n        /* \"contracts/AccessControl.sol\":9686:9759  _allPermissions[permission].members[_allPermissions[permission].index[i]] */\n      0x00\n        /* \"contracts/AccessControl.sol\":9722:9737  _allPermissions */\n      dup1\n        /* \"contracts/AccessControl.sol\":9722:9749  _allPermissions[permission] */\n      0x00\n        /* \"contracts/AccessControl.sol\":9738:9748  permission */\n      dup9\n        /* \"contracts/AccessControl.sol\":9722:9749  _allPermissions[permission] */\n      dup2\n      mstore\n      0x20\n      add\n      swap1\n      dup2\n      mstore\n      0x20\n      add\n      0x00\n      keccak256\n        /* \"contracts/AccessControl.sol\":9722:9755  _allPermissions[permission].index */\n      0x01\n      add\n        /* \"contracts/AccessControl.sol\":9722:9758  _allPermissions[permission].index[i] */\n      0x00\n        /* \"contracts/AccessControl.sol\":9756:9757  i */\n      dup5\n        /* \"contracts/AccessControl.sol\":9722:9758  _allPermissions[permission].index[i] */\n      dup2\n      mstore\n      0x20\n      add\n      swap1\n      dup2\n      mstore\n      0x20\n      add\n      0x00\n      keccak256\n      0x00\n      swap1\n      sload\n      swap1\n      0x0100\n      exp\n      swap1\n      div\n      0xffffffffffffffffffffffffffffffffffffffff\n      and\n        /* \"contracts/AccessControl.sol\":9686:9759  _allPermissions[permission].members[_allPermissions[permission].index[i]] */\n      0xffffffffffffffffffffffffffffffffffffffff\n      and\n      0xffffffffffffffffffffffffffffffffffffffff\n      and\n      dup2\n      mstore\n      0x20\n      add\n      swap1\n      dup2\n      mstore\n      0x20\n      add\n      0x00\n      keccak256\n      0x00\n      swap1\n      sload\n      swap1\n      0x0100\n      exp\n      swap1\n      div\n      0xff\n      and\n        /* \"contracts/AccessControl.sol\":9683:9875  if(_allPermissions[permission].members[_allPermissions[permission].index[i]]) {\r... */\n      iszero\n      tag_187\n      jumpi\n        /* \"contracts/AccessControl.sol\":9801:9816  _allPermissions */\n      0x00\n        /* \"contracts/AccessControl.sol\":9801:9828  _allPermissions[permission] */\n      dup1\n        /* \"contracts/AccessControl.sol\":9817:9827  permission */\n      dup7\n        /* \"contracts/AccessControl.sol\":9801:9828  _allPermissions[permission] */\n      dup2\n      mstore\n      0x20\n      add\n      swap1\n      dup2\n      mstore\n      0x20\n      add\n      0x00\n      keccak256\n        /* \"contracts/AccessControl.sol\":9801:9834  _allPermissions[permission].index */\n      0x01\n      add\n        /* \"contracts/AccessControl.sol\":9801:9837  _allPermissions[permission].index[i] */\n      0x00\n        /* \"contracts/AccessControl.sol\":9835:9836  i */\n      dup3\n        /* \"contracts/AccessControl.sol\":9801:9837  _allPermissions[permission].index[i] */\n      dup2\n      mstore\n      0x20\n      add\n      swap1\n      dup2\n      mstore\n      0x20\n      add\n      0x00\n      keccak256\n      0x00\n      swap1\n      sload\n      swap1\n      0x0100\n      exp\n      swap1\n      div\n      0xffffffffffffffffffffffffffffffffffffffff\n      and\n        /* \"contracts/AccessControl.sol\":9780:9795  relatedAccounts */\n      dup4\n        /* \"contracts/AccessControl.sol\":9796:9797  j */\n      dup4\n        /* \"contracts/AccessControl.sol\":9780:9798  relatedAccounts[j] */\n      dup2\n      mload\n      dup2\n      lt\n      tag_188\n      jumpi\n      tag_189\n      tag_180\n      jump\t// in\n    tag_189:\n    tag_188:\n      0x20\n      mul\n      0x20\n      add\n      add\n        /* \"contracts/AccessControl.sol\":9780:9837  relatedAccounts[j] = _allPermissions[permission].index[i] */\n      swap1\n      0xffffffffffffffffffffffffffffffffffffffff\n      and\n      swap1\n      dup2\n      0xffffffffffffffffffffffffffffffffffffffff\n      and\n      dup2\n      mstore\n      pop\n      pop\n        /* \"contracts/AccessControl.sol\":9856:9859  j++ */\n      dup2\n      dup1\n      tag_190\n      swap1\n      tag_161\n      jump\t// in\n    tag_190:\n      swap3\n      pop\n      pop\n        /* \"contracts/AccessControl.sol\":9683:9875  if(_allPermissions[permission].members[_allPermissions[permission].index[i]]) {\r... */\n    tag_187:\n        /* \"contracts/AccessControl.sol\":9609:9612  i++ */\n      dup1\n      dup1\n      tag_191\n      swap1\n      tag_161\n      jump\t// in\n    tag_191:\n      swap2\n      pop\n      pop\n        /* \"contracts/AccessControl.sol\":9553:9886  for(uint i = 0; i < _allPermissions[permission].length; i++) {\r... */\n      jump(tag_184)\n    tag_185:\n      pop\n        /* \"contracts/AccessControl.sol\":9903:9918  relatedAccounts */\n      dup2\n        /* \"contracts/AccessControl.sol\":9896:9918  return relatedAccounts */\n      swap3\n      pop\n      pop\n      pop\n        /* \"contracts/AccessControl.sol\":9342:9926  function _inquiryAllAccountsByPermission(bytes32 permission) \r... */\n      swap2\n      swap1\n      pop\n      jump\t// out\n        /* \"contracts/AccessControl.sol\":3907:4968  function _createPermissionByLevel(bytes memory permissionName, bytes memory permissionAlready) internal virtual {\r... */\n    tag_111:\n        /* \"contracts/AccessControl.sol\":4030:4048  bytes32 permission */\n      0x00\n        /* \"contracts/AccessControl.sol\":4061:4075  permissionName */\n      dup3\n        /* \"contracts/AccessControl.sol\":4051:4076  keccak256(permissionName) */\n      dup1\n      mload\n      swap1\n      0x20\n      add\n      keccak256\n        /* \"contracts/AccessControl.sol\":4030:4076  bytes32 permission = keccak256(permissionName) */\n      swap1\n      pop\n        /* \"contracts/AccessControl.sol\":4087:4106  bytes32 permissionA */\n      0x00\n        /* \"contracts/AccessControl.sol\":4119:4136  permissionAlready */\n      dup3\n        /* \"contracts/AccessControl.sol\":4109:4137  keccak256(permissionAlready) */\n      dup1\n      mload\n      swap1\n      0x20\n      add\n      keccak256\n        /* \"contracts/AccessControl.sol\":4087:4137  bytes32 permissionA = keccak256(permissionAlready) */\n      swap1\n      pop\n        /* \"contracts/AccessControl.sol\":4153:4168  _allPermissions */\n      0x00\n        /* \"contracts/AccessControl.sol\":4153:4180  _allPermissions[permission] */\n      dup1\n        /* \"contracts/AccessControl.sol\":4169:4179  permission */\n      dup4\n        /* \"contracts/AccessControl.sol\":4153:4180  _allPermissions[permission] */\n      dup2\n      mstore\n      0x20\n      add\n      swap1\n      dup2\n      mstore\n      0x20\n      add\n      0x00\n      keccak256\n        /* \"contracts/AccessControl.sol\":4153:4188  _allPermissions[permission].isValid */\n      0x03\n      add\n      0x00\n      swap1\n      sload\n      swap1\n      0x0100\n      exp\n      swap1\n      div\n      0xff\n      and\n        /* \"contracts/AccessControl.sol\":4148:4961  if (!_allPermissions[permission].isValid) {\r... */\n      tag_193\n      jumpi\n        /* \"contracts/AccessControl.sol\":4205:4239  _changePermissionIndex(permission) */\n      tag_194\n        /* \"contracts/AccessControl.sol\":4228:4238  permission */\n      dup3\n        /* \"contracts/AccessControl.sol\":4205:4227  _changePermissionIndex */\n      tag_195\n        /* \"contracts/AccessControl.sol\":4205:4239  _changePermissionIndex(permission) */\n      jump\t// in\n    tag_194:\n        /* \"contracts/AccessControl.sol\":4292:4296  true */\n      0x01\n        /* \"contracts/AccessControl.sol\":4254:4269  _allPermissions */\n      0x00\n        /* \"contracts/AccessControl.sol\":4254:4281  _allPermissions[permission] */\n      dup1\n        /* \"contracts/AccessControl.sol\":4270:4280  permission */\n      dup5\n        /* \"contracts/AccessControl.sol\":4254:4281  _allPermissions[permission] */\n      dup2\n      mstore\n      0x20\n      add\n      swap1\n      dup2\n      mstore\n      0x20\n      add\n      0x00\n      keccak256\n        /* \"contracts/AccessControl.sol\":4254:4289  _allPermissions[permission].isValid */\n      0x03\n      add\n      0x00\n        /* \"contracts/AccessControl.sol\":4254:4296  _allPermissions[permission].isValid = true */\n      0x0100\n      exp\n      dup2\n      sload\n      dup2\n      0xff\n      mul\n      not\n      and\n      swap1\n      dup4\n      iszero\n      iszero\n      mul\n      or\n      swap1\n      sstore\n      pop\n        /* \"contracts/AccessControl.sol\":4363:4369  uint i */\n      0x00\n        /* \"contracts/AccessControl.sol\":4359:4715  for(uint i = 0; i < _allPermissions[permissionA].length; i++) {\r... */\n    tag_196:\n        /* \"contracts/AccessControl.sol\":4379:4394  _allPermissions */\n      0x00\n        /* \"contracts/AccessControl.sol\":4379:4407  _allPermissions[permissionA] */\n      dup1\n        /* \"contracts/AccessControl.sol\":4395:4406  permissionA */\n      dup4\n        /* \"contracts/AccessControl.sol\":4379:4407  _allPermissions[permissionA] */\n      dup2\n      mstore\n      0x20\n      add\n      swap1\n      dup2\n      mstore\n      0x20\n      add\n      0x00\n      keccak256\n        /* \"contracts/AccessControl.sol\":4379:4414  _allPermissions[permissionA].length */\n      0x02\n      add\n      sload\n        /* \"contracts/AccessControl.sol\":4375:4376  i */\n      dup2\n        /* \"contracts/AccessControl.sol\":4375:4414  i < _allPermissions[permissionA].length */\n      lt\n        /* \"contracts/AccessControl.sol\":4359:4715  for(uint i = 0; i < _allPermissions[permissionA].length; i++) {\r... */\n      iszero\n      tag_197\n      jumpi\n        /* \"contracts/AccessControl.sol\":4440:4462  address indexOfAddress */\n      0x00\n        /* \"contracts/AccessControl.sol\":4465:4480  _allPermissions */\n      dup1\n        /* \"contracts/AccessControl.sol\":4465:4493  _allPermissions[permissionA] */\n      0x00\n        /* \"contracts/AccessControl.sol\":4481:4492  permissionA */\n      dup5\n        /* \"contracts/AccessControl.sol\":4465:4493  _allPermissions[permissionA] */\n      dup2\n      mstore\n      0x20\n      add\n      swap1\n      dup2\n      mstore\n      0x20\n      add\n      0x00\n      keccak256\n        /* \"contracts/AccessControl.sol\":4465:4499  _allPermissions[permissionA].index */\n      0x01\n      add\n        /* \"contracts/AccessControl.sol\":4465:4502  _allPermissions[permissionA].index[i] */\n      0x00\n        /* \"contracts/AccessControl.sol\":4500:4501  i */\n      dup4\n        /* \"contracts/AccessControl.sol\":4465:4502  _allPermissions[permissionA].index[i] */\n      dup2\n      mstore\n      0x20\n      add\n      swap1\n      dup2\n      mstore\n      0x20\n      add\n      0x00\n      keccak256\n      0x00\n      swap1\n      sload\n      swap1\n      0x0100\n      exp\n      swap1\n      div\n      0xffffffffffffffffffffffffffffffffffffffff\n      and\n        /* \"contracts/AccessControl.sol\":4440:4502  address indexOfAddress = _allPermissions[permissionA].index[i] */\n      swap1\n      pop\n        /* \"contracts/AccessControl.sol\":4575:4590  _allPermissions */\n      0x00\n        /* \"contracts/AccessControl.sol\":4575:4603  _allPermissions[permissionA] */\n      dup1\n        /* \"contracts/AccessControl.sol\":4591:4602  permissionA */\n      dup5\n        /* \"contracts/AccessControl.sol\":4575:4603  _allPermissions[permissionA] */\n      dup2\n      mstore\n      0x20\n      add\n      swap1\n      dup2\n      mstore\n      0x20\n      add\n      0x00\n      keccak256\n        /* \"contracts/AccessControl.sol\":4575:4611  _allPermissions[permissionA].members */\n      0x00\n      add\n        /* \"contracts/AccessControl.sol\":4575:4627  _allPermissions[permissionA].members[indexOfAddress] */\n      0x00\n        /* \"contracts/AccessControl.sol\":4612:4626  indexOfAddress */\n      dup3\n        /* \"contracts/AccessControl.sol\":4575:4627  _allPermissions[permissionA].members[indexOfAddress] */\n      0xffffffffffffffffffffffffffffffffffffffff\n      and\n      0xffffffffffffffffffffffffffffffffffffffff\n      and\n      dup2\n      mstore\n      0x20\n      add\n      swap1\n      dup2\n      mstore\n      0x20\n      add\n      0x00\n      keccak256\n      0x00\n      swap1\n      sload\n      swap1\n      0x0100\n      exp\n      swap1\n      div\n      0xff\n      and\n        /* \"contracts/AccessControl.sol\":4521:4536  _allPermissions */\n      0x00\n        /* \"contracts/AccessControl.sol\":4521:4548  _allPermissions[permission] */\n      dup1\n        /* \"contracts/AccessControl.sol\":4537:4547  permission */\n      dup7\n        /* \"contracts/AccessControl.sol\":4521:4548  _allPermissions[permission] */\n      dup2\n      mstore\n      0x20\n      add\n      swap1\n      dup2\n      mstore\n      0x20\n      add\n      0x00\n      keccak256\n        /* \"contracts/AccessControl.sol\":4521:4556  _allPermissions[permission].members */\n      0x00\n      add\n        /* \"contracts/AccessControl.sol\":4521:4572  _allPermissions[permission].members[indexOfAddress] */\n      0x00\n        /* \"contracts/AccessControl.sol\":4557:4571  indexOfAddress */\n      dup4\n        /* \"contracts/AccessControl.sol\":4521:4572  _allPermissions[permission].members[indexOfAddress] */\n      0xffffffffffffffffffffffffffffffffffffffff\n      and\n      0xffffffffffffffffffffffffffffffffffffffff\n      and\n      dup2\n      mstore\n      0x20\n      add\n      swap1\n      dup2\n      mstore\n      0x20\n      add\n      0x00\n      keccak256\n      0x00\n        /* \"contracts/AccessControl.sol\":4521:4627  _allPermissions[permission].members[indexOfAddress] = _allPermissions[permissionA].members[indexOfAddress] */\n      0x0100\n      exp\n      dup2\n      sload\n      dup2\n      0xff\n      mul\n      not\n      and\n      swap1\n      dup4\n      iszero\n      iszero\n      mul\n      or\n      swap1\n      sstore\n      pop\n        /* \"contracts/AccessControl.sol\":4685:4699  indexOfAddress */\n      dup1\n        /* \"contracts/AccessControl.sol\":4646:4661  _allPermissions */\n      0x00\n        /* \"contracts/AccessControl.sol\":4646:4673  _allPermissions[permission] */\n      dup1\n        /* \"contracts/AccessControl.sol\":4662:4672  permission */\n      dup7\n        /* \"contracts/AccessControl.sol\":4646:4673  _allPermissions[permission] */\n      dup2\n      mstore\n      0x20\n      add\n      swap1\n      dup2\n      mstore\n      0x20\n      add\n      0x00\n      keccak256\n        /* \"contracts/AccessControl.sol\":4646:4679  _allPermissions[permission].index */\n      0x01\n      add\n        /* \"contracts/AccessControl.sol\":4646:4682  _allPermissions[permission].index[i] */\n      0x00\n        /* \"contracts/AccessControl.sol\":4680:4681  i */\n      dup5\n        /* \"contracts/AccessControl.sol\":4646:4682  _allPermissions[permission].index[i] */\n      dup2\n      mstore\n      0x20\n      add\n      swap1\n      dup2\n      mstore\n      0x20\n      add\n      0x00\n      keccak256\n      0x00\n        /* \"contracts/AccessControl.sol\":4646:4699  _allPermissions[permission].index[i] = indexOfAddress */\n      0x0100\n      exp\n      dup2\n      sload\n      dup2\n      0xffffffffffffffffffffffffffffffffffffffff\n      mul\n      not\n      and\n      swap1\n      dup4\n      0xffffffffffffffffffffffffffffffffffffffff\n      and\n      mul\n      or\n      swap1\n      sstore\n      pop\n        /* \"contracts/AccessControl.sol\":4421:4715  {\r... */\n      pop\n        /* \"contracts/AccessControl.sol\":4416:4419  i++ */\n      dup1\n      dup1\n      tag_199\n      swap1\n      tag_161\n      jump\t// in\n    tag_199:\n      swap2\n      pop\n      pop\n        /* \"contracts/AccessControl.sol\":4359:4715  for(uint i = 0; i < _allPermissions[permissionA].length; i++) {\r... */\n      jump(tag_196)\n    tag_197:\n      pop\n        /* \"contracts/AccessControl.sol\":4766:4781  _allPermissions */\n      0x00\n        /* \"contracts/AccessControl.sol\":4766:4794  _allPermissions[permissionA] */\n      dup1\n        /* \"contracts/AccessControl.sol\":4782:4793  permissionA */\n      dup3\n        /* \"contracts/AccessControl.sol\":4766:4794  _allPermissions[permissionA] */\n      dup2\n      mstore\n      0x20\n      add\n      swap1\n      dup2\n      mstore\n      0x20\n      add\n      0x00\n      keccak256\n        /* \"contracts/AccessControl.sol\":4766:4801  _allPermissions[permissionA].length */\n      0x02\n      add\n      sload\n        /* \"contracts/AccessControl.sol\":4729:4744  _allPermissions */\n      0x00\n        /* \"contracts/AccessControl.sol\":4729:4756  _allPermissions[permission] */\n      dup1\n        /* \"contracts/AccessControl.sol\":4745:4755  permission */\n      dup5\n        /* \"contracts/AccessControl.sol\":4729:4756  _allPermissions[permission] */\n      dup2\n      mstore\n      0x20\n      add\n      swap1\n      dup2\n      mstore\n      0x20\n      add\n      0x00\n      keccak256\n        /* \"contracts/AccessControl.sol\":4729:4763  _allPermissions[permission].length */\n      0x02\n      add\n        /* \"contracts/AccessControl.sol\":4729:4801  _allPermissions[permission].length = _allPermissions[permissionA].length */\n      dup2\n      swap1\n      sstore\n      pop\n        /* \"contracts/AccessControl.sol\":4855:4865  msg.sender */\n      caller\n        /* \"contracts/AccessControl.sol\":4821:4866  PermissionCreated(permissionName, msg.sender) */\n      0xffffffffffffffffffffffffffffffffffffffff\n      and\n        /* \"contracts/AccessControl.sol\":4839:4853  permissionName */\n      dup5\n        /* \"contracts/AccessControl.sol\":4821:4866  PermissionCreated(permissionName, msg.sender) */\n      mload(0x40)\n      tag_200\n      swap2\n      swap1\n      tag_147\n      jump\t// in\n    tag_200:\n      mload(0x40)\n      dup1\n      swap2\n      sub\n      swap1\n      keccak256\n      0x629a748ba580fe181c6ae2d3673c4bdfea9e1f2d334f36beec502aff5dbaeff2\n      mload(0x40)\n      mload(0x40)\n      dup1\n      swap2\n      sub\n      swap1\n      log3\n        /* \"contracts/AccessControl.sol\":4148:4961  if (!_allPermissions[permission].isValid) {\r... */\n      jump(tag_201)\n    tag_193:\n        /* \"contracts/AccessControl.sol\":4899:4949  _informFailure(\"The permission has alreay exist.\") */\n      tag_202\n      mload(0x40)\n      dup1\n      0x40\n      add\n      0x40\n      mstore\n      dup1\n      0x20\n      dup2\n      mstore\n      0x20\n      add\n      0x546865207065726d697373696f6e2068617320616c726561792065786973742e\n      dup2\n      mstore\n      pop\n        /* \"contracts/AccessControl.sol\":4899:4913  _informFailure */\n      tag_150\n        /* \"contracts/AccessControl.sol\":4899:4949  _informFailure(\"The permission has alreay exist.\") */\n      jump\t// in\n    tag_202:\n        /* \"contracts/AccessControl.sol\":4148:4961  if (!_allPermissions[permission].isValid) {\r... */\n    tag_201:\n        /* \"contracts/AccessControl.sol\":4019:4968  {\r... */\n      pop\n      pop\n        /* \"contracts/AccessControl.sol\":3907:4968  function _createPermissionByLevel(bytes memory permissionName, bytes memory permissionAlready) internal virtual {\r... */\n      pop\n      pop\n      jump\t// out\n        /* \"contracts/AccessControl.sol\":2813:3770  function _createPermission(bytes memory permissionName) internal virtual {\r... */\n    tag_118:\n        /* \"contracts/AccessControl.sol\":2897:2915  bytes32 permission */\n      0x00\n        /* \"contracts/AccessControl.sol\":2928:2942  permissionName */\n      dup2\n        /* \"contracts/AccessControl.sol\":2918:2943  keccak256(permissionName) */\n      dup1\n      mload\n      swap1\n      0x20\n      add\n      keccak256\n        /* \"contracts/AccessControl.sol\":2897:2943  bytes32 permission = keccak256(permissionName) */\n      swap1\n      pop\n        /* \"contracts/AccessControl.sol\":2959:2974  _allPermissions */\n      0x00\n        /* \"contracts/AccessControl.sol\":2959:2986  _allPermissions[permission] */\n      dup1\n        /* \"contracts/AccessControl.sol\":2975:2985  permission */\n      dup3\n        /* \"contracts/AccessControl.sol\":2959:2986  _allPermissions[permission] */\n      dup2\n      mstore\n      0x20\n      add\n      swap1\n      dup2\n      mstore\n      0x20\n      add\n      0x00\n      keccak256\n        /* \"contracts/AccessControl.sol\":2959:2994  _allPermissions[permission].isValid */\n      0x03\n      add\n      0x00\n      swap1\n      sload\n      swap1\n      0x0100\n      exp\n      swap1\n      div\n      0xff\n      and\n        /* \"contracts/AccessControl.sol\":2954:3763  if (!_allPermissions[permission].isValid) {\r... */\n      tag_204\n      jumpi\n        /* \"contracts/AccessControl.sol\":3011:3045  _changePermissionIndex(permission) */\n      tag_205\n        /* \"contracts/AccessControl.sol\":3034:3044  permission */\n      dup2\n        /* \"contracts/AccessControl.sol\":3011:3033  _changePermissionIndex */\n      tag_195\n        /* \"contracts/AccessControl.sol\":3011:3045  _changePermissionIndex(permission) */\n      jump\t// in\n    tag_205:\n        /* \"contracts/AccessControl.sol\":3098:3102  true */\n      0x01\n        /* \"contracts/AccessControl.sol\":3060:3075  _allPermissions */\n      0x00\n        /* \"contracts/AccessControl.sol\":3060:3087  _allPermissions[permission] */\n      dup1\n        /* \"contracts/AccessControl.sol\":3076:3086  permission */\n      dup4\n        /* \"contracts/AccessControl.sol\":3060:3087  _allPermissions[permission] */\n      dup2\n      mstore\n      0x20\n      add\n      swap1\n      dup2\n      mstore\n      0x20\n      add\n      0x00\n      keccak256\n        /* \"contracts/AccessControl.sol\":3060:3095  _allPermissions[permission].isValid */\n      0x03\n      add\n      0x00\n        /* \"contracts/AccessControl.sol\":3060:3102  _allPermissions[permission].isValid = true */\n      0x0100\n      exp\n      dup2\n      sload\n      dup2\n      0xff\n      mul\n      not\n      and\n      swap1\n      dup4\n      iszero\n      iszero\n      mul\n      or\n      swap1\n      sstore\n      pop\n        /* \"contracts/AccessControl.sol\":3189:3195  uint i */\n      0x00\n        /* \"contracts/AccessControl.sol\":3185:3523  for(uint i = 0; i < _allPermissions[ADMIN].length; i++) {\r... */\n    tag_206:\n        /* \"contracts/AccessControl.sol\":3205:3220  _allPermissions */\n      0x00\n        /* \"contracts/AccessControl.sol\":3205:3227  _allPermissions[ADMIN] */\n      dup1\n        /* \"contracts/AccessControl.sol\":677:695  keccak256(\"ADMIN\") */\n      0xdf8b4c520ffe197c5343c6f5aec59570151ef9a492f2c624fd45ddde6135ec42\n        /* \"contracts/AccessControl.sol\":3205:3227  _allPermissions[ADMIN] */\n      dup2\n      mstore\n      0x20\n      add\n      swap1\n      dup2\n      mstore\n      0x20\n      add\n      0x00\n      keccak256\n        /* \"contracts/AccessControl.sol\":3205:3234  _allPermissions[ADMIN].length */\n      0x02\n      add\n      sload\n        /* \"contracts/AccessControl.sol\":3201:3202  i */\n      dup2\n        /* \"contracts/AccessControl.sol\":3201:3234  i < _allPermissions[ADMIN].length */\n      lt\n        /* \"contracts/AccessControl.sol\":3185:3523  for(uint i = 0; i < _allPermissions[ADMIN].length; i++) {\r... */\n      iszero\n      tag_207\n      jumpi\n        /* \"contracts/AccessControl.sol\":3260:3282  address indexOfAddress */\n      0x00\n        /* \"contracts/AccessControl.sol\":3285:3300  _allPermissions */\n      dup1\n        /* \"contracts/AccessControl.sol\":3285:3307  _allPermissions[ADMIN] */\n      0x00\n        /* \"contracts/AccessControl.sol\":677:695  keccak256(\"ADMIN\") */\n      0xdf8b4c520ffe197c5343c6f5aec59570151ef9a492f2c624fd45ddde6135ec42\n        /* \"contracts/AccessControl.sol\":3285:3307  _allPermissions[ADMIN] */\n      dup2\n      mstore\n      0x20\n      add\n      swap1\n      dup2\n      mstore\n      0x20\n      add\n      0x00\n      keccak256\n        /* \"contracts/AccessControl.sol\":3285:3313  _allPermissions[ADMIN].index */\n      0x01\n      add\n        /* \"contracts/AccessControl.sol\":3285:3316  _allPermissions[ADMIN].index[i] */\n      0x00\n        /* \"contracts/AccessControl.sol\":3314:3315  i */\n      dup4\n        /* \"contracts/AccessControl.sol\":3285:3316  _allPermissions[ADMIN].index[i] */\n      dup2\n      mstore\n      0x20\n      add\n      swap1\n      dup2\n      mstore\n      0x20\n      add\n      0x00\n      keccak256\n      0x00\n      swap1\n      sload\n      swap1\n      0x0100\n      exp\n      swap1\n      div\n      0xffffffffffffffffffffffffffffffffffffffff\n      and\n        /* \"contracts/AccessControl.sol\":3260:3316  address indexOfAddress = _allPermissions[ADMIN].index[i] */\n      swap1\n      pop\n        /* \"contracts/AccessControl.sol\":3389:3404  _allPermissions */\n      0x00\n        /* \"contracts/AccessControl.sol\":3389:3411  _allPermissions[ADMIN] */\n      dup1\n        /* \"contracts/AccessControl.sol\":677:695  keccak256(\"ADMIN\") */\n      0xdf8b4c520ffe197c5343c6f5aec59570151ef9a492f2c624fd45ddde6135ec42\n        /* \"contracts/AccessControl.sol\":3389:3411  _allPermissions[ADMIN] */\n      dup2\n      mstore\n      0x20\n      add\n      swap1\n      dup2\n      mstore\n      0x20\n      add\n      0x00\n      keccak256\n        /* \"contracts/AccessControl.sol\":3389:3419  _allPermissions[ADMIN].members */\n      0x00\n      add\n        /* \"contracts/AccessControl.sol\":3389:3435  _allPermissions[ADMIN].members[indexOfAddress] */\n      0x00\n        /* \"contracts/AccessControl.sol\":3420:3434  indexOfAddress */\n      dup3\n        /* \"contracts/AccessControl.sol\":3389:3435  _allPermissions[ADMIN].members[indexOfAddress] */\n      0xffffffffffffffffffffffffffffffffffffffff\n      and\n      0xffffffffffffffffffffffffffffffffffffffff\n      and\n      dup2\n      mstore\n      0x20\n      add\n      swap1\n      dup2\n      mstore\n      0x20\n      add\n      0x00\n      keccak256\n      0x00\n      swap1\n      sload\n      swap1\n      0x0100\n      exp\n      swap1\n      div\n      0xff\n      and\n        /* \"contracts/AccessControl.sol\":3335:3350  _allPermissions */\n      0x00\n        /* \"contracts/AccessControl.sol\":3335:3362  _allPermissions[permission] */\n      dup1\n        /* \"contracts/AccessControl.sol\":3351:3361  permission */\n      dup6\n        /* \"contracts/AccessControl.sol\":3335:3362  _allPermissions[permission] */\n      dup2\n      mstore\n      0x20\n      add\n      swap1\n      dup2\n      mstore\n      0x20\n      add\n      0x00\n      keccak256\n        /* \"contracts/AccessControl.sol\":3335:3370  _allPermissions[permission].members */\n      0x00\n      add\n        /* \"contracts/AccessControl.sol\":3335:3386  _allPermissions[permission].members[indexOfAddress] */\n      0x00\n        /* \"contracts/AccessControl.sol\":3371:3385  indexOfAddress */\n      dup4\n        /* \"contracts/AccessControl.sol\":3335:3386  _allPermissions[permission].members[indexOfAddress] */\n      0xffffffffffffffffffffffffffffffffffffffff\n      and\n      0xffffffffffffffffffffffffffffffffffffffff\n      and\n      dup2\n      mstore\n      0x20\n      add\n      swap1\n      dup2\n      mstore\n      0x20\n      add\n      0x00\n      keccak256\n      0x00\n        /* \"contracts/AccessControl.sol\":3335:3435  _allPermissions[permission].members[indexOfAddress] = _allPermissions[ADMIN].members[indexOfAddress] */\n      0x0100\n      exp\n      dup2\n      sload\n      dup2\n      0xff\n      mul\n      not\n      and\n      swap1\n      dup4\n      iszero\n      iszero\n      mul\n      or\n      swap1\n      sstore\n      pop\n        /* \"contracts/AccessControl.sol\":3493:3507  indexOfAddress */\n      dup1\n        /* \"contracts/AccessControl.sol\":3454:3469  _allPermissions */\n      0x00\n        /* \"contracts/AccessControl.sol\":3454:3481  _allPermissions[permission] */\n      dup1\n        /* \"contracts/AccessControl.sol\":3470:3480  permission */\n      dup6\n        /* \"contracts/AccessControl.sol\":3454:3481  _allPermissions[permission] */\n      dup2\n      mstore\n      0x20\n      add\n      swap1\n      dup2\n      mstore\n      0x20\n      add\n      0x00\n      keccak256\n        /* \"contracts/AccessControl.sol\":3454:3487  _allPermissions[permission].index */\n      0x01\n      add\n        /* \"contracts/AccessControl.sol\":3454:3490  _allPermissions[permission].index[i] */\n      0x00\n        /* \"contracts/AccessControl.sol\":3488:3489  i */\n      dup5\n        /* \"contracts/AccessControl.sol\":3454:3490  _allPermissions[permission].index[i] */\n      dup2\n      mstore\n      0x20\n      add\n      swap1\n      dup2\n      mstore\n      0x20\n      add\n      0x00\n      keccak256\n      0x00\n        /* \"contracts/AccessControl.sol\":3454:3507  _allPermissions[permission].index[i] = indexOfAddress */\n      0x0100\n      exp\n      dup2\n      sload\n      dup2\n      0xffffffffffffffffffffffffffffffffffffffff\n      mul\n      not\n      and\n      swap1\n      dup4\n      0xffffffffffffffffffffffffffffffffffffffff\n      and\n      mul\n      or\n      swap1\n      sstore\n      pop\n        /* \"contracts/AccessControl.sol\":3241:3523  {\r... */\n      pop\n        /* \"contracts/AccessControl.sol\":3236:3239  i++ */\n      dup1\n      dup1\n      tag_209\n      swap1\n      tag_161\n      jump\t// in\n    tag_209:\n      swap2\n      pop\n      pop\n        /* \"contracts/AccessControl.sol\":3185:3523  for(uint i = 0; i < _allPermissions[ADMIN].length; i++) {\r... */\n      jump(tag_206)\n    tag_207:\n      pop\n        /* \"contracts/AccessControl.sol\":3574:3589  _allPermissions */\n      0x00\n        /* \"contracts/AccessControl.sol\":3574:3596  _allPermissions[ADMIN] */\n      dup1\n        /* \"contracts/AccessControl.sol\":677:695  keccak256(\"ADMIN\") */\n      0xdf8b4c520ffe197c5343c6f5aec59570151ef9a492f2c624fd45ddde6135ec42\n        /* \"contracts/AccessControl.sol\":3574:3596  _allPermissions[ADMIN] */\n      dup2\n      mstore\n      0x20\n      add\n      swap1\n      dup2\n      mstore\n      0x20\n      add\n      0x00\n      keccak256\n        /* \"contracts/AccessControl.sol\":3574:3603  _allPermissions[ADMIN].length */\n      0x02\n      add\n      sload\n        /* \"contracts/AccessControl.sol\":3537:3552  _allPermissions */\n      0x00\n        /* \"contracts/AccessControl.sol\":3537:3564  _allPermissions[permission] */\n      dup1\n        /* \"contracts/AccessControl.sol\":3553:3563  permission */\n      dup4\n        /* \"contracts/AccessControl.sol\":3537:3564  _allPermissions[permission] */\n      dup2\n      mstore\n      0x20\n      add\n      swap1\n      dup2\n      mstore\n      0x20\n      add\n      0x00\n      keccak256\n        /* \"contracts/AccessControl.sol\":3537:3571  _allPermissions[permission].length */\n      0x02\n      add\n        /* \"contracts/AccessControl.sol\":3537:3603  _allPermissions[permission].length = _allPermissions[ADMIN].length */\n      dup2\n      swap1\n      sstore\n      pop\n        /* \"contracts/AccessControl.sol\":3657:3667  msg.sender */\n      caller\n        /* \"contracts/AccessControl.sol\":3623:3668  PermissionCreated(permissionName, msg.sender) */\n      0xffffffffffffffffffffffffffffffffffffffff\n      and\n        /* \"contracts/AccessControl.sol\":3641:3655  permissionName */\n      dup3\n        /* \"contracts/AccessControl.sol\":3623:3668  PermissionCreated(permissionName, msg.sender) */\n      mload(0x40)\n      tag_210\n      swap2\n      swap1\n      tag_147\n      jump\t// in\n    tag_210:\n      mload(0x40)\n      dup1\n      swap2\n      sub\n      swap1\n      keccak256\n      0x629a748ba580fe181c6ae2d3673c4bdfea9e1f2d334f36beec502aff5dbaeff2\n      mload(0x40)\n      mload(0x40)\n      dup1\n      swap2\n      sub\n      swap1\n      log3\n        /* \"contracts/AccessControl.sol\":2954:3763  if (!_allPermissions[permission].isValid) {\r... */\n      jump(tag_211)\n    tag_204:\n        /* \"contracts/AccessControl.sol\":3701:3751  _informFailure(\"The permission has alreay exist.\") */\n      tag_212\n      mload(0x40)\n      dup1\n      0x40\n      add\n      0x40\n      mstore\n      dup1\n      0x20\n      dup2\n      mstore\n      0x20\n      add\n      0x546865207065726d697373696f6e2068617320616c726561792065786973742e\n      dup2\n      mstore\n      pop\n        /* \"contracts/AccessControl.sol\":3701:3715  _informFailure */\n      tag_150\n        /* \"contracts/AccessControl.sol\":3701:3751  _informFailure(\"The permission has alreay exist.\") */\n      jump\t// in\n    tag_212:\n        /* \"contracts/AccessControl.sol\":2954:3763  if (!_allPermissions[permission].isValid) {\r... */\n    tag_211:\n        /* \"contracts/AccessControl.sol\":2886:3770  {\r... */\n      pop\n        /* \"contracts/AccessControl.sol\":2813:3770  function _createPermission(bytes memory permissionName) internal virtual {\r... */\n      pop\n      jump\t// out\n        /* \"contracts/AccessControl.sol\":6238:6837  function _grantAccountPermission(bytes memory permissionName, address account) internal virtual {\r... */\n    tag_125:\n        /* \"contracts/AccessControl.sol\":6345:6363  bytes32 permission */\n      0x00\n        /* \"contracts/AccessControl.sol\":6376:6390  permissionName */\n      dup3\n        /* \"contracts/AccessControl.sol\":6366:6391  keccak256(permissionName) */\n      dup1\n      mload\n      swap1\n      0x20\n      add\n      keccak256\n        /* \"contracts/AccessControl.sol\":6345:6391  bytes32 permission = keccak256(permissionName) */\n      swap1\n      pop\n        /* \"contracts/AccessControl.sol\":6484:6499  _allPermissions */\n      0x00\n        /* \"contracts/AccessControl.sol\":6484:6511  _allPermissions[permission] */\n      dup1\n        /* \"contracts/AccessControl.sol\":6500:6510  permission */\n      dup3\n        /* \"contracts/AccessControl.sol\":6484:6511  _allPermissions[permission] */\n      dup2\n      mstore\n      0x20\n      add\n      swap1\n      dup2\n      mstore\n      0x20\n      add\n      0x00\n      keccak256\n        /* \"contracts/AccessControl.sol\":6484:6519  _allPermissions[permission].isValid */\n      0x03\n      add\n      0x00\n      swap1\n      sload\n      swap1\n      0x0100\n      exp\n      swap1\n      div\n      0xff\n      and\n        /* \"contracts/AccessControl.sol\":6484:6542  _allPermissions[permission].isValid && permission != ADMIN */\n      dup1\n      iszero\n      tag_214\n      jumpi\n      pop\n        /* \"contracts/AccessControl.sol\":677:695  keccak256(\"ADMIN\") */\n      0xdf8b4c520ffe197c5343c6f5aec59570151ef9a492f2c624fd45ddde6135ec42\n        /* \"contracts/AccessControl.sol\":6523:6533  permission */\n      dup2\n        /* \"contracts/AccessControl.sol\":6523:6542  permission != ADMIN */\n      eq\n      iszero\n        /* \"contracts/AccessControl.sol\":6484:6542  _allPermissions[permission].isValid && permission != ADMIN */\n    tag_214:\n        /* \"contracts/AccessControl.sol\":6480:6830  if (_allPermissions[permission].isValid && permission != ADMIN) {\r... */\n      iszero\n      tag_215\n      jumpi\n        /* \"contracts/AccessControl.sol\":6559:6599  _changeAccountIndex(permission, account) */\n      tag_216\n        /* \"contracts/AccessControl.sol\":6579:6589  permission */\n      dup2\n        /* \"contracts/AccessControl.sol\":6591:6598  account */\n      dup4\n        /* \"contracts/AccessControl.sol\":6559:6578  _changeAccountIndex */\n      tag_172\n        /* \"contracts/AccessControl.sol\":6559:6599  _changeAccountIndex(permission, account) */\n      jump\t// in\n    tag_216:\n        /* \"contracts/AccessControl.sol\":6661:6665  true */\n      0x01\n        /* \"contracts/AccessControl.sol\":6614:6629  _allPermissions */\n      0x00\n        /* \"contracts/AccessControl.sol\":6614:6641  _allPermissions[permission] */\n      dup1\n        /* \"contracts/AccessControl.sol\":6630:6640  permission */\n      dup4\n        /* \"contracts/AccessControl.sol\":6614:6641  _allPermissions[permission] */\n      dup2\n      mstore\n      0x20\n      add\n      swap1\n      dup2\n      mstore\n      0x20\n      add\n      0x00\n      keccak256\n        /* \"contracts/AccessControl.sol\":6614:6649  _allPermissions[permission].members */\n      0x00\n      add\n        /* \"contracts/AccessControl.sol\":6614:6658  _allPermissions[permission].members[account] */\n      0x00\n        /* \"contracts/AccessControl.sol\":6650:6657  account */\n      dup5\n        /* \"contracts/AccessControl.sol\":6614:6658  _allPermissions[permission].members[account] */\n      0xffffffffffffffffffffffffffffffffffffffff\n      and\n      0xffffffffffffffffffffffffffffffffffffffff\n      and\n      dup2\n      mstore\n      0x20\n      add\n      swap1\n      dup2\n      mstore\n      0x20\n      add\n      0x00\n      keccak256\n      0x00\n        /* \"contracts/AccessControl.sol\":6614:6665  _allPermissions[permission].members[account] = true */\n      0x0100\n      exp\n      dup2\n      sload\n      dup2\n      0xff\n      mul\n      not\n      and\n      swap1\n      dup4\n      iszero\n      iszero\n      mul\n      or\n      swap1\n      sstore\n      pop\n        /* \"contracts/AccessControl.sol\":6728:6738  msg.sender */\n      caller\n        /* \"contracts/AccessControl.sol\":6685:6739  PermissionGranted(permissionName, account, msg.sender) */\n      0xffffffffffffffffffffffffffffffffffffffff\n      and\n        /* \"contracts/AccessControl.sol\":6719:6726  account */\n      dup3\n        /* \"contracts/AccessControl.sol\":6685:6739  PermissionGranted(permissionName, account, msg.sender) */\n      0xffffffffffffffffffffffffffffffffffffffff\n      and\n        /* \"contracts/AccessControl.sol\":6703:6717  permissionName */\n      dup5\n        /* \"contracts/AccessControl.sol\":6685:6739  PermissionGranted(permissionName, account, msg.sender) */\n      mload(0x40)\n      tag_217\n      swap2\n      swap1\n      tag_147\n      jump\t// in\n    tag_217:\n      mload(0x40)\n      dup1\n      swap2\n      sub\n      swap1\n      keccak256\n      0x1bbdb8ca05419dffb11afa5105f78331a46e3d8a8b900efb115bbb4175a9c2d3\n      mload(0x40)\n      mload(0x40)\n      dup1\n      swap2\n      sub\n      swap1\n      log4\n        /* \"contracts/AccessControl.sol\":6480:6830  if (_allPermissions[permission].isValid && permission != ADMIN) {\r... */\n      jump(tag_218)\n    tag_215:\n        /* \"contracts/AccessControl.sol\":6772:6818  _informFailure(\"The permission is not valid.\") */\n      tag_219\n      mload(0x40)\n      dup1\n      0x40\n      add\n      0x40\n      mstore\n      dup1\n      0x1c\n      dup2\n      mstore\n      0x20\n      add\n      0x546865207065726d697373696f6e206973206e6f742076616c69642e00000000\n      dup2\n      mstore\n      pop\n        /* \"contracts/AccessControl.sol\":6772:6786  _informFailure */\n      tag_150\n        /* \"contracts/AccessControl.sol\":6772:6818  _informFailure(\"The permission is not valid.\") */\n      jump\t// in\n    tag_219:\n        /* \"contracts/AccessControl.sol\":6480:6830  if (_allPermissions[permission].isValid && permission != ADMIN) {\r... */\n    tag_218:\n        /* \"contracts/AccessControl.sol\":6334:6837  {\r... */\n      pop\n        /* \"contracts/AccessControl.sol\":6238:6837  function _grantAccountPermission(bytes memory permissionName, address account) internal virtual {\r... */\n      pop\n      pop\n      jump\t// out\n        /* \"contracts/AccessControl.sol\":6925:7425  function _revokeAccountPermission(bytes memory permissionName, address account) internal virtual {\r... */\n    tag_132:\n        /* \"contracts/AccessControl.sol\":7033:7051  bytes32 permission */\n      0x00\n        /* \"contracts/AccessControl.sol\":7064:7078  permissionName */\n      dup3\n        /* \"contracts/AccessControl.sol\":7054:7079  keccak256(permissionName) */\n      dup1\n      mload\n      swap1\n      0x20\n      add\n      keccak256\n        /* \"contracts/AccessControl.sol\":7033:7079  bytes32 permission = keccak256(permissionName) */\n      swap1\n      pop\n        /* \"contracts/AccessControl.sol\":7094:7121  _check(permission, account) */\n      tag_221\n        /* \"contracts/AccessControl.sol\":7101:7111  permission */\n      dup2\n        /* \"contracts/AccessControl.sol\":7113:7120  account */\n      dup4\n        /* \"contracts/AccessControl.sol\":7094:7100  _check */\n      tag_63\n        /* \"contracts/AccessControl.sol\":7094:7121  _check(permission, account) */\n      jump\t// in\n    tag_221:\n        /* \"contracts/AccessControl.sol\":7094:7144  _check(permission, account) && permission != ADMIN */\n      dup1\n      iszero\n      tag_222\n      jumpi\n      pop\n        /* \"contracts/AccessControl.sol\":677:695  keccak256(\"ADMIN\") */\n      0xdf8b4c520ffe197c5343c6f5aec59570151ef9a492f2c624fd45ddde6135ec42\n        /* \"contracts/AccessControl.sol\":7125:7135  permission */\n      dup2\n        /* \"contracts/AccessControl.sol\":7125:7144  permission != ADMIN */\n      eq\n      iszero\n        /* \"contracts/AccessControl.sol\":7094:7144  _check(permission, account) && permission != ADMIN */\n    tag_222:\n        /* \"contracts/AccessControl.sol\":7090:7418  if (_check(permission, account) && permission != ADMIN) {\r... */\n      iszero\n      tag_223\n      jumpi\n        /* \"contracts/AccessControl.sol\":7208:7213  false */\n      0x00\n        /* \"contracts/AccessControl.sol\":7161:7176  _allPermissions */\n      dup1\n        /* \"contracts/AccessControl.sol\":7161:7188  _allPermissions[permission] */\n      0x00\n        /* \"contracts/AccessControl.sol\":7177:7187  permission */\n      dup4\n        /* \"contracts/AccessControl.sol\":7161:7188  _allPermissions[permission] */\n      dup2\n      mstore\n      0x20\n      add\n      swap1\n      dup2\n      mstore\n      0x20\n      add\n      0x00\n      keccak256\n        /* \"contracts/AccessControl.sol\":7161:7196  _allPermissions[permission].members */\n      0x00\n      add\n        /* \"contracts/AccessControl.sol\":7161:7205  _allPermissions[permission].members[account] */\n      0x00\n        /* \"contracts/AccessControl.sol\":7197:7204  account */\n      dup5\n        /* \"contracts/AccessControl.sol\":7161:7205  _allPermissions[permission].members[account] */\n      0xffffffffffffffffffffffffffffffffffffffff\n      and\n      0xffffffffffffffffffffffffffffffffffffffff\n      and\n      dup2\n      mstore\n      0x20\n      add\n      swap1\n      dup2\n      mstore\n      0x20\n      add\n      0x00\n      keccak256\n      0x00\n        /* \"contracts/AccessControl.sol\":7161:7213  _allPermissions[permission].members[account] = false */\n      0x0100\n      exp\n      dup2\n      sload\n      dup2\n      0xff\n      mul\n      not\n      and\n      swap1\n      dup4\n      iszero\n      iszero\n      mul\n      or\n      swap1\n      sstore\n      pop\n        /* \"contracts/AccessControl.sol\":7276:7286  msg.sender */\n      caller\n        /* \"contracts/AccessControl.sol\":7233:7287  PermissionRevoked(permissionName, account, msg.sender) */\n      0xffffffffffffffffffffffffffffffffffffffff\n      and\n        /* \"contracts/AccessControl.sol\":7267:7274  account */\n      dup3\n        /* \"contracts/AccessControl.sol\":7233:7287  PermissionRevoked(permissionName, account, msg.sender) */\n      0xffffffffffffffffffffffffffffffffffffffff\n      and\n        /* \"contracts/AccessControl.sol\":7251:7265  permissionName */\n      dup5\n        /* \"contracts/AccessControl.sol\":7233:7287  PermissionRevoked(permissionName, account, msg.sender) */\n      mload(0x40)\n      tag_224\n      swap2\n      swap1\n      tag_147\n      jump\t// in\n    tag_224:\n      mload(0x40)\n      dup1\n      swap2\n      sub\n      swap1\n      keccak256\n      0x5658f0a44f1b55364ef0376f818ea716aee06d4e966974edba8ae1b8fa1e379c\n      mload(0x40)\n      mload(0x40)\n      dup1\n      swap2\n      sub\n      swap1\n      log4\n        /* \"contracts/AccessControl.sol\":7090:7418  if (_check(permission, account) && permission != ADMIN) {\r... */\n      jump(tag_225)\n    tag_223:\n        /* \"contracts/AccessControl.sol\":7320:7406  _informFailure(\"The permission is not valid or the account is not in the permission.\") */\n      tag_226\n      mload(0x40)\n      dup1\n      0x80\n      add\n      0x40\n      mstore\n      dup1\n      0x44\n      dup2\n      mstore\n      0x20\n      add\n      data_601972b90d37b25432db4389d8031f8daa2518ef8d99fbf07fd5717b0953de49\n      0x44\n      swap2\n      codecopy\n        /* \"contracts/AccessControl.sol\":7320:7334  _informFailure */\n      tag_150\n        /* \"contracts/AccessControl.sol\":7320:7406  _informFailure(\"The permission is not valid or the account is not in the permission.\") */\n      jump\t// in\n    tag_226:\n        /* \"contracts/AccessControl.sol\":7090:7418  if (_check(permission, account) && permission != ADMIN) {\r... */\n    tag_225:\n        /* \"contracts/AccessControl.sol\":7022:7425  {\r... */\n      pop\n        /* \"contracts/AccessControl.sol\":6925:7425  function _revokeAccountPermission(bytes memory permissionName, address account) internal virtual {\r... */\n      pop\n      pop\n      jump\t// out\n        /* \"contracts/AccessControl.sol\":8647:8835  function _inquiryAccountPermission(bytes32 permission, address account) \r... */\n    tag_139:\n        /* \"contracts/AccessControl.sol\":8770:8774  bool */\n      0x00\n        /* \"contracts/AccessControl.sol\":8800:8827  _check(permission, account) */\n      tag_228\n        /* \"contracts/AccessControl.sol\":8807:8817  permission */\n      dup4\n        /* \"contracts/AccessControl.sol\":8819:8826  account */\n      dup4\n        /* \"contracts/AccessControl.sol\":8800:8806  _check */\n      tag_63\n        /* \"contracts/AccessControl.sol\":8800:8827  _check(permission, account) */\n      jump\t// in\n    tag_228:\n        /* \"contracts/AccessControl.sol\":8793:8827  return _check(permission, account) */\n      swap1\n      pop\n        /* \"contracts/AccessControl.sol\":8647:8835  function _inquiryAccountPermission(bytes32 permission, address account) \r... */\n      swap3\n      swap2\n      pop\n      pop\n      jump\t// out\n        /* \"contracts/AccessControl.sol\":1386:1644  function _informFailure(string memory response) private pure {\r... */\n    tag_150:\n        /* \"contracts/AccessControl.sol\":1583:1591  response */\n      dup1\n        /* \"contracts/AccessControl.sol\":1504:1610  abi.encodePacked(\r... */\n      add(0x20, mload(0x40))\n      tag_230\n      swap2\n      swap1\n      tag_231\n      jump\t// in\n    tag_230:\n      mload(0x40)\n      0x20\n      dup2\n      dup4\n      sub\n      sub\n      dup2\n      mstore\n      swap1\n      0x40\n      mstore\n        /* \"contracts/AccessControl.sol\":1458:1636  revert(\r... */\n      mload(0x40)\n      0x08c379a000000000000000000000000000000000000000000000000000000000\n      dup2\n      mstore\n      0x04\n      add\n      tag_232\n      swap2\n      swap1\n      tag_233\n      jump\t// in\n    tag_232:\n      mload(0x40)\n      dup1\n      swap2\n      sub\n      swap1\n      revert\n        /* \"contracts/AccessControl.sol\":5488:6151  function _changeAccountIndex(bytes32 permission, address account) private {\r... */\n    tag_172:\n        /* \"contracts/AccessControl.sol\":5721:5733  bool isExist */\n      0x00\n        /* \"contracts/AccessControl.sol\":5756:5762  uint i */\n      dup1\n        /* \"contracts/AccessControl.sol\":5752:5964  for(uint i = 0; i < _allPermissions[permission].length; i++) {\r... */\n    tag_235:\n        /* \"contracts/AccessControl.sol\":5772:5787  _allPermissions */\n      0x00\n        /* \"contracts/AccessControl.sol\":5772:5799  _allPermissions[permission] */\n      dup1\n        /* \"contracts/AccessControl.sol\":5788:5798  permission */\n      dup6\n        /* \"contracts/AccessControl.sol\":5772:5799  _allPermissions[permission] */\n      dup2\n      mstore\n      0x20\n      add\n      swap1\n      dup2\n      mstore\n      0x20\n      add\n      0x00\n      keccak256\n        /* \"contracts/AccessControl.sol\":5772:5806  _allPermissions[permission].length */\n      0x02\n      add\n      sload\n        /* \"contracts/AccessControl.sol\":5768:5769  i */\n      dup2\n        /* \"contracts/AccessControl.sol\":5768:5806  i < _allPermissions[permission].length */\n      lt\n        /* \"contracts/AccessControl.sol\":5752:5964  for(uint i = 0; i < _allPermissions[permission].length; i++) {\r... */\n      iszero\n      tag_236\n      jumpi\n        /* \"contracts/AccessControl.sol\":5871:5878  account */\n      dup3\n        /* \"contracts/AccessControl.sol\":5831:5878  _allPermissions[permission].index[i] == account */\n      0xffffffffffffffffffffffffffffffffffffffff\n      and\n        /* \"contracts/AccessControl.sol\":5831:5846  _allPermissions */\n      0x00\n        /* \"contracts/AccessControl.sol\":5831:5858  _allPermissions[permission] */\n      dup1\n        /* \"contracts/AccessControl.sol\":5847:5857  permission */\n      dup7\n        /* \"contracts/AccessControl.sol\":5831:5858  _allPermissions[permission] */\n      dup2\n      mstore\n      0x20\n      add\n      swap1\n      dup2\n      mstore\n      0x20\n      add\n      0x00\n      keccak256\n        /* \"contracts/AccessControl.sol\":5831:5864  _allPermissions[permission].index */\n      0x01\n      add\n        /* \"contracts/AccessControl.sol\":5831:5867  _allPermissions[permission].index[i] */\n      0x00\n        /* \"contracts/AccessControl.sol\":5865:5866  i */\n      dup4\n        /* \"contracts/AccessControl.sol\":5831:5867  _allPermissions[permission].index[i] */\n      dup2\n      mstore\n      0x20\n      add\n      swap1\n      dup2\n      mstore\n      0x20\n      add\n      0x00\n      keccak256\n      0x00\n      swap1\n      sload\n      swap1\n      0x0100\n      exp\n      swap1\n      div\n      0xffffffffffffffffffffffffffffffffffffffff\n      and\n        /* \"contracts/AccessControl.sol\":5831:5878  _allPermissions[permission].index[i] == account */\n      0xffffffffffffffffffffffffffffffffffffffff\n      and\n      eq\n        /* \"contracts/AccessControl.sol\":5828:5953  if(_allPermissions[permission].index[i] == account) {\r... */\n      iszero\n      tag_238\n      jumpi\n        /* \"contracts/AccessControl.sol\":5909:5913  true */\n      0x01\n        /* \"contracts/AccessControl.sol\":5899:5913  isExist = true */\n      swap2\n      pop\n        /* \"contracts/AccessControl.sol\":5932:5937  break */\n      jump(tag_236)\n        /* \"contracts/AccessControl.sol\":5828:5953  if(_allPermissions[permission].index[i] == account) {\r... */\n    tag_238:\n        /* \"contracts/AccessControl.sol\":5808:5811  i++ */\n      dup1\n      dup1\n      tag_239\n      swap1\n      tag_161\n      jump\t// in\n    tag_239:\n      swap2\n      pop\n      pop\n        /* \"contracts/AccessControl.sol\":5752:5964  for(uint i = 0; i < _allPermissions[permission].length; i++) {\r... */\n      jump(tag_235)\n    tag_236:\n      pop\n        /* \"contracts/AccessControl.sol\":5978:5985  isExist */\n      dup1\n        /* \"contracts/AccessControl.sol\":5974:6144  if(!isExist) {\r... */\n      tag_240\n      jumpi\n        /* \"contracts/AccessControl.sol\":6074:6081  account */\n      dup2\n        /* \"contracts/AccessControl.sol\":6002:6017  _allPermissions */\n      0x00\n        /* \"contracts/AccessControl.sol\":6002:6029  _allPermissions[permission] */\n      dup1\n        /* \"contracts/AccessControl.sol\":6018:6028  permission */\n      dup6\n        /* \"contracts/AccessControl.sol\":6002:6029  _allPermissions[permission] */\n      dup2\n      mstore\n      0x20\n      add\n      swap1\n      dup2\n      mstore\n      0x20\n      add\n      0x00\n      keccak256\n        /* \"contracts/AccessControl.sol\":6002:6035  _allPermissions[permission].index */\n      0x01\n      add\n        /* \"contracts/AccessControl.sol\":6002:6071  _allPermissions[permission].index[_allPermissions[permission].length] */\n      0x00\n        /* \"contracts/AccessControl.sol\":6036:6051  _allPermissions */\n      dup1\n        /* \"contracts/AccessControl.sol\":6036:6063  _allPermissions[permission] */\n      0x00\n        /* \"contracts/AccessControl.sol\":6052:6062  permission */\n      dup8\n        /* \"contracts/AccessControl.sol\":6036:6063  _allPermissions[permission] */\n      dup2\n      mstore\n      0x20\n      add\n      swap1\n      dup2\n      mstore\n      0x20\n      add\n      0x00\n      keccak256\n        /* \"contracts/AccessControl.sol\":6036:6070  _allPermissions[permission].length */\n      0x02\n      add\n      sload\n        /* \"contracts/AccessControl.sol\":6002:6071  _allPermissions[permission].index[_allPermissions[permission].length] */\n      dup2\n      mstore\n      0x20\n      add\n      swap1\n      dup2\n      mstore\n      0x20\n      add\n      0x00\n      keccak256\n      0x00\n        /* \"contracts/AccessControl.sol\":6002:6081  _allPermissions[permission].index[_allPermissions[permission].length] = account */\n      0x0100\n      exp\n      dup2\n      sload\n      dup2\n      0xffffffffffffffffffffffffffffffffffffffff\n      mul\n      not\n      and\n      swap1\n      dup4\n      0xffffffffffffffffffffffffffffffffffffffff\n      and\n      mul\n      or\n      swap1\n      sstore\n      pop\n        /* \"contracts/AccessControl.sol\":6096:6111  _allPermissions */\n      0x00\n        /* \"contracts/AccessControl.sol\":6096:6123  _allPermissions[permission] */\n      dup1\n        /* \"contracts/AccessControl.sol\":6112:6122  permission */\n      dup5\n        /* \"contracts/AccessControl.sol\":6096:6123  _allPermissions[permission] */\n      dup2\n      mstore\n      0x20\n      add\n      swap1\n      dup2\n      mstore\n      0x20\n      add\n      0x00\n      keccak256\n        /* \"contracts/AccessControl.sol\":6096:6130  _allPermissions[permission].length */\n      0x02\n      add\n      0x00\n        /* \"contracts/AccessControl.sol\":6096:6132  _allPermissions[permission].length++ */\n      dup2\n      sload\n      dup1\n      swap3\n      swap2\n      swap1\n      tag_241\n      swap1\n      tag_161\n      jump\t// in\n    tag_241:\n      swap2\n      swap1\n      pop\n      sstore\n      pop\n        /* \"contracts/AccessControl.sol\":5974:6144  if(!isExist) {\r... */\n    tag_240:\n        /* \"contracts/AccessControl.sol\":5562:6151  {\r... */\n      pop\n        /* \"contracts/AccessControl.sol\":5488:6151  function _changeAccountIndex(bytes32 permission, address account) private {\r... */\n      pop\n      pop\n      jump\t// out\n        /* \"contracts/AccessControl.sol\":2027:2464  function _changePermissionIndex(bytes32 permission) private {\r... */\n    tag_195:\n        /* \"contracts/AccessControl.sol\":2098:2110  bool isExist */\n      0x00\n        /* \"contracts/AccessControl.sol\":2133:2139  uint i */\n      dup1\n        /* \"contracts/AccessControl.sol\":2129:2316  for(uint i = 0; i < _numberOfPermissions; i++) {\r... */\n    tag_243:\n        /* \"contracts/AccessControl.sol\":2149:2169  _numberOfPermissions */\n      sload(0x02)\n        /* \"contracts/AccessControl.sol\":2145:2146  i */\n      dup2\n        /* \"contracts/AccessControl.sol\":2145:2169  i < _numberOfPermissions */\n      lt\n        /* \"contracts/AccessControl.sol\":2129:2316  for(uint i = 0; i < _numberOfPermissions; i++) {\r... */\n      iszero\n      tag_244\n      jumpi\n        /* \"contracts/AccessControl.sol\":2220:2230  permission */\n      dup3\n        /* \"contracts/AccessControl.sol\":2194:2213  _indexOfPermissions */\n      0x01\n        /* \"contracts/AccessControl.sol\":2194:2216  _indexOfPermissions[i] */\n      0x00\n        /* \"contracts/AccessControl.sol\":2214:2215  i */\n      dup4\n        /* \"contracts/AccessControl.sol\":2194:2216  _indexOfPermissions[i] */\n      dup2\n      mstore\n      0x20\n      add\n      swap1\n      dup2\n      mstore\n      0x20\n      add\n      0x00\n      keccak256\n      sload\n        /* \"contracts/AccessControl.sol\":2194:2230  _indexOfPermissions[i] == permission */\n      eq\n        /* \"contracts/AccessControl.sol\":2191:2305  if(_indexOfPermissions[i] == permission) {\r... */\n      iszero\n      tag_246\n      jumpi\n        /* \"contracts/AccessControl.sol\":2261:2265  true */\n      0x01\n        /* \"contracts/AccessControl.sol\":2251:2265  isExist = true */\n      swap2\n      pop\n        /* \"contracts/AccessControl.sol\":2284:2289  break */\n      jump(tag_244)\n        /* \"contracts/AccessControl.sol\":2191:2305  if(_indexOfPermissions[i] == permission) {\r... */\n    tag_246:\n        /* \"contracts/AccessControl.sol\":2171:2174  i++ */\n      dup1\n      dup1\n      tag_247\n      swap1\n      tag_161\n      jump\t// in\n    tag_247:\n      swap2\n      pop\n      pop\n        /* \"contracts/AccessControl.sol\":2129:2316  for(uint i = 0; i < _numberOfPermissions; i++) {\r... */\n      jump(tag_243)\n    tag_244:\n      pop\n        /* \"contracts/AccessControl.sol\":2330:2337  isExist */\n      dup1\n        /* \"contracts/AccessControl.sol\":2326:2457  if(!isExist) {\r... */\n      tag_248\n      jumpi\n        /* \"contracts/AccessControl.sol\":2398:2408  permission */\n      dup2\n        /* \"contracts/AccessControl.sol\":2354:2373  _indexOfPermissions */\n      0x01\n        /* \"contracts/AccessControl.sol\":2354:2395  _indexOfPermissions[_numberOfPermissions] */\n      0x00\n        /* \"contracts/AccessControl.sol\":2374:2394  _numberOfPermissions */\n      sload(0x02)\n        /* \"contracts/AccessControl.sol\":2354:2395  _indexOfPermissions[_numberOfPermissions] */\n      dup2\n      mstore\n      0x20\n      add\n      swap1\n      dup2\n      mstore\n      0x20\n      add\n      0x00\n      keccak256\n        /* \"contracts/AccessControl.sol\":2354:2408  _indexOfPermissions[_numberOfPermissions] = permission */\n      dup2\n      swap1\n      sstore\n      pop\n        /* \"contracts/AccessControl.sol\":2423:2443  _numberOfPermissions */\n      0x02\n      0x00\n        /* \"contracts/AccessControl.sol\":2423:2445  _numberOfPermissions++ */\n      dup2\n      sload\n      dup1\n      swap3\n      swap2\n      swap1\n      tag_249\n      swap1\n      tag_161\n      jump\t// in\n    tag_249:\n      swap2\n      swap1\n      pop\n      sstore\n      pop\n        /* \"contracts/AccessControl.sol\":2326:2457  if(!isExist) {\r... */\n    tag_248:\n        /* \"contracts/AccessControl.sol\":2087:2464  {\r... */\n      pop\n        /* \"contracts/AccessControl.sol\":2027:2464  function _changePermissionIndex(bytes32 permission) private {\r... */\n      pop\n      jump\t// out\n        /* \"#utility.yul\":7:417   */\n    tag_251:\n        /* \"#utility.yul\":84:89   */\n      0x00\n        /* \"#utility.yul\":109:174   */\n      tag_253\n        /* \"#utility.yul\":125:173   */\n      tag_254\n        /* \"#utility.yul\":166:172   */\n      dup5\n        /* \"#utility.yul\":125:173   */\n      tag_255\n      jump\t// in\n    tag_254:\n        /* \"#utility.yul\":109:174   */\n      tag_256\n      jump\t// in\n    tag_253:\n        /* \"#utility.yul\":100:174   */\n      swap1\n      pop\n        /* \"#utility.yul\":197:203   */\n      dup3\n        /* \"#utility.yul\":190:195   */\n      dup2\n        /* \"#utility.yul\":183:204   */\n      mstore\n        /* \"#utility.yul\":235:239   */\n      0x20\n        /* \"#utility.yul\":228:233   */\n      dup2\n        /* \"#utility.yul\":224:240   */\n      add\n        /* \"#utility.yul\":273:276   */\n      dup5\n        /* \"#utility.yul\":264:270   */\n      dup5\n        /* \"#utility.yul\":259:262   */\n      dup5\n        /* \"#utility.yul\":255:271   */\n      add\n        /* \"#utility.yul\":252:277   */\n      gt\n        /* \"#utility.yul\":249:361   */\n      iszero\n      tag_257\n      jumpi\n        /* \"#utility.yul\":280:359   */\n      tag_258\n      tag_259\n      jump\t// in\n    tag_258:\n        /* \"#utility.yul\":249:361   */\n    tag_257:\n        /* \"#utility.yul\":370:411   */\n      tag_260\n        /* \"#utility.yul\":404:410   */\n      dup5\n        /* \"#utility.yul\":399:402   */\n      dup3\n        /* \"#utility.yul\":394:397   */\n      dup6\n        /* \"#utility.yul\":370:411   */\n      tag_261\n      jump\t// in\n    tag_260:\n        /* \"#utility.yul\":90:417   */\n      pop\n        /* \"#utility.yul\":7:417   */\n      swap4\n      swap3\n      pop\n      pop\n      pop\n      jump\t// out\n        /* \"#utility.yul\":423:562   */\n    tag_262:\n        /* \"#utility.yul\":469:474   */\n      0x00\n        /* \"#utility.yul\":507:513   */\n      dup2\n        /* \"#utility.yul\":494:514   */\n      calldataload\n        /* \"#utility.yul\":485:514   */\n      swap1\n      pop\n        /* \"#utility.yul\":523:556   */\n      tag_264\n        /* \"#utility.yul\":550:555   */\n      dup2\n        /* \"#utility.yul\":523:556   */\n      tag_265\n      jump\t// in\n    tag_264:\n        /* \"#utility.yul\":423:562   */\n      swap3\n      swap2\n      pop\n      pop\n      jump\t// out\n        /* \"#utility.yul\":568:707   */\n    tag_266:\n        /* \"#utility.yul\":614:619   */\n      0x00\n        /* \"#utility.yul\":652:658   */\n      dup2\n        /* \"#utility.yul\":639:659   */\n      calldataload\n        /* \"#utility.yul\":630:659   */\n      swap1\n      pop\n        /* \"#utility.yul\":668:701   */\n      tag_268\n        /* \"#utility.yul\":695:700   */\n      dup2\n        /* \"#utility.yul\":668:701   */\n      tag_269\n      jump\t// in\n    tag_268:\n        /* \"#utility.yul\":568:707   */\n      swap3\n      swap2\n      pop\n      pop\n      jump\t// out\n        /* \"#utility.yul\":726:1064   */\n    tag_270:\n        /* \"#utility.yul\":781:786   */\n      0x00\n        /* \"#utility.yul\":830:833   */\n      dup3\n        /* \"#utility.yul\":823:827   */\n      0x1f\n        /* \"#utility.yul\":815:821   */\n      dup4\n        /* \"#utility.yul\":811:828   */\n      add\n        /* \"#utility.yul\":807:834   */\n      slt\n        /* \"#utility.yul\":797:919   */\n      tag_272\n      jumpi\n        /* \"#utility.yul\":838:917   */\n      tag_273\n      tag_274\n      jump\t// in\n    tag_273:\n        /* \"#utility.yul\":797:919   */\n    tag_272:\n        /* \"#utility.yul\":955:961   */\n      dup2\n        /* \"#utility.yul\":942:962   */\n      calldataload\n        /* \"#utility.yul\":980:1058   */\n      tag_275\n        /* \"#utility.yul\":1054:1057   */\n      dup5\n        /* \"#utility.yul\":1046:1052   */\n      dup3\n        /* \"#utility.yul\":1039:1043   */\n      0x20\n        /* \"#utility.yul\":1031:1037   */\n      dup7\n        /* \"#utility.yul\":1027:1044   */\n      add\n        /* \"#utility.yul\":980:1058   */\n      tag_251\n      jump\t// in\n    tag_275:\n        /* \"#utility.yul\":971:1058   */\n      swap2\n      pop\n        /* \"#utility.yul\":787:1064   */\n      pop\n        /* \"#utility.yul\":726:1064   */\n      swap3\n      swap2\n      pop\n      pop\n      jump\t// out\n        /* \"#utility.yul\":1070:1399   */\n    tag_21:\n        /* \"#utility.yul\":1129:1135   */\n      0x00\n        /* \"#utility.yul\":1178:1180   */\n      0x20\n        /* \"#utility.yul\":1166:1175   */\n      dup3\n        /* \"#utility.yul\":1157:1164   */\n      dup5\n        /* \"#utility.yul\":1153:1176   */\n      sub\n        /* \"#utility.yul\":1149:1181   */\n      slt\n        /* \"#utility.yul\":1146:1265   */\n      iszero\n      tag_277\n      jumpi\n        /* \"#utility.yul\":1184:1263   */\n      tag_278\n      tag_279\n      jump\t// in\n    tag_278:\n        /* \"#utility.yul\":1146:1265   */\n    tag_277:\n        /* \"#utility.yul\":1304:1305   */\n      0x00\n        /* \"#utility.yul\":1329:1382   */\n      tag_280\n        /* \"#utility.yul\":1374:1381   */\n      dup5\n        /* \"#utility.yul\":1365:1371   */\n      dup3\n        /* \"#utility.yul\":1354:1363   */\n      dup6\n        /* \"#utility.yul\":1350:1372   */\n      add\n        /* \"#utility.yul\":1329:1382   */\n      tag_262\n      jump\t// in\n    tag_280:\n        /* \"#utility.yul\":1319:1382   */\n      swap2\n      pop\n        /* \"#utility.yul\":1275:1392   */\n      pop\n        /* \"#utility.yul\":1070:1399   */\n      swap3\n      swap2\n      pop\n      pop\n      jump\t// out\n        /* \"#utility.yul\":1405:1734   */\n    tag_37:\n        /* \"#utility.yul\":1464:1470   */\n      0x00\n        /* \"#utility.yul\":1513:1515   */\n      0x20\n        /* \"#utility.yul\":1501:1510   */\n      dup3\n        /* \"#utility.yul\":1492:1499   */\n      dup5\n        /* \"#utility.yul\":1488:1511   */\n      sub\n        /* \"#utility.yul\":1484:1516   */\n      slt\n        /* \"#utility.yul\":1481:1600   */\n      iszero\n      tag_282\n      jumpi\n        /* \"#utility.yul\":1519:1598   */\n      tag_283\n      tag_279\n      jump\t// in\n    tag_283:\n        /* \"#utility.yul\":1481:1600   */\n    tag_282:\n        /* \"#utility.yul\":1639:1640   */\n      0x00\n        /* \"#utility.yul\":1664:1717   */\n      tag_284\n        /* \"#utility.yul\":1709:1716   */\n      dup5\n        /* \"#utility.yul\":1700:1706   */\n      dup3\n        /* \"#utility.yul\":1689:1698   */\n      dup6\n        /* \"#utility.yul\":1685:1707   */\n      add\n        /* \"#utility.yul\":1664:1717   */\n      tag_266\n      jump\t// in\n    tag_284:\n        /* \"#utility.yul\":1654:1717   */\n      swap2\n      pop\n        /* \"#utility.yul\":1610:1727   */\n      pop\n        /* \"#utility.yul\":1405:1734   */\n      swap3\n      swap2\n      pop\n      pop\n      jump\t// out\n        /* \"#utility.yul\":1740:2214   */\n    tag_57:\n        /* \"#utility.yul\":1808:1814   */\n      0x00\n        /* \"#utility.yul\":1816:1822   */\n      dup1\n        /* \"#utility.yul\":1865:1867   */\n      0x40\n        /* \"#utility.yul\":1853:1862   */\n      dup4\n        /* \"#utility.yul\":1844:1851   */\n      dup6\n        /* \"#utility.yul\":1840:1863   */\n      sub\n        /* \"#utility.yul\":1836:1868   */\n      slt\n        /* \"#utility.yul\":1833:1952   */\n      iszero\n      tag_286\n      jumpi\n        /* \"#utility.yul\":1871:1950   */\n      tag_287\n      tag_279\n      jump\t// in\n    tag_287:\n        /* \"#utility.yul\":1833:1952   */\n    tag_286:\n        /* \"#utility.yul\":1991:1992   */\n      0x00\n        /* \"#utility.yul\":2016:2069   */\n      tag_288\n        /* \"#utility.yul\":2061:2068   */\n      dup6\n        /* \"#utility.yul\":2052:2058   */\n      dup3\n        /* \"#utility.yul\":2041:2050   */\n      dup7\n        /* \"#utility.yul\":2037:2059   */\n      add\n        /* \"#utility.yul\":2016:2069   */\n      tag_266\n      jump\t// in\n    tag_288:\n        /* \"#utility.yul\":2006:2069   */\n      swap3\n      pop\n        /* \"#utility.yul\":1962:2079   */\n      pop\n        /* \"#utility.yul\":2118:2120   */\n      0x20\n        /* \"#utility.yul\":2144:2197   */\n      tag_289\n        /* \"#utility.yul\":2189:2196   */\n      dup6\n        /* \"#utility.yul\":2180:2186   */\n      dup3\n        /* \"#utility.yul\":2169:2178   */\n      dup7\n        /* \"#utility.yul\":2165:2187   */\n      add\n        /* \"#utility.yul\":2144:2197   */\n      tag_262\n      jump\t// in\n    tag_289:\n        /* \"#utility.yul\":2134:2197   */\n      swap2\n      pop\n        /* \"#utility.yul\":2089:2207   */\n      pop\n        /* \"#utility.yul\":1740:2214   */\n      swap3\n      pop\n      swap3\n      swap1\n      pop\n      jump\t// out\n        /* \"#utility.yul\":2220:2727   */\n    tag_17:\n        /* \"#utility.yul\":2288:2294   */\n      0x00\n        /* \"#utility.yul\":2337:2339   */\n      0x20\n        /* \"#utility.yul\":2325:2334   */\n      dup3\n        /* \"#utility.yul\":2316:2323   */\n      dup5\n        /* \"#utility.yul\":2312:2335   */\n      sub\n        /* \"#utility.yul\":2308:2340   */\n      slt\n        /* \"#utility.yul\":2305:2424   */\n      iszero\n      tag_291\n      jumpi\n        /* \"#utility.yul\":2343:2422   */\n      tag_292\n      tag_279\n      jump\t// in\n    tag_292:\n        /* \"#utility.yul\":2305:2424   */\n    tag_291:\n        /* \"#utility.yul\":2491:2492   */\n      0x00\n        /* \"#utility.yul\":2480:2489   */\n      dup3\n        /* \"#utility.yul\":2476:2493   */\n      add\n        /* \"#utility.yul\":2463:2494   */\n      calldataload\n        /* \"#utility.yul\":2521:2539   */\n      0xffffffffffffffff\n        /* \"#utility.yul\":2513:2519   */\n      dup2\n        /* \"#utility.yul\":2510:2540   */\n      gt\n        /* \"#utility.yul\":2507:2624   */\n      iszero\n      tag_293\n      jumpi\n        /* \"#utility.yul\":2543:2622   */\n      tag_294\n      tag_295\n      jump\t// in\n    tag_294:\n        /* \"#utility.yul\":2507:2624   */\n    tag_293:\n        /* \"#utility.yul\":2648:2710   */\n      tag_296\n        /* \"#utility.yul\":2702:2709   */\n      dup5\n        /* \"#utility.yul\":2693:2699   */\n      dup3\n        /* \"#utility.yul\":2682:2691   */\n      dup6\n        /* \"#utility.yul\":2678:2700   */\n      add\n        /* \"#utility.yul\":2648:2710   */\n      tag_270\n      jump\t// in\n    tag_296:\n        /* \"#utility.yul\":2638:2710   */\n      swap2\n      pop\n        /* \"#utility.yul\":2434:2720   */\n      pop\n        /* \"#utility.yul\":2220:2727   */\n      swap3\n      swap2\n      pop\n      pop\n      jump\t// out\n        /* \"#utility.yul\":2733:3385   */\n    tag_50:\n        /* \"#utility.yul\":2810:2816   */\n      0x00\n        /* \"#utility.yul\":2818:2824   */\n      dup1\n        /* \"#utility.yul\":2867:2869   */\n      0x40\n        /* \"#utility.yul\":2855:2864   */\n      dup4\n        /* \"#utility.yul\":2846:2853   */\n      dup6\n        /* \"#utility.yul\":2842:2865   */\n      sub\n        /* \"#utility.yul\":2838:2870   */\n      slt\n        /* \"#utility.yul\":2835:2954   */\n      iszero\n      tag_298\n      jumpi\n        /* \"#utility.yul\":2873:2952   */\n      tag_299\n      tag_279\n      jump\t// in\n    tag_299:\n        /* \"#utility.yul\":2835:2954   */\n    tag_298:\n        /* \"#utility.yul\":3021:3022   */\n      0x00\n        /* \"#utility.yul\":3010:3019   */\n      dup4\n        /* \"#utility.yul\":3006:3023   */\n      add\n        /* \"#utility.yul\":2993:3024   */\n      calldataload\n        /* \"#utility.yul\":3051:3069   */\n      0xffffffffffffffff\n        /* \"#utility.yul\":3043:3049   */\n      dup2\n        /* \"#utility.yul\":3040:3070   */\n      gt\n        /* \"#utility.yul\":3037:3154   */\n      iszero\n      tag_300\n      jumpi\n        /* \"#utility.yul\":3073:3152   */\n      tag_301\n      tag_295\n      jump\t// in\n    tag_301:\n        /* \"#utility.yul\":3037:3154   */\n    tag_300:\n        /* \"#utility.yul\":3178:3240   */\n      tag_302\n        /* \"#utility.yul\":3232:3239   */\n      dup6\n        /* \"#utility.yul\":3223:3229   */\n      dup3\n        /* \"#utility.yul\":3212:3221   */\n      dup7\n        /* \"#utility.yul\":3208:3230   */\n      add\n        /* \"#utility.yul\":3178:3240   */\n      tag_270\n      jump\t// in\n    tag_302:\n        /* \"#utility.yul\":3168:3240   */\n      swap3\n      pop\n        /* \"#utility.yul\":2964:3250   */\n      pop\n        /* \"#utility.yul\":3289:3291   */\n      0x20\n        /* \"#utility.yul\":3315:3368   */\n      tag_303\n        /* \"#utility.yul\":3360:3367   */\n      dup6\n        /* \"#utility.yul\":3351:3357   */\n      dup3\n        /* \"#utility.yul\":3340:3349   */\n      dup7\n        /* \"#utility.yul\":3336:3358   */\n      add\n        /* \"#utility.yul\":3315:3368   */\n      tag_262\n      jump\t// in\n    tag_303:\n        /* \"#utility.yul\":3305:3368   */\n      swap2\n      pop\n        /* \"#utility.yul\":3260:3378   */\n      pop\n        /* \"#utility.yul\":2733:3385   */\n      swap3\n      pop\n      swap3\n      swap1\n      pop\n      jump\t// out\n        /* \"#utility.yul\":3391:4221   */\n    tag_43:\n        /* \"#utility.yul\":3477:3483   */\n      0x00\n        /* \"#utility.yul\":3485:3491   */\n      dup1\n        /* \"#utility.yul\":3534:3536   */\n      0x40\n        /* \"#utility.yul\":3522:3531   */\n      dup4\n        /* \"#utility.yul\":3513:3520   */\n      dup6\n        /* \"#utility.yul\":3509:3532   */\n      sub\n        /* \"#utility.yul\":3505:3537   */\n      slt\n        /* \"#utility.yul\":3502:3621   */\n      iszero\n      tag_305\n      jumpi\n        /* \"#utility.yul\":3540:3619   */\n      tag_306\n      tag_279\n      jump\t// in\n    tag_306:\n        /* \"#utility.yul\":3502:3621   */\n    tag_305:\n        /* \"#utility.yul\":3688:3689   */\n      0x00\n        /* \"#utility.yul\":3677:3686   */\n      dup4\n        /* \"#utility.yul\":3673:3690   */\n      add\n        /* \"#utility.yul\":3660:3691   */\n      calldataload\n        /* \"#utility.yul\":3718:3736   */\n      0xffffffffffffffff\n        /* \"#utility.yul\":3710:3716   */\n      dup2\n        /* \"#utility.yul\":3707:3737   */\n      gt\n        /* \"#utility.yul\":3704:3821   */\n      iszero\n      tag_307\n      jumpi\n        /* \"#utility.yul\":3740:3819   */\n      tag_308\n      tag_295\n      jump\t// in\n    tag_308:\n        /* \"#utility.yul\":3704:3821   */\n    tag_307:\n        /* \"#utility.yul\":3845:3907   */\n      tag_309\n        /* \"#utility.yul\":3899:3906   */\n      dup6\n        /* \"#utility.yul\":3890:3896   */\n      dup3\n        /* \"#utility.yul\":3879:3888   */\n      dup7\n        /* \"#utility.yul\":3875:3897   */\n      add\n        /* \"#utility.yul\":3845:3907   */\n      tag_270\n      jump\t// in\n    tag_309:\n        /* \"#utility.yul\":3835:3907   */\n      swap3\n      pop\n        /* \"#utility.yul\":3631:3917   */\n      pop\n        /* \"#utility.yul\":3984:3986   */\n      0x20\n        /* \"#utility.yul\":3973:3982   */\n      dup4\n        /* \"#utility.yul\":3969:3987   */\n      add\n        /* \"#utility.yul\":3956:3988   */\n      calldataload\n        /* \"#utility.yul\":4015:4033   */\n      0xffffffffffffffff\n        /* \"#utility.yul\":4007:4013   */\n      dup2\n        /* \"#utility.yul\":4004:4034   */\n      gt\n        /* \"#utility.yul\":4001:4118   */\n      iszero\n      tag_310\n      jumpi\n        /* \"#utility.yul\":4037:4116   */\n      tag_311\n      tag_295\n      jump\t// in\n    tag_311:\n        /* \"#utility.yul\":4001:4118   */\n    tag_310:\n        /* \"#utility.yul\":4142:4204   */\n      tag_312\n        /* \"#utility.yul\":4196:4203   */\n      dup6\n        /* \"#utility.yul\":4187:4193   */\n      dup3\n        /* \"#utility.yul\":4176:4185   */\n      dup7\n        /* \"#utility.yul\":4172:4194   */\n      add\n        /* \"#utility.yul\":4142:4204   */\n      tag_270\n      jump\t// in\n    tag_312:\n        /* \"#utility.yul\":4132:4204   */\n      swap2\n      pop\n        /* \"#utility.yul\":3927:4214   */\n      pop\n        /* \"#utility.yul\":3391:4221   */\n      swap3\n      pop\n      swap3\n      swap1\n      pop\n      jump\t// out\n        /* \"#utility.yul\":4227:4406   */\n    tag_313:\n        /* \"#utility.yul\":4296:4306   */\n      0x00\n        /* \"#utility.yul\":4317:4363   */\n      tag_315\n        /* \"#utility.yul\":4359:4362   */\n      dup4\n        /* \"#utility.yul\":4351:4357   */\n      dup4\n        /* \"#utility.yul\":4317:4363   */\n      tag_316\n      jump\t// in\n    tag_315:\n        /* \"#utility.yul\":4395:4399   */\n      0x20\n        /* \"#utility.yul\":4390:4393   */\n      dup4\n        /* \"#utility.yul\":4386:4400   */\n      add\n        /* \"#utility.yul\":4372:4400   */\n      swap1\n      pop\n        /* \"#utility.yul\":4227:4406   */\n      swap3\n      swap2\n      pop\n      pop\n      jump\t// out\n        /* \"#utility.yul\":4412:4591   */\n    tag_317:\n        /* \"#utility.yul\":4481:4491   */\n      0x00\n        /* \"#utility.yul\":4502:4548   */\n      tag_319\n        /* \"#utility.yul\":4544:4547   */\n      dup4\n        /* \"#utility.yul\":4536:4542   */\n      dup4\n        /* \"#utility.yul\":4502:4548   */\n      tag_320\n      jump\t// in\n    tag_319:\n        /* \"#utility.yul\":4580:4584   */\n      0x20\n        /* \"#utility.yul\":4575:4578   */\n      dup4\n        /* \"#utility.yul\":4571:4585   */\n      add\n        /* \"#utility.yul\":4557:4585   */\n      swap1\n      pop\n        /* \"#utility.yul\":4412:4591   */\n      swap3\n      swap2\n      pop\n      pop\n      jump\t// out\n        /* \"#utility.yul\":4597:4705   */\n    tag_316:\n        /* \"#utility.yul\":4674:4698   */\n      tag_322\n        /* \"#utility.yul\":4692:4697   */\n      dup2\n        /* \"#utility.yul\":4674:4698   */\n      tag_323\n      jump\t// in\n    tag_322:\n        /* \"#utility.yul\":4669:4672   */\n      dup3\n        /* \"#utility.yul\":4662:4699   */\n      mstore\n        /* \"#utility.yul\":4597:4705   */\n      pop\n      pop\n      jump\t// out\n        /* \"#utility.yul\":4711:4829   */\n    tag_324:\n        /* \"#utility.yul\":4798:4822   */\n      tag_326\n        /* \"#utility.yul\":4816:4821   */\n      dup2\n        /* \"#utility.yul\":4798:4822   */\n      tag_323\n      jump\t// in\n    tag_326:\n        /* \"#utility.yul\":4793:4796   */\n      dup3\n        /* \"#utility.yul\":4786:4823   */\n      mstore\n        /* \"#utility.yul\":4711:4829   */\n      pop\n      pop\n      jump\t// out\n        /* \"#utility.yul\":4865:5597   */\n    tag_327:\n        /* \"#utility.yul\":4984:4987   */\n      0x00\n        /* \"#utility.yul\":5013:5067   */\n      tag_329\n        /* \"#utility.yul\":5061:5066   */\n      dup3\n        /* \"#utility.yul\":5013:5067   */\n      tag_330\n      jump\t// in\n    tag_329:\n        /* \"#utility.yul\":5083:5169   */\n      tag_331\n        /* \"#utility.yul\":5162:5168   */\n      dup2\n        /* \"#utility.yul\":5157:5160   */\n      dup6\n        /* \"#utility.yul\":5083:5169   */\n      tag_332\n      jump\t// in\n    tag_331:\n        /* \"#utility.yul\":5076:5169   */\n      swap4\n      pop\n        /* \"#utility.yul\":5193:5249   */\n      tag_333\n        /* \"#utility.yul\":5243:5248   */\n      dup4\n        /* \"#utility.yul\":5193:5249   */\n      tag_334\n      jump\t// in\n    tag_333:\n        /* \"#utility.yul\":5272:5279   */\n      dup1\n        /* \"#utility.yul\":5303:5304   */\n      0x00\n        /* \"#utility.yul\":5288:5572   */\n    tag_335:\n        /* \"#utility.yul\":5313:5319   */\n      dup4\n        /* \"#utility.yul\":5310:5311   */\n      dup2\n        /* \"#utility.yul\":5307:5320   */\n      lt\n        /* \"#utility.yul\":5288:5572   */\n      iszero\n      tag_337\n      jumpi\n        /* \"#utility.yul\":5389:5395   */\n      dup2\n        /* \"#utility.yul\":5383:5396   */\n      mload\n        /* \"#utility.yul\":5416:5479   */\n      tag_338\n        /* \"#utility.yul\":5475:5478   */\n      dup9\n        /* \"#utility.yul\":5460:5473   */\n      dup3\n        /* \"#utility.yul\":5416:5479   */\n      tag_313\n      jump\t// in\n    tag_338:\n        /* \"#utility.yul\":5409:5479   */\n      swap8\n      pop\n        /* \"#utility.yul\":5502:5562   */\n      tag_339\n        /* \"#utility.yul\":5555:5561   */\n      dup4\n        /* \"#utility.yul\":5502:5562   */\n      tag_340\n      jump\t// in\n    tag_339:\n        /* \"#utility.yul\":5492:5562   */\n      swap3\n      pop\n        /* \"#utility.yul\":5348:5572   */\n      pop\n        /* \"#utility.yul\":5335:5336   */\n      0x01\n        /* \"#utility.yul\":5332:5333   */\n      dup2\n        /* \"#utility.yul\":5328:5337   */\n      add\n        /* \"#utility.yul\":5323:5337   */\n      swap1\n      pop\n        /* \"#utility.yul\":5288:5572   */\n      jump(tag_335)\n    tag_337:\n        /* \"#utility.yul\":5292:5306   */\n      pop\n        /* \"#utility.yul\":5588:5591   */\n      dup6\n        /* \"#utility.yul\":5581:5591   */\n      swap4\n      pop\n        /* \"#utility.yul\":4989:5597   */\n      pop\n      pop\n      pop\n        /* \"#utility.yul\":4865:5597   */\n      swap3\n      swap2\n      pop\n      pop\n      jump\t// out\n        /* \"#utility.yul\":5633:6365   */\n    tag_341:\n        /* \"#utility.yul\":5752:5755   */\n      0x00\n        /* \"#utility.yul\":5781:5835   */\n      tag_343\n        /* \"#utility.yul\":5829:5834   */\n      dup3\n        /* \"#utility.yul\":5781:5835   */\n      tag_344\n      jump\t// in\n    tag_343:\n        /* \"#utility.yul\":5851:5937   */\n      tag_345\n        /* \"#utility.yul\":5930:5936   */\n      dup2\n        /* \"#utility.yul\":5925:5928   */\n      dup6\n        /* \"#utility.yul\":5851:5937   */\n      tag_346\n      jump\t// in\n    tag_345:\n        /* \"#utility.yul\":5844:5937   */\n      swap4\n      pop\n        /* \"#utility.yul\":5961:6017   */\n      tag_347\n        /* \"#utility.yul\":6011:6016   */\n      dup4\n        /* \"#utility.yul\":5961:6017   */\n      tag_348\n      jump\t// in\n    tag_347:\n        /* \"#utility.yul\":6040:6047   */\n      dup1\n        /* \"#utility.yul\":6071:6072   */\n      0x00\n        /* \"#utility.yul\":6056:6340   */\n    tag_349:\n        /* \"#utility.yul\":6081:6087   */\n      dup4\n        /* \"#utility.yul\":6078:6079   */\n      dup2\n        /* \"#utility.yul\":6075:6088   */\n      lt\n        /* \"#utility.yul\":6056:6340   */\n      iszero\n      tag_351\n      jumpi\n        /* \"#utility.yul\":6157:6163   */\n      dup2\n        /* \"#utility.yul\":6151:6164   */\n      mload\n        /* \"#utility.yul\":6184:6247   */\n      tag_352\n        /* \"#utility.yul\":6243:6246   */\n      dup9\n        /* \"#utility.yul\":6228:6241   */\n      dup3\n        /* \"#utility.yul\":6184:6247   */\n      tag_317\n      jump\t// in\n    tag_352:\n        /* \"#utility.yul\":6177:6247   */\n      swap8\n      pop\n        /* \"#utility.yul\":6270:6330   */\n      tag_353\n        /* \"#utility.yul\":6323:6329   */\n      dup4\n        /* \"#utility.yul\":6270:6330   */\n      tag_354\n      jump\t// in\n    tag_353:\n        /* \"#utility.yul\":6260:6330   */\n      swap3\n      pop\n        /* \"#utility.yul\":6116:6340   */\n      pop\n        /* \"#utility.yul\":6103:6104   */\n      0x01\n        /* \"#utility.yul\":6100:6101   */\n      dup2\n        /* \"#utility.yul\":6096:6105   */\n      add\n        /* \"#utility.yul\":6091:6105   */\n      swap1\n      pop\n        /* \"#utility.yul\":6056:6340   */\n      jump(tag_349)\n    tag_351:\n        /* \"#utility.yul\":6060:6074   */\n      pop\n        /* \"#utility.yul\":6356:6359   */\n      dup6\n        /* \"#utility.yul\":6349:6359   */\n      swap4\n      pop\n        /* \"#utility.yul\":5757:6365   */\n      pop\n      pop\n      pop\n        /* \"#utility.yul\":5633:6365   */\n      swap3\n      swap2\n      pop\n      pop\n      jump\t// out\n        /* \"#utility.yul\":6371:6480   */\n    tag_355:\n        /* \"#utility.yul\":6452:6473   */\n      tag_357\n        /* \"#utility.yul\":6467:6472   */\n      dup2\n        /* \"#utility.yul\":6452:6473   */\n      tag_358\n      jump\t// in\n    tag_357:\n        /* \"#utility.yul\":6447:6450   */\n      dup3\n        /* \"#utility.yul\":6440:6474   */\n      mstore\n        /* \"#utility.yul\":6371:6480   */\n      pop\n      pop\n      jump\t// out\n        /* \"#utility.yul\":6486:6594   */\n    tag_320:\n        /* \"#utility.yul\":6563:6587   */\n      tag_360\n        /* \"#utility.yul\":6581:6586   */\n      dup2\n        /* \"#utility.yul\":6563:6587   */\n      tag_361\n      jump\t// in\n    tag_360:\n        /* \"#utility.yul\":6558:6561   */\n      dup3\n        /* \"#utility.yul\":6551:6588   */\n      mstore\n        /* \"#utility.yul\":6486:6594   */\n      pop\n      pop\n      jump\t// out\n        /* \"#utility.yul\":6600:6973   */\n    tag_362:\n        /* \"#utility.yul\":6704:6707   */\n      0x00\n        /* \"#utility.yul\":6732:6770   */\n      tag_364\n        /* \"#utility.yul\":6764:6769   */\n      dup3\n        /* \"#utility.yul\":6732:6770   */\n      tag_365\n      jump\t// in\n    tag_364:\n        /* \"#utility.yul\":6786:6874   */\n      tag_366\n        /* \"#utility.yul\":6867:6873   */\n      dup2\n        /* \"#utility.yul\":6862:6865   */\n      dup6\n        /* \"#utility.yul\":6786:6874   */\n      tag_367\n      jump\t// in\n    tag_366:\n        /* \"#utility.yul\":6779:6874   */\n      swap4\n      pop\n        /* \"#utility.yul\":6883:6935   */\n      tag_368\n        /* \"#utility.yul\":6928:6934   */\n      dup2\n        /* \"#utility.yul\":6923:6926   */\n      dup6\n        /* \"#utility.yul\":6916:6920   */\n      0x20\n        /* \"#utility.yul\":6909:6914   */\n      dup7\n        /* \"#utility.yul\":6905:6921   */\n      add\n        /* \"#utility.yul\":6883:6935   */\n      tag_369\n      jump\t// in\n    tag_368:\n        /* \"#utility.yul\":6960:6966   */\n      dup1\n        /* \"#utility.yul\":6955:6958   */\n      dup5\n        /* \"#utility.yul\":6951:6967   */\n      add\n        /* \"#utility.yul\":6944:6967   */\n      swap2\n      pop\n        /* \"#utility.yul\":6708:6973   */\n      pop\n        /* \"#utility.yul\":6600:6973   */\n      swap3\n      swap2\n      pop\n      pop\n      jump\t// out\n        /* \"#utility.yul\":6979:7343   */\n    tag_370:\n        /* \"#utility.yul\":7067:7070   */\n      0x00\n        /* \"#utility.yul\":7095:7134   */\n      tag_372\n        /* \"#utility.yul\":7128:7133   */\n      dup3\n        /* \"#utility.yul\":7095:7134   */\n      tag_373\n      jump\t// in\n    tag_372:\n        /* \"#utility.yul\":7150:7221   */\n      tag_374\n        /* \"#utility.yul\":7214:7220   */\n      dup2\n        /* \"#utility.yul\":7209:7212   */\n      dup6\n        /* \"#utility.yul\":7150:7221   */\n      tag_375\n      jump\t// in\n    tag_374:\n        /* \"#utility.yul\":7143:7221   */\n      swap4\n      pop\n        /* \"#utility.yul\":7230:7282   */\n      tag_376\n        /* \"#utility.yul\":7275:7281   */\n      dup2\n        /* \"#utility.yul\":7270:7273   */\n      dup6\n        /* \"#utility.yul\":7263:7267   */\n      0x20\n        /* \"#utility.yul\":7256:7261   */\n      dup7\n        /* \"#utility.yul\":7252:7268   */\n      add\n        /* \"#utility.yul\":7230:7282   */\n      tag_369\n      jump\t// in\n    tag_376:\n        /* \"#utility.yul\":7307:7336   */\n      tag_377\n        /* \"#utility.yul\":7329:7335   */\n      dup2\n        /* \"#utility.yul\":7307:7336   */\n      tag_378\n      jump\t// in\n    tag_377:\n        /* \"#utility.yul\":7302:7305   */\n      dup5\n        /* \"#utility.yul\":7298:7337   */\n      add\n        /* \"#utility.yul\":7291:7337   */\n      swap2\n      pop\n        /* \"#utility.yul\":7071:7343   */\n      pop\n        /* \"#utility.yul\":6979:7343   */\n      swap3\n      swap2\n      pop\n      pop\n      jump\t// out\n        /* \"#utility.yul\":7349:7726   */\n    tag_379:\n        /* \"#utility.yul\":7455:7458   */\n      0x00\n        /* \"#utility.yul\":7483:7522   */\n      tag_381\n        /* \"#utility.yul\":7516:7521   */\n      dup3\n        /* \"#utility.yul\":7483:7522   */\n      tag_373\n      jump\t// in\n    tag_381:\n        /* \"#utility.yul\":7538:7627   */\n      tag_382\n        /* \"#utility.yul\":7620:7626   */\n      dup2\n        /* \"#utility.yul\":7615:7618   */\n      dup6\n        /* \"#utility.yul\":7538:7627   */\n      tag_383\n      jump\t// in\n    tag_382:\n        /* \"#utility.yul\":7531:7627   */\n      swap4\n      pop\n        /* \"#utility.yul\":7636:7688   */\n      tag_384\n        /* \"#utility.yul\":7681:7687   */\n      dup2\n        /* \"#utility.yul\":7676:7679   */\n      dup6\n        /* \"#utility.yul\":7669:7673   */\n      0x20\n        /* \"#utility.yul\":7662:7667   */\n      dup7\n        /* \"#utility.yul\":7658:7674   */\n      add\n        /* \"#utility.yul\":7636:7688   */\n      tag_369\n      jump\t// in\n    tag_384:\n        /* \"#utility.yul\":7713:7719   */\n      dup1\n        /* \"#utility.yul\":7708:7711   */\n      dup5\n        /* \"#utility.yul\":7704:7720   */\n      add\n        /* \"#utility.yul\":7697:7720   */\n      swap2\n      pop\n        /* \"#utility.yul\":7459:7726   */\n      pop\n        /* \"#utility.yul\":7349:7726   */\n      swap3\n      swap2\n      pop\n      pop\n      jump\t// out\n        /* \"#utility.yul\":7732:8134   */\n    tag_385:\n        /* \"#utility.yul\":7892:7895   */\n      0x00\n        /* \"#utility.yul\":7913:7998   */\n      tag_387\n        /* \"#utility.yul\":7995:7997   */\n      0x0f\n        /* \"#utility.yul\":7990:7993   */\n      dup4\n        /* \"#utility.yul\":7913:7998   */\n      tag_383\n      jump\t// in\n    tag_387:\n        /* \"#utility.yul\":7906:7998   */\n      swap2\n      pop\n        /* \"#utility.yul\":8007:8100   */\n      tag_388\n        /* \"#utility.yul\":8096:8099   */\n      dup3\n        /* \"#utility.yul\":8007:8100   */\n      tag_389\n      jump\t// in\n    tag_388:\n        /* \"#utility.yul\":8125:8127   */\n      0x0f\n        /* \"#utility.yul\":8120:8123   */\n      dup3\n        /* \"#utility.yul\":8116:8128   */\n      add\n        /* \"#utility.yul\":8109:8128   */\n      swap1\n      pop\n        /* \"#utility.yul\":7732:8134   */\n      swap2\n      swap1\n      pop\n      jump\t// out\n        /* \"#utility.yul\":8140:8506   */\n    tag_390:\n        /* \"#utility.yul\":8282:8285   */\n      0x00\n        /* \"#utility.yul\":8303:8370   */\n      tag_392\n        /* \"#utility.yul\":8367:8369   */\n      0x3e\n        /* \"#utility.yul\":8362:8365   */\n      dup4\n        /* \"#utility.yul\":8303:8370   */\n      tag_375\n      jump\t// in\n    tag_392:\n        /* \"#utility.yul\":8296:8370   */\n      swap2\n      pop\n        /* \"#utility.yul\":8379:8472   */\n      tag_393\n        /* \"#utility.yul\":8468:8471   */\n      dup3\n        /* \"#utility.yul\":8379:8472   */\n      tag_394\n      jump\t// in\n    tag_393:\n        /* \"#utility.yul\":8497:8499   */\n      0x40\n        /* \"#utility.yul\":8492:8495   */\n      dup3\n        /* \"#utility.yul\":8488:8500   */\n      add\n        /* \"#utility.yul\":8481:8500   */\n      swap1\n      pop\n        /* \"#utility.yul\":8140:8506   */\n      swap2\n      swap1\n      pop\n      jump\t// out\n        /* \"#utility.yul\":8512:8783   */\n    tag_147:\n        /* \"#utility.yul\":8642:8645   */\n      0x00\n        /* \"#utility.yul\":8664:8757   */\n      tag_396\n        /* \"#utility.yul\":8753:8756   */\n      dup3\n        /* \"#utility.yul\":8744:8750   */\n      dup5\n        /* \"#utility.yul\":8664:8757   */\n      tag_362\n      jump\t// in\n    tag_396:\n        /* \"#utility.yul\":8657:8757   */\n      swap2\n      pop\n        /* \"#utility.yul\":8774:8777   */\n      dup2\n        /* \"#utility.yul\":8767:8777   */\n      swap1\n      pop\n        /* \"#utility.yul\":8512:8783   */\n      swap3\n      swap2\n      pop\n      pop\n      jump\t// out\n        /* \"#utility.yul\":8789:9330   */\n    tag_231:\n        /* \"#utility.yul\":9022:9025   */\n      0x00\n        /* \"#utility.yul\":9044:9192   */\n      tag_398\n        /* \"#utility.yul\":9188:9191   */\n      dup3\n        /* \"#utility.yul\":9044:9192   */\n      tag_385\n      jump\t// in\n    tag_398:\n        /* \"#utility.yul\":9037:9192   */\n      swap2\n      pop\n        /* \"#utility.yul\":9209:9304   */\n      tag_399\n        /* \"#utility.yul\":9300:9303   */\n      dup3\n        /* \"#utility.yul\":9291:9297   */\n      dup5\n        /* \"#utility.yul\":9209:9304   */\n      tag_379\n      jump\t// in\n    tag_399:\n        /* \"#utility.yul\":9202:9304   */\n      swap2\n      pop\n        /* \"#utility.yul\":9321:9324   */\n      dup2\n        /* \"#utility.yul\":9314:9324   */\n      swap1\n      pop\n        /* \"#utility.yul\":8789:9330   */\n      swap3\n      swap2\n      pop\n      pop\n      jump\t// out\n        /* \"#utility.yul\":9336:9558   */\n    tag_26:\n        /* \"#utility.yul\":9429:9433   */\n      0x00\n        /* \"#utility.yul\":9467:9469   */\n      0x20\n        /* \"#utility.yul\":9456:9465   */\n      dup3\n        /* \"#utility.yul\":9452:9470   */\n      add\n        /* \"#utility.yul\":9444:9470   */\n      swap1\n      pop\n        /* \"#utility.yul\":9480:9551   */\n      tag_401\n        /* \"#utility.yul\":9548:9549   */\n      0x00\n        /* \"#utility.yul\":9537:9546   */\n      dup4\n        /* \"#utility.yul\":9533:9550   */\n      add\n        /* \"#utility.yul\":9524:9530   */\n      dup5\n        /* \"#utility.yul\":9480:9551   */\n      tag_324\n      jump\t// in\n    tag_401:\n        /* \"#utility.yul\":9336:9558   */\n      swap3\n      swap2\n      pop\n      pop\n      jump\t// out\n        /* \"#utility.yul\":9564:9937   */\n    tag_40:\n        /* \"#utility.yul\":9707:9711   */\n      0x00\n        /* \"#utility.yul\":9745:9747   */\n      0x20\n        /* \"#utility.yul\":9734:9743   */\n      dup3\n        /* \"#utility.yul\":9730:9748   */\n      add\n        /* \"#utility.yul\":9722:9748   */\n      swap1\n      pop\n        /* \"#utility.yul\":9794:9803   */\n      dup2\n        /* \"#utility.yul\":9788:9792   */\n      dup2\n        /* \"#utility.yul\":9784:9804   */\n      sub\n        /* \"#utility.yul\":9780:9781   */\n      0x00\n        /* \"#utility.yul\":9769:9778   */\n      dup4\n        /* \"#utility.yul\":9765:9782   */\n      add\n        /* \"#utility.yul\":9758:9805   */\n      mstore\n        /* \"#utility.yul\":9822:9930   */\n      tag_403\n        /* \"#utility.yul\":9925:9929   */\n      dup2\n        /* \"#utility.yul\":9916:9922   */\n      dup5\n        /* \"#utility.yul\":9822:9930   */\n      tag_327\n      jump\t// in\n    tag_403:\n        /* \"#utility.yul\":9814:9930   */\n      swap1\n      pop\n        /* \"#utility.yul\":9564:9937   */\n      swap3\n      swap2\n      pop\n      pop\n      jump\t// out\n        /* \"#utility.yul\":9943:10316   */\n    tag_34:\n        /* \"#utility.yul\":10086:10090   */\n      0x00\n        /* \"#utility.yul\":10124:10126   */\n      0x20\n        /* \"#utility.yul\":10113:10122   */\n      dup3\n        /* \"#utility.yul\":10109:10127   */\n      add\n        /* \"#utility.yul\":10101:10127   */\n      swap1\n      pop\n        /* \"#utility.yul\":10173:10182   */\n      dup2\n        /* \"#utility.yul\":10167:10171   */\n      dup2\n        /* \"#utility.yul\":10163:10183   */\n      sub\n        /* \"#utility.yul\":10159:10160   */\n      0x00\n        /* \"#utility.yul\":10148:10157   */\n      dup4\n        /* \"#utility.yul\":10144:10161   */\n      add\n        /* \"#utility.yul\":10137:10184   */\n      mstore\n        /* \"#utility.yul\":10201:10309   */\n      tag_405\n        /* \"#utility.yul\":10304:10308   */\n      dup2\n        /* \"#utility.yul\":10295:10301   */\n      dup5\n        /* \"#utility.yul\":10201:10309   */\n      tag_341\n      jump\t// in\n    tag_405:\n        /* \"#utility.yul\":10193:10309   */\n      swap1\n      pop\n        /* \"#utility.yul\":9943:10316   */\n      swap3\n      swap2\n      pop\n      pop\n      jump\t// out\n        /* \"#utility.yul\":10322:10532   */\n    tag_60:\n        /* \"#utility.yul\":10409:10413   */\n      0x00\n        /* \"#utility.yul\":10447:10449   */\n      0x20\n        /* \"#utility.yul\":10436:10445   */\n      dup3\n        /* \"#utility.yul\":10432:10450   */\n      add\n        /* \"#utility.yul\":10424:10450   */\n      swap1\n      pop\n        /* \"#utility.yul\":10460:10525   */\n      tag_407\n        /* \"#utility.yul\":10522:10523   */\n      0x00\n        /* \"#utility.yul\":10511:10520   */\n      dup4\n        /* \"#utility.yul\":10507:10524   */\n      add\n        /* \"#utility.yul\":10498:10504   */\n      dup5\n        /* \"#utility.yul\":10460:10525   */\n      tag_355\n      jump\t// in\n    tag_407:\n        /* \"#utility.yul\":10322:10532   */\n      swap3\n      swap2\n      pop\n      pop\n      jump\t// out\n        /* \"#utility.yul\":10538:10851   */\n    tag_233:\n        /* \"#utility.yul\":10651:10655   */\n      0x00\n        /* \"#utility.yul\":10689:10691   */\n      0x20\n        /* \"#utility.yul\":10678:10687   */\n      dup3\n        /* \"#utility.yul\":10674:10692   */\n      add\n        /* \"#utility.yul\":10666:10692   */\n      swap1\n      pop\n        /* \"#utility.yul\":10738:10747   */\n      dup2\n        /* \"#utility.yul\":10732:10736   */\n      dup2\n        /* \"#utility.yul\":10728:10748   */\n      sub\n        /* \"#utility.yul\":10724:10725   */\n      0x00\n        /* \"#utility.yul\":10713:10722   */\n      dup4\n        /* \"#utility.yul\":10709:10726   */\n      add\n        /* \"#utility.yul\":10702:10749   */\n      mstore\n        /* \"#utility.yul\":10766:10844   */\n      tag_409\n        /* \"#utility.yul\":10839:10843   */\n      dup2\n        /* \"#utility.yul\":10830:10836   */\n      dup5\n        /* \"#utility.yul\":10766:10844   */\n      tag_370\n      jump\t// in\n    tag_409:\n        /* \"#utility.yul\":10758:10844   */\n      swap1\n      pop\n        /* \"#utility.yul\":10538:10851   */\n      swap3\n      swap2\n      pop\n      pop\n      jump\t// out\n        /* \"#utility.yul\":10857:11276   */\n    tag_66:\n        /* \"#utility.yul\":11023:11027   */\n      0x00\n        /* \"#utility.yul\":11061:11063   */\n      0x20\n        /* \"#utility.yul\":11050:11059   */\n      dup3\n        /* \"#utility.yul\":11046:11064   */\n      add\n        /* \"#utility.yul\":11038:11064   */\n      swap1\n      pop\n        /* \"#utility.yul\":11110:11119   */\n      dup2\n        /* \"#utility.yul\":11104:11108   */\n      dup2\n        /* \"#utility.yul\":11100:11120   */\n      sub\n        /* \"#utility.yul\":11096:11097   */\n      0x00\n        /* \"#utility.yul\":11085:11094   */\n      dup4\n        /* \"#utility.yul\":11081:11098   */\n      add\n        /* \"#utility.yul\":11074:11121   */\n      mstore\n        /* \"#utility.yul\":11138:11269   */\n      tag_411\n        /* \"#utility.yul\":11264:11268   */\n      dup2\n        /* \"#utility.yul\":11138:11269   */\n      tag_390\n      jump\t// in\n    tag_411:\n        /* \"#utility.yul\":11130:11269   */\n      swap1\n      pop\n        /* \"#utility.yul\":10857:11276   */\n      swap2\n      swap1\n      pop\n      jump\t// out\n        /* \"#utility.yul\":11282:11411   */\n    tag_256:\n        /* \"#utility.yul\":11316:11322   */\n      0x00\n        /* \"#utility.yul\":11343:11363   */\n      tag_413\n      tag_414\n      jump\t// in\n    tag_413:\n        /* \"#utility.yul\":11333:11363   */\n      swap1\n      pop\n        /* \"#utility.yul\":11372:11405   */\n      tag_415\n        /* \"#utility.yul\":11400:11404   */\n      dup3\n        /* \"#utility.yul\":11392:11398   */\n      dup3\n        /* \"#utility.yul\":11372:11405   */\n      tag_416\n      jump\t// in\n    tag_415:\n        /* \"#utility.yul\":11282:11411   */\n      swap2\n      swap1\n      pop\n      jump\t// out\n        /* \"#utility.yul\":11417:11492   */\n    tag_414:\n        /* \"#utility.yul\":11450:11456   */\n      0x00\n        /* \"#utility.yul\":11483:11485   */\n      0x40\n        /* \"#utility.yul\":11477:11486   */\n      mload\n        /* \"#utility.yul\":11467:11486   */\n      swap1\n      pop\n        /* \"#utility.yul\":11417:11492   */\n      swap1\n      jump\t// out\n        /* \"#utility.yul\":11498:11805   */\n    tag_255:\n        /* \"#utility.yul\":11559:11563   */\n      0x00\n        /* \"#utility.yul\":11649:11667   */\n      0xffffffffffffffff\n        /* \"#utility.yul\":11641:11647   */\n      dup3\n        /* \"#utility.yul\":11638:11668   */\n      gt\n        /* \"#utility.yul\":11635:11691   */\n      iszero\n      tag_419\n      jumpi\n        /* \"#utility.yul\":11671:11689   */\n      tag_420\n      tag_421\n      jump\t// in\n    tag_420:\n        /* \"#utility.yul\":11635:11691   */\n    tag_419:\n        /* \"#utility.yul\":11709:11738   */\n      tag_422\n        /* \"#utility.yul\":11731:11737   */\n      dup3\n        /* \"#utility.yul\":11709:11738   */\n      tag_378\n      jump\t// in\n    tag_422:\n        /* \"#utility.yul\":11701:11738   */\n      swap1\n      pop\n        /* \"#utility.yul\":11793:11797   */\n      0x20\n        /* \"#utility.yul\":11787:11791   */\n      dup2\n        /* \"#utility.yul\":11783:11798   */\n      add\n        /* \"#utility.yul\":11775:11798   */\n      swap1\n      pop\n        /* \"#utility.yul\":11498:11805   */\n      swap2\n      swap1\n      pop\n      jump\t// out\n        /* \"#utility.yul\":11811:11943   */\n    tag_334:\n        /* \"#utility.yul\":11878:11882   */\n      0x00\n        /* \"#utility.yul\":11901:11904   */\n      dup2\n        /* \"#utility.yul\":11893:11904   */\n      swap1\n      pop\n        /* \"#utility.yul\":11931:11935   */\n      0x20\n        /* \"#utility.yul\":11926:11929   */\n      dup3\n        /* \"#utility.yul\":11922:11936   */\n      add\n        /* \"#utility.yul\":11914:11936   */\n      swap1\n      pop\n        /* \"#utility.yul\":11811:11943   */\n      swap2\n      swap1\n      pop\n      jump\t// out\n        /* \"#utility.yul\":11949:12081   */\n    tag_348:\n        /* \"#utility.yul\":12016:12020   */\n      0x00\n        /* \"#utility.yul\":12039:12042   */\n      dup2\n        /* \"#utility.yul\":12031:12042   */\n      swap1\n      pop\n        /* \"#utility.yul\":12069:12073   */\n      0x20\n        /* \"#utility.yul\":12064:12067   */\n      dup3\n        /* \"#utility.yul\":12060:12074   */\n      add\n        /* \"#utility.yul\":12052:12074   */\n      swap1\n      pop\n        /* \"#utility.yul\":11949:12081   */\n      swap2\n      swap1\n      pop\n      jump\t// out\n        /* \"#utility.yul\":12087:12201   */\n    tag_330:\n        /* \"#utility.yul\":12154:12160   */\n      0x00\n        /* \"#utility.yul\":12188:12193   */\n      dup2\n        /* \"#utility.yul\":12182:12194   */\n      mload\n        /* \"#utility.yul\":12172:12194   */\n      swap1\n      pop\n        /* \"#utility.yul\":12087:12201   */\n      swap2\n      swap1\n      pop\n      jump\t// out\n        /* \"#utility.yul\":12207:12321   */\n    tag_344:\n        /* \"#utility.yul\":12274:12280   */\n      0x00\n        /* \"#utility.yul\":12308:12313   */\n      dup2\n        /* \"#utility.yul\":12302:12314   */\n      mload\n        /* \"#utility.yul\":12292:12314   */\n      swap1\n      pop\n        /* \"#utility.yul\":12207:12321   */\n      swap2\n      swap1\n      pop\n      jump\t// out\n        /* \"#utility.yul\":12327:12425   */\n    tag_365:\n        /* \"#utility.yul\":12378:12384   */\n      0x00\n        /* \"#utility.yul\":12412:12417   */\n      dup2\n        /* \"#utility.yul\":12406:12418   */\n      mload\n        /* \"#utility.yul\":12396:12418   */\n      swap1\n      pop\n        /* \"#utility.yul\":12327:12425   */\n      swap2\n      swap1\n      pop\n      jump\t// out\n        /* \"#utility.yul\":12431:12530   */\n    tag_373:\n        /* \"#utility.yul\":12483:12489   */\n      0x00\n        /* \"#utility.yul\":12517:12522   */\n      dup2\n        /* \"#utility.yul\":12511:12523   */\n      mload\n        /* \"#utility.yul\":12501:12523   */\n      swap1\n      pop\n        /* \"#utility.yul\":12431:12530   */\n      swap2\n      swap1\n      pop\n      jump\t// out\n        /* \"#utility.yul\":12536:12649   */\n    tag_340:\n        /* \"#utility.yul\":12606:12610   */\n      0x00\n        /* \"#utility.yul\":12638:12642   */\n      0x20\n        /* \"#utility.yul\":12633:12636   */\n      dup3\n        /* \"#utility.yul\":12629:12643   */\n      add\n        /* \"#utility.yul\":12621:12643   */\n      swap1\n      pop\n        /* \"#utility.yul\":12536:12649   */\n      swap2\n      swap1\n      pop\n      jump\t// out\n        /* \"#utility.yul\":12655:12768   */\n    tag_354:\n        /* \"#utility.yul\":12725:12729   */\n      0x00\n        /* \"#utility.yul\":12757:12761   */\n      0x20\n        /* \"#utility.yul\":12752:12755   */\n      dup3\n        /* \"#utility.yul\":12748:12762   */\n      add\n        /* \"#utility.yul\":12740:12762   */\n      swap1\n      pop\n        /* \"#utility.yul\":12655:12768   */\n      swap2\n      swap1\n      pop\n      jump\t// out\n        /* \"#utility.yul\":12774:12958   */\n    tag_332:\n        /* \"#utility.yul\":12873:12884   */\n      0x00\n        /* \"#utility.yul\":12907:12913   */\n      dup3\n        /* \"#utility.yul\":12902:12905   */\n      dup3\n        /* \"#utility.yul\":12895:12914   */\n      mstore\n        /* \"#utility.yul\":12947:12951   */\n      0x20\n        /* \"#utility.yul\":12942:12945   */\n      dup3\n        /* \"#utility.yul\":12938:12952   */\n      add\n        /* \"#utility.yul\":12923:12952   */\n      swap1\n      pop\n        /* \"#utility.yul\":12774:12958   */\n      swap3\n      swap2\n      pop\n      pop\n      jump\t// out\n        /* \"#utility.yul\":12964:13148   */\n    tag_346:\n        /* \"#utility.yul\":13063:13074   */\n      0x00\n        /* \"#utility.yul\":13097:13103   */\n      dup3\n        /* \"#utility.yul\":13092:13095   */\n      dup3\n        /* \"#utility.yul\":13085:13104   */\n      mstore\n        /* \"#utility.yul\":13137:13141   */\n      0x20\n        /* \"#utility.yul\":13132:13135   */\n      dup3\n        /* \"#utility.yul\":13128:13142   */\n      add\n        /* \"#utility.yul\":13113:13142   */\n      swap1\n      pop\n        /* \"#utility.yul\":12964:13148   */\n      swap3\n      swap2\n      pop\n      pop\n      jump\t// out\n        /* \"#utility.yul\":13154:13301   */\n    tag_367:\n        /* \"#utility.yul\":13255:13266   */\n      0x00\n        /* \"#utility.yul\":13292:13295   */\n      dup2\n        /* \"#utility.yul\":13277:13295   */\n      swap1\n      pop\n        /* \"#utility.yul\":13154:13301   */\n      swap3\n      swap2\n      pop\n      pop\n      jump\t// out\n        /* \"#utility.yul\":13307:13476   */\n    tag_375:\n        /* \"#utility.yul\":13391:13402   */\n      0x00\n        /* \"#utility.yul\":13425:13431   */\n      dup3\n        /* \"#utility.yul\":13420:13423   */\n      dup3\n        /* \"#utility.yul\":13413:13432   */\n      mstore\n        /* \"#utility.yul\":13465:13469   */\n      0x20\n        /* \"#utility.yul\":13460:13463   */\n      dup3\n        /* \"#utility.yul\":13456:13470   */\n      add\n        /* \"#utility.yul\":13441:13470   */\n      swap1\n      pop\n        /* \"#utility.yul\":13307:13476   */\n      swap3\n      swap2\n      pop\n      pop\n      jump\t// out\n        /* \"#utility.yul\":13482:13630   */\n    tag_383:\n        /* \"#utility.yul\":13584:13595   */\n      0x00\n        /* \"#utility.yul\":13621:13624   */\n      dup2\n        /* \"#utility.yul\":13606:13624   */\n      swap1\n      pop\n        /* \"#utility.yul\":13482:13630   */\n      swap3\n      swap2\n      pop\n      pop\n      jump\t// out\n        /* \"#utility.yul\":13636:13732   */\n    tag_323:\n        /* \"#utility.yul\":13673:13680   */\n      0x00\n        /* \"#utility.yul\":13702:13726   */\n      tag_437\n        /* \"#utility.yul\":13720:13725   */\n      dup3\n        /* \"#utility.yul\":13702:13726   */\n      tag_438\n      jump\t// in\n    tag_437:\n        /* \"#utility.yul\":13691:13726   */\n      swap1\n      pop\n        /* \"#utility.yul\":13636:13732   */\n      swap2\n      swap1\n      pop\n      jump\t// out\n        /* \"#utility.yul\":13738:13828   */\n    tag_358:\n        /* \"#utility.yul\":13772:13779   */\n      0x00\n        /* \"#utility.yul\":13815:13820   */\n      dup2\n        /* \"#utility.yul\":13808:13821   */\n      iszero\n        /* \"#utility.yul\":13801:13822   */\n      iszero\n        /* \"#utility.yul\":13790:13822   */\n      swap1\n      pop\n        /* \"#utility.yul\":13738:13828   */\n      swap2\n      swap1\n      pop\n      jump\t// out\n        /* \"#utility.yul\":13834:13911   */\n    tag_361:\n        /* \"#utility.yul\":13871:13878   */\n      0x00\n        /* \"#utility.yul\":13900:13905   */\n      dup2\n        /* \"#utility.yul\":13889:13905   */\n      swap1\n      pop\n        /* \"#utility.yul\":13834:13911   */\n      swap2\n      swap1\n      pop\n      jump\t// out\n        /* \"#utility.yul\":13917:14043   */\n    tag_438:\n        /* \"#utility.yul\":13954:13961   */\n      0x00\n        /* \"#utility.yul\":13994:14036   */\n      0xffffffffffffffffffffffffffffffffffffffff\n        /* \"#utility.yul\":13987:13992   */\n      dup3\n        /* \"#utility.yul\":13983:14037   */\n      and\n        /* \"#utility.yul\":13972:14037   */\n      swap1\n      pop\n        /* \"#utility.yul\":13917:14043   */\n      swap2\n      swap1\n      pop\n      jump\t// out\n        /* \"#utility.yul\":14049:14126   */\n    tag_442:\n        /* \"#utility.yul\":14086:14093   */\n      0x00\n        /* \"#utility.yul\":14115:14120   */\n      dup2\n        /* \"#utility.yul\":14104:14120   */\n      swap1\n      pop\n        /* \"#utility.yul\":14049:14126   */\n      swap2\n      swap1\n      pop\n      jump\t// out\n        /* \"#utility.yul\":14132:14286   */\n    tag_261:\n        /* \"#utility.yul\":14216:14222   */\n      dup3\n        /* \"#utility.yul\":14211:14214   */\n      dup2\n        /* \"#utility.yul\":14206:14209   */\n      dup4\n        /* \"#utility.yul\":14193:14223   */\n      calldatacopy\n        /* \"#utility.yul\":14278:14279   */\n      0x00\n        /* \"#utility.yul\":14269:14275   */\n      dup4\n        /* \"#utility.yul\":14264:14267   */\n      dup4\n        /* \"#utility.yul\":14260:14276   */\n      add\n        /* \"#utility.yul\":14253:14280   */\n      mstore\n        /* \"#utility.yul\":14132:14286   */\n      pop\n      pop\n      pop\n      jump\t// out\n        /* \"#utility.yul\":14292:14599   */\n    tag_369:\n        /* \"#utility.yul\":14360:14361   */\n      0x00\n        /* \"#utility.yul\":14370:14483   */\n    tag_446:\n        /* \"#utility.yul\":14384:14390   */\n      dup4\n        /* \"#utility.yul\":14381:14382   */\n      dup2\n        /* \"#utility.yul\":14378:14391   */\n      lt\n        /* \"#utility.yul\":14370:14483   */\n      iszero\n      tag_448\n      jumpi\n        /* \"#utility.yul\":14469:14470   */\n      dup1\n        /* \"#utility.yul\":14464:14467   */\n      dup3\n        /* \"#utility.yul\":14460:14471   */\n      add\n        /* \"#utility.yul\":14454:14472   */\n      mload\n        /* \"#utility.yul\":14450:14451   */\n      dup2\n        /* \"#utility.yul\":14445:14448   */\n      dup5\n        /* \"#utility.yul\":14441:14452   */\n      add\n        /* \"#utility.yul\":14434:14473   */\n      mstore\n        /* \"#utility.yul\":14406:14408   */\n      0x20\n        /* \"#utility.yul\":14403:14404   */\n      dup2\n        /* \"#utility.yul\":14399:14409   */\n      add\n        /* \"#utility.yul\":14394:14409   */\n      swap1\n      pop\n        /* \"#utility.yul\":14370:14483   */\n      jump(tag_446)\n    tag_448:\n        /* \"#utility.yul\":14501:14507   */\n      dup4\n        /* \"#utility.yul\":14498:14499   */\n      dup2\n        /* \"#utility.yul\":14495:14508   */\n      gt\n        /* \"#utility.yul\":14492:14593   */\n      iszero\n      tag_449\n      jumpi\n        /* \"#utility.yul\":14581:14582   */\n      0x00\n        /* \"#utility.yul\":14572:14578   */\n      dup5\n        /* \"#utility.yul\":14567:14570   */\n      dup5\n        /* \"#utility.yul\":14563:14579   */\n      add\n        /* \"#utility.yul\":14556:14583   */\n      mstore\n        /* \"#utility.yul\":14492:14593   */\n    tag_449:\n        /* \"#utility.yul\":14341:14599   */\n      pop\n        /* \"#utility.yul\":14292:14599   */\n      pop\n      pop\n      pop\n      jump\t// out\n        /* \"#utility.yul\":14605:14886   */\n    tag_416:\n        /* \"#utility.yul\":14688:14715   */\n      tag_451\n        /* \"#utility.yul\":14710:14714   */\n      dup3\n        /* \"#utility.yul\":14688:14715   */\n      tag_378\n      jump\t// in\n    tag_451:\n        /* \"#utility.yul\":14680:14686   */\n      dup2\n        /* \"#utility.yul\":14676:14716   */\n      add\n        /* \"#utility.yul\":14818:14824   */\n      dup2\n        /* \"#utility.yul\":14806:14816   */\n      dup2\n        /* \"#utility.yul\":14803:14825   */\n      lt\n        /* \"#utility.yul\":14782:14800   */\n      0xffffffffffffffff\n        /* \"#utility.yul\":14770:14780   */\n      dup3\n        /* \"#utility.yul\":14767:14801   */\n      gt\n        /* \"#utility.yul\":14764:14826   */\n      or\n        /* \"#utility.yul\":14761:14849   */\n      iszero\n      tag_452\n      jumpi\n        /* \"#utility.yul\":14829:14847   */\n      tag_453\n      tag_421\n      jump\t// in\n    tag_453:\n        /* \"#utility.yul\":14761:14849   */\n    tag_452:\n        /* \"#utility.yul\":14869:14879   */\n      dup1\n        /* \"#utility.yul\":14865:14867   */\n      0x40\n        /* \"#utility.yul\":14858:14880   */\n      mstore\n        /* \"#utility.yul\":14648:14886   */\n      pop\n        /* \"#utility.yul\":14605:14886   */\n      pop\n      pop\n      jump\t// out\n        /* \"#utility.yul\":14892:15125   */\n    tag_161:\n        /* \"#utility.yul\":14931:14934   */\n      0x00\n        /* \"#utility.yul\":14954:14978   */\n      tag_455\n        /* \"#utility.yul\":14972:14977   */\n      dup3\n        /* \"#utility.yul\":14954:14978   */\n      tag_442\n      jump\t// in\n    tag_455:\n        /* \"#utility.yul\":14945:14978   */\n      swap2\n      pop\n        /* \"#utility.yul\":15000:15066   */\n      0xffffffffffffffffffffffffffffffffffffffffffffffffffffffffffffffff\n        /* \"#utility.yul\":14993:14998   */\n      dup3\n        /* \"#utility.yul\":14990:15067   */\n      eq\n        /* \"#utility.yul\":14987:15090   */\n      iszero\n      tag_456\n      jumpi\n        /* \"#utility.yul\":15070:15088   */\n      tag_457\n      tag_458\n      jump\t// in\n    tag_457:\n        /* \"#utility.yul\":14987:15090   */\n    tag_456:\n        /* \"#utility.yul\":15117:15118   */\n      0x01\n        /* \"#utility.yul\":15110:15115   */\n      dup3\n        /* \"#utility.yul\":15106:15119   */\n      add\n        /* \"#utility.yul\":15099:15119   */\n      swap1\n      pop\n        /* \"#utility.yul\":14892:15125   */\n      swap2\n      swap1\n      pop\n      jump\t// out\n        /* \"#utility.yul\":15131:15311   */\n    tag_458:\n        /* \"#utility.yul\":15179:15256   */\n      0x4e487b7100000000000000000000000000000000000000000000000000000000\n        /* \"#utility.yul\":15176:15177   */\n      0x00\n        /* \"#utility.yul\":15169:15257   */\n      mstore\n        /* \"#utility.yul\":15276:15280   */\n      0x11\n        /* \"#utility.yul\":15273:15274   */\n      0x04\n        /* \"#utility.yul\":15266:15281   */\n      mstore\n        /* \"#utility.yul\":15300:15304   */\n      0x24\n        /* \"#utility.yul\":15297:15298   */\n      0x00\n        /* \"#utility.yul\":15290:15305   */\n      revert\n        /* \"#utility.yul\":15317:15497   */\n    tag_180:\n        /* \"#utility.yul\":15365:15442   */\n      0x4e487b7100000000000000000000000000000000000000000000000000000000\n        /* \"#utility.yul\":15362:15363   */\n      0x00\n        /* \"#utility.yul\":15355:15443   */\n      mstore\n        /* \"#utility.yul\":15462:15466   */\n      0x32\n        /* \"#utility.yul\":15459:15460   */\n      0x04\n        /* \"#utility.yul\":15452:15467   */\n      mstore\n        /* \"#utility.yul\":15486:15490   */\n      0x24\n        /* \"#utility.yul\":15483:15484   */\n      0x00\n        /* \"#utility.yul\":15476:15491   */\n      revert\n        /* \"#utility.yul\":15503:15683   */\n    tag_421:\n        /* \"#utility.yul\":15551:15628   */\n      0x4e487b7100000000000000000000000000000000000000000000000000000000\n        /* \"#utility.yul\":15548:15549   */\n      0x00\n        /* \"#utility.yul\":15541:15629   */\n      mstore\n        /* \"#utility.yul\":15648:15652   */\n      0x41\n        /* \"#utility.yul\":15645:15646   */\n      0x04\n        /* \"#utility.yul\":15638:15653   */\n      mstore\n        /* \"#utility.yul\":15672:15676   */\n      0x24\n        /* \"#utility.yul\":15669:15670   */\n      0x00\n        /* \"#utility.yul\":15662:15677   */\n      revert\n        /* \"#utility.yul\":15689:15806   */\n    tag_274:\n        /* \"#utility.yul\":15798:15799   */\n      0x00\n        /* \"#utility.yul\":15795:15796   */\n      dup1\n        /* \"#utility.yul\":15788:15800   */\n      revert\n        /* \"#utility.yul\":15812:15929   */\n    tag_259:\n        /* \"#utility.yul\":15921:15922   */\n      0x00\n        /* \"#utility.yul\":15918:15919   */\n      dup1\n        /* \"#utility.yul\":15911:15923   */\n      revert\n        /* \"#utility.yul\":15935:16052   */\n    tag_295:\n        /* \"#utility.yul\":16044:16045   */\n      0x00\n        /* \"#utility.yul\":16041:16042   */\n      dup1\n        /* \"#utility.yul\":16034:16046   */\n      revert\n        /* \"#utility.yul\":16058:16175   */\n    tag_279:\n        /* \"#utility.yul\":16167:16168   */\n      0x00\n        /* \"#utility.yul\":16164:16165   */\n      dup1\n        /* \"#utility.yul\":16157:16169   */\n      revert\n        /* \"#utility.yul\":16181:16283   */\n    tag_378:\n        /* \"#utility.yul\":16222:16228   */\n      0x00\n        /* \"#utility.yul\":16273:16275   */\n      0x1f\n        /* \"#utility.yul\":16269:16276   */\n      not\n        /* \"#utility.yul\":16264:16266   */\n      0x1f\n        /* \"#utility.yul\":16257:16262   */\n      dup4\n        /* \"#utility.yul\":16253:16267   */\n      add\n        /* \"#utility.yul\":16249:16277   */\n      and\n        /* \"#utility.yul\":16239:16277   */\n      swap1\n      pop\n        /* \"#utility.yul\":16181:16283   */\n      swap2\n      swap1\n      pop\n      jump\t// out\n        /* \"#utility.yul\":16289:16454   */\n    tag_389:\n        /* \"#utility.yul\":16429:16446   */\n      0x416363657373436f6e74726f6c3a200000000000000000000000000000000000\n        /* \"#utility.yul\":16425:16426   */\n      0x00\n        /* \"#utility.yul\":16417:16423   */\n      dup3\n        /* \"#utility.yul\":16413:16427   */\n      add\n        /* \"#utility.yul\":16406:16447   */\n      mstore\n        /* \"#utility.yul\":16289:16454   */\n      pop\n      jump\t// out\n        /* \"#utility.yul\":16460:16709   */\n    tag_394:\n        /* \"#utility.yul\":16600:16634   */\n      0x416363657373436f6e74726f6c3a20596f752068617665206e6f207065726d69\n        /* \"#utility.yul\":16596:16597   */\n      0x00\n        /* \"#utility.yul\":16588:16594   */\n      dup3\n        /* \"#utility.yul\":16584:16598   */\n      add\n        /* \"#utility.yul\":16577:16635   */\n      mstore\n        /* \"#utility.yul\":16669:16701   */\n      0x7373696f6e20746f2061636365737320746869732066756e6374696f6e2e0000\n        /* \"#utility.yul\":16664:16666   */\n      0x20\n        /* \"#utility.yul\":16656:16662   */\n      dup3\n        /* \"#utility.yul\":16652:16667   */\n      add\n        /* \"#utility.yul\":16645:16702   */\n      mstore\n        /* \"#utility.yul\":16460:16709   */\n      pop\n      jump\t// out\n        /* \"#utility.yul\":16715:16837   */\n    tag_265:\n        /* \"#utility.yul\":16788:16812   */\n      tag_470\n        /* \"#utility.yul\":16806:16811   */\n      dup2\n        /* \"#utility.yul\":16788:16812   */\n      tag_323\n      jump\t// in\n    tag_470:\n        /* \"#utility.yul\":16781:16786   */\n      dup2\n        /* \"#utility.yul\":16778:16813   */\n      eq\n        /* \"#utility.yul\":16768:16831   */\n      tag_471\n      jumpi\n        /* \"#utility.yul\":16827:16828   */\n      0x00\n        /* \"#utility.yul\":16824:16825   */\n      dup1\n        /* \"#utility.yul\":16817:16829   */\n      revert\n        /* \"#utility.yul\":16768:16831   */\n    tag_471:\n        /* \"#utility.yul\":16715:16837   */\n      pop\n      jump\t// out\n        /* \"#utility.yul\":16843:16965   */\n    tag_269:\n        /* \"#utility.yul\":16916:16940   */\n      tag_473\n        /* \"#utility.yul\":16934:16939   */\n      dup2\n        /* \"#utility.yul\":16916:16940   */\n      tag_361\n      jump\t// in\n    tag_473:\n        /* \"#utility.yul\":16909:16914   */\n      dup2\n        /* \"#utility.yul\":16906:16941   */\n      eq\n        /* \"#utility.yul\":16896:16959   */\n      tag_474\n      jumpi\n        /* \"#utility.yul\":16955:16956   */\n      0x00\n        /* \"#utility.yul\":16952:16953   */\n      dup1\n        /* \"#utility.yul\":16945:16957   */\n      revert\n        /* \"#utility.yul\":16896:16959   */\n    tag_474:\n        /* \"#utility.yul\":16843:16965   */\n      pop\n      jump\t// out\n    stop\n    data_601972b90d37b25432db4389d8031f8daa2518ef8d99fbf07fd5717b0953de49 546865207065726d697373696f6e206973206e6f742076616c6964206f7220746865206163636f756e74206973206e6f7420696e20746865207065726d697373696f6e2e\n\n    auxdata: 0xa26469706673582212201e331f981afc946ffe3e6b31c5256e7dbb78ae19e01466075c7472bf69a775e164736f6c63430008070033\n}\n",
				"bytecode": {
					"linkReferences": {},
					"object": "608060405234801561001057600080fd5b5061001f61002460201b60201c565b6101ff565b60016000807fdf8b4c520ffe197c5343c6f5aec59570151ef9a492f2c624fd45ddde6135ec42815260200190815260200160002060030160006101000a81548160ff02191690831515021790555060016000807fdf8b4c520ffe197c5343c6f5aec59570151ef9a492f2c624fd45ddde6135ec42815260200190815260200160002060000160003373ffffffffffffffffffffffffffffffffffffffff1673ffffffffffffffffffffffffffffffffffffffff16815260200190815260200160002060006101000a81548160ff021916908315150217905550336000807fdf8b4c520ffe197c5343c6f5aec59570151ef9a492f2c624fd45ddde6135ec428152602001908152602001600020600101600080815260200190815260200160002060006101000a81548173ffffffffffffffffffffffffffffffffffffffff021916908373ffffffffffffffffffffffffffffffffffffffff16021790555060016000807fdf8b4c520ffe197c5343c6f5aec59570151ef9a492f2c624fd45ddde6135ec4281526020019081526020016000206002018190555060016002819055507fdf8b4c520ffe197c5343c6f5aec59570151ef9a492f2c624fd45ddde6135ec426001600080815260200190815260200160002081905550565b6125d58061020e6000396000f3fe608060405234801561001057600080fd5b50600436106100a95760003560e01c80639b8f3bbc116100715780639b8f3bbc14610150578063a10f952414610180578063aae7c78a1461019c578063c7dc6220146101b8578063c98d6f1e146101d4578063e9cb00a2146101f0576100a9565b8063342da059146100ae5780634c1b64cb146100ca5780637058dd24146100e657806375829def1461010457806380891cb214610120575b600080fd5b6100c860048036038101906100c39190611dd5565b610220565b005b6100e460048036038101906100df9190611d3b565b610297565b005b6100ee61030e565b6040516100fb9190612134565b60405180910390f35b61011e60048036038101906101199190611d3b565b610388565b005b61013a60048036038101906101359190611d3b565b6103ff565b6040516101479190612171565b60405180910390f35b61016a60048036038101906101659190611d68565b61047c565b604051610177919061214f565b60405180910390f35b61019a60048036038101906101959190611e7a565b6104f9565b005b6101b660048036038101906101b19190611dd5565b610572565b005b6101d260048036038101906101cd9190611e1e565b6105e9565b005b6101ee60048036038101906101e99190611e1e565b610662565b005b61020a60048036038101906102059190611d95565b6106db565b6040516102179190612193565b60405180910390f35b7f73d57861095ed1ff7b0e5c00e25f9fc922cf9164e617149ee7073f371364c95461024b813361075a565b61028a576040517f08c379a0000000000000000000000000000000000000000000000000000000008152600401610281906121d0565b60405180910390fd5b610293826107f5565b5050565b7f73d57861095ed1ff7b0e5c00e25f9fc922cf9164e617149ee7073f371364c9546102c2813361075a565b610301576040517f08c379a00000000000000000000000000000000000000000000000000000000081526004016102f8906121d0565b60405180910390fd5b61030a82610924565b5050565b60007fa724c0857099da33c38b932ce5d4e84578ee9792153085d9d5e379bfba70cacb61033b813361075a565b61037a576040517f08c379a0000000000000000000000000000000000000000000000000000000008152600401610371906121d0565b60405180910390fd5b610382610b42565b91505090565b7f73d57861095ed1ff7b0e5c00e25f9fc922cf9164e617149ee7073f371364c9546103b3813361075a565b6103f2576040517f08c379a00000000000000000000000000000000000000000000000000000000081526004016103e9906121d0565b60405180910390fd5b6103fb82610cf7565b5050565b60607fa724c0857099da33c38b932ce5d4e84578ee9792153085d9d5e379bfba70cacb61042c813361075a565b61046b576040517f08c379a0000000000000000000000000000000000000000000000000000000008152600401610462906121d0565b60405180910390fd5b61047483610e94565b915050919050565b60607fa724c0857099da33c38b932ce5d4e84578ee9792153085d9d5e379bfba70cacb6104a9813361075a565b6104e8576040517f08c379a00000000000000000000000000000000000000000000000000000000081526004016104df906121d0565b60405180910390fd5b6104f183610f7d565b915050919050565b7f73d57861095ed1ff7b0e5c00e25f9fc922cf9164e617149ee7073f371364c954610524813361075a565b610563576040517f08c379a000000000000000000000000000000000000000000000000000000000815260040161055a906121d0565b60405180910390fd5b61056d838361110d565b505050565b7f73d57861095ed1ff7b0e5c00e25f9fc922cf9164e617149ee7073f371364c95461059d813361075a565b6105dc576040517f08c379a00000000000000000000000000000000000000000000000000000000081526004016105d3906121d0565b60405180910390fd5b6105e582611403565b5050565b7f73d57861095ed1ff7b0e5c00e25f9fc922cf9164e617149ee7073f371364c954610614813361075a565b610653576040517f08c379a000000000000000000000000000000000000000000000000000000000815260040161064a906121d0565b60405180910390fd5b61065d838361176b565b505050565b7f73d57861095ed1ff7b0e5c00e25f9fc922cf9164e617149ee7073f371364c95461068d813361075a565b6106cc576040517f08c379a00000000000000000000000000000000000000000000000000000000081526004016106c3906121d0565b60405180910390fd5b6106d683836118f9565b505050565b60007fa724c0857099da33c38b932ce5d4e84578ee9792153085d9d5e379bfba70cacb610708813361075a565b610747576040517f08c379a000000000000000000000000000000000000000000000000000000000815260040161073e906121d0565b60405180910390fd5b6107518484611a47565b91505092915050565b600080600084815260200190815260200160002060030160009054906101000a900460ff1661078c57600090506107ef565b60008084815260200190815260200160002060000160008373ffffffffffffffffffffffffffffffffffffffff1673ffffffffffffffffffffffffffffffffffffffff16815260200190815260200160002060009054906101000a900460ff1690505b92915050565b60008180519060200120905060008082815260200190815260200160002060030160009054906101000a900460ff16801561085057507fdf8b4c520ffe197c5343c6f5aec59570151ef9a492f2c624fd45ddde6135ec428114155b156108e157600080600083815260200190815260200160002060030160006101000a81548160ff0219169083151502179055503373ffffffffffffffffffffffffffffffffffffffff16826040516108a891906120fb565b60405180910390207fef4f3adabb4ce2cc6076cc23d211eff03f6e49839a9d773d7c77f48a83a2d85960405160405180910390a3610920565b61091f6040518060400160405280601c81526020017f546865207065726d697373696f6e206973206e6f742076616c69642e00000000815250611a5b565b5b5050565b61094e7fdf8b4c520ffe197c5343c6f5aec59570151ef9a492f2c624fd45ddde6135ec428261075a565b1580610980575061097f7fdf8b4c520ffe197c5343c6f5aec59570151ef9a492f2c624fd45ddde6135ec423361075a565b5b15610b00576000600190505b600254811015610aa0576000806001600084815260200190815260200160002054815260200190815260200160002060000160008373ffffffffffffffffffffffffffffffffffffffff1673ffffffffffffffffffffffffffffffffffffffff16815260200190815260200160002060009054906101000a900460ff1615610a8d5760008060006001600085815260200190815260200160002054815260200190815260200160002060000160008473ffffffffffffffffffffffffffffffffffffffff1673ffffffffffffffffffffffffffffffffffffffff16815260200190815260200160002060006101000a81548160ff0219169083151502179055505b8080610a98906123ba565b91505061098c565b503373ffffffffffffffffffffffffffffffffffffffff168173ffffffffffffffffffffffffffffffffffffffff167ffd7e144a5e02c1180e00f9591ef4f60aa95b127c4f134847224a4b6cb99fef9660405160405180910390a3610b3f565b610b3e6040518060400160405280601881526020017f596f752063616e6e6f742064656c6574652041444d494e2e0000000000000000815250611a5b565b5b50565b600080600090505b6000807fdf8b4c520ffe197c5343c6f5aec59570151ef9a492f2c624fd45ddde6135ec42815260200190815260200160002060020154811015610c8a576000807fdf8b4c520ffe197c5343c6f5aec59570151ef9a492f2c624fd45ddde6135ec42815260200190815260200160002060000160008060007fdf8b4c520ffe197c5343c6f5aec59570151ef9a492f2c624fd45ddde6135ec428152602001908152602001600020600101600084815260200190815260200160002060009054906101000a900473ffffffffffffffffffffffffffffffffffffffff1673ffffffffffffffffffffffffffffffffffffffff1673ffffffffffffffffffffffffffffffffffffffff16815260200190815260200160002060009054906101000a900460ff1615610c7757610c8a565b8080610c82906123ba565b915050610b4a565b6000807fdf8b4c520ffe197c5343c6f5aec59570151ef9a492f2c624fd45ddde6135ec428152602001908152602001600020600101600082815260200190815260200160002060009054906101000a900473ffffffffffffffffffffffffffffffffffffffff1691505090565b60008060007fdf8b4c520ffe197c5343c6f5aec59570151ef9a492f2c624fd45ddde6135ec42815260200190815260200160002060000160003373ffffffffffffffffffffffffffffffffffffffff1673ffffffffffffffffffffffffffffffffffffffff16815260200190815260200160002060006101000a81548160ff021916908315150217905550610dac7fdf8b4c520ffe197c5343c6f5aec59570151ef9a492f2c624fd45ddde6135ec4282611ab7565b60016000807fdf8b4c520ffe197c5343c6f5aec59570151ef9a492f2c624fd45ddde6135ec42815260200190815260200160002060000160008373ffffffffffffffffffffffffffffffffffffffff1673ffffffffffffffffffffffffffffffffffffffff16815260200190815260200160002060006101000a81548160ff0219169083151502179055503373ffffffffffffffffffffffffffffffffffffffff168173ffffffffffffffffffffffffffffffffffffffff167f173de3514d8508f36ce8c81d509adcd8c8c76098400f685d3042b36f9a4160c360405160405180910390a350565b6060806000805b600254811015610f72576000806001600084815260200190815260200160002054815260200190815260200160002060000160008673ffffffffffffffffffffffffffffffffffffffff1673ffffffffffffffffffffffffffffffffffffffff16815260200190815260200160002060009054906101000a900460ff1615610f5f576001600082815260200190815260200160002054838381518110610f4457610f43612432565b5b6020026020010181815250508180610f5b906123ba565b9250505b8080610f6a906123ba565b915050610e9b565b508192505050919050565b6060806000805b60008086815260200190815260200160002060020154811015611102576000808681526020019081526020016000206000016000806000888152602001908152602001600020600101600084815260200190815260200160002060009054906101000a900473ffffffffffffffffffffffffffffffffffffffff1673ffffffffffffffffffffffffffffffffffffffff1673ffffffffffffffffffffffffffffffffffffffff16815260200190815260200160002060009054906101000a900460ff16156110ef57600080868152602001908152602001600020600101600082815260200190815260200160002060009054906101000a900473ffffffffffffffffffffffffffffffffffffffff168383815181106110a6576110a5612432565b5b602002602001019073ffffffffffffffffffffffffffffffffffffffff16908173ffffffffffffffffffffffffffffffffffffffff168152505081806110eb906123ba565b9250505b80806110fa906123ba565b915050610f84565b508192505050919050565b60008280519060200120905060008280519060200120905060008083815260200190815260200160002060030160009054906101000a900460ff166113be5761115582611c1f565b600160008084815260200190815260200160002060030160006101000a81548160ff02191690831515021790555060005b60008083815260200190815260200160002060020154811015611330576000806000848152602001908152602001600020600101600083815260200190815260200160002060009054906101000a900473ffffffffffffffffffffffffffffffffffffffff16905060008084815260200190815260200160002060000160008273ffffffffffffffffffffffffffffffffffffffff1673ffffffffffffffffffffffffffffffffffffffff16815260200190815260200160002060009054906101000a900460ff1660008086815260200190815260200160002060000160008373ffffffffffffffffffffffffffffffffffffffff1673ffffffffffffffffffffffffffffffffffffffff16815260200190815260200160002060006101000a81548160ff02191690831515021790555080600080868152602001908152602001600020600101600084815260200190815260200160002060006101000a81548173ffffffffffffffffffffffffffffffffffffffff021916908373ffffffffffffffffffffffffffffffffffffffff160217905550508080611328906123ba565b915050611186565b5060008082815260200190815260200160002060020154600080848152602001908152602001600020600201819055503373ffffffffffffffffffffffffffffffffffffffff168460405161138591906120fb565b60405180910390207f629a748ba580fe181c6ae2d3673c4bdfea9e1f2d334f36beec502aff5dbaeff260405160405180910390a36113fd565b6113fc6040518060400160405280602081526020017f546865207065726d697373696f6e2068617320616c726561792065786973742e815250611a5b565b5b50505050565b60008180519060200120905060008082815260200190815260200160002060030160009054906101000a900460ff166117285761143f81611c1f565b600160008083815260200190815260200160002060030160006101000a81548160ff02191690831515021790555060005b6000807fdf8b4c520ffe197c5343c6f5aec59570151ef9a492f2c624fd45ddde6135ec4281526020019081526020016000206002015481101561167a5760008060007fdf8b4c520ffe197c5343c6f5aec59570151ef9a492f2c624fd45ddde6135ec428152602001908152602001600020600101600083815260200190815260200160002060009054906101000a900473ffffffffffffffffffffffffffffffffffffffff1690506000807fdf8b4c520ffe197c5343c6f5aec59570151ef9a492f2c624fd45ddde6135ec42815260200190815260200160002060000160008273ffffffffffffffffffffffffffffffffffffffff1673ffffffffffffffffffffffffffffffffffffffff16815260200190815260200160002060009054906101000a900460ff1660008085815260200190815260200160002060000160008373ffffffffffffffffffffffffffffffffffffffff1673ffffffffffffffffffffffffffffffffffffffff16815260200190815260200160002060006101000a81548160ff02191690831515021790555080600080858152602001908152602001600020600101600084815260200190815260200160002060006101000a81548173ffffffffffffffffffffffffffffffffffffffff021916908373ffffffffffffffffffffffffffffffffffffffff160217905550508080611672906123ba565b915050611470565b506000807fdf8b4c520ffe197c5343c6f5aec59570151ef9a492f2c624fd45ddde6135ec42815260200190815260200160002060020154600080838152602001908152602001600020600201819055503373ffffffffffffffffffffffffffffffffffffffff16826040516116ef91906120fb565b60405180910390207f629a748ba580fe181c6ae2d3673c4bdfea9e1f2d334f36beec502aff5dbaeff260405160405180910390a3611767565b6117666040518060400160405280602081526020017f546865207065726d697373696f6e2068617320616c726561792065786973742e815250611a5b565b5b5050565b60008280519060200120905060008082815260200190815260200160002060030160009054906101000a900460ff1680156117c657507fdf8b4c520ffe197c5343c6f5aec59570151ef9a492f2c624fd45ddde6135ec428114155b156118b5576117d58183611ab7565b600160008083815260200190815260200160002060000160008473ffffffffffffffffffffffffffffffffffffffff1673ffffffffffffffffffffffffffffffffffffffff16815260200190815260200160002060006101000a81548160ff0219169083151502179055503373ffffffffffffffffffffffffffffffffffffffff168273ffffffffffffffffffffffffffffffffffffffff168460405161187c91906120fb565b60405180910390207f1bbdb8ca05419dffb11afa5105f78331a46e3d8a8b900efb115bbb4175a9c2d360405160405180910390a46118f4565b6118f36040518060400160405280601c81526020017f546865207065726d697373696f6e206973206e6f742076616c69642e00000000815250611a5b565b5b505050565b60008280519060200120905061190f818361075a565b801561193b57507fdf8b4c520ffe197c5343c6f5aec59570151ef9a492f2c624fd45ddde6135ec428114155b15611a2057600080600083815260200190815260200160002060000160008473ffffffffffffffffffffffffffffffffffffffff1673ffffffffffffffffffffffffffffffffffffffff16815260200190815260200160002060006101000a81548160ff0219169083151502179055503373ffffffffffffffffffffffffffffffffffffffff168273ffffffffffffffffffffffffffffffffffffffff16846040516119e791906120fb565b60405180910390207f5658f0a44f1b55364ef0376f818ea716aee06d4e966974edba8ae1b8fa1e379c60405160405180910390a4611a42565b611a4160405180608001604052806044815260200161255c60449139611a5b565b5b505050565b6000611a53838361075a565b905092915050565b80604051602001611a6c9190612112565b6040516020818303038152906040526040517f08c379a0000000000000000000000000000000000000000000000000000000008152600401611aae91906121ae565b60405180910390fd5b6000805b60008085815260200190815260200160002060020154811015611b6e578273ffffffffffffffffffffffffffffffffffffffff16600080868152602001908152602001600020600101600083815260200190815260200160002060009054906101000a900473ffffffffffffffffffffffffffffffffffffffff1673ffffffffffffffffffffffffffffffffffffffff161415611b5b5760019150611b6e565b8080611b66906123ba565b915050611abb565b5080611c1a5781600080858152602001908152602001600020600101600080600087815260200190815260200160002060020154815260200190815260200160002060006101000a81548173ffffffffffffffffffffffffffffffffffffffff021916908373ffffffffffffffffffffffffffffffffffffffff1602179055506000808481526020019081526020016000206002016000815480929190611c14906123ba565b91905055505b505050565b6000805b600254811015611c64578260016000838152602001908152602001600020541415611c515760019150611c64565b8080611c5c906123ba565b915050611c23565b5080611c9d57816001600060025481526020019081526020016000208190555060026000815480929190611c97906123ba565b91905055505b5050565b6000611cb4611caf84612215565b6121f0565b905082815260208101848484011115611cd057611ccf612495565b5b611cdb848285612347565b509392505050565b600081359050611cf28161252d565b92915050565b600081359050611d0781612544565b92915050565b600082601f830112611d2257611d21612490565b5b8135611d32848260208601611ca1565b91505092915050565b600060208284031215611d5157611d5061249f565b5b6000611d5f84828501611ce3565b91505092915050565b600060208284031215611d7e57611d7d61249f565b5b6000611d8c84828501611cf8565b91505092915050565b60008060408385031215611dac57611dab61249f565b5b6000611dba85828601611cf8565b9250506020611dcb85828601611ce3565b9150509250929050565b600060208284031215611deb57611dea61249f565b5b600082013567ffffffffffffffff811115611e0957611e0861249a565b5b611e1584828501611d0d565b91505092915050565b60008060408385031215611e3557611e3461249f565b5b600083013567ffffffffffffffff811115611e5357611e5261249a565b5b611e5f85828601611d0d565b9250506020611e7085828601611ce3565b9150509250929050565b60008060408385031215611e9157611e9061249f565b5b600083013567ffffffffffffffff811115611eaf57611eae61249a565b5b611ebb85828601611d0d565b925050602083013567ffffffffffffffff811115611edc57611edb61249a565b5b611ee885828601611d0d565b9150509250929050565b6000611efe8383611f22565b60208301905092915050565b6000611f16838361200b565b60208301905092915050565b611f2b816122f5565b82525050565b611f3a816122f5565b82525050565b6000611f4b82612266565b611f5581856122ac565b9350611f6083612246565b8060005b83811015611f91578151611f788882611ef2565b9750611f8383612292565b925050600181019050611f64565b5085935050505092915050565b6000611fa982612271565b611fb381856122bd565b9350611fbe83612256565b8060005b83811015611fef578151611fd68882611f0a565b9750611fe18361229f565b925050600181019050611fc2565b5085935050505092915050565b61200581612307565b82525050565b61201481612313565b82525050565b60006120258261227c565b61202f81856122ce565b935061203f818560208601612356565b80840191505092915050565b600061205682612287565b61206081856122d9565b9350612070818560208601612356565b612079816124a4565b840191505092915050565b600061208f82612287565b61209981856122ea565b93506120a9818560208601612356565b80840191505092915050565b60006120c2600f836122ea565b91506120cd826124b5565b600f82019050919050565b60006120e5603e836122d9565b91506120f0826124de565b604082019050919050565b6000612107828461201a565b915081905092915050565b600061211d826120b5565b91506121298284612084565b915081905092915050565b60006020820190506121496000830184611f31565b92915050565b600060208201905081810360008301526121698184611f40565b905092915050565b6000602082019050818103600083015261218b8184611f9e565b905092915050565b60006020820190506121a86000830184611ffc565b92915050565b600060208201905081810360008301526121c8818461204b565b905092915050565b600060208201905081810360008301526121e9816120d8565b9050919050565b60006121fa61220b565b90506122068282612389565b919050565b6000604051905090565b600067ffffffffffffffff8211156122305761222f612461565b5b612239826124a4565b9050602081019050919050565b6000819050602082019050919050565b6000819050602082019050919050565b600081519050919050565b600081519050919050565b600081519050919050565b600081519050919050565b6000602082019050919050565b6000602082019050919050565b600082825260208201905092915050565b600082825260208201905092915050565b600081905092915050565b600082825260208201905092915050565b600081905092915050565b60006123008261231d565b9050919050565b60008115159050919050565b6000819050919050565b600073ffffffffffffffffffffffffffffffffffffffff82169050919050565b6000819050919050565b82818337600083830152505050565b60005b83811015612374578082015181840152602081019050612359565b83811115612383576000848401525b50505050565b612392826124a4565b810181811067ffffffffffffffff821117156123b1576123b0612461565b5b80604052505050565b60006123c58261233d565b91507fffffffffffffffffffffffffffffffffffffffffffffffffffffffffffffffff8214156123f8576123f7612403565b5b600182019050919050565b7f4e487b7100000000000000000000000000000000000000000000000000000000600052601160045260246000fd5b7f4e487b7100000000000000000000000000000000000000000000000000000000600052603260045260246000fd5b7f4e487b7100000000000000000000000000000000000000000000000000000000600052604160045260246000fd5b600080fd5b600080fd5b600080fd5b600080fd5b6000601f19601f8301169050919050565b7f416363657373436f6e74726f6c3a200000000000000000000000000000000000600082015250565b7f416363657373436f6e74726f6c3a20596f752068617665206e6f207065726d6960008201527f7373696f6e20746f2061636365737320746869732066756e6374696f6e2e0000602082015250565b612536816122f5565b811461254157600080fd5b50565b61254d81612313565b811461255857600080fd5b5056fe546865207065726d697373696f6e206973206e6f742076616c6964206f7220746865206163636f756e74206973206e6f7420696e20746865207065726d697373696f6e2ea26469706673582212201e331f981afc946ffe3e6b31c5256e7dbb78ae19e01466075c7472bf69a775e164736f6c63430008070033",
					"opcodes": "PUSH1 0x80 PUSH1 0x40 MSTORE CALLVALUE DUP1 ISZERO PUSH2 0x10 JUMPI PUSH1 0x0 DUP1 REVERT JUMPDEST POP PUSH2 0x1F PUSH2 0x24 PUSH1 0x20 SHL PUSH1 0x20 SHR JUMP JUMPDEST PUSH2 0x1FF JUMP JUMPDEST PUSH1 0x1 PUSH1 0x0 DUP1 PUSH32 0xDF8B4C520FFE197C5343C6F5AEC59570151EF9A492F2C624FD45DDDE6135EC42 DUP2 MSTORE PUSH1 0x20 ADD SWAP1 DUP2 MSTORE PUSH1 0x20 ADD PUSH1 0x0 KECCAK256 PUSH1 0x3 ADD PUSH1 0x0 PUSH2 0x100 EXP DUP2 SLOAD DUP2 PUSH1 0xFF MUL NOT AND SWAP1 DUP4 ISZERO ISZERO MUL OR SWAP1 SSTORE POP PUSH1 0x1 PUSH1 0x0 DUP1 PUSH32 0xDF8B4C520FFE197C5343C6F5AEC59570151EF9A492F2C624FD45DDDE6135EC42 DUP2 MSTORE PUSH1 0x20 ADD SWAP1 DUP2 MSTORE PUSH1 0x20 ADD PUSH1 0x0 KECCAK256 PUSH1 0x0 ADD PUSH1 0x0 CALLER PUSH20 0xFFFFFFFFFFFFFFFFFFFFFFFFFFFFFFFFFFFFFFFF AND PUSH20 0xFFFFFFFFFFFFFFFFFFFFFFFFFFFFFFFFFFFFFFFF AND DUP2 MSTORE PUSH1 0x20 ADD SWAP1 DUP2 MSTORE PUSH1 0x20 ADD PUSH1 0x0 KECCAK256 PUSH1 0x0 PUSH2 0x100 EXP DUP2 SLOAD DUP2 PUSH1 0xFF MUL NOT AND SWAP1 DUP4 ISZERO ISZERO MUL OR SWAP1 SSTORE POP CALLER PUSH1 0x0 DUP1 PUSH32 0xDF8B4C520FFE197C5343C6F5AEC59570151EF9A492F2C624FD45DDDE6135EC42 DUP2 MSTORE PUSH1 0x20 ADD SWAP1 DUP2 MSTORE PUSH1 0x20 ADD PUSH1 0x0 KECCAK256 PUSH1 0x1 ADD PUSH1 0x0 DUP1 DUP2 MSTORE PUSH1 0x20 ADD SWAP1 DUP2 MSTORE PUSH1 0x20 ADD PUSH1 0x0 KECCAK256 PUSH1 0x0 PUSH2 0x100 EXP DUP2 SLOAD DUP2 PUSH20 0xFFFFFFFFFFFFFFFFFFFFFFFFFFFFFFFFFFFFFFFF MUL NOT AND SWAP1 DUP4 PUSH20 0xFFFFFFFFFFFFFFFFFFFFFFFFFFFFFFFFFFFFFFFF AND MUL OR SWAP1 SSTORE POP PUSH1 0x1 PUSH1 0x0 DUP1 PUSH32 0xDF8B4C520FFE197C5343C6F5AEC59570151EF9A492F2C624FD45DDDE6135EC42 DUP2 MSTORE PUSH1 0x20 ADD SWAP1 DUP2 MSTORE PUSH1 0x20 ADD PUSH1 0x0 KECCAK256 PUSH1 0x2 ADD DUP2 SWAP1 SSTORE POP PUSH1 0x1 PUSH1 0x2 DUP2 SWAP1 SSTORE POP PUSH32 0xDF8B4C520FFE197C5343C6F5AEC59570151EF9A492F2C624FD45DDDE6135EC42 PUSH1 0x1 PUSH1 0x0 DUP1 DUP2 MSTORE PUSH1 0x20 ADD SWAP1 DUP2 MSTORE PUSH1 0x20 ADD PUSH1 0x0 KECCAK256 DUP2 SWAP1 SSTORE POP JUMP JUMPDEST PUSH2 0x25D5 DUP1 PUSH2 0x20E PUSH1 0x0 CODECOPY PUSH1 0x0 RETURN INVALID PUSH1 0x80 PUSH1 0x40 MSTORE CALLVALUE DUP1 ISZERO PUSH2 0x10 JUMPI PUSH1 0x0 DUP1 REVERT JUMPDEST POP PUSH1 0x4 CALLDATASIZE LT PUSH2 0xA9 JUMPI PUSH1 0x0 CALLDATALOAD PUSH1 0xE0 SHR DUP1 PUSH4 0x9B8F3BBC GT PUSH2 0x71 JUMPI DUP1 PUSH4 0x9B8F3BBC EQ PUSH2 0x150 JUMPI DUP1 PUSH4 0xA10F9524 EQ PUSH2 0x180 JUMPI DUP1 PUSH4 0xAAE7C78A EQ PUSH2 0x19C JUMPI DUP1 PUSH4 0xC7DC6220 EQ PUSH2 0x1B8 JUMPI DUP1 PUSH4 0xC98D6F1E EQ PUSH2 0x1D4 JUMPI DUP1 PUSH4 0xE9CB00A2 EQ PUSH2 0x1F0 JUMPI PUSH2 0xA9 JUMP JUMPDEST DUP1 PUSH4 0x342DA059 EQ PUSH2 0xAE JUMPI DUP1 PUSH4 0x4C1B64CB EQ PUSH2 0xCA JUMPI DUP1 PUSH4 0x7058DD24 EQ PUSH2 0xE6 JUMPI DUP1 PUSH4 0x75829DEF EQ PUSH2 0x104 JUMPI DUP1 PUSH4 0x80891CB2 EQ PUSH2 0x120 JUMPI JUMPDEST PUSH1 0x0 DUP1 REVERT JUMPDEST PUSH2 0xC8 PUSH1 0x4 DUP1 CALLDATASIZE SUB DUP2 ADD SWAP1 PUSH2 0xC3 SWAP2 SWAP1 PUSH2 0x1DD5 JUMP JUMPDEST PUSH2 0x220 JUMP JUMPDEST STOP JUMPDEST PUSH2 0xE4 PUSH1 0x4 DUP1 CALLDATASIZE SUB DUP2 ADD SWAP1 PUSH2 0xDF SWAP2 SWAP1 PUSH2 0x1D3B JUMP JUMPDEST PUSH2 0x297 JUMP JUMPDEST STOP JUMPDEST PUSH2 0xEE PUSH2 0x30E JUMP JUMPDEST PUSH1 0x40 MLOAD PUSH2 0xFB SWAP2 SWAP1 PUSH2 0x2134 JUMP JUMPDEST PUSH1 0x40 MLOAD DUP1 SWAP2 SUB SWAP1 RETURN JUMPDEST PUSH2 0x11E PUSH1 0x4 DUP1 CALLDATASIZE SUB DUP2 ADD SWAP1 PUSH2 0x119 SWAP2 SWAP1 PUSH2 0x1D3B JUMP JUMPDEST PUSH2 0x388 JUMP JUMPDEST STOP JUMPDEST PUSH2 0x13A PUSH1 0x4 DUP1 CALLDATASIZE SUB DUP2 ADD SWAP1 PUSH2 0x135 SWAP2 SWAP1 PUSH2 0x1D3B JUMP JUMPDEST PUSH2 0x3FF JUMP JUMPDEST PUSH1 0x40 MLOAD PUSH2 0x147 SWAP2 SWAP1 PUSH2 0x2171 JUMP JUMPDEST PUSH1 0x40 MLOAD DUP1 SWAP2 SUB SWAP1 RETURN JUMPDEST PUSH2 0x16A PUSH1 0x4 DUP1 CALLDATASIZE SUB DUP2 ADD SWAP1 PUSH2 0x165 SWAP2 SWAP1 PUSH2 0x1D68 JUMP JUMPDEST PUSH2 0x47C JUMP JUMPDEST PUSH1 0x40 MLOAD PUSH2 0x177 SWAP2 SWAP1 PUSH2 0x214F JUMP JUMPDEST PUSH1 0x40 MLOAD DUP1 SWAP2 SUB SWAP1 RETURN JUMPDEST PUSH2 0x19A PUSH1 0x4 DUP1 CALLDATASIZE SUB DUP2 ADD SWAP1 PUSH2 0x195 SWAP2 SWAP1 PUSH2 0x1E7A JUMP JUMPDEST PUSH2 0x4F9 JUMP JUMPDEST STOP JUMPDEST PUSH2 0x1B6 PUSH1 0x4 DUP1 CALLDATASIZE SUB DUP2 ADD SWAP1 PUSH2 0x1B1 SWAP2 SWAP1 PUSH2 0x1DD5 JUMP JUMPDEST PUSH2 0x572 JUMP JUMPDEST STOP JUMPDEST PUSH2 0x1D2 PUSH1 0x4 DUP1 CALLDATASIZE SUB DUP2 ADD SWAP1 PUSH2 0x1CD SWAP2 SWAP1 PUSH2 0x1E1E JUMP JUMPDEST PUSH2 0x5E9 JUMP JUMPDEST STOP JUMPDEST PUSH2 0x1EE PUSH1 0x4 DUP1 CALLDATASIZE SUB DUP2 ADD SWAP1 PUSH2 0x1E9 SWAP2 SWAP1 PUSH2 0x1E1E JUMP JUMPDEST PUSH2 0x662 JUMP JUMPDEST STOP JUMPDEST PUSH2 0x20A PUSH1 0x4 DUP1 CALLDATASIZE SUB DUP2 ADD SWAP1 PUSH2 0x205 SWAP2 SWAP1 PUSH2 0x1D95 JUMP JUMPDEST PUSH2 0x6DB JUMP JUMPDEST PUSH1 0x40 MLOAD PUSH2 0x217 SWAP2 SWAP1 PUSH2 0x2193 JUMP JUMPDEST PUSH1 0x40 MLOAD DUP1 SWAP2 SUB SWAP1 RETURN JUMPDEST PUSH32 0x73D57861095ED1FF7B0E5C00E25F9FC922CF9164E617149EE7073F371364C954 PUSH2 0x24B DUP2 CALLER PUSH2 0x75A JUMP JUMPDEST PUSH2 0x28A JUMPI PUSH1 0x40 MLOAD PUSH32 0x8C379A000000000000000000000000000000000000000000000000000000000 DUP2 MSTORE PUSH1 0x4 ADD PUSH2 0x281 SWAP1 PUSH2 0x21D0 JUMP JUMPDEST PUSH1 0x40 MLOAD DUP1 SWAP2 SUB SWAP1 REVERT JUMPDEST PUSH2 0x293 DUP3 PUSH2 0x7F5 JUMP JUMPDEST POP POP JUMP JUMPDEST PUSH32 0x73D57861095ED1FF7B0E5C00E25F9FC922CF9164E617149EE7073F371364C954 PUSH2 0x2C2 DUP2 CALLER PUSH2 0x75A JUMP JUMPDEST PUSH2 0x301 JUMPI PUSH1 0x40 MLOAD PUSH32 0x8C379A000000000000000000000000000000000000000000000000000000000 DUP2 MSTORE PUSH1 0x4 ADD PUSH2 0x2F8 SWAP1 PUSH2 0x21D0 JUMP JUMPDEST PUSH1 0x40 MLOAD DUP1 SWAP2 SUB SWAP1 REVERT JUMPDEST PUSH2 0x30A DUP3 PUSH2 0x924 JUMP JUMPDEST POP POP JUMP JUMPDEST PUSH1 0x0 PUSH32 0xA724C0857099DA33C38B932CE5D4E84578EE9792153085D9D5E379BFBA70CACB PUSH2 0x33B DUP2 CALLER PUSH2 0x75A JUMP JUMPDEST PUSH2 0x37A JUMPI PUSH1 0x40 MLOAD PUSH32 0x8C379A000000000000000000000000000000000000000000000000000000000 DUP2 MSTORE PUSH1 0x4 ADD PUSH2 0x371 SWAP1 PUSH2 0x21D0 JUMP JUMPDEST PUSH1 0x40 MLOAD DUP1 SWAP2 SUB SWAP1 REVERT JUMPDEST PUSH2 0x382 PUSH2 0xB42 JUMP JUMPDEST SWAP2 POP POP SWAP1 JUMP JUMPDEST PUSH32 0x73D57861095ED1FF7B0E5C00E25F9FC922CF9164E617149EE7073F371364C954 PUSH2 0x3B3 DUP2 CALLER PUSH2 0x75A JUMP JUMPDEST PUSH2 0x3F2 JUMPI PUSH1 0x40 MLOAD PUSH32 0x8C379A000000000000000000000000000000000000000000000000000000000 DUP2 MSTORE PUSH1 0x4 ADD PUSH2 0x3E9 SWAP1 PUSH2 0x21D0 JUMP JUMPDEST PUSH1 0x40 MLOAD DUP1 SWAP2 SUB SWAP1 REVERT JUMPDEST PUSH2 0x3FB DUP3 PUSH2 0xCF7 JUMP JUMPDEST POP POP JUMP JUMPDEST PUSH1 0x60 PUSH32 0xA724C0857099DA33C38B932CE5D4E84578EE9792153085D9D5E379BFBA70CACB PUSH2 0x42C DUP2 CALLER PUSH2 0x75A JUMP JUMPDEST PUSH2 0x46B JUMPI PUSH1 0x40 MLOAD PUSH32 0x8C379A000000000000000000000000000000000000000000000000000000000 DUP2 MSTORE PUSH1 0x4 ADD PUSH2 0x462 SWAP1 PUSH2 0x21D0 JUMP JUMPDEST PUSH1 0x40 MLOAD DUP1 SWAP2 SUB SWAP1 REVERT JUMPDEST PUSH2 0x474 DUP4 PUSH2 0xE94 JUMP JUMPDEST SWAP2 POP POP SWAP2 SWAP1 POP JUMP JUMPDEST PUSH1 0x60 PUSH32 0xA724C0857099DA33C38B932CE5D4E84578EE9792153085D9D5E379BFBA70CACB PUSH2 0x4A9 DUP2 CALLER PUSH2 0x75A JUMP JUMPDEST PUSH2 0x4E8 JUMPI PUSH1 0x40 MLOAD PUSH32 0x8C379A000000000000000000000000000000000000000000000000000000000 DUP2 MSTORE PUSH1 0x4 ADD PUSH2 0x4DF SWAP1 PUSH2 0x21D0 JUMP JUMPDEST PUSH1 0x40 MLOAD DUP1 SWAP2 SUB SWAP1 REVERT JUMPDEST PUSH2 0x4F1 DUP4 PUSH2 0xF7D JUMP JUMPDEST SWAP2 POP POP SWAP2 SWAP1 POP JUMP JUMPDEST PUSH32 0x73D57861095ED1FF7B0E5C00E25F9FC922CF9164E617149EE7073F371364C954 PUSH2 0x524 DUP2 CALLER PUSH2 0x75A JUMP JUMPDEST PUSH2 0x563 JUMPI PUSH1 0x40 MLOAD PUSH32 0x8C379A000000000000000000000000000000000000000000000000000000000 DUP2 MSTORE PUSH1 0x4 ADD PUSH2 0x55A SWAP1 PUSH2 0x21D0 JUMP JUMPDEST PUSH1 0x40 MLOAD DUP1 SWAP2 SUB SWAP1 REVERT JUMPDEST PUSH2 0x56D DUP4 DUP4 PUSH2 0x110D JUMP JUMPDEST POP POP POP JUMP JUMPDEST PUSH32 0x73D57861095ED1FF7B0E5C00E25F9FC922CF9164E617149EE7073F371364C954 PUSH2 0x59D DUP2 CALLER PUSH2 0x75A JUMP JUMPDEST PUSH2 0x5DC JUMPI PUSH1 0x40 MLOAD PUSH32 0x8C379A000000000000000000000000000000000000000000000000000000000 DUP2 MSTORE PUSH1 0x4 ADD PUSH2 0x5D3 SWAP1 PUSH2 0x21D0 JUMP JUMPDEST PUSH1 0x40 MLOAD DUP1 SWAP2 SUB SWAP1 REVERT JUMPDEST PUSH2 0x5E5 DUP3 PUSH2 0x1403 JUMP JUMPDEST POP POP JUMP JUMPDEST PUSH32 0x73D57861095ED1FF7B0E5C00E25F9FC922CF9164E617149EE7073F371364C954 PUSH2 0x614 DUP2 CALLER PUSH2 0x75A JUMP JUMPDEST PUSH2 0x653 JUMPI PUSH1 0x40 MLOAD PUSH32 0x8C379A000000000000000000000000000000000000000000000000000000000 DUP2 MSTORE PUSH1 0x4 ADD PUSH2 0x64A SWAP1 PUSH2 0x21D0 JUMP JUMPDEST PUSH1 0x40 MLOAD DUP1 SWAP2 SUB SWAP1 REVERT JUMPDEST PUSH2 0x65D DUP4 DUP4 PUSH2 0x176B JUMP JUMPDEST POP POP POP JUMP JUMPDEST PUSH32 0x73D57861095ED1FF7B0E5C00E25F9FC922CF9164E617149EE7073F371364C954 PUSH2 0x68D DUP2 CALLER PUSH2 0x75A JUMP JUMPDEST PUSH2 0x6CC JUMPI PUSH1 0x40 MLOAD PUSH32 0x8C379A000000000000000000000000000000000000000000000000000000000 DUP2 MSTORE PUSH1 0x4 ADD PUSH2 0x6C3 SWAP1 PUSH2 0x21D0 JUMP JUMPDEST PUSH1 0x40 MLOAD DUP1 SWAP2 SUB SWAP1 REVERT JUMPDEST PUSH2 0x6D6 DUP4 DUP4 PUSH2 0x18F9 JUMP JUMPDEST POP POP POP JUMP JUMPDEST PUSH1 0x0 PUSH32 0xA724C0857099DA33C38B932CE5D4E84578EE9792153085D9D5E379BFBA70CACB PUSH2 0x708 DUP2 CALLER PUSH2 0x75A JUMP JUMPDEST PUSH2 0x747 JUMPI PUSH1 0x40 MLOAD PUSH32 0x8C379A000000000000000000000000000000000000000000000000000000000 DUP2 MSTORE PUSH1 0x4 ADD PUSH2 0x73E SWAP1 PUSH2 0x21D0 JUMP JUMPDEST PUSH1 0x40 MLOAD DUP1 SWAP2 SUB SWAP1 REVERT JUMPDEST PUSH2 0x751 DUP5 DUP5 PUSH2 0x1A47 JUMP JUMPDEST SWAP2 POP POP SWAP3 SWAP2 POP POP JUMP JUMPDEST PUSH1 0x0 DUP1 PUSH1 0x0 DUP5 DUP2 MSTORE PUSH1 0x20 ADD SWAP1 DUP2 MSTORE PUSH1 0x20 ADD PUSH1 0x0 KECCAK256 PUSH1 0x3 ADD PUSH1 0x0 SWAP1 SLOAD SWAP1 PUSH2 0x100 EXP SWAP1 DIV PUSH1 0xFF AND PUSH2 0x78C JUMPI PUSH1 0x0 SWAP1 POP PUSH2 0x7EF JUMP JUMPDEST PUSH1 0x0 DUP1 DUP5 DUP2 MSTORE PUSH1 0x20 ADD SWAP1 DUP2 MSTORE PUSH1 0x20 ADD PUSH1 0x0 KECCAK256 PUSH1 0x0 ADD PUSH1 0x0 DUP4 PUSH20 0xFFFFFFFFFFFFFFFFFFFFFFFFFFFFFFFFFFFFFFFF AND PUSH20 0xFFFFFFFFFFFFFFFFFFFFFFFFFFFFFFFFFFFFFFFF AND DUP2 MSTORE PUSH1 0x20 ADD SWAP1 DUP2 MSTORE PUSH1 0x20 ADD PUSH1 0x0 KECCAK256 PUSH1 0x0 SWAP1 SLOAD SWAP1 PUSH2 0x100 EXP SWAP1 DIV PUSH1 0xFF AND SWAP1 POP JUMPDEST SWAP3 SWAP2 POP POP JUMP JUMPDEST PUSH1 0x0 DUP2 DUP1 MLOAD SWAP1 PUSH1 0x20 ADD KECCAK256 SWAP1 POP PUSH1 0x0 DUP1 DUP3 DUP2 MSTORE PUSH1 0x20 ADD SWAP1 DUP2 MSTORE PUSH1 0x20 ADD PUSH1 0x0 KECCAK256 PUSH1 0x3 ADD PUSH1 0x0 SWAP1 SLOAD SWAP1 PUSH2 0x100 EXP SWAP1 DIV PUSH1 0xFF AND DUP1 ISZERO PUSH2 0x850 JUMPI POP PUSH32 0xDF8B4C520FFE197C5343C6F5AEC59570151EF9A492F2C624FD45DDDE6135EC42 DUP2 EQ ISZERO JUMPDEST ISZERO PUSH2 0x8E1 JUMPI PUSH1 0x0 DUP1 PUSH1 0x0 DUP4 DUP2 MSTORE PUSH1 0x20 ADD SWAP1 DUP2 MSTORE PUSH1 0x20 ADD PUSH1 0x0 KECCAK256 PUSH1 0x3 ADD PUSH1 0x0 PUSH2 0x100 EXP DUP2 SLOAD DUP2 PUSH1 0xFF MUL NOT AND SWAP1 DUP4 ISZERO ISZERO MUL OR SWAP1 SSTORE POP CALLER PUSH20 0xFFFFFFFFFFFFFFFFFFFFFFFFFFFFFFFFFFFFFFFF AND DUP3 PUSH1 0x40 MLOAD PUSH2 0x8A8 SWAP2 SWAP1 PUSH2 0x20FB JUMP JUMPDEST PUSH1 0x40 MLOAD DUP1 SWAP2 SUB SWAP1 KECCAK256 PUSH32 0xEF4F3ADABB4CE2CC6076CC23D211EFF03F6E49839A9D773D7C77F48A83A2D859 PUSH1 0x40 MLOAD PUSH1 0x40 MLOAD DUP1 SWAP2 SUB SWAP1 LOG3 PUSH2 0x920 JUMP JUMPDEST PUSH2 0x91F PUSH1 0x40 MLOAD DUP1 PUSH1 0x40 ADD PUSH1 0x40 MSTORE DUP1 PUSH1 0x1C DUP2 MSTORE PUSH1 0x20 ADD PUSH32 0x546865207065726D697373696F6E206973206E6F742076616C69642E00000000 DUP2 MSTORE POP PUSH2 0x1A5B JUMP JUMPDEST JUMPDEST POP POP JUMP JUMPDEST PUSH2 0x94E PUSH32 0xDF8B4C520FFE197C5343C6F5AEC59570151EF9A492F2C624FD45DDDE6135EC42 DUP3 PUSH2 0x75A JUMP JUMPDEST ISZERO DUP1 PUSH2 0x980 JUMPI POP PUSH2 0x97F PUSH32 0xDF8B4C520FFE197C5343C6F5AEC59570151EF9A492F2C624FD45DDDE6135EC42 CALLER PUSH2 0x75A JUMP JUMPDEST JUMPDEST ISZERO PUSH2 0xB00 JUMPI PUSH1 0x0 PUSH1 0x1 SWAP1 POP JUMPDEST PUSH1 0x2 SLOAD DUP2 LT ISZERO PUSH2 0xAA0 JUMPI PUSH1 0x0 DUP1 PUSH1 0x1 PUSH1 0x0 DUP5 DUP2 MSTORE PUSH1 0x20 ADD SWAP1 DUP2 MSTORE PUSH1 0x20 ADD PUSH1 0x0 KECCAK256 SLOAD DUP2 MSTORE PUSH1 0x20 ADD SWAP1 DUP2 MSTORE PUSH1 0x20 ADD PUSH1 0x0 KECCAK256 PUSH1 0x0 ADD PUSH1 0x0 DUP4 PUSH20 0xFFFFFFFFFFFFFFFFFFFFFFFFFFFFFFFFFFFFFFFF AND PUSH20 0xFFFFFFFFFFFFFFFFFFFFFFFFFFFFFFFFFFFFFFFF AND DUP2 MSTORE PUSH1 0x20 ADD SWAP1 DUP2 MSTORE PUSH1 0x20 ADD PUSH1 0x0 KECCAK256 PUSH1 0x0 SWAP1 SLOAD SWAP1 PUSH2 0x100 EXP SWAP1 DIV PUSH1 0xFF AND ISZERO PUSH2 0xA8D JUMPI PUSH1 0x0 DUP1 PUSH1 0x0 PUSH1 0x1 PUSH1 0x0 DUP6 DUP2 MSTORE PUSH1 0x20 ADD SWAP1 DUP2 MSTORE PUSH1 0x20 ADD PUSH1 0x0 KECCAK256 SLOAD DUP2 MSTORE PUSH1 0x20 ADD SWAP1 DUP2 MSTORE PUSH1 0x20 ADD PUSH1 0x0 KECCAK256 PUSH1 0x0 ADD PUSH1 0x0 DUP5 PUSH20 0xFFFFFFFFFFFFFFFFFFFFFFFFFFFFFFFFFFFFFFFF AND PUSH20 0xFFFFFFFFFFFFFFFFFFFFFFFFFFFFFFFFFFFFFFFF AND DUP2 MSTORE PUSH1 0x20 ADD SWAP1 DUP2 MSTORE PUSH1 0x20 ADD PUSH1 0x0 KECCAK256 PUSH1 0x0 PUSH2 0x100 EXP DUP2 SLOAD DUP2 PUSH1 0xFF MUL NOT AND SWAP1 DUP4 ISZERO ISZERO MUL OR SWAP1 SSTORE POP JUMPDEST DUP1 DUP1 PUSH2 0xA98 SWAP1 PUSH2 0x23BA JUMP JUMPDEST SWAP2 POP POP PUSH2 0x98C JUMP JUMPDEST POP CALLER PUSH20 0xFFFFFFFFFFFFFFFFFFFFFFFFFFFFFFFFFFFFFFFF AND DUP2 PUSH20 0xFFFFFFFFFFFFFFFFFFFFFFFFFFFFFFFFFFFFFFFF AND PUSH32 0xFD7E144A5E02C1180E00F9591EF4F60AA95B127C4F134847224A4B6CB99FEF96 PUSH1 0x40 MLOAD PUSH1 0x40 MLOAD DUP1 SWAP2 SUB SWAP1 LOG3 PUSH2 0xB3F JUMP JUMPDEST PUSH2 0xB3E PUSH1 0x40 MLOAD DUP1 PUSH1 0x40 ADD PUSH1 0x40 MSTORE DUP1 PUSH1 0x18 DUP2 MSTORE PUSH1 0x20 ADD PUSH32 0x596F752063616E6E6F742064656C6574652041444D494E2E0000000000000000 DUP2 MSTORE POP PUSH2 0x1A5B JUMP JUMPDEST JUMPDEST POP JUMP JUMPDEST PUSH1 0x0 DUP1 PUSH1 0x0 SWAP1 POP JUMPDEST PUSH1 0x0 DUP1 PUSH32 0xDF8B4C520FFE197C5343C6F5AEC59570151EF9A492F2C624FD45DDDE6135EC42 DUP2 MSTORE PUSH1 0x20 ADD SWAP1 DUP2 MSTORE PUSH1 0x20 ADD PUSH1 0x0 KECCAK256 PUSH1 0x2 ADD SLOAD DUP2 LT ISZERO PUSH2 0xC8A JUMPI PUSH1 0x0 DUP1 PUSH32 0xDF8B4C520FFE197C5343C6F5AEC59570151EF9A492F2C624FD45DDDE6135EC42 DUP2 MSTORE PUSH1 0x20 ADD SWAP1 DUP2 MSTORE PUSH1 0x20 ADD PUSH1 0x0 KECCAK256 PUSH1 0x0 ADD PUSH1 0x0 DUP1 PUSH1 0x0 PUSH32 0xDF8B4C520FFE197C5343C6F5AEC59570151EF9A492F2C624FD45DDDE6135EC42 DUP2 MSTORE PUSH1 0x20 ADD SWAP1 DUP2 MSTORE PUSH1 0x20 ADD PUSH1 0x0 KECCAK256 PUSH1 0x1 ADD PUSH1 0x0 DUP5 DUP2 MSTORE PUSH1 0x20 ADD SWAP1 DUP2 MSTORE PUSH1 0x20 ADD PUSH1 0x0 KECCAK256 PUSH1 0x0 SWAP1 SLOAD SWAP1 PUSH2 0x100 EXP SWAP1 DIV PUSH20 0xFFFFFFFFFFFFFFFFFFFFFFFFFFFFFFFFFFFFFFFF AND PUSH20 0xFFFFFFFFFFFFFFFFFFFFFFFFFFFFFFFFFFFFFFFF AND PUSH20 0xFFFFFFFFFFFFFFFFFFFFFFFFFFFFFFFFFFFFFFFF AND DUP2 MSTORE PUSH1 0x20 ADD SWAP1 DUP2 MSTORE PUSH1 0x20 ADD PUSH1 0x0 KECCAK256 PUSH1 0x0 SWAP1 SLOAD SWAP1 PUSH2 0x100 EXP SWAP1 DIV PUSH1 0xFF AND ISZERO PUSH2 0xC77 JUMPI PUSH2 0xC8A JUMP JUMPDEST DUP1 DUP1 PUSH2 0xC82 SWAP1 PUSH2 0x23BA JUMP JUMPDEST SWAP2 POP POP PUSH2 0xB4A JUMP JUMPDEST PUSH1 0x0 DUP1 PUSH32 0xDF8B4C520FFE197C5343C6F5AEC59570151EF9A492F2C624FD45DDDE6135EC42 DUP2 MSTORE PUSH1 0x20 ADD SWAP1 DUP2 MSTORE PUSH1 0x20 ADD PUSH1 0x0 KECCAK256 PUSH1 0x1 ADD PUSH1 0x0 DUP3 DUP2 MSTORE PUSH1 0x20 ADD SWAP1 DUP2 MSTORE PUSH1 0x20 ADD PUSH1 0x0 KECCAK256 PUSH1 0x0 SWAP1 SLOAD SWAP1 PUSH2 0x100 EXP SWAP1 DIV PUSH20 0xFFFFFFFFFFFFFFFFFFFFFFFFFFFFFFFFFFFFFFFF AND SWAP2 POP POP SWAP1 JUMP JUMPDEST PUSH1 0x0 DUP1 PUSH1 0x0 PUSH32 0xDF8B4C520FFE197C5343C6F5AEC59570151EF9A492F2C624FD45DDDE6135EC42 DUP2 MSTORE PUSH1 0x20 ADD SWAP1 DUP2 MSTORE PUSH1 0x20 ADD PUSH1 0x0 KECCAK256 PUSH1 0x0 ADD PUSH1 0x0 CALLER PUSH20 0xFFFFFFFFFFFFFFFFFFFFFFFFFFFFFFFFFFFFFFFF AND PUSH20 0xFFFFFFFFFFFFFFFFFFFFFFFFFFFFFFFFFFFFFFFF AND DUP2 MSTORE PUSH1 0x20 ADD SWAP1 DUP2 MSTORE PUSH1 0x20 ADD PUSH1 0x0 KECCAK256 PUSH1 0x0 PUSH2 0x100 EXP DUP2 SLOAD DUP2 PUSH1 0xFF MUL NOT AND SWAP1 DUP4 ISZERO ISZERO MUL OR SWAP1 SSTORE POP PUSH2 0xDAC PUSH32 0xDF8B4C520FFE197C5343C6F5AEC59570151EF9A492F2C624FD45DDDE6135EC42 DUP3 PUSH2 0x1AB7 JUMP JUMPDEST PUSH1 0x1 PUSH1 0x0 DUP1 PUSH32 0xDF8B4C520FFE197C5343C6F5AEC59570151EF9A492F2C624FD45DDDE6135EC42 DUP2 MSTORE PUSH1 0x20 ADD SWAP1 DUP2 MSTORE PUSH1 0x20 ADD PUSH1 0x0 KECCAK256 PUSH1 0x0 ADD PUSH1 0x0 DUP4 PUSH20 0xFFFFFFFFFFFFFFFFFFFFFFFFFFFFFFFFFFFFFFFF AND PUSH20 0xFFFFFFFFFFFFFFFFFFFFFFFFFFFFFFFFFFFFFFFF AND DUP2 MSTORE PUSH1 0x20 ADD SWAP1 DUP2 MSTORE PUSH1 0x20 ADD PUSH1 0x0 KECCAK256 PUSH1 0x0 PUSH2 0x100 EXP DUP2 SLOAD DUP2 PUSH1 0xFF MUL NOT AND SWAP1 DUP4 ISZERO ISZERO MUL OR SWAP1 SSTORE POP CALLER PUSH20 0xFFFFFFFFFFFFFFFFFFFFFFFFFFFFFFFFFFFFFFFF AND DUP2 PUSH20 0xFFFFFFFFFFFFFFFFFFFFFFFFFFFFFFFFFFFFFFFF AND PUSH32 0x173DE3514D8508F36CE8C81D509ADCD8C8C76098400F685D3042B36F9A4160C3 PUSH1 0x40 MLOAD PUSH1 0x40 MLOAD DUP1 SWAP2 SUB SWAP1 LOG3 POP JUMP JUMPDEST PUSH1 0x60 DUP1 PUSH1 0x0 DUP1 JUMPDEST PUSH1 0x2 SLOAD DUP2 LT ISZERO PUSH2 0xF72 JUMPI PUSH1 0x0 DUP1 PUSH1 0x1 PUSH1 0x0 DUP5 DUP2 MSTORE PUSH1 0x20 ADD SWAP1 DUP2 MSTORE PUSH1 0x20 ADD PUSH1 0x0 KECCAK256 SLOAD DUP2 MSTORE PUSH1 0x20 ADD SWAP1 DUP2 MSTORE PUSH1 0x20 ADD PUSH1 0x0 KECCAK256 PUSH1 0x0 ADD PUSH1 0x0 DUP7 PUSH20 0xFFFFFFFFFFFFFFFFFFFFFFFFFFFFFFFFFFFFFFFF AND PUSH20 0xFFFFFFFFFFFFFFFFFFFFFFFFFFFFFFFFFFFFFFFF AND DUP2 MSTORE PUSH1 0x20 ADD SWAP1 DUP2 MSTORE PUSH1 0x20 ADD PUSH1 0x0 KECCAK256 PUSH1 0x0 SWAP1 SLOAD SWAP1 PUSH2 0x100 EXP SWAP1 DIV PUSH1 0xFF AND ISZERO PUSH2 0xF5F JUMPI PUSH1 0x1 PUSH1 0x0 DUP3 DUP2 MSTORE PUSH1 0x20 ADD SWAP1 DUP2 MSTORE PUSH1 0x20 ADD PUSH1 0x0 KECCAK256 SLOAD DUP4 DUP4 DUP2 MLOAD DUP2 LT PUSH2 0xF44 JUMPI PUSH2 0xF43 PUSH2 0x2432 JUMP JUMPDEST JUMPDEST PUSH1 0x20 MUL PUSH1 0x20 ADD ADD DUP2 DUP2 MSTORE POP POP DUP2 DUP1 PUSH2 0xF5B SWAP1 PUSH2 0x23BA JUMP JUMPDEST SWAP3 POP POP JUMPDEST DUP1 DUP1 PUSH2 0xF6A SWAP1 PUSH2 0x23BA JUMP JUMPDEST SWAP2 POP POP PUSH2 0xE9B JUMP JUMPDEST POP DUP2 SWAP3 POP POP POP SWAP2 SWAP1 POP JUMP JUMPDEST PUSH1 0x60 DUP1 PUSH1 0x0 DUP1 JUMPDEST PUSH1 0x0 DUP1 DUP7 DUP2 MSTORE PUSH1 0x20 ADD SWAP1 DUP2 MSTORE PUSH1 0x20 ADD PUSH1 0x0 KECCAK256 PUSH1 0x2 ADD SLOAD DUP2 LT ISZERO PUSH2 0x1102 JUMPI PUSH1 0x0 DUP1 DUP7 DUP2 MSTORE PUSH1 0x20 ADD SWAP1 DUP2 MSTORE PUSH1 0x20 ADD PUSH1 0x0 KECCAK256 PUSH1 0x0 ADD PUSH1 0x0 DUP1 PUSH1 0x0 DUP9 DUP2 MSTORE PUSH1 0x20 ADD SWAP1 DUP2 MSTORE PUSH1 0x20 ADD PUSH1 0x0 KECCAK256 PUSH1 0x1 ADD PUSH1 0x0 DUP5 DUP2 MSTORE PUSH1 0x20 ADD SWAP1 DUP2 MSTORE PUSH1 0x20 ADD PUSH1 0x0 KECCAK256 PUSH1 0x0 SWAP1 SLOAD SWAP1 PUSH2 0x100 EXP SWAP1 DIV PUSH20 0xFFFFFFFFFFFFFFFFFFFFFFFFFFFFFFFFFFFFFFFF AND PUSH20 0xFFFFFFFFFFFFFFFFFFFFFFFFFFFFFFFFFFFFFFFF AND PUSH20 0xFFFFFFFFFFFFFFFFFFFFFFFFFFFFFFFFFFFFFFFF AND DUP2 MSTORE PUSH1 0x20 ADD SWAP1 DUP2 MSTORE PUSH1 0x20 ADD PUSH1 0x0 KECCAK256 PUSH1 0x0 SWAP1 SLOAD SWAP1 PUSH2 0x100 EXP SWAP1 DIV PUSH1 0xFF AND ISZERO PUSH2 0x10EF JUMPI PUSH1 0x0 DUP1 DUP7 DUP2 MSTORE PUSH1 0x20 ADD SWAP1 DUP2 MSTORE PUSH1 0x20 ADD PUSH1 0x0 KECCAK256 PUSH1 0x1 ADD PUSH1 0x0 DUP3 DUP2 MSTORE PUSH1 0x20 ADD SWAP1 DUP2 MSTORE PUSH1 0x20 ADD PUSH1 0x0 KECCAK256 PUSH1 0x0 SWAP1 SLOAD SWAP1 PUSH2 0x100 EXP SWAP1 DIV PUSH20 0xFFFFFFFFFFFFFFFFFFFFFFFFFFFFFFFFFFFFFFFF AND DUP4 DUP4 DUP2 MLOAD DUP2 LT PUSH2 0x10A6 JUMPI PUSH2 0x10A5 PUSH2 0x2432 JUMP JUMPDEST JUMPDEST PUSH1 0x20 MUL PUSH1 0x20 ADD ADD SWAP1 PUSH20 0xFFFFFFFFFFFFFFFFFFFFFFFFFFFFFFFFFFFFFFFF AND SWAP1 DUP2 PUSH20 0xFFFFFFFFFFFFFFFFFFFFFFFFFFFFFFFFFFFFFFFF AND DUP2 MSTORE POP POP DUP2 DUP1 PUSH2 0x10EB SWAP1 PUSH2 0x23BA JUMP JUMPDEST SWAP3 POP POP JUMPDEST DUP1 DUP1 PUSH2 0x10FA SWAP1 PUSH2 0x23BA JUMP JUMPDEST SWAP2 POP POP PUSH2 0xF84 JUMP JUMPDEST POP DUP2 SWAP3 POP POP POP SWAP2 SWAP1 POP JUMP JUMPDEST PUSH1 0x0 DUP3 DUP1 MLOAD SWAP1 PUSH1 0x20 ADD KECCAK256 SWAP1 POP PUSH1 0x0 DUP3 DUP1 MLOAD SWAP1 PUSH1 0x20 ADD KECCAK256 SWAP1 POP PUSH1 0x0 DUP1 DUP4 DUP2 MSTORE PUSH1 0x20 ADD SWAP1 DUP2 MSTORE PUSH1 0x20 ADD PUSH1 0x0 KECCAK256 PUSH1 0x3 ADD PUSH1 0x0 SWAP1 SLOAD SWAP1 PUSH2 0x100 EXP SWAP1 DIV PUSH1 0xFF AND PUSH2 0x13BE JUMPI PUSH2 0x1155 DUP3 PUSH2 0x1C1F JUMP JUMPDEST PUSH1 0x1 PUSH1 0x0 DUP1 DUP5 DUP2 MSTORE PUSH1 0x20 ADD SWAP1 DUP2 MSTORE PUSH1 0x20 ADD PUSH1 0x0 KECCAK256 PUSH1 0x3 ADD PUSH1 0x0 PUSH2 0x100 EXP DUP2 SLOAD DUP2 PUSH1 0xFF MUL NOT AND SWAP1 DUP4 ISZERO ISZERO MUL OR SWAP1 SSTORE POP PUSH1 0x0 JUMPDEST PUSH1 0x0 DUP1 DUP4 DUP2 MSTORE PUSH1 0x20 ADD SWAP1 DUP2 MSTORE PUSH1 0x20 ADD PUSH1 0x0 KECCAK256 PUSH1 0x2 ADD SLOAD DUP2 LT ISZERO PUSH2 0x1330 JUMPI PUSH1 0x0 DUP1 PUSH1 0x0 DUP5 DUP2 MSTORE PUSH1 0x20 ADD SWAP1 DUP2 MSTORE PUSH1 0x20 ADD PUSH1 0x0 KECCAK256 PUSH1 0x1 ADD PUSH1 0x0 DUP4 DUP2 MSTORE PUSH1 0x20 ADD SWAP1 DUP2 MSTORE PUSH1 0x20 ADD PUSH1 0x0 KECCAK256 PUSH1 0x0 SWAP1 SLOAD SWAP1 PUSH2 0x100 EXP SWAP1 DIV PUSH20 0xFFFFFFFFFFFFFFFFFFFFFFFFFFFFFFFFFFFFFFFF AND SWAP1 POP PUSH1 0x0 DUP1 DUP5 DUP2 MSTORE PUSH1 0x20 ADD SWAP1 DUP2 MSTORE PUSH1 0x20 ADD PUSH1 0x0 KECCAK256 PUSH1 0x0 ADD PUSH1 0x0 DUP3 PUSH20 0xFFFFFFFFFFFFFFFFFFFFFFFFFFFFFFFFFFFFFFFF AND PUSH20 0xFFFFFFFFFFFFFFFFFFFFFFFFFFFFFFFFFFFFFFFF AND DUP2 MSTORE PUSH1 0x20 ADD SWAP1 DUP2 MSTORE PUSH1 0x20 ADD PUSH1 0x0 KECCAK256 PUSH1 0x0 SWAP1 SLOAD SWAP1 PUSH2 0x100 EXP SWAP1 DIV PUSH1 0xFF AND PUSH1 0x0 DUP1 DUP7 DUP2 MSTORE PUSH1 0x20 ADD SWAP1 DUP2 MSTORE PUSH1 0x20 ADD PUSH1 0x0 KECCAK256 PUSH1 0x0 ADD PUSH1 0x0 DUP4 PUSH20 0xFFFFFFFFFFFFFFFFFFFFFFFFFFFFFFFFFFFFFFFF AND PUSH20 0xFFFFFFFFFFFFFFFFFFFFFFFFFFFFFFFFFFFFFFFF AND DUP2 MSTORE PUSH1 0x20 ADD SWAP1 DUP2 MSTORE PUSH1 0x20 ADD PUSH1 0x0 KECCAK256 PUSH1 0x0 PUSH2 0x100 EXP DUP2 SLOAD DUP2 PUSH1 0xFF MUL NOT AND SWAP1 DUP4 ISZERO ISZERO MUL OR SWAP1 SSTORE POP DUP1 PUSH1 0x0 DUP1 DUP7 DUP2 MSTORE PUSH1 0x20 ADD SWAP1 DUP2 MSTORE PUSH1 0x20 ADD PUSH1 0x0 KECCAK256 PUSH1 0x1 ADD PUSH1 0x0 DUP5 DUP2 MSTORE PUSH1 0x20 ADD SWAP1 DUP2 MSTORE PUSH1 0x20 ADD PUSH1 0x0 KECCAK256 PUSH1 0x0 PUSH2 0x100 EXP DUP2 SLOAD DUP2 PUSH20 0xFFFFFFFFFFFFFFFFFFFFFFFFFFFFFFFFFFFFFFFF MUL NOT AND SWAP1 DUP4 PUSH20 0xFFFFFFFFFFFFFFFFFFFFFFFFFFFFFFFFFFFFFFFF AND MUL OR SWAP1 SSTORE POP POP DUP1 DUP1 PUSH2 0x1328 SWAP1 PUSH2 0x23BA JUMP JUMPDEST SWAP2 POP POP PUSH2 0x1186 JUMP JUMPDEST POP PUSH1 0x0 DUP1 DUP3 DUP2 MSTORE PUSH1 0x20 ADD SWAP1 DUP2 MSTORE PUSH1 0x20 ADD PUSH1 0x0 KECCAK256 PUSH1 0x2 ADD SLOAD PUSH1 0x0 DUP1 DUP5 DUP2 MSTORE PUSH1 0x20 ADD SWAP1 DUP2 MSTORE PUSH1 0x20 ADD PUSH1 0x0 KECCAK256 PUSH1 0x2 ADD DUP2 SWAP1 SSTORE POP CALLER PUSH20 0xFFFFFFFFFFFFFFFFFFFFFFFFFFFFFFFFFFFFFFFF AND DUP5 PUSH1 0x40 MLOAD PUSH2 0x1385 SWAP2 SWAP1 PUSH2 0x20FB JUMP JUMPDEST PUSH1 0x40 MLOAD DUP1 SWAP2 SUB SWAP1 KECCAK256 PUSH32 0x629A748BA580FE181C6AE2D3673C4BDFEA9E1F2D334F36BEEC502AFF5DBAEFF2 PUSH1 0x40 MLOAD PUSH1 0x40 MLOAD DUP1 SWAP2 SUB SWAP1 LOG3 PUSH2 0x13FD JUMP JUMPDEST PUSH2 0x13FC PUSH1 0x40 MLOAD DUP1 PUSH1 0x40 ADD PUSH1 0x40 MSTORE DUP1 PUSH1 0x20 DUP2 MSTORE PUSH1 0x20 ADD PUSH32 0x546865207065726D697373696F6E2068617320616C726561792065786973742E DUP2 MSTORE POP PUSH2 0x1A5B JUMP JUMPDEST JUMPDEST POP POP POP POP JUMP JUMPDEST PUSH1 0x0 DUP2 DUP1 MLOAD SWAP1 PUSH1 0x20 ADD KECCAK256 SWAP1 POP PUSH1 0x0 DUP1 DUP3 DUP2 MSTORE PUSH1 0x20 ADD SWAP1 DUP2 MSTORE PUSH1 0x20 ADD PUSH1 0x0 KECCAK256 PUSH1 0x3 ADD PUSH1 0x0 SWAP1 SLOAD SWAP1 PUSH2 0x100 EXP SWAP1 DIV PUSH1 0xFF AND PUSH2 0x1728 JUMPI PUSH2 0x143F DUP2 PUSH2 0x1C1F JUMP JUMPDEST PUSH1 0x1 PUSH1 0x0 DUP1 DUP4 DUP2 MSTORE PUSH1 0x20 ADD SWAP1 DUP2 MSTORE PUSH1 0x20 ADD PUSH1 0x0 KECCAK256 PUSH1 0x3 ADD PUSH1 0x0 PUSH2 0x100 EXP DUP2 SLOAD DUP2 PUSH1 0xFF MUL NOT AND SWAP1 DUP4 ISZERO ISZERO MUL OR SWAP1 SSTORE POP PUSH1 0x0 JUMPDEST PUSH1 0x0 DUP1 PUSH32 0xDF8B4C520FFE197C5343C6F5AEC59570151EF9A492F2C624FD45DDDE6135EC42 DUP2 MSTORE PUSH1 0x20 ADD SWAP1 DUP2 MSTORE PUSH1 0x20 ADD PUSH1 0x0 KECCAK256 PUSH1 0x2 ADD SLOAD DUP2 LT ISZERO PUSH2 0x167A JUMPI PUSH1 0x0 DUP1 PUSH1 0x0 PUSH32 0xDF8B4C520FFE197C5343C6F5AEC59570151EF9A492F2C624FD45DDDE6135EC42 DUP2 MSTORE PUSH1 0x20 ADD SWAP1 DUP2 MSTORE PUSH1 0x20 ADD PUSH1 0x0 KECCAK256 PUSH1 0x1 ADD PUSH1 0x0 DUP4 DUP2 MSTORE PUSH1 0x20 ADD SWAP1 DUP2 MSTORE PUSH1 0x20 ADD PUSH1 0x0 KECCAK256 PUSH1 0x0 SWAP1 SLOAD SWAP1 PUSH2 0x100 EXP SWAP1 DIV PUSH20 0xFFFFFFFFFFFFFFFFFFFFFFFFFFFFFFFFFFFFFFFF AND SWAP1 POP PUSH1 0x0 DUP1 PUSH32 0xDF8B4C520FFE197C5343C6F5AEC59570151EF9A492F2C624FD45DDDE6135EC42 DUP2 MSTORE PUSH1 0x20 ADD SWAP1 DUP2 MSTORE PUSH1 0x20 ADD PUSH1 0x0 KECCAK256 PUSH1 0x0 ADD PUSH1 0x0 DUP3 PUSH20 0xFFFFFFFFFFFFFFFFFFFFFFFFFFFFFFFFFFFFFFFF AND PUSH20 0xFFFFFFFFFFFFFFFFFFFFFFFFFFFFFFFFFFFFFFFF AND DUP2 MSTORE PUSH1 0x20 ADD SWAP1 DUP2 MSTORE PUSH1 0x20 ADD PUSH1 0x0 KECCAK256 PUSH1 0x0 SWAP1 SLOAD SWAP1 PUSH2 0x100 EXP SWAP1 DIV PUSH1 0xFF AND PUSH1 0x0 DUP1 DUP6 DUP2 MSTORE PUSH1 0x20 ADD SWAP1 DUP2 MSTORE PUSH1 0x20 ADD PUSH1 0x0 KECCAK256 PUSH1 0x0 ADD PUSH1 0x0 DUP4 PUSH20 0xFFFFFFFFFFFFFFFFFFFFFFFFFFFFFFFFFFFFFFFF AND PUSH20 0xFFFFFFFFFFFFFFFFFFFFFFFFFFFFFFFFFFFFFFFF AND DUP2 MSTORE PUSH1 0x20 ADD SWAP1 DUP2 MSTORE PUSH1 0x20 ADD PUSH1 0x0 KECCAK256 PUSH1 0x0 PUSH2 0x100 EXP DUP2 SLOAD DUP2 PUSH1 0xFF MUL NOT AND SWAP1 DUP4 ISZERO ISZERO MUL OR SWAP1 SSTORE POP DUP1 PUSH1 0x0 DUP1 DUP6 DUP2 MSTORE PUSH1 0x20 ADD SWAP1 DUP2 MSTORE PUSH1 0x20 ADD PUSH1 0x0 KECCAK256 PUSH1 0x1 ADD PUSH1 0x0 DUP5 DUP2 MSTORE PUSH1 0x20 ADD SWAP1 DUP2 MSTORE PUSH1 0x20 ADD PUSH1 0x0 KECCAK256 PUSH1 0x0 PUSH2 0x100 EXP DUP2 SLOAD DUP2 PUSH20 0xFFFFFFFFFFFFFFFFFFFFFFFFFFFFFFFFFFFFFFFF MUL NOT AND SWAP1 DUP4 PUSH20 0xFFFFFFFFFFFFFFFFFFFFFFFFFFFFFFFFFFFFFFFF AND MUL OR SWAP1 SSTORE POP POP DUP1 DUP1 PUSH2 0x1672 SWAP1 PUSH2 0x23BA JUMP JUMPDEST SWAP2 POP POP PUSH2 0x1470 JUMP JUMPDEST POP PUSH1 0x0 DUP1 PUSH32 0xDF8B4C520FFE197C5343C6F5AEC59570151EF9A492F2C624FD45DDDE6135EC42 DUP2 MSTORE PUSH1 0x20 ADD SWAP1 DUP2 MSTORE PUSH1 0x20 ADD PUSH1 0x0 KECCAK256 PUSH1 0x2 ADD SLOAD PUSH1 0x0 DUP1 DUP4 DUP2 MSTORE PUSH1 0x20 ADD SWAP1 DUP2 MSTORE PUSH1 0x20 ADD PUSH1 0x0 KECCAK256 PUSH1 0x2 ADD DUP2 SWAP1 SSTORE POP CALLER PUSH20 0xFFFFFFFFFFFFFFFFFFFFFFFFFFFFFFFFFFFFFFFF AND DUP3 PUSH1 0x40 MLOAD PUSH2 0x16EF SWAP2 SWAP1 PUSH2 0x20FB JUMP JUMPDEST PUSH1 0x40 MLOAD DUP1 SWAP2 SUB SWAP1 KECCAK256 PUSH32 0x629A748BA580FE181C6AE2D3673C4BDFEA9E1F2D334F36BEEC502AFF5DBAEFF2 PUSH1 0x40 MLOAD PUSH1 0x40 MLOAD DUP1 SWAP2 SUB SWAP1 LOG3 PUSH2 0x1767 JUMP JUMPDEST PUSH2 0x1766 PUSH1 0x40 MLOAD DUP1 PUSH1 0x40 ADD PUSH1 0x40 MSTORE DUP1 PUSH1 0x20 DUP2 MSTORE PUSH1 0x20 ADD PUSH32 0x546865207065726D697373696F6E2068617320616C726561792065786973742E DUP2 MSTORE POP PUSH2 0x1A5B JUMP JUMPDEST JUMPDEST POP POP JUMP JUMPDEST PUSH1 0x0 DUP3 DUP1 MLOAD SWAP1 PUSH1 0x20 ADD KECCAK256 SWAP1 POP PUSH1 0x0 DUP1 DUP3 DUP2 MSTORE PUSH1 0x20 ADD SWAP1 DUP2 MSTORE PUSH1 0x20 ADD PUSH1 0x0 KECCAK256 PUSH1 0x3 ADD PUSH1 0x0 SWAP1 SLOAD SWAP1 PUSH2 0x100 EXP SWAP1 DIV PUSH1 0xFF AND DUP1 ISZERO PUSH2 0x17C6 JUMPI POP PUSH32 0xDF8B4C520FFE197C5343C6F5AEC59570151EF9A492F2C624FD45DDDE6135EC42 DUP2 EQ ISZERO JUMPDEST ISZERO PUSH2 0x18B5 JUMPI PUSH2 0x17D5 DUP2 DUP4 PUSH2 0x1AB7 JUMP JUMPDEST PUSH1 0x1 PUSH1 0x0 DUP1 DUP4 DUP2 MSTORE PUSH1 0x20 ADD SWAP1 DUP2 MSTORE PUSH1 0x20 ADD PUSH1 0x0 KECCAK256 PUSH1 0x0 ADD PUSH1 0x0 DUP5 PUSH20 0xFFFFFFFFFFFFFFFFFFFFFFFFFFFFFFFFFFFFFFFF AND PUSH20 0xFFFFFFFFFFFFFFFFFFFFFFFFFFFFFFFFFFFFFFFF AND DUP2 MSTORE PUSH1 0x20 ADD SWAP1 DUP2 MSTORE PUSH1 0x20 ADD PUSH1 0x0 KECCAK256 PUSH1 0x0 PUSH2 0x100 EXP DUP2 SLOAD DUP2 PUSH1 0xFF MUL NOT AND SWAP1 DUP4 ISZERO ISZERO MUL OR SWAP1 SSTORE POP CALLER PUSH20 0xFFFFFFFFFFFFFFFFFFFFFFFFFFFFFFFFFFFFFFFF AND DUP3 PUSH20 0xFFFFFFFFFFFFFFFFFFFFFFFFFFFFFFFFFFFFFFFF AND DUP5 PUSH1 0x40 MLOAD PUSH2 0x187C SWAP2 SWAP1 PUSH2 0x20FB JUMP JUMPDEST PUSH1 0x40 MLOAD DUP1 SWAP2 SUB SWAP1 KECCAK256 PUSH32 0x1BBDB8CA05419DFFB11AFA5105F78331A46E3D8A8B900EFB115BBB4175A9C2D3 PUSH1 0x40 MLOAD PUSH1 0x40 MLOAD DUP1 SWAP2 SUB SWAP1 LOG4 PUSH2 0x18F4 JUMP JUMPDEST PUSH2 0x18F3 PUSH1 0x40 MLOAD DUP1 PUSH1 0x40 ADD PUSH1 0x40 MSTORE DUP1 PUSH1 0x1C DUP2 MSTORE PUSH1 0x20 ADD PUSH32 0x546865207065726D697373696F6E206973206E6F742076616C69642E00000000 DUP2 MSTORE POP PUSH2 0x1A5B JUMP JUMPDEST JUMPDEST POP POP POP JUMP JUMPDEST PUSH1 0x0 DUP3 DUP1 MLOAD SWAP1 PUSH1 0x20 ADD KECCAK256 SWAP1 POP PUSH2 0x190F DUP2 DUP4 PUSH2 0x75A JUMP JUMPDEST DUP1 ISZERO PUSH2 0x193B JUMPI POP PUSH32 0xDF8B4C520FFE197C5343C6F5AEC59570151EF9A492F2C624FD45DDDE6135EC42 DUP2 EQ ISZERO JUMPDEST ISZERO PUSH2 0x1A20 JUMPI PUSH1 0x0 DUP1 PUSH1 0x0 DUP4 DUP2 MSTORE PUSH1 0x20 ADD SWAP1 DUP2 MSTORE PUSH1 0x20 ADD PUSH1 0x0 KECCAK256 PUSH1 0x0 ADD PUSH1 0x0 DUP5 PUSH20 0xFFFFFFFFFFFFFFFFFFFFFFFFFFFFFFFFFFFFFFFF AND PUSH20 0xFFFFFFFFFFFFFFFFFFFFFFFFFFFFFFFFFFFFFFFF AND DUP2 MSTORE PUSH1 0x20 ADD SWAP1 DUP2 MSTORE PUSH1 0x20 ADD PUSH1 0x0 KECCAK256 PUSH1 0x0 PUSH2 0x100 EXP DUP2 SLOAD DUP2 PUSH1 0xFF MUL NOT AND SWAP1 DUP4 ISZERO ISZERO MUL OR SWAP1 SSTORE POP CALLER PUSH20 0xFFFFFFFFFFFFFFFFFFFFFFFFFFFFFFFFFFFFFFFF AND DUP3 PUSH20 0xFFFFFFFFFFFFFFFFFFFFFFFFFFFFFFFFFFFFFFFF AND DUP5 PUSH1 0x40 MLOAD PUSH2 0x19E7 SWAP2 SWAP1 PUSH2 0x20FB JUMP JUMPDEST PUSH1 0x40 MLOAD DUP1 SWAP2 SUB SWAP1 KECCAK256 PUSH32 0x5658F0A44F1B55364EF0376F818EA716AEE06D4E966974EDBA8AE1B8FA1E379C PUSH1 0x40 MLOAD PUSH1 0x40 MLOAD DUP1 SWAP2 SUB SWAP1 LOG4 PUSH2 0x1A42 JUMP JUMPDEST PUSH2 0x1A41 PUSH1 0x40 MLOAD DUP1 PUSH1 0x80 ADD PUSH1 0x40 MSTORE DUP1 PUSH1 0x44 DUP2 MSTORE PUSH1 0x20 ADD PUSH2 0x255C PUSH1 0x44 SWAP2 CODECOPY PUSH2 0x1A5B JUMP JUMPDEST JUMPDEST POP POP POP JUMP JUMPDEST PUSH1 0x0 PUSH2 0x1A53 DUP4 DUP4 PUSH2 0x75A JUMP JUMPDEST SWAP1 POP SWAP3 SWAP2 POP POP JUMP JUMPDEST DUP1 PUSH1 0x40 MLOAD PUSH1 0x20 ADD PUSH2 0x1A6C SWAP2 SWAP1 PUSH2 0x2112 JUMP JUMPDEST PUSH1 0x40 MLOAD PUSH1 0x20 DUP2 DUP4 SUB SUB DUP2 MSTORE SWAP1 PUSH1 0x40 MSTORE PUSH1 0x40 MLOAD PUSH32 0x8C379A000000000000000000000000000000000000000000000000000000000 DUP2 MSTORE PUSH1 0x4 ADD PUSH2 0x1AAE SWAP2 SWAP1 PUSH2 0x21AE JUMP JUMPDEST PUSH1 0x40 MLOAD DUP1 SWAP2 SUB SWAP1 REVERT JUMPDEST PUSH1 0x0 DUP1 JUMPDEST PUSH1 0x0 DUP1 DUP6 DUP2 MSTORE PUSH1 0x20 ADD SWAP1 DUP2 MSTORE PUSH1 0x20 ADD PUSH1 0x0 KECCAK256 PUSH1 0x2 ADD SLOAD DUP2 LT ISZERO PUSH2 0x1B6E JUMPI DUP3 PUSH20 0xFFFFFFFFFFFFFFFFFFFFFFFFFFFFFFFFFFFFFFFF AND PUSH1 0x0 DUP1 DUP7 DUP2 MSTORE PUSH1 0x20 ADD SWAP1 DUP2 MSTORE PUSH1 0x20 ADD PUSH1 0x0 KECCAK256 PUSH1 0x1 ADD PUSH1 0x0 DUP4 DUP2 MSTORE PUSH1 0x20 ADD SWAP1 DUP2 MSTORE PUSH1 0x20 ADD PUSH1 0x0 KECCAK256 PUSH1 0x0 SWAP1 SLOAD SWAP1 PUSH2 0x100 EXP SWAP1 DIV PUSH20 0xFFFFFFFFFFFFFFFFFFFFFFFFFFFFFFFFFFFFFFFF AND PUSH20 0xFFFFFFFFFFFFFFFFFFFFFFFFFFFFFFFFFFFFFFFF AND EQ ISZERO PUSH2 0x1B5B JUMPI PUSH1 0x1 SWAP2 POP PUSH2 0x1B6E JUMP JUMPDEST DUP1 DUP1 PUSH2 0x1B66 SWAP1 PUSH2 0x23BA JUMP JUMPDEST SWAP2 POP POP PUSH2 0x1ABB JUMP JUMPDEST POP DUP1 PUSH2 0x1C1A JUMPI DUP2 PUSH1 0x0 DUP1 DUP6 DUP2 MSTORE PUSH1 0x20 ADD SWAP1 DUP2 MSTORE PUSH1 0x20 ADD PUSH1 0x0 KECCAK256 PUSH1 0x1 ADD PUSH1 0x0 DUP1 PUSH1 0x0 DUP8 DUP2 MSTORE PUSH1 0x20 ADD SWAP1 DUP2 MSTORE PUSH1 0x20 ADD PUSH1 0x0 KECCAK256 PUSH1 0x2 ADD SLOAD DUP2 MSTORE PUSH1 0x20 ADD SWAP1 DUP2 MSTORE PUSH1 0x20 ADD PUSH1 0x0 KECCAK256 PUSH1 0x0 PUSH2 0x100 EXP DUP2 SLOAD DUP2 PUSH20 0xFFFFFFFFFFFFFFFFFFFFFFFFFFFFFFFFFFFFFFFF MUL NOT AND SWAP1 DUP4 PUSH20 0xFFFFFFFFFFFFFFFFFFFFFFFFFFFFFFFFFFFFFFFF AND MUL OR SWAP1 SSTORE POP PUSH1 0x0 DUP1 DUP5 DUP2 MSTORE PUSH1 0x20 ADD SWAP1 DUP2 MSTORE PUSH1 0x20 ADD PUSH1 0x0 KECCAK256 PUSH1 0x2 ADD PUSH1 0x0 DUP2 SLOAD DUP1 SWAP3 SWAP2 SWAP1 PUSH2 0x1C14 SWAP1 PUSH2 0x23BA JUMP JUMPDEST SWAP2 SWAP1 POP SSTORE POP JUMPDEST POP POP POP JUMP JUMPDEST PUSH1 0x0 DUP1 JUMPDEST PUSH1 0x2 SLOAD DUP2 LT ISZERO PUSH2 0x1C64 JUMPI DUP3 PUSH1 0x1 PUSH1 0x0 DUP4 DUP2 MSTORE PUSH1 0x20 ADD SWAP1 DUP2 MSTORE PUSH1 0x20 ADD PUSH1 0x0 KECCAK256 SLOAD EQ ISZERO PUSH2 0x1C51 JUMPI PUSH1 0x1 SWAP2 POP PUSH2 0x1C64 JUMP JUMPDEST DUP1 DUP1 PUSH2 0x1C5C SWAP1 PUSH2 0x23BA JUMP JUMPDEST SWAP2 POP POP PUSH2 0x1C23 JUMP JUMPDEST POP DUP1 PUSH2 0x1C9D JUMPI DUP2 PUSH1 0x1 PUSH1 0x0 PUSH1 0x2 SLOAD DUP2 MSTORE PUSH1 0x20 ADD SWAP1 DUP2 MSTORE PUSH1 0x20 ADD PUSH1 0x0 KECCAK256 DUP2 SWAP1 SSTORE POP PUSH1 0x2 PUSH1 0x0 DUP2 SLOAD DUP1 SWAP3 SWAP2 SWAP1 PUSH2 0x1C97 SWAP1 PUSH2 0x23BA JUMP JUMPDEST SWAP2 SWAP1 POP SSTORE POP JUMPDEST POP POP JUMP JUMPDEST PUSH1 0x0 PUSH2 0x1CB4 PUSH2 0x1CAF DUP5 PUSH2 0x2215 JUMP JUMPDEST PUSH2 0x21F0 JUMP JUMPDEST SWAP1 POP DUP3 DUP2 MSTORE PUSH1 0x20 DUP2 ADD DUP5 DUP5 DUP5 ADD GT ISZERO PUSH2 0x1CD0 JUMPI PUSH2 0x1CCF PUSH2 0x2495 JUMP JUMPDEST JUMPDEST PUSH2 0x1CDB DUP5 DUP3 DUP6 PUSH2 0x2347 JUMP JUMPDEST POP SWAP4 SWAP3 POP POP POP JUMP JUMPDEST PUSH1 0x0 DUP2 CALLDATALOAD SWAP1 POP PUSH2 0x1CF2 DUP2 PUSH2 0x252D JUMP JUMPDEST SWAP3 SWAP2 POP POP JUMP JUMPDEST PUSH1 0x0 DUP2 CALLDATALOAD SWAP1 POP PUSH2 0x1D07 DUP2 PUSH2 0x2544 JUMP JUMPDEST SWAP3 SWAP2 POP POP JUMP JUMPDEST PUSH1 0x0 DUP3 PUSH1 0x1F DUP4 ADD SLT PUSH2 0x1D22 JUMPI PUSH2 0x1D21 PUSH2 0x2490 JUMP JUMPDEST JUMPDEST DUP2 CALLDATALOAD PUSH2 0x1D32 DUP5 DUP3 PUSH1 0x20 DUP7 ADD PUSH2 0x1CA1 JUMP JUMPDEST SWAP2 POP POP SWAP3 SWAP2 POP POP JUMP JUMPDEST PUSH1 0x0 PUSH1 0x20 DUP3 DUP5 SUB SLT ISZERO PUSH2 0x1D51 JUMPI PUSH2 0x1D50 PUSH2 0x249F JUMP JUMPDEST JUMPDEST PUSH1 0x0 PUSH2 0x1D5F DUP5 DUP3 DUP6 ADD PUSH2 0x1CE3 JUMP JUMPDEST SWAP2 POP POP SWAP3 SWAP2 POP POP JUMP JUMPDEST PUSH1 0x0 PUSH1 0x20 DUP3 DUP5 SUB SLT ISZERO PUSH2 0x1D7E JUMPI PUSH2 0x1D7D PUSH2 0x249F JUMP JUMPDEST JUMPDEST PUSH1 0x0 PUSH2 0x1D8C DUP5 DUP3 DUP6 ADD PUSH2 0x1CF8 JUMP JUMPDEST SWAP2 POP POP SWAP3 SWAP2 POP POP JUMP JUMPDEST PUSH1 0x0 DUP1 PUSH1 0x40 DUP4 DUP6 SUB SLT ISZERO PUSH2 0x1DAC JUMPI PUSH2 0x1DAB PUSH2 0x249F JUMP JUMPDEST JUMPDEST PUSH1 0x0 PUSH2 0x1DBA DUP6 DUP3 DUP7 ADD PUSH2 0x1CF8 JUMP JUMPDEST SWAP3 POP POP PUSH1 0x20 PUSH2 0x1DCB DUP6 DUP3 DUP7 ADD PUSH2 0x1CE3 JUMP JUMPDEST SWAP2 POP POP SWAP3 POP SWAP3 SWAP1 POP JUMP JUMPDEST PUSH1 0x0 PUSH1 0x20 DUP3 DUP5 SUB SLT ISZERO PUSH2 0x1DEB JUMPI PUSH2 0x1DEA PUSH2 0x249F JUMP JUMPDEST JUMPDEST PUSH1 0x0 DUP3 ADD CALLDATALOAD PUSH8 0xFFFFFFFFFFFFFFFF DUP2 GT ISZERO PUSH2 0x1E09 JUMPI PUSH2 0x1E08 PUSH2 0x249A JUMP JUMPDEST JUMPDEST PUSH2 0x1E15 DUP5 DUP3 DUP6 ADD PUSH2 0x1D0D JUMP JUMPDEST SWAP2 POP POP SWAP3 SWAP2 POP POP JUMP JUMPDEST PUSH1 0x0 DUP1 PUSH1 0x40 DUP4 DUP6 SUB SLT ISZERO PUSH2 0x1E35 JUMPI PUSH2 0x1E34 PUSH2 0x249F JUMP JUMPDEST JUMPDEST PUSH1 0x0 DUP4 ADD CALLDATALOAD PUSH8 0xFFFFFFFFFFFFFFFF DUP2 GT ISZERO PUSH2 0x1E53 JUMPI PUSH2 0x1E52 PUSH2 0x249A JUMP JUMPDEST JUMPDEST PUSH2 0x1E5F DUP6 DUP3 DUP7 ADD PUSH2 0x1D0D JUMP JUMPDEST SWAP3 POP POP PUSH1 0x20 PUSH2 0x1E70 DUP6 DUP3 DUP7 ADD PUSH2 0x1CE3 JUMP JUMPDEST SWAP2 POP POP SWAP3 POP SWAP3 SWAP1 POP JUMP JUMPDEST PUSH1 0x0 DUP1 PUSH1 0x40 DUP4 DUP6 SUB SLT ISZERO PUSH2 0x1E91 JUMPI PUSH2 0x1E90 PUSH2 0x249F JUMP JUMPDEST JUMPDEST PUSH1 0x0 DUP4 ADD CALLDATALOAD PUSH8 0xFFFFFFFFFFFFFFFF DUP2 GT ISZERO PUSH2 0x1EAF JUMPI PUSH2 0x1EAE PUSH2 0x249A JUMP JUMPDEST JUMPDEST PUSH2 0x1EBB DUP6 DUP3 DUP7 ADD PUSH2 0x1D0D JUMP JUMPDEST SWAP3 POP POP PUSH1 0x20 DUP4 ADD CALLDATALOAD PUSH8 0xFFFFFFFFFFFFFFFF DUP2 GT ISZERO PUSH2 0x1EDC JUMPI PUSH2 0x1EDB PUSH2 0x249A JUMP JUMPDEST JUMPDEST PUSH2 0x1EE8 DUP6 DUP3 DUP7 ADD PUSH2 0x1D0D JUMP JUMPDEST SWAP2 POP POP SWAP3 POP SWAP3 SWAP1 POP JUMP JUMPDEST PUSH1 0x0 PUSH2 0x1EFE DUP4 DUP4 PUSH2 0x1F22 JUMP JUMPDEST PUSH1 0x20 DUP4 ADD SWAP1 POP SWAP3 SWAP2 POP POP JUMP JUMPDEST PUSH1 0x0 PUSH2 0x1F16 DUP4 DUP4 PUSH2 0x200B JUMP JUMPDEST PUSH1 0x20 DUP4 ADD SWAP1 POP SWAP3 SWAP2 POP POP JUMP JUMPDEST PUSH2 0x1F2B DUP2 PUSH2 0x22F5 JUMP JUMPDEST DUP3 MSTORE POP POP JUMP JUMPDEST PUSH2 0x1F3A DUP2 PUSH2 0x22F5 JUMP JUMPDEST DUP3 MSTORE POP POP JUMP JUMPDEST PUSH1 0x0 PUSH2 0x1F4B DUP3 PUSH2 0x2266 JUMP JUMPDEST PUSH2 0x1F55 DUP2 DUP6 PUSH2 0x22AC JUMP JUMPDEST SWAP4 POP PUSH2 0x1F60 DUP4 PUSH2 0x2246 JUMP JUMPDEST DUP1 PUSH1 0x0 JUMPDEST DUP4 DUP2 LT ISZERO PUSH2 0x1F91 JUMPI DUP2 MLOAD PUSH2 0x1F78 DUP9 DUP3 PUSH2 0x1EF2 JUMP JUMPDEST SWAP8 POP PUSH2 0x1F83 DUP4 PUSH2 0x2292 JUMP JUMPDEST SWAP3 POP POP PUSH1 0x1 DUP2 ADD SWAP1 POP PUSH2 0x1F64 JUMP JUMPDEST POP DUP6 SWAP4 POP POP POP POP SWAP3 SWAP2 POP POP JUMP JUMPDEST PUSH1 0x0 PUSH2 0x1FA9 DUP3 PUSH2 0x2271 JUMP JUMPDEST PUSH2 0x1FB3 DUP2 DUP6 PUSH2 0x22BD JUMP JUMPDEST SWAP4 POP PUSH2 0x1FBE DUP4 PUSH2 0x2256 JUMP JUMPDEST DUP1 PUSH1 0x0 JUMPDEST DUP4 DUP2 LT ISZERO PUSH2 0x1FEF JUMPI DUP2 MLOAD PUSH2 0x1FD6 DUP9 DUP3 PUSH2 0x1F0A JUMP JUMPDEST SWAP8 POP PUSH2 0x1FE1 DUP4 PUSH2 0x229F JUMP JUMPDEST SWAP3 POP POP PUSH1 0x1 DUP2 ADD SWAP1 POP PUSH2 0x1FC2 JUMP JUMPDEST POP DUP6 SWAP4 POP POP POP POP SWAP3 SWAP2 POP POP JUMP JUMPDEST PUSH2 0x2005 DUP2 PUSH2 0x2307 JUMP JUMPDEST DUP3 MSTORE POP POP JUMP JUMPDEST PUSH2 0x2014 DUP2 PUSH2 0x2313 JUMP JUMPDEST DUP3 MSTORE POP POP JUMP JUMPDEST PUSH1 0x0 PUSH2 0x2025 DUP3 PUSH2 0x227C JUMP JUMPDEST PUSH2 0x202F DUP2 DUP6 PUSH2 0x22CE JUMP JUMPDEST SWAP4 POP PUSH2 0x203F DUP2 DUP6 PUSH1 0x20 DUP7 ADD PUSH2 0x2356 JUMP JUMPDEST DUP1 DUP5 ADD SWAP2 POP POP SWAP3 SWAP2 POP POP JUMP JUMPDEST PUSH1 0x0 PUSH2 0x2056 DUP3 PUSH2 0x2287 JUMP JUMPDEST PUSH2 0x2060 DUP2 DUP6 PUSH2 0x22D9 JUMP JUMPDEST SWAP4 POP PUSH2 0x2070 DUP2 DUP6 PUSH1 0x20 DUP7 ADD PUSH2 0x2356 JUMP JUMPDEST PUSH2 0x2079 DUP2 PUSH2 0x24A4 JUMP JUMPDEST DUP5 ADD SWAP2 POP POP SWAP3 SWAP2 POP POP JUMP JUMPDEST PUSH1 0x0 PUSH2 0x208F DUP3 PUSH2 0x2287 JUMP JUMPDEST PUSH2 0x2099 DUP2 DUP6 PUSH2 0x22EA JUMP JUMPDEST SWAP4 POP PUSH2 0x20A9 DUP2 DUP6 PUSH1 0x20 DUP7 ADD PUSH2 0x2356 JUMP JUMPDEST DUP1 DUP5 ADD SWAP2 POP POP SWAP3 SWAP2 POP POP JUMP JUMPDEST PUSH1 0x0 PUSH2 0x20C2 PUSH1 0xF DUP4 PUSH2 0x22EA JUMP JUMPDEST SWAP2 POP PUSH2 0x20CD DUP3 PUSH2 0x24B5 JUMP JUMPDEST PUSH1 0xF DUP3 ADD SWAP1 POP SWAP2 SWAP1 POP JUMP JUMPDEST PUSH1 0x0 PUSH2 0x20E5 PUSH1 0x3E DUP4 PUSH2 0x22D9 JUMP JUMPDEST SWAP2 POP PUSH2 0x20F0 DUP3 PUSH2 0x24DE JUMP JUMPDEST PUSH1 0x40 DUP3 ADD SWAP1 POP SWAP2 SWAP1 POP JUMP JUMPDEST PUSH1 0x0 PUSH2 0x2107 DUP3 DUP5 PUSH2 0x201A JUMP JUMPDEST SWAP2 POP DUP2 SWAP1 POP SWAP3 SWAP2 POP POP JUMP JUMPDEST PUSH1 0x0 PUSH2 0x211D DUP3 PUSH2 0x20B5 JUMP JUMPDEST SWAP2 POP PUSH2 0x2129 DUP3 DUP5 PUSH2 0x2084 JUMP JUMPDEST SWAP2 POP DUP2 SWAP1 POP SWAP3 SWAP2 POP POP JUMP JUMPDEST PUSH1 0x0 PUSH1 0x20 DUP3 ADD SWAP1 POP PUSH2 0x2149 PUSH1 0x0 DUP4 ADD DUP5 PUSH2 0x1F31 JUMP JUMPDEST SWAP3 SWAP2 POP POP JUMP JUMPDEST PUSH1 0x0 PUSH1 0x20 DUP3 ADD SWAP1 POP DUP2 DUP2 SUB PUSH1 0x0 DUP4 ADD MSTORE PUSH2 0x2169 DUP2 DUP5 PUSH2 0x1F40 JUMP JUMPDEST SWAP1 POP SWAP3 SWAP2 POP POP JUMP JUMPDEST PUSH1 0x0 PUSH1 0x20 DUP3 ADD SWAP1 POP DUP2 DUP2 SUB PUSH1 0x0 DUP4 ADD MSTORE PUSH2 0x218B DUP2 DUP5 PUSH2 0x1F9E JUMP JUMPDEST SWAP1 POP SWAP3 SWAP2 POP POP JUMP JUMPDEST PUSH1 0x0 PUSH1 0x20 DUP3 ADD SWAP1 POP PUSH2 0x21A8 PUSH1 0x0 DUP4 ADD DUP5 PUSH2 0x1FFC JUMP JUMPDEST SWAP3 SWAP2 POP POP JUMP JUMPDEST PUSH1 0x0 PUSH1 0x20 DUP3 ADD SWAP1 POP DUP2 DUP2 SUB PUSH1 0x0 DUP4 ADD MSTORE PUSH2 0x21C8 DUP2 DUP5 PUSH2 0x204B JUMP JUMPDEST SWAP1 POP SWAP3 SWAP2 POP POP JUMP JUMPDEST PUSH1 0x0 PUSH1 0x20 DUP3 ADD SWAP1 POP DUP2 DUP2 SUB PUSH1 0x0 DUP4 ADD MSTORE PUSH2 0x21E9 DUP2 PUSH2 0x20D8 JUMP JUMPDEST SWAP1 POP SWAP2 SWAP1 POP JUMP JUMPDEST PUSH1 0x0 PUSH2 0x21FA PUSH2 0x220B JUMP JUMPDEST SWAP1 POP PUSH2 0x2206 DUP3 DUP3 PUSH2 0x2389 JUMP JUMPDEST SWAP2 SWAP1 POP JUMP JUMPDEST PUSH1 0x0 PUSH1 0x40 MLOAD SWAP1 POP SWAP1 JUMP JUMPDEST PUSH1 0x0 PUSH8 0xFFFFFFFFFFFFFFFF DUP3 GT ISZERO PUSH2 0x2230 JUMPI PUSH2 0x222F PUSH2 0x2461 JUMP JUMPDEST JUMPDEST PUSH2 0x2239 DUP3 PUSH2 0x24A4 JUMP JUMPDEST SWAP1 POP PUSH1 0x20 DUP2 ADD SWAP1 POP SWAP2 SWAP1 POP JUMP JUMPDEST PUSH1 0x0 DUP2 SWAP1 POP PUSH1 0x20 DUP3 ADD SWAP1 POP SWAP2 SWAP1 POP JUMP JUMPDEST PUSH1 0x0 DUP2 SWAP1 POP PUSH1 0x20 DUP3 ADD SWAP1 POP SWAP2 SWAP1 POP JUMP JUMPDEST PUSH1 0x0 DUP2 MLOAD SWAP1 POP SWAP2 SWAP1 POP JUMP JUMPDEST PUSH1 0x0 DUP2 MLOAD SWAP1 POP SWAP2 SWAP1 POP JUMP JUMPDEST PUSH1 0x0 DUP2 MLOAD SWAP1 POP SWAP2 SWAP1 POP JUMP JUMPDEST PUSH1 0x0 DUP2 MLOAD SWAP1 POP SWAP2 SWAP1 POP JUMP JUMPDEST PUSH1 0x0 PUSH1 0x20 DUP3 ADD SWAP1 POP SWAP2 SWAP1 POP JUMP JUMPDEST PUSH1 0x0 PUSH1 0x20 DUP3 ADD SWAP1 POP SWAP2 SWAP1 POP JUMP JUMPDEST PUSH1 0x0 DUP3 DUP3 MSTORE PUSH1 0x20 DUP3 ADD SWAP1 POP SWAP3 SWAP2 POP POP JUMP JUMPDEST PUSH1 0x0 DUP3 DUP3 MSTORE PUSH1 0x20 DUP3 ADD SWAP1 POP SWAP3 SWAP2 POP POP JUMP JUMPDEST PUSH1 0x0 DUP2 SWAP1 POP SWAP3 SWAP2 POP POP JUMP JUMPDEST PUSH1 0x0 DUP3 DUP3 MSTORE PUSH1 0x20 DUP3 ADD SWAP1 POP SWAP3 SWAP2 POP POP JUMP JUMPDEST PUSH1 0x0 DUP2 SWAP1 POP SWAP3 SWAP2 POP POP JUMP JUMPDEST PUSH1 0x0 PUSH2 0x2300 DUP3 PUSH2 0x231D JUMP JUMPDEST SWAP1 POP SWAP2 SWAP1 POP JUMP JUMPDEST PUSH1 0x0 DUP2 ISZERO ISZERO SWAP1 POP SWAP2 SWAP1 POP JUMP JUMPDEST PUSH1 0x0 DUP2 SWAP1 POP SWAP2 SWAP1 POP JUMP JUMPDEST PUSH1 0x0 PUSH20 0xFFFFFFFFFFFFFFFFFFFFFFFFFFFFFFFFFFFFFFFF DUP3 AND SWAP1 POP SWAP2 SWAP1 POP JUMP JUMPDEST PUSH1 0x0 DUP2 SWAP1 POP SWAP2 SWAP1 POP JUMP JUMPDEST DUP3 DUP2 DUP4 CALLDATACOPY PUSH1 0x0 DUP4 DUP4 ADD MSTORE POP POP POP JUMP JUMPDEST PUSH1 0x0 JUMPDEST DUP4 DUP2 LT ISZERO PUSH2 0x2374 JUMPI DUP1 DUP3 ADD MLOAD DUP2 DUP5 ADD MSTORE PUSH1 0x20 DUP2 ADD SWAP1 POP PUSH2 0x2359 JUMP JUMPDEST DUP4 DUP2 GT ISZERO PUSH2 0x2383 JUMPI PUSH1 0x0 DUP5 DUP5 ADD MSTORE JUMPDEST POP POP POP POP JUMP JUMPDEST PUSH2 0x2392 DUP3 PUSH2 0x24A4 JUMP JUMPDEST DUP2 ADD DUP2 DUP2 LT PUSH8 0xFFFFFFFFFFFFFFFF DUP3 GT OR ISZERO PUSH2 0x23B1 JUMPI PUSH2 0x23B0 PUSH2 0x2461 JUMP JUMPDEST JUMPDEST DUP1 PUSH1 0x40 MSTORE POP POP POP JUMP JUMPDEST PUSH1 0x0 PUSH2 0x23C5 DUP3 PUSH2 0x233D JUMP JUMPDEST SWAP2 POP PUSH32 0xFFFFFFFFFFFFFFFFFFFFFFFFFFFFFFFFFFFFFFFFFFFFFFFFFFFFFFFFFFFFFFFF DUP3 EQ ISZERO PUSH2 0x23F8 JUMPI PUSH2 0x23F7 PUSH2 0x2403 JUMP JUMPDEST JUMPDEST PUSH1 0x1 DUP3 ADD SWAP1 POP SWAP2 SWAP1 POP JUMP JUMPDEST PUSH32 0x4E487B7100000000000000000000000000000000000000000000000000000000 PUSH1 0x0 MSTORE PUSH1 0x11 PUSH1 0x4 MSTORE PUSH1 0x24 PUSH1 0x0 REVERT JUMPDEST PUSH32 0x4E487B7100000000000000000000000000000000000000000000000000000000 PUSH1 0x0 MSTORE PUSH1 0x32 PUSH1 0x4 MSTORE PUSH1 0x24 PUSH1 0x0 REVERT JUMPDEST PUSH32 0x4E487B7100000000000000000000000000000000000000000000000000000000 PUSH1 0x0 MSTORE PUSH1 0x41 PUSH1 0x4 MSTORE PUSH1 0x24 PUSH1 0x0 REVERT JUMPDEST PUSH1 0x0 DUP1 REVERT JUMPDEST PUSH1 0x0 DUP1 REVERT JUMPDEST PUSH1 0x0 DUP1 REVERT JUMPDEST PUSH1 0x0 DUP1 REVERT JUMPDEST PUSH1 0x0 PUSH1 0x1F NOT PUSH1 0x1F DUP4 ADD AND SWAP1 POP SWAP2 SWAP1 POP JUMP JUMPDEST PUSH32 0x416363657373436F6E74726F6C3A200000000000000000000000000000000000 PUSH1 0x0 DUP3 ADD MSTORE POP JUMP JUMPDEST PUSH32 0x416363657373436F6E74726F6C3A20596F752068617665206E6F207065726D69 PUSH1 0x0 DUP3 ADD MSTORE PUSH32 0x7373696F6E20746F2061636365737320746869732066756E6374696F6E2E0000 PUSH1 0x20 DUP3 ADD MSTORE POP JUMP JUMPDEST PUSH2 0x2536 DUP2 PUSH2 0x22F5 JUMP JUMPDEST DUP2 EQ PUSH2 0x2541 JUMPI PUSH1 0x0 DUP1 REVERT JUMPDEST POP JUMP JUMPDEST PUSH2 0x254D DUP2 PUSH2 0x2313 JUMP JUMPDEST DUP2 EQ PUSH2 0x2558 JUMPI PUSH1 0x0 DUP1 REVERT JUMPDEST POP JUMP INVALID SLOAD PUSH9 0x65207065726D697373 PUSH10 0x6F6E206973206E6F7420 PUSH23 0x616C6964206F7220746865206163636F756E7420697320 PUSH15 0x6F7420696E20746865207065726D69 PUSH20 0x73696F6E2EA26469706673582212201E331F981A 0xFC SWAP5 PUSH16 0xFE3E6B31C5256E7DBB78AE19E0146607 0x5C PUSH21 0x72BF69A775E164736F6C6343000807003300000000 "
				},
				"gasEstimates": {
					"creation": {
						"codeDepositCost": "1937000",
						"executionCost": "infinite",
						"totalCost": "infinite"
					},
					"external": {
						"createPermission(bytes)": "infinite",
						"createPermissionByLevel(bytes,bytes)": "infinite",
						"deleteAccount(address)": "infinite",
						"deletePermission(bytes)": "infinite",
						"grantAccountPermission(bytes,address)": "infinite",
						"inquiryAccountPermission(bytes32,address)": "infinite",
						"inquiryAdmin()": "infinite",
						"inquiryAllAccountsByPermission(bytes32)": "infinite",
						"inquiryAllPermissionsByAccount(address)": "infinite",
						"revokeAccountPermission(bytes,address)": "infinite",
						"transferAdmin(address)": "infinite"
					}
				},
				"methodIdentifiers": {
					"createPermission(bytes)": "aae7c78a",
					"createPermissionByLevel(bytes,bytes)": "a10f9524",
					"deleteAccount(address)": "4c1b64cb",
					"deletePermission(bytes)": "342da059",
					"grantAccountPermission(bytes,address)": "c7dc6220",
					"inquiryAccountPermission(bytes32,address)": "e9cb00a2",
					"inquiryAdmin()": "7058dd24",
					"inquiryAllAccountsByPermission(bytes32)": "9b8f3bbc",
					"inquiryAllPermissionsByAccount(address)": "80891cb2",
					"revokeAccountPermission(bytes,address)": "c98d6f1e",
					"transferAdmin(address)": "75829def"
				}
			},
			"storageLayout": {
				"storage": [
					{
						"astId": 22,
						"contract": "contracts/organization/DaoAccessControl.sol:DaoAccessControl",
						"label": "_allPermissions",
						"offset": 0,
						"slot": "0",
						"type": "t_mapping(t_bytes32,t_struct(MembersData)17_storage)"
					},
					{
						"astId": 26,
						"contract": "contracts/organization/DaoAccessControl.sol:DaoAccessControl",
						"label": "_indexOfPermissions",
						"offset": 0,
						"slot": "1",
						"type": "t_mapping(t_uint256,t_bytes32)"
					},
					{
						"astId": 28,
						"contract": "contracts/organization/DaoAccessControl.sol:DaoAccessControl",
						"label": "_numberOfPermissions",
						"offset": 0,
						"slot": "2",
						"type": "t_uint256"
					}
				],
				"types": {
					"t_address": {
						"encoding": "inplace",
						"label": "address",
						"numberOfBytes": "20"
					},
					"t_bool": {
						"encoding": "inplace",
						"label": "bool",
						"numberOfBytes": "1"
					},
					"t_bytes32": {
						"encoding": "inplace",
						"label": "bytes32",
						"numberOfBytes": "32"
					},
					"t_mapping(t_address,t_bool)": {
						"encoding": "mapping",
						"key": "t_address",
						"label": "mapping(address => bool)",
						"numberOfBytes": "32",
						"value": "t_bool"
					},
					"t_mapping(t_bytes32,t_struct(MembersData)17_storage)": {
						"encoding": "mapping",
						"key": "t_bytes32",
						"label": "mapping(bytes32 => struct AccessControl.MembersData)",
						"numberOfBytes": "32",
						"value": "t_struct(MembersData)17_storage"
					},
					"t_mapping(t_uint256,t_address)": {
						"encoding": "mapping",
						"key": "t_uint256",
						"label": "mapping(uint256 => address)",
						"numberOfBytes": "32",
						"value": "t_address"
					},
					"t_mapping(t_uint256,t_bytes32)": {
						"encoding": "mapping",
						"key": "t_uint256",
						"label": "mapping(uint256 => bytes32)",
						"numberOfBytes": "32",
						"value": "t_bytes32"
					},
					"t_struct(MembersData)17_storage": {
						"encoding": "inplace",
						"label": "struct AccessControl.MembersData",
						"members": [
							{
								"astId": 8,
								"contract": "contracts/organization/DaoAccessControl.sol:DaoAccessControl",
								"label": "members",
								"offset": 0,
								"slot": "0",
								"type": "t_mapping(t_address,t_bool)"
							},
							{
								"astId": 12,
								"contract": "contracts/organization/DaoAccessControl.sol:DaoAccessControl",
								"label": "index",
								"offset": 0,
								"slot": "1",
								"type": "t_mapping(t_uint256,t_address)"
							},
							{
								"astId": 14,
								"contract": "contracts/organization/DaoAccessControl.sol:DaoAccessControl",
								"label": "length",
								"offset": 0,
								"slot": "2",
								"type": "t_uint256"
							},
							{
								"astId": 16,
								"contract": "contracts/organization/DaoAccessControl.sol:DaoAccessControl",
								"label": "isValid",
								"offset": 0,
								"slot": "3",
								"type": "t_bool"
							}
						],
						"numberOfBytes": "128"
					},
					"t_uint256": {
						"encoding": "inplace",
						"label": "uint256",
						"numberOfBytes": "32"
					}
				}
			},
			"userdoc": {
				"kind": "user",
				"methods": {},
				"version": 1
			}
		}
	}
}