{
	"contracts/organization/DaoTest.sol": {
		"DaoTest": {
			"abi": [
				{
					"anonymous": false,
					"inputs": [
						{
							"indexed": true,
							"internalType": "bytes32",
							"name": "role",
							"type": "bytes32"
						},
						{
							"indexed": true,
							"internalType": "bytes32",
							"name": "previousAdminRole",
							"type": "bytes32"
						},
						{
							"indexed": true,
							"internalType": "bytes32",
							"name": "newAdminRole",
							"type": "bytes32"
						}
					],
					"name": "RoleAdminChanged",
					"type": "event"
				},
				{
					"anonymous": false,
					"inputs": [
						{
							"indexed": true,
							"internalType": "bytes32",
							"name": "role",
							"type": "bytes32"
						},
						{
							"indexed": true,
							"internalType": "address",
							"name": "account",
							"type": "address"
						},
						{
							"indexed": true,
							"internalType": "address",
							"name": "sender",
							"type": "address"
						}
					],
					"name": "RoleGranted",
					"type": "event"
				},
				{
					"anonymous": false,
					"inputs": [
						{
							"indexed": true,
							"internalType": "bytes32",
							"name": "role",
							"type": "bytes32"
						},
						{
							"indexed": true,
							"internalType": "address",
							"name": "account",
							"type": "address"
						},
						{
							"indexed": true,
							"internalType": "address",
							"name": "sender",
							"type": "address"
						}
					],
					"name": "RoleRevoked",
					"type": "event"
				},
				{
					"anonymous": false,
					"inputs": [
						{
							"indexed": false,
							"internalType": "string",
							"name": "newValue",
							"type": "string"
						}
					],
					"name": "someOutputs",
					"type": "event"
				},
				{
					"inputs": [],
					"name": "DEFAULT_ADMIN_ROLE",
					"outputs": [
						{
							"internalType": "bytes32",
							"name": "",
							"type": "bytes32"
						}
					],
					"stateMutability": "view",
					"type": "function"
				},
				{
					"inputs": [
						{
							"internalType": "bytes32",
							"name": "role",
							"type": "bytes32"
						}
					],
					"name": "getRoleAdmin",
					"outputs": [
						{
							"internalType": "bytes32",
							"name": "",
							"type": "bytes32"
						}
					],
					"stateMutability": "view",
					"type": "function"
				},
				{
					"inputs": [
						{
							"internalType": "bytes32",
							"name": "role",
							"type": "bytes32"
						},
						{
							"internalType": "address",
							"name": "account",
							"type": "address"
						}
					],
					"name": "grantRole",
					"outputs": [],
					"stateMutability": "nonpayable",
					"type": "function"
				},
				{
					"inputs": [
						{
							"internalType": "bytes32",
							"name": "role",
							"type": "bytes32"
						},
						{
							"internalType": "address",
							"name": "account",
							"type": "address"
						}
					],
					"name": "hasRole",
					"outputs": [
						{
							"internalType": "bool",
							"name": "",
							"type": "bool"
						}
					],
					"stateMutability": "view",
					"type": "function"
				},
				{
					"inputs": [
						{
							"internalType": "bytes32",
							"name": "role",
							"type": "bytes32"
						},
						{
							"internalType": "address",
							"name": "account",
							"type": "address"
						}
					],
					"name": "renounceRole",
					"outputs": [],
					"stateMutability": "nonpayable",
					"type": "function"
				},
				{
					"inputs": [
						{
							"internalType": "bytes32",
							"name": "role",
							"type": "bytes32"
						},
						{
							"internalType": "address",
							"name": "account",
							"type": "address"
						}
					],
					"name": "revokeRole",
					"outputs": [],
					"stateMutability": "nonpayable",
					"type": "function"
				},
				{
					"inputs": [
						{
							"internalType": "bytes4",
							"name": "interfaceId",
							"type": "bytes4"
						}
					],
					"name": "supportsInterface",
					"outputs": [
						{
							"internalType": "bool",
							"name": "",
							"type": "bool"
						}
					],
					"stateMutability": "view",
					"type": "function"
				},
				{
					"inputs": [
						{
							"internalType": "bool[]",
							"name": "_accessibleRoles",
							"type": "bool[]"
						}
					],
					"name": "test",
					"outputs": [
						{
							"internalType": "bool",
							"name": "",
							"type": "bool"
						}
					],
					"stateMutability": "pure",
					"type": "function"
				},
				{
					"inputs": [
						{
							"internalType": "bytes",
							"name": "a",
							"type": "bytes"
						}
					],
					"name": "testBytes",
					"outputs": [],
					"stateMutability": "nonpayable",
					"type": "function"
				},
				{
					"inputs": [
						{
							"internalType": "string",
							"name": "a",
							"type": "string"
						}
					],
					"name": "testString",
					"outputs": [],
					"stateMutability": "nonpayable",
					"type": "function"
				},
				{
					"inputs": [],
					"name": "trydy",
					"outputs": [],
					"stateMutability": "nonpayable",
					"type": "function"
				}
			],
			"devdoc": {
				"kind": "dev",
				"methods": {
					"getRoleAdmin(bytes32)": {
						"details": "Returns the admin role that controls `role`. See {grantRole} and {revokeRole}. To change a role's admin, use {_setRoleAdmin}."
					},
					"grantRole(bytes32,address)": {
						"details": "Grants `role` to `account`. If `account` had not been already granted `role`, emits a {RoleGranted} event. Requirements: - the caller must have ``role``'s admin role. May emit a {RoleGranted} event."
					},
					"hasRole(bytes32,address)": {
						"details": "Returns `true` if `account` has been granted `role`."
					},
					"renounceRole(bytes32,address)": {
						"details": "Revokes `role` from the calling account. Roles are often managed via {grantRole} and {revokeRole}: this function's purpose is to provide a mechanism for accounts to lose their privileges if they are compromised (such as when a trusted device is misplaced). If the calling account had been revoked `role`, emits a {RoleRevoked} event. Requirements: - the caller must be `account`. May emit a {RoleRevoked} event."
					},
					"revokeRole(bytes32,address)": {
						"details": "Revokes `role` from `account`. If `account` had been granted `role`, emits a {RoleRevoked} event. Requirements: - the caller must have ``role``'s admin role. May emit a {RoleRevoked} event."
					},
					"supportsInterface(bytes4)": {
						"details": "See {IERC165-supportsInterface}."
					}
				},
				"version": 1
			},
			"evm": {
				"assembly": "    /* \"contracts/organization/DaoTest.sol\":122:1256  contract DaoTest is AccessControl {\r... */\n  mstore(0x40, 0x80)\n  callvalue\n  dup1\n  iszero\n  tag_1\n  jumpi\n  0x00\n  dup1\n  revert\ntag_1:\n  pop\n  dataSize(sub_0)\n  dup1\n  dataOffset(sub_0)\n  0x00\n  codecopy\n  0x00\n  return\nstop\n\nsub_0: assembly {\n        /* \"contracts/organization/DaoTest.sol\":122:1256  contract DaoTest is AccessControl {\r... */\n      mstore(0x40, 0x80)\n      callvalue\n      dup1\n      iszero\n      tag_1\n      jumpi\n      0x00\n      dup1\n      revert\n    tag_1:\n      pop\n      jumpi(tag_2, lt(calldatasize, 0x04))\n      shr(0xe0, calldataload(0x00))\n      dup1\n      0x3ca8b1a7\n      gt\n      tag_14\n      jumpi\n      dup1\n      0x3ca8b1a7\n      eq\n      tag_8\n      jumpi\n      dup1\n      0x61cb5a01\n      eq\n      tag_9\n      jumpi\n      dup1\n      0x91d14854\n      eq\n      tag_10\n      jumpi\n      dup1\n      0xa217fddf\n      eq\n      tag_11\n      jumpi\n      dup1\n      0xac5d4f62\n      eq\n      tag_12\n      jumpi\n      dup1\n      0xd547741f\n      eq\n      tag_13\n      jumpi\n      jump(tag_2)\n    tag_14:\n      dup1\n      0x01ffc9a7\n      eq\n      tag_3\n      jumpi\n      dup1\n      0x1a41fc38\n      eq\n      tag_4\n      jumpi\n      dup1\n      0x248a9ca3\n      eq\n      tag_5\n      jumpi\n      dup1\n      0x2f2ff15d\n      eq\n      tag_6\n      jumpi\n      dup1\n      0x36568abe\n      eq\n      tag_7\n      jumpi\n    tag_2:\n      0x00\n      dup1\n      revert\n        /* \"@openzeppelin/contracts/access/AccessControl.sol\":2606:2808  function supportsInterface(bytes4 interfaceId) public view virtual override returns (bool) {... */\n    tag_3:\n      tag_15\n      0x04\n      dup1\n      calldatasize\n      sub\n      dup2\n      add\n      swap1\n      tag_16\n      swap2\n      swap1\n      tag_17\n      jump\t// in\n    tag_16:\n      tag_18\n      jump\t// in\n    tag_15:\n      mload(0x40)\n      tag_19\n      swap2\n      swap1\n      tag_20\n      jump\t// in\n    tag_19:\n      mload(0x40)\n      dup1\n      swap2\n      sub\n      swap1\n      return\n        /* \"contracts/organization/DaoTest.sol\":550:831  function trydy() public {\r... */\n    tag_4:\n      tag_21\n      tag_22\n      jump\t// in\n    tag_21:\n      stop\n        /* \"@openzeppelin/contracts/access/AccessControl.sol\":4391:4520  function getRoleAdmin(bytes32 role) public view virtual override returns (bytes32) {... */\n    tag_5:\n      tag_23\n      0x04\n      dup1\n      calldatasize\n      sub\n      dup2\n      add\n      swap1\n      tag_24\n      swap2\n      swap1\n      tag_25\n      jump\t// in\n    tag_24:\n      tag_26\n      jump\t// in\n    tag_23:\n      mload(0x40)\n      tag_27\n      swap2\n      swap1\n      tag_28\n      jump\t// in\n    tag_27:\n      mload(0x40)\n      dup1\n      swap2\n      sub\n      swap1\n      return\n        /* \"@openzeppelin/contracts/access/AccessControl.sol\":4816:4961  function grantRole(bytes32 role, address account) public virtual override onlyRole(getRoleAdmin(role)) {... */\n    tag_6:\n      tag_29\n      0x04\n      dup1\n      calldatasize\n      sub\n      dup2\n      add\n      swap1\n      tag_30\n      swap2\n      swap1\n      tag_31\n      jump\t// in\n    tag_30:\n      tag_32\n      jump\t// in\n    tag_29:\n      stop\n        /* \"@openzeppelin/contracts/access/AccessControl.sol\":5925:6139  function renounceRole(bytes32 role, address account) public virtual override {... */\n    tag_7:\n      tag_33\n      0x04\n      dup1\n      calldatasize\n      sub\n      dup2\n      add\n      swap1\n      tag_34\n      swap2\n      swap1\n      tag_31\n      jump\t// in\n    tag_34:\n      tag_35\n      jump\t// in\n    tag_33:\n      stop\n        /* \"contracts/organization/DaoTest.sol\":929:1017  function testBytes(bytes memory a) public {\r... */\n    tag_8:\n      tag_36\n      0x04\n      dup1\n      calldatasize\n      sub\n      dup2\n      add\n      swap1\n      tag_37\n      swap2\n      swap1\n      tag_38\n      jump\t// in\n    tag_37:\n      tag_39\n      jump\t// in\n    tag_36:\n      stop\n        /* \"contracts/organization/DaoTest.sol\":839:921  function testString(string memory a) public {\r... */\n    tag_9:\n      tag_40\n      0x04\n      dup1\n      calldatasize\n      sub\n      dup2\n      add\n      swap1\n      tag_41\n      swap2\n      swap1\n      tag_42\n      jump\t// in\n    tag_41:\n      tag_43\n      jump\t// in\n    tag_40:\n      stop\n        /* \"@openzeppelin/contracts/access/AccessControl.sol\":2895:3040  function hasRole(bytes32 role, address account) public view virtual override returns (bool) {... */\n    tag_10:\n      tag_44\n      0x04\n      dup1\n      calldatasize\n      sub\n      dup2\n      add\n      swap1\n      tag_45\n      swap2\n      swap1\n      tag_31\n      jump\t// in\n    tag_45:\n      tag_46\n      jump\t// in\n    tag_44:\n      mload(0x40)\n      tag_47\n      swap2\n      swap1\n      tag_20\n      jump\t// in\n    tag_47:\n      mload(0x40)\n      dup1\n      swap2\n      sub\n      swap1\n      return\n        /* \"@openzeppelin/contracts/access/AccessControl.sol\":2027:2076  bytes32 public constant DEFAULT_ADMIN_ROLE = 0x00 */\n    tag_11:\n      tag_48\n      tag_49\n      jump\t// in\n    tag_48:\n      mload(0x40)\n      tag_50\n      swap2\n      swap1\n      tag_28\n      jump\t// in\n    tag_50:\n      mload(0x40)\n      dup1\n      swap2\n      sub\n      swap1\n      return\n        /* \"contracts/organization/DaoTest.sol\":212:542  function test(bool[] memory _accessibleRoles) public pure returns(bool)  {\r... */\n    tag_12:\n      tag_51\n      0x04\n      dup1\n      calldatasize\n      sub\n      dup2\n      add\n      swap1\n      tag_52\n      swap2\n      swap1\n      tag_53\n      jump\t// in\n    tag_52:\n      tag_54\n      jump\t// in\n    tag_51:\n      mload(0x40)\n      tag_55\n      swap2\n      swap1\n      tag_20\n      jump\t// in\n    tag_55:\n      mload(0x40)\n      dup1\n      swap2\n      sub\n      swap1\n      return\n        /* \"@openzeppelin/contracts/access/AccessControl.sol\":5241:5388  function revokeRole(bytes32 role, address account) public virtual override onlyRole(getRoleAdmin(role)) {... */\n    tag_13:\n      tag_56\n      0x04\n      dup1\n      calldatasize\n      sub\n      dup2\n      add\n      swap1\n      tag_57\n      swap2\n      swap1\n      tag_31\n      jump\t// in\n    tag_57:\n      tag_58\n      jump\t// in\n    tag_56:\n      stop\n        /* \"@openzeppelin/contracts/access/AccessControl.sol\":2606:2808  function supportsInterface(bytes4 interfaceId) public view virtual override returns (bool) {... */\n    tag_18:\n        /* \"@openzeppelin/contracts/access/AccessControl.sol\":2691:2695  bool */\n      0x00\n        /* \"@openzeppelin/contracts/access/AccessControl.sol\":2729:2761  type(IAccessControl).interfaceId */\n      0x7965db0b00000000000000000000000000000000000000000000000000000000\n        /* \"@openzeppelin/contracts/access/AccessControl.sol\":2714:2761  interfaceId == type(IAccessControl).interfaceId */\n      not(0xffffffffffffffffffffffffffffffffffffffffffffffffffffffff)\n      and\n        /* \"@openzeppelin/contracts/access/AccessControl.sol\":2714:2725  interfaceId */\n      dup3\n        /* \"@openzeppelin/contracts/access/AccessControl.sol\":2714:2761  interfaceId == type(IAccessControl).interfaceId */\n      not(0xffffffffffffffffffffffffffffffffffffffffffffffffffffffff)\n      and\n      eq\n        /* \"@openzeppelin/contracts/access/AccessControl.sol\":2714:2801  interfaceId == type(IAccessControl).interfaceId || super.supportsInterface(interfaceId) */\n      dup1\n      tag_60\n      jumpi\n      pop\n        /* \"@openzeppelin/contracts/access/AccessControl.sol\":2765:2801  super.supportsInterface(interfaceId) */\n      tag_61\n        /* \"@openzeppelin/contracts/access/AccessControl.sol\":2789:2800  interfaceId */\n      dup3\n        /* \"@openzeppelin/contracts/access/AccessControl.sol\":2765:2788  super.supportsInterface */\n      tag_62\n        /* \"@openzeppelin/contracts/access/AccessControl.sol\":2765:2801  super.supportsInterface(interfaceId) */\n      jump\t// in\n    tag_61:\n        /* \"@openzeppelin/contracts/access/AccessControl.sol\":2714:2801  interfaceId == type(IAccessControl).interfaceId || super.supportsInterface(interfaceId) */\n    tag_60:\n        /* \"@openzeppelin/contracts/access/AccessControl.sol\":2707:2801  return interfaceId == type(IAccessControl).interfaceId || super.supportsInterface(interfaceId) */\n      swap1\n      pop\n        /* \"@openzeppelin/contracts/access/AccessControl.sol\":2606:2808  function supportsInterface(bytes4 interfaceId) public view virtual override returns (bool) {... */\n      swap2\n      swap1\n      pop\n      jump\t// out\n        /* \"contracts/organization/DaoTest.sol\":550:831  function trydy() public {\r... */\n    tag_22:\n        /* \"contracts/organization/DaoTest.sol\":585:614  bool[] memory accessibleRoles */\n      0x00\n        /* \"contracts/organization/DaoTest.sol\":628:629  2 */\n      0x02\n        /* \"contracts/organization/DaoTest.sol\":617:630  new bool[](2) */\n      0xffffffffffffffff\n      dup2\n      gt\n      iszero\n      tag_64\n      jumpi\n      tag_65\n      tag_66\n      jump\t// in\n    tag_65:\n    tag_64:\n      mload(0x40)\n      swap1\n      dup1\n      dup3\n      mstore\n      dup1\n      0x20\n      mul\n      0x20\n      add\n      dup3\n      add\n      0x40\n      mstore\n      dup1\n      iszero\n      tag_67\n      jumpi\n      dup2\n      0x20\n      add\n      0x20\n      dup3\n      mul\n      dup1\n      calldatasize\n      dup4\n      calldatacopy\n      dup1\n      dup3\n      add\n      swap2\n      pop\n      pop\n      swap1\n      pop\n    tag_67:\n      pop\n        /* \"contracts/organization/DaoTest.sol\":585:630  bool[] memory accessibleRoles = new bool[](2) */\n      swap1\n      pop\n        /* \"contracts/organization/DaoTest.sol\":662:666  true */\n      0x01\n        /* \"contracts/organization/DaoTest.sol\":641:656  accessibleRoles */\n      dup2\n        /* \"contracts/organization/DaoTest.sol\":657:658  0 */\n      0x00\n        /* \"contracts/organization/DaoTest.sol\":641:659  accessibleRoles[0] */\n      dup2\n      mload\n      dup2\n      lt\n      tag_68\n      jumpi\n      tag_69\n      tag_70\n      jump\t// in\n    tag_69:\n    tag_68:\n      0x20\n      mul\n      0x20\n      add\n      add\n        /* \"contracts/organization/DaoTest.sol\":641:666  accessibleRoles[0] = true */\n      swap1\n      iszero\n      iszero\n      swap1\n      dup2\n      iszero\n      iszero\n      dup2\n      mstore\n      pop\n      pop\n        /* \"contracts/organization/DaoTest.sol\":698:703  false */\n      0x00\n        /* \"contracts/organization/DaoTest.sol\":677:692  accessibleRoles */\n      dup2\n        /* \"contracts/organization/DaoTest.sol\":693:694  1 */\n      0x01\n        /* \"contracts/organization/DaoTest.sol\":677:695  accessibleRoles[1] */\n      dup2\n      mload\n      dup2\n      lt\n      tag_71\n      jumpi\n      tag_72\n      tag_70\n      jump\t// in\n    tag_72:\n    tag_71:\n      0x20\n      mul\n      0x20\n      add\n      add\n        /* \"contracts/organization/DaoTest.sol\":677:703  accessibleRoles[1] = false */\n      swap1\n      iszero\n      iszero\n      swap1\n      dup2\n      iszero\n      iszero\n      dup2\n      mstore\n      pop\n      pop\n        /* \"contracts/organization/DaoTest.sol\":724:745  test(accessibleRoles) */\n      tag_73\n        /* \"contracts/organization/DaoTest.sol\":729:744  accessibleRoles */\n      dup2\n        /* \"contracts/organization/DaoTest.sol\":724:728  test */\n      tag_54\n        /* \"contracts/organization/DaoTest.sol\":724:745  test(accessibleRoles) */\n      jump\t// in\n    tag_73:\n        /* \"contracts/organization/DaoTest.sol\":716:778  require(test(accessibleRoles), \"this permission not from you\") */\n      tag_74\n      jumpi\n      mload(0x40)\n      0x08c379a000000000000000000000000000000000000000000000000000000000\n      dup2\n      mstore\n      0x04\n      add\n      tag_75\n      swap1\n      tag_76\n      jump\t// in\n    tag_75:\n      mload(0x40)\n      dup1\n      swap2\n      sub\n      swap1\n      revert\n    tag_74:\n        /* \"contracts/organization/DaoTest.sol\":796:823  someOutputs(\"hello world.\") */\n      0x63e9370c5b01ee8896e536f1f2fc902c945d630eb37faf0981fb9146088fc423\n      mload(0x40)\n      tag_77\n      swap1\n      tag_78\n      jump\t// in\n    tag_77:\n      mload(0x40)\n      dup1\n      swap2\n      sub\n      swap1\n      log1\n        /* \"contracts/organization/DaoTest.sol\":574:831  {\r... */\n      pop\n        /* \"contracts/organization/DaoTest.sol\":550:831  function trydy() public {\r... */\n      jump\t// out\n        /* \"@openzeppelin/contracts/access/AccessControl.sol\":4391:4520  function getRoleAdmin(bytes32 role) public view virtual override returns (bytes32) {... */\n    tag_26:\n        /* \"@openzeppelin/contracts/access/AccessControl.sol\":4465:4472  bytes32 */\n      0x00\n        /* \"@openzeppelin/contracts/access/AccessControl.sol\":4491:4497  _roles */\n      dup1\n        /* \"@openzeppelin/contracts/access/AccessControl.sol\":4491:4503  _roles[role] */\n      0x00\n        /* \"@openzeppelin/contracts/access/AccessControl.sol\":4498:4502  role */\n      dup4\n        /* \"@openzeppelin/contracts/access/AccessControl.sol\":4491:4503  _roles[role] */\n      dup2\n      mstore\n      0x20\n      add\n      swap1\n      dup2\n      mstore\n      0x20\n      add\n      0x00\n      keccak256\n        /* \"@openzeppelin/contracts/access/AccessControl.sol\":4491:4513  _roles[role].adminRole */\n      0x01\n      add\n      sload\n        /* \"@openzeppelin/contracts/access/AccessControl.sol\":4484:4513  return _roles[role].adminRole */\n      swap1\n      pop\n        /* \"@openzeppelin/contracts/access/AccessControl.sol\":4391:4520  function getRoleAdmin(bytes32 role) public view virtual override returns (bytes32) {... */\n      swap2\n      swap1\n      pop\n      jump\t// out\n        /* \"@openzeppelin/contracts/access/AccessControl.sol\":4816:4961  function grantRole(bytes32 role, address account) public virtual override onlyRole(getRoleAdmin(role)) {... */\n    tag_32:\n        /* \"@openzeppelin/contracts/access/AccessControl.sol\":4899:4917  getRoleAdmin(role) */\n      tag_80\n        /* \"@openzeppelin/contracts/access/AccessControl.sol\":4912:4916  role */\n      dup3\n        /* \"@openzeppelin/contracts/access/AccessControl.sol\":4899:4911  getRoleAdmin */\n      tag_26\n        /* \"@openzeppelin/contracts/access/AccessControl.sol\":4899:4917  getRoleAdmin(role) */\n      jump\t// in\n    tag_80:\n        /* \"@openzeppelin/contracts/access/AccessControl.sol\":2505:2521  _checkRole(role) */\n      tag_82\n        /* \"@openzeppelin/contracts/access/AccessControl.sol\":2516:2520  role */\n      dup2\n        /* \"@openzeppelin/contracts/access/AccessControl.sol\":2505:2515  _checkRole */\n      tag_83\n        /* \"@openzeppelin/contracts/access/AccessControl.sol\":2505:2521  _checkRole(role) */\n      jump\t// in\n    tag_82:\n        /* \"@openzeppelin/contracts/access/AccessControl.sol\":4929:4954  _grantRole(role, account) */\n      tag_85\n        /* \"@openzeppelin/contracts/access/AccessControl.sol\":4940:4944  role */\n      dup4\n        /* \"@openzeppelin/contracts/access/AccessControl.sol\":4946:4953  account */\n      dup4\n        /* \"@openzeppelin/contracts/access/AccessControl.sol\":4929:4939  _grantRole */\n      tag_86\n        /* \"@openzeppelin/contracts/access/AccessControl.sol\":4929:4954  _grantRole(role, account) */\n      jump\t// in\n    tag_85:\n        /* \"@openzeppelin/contracts/access/AccessControl.sol\":4816:4961  function grantRole(bytes32 role, address account) public virtual override onlyRole(getRoleAdmin(role)) {... */\n      pop\n      pop\n      pop\n      jump\t// out\n        /* \"@openzeppelin/contracts/access/AccessControl.sol\":5925:6139  function renounceRole(bytes32 role, address account) public virtual override {... */\n    tag_35:\n        /* \"@openzeppelin/contracts/access/AccessControl.sol\":6031:6043  _msgSender() */\n      tag_88\n        /* \"@openzeppelin/contracts/access/AccessControl.sol\":6031:6041  _msgSender */\n      tag_89\n        /* \"@openzeppelin/contracts/access/AccessControl.sol\":6031:6043  _msgSender() */\n      jump\t// in\n    tag_88:\n        /* \"@openzeppelin/contracts/access/AccessControl.sol\":6020:6043  account == _msgSender() */\n      0xffffffffffffffffffffffffffffffffffffffff\n      and\n        /* \"@openzeppelin/contracts/access/AccessControl.sol\":6020:6027  account */\n      dup2\n        /* \"@openzeppelin/contracts/access/AccessControl.sol\":6020:6043  account == _msgSender() */\n      0xffffffffffffffffffffffffffffffffffffffff\n      and\n      eq\n        /* \"@openzeppelin/contracts/access/AccessControl.sol\":6012:6095  require(account == _msgSender(), \"AccessControl: can only renounce roles for self\") */\n      tag_90\n      jumpi\n      mload(0x40)\n      0x08c379a000000000000000000000000000000000000000000000000000000000\n      dup2\n      mstore\n      0x04\n      add\n      tag_91\n      swap1\n      tag_92\n      jump\t// in\n    tag_91:\n      mload(0x40)\n      dup1\n      swap2\n      sub\n      swap1\n      revert\n    tag_90:\n        /* \"@openzeppelin/contracts/access/AccessControl.sol\":6106:6132  _revokeRole(role, account) */\n      tag_93\n        /* \"@openzeppelin/contracts/access/AccessControl.sol\":6118:6122  role */\n      dup3\n        /* \"@openzeppelin/contracts/access/AccessControl.sol\":6124:6131  account */\n      dup3\n        /* \"@openzeppelin/contracts/access/AccessControl.sol\":6106:6117  _revokeRole */\n      tag_94\n        /* \"@openzeppelin/contracts/access/AccessControl.sol\":6106:6132  _revokeRole(role, account) */\n      jump\t// in\n    tag_93:\n        /* \"@openzeppelin/contracts/access/AccessControl.sol\":5925:6139  function renounceRole(bytes32 role, address account) public virtual override {... */\n      pop\n      pop\n      jump\t// out\n        /* \"contracts/organization/DaoTest.sol\":929:1017  function testBytes(bytes memory a) public {\r... */\n    tag_39:\n        /* \"contracts/organization/DaoTest.sol\":987:1009  someOutputs(string(a)) */\n      0x63e9370c5b01ee8896e536f1f2fc902c945d630eb37faf0981fb9146088fc423\n        /* \"contracts/organization/DaoTest.sol\":1006:1007  a */\n      dup2\n        /* \"contracts/organization/DaoTest.sol\":987:1009  someOutputs(string(a)) */\n      mload(0x40)\n      tag_96\n      swap2\n      swap1\n      tag_97\n      jump\t// in\n    tag_96:\n      mload(0x40)\n      dup1\n      swap2\n      sub\n      swap1\n      log1\n        /* \"contracts/organization/DaoTest.sol\":929:1017  function testBytes(bytes memory a) public {\r... */\n      pop\n      jump\t// out\n        /* \"contracts/organization/DaoTest.sol\":839:921  function testString(string memory a) public {\r... */\n    tag_43:\n        /* \"contracts/organization/DaoTest.sol\":899:913  someOutputs(a) */\n      0x63e9370c5b01ee8896e536f1f2fc902c945d630eb37faf0981fb9146088fc423\n        /* \"contracts/organization/DaoTest.sol\":911:912  a */\n      dup2\n        /* \"contracts/organization/DaoTest.sol\":899:913  someOutputs(a) */\n      mload(0x40)\n      tag_99\n      swap2\n      swap1\n      tag_97\n      jump\t// in\n    tag_99:\n      mload(0x40)\n      dup1\n      swap2\n      sub\n      swap1\n      log1\n        /* \"contracts/organization/DaoTest.sol\":839:921  function testString(string memory a) public {\r... */\n      pop\n      jump\t// out\n        /* \"@openzeppelin/contracts/access/AccessControl.sol\":2895:3040  function hasRole(bytes32 role, address account) public view virtual override returns (bool) {... */\n    tag_46:\n        /* \"@openzeppelin/contracts/access/AccessControl.sol\":2981:2985  bool */\n      0x00\n        /* \"@openzeppelin/contracts/access/AccessControl.sol\":3004:3010  _roles */\n      dup1\n        /* \"@openzeppelin/contracts/access/AccessControl.sol\":3004:3016  _roles[role] */\n      0x00\n        /* \"@openzeppelin/contracts/access/AccessControl.sol\":3011:3015  role */\n      dup5\n        /* \"@openzeppelin/contracts/access/AccessControl.sol\":3004:3016  _roles[role] */\n      dup2\n      mstore\n      0x20\n      add\n      swap1\n      dup2\n      mstore\n      0x20\n      add\n      0x00\n      keccak256\n        /* \"@openzeppelin/contracts/access/AccessControl.sol\":3004:3024  _roles[role].members */\n      0x00\n      add\n        /* \"@openzeppelin/contracts/access/AccessControl.sol\":3004:3033  _roles[role].members[account] */\n      0x00\n        /* \"@openzeppelin/contracts/access/AccessControl.sol\":3025:3032  account */\n      dup4\n        /* \"@openzeppelin/contracts/access/AccessControl.sol\":3004:3033  _roles[role].members[account] */\n      0xffffffffffffffffffffffffffffffffffffffff\n      and\n      0xffffffffffffffffffffffffffffffffffffffff\n      and\n      dup2\n      mstore\n      0x20\n      add\n      swap1\n      dup2\n      mstore\n      0x20\n      add\n      0x00\n      keccak256\n      0x00\n      swap1\n      sload\n      swap1\n      0x0100\n      exp\n      swap1\n      div\n      0xff\n      and\n        /* \"@openzeppelin/contracts/access/AccessControl.sol\":2997:3033  return _roles[role].members[account] */\n      swap1\n      pop\n        /* \"@openzeppelin/contracts/access/AccessControl.sol\":2895:3040  function hasRole(bytes32 role, address account) public view virtual override returns (bool) {... */\n      swap3\n      swap2\n      pop\n      pop\n      jump\t// out\n        /* \"@openzeppelin/contracts/access/AccessControl.sol\":2027:2076  bytes32 public constant DEFAULT_ADMIN_ROLE = 0x00 */\n    tag_49:\n        /* \"@openzeppelin/contracts/access/AccessControl.sol\":2072:2076  0x00 */\n      0x00\n        /* \"@openzeppelin/contracts/access/AccessControl.sol\":2027:2076  bytes32 public constant DEFAULT_ADMIN_ROLE = 0x00 */\n      dup1\n      shl\n      dup2\n      jump\t// out\n        /* \"contracts/organization/DaoTest.sol\":212:542  function test(bool[] memory _accessibleRoles) public pure returns(bool)  {\r... */\n    tag_54:\n        /* \"contracts/organization/DaoTest.sol\":278:282  bool */\n      0x00\n        /* \"contracts/organization/DaoTest.sol\":296:308  bool ifRoles */\n      dup1\n        /* \"contracts/organization/DaoTest.sol\":311:316  false */\n      0x00\n        /* \"contracts/organization/DaoTest.sol\":296:316  bool ifRoles = false */\n      swap1\n      pop\n        /* \"contracts/organization/DaoTest.sol\":332:338  uint i */\n      0x00\n        /* \"contracts/organization/DaoTest.sol\":327:509  for (uint i = 0; i <_accessibleRoles.length; ++i) {\r... */\n    tag_102:\n        /* \"contracts/organization/DaoTest.sol\":347:363  _accessibleRoles */\n      dup4\n        /* \"contracts/organization/DaoTest.sol\":347:370  _accessibleRoles.length */\n      mload\n        /* \"contracts/organization/DaoTest.sol\":344:345  i */\n      dup2\n        /* \"contracts/organization/DaoTest.sol\":344:370  i <_accessibleRoles.length */\n      lt\n        /* \"contracts/organization/DaoTest.sol\":327:509  for (uint i = 0; i <_accessibleRoles.length; ++i) {\r... */\n      iszero\n      tag_103\n      jumpi\n        /* \"contracts/organization/DaoTest.sol\":419:423  true */\n      0x01\n        /* \"contracts/organization/DaoTest.sol\":396:423  _accessibleRoles[i] == true */\n      iszero\n      iszero\n        /* \"contracts/organization/DaoTest.sol\":396:412  _accessibleRoles */\n      dup5\n        /* \"contracts/organization/DaoTest.sol\":413:414  i */\n      dup3\n        /* \"contracts/organization/DaoTest.sol\":396:415  _accessibleRoles[i] */\n      dup2\n      mload\n      dup2\n      lt\n      tag_105\n      jumpi\n      tag_106\n      tag_70\n      jump\t// in\n    tag_106:\n    tag_105:\n      0x20\n      mul\n      0x20\n      add\n      add\n      mload\n        /* \"contracts/organization/DaoTest.sol\":396:423  _accessibleRoles[i] == true */\n      iszero\n      iszero\n      eq\n        /* \"contracts/organization/DaoTest.sol\":392:498  if (_accessibleRoles[i] == true) {\r... */\n      iszero\n      tag_107\n      jumpi\n        /* \"contracts/organization/DaoTest.sol\":454:458  true */\n      0x01\n        /* \"contracts/organization/DaoTest.sol\":444:458  ifRoles = true */\n      swap2\n      pop\n        /* \"contracts/organization/DaoTest.sol\":477:482  break */\n      jump(tag_103)\n        /* \"contracts/organization/DaoTest.sol\":392:498  if (_accessibleRoles[i] == true) {\r... */\n    tag_107:\n        /* \"contracts/organization/DaoTest.sol\":372:375  ++i */\n      dup1\n      tag_108\n      swap1\n      tag_109\n      jump\t// in\n    tag_108:\n      swap1\n      pop\n        /* \"contracts/organization/DaoTest.sol\":327:509  for (uint i = 0; i <_accessibleRoles.length; ++i) {\r... */\n      jump(tag_102)\n    tag_103:\n      pop\n        /* \"contracts/organization/DaoTest.sol\":526:533  ifRoles */\n      dup1\n        /* \"contracts/organization/DaoTest.sol\":519:534  return(ifRoles) */\n      swap2\n      pop\n      pop\n        /* \"contracts/organization/DaoTest.sol\":212:542  function test(bool[] memory _accessibleRoles) public pure returns(bool)  {\r... */\n      swap2\n      swap1\n      pop\n      jump\t// out\n        /* \"@openzeppelin/contracts/access/AccessControl.sol\":5241:5388  function revokeRole(bytes32 role, address account) public virtual override onlyRole(getRoleAdmin(role)) {... */\n    tag_58:\n        /* \"@openzeppelin/contracts/access/AccessControl.sol\":5325:5343  getRoleAdmin(role) */\n      tag_110\n        /* \"@openzeppelin/contracts/access/AccessControl.sol\":5338:5342  role */\n      dup3\n        /* \"@openzeppelin/contracts/access/AccessControl.sol\":5325:5337  getRoleAdmin */\n      tag_26\n        /* \"@openzeppelin/contracts/access/AccessControl.sol\":5325:5343  getRoleAdmin(role) */\n      jump\t// in\n    tag_110:\n        /* \"@openzeppelin/contracts/access/AccessControl.sol\":2505:2521  _checkRole(role) */\n      tag_112\n        /* \"@openzeppelin/contracts/access/AccessControl.sol\":2516:2520  role */\n      dup2\n        /* \"@openzeppelin/contracts/access/AccessControl.sol\":2505:2515  _checkRole */\n      tag_83\n        /* \"@openzeppelin/contracts/access/AccessControl.sol\":2505:2521  _checkRole(role) */\n      jump\t// in\n    tag_112:\n        /* \"@openzeppelin/contracts/access/AccessControl.sol\":5355:5381  _revokeRole(role, account) */\n      tag_114\n        /* \"@openzeppelin/contracts/access/AccessControl.sol\":5367:5371  role */\n      dup4\n        /* \"@openzeppelin/contracts/access/AccessControl.sol\":5373:5380  account */\n      dup4\n        /* \"@openzeppelin/contracts/access/AccessControl.sol\":5355:5366  _revokeRole */\n      tag_94\n        /* \"@openzeppelin/contracts/access/AccessControl.sol\":5355:5381  _revokeRole(role, account) */\n      jump\t// in\n    tag_114:\n        /* \"@openzeppelin/contracts/access/AccessControl.sol\":5241:5388  function revokeRole(bytes32 role, address account) public virtual override onlyRole(getRoleAdmin(role)) {... */\n      pop\n      pop\n      pop\n      jump\t// out\n        /* \"@openzeppelin/contracts/utils/introspection/ERC165.sol\":829:984  function supportsInterface(bytes4 interfaceId) public view virtual override returns (bool) {... */\n    tag_62:\n        /* \"@openzeppelin/contracts/utils/introspection/ERC165.sol\":914:918  bool */\n      0x00\n        /* \"@openzeppelin/contracts/utils/introspection/ERC165.sol\":952:977  type(IERC165).interfaceId */\n      0x01ffc9a700000000000000000000000000000000000000000000000000000000\n        /* \"@openzeppelin/contracts/utils/introspection/ERC165.sol\":937:977  interfaceId == type(IERC165).interfaceId */\n      not(0xffffffffffffffffffffffffffffffffffffffffffffffffffffffff)\n      and\n        /* \"@openzeppelin/contracts/utils/introspection/ERC165.sol\":937:948  interfaceId */\n      dup3\n        /* \"@openzeppelin/contracts/utils/introspection/ERC165.sol\":937:977  interfaceId == type(IERC165).interfaceId */\n      not(0xffffffffffffffffffffffffffffffffffffffffffffffffffffffff)\n      and\n      eq\n        /* \"@openzeppelin/contracts/utils/introspection/ERC165.sol\":930:977  return interfaceId == type(IERC165).interfaceId */\n      swap1\n      pop\n        /* \"@openzeppelin/contracts/utils/introspection/ERC165.sol\":829:984  function supportsInterface(bytes4 interfaceId) public view virtual override returns (bool) {... */\n      swap2\n      swap1\n      pop\n      jump\t// out\n        /* \"@openzeppelin/contracts/access/AccessControl.sol\":3334:3437  function _checkRole(bytes32 role) internal view virtual {... */\n    tag_83:\n        /* \"@openzeppelin/contracts/access/AccessControl.sol\":3400:3430  _checkRole(role, _msgSender()) */\n      tag_117\n        /* \"@openzeppelin/contracts/access/AccessControl.sol\":3411:3415  role */\n      dup2\n        /* \"@openzeppelin/contracts/access/AccessControl.sol\":3417:3429  _msgSender() */\n      tag_118\n        /* \"@openzeppelin/contracts/access/AccessControl.sol\":3417:3427  _msgSender */\n      tag_89\n        /* \"@openzeppelin/contracts/access/AccessControl.sol\":3417:3429  _msgSender() */\n      jump\t// in\n    tag_118:\n        /* \"@openzeppelin/contracts/access/AccessControl.sol\":3400:3410  _checkRole */\n      tag_119\n        /* \"@openzeppelin/contracts/access/AccessControl.sol\":3400:3430  _checkRole(role, _msgSender()) */\n      jump\t// in\n    tag_117:\n        /* \"@openzeppelin/contracts/access/AccessControl.sol\":3334:3437  function _checkRole(bytes32 role) internal view virtual {... */\n      pop\n      jump\t// out\n        /* \"@openzeppelin/contracts/access/AccessControl.sol\":7474:7707  function _grantRole(bytes32 role, address account) internal virtual {... */\n    tag_86:\n        /* \"@openzeppelin/contracts/access/AccessControl.sol\":7557:7579  hasRole(role, account) */\n      tag_121\n        /* \"@openzeppelin/contracts/access/AccessControl.sol\":7565:7569  role */\n      dup3\n        /* \"@openzeppelin/contracts/access/AccessControl.sol\":7571:7578  account */\n      dup3\n        /* \"@openzeppelin/contracts/access/AccessControl.sol\":7557:7564  hasRole */\n      tag_46\n        /* \"@openzeppelin/contracts/access/AccessControl.sol\":7557:7579  hasRole(role, account) */\n      jump\t// in\n    tag_121:\n        /* \"@openzeppelin/contracts/access/AccessControl.sol\":7552:7701  if (!hasRole(role, account)) {... */\n      tag_122\n      jumpi\n        /* \"@openzeppelin/contracts/access/AccessControl.sol\":7627:7631  true */\n      0x01\n        /* \"@openzeppelin/contracts/access/AccessControl.sol\":7595:7601  _roles */\n      0x00\n        /* \"@openzeppelin/contracts/access/AccessControl.sol\":7595:7607  _roles[role] */\n      dup1\n        /* \"@openzeppelin/contracts/access/AccessControl.sol\":7602:7606  role */\n      dup5\n        /* \"@openzeppelin/contracts/access/AccessControl.sol\":7595:7607  _roles[role] */\n      dup2\n      mstore\n      0x20\n      add\n      swap1\n      dup2\n      mstore\n      0x20\n      add\n      0x00\n      keccak256\n        /* \"@openzeppelin/contracts/access/AccessControl.sol\":7595:7615  _roles[role].members */\n      0x00\n      add\n        /* \"@openzeppelin/contracts/access/AccessControl.sol\":7595:7624  _roles[role].members[account] */\n      0x00\n        /* \"@openzeppelin/contracts/access/AccessControl.sol\":7616:7623  account */\n      dup4\n        /* \"@openzeppelin/contracts/access/AccessControl.sol\":7595:7624  _roles[role].members[account] */\n      0xffffffffffffffffffffffffffffffffffffffff\n      and\n      0xffffffffffffffffffffffffffffffffffffffff\n      and\n      dup2\n      mstore\n      0x20\n      add\n      swap1\n      dup2\n      mstore\n      0x20\n      add\n      0x00\n      keccak256\n      0x00\n        /* \"@openzeppelin/contracts/access/AccessControl.sol\":7595:7631  _roles[role].members[account] = true */\n      0x0100\n      exp\n      dup2\n      sload\n      dup2\n      0xff\n      mul\n      not\n      and\n      swap1\n      dup4\n      iszero\n      iszero\n      mul\n      or\n      swap1\n      sstore\n      pop\n        /* \"@openzeppelin/contracts/access/AccessControl.sol\":7677:7689  _msgSender() */\n      tag_123\n        /* \"@openzeppelin/contracts/access/AccessControl.sol\":7677:7687  _msgSender */\n      tag_89\n        /* \"@openzeppelin/contracts/access/AccessControl.sol\":7677:7689  _msgSender() */\n      jump\t// in\n    tag_123:\n        /* \"@openzeppelin/contracts/access/AccessControl.sol\":7650:7690  RoleGranted(role, account, _msgSender()) */\n      0xffffffffffffffffffffffffffffffffffffffff\n      and\n        /* \"@openzeppelin/contracts/access/AccessControl.sol\":7668:7675  account */\n      dup2\n        /* \"@openzeppelin/contracts/access/AccessControl.sol\":7650:7690  RoleGranted(role, account, _msgSender()) */\n      0xffffffffffffffffffffffffffffffffffffffff\n      and\n        /* \"@openzeppelin/contracts/access/AccessControl.sol\":7662:7666  role */\n      dup4\n        /* \"@openzeppelin/contracts/access/AccessControl.sol\":7650:7690  RoleGranted(role, account, _msgSender()) */\n      0x2f8788117e7eff1d82e926ec794901d17c78024a50270940304540a733656f0d\n      mload(0x40)\n      mload(0x40)\n      dup1\n      swap2\n      sub\n      swap1\n      log4\n        /* \"@openzeppelin/contracts/access/AccessControl.sol\":7552:7701  if (!hasRole(role, account)) {... */\n    tag_122:\n        /* \"@openzeppelin/contracts/access/AccessControl.sol\":7474:7707  function _grantRole(bytes32 role, address account) internal virtual {... */\n      pop\n      pop\n      jump\t// out\n        /* \"@openzeppelin/contracts/utils/Context.sol\":640:736  function _msgSender() internal view virtual returns (address) {... */\n    tag_89:\n        /* \"@openzeppelin/contracts/utils/Context.sol\":693:700  address */\n      0x00\n        /* \"@openzeppelin/contracts/utils/Context.sol\":719:729  msg.sender */\n      caller\n        /* \"@openzeppelin/contracts/utils/Context.sol\":712:729  return msg.sender */\n      swap1\n      pop\n        /* \"@openzeppelin/contracts/utils/Context.sol\":640:736  function _msgSender() internal view virtual returns (address) {... */\n      swap1\n      jump\t// out\n        /* \"@openzeppelin/contracts/access/AccessControl.sol\":7878:8112  function _revokeRole(bytes32 role, address account) internal virtual {... */\n    tag_94:\n        /* \"@openzeppelin/contracts/access/AccessControl.sol\":7961:7983  hasRole(role, account) */\n      tag_126\n        /* \"@openzeppelin/contracts/access/AccessControl.sol\":7969:7973  role */\n      dup3\n        /* \"@openzeppelin/contracts/access/AccessControl.sol\":7975:7982  account */\n      dup3\n        /* \"@openzeppelin/contracts/access/AccessControl.sol\":7961:7968  hasRole */\n      tag_46\n        /* \"@openzeppelin/contracts/access/AccessControl.sol\":7961:7983  hasRole(role, account) */\n      jump\t// in\n    tag_126:\n        /* \"@openzeppelin/contracts/access/AccessControl.sol\":7957:8106  if (hasRole(role, account)) {... */\n      iszero\n      tag_127\n      jumpi\n        /* \"@openzeppelin/contracts/access/AccessControl.sol\":8031:8036  false */\n      0x00\n        /* \"@openzeppelin/contracts/access/AccessControl.sol\":7999:8005  _roles */\n      dup1\n        /* \"@openzeppelin/contracts/access/AccessControl.sol\":7999:8011  _roles[role] */\n      0x00\n        /* \"@openzeppelin/contracts/access/AccessControl.sol\":8006:8010  role */\n      dup5\n        /* \"@openzeppelin/contracts/access/AccessControl.sol\":7999:8011  _roles[role] */\n      dup2\n      mstore\n      0x20\n      add\n      swap1\n      dup2\n      mstore\n      0x20\n      add\n      0x00\n      keccak256\n        /* \"@openzeppelin/contracts/access/AccessControl.sol\":7999:8019  _roles[role].members */\n      0x00\n      add\n        /* \"@openzeppelin/contracts/access/AccessControl.sol\":7999:8028  _roles[role].members[account] */\n      0x00\n        /* \"@openzeppelin/contracts/access/AccessControl.sol\":8020:8027  account */\n      dup4\n        /* \"@openzeppelin/contracts/access/AccessControl.sol\":7999:8028  _roles[role].members[account] */\n      0xffffffffffffffffffffffffffffffffffffffff\n      and\n      0xffffffffffffffffffffffffffffffffffffffff\n      and\n      dup2\n      mstore\n      0x20\n      add\n      swap1\n      dup2\n      mstore\n      0x20\n      add\n      0x00\n      keccak256\n      0x00\n        /* \"@openzeppelin/contracts/access/AccessControl.sol\":7999:8036  _roles[role].members[account] = false */\n      0x0100\n      exp\n      dup2\n      sload\n      dup2\n      0xff\n      mul\n      not\n      and\n      swap1\n      dup4\n      iszero\n      iszero\n      mul\n      or\n      swap1\n      sstore\n      pop\n        /* \"@openzeppelin/contracts/access/AccessControl.sol\":8082:8094  _msgSender() */\n      tag_128\n        /* \"@openzeppelin/contracts/access/AccessControl.sol\":8082:8092  _msgSender */\n      tag_89\n        /* \"@openzeppelin/contracts/access/AccessControl.sol\":8082:8094  _msgSender() */\n      jump\t// in\n    tag_128:\n        /* \"@openzeppelin/contracts/access/AccessControl.sol\":8055:8095  RoleRevoked(role, account, _msgSender()) */\n      0xffffffffffffffffffffffffffffffffffffffff\n      and\n        /* \"@openzeppelin/contracts/access/AccessControl.sol\":8073:8080  account */\n      dup2\n        /* \"@openzeppelin/contracts/access/AccessControl.sol\":8055:8095  RoleRevoked(role, account, _msgSender()) */\n      0xffffffffffffffffffffffffffffffffffffffff\n      and\n        /* \"@openzeppelin/contracts/access/AccessControl.sol\":8067:8071  role */\n      dup4\n        /* \"@openzeppelin/contracts/access/AccessControl.sol\":8055:8095  RoleRevoked(role, account, _msgSender()) */\n      0xf6391f5c32d9c69d2a47ea670b442974b53935d1edc7fd64eb21e047a839171b\n      mload(0x40)\n      mload(0x40)\n      dup1\n      swap2\n      sub\n      swap1\n      log4\n        /* \"@openzeppelin/contracts/access/AccessControl.sol\":7957:8106  if (hasRole(role, account)) {... */\n    tag_127:\n        /* \"@openzeppelin/contracts/access/AccessControl.sol\":7878:8112  function _revokeRole(bytes32 role, address account) internal virtual {... */\n      pop\n      pop\n      jump\t// out\n        /* \"@openzeppelin/contracts/access/AccessControl.sol\":3718:4210  function _checkRole(bytes32 role, address account) internal view virtual {... */\n    tag_119:\n        /* \"@openzeppelin/contracts/access/AccessControl.sol\":3806:3828  hasRole(role, account) */\n      tag_130\n        /* \"@openzeppelin/contracts/access/AccessControl.sol\":3814:3818  role */\n      dup3\n        /* \"@openzeppelin/contracts/access/AccessControl.sol\":3820:3827  account */\n      dup3\n        /* \"@openzeppelin/contracts/access/AccessControl.sol\":3806:3813  hasRole */\n      tag_46\n        /* \"@openzeppelin/contracts/access/AccessControl.sol\":3806:3828  hasRole(role, account) */\n      jump\t// in\n    tag_130:\n        /* \"@openzeppelin/contracts/access/AccessControl.sol\":3801:4204  if (!hasRole(role, account)) {... */\n      tag_131\n      jumpi\n        /* \"@openzeppelin/contracts/access/AccessControl.sol\":3989:4030  Strings.toHexString(uint160(account), 20) */\n      tag_132\n        /* \"@openzeppelin/contracts/access/AccessControl.sol\":4017:4024  account */\n      dup2\n        /* \"@openzeppelin/contracts/access/AccessControl.sol\":3989:4030  Strings.toHexString(uint160(account), 20) */\n      0xffffffffffffffffffffffffffffffffffffffff\n      and\n        /* \"@openzeppelin/contracts/access/AccessControl.sol\":4027:4029  20 */\n      0x14\n        /* \"@openzeppelin/contracts/access/AccessControl.sol\":3989:4008  Strings.toHexString */\n      tag_133\n        /* \"@openzeppelin/contracts/access/AccessControl.sol\":3989:4030  Strings.toHexString(uint160(account), 20) */\n      jump\t// in\n    tag_132:\n        /* \"@openzeppelin/contracts/access/AccessControl.sol\":4101:4139  Strings.toHexString(uint256(role), 32) */\n      tag_134\n        /* \"@openzeppelin/contracts/access/AccessControl.sol\":4129:4133  role */\n      dup4\n        /* \"@openzeppelin/contracts/access/AccessControl.sol\":4121:4134  uint256(role) */\n      0x00\n      shr\n        /* \"@openzeppelin/contracts/access/AccessControl.sol\":4136:4138  32 */\n      0x20\n        /* \"@openzeppelin/contracts/access/AccessControl.sol\":4101:4120  Strings.toHexString */\n      tag_133\n        /* \"@openzeppelin/contracts/access/AccessControl.sol\":4101:4139  Strings.toHexString(uint256(role), 32) */\n      jump\t// in\n    tag_134:\n        /* \"@openzeppelin/contracts/access/AccessControl.sol\":3896:4161  abi.encodePacked(... */\n      add(0x20, mload(0x40))\n      tag_135\n      swap3\n      swap2\n      swap1\n      tag_136\n      jump\t// in\n    tag_135:\n      mload(0x40)\n      0x20\n      dup2\n      dup4\n      sub\n      sub\n      dup2\n      mstore\n      swap1\n      0x40\n      mstore\n        /* \"@openzeppelin/contracts/access/AccessControl.sol\":3844:4193  revert(... */\n      mload(0x40)\n      0x08c379a000000000000000000000000000000000000000000000000000000000\n      dup2\n      mstore\n      0x04\n      add\n      tag_137\n      swap2\n      swap1\n      tag_97\n      jump\t// in\n    tag_137:\n      mload(0x40)\n      dup1\n      swap2\n      sub\n      swap1\n      revert\n        /* \"@openzeppelin/contracts/access/AccessControl.sol\":3801:4204  if (!hasRole(role, account)) {... */\n    tag_131:\n        /* \"@openzeppelin/contracts/access/AccessControl.sol\":3718:4210  function _checkRole(bytes32 role, address account) internal view virtual {... */\n      pop\n      pop\n      jump\t// out\n        /* \"@openzeppelin/contracts/utils/Strings.sol\":1652:2093  function toHexString(uint256 value, uint256 length) internal pure returns (string memory) {... */\n    tag_133:\n        /* \"@openzeppelin/contracts/utils/Strings.sol\":1727:1740  string memory */\n      0x60\n        /* \"@openzeppelin/contracts/utils/Strings.sol\":1752:1771  bytes memory buffer */\n      0x00\n        /* \"@openzeppelin/contracts/utils/Strings.sol\":1797:1798  2 */\n      0x02\n        /* \"@openzeppelin/contracts/utils/Strings.sol\":1788:1794  length */\n      dup4\n        /* \"@openzeppelin/contracts/utils/Strings.sol\":1784:1785  2 */\n      0x02\n        /* \"@openzeppelin/contracts/utils/Strings.sol\":1784:1794  2 * length */\n      tag_139\n      swap2\n      swap1\n      tag_140\n      jump\t// in\n    tag_139:\n        /* \"@openzeppelin/contracts/utils/Strings.sol\":1784:1798  2 * length + 2 */\n      tag_141\n      swap2\n      swap1\n      tag_142\n      jump\t// in\n    tag_141:\n        /* \"@openzeppelin/contracts/utils/Strings.sol\":1774:1799  new bytes(2 * length + 2) */\n      0xffffffffffffffff\n      dup2\n      gt\n      iszero\n      tag_143\n      jumpi\n      tag_144\n      tag_66\n      jump\t// in\n    tag_144:\n    tag_143:\n      mload(0x40)\n      swap1\n      dup1\n      dup3\n      mstore\n      dup1\n      0x1f\n      add\n      not(0x1f)\n      and\n      0x20\n      add\n      dup3\n      add\n      0x40\n      mstore\n      dup1\n      iszero\n      tag_145\n      jumpi\n      dup2\n      0x20\n      add\n      0x01\n      dup3\n      mul\n      dup1\n      calldatasize\n      dup4\n      calldatacopy\n      dup1\n      dup3\n      add\n      swap2\n      pop\n      pop\n      swap1\n      pop\n    tag_145:\n      pop\n        /* \"@openzeppelin/contracts/utils/Strings.sol\":1752:1799  bytes memory buffer = new bytes(2 * length + 2) */\n      swap1\n      pop\n        /* \"@openzeppelin/contracts/utils/Strings.sol\":1809:1824  buffer[0] = \"0\" */\n      0x3000000000000000000000000000000000000000000000000000000000000000\n        /* \"@openzeppelin/contracts/utils/Strings.sol\":1809:1815  buffer */\n      dup2\n        /* \"@openzeppelin/contracts/utils/Strings.sol\":1816:1817  0 */\n      0x00\n        /* \"@openzeppelin/contracts/utils/Strings.sol\":1809:1818  buffer[0] */\n      dup2\n      mload\n      dup2\n      lt\n      tag_146\n      jumpi\n      tag_147\n      tag_70\n      jump\t// in\n    tag_147:\n    tag_146:\n      0x20\n      add\n      add\n        /* \"@openzeppelin/contracts/utils/Strings.sol\":1809:1824  buffer[0] = \"0\" */\n      swap1\n      not(0xffffffffffffffffffffffffffffffffffffffffffffffffffffffffffffff)\n      and\n      swap1\n      dup2\n      0x00\n      byte\n      swap1\n      mstore8\n      pop\n        /* \"@openzeppelin/contracts/utils/Strings.sol\":1834:1849  buffer[1] = \"x\" */\n      0x7800000000000000000000000000000000000000000000000000000000000000\n        /* \"@openzeppelin/contracts/utils/Strings.sol\":1834:1840  buffer */\n      dup2\n        /* \"@openzeppelin/contracts/utils/Strings.sol\":1841:1842  1 */\n      0x01\n        /* \"@openzeppelin/contracts/utils/Strings.sol\":1834:1843  buffer[1] */\n      dup2\n      mload\n      dup2\n      lt\n      tag_148\n      jumpi\n      tag_149\n      tag_70\n      jump\t// in\n    tag_149:\n    tag_148:\n      0x20\n      add\n      add\n        /* \"@openzeppelin/contracts/utils/Strings.sol\":1834:1849  buffer[1] = \"x\" */\n      swap1\n      not(0xffffffffffffffffffffffffffffffffffffffffffffffffffffffffffffff)\n      and\n      swap1\n      dup2\n      0x00\n      byte\n      swap1\n      mstore8\n      pop\n        /* \"@openzeppelin/contracts/utils/Strings.sol\":1864:1873  uint256 i */\n      0x00\n        /* \"@openzeppelin/contracts/utils/Strings.sol\":1889:1890  1 */\n      0x01\n        /* \"@openzeppelin/contracts/utils/Strings.sol\":1880:1886  length */\n      dup5\n        /* \"@openzeppelin/contracts/utils/Strings.sol\":1876:1877  2 */\n      0x02\n        /* \"@openzeppelin/contracts/utils/Strings.sol\":1876:1886  2 * length */\n      tag_153\n      swap2\n      swap1\n      tag_140\n      jump\t// in\n    tag_153:\n        /* \"@openzeppelin/contracts/utils/Strings.sol\":1876:1890  2 * length + 1 */\n      tag_154\n      swap2\n      swap1\n      tag_142\n      jump\t// in\n    tag_154:\n        /* \"@openzeppelin/contracts/utils/Strings.sol\":1864:1890  uint256 i = 2 * length + 1 */\n      swap1\n      pop\n        /* \"@openzeppelin/contracts/utils/Strings.sol\":1859:1991  for (uint256 i = 2 * length + 1; i > 1; --i) {... */\n    tag_150:\n        /* \"@openzeppelin/contracts/utils/Strings.sol\":1896:1897  1 */\n      0x01\n        /* \"@openzeppelin/contracts/utils/Strings.sol\":1892:1893  i */\n      dup2\n        /* \"@openzeppelin/contracts/utils/Strings.sol\":1892:1897  i > 1 */\n      gt\n        /* \"@openzeppelin/contracts/utils/Strings.sol\":1859:1991  for (uint256 i = 2 * length + 1; i > 1; --i) {... */\n      iszero\n      tag_151\n      jumpi\n        /* \"@openzeppelin/contracts/utils/Strings.sol\":1930:1942  _HEX_SYMBOLS */\n      0x3031323334353637383961626364656600000000000000000000000000000000\n        /* \"@openzeppelin/contracts/utils/Strings.sol\":1951:1954  0xf */\n      0x0f\n        /* \"@openzeppelin/contracts/utils/Strings.sol\":1943:1948  value */\n      dup7\n        /* \"@openzeppelin/contracts/utils/Strings.sol\":1943:1954  value & 0xf */\n      and\n        /* \"@openzeppelin/contracts/utils/Strings.sol\":1930:1955  _HEX_SYMBOLS[value & 0xf] */\n      0x10\n      dup2\n      lt\n      tag_155\n      jumpi\n      tag_156\n      tag_70\n      jump\t// in\n    tag_156:\n    tag_155:\n      byte\n      0xf8\n      shl\n        /* \"@openzeppelin/contracts/utils/Strings.sol\":1918:1924  buffer */\n      dup3\n        /* \"@openzeppelin/contracts/utils/Strings.sol\":1925:1926  i */\n      dup3\n        /* \"@openzeppelin/contracts/utils/Strings.sol\":1918:1927  buffer[i] */\n      dup2\n      mload\n      dup2\n      lt\n      tag_157\n      jumpi\n      tag_158\n      tag_70\n      jump\t// in\n    tag_158:\n    tag_157:\n      0x20\n      add\n      add\n        /* \"@openzeppelin/contracts/utils/Strings.sol\":1918:1955  buffer[i] = _HEX_SYMBOLS[value & 0xf] */\n      swap1\n      not(0xffffffffffffffffffffffffffffffffffffffffffffffffffffffffffffff)\n      and\n      swap1\n      dup2\n      0x00\n      byte\n      swap1\n      mstore8\n      pop\n        /* \"@openzeppelin/contracts/utils/Strings.sol\":1979:1980  4 */\n      0x04\n        /* \"@openzeppelin/contracts/utils/Strings.sol\":1969:1980  value >>= 4 */\n      dup6\n      swap1\n      shr\n      swap5\n      pop\n        /* \"@openzeppelin/contracts/utils/Strings.sol\":1899:1902  --i */\n      dup1\n      tag_159\n      swap1\n      tag_160\n      jump\t// in\n    tag_159:\n      swap1\n      pop\n        /* \"@openzeppelin/contracts/utils/Strings.sol\":1859:1991  for (uint256 i = 2 * length + 1; i > 1; --i) {... */\n      jump(tag_150)\n    tag_151:\n      pop\n        /* \"@openzeppelin/contracts/utils/Strings.sol\":2017:2018  0 */\n      0x00\n        /* \"@openzeppelin/contracts/utils/Strings.sol\":2008:2013  value */\n      dup5\n        /* \"@openzeppelin/contracts/utils/Strings.sol\":2008:2018  value == 0 */\n      eq\n        /* \"@openzeppelin/contracts/utils/Strings.sol\":2000:2055  require(value == 0, \"Strings: hex length insufficient\") */\n      tag_161\n      jumpi\n      mload(0x40)\n      0x08c379a000000000000000000000000000000000000000000000000000000000\n      dup2\n      mstore\n      0x04\n      add\n      tag_162\n      swap1\n      tag_163\n      jump\t// in\n    tag_162:\n      mload(0x40)\n      dup1\n      swap2\n      sub\n      swap1\n      revert\n    tag_161:\n        /* \"@openzeppelin/contracts/utils/Strings.sol\":2079:2085  buffer */\n      dup1\n        /* \"@openzeppelin/contracts/utils/Strings.sol\":2065:2086  return string(buffer) */\n      swap2\n      pop\n      pop\n        /* \"@openzeppelin/contracts/utils/Strings.sol\":1652:2093  function toHexString(uint256 value, uint256 length) internal pure returns (string memory) {... */\n      swap3\n      swap2\n      pop\n      pop\n      jump\t// out\n        /* \"#utility.yul\":21:734   */\n    tag_165:\n        /* \"#utility.yul\":114:119   */\n      0x00\n        /* \"#utility.yul\":139:217   */\n      tag_167\n        /* \"#utility.yul\":155:216   */\n      tag_168\n        /* \"#utility.yul\":209:215   */\n      dup5\n        /* \"#utility.yul\":155:216   */\n      tag_169\n      jump\t// in\n    tag_168:\n        /* \"#utility.yul\":139:217   */\n      tag_170\n      jump\t// in\n    tag_167:\n        /* \"#utility.yul\":130:217   */\n      swap1\n      pop\n        /* \"#utility.yul\":237:242   */\n      dup1\n        /* \"#utility.yul\":266:272   */\n      dup4\n        /* \"#utility.yul\":259:264   */\n      dup3\n        /* \"#utility.yul\":252:273   */\n      mstore\n        /* \"#utility.yul\":300:304   */\n      0x20\n        /* \"#utility.yul\":293:298   */\n      dup3\n        /* \"#utility.yul\":289:305   */\n      add\n        /* \"#utility.yul\":282:305   */\n      swap1\n      pop\n        /* \"#utility.yul\":326:332   */\n      dup3\n        /* \"#utility.yul\":376:379   */\n      dup6\n        /* \"#utility.yul\":368:372   */\n      0x20\n        /* \"#utility.yul\":360:366   */\n      dup7\n        /* \"#utility.yul\":356:373   */\n      mul\n        /* \"#utility.yul\":351:354   */\n      dup3\n        /* \"#utility.yul\":347:374   */\n      add\n        /* \"#utility.yul\":344:380   */\n      gt\n        /* \"#utility.yul\":341:484   */\n      iszero\n      tag_171\n      jumpi\n        /* \"#utility.yul\":395:474   */\n      tag_172\n      tag_173\n      jump\t// in\n    tag_172:\n        /* \"#utility.yul\":341:484   */\n    tag_171:\n        /* \"#utility.yul\":508:509   */\n      0x00\n        /* \"#utility.yul\":493:728   */\n    tag_174:\n        /* \"#utility.yul\":518:524   */\n      dup6\n        /* \"#utility.yul\":515:516   */\n      dup2\n        /* \"#utility.yul\":512:525   */\n      lt\n        /* \"#utility.yul\":493:728   */\n      iszero\n      tag_176\n      jumpi\n        /* \"#utility.yul\":586:589   */\n      dup2\n        /* \"#utility.yul\":615:649   */\n      tag_177\n        /* \"#utility.yul\":645:648   */\n      dup9\n        /* \"#utility.yul\":633:643   */\n      dup3\n        /* \"#utility.yul\":615:649   */\n      tag_178\n      jump\t// in\n    tag_177:\n        /* \"#utility.yul\":610:613   */\n      dup5\n        /* \"#utility.yul\":603:650   */\n      mstore\n        /* \"#utility.yul\":679:683   */\n      0x20\n        /* \"#utility.yul\":674:677   */\n      dup5\n        /* \"#utility.yul\":670:684   */\n      add\n        /* \"#utility.yul\":663:684   */\n      swap4\n      pop\n        /* \"#utility.yul\":713:717   */\n      0x20\n        /* \"#utility.yul\":708:711   */\n      dup4\n        /* \"#utility.yul\":704:718   */\n      add\n        /* \"#utility.yul\":697:718   */\n      swap3\n      pop\n        /* \"#utility.yul\":553:728   */\n      pop\n        /* \"#utility.yul\":540:541   */\n      0x01\n        /* \"#utility.yul\":537:538   */\n      dup2\n        /* \"#utility.yul\":533:542   */\n      add\n        /* \"#utility.yul\":528:542   */\n      swap1\n      pop\n        /* \"#utility.yul\":493:728   */\n      jump(tag_174)\n    tag_176:\n        /* \"#utility.yul\":497:511   */\n      pop\n        /* \"#utility.yul\":120:734   */\n      pop\n      pop\n        /* \"#utility.yul\":21:734   */\n      swap4\n      swap3\n      pop\n      pop\n      pop\n      jump\t// out\n        /* \"#utility.yul\":740:1150   */\n    tag_179:\n        /* \"#utility.yul\":817:822   */\n      0x00\n        /* \"#utility.yul\":842:907   */\n      tag_181\n        /* \"#utility.yul\":858:906   */\n      tag_182\n        /* \"#utility.yul\":899:905   */\n      dup5\n        /* \"#utility.yul\":858:906   */\n      tag_183\n      jump\t// in\n    tag_182:\n        /* \"#utility.yul\":842:907   */\n      tag_170\n      jump\t// in\n    tag_181:\n        /* \"#utility.yul\":833:907   */\n      swap1\n      pop\n        /* \"#utility.yul\":930:936   */\n      dup3\n        /* \"#utility.yul\":923:928   */\n      dup2\n        /* \"#utility.yul\":916:937   */\n      mstore\n        /* \"#utility.yul\":968:972   */\n      0x20\n        /* \"#utility.yul\":961:966   */\n      dup2\n        /* \"#utility.yul\":957:973   */\n      add\n        /* \"#utility.yul\":1006:1009   */\n      dup5\n        /* \"#utility.yul\":997:1003   */\n      dup5\n        /* \"#utility.yul\":992:995   */\n      dup5\n        /* \"#utility.yul\":988:1004   */\n      add\n        /* \"#utility.yul\":985:1010   */\n      gt\n        /* \"#utility.yul\":982:1094   */\n      iszero\n      tag_184\n      jumpi\n        /* \"#utility.yul\":1013:1092   */\n      tag_185\n      tag_186\n      jump\t// in\n    tag_185:\n        /* \"#utility.yul\":982:1094   */\n    tag_184:\n        /* \"#utility.yul\":1103:1144   */\n      tag_187\n        /* \"#utility.yul\":1137:1143   */\n      dup5\n        /* \"#utility.yul\":1132:1135   */\n      dup3\n        /* \"#utility.yul\":1127:1130   */\n      dup6\n        /* \"#utility.yul\":1103:1144   */\n      tag_188\n      jump\t// in\n    tag_187:\n        /* \"#utility.yul\":823:1150   */\n      pop\n        /* \"#utility.yul\":740:1150   */\n      swap4\n      swap3\n      pop\n      pop\n      pop\n      jump\t// out\n        /* \"#utility.yul\":1156:1568   */\n    tag_189:\n        /* \"#utility.yul\":1234:1239   */\n      0x00\n        /* \"#utility.yul\":1259:1325   */\n      tag_191\n        /* \"#utility.yul\":1275:1324   */\n      tag_192\n        /* \"#utility.yul\":1317:1323   */\n      dup5\n        /* \"#utility.yul\":1275:1324   */\n      tag_193\n      jump\t// in\n    tag_192:\n        /* \"#utility.yul\":1259:1325   */\n      tag_170\n      jump\t// in\n    tag_191:\n        /* \"#utility.yul\":1250:1325   */\n      swap1\n      pop\n        /* \"#utility.yul\":1348:1354   */\n      dup3\n        /* \"#utility.yul\":1341:1346   */\n      dup2\n        /* \"#utility.yul\":1334:1355   */\n      mstore\n        /* \"#utility.yul\":1386:1390   */\n      0x20\n        /* \"#utility.yul\":1379:1384   */\n      dup2\n        /* \"#utility.yul\":1375:1391   */\n      add\n        /* \"#utility.yul\":1424:1427   */\n      dup5\n        /* \"#utility.yul\":1415:1421   */\n      dup5\n        /* \"#utility.yul\":1410:1413   */\n      dup5\n        /* \"#utility.yul\":1406:1422   */\n      add\n        /* \"#utility.yul\":1403:1428   */\n      gt\n        /* \"#utility.yul\":1400:1512   */\n      iszero\n      tag_194\n      jumpi\n        /* \"#utility.yul\":1431:1510   */\n      tag_195\n      tag_186\n      jump\t// in\n    tag_195:\n        /* \"#utility.yul\":1400:1512   */\n    tag_194:\n        /* \"#utility.yul\":1521:1562   */\n      tag_196\n        /* \"#utility.yul\":1555:1561   */\n      dup5\n        /* \"#utility.yul\":1550:1553   */\n      dup3\n        /* \"#utility.yul\":1545:1548   */\n      dup6\n        /* \"#utility.yul\":1521:1562   */\n      tag_188\n      jump\t// in\n    tag_196:\n        /* \"#utility.yul\":1240:1568   */\n      pop\n        /* \"#utility.yul\":1156:1568   */\n      swap4\n      swap3\n      pop\n      pop\n      pop\n      jump\t// out\n        /* \"#utility.yul\":1574:1713   */\n    tag_197:\n        /* \"#utility.yul\":1620:1625   */\n      0x00\n        /* \"#utility.yul\":1658:1664   */\n      dup2\n        /* \"#utility.yul\":1645:1665   */\n      calldataload\n        /* \"#utility.yul\":1636:1665   */\n      swap1\n      pop\n        /* \"#utility.yul\":1674:1707   */\n      tag_199\n        /* \"#utility.yul\":1701:1706   */\n      dup2\n        /* \"#utility.yul\":1674:1707   */\n      tag_200\n      jump\t// in\n    tag_199:\n        /* \"#utility.yul\":1574:1713   */\n      swap3\n      swap2\n      pop\n      pop\n      jump\t// out\n        /* \"#utility.yul\":1733:2097   */\n    tag_201:\n        /* \"#utility.yul\":1801:1806   */\n      0x00\n        /* \"#utility.yul\":1850:1853   */\n      dup3\n        /* \"#utility.yul\":1843:1847   */\n      0x1f\n        /* \"#utility.yul\":1835:1841   */\n      dup4\n        /* \"#utility.yul\":1831:1848   */\n      add\n        /* \"#utility.yul\":1827:1854   */\n      slt\n        /* \"#utility.yul\":1817:1939   */\n      tag_203\n      jumpi\n        /* \"#utility.yul\":1858:1937   */\n      tag_204\n      tag_205\n      jump\t// in\n    tag_204:\n        /* \"#utility.yul\":1817:1939   */\n    tag_203:\n        /* \"#utility.yul\":1975:1981   */\n      dup2\n        /* \"#utility.yul\":1962:1982   */\n      calldataload\n        /* \"#utility.yul\":2000:2091   */\n      tag_206\n        /* \"#utility.yul\":2087:2090   */\n      dup5\n        /* \"#utility.yul\":2079:2085   */\n      dup3\n        /* \"#utility.yul\":2072:2076   */\n      0x20\n        /* \"#utility.yul\":2064:2070   */\n      dup7\n        /* \"#utility.yul\":2060:2077   */\n      add\n        /* \"#utility.yul\":2000:2091   */\n      tag_165\n      jump\t// in\n    tag_206:\n        /* \"#utility.yul\":1991:2091   */\n      swap2\n      pop\n        /* \"#utility.yul\":1807:2097   */\n      pop\n        /* \"#utility.yul\":1733:2097   */\n      swap3\n      swap2\n      pop\n      pop\n      jump\t// out\n        /* \"#utility.yul\":2103:2236   */\n    tag_178:\n        /* \"#utility.yul\":2146:2151   */\n      0x00\n        /* \"#utility.yul\":2184:2190   */\n      dup2\n        /* \"#utility.yul\":2171:2191   */\n      calldataload\n        /* \"#utility.yul\":2162:2191   */\n      swap1\n      pop\n        /* \"#utility.yul\":2200:2230   */\n      tag_208\n        /* \"#utility.yul\":2224:2229   */\n      dup2\n        /* \"#utility.yul\":2200:2230   */\n      tag_209\n      jump\t// in\n    tag_208:\n        /* \"#utility.yul\":2103:2236   */\n      swap3\n      swap2\n      pop\n      pop\n      jump\t// out\n        /* \"#utility.yul\":2242:2381   */\n    tag_210:\n        /* \"#utility.yul\":2288:2293   */\n      0x00\n        /* \"#utility.yul\":2326:2332   */\n      dup2\n        /* \"#utility.yul\":2313:2333   */\n      calldataload\n        /* \"#utility.yul\":2304:2333   */\n      swap1\n      pop\n        /* \"#utility.yul\":2342:2375   */\n      tag_212\n        /* \"#utility.yul\":2369:2374   */\n      dup2\n        /* \"#utility.yul\":2342:2375   */\n      tag_213\n      jump\t// in\n    tag_212:\n        /* \"#utility.yul\":2242:2381   */\n      swap3\n      swap2\n      pop\n      pop\n      jump\t// out\n        /* \"#utility.yul\":2387:2524   */\n    tag_214:\n        /* \"#utility.yul\":2432:2437   */\n      0x00\n        /* \"#utility.yul\":2470:2476   */\n      dup2\n        /* \"#utility.yul\":2457:2477   */\n      calldataload\n        /* \"#utility.yul\":2448:2477   */\n      swap1\n      pop\n        /* \"#utility.yul\":2486:2518   */\n      tag_216\n        /* \"#utility.yul\":2512:2517   */\n      dup2\n        /* \"#utility.yul\":2486:2518   */\n      tag_217\n      jump\t// in\n    tag_216:\n        /* \"#utility.yul\":2387:2524   */\n      swap3\n      swap2\n      pop\n      pop\n      jump\t// out\n        /* \"#utility.yul\":2543:2881   */\n    tag_218:\n        /* \"#utility.yul\":2598:2603   */\n      0x00\n        /* \"#utility.yul\":2647:2650   */\n      dup3\n        /* \"#utility.yul\":2640:2644   */\n      0x1f\n        /* \"#utility.yul\":2632:2638   */\n      dup4\n        /* \"#utility.yul\":2628:2645   */\n      add\n        /* \"#utility.yul\":2624:2651   */\n      slt\n        /* \"#utility.yul\":2614:2736   */\n      tag_220\n      jumpi\n        /* \"#utility.yul\":2655:2734   */\n      tag_221\n      tag_205\n      jump\t// in\n    tag_221:\n        /* \"#utility.yul\":2614:2736   */\n    tag_220:\n        /* \"#utility.yul\":2772:2778   */\n      dup2\n        /* \"#utility.yul\":2759:2779   */\n      calldataload\n        /* \"#utility.yul\":2797:2875   */\n      tag_222\n        /* \"#utility.yul\":2871:2874   */\n      dup5\n        /* \"#utility.yul\":2863:2869   */\n      dup3\n        /* \"#utility.yul\":2856:2860   */\n      0x20\n        /* \"#utility.yul\":2848:2854   */\n      dup7\n        /* \"#utility.yul\":2844:2861   */\n      add\n        /* \"#utility.yul\":2797:2875   */\n      tag_179\n      jump\t// in\n    tag_222:\n        /* \"#utility.yul\":2788:2875   */\n      swap2\n      pop\n        /* \"#utility.yul\":2604:2881   */\n      pop\n        /* \"#utility.yul\":2543:2881   */\n      swap3\n      swap2\n      pop\n      pop\n      jump\t// out\n        /* \"#utility.yul\":2901:3241   */\n    tag_223:\n        /* \"#utility.yul\":2957:2962   */\n      0x00\n        /* \"#utility.yul\":3006:3009   */\n      dup3\n        /* \"#utility.yul\":2999:3003   */\n      0x1f\n        /* \"#utility.yul\":2991:2997   */\n      dup4\n        /* \"#utility.yul\":2987:3004   */\n      add\n        /* \"#utility.yul\":2983:3010   */\n      slt\n        /* \"#utility.yul\":2973:3095   */\n      tag_225\n      jumpi\n        /* \"#utility.yul\":3014:3093   */\n      tag_226\n      tag_205\n      jump\t// in\n    tag_226:\n        /* \"#utility.yul\":2973:3095   */\n    tag_225:\n        /* \"#utility.yul\":3131:3137   */\n      dup2\n        /* \"#utility.yul\":3118:3138   */\n      calldataload\n        /* \"#utility.yul\":3156:3235   */\n      tag_227\n        /* \"#utility.yul\":3231:3234   */\n      dup5\n        /* \"#utility.yul\":3223:3229   */\n      dup3\n        /* \"#utility.yul\":3216:3220   */\n      0x20\n        /* \"#utility.yul\":3208:3214   */\n      dup7\n        /* \"#utility.yul\":3204:3221   */\n      add\n        /* \"#utility.yul\":3156:3235   */\n      tag_189\n      jump\t// in\n    tag_227:\n        /* \"#utility.yul\":3147:3235   */\n      swap2\n      pop\n        /* \"#utility.yul\":2963:3241   */\n      pop\n        /* \"#utility.yul\":2901:3241   */\n      swap3\n      swap2\n      pop\n      pop\n      jump\t// out\n        /* \"#utility.yul\":3247:3780   */\n    tag_53:\n        /* \"#utility.yul\":3328:3334   */\n      0x00\n        /* \"#utility.yul\":3377:3379   */\n      0x20\n        /* \"#utility.yul\":3365:3374   */\n      dup3\n        /* \"#utility.yul\":3356:3363   */\n      dup5\n        /* \"#utility.yul\":3352:3375   */\n      sub\n        /* \"#utility.yul\":3348:3380   */\n      slt\n        /* \"#utility.yul\":3345:3464   */\n      iszero\n      tag_229\n      jumpi\n        /* \"#utility.yul\":3383:3462   */\n      tag_230\n      tag_231\n      jump\t// in\n    tag_230:\n        /* \"#utility.yul\":3345:3464   */\n    tag_229:\n        /* \"#utility.yul\":3531:3532   */\n      0x00\n        /* \"#utility.yul\":3520:3529   */\n      dup3\n        /* \"#utility.yul\":3516:3533   */\n      add\n        /* \"#utility.yul\":3503:3534   */\n      calldataload\n        /* \"#utility.yul\":3561:3579   */\n      0xffffffffffffffff\n        /* \"#utility.yul\":3553:3559   */\n      dup2\n        /* \"#utility.yul\":3550:3580   */\n      gt\n        /* \"#utility.yul\":3547:3664   */\n      iszero\n      tag_232\n      jumpi\n        /* \"#utility.yul\":3583:3662   */\n      tag_233\n      tag_234\n      jump\t// in\n    tag_233:\n        /* \"#utility.yul\":3547:3664   */\n    tag_232:\n        /* \"#utility.yul\":3688:3763   */\n      tag_235\n        /* \"#utility.yul\":3755:3762   */\n      dup5\n        /* \"#utility.yul\":3746:3752   */\n      dup3\n        /* \"#utility.yul\":3735:3744   */\n      dup6\n        /* \"#utility.yul\":3731:3753   */\n      add\n        /* \"#utility.yul\":3688:3763   */\n      tag_201\n      jump\t// in\n    tag_235:\n        /* \"#utility.yul\":3678:3763   */\n      swap2\n      pop\n        /* \"#utility.yul\":3474:3773   */\n      pop\n        /* \"#utility.yul\":3247:3780   */\n      swap3\n      swap2\n      pop\n      pop\n      jump\t// out\n        /* \"#utility.yul\":3786:4115   */\n    tag_25:\n        /* \"#utility.yul\":3845:3851   */\n      0x00\n        /* \"#utility.yul\":3894:3896   */\n      0x20\n        /* \"#utility.yul\":3882:3891   */\n      dup3\n        /* \"#utility.yul\":3873:3880   */\n      dup5\n        /* \"#utility.yul\":3869:3892   */\n      sub\n        /* \"#utility.yul\":3865:3897   */\n      slt\n        /* \"#utility.yul\":3862:3981   */\n      iszero\n      tag_237\n      jumpi\n        /* \"#utility.yul\":3900:3979   */\n      tag_238\n      tag_231\n      jump\t// in\n    tag_238:\n        /* \"#utility.yul\":3862:3981   */\n    tag_237:\n        /* \"#utility.yul\":4020:4021   */\n      0x00\n        /* \"#utility.yul\":4045:4098   */\n      tag_239\n        /* \"#utility.yul\":4090:4097   */\n      dup5\n        /* \"#utility.yul\":4081:4087   */\n      dup3\n        /* \"#utility.yul\":4070:4079   */\n      dup6\n        /* \"#utility.yul\":4066:4088   */\n      add\n        /* \"#utility.yul\":4045:4098   */\n      tag_210\n      jump\t// in\n    tag_239:\n        /* \"#utility.yul\":4035:4098   */\n      swap2\n      pop\n        /* \"#utility.yul\":3991:4108   */\n      pop\n        /* \"#utility.yul\":3786:4115   */\n      swap3\n      swap2\n      pop\n      pop\n      jump\t// out\n        /* \"#utility.yul\":4121:4595   */\n    tag_31:\n        /* \"#utility.yul\":4189:4195   */\n      0x00\n        /* \"#utility.yul\":4197:4203   */\n      dup1\n        /* \"#utility.yul\":4246:4248   */\n      0x40\n        /* \"#utility.yul\":4234:4243   */\n      dup4\n        /* \"#utility.yul\":4225:4232   */\n      dup6\n        /* \"#utility.yul\":4221:4244   */\n      sub\n        /* \"#utility.yul\":4217:4249   */\n      slt\n        /* \"#utility.yul\":4214:4333   */\n      iszero\n      tag_241\n      jumpi\n        /* \"#utility.yul\":4252:4331   */\n      tag_242\n      tag_231\n      jump\t// in\n    tag_242:\n        /* \"#utility.yul\":4214:4333   */\n    tag_241:\n        /* \"#utility.yul\":4372:4373   */\n      0x00\n        /* \"#utility.yul\":4397:4450   */\n      tag_243\n        /* \"#utility.yul\":4442:4449   */\n      dup6\n        /* \"#utility.yul\":4433:4439   */\n      dup3\n        /* \"#utility.yul\":4422:4431   */\n      dup7\n        /* \"#utility.yul\":4418:4440   */\n      add\n        /* \"#utility.yul\":4397:4450   */\n      tag_210\n      jump\t// in\n    tag_243:\n        /* \"#utility.yul\":4387:4450   */\n      swap3\n      pop\n        /* \"#utility.yul\":4343:4460   */\n      pop\n        /* \"#utility.yul\":4499:4501   */\n      0x20\n        /* \"#utility.yul\":4525:4578   */\n      tag_244\n        /* \"#utility.yul\":4570:4577   */\n      dup6\n        /* \"#utility.yul\":4561:4567   */\n      dup3\n        /* \"#utility.yul\":4550:4559   */\n      dup7\n        /* \"#utility.yul\":4546:4568   */\n      add\n        /* \"#utility.yul\":4525:4578   */\n      tag_197\n      jump\t// in\n    tag_244:\n        /* \"#utility.yul\":4515:4578   */\n      swap2\n      pop\n        /* \"#utility.yul\":4470:4588   */\n      pop\n        /* \"#utility.yul\":4121:4595   */\n      swap3\n      pop\n      swap3\n      swap1\n      pop\n      jump\t// out\n        /* \"#utility.yul\":4601:4928   */\n    tag_17:\n        /* \"#utility.yul\":4659:4665   */\n      0x00\n        /* \"#utility.yul\":4708:4710   */\n      0x20\n        /* \"#utility.yul\":4696:4705   */\n      dup3\n        /* \"#utility.yul\":4687:4694   */\n      dup5\n        /* \"#utility.yul\":4683:4706   */\n      sub\n        /* \"#utility.yul\":4679:4711   */\n      slt\n        /* \"#utility.yul\":4676:4795   */\n      iszero\n      tag_246\n      jumpi\n        /* \"#utility.yul\":4714:4793   */\n      tag_247\n      tag_231\n      jump\t// in\n    tag_247:\n        /* \"#utility.yul\":4676:4795   */\n    tag_246:\n        /* \"#utility.yul\":4834:4835   */\n      0x00\n        /* \"#utility.yul\":4859:4911   */\n      tag_248\n        /* \"#utility.yul\":4903:4910   */\n      dup5\n        /* \"#utility.yul\":4894:4900   */\n      dup3\n        /* \"#utility.yul\":4883:4892   */\n      dup6\n        /* \"#utility.yul\":4879:4901   */\n      add\n        /* \"#utility.yul\":4859:4911   */\n      tag_214\n      jump\t// in\n    tag_248:\n        /* \"#utility.yul\":4849:4911   */\n      swap2\n      pop\n        /* \"#utility.yul\":4805:4921   */\n      pop\n        /* \"#utility.yul\":4601:4928   */\n      swap3\n      swap2\n      pop\n      pop\n      jump\t// out\n        /* \"#utility.yul\":4934:5441   */\n    tag_38:\n        /* \"#utility.yul\":5002:5008   */\n      0x00\n        /* \"#utility.yul\":5051:5053   */\n      0x20\n        /* \"#utility.yul\":5039:5048   */\n      dup3\n        /* \"#utility.yul\":5030:5037   */\n      dup5\n        /* \"#utility.yul\":5026:5049   */\n      sub\n        /* \"#utility.yul\":5022:5054   */\n      slt\n        /* \"#utility.yul\":5019:5138   */\n      iszero\n      tag_250\n      jumpi\n        /* \"#utility.yul\":5057:5136   */\n      tag_251\n      tag_231\n      jump\t// in\n    tag_251:\n        /* \"#utility.yul\":5019:5138   */\n    tag_250:\n        /* \"#utility.yul\":5205:5206   */\n      0x00\n        /* \"#utility.yul\":5194:5203   */\n      dup3\n        /* \"#utility.yul\":5190:5207   */\n      add\n        /* \"#utility.yul\":5177:5208   */\n      calldataload\n        /* \"#utility.yul\":5235:5253   */\n      0xffffffffffffffff\n        /* \"#utility.yul\":5227:5233   */\n      dup2\n        /* \"#utility.yul\":5224:5254   */\n      gt\n        /* \"#utility.yul\":5221:5338   */\n      iszero\n      tag_252\n      jumpi\n        /* \"#utility.yul\":5257:5336   */\n      tag_253\n      tag_234\n      jump\t// in\n    tag_253:\n        /* \"#utility.yul\":5221:5338   */\n    tag_252:\n        /* \"#utility.yul\":5362:5424   */\n      tag_254\n        /* \"#utility.yul\":5416:5423   */\n      dup5\n        /* \"#utility.yul\":5407:5413   */\n      dup3\n        /* \"#utility.yul\":5396:5405   */\n      dup6\n        /* \"#utility.yul\":5392:5414   */\n      add\n        /* \"#utility.yul\":5362:5424   */\n      tag_218\n      jump\t// in\n    tag_254:\n        /* \"#utility.yul\":5352:5424   */\n      swap2\n      pop\n        /* \"#utility.yul\":5148:5434   */\n      pop\n        /* \"#utility.yul\":4934:5441   */\n      swap3\n      swap2\n      pop\n      pop\n      jump\t// out\n        /* \"#utility.yul\":5447:5956   */\n    tag_42:\n        /* \"#utility.yul\":5516:5522   */\n      0x00\n        /* \"#utility.yul\":5565:5567   */\n      0x20\n        /* \"#utility.yul\":5553:5562   */\n      dup3\n        /* \"#utility.yul\":5544:5551   */\n      dup5\n        /* \"#utility.yul\":5540:5563   */\n      sub\n        /* \"#utility.yul\":5536:5568   */\n      slt\n        /* \"#utility.yul\":5533:5652   */\n      iszero\n      tag_256\n      jumpi\n        /* \"#utility.yul\":5571:5650   */\n      tag_257\n      tag_231\n      jump\t// in\n    tag_257:\n        /* \"#utility.yul\":5533:5652   */\n    tag_256:\n        /* \"#utility.yul\":5719:5720   */\n      0x00\n        /* \"#utility.yul\":5708:5717   */\n      dup3\n        /* \"#utility.yul\":5704:5721   */\n      add\n        /* \"#utility.yul\":5691:5722   */\n      calldataload\n        /* \"#utility.yul\":5749:5767   */\n      0xffffffffffffffff\n        /* \"#utility.yul\":5741:5747   */\n      dup2\n        /* \"#utility.yul\":5738:5768   */\n      gt\n        /* \"#utility.yul\":5735:5852   */\n      iszero\n      tag_258\n      jumpi\n        /* \"#utility.yul\":5771:5850   */\n      tag_259\n      tag_234\n      jump\t// in\n    tag_259:\n        /* \"#utility.yul\":5735:5852   */\n    tag_258:\n        /* \"#utility.yul\":5876:5939   */\n      tag_260\n        /* \"#utility.yul\":5931:5938   */\n      dup5\n        /* \"#utility.yul\":5922:5928   */\n      dup3\n        /* \"#utility.yul\":5911:5920   */\n      dup6\n        /* \"#utility.yul\":5907:5929   */\n      add\n        /* \"#utility.yul\":5876:5939   */\n      tag_223\n      jump\t// in\n    tag_260:\n        /* \"#utility.yul\":5866:5939   */\n      swap2\n      pop\n        /* \"#utility.yul\":5662:5949   */\n      pop\n        /* \"#utility.yul\":5447:5956   */\n      swap3\n      swap2\n      pop\n      pop\n      jump\t// out\n        /* \"#utility.yul\":5962:6071   */\n    tag_261:\n        /* \"#utility.yul\":6043:6064   */\n      tag_263\n        /* \"#utility.yul\":6058:6063   */\n      dup2\n        /* \"#utility.yul\":6043:6064   */\n      tag_264\n      jump\t// in\n    tag_263:\n        /* \"#utility.yul\":6038:6041   */\n      dup3\n        /* \"#utility.yul\":6031:6065   */\n      mstore\n        /* \"#utility.yul\":5962:6071   */\n      pop\n      pop\n      jump\t// out\n        /* \"#utility.yul\":6077:6195   */\n    tag_265:\n        /* \"#utility.yul\":6164:6188   */\n      tag_267\n        /* \"#utility.yul\":6182:6187   */\n      dup2\n        /* \"#utility.yul\":6164:6188   */\n      tag_268\n      jump\t// in\n    tag_267:\n        /* \"#utility.yul\":6159:6162   */\n      dup3\n        /* \"#utility.yul\":6152:6189   */\n      mstore\n        /* \"#utility.yul\":6077:6195   */\n      pop\n      pop\n      jump\t// out\n        /* \"#utility.yul\":6201:6565   */\n    tag_269:\n        /* \"#utility.yul\":6289:6292   */\n      0x00\n        /* \"#utility.yul\":6317:6356   */\n      tag_271\n        /* \"#utility.yul\":6350:6355   */\n      dup3\n        /* \"#utility.yul\":6317:6356   */\n      tag_272\n      jump\t// in\n    tag_271:\n        /* \"#utility.yul\":6372:6443   */\n      tag_273\n        /* \"#utility.yul\":6436:6442   */\n      dup2\n        /* \"#utility.yul\":6431:6434   */\n      dup6\n        /* \"#utility.yul\":6372:6443   */\n      tag_274\n      jump\t// in\n    tag_273:\n        /* \"#utility.yul\":6365:6443   */\n      swap4\n      pop\n        /* \"#utility.yul\":6452:6504   */\n      tag_275\n        /* \"#utility.yul\":6497:6503   */\n      dup2\n        /* \"#utility.yul\":6492:6495   */\n      dup6\n        /* \"#utility.yul\":6485:6489   */\n      0x20\n        /* \"#utility.yul\":6478:6483   */\n      dup7\n        /* \"#utility.yul\":6474:6490   */\n      add\n        /* \"#utility.yul\":6452:6504   */\n      tag_276\n      jump\t// in\n    tag_275:\n        /* \"#utility.yul\":6529:6558   */\n      tag_277\n        /* \"#utility.yul\":6551:6557   */\n      dup2\n        /* \"#utility.yul\":6529:6558   */\n      tag_278\n      jump\t// in\n    tag_277:\n        /* \"#utility.yul\":6524:6527   */\n      dup5\n        /* \"#utility.yul\":6520:6559   */\n      add\n        /* \"#utility.yul\":6513:6559   */\n      swap2\n      pop\n        /* \"#utility.yul\":6293:6565   */\n      pop\n        /* \"#utility.yul\":6201:6565   */\n      swap3\n      swap2\n      pop\n      pop\n      jump\t// out\n        /* \"#utility.yul\":6571:6948   */\n    tag_279:\n        /* \"#utility.yul\":6677:6680   */\n      0x00\n        /* \"#utility.yul\":6705:6744   */\n      tag_281\n        /* \"#utility.yul\":6738:6743   */\n      dup3\n        /* \"#utility.yul\":6705:6744   */\n      tag_272\n      jump\t// in\n    tag_281:\n        /* \"#utility.yul\":6760:6849   */\n      tag_282\n        /* \"#utility.yul\":6842:6848   */\n      dup2\n        /* \"#utility.yul\":6837:6840   */\n      dup6\n        /* \"#utility.yul\":6760:6849   */\n      tag_283\n      jump\t// in\n    tag_282:\n        /* \"#utility.yul\":6753:6849   */\n      swap4\n      pop\n        /* \"#utility.yul\":6858:6910   */\n      tag_284\n        /* \"#utility.yul\":6903:6909   */\n      dup2\n        /* \"#utility.yul\":6898:6901   */\n      dup6\n        /* \"#utility.yul\":6891:6895   */\n      0x20\n        /* \"#utility.yul\":6884:6889   */\n      dup7\n        /* \"#utility.yul\":6880:6896   */\n      add\n        /* \"#utility.yul\":6858:6910   */\n      tag_276\n      jump\t// in\n    tag_284:\n        /* \"#utility.yul\":6935:6941   */\n      dup1\n        /* \"#utility.yul\":6930:6933   */\n      dup5\n        /* \"#utility.yul\":6926:6942   */\n      add\n        /* \"#utility.yul\":6919:6942   */\n      swap2\n      pop\n        /* \"#utility.yul\":6681:6948   */\n      pop\n        /* \"#utility.yul\":6571:6948   */\n      swap3\n      swap2\n      pop\n      pop\n      jump\t// out\n        /* \"#utility.yul\":6954:7320   */\n    tag_285:\n        /* \"#utility.yul\":7096:7099   */\n      0x00\n        /* \"#utility.yul\":7117:7184   */\n      tag_287\n        /* \"#utility.yul\":7181:7183   */\n      0x20\n        /* \"#utility.yul\":7176:7179   */\n      dup4\n        /* \"#utility.yul\":7117:7184   */\n      tag_274\n      jump\t// in\n    tag_287:\n        /* \"#utility.yul\":7110:7184   */\n      swap2\n      pop\n        /* \"#utility.yul\":7193:7286   */\n      tag_288\n        /* \"#utility.yul\":7282:7285   */\n      dup3\n        /* \"#utility.yul\":7193:7286   */\n      tag_289\n      jump\t// in\n    tag_288:\n        /* \"#utility.yul\":7311:7313   */\n      0x20\n        /* \"#utility.yul\":7306:7309   */\n      dup3\n        /* \"#utility.yul\":7302:7314   */\n      add\n        /* \"#utility.yul\":7295:7314   */\n      swap1\n      pop\n        /* \"#utility.yul\":6954:7320   */\n      swap2\n      swap1\n      pop\n      jump\t// out\n        /* \"#utility.yul\":7326:7692   */\n    tag_290:\n        /* \"#utility.yul\":7468:7471   */\n      0x00\n        /* \"#utility.yul\":7489:7556   */\n      tag_292\n        /* \"#utility.yul\":7553:7555   */\n      0x0c\n        /* \"#utility.yul\":7548:7551   */\n      dup4\n        /* \"#utility.yul\":7489:7556   */\n      tag_274\n      jump\t// in\n    tag_292:\n        /* \"#utility.yul\":7482:7556   */\n      swap2\n      pop\n        /* \"#utility.yul\":7565:7658   */\n      tag_293\n        /* \"#utility.yul\":7654:7657   */\n      dup3\n        /* \"#utility.yul\":7565:7658   */\n      tag_294\n      jump\t// in\n    tag_293:\n        /* \"#utility.yul\":7683:7685   */\n      0x20\n        /* \"#utility.yul\":7678:7681   */\n      dup3\n        /* \"#utility.yul\":7674:7686   */\n      add\n        /* \"#utility.yul\":7667:7686   */\n      swap1\n      pop\n        /* \"#utility.yul\":7326:7692   */\n      swap2\n      swap1\n      pop\n      jump\t// out\n        /* \"#utility.yul\":7698:8064   */\n    tag_295:\n        /* \"#utility.yul\":7840:7843   */\n      0x00\n        /* \"#utility.yul\":7861:7928   */\n      tag_297\n        /* \"#utility.yul\":7925:7927   */\n      0x1c\n        /* \"#utility.yul\":7920:7923   */\n      dup4\n        /* \"#utility.yul\":7861:7928   */\n      tag_274\n      jump\t// in\n    tag_297:\n        /* \"#utility.yul\":7854:7928   */\n      swap2\n      pop\n        /* \"#utility.yul\":7937:8030   */\n      tag_298\n        /* \"#utility.yul\":8026:8029   */\n      dup3\n        /* \"#utility.yul\":7937:8030   */\n      tag_299\n      jump\t// in\n    tag_298:\n        /* \"#utility.yul\":8055:8057   */\n      0x20\n        /* \"#utility.yul\":8050:8053   */\n      dup3\n        /* \"#utility.yul\":8046:8058   */\n      add\n        /* \"#utility.yul\":8039:8058   */\n      swap1\n      pop\n        /* \"#utility.yul\":7698:8064   */\n      swap2\n      swap1\n      pop\n      jump\t// out\n        /* \"#utility.yul\":8070:8472   */\n    tag_300:\n        /* \"#utility.yul\":8230:8233   */\n      0x00\n        /* \"#utility.yul\":8251:8336   */\n      tag_302\n        /* \"#utility.yul\":8333:8335   */\n      0x17\n        /* \"#utility.yul\":8328:8331   */\n      dup4\n        /* \"#utility.yul\":8251:8336   */\n      tag_283\n      jump\t// in\n    tag_302:\n        /* \"#utility.yul\":8244:8336   */\n      swap2\n      pop\n        /* \"#utility.yul\":8345:8438   */\n      tag_303\n        /* \"#utility.yul\":8434:8437   */\n      dup3\n        /* \"#utility.yul\":8345:8438   */\n      tag_304\n      jump\t// in\n    tag_303:\n        /* \"#utility.yul\":8463:8465   */\n      0x17\n        /* \"#utility.yul\":8458:8461   */\n      dup3\n        /* \"#utility.yul\":8454:8466   */\n      add\n        /* \"#utility.yul\":8447:8466   */\n      swap1\n      pop\n        /* \"#utility.yul\":8070:8472   */\n      swap2\n      swap1\n      pop\n      jump\t// out\n        /* \"#utility.yul\":8478:8880   */\n    tag_305:\n        /* \"#utility.yul\":8638:8641   */\n      0x00\n        /* \"#utility.yul\":8659:8744   */\n      tag_307\n        /* \"#utility.yul\":8741:8743   */\n      0x11\n        /* \"#utility.yul\":8736:8739   */\n      dup4\n        /* \"#utility.yul\":8659:8744   */\n      tag_283\n      jump\t// in\n    tag_307:\n        /* \"#utility.yul\":8652:8744   */\n      swap2\n      pop\n        /* \"#utility.yul\":8753:8846   */\n      tag_308\n        /* \"#utility.yul\":8842:8845   */\n      dup3\n        /* \"#utility.yul\":8753:8846   */\n      tag_309\n      jump\t// in\n    tag_308:\n        /* \"#utility.yul\":8871:8873   */\n      0x11\n        /* \"#utility.yul\":8866:8869   */\n      dup3\n        /* \"#utility.yul\":8862:8874   */\n      add\n        /* \"#utility.yul\":8855:8874   */\n      swap1\n      pop\n        /* \"#utility.yul\":8478:8880   */\n      swap2\n      swap1\n      pop\n      jump\t// out\n        /* \"#utility.yul\":8886:9252   */\n    tag_310:\n        /* \"#utility.yul\":9028:9031   */\n      0x00\n        /* \"#utility.yul\":9049:9116   */\n      tag_312\n        /* \"#utility.yul\":9113:9115   */\n      0x2f\n        /* \"#utility.yul\":9108:9111   */\n      dup4\n        /* \"#utility.yul\":9049:9116   */\n      tag_274\n      jump\t// in\n    tag_312:\n        /* \"#utility.yul\":9042:9116   */\n      swap2\n      pop\n        /* \"#utility.yul\":9125:9218   */\n      tag_313\n        /* \"#utility.yul\":9214:9217   */\n      dup3\n        /* \"#utility.yul\":9125:9218   */\n      tag_314\n      jump\t// in\n    tag_313:\n        /* \"#utility.yul\":9243:9245   */\n      0x40\n        /* \"#utility.yul\":9238:9241   */\n      dup3\n        /* \"#utility.yul\":9234:9246   */\n      add\n        /* \"#utility.yul\":9227:9246   */\n      swap1\n      pop\n        /* \"#utility.yul\":8886:9252   */\n      swap2\n      swap1\n      pop\n      jump\t// out\n        /* \"#utility.yul\":9258:10225   */\n    tag_136:\n        /* \"#utility.yul\":9640:9643   */\n      0x00\n        /* \"#utility.yul\":9662:9810   */\n      tag_316\n        /* \"#utility.yul\":9806:9809   */\n      dup3\n        /* \"#utility.yul\":9662:9810   */\n      tag_300\n      jump\t// in\n    tag_316:\n        /* \"#utility.yul\":9655:9810   */\n      swap2\n      pop\n        /* \"#utility.yul\":9827:9922   */\n      tag_317\n        /* \"#utility.yul\":9918:9921   */\n      dup3\n        /* \"#utility.yul\":9909:9915   */\n      dup6\n        /* \"#utility.yul\":9827:9922   */\n      tag_279\n      jump\t// in\n    tag_317:\n        /* \"#utility.yul\":9820:9922   */\n      swap2\n      pop\n        /* \"#utility.yul\":9939:10087   */\n      tag_318\n        /* \"#utility.yul\":10083:10086   */\n      dup3\n        /* \"#utility.yul\":9939:10087   */\n      tag_305\n      jump\t// in\n    tag_318:\n        /* \"#utility.yul\":9932:10087   */\n      swap2\n      pop\n        /* \"#utility.yul\":10104:10199   */\n      tag_319\n        /* \"#utility.yul\":10195:10198   */\n      dup3\n        /* \"#utility.yul\":10186:10192   */\n      dup5\n        /* \"#utility.yul\":10104:10199   */\n      tag_279\n      jump\t// in\n    tag_319:\n        /* \"#utility.yul\":10097:10199   */\n      swap2\n      pop\n        /* \"#utility.yul\":10216:10219   */\n      dup2\n        /* \"#utility.yul\":10209:10219   */\n      swap1\n      pop\n        /* \"#utility.yul\":9258:10225   */\n      swap4\n      swap3\n      pop\n      pop\n      pop\n      jump\t// out\n        /* \"#utility.yul\":10231:10441   */\n    tag_20:\n        /* \"#utility.yul\":10318:10322   */\n      0x00\n        /* \"#utility.yul\":10356:10358   */\n      0x20\n        /* \"#utility.yul\":10345:10354   */\n      dup3\n        /* \"#utility.yul\":10341:10359   */\n      add\n        /* \"#utility.yul\":10333:10359   */\n      swap1\n      pop\n        /* \"#utility.yul\":10369:10434   */\n      tag_321\n        /* \"#utility.yul\":10431:10432   */\n      0x00\n        /* \"#utility.yul\":10420:10429   */\n      dup4\n        /* \"#utility.yul\":10416:10433   */\n      add\n        /* \"#utility.yul\":10407:10413   */\n      dup5\n        /* \"#utility.yul\":10369:10434   */\n      tag_261\n      jump\t// in\n    tag_321:\n        /* \"#utility.yul\":10231:10441   */\n      swap3\n      swap2\n      pop\n      pop\n      jump\t// out\n        /* \"#utility.yul\":10447:10669   */\n    tag_28:\n        /* \"#utility.yul\":10540:10544   */\n      0x00\n        /* \"#utility.yul\":10578:10580   */\n      0x20\n        /* \"#utility.yul\":10567:10576   */\n      dup3\n        /* \"#utility.yul\":10563:10581   */\n      add\n        /* \"#utility.yul\":10555:10581   */\n      swap1\n      pop\n        /* \"#utility.yul\":10591:10662   */\n      tag_323\n        /* \"#utility.yul\":10659:10660   */\n      0x00\n        /* \"#utility.yul\":10648:10657   */\n      dup4\n        /* \"#utility.yul\":10644:10661   */\n      add\n        /* \"#utility.yul\":10635:10641   */\n      dup5\n        /* \"#utility.yul\":10591:10662   */\n      tag_265\n      jump\t// in\n    tag_323:\n        /* \"#utility.yul\":10447:10669   */\n      swap3\n      swap2\n      pop\n      pop\n      jump\t// out\n        /* \"#utility.yul\":10675:10988   */\n    tag_97:\n        /* \"#utility.yul\":10788:10792   */\n      0x00\n        /* \"#utility.yul\":10826:10828   */\n      0x20\n        /* \"#utility.yul\":10815:10824   */\n      dup3\n        /* \"#utility.yul\":10811:10829   */\n      add\n        /* \"#utility.yul\":10803:10829   */\n      swap1\n      pop\n        /* \"#utility.yul\":10875:10884   */\n      dup2\n        /* \"#utility.yul\":10869:10873   */\n      dup2\n        /* \"#utility.yul\":10865:10885   */\n      sub\n        /* \"#utility.yul\":10861:10862   */\n      0x00\n        /* \"#utility.yul\":10850:10859   */\n      dup4\n        /* \"#utility.yul\":10846:10863   */\n      add\n        /* \"#utility.yul\":10839:10886   */\n      mstore\n        /* \"#utility.yul\":10903:10981   */\n      tag_325\n        /* \"#utility.yul\":10976:10980   */\n      dup2\n        /* \"#utility.yul\":10967:10973   */\n      dup5\n        /* \"#utility.yul\":10903:10981   */\n      tag_269\n      jump\t// in\n    tag_325:\n        /* \"#utility.yul\":10895:10981   */\n      swap1\n      pop\n        /* \"#utility.yul\":10675:10988   */\n      swap3\n      swap2\n      pop\n      pop\n      jump\t// out\n        /* \"#utility.yul\":10994:11413   */\n    tag_163:\n        /* \"#utility.yul\":11160:11164   */\n      0x00\n        /* \"#utility.yul\":11198:11200   */\n      0x20\n        /* \"#utility.yul\":11187:11196   */\n      dup3\n        /* \"#utility.yul\":11183:11201   */\n      add\n        /* \"#utility.yul\":11175:11201   */\n      swap1\n      pop\n        /* \"#utility.yul\":11247:11256   */\n      dup2\n        /* \"#utility.yul\":11241:11245   */\n      dup2\n        /* \"#utility.yul\":11237:11257   */\n      sub\n        /* \"#utility.yul\":11233:11234   */\n      0x00\n        /* \"#utility.yul\":11222:11231   */\n      dup4\n        /* \"#utility.yul\":11218:11235   */\n      add\n        /* \"#utility.yul\":11211:11258   */\n      mstore\n        /* \"#utility.yul\":11275:11406   */\n      tag_327\n        /* \"#utility.yul\":11401:11405   */\n      dup2\n        /* \"#utility.yul\":11275:11406   */\n      tag_285\n      jump\t// in\n    tag_327:\n        /* \"#utility.yul\":11267:11406   */\n      swap1\n      pop\n        /* \"#utility.yul\":10994:11413   */\n      swap2\n      swap1\n      pop\n      jump\t// out\n        /* \"#utility.yul\":11419:11838   */\n    tag_78:\n        /* \"#utility.yul\":11585:11589   */\n      0x00\n        /* \"#utility.yul\":11623:11625   */\n      0x20\n        /* \"#utility.yul\":11612:11621   */\n      dup3\n        /* \"#utility.yul\":11608:11626   */\n      add\n        /* \"#utility.yul\":11600:11626   */\n      swap1\n      pop\n        /* \"#utility.yul\":11672:11681   */\n      dup2\n        /* \"#utility.yul\":11666:11670   */\n      dup2\n        /* \"#utility.yul\":11662:11682   */\n      sub\n        /* \"#utility.yul\":11658:11659   */\n      0x00\n        /* \"#utility.yul\":11647:11656   */\n      dup4\n        /* \"#utility.yul\":11643:11660   */\n      add\n        /* \"#utility.yul\":11636:11683   */\n      mstore\n        /* \"#utility.yul\":11700:11831   */\n      tag_329\n        /* \"#utility.yul\":11826:11830   */\n      dup2\n        /* \"#utility.yul\":11700:11831   */\n      tag_290\n      jump\t// in\n    tag_329:\n        /* \"#utility.yul\":11692:11831   */\n      swap1\n      pop\n        /* \"#utility.yul\":11419:11838   */\n      swap2\n      swap1\n      pop\n      jump\t// out\n        /* \"#utility.yul\":11844:12263   */\n    tag_76:\n        /* \"#utility.yul\":12010:12014   */\n      0x00\n        /* \"#utility.yul\":12048:12050   */\n      0x20\n        /* \"#utility.yul\":12037:12046   */\n      dup3\n        /* \"#utility.yul\":12033:12051   */\n      add\n        /* \"#utility.yul\":12025:12051   */\n      swap1\n      pop\n        /* \"#utility.yul\":12097:12106   */\n      dup2\n        /* \"#utility.yul\":12091:12095   */\n      dup2\n        /* \"#utility.yul\":12087:12107   */\n      sub\n        /* \"#utility.yul\":12083:12084   */\n      0x00\n        /* \"#utility.yul\":12072:12081   */\n      dup4\n        /* \"#utility.yul\":12068:12085   */\n      add\n        /* \"#utility.yul\":12061:12108   */\n      mstore\n        /* \"#utility.yul\":12125:12256   */\n      tag_331\n        /* \"#utility.yul\":12251:12255   */\n      dup2\n        /* \"#utility.yul\":12125:12256   */\n      tag_295\n      jump\t// in\n    tag_331:\n        /* \"#utility.yul\":12117:12256   */\n      swap1\n      pop\n        /* \"#utility.yul\":11844:12263   */\n      swap2\n      swap1\n      pop\n      jump\t// out\n        /* \"#utility.yul\":12269:12688   */\n    tag_92:\n        /* \"#utility.yul\":12435:12439   */\n      0x00\n        /* \"#utility.yul\":12473:12475   */\n      0x20\n        /* \"#utility.yul\":12462:12471   */\n      dup3\n        /* \"#utility.yul\":12458:12476   */\n      add\n        /* \"#utility.yul\":12450:12476   */\n      swap1\n      pop\n        /* \"#utility.yul\":12522:12531   */\n      dup2\n        /* \"#utility.yul\":12516:12520   */\n      dup2\n        /* \"#utility.yul\":12512:12532   */\n      sub\n        /* \"#utility.yul\":12508:12509   */\n      0x00\n        /* \"#utility.yul\":12497:12506   */\n      dup4\n        /* \"#utility.yul\":12493:12510   */\n      add\n        /* \"#utility.yul\":12486:12533   */\n      mstore\n        /* \"#utility.yul\":12550:12681   */\n      tag_333\n        /* \"#utility.yul\":12676:12680   */\n      dup2\n        /* \"#utility.yul\":12550:12681   */\n      tag_310\n      jump\t// in\n    tag_333:\n        /* \"#utility.yul\":12542:12681   */\n      swap1\n      pop\n        /* \"#utility.yul\":12269:12688   */\n      swap2\n      swap1\n      pop\n      jump\t// out\n        /* \"#utility.yul\":12694:12823   */\n    tag_170:\n        /* \"#utility.yul\":12728:12734   */\n      0x00\n        /* \"#utility.yul\":12755:12775   */\n      tag_335\n      tag_336\n      jump\t// in\n    tag_335:\n        /* \"#utility.yul\":12745:12775   */\n      swap1\n      pop\n        /* \"#utility.yul\":12784:12817   */\n      tag_337\n        /* \"#utility.yul\":12812:12816   */\n      dup3\n        /* \"#utility.yul\":12804:12810   */\n      dup3\n        /* \"#utility.yul\":12784:12817   */\n      tag_338\n      jump\t// in\n    tag_337:\n        /* \"#utility.yul\":12694:12823   */\n      swap2\n      swap1\n      pop\n      jump\t// out\n        /* \"#utility.yul\":12829:12904   */\n    tag_336:\n        /* \"#utility.yul\":12862:12868   */\n      0x00\n        /* \"#utility.yul\":12895:12897   */\n      0x40\n        /* \"#utility.yul\":12889:12898   */\n      mload\n        /* \"#utility.yul\":12879:12898   */\n      swap1\n      pop\n        /* \"#utility.yul\":12829:12904   */\n      swap1\n      jump\t// out\n        /* \"#utility.yul\":12910:13218   */\n    tag_169:\n        /* \"#utility.yul\":12984:12988   */\n      0x00\n        /* \"#utility.yul\":13074:13092   */\n      0xffffffffffffffff\n        /* \"#utility.yul\":13066:13072   */\n      dup3\n        /* \"#utility.yul\":13063:13093   */\n      gt\n        /* \"#utility.yul\":13060:13116   */\n      iszero\n      tag_341\n      jumpi\n        /* \"#utility.yul\":13096:13114   */\n      tag_342\n      tag_66\n      jump\t// in\n    tag_342:\n        /* \"#utility.yul\":13060:13116   */\n    tag_341:\n        /* \"#utility.yul\":13146:13150   */\n      0x20\n        /* \"#utility.yul\":13138:13144   */\n      dup3\n        /* \"#utility.yul\":13134:13151   */\n      mul\n        /* \"#utility.yul\":13126:13151   */\n      swap1\n      pop\n        /* \"#utility.yul\":13206:13210   */\n      0x20\n        /* \"#utility.yul\":13200:13204   */\n      dup2\n        /* \"#utility.yul\":13196:13211   */\n      add\n        /* \"#utility.yul\":13188:13211   */\n      swap1\n      pop\n        /* \"#utility.yul\":12910:13218   */\n      swap2\n      swap1\n      pop\n      jump\t// out\n        /* \"#utility.yul\":13224:13531   */\n    tag_183:\n        /* \"#utility.yul\":13285:13289   */\n      0x00\n        /* \"#utility.yul\":13375:13393   */\n      0xffffffffffffffff\n        /* \"#utility.yul\":13367:13373   */\n      dup3\n        /* \"#utility.yul\":13364:13394   */\n      gt\n        /* \"#utility.yul\":13361:13417   */\n      iszero\n      tag_344\n      jumpi\n        /* \"#utility.yul\":13397:13415   */\n      tag_345\n      tag_66\n      jump\t// in\n    tag_345:\n        /* \"#utility.yul\":13361:13417   */\n    tag_344:\n        /* \"#utility.yul\":13435:13464   */\n      tag_346\n        /* \"#utility.yul\":13457:13463   */\n      dup3\n        /* \"#utility.yul\":13435:13464   */\n      tag_278\n      jump\t// in\n    tag_346:\n        /* \"#utility.yul\":13427:13464   */\n      swap1\n      pop\n        /* \"#utility.yul\":13519:13523   */\n      0x20\n        /* \"#utility.yul\":13513:13517   */\n      dup2\n        /* \"#utility.yul\":13509:13524   */\n      add\n        /* \"#utility.yul\":13501:13524   */\n      swap1\n      pop\n        /* \"#utility.yul\":13224:13531   */\n      swap2\n      swap1\n      pop\n      jump\t// out\n        /* \"#utility.yul\":13537:13845   */\n    tag_193:\n        /* \"#utility.yul\":13599:13603   */\n      0x00\n        /* \"#utility.yul\":13689:13707   */\n      0xffffffffffffffff\n        /* \"#utility.yul\":13681:13687   */\n      dup3\n        /* \"#utility.yul\":13678:13708   */\n      gt\n        /* \"#utility.yul\":13675:13731   */\n      iszero\n      tag_348\n      jumpi\n        /* \"#utility.yul\":13711:13729   */\n      tag_349\n      tag_66\n      jump\t// in\n    tag_349:\n        /* \"#utility.yul\":13675:13731   */\n    tag_348:\n        /* \"#utility.yul\":13749:13778   */\n      tag_350\n        /* \"#utility.yul\":13771:13777   */\n      dup3\n        /* \"#utility.yul\":13749:13778   */\n      tag_278\n      jump\t// in\n    tag_350:\n        /* \"#utility.yul\":13741:13778   */\n      swap1\n      pop\n        /* \"#utility.yul\":13833:13837   */\n      0x20\n        /* \"#utility.yul\":13827:13831   */\n      dup2\n        /* \"#utility.yul\":13823:13838   */\n      add\n        /* \"#utility.yul\":13815:13838   */\n      swap1\n      pop\n        /* \"#utility.yul\":13537:13845   */\n      swap2\n      swap1\n      pop\n      jump\t// out\n        /* \"#utility.yul\":13851:13950   */\n    tag_272:\n        /* \"#utility.yul\":13903:13909   */\n      0x00\n        /* \"#utility.yul\":13937:13942   */\n      dup2\n        /* \"#utility.yul\":13931:13943   */\n      mload\n        /* \"#utility.yul\":13921:13943   */\n      swap1\n      pop\n        /* \"#utility.yul\":13851:13950   */\n      swap2\n      swap1\n      pop\n      jump\t// out\n        /* \"#utility.yul\":13956:14125   */\n    tag_274:\n        /* \"#utility.yul\":14040:14051   */\n      0x00\n        /* \"#utility.yul\":14074:14080   */\n      dup3\n        /* \"#utility.yul\":14069:14072   */\n      dup3\n        /* \"#utility.yul\":14062:14081   */\n      mstore\n        /* \"#utility.yul\":14114:14118   */\n      0x20\n        /* \"#utility.yul\":14109:14112   */\n      dup3\n        /* \"#utility.yul\":14105:14119   */\n      add\n        /* \"#utility.yul\":14090:14119   */\n      swap1\n      pop\n        /* \"#utility.yul\":13956:14125   */\n      swap3\n      swap2\n      pop\n      pop\n      jump\t// out\n        /* \"#utility.yul\":14131:14279   */\n    tag_283:\n        /* \"#utility.yul\":14233:14244   */\n      0x00\n        /* \"#utility.yul\":14270:14273   */\n      dup2\n        /* \"#utility.yul\":14255:14273   */\n      swap1\n      pop\n        /* \"#utility.yul\":14131:14279   */\n      swap3\n      swap2\n      pop\n      pop\n      jump\t// out\n        /* \"#utility.yul\":14285:14590   */\n    tag_142:\n        /* \"#utility.yul\":14325:14328   */\n      0x00\n        /* \"#utility.yul\":14344:14364   */\n      tag_355\n        /* \"#utility.yul\":14362:14363   */\n      dup3\n        /* \"#utility.yul\":14344:14364   */\n      tag_356\n      jump\t// in\n    tag_355:\n        /* \"#utility.yul\":14339:14364   */\n      swap2\n      pop\n        /* \"#utility.yul\":14378:14398   */\n      tag_357\n        /* \"#utility.yul\":14396:14397   */\n      dup4\n        /* \"#utility.yul\":14378:14398   */\n      tag_356\n      jump\t// in\n    tag_357:\n        /* \"#utility.yul\":14373:14398   */\n      swap3\n      pop\n        /* \"#utility.yul\":14532:14533   */\n      dup3\n        /* \"#utility.yul\":14464:14530   */\n      0xffffffffffffffffffffffffffffffffffffffffffffffffffffffffffffffff\n        /* \"#utility.yul\":14460:14534   */\n      sub\n        /* \"#utility.yul\":14457:14458   */\n      dup3\n        /* \"#utility.yul\":14454:14535   */\n      gt\n        /* \"#utility.yul\":14451:14558   */\n      iszero\n      tag_358\n      jumpi\n        /* \"#utility.yul\":14538:14556   */\n      tag_359\n      tag_360\n      jump\t// in\n    tag_359:\n        /* \"#utility.yul\":14451:14558   */\n    tag_358:\n        /* \"#utility.yul\":14582:14583   */\n      dup3\n        /* \"#utility.yul\":14579:14580   */\n      dup3\n        /* \"#utility.yul\":14575:14584   */\n      add\n        /* \"#utility.yul\":14568:14584   */\n      swap1\n      pop\n        /* \"#utility.yul\":14285:14590   */\n      swap3\n      swap2\n      pop\n      pop\n      jump\t// out\n        /* \"#utility.yul\":14596:14944   */\n    tag_140:\n        /* \"#utility.yul\":14636:14643   */\n      0x00\n        /* \"#utility.yul\":14659:14679   */\n      tag_362\n        /* \"#utility.yul\":14677:14678   */\n      dup3\n        /* \"#utility.yul\":14659:14679   */\n      tag_356\n      jump\t// in\n    tag_362:\n        /* \"#utility.yul\":14654:14679   */\n      swap2\n      pop\n        /* \"#utility.yul\":14693:14713   */\n      tag_363\n        /* \"#utility.yul\":14711:14712   */\n      dup4\n        /* \"#utility.yul\":14693:14713   */\n      tag_356\n      jump\t// in\n    tag_363:\n        /* \"#utility.yul\":14688:14713   */\n      swap3\n      pop\n        /* \"#utility.yul\":14881:14882   */\n      dup2\n        /* \"#utility.yul\":14813:14879   */\n      0xffffffffffffffffffffffffffffffffffffffffffffffffffffffffffffffff\n        /* \"#utility.yul\":14809:14883   */\n      div\n        /* \"#utility.yul\":14806:14807   */\n      dup4\n        /* \"#utility.yul\":14803:14884   */\n      gt\n        /* \"#utility.yul\":14798:14799   */\n      dup3\n        /* \"#utility.yul\":14791:14800   */\n      iszero\n        /* \"#utility.yul\":14784:14801   */\n      iszero\n        /* \"#utility.yul\":14780:14885   */\n      and\n        /* \"#utility.yul\":14777:14908   */\n      iszero\n      tag_364\n      jumpi\n        /* \"#utility.yul\":14888:14906   */\n      tag_365\n      tag_360\n      jump\t// in\n    tag_365:\n        /* \"#utility.yul\":14777:14908   */\n    tag_364:\n        /* \"#utility.yul\":14936:14937   */\n      dup3\n        /* \"#utility.yul\":14933:14934   */\n      dup3\n        /* \"#utility.yul\":14929:14938   */\n      mul\n        /* \"#utility.yul\":14918:14938   */\n      swap1\n      pop\n        /* \"#utility.yul\":14596:14944   */\n      swap3\n      swap2\n      pop\n      pop\n      jump\t// out\n        /* \"#utility.yul\":14950:15046   */\n    tag_366:\n        /* \"#utility.yul\":14987:14994   */\n      0x00\n        /* \"#utility.yul\":15016:15040   */\n      tag_368\n        /* \"#utility.yul\":15034:15039   */\n      dup3\n        /* \"#utility.yul\":15016:15040   */\n      tag_369\n      jump\t// in\n    tag_368:\n        /* \"#utility.yul\":15005:15040   */\n      swap1\n      pop\n        /* \"#utility.yul\":14950:15046   */\n      swap2\n      swap1\n      pop\n      jump\t// out\n        /* \"#utility.yul\":15052:15142   */\n    tag_264:\n        /* \"#utility.yul\":15086:15093   */\n      0x00\n        /* \"#utility.yul\":15129:15134   */\n      dup2\n        /* \"#utility.yul\":15122:15135   */\n      iszero\n        /* \"#utility.yul\":15115:15136   */\n      iszero\n        /* \"#utility.yul\":15104:15136   */\n      swap1\n      pop\n        /* \"#utility.yul\":15052:15142   */\n      swap2\n      swap1\n      pop\n      jump\t// out\n        /* \"#utility.yul\":15148:15225   */\n    tag_268:\n        /* \"#utility.yul\":15185:15192   */\n      0x00\n        /* \"#utility.yul\":15214:15219   */\n      dup2\n        /* \"#utility.yul\":15203:15219   */\n      swap1\n      pop\n        /* \"#utility.yul\":15148:15225   */\n      swap2\n      swap1\n      pop\n      jump\t// out\n        /* \"#utility.yul\":15231:15380   */\n    tag_372:\n        /* \"#utility.yul\":15267:15274   */\n      0x00\n        /* \"#utility.yul\":15307:15373   */\n      0xffffffff00000000000000000000000000000000000000000000000000000000\n        /* \"#utility.yul\":15300:15305   */\n      dup3\n        /* \"#utility.yul\":15296:15374   */\n      and\n        /* \"#utility.yul\":15285:15374   */\n      swap1\n      pop\n        /* \"#utility.yul\":15231:15380   */\n      swap2\n      swap1\n      pop\n      jump\t// out\n        /* \"#utility.yul\":15386:15512   */\n    tag_369:\n        /* \"#utility.yul\":15423:15430   */\n      0x00\n        /* \"#utility.yul\":15463:15505   */\n      0xffffffffffffffffffffffffffffffffffffffff\n        /* \"#utility.yul\":15456:15461   */\n      dup3\n        /* \"#utility.yul\":15452:15506   */\n      and\n        /* \"#utility.yul\":15441:15506   */\n      swap1\n      pop\n        /* \"#utility.yul\":15386:15512   */\n      swap2\n      swap1\n      pop\n      jump\t// out\n        /* \"#utility.yul\":15518:15595   */\n    tag_356:\n        /* \"#utility.yul\":15555:15562   */\n      0x00\n        /* \"#utility.yul\":15584:15589   */\n      dup2\n        /* \"#utility.yul\":15573:15589   */\n      swap1\n      pop\n        /* \"#utility.yul\":15518:15595   */\n      swap2\n      swap1\n      pop\n      jump\t// out\n        /* \"#utility.yul\":15601:15755   */\n    tag_188:\n        /* \"#utility.yul\":15685:15691   */\n      dup3\n        /* \"#utility.yul\":15680:15683   */\n      dup2\n        /* \"#utility.yul\":15675:15678   */\n      dup4\n        /* \"#utility.yul\":15662:15692   */\n      calldatacopy\n        /* \"#utility.yul\":15747:15748   */\n      0x00\n        /* \"#utility.yul\":15738:15744   */\n      dup4\n        /* \"#utility.yul\":15733:15736   */\n      dup4\n        /* \"#utility.yul\":15729:15745   */\n      add\n        /* \"#utility.yul\":15722:15749   */\n      mstore\n        /* \"#utility.yul\":15601:15755   */\n      pop\n      pop\n      pop\n      jump\t// out\n        /* \"#utility.yul\":15761:16068   */\n    tag_276:\n        /* \"#utility.yul\":15829:15830   */\n      0x00\n        /* \"#utility.yul\":15839:15952   */\n    tag_378:\n        /* \"#utility.yul\":15853:15859   */\n      dup4\n        /* \"#utility.yul\":15850:15851   */\n      dup2\n        /* \"#utility.yul\":15847:15860   */\n      lt\n        /* \"#utility.yul\":15839:15952   */\n      iszero\n      tag_380\n      jumpi\n        /* \"#utility.yul\":15938:15939   */\n      dup1\n        /* \"#utility.yul\":15933:15936   */\n      dup3\n        /* \"#utility.yul\":15929:15940   */\n      add\n        /* \"#utility.yul\":15923:15941   */\n      mload\n        /* \"#utility.yul\":15919:15920   */\n      dup2\n        /* \"#utility.yul\":15914:15917   */\n      dup5\n        /* \"#utility.yul\":15910:15921   */\n      add\n        /* \"#utility.yul\":15903:15942   */\n      mstore\n        /* \"#utility.yul\":15875:15877   */\n      0x20\n        /* \"#utility.yul\":15872:15873   */\n      dup2\n        /* \"#utility.yul\":15868:15878   */\n      add\n        /* \"#utility.yul\":15863:15878   */\n      swap1\n      pop\n        /* \"#utility.yul\":15839:15952   */\n      jump(tag_378)\n    tag_380:\n        /* \"#utility.yul\":15970:15976   */\n      dup4\n        /* \"#utility.yul\":15967:15968   */\n      dup2\n        /* \"#utility.yul\":15964:15977   */\n      gt\n        /* \"#utility.yul\":15961:16062   */\n      iszero\n      tag_381\n      jumpi\n        /* \"#utility.yul\":16050:16051   */\n      0x00\n        /* \"#utility.yul\":16041:16047   */\n      dup5\n        /* \"#utility.yul\":16036:16039   */\n      dup5\n        /* \"#utility.yul\":16032:16048   */\n      add\n        /* \"#utility.yul\":16025:16052   */\n      mstore\n        /* \"#utility.yul\":15961:16062   */\n    tag_381:\n        /* \"#utility.yul\":15810:16068   */\n      pop\n        /* \"#utility.yul\":15761:16068   */\n      pop\n      pop\n      pop\n      jump\t// out\n        /* \"#utility.yul\":16074:16245   */\n    tag_160:\n        /* \"#utility.yul\":16113:16116   */\n      0x00\n        /* \"#utility.yul\":16136:16160   */\n      tag_383\n        /* \"#utility.yul\":16154:16159   */\n      dup3\n        /* \"#utility.yul\":16136:16160   */\n      tag_356\n      jump\t// in\n    tag_383:\n        /* \"#utility.yul\":16127:16160   */\n      swap2\n      pop\n        /* \"#utility.yul\":16182:16186   */\n      0x00\n        /* \"#utility.yul\":16175:16180   */\n      dup3\n        /* \"#utility.yul\":16172:16187   */\n      eq\n        /* \"#utility.yul\":16169:16210   */\n      iszero\n      tag_384\n      jumpi\n        /* \"#utility.yul\":16190:16208   */\n      tag_385\n      tag_360\n      jump\t// in\n    tag_385:\n        /* \"#utility.yul\":16169:16210   */\n    tag_384:\n        /* \"#utility.yul\":16237:16238   */\n      0x01\n        /* \"#utility.yul\":16230:16235   */\n      dup3\n        /* \"#utility.yul\":16226:16239   */\n      sub\n        /* \"#utility.yul\":16219:16239   */\n      swap1\n      pop\n        /* \"#utility.yul\":16074:16245   */\n      swap2\n      swap1\n      pop\n      jump\t// out\n        /* \"#utility.yul\":16251:16532   */\n    tag_338:\n        /* \"#utility.yul\":16334:16361   */\n      tag_387\n        /* \"#utility.yul\":16356:16360   */\n      dup3\n        /* \"#utility.yul\":16334:16361   */\n      tag_278\n      jump\t// in\n    tag_387:\n        /* \"#utility.yul\":16326:16332   */\n      dup2\n        /* \"#utility.yul\":16322:16362   */\n      add\n        /* \"#utility.yul\":16464:16470   */\n      dup2\n        /* \"#utility.yul\":16452:16462   */\n      dup2\n        /* \"#utility.yul\":16449:16471   */\n      lt\n        /* \"#utility.yul\":16428:16446   */\n      0xffffffffffffffff\n        /* \"#utility.yul\":16416:16426   */\n      dup3\n        /* \"#utility.yul\":16413:16447   */\n      gt\n        /* \"#utility.yul\":16410:16472   */\n      or\n        /* \"#utility.yul\":16407:16495   */\n      iszero\n      tag_388\n      jumpi\n        /* \"#utility.yul\":16475:16493   */\n      tag_389\n      tag_66\n      jump\t// in\n    tag_389:\n        /* \"#utility.yul\":16407:16495   */\n    tag_388:\n        /* \"#utility.yul\":16515:16525   */\n      dup1\n        /* \"#utility.yul\":16511:16513   */\n      0x40\n        /* \"#utility.yul\":16504:16526   */\n      mstore\n        /* \"#utility.yul\":16294:16532   */\n      pop\n        /* \"#utility.yul\":16251:16532   */\n      pop\n      pop\n      jump\t// out\n        /* \"#utility.yul\":16538:16771   */\n    tag_109:\n        /* \"#utility.yul\":16577:16580   */\n      0x00\n        /* \"#utility.yul\":16600:16624   */\n      tag_391\n        /* \"#utility.yul\":16618:16623   */\n      dup3\n        /* \"#utility.yul\":16600:16624   */\n      tag_356\n      jump\t// in\n    tag_391:\n        /* \"#utility.yul\":16591:16624   */\n      swap2\n      pop\n        /* \"#utility.yul\":16646:16712   */\n      0xffffffffffffffffffffffffffffffffffffffffffffffffffffffffffffffff\n        /* \"#utility.yul\":16639:16644   */\n      dup3\n        /* \"#utility.yul\":16636:16713   */\n      eq\n        /* \"#utility.yul\":16633:16736   */\n      iszero\n      tag_392\n      jumpi\n        /* \"#utility.yul\":16716:16734   */\n      tag_393\n      tag_360\n      jump\t// in\n    tag_393:\n        /* \"#utility.yul\":16633:16736   */\n    tag_392:\n        /* \"#utility.yul\":16763:16764   */\n      0x01\n        /* \"#utility.yul\":16756:16761   */\n      dup3\n        /* \"#utility.yul\":16752:16765   */\n      add\n        /* \"#utility.yul\":16745:16765   */\n      swap1\n      pop\n        /* \"#utility.yul\":16538:16771   */\n      swap2\n      swap1\n      pop\n      jump\t// out\n        /* \"#utility.yul\":16777:16957   */\n    tag_360:\n        /* \"#utility.yul\":16825:16902   */\n      0x4e487b7100000000000000000000000000000000000000000000000000000000\n        /* \"#utility.yul\":16822:16823   */\n      0x00\n        /* \"#utility.yul\":16815:16903   */\n      mstore\n        /* \"#utility.yul\":16922:16926   */\n      0x11\n        /* \"#utility.yul\":16919:16920   */\n      0x04\n        /* \"#utility.yul\":16912:16927   */\n      mstore\n        /* \"#utility.yul\":16946:16950   */\n      0x24\n        /* \"#utility.yul\":16943:16944   */\n      0x00\n        /* \"#utility.yul\":16936:16951   */\n      revert\n        /* \"#utility.yul\":16963:17143   */\n    tag_70:\n        /* \"#utility.yul\":17011:17088   */\n      0x4e487b7100000000000000000000000000000000000000000000000000000000\n        /* \"#utility.yul\":17008:17009   */\n      0x00\n        /* \"#utility.yul\":17001:17089   */\n      mstore\n        /* \"#utility.yul\":17108:17112   */\n      0x32\n        /* \"#utility.yul\":17105:17106   */\n      0x04\n        /* \"#utility.yul\":17098:17113   */\n      mstore\n        /* \"#utility.yul\":17132:17136   */\n      0x24\n        /* \"#utility.yul\":17129:17130   */\n      0x00\n        /* \"#utility.yul\":17122:17137   */\n      revert\n        /* \"#utility.yul\":17149:17329   */\n    tag_66:\n        /* \"#utility.yul\":17197:17274   */\n      0x4e487b7100000000000000000000000000000000000000000000000000000000\n        /* \"#utility.yul\":17194:17195   */\n      0x00\n        /* \"#utility.yul\":17187:17275   */\n      mstore\n        /* \"#utility.yul\":17294:17298   */\n      0x41\n        /* \"#utility.yul\":17291:17292   */\n      0x04\n        /* \"#utility.yul\":17284:17299   */\n      mstore\n        /* \"#utility.yul\":17318:17322   */\n      0x24\n        /* \"#utility.yul\":17315:17316   */\n      0x00\n        /* \"#utility.yul\":17308:17323   */\n      revert\n        /* \"#utility.yul\":17335:17452   */\n    tag_205:\n        /* \"#utility.yul\":17444:17445   */\n      0x00\n        /* \"#utility.yul\":17441:17442   */\n      dup1\n        /* \"#utility.yul\":17434:17446   */\n      revert\n        /* \"#utility.yul\":17458:17575   */\n    tag_173:\n        /* \"#utility.yul\":17567:17568   */\n      0x00\n        /* \"#utility.yul\":17564:17565   */\n      dup1\n        /* \"#utility.yul\":17557:17569   */\n      revert\n        /* \"#utility.yul\":17581:17698   */\n    tag_186:\n        /* \"#utility.yul\":17690:17691   */\n      0x00\n        /* \"#utility.yul\":17687:17688   */\n      dup1\n        /* \"#utility.yul\":17680:17692   */\n      revert\n        /* \"#utility.yul\":17704:17821   */\n    tag_234:\n        /* \"#utility.yul\":17813:17814   */\n      0x00\n        /* \"#utility.yul\":17810:17811   */\n      dup1\n        /* \"#utility.yul\":17803:17815   */\n      revert\n        /* \"#utility.yul\":17827:17944   */\n    tag_231:\n        /* \"#utility.yul\":17936:17937   */\n      0x00\n        /* \"#utility.yul\":17933:17934   */\n      dup1\n        /* \"#utility.yul\":17926:17938   */\n      revert\n        /* \"#utility.yul\":17950:18052   */\n    tag_278:\n        /* \"#utility.yul\":17991:17997   */\n      0x00\n        /* \"#utility.yul\":18042:18044   */\n      0x1f\n        /* \"#utility.yul\":18038:18045   */\n      not\n        /* \"#utility.yul\":18033:18035   */\n      0x1f\n        /* \"#utility.yul\":18026:18031   */\n      dup4\n        /* \"#utility.yul\":18022:18036   */\n      add\n        /* \"#utility.yul\":18018:18046   */\n      and\n        /* \"#utility.yul\":18008:18046   */\n      swap1\n      pop\n        /* \"#utility.yul\":17950:18052   */\n      swap2\n      swap1\n      pop\n      jump\t// out\n        /* \"#utility.yul\":18058:18240   */\n    tag_289:\n        /* \"#utility.yul\":18198:18232   */\n      0x537472696e67733a20686578206c656e67746820696e73756666696369656e74\n        /* \"#utility.yul\":18194:18195   */\n      0x00\n        /* \"#utility.yul\":18186:18192   */\n      dup3\n        /* \"#utility.yul\":18182:18196   */\n      add\n        /* \"#utility.yul\":18175:18233   */\n      mstore\n        /* \"#utility.yul\":18058:18240   */\n      pop\n      jump\t// out\n        /* \"#utility.yul\":18246:18408   */\n    tag_294:\n        /* \"#utility.yul\":18386:18400   */\n      0x68656c6c6f20776f726c642e0000000000000000000000000000000000000000\n        /* \"#utility.yul\":18382:18383   */\n      0x00\n        /* \"#utility.yul\":18374:18380   */\n      dup3\n        /* \"#utility.yul\":18370:18384   */\n      add\n        /* \"#utility.yul\":18363:18401   */\n      mstore\n        /* \"#utility.yul\":18246:18408   */\n      pop\n      jump\t// out\n        /* \"#utility.yul\":18414:18592   */\n    tag_299:\n        /* \"#utility.yul\":18554:18584   */\n      0x74686973207065726d697373696f6e206e6f742066726f6d20796f7500000000\n        /* \"#utility.yul\":18550:18551   */\n      0x00\n        /* \"#utility.yul\":18542:18548   */\n      dup3\n        /* \"#utility.yul\":18538:18552   */\n      add\n        /* \"#utility.yul\":18531:18585   */\n      mstore\n        /* \"#utility.yul\":18414:18592   */\n      pop\n      jump\t// out\n        /* \"#utility.yul\":18598:18771   */\n    tag_304:\n        /* \"#utility.yul\":18738:18763   */\n      0x416363657373436f6e74726f6c3a206163636f756e7420000000000000000000\n        /* \"#utility.yul\":18734:18735   */\n      0x00\n        /* \"#utility.yul\":18726:18732   */\n      dup3\n        /* \"#utility.yul\":18722:18736   */\n      add\n        /* \"#utility.yul\":18715:18764   */\n      mstore\n        /* \"#utility.yul\":18598:18771   */\n      pop\n      jump\t// out\n        /* \"#utility.yul\":18777:18944   */\n    tag_309:\n        /* \"#utility.yul\":18917:18936   */\n      0x206973206d697373696e6720726f6c6520000000000000000000000000000000\n        /* \"#utility.yul\":18913:18914   */\n      0x00\n        /* \"#utility.yul\":18905:18911   */\n      dup3\n        /* \"#utility.yul\":18901:18915   */\n      add\n        /* \"#utility.yul\":18894:18937   */\n      mstore\n        /* \"#utility.yul\":18777:18944   */\n      pop\n      jump\t// out\n        /* \"#utility.yul\":18950:19184   */\n    tag_314:\n        /* \"#utility.yul\":19090:19124   */\n      0x416363657373436f6e74726f6c3a2063616e206f6e6c792072656e6f756e6365\n        /* \"#utility.yul\":19086:19087   */\n      0x00\n        /* \"#utility.yul\":19078:19084   */\n      dup3\n        /* \"#utility.yul\":19074:19088   */\n      add\n        /* \"#utility.yul\":19067:19125   */\n      mstore\n        /* \"#utility.yul\":19159:19176   */\n      0x20726f6c657320666f722073656c660000000000000000000000000000000000\n        /* \"#utility.yul\":19154:19156   */\n      0x20\n        /* \"#utility.yul\":19146:19152   */\n      dup3\n        /* \"#utility.yul\":19142:19157   */\n      add\n        /* \"#utility.yul\":19135:19177   */\n      mstore\n        /* \"#utility.yul\":18950:19184   */\n      pop\n      jump\t// out\n        /* \"#utility.yul\":19190:19312   */\n    tag_200:\n        /* \"#utility.yul\":19263:19287   */\n      tag_410\n        /* \"#utility.yul\":19281:19286   */\n      dup2\n        /* \"#utility.yul\":19263:19287   */\n      tag_366\n      jump\t// in\n    tag_410:\n        /* \"#utility.yul\":19256:19261   */\n      dup2\n        /* \"#utility.yul\":19253:19288   */\n      eq\n        /* \"#utility.yul\":19243:19306   */\n      tag_411\n      jumpi\n        /* \"#utility.yul\":19302:19303   */\n      0x00\n        /* \"#utility.yul\":19299:19300   */\n      dup1\n        /* \"#utility.yul\":19292:19304   */\n      revert\n        /* \"#utility.yul\":19243:19306   */\n    tag_411:\n        /* \"#utility.yul\":19190:19312   */\n      pop\n      jump\t// out\n        /* \"#utility.yul\":19318:19434   */\n    tag_209:\n        /* \"#utility.yul\":19388:19409   */\n      tag_413\n        /* \"#utility.yul\":19403:19408   */\n      dup2\n        /* \"#utility.yul\":19388:19409   */\n      tag_264\n      jump\t// in\n    tag_413:\n        /* \"#utility.yul\":19381:19386   */\n      dup2\n        /* \"#utility.yul\":19378:19410   */\n      eq\n        /* \"#utility.yul\":19368:19428   */\n      tag_414\n      jumpi\n        /* \"#utility.yul\":19424:19425   */\n      0x00\n        /* \"#utility.yul\":19421:19422   */\n      dup1\n        /* \"#utility.yul\":19414:19426   */\n      revert\n        /* \"#utility.yul\":19368:19428   */\n    tag_414:\n        /* \"#utility.yul\":19318:19434   */\n      pop\n      jump\t// out\n        /* \"#utility.yul\":19440:19562   */\n    tag_213:\n        /* \"#utility.yul\":19513:19537   */\n      tag_416\n        /* \"#utility.yul\":19531:19536   */\n      dup2\n        /* \"#utility.yul\":19513:19537   */\n      tag_268\n      jump\t// in\n    tag_416:\n        /* \"#utility.yul\":19506:19511   */\n      dup2\n        /* \"#utility.yul\":19503:19538   */\n      eq\n        /* \"#utility.yul\":19493:19556   */\n      tag_417\n      jumpi\n        /* \"#utility.yul\":19552:19553   */\n      0x00\n        /* \"#utility.yul\":19549:19550   */\n      dup1\n        /* \"#utility.yul\":19542:19554   */\n      revert\n        /* \"#utility.yul\":19493:19556   */\n    tag_417:\n        /* \"#utility.yul\":19440:19562   */\n      pop\n      jump\t// out\n        /* \"#utility.yul\":19568:19688   */\n    tag_217:\n        /* \"#utility.yul\":19640:19663   */\n      tag_419\n        /* \"#utility.yul\":19657:19662   */\n      dup2\n        /* \"#utility.yul\":19640:19663   */\n      tag_372\n      jump\t// in\n    tag_419:\n        /* \"#utility.yul\":19633:19638   */\n      dup2\n        /* \"#utility.yul\":19630:19664   */\n      eq\n        /* \"#utility.yul\":19620:19682   */\n      tag_420\n      jumpi\n        /* \"#utility.yul\":19678:19679   */\n      0x00\n        /* \"#utility.yul\":19675:19676   */\n      dup1\n        /* \"#utility.yul\":19668:19680   */\n      revert\n        /* \"#utility.yul\":19620:19682   */\n    tag_420:\n        /* \"#utility.yul\":19568:19688   */\n      pop\n      jump\t// out\n\n    auxdata: 0xa2646970667358221220506dcca2d309374a049eef00022d3b4eca1964a93def2a701c1d0fb4b949c41564736f6c63430008070033\n}\n",
				"bytecode": {
					"linkReferences": {},
					"object": "608060405234801561001057600080fd5b50611607806100206000396000f3fe608060405234801561001057600080fd5b50600436106100a95760003560e01c80633ca8b1a7116100715780633ca8b1a71461015057806361cb5a011461016c57806391d1485414610188578063a217fddf146101b8578063ac5d4f62146101d6578063d547741f14610206576100a9565b806301ffc9a7146100ae5780631a41fc38146100de578063248a9ca3146100e85780632f2ff15d1461011857806336568abe14610134575b600080fd5b6100c860048036038101906100c39190610d89565b610222565b6040516100d59190610fdc565b60405180910390f35b6100e661029c565b005b61010260048036038101906100fd9190610d1c565b6103ba565b60405161010f9190610ff7565b60405180910390f35b610132600480360381019061012d9190610d49565b6103d9565b005b61014e60048036038101906101499190610d49565b6103fa565b005b61016a60048036038101906101659190610db6565b61047d565b005b61018660048036038101906101819190610dff565b6104b7565b005b6101a2600480360381019061019d9190610d49565b6104f1565b6040516101af9190610fdc565b60405180910390f35b6101c061055b565b6040516101cd9190610ff7565b60405180910390f35b6101f060048036038101906101eb9190610cd3565b610562565b6040516101fd9190610fdc565b60405180910390f35b610220600480360381019061021b9190610d49565b6105c0565b005b60007f7965db0b000000000000000000000000000000000000000000000000000000007bffffffffffffffffffffffffffffffffffffffffffffffffffffffff1916827bffffffffffffffffffffffffffffffffffffffffffffffffffffffff191614806102955750610294826105e1565b5b9050919050565b6000600267ffffffffffffffff8111156102b9576102b8611400565b5b6040519080825280602002602001820160405280156102e75781602001602082028036833780820191505090505b509050600181600081518110610300576102ff6113d1565b5b602002602001019015159081151581525050600081600181518110610328576103276113d1565b5b60200260200101901515908115158152505061034381610562565b610382576040517f08c379a000000000000000000000000000000000000000000000000000000000815260040161037990611074565b60405180910390fd5b7f63e9370c5b01ee8896e536f1f2fc902c945d630eb37faf0981fb9146088fc4236040516103af90611054565b60405180910390a150565b6000806000838152602001908152602001600020600101549050919050565b6103e2826103ba565b6103eb8161064b565b6103f5838361065f565b505050565b61040261073f565b73ffffffffffffffffffffffffffffffffffffffff168173ffffffffffffffffffffffffffffffffffffffff161461046f576040517f08c379a000000000000000000000000000000000000000000000000000000000815260040161046690611094565b60405180910390fd5b6104798282610747565b5050565b7f63e9370c5b01ee8896e536f1f2fc902c945d630eb37faf0981fb9146088fc423816040516104ac9190611012565b60405180910390a150565b7f63e9370c5b01ee8896e536f1f2fc902c945d630eb37faf0981fb9146088fc423816040516104e69190611012565b60405180910390a150565b600080600084815260200190815260200160002060000160008373ffffffffffffffffffffffffffffffffffffffff1673ffffffffffffffffffffffffffffffffffffffff16815260200190815260200160002060009054906101000a900460ff16905092915050565b6000801b81565b6000806000905060005b83518110156105b6576001151584828151811061058c5761058b6113d1565b5b6020026020010151151514156105a557600191506105b6565b806105af90611359565b905061056c565b5080915050919050565b6105c9826103ba565b6105d28161064b565b6105dc8383610747565b505050565b60007f01ffc9a7000000000000000000000000000000000000000000000000000000007bffffffffffffffffffffffffffffffffffffffffffffffffffffffff1916827bffffffffffffffffffffffffffffffffffffffffffffffffffffffff1916149050919050565b61065c8161065761073f565b610828565b50565b61066982826104f1565b61073b57600160008084815260200190815260200160002060000160008373ffffffffffffffffffffffffffffffffffffffff1673ffffffffffffffffffffffffffffffffffffffff16815260200190815260200160002060006101000a81548160ff0219169083151502179055506106e061073f565b73ffffffffffffffffffffffffffffffffffffffff168173ffffffffffffffffffffffffffffffffffffffff16837f2f8788117e7eff1d82e926ec794901d17c78024a50270940304540a733656f0d60405160405180910390a45b5050565b600033905090565b61075182826104f1565b1561082457600080600084815260200190815260200160002060000160008373ffffffffffffffffffffffffffffffffffffffff1673ffffffffffffffffffffffffffffffffffffffff16815260200190815260200160002060006101000a81548160ff0219169083151502179055506107c961073f565b73ffffffffffffffffffffffffffffffffffffffff168173ffffffffffffffffffffffffffffffffffffffff16837ff6391f5c32d9c69d2a47ea670b442974b53935d1edc7fd64eb21e047a839171b60405160405180910390a45b5050565b61083282826104f1565b6108c1576108578173ffffffffffffffffffffffffffffffffffffffff1660146108c5565b6108658360001c60206108c5565b604051602001610876929190610fa2565b6040516020818303038152906040526040517f08c379a00000000000000000000000000000000000000000000000000000000081526004016108b89190611012565b60405180910390fd5b5050565b6060600060028360026108d891906111e4565b6108e2919061118e565b67ffffffffffffffff8111156108fb576108fa611400565b5b6040519080825280601f01601f19166020018201604052801561092d5781602001600182028036833780820191505090505b5090507f300000000000000000000000000000000000000000000000000000000000000081600081518110610965576109646113d1565b5b60200101907effffffffffffffffffffffffffffffffffffffffffffffffffffffffffffff1916908160001a9053507f7800000000000000000000000000000000000000000000000000000000000000816001815181106109c9576109c86113d1565b5b60200101907effffffffffffffffffffffffffffffffffffffffffffffffffffffffffffff1916908160001a90535060006001846002610a0991906111e4565b610a13919061118e565b90505b6001811115610ab3577f3031323334353637383961626364656600000000000000000000000000000000600f861660108110610a5557610a546113d1565b5b1a60f81b828281518110610a6c57610a6b6113d1565b5b60200101907effffffffffffffffffffffffffffffffffffffffffffffffffffffffffffff1916908160001a905350600485901c945080610aac906112fe565b9050610a16565b5060008414610af7576040517f08c379a0000000000000000000000000000000000000000000000000000000008152600401610aee90611034565b60405180910390fd5b8091505092915050565b6000610b14610b0f846110d9565b6110b4565b90508083825260208201905082856020860282011115610b3757610b36611434565b5b60005b85811015610b675781610b4d8882610c38565b845260208401935060208301925050600181019050610b3a565b5050509392505050565b6000610b84610b7f84611105565b6110b4565b905082815260208101848484011115610ba057610b9f611439565b5b610bab8482856112bc565b509392505050565b6000610bc6610bc184611136565b6110b4565b905082815260208101848484011115610be257610be1611439565b5b610bed8482856112bc565b509392505050565b600081359050610c0481611575565b92915050565b600082601f830112610c1f57610c1e61142f565b5b8135610c2f848260208601610b01565b91505092915050565b600081359050610c478161158c565b92915050565b600081359050610c5c816115a3565b92915050565b600081359050610c71816115ba565b92915050565b600082601f830112610c8c57610c8b61142f565b5b8135610c9c848260208601610b71565b91505092915050565b600082601f830112610cba57610cb961142f565b5b8135610cca848260208601610bb3565b91505092915050565b600060208284031215610ce957610ce8611443565b5b600082013567ffffffffffffffff811115610d0757610d0661143e565b5b610d1384828501610c0a565b91505092915050565b600060208284031215610d3257610d31611443565b5b6000610d4084828501610c4d565b91505092915050565b60008060408385031215610d6057610d5f611443565b5b6000610d6e85828601610c4d565b9250506020610d7f85828601610bf5565b9150509250929050565b600060208284031215610d9f57610d9e611443565b5b6000610dad84828501610c62565b91505092915050565b600060208284031215610dcc57610dcb611443565b5b600082013567ffffffffffffffff811115610dea57610de961143e565b5b610df684828501610c77565b91505092915050565b600060208284031215610e1557610e14611443565b5b600082013567ffffffffffffffff811115610e3357610e3261143e565b5b610e3f84828501610ca5565b91505092915050565b610e5181611250565b82525050565b610e608161125c565b82525050565b6000610e7182611167565b610e7b8185611172565b9350610e8b8185602086016112cb565b610e9481611448565b840191505092915050565b6000610eaa82611167565b610eb48185611183565b9350610ec48185602086016112cb565b80840191505092915050565b6000610edd602083611172565b9150610ee882611459565b602082019050919050565b6000610f00600c83611172565b9150610f0b82611482565b602082019050919050565b6000610f23601c83611172565b9150610f2e826114ab565b602082019050919050565b6000610f46601783611183565b9150610f51826114d4565b601782019050919050565b6000610f69601183611183565b9150610f74826114fd565b601182019050919050565b6000610f8c602f83611172565b9150610f9782611526565b604082019050919050565b6000610fad82610f39565b9150610fb98285610e9f565b9150610fc482610f5c565b9150610fd08284610e9f565b91508190509392505050565b6000602082019050610ff16000830184610e48565b92915050565b600060208201905061100c6000830184610e57565b92915050565b6000602082019050818103600083015261102c8184610e66565b905092915050565b6000602082019050818103600083015261104d81610ed0565b9050919050565b6000602082019050818103600083015261106d81610ef3565b9050919050565b6000602082019050818103600083015261108d81610f16565b9050919050565b600060208201905081810360008301526110ad81610f7f565b9050919050565b60006110be6110cf565b90506110ca8282611328565b919050565b6000604051905090565b600067ffffffffffffffff8211156110f4576110f3611400565b5b602082029050602081019050919050565b600067ffffffffffffffff8211156111205761111f611400565b5b61112982611448565b9050602081019050919050565b600067ffffffffffffffff82111561115157611150611400565b5b61115a82611448565b9050602081019050919050565b600081519050919050565b600082825260208201905092915050565b600081905092915050565b6000611199826112b2565b91506111a4836112b2565b9250827fffffffffffffffffffffffffffffffffffffffffffffffffffffffffffffffff038211156111d9576111d86113a2565b5b828201905092915050565b60006111ef826112b2565b91506111fa836112b2565b9250817fffffffffffffffffffffffffffffffffffffffffffffffffffffffffffffffff0483118215151615611233576112326113a2565b5b828202905092915050565b600061124982611292565b9050919050565b60008115159050919050565b6000819050919050565b60007fffffffff0000000000000000000000000000000000000000000000000000000082169050919050565b600073ffffffffffffffffffffffffffffffffffffffff82169050919050565b6000819050919050565b82818337600083830152505050565b60005b838110156112e95780820151818401526020810190506112ce565b838111156112f8576000848401525b50505050565b6000611309826112b2565b9150600082141561131d5761131c6113a2565b5b600182039050919050565b61133182611448565b810181811067ffffffffffffffff821117156113505761134f611400565b5b80604052505050565b6000611364826112b2565b91507fffffffffffffffffffffffffffffffffffffffffffffffffffffffffffffffff821415611397576113966113a2565b5b600182019050919050565b7f4e487b7100000000000000000000000000000000000000000000000000000000600052601160045260246000fd5b7f4e487b7100000000000000000000000000000000000000000000000000000000600052603260045260246000fd5b7f4e487b7100000000000000000000000000000000000000000000000000000000600052604160045260246000fd5b600080fd5b600080fd5b600080fd5b600080fd5b600080fd5b6000601f19601f8301169050919050565b7f537472696e67733a20686578206c656e67746820696e73756666696369656e74600082015250565b7f68656c6c6f20776f726c642e0000000000000000000000000000000000000000600082015250565b7f74686973207065726d697373696f6e206e6f742066726f6d20796f7500000000600082015250565b7f416363657373436f6e74726f6c3a206163636f756e7420000000000000000000600082015250565b7f206973206d697373696e6720726f6c6520000000000000000000000000000000600082015250565b7f416363657373436f6e74726f6c3a2063616e206f6e6c792072656e6f756e636560008201527f20726f6c657320666f722073656c660000000000000000000000000000000000602082015250565b61157e8161123e565b811461158957600080fd5b50565b61159581611250565b81146115a057600080fd5b50565b6115ac8161125c565b81146115b757600080fd5b50565b6115c381611266565b81146115ce57600080fd5b5056fea2646970667358221220506dcca2d309374a049eef00022d3b4eca1964a93def2a701c1d0fb4b949c41564736f6c63430008070033",
					"opcodes": "PUSH1 0x80 PUSH1 0x40 MSTORE CALLVALUE DUP1 ISZERO PUSH2 0x10 JUMPI PUSH1 0x0 DUP1 REVERT JUMPDEST POP PUSH2 0x1607 DUP1 PUSH2 0x20 PUSH1 0x0 CODECOPY PUSH1 0x0 RETURN INVALID PUSH1 0x80 PUSH1 0x40 MSTORE CALLVALUE DUP1 ISZERO PUSH2 0x10 JUMPI PUSH1 0x0 DUP1 REVERT JUMPDEST POP PUSH1 0x4 CALLDATASIZE LT PUSH2 0xA9 JUMPI PUSH1 0x0 CALLDATALOAD PUSH1 0xE0 SHR DUP1 PUSH4 0x3CA8B1A7 GT PUSH2 0x71 JUMPI DUP1 PUSH4 0x3CA8B1A7 EQ PUSH2 0x150 JUMPI DUP1 PUSH4 0x61CB5A01 EQ PUSH2 0x16C JUMPI DUP1 PUSH4 0x91D14854 EQ PUSH2 0x188 JUMPI DUP1 PUSH4 0xA217FDDF EQ PUSH2 0x1B8 JUMPI DUP1 PUSH4 0xAC5D4F62 EQ PUSH2 0x1D6 JUMPI DUP1 PUSH4 0xD547741F EQ PUSH2 0x206 JUMPI PUSH2 0xA9 JUMP JUMPDEST DUP1 PUSH4 0x1FFC9A7 EQ PUSH2 0xAE JUMPI DUP1 PUSH4 0x1A41FC38 EQ PUSH2 0xDE JUMPI DUP1 PUSH4 0x248A9CA3 EQ PUSH2 0xE8 JUMPI DUP1 PUSH4 0x2F2FF15D EQ PUSH2 0x118 JUMPI DUP1 PUSH4 0x36568ABE EQ PUSH2 0x134 JUMPI JUMPDEST PUSH1 0x0 DUP1 REVERT JUMPDEST PUSH2 0xC8 PUSH1 0x4 DUP1 CALLDATASIZE SUB DUP2 ADD SWAP1 PUSH2 0xC3 SWAP2 SWAP1 PUSH2 0xD89 JUMP JUMPDEST PUSH2 0x222 JUMP JUMPDEST PUSH1 0x40 MLOAD PUSH2 0xD5 SWAP2 SWAP1 PUSH2 0xFDC JUMP JUMPDEST PUSH1 0x40 MLOAD DUP1 SWAP2 SUB SWAP1 RETURN JUMPDEST PUSH2 0xE6 PUSH2 0x29C JUMP JUMPDEST STOP JUMPDEST PUSH2 0x102 PUSH1 0x4 DUP1 CALLDATASIZE SUB DUP2 ADD SWAP1 PUSH2 0xFD SWAP2 SWAP1 PUSH2 0xD1C JUMP JUMPDEST PUSH2 0x3BA JUMP JUMPDEST PUSH1 0x40 MLOAD PUSH2 0x10F SWAP2 SWAP1 PUSH2 0xFF7 JUMP JUMPDEST PUSH1 0x40 MLOAD DUP1 SWAP2 SUB SWAP1 RETURN JUMPDEST PUSH2 0x132 PUSH1 0x4 DUP1 CALLDATASIZE SUB DUP2 ADD SWAP1 PUSH2 0x12D SWAP2 SWAP1 PUSH2 0xD49 JUMP JUMPDEST PUSH2 0x3D9 JUMP JUMPDEST STOP JUMPDEST PUSH2 0x14E PUSH1 0x4 DUP1 CALLDATASIZE SUB DUP2 ADD SWAP1 PUSH2 0x149 SWAP2 SWAP1 PUSH2 0xD49 JUMP JUMPDEST PUSH2 0x3FA JUMP JUMPDEST STOP JUMPDEST PUSH2 0x16A PUSH1 0x4 DUP1 CALLDATASIZE SUB DUP2 ADD SWAP1 PUSH2 0x165 SWAP2 SWAP1 PUSH2 0xDB6 JUMP JUMPDEST PUSH2 0x47D JUMP JUMPDEST STOP JUMPDEST PUSH2 0x186 PUSH1 0x4 DUP1 CALLDATASIZE SUB DUP2 ADD SWAP1 PUSH2 0x181 SWAP2 SWAP1 PUSH2 0xDFF JUMP JUMPDEST PUSH2 0x4B7 JUMP JUMPDEST STOP JUMPDEST PUSH2 0x1A2 PUSH1 0x4 DUP1 CALLDATASIZE SUB DUP2 ADD SWAP1 PUSH2 0x19D SWAP2 SWAP1 PUSH2 0xD49 JUMP JUMPDEST PUSH2 0x4F1 JUMP JUMPDEST PUSH1 0x40 MLOAD PUSH2 0x1AF SWAP2 SWAP1 PUSH2 0xFDC JUMP JUMPDEST PUSH1 0x40 MLOAD DUP1 SWAP2 SUB SWAP1 RETURN JUMPDEST PUSH2 0x1C0 PUSH2 0x55B JUMP JUMPDEST PUSH1 0x40 MLOAD PUSH2 0x1CD SWAP2 SWAP1 PUSH2 0xFF7 JUMP JUMPDEST PUSH1 0x40 MLOAD DUP1 SWAP2 SUB SWAP1 RETURN JUMPDEST PUSH2 0x1F0 PUSH1 0x4 DUP1 CALLDATASIZE SUB DUP2 ADD SWAP1 PUSH2 0x1EB SWAP2 SWAP1 PUSH2 0xCD3 JUMP JUMPDEST PUSH2 0x562 JUMP JUMPDEST PUSH1 0x40 MLOAD PUSH2 0x1FD SWAP2 SWAP1 PUSH2 0xFDC JUMP JUMPDEST PUSH1 0x40 MLOAD DUP1 SWAP2 SUB SWAP1 RETURN JUMPDEST PUSH2 0x220 PUSH1 0x4 DUP1 CALLDATASIZE SUB DUP2 ADD SWAP1 PUSH2 0x21B SWAP2 SWAP1 PUSH2 0xD49 JUMP JUMPDEST PUSH2 0x5C0 JUMP JUMPDEST STOP JUMPDEST PUSH1 0x0 PUSH32 0x7965DB0B00000000000000000000000000000000000000000000000000000000 PUSH28 0xFFFFFFFFFFFFFFFFFFFFFFFFFFFFFFFFFFFFFFFFFFFFFFFFFFFFFFFF NOT AND DUP3 PUSH28 0xFFFFFFFFFFFFFFFFFFFFFFFFFFFFFFFFFFFFFFFFFFFFFFFFFFFFFFFF NOT AND EQ DUP1 PUSH2 0x295 JUMPI POP PUSH2 0x294 DUP3 PUSH2 0x5E1 JUMP JUMPDEST JUMPDEST SWAP1 POP SWAP2 SWAP1 POP JUMP JUMPDEST PUSH1 0x0 PUSH1 0x2 PUSH8 0xFFFFFFFFFFFFFFFF DUP2 GT ISZERO PUSH2 0x2B9 JUMPI PUSH2 0x2B8 PUSH2 0x1400 JUMP JUMPDEST JUMPDEST PUSH1 0x40 MLOAD SWAP1 DUP1 DUP3 MSTORE DUP1 PUSH1 0x20 MUL PUSH1 0x20 ADD DUP3 ADD PUSH1 0x40 MSTORE DUP1 ISZERO PUSH2 0x2E7 JUMPI DUP2 PUSH1 0x20 ADD PUSH1 0x20 DUP3 MUL DUP1 CALLDATASIZE DUP4 CALLDATACOPY DUP1 DUP3 ADD SWAP2 POP POP SWAP1 POP JUMPDEST POP SWAP1 POP PUSH1 0x1 DUP2 PUSH1 0x0 DUP2 MLOAD DUP2 LT PUSH2 0x300 JUMPI PUSH2 0x2FF PUSH2 0x13D1 JUMP JUMPDEST JUMPDEST PUSH1 0x20 MUL PUSH1 0x20 ADD ADD SWAP1 ISZERO ISZERO SWAP1 DUP2 ISZERO ISZERO DUP2 MSTORE POP POP PUSH1 0x0 DUP2 PUSH1 0x1 DUP2 MLOAD DUP2 LT PUSH2 0x328 JUMPI PUSH2 0x327 PUSH2 0x13D1 JUMP JUMPDEST JUMPDEST PUSH1 0x20 MUL PUSH1 0x20 ADD ADD SWAP1 ISZERO ISZERO SWAP1 DUP2 ISZERO ISZERO DUP2 MSTORE POP POP PUSH2 0x343 DUP2 PUSH2 0x562 JUMP JUMPDEST PUSH2 0x382 JUMPI PUSH1 0x40 MLOAD PUSH32 0x8C379A000000000000000000000000000000000000000000000000000000000 DUP2 MSTORE PUSH1 0x4 ADD PUSH2 0x379 SWAP1 PUSH2 0x1074 JUMP JUMPDEST PUSH1 0x40 MLOAD DUP1 SWAP2 SUB SWAP1 REVERT JUMPDEST PUSH32 0x63E9370C5B01EE8896E536F1F2FC902C945D630EB37FAF0981FB9146088FC423 PUSH1 0x40 MLOAD PUSH2 0x3AF SWAP1 PUSH2 0x1054 JUMP JUMPDEST PUSH1 0x40 MLOAD DUP1 SWAP2 SUB SWAP1 LOG1 POP JUMP JUMPDEST PUSH1 0x0 DUP1 PUSH1 0x0 DUP4 DUP2 MSTORE PUSH1 0x20 ADD SWAP1 DUP2 MSTORE PUSH1 0x20 ADD PUSH1 0x0 KECCAK256 PUSH1 0x1 ADD SLOAD SWAP1 POP SWAP2 SWAP1 POP JUMP JUMPDEST PUSH2 0x3E2 DUP3 PUSH2 0x3BA JUMP JUMPDEST PUSH2 0x3EB DUP2 PUSH2 0x64B JUMP JUMPDEST PUSH2 0x3F5 DUP4 DUP4 PUSH2 0x65F JUMP JUMPDEST POP POP POP JUMP JUMPDEST PUSH2 0x402 PUSH2 0x73F JUMP JUMPDEST PUSH20 0xFFFFFFFFFFFFFFFFFFFFFFFFFFFFFFFFFFFFFFFF AND DUP2 PUSH20 0xFFFFFFFFFFFFFFFFFFFFFFFFFFFFFFFFFFFFFFFF AND EQ PUSH2 0x46F JUMPI PUSH1 0x40 MLOAD PUSH32 0x8C379A000000000000000000000000000000000000000000000000000000000 DUP2 MSTORE PUSH1 0x4 ADD PUSH2 0x466 SWAP1 PUSH2 0x1094 JUMP JUMPDEST PUSH1 0x40 MLOAD DUP1 SWAP2 SUB SWAP1 REVERT JUMPDEST PUSH2 0x479 DUP3 DUP3 PUSH2 0x747 JUMP JUMPDEST POP POP JUMP JUMPDEST PUSH32 0x63E9370C5B01EE8896E536F1F2FC902C945D630EB37FAF0981FB9146088FC423 DUP2 PUSH1 0x40 MLOAD PUSH2 0x4AC SWAP2 SWAP1 PUSH2 0x1012 JUMP JUMPDEST PUSH1 0x40 MLOAD DUP1 SWAP2 SUB SWAP1 LOG1 POP JUMP JUMPDEST PUSH32 0x63E9370C5B01EE8896E536F1F2FC902C945D630EB37FAF0981FB9146088FC423 DUP2 PUSH1 0x40 MLOAD PUSH2 0x4E6 SWAP2 SWAP1 PUSH2 0x1012 JUMP JUMPDEST PUSH1 0x40 MLOAD DUP1 SWAP2 SUB SWAP1 LOG1 POP JUMP JUMPDEST PUSH1 0x0 DUP1 PUSH1 0x0 DUP5 DUP2 MSTORE PUSH1 0x20 ADD SWAP1 DUP2 MSTORE PUSH1 0x20 ADD PUSH1 0x0 KECCAK256 PUSH1 0x0 ADD PUSH1 0x0 DUP4 PUSH20 0xFFFFFFFFFFFFFFFFFFFFFFFFFFFFFFFFFFFFFFFF AND PUSH20 0xFFFFFFFFFFFFFFFFFFFFFFFFFFFFFFFFFFFFFFFF AND DUP2 MSTORE PUSH1 0x20 ADD SWAP1 DUP2 MSTORE PUSH1 0x20 ADD PUSH1 0x0 KECCAK256 PUSH1 0x0 SWAP1 SLOAD SWAP1 PUSH2 0x100 EXP SWAP1 DIV PUSH1 0xFF AND SWAP1 POP SWAP3 SWAP2 POP POP JUMP JUMPDEST PUSH1 0x0 DUP1 SHL DUP2 JUMP JUMPDEST PUSH1 0x0 DUP1 PUSH1 0x0 SWAP1 POP PUSH1 0x0 JUMPDEST DUP4 MLOAD DUP2 LT ISZERO PUSH2 0x5B6 JUMPI PUSH1 0x1 ISZERO ISZERO DUP5 DUP3 DUP2 MLOAD DUP2 LT PUSH2 0x58C JUMPI PUSH2 0x58B PUSH2 0x13D1 JUMP JUMPDEST JUMPDEST PUSH1 0x20 MUL PUSH1 0x20 ADD ADD MLOAD ISZERO ISZERO EQ ISZERO PUSH2 0x5A5 JUMPI PUSH1 0x1 SWAP2 POP PUSH2 0x5B6 JUMP JUMPDEST DUP1 PUSH2 0x5AF SWAP1 PUSH2 0x1359 JUMP JUMPDEST SWAP1 POP PUSH2 0x56C JUMP JUMPDEST POP DUP1 SWAP2 POP POP SWAP2 SWAP1 POP JUMP JUMPDEST PUSH2 0x5C9 DUP3 PUSH2 0x3BA JUMP JUMPDEST PUSH2 0x5D2 DUP2 PUSH2 0x64B JUMP JUMPDEST PUSH2 0x5DC DUP4 DUP4 PUSH2 0x747 JUMP JUMPDEST POP POP POP JUMP JUMPDEST PUSH1 0x0 PUSH32 0x1FFC9A700000000000000000000000000000000000000000000000000000000 PUSH28 0xFFFFFFFFFFFFFFFFFFFFFFFFFFFFFFFFFFFFFFFFFFFFFFFFFFFFFFFF NOT AND DUP3 PUSH28 0xFFFFFFFFFFFFFFFFFFFFFFFFFFFFFFFFFFFFFFFFFFFFFFFFFFFFFFFF NOT AND EQ SWAP1 POP SWAP2 SWAP1 POP JUMP JUMPDEST PUSH2 0x65C DUP2 PUSH2 0x657 PUSH2 0x73F JUMP JUMPDEST PUSH2 0x828 JUMP JUMPDEST POP JUMP JUMPDEST PUSH2 0x669 DUP3 DUP3 PUSH2 0x4F1 JUMP JUMPDEST PUSH2 0x73B JUMPI PUSH1 0x1 PUSH1 0x0 DUP1 DUP5 DUP2 MSTORE PUSH1 0x20 ADD SWAP1 DUP2 MSTORE PUSH1 0x20 ADD PUSH1 0x0 KECCAK256 PUSH1 0x0 ADD PUSH1 0x0 DUP4 PUSH20 0xFFFFFFFFFFFFFFFFFFFFFFFFFFFFFFFFFFFFFFFF AND PUSH20 0xFFFFFFFFFFFFFFFFFFFFFFFFFFFFFFFFFFFFFFFF AND DUP2 MSTORE PUSH1 0x20 ADD SWAP1 DUP2 MSTORE PUSH1 0x20 ADD PUSH1 0x0 KECCAK256 PUSH1 0x0 PUSH2 0x100 EXP DUP2 SLOAD DUP2 PUSH1 0xFF MUL NOT AND SWAP1 DUP4 ISZERO ISZERO MUL OR SWAP1 SSTORE POP PUSH2 0x6E0 PUSH2 0x73F JUMP JUMPDEST PUSH20 0xFFFFFFFFFFFFFFFFFFFFFFFFFFFFFFFFFFFFFFFF AND DUP2 PUSH20 0xFFFFFFFFFFFFFFFFFFFFFFFFFFFFFFFFFFFFFFFF AND DUP4 PUSH32 0x2F8788117E7EFF1D82E926EC794901D17C78024A50270940304540A733656F0D PUSH1 0x40 MLOAD PUSH1 0x40 MLOAD DUP1 SWAP2 SUB SWAP1 LOG4 JUMPDEST POP POP JUMP JUMPDEST PUSH1 0x0 CALLER SWAP1 POP SWAP1 JUMP JUMPDEST PUSH2 0x751 DUP3 DUP3 PUSH2 0x4F1 JUMP JUMPDEST ISZERO PUSH2 0x824 JUMPI PUSH1 0x0 DUP1 PUSH1 0x0 DUP5 DUP2 MSTORE PUSH1 0x20 ADD SWAP1 DUP2 MSTORE PUSH1 0x20 ADD PUSH1 0x0 KECCAK256 PUSH1 0x0 ADD PUSH1 0x0 DUP4 PUSH20 0xFFFFFFFFFFFFFFFFFFFFFFFFFFFFFFFFFFFFFFFF AND PUSH20 0xFFFFFFFFFFFFFFFFFFFFFFFFFFFFFFFFFFFFFFFF AND DUP2 MSTORE PUSH1 0x20 ADD SWAP1 DUP2 MSTORE PUSH1 0x20 ADD PUSH1 0x0 KECCAK256 PUSH1 0x0 PUSH2 0x100 EXP DUP2 SLOAD DUP2 PUSH1 0xFF MUL NOT AND SWAP1 DUP4 ISZERO ISZERO MUL OR SWAP1 SSTORE POP PUSH2 0x7C9 PUSH2 0x73F JUMP JUMPDEST PUSH20 0xFFFFFFFFFFFFFFFFFFFFFFFFFFFFFFFFFFFFFFFF AND DUP2 PUSH20 0xFFFFFFFFFFFFFFFFFFFFFFFFFFFFFFFFFFFFFFFF AND DUP4 PUSH32 0xF6391F5C32D9C69D2A47EA670B442974B53935D1EDC7FD64EB21E047A839171B PUSH1 0x40 MLOAD PUSH1 0x40 MLOAD DUP1 SWAP2 SUB SWAP1 LOG4 JUMPDEST POP POP JUMP JUMPDEST PUSH2 0x832 DUP3 DUP3 PUSH2 0x4F1 JUMP JUMPDEST PUSH2 0x8C1 JUMPI PUSH2 0x857 DUP2 PUSH20 0xFFFFFFFFFFFFFFFFFFFFFFFFFFFFFFFFFFFFFFFF AND PUSH1 0x14 PUSH2 0x8C5 JUMP JUMPDEST PUSH2 0x865 DUP4 PUSH1 0x0 SHR PUSH1 0x20 PUSH2 0x8C5 JUMP JUMPDEST PUSH1 0x40 MLOAD PUSH1 0x20 ADD PUSH2 0x876 SWAP3 SWAP2 SWAP1 PUSH2 0xFA2 JUMP JUMPDEST PUSH1 0x40 MLOAD PUSH1 0x20 DUP2 DUP4 SUB SUB DUP2 MSTORE SWAP1 PUSH1 0x40 MSTORE PUSH1 0x40 MLOAD PUSH32 0x8C379A000000000000000000000000000000000000000000000000000000000 DUP2 MSTORE PUSH1 0x4 ADD PUSH2 0x8B8 SWAP2 SWAP1 PUSH2 0x1012 JUMP JUMPDEST PUSH1 0x40 MLOAD DUP1 SWAP2 SUB SWAP1 REVERT JUMPDEST POP POP JUMP JUMPDEST PUSH1 0x60 PUSH1 0x0 PUSH1 0x2 DUP4 PUSH1 0x2 PUSH2 0x8D8 SWAP2 SWAP1 PUSH2 0x11E4 JUMP JUMPDEST PUSH2 0x8E2 SWAP2 SWAP1 PUSH2 0x118E JUMP JUMPDEST PUSH8 0xFFFFFFFFFFFFFFFF DUP2 GT ISZERO PUSH2 0x8FB JUMPI PUSH2 0x8FA PUSH2 0x1400 JUMP JUMPDEST JUMPDEST PUSH1 0x40 MLOAD SWAP1 DUP1 DUP3 MSTORE DUP1 PUSH1 0x1F ADD PUSH1 0x1F NOT AND PUSH1 0x20 ADD DUP3 ADD PUSH1 0x40 MSTORE DUP1 ISZERO PUSH2 0x92D JUMPI DUP2 PUSH1 0x20 ADD PUSH1 0x1 DUP3 MUL DUP1 CALLDATASIZE DUP4 CALLDATACOPY DUP1 DUP3 ADD SWAP2 POP POP SWAP1 POP JUMPDEST POP SWAP1 POP PUSH32 0x3000000000000000000000000000000000000000000000000000000000000000 DUP2 PUSH1 0x0 DUP2 MLOAD DUP2 LT PUSH2 0x965 JUMPI PUSH2 0x964 PUSH2 0x13D1 JUMP JUMPDEST JUMPDEST PUSH1 0x20 ADD ADD SWAP1 PUSH31 0xFFFFFFFFFFFFFFFFFFFFFFFFFFFFFFFFFFFFFFFFFFFFFFFFFFFFFFFFFFFFFF NOT AND SWAP1 DUP2 PUSH1 0x0 BYTE SWAP1 MSTORE8 POP PUSH32 0x7800000000000000000000000000000000000000000000000000000000000000 DUP2 PUSH1 0x1 DUP2 MLOAD DUP2 LT PUSH2 0x9C9 JUMPI PUSH2 0x9C8 PUSH2 0x13D1 JUMP JUMPDEST JUMPDEST PUSH1 0x20 ADD ADD SWAP1 PUSH31 0xFFFFFFFFFFFFFFFFFFFFFFFFFFFFFFFFFFFFFFFFFFFFFFFFFFFFFFFFFFFFFF NOT AND SWAP1 DUP2 PUSH1 0x0 BYTE SWAP1 MSTORE8 POP PUSH1 0x0 PUSH1 0x1 DUP5 PUSH1 0x2 PUSH2 0xA09 SWAP2 SWAP1 PUSH2 0x11E4 JUMP JUMPDEST PUSH2 0xA13 SWAP2 SWAP1 PUSH2 0x118E JUMP JUMPDEST SWAP1 POP JUMPDEST PUSH1 0x1 DUP2 GT ISZERO PUSH2 0xAB3 JUMPI PUSH32 0x3031323334353637383961626364656600000000000000000000000000000000 PUSH1 0xF DUP7 AND PUSH1 0x10 DUP2 LT PUSH2 0xA55 JUMPI PUSH2 0xA54 PUSH2 0x13D1 JUMP JUMPDEST JUMPDEST BYTE PUSH1 0xF8 SHL DUP3 DUP3 DUP2 MLOAD DUP2 LT PUSH2 0xA6C JUMPI PUSH2 0xA6B PUSH2 0x13D1 JUMP JUMPDEST JUMPDEST PUSH1 0x20 ADD ADD SWAP1 PUSH31 0xFFFFFFFFFFFFFFFFFFFFFFFFFFFFFFFFFFFFFFFFFFFFFFFFFFFFFFFFFFFFFF NOT AND SWAP1 DUP2 PUSH1 0x0 BYTE SWAP1 MSTORE8 POP PUSH1 0x4 DUP6 SWAP1 SHR SWAP5 POP DUP1 PUSH2 0xAAC SWAP1 PUSH2 0x12FE JUMP JUMPDEST SWAP1 POP PUSH2 0xA16 JUMP JUMPDEST POP PUSH1 0x0 DUP5 EQ PUSH2 0xAF7 JUMPI PUSH1 0x40 MLOAD PUSH32 0x8C379A000000000000000000000000000000000000000000000000000000000 DUP2 MSTORE PUSH1 0x4 ADD PUSH2 0xAEE SWAP1 PUSH2 0x1034 JUMP JUMPDEST PUSH1 0x40 MLOAD DUP1 SWAP2 SUB SWAP1 REVERT JUMPDEST DUP1 SWAP2 POP POP SWAP3 SWAP2 POP POP JUMP JUMPDEST PUSH1 0x0 PUSH2 0xB14 PUSH2 0xB0F DUP5 PUSH2 0x10D9 JUMP JUMPDEST PUSH2 0x10B4 JUMP JUMPDEST SWAP1 POP DUP1 DUP4 DUP3 MSTORE PUSH1 0x20 DUP3 ADD SWAP1 POP DUP3 DUP6 PUSH1 0x20 DUP7 MUL DUP3 ADD GT ISZERO PUSH2 0xB37 JUMPI PUSH2 0xB36 PUSH2 0x1434 JUMP JUMPDEST JUMPDEST PUSH1 0x0 JUMPDEST DUP6 DUP2 LT ISZERO PUSH2 0xB67 JUMPI DUP2 PUSH2 0xB4D DUP9 DUP3 PUSH2 0xC38 JUMP JUMPDEST DUP5 MSTORE PUSH1 0x20 DUP5 ADD SWAP4 POP PUSH1 0x20 DUP4 ADD SWAP3 POP POP PUSH1 0x1 DUP2 ADD SWAP1 POP PUSH2 0xB3A JUMP JUMPDEST POP POP POP SWAP4 SWAP3 POP POP POP JUMP JUMPDEST PUSH1 0x0 PUSH2 0xB84 PUSH2 0xB7F DUP5 PUSH2 0x1105 JUMP JUMPDEST PUSH2 0x10B4 JUMP JUMPDEST SWAP1 POP DUP3 DUP2 MSTORE PUSH1 0x20 DUP2 ADD DUP5 DUP5 DUP5 ADD GT ISZERO PUSH2 0xBA0 JUMPI PUSH2 0xB9F PUSH2 0x1439 JUMP JUMPDEST JUMPDEST PUSH2 0xBAB DUP5 DUP3 DUP6 PUSH2 0x12BC JUMP JUMPDEST POP SWAP4 SWAP3 POP POP POP JUMP JUMPDEST PUSH1 0x0 PUSH2 0xBC6 PUSH2 0xBC1 DUP5 PUSH2 0x1136 JUMP JUMPDEST PUSH2 0x10B4 JUMP JUMPDEST SWAP1 POP DUP3 DUP2 MSTORE PUSH1 0x20 DUP2 ADD DUP5 DUP5 DUP5 ADD GT ISZERO PUSH2 0xBE2 JUMPI PUSH2 0xBE1 PUSH2 0x1439 JUMP JUMPDEST JUMPDEST PUSH2 0xBED DUP5 DUP3 DUP6 PUSH2 0x12BC JUMP JUMPDEST POP SWAP4 SWAP3 POP POP POP JUMP JUMPDEST PUSH1 0x0 DUP2 CALLDATALOAD SWAP1 POP PUSH2 0xC04 DUP2 PUSH2 0x1575 JUMP JUMPDEST SWAP3 SWAP2 POP POP JUMP JUMPDEST PUSH1 0x0 DUP3 PUSH1 0x1F DUP4 ADD SLT PUSH2 0xC1F JUMPI PUSH2 0xC1E PUSH2 0x142F JUMP JUMPDEST JUMPDEST DUP2 CALLDATALOAD PUSH2 0xC2F DUP5 DUP3 PUSH1 0x20 DUP7 ADD PUSH2 0xB01 JUMP JUMPDEST SWAP2 POP POP SWAP3 SWAP2 POP POP JUMP JUMPDEST PUSH1 0x0 DUP2 CALLDATALOAD SWAP1 POP PUSH2 0xC47 DUP2 PUSH2 0x158C JUMP JUMPDEST SWAP3 SWAP2 POP POP JUMP JUMPDEST PUSH1 0x0 DUP2 CALLDATALOAD SWAP1 POP PUSH2 0xC5C DUP2 PUSH2 0x15A3 JUMP JUMPDEST SWAP3 SWAP2 POP POP JUMP JUMPDEST PUSH1 0x0 DUP2 CALLDATALOAD SWAP1 POP PUSH2 0xC71 DUP2 PUSH2 0x15BA JUMP JUMPDEST SWAP3 SWAP2 POP POP JUMP JUMPDEST PUSH1 0x0 DUP3 PUSH1 0x1F DUP4 ADD SLT PUSH2 0xC8C JUMPI PUSH2 0xC8B PUSH2 0x142F JUMP JUMPDEST JUMPDEST DUP2 CALLDATALOAD PUSH2 0xC9C DUP5 DUP3 PUSH1 0x20 DUP7 ADD PUSH2 0xB71 JUMP JUMPDEST SWAP2 POP POP SWAP3 SWAP2 POP POP JUMP JUMPDEST PUSH1 0x0 DUP3 PUSH1 0x1F DUP4 ADD SLT PUSH2 0xCBA JUMPI PUSH2 0xCB9 PUSH2 0x142F JUMP JUMPDEST JUMPDEST DUP2 CALLDATALOAD PUSH2 0xCCA DUP5 DUP3 PUSH1 0x20 DUP7 ADD PUSH2 0xBB3 JUMP JUMPDEST SWAP2 POP POP SWAP3 SWAP2 POP POP JUMP JUMPDEST PUSH1 0x0 PUSH1 0x20 DUP3 DUP5 SUB SLT ISZERO PUSH2 0xCE9 JUMPI PUSH2 0xCE8 PUSH2 0x1443 JUMP JUMPDEST JUMPDEST PUSH1 0x0 DUP3 ADD CALLDATALOAD PUSH8 0xFFFFFFFFFFFFFFFF DUP2 GT ISZERO PUSH2 0xD07 JUMPI PUSH2 0xD06 PUSH2 0x143E JUMP JUMPDEST JUMPDEST PUSH2 0xD13 DUP5 DUP3 DUP6 ADD PUSH2 0xC0A JUMP JUMPDEST SWAP2 POP POP SWAP3 SWAP2 POP POP JUMP JUMPDEST PUSH1 0x0 PUSH1 0x20 DUP3 DUP5 SUB SLT ISZERO PUSH2 0xD32 JUMPI PUSH2 0xD31 PUSH2 0x1443 JUMP JUMPDEST JUMPDEST PUSH1 0x0 PUSH2 0xD40 DUP5 DUP3 DUP6 ADD PUSH2 0xC4D JUMP JUMPDEST SWAP2 POP POP SWAP3 SWAP2 POP POP JUMP JUMPDEST PUSH1 0x0 DUP1 PUSH1 0x40 DUP4 DUP6 SUB SLT ISZERO PUSH2 0xD60 JUMPI PUSH2 0xD5F PUSH2 0x1443 JUMP JUMPDEST JUMPDEST PUSH1 0x0 PUSH2 0xD6E DUP6 DUP3 DUP7 ADD PUSH2 0xC4D JUMP JUMPDEST SWAP3 POP POP PUSH1 0x20 PUSH2 0xD7F DUP6 DUP3 DUP7 ADD PUSH2 0xBF5 JUMP JUMPDEST SWAP2 POP POP SWAP3 POP SWAP3 SWAP1 POP JUMP JUMPDEST PUSH1 0x0 PUSH1 0x20 DUP3 DUP5 SUB SLT ISZERO PUSH2 0xD9F JUMPI PUSH2 0xD9E PUSH2 0x1443 JUMP JUMPDEST JUMPDEST PUSH1 0x0 PUSH2 0xDAD DUP5 DUP3 DUP6 ADD PUSH2 0xC62 JUMP JUMPDEST SWAP2 POP POP SWAP3 SWAP2 POP POP JUMP JUMPDEST PUSH1 0x0 PUSH1 0x20 DUP3 DUP5 SUB SLT ISZERO PUSH2 0xDCC JUMPI PUSH2 0xDCB PUSH2 0x1443 JUMP JUMPDEST JUMPDEST PUSH1 0x0 DUP3 ADD CALLDATALOAD PUSH8 0xFFFFFFFFFFFFFFFF DUP2 GT ISZERO PUSH2 0xDEA JUMPI PUSH2 0xDE9 PUSH2 0x143E JUMP JUMPDEST JUMPDEST PUSH2 0xDF6 DUP5 DUP3 DUP6 ADD PUSH2 0xC77 JUMP JUMPDEST SWAP2 POP POP SWAP3 SWAP2 POP POP JUMP JUMPDEST PUSH1 0x0 PUSH1 0x20 DUP3 DUP5 SUB SLT ISZERO PUSH2 0xE15 JUMPI PUSH2 0xE14 PUSH2 0x1443 JUMP JUMPDEST JUMPDEST PUSH1 0x0 DUP3 ADD CALLDATALOAD PUSH8 0xFFFFFFFFFFFFFFFF DUP2 GT ISZERO PUSH2 0xE33 JUMPI PUSH2 0xE32 PUSH2 0x143E JUMP JUMPDEST JUMPDEST PUSH2 0xE3F DUP5 DUP3 DUP6 ADD PUSH2 0xCA5 JUMP JUMPDEST SWAP2 POP POP SWAP3 SWAP2 POP POP JUMP JUMPDEST PUSH2 0xE51 DUP2 PUSH2 0x1250 JUMP JUMPDEST DUP3 MSTORE POP POP JUMP JUMPDEST PUSH2 0xE60 DUP2 PUSH2 0x125C JUMP JUMPDEST DUP3 MSTORE POP POP JUMP JUMPDEST PUSH1 0x0 PUSH2 0xE71 DUP3 PUSH2 0x1167 JUMP JUMPDEST PUSH2 0xE7B DUP2 DUP6 PUSH2 0x1172 JUMP JUMPDEST SWAP4 POP PUSH2 0xE8B DUP2 DUP6 PUSH1 0x20 DUP7 ADD PUSH2 0x12CB JUMP JUMPDEST PUSH2 0xE94 DUP2 PUSH2 0x1448 JUMP JUMPDEST DUP5 ADD SWAP2 POP POP SWAP3 SWAP2 POP POP JUMP JUMPDEST PUSH1 0x0 PUSH2 0xEAA DUP3 PUSH2 0x1167 JUMP JUMPDEST PUSH2 0xEB4 DUP2 DUP6 PUSH2 0x1183 JUMP JUMPDEST SWAP4 POP PUSH2 0xEC4 DUP2 DUP6 PUSH1 0x20 DUP7 ADD PUSH2 0x12CB JUMP JUMPDEST DUP1 DUP5 ADD SWAP2 POP POP SWAP3 SWAP2 POP POP JUMP JUMPDEST PUSH1 0x0 PUSH2 0xEDD PUSH1 0x20 DUP4 PUSH2 0x1172 JUMP JUMPDEST SWAP2 POP PUSH2 0xEE8 DUP3 PUSH2 0x1459 JUMP JUMPDEST PUSH1 0x20 DUP3 ADD SWAP1 POP SWAP2 SWAP1 POP JUMP JUMPDEST PUSH1 0x0 PUSH2 0xF00 PUSH1 0xC DUP4 PUSH2 0x1172 JUMP JUMPDEST SWAP2 POP PUSH2 0xF0B DUP3 PUSH2 0x1482 JUMP JUMPDEST PUSH1 0x20 DUP3 ADD SWAP1 POP SWAP2 SWAP1 POP JUMP JUMPDEST PUSH1 0x0 PUSH2 0xF23 PUSH1 0x1C DUP4 PUSH2 0x1172 JUMP JUMPDEST SWAP2 POP PUSH2 0xF2E DUP3 PUSH2 0x14AB JUMP JUMPDEST PUSH1 0x20 DUP3 ADD SWAP1 POP SWAP2 SWAP1 POP JUMP JUMPDEST PUSH1 0x0 PUSH2 0xF46 PUSH1 0x17 DUP4 PUSH2 0x1183 JUMP JUMPDEST SWAP2 POP PUSH2 0xF51 DUP3 PUSH2 0x14D4 JUMP JUMPDEST PUSH1 0x17 DUP3 ADD SWAP1 POP SWAP2 SWAP1 POP JUMP JUMPDEST PUSH1 0x0 PUSH2 0xF69 PUSH1 0x11 DUP4 PUSH2 0x1183 JUMP JUMPDEST SWAP2 POP PUSH2 0xF74 DUP3 PUSH2 0x14FD JUMP JUMPDEST PUSH1 0x11 DUP3 ADD SWAP1 POP SWAP2 SWAP1 POP JUMP JUMPDEST PUSH1 0x0 PUSH2 0xF8C PUSH1 0x2F DUP4 PUSH2 0x1172 JUMP JUMPDEST SWAP2 POP PUSH2 0xF97 DUP3 PUSH2 0x1526 JUMP JUMPDEST PUSH1 0x40 DUP3 ADD SWAP1 POP SWAP2 SWAP1 POP JUMP JUMPDEST PUSH1 0x0 PUSH2 0xFAD DUP3 PUSH2 0xF39 JUMP JUMPDEST SWAP2 POP PUSH2 0xFB9 DUP3 DUP6 PUSH2 0xE9F JUMP JUMPDEST SWAP2 POP PUSH2 0xFC4 DUP3 PUSH2 0xF5C JUMP JUMPDEST SWAP2 POP PUSH2 0xFD0 DUP3 DUP5 PUSH2 0xE9F JUMP JUMPDEST SWAP2 POP DUP2 SWAP1 POP SWAP4 SWAP3 POP POP POP JUMP JUMPDEST PUSH1 0x0 PUSH1 0x20 DUP3 ADD SWAP1 POP PUSH2 0xFF1 PUSH1 0x0 DUP4 ADD DUP5 PUSH2 0xE48 JUMP JUMPDEST SWAP3 SWAP2 POP POP JUMP JUMPDEST PUSH1 0x0 PUSH1 0x20 DUP3 ADD SWAP1 POP PUSH2 0x100C PUSH1 0x0 DUP4 ADD DUP5 PUSH2 0xE57 JUMP JUMPDEST SWAP3 SWAP2 POP POP JUMP JUMPDEST PUSH1 0x0 PUSH1 0x20 DUP3 ADD SWAP1 POP DUP2 DUP2 SUB PUSH1 0x0 DUP4 ADD MSTORE PUSH2 0x102C DUP2 DUP5 PUSH2 0xE66 JUMP JUMPDEST SWAP1 POP SWAP3 SWAP2 POP POP JUMP JUMPDEST PUSH1 0x0 PUSH1 0x20 DUP3 ADD SWAP1 POP DUP2 DUP2 SUB PUSH1 0x0 DUP4 ADD MSTORE PUSH2 0x104D DUP2 PUSH2 0xED0 JUMP JUMPDEST SWAP1 POP SWAP2 SWAP1 POP JUMP JUMPDEST PUSH1 0x0 PUSH1 0x20 DUP3 ADD SWAP1 POP DUP2 DUP2 SUB PUSH1 0x0 DUP4 ADD MSTORE PUSH2 0x106D DUP2 PUSH2 0xEF3 JUMP JUMPDEST SWAP1 POP SWAP2 SWAP1 POP JUMP JUMPDEST PUSH1 0x0 PUSH1 0x20 DUP3 ADD SWAP1 POP DUP2 DUP2 SUB PUSH1 0x0 DUP4 ADD MSTORE PUSH2 0x108D DUP2 PUSH2 0xF16 JUMP JUMPDEST SWAP1 POP SWAP2 SWAP1 POP JUMP JUMPDEST PUSH1 0x0 PUSH1 0x20 DUP3 ADD SWAP1 POP DUP2 DUP2 SUB PUSH1 0x0 DUP4 ADD MSTORE PUSH2 0x10AD DUP2 PUSH2 0xF7F JUMP JUMPDEST SWAP1 POP SWAP2 SWAP1 POP JUMP JUMPDEST PUSH1 0x0 PUSH2 0x10BE PUSH2 0x10CF JUMP JUMPDEST SWAP1 POP PUSH2 0x10CA DUP3 DUP3 PUSH2 0x1328 JUMP JUMPDEST SWAP2 SWAP1 POP JUMP JUMPDEST PUSH1 0x0 PUSH1 0x40 MLOAD SWAP1 POP SWAP1 JUMP JUMPDEST PUSH1 0x0 PUSH8 0xFFFFFFFFFFFFFFFF DUP3 GT ISZERO PUSH2 0x10F4 JUMPI PUSH2 0x10F3 PUSH2 0x1400 JUMP JUMPDEST JUMPDEST PUSH1 0x20 DUP3 MUL SWAP1 POP PUSH1 0x20 DUP2 ADD SWAP1 POP SWAP2 SWAP1 POP JUMP JUMPDEST PUSH1 0x0 PUSH8 0xFFFFFFFFFFFFFFFF DUP3 GT ISZERO PUSH2 0x1120 JUMPI PUSH2 0x111F PUSH2 0x1400 JUMP JUMPDEST JUMPDEST PUSH2 0x1129 DUP3 PUSH2 0x1448 JUMP JUMPDEST SWAP1 POP PUSH1 0x20 DUP2 ADD SWAP1 POP SWAP2 SWAP1 POP JUMP JUMPDEST PUSH1 0x0 PUSH8 0xFFFFFFFFFFFFFFFF DUP3 GT ISZERO PUSH2 0x1151 JUMPI PUSH2 0x1150 PUSH2 0x1400 JUMP JUMPDEST JUMPDEST PUSH2 0x115A DUP3 PUSH2 0x1448 JUMP JUMPDEST SWAP1 POP PUSH1 0x20 DUP2 ADD SWAP1 POP SWAP2 SWAP1 POP JUMP JUMPDEST PUSH1 0x0 DUP2 MLOAD SWAP1 POP SWAP2 SWAP1 POP JUMP JUMPDEST PUSH1 0x0 DUP3 DUP3 MSTORE PUSH1 0x20 DUP3 ADD SWAP1 POP SWAP3 SWAP2 POP POP JUMP JUMPDEST PUSH1 0x0 DUP2 SWAP1 POP SWAP3 SWAP2 POP POP JUMP JUMPDEST PUSH1 0x0 PUSH2 0x1199 DUP3 PUSH2 0x12B2 JUMP JUMPDEST SWAP2 POP PUSH2 0x11A4 DUP4 PUSH2 0x12B2 JUMP JUMPDEST SWAP3 POP DUP3 PUSH32 0xFFFFFFFFFFFFFFFFFFFFFFFFFFFFFFFFFFFFFFFFFFFFFFFFFFFFFFFFFFFFFFFF SUB DUP3 GT ISZERO PUSH2 0x11D9 JUMPI PUSH2 0x11D8 PUSH2 0x13A2 JUMP JUMPDEST JUMPDEST DUP3 DUP3 ADD SWAP1 POP SWAP3 SWAP2 POP POP JUMP JUMPDEST PUSH1 0x0 PUSH2 0x11EF DUP3 PUSH2 0x12B2 JUMP JUMPDEST SWAP2 POP PUSH2 0x11FA DUP4 PUSH2 0x12B2 JUMP JUMPDEST SWAP3 POP DUP2 PUSH32 0xFFFFFFFFFFFFFFFFFFFFFFFFFFFFFFFFFFFFFFFFFFFFFFFFFFFFFFFFFFFFFFFF DIV DUP4 GT DUP3 ISZERO ISZERO AND ISZERO PUSH2 0x1233 JUMPI PUSH2 0x1232 PUSH2 0x13A2 JUMP JUMPDEST JUMPDEST DUP3 DUP3 MUL SWAP1 POP SWAP3 SWAP2 POP POP JUMP JUMPDEST PUSH1 0x0 PUSH2 0x1249 DUP3 PUSH2 0x1292 JUMP JUMPDEST SWAP1 POP SWAP2 SWAP1 POP JUMP JUMPDEST PUSH1 0x0 DUP2 ISZERO ISZERO SWAP1 POP SWAP2 SWAP1 POP JUMP JUMPDEST PUSH1 0x0 DUP2 SWAP1 POP SWAP2 SWAP1 POP JUMP JUMPDEST PUSH1 0x0 PUSH32 0xFFFFFFFF00000000000000000000000000000000000000000000000000000000 DUP3 AND SWAP1 POP SWAP2 SWAP1 POP JUMP JUMPDEST PUSH1 0x0 PUSH20 0xFFFFFFFFFFFFFFFFFFFFFFFFFFFFFFFFFFFFFFFF DUP3 AND SWAP1 POP SWAP2 SWAP1 POP JUMP JUMPDEST PUSH1 0x0 DUP2 SWAP1 POP SWAP2 SWAP1 POP JUMP JUMPDEST DUP3 DUP2 DUP4 CALLDATACOPY PUSH1 0x0 DUP4 DUP4 ADD MSTORE POP POP POP JUMP JUMPDEST PUSH1 0x0 JUMPDEST DUP4 DUP2 LT ISZERO PUSH2 0x12E9 JUMPI DUP1 DUP3 ADD MLOAD DUP2 DUP5 ADD MSTORE PUSH1 0x20 DUP2 ADD SWAP1 POP PUSH2 0x12CE JUMP JUMPDEST DUP4 DUP2 GT ISZERO PUSH2 0x12F8 JUMPI PUSH1 0x0 DUP5 DUP5 ADD MSTORE JUMPDEST POP POP POP POP JUMP JUMPDEST PUSH1 0x0 PUSH2 0x1309 DUP3 PUSH2 0x12B2 JUMP JUMPDEST SWAP2 POP PUSH1 0x0 DUP3 EQ ISZERO PUSH2 0x131D JUMPI PUSH2 0x131C PUSH2 0x13A2 JUMP JUMPDEST JUMPDEST PUSH1 0x1 DUP3 SUB SWAP1 POP SWAP2 SWAP1 POP JUMP JUMPDEST PUSH2 0x1331 DUP3 PUSH2 0x1448 JUMP JUMPDEST DUP2 ADD DUP2 DUP2 LT PUSH8 0xFFFFFFFFFFFFFFFF DUP3 GT OR ISZERO PUSH2 0x1350 JUMPI PUSH2 0x134F PUSH2 0x1400 JUMP JUMPDEST JUMPDEST DUP1 PUSH1 0x40 MSTORE POP POP POP JUMP JUMPDEST PUSH1 0x0 PUSH2 0x1364 DUP3 PUSH2 0x12B2 JUMP JUMPDEST SWAP2 POP PUSH32 0xFFFFFFFFFFFFFFFFFFFFFFFFFFFFFFFFFFFFFFFFFFFFFFFFFFFFFFFFFFFFFFFF DUP3 EQ ISZERO PUSH2 0x1397 JUMPI PUSH2 0x1396 PUSH2 0x13A2 JUMP JUMPDEST JUMPDEST PUSH1 0x1 DUP3 ADD SWAP1 POP SWAP2 SWAP1 POP JUMP JUMPDEST PUSH32 0x4E487B7100000000000000000000000000000000000000000000000000000000 PUSH1 0x0 MSTORE PUSH1 0x11 PUSH1 0x4 MSTORE PUSH1 0x24 PUSH1 0x0 REVERT JUMPDEST PUSH32 0x4E487B7100000000000000000000000000000000000000000000000000000000 PUSH1 0x0 MSTORE PUSH1 0x32 PUSH1 0x4 MSTORE PUSH1 0x24 PUSH1 0x0 REVERT JUMPDEST PUSH32 0x4E487B7100000000000000000000000000000000000000000000000000000000 PUSH1 0x0 MSTORE PUSH1 0x41 PUSH1 0x4 MSTORE PUSH1 0x24 PUSH1 0x0 REVERT JUMPDEST PUSH1 0x0 DUP1 REVERT JUMPDEST PUSH1 0x0 DUP1 REVERT JUMPDEST PUSH1 0x0 DUP1 REVERT JUMPDEST PUSH1 0x0 DUP1 REVERT JUMPDEST PUSH1 0x0 DUP1 REVERT JUMPDEST PUSH1 0x0 PUSH1 0x1F NOT PUSH1 0x1F DUP4 ADD AND SWAP1 POP SWAP2 SWAP1 POP JUMP JUMPDEST PUSH32 0x537472696E67733A20686578206C656E67746820696E73756666696369656E74 PUSH1 0x0 DUP3 ADD MSTORE POP JUMP JUMPDEST PUSH32 0x68656C6C6F20776F726C642E0000000000000000000000000000000000000000 PUSH1 0x0 DUP3 ADD MSTORE POP JUMP JUMPDEST PUSH32 0x74686973207065726D697373696F6E206E6F742066726F6D20796F7500000000 PUSH1 0x0 DUP3 ADD MSTORE POP JUMP JUMPDEST PUSH32 0x416363657373436F6E74726F6C3A206163636F756E7420000000000000000000 PUSH1 0x0 DUP3 ADD MSTORE POP JUMP JUMPDEST PUSH32 0x206973206D697373696E6720726F6C6520000000000000000000000000000000 PUSH1 0x0 DUP3 ADD MSTORE POP JUMP JUMPDEST PUSH32 0x416363657373436F6E74726F6C3A2063616E206F6E6C792072656E6F756E6365 PUSH1 0x0 DUP3 ADD MSTORE PUSH32 0x20726F6C657320666F722073656C660000000000000000000000000000000000 PUSH1 0x20 DUP3 ADD MSTORE POP JUMP JUMPDEST PUSH2 0x157E DUP2 PUSH2 0x123E JUMP JUMPDEST DUP2 EQ PUSH2 0x1589 JUMPI PUSH1 0x0 DUP1 REVERT JUMPDEST POP JUMP JUMPDEST PUSH2 0x1595 DUP2 PUSH2 0x1250 JUMP JUMPDEST DUP2 EQ PUSH2 0x15A0 JUMPI PUSH1 0x0 DUP1 REVERT JUMPDEST POP JUMP JUMPDEST PUSH2 0x15AC DUP2 PUSH2 0x125C JUMP JUMPDEST DUP2 EQ PUSH2 0x15B7 JUMPI PUSH1 0x0 DUP1 REVERT JUMPDEST POP JUMP JUMPDEST PUSH2 0x15C3 DUP2 PUSH2 0x1266 JUMP JUMPDEST DUP2 EQ PUSH2 0x15CE JUMPI PUSH1 0x0 DUP1 REVERT JUMPDEST POP JUMP INVALID LOG2 PUSH5 0x6970667358 0x22 SLT KECCAK256 POP PUSH14 0xCCA2D309374A049EEF00022D3B4E 0xCA NOT PUSH5 0xA93DEF2A70 SHR SAR 0xF 0xB4 0xB9 0x49 0xC4 ISZERO PUSH5 0x736F6C6343 STOP ADDMOD SMOD STOP CALLER "
				},
				"gasEstimates": {
					"creation": {
						"codeDepositCost": "1127800",
						"executionCost": "1174",
						"totalCost": "1128974"
					},
					"external": {
						"DEFAULT_ADMIN_ROLE()": "401",
						"getRoleAdmin(bytes32)": "infinite",
						"grantRole(bytes32,address)": "infinite",
						"hasRole(bytes32,address)": "3184",
						"renounceRole(bytes32,address)": "infinite",
						"revokeRole(bytes32,address)": "infinite",
						"supportsInterface(bytes4)": "728",
						"test(bool[])": "infinite",
						"testBytes(bytes)": "infinite",
						"testString(string)": "infinite",
						"trydy()": "infinite"
					}
				},
				"methodIdentifiers": {
					"DEFAULT_ADMIN_ROLE()": "a217fddf",
					"getRoleAdmin(bytes32)": "248a9ca3",
					"grantRole(bytes32,address)": "2f2ff15d",
					"hasRole(bytes32,address)": "91d14854",
					"renounceRole(bytes32,address)": "36568abe",
					"revokeRole(bytes32,address)": "d547741f",
					"supportsInterface(bytes4)": "01ffc9a7",
					"test(bool[])": "ac5d4f62",
					"testBytes(bytes)": "3ca8b1a7",
					"testString(string)": "61cb5a01",
					"trydy()": "1a41fc38"
				}
			},
			"storageLayout": {
				"storage": [
					{
						"astId": 24,
						"contract": "contracts/organization/DaoTest.sol:DaoTest",
						"label": "_roles",
						"offset": 0,
						"slot": "0",
						"type": "t_mapping(t_bytes32,t_struct(RoleData)19_storage)"
					}
				],
				"types": {
					"t_address": {
						"encoding": "inplace",
						"label": "address",
						"numberOfBytes": "20"
					},
					"t_bool": {
						"encoding": "inplace",
						"label": "bool",
						"numberOfBytes": "1"
					},
					"t_bytes32": {
						"encoding": "inplace",
						"label": "bytes32",
						"numberOfBytes": "32"
					},
					"t_mapping(t_address,t_bool)": {
						"encoding": "mapping",
						"key": "t_address",
						"label": "mapping(address => bool)",
						"numberOfBytes": "32",
						"value": "t_bool"
					},
					"t_mapping(t_bytes32,t_struct(RoleData)19_storage)": {
						"encoding": "mapping",
						"key": "t_bytes32",
						"label": "mapping(bytes32 => struct AccessControl.RoleData)",
						"numberOfBytes": "32",
						"value": "t_struct(RoleData)19_storage"
					},
					"t_struct(RoleData)19_storage": {
						"encoding": "inplace",
						"label": "struct AccessControl.RoleData",
						"members": [
							{
								"astId": 16,
								"contract": "contracts/organization/DaoTest.sol:DaoTest",
								"label": "members",
								"offset": 0,
								"slot": "0",
								"type": "t_mapping(t_address,t_bool)"
							},
							{
								"astId": 18,
								"contract": "contracts/organization/DaoTest.sol:DaoTest",
								"label": "adminRole",
								"offset": 0,
								"slot": "1",
								"type": "t_bytes32"
							}
						],
						"numberOfBytes": "64"
					}
				}
			},
			"userdoc": {
				"kind": "user",
				"methods": {},
				"version": 1
			}
		}
	}
}