{
	"contracts/organization/DaoAccessControl.sol": {
		"DaoAccessControl": {
			"abi": [
				{
					"inputs": [],
					"stateMutability": "nonpayable",
					"type": "constructor"
				},
				{
					"anonymous": false,
					"inputs": [
						{
							"indexed": true,
							"internalType": "address",
							"name": "account",
							"type": "address"
						},
						{
							"indexed": true,
							"internalType": "address",
							"name": "sender",
							"type": "address"
						}
					],
					"name": "AccountDeleted",
					"type": "event"
				},
				{
					"anonymous": false,
					"inputs": [
						{
							"indexed": true,
							"internalType": "address",
							"name": "newAdmin",
							"type": "address"
						},
						{
							"indexed": true,
							"internalType": "address",
							"name": "previousAdmin",
							"type": "address"
						}
					],
					"name": "AdminTransfered",
					"type": "event"
				},
				{
					"anonymous": false,
					"inputs": [
						{
							"indexed": true,
							"internalType": "bytes32",
							"name": "permissionName",
							"type": "bytes32"
						},
						{
							"indexed": true,
							"internalType": "address",
							"name": "sender",
							"type": "address"
						}
					],
					"name": "PermissionCreated",
					"type": "event"
				},
				{
					"anonymous": false,
					"inputs": [
						{
							"indexed": true,
							"internalType": "bytes32",
							"name": "permissionName",
							"type": "bytes32"
						},
						{
							"indexed": true,
							"internalType": "address",
							"name": "sender",
							"type": "address"
						}
					],
					"name": "PermissionDeleted",
					"type": "event"
				},
				{
					"anonymous": false,
					"inputs": [
						{
							"indexed": true,
							"internalType": "bytes32",
							"name": "permissionName",
							"type": "bytes32"
						},
						{
							"indexed": true,
							"internalType": "address",
							"name": "account",
							"type": "address"
						},
						{
							"indexed": true,
							"internalType": "address",
							"name": "sender",
							"type": "address"
						}
					],
					"name": "PermissionGranted",
					"type": "event"
				},
				{
					"anonymous": false,
					"inputs": [
						{
							"indexed": true,
							"internalType": "bytes32",
							"name": "permissionName",
							"type": "bytes32"
						},
						{
							"indexed": true,
							"internalType": "address",
							"name": "account",
							"type": "address"
						},
						{
							"indexed": true,
							"internalType": "address",
							"name": "sender",
							"type": "address"
						}
					],
					"name": "PermissionRevoked",
					"type": "event"
				},
				{
					"inputs": [
						{
							"internalType": "string",
							"name": "permissionName",
							"type": "string"
						}
					],
					"name": "createPermission",
					"outputs": [],
					"stateMutability": "nonpayable",
					"type": "function"
				},
				{
					"inputs": [
						{
							"internalType": "string",
							"name": "permissionName",
							"type": "string"
						},
						{
							"internalType": "string",
							"name": "permissionAlready",
							"type": "string"
						}
					],
					"name": "createPermissionByLevel",
					"outputs": [],
					"stateMutability": "nonpayable",
					"type": "function"
				},
				{
					"inputs": [
						{
							"internalType": "address",
							"name": "account",
							"type": "address"
						}
					],
					"name": "deleteAccount",
					"outputs": [],
					"stateMutability": "nonpayable",
					"type": "function"
				},
				{
					"inputs": [
						{
							"internalType": "string",
							"name": "permissionName",
							"type": "string"
						}
					],
					"name": "deletePermission",
					"outputs": [],
					"stateMutability": "nonpayable",
					"type": "function"
				},
				{
					"inputs": [
						{
							"internalType": "string",
							"name": "permissionName",
							"type": "string"
						},
						{
							"internalType": "address",
							"name": "account",
							"type": "address"
						}
					],
					"name": "grantAccountPermission",
					"outputs": [],
					"stateMutability": "nonpayable",
					"type": "function"
				},
				{
					"inputs": [
						{
							"internalType": "string",
							"name": "permissionName",
							"type": "string"
						},
						{
							"internalType": "address",
							"name": "account",
							"type": "address"
						}
					],
					"name": "inquiryAccountPermission",
					"outputs": [
						{
							"internalType": "bool",
							"name": "",
							"type": "bool"
						}
					],
					"stateMutability": "view",
					"type": "function"
				},
				{
					"inputs": [
						{
							"internalType": "bytes32",
							"name": "permission",
							"type": "bytes32"
						},
						{
							"internalType": "address",
							"name": "account",
							"type": "address"
						}
					],
					"name": "inquiryAccountPermission",
					"outputs": [
						{
							"internalType": "bool",
							"name": "",
							"type": "bool"
						}
					],
					"stateMutability": "view",
					"type": "function"
				},
				{
					"inputs": [],
					"name": "inquiryAdmin",
					"outputs": [
						{
							"internalType": "address",
							"name": "",
							"type": "address"
						}
					],
					"stateMutability": "view",
					"type": "function"
				},
				{
					"inputs": [
						{
							"internalType": "string",
							"name": "permissionName",
							"type": "string"
						}
					],
					"name": "inquiryAllAccountsByPermission",
					"outputs": [
						{
							"internalType": "address[]",
							"name": "",
							"type": "address[]"
						}
					],
					"stateMutability": "view",
					"type": "function"
				},
				{
					"inputs": [
						{
							"internalType": "bytes32",
							"name": "permission",
							"type": "bytes32"
						}
					],
					"name": "inquiryAllAccountsByPermission",
					"outputs": [
						{
							"internalType": "address[]",
							"name": "",
							"type": "address[]"
						}
					],
					"stateMutability": "view",
					"type": "function"
				},
				{
					"inputs": [
						{
							"internalType": "address",
							"name": "account",
							"type": "address"
						}
					],
					"name": "inquiryAllPermissionsByAccount",
					"outputs": [
						{
							"internalType": "bytes32[]",
							"name": "",
							"type": "bytes32[]"
						}
					],
					"stateMutability": "view",
					"type": "function"
				},
				{
					"inputs": [
						{
							"internalType": "string",
							"name": "permissionName",
							"type": "string"
						},
						{
							"internalType": "address",
							"name": "account",
							"type": "address"
						}
					],
					"name": "revokeAccountPermission",
					"outputs": [],
					"stateMutability": "nonpayable",
					"type": "function"
				},
				{
					"inputs": [
						{
							"internalType": "address",
							"name": "account",
							"type": "address"
						}
					],
					"name": "transferAdmin",
					"outputs": [],
					"stateMutability": "nonpayable",
					"type": "function"
				}
			],
			"devdoc": {
				"kind": "dev",
				"methods": {},
				"version": 1
			},
			"evm": {
				"assembly": "    /* \"contracts/organization/DaoAccessControl.sol\":98:3199  contract DaoAccessControl is AccessControl{\r... */\n  mstore(0x40, 0x80)\n    /* \"contracts/organization/DaoAccessControl.sol\":149:195  constructor() {\r... */\n  callvalue\n  dup1\n  iszero\n  tag_1\n  jumpi\n  0x00\n  dup1\n  revert\ntag_1:\n  pop\n    /* \"contracts/organization/DaoAccessControl.sol\":174:187  _initialize() */\n  tag_4\n    /* \"contracts/organization/DaoAccessControl.sol\":174:185  _initialize */\n  shl(0x20, tag_5)\n    /* \"contracts/organization/DaoAccessControl.sol\":174:187  _initialize() */\n  0x20\n  shr\n  jump\t// in\ntag_4:\n    /* \"contracts/organization/DaoAccessControl.sol\":98:3199  contract DaoAccessControl is AccessControl{\r... */\n  jump(tag_6)\n    /* \"contracts/AccessControl.sol\":2472:3100  function _initialize() internal virtual {\r... */\ntag_5:\n    /* \"contracts/AccessControl.sol\":2556:2560  true */\n  0x01\n    /* \"contracts/AccessControl.sol\":2523:2538  _allPermissions */\n  0x00\n    /* \"contracts/AccessControl.sol\":2523:2545  _allPermissions[ADMIN] */\n  dup1\n    /* \"contracts/AccessControl.sol\":677:695  keccak256(\"ADMIN\") */\n  0xdf8b4c520ffe197c5343c6f5aec59570151ef9a492f2c624fd45ddde6135ec42\n    /* \"contracts/AccessControl.sol\":2523:2545  _allPermissions[ADMIN] */\n  dup2\n  mstore\n  0x20\n  add\n  swap1\n  dup2\n  mstore\n  0x20\n  add\n  0x00\n  keccak256\n    /* \"contracts/AccessControl.sol\":2523:2553  _allPermissions[ADMIN].isValid */\n  0x03\n  add\n  0x00\n    /* \"contracts/AccessControl.sol\":2523:2560  _allPermissions[ADMIN].isValid = true */\n  0x0100\n  exp\n  dup2\n  sload\n  dup2\n  0xff\n  mul\n  not\n  and\n  swap1\n  dup4\n  iszero\n  iszero\n  mul\n  or\n  swap1\n  sstore\n  pop\n    /* \"contracts/AccessControl.sol\":2616:2620  true */\n  0x01\n    /* \"contracts/AccessControl.sol\":2571:2586  _allPermissions */\n  0x00\n    /* \"contracts/AccessControl.sol\":2571:2593  _allPermissions[ADMIN] */\n  dup1\n    /* \"contracts/AccessControl.sol\":677:695  keccak256(\"ADMIN\") */\n  0xdf8b4c520ffe197c5343c6f5aec59570151ef9a492f2c624fd45ddde6135ec42\n    /* \"contracts/AccessControl.sol\":2571:2593  _allPermissions[ADMIN] */\n  dup2\n  mstore\n  0x20\n  add\n  swap1\n  dup2\n  mstore\n  0x20\n  add\n  0x00\n  keccak256\n    /* \"contracts/AccessControl.sol\":2571:2601  _allPermissions[ADMIN].members */\n  0x00\n  add\n    /* \"contracts/AccessControl.sol\":2571:2613  _allPermissions[ADMIN].members[msg.sender] */\n  0x00\n    /* \"contracts/AccessControl.sol\":2602:2612  msg.sender */\n  caller\n    /* \"contracts/AccessControl.sol\":2571:2613  _allPermissions[ADMIN].members[msg.sender] */\n  0xffffffffffffffffffffffffffffffffffffffff\n  and\n  0xffffffffffffffffffffffffffffffffffffffff\n  and\n  dup2\n  mstore\n  0x20\n  add\n  swap1\n  dup2\n  mstore\n  0x20\n  add\n  0x00\n  keccak256\n  0x00\n    /* \"contracts/AccessControl.sol\":2571:2620  _allPermissions[ADMIN].members[msg.sender] = true */\n  0x0100\n  exp\n  dup2\n  sload\n  dup2\n  0xff\n  mul\n  not\n  and\n  swap1\n  dup4\n  iszero\n  iszero\n  mul\n  or\n  swap1\n  sstore\n  pop\n    /* \"contracts/AccessControl.sol\":2665:2675  msg.sender */\n  caller\n    /* \"contracts/AccessControl.sol\":2631:2646  _allPermissions */\n  0x00\n    /* \"contracts/AccessControl.sol\":2631:2653  _allPermissions[ADMIN] */\n  dup1\n    /* \"contracts/AccessControl.sol\":677:695  keccak256(\"ADMIN\") */\n  0xdf8b4c520ffe197c5343c6f5aec59570151ef9a492f2c624fd45ddde6135ec42\n    /* \"contracts/AccessControl.sol\":2631:2653  _allPermissions[ADMIN] */\n  dup2\n  mstore\n  0x20\n  add\n  swap1\n  dup2\n  mstore\n  0x20\n  add\n  0x00\n  keccak256\n    /* \"contracts/AccessControl.sol\":2631:2659  _allPermissions[ADMIN].index */\n  0x01\n  add\n    /* \"contracts/AccessControl.sol\":2631:2662  _allPermissions[ADMIN].index[0] */\n  0x00\n    /* \"contracts/AccessControl.sol\":2660:2661  0 */\n  dup1\n    /* \"contracts/AccessControl.sol\":2631:2662  _allPermissions[ADMIN].index[0] */\n  dup2\n  mstore\n  0x20\n  add\n  swap1\n  dup2\n  mstore\n  0x20\n  add\n  0x00\n  keccak256\n  0x00\n    /* \"contracts/AccessControl.sol\":2631:2675  _allPermissions[ADMIN].index[0] = msg.sender */\n  0x0100\n  exp\n  dup2\n  sload\n  dup2\n  0xffffffffffffffffffffffffffffffffffffffff\n  mul\n  not\n  and\n  swap1\n  dup4\n  0xffffffffffffffffffffffffffffffffffffffff\n  and\n  mul\n  or\n  swap1\n  sstore\n  pop\n    /* \"contracts/AccessControl.sol\":2718:2719  1 */\n  0x01\n    /* \"contracts/AccessControl.sol\":2686:2701  _allPermissions */\n  0x00\n    /* \"contracts/AccessControl.sol\":2686:2708  _allPermissions[ADMIN] */\n  dup1\n    /* \"contracts/AccessControl.sol\":677:695  keccak256(\"ADMIN\") */\n  0xdf8b4c520ffe197c5343c6f5aec59570151ef9a492f2c624fd45ddde6135ec42\n    /* \"contracts/AccessControl.sol\":2686:2708  _allPermissions[ADMIN] */\n  dup2\n  mstore\n  0x20\n  add\n  swap1\n  dup2\n  mstore\n  0x20\n  add\n  0x00\n  keccak256\n    /* \"contracts/AccessControl.sol\":2686:2715  _allPermissions[ADMIN].length */\n  0x02\n  add\n    /* \"contracts/AccessControl.sol\":2686:2719  _allPermissions[ADMIN].length = 1 */\n  dup2\n  swap1\n  sstore\n  pop\n    /* \"contracts/AccessControl.sol\":677:695  keccak256(\"ADMIN\") */\n  0xdf8b4c520ffe197c5343c6f5aec59570151ef9a492f2c624fd45ddde6135ec42\n    /* \"contracts/AccessControl.sol\":2730:2749  _indexOfPermissions */\n  0x01\n    /* \"contracts/AccessControl.sol\":2730:2752  _indexOfPermissions[0] */\n  0x00\n    /* \"contracts/AccessControl.sol\":2750:2751  0 */\n  dup1\n    /* \"contracts/AccessControl.sol\":2730:2752  _indexOfPermissions[0] */\n  dup2\n  mstore\n  0x20\n  add\n  swap1\n  dup2\n  mstore\n  0x20\n  add\n  0x00\n  keccak256\n    /* \"contracts/AccessControl.sol\":2730:2760  _indexOfPermissions[0] = ADMIN */\n  dup2\n  swap1\n  sstore\n  pop\n    /* \"contracts/AccessControl.sol\":2815:2819  true */\n  0x01\n    /* \"contracts/AccessControl.sol\":2773:2788  _allPermissions */\n  0x00\n    /* \"contracts/AccessControl.sol\":2773:2804  _allPermissions[ACCESS_MANAGER] */\n  dup1\n    /* \"contracts/AccessControl.sol\":1147:1174  keccak256(\"ACCESS_MANAGER\") */\n  0x73d57861095ed1ff7b0e5c00e25f9fc922cf9164e617149ee7073f371364c954\n    /* \"contracts/AccessControl.sol\":2773:2804  _allPermissions[ACCESS_MANAGER] */\n  dup2\n  mstore\n  0x20\n  add\n  swap1\n  dup2\n  mstore\n  0x20\n  add\n  0x00\n  keccak256\n    /* \"contracts/AccessControl.sol\":2773:2812  _allPermissions[ACCESS_MANAGER].isValid */\n  0x03\n  add\n  0x00\n    /* \"contracts/AccessControl.sol\":2773:2819  _allPermissions[ACCESS_MANAGER].isValid = true */\n  0x0100\n  exp\n  dup2\n  sload\n  dup2\n  0xff\n  mul\n  not\n  and\n  swap1\n  dup4\n  iszero\n  iszero\n  mul\n  or\n  swap1\n  sstore\n  pop\n    /* \"contracts/AccessControl.sol\":2884:2888  true */\n  0x01\n    /* \"contracts/AccessControl.sol\":2830:2845  _allPermissions */\n  0x00\n    /* \"contracts/AccessControl.sol\":2830:2861  _allPermissions[ACCESS_MANAGER] */\n  dup1\n    /* \"contracts/AccessControl.sol\":1147:1174  keccak256(\"ACCESS_MANAGER\") */\n  0x73d57861095ed1ff7b0e5c00e25f9fc922cf9164e617149ee7073f371364c954\n    /* \"contracts/AccessControl.sol\":2830:2861  _allPermissions[ACCESS_MANAGER] */\n  dup2\n  mstore\n  0x20\n  add\n  swap1\n  dup2\n  mstore\n  0x20\n  add\n  0x00\n  keccak256\n    /* \"contracts/AccessControl.sol\":2830:2869  _allPermissions[ACCESS_MANAGER].members */\n  0x00\n  add\n    /* \"contracts/AccessControl.sol\":2830:2881  _allPermissions[ACCESS_MANAGER].members[msg.sender] */\n  0x00\n    /* \"contracts/AccessControl.sol\":2870:2880  msg.sender */\n  caller\n    /* \"contracts/AccessControl.sol\":2830:2881  _allPermissions[ACCESS_MANAGER].members[msg.sender] */\n  0xffffffffffffffffffffffffffffffffffffffff\n  and\n  0xffffffffffffffffffffffffffffffffffffffff\n  and\n  dup2\n  mstore\n  0x20\n  add\n  swap1\n  dup2\n  mstore\n  0x20\n  add\n  0x00\n  keccak256\n  0x00\n    /* \"contracts/AccessControl.sol\":2830:2888  _allPermissions[ACCESS_MANAGER].members[msg.sender] = true */\n  0x0100\n  exp\n  dup2\n  sload\n  dup2\n  0xff\n  mul\n  not\n  and\n  swap1\n  dup4\n  iszero\n  iszero\n  mul\n  or\n  swap1\n  sstore\n  pop\n    /* \"contracts/AccessControl.sol\":2942:2952  msg.sender */\n  caller\n    /* \"contracts/AccessControl.sol\":2899:2914  _allPermissions */\n  0x00\n    /* \"contracts/AccessControl.sol\":2899:2930  _allPermissions[ACCESS_MANAGER] */\n  dup1\n    /* \"contracts/AccessControl.sol\":1147:1174  keccak256(\"ACCESS_MANAGER\") */\n  0x73d57861095ed1ff7b0e5c00e25f9fc922cf9164e617149ee7073f371364c954\n    /* \"contracts/AccessControl.sol\":2899:2930  _allPermissions[ACCESS_MANAGER] */\n  dup2\n  mstore\n  0x20\n  add\n  swap1\n  dup2\n  mstore\n  0x20\n  add\n  0x00\n  keccak256\n    /* \"contracts/AccessControl.sol\":2899:2936  _allPermissions[ACCESS_MANAGER].index */\n  0x01\n  add\n    /* \"contracts/AccessControl.sol\":2899:2939  _allPermissions[ACCESS_MANAGER].index[0] */\n  0x00\n    /* \"contracts/AccessControl.sol\":2937:2938  0 */\n  dup1\n    /* \"contracts/AccessControl.sol\":2899:2939  _allPermissions[ACCESS_MANAGER].index[0] */\n  dup2\n  mstore\n  0x20\n  add\n  swap1\n  dup2\n  mstore\n  0x20\n  add\n  0x00\n  keccak256\n  0x00\n    /* \"contracts/AccessControl.sol\":2899:2952  _allPermissions[ACCESS_MANAGER].index[0] = msg.sender */\n  0x0100\n  exp\n  dup2\n  sload\n  dup2\n  0xffffffffffffffffffffffffffffffffffffffff\n  mul\n  not\n  and\n  swap1\n  dup4\n  0xffffffffffffffffffffffffffffffffffffffff\n  and\n  mul\n  or\n  swap1\n  sstore\n  pop\n    /* \"contracts/AccessControl.sol\":3004:3005  1 */\n  0x01\n    /* \"contracts/AccessControl.sol\":2963:2978  _allPermissions */\n  0x00\n    /* \"contracts/AccessControl.sol\":2963:2994  _allPermissions[ACCESS_MANAGER] */\n  dup1\n    /* \"contracts/AccessControl.sol\":1147:1174  keccak256(\"ACCESS_MANAGER\") */\n  0x73d57861095ed1ff7b0e5c00e25f9fc922cf9164e617149ee7073f371364c954\n    /* \"contracts/AccessControl.sol\":2963:2994  _allPermissions[ACCESS_MANAGER] */\n  dup2\n  mstore\n  0x20\n  add\n  swap1\n  dup2\n  mstore\n  0x20\n  add\n  0x00\n  keccak256\n    /* \"contracts/AccessControl.sol\":2963:3001  _allPermissions[ACCESS_MANAGER].length */\n  0x02\n  add\n    /* \"contracts/AccessControl.sol\":2963:3005  _allPermissions[ACCESS_MANAGER].length = 1 */\n  dup2\n  swap1\n  sstore\n  pop\n    /* \"contracts/AccessControl.sol\":1147:1174  keccak256(\"ACCESS_MANAGER\") */\n  0x73d57861095ed1ff7b0e5c00e25f9fc922cf9164e617149ee7073f371364c954\n    /* \"contracts/AccessControl.sol\":3016:3035  _indexOfPermissions */\n  0x01\n    /* \"contracts/AccessControl.sol\":3016:3038  _indexOfPermissions[1] */\n  0x00\n    /* \"contracts/AccessControl.sol\":3036:3037  1 */\n  0x01\n    /* \"contracts/AccessControl.sol\":3016:3038  _indexOfPermissions[1] */\n  dup2\n  mstore\n  0x20\n  add\n  swap1\n  dup2\n  mstore\n  0x20\n  add\n  0x00\n  keccak256\n    /* \"contracts/AccessControl.sol\":3016:3055  _indexOfPermissions[1] = ACCESS_MANAGER */\n  dup2\n  swap1\n  sstore\n  pop\n    /* \"contracts/AccessControl.sol\":3091:3092  2 */\n  0x02\n    /* \"contracts/AccessControl.sol\":3068:3088  _numberOfPermissions */\n  dup1\n    /* \"contracts/AccessControl.sol\":3068:3092  _numberOfPermissions = 2 */\n  dup2\n  swap1\n  sstore\n  pop\n    /* \"contracts/AccessControl.sol\":2472:3100  function _initialize() internal virtual {\r... */\n  jump\t// out\n    /* \"contracts/organization/DaoAccessControl.sol\":98:3199  contract DaoAccessControl is AccessControl{\r... */\ntag_6:\n  dataSize(sub_0)\n  dup1\n  dataOffset(sub_0)\n  0x00\n  codecopy\n  0x00\n  return\nstop\n\nsub_0: assembly {\n        /* \"contracts/organization/DaoAccessControl.sol\":98:3199  contract DaoAccessControl is AccessControl{\r... */\n      mstore(0x40, 0x80)\n      callvalue\n      dup1\n      iszero\n      tag_1\n      jumpi\n      0x00\n      dup1\n      revert\n    tag_1:\n      pop\n      jumpi(tag_2, lt(calldatasize, 0x04))\n      shr(0xe0, calldataload(0x00))\n      dup1\n      0x80891cb2\n      gt\n      tag_16\n      jumpi\n      dup1\n      0xa9c96787\n      gt\n      tag_17\n      jumpi\n      dup1\n      0xa9c96787\n      eq\n      tag_12\n      jumpi\n      dup1\n      0xb0258db8\n      eq\n      tag_13\n      jumpi\n      dup1\n      0xe9cb00a2\n      eq\n      tag_14\n      jumpi\n      dup1\n      0xfe64a0d0\n      eq\n      tag_15\n      jumpi\n      jump(tag_2)\n    tag_17:\n      dup1\n      0x80891cb2\n      eq\n      tag_9\n      jumpi\n      dup1\n      0x9b8f3bbc\n      eq\n      tag_10\n      jumpi\n      dup1\n      0xa076a09e\n      eq\n      tag_11\n      jumpi\n      jump(tag_2)\n    tag_16:\n      dup1\n      0x0c7f0dd0\n      eq\n      tag_3\n      jumpi\n      dup1\n      0x437bf48b\n      eq\n      tag_4\n      jumpi\n      dup1\n      0x4c1b64cb\n      eq\n      tag_5\n      jumpi\n      dup1\n      0x56353d82\n      eq\n      tag_6\n      jumpi\n      dup1\n      0x7058dd24\n      eq\n      tag_7\n      jumpi\n      dup1\n      0x75829def\n      eq\n      tag_8\n      jumpi\n    tag_2:\n      0x00\n      dup1\n      revert\n        /* \"contracts/organization/DaoAccessControl.sol\":587:858  function createPermissionByLevel(string memory permissionName, string memory permissionAlready) \r... */\n    tag_3:\n      tag_18\n      0x04\n      dup1\n      calldatasize\n      sub\n      dup2\n      add\n      swap1\n      tag_19\n      swap2\n      swap1\n      tag_20\n      jump\t// in\n    tag_19:\n      tag_21\n      jump\t// in\n    tag_18:\n      stop\n        /* \"contracts/organization/DaoAccessControl.sol\":866:1053  function deletePermission(string memory permissionName) \r... */\n    tag_4:\n      tag_22\n      0x04\n      dup1\n      calldatasize\n      sub\n      dup2\n      add\n      swap1\n      tag_23\n      swap2\n      swap1\n      tag_24\n      jump\t// in\n    tag_23:\n      tag_25\n      jump\t// in\n    tag_22:\n      stop\n        /* \"contracts/organization/DaoAccessControl.sol\":1529:1672  function deleteAccount(address account) \r... */\n    tag_5:\n      tag_26\n      0x04\n      dup1\n      calldatasize\n      sub\n      dup2\n      add\n      swap1\n      tag_27\n      swap2\n      swap1\n      tag_28\n      jump\t// in\n    tag_27:\n      tag_29\n      jump\t// in\n    tag_26:\n      stop\n        /* \"contracts/organization/DaoAccessControl.sol\":2339:2593  function inquiryAllAccountsByPermission(string memory permissionName) \r... */\n    tag_6:\n      tag_30\n      0x04\n      dup1\n      calldatasize\n      sub\n      dup2\n      add\n      swap1\n      tag_31\n      swap2\n      swap1\n      tag_24\n      jump\t// in\n    tag_31:\n      tag_32\n      jump\t// in\n    tag_30:\n      mload(0x40)\n      tag_33\n      swap2\n      swap1\n      tag_34\n      jump\t// in\n    tag_33:\n      mload(0x40)\n      dup1\n      swap2\n      sub\n      swap1\n      return\n        /* \"contracts/organization/DaoAccessControl.sol\":3053:3192  function inquiryAdmin() public view override allowPermission(ADMIN) returns (address) \r... */\n    tag_7:\n      tag_35\n      tag_36\n      jump\t// in\n    tag_35:\n      mload(0x40)\n      tag_37\n      swap2\n      swap1\n      tag_38\n      jump\t// in\n    tag_37:\n      mload(0x40)\n      dup1\n      swap2\n      sub\n      swap1\n      return\n        /* \"contracts/organization/DaoAccessControl.sol\":1680:1823  function transferAdmin(address account) \r... */\n    tag_8:\n      tag_39\n      0x04\n      dup1\n      calldatasize\n      sub\n      dup2\n      add\n      swap1\n      tag_40\n      swap2\n      swap1\n      tag_28\n      jump\t// in\n    tag_40:\n      tag_41\n      jump\t// in\n    tag_39:\n      stop\n        /* \"contracts/organization/DaoAccessControl.sol\":2829:3045  function inquiryAllPermissionsByAccount(address account) \r... */\n    tag_9:\n      tag_42\n      0x04\n      dup1\n      calldatasize\n      sub\n      dup2\n      add\n      swap1\n      tag_43\n      swap2\n      swap1\n      tag_28\n      jump\t// in\n    tag_43:\n      tag_44\n      jump\t// in\n    tag_42:\n      mload(0x40)\n      tag_45\n      swap2\n      swap1\n      tag_46\n      jump\t// in\n    tag_45:\n      mload(0x40)\n      dup1\n      swap2\n      sub\n      swap1\n      return\n        /* \"contracts/organization/DaoAccessControl.sol\":2599:2821  function inquiryAllAccountsByPermission(bytes32 permission) \r... */\n    tag_10:\n      tag_47\n      0x04\n      dup1\n      calldatasize\n      sub\n      dup2\n      add\n      swap1\n      tag_48\n      swap2\n      swap1\n      tag_49\n      jump\t// in\n    tag_48:\n      tag_50\n      jump\t// in\n    tag_47:\n      mload(0x40)\n      tag_51\n      swap2\n      swap1\n      tag_34\n      jump\t// in\n    tag_51:\n      mload(0x40)\n      dup1\n      swap2\n      sub\n      swap1\n      return\n        /* \"contracts/organization/DaoAccessControl.sol\":1845:2101  function inquiryAccountPermission(string memory permissionName, address account) \r... */\n    tag_11:\n      tag_52\n      0x04\n      dup1\n      calldatasize\n      sub\n      dup2\n      add\n      swap1\n      tag_53\n      swap2\n      swap1\n      tag_54\n      jump\t// in\n    tag_53:\n      tag_55\n      jump\t// in\n    tag_52:\n      mload(0x40)\n      tag_56\n      swap2\n      swap1\n      tag_57\n      jump\t// in\n    tag_56:\n      mload(0x40)\n      dup1\n      swap2\n      sub\n      swap1\n      return\n        /* \"contracts/organization/DaoAccessControl.sol\":1294:1521  function revokeAccountPermission(string memory permissionName, address account) \r... */\n    tag_12:\n      tag_58\n      0x04\n      dup1\n      calldatasize\n      sub\n      dup2\n      add\n      swap1\n      tag_59\n      swap2\n      swap1\n      tag_54\n      jump\t// in\n    tag_59:\n      tag_60\n      jump\t// in\n    tag_58:\n      stop\n        /* \"contracts/organization/DaoAccessControl.sol\":1061:1286  function grantAccountPermission(string memory permissionName, address account) \r... */\n    tag_13:\n      tag_61\n      0x04\n      dup1\n      calldatasize\n      sub\n      dup2\n      add\n      swap1\n      tag_62\n      swap2\n      swap1\n      tag_54\n      jump\t// in\n    tag_62:\n      tag_63\n      jump\t// in\n    tag_61:\n      stop\n        /* \"contracts/organization/DaoAccessControl.sol\":2107:2331  function inquiryAccountPermission(bytes32 permission, address account) \r... */\n    tag_14:\n      tag_64\n      0x04\n      dup1\n      calldatasize\n      sub\n      dup2\n      add\n      swap1\n      tag_65\n      swap2\n      swap1\n      tag_66\n      jump\t// in\n    tag_65:\n      tag_67\n      jump\t// in\n    tag_64:\n      mload(0x40)\n      tag_68\n      swap2\n      swap1\n      tag_57\n      jump\t// in\n    tag_68:\n      mload(0x40)\n      dup1\n      swap2\n      sub\n      swap1\n      return\n        /* \"contracts/organization/DaoAccessControl.sol\":392:579  function createPermission(string memory permissionName) \r... */\n    tag_15:\n      tag_69\n      0x04\n      dup1\n      calldatasize\n      sub\n      dup2\n      add\n      swap1\n      tag_70\n      swap2\n      swap1\n      tag_24\n      jump\t// in\n    tag_70:\n      tag_71\n      jump\t// in\n    tag_69:\n      stop\n        /* \"contracts/organization/DaoAccessControl.sol\":587:858  function createPermissionByLevel(string memory permissionName, string memory permissionAlready) \r... */\n    tag_21:\n        /* \"contracts/AccessControl.sol\":1147:1174  keccak256(\"ACCESS_MANAGER\") */\n      0x73d57861095ed1ff7b0e5c00e25f9fc922cf9164e617149ee7073f371364c954\n        /* \"contracts/organization/DaoAccessControl.sol\":267:297  _check(permission, msg.sender) */\n      tag_73\n        /* \"contracts/organization/DaoAccessControl.sol\":274:284  permission */\n      dup2\n        /* \"contracts/organization/DaoAccessControl.sol\":286:296  msg.sender */\n      caller\n        /* \"contracts/organization/DaoAccessControl.sol\":267:273  _check */\n      tag_74\n        /* \"contracts/organization/DaoAccessControl.sol\":267:297  _check(permission, msg.sender) */\n      jump\t// in\n    tag_73:\n        /* \"contracts/organization/DaoAccessControl.sol\":259:364  require(_check(permission, msg.sender), \"AccessControl: You have no permission to access this function.\") */\n      tag_75\n      jumpi\n      mload(0x40)\n      0x08c379a000000000000000000000000000000000000000000000000000000000\n      dup2\n      mstore\n      0x04\n      add\n      tag_76\n      swap1\n      tag_77\n      jump\t// in\n    tag_76:\n      mload(0x40)\n      dup1\n      swap2\n      sub\n      swap1\n      revert\n    tag_75:\n        /* \"contracts/organization/DaoAccessControl.sol\":749:850  super._createPermissionByLevel(keccak256(bytes(permissionName)), keccak256(bytes(permissionAlready))) */\n      tag_79\n        /* \"contracts/organization/DaoAccessControl.sol\":796:810  permissionName */\n      dup4\n        /* \"contracts/organization/DaoAccessControl.sol\":780:812  keccak256(bytes(permissionName)) */\n      dup1\n      mload\n      swap1\n      0x20\n      add\n      keccak256\n        /* \"contracts/organization/DaoAccessControl.sol\":830:847  permissionAlready */\n      dup4\n        /* \"contracts/organization/DaoAccessControl.sol\":814:849  keccak256(bytes(permissionAlready)) */\n      dup1\n      mload\n      swap1\n      0x20\n      add\n      keccak256\n        /* \"contracts/organization/DaoAccessControl.sol\":749:779  super._createPermissionByLevel */\n      tag_80\n        /* \"contracts/organization/DaoAccessControl.sol\":749:850  super._createPermissionByLevel(keccak256(bytes(permissionName)), keccak256(bytes(permissionAlready))) */\n      jump\t// in\n    tag_79:\n        /* \"contracts/organization/DaoAccessControl.sol\":587:858  function createPermissionByLevel(string memory permissionName, string memory permissionAlready) \r... */\n      pop\n      pop\n      pop\n      jump\t// out\n        /* \"contracts/organization/DaoAccessControl.sol\":866:1053  function deletePermission(string memory permissionName) \r... */\n    tag_25:\n        /* \"contracts/AccessControl.sol\":1147:1174  keccak256(\"ACCESS_MANAGER\") */\n      0x73d57861095ed1ff7b0e5c00e25f9fc922cf9164e617149ee7073f371364c954\n        /* \"contracts/organization/DaoAccessControl.sol\":267:297  _check(permission, msg.sender) */\n      tag_82\n        /* \"contracts/organization/DaoAccessControl.sol\":274:284  permission */\n      dup2\n        /* \"contracts/organization/DaoAccessControl.sol\":286:296  msg.sender */\n      caller\n        /* \"contracts/organization/DaoAccessControl.sol\":267:273  _check */\n      tag_74\n        /* \"contracts/organization/DaoAccessControl.sol\":267:297  _check(permission, msg.sender) */\n      jump\t// in\n    tag_82:\n        /* \"contracts/organization/DaoAccessControl.sol\":259:364  require(_check(permission, msg.sender), \"AccessControl: You have no permission to access this function.\") */\n      tag_83\n      jumpi\n      mload(0x40)\n      0x08c379a000000000000000000000000000000000000000000000000000000000\n      dup2\n      mstore\n      0x04\n      add\n      tag_84\n      swap1\n      tag_77\n      jump\t// in\n    tag_84:\n      mload(0x40)\n      dup1\n      swap2\n      sub\n      swap1\n      revert\n    tag_83:\n        /* \"contracts/organization/DaoAccessControl.sol\":988:1045  super._deletePermission(keccak256(bytes(permissionName))) */\n      tag_86\n        /* \"contracts/organization/DaoAccessControl.sol\":1028:1042  permissionName */\n      dup3\n        /* \"contracts/organization/DaoAccessControl.sol\":1012:1044  keccak256(bytes(permissionName)) */\n      dup1\n      mload\n      swap1\n      0x20\n      add\n      keccak256\n        /* \"contracts/organization/DaoAccessControl.sol\":988:1011  super._deletePermission */\n      tag_87\n        /* \"contracts/organization/DaoAccessControl.sol\":988:1045  super._deletePermission(keccak256(bytes(permissionName))) */\n      jump\t// in\n    tag_86:\n        /* \"contracts/organization/DaoAccessControl.sol\":866:1053  function deletePermission(string memory permissionName) \r... */\n      pop\n      pop\n      jump\t// out\n        /* \"contracts/organization/DaoAccessControl.sol\":1529:1672  function deleteAccount(address account) \r... */\n    tag_29:\n        /* \"contracts/AccessControl.sol\":1147:1174  keccak256(\"ACCESS_MANAGER\") */\n      0x73d57861095ed1ff7b0e5c00e25f9fc922cf9164e617149ee7073f371364c954\n        /* \"contracts/organization/DaoAccessControl.sol\":267:297  _check(permission, msg.sender) */\n      tag_89\n        /* \"contracts/organization/DaoAccessControl.sol\":274:284  permission */\n      dup2\n        /* \"contracts/organization/DaoAccessControl.sol\":286:296  msg.sender */\n      caller\n        /* \"contracts/organization/DaoAccessControl.sol\":267:273  _check */\n      tag_74\n        /* \"contracts/organization/DaoAccessControl.sol\":267:297  _check(permission, msg.sender) */\n      jump\t// in\n    tag_89:\n        /* \"contracts/organization/DaoAccessControl.sol\":259:364  require(_check(permission, msg.sender), \"AccessControl: You have no permission to access this function.\") */\n      tag_90\n      jumpi\n      mload(0x40)\n      0x08c379a000000000000000000000000000000000000000000000000000000000\n      dup2\n      mstore\n      0x04\n      add\n      tag_91\n      swap1\n      tag_77\n      jump\t// in\n    tag_91:\n      mload(0x40)\n      dup1\n      swap2\n      sub\n      swap1\n      revert\n    tag_90:\n        /* \"contracts/organization/DaoAccessControl.sol\":1635:1664  super._deleteAccount(account) */\n      tag_93\n        /* \"contracts/organization/DaoAccessControl.sol\":1656:1663  account */\n      dup3\n        /* \"contracts/organization/DaoAccessControl.sol\":1635:1655  super._deleteAccount */\n      tag_94\n        /* \"contracts/organization/DaoAccessControl.sol\":1635:1664  super._deleteAccount(account) */\n      jump\t// in\n    tag_93:\n        /* \"contracts/organization/DaoAccessControl.sol\":1529:1672  function deleteAccount(address account) \r... */\n      pop\n      pop\n      jump\t// out\n        /* \"contracts/organization/DaoAccessControl.sol\":2339:2593  function inquiryAllAccountsByPermission(string memory permissionName) \r... */\n    tag_32:\n        /* \"contracts/organization/DaoAccessControl.sol\":2472:2488  address[] memory */\n      0x60\n        /* \"contracts/AccessControl.sol\":799:817  keccak256(\"STAFF\") */\n      0xa724c0857099da33c38b932ce5d4e84578ee9792153085d9d5e379bfba70cacb\n        /* \"contracts/organization/DaoAccessControl.sol\":267:297  _check(permission, msg.sender) */\n      tag_96\n        /* \"contracts/organization/DaoAccessControl.sol\":274:284  permission */\n      dup2\n        /* \"contracts/organization/DaoAccessControl.sol\":286:296  msg.sender */\n      caller\n        /* \"contracts/organization/DaoAccessControl.sol\":267:273  _check */\n      tag_74\n        /* \"contracts/organization/DaoAccessControl.sol\":267:297  _check(permission, msg.sender) */\n      jump\t// in\n    tag_96:\n        /* \"contracts/organization/DaoAccessControl.sol\":259:364  require(_check(permission, msg.sender), \"AccessControl: You have no permission to access this function.\") */\n      tag_97\n      jumpi\n      mload(0x40)\n      0x08c379a000000000000000000000000000000000000000000000000000000000\n      dup2\n      mstore\n      0x04\n      add\n      tag_98\n      swap1\n      tag_77\n      jump\t// in\n    tag_98:\n      mload(0x40)\n      dup1\n      swap2\n      sub\n      swap1\n      revert\n    tag_97:\n        /* \"contracts/organization/DaoAccessControl.sol\":2514:2585  super._inquiryAllAccountsByPermission(keccak256(bytes(permissionName))) */\n      tag_100\n        /* \"contracts/organization/DaoAccessControl.sol\":2568:2582  permissionName */\n      dup4\n        /* \"contracts/organization/DaoAccessControl.sol\":2552:2584  keccak256(bytes(permissionName)) */\n      dup1\n      mload\n      swap1\n      0x20\n      add\n      keccak256\n        /* \"contracts/organization/DaoAccessControl.sol\":2514:2551  super._inquiryAllAccountsByPermission */\n      tag_101\n        /* \"contracts/organization/DaoAccessControl.sol\":2514:2585  super._inquiryAllAccountsByPermission(keccak256(bytes(permissionName))) */\n      jump\t// in\n    tag_100:\n        /* \"contracts/organization/DaoAccessControl.sol\":2507:2585  return super._inquiryAllAccountsByPermission(keccak256(bytes(permissionName))) */\n      swap2\n      pop\n        /* \"contracts/organization/DaoAccessControl.sol\":2339:2593  function inquiryAllAccountsByPermission(string memory permissionName) \r... */\n      pop\n      swap2\n      swap1\n      pop\n      jump\t// out\n        /* \"contracts/organization/DaoAccessControl.sol\":3053:3192  function inquiryAdmin() public view override allowPermission(ADMIN) returns (address) \r... */\n    tag_36:\n        /* \"contracts/organization/DaoAccessControl.sol\":3130:3137  address */\n      0x00\n        /* \"contracts/AccessControl.sol\":677:695  keccak256(\"ADMIN\") */\n      0xdf8b4c520ffe197c5343c6f5aec59570151ef9a492f2c624fd45ddde6135ec42\n        /* \"contracts/organization/DaoAccessControl.sol\":267:297  _check(permission, msg.sender) */\n      tag_103\n        /* \"contracts/organization/DaoAccessControl.sol\":274:284  permission */\n      dup2\n        /* \"contracts/organization/DaoAccessControl.sol\":286:296  msg.sender */\n      caller\n        /* \"contracts/organization/DaoAccessControl.sol\":267:273  _check */\n      tag_74\n        /* \"contracts/organization/DaoAccessControl.sol\":267:297  _check(permission, msg.sender) */\n      jump\t// in\n    tag_103:\n        /* \"contracts/organization/DaoAccessControl.sol\":259:364  require(_check(permission, msg.sender), \"AccessControl: You have no permission to access this function.\") */\n      tag_104\n      jumpi\n      mload(0x40)\n      0x08c379a000000000000000000000000000000000000000000000000000000000\n      dup2\n      mstore\n      0x04\n      add\n      tag_105\n      swap1\n      tag_77\n      jump\t// in\n    tag_105:\n      mload(0x40)\n      dup1\n      swap2\n      sub\n      swap1\n      revert\n    tag_104:\n        /* \"contracts/organization/DaoAccessControl.sol\":3163:3184  super._inquiryAdmin() */\n      tag_107\n        /* \"contracts/organization/DaoAccessControl.sol\":3163:3182  super._inquiryAdmin */\n      tag_108\n        /* \"contracts/organization/DaoAccessControl.sol\":3163:3184  super._inquiryAdmin() */\n      jump\t// in\n    tag_107:\n        /* \"contracts/organization/DaoAccessControl.sol\":3156:3184  return super._inquiryAdmin() */\n      swap2\n      pop\n        /* \"contracts/organization/DaoAccessControl.sol\":3053:3192  function inquiryAdmin() public view override allowPermission(ADMIN) returns (address) \r... */\n      pop\n      swap1\n      jump\t// out\n        /* \"contracts/organization/DaoAccessControl.sol\":1680:1823  function transferAdmin(address account) \r... */\n    tag_41:\n        /* \"contracts/AccessControl.sol\":1147:1174  keccak256(\"ACCESS_MANAGER\") */\n      0x73d57861095ed1ff7b0e5c00e25f9fc922cf9164e617149ee7073f371364c954\n        /* \"contracts/organization/DaoAccessControl.sol\":267:297  _check(permission, msg.sender) */\n      tag_110\n        /* \"contracts/organization/DaoAccessControl.sol\":274:284  permission */\n      dup2\n        /* \"contracts/organization/DaoAccessControl.sol\":286:296  msg.sender */\n      caller\n        /* \"contracts/organization/DaoAccessControl.sol\":267:273  _check */\n      tag_74\n        /* \"contracts/organization/DaoAccessControl.sol\":267:297  _check(permission, msg.sender) */\n      jump\t// in\n    tag_110:\n        /* \"contracts/organization/DaoAccessControl.sol\":259:364  require(_check(permission, msg.sender), \"AccessControl: You have no permission to access this function.\") */\n      tag_111\n      jumpi\n      mload(0x40)\n      0x08c379a000000000000000000000000000000000000000000000000000000000\n      dup2\n      mstore\n      0x04\n      add\n      tag_112\n      swap1\n      tag_77\n      jump\t// in\n    tag_112:\n      mload(0x40)\n      dup1\n      swap2\n      sub\n      swap1\n      revert\n    tag_111:\n        /* \"contracts/organization/DaoAccessControl.sol\":1786:1815  super._transferAdmin(account) */\n      tag_114\n        /* \"contracts/organization/DaoAccessControl.sol\":1807:1814  account */\n      dup3\n        /* \"contracts/organization/DaoAccessControl.sol\":1786:1806  super._transferAdmin */\n      tag_115\n        /* \"contracts/organization/DaoAccessControl.sol\":1786:1815  super._transferAdmin(account) */\n      jump\t// in\n    tag_114:\n        /* \"contracts/organization/DaoAccessControl.sol\":1680:1823  function transferAdmin(address account) \r... */\n      pop\n      pop\n      jump\t// out\n        /* \"contracts/organization/DaoAccessControl.sol\":2829:3045  function inquiryAllPermissionsByAccount(address account) \r... */\n    tag_44:\n        /* \"contracts/organization/DaoAccessControl.sol\":2949:2965  bytes32[] memory */\n      0x60\n        /* \"contracts/AccessControl.sol\":799:817  keccak256(\"STAFF\") */\n      0xa724c0857099da33c38b932ce5d4e84578ee9792153085d9d5e379bfba70cacb\n        /* \"contracts/organization/DaoAccessControl.sol\":267:297  _check(permission, msg.sender) */\n      tag_117\n        /* \"contracts/organization/DaoAccessControl.sol\":274:284  permission */\n      dup2\n        /* \"contracts/organization/DaoAccessControl.sol\":286:296  msg.sender */\n      caller\n        /* \"contracts/organization/DaoAccessControl.sol\":267:273  _check */\n      tag_74\n        /* \"contracts/organization/DaoAccessControl.sol\":267:297  _check(permission, msg.sender) */\n      jump\t// in\n    tag_117:\n        /* \"contracts/organization/DaoAccessControl.sol\":259:364  require(_check(permission, msg.sender), \"AccessControl: You have no permission to access this function.\") */\n      tag_118\n      jumpi\n      mload(0x40)\n      0x08c379a000000000000000000000000000000000000000000000000000000000\n      dup2\n      mstore\n      0x04\n      add\n      tag_119\n      swap1\n      tag_77\n      jump\t// in\n    tag_119:\n      mload(0x40)\n      dup1\n      swap2\n      sub\n      swap1\n      revert\n    tag_118:\n        /* \"contracts/organization/DaoAccessControl.sol\":2991:3037  super._inquiryAllPermissionsByAccount(account) */\n      tag_121\n        /* \"contracts/organization/DaoAccessControl.sol\":3029:3036  account */\n      dup4\n        /* \"contracts/organization/DaoAccessControl.sol\":2991:3028  super._inquiryAllPermissionsByAccount */\n      tag_122\n        /* \"contracts/organization/DaoAccessControl.sol\":2991:3037  super._inquiryAllPermissionsByAccount(account) */\n      jump\t// in\n    tag_121:\n        /* \"contracts/organization/DaoAccessControl.sol\":2984:3037  return super._inquiryAllPermissionsByAccount(account) */\n      swap2\n      pop\n        /* \"contracts/organization/DaoAccessControl.sol\":2829:3045  function inquiryAllPermissionsByAccount(address account) \r... */\n      pop\n      swap2\n      swap1\n      pop\n      jump\t// out\n        /* \"contracts/organization/DaoAccessControl.sol\":2599:2821  function inquiryAllAccountsByPermission(bytes32 permission) \r... */\n    tag_50:\n        /* \"contracts/organization/DaoAccessControl.sol\":2722:2738  address[] memory */\n      0x60\n        /* \"contracts/AccessControl.sol\":799:817  keccak256(\"STAFF\") */\n      0xa724c0857099da33c38b932ce5d4e84578ee9792153085d9d5e379bfba70cacb\n        /* \"contracts/organization/DaoAccessControl.sol\":267:297  _check(permission, msg.sender) */\n      tag_124\n        /* \"contracts/organization/DaoAccessControl.sol\":274:284  permission */\n      dup2\n        /* \"contracts/organization/DaoAccessControl.sol\":286:296  msg.sender */\n      caller\n        /* \"contracts/organization/DaoAccessControl.sol\":267:273  _check */\n      tag_74\n        /* \"contracts/organization/DaoAccessControl.sol\":267:297  _check(permission, msg.sender) */\n      jump\t// in\n    tag_124:\n        /* \"contracts/organization/DaoAccessControl.sol\":259:364  require(_check(permission, msg.sender), \"AccessControl: You have no permission to access this function.\") */\n      tag_125\n      jumpi\n      mload(0x40)\n      0x08c379a000000000000000000000000000000000000000000000000000000000\n      dup2\n      mstore\n      0x04\n      add\n      tag_126\n      swap1\n      tag_77\n      jump\t// in\n    tag_126:\n      mload(0x40)\n      dup1\n      swap2\n      sub\n      swap1\n      revert\n    tag_125:\n        /* \"contracts/organization/DaoAccessControl.sol\":2764:2813  super._inquiryAllAccountsByPermission(permission) */\n      tag_128\n        /* \"contracts/organization/DaoAccessControl.sol\":2802:2812  permission */\n      dup4\n        /* \"contracts/organization/DaoAccessControl.sol\":2764:2801  super._inquiryAllAccountsByPermission */\n      tag_101\n        /* \"contracts/organization/DaoAccessControl.sol\":2764:2813  super._inquiryAllAccountsByPermission(permission) */\n      jump\t// in\n    tag_128:\n        /* \"contracts/organization/DaoAccessControl.sol\":2757:2813  return super._inquiryAllAccountsByPermission(permission) */\n      swap2\n      pop\n        /* \"contracts/organization/DaoAccessControl.sol\":2599:2821  function inquiryAllAccountsByPermission(bytes32 permission) \r... */\n      pop\n      swap2\n      swap1\n      pop\n      jump\t// out\n        /* \"contracts/organization/DaoAccessControl.sol\":1845:2101  function inquiryAccountPermission(string memory permissionName, address account) \r... */\n    tag_55:\n        /* \"contracts/organization/DaoAccessControl.sol\":1989:1993  bool */\n      0x00\n        /* \"contracts/AccessControl.sol\":677:695  keccak256(\"ADMIN\") */\n      0xdf8b4c520ffe197c5343c6f5aec59570151ef9a492f2c624fd45ddde6135ec42\n        /* \"contracts/organization/DaoAccessControl.sol\":267:297  _check(permission, msg.sender) */\n      tag_130\n        /* \"contracts/organization/DaoAccessControl.sol\":274:284  permission */\n      dup2\n        /* \"contracts/organization/DaoAccessControl.sol\":286:296  msg.sender */\n      caller\n        /* \"contracts/organization/DaoAccessControl.sol\":267:273  _check */\n      tag_74\n        /* \"contracts/organization/DaoAccessControl.sol\":267:297  _check(permission, msg.sender) */\n      jump\t// in\n    tag_130:\n        /* \"contracts/organization/DaoAccessControl.sol\":259:364  require(_check(permission, msg.sender), \"AccessControl: You have no permission to access this function.\") */\n      tag_131\n      jumpi\n      mload(0x40)\n      0x08c379a000000000000000000000000000000000000000000000000000000000\n      dup2\n      mstore\n      0x04\n      add\n      tag_132\n      swap1\n      tag_77\n      jump\t// in\n    tag_132:\n      mload(0x40)\n      dup1\n      swap2\n      sub\n      swap1\n      revert\n    tag_131:\n        /* \"contracts/organization/DaoAccessControl.sol\":2019:2093  super._inquiryAccountPermission(keccak256(bytes(permissionName)), account) */\n      tag_134\n        /* \"contracts/organization/DaoAccessControl.sol\":2067:2081  permissionName */\n      dup5\n        /* \"contracts/organization/DaoAccessControl.sol\":2051:2083  keccak256(bytes(permissionName)) */\n      dup1\n      mload\n      swap1\n      0x20\n      add\n      keccak256\n        /* \"contracts/organization/DaoAccessControl.sol\":2085:2092  account */\n      dup5\n        /* \"contracts/organization/DaoAccessControl.sol\":2019:2050  super._inquiryAccountPermission */\n      tag_135\n        /* \"contracts/organization/DaoAccessControl.sol\":2019:2093  super._inquiryAccountPermission(keccak256(bytes(permissionName)), account) */\n      jump\t// in\n    tag_134:\n        /* \"contracts/organization/DaoAccessControl.sol\":2012:2093  return super._inquiryAccountPermission(keccak256(bytes(permissionName)), account) */\n      swap2\n      pop\n        /* \"contracts/organization/DaoAccessControl.sol\":1845:2101  function inquiryAccountPermission(string memory permissionName, address account) \r... */\n      pop\n      swap3\n      swap2\n      pop\n      pop\n      jump\t// out\n        /* \"contracts/organization/DaoAccessControl.sol\":1294:1521  function revokeAccountPermission(string memory permissionName, address account) \r... */\n    tag_60:\n        /* \"contracts/AccessControl.sol\":1147:1174  keccak256(\"ACCESS_MANAGER\") */\n      0x73d57861095ed1ff7b0e5c00e25f9fc922cf9164e617149ee7073f371364c954\n        /* \"contracts/organization/DaoAccessControl.sol\":267:297  _check(permission, msg.sender) */\n      tag_137\n        /* \"contracts/organization/DaoAccessControl.sol\":274:284  permission */\n      dup2\n        /* \"contracts/organization/DaoAccessControl.sol\":286:296  msg.sender */\n      caller\n        /* \"contracts/organization/DaoAccessControl.sol\":267:273  _check */\n      tag_74\n        /* \"contracts/organization/DaoAccessControl.sol\":267:297  _check(permission, msg.sender) */\n      jump\t// in\n    tag_137:\n        /* \"contracts/organization/DaoAccessControl.sol\":259:364  require(_check(permission, msg.sender), \"AccessControl: You have no permission to access this function.\") */\n      tag_138\n      jumpi\n      mload(0x40)\n      0x08c379a000000000000000000000000000000000000000000000000000000000\n      dup2\n      mstore\n      0x04\n      add\n      tag_139\n      swap1\n      tag_77\n      jump\t// in\n    tag_139:\n      mload(0x40)\n      dup1\n      swap2\n      sub\n      swap1\n      revert\n    tag_138:\n        /* \"contracts/organization/DaoAccessControl.sol\":1440:1513  super._revokeAccountPermission(keccak256(bytes(permissionName)), account) */\n      tag_141\n        /* \"contracts/organization/DaoAccessControl.sol\":1487:1501  permissionName */\n      dup4\n        /* \"contracts/organization/DaoAccessControl.sol\":1471:1503  keccak256(bytes(permissionName)) */\n      dup1\n      mload\n      swap1\n      0x20\n      add\n      keccak256\n        /* \"contracts/organization/DaoAccessControl.sol\":1505:1512  account */\n      dup4\n        /* \"contracts/organization/DaoAccessControl.sol\":1440:1470  super._revokeAccountPermission */\n      tag_142\n        /* \"contracts/organization/DaoAccessControl.sol\":1440:1513  super._revokeAccountPermission(keccak256(bytes(permissionName)), account) */\n      jump\t// in\n    tag_141:\n        /* \"contracts/organization/DaoAccessControl.sol\":1294:1521  function revokeAccountPermission(string memory permissionName, address account) \r... */\n      pop\n      pop\n      pop\n      jump\t// out\n        /* \"contracts/organization/DaoAccessControl.sol\":1061:1286  function grantAccountPermission(string memory permissionName, address account) \r... */\n    tag_63:\n        /* \"contracts/AccessControl.sol\":1147:1174  keccak256(\"ACCESS_MANAGER\") */\n      0x73d57861095ed1ff7b0e5c00e25f9fc922cf9164e617149ee7073f371364c954\n        /* \"contracts/organization/DaoAccessControl.sol\":267:297  _check(permission, msg.sender) */\n      tag_144\n        /* \"contracts/organization/DaoAccessControl.sol\":274:284  permission */\n      dup2\n        /* \"contracts/organization/DaoAccessControl.sol\":286:296  msg.sender */\n      caller\n        /* \"contracts/organization/DaoAccessControl.sol\":267:273  _check */\n      tag_74\n        /* \"contracts/organization/DaoAccessControl.sol\":267:297  _check(permission, msg.sender) */\n      jump\t// in\n    tag_144:\n        /* \"contracts/organization/DaoAccessControl.sol\":259:364  require(_check(permission, msg.sender), \"AccessControl: You have no permission to access this function.\") */\n      tag_145\n      jumpi\n      mload(0x40)\n      0x08c379a000000000000000000000000000000000000000000000000000000000\n      dup2\n      mstore\n      0x04\n      add\n      tag_146\n      swap1\n      tag_77\n      jump\t// in\n    tag_146:\n      mload(0x40)\n      dup1\n      swap2\n      sub\n      swap1\n      revert\n    tag_145:\n        /* \"contracts/organization/DaoAccessControl.sol\":1206:1278  super._grantAccountPermission(keccak256(bytes(permissionName)), account) */\n      tag_148\n        /* \"contracts/organization/DaoAccessControl.sol\":1252:1266  permissionName */\n      dup4\n        /* \"contracts/organization/DaoAccessControl.sol\":1236:1268  keccak256(bytes(permissionName)) */\n      dup1\n      mload\n      swap1\n      0x20\n      add\n      keccak256\n        /* \"contracts/organization/DaoAccessControl.sol\":1270:1277  account */\n      dup4\n        /* \"contracts/organization/DaoAccessControl.sol\":1206:1235  super._grantAccountPermission */\n      tag_149\n        /* \"contracts/organization/DaoAccessControl.sol\":1206:1278  super._grantAccountPermission(keccak256(bytes(permissionName)), account) */\n      jump\t// in\n    tag_148:\n        /* \"contracts/organization/DaoAccessControl.sol\":1061:1286  function grantAccountPermission(string memory permissionName, address account) \r... */\n      pop\n      pop\n      pop\n      jump\t// out\n        /* \"contracts/organization/DaoAccessControl.sol\":2107:2331  function inquiryAccountPermission(bytes32 permission, address account) \r... */\n    tag_67:\n        /* \"contracts/organization/DaoAccessControl.sol\":2241:2245  bool */\n      0x00\n        /* \"contracts/AccessControl.sol\":677:695  keccak256(\"ADMIN\") */\n      0xdf8b4c520ffe197c5343c6f5aec59570151ef9a492f2c624fd45ddde6135ec42\n        /* \"contracts/organization/DaoAccessControl.sol\":267:297  _check(permission, msg.sender) */\n      tag_151\n        /* \"contracts/organization/DaoAccessControl.sol\":274:284  permission */\n      dup2\n        /* \"contracts/organization/DaoAccessControl.sol\":286:296  msg.sender */\n      caller\n        /* \"contracts/organization/DaoAccessControl.sol\":267:273  _check */\n      tag_74\n        /* \"contracts/organization/DaoAccessControl.sol\":267:297  _check(permission, msg.sender) */\n      jump\t// in\n    tag_151:\n        /* \"contracts/organization/DaoAccessControl.sol\":259:364  require(_check(permission, msg.sender), \"AccessControl: You have no permission to access this function.\") */\n      tag_152\n      jumpi\n      mload(0x40)\n      0x08c379a000000000000000000000000000000000000000000000000000000000\n      dup2\n      mstore\n      0x04\n      add\n      tag_153\n      swap1\n      tag_77\n      jump\t// in\n    tag_153:\n      mload(0x40)\n      dup1\n      swap2\n      sub\n      swap1\n      revert\n    tag_152:\n        /* \"contracts/organization/DaoAccessControl.sol\":2271:2323  super._inquiryAccountPermission(permission, account) */\n      tag_155\n        /* \"contracts/organization/DaoAccessControl.sol\":2303:2313  permission */\n      dup5\n        /* \"contracts/organization/DaoAccessControl.sol\":2315:2322  account */\n      dup5\n        /* \"contracts/organization/DaoAccessControl.sol\":2271:2302  super._inquiryAccountPermission */\n      tag_135\n        /* \"contracts/organization/DaoAccessControl.sol\":2271:2323  super._inquiryAccountPermission(permission, account) */\n      jump\t// in\n    tag_155:\n        /* \"contracts/organization/DaoAccessControl.sol\":2264:2323  return super._inquiryAccountPermission(permission, account) */\n      swap2\n      pop\n        /* \"contracts/organization/DaoAccessControl.sol\":2107:2331  function inquiryAccountPermission(bytes32 permission, address account) \r... */\n      pop\n      swap3\n      swap2\n      pop\n      pop\n      jump\t// out\n        /* \"contracts/organization/DaoAccessControl.sol\":392:579  function createPermission(string memory permissionName) \r... */\n    tag_71:\n        /* \"contracts/AccessControl.sol\":1147:1174  keccak256(\"ACCESS_MANAGER\") */\n      0x73d57861095ed1ff7b0e5c00e25f9fc922cf9164e617149ee7073f371364c954\n        /* \"contracts/organization/DaoAccessControl.sol\":267:297  _check(permission, msg.sender) */\n      tag_157\n        /* \"contracts/organization/DaoAccessControl.sol\":274:284  permission */\n      dup2\n        /* \"contracts/organization/DaoAccessControl.sol\":286:296  msg.sender */\n      caller\n        /* \"contracts/organization/DaoAccessControl.sol\":267:273  _check */\n      tag_74\n        /* \"contracts/organization/DaoAccessControl.sol\":267:297  _check(permission, msg.sender) */\n      jump\t// in\n    tag_157:\n        /* \"contracts/organization/DaoAccessControl.sol\":259:364  require(_check(permission, msg.sender), \"AccessControl: You have no permission to access this function.\") */\n      tag_158\n      jumpi\n      mload(0x40)\n      0x08c379a000000000000000000000000000000000000000000000000000000000\n      dup2\n      mstore\n      0x04\n      add\n      tag_159\n      swap1\n      tag_77\n      jump\t// in\n    tag_159:\n      mload(0x40)\n      dup1\n      swap2\n      sub\n      swap1\n      revert\n    tag_158:\n        /* \"contracts/organization/DaoAccessControl.sol\":514:571  super._createPermission(keccak256(bytes(permissionName))) */\n      tag_161\n        /* \"contracts/organization/DaoAccessControl.sol\":554:568  permissionName */\n      dup3\n        /* \"contracts/organization/DaoAccessControl.sol\":538:570  keccak256(bytes(permissionName)) */\n      dup1\n      mload\n      swap1\n      0x20\n      add\n      keccak256\n        /* \"contracts/organization/DaoAccessControl.sol\":514:537  super._createPermission */\n      tag_162\n        /* \"contracts/organization/DaoAccessControl.sol\":514:571  super._createPermission(keccak256(bytes(permissionName))) */\n      jump\t// in\n    tag_161:\n        /* \"contracts/organization/DaoAccessControl.sol\":392:579  function createPermission(string memory permissionName) \r... */\n      pop\n      pop\n      jump\t// out\n        /* \"contracts/AccessControl.sol\":1652:1924  function _check(bytes32 permission, address account) internal view virtual returns (bool) {\r... */\n    tag_74:\n        /* \"contracts/AccessControl.sol\":1736:1740  bool */\n      0x00\n        /* \"contracts/AccessControl.sol\":1757:1772  _allPermissions */\n      dup1\n        /* \"contracts/AccessControl.sol\":1757:1784  _allPermissions[permission] */\n      0x00\n        /* \"contracts/AccessControl.sol\":1773:1783  permission */\n      dup5\n        /* \"contracts/AccessControl.sol\":1757:1784  _allPermissions[permission] */\n      dup2\n      mstore\n      0x20\n      add\n      swap1\n      dup2\n      mstore\n      0x20\n      add\n      0x00\n      keccak256\n        /* \"contracts/AccessControl.sol\":1757:1792  _allPermissions[permission].isValid */\n      0x03\n      add\n      0x00\n      swap1\n      sload\n      swap1\n      0x0100\n      exp\n      swap1\n      div\n      0xff\n      and\n        /* \"contracts/AccessControl.sol\":1753:1917  if(!_allPermissions[permission].isValid) {\r... */\n      tag_164\n      jumpi\n        /* \"contracts/AccessControl.sol\":1816:1821  false */\n      0x00\n        /* \"contracts/AccessControl.sol\":1809:1821  return false */\n      swap1\n      pop\n      jump(tag_163)\n        /* \"contracts/AccessControl.sol\":1753:1917  if(!_allPermissions[permission].isValid) {\r... */\n    tag_164:\n        /* \"contracts/AccessControl.sol\":1861:1876  _allPermissions */\n      0x00\n        /* \"contracts/AccessControl.sol\":1861:1888  _allPermissions[permission] */\n      dup1\n        /* \"contracts/AccessControl.sol\":1877:1887  permission */\n      dup5\n        /* \"contracts/AccessControl.sol\":1861:1888  _allPermissions[permission] */\n      dup2\n      mstore\n      0x20\n      add\n      swap1\n      dup2\n      mstore\n      0x20\n      add\n      0x00\n      keccak256\n        /* \"contracts/AccessControl.sol\":1861:1896  _allPermissions[permission].members */\n      0x00\n      add\n        /* \"contracts/AccessControl.sol\":1861:1905  _allPermissions[permission].members[account] */\n      0x00\n        /* \"contracts/AccessControl.sol\":1897:1904  account */\n      dup4\n        /* \"contracts/AccessControl.sol\":1861:1905  _allPermissions[permission].members[account] */\n      0xffffffffffffffffffffffffffffffffffffffff\n      and\n      0xffffffffffffffffffffffffffffffffffffffff\n      and\n      dup2\n      mstore\n      0x20\n      add\n      swap1\n      dup2\n      mstore\n      0x20\n      add\n      0x00\n      keccak256\n      0x00\n      swap1\n      sload\n      swap1\n      0x0100\n      exp\n      swap1\n      div\n      0xff\n      and\n        /* \"contracts/AccessControl.sol\":1854:1905  return _allPermissions[permission].members[account] */\n      swap1\n      pop\n        /* \"contracts/AccessControl.sol\":1652:1924  function _check(bytes32 permission, address account) internal view virtual returns (bool) {\r... */\n    tag_163:\n      swap3\n      swap2\n      pop\n      pop\n      jump\t// out\n        /* \"contracts/AccessControl.sol\":4199:5256  function _createPermissionByLevel(bytes32 permission, bytes32 permissionA) internal virtual {\r... */\n    tag_80:\n        /* \"contracts/AccessControl.sol\":4445:4460  _allPermissions */\n      0x00\n        /* \"contracts/AccessControl.sol\":4445:4472  _allPermissions[permission] */\n      dup1\n        /* \"contracts/AccessControl.sol\":4461:4471  permission */\n      dup4\n        /* \"contracts/AccessControl.sol\":4445:4472  _allPermissions[permission] */\n      dup2\n      mstore\n      0x20\n      add\n      swap1\n      dup2\n      mstore\n      0x20\n      add\n      0x00\n      keccak256\n        /* \"contracts/AccessControl.sol\":4445:4480  _allPermissions[permission].isValid */\n      0x03\n      add\n      0x00\n      swap1\n      sload\n      swap1\n      0x0100\n      exp\n      swap1\n      div\n      0xff\n      and\n        /* \"contracts/AccessControl.sol\":4440:5249  if (!_allPermissions[permission].isValid) {\r... */\n      tag_167\n      jumpi\n        /* \"contracts/AccessControl.sol\":4497:4531  _changePermissionIndex(permission) */\n      tag_168\n        /* \"contracts/AccessControl.sol\":4520:4530  permission */\n      dup3\n        /* \"contracts/AccessControl.sol\":4497:4519  _changePermissionIndex */\n      tag_169\n        /* \"contracts/AccessControl.sol\":4497:4531  _changePermissionIndex(permission) */\n      jump\t// in\n    tag_168:\n        /* \"contracts/AccessControl.sol\":4584:4588  true */\n      0x01\n        /* \"contracts/AccessControl.sol\":4546:4561  _allPermissions */\n      0x00\n        /* \"contracts/AccessControl.sol\":4546:4573  _allPermissions[permission] */\n      dup1\n        /* \"contracts/AccessControl.sol\":4562:4572  permission */\n      dup5\n        /* \"contracts/AccessControl.sol\":4546:4573  _allPermissions[permission] */\n      dup2\n      mstore\n      0x20\n      add\n      swap1\n      dup2\n      mstore\n      0x20\n      add\n      0x00\n      keccak256\n        /* \"contracts/AccessControl.sol\":4546:4581  _allPermissions[permission].isValid */\n      0x03\n      add\n      0x00\n        /* \"contracts/AccessControl.sol\":4546:4588  _allPermissions[permission].isValid = true */\n      0x0100\n      exp\n      dup2\n      sload\n      dup2\n      0xff\n      mul\n      not\n      and\n      swap1\n      dup4\n      iszero\n      iszero\n      mul\n      or\n      swap1\n      sstore\n      pop\n        /* \"contracts/AccessControl.sol\":4655:4661  uint i */\n      0x00\n        /* \"contracts/AccessControl.sol\":4651:5007  for(uint i = 0; i < _allPermissions[permissionA].length; i++) {\r... */\n    tag_170:\n        /* \"contracts/AccessControl.sol\":4671:4686  _allPermissions */\n      0x00\n        /* \"contracts/AccessControl.sol\":4671:4699  _allPermissions[permissionA] */\n      dup1\n        /* \"contracts/AccessControl.sol\":4687:4698  permissionA */\n      dup4\n        /* \"contracts/AccessControl.sol\":4671:4699  _allPermissions[permissionA] */\n      dup2\n      mstore\n      0x20\n      add\n      swap1\n      dup2\n      mstore\n      0x20\n      add\n      0x00\n      keccak256\n        /* \"contracts/AccessControl.sol\":4671:4706  _allPermissions[permissionA].length */\n      0x02\n      add\n      sload\n        /* \"contracts/AccessControl.sol\":4667:4668  i */\n      dup2\n        /* \"contracts/AccessControl.sol\":4667:4706  i < _allPermissions[permissionA].length */\n      lt\n        /* \"contracts/AccessControl.sol\":4651:5007  for(uint i = 0; i < _allPermissions[permissionA].length; i++) {\r... */\n      iszero\n      tag_171\n      jumpi\n        /* \"contracts/AccessControl.sol\":4732:4754  address indexOfAddress */\n      0x00\n        /* \"contracts/AccessControl.sol\":4757:4772  _allPermissions */\n      dup1\n        /* \"contracts/AccessControl.sol\":4757:4785  _allPermissions[permissionA] */\n      0x00\n        /* \"contracts/AccessControl.sol\":4773:4784  permissionA */\n      dup5\n        /* \"contracts/AccessControl.sol\":4757:4785  _allPermissions[permissionA] */\n      dup2\n      mstore\n      0x20\n      add\n      swap1\n      dup2\n      mstore\n      0x20\n      add\n      0x00\n      keccak256\n        /* \"contracts/AccessControl.sol\":4757:4791  _allPermissions[permissionA].index */\n      0x01\n      add\n        /* \"contracts/AccessControl.sol\":4757:4794  _allPermissions[permissionA].index[i] */\n      0x00\n        /* \"contracts/AccessControl.sol\":4792:4793  i */\n      dup4\n        /* \"contracts/AccessControl.sol\":4757:4794  _allPermissions[permissionA].index[i] */\n      dup2\n      mstore\n      0x20\n      add\n      swap1\n      dup2\n      mstore\n      0x20\n      add\n      0x00\n      keccak256\n      0x00\n      swap1\n      sload\n      swap1\n      0x0100\n      exp\n      swap1\n      div\n      0xffffffffffffffffffffffffffffffffffffffff\n      and\n        /* \"contracts/AccessControl.sol\":4732:4794  address indexOfAddress = _allPermissions[permissionA].index[i] */\n      swap1\n      pop\n        /* \"contracts/AccessControl.sol\":4867:4882  _allPermissions */\n      0x00\n        /* \"contracts/AccessControl.sol\":4867:4895  _allPermissions[permissionA] */\n      dup1\n        /* \"contracts/AccessControl.sol\":4883:4894  permissionA */\n      dup5\n        /* \"contracts/AccessControl.sol\":4867:4895  _allPermissions[permissionA] */\n      dup2\n      mstore\n      0x20\n      add\n      swap1\n      dup2\n      mstore\n      0x20\n      add\n      0x00\n      keccak256\n        /* \"contracts/AccessControl.sol\":4867:4903  _allPermissions[permissionA].members */\n      0x00\n      add\n        /* \"contracts/AccessControl.sol\":4867:4919  _allPermissions[permissionA].members[indexOfAddress] */\n      0x00\n        /* \"contracts/AccessControl.sol\":4904:4918  indexOfAddress */\n      dup3\n        /* \"contracts/AccessControl.sol\":4867:4919  _allPermissions[permissionA].members[indexOfAddress] */\n      0xffffffffffffffffffffffffffffffffffffffff\n      and\n      0xffffffffffffffffffffffffffffffffffffffff\n      and\n      dup2\n      mstore\n      0x20\n      add\n      swap1\n      dup2\n      mstore\n      0x20\n      add\n      0x00\n      keccak256\n      0x00\n      swap1\n      sload\n      swap1\n      0x0100\n      exp\n      swap1\n      div\n      0xff\n      and\n        /* \"contracts/AccessControl.sol\":4813:4828  _allPermissions */\n      0x00\n        /* \"contracts/AccessControl.sol\":4813:4840  _allPermissions[permission] */\n      dup1\n        /* \"contracts/AccessControl.sol\":4829:4839  permission */\n      dup7\n        /* \"contracts/AccessControl.sol\":4813:4840  _allPermissions[permission] */\n      dup2\n      mstore\n      0x20\n      add\n      swap1\n      dup2\n      mstore\n      0x20\n      add\n      0x00\n      keccak256\n        /* \"contracts/AccessControl.sol\":4813:4848  _allPermissions[permission].members */\n      0x00\n      add\n        /* \"contracts/AccessControl.sol\":4813:4864  _allPermissions[permission].members[indexOfAddress] */\n      0x00\n        /* \"contracts/AccessControl.sol\":4849:4863  indexOfAddress */\n      dup4\n        /* \"contracts/AccessControl.sol\":4813:4864  _allPermissions[permission].members[indexOfAddress] */\n      0xffffffffffffffffffffffffffffffffffffffff\n      and\n      0xffffffffffffffffffffffffffffffffffffffff\n      and\n      dup2\n      mstore\n      0x20\n      add\n      swap1\n      dup2\n      mstore\n      0x20\n      add\n      0x00\n      keccak256\n      0x00\n        /* \"contracts/AccessControl.sol\":4813:4919  _allPermissions[permission].members[indexOfAddress] = _allPermissions[permissionA].members[indexOfAddress] */\n      0x0100\n      exp\n      dup2\n      sload\n      dup2\n      0xff\n      mul\n      not\n      and\n      swap1\n      dup4\n      iszero\n      iszero\n      mul\n      or\n      swap1\n      sstore\n      pop\n        /* \"contracts/AccessControl.sol\":4977:4991  indexOfAddress */\n      dup1\n        /* \"contracts/AccessControl.sol\":4938:4953  _allPermissions */\n      0x00\n        /* \"contracts/AccessControl.sol\":4938:4965  _allPermissions[permission] */\n      dup1\n        /* \"contracts/AccessControl.sol\":4954:4964  permission */\n      dup7\n        /* \"contracts/AccessControl.sol\":4938:4965  _allPermissions[permission] */\n      dup2\n      mstore\n      0x20\n      add\n      swap1\n      dup2\n      mstore\n      0x20\n      add\n      0x00\n      keccak256\n        /* \"contracts/AccessControl.sol\":4938:4971  _allPermissions[permission].index */\n      0x01\n      add\n        /* \"contracts/AccessControl.sol\":4938:4974  _allPermissions[permission].index[i] */\n      0x00\n        /* \"contracts/AccessControl.sol\":4972:4973  i */\n      dup5\n        /* \"contracts/AccessControl.sol\":4938:4974  _allPermissions[permission].index[i] */\n      dup2\n      mstore\n      0x20\n      add\n      swap1\n      dup2\n      mstore\n      0x20\n      add\n      0x00\n      keccak256\n      0x00\n        /* \"contracts/AccessControl.sol\":4938:4991  _allPermissions[permission].index[i] = indexOfAddress */\n      0x0100\n      exp\n      dup2\n      sload\n      dup2\n      0xffffffffffffffffffffffffffffffffffffffff\n      mul\n      not\n      and\n      swap1\n      dup4\n      0xffffffffffffffffffffffffffffffffffffffff\n      and\n      mul\n      or\n      swap1\n      sstore\n      pop\n        /* \"contracts/AccessControl.sol\":4713:5007  {\r... */\n      pop\n        /* \"contracts/AccessControl.sol\":4708:4711  i++ */\n      dup1\n      dup1\n      tag_173\n      swap1\n      tag_174\n      jump\t// in\n    tag_173:\n      swap2\n      pop\n      pop\n        /* \"contracts/AccessControl.sol\":4651:5007  for(uint i = 0; i < _allPermissions[permissionA].length; i++) {\r... */\n      jump(tag_170)\n    tag_171:\n      pop\n        /* \"contracts/AccessControl.sol\":5058:5073  _allPermissions */\n      0x00\n        /* \"contracts/AccessControl.sol\":5058:5086  _allPermissions[permissionA] */\n      dup1\n        /* \"contracts/AccessControl.sol\":5074:5085  permissionA */\n      dup3\n        /* \"contracts/AccessControl.sol\":5058:5086  _allPermissions[permissionA] */\n      dup2\n      mstore\n      0x20\n      add\n      swap1\n      dup2\n      mstore\n      0x20\n      add\n      0x00\n      keccak256\n        /* \"contracts/AccessControl.sol\":5058:5093  _allPermissions[permissionA].length */\n      0x02\n      add\n      sload\n        /* \"contracts/AccessControl.sol\":5021:5036  _allPermissions */\n      0x00\n        /* \"contracts/AccessControl.sol\":5021:5048  _allPermissions[permission] */\n      dup1\n        /* \"contracts/AccessControl.sol\":5037:5047  permission */\n      dup5\n        /* \"contracts/AccessControl.sol\":5021:5048  _allPermissions[permission] */\n      dup2\n      mstore\n      0x20\n      add\n      swap1\n      dup2\n      mstore\n      0x20\n      add\n      0x00\n      keccak256\n        /* \"contracts/AccessControl.sol\":5021:5055  _allPermissions[permission].length */\n      0x02\n      add\n        /* \"contracts/AccessControl.sol\":5021:5093  _allPermissions[permission].length = _allPermissions[permissionA].length */\n      dup2\n      swap1\n      sstore\n      pop\n        /* \"contracts/AccessControl.sol\":5143:5153  msg.sender */\n      caller\n        /* \"contracts/AccessControl.sol\":5113:5154  PermissionCreated(permission, msg.sender) */\n      0xffffffffffffffffffffffffffffffffffffffff\n      and\n        /* \"contracts/AccessControl.sol\":5131:5141  permission */\n      dup3\n        /* \"contracts/AccessControl.sol\":5113:5154  PermissionCreated(permission, msg.sender) */\n      0xe5441ae34479a403bc99d68df28ccb0c68ca8cb80aa5142c84cd5e6782c5c149\n      mload(0x40)\n      mload(0x40)\n      dup1\n      swap2\n      sub\n      swap1\n      log3\n        /* \"contracts/AccessControl.sol\":4440:5249  if (!_allPermissions[permission].isValid) {\r... */\n      jump(tag_175)\n    tag_167:\n        /* \"contracts/AccessControl.sol\":5187:5237  _informFailure(\"The permission has alreay exist.\") */\n      tag_176\n      mload(0x40)\n      dup1\n      0x40\n      add\n      0x40\n      mstore\n      dup1\n      0x20\n      dup2\n      mstore\n      0x20\n      add\n      0x546865207065726d697373696f6e2068617320616c726561792065786973742e\n      dup2\n      mstore\n      pop\n        /* \"contracts/AccessControl.sol\":5187:5201  _informFailure */\n      tag_177\n        /* \"contracts/AccessControl.sol\":5187:5237  _informFailure(\"The permission has alreay exist.\") */\n      jump\t// in\n    tag_176:\n        /* \"contracts/AccessControl.sol\":4440:5249  if (!_allPermissions[permission].isValid) {\r... */\n    tag_175:\n        /* \"contracts/AccessControl.sol\":4199:5256  function _createPermissionByLevel(bytes32 permission, bytes32 permissionA) internal virtual {\r... */\n      pop\n      pop\n      jump\t// out\n        /* \"contracts/AccessControl.sol\":5264:5765  function _deletePermission(bytes32 permission) internal virtual {\r... */\n    tag_87:\n        /* \"contracts/AccessControl.sol\":5410:5425  _allPermissions */\n      0x00\n        /* \"contracts/AccessControl.sol\":5410:5437  _allPermissions[permission] */\n      dup1\n        /* \"contracts/AccessControl.sol\":5426:5436  permission */\n      dup3\n        /* \"contracts/AccessControl.sol\":5410:5437  _allPermissions[permission] */\n      dup2\n      mstore\n      0x20\n      add\n      swap1\n      dup2\n      mstore\n      0x20\n      add\n      0x00\n      keccak256\n        /* \"contracts/AccessControl.sol\":5410:5445  _allPermissions[permission].isValid */\n      0x03\n      add\n      0x00\n      swap1\n      sload\n      swap1\n      0x0100\n      exp\n      swap1\n      div\n      0xff\n      and\n        /* \"contracts/AccessControl.sol\":5410:5468  _allPermissions[permission].isValid && permission != ADMIN */\n      dup1\n      iszero\n      tag_179\n      jumpi\n      pop\n        /* \"contracts/AccessControl.sol\":677:695  keccak256(\"ADMIN\") */\n      0xdf8b4c520ffe197c5343c6f5aec59570151ef9a492f2c624fd45ddde6135ec42\n        /* \"contracts/AccessControl.sol\":5449:5459  permission */\n      dup2\n        /* \"contracts/AccessControl.sol\":5449:5468  permission != ADMIN */\n      eq\n      iszero\n        /* \"contracts/AccessControl.sol\":5410:5468  _allPermissions[permission].isValid && permission != ADMIN */\n    tag_179:\n        /* \"contracts/AccessControl.sol\":5406:5758  if (_allPermissions[permission].isValid && permission != ADMIN) {\r... */\n      iszero\n      tag_180\n      jumpi\n        /* \"contracts/AccessControl.sol\":5601:5606  false */\n      0x00\n        /* \"contracts/AccessControl.sol\":5563:5578  _allPermissions */\n      dup1\n        /* \"contracts/AccessControl.sol\":5563:5590  _allPermissions[permission] */\n      0x00\n        /* \"contracts/AccessControl.sol\":5579:5589  permission */\n      dup4\n        /* \"contracts/AccessControl.sol\":5563:5590  _allPermissions[permission] */\n      dup2\n      mstore\n      0x20\n      add\n      swap1\n      dup2\n      mstore\n      0x20\n      add\n      0x00\n      keccak256\n        /* \"contracts/AccessControl.sol\":5563:5598  _allPermissions[permission].isValid */\n      0x03\n      add\n      0x00\n        /* \"contracts/AccessControl.sol\":5563:5606  _allPermissions[permission].isValid = false */\n      0x0100\n      exp\n      dup2\n      sload\n      dup2\n      0xff\n      mul\n      not\n      and\n      swap1\n      dup4\n      iszero\n      iszero\n      mul\n      or\n      swap1\n      sstore\n      pop\n        /* \"contracts/AccessControl.sol\":5656:5666  msg.sender */\n      caller\n        /* \"contracts/AccessControl.sol\":5626:5667  PermissionDeleted(permission, msg.sender) */\n      0xffffffffffffffffffffffffffffffffffffffff\n      and\n        /* \"contracts/AccessControl.sol\":5644:5654  permission */\n      dup2\n        /* \"contracts/AccessControl.sol\":5626:5667  PermissionDeleted(permission, msg.sender) */\n      0xe80208c3116f2c5b710796d7b3e8eb0b697c1c98be4297f9993bdb1905a2827b\n      mload(0x40)\n      mload(0x40)\n      dup1\n      swap2\n      sub\n      swap1\n      log3\n        /* \"contracts/AccessControl.sol\":5406:5758  if (_allPermissions[permission].isValid && permission != ADMIN) {\r... */\n      jump(tag_181)\n    tag_180:\n        /* \"contracts/AccessControl.sol\":5700:5746  _informFailure(\"The permission is not valid.\") */\n      tag_182\n      mload(0x40)\n      dup1\n      0x40\n      add\n      0x40\n      mstore\n      dup1\n      0x1c\n      dup2\n      mstore\n      0x20\n      add\n      0x546865207065726d697373696f6e206973206e6f742076616c69642e00000000\n      dup2\n      mstore\n      pop\n        /* \"contracts/AccessControl.sol\":5700:5714  _informFailure */\n      tag_177\n        /* \"contracts/AccessControl.sol\":5700:5746  _informFailure(\"The permission is not valid.\") */\n      jump\t// in\n    tag_182:\n        /* \"contracts/AccessControl.sol\":5406:5758  if (_allPermissions[permission].isValid && permission != ADMIN) {\r... */\n    tag_181:\n        /* \"contracts/AccessControl.sol\":5264:5765  function _deletePermission(bytes32 permission) internal virtual {\r... */\n      pop\n      jump\t// out\n        /* \"contracts/AccessControl.sol\":7761:8444  function _deleteAccount(address account) internal virtual {\r... */\n    tag_94:\n        /* \"contracts/AccessControl.sol\":7915:7937  _check(ADMIN, account) */\n      tag_184\n        /* \"contracts/AccessControl.sol\":677:695  keccak256(\"ADMIN\") */\n      0xdf8b4c520ffe197c5343c6f5aec59570151ef9a492f2c624fd45ddde6135ec42\n        /* \"contracts/AccessControl.sol\":7929:7936  account */\n      dup3\n        /* \"contracts/AccessControl.sol\":7915:7921  _check */\n      tag_74\n        /* \"contracts/AccessControl.sol\":7915:7937  _check(ADMIN, account) */\n      jump\t// in\n    tag_184:\n        /* \"contracts/AccessControl.sol\":7914:7937  !_check(ADMIN, account) */\n      iszero\n        /* \"contracts/AccessControl.sol\":7914:7966  !_check(ADMIN, account) || _check(ADMIN, msg.sender) */\n      dup1\n      tag_185\n      jumpi\n      pop\n        /* \"contracts/AccessControl.sol\":7941:7966  _check(ADMIN, msg.sender) */\n      tag_186\n        /* \"contracts/AccessControl.sol\":677:695  keccak256(\"ADMIN\") */\n      0xdf8b4c520ffe197c5343c6f5aec59570151ef9a492f2c624fd45ddde6135ec42\n        /* \"contracts/AccessControl.sol\":7955:7965  msg.sender */\n      caller\n        /* \"contracts/AccessControl.sol\":7941:7947  _check */\n      tag_74\n        /* \"contracts/AccessControl.sol\":7941:7966  _check(ADMIN, msg.sender) */\n      jump\t// in\n    tag_186:\n        /* \"contracts/AccessControl.sol\":7914:7966  !_check(ADMIN, account) || _check(ADMIN, msg.sender) */\n    tag_185:\n        /* \"contracts/AccessControl.sol\":7911:8437  if(!_check(ADMIN, account) || _check(ADMIN, msg.sender)) {\r... */\n      iszero\n      tag_187\n      jumpi\n        /* \"contracts/AccessControl.sol\":8056:8062  uint i */\n      0x00\n        /* \"contracts/AccessControl.sol\":8065:8066  1 */\n      0x01\n        /* \"contracts/AccessControl.sol\":8056:8066  uint i = 1 */\n      swap1\n      pop\n        /* \"contracts/AccessControl.sol\":8052:8300  for(uint i = 1; i < _numberOfPermissions; i++) {\r... */\n    tag_188:\n        /* \"contracts/AccessControl.sol\":8072:8092  _numberOfPermissions */\n      sload(0x02)\n        /* \"contracts/AccessControl.sol\":8068:8069  i */\n      dup2\n        /* \"contracts/AccessControl.sol\":8068:8092  i < _numberOfPermissions */\n      lt\n        /* \"contracts/AccessControl.sol\":8052:8300  for(uint i = 1; i < _numberOfPermissions; i++) {\r... */\n      iszero\n      tag_189\n      jumpi\n        /* \"contracts/AccessControl.sol\":8121:8136  _allPermissions */\n      0x00\n        /* \"contracts/AccessControl.sol\":8121:8160  _allPermissions[_indexOfPermissions[i]] */\n      dup1\n        /* \"contracts/AccessControl.sol\":8137:8156  _indexOfPermissions */\n      0x01\n        /* \"contracts/AccessControl.sol\":8137:8159  _indexOfPermissions[i] */\n      0x00\n        /* \"contracts/AccessControl.sol\":8157:8158  i */\n      dup5\n        /* \"contracts/AccessControl.sol\":8137:8159  _indexOfPermissions[i] */\n      dup2\n      mstore\n      0x20\n      add\n      swap1\n      dup2\n      mstore\n      0x20\n      add\n      0x00\n      keccak256\n      sload\n        /* \"contracts/AccessControl.sol\":8121:8160  _allPermissions[_indexOfPermissions[i]] */\n      dup2\n      mstore\n      0x20\n      add\n      swap1\n      dup2\n      mstore\n      0x20\n      add\n      0x00\n      keccak256\n        /* \"contracts/AccessControl.sol\":8121:8168  _allPermissions[_indexOfPermissions[i]].members */\n      0x00\n      add\n        /* \"contracts/AccessControl.sol\":8121:8177  _allPermissions[_indexOfPermissions[i]].members[account] */\n      0x00\n        /* \"contracts/AccessControl.sol\":8169:8176  account */\n      dup4\n        /* \"contracts/AccessControl.sol\":8121:8177  _allPermissions[_indexOfPermissions[i]].members[account] */\n      0xffffffffffffffffffffffffffffffffffffffff\n      and\n      0xffffffffffffffffffffffffffffffffffffffff\n      and\n      dup2\n      mstore\n      0x20\n      add\n      swap1\n      dup2\n      mstore\n      0x20\n      add\n      0x00\n      keccak256\n      0x00\n      swap1\n      sload\n      swap1\n      0x0100\n      exp\n      swap1\n      div\n      0xff\n      and\n        /* \"contracts/AccessControl.sol\":8118:8285  if(_allPermissions[_indexOfPermissions[i]].members[account]){\r... */\n      iszero\n      tag_191\n      jumpi\n        /* \"contracts/AccessControl.sol\":8260:8265  false */\n      0x00\n        /* \"contracts/AccessControl.sol\":8201:8216  _allPermissions */\n      dup1\n        /* \"contracts/AccessControl.sol\":8201:8240  _allPermissions[_indexOfPermissions[i]] */\n      0x00\n        /* \"contracts/AccessControl.sol\":8217:8236  _indexOfPermissions */\n      0x01\n        /* \"contracts/AccessControl.sol\":8217:8239  _indexOfPermissions[i] */\n      0x00\n        /* \"contracts/AccessControl.sol\":8237:8238  i */\n      dup6\n        /* \"contracts/AccessControl.sol\":8217:8239  _indexOfPermissions[i] */\n      dup2\n      mstore\n      0x20\n      add\n      swap1\n      dup2\n      mstore\n      0x20\n      add\n      0x00\n      keccak256\n      sload\n        /* \"contracts/AccessControl.sol\":8201:8240  _allPermissions[_indexOfPermissions[i]] */\n      dup2\n      mstore\n      0x20\n      add\n      swap1\n      dup2\n      mstore\n      0x20\n      add\n      0x00\n      keccak256\n        /* \"contracts/AccessControl.sol\":8201:8248  _allPermissions[_indexOfPermissions[i]].members */\n      0x00\n      add\n        /* \"contracts/AccessControl.sol\":8201:8257  _allPermissions[_indexOfPermissions[i]].members[account] */\n      0x00\n        /* \"contracts/AccessControl.sol\":8249:8256  account */\n      dup5\n        /* \"contracts/AccessControl.sol\":8201:8257  _allPermissions[_indexOfPermissions[i]].members[account] */\n      0xffffffffffffffffffffffffffffffffffffffff\n      and\n      0xffffffffffffffffffffffffffffffffffffffff\n      and\n      dup2\n      mstore\n      0x20\n      add\n      swap1\n      dup2\n      mstore\n      0x20\n      add\n      0x00\n      keccak256\n      0x00\n        /* \"contracts/AccessControl.sol\":8201:8265  _allPermissions[_indexOfPermissions[i]].members[account] = false */\n      0x0100\n      exp\n      dup2\n      sload\n      dup2\n      0xff\n      mul\n      not\n      and\n      swap1\n      dup4\n      iszero\n      iszero\n      mul\n      or\n      swap1\n      sstore\n      pop\n        /* \"contracts/AccessControl.sol\":8118:8285  if(_allPermissions[_indexOfPermissions[i]].members[account]){\r... */\n    tag_191:\n        /* \"contracts/AccessControl.sol\":8094:8097  i++ */\n      dup1\n      dup1\n      tag_192\n      swap1\n      tag_174\n      jump\t// in\n    tag_192:\n      swap2\n      pop\n      pop\n        /* \"contracts/AccessControl.sol\":8052:8300  for(uint i = 1; i < _numberOfPermissions; i++) {\r... */\n      jump(tag_188)\n    tag_189:\n      pop\n        /* \"contracts/AccessControl.sol\":8339:8349  msg.sender */\n      caller\n        /* \"contracts/AccessControl.sol\":8315:8350  AccountDeleted(account, msg.sender) */\n      0xffffffffffffffffffffffffffffffffffffffff\n      and\n        /* \"contracts/AccessControl.sol\":8330:8337  account */\n      dup2\n        /* \"contracts/AccessControl.sol\":8315:8350  AccountDeleted(account, msg.sender) */\n      0xffffffffffffffffffffffffffffffffffffffff\n      and\n      0xfd7e144a5e02c1180e00f9591ef4f60aa95b127c4f134847224a4b6cb99fef96\n      mload(0x40)\n      mload(0x40)\n      dup1\n      swap2\n      sub\n      swap1\n      log3\n        /* \"contracts/AccessControl.sol\":7911:8437  if(!_check(ADMIN, account) || _check(ADMIN, msg.sender)) {\r... */\n      jump(tag_193)\n    tag_187:\n        /* \"contracts/AccessControl.sol\":8383:8425  _informFailure(\"You cannot delete ADMIN.\") */\n      tag_194\n      mload(0x40)\n      dup1\n      0x40\n      add\n      0x40\n      mstore\n      dup1\n      0x18\n      dup2\n      mstore\n      0x20\n      add\n      0x596f752063616e6e6f742064656c6574652041444d494e2e0000000000000000\n      dup2\n      mstore\n      pop\n        /* \"contracts/AccessControl.sol\":8383:8397  _informFailure */\n      tag_177\n        /* \"contracts/AccessControl.sol\":8383:8425  _informFailure(\"You cannot delete ADMIN.\") */\n      jump\t// in\n    tag_194:\n        /* \"contracts/AccessControl.sol\":7911:8437  if(!_check(ADMIN, account) || _check(ADMIN, msg.sender)) {\r... */\n    tag_193:\n        /* \"contracts/AccessControl.sol\":7761:8444  function _deleteAccount(address account) internal virtual {\r... */\n      pop\n      jump\t// out\n        /* \"contracts/AccessControl.sol\":9621:10272  function _inquiryAllAccountsByPermission(bytes32 permission) \r... */\n    tag_101:\n        /* \"contracts/AccessControl.sol\":9733:9749  address[] memory */\n      0x60\n        /* \"contracts/AccessControl.sol\":9768:9800  address[] memory relatedAccounts */\n      dup1\n        /* \"contracts/AccessControl.sol\":9878:9884  uint j */\n      0x00\n        /* \"contracts/AccessControl.sol\":9903:9909  uint i */\n      dup1\n        /* \"contracts/AccessControl.sol\":9899:10232  for(uint i = 0; i < _allPermissions[permission].length; i++) {\r... */\n    tag_196:\n        /* \"contracts/AccessControl.sol\":9919:9934  _allPermissions */\n      0x00\n        /* \"contracts/AccessControl.sol\":9919:9946  _allPermissions[permission] */\n      dup1\n        /* \"contracts/AccessControl.sol\":9935:9945  permission */\n      dup7\n        /* \"contracts/AccessControl.sol\":9919:9946  _allPermissions[permission] */\n      dup2\n      mstore\n      0x20\n      add\n      swap1\n      dup2\n      mstore\n      0x20\n      add\n      0x00\n      keccak256\n        /* \"contracts/AccessControl.sol\":9919:9953  _allPermissions[permission].length */\n      0x02\n      add\n      sload\n        /* \"contracts/AccessControl.sol\":9915:9916  i */\n      dup2\n        /* \"contracts/AccessControl.sol\":9915:9953  i < _allPermissions[permission].length */\n      lt\n        /* \"contracts/AccessControl.sol\":9899:10232  for(uint i = 0; i < _allPermissions[permission].length; i++) {\r... */\n      iszero\n      tag_197\n      jumpi\n        /* \"contracts/AccessControl.sol\":10032:10047  _allPermissions */\n      0x00\n        /* \"contracts/AccessControl.sol\":10032:10059  _allPermissions[permission] */\n      dup1\n        /* \"contracts/AccessControl.sol\":10048:10058  permission */\n      dup7\n        /* \"contracts/AccessControl.sol\":10032:10059  _allPermissions[permission] */\n      dup2\n      mstore\n      0x20\n      add\n      swap1\n      dup2\n      mstore\n      0x20\n      add\n      0x00\n      keccak256\n        /* \"contracts/AccessControl.sol\":10032:10067  _allPermissions[permission].members */\n      0x00\n      add\n        /* \"contracts/AccessControl.sol\":10032:10105  _allPermissions[permission].members[_allPermissions[permission].index[i]] */\n      0x00\n        /* \"contracts/AccessControl.sol\":10068:10083  _allPermissions */\n      dup1\n        /* \"contracts/AccessControl.sol\":10068:10095  _allPermissions[permission] */\n      0x00\n        /* \"contracts/AccessControl.sol\":10084:10094  permission */\n      dup9\n        /* \"contracts/AccessControl.sol\":10068:10095  _allPermissions[permission] */\n      dup2\n      mstore\n      0x20\n      add\n      swap1\n      dup2\n      mstore\n      0x20\n      add\n      0x00\n      keccak256\n        /* \"contracts/AccessControl.sol\":10068:10101  _allPermissions[permission].index */\n      0x01\n      add\n        /* \"contracts/AccessControl.sol\":10068:10104  _allPermissions[permission].index[i] */\n      0x00\n        /* \"contracts/AccessControl.sol\":10102:10103  i */\n      dup5\n        /* \"contracts/AccessControl.sol\":10068:10104  _allPermissions[permission].index[i] */\n      dup2\n      mstore\n      0x20\n      add\n      swap1\n      dup2\n      mstore\n      0x20\n      add\n      0x00\n      keccak256\n      0x00\n      swap1\n      sload\n      swap1\n      0x0100\n      exp\n      swap1\n      div\n      0xffffffffffffffffffffffffffffffffffffffff\n      and\n        /* \"contracts/AccessControl.sol\":10032:10105  _allPermissions[permission].members[_allPermissions[permission].index[i]] */\n      0xffffffffffffffffffffffffffffffffffffffff\n      and\n      0xffffffffffffffffffffffffffffffffffffffff\n      and\n      dup2\n      mstore\n      0x20\n      add\n      swap1\n      dup2\n      mstore\n      0x20\n      add\n      0x00\n      keccak256\n      0x00\n      swap1\n      sload\n      swap1\n      0x0100\n      exp\n      swap1\n      div\n      0xff\n      and\n        /* \"contracts/AccessControl.sol\":10029:10221  if(_allPermissions[permission].members[_allPermissions[permission].index[i]]) {\r... */\n      iszero\n      tag_199\n      jumpi\n        /* \"contracts/AccessControl.sol\":10147:10162  _allPermissions */\n      0x00\n        /* \"contracts/AccessControl.sol\":10147:10174  _allPermissions[permission] */\n      dup1\n        /* \"contracts/AccessControl.sol\":10163:10173  permission */\n      dup7\n        /* \"contracts/AccessControl.sol\":10147:10174  _allPermissions[permission] */\n      dup2\n      mstore\n      0x20\n      add\n      swap1\n      dup2\n      mstore\n      0x20\n      add\n      0x00\n      keccak256\n        /* \"contracts/AccessControl.sol\":10147:10180  _allPermissions[permission].index */\n      0x01\n      add\n        /* \"contracts/AccessControl.sol\":10147:10183  _allPermissions[permission].index[i] */\n      0x00\n        /* \"contracts/AccessControl.sol\":10181:10182  i */\n      dup3\n        /* \"contracts/AccessControl.sol\":10147:10183  _allPermissions[permission].index[i] */\n      dup2\n      mstore\n      0x20\n      add\n      swap1\n      dup2\n      mstore\n      0x20\n      add\n      0x00\n      keccak256\n      0x00\n      swap1\n      sload\n      swap1\n      0x0100\n      exp\n      swap1\n      div\n      0xffffffffffffffffffffffffffffffffffffffff\n      and\n        /* \"contracts/AccessControl.sol\":10126:10141  relatedAccounts */\n      dup4\n        /* \"contracts/AccessControl.sol\":10142:10143  j */\n      dup4\n        /* \"contracts/AccessControl.sol\":10126:10144  relatedAccounts[j] */\n      dup2\n      mload\n      dup2\n      lt\n      tag_200\n      jumpi\n      tag_201\n      tag_202\n      jump\t// in\n    tag_201:\n    tag_200:\n      0x20\n      mul\n      0x20\n      add\n      add\n        /* \"contracts/AccessControl.sol\":10126:10183  relatedAccounts[j] = _allPermissions[permission].index[i] */\n      swap1\n      0xffffffffffffffffffffffffffffffffffffffff\n      and\n      swap1\n      dup2\n      0xffffffffffffffffffffffffffffffffffffffff\n      and\n      dup2\n      mstore\n      pop\n      pop\n        /* \"contracts/AccessControl.sol\":10202:10205  j++ */\n      dup2\n      dup1\n      tag_203\n      swap1\n      tag_174\n      jump\t// in\n    tag_203:\n      swap3\n      pop\n      pop\n        /* \"contracts/AccessControl.sol\":10029:10221  if(_allPermissions[permission].members[_allPermissions[permission].index[i]]) {\r... */\n    tag_199:\n        /* \"contracts/AccessControl.sol\":9955:9958  i++ */\n      dup1\n      dup1\n      tag_204\n      swap1\n      tag_174\n      jump\t// in\n    tag_204:\n      swap2\n      pop\n      pop\n        /* \"contracts/AccessControl.sol\":9899:10232  for(uint i = 0; i < _allPermissions[permission].length; i++) {\r... */\n      jump(tag_196)\n    tag_197:\n      pop\n        /* \"contracts/AccessControl.sol\":10249:10264  relatedAccounts */\n      dup2\n        /* \"contracts/AccessControl.sol\":10242:10264  return relatedAccounts */\n      swap3\n      pop\n      pop\n      pop\n        /* \"contracts/AccessControl.sol\":9621:10272  function _inquiryAllAccountsByPermission(bytes32 permission) \r... */\n      swap2\n      swap1\n      pop\n      jump\t// out\n        /* \"contracts/AccessControl.sol\":10280:10613  function _inquiryAdmin() internal view virtual returns (address) {\r... */\n    tag_108:\n        /* \"contracts/AccessControl.sol\":10336:10343  address */\n      0x00\n        /* \"contracts/AccessControl.sol\":10356:10362  uint i */\n      dup1\n        /* \"contracts/AccessControl.sol\":10365:10366  0 */\n      0x00\n        /* \"contracts/AccessControl.sol\":10356:10366  uint i = 0 */\n      swap1\n      pop\n        /* \"contracts/AccessControl.sol\":10377:10557  for(; i < _allPermissions[ADMIN].length; i++) {\r... */\n    tag_206:\n        /* \"contracts/AccessControl.sol\":10387:10402  _allPermissions */\n      0x00\n        /* \"contracts/AccessControl.sol\":10387:10409  _allPermissions[ADMIN] */\n      dup1\n        /* \"contracts/AccessControl.sol\":677:695  keccak256(\"ADMIN\") */\n      0xdf8b4c520ffe197c5343c6f5aec59570151ef9a492f2c624fd45ddde6135ec42\n        /* \"contracts/AccessControl.sol\":10387:10409  _allPermissions[ADMIN] */\n      dup2\n      mstore\n      0x20\n      add\n      swap1\n      dup2\n      mstore\n      0x20\n      add\n      0x00\n      keccak256\n        /* \"contracts/AccessControl.sol\":10387:10416  _allPermissions[ADMIN].length */\n      0x02\n      add\n      sload\n        /* \"contracts/AccessControl.sol\":10383:10384  i */\n      dup2\n        /* \"contracts/AccessControl.sol\":10383:10416  i < _allPermissions[ADMIN].length */\n      lt\n        /* \"contracts/AccessControl.sol\":10377:10557  for(; i < _allPermissions[ADMIN].length; i++) {\r... */\n      iszero\n      tag_207\n      jumpi\n        /* \"contracts/AccessControl.sol\":10441:10456  _allPermissions */\n      0x00\n        /* \"contracts/AccessControl.sol\":10441:10463  _allPermissions[ADMIN] */\n      dup1\n        /* \"contracts/AccessControl.sol\":677:695  keccak256(\"ADMIN\") */\n      0xdf8b4c520ffe197c5343c6f5aec59570151ef9a492f2c624fd45ddde6135ec42\n        /* \"contracts/AccessControl.sol\":10441:10463  _allPermissions[ADMIN] */\n      dup2\n      mstore\n      0x20\n      add\n      swap1\n      dup2\n      mstore\n      0x20\n      add\n      0x00\n      keccak256\n        /* \"contracts/AccessControl.sol\":10441:10471  _allPermissions[ADMIN].members */\n      0x00\n      add\n        /* \"contracts/AccessControl.sol\":10441:10504  _allPermissions[ADMIN].members[_allPermissions[ADMIN].index[i]] */\n      0x00\n        /* \"contracts/AccessControl.sol\":10472:10487  _allPermissions */\n      dup1\n        /* \"contracts/AccessControl.sol\":10472:10494  _allPermissions[ADMIN] */\n      0x00\n        /* \"contracts/AccessControl.sol\":677:695  keccak256(\"ADMIN\") */\n      0xdf8b4c520ffe197c5343c6f5aec59570151ef9a492f2c624fd45ddde6135ec42\n        /* \"contracts/AccessControl.sol\":10472:10494  _allPermissions[ADMIN] */\n      dup2\n      mstore\n      0x20\n      add\n      swap1\n      dup2\n      mstore\n      0x20\n      add\n      0x00\n      keccak256\n        /* \"contracts/AccessControl.sol\":10472:10500  _allPermissions[ADMIN].index */\n      0x01\n      add\n        /* \"contracts/AccessControl.sol\":10472:10503  _allPermissions[ADMIN].index[i] */\n      0x00\n        /* \"contracts/AccessControl.sol\":10501:10502  i */\n      dup5\n        /* \"contracts/AccessControl.sol\":10472:10503  _allPermissions[ADMIN].index[i] */\n      dup2\n      mstore\n      0x20\n      add\n      swap1\n      dup2\n      mstore\n      0x20\n      add\n      0x00\n      keccak256\n      0x00\n      swap1\n      sload\n      swap1\n      0x0100\n      exp\n      swap1\n      div\n      0xffffffffffffffffffffffffffffffffffffffff\n      and\n        /* \"contracts/AccessControl.sol\":10441:10504  _allPermissions[ADMIN].members[_allPermissions[ADMIN].index[i]] */\n      0xffffffffffffffffffffffffffffffffffffffff\n      and\n      0xffffffffffffffffffffffffffffffffffffffff\n      and\n      dup2\n      mstore\n      0x20\n      add\n      swap1\n      dup2\n      mstore\n      0x20\n      add\n      0x00\n      keccak256\n      0x00\n      swap1\n      sload\n      swap1\n      0x0100\n      exp\n      swap1\n      div\n      0xff\n      and\n        /* \"contracts/AccessControl.sol\":10438:10546  if(_allPermissions[ADMIN].members[_allPermissions[ADMIN].index[i]]) {\r... */\n      iszero\n      tag_209\n      jumpi\n        /* \"contracts/AccessControl.sol\":10525:10530  break */\n      jump(tag_207)\n        /* \"contracts/AccessControl.sol\":10438:10546  if(_allPermissions[ADMIN].members[_allPermissions[ADMIN].index[i]]) {\r... */\n    tag_209:\n        /* \"contracts/AccessControl.sol\":10418:10421  i++ */\n      dup1\n      dup1\n      tag_210\n      swap1\n      tag_174\n      jump\t// in\n    tag_210:\n      swap2\n      pop\n      pop\n        /* \"contracts/AccessControl.sol\":10377:10557  for(; i < _allPermissions[ADMIN].length; i++) {\r... */\n      jump(tag_206)\n    tag_207:\n        /* \"contracts/AccessControl.sol\":10574:10589  _allPermissions */\n      0x00\n        /* \"contracts/AccessControl.sol\":10574:10596  _allPermissions[ADMIN] */\n      dup1\n        /* \"contracts/AccessControl.sol\":677:695  keccak256(\"ADMIN\") */\n      0xdf8b4c520ffe197c5343c6f5aec59570151ef9a492f2c624fd45ddde6135ec42\n        /* \"contracts/AccessControl.sol\":10574:10596  _allPermissions[ADMIN] */\n      dup2\n      mstore\n      0x20\n      add\n      swap1\n      dup2\n      mstore\n      0x20\n      add\n      0x00\n      keccak256\n        /* \"contracts/AccessControl.sol\":10574:10602  _allPermissions[ADMIN].index */\n      0x01\n      add\n        /* \"contracts/AccessControl.sol\":10574:10605  _allPermissions[ADMIN].index[i] */\n      0x00\n        /* \"contracts/AccessControl.sol\":10603:10604  i */\n      dup3\n        /* \"contracts/AccessControl.sol\":10574:10605  _allPermissions[ADMIN].index[i] */\n      dup2\n      mstore\n      0x20\n      add\n      swap1\n      dup2\n      mstore\n      0x20\n      add\n      0x00\n      keccak256\n      0x00\n      swap1\n      sload\n      swap1\n      0x0100\n      exp\n      swap1\n      div\n      0xffffffffffffffffffffffffffffffffffffffff\n      and\n        /* \"contracts/AccessControl.sol\":10567:10605  return _allPermissions[ADMIN].index[i] */\n      swap2\n      pop\n      pop\n        /* \"contracts/AccessControl.sol\":10280:10613  function _inquiryAdmin() internal view virtual returns (address) {\r... */\n      swap1\n      jump\t// out\n        /* \"contracts/AccessControl.sol\":8452:8734  function _transferAdmin(address account) internal virtual {\r... */\n    tag_115:\n        /* \"contracts/AccessControl.sol\":8566:8571  false */\n      0x00\n        /* \"contracts/AccessControl.sol\":8521:8536  _allPermissions */\n      dup1\n        /* \"contracts/AccessControl.sol\":8521:8543  _allPermissions[ADMIN] */\n      0x00\n        /* \"contracts/AccessControl.sol\":677:695  keccak256(\"ADMIN\") */\n      0xdf8b4c520ffe197c5343c6f5aec59570151ef9a492f2c624fd45ddde6135ec42\n        /* \"contracts/AccessControl.sol\":8521:8543  _allPermissions[ADMIN] */\n      dup2\n      mstore\n      0x20\n      add\n      swap1\n      dup2\n      mstore\n      0x20\n      add\n      0x00\n      keccak256\n        /* \"contracts/AccessControl.sol\":8521:8551  _allPermissions[ADMIN].members */\n      0x00\n      add\n        /* \"contracts/AccessControl.sol\":8521:8563  _allPermissions[ADMIN].members[msg.sender] */\n      0x00\n        /* \"contracts/AccessControl.sol\":8552:8562  msg.sender */\n      caller\n        /* \"contracts/AccessControl.sol\":8521:8563  _allPermissions[ADMIN].members[msg.sender] */\n      0xffffffffffffffffffffffffffffffffffffffff\n      and\n      0xffffffffffffffffffffffffffffffffffffffff\n      and\n      dup2\n      mstore\n      0x20\n      add\n      swap1\n      dup2\n      mstore\n      0x20\n      add\n      0x00\n      keccak256\n      0x00\n        /* \"contracts/AccessControl.sol\":8521:8571  _allPermissions[ADMIN].members[msg.sender] = false */\n      0x0100\n      exp\n      dup2\n      sload\n      dup2\n      0xff\n      mul\n      not\n      and\n      swap1\n      dup4\n      iszero\n      iszero\n      mul\n      or\n      swap1\n      sstore\n      pop\n        /* \"contracts/AccessControl.sol\":8582:8617  _changeAccountIndex(ADMIN, account) */\n      tag_212\n        /* \"contracts/AccessControl.sol\":677:695  keccak256(\"ADMIN\") */\n      0xdf8b4c520ffe197c5343c6f5aec59570151ef9a492f2c624fd45ddde6135ec42\n        /* \"contracts/AccessControl.sol\":8609:8616  account */\n      dup3\n        /* \"contracts/AccessControl.sol\":8582:8601  _changeAccountIndex */\n      tag_213\n        /* \"contracts/AccessControl.sol\":8582:8617  _changeAccountIndex(ADMIN, account) */\n      jump\t// in\n    tag_212:\n        /* \"contracts/AccessControl.sol\":8670:8674  true */\n      0x01\n        /* \"contracts/AccessControl.sol\":8628:8643  _allPermissions */\n      0x00\n        /* \"contracts/AccessControl.sol\":8628:8650  _allPermissions[ADMIN] */\n      dup1\n        /* \"contracts/AccessControl.sol\":677:695  keccak256(\"ADMIN\") */\n      0xdf8b4c520ffe197c5343c6f5aec59570151ef9a492f2c624fd45ddde6135ec42\n        /* \"contracts/AccessControl.sol\":8628:8650  _allPermissions[ADMIN] */\n      dup2\n      mstore\n      0x20\n      add\n      swap1\n      dup2\n      mstore\n      0x20\n      add\n      0x00\n      keccak256\n        /* \"contracts/AccessControl.sol\":8628:8658  _allPermissions[ADMIN].members */\n      0x00\n      add\n        /* \"contracts/AccessControl.sol\":8628:8667  _allPermissions[ADMIN].members[account] */\n      0x00\n        /* \"contracts/AccessControl.sol\":8659:8666  account */\n      dup4\n        /* \"contracts/AccessControl.sol\":8628:8667  _allPermissions[ADMIN].members[account] */\n      0xffffffffffffffffffffffffffffffffffffffff\n      and\n      0xffffffffffffffffffffffffffffffffffffffff\n      and\n      dup2\n      mstore\n      0x20\n      add\n      swap1\n      dup2\n      mstore\n      0x20\n      add\n      0x00\n      keccak256\n      0x00\n        /* \"contracts/AccessControl.sol\":8628:8674  _allPermissions[ADMIN].members[account] = true */\n      0x0100\n      exp\n      dup2\n      sload\n      dup2\n      0xff\n      mul\n      not\n      and\n      swap1\n      dup4\n      iszero\n      iszero\n      mul\n      or\n      swap1\n      sstore\n      pop\n        /* \"contracts/AccessControl.sol\":8715:8725  msg.sender */\n      caller\n        /* \"contracts/AccessControl.sol\":8690:8726  AdminTransfered(account, msg.sender) */\n      0xffffffffffffffffffffffffffffffffffffffff\n      and\n        /* \"contracts/AccessControl.sol\":8706:8713  account */\n      dup2\n        /* \"contracts/AccessControl.sol\":8690:8726  AdminTransfered(account, msg.sender) */\n      0xffffffffffffffffffffffffffffffffffffffff\n      and\n      0x173de3514d8508f36ce8c81d509adcd8c8c76098400f685d3042b36f9a4160c3\n      mload(0x40)\n      mload(0x40)\n      dup1\n      swap2\n      sub\n      swap1\n      log3\n        /* \"contracts/AccessControl.sol\":8452:8734  function _transferAdmin(address account) internal virtual {\r... */\n      pop\n      jump\t// out\n        /* \"contracts/AccessControl.sol\":9122:9613  function _inquiryAllPermissionsByAccount(address account) \r... */\n    tag_122:\n        /* \"contracts/AccessControl.sol\":9231:9247  bytes32[] memory */\n      0x60\n        /* \"contracts/AccessControl.sol\":9266:9301  bytes32[] memory relatedPermissions */\n      dup1\n        /* \"contracts/AccessControl.sol\":9312:9318  uint j */\n      0x00\n        /* \"contracts/AccessControl.sol\":9337:9343  uint i */\n      dup1\n        /* \"contracts/AccessControl.sol\":9333:9570  for(uint i = 0; i < _numberOfPermissions; i++) {\r... */\n    tag_215:\n        /* \"contracts/AccessControl.sol\":9353:9373  _numberOfPermissions */\n      sload(0x02)\n        /* \"contracts/AccessControl.sol\":9349:9350  i */\n      dup2\n        /* \"contracts/AccessControl.sol\":9349:9373  i < _numberOfPermissions */\n      lt\n        /* \"contracts/AccessControl.sol\":9333:9570  for(uint i = 0; i < _numberOfPermissions; i++) {\r... */\n      iszero\n      tag_216\n      jumpi\n        /* \"contracts/AccessControl.sol\":9398:9413  _allPermissions */\n      0x00\n        /* \"contracts/AccessControl.sol\":9398:9437  _allPermissions[_indexOfPermissions[i]] */\n      dup1\n        /* \"contracts/AccessControl.sol\":9414:9433  _indexOfPermissions */\n      0x01\n        /* \"contracts/AccessControl.sol\":9414:9436  _indexOfPermissions[i] */\n      0x00\n        /* \"contracts/AccessControl.sol\":9434:9435  i */\n      dup5\n        /* \"contracts/AccessControl.sol\":9414:9436  _indexOfPermissions[i] */\n      dup2\n      mstore\n      0x20\n      add\n      swap1\n      dup2\n      mstore\n      0x20\n      add\n      0x00\n      keccak256\n      sload\n        /* \"contracts/AccessControl.sol\":9398:9437  _allPermissions[_indexOfPermissions[i]] */\n      dup2\n      mstore\n      0x20\n      add\n      swap1\n      dup2\n      mstore\n      0x20\n      add\n      0x00\n      keccak256\n        /* \"contracts/AccessControl.sol\":9398:9445  _allPermissions[_indexOfPermissions[i]].members */\n      0x00\n      add\n        /* \"contracts/AccessControl.sol\":9398:9454  _allPermissions[_indexOfPermissions[i]].members[account] */\n      0x00\n        /* \"contracts/AccessControl.sol\":9446:9453  account */\n      dup7\n        /* \"contracts/AccessControl.sol\":9398:9454  _allPermissions[_indexOfPermissions[i]].members[account] */\n      0xffffffffffffffffffffffffffffffffffffffff\n      and\n      0xffffffffffffffffffffffffffffffffffffffff\n      and\n      dup2\n      mstore\n      0x20\n      add\n      swap1\n      dup2\n      mstore\n      0x20\n      add\n      0x00\n      keccak256\n      0x00\n      swap1\n      sload\n      swap1\n      0x0100\n      exp\n      swap1\n      div\n      0xff\n      and\n        /* \"contracts/AccessControl.sol\":9395:9559  if(_allPermissions[_indexOfPermissions[i]].members[account]) {\r... */\n      iszero\n      tag_218\n      jumpi\n        /* \"contracts/AccessControl.sol\":9499:9518  _indexOfPermissions */\n      0x01\n        /* \"contracts/AccessControl.sol\":9499:9521  _indexOfPermissions[i] */\n      0x00\n        /* \"contracts/AccessControl.sol\":9519:9520  i */\n      dup3\n        /* \"contracts/AccessControl.sol\":9499:9521  _indexOfPermissions[i] */\n      dup2\n      mstore\n      0x20\n      add\n      swap1\n      dup2\n      mstore\n      0x20\n      add\n      0x00\n      keccak256\n      sload\n        /* \"contracts/AccessControl.sol\":9475:9493  relatedPermissions */\n      dup4\n        /* \"contracts/AccessControl.sol\":9494:9495  j */\n      dup4\n        /* \"contracts/AccessControl.sol\":9475:9496  relatedPermissions[j] */\n      dup2\n      mload\n      dup2\n      lt\n      tag_219\n      jumpi\n      tag_220\n      tag_202\n      jump\t// in\n    tag_220:\n    tag_219:\n      0x20\n      mul\n      0x20\n      add\n      add\n        /* \"contracts/AccessControl.sol\":9475:9521  relatedPermissions[j] = _indexOfPermissions[i] */\n      dup2\n      dup2\n      mstore\n      pop\n      pop\n        /* \"contracts/AccessControl.sol\":9540:9543  j++ */\n      dup2\n      dup1\n      tag_221\n      swap1\n      tag_174\n      jump\t// in\n    tag_221:\n      swap3\n      pop\n      pop\n        /* \"contracts/AccessControl.sol\":9395:9559  if(_allPermissions[_indexOfPermissions[i]].members[account]) {\r... */\n    tag_218:\n        /* \"contracts/AccessControl.sol\":9375:9378  i++ */\n      dup1\n      dup1\n      tag_222\n      swap1\n      tag_174\n      jump\t// in\n    tag_222:\n      swap2\n      pop\n      pop\n        /* \"contracts/AccessControl.sol\":9333:9570  for(uint i = 0; i < _numberOfPermissions; i++) {\r... */\n      jump(tag_215)\n    tag_216:\n      pop\n        /* \"contracts/AccessControl.sol\":9587:9605  relatedPermissions */\n      dup2\n        /* \"contracts/AccessControl.sol\":9580:9605  return relatedPermissions */\n      swap3\n      pop\n      pop\n      pop\n        /* \"contracts/AccessControl.sol\":9122:9613  function _inquiryAllPermissionsByAccount(address account) \r... */\n      swap2\n      swap1\n      pop\n      jump\t// out\n        /* \"contracts/AccessControl.sol\":8926:9114  function _inquiryAccountPermission(bytes32 permission, address account) \r... */\n    tag_135:\n        /* \"contracts/AccessControl.sol\":9049:9053  bool */\n      0x00\n        /* \"contracts/AccessControl.sol\":9079:9106  _check(permission, account) */\n      tag_224\n        /* \"contracts/AccessControl.sol\":9086:9096  permission */\n      dup4\n        /* \"contracts/AccessControl.sol\":9098:9105  account */\n      dup4\n        /* \"contracts/AccessControl.sol\":9079:9085  _check */\n      tag_74\n        /* \"contracts/AccessControl.sol\":9079:9106  _check(permission, account) */\n      jump\t// in\n    tag_224:\n        /* \"contracts/AccessControl.sol\":9072:9106  return _check(permission, account) */\n      swap1\n      pop\n        /* \"contracts/AccessControl.sol\":8926:9114  function _inquiryAccountPermission(bytes32 permission, address account) \r... */\n      swap3\n      swap2\n      pop\n      pop\n      jump\t// out\n        /* \"contracts/AccessControl.sol\":7207:7704  function _revokeAccountPermission(bytes32 permission, address account) internal virtual {\r... */\n    tag_142:\n        /* \"contracts/AccessControl.sol\":7377:7404  _check(permission, account) */\n      tag_226\n        /* \"contracts/AccessControl.sol\":7384:7394  permission */\n      dup3\n        /* \"contracts/AccessControl.sol\":7396:7403  account */\n      dup3\n        /* \"contracts/AccessControl.sol\":7377:7383  _check */\n      tag_74\n        /* \"contracts/AccessControl.sol\":7377:7404  _check(permission, account) */\n      jump\t// in\n    tag_226:\n        /* \"contracts/AccessControl.sol\":7377:7427  _check(permission, account) && permission != ADMIN */\n      dup1\n      iszero\n      tag_227\n      jumpi\n      pop\n        /* \"contracts/AccessControl.sol\":677:695  keccak256(\"ADMIN\") */\n      0xdf8b4c520ffe197c5343c6f5aec59570151ef9a492f2c624fd45ddde6135ec42\n        /* \"contracts/AccessControl.sol\":7408:7418  permission */\n      dup3\n        /* \"contracts/AccessControl.sol\":7408:7427  permission != ADMIN */\n      eq\n      iszero\n        /* \"contracts/AccessControl.sol\":7377:7427  _check(permission, account) && permission != ADMIN */\n    tag_227:\n        /* \"contracts/AccessControl.sol\":7373:7697  if (_check(permission, account) && permission != ADMIN) {\r... */\n      iszero\n      tag_228\n      jumpi\n        /* \"contracts/AccessControl.sol\":7491:7496  false */\n      0x00\n        /* \"contracts/AccessControl.sol\":7444:7459  _allPermissions */\n      dup1\n        /* \"contracts/AccessControl.sol\":7444:7471  _allPermissions[permission] */\n      0x00\n        /* \"contracts/AccessControl.sol\":7460:7470  permission */\n      dup5\n        /* \"contracts/AccessControl.sol\":7444:7471  _allPermissions[permission] */\n      dup2\n      mstore\n      0x20\n      add\n      swap1\n      dup2\n      mstore\n      0x20\n      add\n      0x00\n      keccak256\n        /* \"contracts/AccessControl.sol\":7444:7479  _allPermissions[permission].members */\n      0x00\n      add\n        /* \"contracts/AccessControl.sol\":7444:7488  _allPermissions[permission].members[account] */\n      0x00\n        /* \"contracts/AccessControl.sol\":7480:7487  account */\n      dup4\n        /* \"contracts/AccessControl.sol\":7444:7488  _allPermissions[permission].members[account] */\n      0xffffffffffffffffffffffffffffffffffffffff\n      and\n      0xffffffffffffffffffffffffffffffffffffffff\n      and\n      dup2\n      mstore\n      0x20\n      add\n      swap1\n      dup2\n      mstore\n      0x20\n      add\n      0x00\n      keccak256\n      0x00\n        /* \"contracts/AccessControl.sol\":7444:7496  _allPermissions[permission].members[account] = false */\n      0x0100\n      exp\n      dup2\n      sload\n      dup2\n      0xff\n      mul\n      not\n      and\n      swap1\n      dup4\n      iszero\n      iszero\n      mul\n      or\n      swap1\n      sstore\n      pop\n        /* \"contracts/AccessControl.sol\":7555:7565  msg.sender */\n      caller\n        /* \"contracts/AccessControl.sol\":7516:7566  PermissionRevoked(permission, account, msg.sender) */\n      0xffffffffffffffffffffffffffffffffffffffff\n      and\n        /* \"contracts/AccessControl.sol\":7546:7553  account */\n      dup2\n        /* \"contracts/AccessControl.sol\":7516:7566  PermissionRevoked(permission, account, msg.sender) */\n      0xffffffffffffffffffffffffffffffffffffffff\n      and\n        /* \"contracts/AccessControl.sol\":7534:7544  permission */\n      dup4\n        /* \"contracts/AccessControl.sol\":7516:7566  PermissionRevoked(permission, account, msg.sender) */\n      0x7b42e026d3b17cf41399915c285780d0f724b3464b269297aff73c0de0fe417f\n      mload(0x40)\n      mload(0x40)\n      dup1\n      swap2\n      sub\n      swap1\n      log4\n        /* \"contracts/AccessControl.sol\":7373:7697  if (_check(permission, account) && permission != ADMIN) {\r... */\n      jump(tag_229)\n    tag_228:\n        /* \"contracts/AccessControl.sol\":7599:7685  _informFailure(\"The permission is not valid or the account is not in the permission.\") */\n      tag_230\n      mload(0x40)\n      dup1\n      0x80\n      add\n      0x40\n      mstore\n      dup1\n      0x44\n      dup2\n      mstore\n      0x20\n      add\n      data_601972b90d37b25432db4389d8031f8daa2518ef8d99fbf07fd5717b0953de49\n      0x44\n      swap2\n      codecopy\n        /* \"contracts/AccessControl.sol\":7599:7613  _informFailure */\n      tag_177\n        /* \"contracts/AccessControl.sol\":7599:7685  _informFailure(\"The permission is not valid or the account is not in the permission.\") */\n      jump\t// in\n    tag_230:\n        /* \"contracts/AccessControl.sol\":7373:7697  if (_check(permission, account) && permission != ADMIN) {\r... */\n    tag_229:\n        /* \"contracts/AccessControl.sol\":7207:7704  function _revokeAccountPermission(bytes32 permission, address account) internal virtual {\r... */\n      pop\n      pop\n      jump\t// out\n        /* \"contracts/AccessControl.sol\":6523:7119  function _grantAccountPermission(bytes32 permission, address account) internal virtual {\r... */\n    tag_149:\n        /* \"contracts/AccessControl.sol\":6770:6785  _allPermissions */\n      0x00\n        /* \"contracts/AccessControl.sol\":6770:6797  _allPermissions[permission] */\n      dup1\n        /* \"contracts/AccessControl.sol\":6786:6796  permission */\n      dup4\n        /* \"contracts/AccessControl.sol\":6770:6797  _allPermissions[permission] */\n      dup2\n      mstore\n      0x20\n      add\n      swap1\n      dup2\n      mstore\n      0x20\n      add\n      0x00\n      keccak256\n        /* \"contracts/AccessControl.sol\":6770:6805  _allPermissions[permission].isValid */\n      0x03\n      add\n      0x00\n      swap1\n      sload\n      swap1\n      0x0100\n      exp\n      swap1\n      div\n      0xff\n      and\n        /* \"contracts/AccessControl.sol\":6770:6828  _allPermissions[permission].isValid && permission != ADMIN */\n      dup1\n      iszero\n      tag_232\n      jumpi\n      pop\n        /* \"contracts/AccessControl.sol\":677:695  keccak256(\"ADMIN\") */\n      0xdf8b4c520ffe197c5343c6f5aec59570151ef9a492f2c624fd45ddde6135ec42\n        /* \"contracts/AccessControl.sol\":6809:6819  permission */\n      dup3\n        /* \"contracts/AccessControl.sol\":6809:6828  permission != ADMIN */\n      eq\n      iszero\n        /* \"contracts/AccessControl.sol\":6770:6828  _allPermissions[permission].isValid && permission != ADMIN */\n    tag_232:\n        /* \"contracts/AccessControl.sol\":6766:7112  if (_allPermissions[permission].isValid && permission != ADMIN) {\r... */\n      iszero\n      tag_233\n      jumpi\n        /* \"contracts/AccessControl.sol\":6845:6885  _changeAccountIndex(permission, account) */\n      tag_234\n        /* \"contracts/AccessControl.sol\":6865:6875  permission */\n      dup3\n        /* \"contracts/AccessControl.sol\":6877:6884  account */\n      dup3\n        /* \"contracts/AccessControl.sol\":6845:6864  _changeAccountIndex */\n      tag_213\n        /* \"contracts/AccessControl.sol\":6845:6885  _changeAccountIndex(permission, account) */\n      jump\t// in\n    tag_234:\n        /* \"contracts/AccessControl.sol\":6947:6951  true */\n      0x01\n        /* \"contracts/AccessControl.sol\":6900:6915  _allPermissions */\n      0x00\n        /* \"contracts/AccessControl.sol\":6900:6927  _allPermissions[permission] */\n      dup1\n        /* \"contracts/AccessControl.sol\":6916:6926  permission */\n      dup5\n        /* \"contracts/AccessControl.sol\":6900:6927  _allPermissions[permission] */\n      dup2\n      mstore\n      0x20\n      add\n      swap1\n      dup2\n      mstore\n      0x20\n      add\n      0x00\n      keccak256\n        /* \"contracts/AccessControl.sol\":6900:6935  _allPermissions[permission].members */\n      0x00\n      add\n        /* \"contracts/AccessControl.sol\":6900:6944  _allPermissions[permission].members[account] */\n      0x00\n        /* \"contracts/AccessControl.sol\":6936:6943  account */\n      dup4\n        /* \"contracts/AccessControl.sol\":6900:6944  _allPermissions[permission].members[account] */\n      0xffffffffffffffffffffffffffffffffffffffff\n      and\n      0xffffffffffffffffffffffffffffffffffffffff\n      and\n      dup2\n      mstore\n      0x20\n      add\n      swap1\n      dup2\n      mstore\n      0x20\n      add\n      0x00\n      keccak256\n      0x00\n        /* \"contracts/AccessControl.sol\":6900:6951  _allPermissions[permission].members[account] = true */\n      0x0100\n      exp\n      dup2\n      sload\n      dup2\n      0xff\n      mul\n      not\n      and\n      swap1\n      dup4\n      iszero\n      iszero\n      mul\n      or\n      swap1\n      sstore\n      pop\n        /* \"contracts/AccessControl.sol\":7010:7020  msg.sender */\n      caller\n        /* \"contracts/AccessControl.sol\":6971:7021  PermissionGranted(permission, account, msg.sender) */\n      0xffffffffffffffffffffffffffffffffffffffff\n      and\n        /* \"contracts/AccessControl.sol\":7001:7008  account */\n      dup2\n        /* \"contracts/AccessControl.sol\":6971:7021  PermissionGranted(permission, account, msg.sender) */\n      0xffffffffffffffffffffffffffffffffffffffff\n      and\n        /* \"contracts/AccessControl.sol\":6989:6999  permission */\n      dup4\n        /* \"contracts/AccessControl.sol\":6971:7021  PermissionGranted(permission, account, msg.sender) */\n      0xef6ee312a0062a24a46be2eba5284183a87ff848110e8d4df979bd690d9e9f68\n      mload(0x40)\n      mload(0x40)\n      dup1\n      swap2\n      sub\n      swap1\n      log4\n        /* \"contracts/AccessControl.sol\":6766:7112  if (_allPermissions[permission].isValid && permission != ADMIN) {\r... */\n      jump(tag_235)\n    tag_233:\n        /* \"contracts/AccessControl.sol\":7054:7100  _informFailure(\"The permission is not valid.\") */\n      tag_236\n      mload(0x40)\n      dup1\n      0x40\n      add\n      0x40\n      mstore\n      dup1\n      0x1c\n      dup2\n      mstore\n      0x20\n      add\n      0x546865207065726d697373696f6e206973206e6f742076616c69642e00000000\n      dup2\n      mstore\n      pop\n        /* \"contracts/AccessControl.sol\":7054:7068  _informFailure */\n      tag_177\n        /* \"contracts/AccessControl.sol\":7054:7100  _informFailure(\"The permission is not valid.\") */\n      jump\t// in\n    tag_236:\n        /* \"contracts/AccessControl.sol\":6766:7112  if (_allPermissions[permission].isValid && permission != ADMIN) {\r... */\n    tag_235:\n        /* \"contracts/AccessControl.sol\":6523:7119  function _grantAccountPermission(bytes32 permission, address account) internal virtual {\r... */\n      pop\n      pop\n      jump\t// out\n        /* \"contracts/AccessControl.sol\":3108:4062  function _createPermission(bytes32 permission) internal virtual {\r... */\n    tag_162:\n        /* \"contracts/AccessControl.sol\":3255:3270  _allPermissions */\n      0x00\n        /* \"contracts/AccessControl.sol\":3255:3282  _allPermissions[permission] */\n      dup1\n        /* \"contracts/AccessControl.sol\":3271:3281  permission */\n      dup3\n        /* \"contracts/AccessControl.sol\":3255:3282  _allPermissions[permission] */\n      dup2\n      mstore\n      0x20\n      add\n      swap1\n      dup2\n      mstore\n      0x20\n      add\n      0x00\n      keccak256\n        /* \"contracts/AccessControl.sol\":3255:3290  _allPermissions[permission].isValid */\n      0x03\n      add\n      0x00\n      swap1\n      sload\n      swap1\n      0x0100\n      exp\n      swap1\n      div\n      0xff\n      and\n        /* \"contracts/AccessControl.sol\":3250:4055  if (!_allPermissions[permission].isValid) {\r... */\n      tag_238\n      jumpi\n        /* \"contracts/AccessControl.sol\":3307:3341  _changePermissionIndex(permission) */\n      tag_239\n        /* \"contracts/AccessControl.sol\":3330:3340  permission */\n      dup2\n        /* \"contracts/AccessControl.sol\":3307:3329  _changePermissionIndex */\n      tag_169\n        /* \"contracts/AccessControl.sol\":3307:3341  _changePermissionIndex(permission) */\n      jump\t// in\n    tag_239:\n        /* \"contracts/AccessControl.sol\":3394:3398  true */\n      0x01\n        /* \"contracts/AccessControl.sol\":3356:3371  _allPermissions */\n      0x00\n        /* \"contracts/AccessControl.sol\":3356:3383  _allPermissions[permission] */\n      dup1\n        /* \"contracts/AccessControl.sol\":3372:3382  permission */\n      dup4\n        /* \"contracts/AccessControl.sol\":3356:3383  _allPermissions[permission] */\n      dup2\n      mstore\n      0x20\n      add\n      swap1\n      dup2\n      mstore\n      0x20\n      add\n      0x00\n      keccak256\n        /* \"contracts/AccessControl.sol\":3356:3391  _allPermissions[permission].isValid */\n      0x03\n      add\n      0x00\n        /* \"contracts/AccessControl.sol\":3356:3398  _allPermissions[permission].isValid = true */\n      0x0100\n      exp\n      dup2\n      sload\n      dup2\n      0xff\n      mul\n      not\n      and\n      swap1\n      dup4\n      iszero\n      iszero\n      mul\n      or\n      swap1\n      sstore\n      pop\n        /* \"contracts/AccessControl.sol\":3485:3491  uint i */\n      0x00\n        /* \"contracts/AccessControl.sol\":3481:3819  for(uint i = 0; i < _allPermissions[ADMIN].length; i++) {\r... */\n    tag_240:\n        /* \"contracts/AccessControl.sol\":3501:3516  _allPermissions */\n      0x00\n        /* \"contracts/AccessControl.sol\":3501:3523  _allPermissions[ADMIN] */\n      dup1\n        /* \"contracts/AccessControl.sol\":677:695  keccak256(\"ADMIN\") */\n      0xdf8b4c520ffe197c5343c6f5aec59570151ef9a492f2c624fd45ddde6135ec42\n        /* \"contracts/AccessControl.sol\":3501:3523  _allPermissions[ADMIN] */\n      dup2\n      mstore\n      0x20\n      add\n      swap1\n      dup2\n      mstore\n      0x20\n      add\n      0x00\n      keccak256\n        /* \"contracts/AccessControl.sol\":3501:3530  _allPermissions[ADMIN].length */\n      0x02\n      add\n      sload\n        /* \"contracts/AccessControl.sol\":3497:3498  i */\n      dup2\n        /* \"contracts/AccessControl.sol\":3497:3530  i < _allPermissions[ADMIN].length */\n      lt\n        /* \"contracts/AccessControl.sol\":3481:3819  for(uint i = 0; i < _allPermissions[ADMIN].length; i++) {\r... */\n      iszero\n      tag_241\n      jumpi\n        /* \"contracts/AccessControl.sol\":3556:3578  address indexOfAddress */\n      0x00\n        /* \"contracts/AccessControl.sol\":3581:3596  _allPermissions */\n      dup1\n        /* \"contracts/AccessControl.sol\":3581:3603  _allPermissions[ADMIN] */\n      0x00\n        /* \"contracts/AccessControl.sol\":677:695  keccak256(\"ADMIN\") */\n      0xdf8b4c520ffe197c5343c6f5aec59570151ef9a492f2c624fd45ddde6135ec42\n        /* \"contracts/AccessControl.sol\":3581:3603  _allPermissions[ADMIN] */\n      dup2\n      mstore\n      0x20\n      add\n      swap1\n      dup2\n      mstore\n      0x20\n      add\n      0x00\n      keccak256\n        /* \"contracts/AccessControl.sol\":3581:3609  _allPermissions[ADMIN].index */\n      0x01\n      add\n        /* \"contracts/AccessControl.sol\":3581:3612  _allPermissions[ADMIN].index[i] */\n      0x00\n        /* \"contracts/AccessControl.sol\":3610:3611  i */\n      dup4\n        /* \"contracts/AccessControl.sol\":3581:3612  _allPermissions[ADMIN].index[i] */\n      dup2\n      mstore\n      0x20\n      add\n      swap1\n      dup2\n      mstore\n      0x20\n      add\n      0x00\n      keccak256\n      0x00\n      swap1\n      sload\n      swap1\n      0x0100\n      exp\n      swap1\n      div\n      0xffffffffffffffffffffffffffffffffffffffff\n      and\n        /* \"contracts/AccessControl.sol\":3556:3612  address indexOfAddress = _allPermissions[ADMIN].index[i] */\n      swap1\n      pop\n        /* \"contracts/AccessControl.sol\":3685:3700  _allPermissions */\n      0x00\n        /* \"contracts/AccessControl.sol\":3685:3707  _allPermissions[ADMIN] */\n      dup1\n        /* \"contracts/AccessControl.sol\":677:695  keccak256(\"ADMIN\") */\n      0xdf8b4c520ffe197c5343c6f5aec59570151ef9a492f2c624fd45ddde6135ec42\n        /* \"contracts/AccessControl.sol\":3685:3707  _allPermissions[ADMIN] */\n      dup2\n      mstore\n      0x20\n      add\n      swap1\n      dup2\n      mstore\n      0x20\n      add\n      0x00\n      keccak256\n        /* \"contracts/AccessControl.sol\":3685:3715  _allPermissions[ADMIN].members */\n      0x00\n      add\n        /* \"contracts/AccessControl.sol\":3685:3731  _allPermissions[ADMIN].members[indexOfAddress] */\n      0x00\n        /* \"contracts/AccessControl.sol\":3716:3730  indexOfAddress */\n      dup3\n        /* \"contracts/AccessControl.sol\":3685:3731  _allPermissions[ADMIN].members[indexOfAddress] */\n      0xffffffffffffffffffffffffffffffffffffffff\n      and\n      0xffffffffffffffffffffffffffffffffffffffff\n      and\n      dup2\n      mstore\n      0x20\n      add\n      swap1\n      dup2\n      mstore\n      0x20\n      add\n      0x00\n      keccak256\n      0x00\n      swap1\n      sload\n      swap1\n      0x0100\n      exp\n      swap1\n      div\n      0xff\n      and\n        /* \"contracts/AccessControl.sol\":3631:3646  _allPermissions */\n      0x00\n        /* \"contracts/AccessControl.sol\":3631:3658  _allPermissions[permission] */\n      dup1\n        /* \"contracts/AccessControl.sol\":3647:3657  permission */\n      dup6\n        /* \"contracts/AccessControl.sol\":3631:3658  _allPermissions[permission] */\n      dup2\n      mstore\n      0x20\n      add\n      swap1\n      dup2\n      mstore\n      0x20\n      add\n      0x00\n      keccak256\n        /* \"contracts/AccessControl.sol\":3631:3666  _allPermissions[permission].members */\n      0x00\n      add\n        /* \"contracts/AccessControl.sol\":3631:3682  _allPermissions[permission].members[indexOfAddress] */\n      0x00\n        /* \"contracts/AccessControl.sol\":3667:3681  indexOfAddress */\n      dup4\n        /* \"contracts/AccessControl.sol\":3631:3682  _allPermissions[permission].members[indexOfAddress] */\n      0xffffffffffffffffffffffffffffffffffffffff\n      and\n      0xffffffffffffffffffffffffffffffffffffffff\n      and\n      dup2\n      mstore\n      0x20\n      add\n      swap1\n      dup2\n      mstore\n      0x20\n      add\n      0x00\n      keccak256\n      0x00\n        /* \"contracts/AccessControl.sol\":3631:3731  _allPermissions[permission].members[indexOfAddress] = _allPermissions[ADMIN].members[indexOfAddress] */\n      0x0100\n      exp\n      dup2\n      sload\n      dup2\n      0xff\n      mul\n      not\n      and\n      swap1\n      dup4\n      iszero\n      iszero\n      mul\n      or\n      swap1\n      sstore\n      pop\n        /* \"contracts/AccessControl.sol\":3789:3803  indexOfAddress */\n      dup1\n        /* \"contracts/AccessControl.sol\":3750:3765  _allPermissions */\n      0x00\n        /* \"contracts/AccessControl.sol\":3750:3777  _allPermissions[permission] */\n      dup1\n        /* \"contracts/AccessControl.sol\":3766:3776  permission */\n      dup6\n        /* \"contracts/AccessControl.sol\":3750:3777  _allPermissions[permission] */\n      dup2\n      mstore\n      0x20\n      add\n      swap1\n      dup2\n      mstore\n      0x20\n      add\n      0x00\n      keccak256\n        /* \"contracts/AccessControl.sol\":3750:3783  _allPermissions[permission].index */\n      0x01\n      add\n        /* \"contracts/AccessControl.sol\":3750:3786  _allPermissions[permission].index[i] */\n      0x00\n        /* \"contracts/AccessControl.sol\":3784:3785  i */\n      dup5\n        /* \"contracts/AccessControl.sol\":3750:3786  _allPermissions[permission].index[i] */\n      dup2\n      mstore\n      0x20\n      add\n      swap1\n      dup2\n      mstore\n      0x20\n      add\n      0x00\n      keccak256\n      0x00\n        /* \"contracts/AccessControl.sol\":3750:3803  _allPermissions[permission].index[i] = indexOfAddress */\n      0x0100\n      exp\n      dup2\n      sload\n      dup2\n      0xffffffffffffffffffffffffffffffffffffffff\n      mul\n      not\n      and\n      swap1\n      dup4\n      0xffffffffffffffffffffffffffffffffffffffff\n      and\n      mul\n      or\n      swap1\n      sstore\n      pop\n        /* \"contracts/AccessControl.sol\":3537:3819  {\r... */\n      pop\n        /* \"contracts/AccessControl.sol\":3532:3535  i++ */\n      dup1\n      dup1\n      tag_243\n      swap1\n      tag_174\n      jump\t// in\n    tag_243:\n      swap2\n      pop\n      pop\n        /* \"contracts/AccessControl.sol\":3481:3819  for(uint i = 0; i < _allPermissions[ADMIN].length; i++) {\r... */\n      jump(tag_240)\n    tag_241:\n      pop\n        /* \"contracts/AccessControl.sol\":3870:3885  _allPermissions */\n      0x00\n        /* \"contracts/AccessControl.sol\":3870:3892  _allPermissions[ADMIN] */\n      dup1\n        /* \"contracts/AccessControl.sol\":677:695  keccak256(\"ADMIN\") */\n      0xdf8b4c520ffe197c5343c6f5aec59570151ef9a492f2c624fd45ddde6135ec42\n        /* \"contracts/AccessControl.sol\":3870:3892  _allPermissions[ADMIN] */\n      dup2\n      mstore\n      0x20\n      add\n      swap1\n      dup2\n      mstore\n      0x20\n      add\n      0x00\n      keccak256\n        /* \"contracts/AccessControl.sol\":3870:3899  _allPermissions[ADMIN].length */\n      0x02\n      add\n      sload\n        /* \"contracts/AccessControl.sol\":3833:3848  _allPermissions */\n      0x00\n        /* \"contracts/AccessControl.sol\":3833:3860  _allPermissions[permission] */\n      dup1\n        /* \"contracts/AccessControl.sol\":3849:3859  permission */\n      dup4\n        /* \"contracts/AccessControl.sol\":3833:3860  _allPermissions[permission] */\n      dup2\n      mstore\n      0x20\n      add\n      swap1\n      dup2\n      mstore\n      0x20\n      add\n      0x00\n      keccak256\n        /* \"contracts/AccessControl.sol\":3833:3867  _allPermissions[permission].length */\n      0x02\n      add\n        /* \"contracts/AccessControl.sol\":3833:3899  _allPermissions[permission].length = _allPermissions[ADMIN].length */\n      dup2\n      swap1\n      sstore\n      pop\n        /* \"contracts/AccessControl.sol\":3949:3959  msg.sender */\n      caller\n        /* \"contracts/AccessControl.sol\":3919:3960  PermissionCreated(permission, msg.sender) */\n      0xffffffffffffffffffffffffffffffffffffffff\n      and\n        /* \"contracts/AccessControl.sol\":3937:3947  permission */\n      dup2\n        /* \"contracts/AccessControl.sol\":3919:3960  PermissionCreated(permission, msg.sender) */\n      0xe5441ae34479a403bc99d68df28ccb0c68ca8cb80aa5142c84cd5e6782c5c149\n      mload(0x40)\n      mload(0x40)\n      dup1\n      swap2\n      sub\n      swap1\n      log3\n        /* \"contracts/AccessControl.sol\":3250:4055  if (!_allPermissions[permission].isValid) {\r... */\n      jump(tag_244)\n    tag_238:\n        /* \"contracts/AccessControl.sol\":3993:4043  _informFailure(\"The permission has alreay exist.\") */\n      tag_245\n      mload(0x40)\n      dup1\n      0x40\n      add\n      0x40\n      mstore\n      dup1\n      0x20\n      dup2\n      mstore\n      0x20\n      add\n      0x546865207065726d697373696f6e2068617320616c726561792065786973742e\n      dup2\n      mstore\n      pop\n        /* \"contracts/AccessControl.sol\":3993:4007  _informFailure */\n      tag_177\n        /* \"contracts/AccessControl.sol\":3993:4043  _informFailure(\"The permission has alreay exist.\") */\n      jump\t// in\n    tag_245:\n        /* \"contracts/AccessControl.sol\":3250:4055  if (!_allPermissions[permission].isValid) {\r... */\n    tag_244:\n        /* \"contracts/AccessControl.sol\":3108:4062  function _createPermission(bytes32 permission) internal virtual {\r... */\n      pop\n      jump\t// out\n        /* \"contracts/AccessControl.sol\":2027:2464  function _changePermissionIndex(bytes32 permission) private {\r... */\n    tag_169:\n        /* \"contracts/AccessControl.sol\":2098:2110  bool isExist */\n      0x00\n        /* \"contracts/AccessControl.sol\":2133:2139  uint i */\n      dup1\n        /* \"contracts/AccessControl.sol\":2129:2316  for(uint i = 0; i < _numberOfPermissions; i++) {\r... */\n    tag_247:\n        /* \"contracts/AccessControl.sol\":2149:2169  _numberOfPermissions */\n      sload(0x02)\n        /* \"contracts/AccessControl.sol\":2145:2146  i */\n      dup2\n        /* \"contracts/AccessControl.sol\":2145:2169  i < _numberOfPermissions */\n      lt\n        /* \"contracts/AccessControl.sol\":2129:2316  for(uint i = 0; i < _numberOfPermissions; i++) {\r... */\n      iszero\n      tag_248\n      jumpi\n        /* \"contracts/AccessControl.sol\":2220:2230  permission */\n      dup3\n        /* \"contracts/AccessControl.sol\":2194:2213  _indexOfPermissions */\n      0x01\n        /* \"contracts/AccessControl.sol\":2194:2216  _indexOfPermissions[i] */\n      0x00\n        /* \"contracts/AccessControl.sol\":2214:2215  i */\n      dup4\n        /* \"contracts/AccessControl.sol\":2194:2216  _indexOfPermissions[i] */\n      dup2\n      mstore\n      0x20\n      add\n      swap1\n      dup2\n      mstore\n      0x20\n      add\n      0x00\n      keccak256\n      sload\n        /* \"contracts/AccessControl.sol\":2194:2230  _indexOfPermissions[i] == permission */\n      eq\n        /* \"contracts/AccessControl.sol\":2191:2305  if(_indexOfPermissions[i] == permission) {\r... */\n      iszero\n      tag_250\n      jumpi\n        /* \"contracts/AccessControl.sol\":2261:2265  true */\n      0x01\n        /* \"contracts/AccessControl.sol\":2251:2265  isExist = true */\n      swap2\n      pop\n        /* \"contracts/AccessControl.sol\":2284:2289  break */\n      jump(tag_248)\n        /* \"contracts/AccessControl.sol\":2191:2305  if(_indexOfPermissions[i] == permission) {\r... */\n    tag_250:\n        /* \"contracts/AccessControl.sol\":2171:2174  i++ */\n      dup1\n      dup1\n      tag_251\n      swap1\n      tag_174\n      jump\t// in\n    tag_251:\n      swap2\n      pop\n      pop\n        /* \"contracts/AccessControl.sol\":2129:2316  for(uint i = 0; i < _numberOfPermissions; i++) {\r... */\n      jump(tag_247)\n    tag_248:\n      pop\n        /* \"contracts/AccessControl.sol\":2330:2337  isExist */\n      dup1\n        /* \"contracts/AccessControl.sol\":2326:2457  if(!isExist) {\r... */\n      tag_252\n      jumpi\n        /* \"contracts/AccessControl.sol\":2398:2408  permission */\n      dup2\n        /* \"contracts/AccessControl.sol\":2354:2373  _indexOfPermissions */\n      0x01\n        /* \"contracts/AccessControl.sol\":2354:2395  _indexOfPermissions[_numberOfPermissions] */\n      0x00\n        /* \"contracts/AccessControl.sol\":2374:2394  _numberOfPermissions */\n      sload(0x02)\n        /* \"contracts/AccessControl.sol\":2354:2395  _indexOfPermissions[_numberOfPermissions] */\n      dup2\n      mstore\n      0x20\n      add\n      swap1\n      dup2\n      mstore\n      0x20\n      add\n      0x00\n      keccak256\n        /* \"contracts/AccessControl.sol\":2354:2408  _indexOfPermissions[_numberOfPermissions] = permission */\n      dup2\n      swap1\n      sstore\n      pop\n        /* \"contracts/AccessControl.sol\":2423:2443  _numberOfPermissions */\n      0x02\n      0x00\n        /* \"contracts/AccessControl.sol\":2423:2445  _numberOfPermissions++ */\n      dup2\n      sload\n      dup1\n      swap3\n      swap2\n      swap1\n      tag_253\n      swap1\n      tag_174\n      jump\t// in\n    tag_253:\n      swap2\n      swap1\n      pop\n      sstore\n      pop\n        /* \"contracts/AccessControl.sol\":2326:2457  if(!isExist) {\r... */\n    tag_252:\n        /* \"contracts/AccessControl.sol\":2087:2464  {\r... */\n      pop\n        /* \"contracts/AccessControl.sol\":2027:2464  function _changePermissionIndex(bytes32 permission) private {\r... */\n      pop\n      jump\t// out\n        /* \"contracts/AccessControl.sol\":1386:1644  function _informFailure(string memory response) private pure {\r... */\n    tag_177:\n        /* \"contracts/AccessControl.sol\":1583:1591  response */\n      dup1\n        /* \"contracts/AccessControl.sol\":1504:1610  abi.encodePacked(\r... */\n      add(0x20, mload(0x40))\n      tag_255\n      swap2\n      swap1\n      tag_256\n      jump\t// in\n    tag_255:\n      mload(0x40)\n      0x20\n      dup2\n      dup4\n      sub\n      sub\n      dup2\n      mstore\n      swap1\n      0x40\n      mstore\n        /* \"contracts/AccessControl.sol\":1458:1636  revert(\r... */\n      mload(0x40)\n      0x08c379a000000000000000000000000000000000000000000000000000000000\n      dup2\n      mstore\n      0x04\n      add\n      tag_257\n      swap2\n      swap1\n      tag_258\n      jump\t// in\n    tag_257:\n      mload(0x40)\n      dup1\n      swap2\n      sub\n      swap1\n      revert\n        /* \"contracts/AccessControl.sol\":5773:6436  function _changeAccountIndex(bytes32 permission, address account) private {\r... */\n    tag_213:\n        /* \"contracts/AccessControl.sol\":6006:6018  bool isExist */\n      0x00\n        /* \"contracts/AccessControl.sol\":6041:6047  uint i */\n      dup1\n        /* \"contracts/AccessControl.sol\":6037:6249  for(uint i = 0; i < _allPermissions[permission].length; i++) {\r... */\n    tag_260:\n        /* \"contracts/AccessControl.sol\":6057:6072  _allPermissions */\n      0x00\n        /* \"contracts/AccessControl.sol\":6057:6084  _allPermissions[permission] */\n      dup1\n        /* \"contracts/AccessControl.sol\":6073:6083  permission */\n      dup6\n        /* \"contracts/AccessControl.sol\":6057:6084  _allPermissions[permission] */\n      dup2\n      mstore\n      0x20\n      add\n      swap1\n      dup2\n      mstore\n      0x20\n      add\n      0x00\n      keccak256\n        /* \"contracts/AccessControl.sol\":6057:6091  _allPermissions[permission].length */\n      0x02\n      add\n      sload\n        /* \"contracts/AccessControl.sol\":6053:6054  i */\n      dup2\n        /* \"contracts/AccessControl.sol\":6053:6091  i < _allPermissions[permission].length */\n      lt\n        /* \"contracts/AccessControl.sol\":6037:6249  for(uint i = 0; i < _allPermissions[permission].length; i++) {\r... */\n      iszero\n      tag_261\n      jumpi\n        /* \"contracts/AccessControl.sol\":6156:6163  account */\n      dup3\n        /* \"contracts/AccessControl.sol\":6116:6163  _allPermissions[permission].index[i] == account */\n      0xffffffffffffffffffffffffffffffffffffffff\n      and\n        /* \"contracts/AccessControl.sol\":6116:6131  _allPermissions */\n      0x00\n        /* \"contracts/AccessControl.sol\":6116:6143  _allPermissions[permission] */\n      dup1\n        /* \"contracts/AccessControl.sol\":6132:6142  permission */\n      dup7\n        /* \"contracts/AccessControl.sol\":6116:6143  _allPermissions[permission] */\n      dup2\n      mstore\n      0x20\n      add\n      swap1\n      dup2\n      mstore\n      0x20\n      add\n      0x00\n      keccak256\n        /* \"contracts/AccessControl.sol\":6116:6149  _allPermissions[permission].index */\n      0x01\n      add\n        /* \"contracts/AccessControl.sol\":6116:6152  _allPermissions[permission].index[i] */\n      0x00\n        /* \"contracts/AccessControl.sol\":6150:6151  i */\n      dup4\n        /* \"contracts/AccessControl.sol\":6116:6152  _allPermissions[permission].index[i] */\n      dup2\n      mstore\n      0x20\n      add\n      swap1\n      dup2\n      mstore\n      0x20\n      add\n      0x00\n      keccak256\n      0x00\n      swap1\n      sload\n      swap1\n      0x0100\n      exp\n      swap1\n      div\n      0xffffffffffffffffffffffffffffffffffffffff\n      and\n        /* \"contracts/AccessControl.sol\":6116:6163  _allPermissions[permission].index[i] == account */\n      0xffffffffffffffffffffffffffffffffffffffff\n      and\n      eq\n        /* \"contracts/AccessControl.sol\":6113:6238  if(_allPermissions[permission].index[i] == account) {\r... */\n      iszero\n      tag_263\n      jumpi\n        /* \"contracts/AccessControl.sol\":6194:6198  true */\n      0x01\n        /* \"contracts/AccessControl.sol\":6184:6198  isExist = true */\n      swap2\n      pop\n        /* \"contracts/AccessControl.sol\":6217:6222  break */\n      jump(tag_261)\n        /* \"contracts/AccessControl.sol\":6113:6238  if(_allPermissions[permission].index[i] == account) {\r... */\n    tag_263:\n        /* \"contracts/AccessControl.sol\":6093:6096  i++ */\n      dup1\n      dup1\n      tag_264\n      swap1\n      tag_174\n      jump\t// in\n    tag_264:\n      swap2\n      pop\n      pop\n        /* \"contracts/AccessControl.sol\":6037:6249  for(uint i = 0; i < _allPermissions[permission].length; i++) {\r... */\n      jump(tag_260)\n    tag_261:\n      pop\n        /* \"contracts/AccessControl.sol\":6263:6270  isExist */\n      dup1\n        /* \"contracts/AccessControl.sol\":6259:6429  if(!isExist) {\r... */\n      tag_265\n      jumpi\n        /* \"contracts/AccessControl.sol\":6359:6366  account */\n      dup2\n        /* \"contracts/AccessControl.sol\":6287:6302  _allPermissions */\n      0x00\n        /* \"contracts/AccessControl.sol\":6287:6314  _allPermissions[permission] */\n      dup1\n        /* \"contracts/AccessControl.sol\":6303:6313  permission */\n      dup6\n        /* \"contracts/AccessControl.sol\":6287:6314  _allPermissions[permission] */\n      dup2\n      mstore\n      0x20\n      add\n      swap1\n      dup2\n      mstore\n      0x20\n      add\n      0x00\n      keccak256\n        /* \"contracts/AccessControl.sol\":6287:6320  _allPermissions[permission].index */\n      0x01\n      add\n        /* \"contracts/AccessControl.sol\":6287:6356  _allPermissions[permission].index[_allPermissions[permission].length] */\n      0x00\n        /* \"contracts/AccessControl.sol\":6321:6336  _allPermissions */\n      dup1\n        /* \"contracts/AccessControl.sol\":6321:6348  _allPermissions[permission] */\n      0x00\n        /* \"contracts/AccessControl.sol\":6337:6347  permission */\n      dup8\n        /* \"contracts/AccessControl.sol\":6321:6348  _allPermissions[permission] */\n      dup2\n      mstore\n      0x20\n      add\n      swap1\n      dup2\n      mstore\n      0x20\n      add\n      0x00\n      keccak256\n        /* \"contracts/AccessControl.sol\":6321:6355  _allPermissions[permission].length */\n      0x02\n      add\n      sload\n        /* \"contracts/AccessControl.sol\":6287:6356  _allPermissions[permission].index[_allPermissions[permission].length] */\n      dup2\n      mstore\n      0x20\n      add\n      swap1\n      dup2\n      mstore\n      0x20\n      add\n      0x00\n      keccak256\n      0x00\n        /* \"contracts/AccessControl.sol\":6287:6366  _allPermissions[permission].index[_allPermissions[permission].length] = account */\n      0x0100\n      exp\n      dup2\n      sload\n      dup2\n      0xffffffffffffffffffffffffffffffffffffffff\n      mul\n      not\n      and\n      swap1\n      dup4\n      0xffffffffffffffffffffffffffffffffffffffff\n      and\n      mul\n      or\n      swap1\n      sstore\n      pop\n        /* \"contracts/AccessControl.sol\":6381:6396  _allPermissions */\n      0x00\n        /* \"contracts/AccessControl.sol\":6381:6408  _allPermissions[permission] */\n      dup1\n        /* \"contracts/AccessControl.sol\":6397:6407  permission */\n      dup5\n        /* \"contracts/AccessControl.sol\":6381:6408  _allPermissions[permission] */\n      dup2\n      mstore\n      0x20\n      add\n      swap1\n      dup2\n      mstore\n      0x20\n      add\n      0x00\n      keccak256\n        /* \"contracts/AccessControl.sol\":6381:6415  _allPermissions[permission].length */\n      0x02\n      add\n      0x00\n        /* \"contracts/AccessControl.sol\":6381:6417  _allPermissions[permission].length++ */\n      dup2\n      sload\n      dup1\n      swap3\n      swap2\n      swap1\n      tag_266\n      swap1\n      tag_174\n      jump\t// in\n    tag_266:\n      swap2\n      swap1\n      pop\n      sstore\n      pop\n        /* \"contracts/AccessControl.sol\":6259:6429  if(!isExist) {\r... */\n    tag_265:\n        /* \"contracts/AccessControl.sol\":5847:6436  {\r... */\n      pop\n        /* \"contracts/AccessControl.sol\":5773:6436  function _changeAccountIndex(bytes32 permission, address account) private {\r... */\n      pop\n      pop\n      jump\t// out\n        /* \"#utility.yul\":7:419   */\n    tag_268:\n        /* \"#utility.yul\":85:90   */\n      0x00\n        /* \"#utility.yul\":110:176   */\n      tag_270\n        /* \"#utility.yul\":126:175   */\n      tag_271\n        /* \"#utility.yul\":168:174   */\n      dup5\n        /* \"#utility.yul\":126:175   */\n      tag_272\n      jump\t// in\n    tag_271:\n        /* \"#utility.yul\":110:176   */\n      tag_273\n      jump\t// in\n    tag_270:\n        /* \"#utility.yul\":101:176   */\n      swap1\n      pop\n        /* \"#utility.yul\":199:205   */\n      dup3\n        /* \"#utility.yul\":192:197   */\n      dup2\n        /* \"#utility.yul\":185:206   */\n      mstore\n        /* \"#utility.yul\":237:241   */\n      0x20\n        /* \"#utility.yul\":230:235   */\n      dup2\n        /* \"#utility.yul\":226:242   */\n      add\n        /* \"#utility.yul\":275:278   */\n      dup5\n        /* \"#utility.yul\":266:272   */\n      dup5\n        /* \"#utility.yul\":261:264   */\n      dup5\n        /* \"#utility.yul\":257:273   */\n      add\n        /* \"#utility.yul\":254:279   */\n      gt\n        /* \"#utility.yul\":251:363   */\n      iszero\n      tag_274\n      jumpi\n        /* \"#utility.yul\":282:361   */\n      tag_275\n      tag_276\n      jump\t// in\n    tag_275:\n        /* \"#utility.yul\":251:363   */\n    tag_274:\n        /* \"#utility.yul\":372:413   */\n      tag_277\n        /* \"#utility.yul\":406:412   */\n      dup5\n        /* \"#utility.yul\":401:404   */\n      dup3\n        /* \"#utility.yul\":396:399   */\n      dup6\n        /* \"#utility.yul\":372:413   */\n      tag_278\n      jump\t// in\n    tag_277:\n        /* \"#utility.yul\":91:419   */\n      pop\n        /* \"#utility.yul\":7:419   */\n      swap4\n      swap3\n      pop\n      pop\n      pop\n      jump\t// out\n        /* \"#utility.yul\":425:564   */\n    tag_279:\n        /* \"#utility.yul\":471:476   */\n      0x00\n        /* \"#utility.yul\":509:515   */\n      dup2\n        /* \"#utility.yul\":496:516   */\n      calldataload\n        /* \"#utility.yul\":487:516   */\n      swap1\n      pop\n        /* \"#utility.yul\":525:558   */\n      tag_281\n        /* \"#utility.yul\":552:557   */\n      dup2\n        /* \"#utility.yul\":525:558   */\n      tag_282\n      jump\t// in\n    tag_281:\n        /* \"#utility.yul\":425:564   */\n      swap3\n      swap2\n      pop\n      pop\n      jump\t// out\n        /* \"#utility.yul\":570:709   */\n    tag_283:\n        /* \"#utility.yul\":616:621   */\n      0x00\n        /* \"#utility.yul\":654:660   */\n      dup2\n        /* \"#utility.yul\":641:661   */\n      calldataload\n        /* \"#utility.yul\":632:661   */\n      swap1\n      pop\n        /* \"#utility.yul\":670:703   */\n      tag_285\n        /* \"#utility.yul\":697:702   */\n      dup2\n        /* \"#utility.yul\":670:703   */\n      tag_286\n      jump\t// in\n    tag_285:\n        /* \"#utility.yul\":570:709   */\n      swap3\n      swap2\n      pop\n      pop\n      jump\t// out\n        /* \"#utility.yul\":729:1069   */\n    tag_287:\n        /* \"#utility.yul\":785:790   */\n      0x00\n        /* \"#utility.yul\":834:837   */\n      dup3\n        /* \"#utility.yul\":827:831   */\n      0x1f\n        /* \"#utility.yul\":819:825   */\n      dup4\n        /* \"#utility.yul\":815:832   */\n      add\n        /* \"#utility.yul\":811:838   */\n      slt\n        /* \"#utility.yul\":801:923   */\n      tag_289\n      jumpi\n        /* \"#utility.yul\":842:921   */\n      tag_290\n      tag_291\n      jump\t// in\n    tag_290:\n        /* \"#utility.yul\":801:923   */\n    tag_289:\n        /* \"#utility.yul\":959:965   */\n      dup2\n        /* \"#utility.yul\":946:966   */\n      calldataload\n        /* \"#utility.yul\":984:1063   */\n      tag_292\n        /* \"#utility.yul\":1059:1062   */\n      dup5\n        /* \"#utility.yul\":1051:1057   */\n      dup3\n        /* \"#utility.yul\":1044:1048   */\n      0x20\n        /* \"#utility.yul\":1036:1042   */\n      dup7\n        /* \"#utility.yul\":1032:1049   */\n      add\n        /* \"#utility.yul\":984:1063   */\n      tag_268\n      jump\t// in\n    tag_292:\n        /* \"#utility.yul\":975:1063   */\n      swap2\n      pop\n        /* \"#utility.yul\":791:1069   */\n      pop\n        /* \"#utility.yul\":729:1069   */\n      swap3\n      swap2\n      pop\n      pop\n      jump\t// out\n        /* \"#utility.yul\":1075:1404   */\n    tag_28:\n        /* \"#utility.yul\":1134:1140   */\n      0x00\n        /* \"#utility.yul\":1183:1185   */\n      0x20\n        /* \"#utility.yul\":1171:1180   */\n      dup3\n        /* \"#utility.yul\":1162:1169   */\n      dup5\n        /* \"#utility.yul\":1158:1181   */\n      sub\n        /* \"#utility.yul\":1154:1186   */\n      slt\n        /* \"#utility.yul\":1151:1270   */\n      iszero\n      tag_294\n      jumpi\n        /* \"#utility.yul\":1189:1268   */\n      tag_295\n      tag_296\n      jump\t// in\n    tag_295:\n        /* \"#utility.yul\":1151:1270   */\n    tag_294:\n        /* \"#utility.yul\":1309:1310   */\n      0x00\n        /* \"#utility.yul\":1334:1387   */\n      tag_297\n        /* \"#utility.yul\":1379:1386   */\n      dup5\n        /* \"#utility.yul\":1370:1376   */\n      dup3\n        /* \"#utility.yul\":1359:1368   */\n      dup6\n        /* \"#utility.yul\":1355:1377   */\n      add\n        /* \"#utility.yul\":1334:1387   */\n      tag_279\n      jump\t// in\n    tag_297:\n        /* \"#utility.yul\":1324:1387   */\n      swap2\n      pop\n        /* \"#utility.yul\":1280:1397   */\n      pop\n        /* \"#utility.yul\":1075:1404   */\n      swap3\n      swap2\n      pop\n      pop\n      jump\t// out\n        /* \"#utility.yul\":1410:1739   */\n    tag_49:\n        /* \"#utility.yul\":1469:1475   */\n      0x00\n        /* \"#utility.yul\":1518:1520   */\n      0x20\n        /* \"#utility.yul\":1506:1515   */\n      dup3\n        /* \"#utility.yul\":1497:1504   */\n      dup5\n        /* \"#utility.yul\":1493:1516   */\n      sub\n        /* \"#utility.yul\":1489:1521   */\n      slt\n        /* \"#utility.yul\":1486:1605   */\n      iszero\n      tag_299\n      jumpi\n        /* \"#utility.yul\":1524:1603   */\n      tag_300\n      tag_296\n      jump\t// in\n    tag_300:\n        /* \"#utility.yul\":1486:1605   */\n    tag_299:\n        /* \"#utility.yul\":1644:1645   */\n      0x00\n        /* \"#utility.yul\":1669:1722   */\n      tag_301\n        /* \"#utility.yul\":1714:1721   */\n      dup5\n        /* \"#utility.yul\":1705:1711   */\n      dup3\n        /* \"#utility.yul\":1694:1703   */\n      dup6\n        /* \"#utility.yul\":1690:1712   */\n      add\n        /* \"#utility.yul\":1669:1722   */\n      tag_283\n      jump\t// in\n    tag_301:\n        /* \"#utility.yul\":1659:1722   */\n      swap2\n      pop\n        /* \"#utility.yul\":1615:1732   */\n      pop\n        /* \"#utility.yul\":1410:1739   */\n      swap3\n      swap2\n      pop\n      pop\n      jump\t// out\n        /* \"#utility.yul\":1745:2219   */\n    tag_66:\n        /* \"#utility.yul\":1813:1819   */\n      0x00\n        /* \"#utility.yul\":1821:1827   */\n      dup1\n        /* \"#utility.yul\":1870:1872   */\n      0x40\n        /* \"#utility.yul\":1858:1867   */\n      dup4\n        /* \"#utility.yul\":1849:1856   */\n      dup6\n        /* \"#utility.yul\":1845:1868   */\n      sub\n        /* \"#utility.yul\":1841:1873   */\n      slt\n        /* \"#utility.yul\":1838:1957   */\n      iszero\n      tag_303\n      jumpi\n        /* \"#utility.yul\":1876:1955   */\n      tag_304\n      tag_296\n      jump\t// in\n    tag_304:\n        /* \"#utility.yul\":1838:1957   */\n    tag_303:\n        /* \"#utility.yul\":1996:1997   */\n      0x00\n        /* \"#utility.yul\":2021:2074   */\n      tag_305\n        /* \"#utility.yul\":2066:2073   */\n      dup6\n        /* \"#utility.yul\":2057:2063   */\n      dup3\n        /* \"#utility.yul\":2046:2055   */\n      dup7\n        /* \"#utility.yul\":2042:2064   */\n      add\n        /* \"#utility.yul\":2021:2074   */\n      tag_283\n      jump\t// in\n    tag_305:\n        /* \"#utility.yul\":2011:2074   */\n      swap3\n      pop\n        /* \"#utility.yul\":1967:2084   */\n      pop\n        /* \"#utility.yul\":2123:2125   */\n      0x20\n        /* \"#utility.yul\":2149:2202   */\n      tag_306\n        /* \"#utility.yul\":2194:2201   */\n      dup6\n        /* \"#utility.yul\":2185:2191   */\n      dup3\n        /* \"#utility.yul\":2174:2183   */\n      dup7\n        /* \"#utility.yul\":2170:2192   */\n      add\n        /* \"#utility.yul\":2149:2202   */\n      tag_279\n      jump\t// in\n    tag_306:\n        /* \"#utility.yul\":2139:2202   */\n      swap2\n      pop\n        /* \"#utility.yul\":2094:2212   */\n      pop\n        /* \"#utility.yul\":1745:2219   */\n      swap3\n      pop\n      swap3\n      swap1\n      pop\n      jump\t// out\n        /* \"#utility.yul\":2225:2734   */\n    tag_24:\n        /* \"#utility.yul\":2294:2300   */\n      0x00\n        /* \"#utility.yul\":2343:2345   */\n      0x20\n        /* \"#utility.yul\":2331:2340   */\n      dup3\n        /* \"#utility.yul\":2322:2329   */\n      dup5\n        /* \"#utility.yul\":2318:2341   */\n      sub\n        /* \"#utility.yul\":2314:2346   */\n      slt\n        /* \"#utility.yul\":2311:2430   */\n      iszero\n      tag_308\n      jumpi\n        /* \"#utility.yul\":2349:2428   */\n      tag_309\n      tag_296\n      jump\t// in\n    tag_309:\n        /* \"#utility.yul\":2311:2430   */\n    tag_308:\n        /* \"#utility.yul\":2497:2498   */\n      0x00\n        /* \"#utility.yul\":2486:2495   */\n      dup3\n        /* \"#utility.yul\":2482:2499   */\n      add\n        /* \"#utility.yul\":2469:2500   */\n      calldataload\n        /* \"#utility.yul\":2527:2545   */\n      0xffffffffffffffff\n        /* \"#utility.yul\":2519:2525   */\n      dup2\n        /* \"#utility.yul\":2516:2546   */\n      gt\n        /* \"#utility.yul\":2513:2630   */\n      iszero\n      tag_310\n      jumpi\n        /* \"#utility.yul\":2549:2628   */\n      tag_311\n      tag_312\n      jump\t// in\n    tag_311:\n        /* \"#utility.yul\":2513:2630   */\n    tag_310:\n        /* \"#utility.yul\":2654:2717   */\n      tag_313\n        /* \"#utility.yul\":2709:2716   */\n      dup5\n        /* \"#utility.yul\":2700:2706   */\n      dup3\n        /* \"#utility.yul\":2689:2698   */\n      dup6\n        /* \"#utility.yul\":2685:2707   */\n      add\n        /* \"#utility.yul\":2654:2717   */\n      tag_287\n      jump\t// in\n    tag_313:\n        /* \"#utility.yul\":2644:2717   */\n      swap2\n      pop\n        /* \"#utility.yul\":2440:2727   */\n      pop\n        /* \"#utility.yul\":2225:2734   */\n      swap3\n      swap2\n      pop\n      pop\n      jump\t// out\n        /* \"#utility.yul\":2740:3394   */\n    tag_54:\n        /* \"#utility.yul\":2818:2824   */\n      0x00\n        /* \"#utility.yul\":2826:2832   */\n      dup1\n        /* \"#utility.yul\":2875:2877   */\n      0x40\n        /* \"#utility.yul\":2863:2872   */\n      dup4\n        /* \"#utility.yul\":2854:2861   */\n      dup6\n        /* \"#utility.yul\":2850:2873   */\n      sub\n        /* \"#utility.yul\":2846:2878   */\n      slt\n        /* \"#utility.yul\":2843:2962   */\n      iszero\n      tag_315\n      jumpi\n        /* \"#utility.yul\":2881:2960   */\n      tag_316\n      tag_296\n      jump\t// in\n    tag_316:\n        /* \"#utility.yul\":2843:2962   */\n    tag_315:\n        /* \"#utility.yul\":3029:3030   */\n      0x00\n        /* \"#utility.yul\":3018:3027   */\n      dup4\n        /* \"#utility.yul\":3014:3031   */\n      add\n        /* \"#utility.yul\":3001:3032   */\n      calldataload\n        /* \"#utility.yul\":3059:3077   */\n      0xffffffffffffffff\n        /* \"#utility.yul\":3051:3057   */\n      dup2\n        /* \"#utility.yul\":3048:3078   */\n      gt\n        /* \"#utility.yul\":3045:3162   */\n      iszero\n      tag_317\n      jumpi\n        /* \"#utility.yul\":3081:3160   */\n      tag_318\n      tag_312\n      jump\t// in\n    tag_318:\n        /* \"#utility.yul\":3045:3162   */\n    tag_317:\n        /* \"#utility.yul\":3186:3249   */\n      tag_319\n        /* \"#utility.yul\":3241:3248   */\n      dup6\n        /* \"#utility.yul\":3232:3238   */\n      dup3\n        /* \"#utility.yul\":3221:3230   */\n      dup7\n        /* \"#utility.yul\":3217:3239   */\n      add\n        /* \"#utility.yul\":3186:3249   */\n      tag_287\n      jump\t// in\n    tag_319:\n        /* \"#utility.yul\":3176:3249   */\n      swap3\n      pop\n        /* \"#utility.yul\":2972:3259   */\n      pop\n        /* \"#utility.yul\":3298:3300   */\n      0x20\n        /* \"#utility.yul\":3324:3377   */\n      tag_320\n        /* \"#utility.yul\":3369:3376   */\n      dup6\n        /* \"#utility.yul\":3360:3366   */\n      dup3\n        /* \"#utility.yul\":3349:3358   */\n      dup7\n        /* \"#utility.yul\":3345:3367   */\n      add\n        /* \"#utility.yul\":3324:3377   */\n      tag_279\n      jump\t// in\n    tag_320:\n        /* \"#utility.yul\":3314:3377   */\n      swap2\n      pop\n        /* \"#utility.yul\":3269:3387   */\n      pop\n        /* \"#utility.yul\":2740:3394   */\n      swap3\n      pop\n      swap3\n      swap1\n      pop\n      jump\t// out\n        /* \"#utility.yul\":3400:4234   */\n    tag_20:\n        /* \"#utility.yul\":3488:3494   */\n      0x00\n        /* \"#utility.yul\":3496:3502   */\n      dup1\n        /* \"#utility.yul\":3545:3547   */\n      0x40\n        /* \"#utility.yul\":3533:3542   */\n      dup4\n        /* \"#utility.yul\":3524:3531   */\n      dup6\n        /* \"#utility.yul\":3520:3543   */\n      sub\n        /* \"#utility.yul\":3516:3548   */\n      slt\n        /* \"#utility.yul\":3513:3632   */\n      iszero\n      tag_322\n      jumpi\n        /* \"#utility.yul\":3551:3630   */\n      tag_323\n      tag_296\n      jump\t// in\n    tag_323:\n        /* \"#utility.yul\":3513:3632   */\n    tag_322:\n        /* \"#utility.yul\":3699:3700   */\n      0x00\n        /* \"#utility.yul\":3688:3697   */\n      dup4\n        /* \"#utility.yul\":3684:3701   */\n      add\n        /* \"#utility.yul\":3671:3702   */\n      calldataload\n        /* \"#utility.yul\":3729:3747   */\n      0xffffffffffffffff\n        /* \"#utility.yul\":3721:3727   */\n      dup2\n        /* \"#utility.yul\":3718:3748   */\n      gt\n        /* \"#utility.yul\":3715:3832   */\n      iszero\n      tag_324\n      jumpi\n        /* \"#utility.yul\":3751:3830   */\n      tag_325\n      tag_312\n      jump\t// in\n    tag_325:\n        /* \"#utility.yul\":3715:3832   */\n    tag_324:\n        /* \"#utility.yul\":3856:3919   */\n      tag_326\n        /* \"#utility.yul\":3911:3918   */\n      dup6\n        /* \"#utility.yul\":3902:3908   */\n      dup3\n        /* \"#utility.yul\":3891:3900   */\n      dup7\n        /* \"#utility.yul\":3887:3909   */\n      add\n        /* \"#utility.yul\":3856:3919   */\n      tag_287\n      jump\t// in\n    tag_326:\n        /* \"#utility.yul\":3846:3919   */\n      swap3\n      pop\n        /* \"#utility.yul\":3642:3929   */\n      pop\n        /* \"#utility.yul\":3996:3998   */\n      0x20\n        /* \"#utility.yul\":3985:3994   */\n      dup4\n        /* \"#utility.yul\":3981:3999   */\n      add\n        /* \"#utility.yul\":3968:4000   */\n      calldataload\n        /* \"#utility.yul\":4027:4045   */\n      0xffffffffffffffff\n        /* \"#utility.yul\":4019:4025   */\n      dup2\n        /* \"#utility.yul\":4016:4046   */\n      gt\n        /* \"#utility.yul\":4013:4130   */\n      iszero\n      tag_327\n      jumpi\n        /* \"#utility.yul\":4049:4128   */\n      tag_328\n      tag_312\n      jump\t// in\n    tag_328:\n        /* \"#utility.yul\":4013:4130   */\n    tag_327:\n        /* \"#utility.yul\":4154:4217   */\n      tag_329\n        /* \"#utility.yul\":4209:4216   */\n      dup6\n        /* \"#utility.yul\":4200:4206   */\n      dup3\n        /* \"#utility.yul\":4189:4198   */\n      dup7\n        /* \"#utility.yul\":4185:4207   */\n      add\n        /* \"#utility.yul\":4154:4217   */\n      tag_287\n      jump\t// in\n    tag_329:\n        /* \"#utility.yul\":4144:4217   */\n      swap2\n      pop\n        /* \"#utility.yul\":3939:4227   */\n      pop\n        /* \"#utility.yul\":3400:4234   */\n      swap3\n      pop\n      swap3\n      swap1\n      pop\n      jump\t// out\n        /* \"#utility.yul\":4240:4419   */\n    tag_330:\n        /* \"#utility.yul\":4309:4319   */\n      0x00\n        /* \"#utility.yul\":4330:4376   */\n      tag_332\n        /* \"#utility.yul\":4372:4375   */\n      dup4\n        /* \"#utility.yul\":4364:4370   */\n      dup4\n        /* \"#utility.yul\":4330:4376   */\n      tag_333\n      jump\t// in\n    tag_332:\n        /* \"#utility.yul\":4408:4412   */\n      0x20\n        /* \"#utility.yul\":4403:4406   */\n      dup4\n        /* \"#utility.yul\":4399:4413   */\n      add\n        /* \"#utility.yul\":4385:4413   */\n      swap1\n      pop\n        /* \"#utility.yul\":4240:4419   */\n      swap3\n      swap2\n      pop\n      pop\n      jump\t// out\n        /* \"#utility.yul\":4425:4604   */\n    tag_334:\n        /* \"#utility.yul\":4494:4504   */\n      0x00\n        /* \"#utility.yul\":4515:4561   */\n      tag_336\n        /* \"#utility.yul\":4557:4560   */\n      dup4\n        /* \"#utility.yul\":4549:4555   */\n      dup4\n        /* \"#utility.yul\":4515:4561   */\n      tag_337\n      jump\t// in\n    tag_336:\n        /* \"#utility.yul\":4593:4597   */\n      0x20\n        /* \"#utility.yul\":4588:4591   */\n      dup4\n        /* \"#utility.yul\":4584:4598   */\n      add\n        /* \"#utility.yul\":4570:4598   */\n      swap1\n      pop\n        /* \"#utility.yul\":4425:4604   */\n      swap3\n      swap2\n      pop\n      pop\n      jump\t// out\n        /* \"#utility.yul\":4610:4718   */\n    tag_333:\n        /* \"#utility.yul\":4687:4711   */\n      tag_339\n        /* \"#utility.yul\":4705:4710   */\n      dup2\n        /* \"#utility.yul\":4687:4711   */\n      tag_340\n      jump\t// in\n    tag_339:\n        /* \"#utility.yul\":4682:4685   */\n      dup3\n        /* \"#utility.yul\":4675:4712   */\n      mstore\n        /* \"#utility.yul\":4610:4718   */\n      pop\n      pop\n      jump\t// out\n        /* \"#utility.yul\":4724:4842   */\n    tag_341:\n        /* \"#utility.yul\":4811:4835   */\n      tag_343\n        /* \"#utility.yul\":4829:4834   */\n      dup2\n        /* \"#utility.yul\":4811:4835   */\n      tag_340\n      jump\t// in\n    tag_343:\n        /* \"#utility.yul\":4806:4809   */\n      dup3\n        /* \"#utility.yul\":4799:4836   */\n      mstore\n        /* \"#utility.yul\":4724:4842   */\n      pop\n      pop\n      jump\t// out\n        /* \"#utility.yul\":4878:5610   */\n    tag_344:\n        /* \"#utility.yul\":4997:5000   */\n      0x00\n        /* \"#utility.yul\":5026:5080   */\n      tag_346\n        /* \"#utility.yul\":5074:5079   */\n      dup3\n        /* \"#utility.yul\":5026:5080   */\n      tag_347\n      jump\t// in\n    tag_346:\n        /* \"#utility.yul\":5096:5182   */\n      tag_348\n        /* \"#utility.yul\":5175:5181   */\n      dup2\n        /* \"#utility.yul\":5170:5173   */\n      dup6\n        /* \"#utility.yul\":5096:5182   */\n      tag_349\n      jump\t// in\n    tag_348:\n        /* \"#utility.yul\":5089:5182   */\n      swap4\n      pop\n        /* \"#utility.yul\":5206:5262   */\n      tag_350\n        /* \"#utility.yul\":5256:5261   */\n      dup4\n        /* \"#utility.yul\":5206:5262   */\n      tag_351\n      jump\t// in\n    tag_350:\n        /* \"#utility.yul\":5285:5292   */\n      dup1\n        /* \"#utility.yul\":5316:5317   */\n      0x00\n        /* \"#utility.yul\":5301:5585   */\n    tag_352:\n        /* \"#utility.yul\":5326:5332   */\n      dup4\n        /* \"#utility.yul\":5323:5324   */\n      dup2\n        /* \"#utility.yul\":5320:5333   */\n      lt\n        /* \"#utility.yul\":5301:5585   */\n      iszero\n      tag_354\n      jumpi\n        /* \"#utility.yul\":5402:5408   */\n      dup2\n        /* \"#utility.yul\":5396:5409   */\n      mload\n        /* \"#utility.yul\":5429:5492   */\n      tag_355\n        /* \"#utility.yul\":5488:5491   */\n      dup9\n        /* \"#utility.yul\":5473:5486   */\n      dup3\n        /* \"#utility.yul\":5429:5492   */\n      tag_330\n      jump\t// in\n    tag_355:\n        /* \"#utility.yul\":5422:5492   */\n      swap8\n      pop\n        /* \"#utility.yul\":5515:5575   */\n      tag_356\n        /* \"#utility.yul\":5568:5574   */\n      dup4\n        /* \"#utility.yul\":5515:5575   */\n      tag_357\n      jump\t// in\n    tag_356:\n        /* \"#utility.yul\":5505:5575   */\n      swap3\n      pop\n        /* \"#utility.yul\":5361:5585   */\n      pop\n        /* \"#utility.yul\":5348:5349   */\n      0x01\n        /* \"#utility.yul\":5345:5346   */\n      dup2\n        /* \"#utility.yul\":5341:5350   */\n      add\n        /* \"#utility.yul\":5336:5350   */\n      swap1\n      pop\n        /* \"#utility.yul\":5301:5585   */\n      jump(tag_352)\n    tag_354:\n        /* \"#utility.yul\":5305:5319   */\n      pop\n        /* \"#utility.yul\":5601:5604   */\n      dup6\n        /* \"#utility.yul\":5594:5604   */\n      swap4\n      pop\n        /* \"#utility.yul\":5002:5610   */\n      pop\n      pop\n      pop\n        /* \"#utility.yul\":4878:5610   */\n      swap3\n      swap2\n      pop\n      pop\n      jump\t// out\n        /* \"#utility.yul\":5646:6378   */\n    tag_358:\n        /* \"#utility.yul\":5765:5768   */\n      0x00\n        /* \"#utility.yul\":5794:5848   */\n      tag_360\n        /* \"#utility.yul\":5842:5847   */\n      dup3\n        /* \"#utility.yul\":5794:5848   */\n      tag_361\n      jump\t// in\n    tag_360:\n        /* \"#utility.yul\":5864:5950   */\n      tag_362\n        /* \"#utility.yul\":5943:5949   */\n      dup2\n        /* \"#utility.yul\":5938:5941   */\n      dup6\n        /* \"#utility.yul\":5864:5950   */\n      tag_363\n      jump\t// in\n    tag_362:\n        /* \"#utility.yul\":5857:5950   */\n      swap4\n      pop\n        /* \"#utility.yul\":5974:6030   */\n      tag_364\n        /* \"#utility.yul\":6024:6029   */\n      dup4\n        /* \"#utility.yul\":5974:6030   */\n      tag_365\n      jump\t// in\n    tag_364:\n        /* \"#utility.yul\":6053:6060   */\n      dup1\n        /* \"#utility.yul\":6084:6085   */\n      0x00\n        /* \"#utility.yul\":6069:6353   */\n    tag_366:\n        /* \"#utility.yul\":6094:6100   */\n      dup4\n        /* \"#utility.yul\":6091:6092   */\n      dup2\n        /* \"#utility.yul\":6088:6101   */\n      lt\n        /* \"#utility.yul\":6069:6353   */\n      iszero\n      tag_368\n      jumpi\n        /* \"#utility.yul\":6170:6176   */\n      dup2\n        /* \"#utility.yul\":6164:6177   */\n      mload\n        /* \"#utility.yul\":6197:6260   */\n      tag_369\n        /* \"#utility.yul\":6256:6259   */\n      dup9\n        /* \"#utility.yul\":6241:6254   */\n      dup3\n        /* \"#utility.yul\":6197:6260   */\n      tag_334\n      jump\t// in\n    tag_369:\n        /* \"#utility.yul\":6190:6260   */\n      swap8\n      pop\n        /* \"#utility.yul\":6283:6343   */\n      tag_370\n        /* \"#utility.yul\":6336:6342   */\n      dup4\n        /* \"#utility.yul\":6283:6343   */\n      tag_371\n      jump\t// in\n    tag_370:\n        /* \"#utility.yul\":6273:6343   */\n      swap3\n      pop\n        /* \"#utility.yul\":6129:6353   */\n      pop\n        /* \"#utility.yul\":6116:6117   */\n      0x01\n        /* \"#utility.yul\":6113:6114   */\n      dup2\n        /* \"#utility.yul\":6109:6118   */\n      add\n        /* \"#utility.yul\":6104:6118   */\n      swap1\n      pop\n        /* \"#utility.yul\":6069:6353   */\n      jump(tag_366)\n    tag_368:\n        /* \"#utility.yul\":6073:6087   */\n      pop\n        /* \"#utility.yul\":6369:6372   */\n      dup6\n        /* \"#utility.yul\":6362:6372   */\n      swap4\n      pop\n        /* \"#utility.yul\":5770:6378   */\n      pop\n      pop\n      pop\n        /* \"#utility.yul\":5646:6378   */\n      swap3\n      swap2\n      pop\n      pop\n      jump\t// out\n        /* \"#utility.yul\":6384:6493   */\n    tag_372:\n        /* \"#utility.yul\":6465:6486   */\n      tag_374\n        /* \"#utility.yul\":6480:6485   */\n      dup2\n        /* \"#utility.yul\":6465:6486   */\n      tag_375\n      jump\t// in\n    tag_374:\n        /* \"#utility.yul\":6460:6463   */\n      dup3\n        /* \"#utility.yul\":6453:6487   */\n      mstore\n        /* \"#utility.yul\":6384:6493   */\n      pop\n      pop\n      jump\t// out\n        /* \"#utility.yul\":6499:6607   */\n    tag_337:\n        /* \"#utility.yul\":6576:6600   */\n      tag_377\n        /* \"#utility.yul\":6594:6599   */\n      dup2\n        /* \"#utility.yul\":6576:6600   */\n      tag_378\n      jump\t// in\n    tag_377:\n        /* \"#utility.yul\":6571:6574   */\n      dup3\n        /* \"#utility.yul\":6564:6601   */\n      mstore\n        /* \"#utility.yul\":6499:6607   */\n      pop\n      pop\n      jump\t// out\n        /* \"#utility.yul\":6613:6977   */\n    tag_379:\n        /* \"#utility.yul\":6701:6704   */\n      0x00\n        /* \"#utility.yul\":6729:6768   */\n      tag_381\n        /* \"#utility.yul\":6762:6767   */\n      dup3\n        /* \"#utility.yul\":6729:6768   */\n      tag_382\n      jump\t// in\n    tag_381:\n        /* \"#utility.yul\":6784:6855   */\n      tag_383\n        /* \"#utility.yul\":6848:6854   */\n      dup2\n        /* \"#utility.yul\":6843:6846   */\n      dup6\n        /* \"#utility.yul\":6784:6855   */\n      tag_384\n      jump\t// in\n    tag_383:\n        /* \"#utility.yul\":6777:6855   */\n      swap4\n      pop\n        /* \"#utility.yul\":6864:6916   */\n      tag_385\n        /* \"#utility.yul\":6909:6915   */\n      dup2\n        /* \"#utility.yul\":6904:6907   */\n      dup6\n        /* \"#utility.yul\":6897:6901   */\n      0x20\n        /* \"#utility.yul\":6890:6895   */\n      dup7\n        /* \"#utility.yul\":6886:6902   */\n      add\n        /* \"#utility.yul\":6864:6916   */\n      tag_386\n      jump\t// in\n    tag_385:\n        /* \"#utility.yul\":6941:6970   */\n      tag_387\n        /* \"#utility.yul\":6963:6969   */\n      dup2\n        /* \"#utility.yul\":6941:6970   */\n      tag_388\n      jump\t// in\n    tag_387:\n        /* \"#utility.yul\":6936:6939   */\n      dup5\n        /* \"#utility.yul\":6932:6971   */\n      add\n        /* \"#utility.yul\":6925:6971   */\n      swap2\n      pop\n        /* \"#utility.yul\":6705:6977   */\n      pop\n        /* \"#utility.yul\":6613:6977   */\n      swap3\n      swap2\n      pop\n      pop\n      jump\t// out\n        /* \"#utility.yul\":6983:7360   */\n    tag_389:\n        /* \"#utility.yul\":7089:7092   */\n      0x00\n        /* \"#utility.yul\":7117:7156   */\n      tag_391\n        /* \"#utility.yul\":7150:7155   */\n      dup3\n        /* \"#utility.yul\":7117:7156   */\n      tag_382\n      jump\t// in\n    tag_391:\n        /* \"#utility.yul\":7172:7261   */\n      tag_392\n        /* \"#utility.yul\":7254:7260   */\n      dup2\n        /* \"#utility.yul\":7249:7252   */\n      dup6\n        /* \"#utility.yul\":7172:7261   */\n      tag_393\n      jump\t// in\n    tag_392:\n        /* \"#utility.yul\":7165:7261   */\n      swap4\n      pop\n        /* \"#utility.yul\":7270:7322   */\n      tag_394\n        /* \"#utility.yul\":7315:7321   */\n      dup2\n        /* \"#utility.yul\":7310:7313   */\n      dup6\n        /* \"#utility.yul\":7303:7307   */\n      0x20\n        /* \"#utility.yul\":7296:7301   */\n      dup7\n        /* \"#utility.yul\":7292:7308   */\n      add\n        /* \"#utility.yul\":7270:7322   */\n      tag_386\n      jump\t// in\n    tag_394:\n        /* \"#utility.yul\":7347:7353   */\n      dup1\n        /* \"#utility.yul\":7342:7345   */\n      dup5\n        /* \"#utility.yul\":7338:7354   */\n      add\n        /* \"#utility.yul\":7331:7354   */\n      swap2\n      pop\n        /* \"#utility.yul\":7093:7360   */\n      pop\n        /* \"#utility.yul\":6983:7360   */\n      swap3\n      swap2\n      pop\n      pop\n      jump\t// out\n        /* \"#utility.yul\":7366:7768   */\n    tag_395:\n        /* \"#utility.yul\":7526:7529   */\n      0x00\n        /* \"#utility.yul\":7547:7632   */\n      tag_397\n        /* \"#utility.yul\":7629:7631   */\n      0x0f\n        /* \"#utility.yul\":7624:7627   */\n      dup4\n        /* \"#utility.yul\":7547:7632   */\n      tag_393\n      jump\t// in\n    tag_397:\n        /* \"#utility.yul\":7540:7632   */\n      swap2\n      pop\n        /* \"#utility.yul\":7641:7734   */\n      tag_398\n        /* \"#utility.yul\":7730:7733   */\n      dup3\n        /* \"#utility.yul\":7641:7734   */\n      tag_399\n      jump\t// in\n    tag_398:\n        /* \"#utility.yul\":7759:7761   */\n      0x0f\n        /* \"#utility.yul\":7754:7757   */\n      dup3\n        /* \"#utility.yul\":7750:7762   */\n      add\n        /* \"#utility.yul\":7743:7762   */\n      swap1\n      pop\n        /* \"#utility.yul\":7366:7768   */\n      swap2\n      swap1\n      pop\n      jump\t// out\n        /* \"#utility.yul\":7774:8140   */\n    tag_400:\n        /* \"#utility.yul\":7916:7919   */\n      0x00\n        /* \"#utility.yul\":7937:8004   */\n      tag_402\n        /* \"#utility.yul\":8001:8003   */\n      0x3e\n        /* \"#utility.yul\":7996:7999   */\n      dup4\n        /* \"#utility.yul\":7937:8004   */\n      tag_384\n      jump\t// in\n    tag_402:\n        /* \"#utility.yul\":7930:8004   */\n      swap2\n      pop\n        /* \"#utility.yul\":8013:8106   */\n      tag_403\n        /* \"#utility.yul\":8102:8105   */\n      dup3\n        /* \"#utility.yul\":8013:8106   */\n      tag_404\n      jump\t// in\n    tag_403:\n        /* \"#utility.yul\":8131:8133   */\n      0x40\n        /* \"#utility.yul\":8126:8129   */\n      dup3\n        /* \"#utility.yul\":8122:8134   */\n      add\n        /* \"#utility.yul\":8115:8134   */\n      swap1\n      pop\n        /* \"#utility.yul\":7774:8140   */\n      swap2\n      swap1\n      pop\n      jump\t// out\n        /* \"#utility.yul\":8146:8687   */\n    tag_256:\n        /* \"#utility.yul\":8379:8382   */\n      0x00\n        /* \"#utility.yul\":8401:8549   */\n      tag_406\n        /* \"#utility.yul\":8545:8548   */\n      dup3\n        /* \"#utility.yul\":8401:8549   */\n      tag_395\n      jump\t// in\n    tag_406:\n        /* \"#utility.yul\":8394:8549   */\n      swap2\n      pop\n        /* \"#utility.yul\":8566:8661   */\n      tag_407\n        /* \"#utility.yul\":8657:8660   */\n      dup3\n        /* \"#utility.yul\":8648:8654   */\n      dup5\n        /* \"#utility.yul\":8566:8661   */\n      tag_389\n      jump\t// in\n    tag_407:\n        /* \"#utility.yul\":8559:8661   */\n      swap2\n      pop\n        /* \"#utility.yul\":8678:8681   */\n      dup2\n        /* \"#utility.yul\":8671:8681   */\n      swap1\n      pop\n        /* \"#utility.yul\":8146:8687   */\n      swap3\n      swap2\n      pop\n      pop\n      jump\t// out\n        /* \"#utility.yul\":8693:8915   */\n    tag_38:\n        /* \"#utility.yul\":8786:8790   */\n      0x00\n        /* \"#utility.yul\":8824:8826   */\n      0x20\n        /* \"#utility.yul\":8813:8822   */\n      dup3\n        /* \"#utility.yul\":8809:8827   */\n      add\n        /* \"#utility.yul\":8801:8827   */\n      swap1\n      pop\n        /* \"#utility.yul\":8837:8908   */\n      tag_409\n        /* \"#utility.yul\":8905:8906   */\n      0x00\n        /* \"#utility.yul\":8894:8903   */\n      dup4\n        /* \"#utility.yul\":8890:8907   */\n      add\n        /* \"#utility.yul\":8881:8887   */\n      dup5\n        /* \"#utility.yul\":8837:8908   */\n      tag_341\n      jump\t// in\n    tag_409:\n        /* \"#utility.yul\":8693:8915   */\n      swap3\n      swap2\n      pop\n      pop\n      jump\t// out\n        /* \"#utility.yul\":8921:9294   */\n    tag_34:\n        /* \"#utility.yul\":9064:9068   */\n      0x00\n        /* \"#utility.yul\":9102:9104   */\n      0x20\n        /* \"#utility.yul\":9091:9100   */\n      dup3\n        /* \"#utility.yul\":9087:9105   */\n      add\n        /* \"#utility.yul\":9079:9105   */\n      swap1\n      pop\n        /* \"#utility.yul\":9151:9160   */\n      dup2\n        /* \"#utility.yul\":9145:9149   */\n      dup2\n        /* \"#utility.yul\":9141:9161   */\n      sub\n        /* \"#utility.yul\":9137:9138   */\n      0x00\n        /* \"#utility.yul\":9126:9135   */\n      dup4\n        /* \"#utility.yul\":9122:9139   */\n      add\n        /* \"#utility.yul\":9115:9162   */\n      mstore\n        /* \"#utility.yul\":9179:9287   */\n      tag_411\n        /* \"#utility.yul\":9282:9286   */\n      dup2\n        /* \"#utility.yul\":9273:9279   */\n      dup5\n        /* \"#utility.yul\":9179:9287   */\n      tag_344\n      jump\t// in\n    tag_411:\n        /* \"#utility.yul\":9171:9287   */\n      swap1\n      pop\n        /* \"#utility.yul\":8921:9294   */\n      swap3\n      swap2\n      pop\n      pop\n      jump\t// out\n        /* \"#utility.yul\":9300:9673   */\n    tag_46:\n        /* \"#utility.yul\":9443:9447   */\n      0x00\n        /* \"#utility.yul\":9481:9483   */\n      0x20\n        /* \"#utility.yul\":9470:9479   */\n      dup3\n        /* \"#utility.yul\":9466:9484   */\n      add\n        /* \"#utility.yul\":9458:9484   */\n      swap1\n      pop\n        /* \"#utility.yul\":9530:9539   */\n      dup2\n        /* \"#utility.yul\":9524:9528   */\n      dup2\n        /* \"#utility.yul\":9520:9540   */\n      sub\n        /* \"#utility.yul\":9516:9517   */\n      0x00\n        /* \"#utility.yul\":9505:9514   */\n      dup4\n        /* \"#utility.yul\":9501:9518   */\n      add\n        /* \"#utility.yul\":9494:9541   */\n      mstore\n        /* \"#utility.yul\":9558:9666   */\n      tag_413\n        /* \"#utility.yul\":9661:9665   */\n      dup2\n        /* \"#utility.yul\":9652:9658   */\n      dup5\n        /* \"#utility.yul\":9558:9666   */\n      tag_358\n      jump\t// in\n    tag_413:\n        /* \"#utility.yul\":9550:9666   */\n      swap1\n      pop\n        /* \"#utility.yul\":9300:9673   */\n      swap3\n      swap2\n      pop\n      pop\n      jump\t// out\n        /* \"#utility.yul\":9679:9889   */\n    tag_57:\n        /* \"#utility.yul\":9766:9770   */\n      0x00\n        /* \"#utility.yul\":9804:9806   */\n      0x20\n        /* \"#utility.yul\":9793:9802   */\n      dup3\n        /* \"#utility.yul\":9789:9807   */\n      add\n        /* \"#utility.yul\":9781:9807   */\n      swap1\n      pop\n        /* \"#utility.yul\":9817:9882   */\n      tag_415\n        /* \"#utility.yul\":9879:9880   */\n      0x00\n        /* \"#utility.yul\":9868:9877   */\n      dup4\n        /* \"#utility.yul\":9864:9881   */\n      add\n        /* \"#utility.yul\":9855:9861   */\n      dup5\n        /* \"#utility.yul\":9817:9882   */\n      tag_372\n      jump\t// in\n    tag_415:\n        /* \"#utility.yul\":9679:9889   */\n      swap3\n      swap2\n      pop\n      pop\n      jump\t// out\n        /* \"#utility.yul\":9895:10208   */\n    tag_258:\n        /* \"#utility.yul\":10008:10012   */\n      0x00\n        /* \"#utility.yul\":10046:10048   */\n      0x20\n        /* \"#utility.yul\":10035:10044   */\n      dup3\n        /* \"#utility.yul\":10031:10049   */\n      add\n        /* \"#utility.yul\":10023:10049   */\n      swap1\n      pop\n        /* \"#utility.yul\":10095:10104   */\n      dup2\n        /* \"#utility.yul\":10089:10093   */\n      dup2\n        /* \"#utility.yul\":10085:10105   */\n      sub\n        /* \"#utility.yul\":10081:10082   */\n      0x00\n        /* \"#utility.yul\":10070:10079   */\n      dup4\n        /* \"#utility.yul\":10066:10083   */\n      add\n        /* \"#utility.yul\":10059:10106   */\n      mstore\n        /* \"#utility.yul\":10123:10201   */\n      tag_417\n        /* \"#utility.yul\":10196:10200   */\n      dup2\n        /* \"#utility.yul\":10187:10193   */\n      dup5\n        /* \"#utility.yul\":10123:10201   */\n      tag_379\n      jump\t// in\n    tag_417:\n        /* \"#utility.yul\":10115:10201   */\n      swap1\n      pop\n        /* \"#utility.yul\":9895:10208   */\n      swap3\n      swap2\n      pop\n      pop\n      jump\t// out\n        /* \"#utility.yul\":10214:10633   */\n    tag_77:\n        /* \"#utility.yul\":10380:10384   */\n      0x00\n        /* \"#utility.yul\":10418:10420   */\n      0x20\n        /* \"#utility.yul\":10407:10416   */\n      dup3\n        /* \"#utility.yul\":10403:10421   */\n      add\n        /* \"#utility.yul\":10395:10421   */\n      swap1\n      pop\n        /* \"#utility.yul\":10467:10476   */\n      dup2\n        /* \"#utility.yul\":10461:10465   */\n      dup2\n        /* \"#utility.yul\":10457:10477   */\n      sub\n        /* \"#utility.yul\":10453:10454   */\n      0x00\n        /* \"#utility.yul\":10442:10451   */\n      dup4\n        /* \"#utility.yul\":10438:10455   */\n      add\n        /* \"#utility.yul\":10431:10478   */\n      mstore\n        /* \"#utility.yul\":10495:10626   */\n      tag_419\n        /* \"#utility.yul\":10621:10625   */\n      dup2\n        /* \"#utility.yul\":10495:10626   */\n      tag_400\n      jump\t// in\n    tag_419:\n        /* \"#utility.yul\":10487:10626   */\n      swap1\n      pop\n        /* \"#utility.yul\":10214:10633   */\n      swap2\n      swap1\n      pop\n      jump\t// out\n        /* \"#utility.yul\":10639:10768   */\n    tag_273:\n        /* \"#utility.yul\":10673:10679   */\n      0x00\n        /* \"#utility.yul\":10700:10720   */\n      tag_421\n      tag_422\n      jump\t// in\n    tag_421:\n        /* \"#utility.yul\":10690:10720   */\n      swap1\n      pop\n        /* \"#utility.yul\":10729:10762   */\n      tag_423\n        /* \"#utility.yul\":10757:10761   */\n      dup3\n        /* \"#utility.yul\":10749:10755   */\n      dup3\n        /* \"#utility.yul\":10729:10762   */\n      tag_424\n      jump\t// in\n    tag_423:\n        /* \"#utility.yul\":10639:10768   */\n      swap2\n      swap1\n      pop\n      jump\t// out\n        /* \"#utility.yul\":10774:10849   */\n    tag_422:\n        /* \"#utility.yul\":10807:10813   */\n      0x00\n        /* \"#utility.yul\":10840:10842   */\n      0x40\n        /* \"#utility.yul\":10834:10843   */\n      mload\n        /* \"#utility.yul\":10824:10843   */\n      swap1\n      pop\n        /* \"#utility.yul\":10774:10849   */\n      swap1\n      jump\t// out\n        /* \"#utility.yul\":10855:11163   */\n    tag_272:\n        /* \"#utility.yul\":10917:10921   */\n      0x00\n        /* \"#utility.yul\":11007:11025   */\n      0xffffffffffffffff\n        /* \"#utility.yul\":10999:11005   */\n      dup3\n        /* \"#utility.yul\":10996:11026   */\n      gt\n        /* \"#utility.yul\":10993:11049   */\n      iszero\n      tag_427\n      jumpi\n        /* \"#utility.yul\":11029:11047   */\n      tag_428\n      tag_429\n      jump\t// in\n    tag_428:\n        /* \"#utility.yul\":10993:11049   */\n    tag_427:\n        /* \"#utility.yul\":11067:11096   */\n      tag_430\n        /* \"#utility.yul\":11089:11095   */\n      dup3\n        /* \"#utility.yul\":11067:11096   */\n      tag_388\n      jump\t// in\n    tag_430:\n        /* \"#utility.yul\":11059:11096   */\n      swap1\n      pop\n        /* \"#utility.yul\":11151:11155   */\n      0x20\n        /* \"#utility.yul\":11145:11149   */\n      dup2\n        /* \"#utility.yul\":11141:11156   */\n      add\n        /* \"#utility.yul\":11133:11156   */\n      swap1\n      pop\n        /* \"#utility.yul\":10855:11163   */\n      swap2\n      swap1\n      pop\n      jump\t// out\n        /* \"#utility.yul\":11169:11301   */\n    tag_351:\n        /* \"#utility.yul\":11236:11240   */\n      0x00\n        /* \"#utility.yul\":11259:11262   */\n      dup2\n        /* \"#utility.yul\":11251:11262   */\n      swap1\n      pop\n        /* \"#utility.yul\":11289:11293   */\n      0x20\n        /* \"#utility.yul\":11284:11287   */\n      dup3\n        /* \"#utility.yul\":11280:11294   */\n      add\n        /* \"#utility.yul\":11272:11294   */\n      swap1\n      pop\n        /* \"#utility.yul\":11169:11301   */\n      swap2\n      swap1\n      pop\n      jump\t// out\n        /* \"#utility.yul\":11307:11439   */\n    tag_365:\n        /* \"#utility.yul\":11374:11378   */\n      0x00\n        /* \"#utility.yul\":11397:11400   */\n      dup2\n        /* \"#utility.yul\":11389:11400   */\n      swap1\n      pop\n        /* \"#utility.yul\":11427:11431   */\n      0x20\n        /* \"#utility.yul\":11422:11425   */\n      dup3\n        /* \"#utility.yul\":11418:11432   */\n      add\n        /* \"#utility.yul\":11410:11432   */\n      swap1\n      pop\n        /* \"#utility.yul\":11307:11439   */\n      swap2\n      swap1\n      pop\n      jump\t// out\n        /* \"#utility.yul\":11445:11559   */\n    tag_347:\n        /* \"#utility.yul\":11512:11518   */\n      0x00\n        /* \"#utility.yul\":11546:11551   */\n      dup2\n        /* \"#utility.yul\":11540:11552   */\n      mload\n        /* \"#utility.yul\":11530:11552   */\n      swap1\n      pop\n        /* \"#utility.yul\":11445:11559   */\n      swap2\n      swap1\n      pop\n      jump\t// out\n        /* \"#utility.yul\":11565:11679   */\n    tag_361:\n        /* \"#utility.yul\":11632:11638   */\n      0x00\n        /* \"#utility.yul\":11666:11671   */\n      dup2\n        /* \"#utility.yul\":11660:11672   */\n      mload\n        /* \"#utility.yul\":11650:11672   */\n      swap1\n      pop\n        /* \"#utility.yul\":11565:11679   */\n      swap2\n      swap1\n      pop\n      jump\t// out\n        /* \"#utility.yul\":11685:11784   */\n    tag_382:\n        /* \"#utility.yul\":11737:11743   */\n      0x00\n        /* \"#utility.yul\":11771:11776   */\n      dup2\n        /* \"#utility.yul\":11765:11777   */\n      mload\n        /* \"#utility.yul\":11755:11777   */\n      swap1\n      pop\n        /* \"#utility.yul\":11685:11784   */\n      swap2\n      swap1\n      pop\n      jump\t// out\n        /* \"#utility.yul\":11790:11903   */\n    tag_357:\n        /* \"#utility.yul\":11860:11864   */\n      0x00\n        /* \"#utility.yul\":11892:11896   */\n      0x20\n        /* \"#utility.yul\":11887:11890   */\n      dup3\n        /* \"#utility.yul\":11883:11897   */\n      add\n        /* \"#utility.yul\":11875:11897   */\n      swap1\n      pop\n        /* \"#utility.yul\":11790:11903   */\n      swap2\n      swap1\n      pop\n      jump\t// out\n        /* \"#utility.yul\":11909:12022   */\n    tag_371:\n        /* \"#utility.yul\":11979:11983   */\n      0x00\n        /* \"#utility.yul\":12011:12015   */\n      0x20\n        /* \"#utility.yul\":12006:12009   */\n      dup3\n        /* \"#utility.yul\":12002:12016   */\n      add\n        /* \"#utility.yul\":11994:12016   */\n      swap1\n      pop\n        /* \"#utility.yul\":11909:12022   */\n      swap2\n      swap1\n      pop\n      jump\t// out\n        /* \"#utility.yul\":12028:12212   */\n    tag_349:\n        /* \"#utility.yul\":12127:12138   */\n      0x00\n        /* \"#utility.yul\":12161:12167   */\n      dup3\n        /* \"#utility.yul\":12156:12159   */\n      dup3\n        /* \"#utility.yul\":12149:12168   */\n      mstore\n        /* \"#utility.yul\":12201:12205   */\n      0x20\n        /* \"#utility.yul\":12196:12199   */\n      dup3\n        /* \"#utility.yul\":12192:12206   */\n      add\n        /* \"#utility.yul\":12177:12206   */\n      swap1\n      pop\n        /* \"#utility.yul\":12028:12212   */\n      swap3\n      swap2\n      pop\n      pop\n      jump\t// out\n        /* \"#utility.yul\":12218:12402   */\n    tag_363:\n        /* \"#utility.yul\":12317:12328   */\n      0x00\n        /* \"#utility.yul\":12351:12357   */\n      dup3\n        /* \"#utility.yul\":12346:12349   */\n      dup3\n        /* \"#utility.yul\":12339:12358   */\n      mstore\n        /* \"#utility.yul\":12391:12395   */\n      0x20\n        /* \"#utility.yul\":12386:12389   */\n      dup3\n        /* \"#utility.yul\":12382:12396   */\n      add\n        /* \"#utility.yul\":12367:12396   */\n      swap1\n      pop\n        /* \"#utility.yul\":12218:12402   */\n      swap3\n      swap2\n      pop\n      pop\n      jump\t// out\n        /* \"#utility.yul\":12408:12577   */\n    tag_384:\n        /* \"#utility.yul\":12492:12503   */\n      0x00\n        /* \"#utility.yul\":12526:12532   */\n      dup3\n        /* \"#utility.yul\":12521:12524   */\n      dup3\n        /* \"#utility.yul\":12514:12533   */\n      mstore\n        /* \"#utility.yul\":12566:12570   */\n      0x20\n        /* \"#utility.yul\":12561:12564   */\n      dup3\n        /* \"#utility.yul\":12557:12571   */\n      add\n        /* \"#utility.yul\":12542:12571   */\n      swap1\n      pop\n        /* \"#utility.yul\":12408:12577   */\n      swap3\n      swap2\n      pop\n      pop\n      jump\t// out\n        /* \"#utility.yul\":12583:12731   */\n    tag_393:\n        /* \"#utility.yul\":12685:12696   */\n      0x00\n        /* \"#utility.yul\":12722:12725   */\n      dup2\n        /* \"#utility.yul\":12707:12725   */\n      swap1\n      pop\n        /* \"#utility.yul\":12583:12731   */\n      swap3\n      swap2\n      pop\n      pop\n      jump\t// out\n        /* \"#utility.yul\":12737:12833   */\n    tag_340:\n        /* \"#utility.yul\":12774:12781   */\n      0x00\n        /* \"#utility.yul\":12803:12827   */\n      tag_443\n        /* \"#utility.yul\":12821:12826   */\n      dup3\n        /* \"#utility.yul\":12803:12827   */\n      tag_444\n      jump\t// in\n    tag_443:\n        /* \"#utility.yul\":12792:12827   */\n      swap1\n      pop\n        /* \"#utility.yul\":12737:12833   */\n      swap2\n      swap1\n      pop\n      jump\t// out\n        /* \"#utility.yul\":12839:12929   */\n    tag_375:\n        /* \"#utility.yul\":12873:12880   */\n      0x00\n        /* \"#utility.yul\":12916:12921   */\n      dup2\n        /* \"#utility.yul\":12909:12922   */\n      iszero\n        /* \"#utility.yul\":12902:12923   */\n      iszero\n        /* \"#utility.yul\":12891:12923   */\n      swap1\n      pop\n        /* \"#utility.yul\":12839:12929   */\n      swap2\n      swap1\n      pop\n      jump\t// out\n        /* \"#utility.yul\":12935:13012   */\n    tag_378:\n        /* \"#utility.yul\":12972:12979   */\n      0x00\n        /* \"#utility.yul\":13001:13006   */\n      dup2\n        /* \"#utility.yul\":12990:13006   */\n      swap1\n      pop\n        /* \"#utility.yul\":12935:13012   */\n      swap2\n      swap1\n      pop\n      jump\t// out\n        /* \"#utility.yul\":13018:13144   */\n    tag_444:\n        /* \"#utility.yul\":13055:13062   */\n      0x00\n        /* \"#utility.yul\":13095:13137   */\n      0xffffffffffffffffffffffffffffffffffffffff\n        /* \"#utility.yul\":13088:13093   */\n      dup3\n        /* \"#utility.yul\":13084:13138   */\n      and\n        /* \"#utility.yul\":13073:13138   */\n      swap1\n      pop\n        /* \"#utility.yul\":13018:13144   */\n      swap2\n      swap1\n      pop\n      jump\t// out\n        /* \"#utility.yul\":13150:13227   */\n    tag_448:\n        /* \"#utility.yul\":13187:13194   */\n      0x00\n        /* \"#utility.yul\":13216:13221   */\n      dup2\n        /* \"#utility.yul\":13205:13221   */\n      swap1\n      pop\n        /* \"#utility.yul\":13150:13227   */\n      swap2\n      swap1\n      pop\n      jump\t// out\n        /* \"#utility.yul\":13233:13387   */\n    tag_278:\n        /* \"#utility.yul\":13317:13323   */\n      dup3\n        /* \"#utility.yul\":13312:13315   */\n      dup2\n        /* \"#utility.yul\":13307:13310   */\n      dup4\n        /* \"#utility.yul\":13294:13324   */\n      calldatacopy\n        /* \"#utility.yul\":13379:13380   */\n      0x00\n        /* \"#utility.yul\":13370:13376   */\n      dup4\n        /* \"#utility.yul\":13365:13368   */\n      dup4\n        /* \"#utility.yul\":13361:13377   */\n      add\n        /* \"#utility.yul\":13354:13381   */\n      mstore\n        /* \"#utility.yul\":13233:13387   */\n      pop\n      pop\n      pop\n      jump\t// out\n        /* \"#utility.yul\":13393:13700   */\n    tag_386:\n        /* \"#utility.yul\":13461:13462   */\n      0x00\n        /* \"#utility.yul\":13471:13584   */\n    tag_452:\n        /* \"#utility.yul\":13485:13491   */\n      dup4\n        /* \"#utility.yul\":13482:13483   */\n      dup2\n        /* \"#utility.yul\":13479:13492   */\n      lt\n        /* \"#utility.yul\":13471:13584   */\n      iszero\n      tag_454\n      jumpi\n        /* \"#utility.yul\":13570:13571   */\n      dup1\n        /* \"#utility.yul\":13565:13568   */\n      dup3\n        /* \"#utility.yul\":13561:13572   */\n      add\n        /* \"#utility.yul\":13555:13573   */\n      mload\n        /* \"#utility.yul\":13551:13552   */\n      dup2\n        /* \"#utility.yul\":13546:13549   */\n      dup5\n        /* \"#utility.yul\":13542:13553   */\n      add\n        /* \"#utility.yul\":13535:13574   */\n      mstore\n        /* \"#utility.yul\":13507:13509   */\n      0x20\n        /* \"#utility.yul\":13504:13505   */\n      dup2\n        /* \"#utility.yul\":13500:13510   */\n      add\n        /* \"#utility.yul\":13495:13510   */\n      swap1\n      pop\n        /* \"#utility.yul\":13471:13584   */\n      jump(tag_452)\n    tag_454:\n        /* \"#utility.yul\":13602:13608   */\n      dup4\n        /* \"#utility.yul\":13599:13600   */\n      dup2\n        /* \"#utility.yul\":13596:13609   */\n      gt\n        /* \"#utility.yul\":13593:13694   */\n      iszero\n      tag_455\n      jumpi\n        /* \"#utility.yul\":13682:13683   */\n      0x00\n        /* \"#utility.yul\":13673:13679   */\n      dup5\n        /* \"#utility.yul\":13668:13671   */\n      dup5\n        /* \"#utility.yul\":13664:13680   */\n      add\n        /* \"#utility.yul\":13657:13684   */\n      mstore\n        /* \"#utility.yul\":13593:13694   */\n    tag_455:\n        /* \"#utility.yul\":13442:13700   */\n      pop\n        /* \"#utility.yul\":13393:13700   */\n      pop\n      pop\n      pop\n      jump\t// out\n        /* \"#utility.yul\":13706:13987   */\n    tag_424:\n        /* \"#utility.yul\":13789:13816   */\n      tag_457\n        /* \"#utility.yul\":13811:13815   */\n      dup3\n        /* \"#utility.yul\":13789:13816   */\n      tag_388\n      jump\t// in\n    tag_457:\n        /* \"#utility.yul\":13781:13787   */\n      dup2\n        /* \"#utility.yul\":13777:13817   */\n      add\n        /* \"#utility.yul\":13919:13925   */\n      dup2\n        /* \"#utility.yul\":13907:13917   */\n      dup2\n        /* \"#utility.yul\":13904:13926   */\n      lt\n        /* \"#utility.yul\":13883:13901   */\n      0xffffffffffffffff\n        /* \"#utility.yul\":13871:13881   */\n      dup3\n        /* \"#utility.yul\":13868:13902   */\n      gt\n        /* \"#utility.yul\":13865:13927   */\n      or\n        /* \"#utility.yul\":13862:13950   */\n      iszero\n      tag_458\n      jumpi\n        /* \"#utility.yul\":13930:13948   */\n      tag_459\n      tag_429\n      jump\t// in\n    tag_459:\n        /* \"#utility.yul\":13862:13950   */\n    tag_458:\n        /* \"#utility.yul\":13970:13980   */\n      dup1\n        /* \"#utility.yul\":13966:13968   */\n      0x40\n        /* \"#utility.yul\":13959:13981   */\n      mstore\n        /* \"#utility.yul\":13749:13987   */\n      pop\n        /* \"#utility.yul\":13706:13987   */\n      pop\n      pop\n      jump\t// out\n        /* \"#utility.yul\":13993:14226   */\n    tag_174:\n        /* \"#utility.yul\":14032:14035   */\n      0x00\n        /* \"#utility.yul\":14055:14079   */\n      tag_461\n        /* \"#utility.yul\":14073:14078   */\n      dup3\n        /* \"#utility.yul\":14055:14079   */\n      tag_448\n      jump\t// in\n    tag_461:\n        /* \"#utility.yul\":14046:14079   */\n      swap2\n      pop\n        /* \"#utility.yul\":14101:14167   */\n      0xffffffffffffffffffffffffffffffffffffffffffffffffffffffffffffffff\n        /* \"#utility.yul\":14094:14099   */\n      dup3\n        /* \"#utility.yul\":14091:14168   */\n      eq\n        /* \"#utility.yul\":14088:14191   */\n      iszero\n      tag_462\n      jumpi\n        /* \"#utility.yul\":14171:14189   */\n      tag_463\n      tag_464\n      jump\t// in\n    tag_463:\n        /* \"#utility.yul\":14088:14191   */\n    tag_462:\n        /* \"#utility.yul\":14218:14219   */\n      0x01\n        /* \"#utility.yul\":14211:14216   */\n      dup3\n        /* \"#utility.yul\":14207:14220   */\n      add\n        /* \"#utility.yul\":14200:14220   */\n      swap1\n      pop\n        /* \"#utility.yul\":13993:14226   */\n      swap2\n      swap1\n      pop\n      jump\t// out\n        /* \"#utility.yul\":14232:14412   */\n    tag_464:\n        /* \"#utility.yul\":14280:14357   */\n      0x4e487b7100000000000000000000000000000000000000000000000000000000\n        /* \"#utility.yul\":14277:14278   */\n      0x00\n        /* \"#utility.yul\":14270:14358   */\n      mstore\n        /* \"#utility.yul\":14377:14381   */\n      0x11\n        /* \"#utility.yul\":14374:14375   */\n      0x04\n        /* \"#utility.yul\":14367:14382   */\n      mstore\n        /* \"#utility.yul\":14401:14405   */\n      0x24\n        /* \"#utility.yul\":14398:14399   */\n      0x00\n        /* \"#utility.yul\":14391:14406   */\n      revert\n        /* \"#utility.yul\":14418:14598   */\n    tag_202:\n        /* \"#utility.yul\":14466:14543   */\n      0x4e487b7100000000000000000000000000000000000000000000000000000000\n        /* \"#utility.yul\":14463:14464   */\n      0x00\n        /* \"#utility.yul\":14456:14544   */\n      mstore\n        /* \"#utility.yul\":14563:14567   */\n      0x32\n        /* \"#utility.yul\":14560:14561   */\n      0x04\n        /* \"#utility.yul\":14553:14568   */\n      mstore\n        /* \"#utility.yul\":14587:14591   */\n      0x24\n        /* \"#utility.yul\":14584:14585   */\n      0x00\n        /* \"#utility.yul\":14577:14592   */\n      revert\n        /* \"#utility.yul\":14604:14784   */\n    tag_429:\n        /* \"#utility.yul\":14652:14729   */\n      0x4e487b7100000000000000000000000000000000000000000000000000000000\n        /* \"#utility.yul\":14649:14650   */\n      0x00\n        /* \"#utility.yul\":14642:14730   */\n      mstore\n        /* \"#utility.yul\":14749:14753   */\n      0x41\n        /* \"#utility.yul\":14746:14747   */\n      0x04\n        /* \"#utility.yul\":14739:14754   */\n      mstore\n        /* \"#utility.yul\":14773:14777   */\n      0x24\n        /* \"#utility.yul\":14770:14771   */\n      0x00\n        /* \"#utility.yul\":14763:14778   */\n      revert\n        /* \"#utility.yul\":14790:14907   */\n    tag_291:\n        /* \"#utility.yul\":14899:14900   */\n      0x00\n        /* \"#utility.yul\":14896:14897   */\n      dup1\n        /* \"#utility.yul\":14889:14901   */\n      revert\n        /* \"#utility.yul\":14913:15030   */\n    tag_276:\n        /* \"#utility.yul\":15022:15023   */\n      0x00\n        /* \"#utility.yul\":15019:15020   */\n      dup1\n        /* \"#utility.yul\":15012:15024   */\n      revert\n        /* \"#utility.yul\":15036:15153   */\n    tag_312:\n        /* \"#utility.yul\":15145:15146   */\n      0x00\n        /* \"#utility.yul\":15142:15143   */\n      dup1\n        /* \"#utility.yul\":15135:15147   */\n      revert\n        /* \"#utility.yul\":15159:15276   */\n    tag_296:\n        /* \"#utility.yul\":15268:15269   */\n      0x00\n        /* \"#utility.yul\":15265:15266   */\n      dup1\n        /* \"#utility.yul\":15258:15270   */\n      revert\n        /* \"#utility.yul\":15282:15384   */\n    tag_388:\n        /* \"#utility.yul\":15323:15329   */\n      0x00\n        /* \"#utility.yul\":15374:15376   */\n      0x1f\n        /* \"#utility.yul\":15370:15377   */\n      not\n        /* \"#utility.yul\":15365:15367   */\n      0x1f\n        /* \"#utility.yul\":15358:15363   */\n      dup4\n        /* \"#utility.yul\":15354:15368   */\n      add\n        /* \"#utility.yul\":15350:15378   */\n      and\n        /* \"#utility.yul\":15340:15378   */\n      swap1\n      pop\n        /* \"#utility.yul\":15282:15384   */\n      swap2\n      swap1\n      pop\n      jump\t// out\n        /* \"#utility.yul\":15390:15555   */\n    tag_399:\n        /* \"#utility.yul\":15530:15547   */\n      0x416363657373436f6e74726f6c3a200000000000000000000000000000000000\n        /* \"#utility.yul\":15526:15527   */\n      0x00\n        /* \"#utility.yul\":15518:15524   */\n      dup3\n        /* \"#utility.yul\":15514:15528   */\n      add\n        /* \"#utility.yul\":15507:15548   */\n      mstore\n        /* \"#utility.yul\":15390:15555   */\n      pop\n      jump\t// out\n        /* \"#utility.yul\":15561:15810   */\n    tag_404:\n        /* \"#utility.yul\":15701:15735   */\n      0x416363657373436f6e74726f6c3a20596f752068617665206e6f207065726d69\n        /* \"#utility.yul\":15697:15698   */\n      0x00\n        /* \"#utility.yul\":15689:15695   */\n      dup3\n        /* \"#utility.yul\":15685:15699   */\n      add\n        /* \"#utility.yul\":15678:15736   */\n      mstore\n        /* \"#utility.yul\":15770:15802   */\n      0x7373696f6e20746f2061636365737320746869732066756e6374696f6e2e0000\n        /* \"#utility.yul\":15765:15767   */\n      0x20\n        /* \"#utility.yul\":15757:15763   */\n      dup3\n        /* \"#utility.yul\":15753:15768   */\n      add\n        /* \"#utility.yul\":15746:15803   */\n      mstore\n        /* \"#utility.yul\":15561:15810   */\n      pop\n      jump\t// out\n        /* \"#utility.yul\":15816:15938   */\n    tag_282:\n        /* \"#utility.yul\":15889:15913   */\n      tag_476\n        /* \"#utility.yul\":15907:15912   */\n      dup2\n        /* \"#utility.yul\":15889:15913   */\n      tag_340\n      jump\t// in\n    tag_476:\n        /* \"#utility.yul\":15882:15887   */\n      dup2\n        /* \"#utility.yul\":15879:15914   */\n      eq\n        /* \"#utility.yul\":15869:15932   */\n      tag_477\n      jumpi\n        /* \"#utility.yul\":15928:15929   */\n      0x00\n        /* \"#utility.yul\":15925:15926   */\n      dup1\n        /* \"#utility.yul\":15918:15930   */\n      revert\n        /* \"#utility.yul\":15869:15932   */\n    tag_477:\n        /* \"#utility.yul\":15816:15938   */\n      pop\n      jump\t// out\n        /* \"#utility.yul\":15944:16066   */\n    tag_286:\n        /* \"#utility.yul\":16017:16041   */\n      tag_479\n        /* \"#utility.yul\":16035:16040   */\n      dup2\n        /* \"#utility.yul\":16017:16041   */\n      tag_378\n      jump\t// in\n    tag_479:\n        /* \"#utility.yul\":16010:16015   */\n      dup2\n        /* \"#utility.yul\":16007:16042   */\n      eq\n        /* \"#utility.yul\":15997:16060   */\n      tag_480\n      jumpi\n        /* \"#utility.yul\":16056:16057   */\n      0x00\n        /* \"#utility.yul\":16053:16054   */\n      dup1\n        /* \"#utility.yul\":16046:16058   */\n      revert\n        /* \"#utility.yul\":15997:16060   */\n    tag_480:\n        /* \"#utility.yul\":15944:16066   */\n      pop\n      jump\t// out\n    stop\n    data_601972b90d37b25432db4389d8031f8daa2518ef8d99fbf07fd5717b0953de49 546865207065726d697373696f6e206973206e6f742076616c6964206f7220746865206163636f756e74206973206e6f7420696e20746865207065726d697373696f6e2e\n\n    auxdata: 0xa2646970667358221220ed1880c02e43cd1d2b24731b0a3836f40d23c618e7793106b91b46bddef38b4464736f6c63430008070033\n}\n",
				"bytecode": {
					"linkReferences": {},
					"object": "608060405234801561001057600080fd5b5061001f61002460201b60201c565b6103d0565b60016000807fdf8b4c520ffe197c5343c6f5aec59570151ef9a492f2c624fd45ddde6135ec42815260200190815260200160002060030160006101000a81548160ff02191690831515021790555060016000807fdf8b4c520ffe197c5343c6f5aec59570151ef9a492f2c624fd45ddde6135ec42815260200190815260200160002060000160003373ffffffffffffffffffffffffffffffffffffffff1673ffffffffffffffffffffffffffffffffffffffff16815260200190815260200160002060006101000a81548160ff021916908315150217905550336000807fdf8b4c520ffe197c5343c6f5aec59570151ef9a492f2c624fd45ddde6135ec428152602001908152602001600020600101600080815260200190815260200160002060006101000a81548173ffffffffffffffffffffffffffffffffffffffff021916908373ffffffffffffffffffffffffffffffffffffffff16021790555060016000807fdf8b4c520ffe197c5343c6f5aec59570151ef9a492f2c624fd45ddde6135ec428152602001908152602001600020600201819055507fdf8b4c520ffe197c5343c6f5aec59570151ef9a492f2c624fd45ddde6135ec42600160008081526020019081526020016000208190555060016000807f73d57861095ed1ff7b0e5c00e25f9fc922cf9164e617149ee7073f371364c954815260200190815260200160002060030160006101000a81548160ff02191690831515021790555060016000807f73d57861095ed1ff7b0e5c00e25f9fc922cf9164e617149ee7073f371364c954815260200190815260200160002060000160003373ffffffffffffffffffffffffffffffffffffffff1673ffffffffffffffffffffffffffffffffffffffff16815260200190815260200160002060006101000a81548160ff021916908315150217905550336000807f73d57861095ed1ff7b0e5c00e25f9fc922cf9164e617149ee7073f371364c9548152602001908152602001600020600101600080815260200190815260200160002060006101000a81548173ffffffffffffffffffffffffffffffffffffffff021916908373ffffffffffffffffffffffffffffffffffffffff16021790555060016000807f73d57861095ed1ff7b0e5c00e25f9fc922cf9164e617149ee7073f371364c9548152602001908152602001600020600201819055507f73d57861095ed1ff7b0e5c00e25f9fc922cf9164e617149ee7073f371364c95460016000600181526020019081526020016000208190555060028081905550565b61267a806103df6000396000f3fe608060405234801561001057600080fd5b50600436106100cf5760003560e01c806380891cb21161008c578063a9c9678711610066578063a9c9678714610222578063b0258db81461023e578063e9cb00a21461025a578063fe64a0d01461028a576100cf565b806380891cb2146101925780639b8f3bbc146101c2578063a076a09e146101f2576100cf565b80630c7f0dd0146100d4578063437bf48b146100f05780634c1b64cb1461010c57806356353d82146101285780637058dd241461015857806375829def14610176575b600080fd5b6100ee60048036038101906100e99190611f7d565b6102a6565b005b61010a60048036038101906101059190611ed8565b61032d565b005b61012660048036038101906101219190611e3e565b6103ab565b005b610142600480360381019061013d9190611ed8565b610422565b60405161014f919061220a565b60405180910390f35b6101606104a6565b60405161016d91906121ef565b60405180910390f35b610190600480360381019061018b9190611e3e565b610520565b005b6101ac60048036038101906101a79190611e3e565b610597565b6040516101b9919061222c565b60405180910390f35b6101dc60048036038101906101d79190611e6b565b610614565b6040516101e9919061220a565b60405180910390f35b61020c60048036038101906102079190611f21565b610691565b604051610219919061224e565b60405180910390f35b61023c60048036038101906102379190611f21565b610717565b005b61025860048036038101906102539190611f21565b610797565b005b610274600480360381019061026f9190611e98565b610817565b604051610281919061224e565b60405180910390f35b6102a4600480360381019061029f9190611ed8565b610896565b005b7f73d57861095ed1ff7b0e5c00e25f9fc922cf9164e617149ee7073f371364c9546102d18133610914565b610310576040517f08c379a00000000000000000000000000000000000000000000000000000000081526004016103079061228b565b60405180910390fd5b610328838051906020012083805190602001206109af565b505050565b7f73d57861095ed1ff7b0e5c00e25f9fc922cf9164e617149ee7073f371364c9546103588133610914565b610397576040517f08c379a000000000000000000000000000000000000000000000000000000000815260040161038e9061228b565b60405180910390fd5b6103a78280519060200120610c76565b5050565b7f73d57861095ed1ff7b0e5c00e25f9fc922cf9164e617149ee7073f371364c9546103d68133610914565b610415576040517f08c379a000000000000000000000000000000000000000000000000000000000815260040161040c9061228b565b60405180910390fd5b61041e82610d83565b5050565b60607fa724c0857099da33c38b932ce5d4e84578ee9792153085d9d5e379bfba70cacb61044f8133610914565b61048e576040517f08c379a00000000000000000000000000000000000000000000000000000000081526004016104859061228b565b60405180910390fd5b61049e8380519060200120610fa1565b915050919050565b60007fdf8b4c520ffe197c5343c6f5aec59570151ef9a492f2c624fd45ddde6135ec426104d38133610914565b610512576040517f08c379a00000000000000000000000000000000000000000000000000000000081526004016105099061228b565b60405180910390fd5b61051a611131565b91505090565b7f73d57861095ed1ff7b0e5c00e25f9fc922cf9164e617149ee7073f371364c95461054b8133610914565b61058a576040517f08c379a00000000000000000000000000000000000000000000000000000000081526004016105819061228b565b60405180910390fd5b610593826112e6565b5050565b60607fa724c0857099da33c38b932ce5d4e84578ee9792153085d9d5e379bfba70cacb6105c48133610914565b610603576040517f08c379a00000000000000000000000000000000000000000000000000000000081526004016105fa9061228b565b60405180910390fd5b61060c83611483565b915050919050565b60607fa724c0857099da33c38b932ce5d4e84578ee9792153085d9d5e379bfba70cacb6106418133610914565b610680576040517f08c379a00000000000000000000000000000000000000000000000000000000081526004016106779061228b565b60405180910390fd5b61068983610fa1565b915050919050565b60007fdf8b4c520ffe197c5343c6f5aec59570151ef9a492f2c624fd45ddde6135ec426106be8133610914565b6106fd576040517f08c379a00000000000000000000000000000000000000000000000000000000081526004016106f49061228b565b60405180910390fd5b61070e84805190602001208461156c565b91505092915050565b7f73d57861095ed1ff7b0e5c00e25f9fc922cf9164e617149ee7073f371364c9546107428133610914565b610781576040517f08c379a00000000000000000000000000000000000000000000000000000000081526004016107789061228b565b60405180910390fd5b610792838051906020012083611580565b505050565b7f73d57861095ed1ff7b0e5c00e25f9fc922cf9164e617149ee7073f371364c9546107c28133610914565b610801576040517f08c379a00000000000000000000000000000000000000000000000000000000081526004016107f89061228b565b60405180910390fd5b6108128380519060200120836116ac565b505050565b60007fdf8b4c520ffe197c5343c6f5aec59570151ef9a492f2c624fd45ddde6135ec426108448133610914565b610883576040517f08c379a000000000000000000000000000000000000000000000000000000000815260040161087a9061228b565b60405180910390fd5b61088d848461156c565b91505092915050565b7f73d57861095ed1ff7b0e5c00e25f9fc922cf9164e617149ee7073f371364c9546108c18133610914565b610900576040517f08c379a00000000000000000000000000000000000000000000000000000000081526004016108f79061228b565b60405180910390fd5b6109108280519060200120611818565b5050565b600080600084815260200190815260200160002060030160009054906101000a900460ff1661094657600090506109a9565b60008084815260200190815260200160002060000160008373ffffffffffffffffffffffffffffffffffffffff1673ffffffffffffffffffffffffffffffffffffffff16815260200190815260200160002060009054906101000a900460ff1690505b92915050565b60008083815260200190815260200160002060030160009054906101000a900460ff16610c33576109df82611b5e565b600160008084815260200190815260200160002060030160006101000a81548160ff02191690831515021790555060005b60008083815260200190815260200160002060020154811015610bba576000806000848152602001908152602001600020600101600083815260200190815260200160002060009054906101000a900473ffffffffffffffffffffffffffffffffffffffff16905060008084815260200190815260200160002060000160008273ffffffffffffffffffffffffffffffffffffffff1673ffffffffffffffffffffffffffffffffffffffff16815260200190815260200160002060009054906101000a900460ff1660008086815260200190815260200160002060000160008373ffffffffffffffffffffffffffffffffffffffff1673ffffffffffffffffffffffffffffffffffffffff16815260200190815260200160002060006101000a81548160ff02191690831515021790555080600080868152602001908152602001600020600101600084815260200190815260200160002060006101000a81548173ffffffffffffffffffffffffffffffffffffffff021916908373ffffffffffffffffffffffffffffffffffffffff160217905550508080610bb29061245f565b915050610a10565b5060008082815260200190815260200160002060020154600080848152602001908152602001600020600201819055503373ffffffffffffffffffffffffffffffffffffffff16827fe5441ae34479a403bc99d68df28ccb0c68ca8cb80aa5142c84cd5e6782c5c14960405160405180910390a3610c72565b610c716040518060400160405280602081526020017f546865207065726d697373696f6e2068617320616c726561792065786973742e815250611be0565b5b5050565b60008082815260200190815260200160002060030160009054906101000a900460ff168015610cc557507fdf8b4c520ffe197c5343c6f5aec59570151ef9a492f2c624fd45ddde6135ec428114155b15610d4157600080600083815260200190815260200160002060030160006101000a81548160ff0219169083151502179055503373ffffffffffffffffffffffffffffffffffffffff16817fe80208c3116f2c5b710796d7b3e8eb0b697c1c98be4297f9993bdb1905a2827b60405160405180910390a3610d80565b610d7f6040518060400160405280601c81526020017f546865207065726d697373696f6e206973206e6f742076616c69642e00000000815250611be0565b5b50565b610dad7fdf8b4c520ffe197c5343c6f5aec59570151ef9a492f2c624fd45ddde6135ec4282610914565b1580610ddf5750610dde7fdf8b4c520ffe197c5343c6f5aec59570151ef9a492f2c624fd45ddde6135ec4233610914565b5b15610f5f576000600190505b600254811015610eff576000806001600084815260200190815260200160002054815260200190815260200160002060000160008373ffffffffffffffffffffffffffffffffffffffff1673ffffffffffffffffffffffffffffffffffffffff16815260200190815260200160002060009054906101000a900460ff1615610eec5760008060006001600085815260200190815260200160002054815260200190815260200160002060000160008473ffffffffffffffffffffffffffffffffffffffff1673ffffffffffffffffffffffffffffffffffffffff16815260200190815260200160002060006101000a81548160ff0219169083151502179055505b8080610ef79061245f565b915050610deb565b503373ffffffffffffffffffffffffffffffffffffffff168173ffffffffffffffffffffffffffffffffffffffff167ffd7e144a5e02c1180e00f9591ef4f60aa95b127c4f134847224a4b6cb99fef9660405160405180910390a3610f9e565b610f9d6040518060400160405280601881526020017f596f752063616e6e6f742064656c6574652041444d494e2e0000000000000000815250611be0565b5b50565b6060806000805b60008086815260200190815260200160002060020154811015611126576000808681526020019081526020016000206000016000806000888152602001908152602001600020600101600084815260200190815260200160002060009054906101000a900473ffffffffffffffffffffffffffffffffffffffff1673ffffffffffffffffffffffffffffffffffffffff1673ffffffffffffffffffffffffffffffffffffffff16815260200190815260200160002060009054906101000a900460ff161561111357600080868152602001908152602001600020600101600082815260200190815260200160002060009054906101000a900473ffffffffffffffffffffffffffffffffffffffff168383815181106110ca576110c96124d7565b5b602002602001019073ffffffffffffffffffffffffffffffffffffffff16908173ffffffffffffffffffffffffffffffffffffffff1681525050818061110f9061245f565b9250505b808061111e9061245f565b915050610fa8565b508192505050919050565b600080600090505b6000807fdf8b4c520ffe197c5343c6f5aec59570151ef9a492f2c624fd45ddde6135ec42815260200190815260200160002060020154811015611279576000807fdf8b4c520ffe197c5343c6f5aec59570151ef9a492f2c624fd45ddde6135ec42815260200190815260200160002060000160008060007fdf8b4c520ffe197c5343c6f5aec59570151ef9a492f2c624fd45ddde6135ec428152602001908152602001600020600101600084815260200190815260200160002060009054906101000a900473ffffffffffffffffffffffffffffffffffffffff1673ffffffffffffffffffffffffffffffffffffffff1673ffffffffffffffffffffffffffffffffffffffff16815260200190815260200160002060009054906101000a900460ff161561126657611279565b80806112719061245f565b915050611139565b6000807fdf8b4c520ffe197c5343c6f5aec59570151ef9a492f2c624fd45ddde6135ec428152602001908152602001600020600101600082815260200190815260200160002060009054906101000a900473ffffffffffffffffffffffffffffffffffffffff1691505090565b60008060007fdf8b4c520ffe197c5343c6f5aec59570151ef9a492f2c624fd45ddde6135ec42815260200190815260200160002060000160003373ffffffffffffffffffffffffffffffffffffffff1673ffffffffffffffffffffffffffffffffffffffff16815260200190815260200160002060006101000a81548160ff02191690831515021790555061139b7fdf8b4c520ffe197c5343c6f5aec59570151ef9a492f2c624fd45ddde6135ec4282611c3c565b60016000807fdf8b4c520ffe197c5343c6f5aec59570151ef9a492f2c624fd45ddde6135ec42815260200190815260200160002060000160008373ffffffffffffffffffffffffffffffffffffffff1673ffffffffffffffffffffffffffffffffffffffff16815260200190815260200160002060006101000a81548160ff0219169083151502179055503373ffffffffffffffffffffffffffffffffffffffff168173ffffffffffffffffffffffffffffffffffffffff167f173de3514d8508f36ce8c81d509adcd8c8c76098400f685d3042b36f9a4160c360405160405180910390a350565b6060806000805b600254811015611561576000806001600084815260200190815260200160002054815260200190815260200160002060000160008673ffffffffffffffffffffffffffffffffffffffff1673ffffffffffffffffffffffffffffffffffffffff16815260200190815260200160002060009054906101000a900460ff161561154e576001600082815260200190815260200160002054838381518110611533576115326124d7565b5b602002602001018181525050818061154a9061245f565b9250505b80806115599061245f565b91505061148a565b508192505050919050565b60006115788383610914565b905092915050565b61158a8282610914565b80156115b657507fdf8b4c520ffe197c5343c6f5aec59570151ef9a492f2c624fd45ddde6135ec428214155b1561168657600080600084815260200190815260200160002060000160008373ffffffffffffffffffffffffffffffffffffffff1673ffffffffffffffffffffffffffffffffffffffff16815260200190815260200160002060006101000a81548160ff0219169083151502179055503373ffffffffffffffffffffffffffffffffffffffff168173ffffffffffffffffffffffffffffffffffffffff16837f7b42e026d3b17cf41399915c285780d0f724b3464b269297aff73c0de0fe417f60405160405180910390a46116a8565b6116a760405180608001604052806044815260200161260160449139611be0565b5b5050565b60008083815260200190815260200160002060030160009054906101000a900460ff1680156116fb57507fdf8b4c520ffe197c5343c6f5aec59570151ef9a492f2c624fd45ddde6135ec428214155b156117d55761170a8282611c3c565b600160008084815260200190815260200160002060000160008373ffffffffffffffffffffffffffffffffffffffff1673ffffffffffffffffffffffffffffffffffffffff16815260200190815260200160002060006101000a81548160ff0219169083151502179055503373ffffffffffffffffffffffffffffffffffffffff168173ffffffffffffffffffffffffffffffffffffffff16837fef6ee312a0062a24a46be2eba5284183a87ff848110e8d4df979bd690d9e9f6860405160405180910390a4611814565b6118136040518060400160405280601c81526020017f546865207065726d697373696f6e206973206e6f742076616c69642e00000000815250611be0565b5b5050565b60008082815260200190815260200160002060030160009054906101000a900460ff16611b1c5761184881611b5e565b600160008083815260200190815260200160002060030160006101000a81548160ff02191690831515021790555060005b6000807fdf8b4c520ffe197c5343c6f5aec59570151ef9a492f2c624fd45ddde6135ec42815260200190815260200160002060020154811015611a835760008060007fdf8b4c520ffe197c5343c6f5aec59570151ef9a492f2c624fd45ddde6135ec428152602001908152602001600020600101600083815260200190815260200160002060009054906101000a900473ffffffffffffffffffffffffffffffffffffffff1690506000807fdf8b4c520ffe197c5343c6f5aec59570151ef9a492f2c624fd45ddde6135ec42815260200190815260200160002060000160008273ffffffffffffffffffffffffffffffffffffffff1673ffffffffffffffffffffffffffffffffffffffff16815260200190815260200160002060009054906101000a900460ff1660008085815260200190815260200160002060000160008373ffffffffffffffffffffffffffffffffffffffff1673ffffffffffffffffffffffffffffffffffffffff16815260200190815260200160002060006101000a81548160ff02191690831515021790555080600080858152602001908152602001600020600101600084815260200190815260200160002060006101000a81548173ffffffffffffffffffffffffffffffffffffffff021916908373ffffffffffffffffffffffffffffffffffffffff160217905550508080611a7b9061245f565b915050611879565b506000807fdf8b4c520ffe197c5343c6f5aec59570151ef9a492f2c624fd45ddde6135ec42815260200190815260200160002060020154600080838152602001908152602001600020600201819055503373ffffffffffffffffffffffffffffffffffffffff16817fe5441ae34479a403bc99d68df28ccb0c68ca8cb80aa5142c84cd5e6782c5c14960405160405180910390a3611b5b565b611b5a6040518060400160405280602081526020017f546865207065726d697373696f6e2068617320616c726561792065786973742e815250611be0565b5b50565b6000805b600254811015611ba3578260016000838152602001908152602001600020541415611b905760019150611ba3565b8080611b9b9061245f565b915050611b62565b5080611bdc57816001600060025481526020019081526020016000208190555060026000815480929190611bd69061245f565b91905055505b5050565b80604051602001611bf191906121cd565b6040516020818303038152906040526040517f08c379a0000000000000000000000000000000000000000000000000000000008152600401611c339190612269565b60405180910390fd5b6000805b60008085815260200190815260200160002060020154811015611cf3578273ffffffffffffffffffffffffffffffffffffffff16600080868152602001908152602001600020600101600083815260200190815260200160002060009054906101000a900473ffffffffffffffffffffffffffffffffffffffff1673ffffffffffffffffffffffffffffffffffffffff161415611ce05760019150611cf3565b8080611ceb9061245f565b915050611c40565b5080611d9f5781600080858152602001908152602001600020600101600080600087815260200190815260200160002060020154815260200190815260200160002060006101000a81548173ffffffffffffffffffffffffffffffffffffffff021916908373ffffffffffffffffffffffffffffffffffffffff1602179055506000808481526020019081526020016000206002016000815480929190611d999061245f565b91905055505b505050565b6000611db7611db2846122d0565b6122ab565b905082815260208101848484011115611dd357611dd261253a565b5b611dde8482856123ec565b509392505050565b600081359050611df5816125d2565b92915050565b600081359050611e0a816125e9565b92915050565b600082601f830112611e2557611e24612535565b5b8135611e35848260208601611da4565b91505092915050565b600060208284031215611e5457611e53612544565b5b6000611e6284828501611de6565b91505092915050565b600060208284031215611e8157611e80612544565b5b6000611e8f84828501611dfb565b91505092915050565b60008060408385031215611eaf57611eae612544565b5b6000611ebd85828601611dfb565b9250506020611ece85828601611de6565b9150509250929050565b600060208284031215611eee57611eed612544565b5b600082013567ffffffffffffffff811115611f0c57611f0b61253f565b5b611f1884828501611e10565b91505092915050565b60008060408385031215611f3857611f37612544565b5b600083013567ffffffffffffffff811115611f5657611f5561253f565b5b611f6285828601611e10565b9250506020611f7385828601611de6565b9150509250929050565b60008060408385031215611f9457611f93612544565b5b600083013567ffffffffffffffff811115611fb257611fb161253f565b5b611fbe85828601611e10565b925050602083013567ffffffffffffffff811115611fdf57611fde61253f565b5b611feb85828601611e10565b9150509250929050565b60006120018383612025565b60208301905092915050565b6000612019838361210e565b60208301905092915050565b61202e8161239a565b82525050565b61203d8161239a565b82525050565b600061204e82612321565b612058818561235c565b935061206383612301565b8060005b8381101561209457815161207b8882611ff5565b975061208683612342565b925050600181019050612067565b5085935050505092915050565b60006120ac8261232c565b6120b6818561236d565b93506120c183612311565b8060005b838110156120f25781516120d9888261200d565b97506120e48361234f565b9250506001810190506120c5565b5085935050505092915050565b612108816123ac565b82525050565b612117816123b8565b82525050565b600061212882612337565b612132818561237e565b93506121428185602086016123fb565b61214b81612549565b840191505092915050565b600061216182612337565b61216b818561238f565b935061217b8185602086016123fb565b80840191505092915050565b6000612194600f8361238f565b915061219f8261255a565b600f82019050919050565b60006121b7603e8361237e565b91506121c282612583565b604082019050919050565b60006121d882612187565b91506121e48284612156565b915081905092915050565b60006020820190506122046000830184612034565b92915050565b600060208201905081810360008301526122248184612043565b905092915050565b6000602082019050818103600083015261224681846120a1565b905092915050565b600060208201905061226360008301846120ff565b92915050565b60006020820190508181036000830152612283818461211d565b905092915050565b600060208201905081810360008301526122a4816121aa565b9050919050565b60006122b56122c6565b90506122c1828261242e565b919050565b6000604051905090565b600067ffffffffffffffff8211156122eb576122ea612506565b5b6122f482612549565b9050602081019050919050565b6000819050602082019050919050565b6000819050602082019050919050565b600081519050919050565b600081519050919050565b600081519050919050565b6000602082019050919050565b6000602082019050919050565b600082825260208201905092915050565b600082825260208201905092915050565b600082825260208201905092915050565b600081905092915050565b60006123a5826123c2565b9050919050565b60008115159050919050565b6000819050919050565b600073ffffffffffffffffffffffffffffffffffffffff82169050919050565b6000819050919050565b82818337600083830152505050565b60005b838110156124195780820151818401526020810190506123fe565b83811115612428576000848401525b50505050565b61243782612549565b810181811067ffffffffffffffff8211171561245657612455612506565b5b80604052505050565b600061246a826123e2565b91507fffffffffffffffffffffffffffffffffffffffffffffffffffffffffffffffff82141561249d5761249c6124a8565b5b600182019050919050565b7f4e487b7100000000000000000000000000000000000000000000000000000000600052601160045260246000fd5b7f4e487b7100000000000000000000000000000000000000000000000000000000600052603260045260246000fd5b7f4e487b7100000000000000000000000000000000000000000000000000000000600052604160045260246000fd5b600080fd5b600080fd5b600080fd5b600080fd5b6000601f19601f8301169050919050565b7f416363657373436f6e74726f6c3a200000000000000000000000000000000000600082015250565b7f416363657373436f6e74726f6c3a20596f752068617665206e6f207065726d6960008201527f7373696f6e20746f2061636365737320746869732066756e6374696f6e2e0000602082015250565b6125db8161239a565b81146125e657600080fd5b50565b6125f2816123b8565b81146125fd57600080fd5b5056fe546865207065726d697373696f6e206973206e6f742076616c6964206f7220746865206163636f756e74206973206e6f7420696e20746865207065726d697373696f6e2ea2646970667358221220ed1880c02e43cd1d2b24731b0a3836f40d23c618e7793106b91b46bddef38b4464736f6c63430008070033",
					"opcodes": "PUSH1 0x80 PUSH1 0x40 MSTORE CALLVALUE DUP1 ISZERO PUSH2 0x10 JUMPI PUSH1 0x0 DUP1 REVERT JUMPDEST POP PUSH2 0x1F PUSH2 0x24 PUSH1 0x20 SHL PUSH1 0x20 SHR JUMP JUMPDEST PUSH2 0x3D0 JUMP JUMPDEST PUSH1 0x1 PUSH1 0x0 DUP1 PUSH32 0xDF8B4C520FFE197C5343C6F5AEC59570151EF9A492F2C624FD45DDDE6135EC42 DUP2 MSTORE PUSH1 0x20 ADD SWAP1 DUP2 MSTORE PUSH1 0x20 ADD PUSH1 0x0 KECCAK256 PUSH1 0x3 ADD PUSH1 0x0 PUSH2 0x100 EXP DUP2 SLOAD DUP2 PUSH1 0xFF MUL NOT AND SWAP1 DUP4 ISZERO ISZERO MUL OR SWAP1 SSTORE POP PUSH1 0x1 PUSH1 0x0 DUP1 PUSH32 0xDF8B4C520FFE197C5343C6F5AEC59570151EF9A492F2C624FD45DDDE6135EC42 DUP2 MSTORE PUSH1 0x20 ADD SWAP1 DUP2 MSTORE PUSH1 0x20 ADD PUSH1 0x0 KECCAK256 PUSH1 0x0 ADD PUSH1 0x0 CALLER PUSH20 0xFFFFFFFFFFFFFFFFFFFFFFFFFFFFFFFFFFFFFFFF AND PUSH20 0xFFFFFFFFFFFFFFFFFFFFFFFFFFFFFFFFFFFFFFFF AND DUP2 MSTORE PUSH1 0x20 ADD SWAP1 DUP2 MSTORE PUSH1 0x20 ADD PUSH1 0x0 KECCAK256 PUSH1 0x0 PUSH2 0x100 EXP DUP2 SLOAD DUP2 PUSH1 0xFF MUL NOT AND SWAP1 DUP4 ISZERO ISZERO MUL OR SWAP1 SSTORE POP CALLER PUSH1 0x0 DUP1 PUSH32 0xDF8B4C520FFE197C5343C6F5AEC59570151EF9A492F2C624FD45DDDE6135EC42 DUP2 MSTORE PUSH1 0x20 ADD SWAP1 DUP2 MSTORE PUSH1 0x20 ADD PUSH1 0x0 KECCAK256 PUSH1 0x1 ADD PUSH1 0x0 DUP1 DUP2 MSTORE PUSH1 0x20 ADD SWAP1 DUP2 MSTORE PUSH1 0x20 ADD PUSH1 0x0 KECCAK256 PUSH1 0x0 PUSH2 0x100 EXP DUP2 SLOAD DUP2 PUSH20 0xFFFFFFFFFFFFFFFFFFFFFFFFFFFFFFFFFFFFFFFF MUL NOT AND SWAP1 DUP4 PUSH20 0xFFFFFFFFFFFFFFFFFFFFFFFFFFFFFFFFFFFFFFFF AND MUL OR SWAP1 SSTORE POP PUSH1 0x1 PUSH1 0x0 DUP1 PUSH32 0xDF8B4C520FFE197C5343C6F5AEC59570151EF9A492F2C624FD45DDDE6135EC42 DUP2 MSTORE PUSH1 0x20 ADD SWAP1 DUP2 MSTORE PUSH1 0x20 ADD PUSH1 0x0 KECCAK256 PUSH1 0x2 ADD DUP2 SWAP1 SSTORE POP PUSH32 0xDF8B4C520FFE197C5343C6F5AEC59570151EF9A492F2C624FD45DDDE6135EC42 PUSH1 0x1 PUSH1 0x0 DUP1 DUP2 MSTORE PUSH1 0x20 ADD SWAP1 DUP2 MSTORE PUSH1 0x20 ADD PUSH1 0x0 KECCAK256 DUP2 SWAP1 SSTORE POP PUSH1 0x1 PUSH1 0x0 DUP1 PUSH32 0x73D57861095ED1FF7B0E5C00E25F9FC922CF9164E617149EE7073F371364C954 DUP2 MSTORE PUSH1 0x20 ADD SWAP1 DUP2 MSTORE PUSH1 0x20 ADD PUSH1 0x0 KECCAK256 PUSH1 0x3 ADD PUSH1 0x0 PUSH2 0x100 EXP DUP2 SLOAD DUP2 PUSH1 0xFF MUL NOT AND SWAP1 DUP4 ISZERO ISZERO MUL OR SWAP1 SSTORE POP PUSH1 0x1 PUSH1 0x0 DUP1 PUSH32 0x73D57861095ED1FF7B0E5C00E25F9FC922CF9164E617149EE7073F371364C954 DUP2 MSTORE PUSH1 0x20 ADD SWAP1 DUP2 MSTORE PUSH1 0x20 ADD PUSH1 0x0 KECCAK256 PUSH1 0x0 ADD PUSH1 0x0 CALLER PUSH20 0xFFFFFFFFFFFFFFFFFFFFFFFFFFFFFFFFFFFFFFFF AND PUSH20 0xFFFFFFFFFFFFFFFFFFFFFFFFFFFFFFFFFFFFFFFF AND DUP2 MSTORE PUSH1 0x20 ADD SWAP1 DUP2 MSTORE PUSH1 0x20 ADD PUSH1 0x0 KECCAK256 PUSH1 0x0 PUSH2 0x100 EXP DUP2 SLOAD DUP2 PUSH1 0xFF MUL NOT AND SWAP1 DUP4 ISZERO ISZERO MUL OR SWAP1 SSTORE POP CALLER PUSH1 0x0 DUP1 PUSH32 0x73D57861095ED1FF7B0E5C00E25F9FC922CF9164E617149EE7073F371364C954 DUP2 MSTORE PUSH1 0x20 ADD SWAP1 DUP2 MSTORE PUSH1 0x20 ADD PUSH1 0x0 KECCAK256 PUSH1 0x1 ADD PUSH1 0x0 DUP1 DUP2 MSTORE PUSH1 0x20 ADD SWAP1 DUP2 MSTORE PUSH1 0x20 ADD PUSH1 0x0 KECCAK256 PUSH1 0x0 PUSH2 0x100 EXP DUP2 SLOAD DUP2 PUSH20 0xFFFFFFFFFFFFFFFFFFFFFFFFFFFFFFFFFFFFFFFF MUL NOT AND SWAP1 DUP4 PUSH20 0xFFFFFFFFFFFFFFFFFFFFFFFFFFFFFFFFFFFFFFFF AND MUL OR SWAP1 SSTORE POP PUSH1 0x1 PUSH1 0x0 DUP1 PUSH32 0x73D57861095ED1FF7B0E5C00E25F9FC922CF9164E617149EE7073F371364C954 DUP2 MSTORE PUSH1 0x20 ADD SWAP1 DUP2 MSTORE PUSH1 0x20 ADD PUSH1 0x0 KECCAK256 PUSH1 0x2 ADD DUP2 SWAP1 SSTORE POP PUSH32 0x73D57861095ED1FF7B0E5C00E25F9FC922CF9164E617149EE7073F371364C954 PUSH1 0x1 PUSH1 0x0 PUSH1 0x1 DUP2 MSTORE PUSH1 0x20 ADD SWAP1 DUP2 MSTORE PUSH1 0x20 ADD PUSH1 0x0 KECCAK256 DUP2 SWAP1 SSTORE POP PUSH1 0x2 DUP1 DUP2 SWAP1 SSTORE POP JUMP JUMPDEST PUSH2 0x267A DUP1 PUSH2 0x3DF PUSH1 0x0 CODECOPY PUSH1 0x0 RETURN INVALID PUSH1 0x80 PUSH1 0x40 MSTORE CALLVALUE DUP1 ISZERO PUSH2 0x10 JUMPI PUSH1 0x0 DUP1 REVERT JUMPDEST POP PUSH1 0x4 CALLDATASIZE LT PUSH2 0xCF JUMPI PUSH1 0x0 CALLDATALOAD PUSH1 0xE0 SHR DUP1 PUSH4 0x80891CB2 GT PUSH2 0x8C JUMPI DUP1 PUSH4 0xA9C96787 GT PUSH2 0x66 JUMPI DUP1 PUSH4 0xA9C96787 EQ PUSH2 0x222 JUMPI DUP1 PUSH4 0xB0258DB8 EQ PUSH2 0x23E JUMPI DUP1 PUSH4 0xE9CB00A2 EQ PUSH2 0x25A JUMPI DUP1 PUSH4 0xFE64A0D0 EQ PUSH2 0x28A JUMPI PUSH2 0xCF JUMP JUMPDEST DUP1 PUSH4 0x80891CB2 EQ PUSH2 0x192 JUMPI DUP1 PUSH4 0x9B8F3BBC EQ PUSH2 0x1C2 JUMPI DUP1 PUSH4 0xA076A09E EQ PUSH2 0x1F2 JUMPI PUSH2 0xCF JUMP JUMPDEST DUP1 PUSH4 0xC7F0DD0 EQ PUSH2 0xD4 JUMPI DUP1 PUSH4 0x437BF48B EQ PUSH2 0xF0 JUMPI DUP1 PUSH4 0x4C1B64CB EQ PUSH2 0x10C JUMPI DUP1 PUSH4 0x56353D82 EQ PUSH2 0x128 JUMPI DUP1 PUSH4 0x7058DD24 EQ PUSH2 0x158 JUMPI DUP1 PUSH4 0x75829DEF EQ PUSH2 0x176 JUMPI JUMPDEST PUSH1 0x0 DUP1 REVERT JUMPDEST PUSH2 0xEE PUSH1 0x4 DUP1 CALLDATASIZE SUB DUP2 ADD SWAP1 PUSH2 0xE9 SWAP2 SWAP1 PUSH2 0x1F7D JUMP JUMPDEST PUSH2 0x2A6 JUMP JUMPDEST STOP JUMPDEST PUSH2 0x10A PUSH1 0x4 DUP1 CALLDATASIZE SUB DUP2 ADD SWAP1 PUSH2 0x105 SWAP2 SWAP1 PUSH2 0x1ED8 JUMP JUMPDEST PUSH2 0x32D JUMP JUMPDEST STOP JUMPDEST PUSH2 0x126 PUSH1 0x4 DUP1 CALLDATASIZE SUB DUP2 ADD SWAP1 PUSH2 0x121 SWAP2 SWAP1 PUSH2 0x1E3E JUMP JUMPDEST PUSH2 0x3AB JUMP JUMPDEST STOP JUMPDEST PUSH2 0x142 PUSH1 0x4 DUP1 CALLDATASIZE SUB DUP2 ADD SWAP1 PUSH2 0x13D SWAP2 SWAP1 PUSH2 0x1ED8 JUMP JUMPDEST PUSH2 0x422 JUMP JUMPDEST PUSH1 0x40 MLOAD PUSH2 0x14F SWAP2 SWAP1 PUSH2 0x220A JUMP JUMPDEST PUSH1 0x40 MLOAD DUP1 SWAP2 SUB SWAP1 RETURN JUMPDEST PUSH2 0x160 PUSH2 0x4A6 JUMP JUMPDEST PUSH1 0x40 MLOAD PUSH2 0x16D SWAP2 SWAP1 PUSH2 0x21EF JUMP JUMPDEST PUSH1 0x40 MLOAD DUP1 SWAP2 SUB SWAP1 RETURN JUMPDEST PUSH2 0x190 PUSH1 0x4 DUP1 CALLDATASIZE SUB DUP2 ADD SWAP1 PUSH2 0x18B SWAP2 SWAP1 PUSH2 0x1E3E JUMP JUMPDEST PUSH2 0x520 JUMP JUMPDEST STOP JUMPDEST PUSH2 0x1AC PUSH1 0x4 DUP1 CALLDATASIZE SUB DUP2 ADD SWAP1 PUSH2 0x1A7 SWAP2 SWAP1 PUSH2 0x1E3E JUMP JUMPDEST PUSH2 0x597 JUMP JUMPDEST PUSH1 0x40 MLOAD PUSH2 0x1B9 SWAP2 SWAP1 PUSH2 0x222C JUMP JUMPDEST PUSH1 0x40 MLOAD DUP1 SWAP2 SUB SWAP1 RETURN JUMPDEST PUSH2 0x1DC PUSH1 0x4 DUP1 CALLDATASIZE SUB DUP2 ADD SWAP1 PUSH2 0x1D7 SWAP2 SWAP1 PUSH2 0x1E6B JUMP JUMPDEST PUSH2 0x614 JUMP JUMPDEST PUSH1 0x40 MLOAD PUSH2 0x1E9 SWAP2 SWAP1 PUSH2 0x220A JUMP JUMPDEST PUSH1 0x40 MLOAD DUP1 SWAP2 SUB SWAP1 RETURN JUMPDEST PUSH2 0x20C PUSH1 0x4 DUP1 CALLDATASIZE SUB DUP2 ADD SWAP1 PUSH2 0x207 SWAP2 SWAP1 PUSH2 0x1F21 JUMP JUMPDEST PUSH2 0x691 JUMP JUMPDEST PUSH1 0x40 MLOAD PUSH2 0x219 SWAP2 SWAP1 PUSH2 0x224E JUMP JUMPDEST PUSH1 0x40 MLOAD DUP1 SWAP2 SUB SWAP1 RETURN JUMPDEST PUSH2 0x23C PUSH1 0x4 DUP1 CALLDATASIZE SUB DUP2 ADD SWAP1 PUSH2 0x237 SWAP2 SWAP1 PUSH2 0x1F21 JUMP JUMPDEST PUSH2 0x717 JUMP JUMPDEST STOP JUMPDEST PUSH2 0x258 PUSH1 0x4 DUP1 CALLDATASIZE SUB DUP2 ADD SWAP1 PUSH2 0x253 SWAP2 SWAP1 PUSH2 0x1F21 JUMP JUMPDEST PUSH2 0x797 JUMP JUMPDEST STOP JUMPDEST PUSH2 0x274 PUSH1 0x4 DUP1 CALLDATASIZE SUB DUP2 ADD SWAP1 PUSH2 0x26F SWAP2 SWAP1 PUSH2 0x1E98 JUMP JUMPDEST PUSH2 0x817 JUMP JUMPDEST PUSH1 0x40 MLOAD PUSH2 0x281 SWAP2 SWAP1 PUSH2 0x224E JUMP JUMPDEST PUSH1 0x40 MLOAD DUP1 SWAP2 SUB SWAP1 RETURN JUMPDEST PUSH2 0x2A4 PUSH1 0x4 DUP1 CALLDATASIZE SUB DUP2 ADD SWAP1 PUSH2 0x29F SWAP2 SWAP1 PUSH2 0x1ED8 JUMP JUMPDEST PUSH2 0x896 JUMP JUMPDEST STOP JUMPDEST PUSH32 0x73D57861095ED1FF7B0E5C00E25F9FC922CF9164E617149EE7073F371364C954 PUSH2 0x2D1 DUP2 CALLER PUSH2 0x914 JUMP JUMPDEST PUSH2 0x310 JUMPI PUSH1 0x40 MLOAD PUSH32 0x8C379A000000000000000000000000000000000000000000000000000000000 DUP2 MSTORE PUSH1 0x4 ADD PUSH2 0x307 SWAP1 PUSH2 0x228B JUMP JUMPDEST PUSH1 0x40 MLOAD DUP1 SWAP2 SUB SWAP1 REVERT JUMPDEST PUSH2 0x328 DUP4 DUP1 MLOAD SWAP1 PUSH1 0x20 ADD KECCAK256 DUP4 DUP1 MLOAD SWAP1 PUSH1 0x20 ADD KECCAK256 PUSH2 0x9AF JUMP JUMPDEST POP POP POP JUMP JUMPDEST PUSH32 0x73D57861095ED1FF7B0E5C00E25F9FC922CF9164E617149EE7073F371364C954 PUSH2 0x358 DUP2 CALLER PUSH2 0x914 JUMP JUMPDEST PUSH2 0x397 JUMPI PUSH1 0x40 MLOAD PUSH32 0x8C379A000000000000000000000000000000000000000000000000000000000 DUP2 MSTORE PUSH1 0x4 ADD PUSH2 0x38E SWAP1 PUSH2 0x228B JUMP JUMPDEST PUSH1 0x40 MLOAD DUP1 SWAP2 SUB SWAP1 REVERT JUMPDEST PUSH2 0x3A7 DUP3 DUP1 MLOAD SWAP1 PUSH1 0x20 ADD KECCAK256 PUSH2 0xC76 JUMP JUMPDEST POP POP JUMP JUMPDEST PUSH32 0x73D57861095ED1FF7B0E5C00E25F9FC922CF9164E617149EE7073F371364C954 PUSH2 0x3D6 DUP2 CALLER PUSH2 0x914 JUMP JUMPDEST PUSH2 0x415 JUMPI PUSH1 0x40 MLOAD PUSH32 0x8C379A000000000000000000000000000000000000000000000000000000000 DUP2 MSTORE PUSH1 0x4 ADD PUSH2 0x40C SWAP1 PUSH2 0x228B JUMP JUMPDEST PUSH1 0x40 MLOAD DUP1 SWAP2 SUB SWAP1 REVERT JUMPDEST PUSH2 0x41E DUP3 PUSH2 0xD83 JUMP JUMPDEST POP POP JUMP JUMPDEST PUSH1 0x60 PUSH32 0xA724C0857099DA33C38B932CE5D4E84578EE9792153085D9D5E379BFBA70CACB PUSH2 0x44F DUP2 CALLER PUSH2 0x914 JUMP JUMPDEST PUSH2 0x48E JUMPI PUSH1 0x40 MLOAD PUSH32 0x8C379A000000000000000000000000000000000000000000000000000000000 DUP2 MSTORE PUSH1 0x4 ADD PUSH2 0x485 SWAP1 PUSH2 0x228B JUMP JUMPDEST PUSH1 0x40 MLOAD DUP1 SWAP2 SUB SWAP1 REVERT JUMPDEST PUSH2 0x49E DUP4 DUP1 MLOAD SWAP1 PUSH1 0x20 ADD KECCAK256 PUSH2 0xFA1 JUMP JUMPDEST SWAP2 POP POP SWAP2 SWAP1 POP JUMP JUMPDEST PUSH1 0x0 PUSH32 0xDF8B4C520FFE197C5343C6F5AEC59570151EF9A492F2C624FD45DDDE6135EC42 PUSH2 0x4D3 DUP2 CALLER PUSH2 0x914 JUMP JUMPDEST PUSH2 0x512 JUMPI PUSH1 0x40 MLOAD PUSH32 0x8C379A000000000000000000000000000000000000000000000000000000000 DUP2 MSTORE PUSH1 0x4 ADD PUSH2 0x509 SWAP1 PUSH2 0x228B JUMP JUMPDEST PUSH1 0x40 MLOAD DUP1 SWAP2 SUB SWAP1 REVERT JUMPDEST PUSH2 0x51A PUSH2 0x1131 JUMP JUMPDEST SWAP2 POP POP SWAP1 JUMP JUMPDEST PUSH32 0x73D57861095ED1FF7B0E5C00E25F9FC922CF9164E617149EE7073F371364C954 PUSH2 0x54B DUP2 CALLER PUSH2 0x914 JUMP JUMPDEST PUSH2 0x58A JUMPI PUSH1 0x40 MLOAD PUSH32 0x8C379A000000000000000000000000000000000000000000000000000000000 DUP2 MSTORE PUSH1 0x4 ADD PUSH2 0x581 SWAP1 PUSH2 0x228B JUMP JUMPDEST PUSH1 0x40 MLOAD DUP1 SWAP2 SUB SWAP1 REVERT JUMPDEST PUSH2 0x593 DUP3 PUSH2 0x12E6 JUMP JUMPDEST POP POP JUMP JUMPDEST PUSH1 0x60 PUSH32 0xA724C0857099DA33C38B932CE5D4E84578EE9792153085D9D5E379BFBA70CACB PUSH2 0x5C4 DUP2 CALLER PUSH2 0x914 JUMP JUMPDEST PUSH2 0x603 JUMPI PUSH1 0x40 MLOAD PUSH32 0x8C379A000000000000000000000000000000000000000000000000000000000 DUP2 MSTORE PUSH1 0x4 ADD PUSH2 0x5FA SWAP1 PUSH2 0x228B JUMP JUMPDEST PUSH1 0x40 MLOAD DUP1 SWAP2 SUB SWAP1 REVERT JUMPDEST PUSH2 0x60C DUP4 PUSH2 0x1483 JUMP JUMPDEST SWAP2 POP POP SWAP2 SWAP1 POP JUMP JUMPDEST PUSH1 0x60 PUSH32 0xA724C0857099DA33C38B932CE5D4E84578EE9792153085D9D5E379BFBA70CACB PUSH2 0x641 DUP2 CALLER PUSH2 0x914 JUMP JUMPDEST PUSH2 0x680 JUMPI PUSH1 0x40 MLOAD PUSH32 0x8C379A000000000000000000000000000000000000000000000000000000000 DUP2 MSTORE PUSH1 0x4 ADD PUSH2 0x677 SWAP1 PUSH2 0x228B JUMP JUMPDEST PUSH1 0x40 MLOAD DUP1 SWAP2 SUB SWAP1 REVERT JUMPDEST PUSH2 0x689 DUP4 PUSH2 0xFA1 JUMP JUMPDEST SWAP2 POP POP SWAP2 SWAP1 POP JUMP JUMPDEST PUSH1 0x0 PUSH32 0xDF8B4C520FFE197C5343C6F5AEC59570151EF9A492F2C624FD45DDDE6135EC42 PUSH2 0x6BE DUP2 CALLER PUSH2 0x914 JUMP JUMPDEST PUSH2 0x6FD JUMPI PUSH1 0x40 MLOAD PUSH32 0x8C379A000000000000000000000000000000000000000000000000000000000 DUP2 MSTORE PUSH1 0x4 ADD PUSH2 0x6F4 SWAP1 PUSH2 0x228B JUMP JUMPDEST PUSH1 0x40 MLOAD DUP1 SWAP2 SUB SWAP1 REVERT JUMPDEST PUSH2 0x70E DUP5 DUP1 MLOAD SWAP1 PUSH1 0x20 ADD KECCAK256 DUP5 PUSH2 0x156C JUMP JUMPDEST SWAP2 POP POP SWAP3 SWAP2 POP POP JUMP JUMPDEST PUSH32 0x73D57861095ED1FF7B0E5C00E25F9FC922CF9164E617149EE7073F371364C954 PUSH2 0x742 DUP2 CALLER PUSH2 0x914 JUMP JUMPDEST PUSH2 0x781 JUMPI PUSH1 0x40 MLOAD PUSH32 0x8C379A000000000000000000000000000000000000000000000000000000000 DUP2 MSTORE PUSH1 0x4 ADD PUSH2 0x778 SWAP1 PUSH2 0x228B JUMP JUMPDEST PUSH1 0x40 MLOAD DUP1 SWAP2 SUB SWAP1 REVERT JUMPDEST PUSH2 0x792 DUP4 DUP1 MLOAD SWAP1 PUSH1 0x20 ADD KECCAK256 DUP4 PUSH2 0x1580 JUMP JUMPDEST POP POP POP JUMP JUMPDEST PUSH32 0x73D57861095ED1FF7B0E5C00E25F9FC922CF9164E617149EE7073F371364C954 PUSH2 0x7C2 DUP2 CALLER PUSH2 0x914 JUMP JUMPDEST PUSH2 0x801 JUMPI PUSH1 0x40 MLOAD PUSH32 0x8C379A000000000000000000000000000000000000000000000000000000000 DUP2 MSTORE PUSH1 0x4 ADD PUSH2 0x7F8 SWAP1 PUSH2 0x228B JUMP JUMPDEST PUSH1 0x40 MLOAD DUP1 SWAP2 SUB SWAP1 REVERT JUMPDEST PUSH2 0x812 DUP4 DUP1 MLOAD SWAP1 PUSH1 0x20 ADD KECCAK256 DUP4 PUSH2 0x16AC JUMP JUMPDEST POP POP POP JUMP JUMPDEST PUSH1 0x0 PUSH32 0xDF8B4C520FFE197C5343C6F5AEC59570151EF9A492F2C624FD45DDDE6135EC42 PUSH2 0x844 DUP2 CALLER PUSH2 0x914 JUMP JUMPDEST PUSH2 0x883 JUMPI PUSH1 0x40 MLOAD PUSH32 0x8C379A000000000000000000000000000000000000000000000000000000000 DUP2 MSTORE PUSH1 0x4 ADD PUSH2 0x87A SWAP1 PUSH2 0x228B JUMP JUMPDEST PUSH1 0x40 MLOAD DUP1 SWAP2 SUB SWAP1 REVERT JUMPDEST PUSH2 0x88D DUP5 DUP5 PUSH2 0x156C JUMP JUMPDEST SWAP2 POP POP SWAP3 SWAP2 POP POP JUMP JUMPDEST PUSH32 0x73D57861095ED1FF7B0E5C00E25F9FC922CF9164E617149EE7073F371364C954 PUSH2 0x8C1 DUP2 CALLER PUSH2 0x914 JUMP JUMPDEST PUSH2 0x900 JUMPI PUSH1 0x40 MLOAD PUSH32 0x8C379A000000000000000000000000000000000000000000000000000000000 DUP2 MSTORE PUSH1 0x4 ADD PUSH2 0x8F7 SWAP1 PUSH2 0x228B JUMP JUMPDEST PUSH1 0x40 MLOAD DUP1 SWAP2 SUB SWAP1 REVERT JUMPDEST PUSH2 0x910 DUP3 DUP1 MLOAD SWAP1 PUSH1 0x20 ADD KECCAK256 PUSH2 0x1818 JUMP JUMPDEST POP POP JUMP JUMPDEST PUSH1 0x0 DUP1 PUSH1 0x0 DUP5 DUP2 MSTORE PUSH1 0x20 ADD SWAP1 DUP2 MSTORE PUSH1 0x20 ADD PUSH1 0x0 KECCAK256 PUSH1 0x3 ADD PUSH1 0x0 SWAP1 SLOAD SWAP1 PUSH2 0x100 EXP SWAP1 DIV PUSH1 0xFF AND PUSH2 0x946 JUMPI PUSH1 0x0 SWAP1 POP PUSH2 0x9A9 JUMP JUMPDEST PUSH1 0x0 DUP1 DUP5 DUP2 MSTORE PUSH1 0x20 ADD SWAP1 DUP2 MSTORE PUSH1 0x20 ADD PUSH1 0x0 KECCAK256 PUSH1 0x0 ADD PUSH1 0x0 DUP4 PUSH20 0xFFFFFFFFFFFFFFFFFFFFFFFFFFFFFFFFFFFFFFFF AND PUSH20 0xFFFFFFFFFFFFFFFFFFFFFFFFFFFFFFFFFFFFFFFF AND DUP2 MSTORE PUSH1 0x20 ADD SWAP1 DUP2 MSTORE PUSH1 0x20 ADD PUSH1 0x0 KECCAK256 PUSH1 0x0 SWAP1 SLOAD SWAP1 PUSH2 0x100 EXP SWAP1 DIV PUSH1 0xFF AND SWAP1 POP JUMPDEST SWAP3 SWAP2 POP POP JUMP JUMPDEST PUSH1 0x0 DUP1 DUP4 DUP2 MSTORE PUSH1 0x20 ADD SWAP1 DUP2 MSTORE PUSH1 0x20 ADD PUSH1 0x0 KECCAK256 PUSH1 0x3 ADD PUSH1 0x0 SWAP1 SLOAD SWAP1 PUSH2 0x100 EXP SWAP1 DIV PUSH1 0xFF AND PUSH2 0xC33 JUMPI PUSH2 0x9DF DUP3 PUSH2 0x1B5E JUMP JUMPDEST PUSH1 0x1 PUSH1 0x0 DUP1 DUP5 DUP2 MSTORE PUSH1 0x20 ADD SWAP1 DUP2 MSTORE PUSH1 0x20 ADD PUSH1 0x0 KECCAK256 PUSH1 0x3 ADD PUSH1 0x0 PUSH2 0x100 EXP DUP2 SLOAD DUP2 PUSH1 0xFF MUL NOT AND SWAP1 DUP4 ISZERO ISZERO MUL OR SWAP1 SSTORE POP PUSH1 0x0 JUMPDEST PUSH1 0x0 DUP1 DUP4 DUP2 MSTORE PUSH1 0x20 ADD SWAP1 DUP2 MSTORE PUSH1 0x20 ADD PUSH1 0x0 KECCAK256 PUSH1 0x2 ADD SLOAD DUP2 LT ISZERO PUSH2 0xBBA JUMPI PUSH1 0x0 DUP1 PUSH1 0x0 DUP5 DUP2 MSTORE PUSH1 0x20 ADD SWAP1 DUP2 MSTORE PUSH1 0x20 ADD PUSH1 0x0 KECCAK256 PUSH1 0x1 ADD PUSH1 0x0 DUP4 DUP2 MSTORE PUSH1 0x20 ADD SWAP1 DUP2 MSTORE PUSH1 0x20 ADD PUSH1 0x0 KECCAK256 PUSH1 0x0 SWAP1 SLOAD SWAP1 PUSH2 0x100 EXP SWAP1 DIV PUSH20 0xFFFFFFFFFFFFFFFFFFFFFFFFFFFFFFFFFFFFFFFF AND SWAP1 POP PUSH1 0x0 DUP1 DUP5 DUP2 MSTORE PUSH1 0x20 ADD SWAP1 DUP2 MSTORE PUSH1 0x20 ADD PUSH1 0x0 KECCAK256 PUSH1 0x0 ADD PUSH1 0x0 DUP3 PUSH20 0xFFFFFFFFFFFFFFFFFFFFFFFFFFFFFFFFFFFFFFFF AND PUSH20 0xFFFFFFFFFFFFFFFFFFFFFFFFFFFFFFFFFFFFFFFF AND DUP2 MSTORE PUSH1 0x20 ADD SWAP1 DUP2 MSTORE PUSH1 0x20 ADD PUSH1 0x0 KECCAK256 PUSH1 0x0 SWAP1 SLOAD SWAP1 PUSH2 0x100 EXP SWAP1 DIV PUSH1 0xFF AND PUSH1 0x0 DUP1 DUP7 DUP2 MSTORE PUSH1 0x20 ADD SWAP1 DUP2 MSTORE PUSH1 0x20 ADD PUSH1 0x0 KECCAK256 PUSH1 0x0 ADD PUSH1 0x0 DUP4 PUSH20 0xFFFFFFFFFFFFFFFFFFFFFFFFFFFFFFFFFFFFFFFF AND PUSH20 0xFFFFFFFFFFFFFFFFFFFFFFFFFFFFFFFFFFFFFFFF AND DUP2 MSTORE PUSH1 0x20 ADD SWAP1 DUP2 MSTORE PUSH1 0x20 ADD PUSH1 0x0 KECCAK256 PUSH1 0x0 PUSH2 0x100 EXP DUP2 SLOAD DUP2 PUSH1 0xFF MUL NOT AND SWAP1 DUP4 ISZERO ISZERO MUL OR SWAP1 SSTORE POP DUP1 PUSH1 0x0 DUP1 DUP7 DUP2 MSTORE PUSH1 0x20 ADD SWAP1 DUP2 MSTORE PUSH1 0x20 ADD PUSH1 0x0 KECCAK256 PUSH1 0x1 ADD PUSH1 0x0 DUP5 DUP2 MSTORE PUSH1 0x20 ADD SWAP1 DUP2 MSTORE PUSH1 0x20 ADD PUSH1 0x0 KECCAK256 PUSH1 0x0 PUSH2 0x100 EXP DUP2 SLOAD DUP2 PUSH20 0xFFFFFFFFFFFFFFFFFFFFFFFFFFFFFFFFFFFFFFFF MUL NOT AND SWAP1 DUP4 PUSH20 0xFFFFFFFFFFFFFFFFFFFFFFFFFFFFFFFFFFFFFFFF AND MUL OR SWAP1 SSTORE POP POP DUP1 DUP1 PUSH2 0xBB2 SWAP1 PUSH2 0x245F JUMP JUMPDEST SWAP2 POP POP PUSH2 0xA10 JUMP JUMPDEST POP PUSH1 0x0 DUP1 DUP3 DUP2 MSTORE PUSH1 0x20 ADD SWAP1 DUP2 MSTORE PUSH1 0x20 ADD PUSH1 0x0 KECCAK256 PUSH1 0x2 ADD SLOAD PUSH1 0x0 DUP1 DUP5 DUP2 MSTORE PUSH1 0x20 ADD SWAP1 DUP2 MSTORE PUSH1 0x20 ADD PUSH1 0x0 KECCAK256 PUSH1 0x2 ADD DUP2 SWAP1 SSTORE POP CALLER PUSH20 0xFFFFFFFFFFFFFFFFFFFFFFFFFFFFFFFFFFFFFFFF AND DUP3 PUSH32 0xE5441AE34479A403BC99D68DF28CCB0C68CA8CB80AA5142C84CD5E6782C5C149 PUSH1 0x40 MLOAD PUSH1 0x40 MLOAD DUP1 SWAP2 SUB SWAP1 LOG3 PUSH2 0xC72 JUMP JUMPDEST PUSH2 0xC71 PUSH1 0x40 MLOAD DUP1 PUSH1 0x40 ADD PUSH1 0x40 MSTORE DUP1 PUSH1 0x20 DUP2 MSTORE PUSH1 0x20 ADD PUSH32 0x546865207065726D697373696F6E2068617320616C726561792065786973742E DUP2 MSTORE POP PUSH2 0x1BE0 JUMP JUMPDEST JUMPDEST POP POP JUMP JUMPDEST PUSH1 0x0 DUP1 DUP3 DUP2 MSTORE PUSH1 0x20 ADD SWAP1 DUP2 MSTORE PUSH1 0x20 ADD PUSH1 0x0 KECCAK256 PUSH1 0x3 ADD PUSH1 0x0 SWAP1 SLOAD SWAP1 PUSH2 0x100 EXP SWAP1 DIV PUSH1 0xFF AND DUP1 ISZERO PUSH2 0xCC5 JUMPI POP PUSH32 0xDF8B4C520FFE197C5343C6F5AEC59570151EF9A492F2C624FD45DDDE6135EC42 DUP2 EQ ISZERO JUMPDEST ISZERO PUSH2 0xD41 JUMPI PUSH1 0x0 DUP1 PUSH1 0x0 DUP4 DUP2 MSTORE PUSH1 0x20 ADD SWAP1 DUP2 MSTORE PUSH1 0x20 ADD PUSH1 0x0 KECCAK256 PUSH1 0x3 ADD PUSH1 0x0 PUSH2 0x100 EXP DUP2 SLOAD DUP2 PUSH1 0xFF MUL NOT AND SWAP1 DUP4 ISZERO ISZERO MUL OR SWAP1 SSTORE POP CALLER PUSH20 0xFFFFFFFFFFFFFFFFFFFFFFFFFFFFFFFFFFFFFFFF AND DUP2 PUSH32 0xE80208C3116F2C5B710796D7B3E8EB0B697C1C98BE4297F9993BDB1905A2827B PUSH1 0x40 MLOAD PUSH1 0x40 MLOAD DUP1 SWAP2 SUB SWAP1 LOG3 PUSH2 0xD80 JUMP JUMPDEST PUSH2 0xD7F PUSH1 0x40 MLOAD DUP1 PUSH1 0x40 ADD PUSH1 0x40 MSTORE DUP1 PUSH1 0x1C DUP2 MSTORE PUSH1 0x20 ADD PUSH32 0x546865207065726D697373696F6E206973206E6F742076616C69642E00000000 DUP2 MSTORE POP PUSH2 0x1BE0 JUMP JUMPDEST JUMPDEST POP JUMP JUMPDEST PUSH2 0xDAD PUSH32 0xDF8B4C520FFE197C5343C6F5AEC59570151EF9A492F2C624FD45DDDE6135EC42 DUP3 PUSH2 0x914 JUMP JUMPDEST ISZERO DUP1 PUSH2 0xDDF JUMPI POP PUSH2 0xDDE PUSH32 0xDF8B4C520FFE197C5343C6F5AEC59570151EF9A492F2C624FD45DDDE6135EC42 CALLER PUSH2 0x914 JUMP JUMPDEST JUMPDEST ISZERO PUSH2 0xF5F JUMPI PUSH1 0x0 PUSH1 0x1 SWAP1 POP JUMPDEST PUSH1 0x2 SLOAD DUP2 LT ISZERO PUSH2 0xEFF JUMPI PUSH1 0x0 DUP1 PUSH1 0x1 PUSH1 0x0 DUP5 DUP2 MSTORE PUSH1 0x20 ADD SWAP1 DUP2 MSTORE PUSH1 0x20 ADD PUSH1 0x0 KECCAK256 SLOAD DUP2 MSTORE PUSH1 0x20 ADD SWAP1 DUP2 MSTORE PUSH1 0x20 ADD PUSH1 0x0 KECCAK256 PUSH1 0x0 ADD PUSH1 0x0 DUP4 PUSH20 0xFFFFFFFFFFFFFFFFFFFFFFFFFFFFFFFFFFFFFFFF AND PUSH20 0xFFFFFFFFFFFFFFFFFFFFFFFFFFFFFFFFFFFFFFFF AND DUP2 MSTORE PUSH1 0x20 ADD SWAP1 DUP2 MSTORE PUSH1 0x20 ADD PUSH1 0x0 KECCAK256 PUSH1 0x0 SWAP1 SLOAD SWAP1 PUSH2 0x100 EXP SWAP1 DIV PUSH1 0xFF AND ISZERO PUSH2 0xEEC JUMPI PUSH1 0x0 DUP1 PUSH1 0x0 PUSH1 0x1 PUSH1 0x0 DUP6 DUP2 MSTORE PUSH1 0x20 ADD SWAP1 DUP2 MSTORE PUSH1 0x20 ADD PUSH1 0x0 KECCAK256 SLOAD DUP2 MSTORE PUSH1 0x20 ADD SWAP1 DUP2 MSTORE PUSH1 0x20 ADD PUSH1 0x0 KECCAK256 PUSH1 0x0 ADD PUSH1 0x0 DUP5 PUSH20 0xFFFFFFFFFFFFFFFFFFFFFFFFFFFFFFFFFFFFFFFF AND PUSH20 0xFFFFFFFFFFFFFFFFFFFFFFFFFFFFFFFFFFFFFFFF AND DUP2 MSTORE PUSH1 0x20 ADD SWAP1 DUP2 MSTORE PUSH1 0x20 ADD PUSH1 0x0 KECCAK256 PUSH1 0x0 PUSH2 0x100 EXP DUP2 SLOAD DUP2 PUSH1 0xFF MUL NOT AND SWAP1 DUP4 ISZERO ISZERO MUL OR SWAP1 SSTORE POP JUMPDEST DUP1 DUP1 PUSH2 0xEF7 SWAP1 PUSH2 0x245F JUMP JUMPDEST SWAP2 POP POP PUSH2 0xDEB JUMP JUMPDEST POP CALLER PUSH20 0xFFFFFFFFFFFFFFFFFFFFFFFFFFFFFFFFFFFFFFFF AND DUP2 PUSH20 0xFFFFFFFFFFFFFFFFFFFFFFFFFFFFFFFFFFFFFFFF AND PUSH32 0xFD7E144A5E02C1180E00F9591EF4F60AA95B127C4F134847224A4B6CB99FEF96 PUSH1 0x40 MLOAD PUSH1 0x40 MLOAD DUP1 SWAP2 SUB SWAP1 LOG3 PUSH2 0xF9E JUMP JUMPDEST PUSH2 0xF9D PUSH1 0x40 MLOAD DUP1 PUSH1 0x40 ADD PUSH1 0x40 MSTORE DUP1 PUSH1 0x18 DUP2 MSTORE PUSH1 0x20 ADD PUSH32 0x596F752063616E6E6F742064656C6574652041444D494E2E0000000000000000 DUP2 MSTORE POP PUSH2 0x1BE0 JUMP JUMPDEST JUMPDEST POP JUMP JUMPDEST PUSH1 0x60 DUP1 PUSH1 0x0 DUP1 JUMPDEST PUSH1 0x0 DUP1 DUP7 DUP2 MSTORE PUSH1 0x20 ADD SWAP1 DUP2 MSTORE PUSH1 0x20 ADD PUSH1 0x0 KECCAK256 PUSH1 0x2 ADD SLOAD DUP2 LT ISZERO PUSH2 0x1126 JUMPI PUSH1 0x0 DUP1 DUP7 DUP2 MSTORE PUSH1 0x20 ADD SWAP1 DUP2 MSTORE PUSH1 0x20 ADD PUSH1 0x0 KECCAK256 PUSH1 0x0 ADD PUSH1 0x0 DUP1 PUSH1 0x0 DUP9 DUP2 MSTORE PUSH1 0x20 ADD SWAP1 DUP2 MSTORE PUSH1 0x20 ADD PUSH1 0x0 KECCAK256 PUSH1 0x1 ADD PUSH1 0x0 DUP5 DUP2 MSTORE PUSH1 0x20 ADD SWAP1 DUP2 MSTORE PUSH1 0x20 ADD PUSH1 0x0 KECCAK256 PUSH1 0x0 SWAP1 SLOAD SWAP1 PUSH2 0x100 EXP SWAP1 DIV PUSH20 0xFFFFFFFFFFFFFFFFFFFFFFFFFFFFFFFFFFFFFFFF AND PUSH20 0xFFFFFFFFFFFFFFFFFFFFFFFFFFFFFFFFFFFFFFFF AND PUSH20 0xFFFFFFFFFFFFFFFFFFFFFFFFFFFFFFFFFFFFFFFF AND DUP2 MSTORE PUSH1 0x20 ADD SWAP1 DUP2 MSTORE PUSH1 0x20 ADD PUSH1 0x0 KECCAK256 PUSH1 0x0 SWAP1 SLOAD SWAP1 PUSH2 0x100 EXP SWAP1 DIV PUSH1 0xFF AND ISZERO PUSH2 0x1113 JUMPI PUSH1 0x0 DUP1 DUP7 DUP2 MSTORE PUSH1 0x20 ADD SWAP1 DUP2 MSTORE PUSH1 0x20 ADD PUSH1 0x0 KECCAK256 PUSH1 0x1 ADD PUSH1 0x0 DUP3 DUP2 MSTORE PUSH1 0x20 ADD SWAP1 DUP2 MSTORE PUSH1 0x20 ADD PUSH1 0x0 KECCAK256 PUSH1 0x0 SWAP1 SLOAD SWAP1 PUSH2 0x100 EXP SWAP1 DIV PUSH20 0xFFFFFFFFFFFFFFFFFFFFFFFFFFFFFFFFFFFFFFFF AND DUP4 DUP4 DUP2 MLOAD DUP2 LT PUSH2 0x10CA JUMPI PUSH2 0x10C9 PUSH2 0x24D7 JUMP JUMPDEST JUMPDEST PUSH1 0x20 MUL PUSH1 0x20 ADD ADD SWAP1 PUSH20 0xFFFFFFFFFFFFFFFFFFFFFFFFFFFFFFFFFFFFFFFF AND SWAP1 DUP2 PUSH20 0xFFFFFFFFFFFFFFFFFFFFFFFFFFFFFFFFFFFFFFFF AND DUP2 MSTORE POP POP DUP2 DUP1 PUSH2 0x110F SWAP1 PUSH2 0x245F JUMP JUMPDEST SWAP3 POP POP JUMPDEST DUP1 DUP1 PUSH2 0x111E SWAP1 PUSH2 0x245F JUMP JUMPDEST SWAP2 POP POP PUSH2 0xFA8 JUMP JUMPDEST POP DUP2 SWAP3 POP POP POP SWAP2 SWAP1 POP JUMP JUMPDEST PUSH1 0x0 DUP1 PUSH1 0x0 SWAP1 POP JUMPDEST PUSH1 0x0 DUP1 PUSH32 0xDF8B4C520FFE197C5343C6F5AEC59570151EF9A492F2C624FD45DDDE6135EC42 DUP2 MSTORE PUSH1 0x20 ADD SWAP1 DUP2 MSTORE PUSH1 0x20 ADD PUSH1 0x0 KECCAK256 PUSH1 0x2 ADD SLOAD DUP2 LT ISZERO PUSH2 0x1279 JUMPI PUSH1 0x0 DUP1 PUSH32 0xDF8B4C520FFE197C5343C6F5AEC59570151EF9A492F2C624FD45DDDE6135EC42 DUP2 MSTORE PUSH1 0x20 ADD SWAP1 DUP2 MSTORE PUSH1 0x20 ADD PUSH1 0x0 KECCAK256 PUSH1 0x0 ADD PUSH1 0x0 DUP1 PUSH1 0x0 PUSH32 0xDF8B4C520FFE197C5343C6F5AEC59570151EF9A492F2C624FD45DDDE6135EC42 DUP2 MSTORE PUSH1 0x20 ADD SWAP1 DUP2 MSTORE PUSH1 0x20 ADD PUSH1 0x0 KECCAK256 PUSH1 0x1 ADD PUSH1 0x0 DUP5 DUP2 MSTORE PUSH1 0x20 ADD SWAP1 DUP2 MSTORE PUSH1 0x20 ADD PUSH1 0x0 KECCAK256 PUSH1 0x0 SWAP1 SLOAD SWAP1 PUSH2 0x100 EXP SWAP1 DIV PUSH20 0xFFFFFFFFFFFFFFFFFFFFFFFFFFFFFFFFFFFFFFFF AND PUSH20 0xFFFFFFFFFFFFFFFFFFFFFFFFFFFFFFFFFFFFFFFF AND PUSH20 0xFFFFFFFFFFFFFFFFFFFFFFFFFFFFFFFFFFFFFFFF AND DUP2 MSTORE PUSH1 0x20 ADD SWAP1 DUP2 MSTORE PUSH1 0x20 ADD PUSH1 0x0 KECCAK256 PUSH1 0x0 SWAP1 SLOAD SWAP1 PUSH2 0x100 EXP SWAP1 DIV PUSH1 0xFF AND ISZERO PUSH2 0x1266 JUMPI PUSH2 0x1279 JUMP JUMPDEST DUP1 DUP1 PUSH2 0x1271 SWAP1 PUSH2 0x245F JUMP JUMPDEST SWAP2 POP POP PUSH2 0x1139 JUMP JUMPDEST PUSH1 0x0 DUP1 PUSH32 0xDF8B4C520FFE197C5343C6F5AEC59570151EF9A492F2C624FD45DDDE6135EC42 DUP2 MSTORE PUSH1 0x20 ADD SWAP1 DUP2 MSTORE PUSH1 0x20 ADD PUSH1 0x0 KECCAK256 PUSH1 0x1 ADD PUSH1 0x0 DUP3 DUP2 MSTORE PUSH1 0x20 ADD SWAP1 DUP2 MSTORE PUSH1 0x20 ADD PUSH1 0x0 KECCAK256 PUSH1 0x0 SWAP1 SLOAD SWAP1 PUSH2 0x100 EXP SWAP1 DIV PUSH20 0xFFFFFFFFFFFFFFFFFFFFFFFFFFFFFFFFFFFFFFFF AND SWAP2 POP POP SWAP1 JUMP JUMPDEST PUSH1 0x0 DUP1 PUSH1 0x0 PUSH32 0xDF8B4C520FFE197C5343C6F5AEC59570151EF9A492F2C624FD45DDDE6135EC42 DUP2 MSTORE PUSH1 0x20 ADD SWAP1 DUP2 MSTORE PUSH1 0x20 ADD PUSH1 0x0 KECCAK256 PUSH1 0x0 ADD PUSH1 0x0 CALLER PUSH20 0xFFFFFFFFFFFFFFFFFFFFFFFFFFFFFFFFFFFFFFFF AND PUSH20 0xFFFFFFFFFFFFFFFFFFFFFFFFFFFFFFFFFFFFFFFF AND DUP2 MSTORE PUSH1 0x20 ADD SWAP1 DUP2 MSTORE PUSH1 0x20 ADD PUSH1 0x0 KECCAK256 PUSH1 0x0 PUSH2 0x100 EXP DUP2 SLOAD DUP2 PUSH1 0xFF MUL NOT AND SWAP1 DUP4 ISZERO ISZERO MUL OR SWAP1 SSTORE POP PUSH2 0x139B PUSH32 0xDF8B4C520FFE197C5343C6F5AEC59570151EF9A492F2C624FD45DDDE6135EC42 DUP3 PUSH2 0x1C3C JUMP JUMPDEST PUSH1 0x1 PUSH1 0x0 DUP1 PUSH32 0xDF8B4C520FFE197C5343C6F5AEC59570151EF9A492F2C624FD45DDDE6135EC42 DUP2 MSTORE PUSH1 0x20 ADD SWAP1 DUP2 MSTORE PUSH1 0x20 ADD PUSH1 0x0 KECCAK256 PUSH1 0x0 ADD PUSH1 0x0 DUP4 PUSH20 0xFFFFFFFFFFFFFFFFFFFFFFFFFFFFFFFFFFFFFFFF AND PUSH20 0xFFFFFFFFFFFFFFFFFFFFFFFFFFFFFFFFFFFFFFFF AND DUP2 MSTORE PUSH1 0x20 ADD SWAP1 DUP2 MSTORE PUSH1 0x20 ADD PUSH1 0x0 KECCAK256 PUSH1 0x0 PUSH2 0x100 EXP DUP2 SLOAD DUP2 PUSH1 0xFF MUL NOT AND SWAP1 DUP4 ISZERO ISZERO MUL OR SWAP1 SSTORE POP CALLER PUSH20 0xFFFFFFFFFFFFFFFFFFFFFFFFFFFFFFFFFFFFFFFF AND DUP2 PUSH20 0xFFFFFFFFFFFFFFFFFFFFFFFFFFFFFFFFFFFFFFFF AND PUSH32 0x173DE3514D8508F36CE8C81D509ADCD8C8C76098400F685D3042B36F9A4160C3 PUSH1 0x40 MLOAD PUSH1 0x40 MLOAD DUP1 SWAP2 SUB SWAP1 LOG3 POP JUMP JUMPDEST PUSH1 0x60 DUP1 PUSH1 0x0 DUP1 JUMPDEST PUSH1 0x2 SLOAD DUP2 LT ISZERO PUSH2 0x1561 JUMPI PUSH1 0x0 DUP1 PUSH1 0x1 PUSH1 0x0 DUP5 DUP2 MSTORE PUSH1 0x20 ADD SWAP1 DUP2 MSTORE PUSH1 0x20 ADD PUSH1 0x0 KECCAK256 SLOAD DUP2 MSTORE PUSH1 0x20 ADD SWAP1 DUP2 MSTORE PUSH1 0x20 ADD PUSH1 0x0 KECCAK256 PUSH1 0x0 ADD PUSH1 0x0 DUP7 PUSH20 0xFFFFFFFFFFFFFFFFFFFFFFFFFFFFFFFFFFFFFFFF AND PUSH20 0xFFFFFFFFFFFFFFFFFFFFFFFFFFFFFFFFFFFFFFFF AND DUP2 MSTORE PUSH1 0x20 ADD SWAP1 DUP2 MSTORE PUSH1 0x20 ADD PUSH1 0x0 KECCAK256 PUSH1 0x0 SWAP1 SLOAD SWAP1 PUSH2 0x100 EXP SWAP1 DIV PUSH1 0xFF AND ISZERO PUSH2 0x154E JUMPI PUSH1 0x1 PUSH1 0x0 DUP3 DUP2 MSTORE PUSH1 0x20 ADD SWAP1 DUP2 MSTORE PUSH1 0x20 ADD PUSH1 0x0 KECCAK256 SLOAD DUP4 DUP4 DUP2 MLOAD DUP2 LT PUSH2 0x1533 JUMPI PUSH2 0x1532 PUSH2 0x24D7 JUMP JUMPDEST JUMPDEST PUSH1 0x20 MUL PUSH1 0x20 ADD ADD DUP2 DUP2 MSTORE POP POP DUP2 DUP1 PUSH2 0x154A SWAP1 PUSH2 0x245F JUMP JUMPDEST SWAP3 POP POP JUMPDEST DUP1 DUP1 PUSH2 0x1559 SWAP1 PUSH2 0x245F JUMP JUMPDEST SWAP2 POP POP PUSH2 0x148A JUMP JUMPDEST POP DUP2 SWAP3 POP POP POP SWAP2 SWAP1 POP JUMP JUMPDEST PUSH1 0x0 PUSH2 0x1578 DUP4 DUP4 PUSH2 0x914 JUMP JUMPDEST SWAP1 POP SWAP3 SWAP2 POP POP JUMP JUMPDEST PUSH2 0x158A DUP3 DUP3 PUSH2 0x914 JUMP JUMPDEST DUP1 ISZERO PUSH2 0x15B6 JUMPI POP PUSH32 0xDF8B4C520FFE197C5343C6F5AEC59570151EF9A492F2C624FD45DDDE6135EC42 DUP3 EQ ISZERO JUMPDEST ISZERO PUSH2 0x1686 JUMPI PUSH1 0x0 DUP1 PUSH1 0x0 DUP5 DUP2 MSTORE PUSH1 0x20 ADD SWAP1 DUP2 MSTORE PUSH1 0x20 ADD PUSH1 0x0 KECCAK256 PUSH1 0x0 ADD PUSH1 0x0 DUP4 PUSH20 0xFFFFFFFFFFFFFFFFFFFFFFFFFFFFFFFFFFFFFFFF AND PUSH20 0xFFFFFFFFFFFFFFFFFFFFFFFFFFFFFFFFFFFFFFFF AND DUP2 MSTORE PUSH1 0x20 ADD SWAP1 DUP2 MSTORE PUSH1 0x20 ADD PUSH1 0x0 KECCAK256 PUSH1 0x0 PUSH2 0x100 EXP DUP2 SLOAD DUP2 PUSH1 0xFF MUL NOT AND SWAP1 DUP4 ISZERO ISZERO MUL OR SWAP1 SSTORE POP CALLER PUSH20 0xFFFFFFFFFFFFFFFFFFFFFFFFFFFFFFFFFFFFFFFF AND DUP2 PUSH20 0xFFFFFFFFFFFFFFFFFFFFFFFFFFFFFFFFFFFFFFFF AND DUP4 PUSH32 0x7B42E026D3B17CF41399915C285780D0F724B3464B269297AFF73C0DE0FE417F PUSH1 0x40 MLOAD PUSH1 0x40 MLOAD DUP1 SWAP2 SUB SWAP1 LOG4 PUSH2 0x16A8 JUMP JUMPDEST PUSH2 0x16A7 PUSH1 0x40 MLOAD DUP1 PUSH1 0x80 ADD PUSH1 0x40 MSTORE DUP1 PUSH1 0x44 DUP2 MSTORE PUSH1 0x20 ADD PUSH2 0x2601 PUSH1 0x44 SWAP2 CODECOPY PUSH2 0x1BE0 JUMP JUMPDEST JUMPDEST POP POP JUMP JUMPDEST PUSH1 0x0 DUP1 DUP4 DUP2 MSTORE PUSH1 0x20 ADD SWAP1 DUP2 MSTORE PUSH1 0x20 ADD PUSH1 0x0 KECCAK256 PUSH1 0x3 ADD PUSH1 0x0 SWAP1 SLOAD SWAP1 PUSH2 0x100 EXP SWAP1 DIV PUSH1 0xFF AND DUP1 ISZERO PUSH2 0x16FB JUMPI POP PUSH32 0xDF8B4C520FFE197C5343C6F5AEC59570151EF9A492F2C624FD45DDDE6135EC42 DUP3 EQ ISZERO JUMPDEST ISZERO PUSH2 0x17D5 JUMPI PUSH2 0x170A DUP3 DUP3 PUSH2 0x1C3C JUMP JUMPDEST PUSH1 0x1 PUSH1 0x0 DUP1 DUP5 DUP2 MSTORE PUSH1 0x20 ADD SWAP1 DUP2 MSTORE PUSH1 0x20 ADD PUSH1 0x0 KECCAK256 PUSH1 0x0 ADD PUSH1 0x0 DUP4 PUSH20 0xFFFFFFFFFFFFFFFFFFFFFFFFFFFFFFFFFFFFFFFF AND PUSH20 0xFFFFFFFFFFFFFFFFFFFFFFFFFFFFFFFFFFFFFFFF AND DUP2 MSTORE PUSH1 0x20 ADD SWAP1 DUP2 MSTORE PUSH1 0x20 ADD PUSH1 0x0 KECCAK256 PUSH1 0x0 PUSH2 0x100 EXP DUP2 SLOAD DUP2 PUSH1 0xFF MUL NOT AND SWAP1 DUP4 ISZERO ISZERO MUL OR SWAP1 SSTORE POP CALLER PUSH20 0xFFFFFFFFFFFFFFFFFFFFFFFFFFFFFFFFFFFFFFFF AND DUP2 PUSH20 0xFFFFFFFFFFFFFFFFFFFFFFFFFFFFFFFFFFFFFFFF AND DUP4 PUSH32 0xEF6EE312A0062A24A46BE2EBA5284183A87FF848110E8D4DF979BD690D9E9F68 PUSH1 0x40 MLOAD PUSH1 0x40 MLOAD DUP1 SWAP2 SUB SWAP1 LOG4 PUSH2 0x1814 JUMP JUMPDEST PUSH2 0x1813 PUSH1 0x40 MLOAD DUP1 PUSH1 0x40 ADD PUSH1 0x40 MSTORE DUP1 PUSH1 0x1C DUP2 MSTORE PUSH1 0x20 ADD PUSH32 0x546865207065726D697373696F6E206973206E6F742076616C69642E00000000 DUP2 MSTORE POP PUSH2 0x1BE0 JUMP JUMPDEST JUMPDEST POP POP JUMP JUMPDEST PUSH1 0x0 DUP1 DUP3 DUP2 MSTORE PUSH1 0x20 ADD SWAP1 DUP2 MSTORE PUSH1 0x20 ADD PUSH1 0x0 KECCAK256 PUSH1 0x3 ADD PUSH1 0x0 SWAP1 SLOAD SWAP1 PUSH2 0x100 EXP SWAP1 DIV PUSH1 0xFF AND PUSH2 0x1B1C JUMPI PUSH2 0x1848 DUP2 PUSH2 0x1B5E JUMP JUMPDEST PUSH1 0x1 PUSH1 0x0 DUP1 DUP4 DUP2 MSTORE PUSH1 0x20 ADD SWAP1 DUP2 MSTORE PUSH1 0x20 ADD PUSH1 0x0 KECCAK256 PUSH1 0x3 ADD PUSH1 0x0 PUSH2 0x100 EXP DUP2 SLOAD DUP2 PUSH1 0xFF MUL NOT AND SWAP1 DUP4 ISZERO ISZERO MUL OR SWAP1 SSTORE POP PUSH1 0x0 JUMPDEST PUSH1 0x0 DUP1 PUSH32 0xDF8B4C520FFE197C5343C6F5AEC59570151EF9A492F2C624FD45DDDE6135EC42 DUP2 MSTORE PUSH1 0x20 ADD SWAP1 DUP2 MSTORE PUSH1 0x20 ADD PUSH1 0x0 KECCAK256 PUSH1 0x2 ADD SLOAD DUP2 LT ISZERO PUSH2 0x1A83 JUMPI PUSH1 0x0 DUP1 PUSH1 0x0 PUSH32 0xDF8B4C520FFE197C5343C6F5AEC59570151EF9A492F2C624FD45DDDE6135EC42 DUP2 MSTORE PUSH1 0x20 ADD SWAP1 DUP2 MSTORE PUSH1 0x20 ADD PUSH1 0x0 KECCAK256 PUSH1 0x1 ADD PUSH1 0x0 DUP4 DUP2 MSTORE PUSH1 0x20 ADD SWAP1 DUP2 MSTORE PUSH1 0x20 ADD PUSH1 0x0 KECCAK256 PUSH1 0x0 SWAP1 SLOAD SWAP1 PUSH2 0x100 EXP SWAP1 DIV PUSH20 0xFFFFFFFFFFFFFFFFFFFFFFFFFFFFFFFFFFFFFFFF AND SWAP1 POP PUSH1 0x0 DUP1 PUSH32 0xDF8B4C520FFE197C5343C6F5AEC59570151EF9A492F2C624FD45DDDE6135EC42 DUP2 MSTORE PUSH1 0x20 ADD SWAP1 DUP2 MSTORE PUSH1 0x20 ADD PUSH1 0x0 KECCAK256 PUSH1 0x0 ADD PUSH1 0x0 DUP3 PUSH20 0xFFFFFFFFFFFFFFFFFFFFFFFFFFFFFFFFFFFFFFFF AND PUSH20 0xFFFFFFFFFFFFFFFFFFFFFFFFFFFFFFFFFFFFFFFF AND DUP2 MSTORE PUSH1 0x20 ADD SWAP1 DUP2 MSTORE PUSH1 0x20 ADD PUSH1 0x0 KECCAK256 PUSH1 0x0 SWAP1 SLOAD SWAP1 PUSH2 0x100 EXP SWAP1 DIV PUSH1 0xFF AND PUSH1 0x0 DUP1 DUP6 DUP2 MSTORE PUSH1 0x20 ADD SWAP1 DUP2 MSTORE PUSH1 0x20 ADD PUSH1 0x0 KECCAK256 PUSH1 0x0 ADD PUSH1 0x0 DUP4 PUSH20 0xFFFFFFFFFFFFFFFFFFFFFFFFFFFFFFFFFFFFFFFF AND PUSH20 0xFFFFFFFFFFFFFFFFFFFFFFFFFFFFFFFFFFFFFFFF AND DUP2 MSTORE PUSH1 0x20 ADD SWAP1 DUP2 MSTORE PUSH1 0x20 ADD PUSH1 0x0 KECCAK256 PUSH1 0x0 PUSH2 0x100 EXP DUP2 SLOAD DUP2 PUSH1 0xFF MUL NOT AND SWAP1 DUP4 ISZERO ISZERO MUL OR SWAP1 SSTORE POP DUP1 PUSH1 0x0 DUP1 DUP6 DUP2 MSTORE PUSH1 0x20 ADD SWAP1 DUP2 MSTORE PUSH1 0x20 ADD PUSH1 0x0 KECCAK256 PUSH1 0x1 ADD PUSH1 0x0 DUP5 DUP2 MSTORE PUSH1 0x20 ADD SWAP1 DUP2 MSTORE PUSH1 0x20 ADD PUSH1 0x0 KECCAK256 PUSH1 0x0 PUSH2 0x100 EXP DUP2 SLOAD DUP2 PUSH20 0xFFFFFFFFFFFFFFFFFFFFFFFFFFFFFFFFFFFFFFFF MUL NOT AND SWAP1 DUP4 PUSH20 0xFFFFFFFFFFFFFFFFFFFFFFFFFFFFFFFFFFFFFFFF AND MUL OR SWAP1 SSTORE POP POP DUP1 DUP1 PUSH2 0x1A7B SWAP1 PUSH2 0x245F JUMP JUMPDEST SWAP2 POP POP PUSH2 0x1879 JUMP JUMPDEST POP PUSH1 0x0 DUP1 PUSH32 0xDF8B4C520FFE197C5343C6F5AEC59570151EF9A492F2C624FD45DDDE6135EC42 DUP2 MSTORE PUSH1 0x20 ADD SWAP1 DUP2 MSTORE PUSH1 0x20 ADD PUSH1 0x0 KECCAK256 PUSH1 0x2 ADD SLOAD PUSH1 0x0 DUP1 DUP4 DUP2 MSTORE PUSH1 0x20 ADD SWAP1 DUP2 MSTORE PUSH1 0x20 ADD PUSH1 0x0 KECCAK256 PUSH1 0x2 ADD DUP2 SWAP1 SSTORE POP CALLER PUSH20 0xFFFFFFFFFFFFFFFFFFFFFFFFFFFFFFFFFFFFFFFF AND DUP2 PUSH32 0xE5441AE34479A403BC99D68DF28CCB0C68CA8CB80AA5142C84CD5E6782C5C149 PUSH1 0x40 MLOAD PUSH1 0x40 MLOAD DUP1 SWAP2 SUB SWAP1 LOG3 PUSH2 0x1B5B JUMP JUMPDEST PUSH2 0x1B5A PUSH1 0x40 MLOAD DUP1 PUSH1 0x40 ADD PUSH1 0x40 MSTORE DUP1 PUSH1 0x20 DUP2 MSTORE PUSH1 0x20 ADD PUSH32 0x546865207065726D697373696F6E2068617320616C726561792065786973742E DUP2 MSTORE POP PUSH2 0x1BE0 JUMP JUMPDEST JUMPDEST POP JUMP JUMPDEST PUSH1 0x0 DUP1 JUMPDEST PUSH1 0x2 SLOAD DUP2 LT ISZERO PUSH2 0x1BA3 JUMPI DUP3 PUSH1 0x1 PUSH1 0x0 DUP4 DUP2 MSTORE PUSH1 0x20 ADD SWAP1 DUP2 MSTORE PUSH1 0x20 ADD PUSH1 0x0 KECCAK256 SLOAD EQ ISZERO PUSH2 0x1B90 JUMPI PUSH1 0x1 SWAP2 POP PUSH2 0x1BA3 JUMP JUMPDEST DUP1 DUP1 PUSH2 0x1B9B SWAP1 PUSH2 0x245F JUMP JUMPDEST SWAP2 POP POP PUSH2 0x1B62 JUMP JUMPDEST POP DUP1 PUSH2 0x1BDC JUMPI DUP2 PUSH1 0x1 PUSH1 0x0 PUSH1 0x2 SLOAD DUP2 MSTORE PUSH1 0x20 ADD SWAP1 DUP2 MSTORE PUSH1 0x20 ADD PUSH1 0x0 KECCAK256 DUP2 SWAP1 SSTORE POP PUSH1 0x2 PUSH1 0x0 DUP2 SLOAD DUP1 SWAP3 SWAP2 SWAP1 PUSH2 0x1BD6 SWAP1 PUSH2 0x245F JUMP JUMPDEST SWAP2 SWAP1 POP SSTORE POP JUMPDEST POP POP JUMP JUMPDEST DUP1 PUSH1 0x40 MLOAD PUSH1 0x20 ADD PUSH2 0x1BF1 SWAP2 SWAP1 PUSH2 0x21CD JUMP JUMPDEST PUSH1 0x40 MLOAD PUSH1 0x20 DUP2 DUP4 SUB SUB DUP2 MSTORE SWAP1 PUSH1 0x40 MSTORE PUSH1 0x40 MLOAD PUSH32 0x8C379A000000000000000000000000000000000000000000000000000000000 DUP2 MSTORE PUSH1 0x4 ADD PUSH2 0x1C33 SWAP2 SWAP1 PUSH2 0x2269 JUMP JUMPDEST PUSH1 0x40 MLOAD DUP1 SWAP2 SUB SWAP1 REVERT JUMPDEST PUSH1 0x0 DUP1 JUMPDEST PUSH1 0x0 DUP1 DUP6 DUP2 MSTORE PUSH1 0x20 ADD SWAP1 DUP2 MSTORE PUSH1 0x20 ADD PUSH1 0x0 KECCAK256 PUSH1 0x2 ADD SLOAD DUP2 LT ISZERO PUSH2 0x1CF3 JUMPI DUP3 PUSH20 0xFFFFFFFFFFFFFFFFFFFFFFFFFFFFFFFFFFFFFFFF AND PUSH1 0x0 DUP1 DUP7 DUP2 MSTORE PUSH1 0x20 ADD SWAP1 DUP2 MSTORE PUSH1 0x20 ADD PUSH1 0x0 KECCAK256 PUSH1 0x1 ADD PUSH1 0x0 DUP4 DUP2 MSTORE PUSH1 0x20 ADD SWAP1 DUP2 MSTORE PUSH1 0x20 ADD PUSH1 0x0 KECCAK256 PUSH1 0x0 SWAP1 SLOAD SWAP1 PUSH2 0x100 EXP SWAP1 DIV PUSH20 0xFFFFFFFFFFFFFFFFFFFFFFFFFFFFFFFFFFFFFFFF AND PUSH20 0xFFFFFFFFFFFFFFFFFFFFFFFFFFFFFFFFFFFFFFFF AND EQ ISZERO PUSH2 0x1CE0 JUMPI PUSH1 0x1 SWAP2 POP PUSH2 0x1CF3 JUMP JUMPDEST DUP1 DUP1 PUSH2 0x1CEB SWAP1 PUSH2 0x245F JUMP JUMPDEST SWAP2 POP POP PUSH2 0x1C40 JUMP JUMPDEST POP DUP1 PUSH2 0x1D9F JUMPI DUP2 PUSH1 0x0 DUP1 DUP6 DUP2 MSTORE PUSH1 0x20 ADD SWAP1 DUP2 MSTORE PUSH1 0x20 ADD PUSH1 0x0 KECCAK256 PUSH1 0x1 ADD PUSH1 0x0 DUP1 PUSH1 0x0 DUP8 DUP2 MSTORE PUSH1 0x20 ADD SWAP1 DUP2 MSTORE PUSH1 0x20 ADD PUSH1 0x0 KECCAK256 PUSH1 0x2 ADD SLOAD DUP2 MSTORE PUSH1 0x20 ADD SWAP1 DUP2 MSTORE PUSH1 0x20 ADD PUSH1 0x0 KECCAK256 PUSH1 0x0 PUSH2 0x100 EXP DUP2 SLOAD DUP2 PUSH20 0xFFFFFFFFFFFFFFFFFFFFFFFFFFFFFFFFFFFFFFFF MUL NOT AND SWAP1 DUP4 PUSH20 0xFFFFFFFFFFFFFFFFFFFFFFFFFFFFFFFFFFFFFFFF AND MUL OR SWAP1 SSTORE POP PUSH1 0x0 DUP1 DUP5 DUP2 MSTORE PUSH1 0x20 ADD SWAP1 DUP2 MSTORE PUSH1 0x20 ADD PUSH1 0x0 KECCAK256 PUSH1 0x2 ADD PUSH1 0x0 DUP2 SLOAD DUP1 SWAP3 SWAP2 SWAP1 PUSH2 0x1D99 SWAP1 PUSH2 0x245F JUMP JUMPDEST SWAP2 SWAP1 POP SSTORE POP JUMPDEST POP POP POP JUMP JUMPDEST PUSH1 0x0 PUSH2 0x1DB7 PUSH2 0x1DB2 DUP5 PUSH2 0x22D0 JUMP JUMPDEST PUSH2 0x22AB JUMP JUMPDEST SWAP1 POP DUP3 DUP2 MSTORE PUSH1 0x20 DUP2 ADD DUP5 DUP5 DUP5 ADD GT ISZERO PUSH2 0x1DD3 JUMPI PUSH2 0x1DD2 PUSH2 0x253A JUMP JUMPDEST JUMPDEST PUSH2 0x1DDE DUP5 DUP3 DUP6 PUSH2 0x23EC JUMP JUMPDEST POP SWAP4 SWAP3 POP POP POP JUMP JUMPDEST PUSH1 0x0 DUP2 CALLDATALOAD SWAP1 POP PUSH2 0x1DF5 DUP2 PUSH2 0x25D2 JUMP JUMPDEST SWAP3 SWAP2 POP POP JUMP JUMPDEST PUSH1 0x0 DUP2 CALLDATALOAD SWAP1 POP PUSH2 0x1E0A DUP2 PUSH2 0x25E9 JUMP JUMPDEST SWAP3 SWAP2 POP POP JUMP JUMPDEST PUSH1 0x0 DUP3 PUSH1 0x1F DUP4 ADD SLT PUSH2 0x1E25 JUMPI PUSH2 0x1E24 PUSH2 0x2535 JUMP JUMPDEST JUMPDEST DUP2 CALLDATALOAD PUSH2 0x1E35 DUP5 DUP3 PUSH1 0x20 DUP7 ADD PUSH2 0x1DA4 JUMP JUMPDEST SWAP2 POP POP SWAP3 SWAP2 POP POP JUMP JUMPDEST PUSH1 0x0 PUSH1 0x20 DUP3 DUP5 SUB SLT ISZERO PUSH2 0x1E54 JUMPI PUSH2 0x1E53 PUSH2 0x2544 JUMP JUMPDEST JUMPDEST PUSH1 0x0 PUSH2 0x1E62 DUP5 DUP3 DUP6 ADD PUSH2 0x1DE6 JUMP JUMPDEST SWAP2 POP POP SWAP3 SWAP2 POP POP JUMP JUMPDEST PUSH1 0x0 PUSH1 0x20 DUP3 DUP5 SUB SLT ISZERO PUSH2 0x1E81 JUMPI PUSH2 0x1E80 PUSH2 0x2544 JUMP JUMPDEST JUMPDEST PUSH1 0x0 PUSH2 0x1E8F DUP5 DUP3 DUP6 ADD PUSH2 0x1DFB JUMP JUMPDEST SWAP2 POP POP SWAP3 SWAP2 POP POP JUMP JUMPDEST PUSH1 0x0 DUP1 PUSH1 0x40 DUP4 DUP6 SUB SLT ISZERO PUSH2 0x1EAF JUMPI PUSH2 0x1EAE PUSH2 0x2544 JUMP JUMPDEST JUMPDEST PUSH1 0x0 PUSH2 0x1EBD DUP6 DUP3 DUP7 ADD PUSH2 0x1DFB JUMP JUMPDEST SWAP3 POP POP PUSH1 0x20 PUSH2 0x1ECE DUP6 DUP3 DUP7 ADD PUSH2 0x1DE6 JUMP JUMPDEST SWAP2 POP POP SWAP3 POP SWAP3 SWAP1 POP JUMP JUMPDEST PUSH1 0x0 PUSH1 0x20 DUP3 DUP5 SUB SLT ISZERO PUSH2 0x1EEE JUMPI PUSH2 0x1EED PUSH2 0x2544 JUMP JUMPDEST JUMPDEST PUSH1 0x0 DUP3 ADD CALLDATALOAD PUSH8 0xFFFFFFFFFFFFFFFF DUP2 GT ISZERO PUSH2 0x1F0C JUMPI PUSH2 0x1F0B PUSH2 0x253F JUMP JUMPDEST JUMPDEST PUSH2 0x1F18 DUP5 DUP3 DUP6 ADD PUSH2 0x1E10 JUMP JUMPDEST SWAP2 POP POP SWAP3 SWAP2 POP POP JUMP JUMPDEST PUSH1 0x0 DUP1 PUSH1 0x40 DUP4 DUP6 SUB SLT ISZERO PUSH2 0x1F38 JUMPI PUSH2 0x1F37 PUSH2 0x2544 JUMP JUMPDEST JUMPDEST PUSH1 0x0 DUP4 ADD CALLDATALOAD PUSH8 0xFFFFFFFFFFFFFFFF DUP2 GT ISZERO PUSH2 0x1F56 JUMPI PUSH2 0x1F55 PUSH2 0x253F JUMP JUMPDEST JUMPDEST PUSH2 0x1F62 DUP6 DUP3 DUP7 ADD PUSH2 0x1E10 JUMP JUMPDEST SWAP3 POP POP PUSH1 0x20 PUSH2 0x1F73 DUP6 DUP3 DUP7 ADD PUSH2 0x1DE6 JUMP JUMPDEST SWAP2 POP POP SWAP3 POP SWAP3 SWAP1 POP JUMP JUMPDEST PUSH1 0x0 DUP1 PUSH1 0x40 DUP4 DUP6 SUB SLT ISZERO PUSH2 0x1F94 JUMPI PUSH2 0x1F93 PUSH2 0x2544 JUMP JUMPDEST JUMPDEST PUSH1 0x0 DUP4 ADD CALLDATALOAD PUSH8 0xFFFFFFFFFFFFFFFF DUP2 GT ISZERO PUSH2 0x1FB2 JUMPI PUSH2 0x1FB1 PUSH2 0x253F JUMP JUMPDEST JUMPDEST PUSH2 0x1FBE DUP6 DUP3 DUP7 ADD PUSH2 0x1E10 JUMP JUMPDEST SWAP3 POP POP PUSH1 0x20 DUP4 ADD CALLDATALOAD PUSH8 0xFFFFFFFFFFFFFFFF DUP2 GT ISZERO PUSH2 0x1FDF JUMPI PUSH2 0x1FDE PUSH2 0x253F JUMP JUMPDEST JUMPDEST PUSH2 0x1FEB DUP6 DUP3 DUP7 ADD PUSH2 0x1E10 JUMP JUMPDEST SWAP2 POP POP SWAP3 POP SWAP3 SWAP1 POP JUMP JUMPDEST PUSH1 0x0 PUSH2 0x2001 DUP4 DUP4 PUSH2 0x2025 JUMP JUMPDEST PUSH1 0x20 DUP4 ADD SWAP1 POP SWAP3 SWAP2 POP POP JUMP JUMPDEST PUSH1 0x0 PUSH2 0x2019 DUP4 DUP4 PUSH2 0x210E JUMP JUMPDEST PUSH1 0x20 DUP4 ADD SWAP1 POP SWAP3 SWAP2 POP POP JUMP JUMPDEST PUSH2 0x202E DUP2 PUSH2 0x239A JUMP JUMPDEST DUP3 MSTORE POP POP JUMP JUMPDEST PUSH2 0x203D DUP2 PUSH2 0x239A JUMP JUMPDEST DUP3 MSTORE POP POP JUMP JUMPDEST PUSH1 0x0 PUSH2 0x204E DUP3 PUSH2 0x2321 JUMP JUMPDEST PUSH2 0x2058 DUP2 DUP6 PUSH2 0x235C JUMP JUMPDEST SWAP4 POP PUSH2 0x2063 DUP4 PUSH2 0x2301 JUMP JUMPDEST DUP1 PUSH1 0x0 JUMPDEST DUP4 DUP2 LT ISZERO PUSH2 0x2094 JUMPI DUP2 MLOAD PUSH2 0x207B DUP9 DUP3 PUSH2 0x1FF5 JUMP JUMPDEST SWAP8 POP PUSH2 0x2086 DUP4 PUSH2 0x2342 JUMP JUMPDEST SWAP3 POP POP PUSH1 0x1 DUP2 ADD SWAP1 POP PUSH2 0x2067 JUMP JUMPDEST POP DUP6 SWAP4 POP POP POP POP SWAP3 SWAP2 POP POP JUMP JUMPDEST PUSH1 0x0 PUSH2 0x20AC DUP3 PUSH2 0x232C JUMP JUMPDEST PUSH2 0x20B6 DUP2 DUP6 PUSH2 0x236D JUMP JUMPDEST SWAP4 POP PUSH2 0x20C1 DUP4 PUSH2 0x2311 JUMP JUMPDEST DUP1 PUSH1 0x0 JUMPDEST DUP4 DUP2 LT ISZERO PUSH2 0x20F2 JUMPI DUP2 MLOAD PUSH2 0x20D9 DUP9 DUP3 PUSH2 0x200D JUMP JUMPDEST SWAP8 POP PUSH2 0x20E4 DUP4 PUSH2 0x234F JUMP JUMPDEST SWAP3 POP POP PUSH1 0x1 DUP2 ADD SWAP1 POP PUSH2 0x20C5 JUMP JUMPDEST POP DUP6 SWAP4 POP POP POP POP SWAP3 SWAP2 POP POP JUMP JUMPDEST PUSH2 0x2108 DUP2 PUSH2 0x23AC JUMP JUMPDEST DUP3 MSTORE POP POP JUMP JUMPDEST PUSH2 0x2117 DUP2 PUSH2 0x23B8 JUMP JUMPDEST DUP3 MSTORE POP POP JUMP JUMPDEST PUSH1 0x0 PUSH2 0x2128 DUP3 PUSH2 0x2337 JUMP JUMPDEST PUSH2 0x2132 DUP2 DUP6 PUSH2 0x237E JUMP JUMPDEST SWAP4 POP PUSH2 0x2142 DUP2 DUP6 PUSH1 0x20 DUP7 ADD PUSH2 0x23FB JUMP JUMPDEST PUSH2 0x214B DUP2 PUSH2 0x2549 JUMP JUMPDEST DUP5 ADD SWAP2 POP POP SWAP3 SWAP2 POP POP JUMP JUMPDEST PUSH1 0x0 PUSH2 0x2161 DUP3 PUSH2 0x2337 JUMP JUMPDEST PUSH2 0x216B DUP2 DUP6 PUSH2 0x238F JUMP JUMPDEST SWAP4 POP PUSH2 0x217B DUP2 DUP6 PUSH1 0x20 DUP7 ADD PUSH2 0x23FB JUMP JUMPDEST DUP1 DUP5 ADD SWAP2 POP POP SWAP3 SWAP2 POP POP JUMP JUMPDEST PUSH1 0x0 PUSH2 0x2194 PUSH1 0xF DUP4 PUSH2 0x238F JUMP JUMPDEST SWAP2 POP PUSH2 0x219F DUP3 PUSH2 0x255A JUMP JUMPDEST PUSH1 0xF DUP3 ADD SWAP1 POP SWAP2 SWAP1 POP JUMP JUMPDEST PUSH1 0x0 PUSH2 0x21B7 PUSH1 0x3E DUP4 PUSH2 0x237E JUMP JUMPDEST SWAP2 POP PUSH2 0x21C2 DUP3 PUSH2 0x2583 JUMP JUMPDEST PUSH1 0x40 DUP3 ADD SWAP1 POP SWAP2 SWAP1 POP JUMP JUMPDEST PUSH1 0x0 PUSH2 0x21D8 DUP3 PUSH2 0x2187 JUMP JUMPDEST SWAP2 POP PUSH2 0x21E4 DUP3 DUP5 PUSH2 0x2156 JUMP JUMPDEST SWAP2 POP DUP2 SWAP1 POP SWAP3 SWAP2 POP POP JUMP JUMPDEST PUSH1 0x0 PUSH1 0x20 DUP3 ADD SWAP1 POP PUSH2 0x2204 PUSH1 0x0 DUP4 ADD DUP5 PUSH2 0x2034 JUMP JUMPDEST SWAP3 SWAP2 POP POP JUMP JUMPDEST PUSH1 0x0 PUSH1 0x20 DUP3 ADD SWAP1 POP DUP2 DUP2 SUB PUSH1 0x0 DUP4 ADD MSTORE PUSH2 0x2224 DUP2 DUP5 PUSH2 0x2043 JUMP JUMPDEST SWAP1 POP SWAP3 SWAP2 POP POP JUMP JUMPDEST PUSH1 0x0 PUSH1 0x20 DUP3 ADD SWAP1 POP DUP2 DUP2 SUB PUSH1 0x0 DUP4 ADD MSTORE PUSH2 0x2246 DUP2 DUP5 PUSH2 0x20A1 JUMP JUMPDEST SWAP1 POP SWAP3 SWAP2 POP POP JUMP JUMPDEST PUSH1 0x0 PUSH1 0x20 DUP3 ADD SWAP1 POP PUSH2 0x2263 PUSH1 0x0 DUP4 ADD DUP5 PUSH2 0x20FF JUMP JUMPDEST SWAP3 SWAP2 POP POP JUMP JUMPDEST PUSH1 0x0 PUSH1 0x20 DUP3 ADD SWAP1 POP DUP2 DUP2 SUB PUSH1 0x0 DUP4 ADD MSTORE PUSH2 0x2283 DUP2 DUP5 PUSH2 0x211D JUMP JUMPDEST SWAP1 POP SWAP3 SWAP2 POP POP JUMP JUMPDEST PUSH1 0x0 PUSH1 0x20 DUP3 ADD SWAP1 POP DUP2 DUP2 SUB PUSH1 0x0 DUP4 ADD MSTORE PUSH2 0x22A4 DUP2 PUSH2 0x21AA JUMP JUMPDEST SWAP1 POP SWAP2 SWAP1 POP JUMP JUMPDEST PUSH1 0x0 PUSH2 0x22B5 PUSH2 0x22C6 JUMP JUMPDEST SWAP1 POP PUSH2 0x22C1 DUP3 DUP3 PUSH2 0x242E JUMP JUMPDEST SWAP2 SWAP1 POP JUMP JUMPDEST PUSH1 0x0 PUSH1 0x40 MLOAD SWAP1 POP SWAP1 JUMP JUMPDEST PUSH1 0x0 PUSH8 0xFFFFFFFFFFFFFFFF DUP3 GT ISZERO PUSH2 0x22EB JUMPI PUSH2 0x22EA PUSH2 0x2506 JUMP JUMPDEST JUMPDEST PUSH2 0x22F4 DUP3 PUSH2 0x2549 JUMP JUMPDEST SWAP1 POP PUSH1 0x20 DUP2 ADD SWAP1 POP SWAP2 SWAP1 POP JUMP JUMPDEST PUSH1 0x0 DUP2 SWAP1 POP PUSH1 0x20 DUP3 ADD SWAP1 POP SWAP2 SWAP1 POP JUMP JUMPDEST PUSH1 0x0 DUP2 SWAP1 POP PUSH1 0x20 DUP3 ADD SWAP1 POP SWAP2 SWAP1 POP JUMP JUMPDEST PUSH1 0x0 DUP2 MLOAD SWAP1 POP SWAP2 SWAP1 POP JUMP JUMPDEST PUSH1 0x0 DUP2 MLOAD SWAP1 POP SWAP2 SWAP1 POP JUMP JUMPDEST PUSH1 0x0 DUP2 MLOAD SWAP1 POP SWAP2 SWAP1 POP JUMP JUMPDEST PUSH1 0x0 PUSH1 0x20 DUP3 ADD SWAP1 POP SWAP2 SWAP1 POP JUMP JUMPDEST PUSH1 0x0 PUSH1 0x20 DUP3 ADD SWAP1 POP SWAP2 SWAP1 POP JUMP JUMPDEST PUSH1 0x0 DUP3 DUP3 MSTORE PUSH1 0x20 DUP3 ADD SWAP1 POP SWAP3 SWAP2 POP POP JUMP JUMPDEST PUSH1 0x0 DUP3 DUP3 MSTORE PUSH1 0x20 DUP3 ADD SWAP1 POP SWAP3 SWAP2 POP POP JUMP JUMPDEST PUSH1 0x0 DUP3 DUP3 MSTORE PUSH1 0x20 DUP3 ADD SWAP1 POP SWAP3 SWAP2 POP POP JUMP JUMPDEST PUSH1 0x0 DUP2 SWAP1 POP SWAP3 SWAP2 POP POP JUMP JUMPDEST PUSH1 0x0 PUSH2 0x23A5 DUP3 PUSH2 0x23C2 JUMP JUMPDEST SWAP1 POP SWAP2 SWAP1 POP JUMP JUMPDEST PUSH1 0x0 DUP2 ISZERO ISZERO SWAP1 POP SWAP2 SWAP1 POP JUMP JUMPDEST PUSH1 0x0 DUP2 SWAP1 POP SWAP2 SWAP1 POP JUMP JUMPDEST PUSH1 0x0 PUSH20 0xFFFFFFFFFFFFFFFFFFFFFFFFFFFFFFFFFFFFFFFF DUP3 AND SWAP1 POP SWAP2 SWAP1 POP JUMP JUMPDEST PUSH1 0x0 DUP2 SWAP1 POP SWAP2 SWAP1 POP JUMP JUMPDEST DUP3 DUP2 DUP4 CALLDATACOPY PUSH1 0x0 DUP4 DUP4 ADD MSTORE POP POP POP JUMP JUMPDEST PUSH1 0x0 JUMPDEST DUP4 DUP2 LT ISZERO PUSH2 0x2419 JUMPI DUP1 DUP3 ADD MLOAD DUP2 DUP5 ADD MSTORE PUSH1 0x20 DUP2 ADD SWAP1 POP PUSH2 0x23FE JUMP JUMPDEST DUP4 DUP2 GT ISZERO PUSH2 0x2428 JUMPI PUSH1 0x0 DUP5 DUP5 ADD MSTORE JUMPDEST POP POP POP POP JUMP JUMPDEST PUSH2 0x2437 DUP3 PUSH2 0x2549 JUMP JUMPDEST DUP2 ADD DUP2 DUP2 LT PUSH8 0xFFFFFFFFFFFFFFFF DUP3 GT OR ISZERO PUSH2 0x2456 JUMPI PUSH2 0x2455 PUSH2 0x2506 JUMP JUMPDEST JUMPDEST DUP1 PUSH1 0x40 MSTORE POP POP POP JUMP JUMPDEST PUSH1 0x0 PUSH2 0x246A DUP3 PUSH2 0x23E2 JUMP JUMPDEST SWAP2 POP PUSH32 0xFFFFFFFFFFFFFFFFFFFFFFFFFFFFFFFFFFFFFFFFFFFFFFFFFFFFFFFFFFFFFFFF DUP3 EQ ISZERO PUSH2 0x249D JUMPI PUSH2 0x249C PUSH2 0x24A8 JUMP JUMPDEST JUMPDEST PUSH1 0x1 DUP3 ADD SWAP1 POP SWAP2 SWAP1 POP JUMP JUMPDEST PUSH32 0x4E487B7100000000000000000000000000000000000000000000000000000000 PUSH1 0x0 MSTORE PUSH1 0x11 PUSH1 0x4 MSTORE PUSH1 0x24 PUSH1 0x0 REVERT JUMPDEST PUSH32 0x4E487B7100000000000000000000000000000000000000000000000000000000 PUSH1 0x0 MSTORE PUSH1 0x32 PUSH1 0x4 MSTORE PUSH1 0x24 PUSH1 0x0 REVERT JUMPDEST PUSH32 0x4E487B7100000000000000000000000000000000000000000000000000000000 PUSH1 0x0 MSTORE PUSH1 0x41 PUSH1 0x4 MSTORE PUSH1 0x24 PUSH1 0x0 REVERT JUMPDEST PUSH1 0x0 DUP1 REVERT JUMPDEST PUSH1 0x0 DUP1 REVERT JUMPDEST PUSH1 0x0 DUP1 REVERT JUMPDEST PUSH1 0x0 DUP1 REVERT JUMPDEST PUSH1 0x0 PUSH1 0x1F NOT PUSH1 0x1F DUP4 ADD AND SWAP1 POP SWAP2 SWAP1 POP JUMP JUMPDEST PUSH32 0x416363657373436F6E74726F6C3A200000000000000000000000000000000000 PUSH1 0x0 DUP3 ADD MSTORE POP JUMP JUMPDEST PUSH32 0x416363657373436F6E74726F6C3A20596F752068617665206E6F207065726D69 PUSH1 0x0 DUP3 ADD MSTORE PUSH32 0x7373696F6E20746F2061636365737320746869732066756E6374696F6E2E0000 PUSH1 0x20 DUP3 ADD MSTORE POP JUMP JUMPDEST PUSH2 0x25DB DUP2 PUSH2 0x239A JUMP JUMPDEST DUP2 EQ PUSH2 0x25E6 JUMPI PUSH1 0x0 DUP1 REVERT JUMPDEST POP JUMP JUMPDEST PUSH2 0x25F2 DUP2 PUSH2 0x23B8 JUMP JUMPDEST DUP2 EQ PUSH2 0x25FD JUMPI PUSH1 0x0 DUP1 REVERT JUMPDEST POP JUMP INVALID SLOAD PUSH9 0x65207065726D697373 PUSH10 0x6F6E206973206E6F7420 PUSH23 0x616C6964206F7220746865206163636F756E7420697320 PUSH15 0x6F7420696E20746865207065726D69 PUSH20 0x73696F6E2EA2646970667358221220ED1880C02E NUMBER 0xCD SAR 0x2B 0x24 PUSH20 0x1B0A3836F40D23C618E7793106B91B46BDDEF38B DIFFICULTY PUSH5 0x736F6C6343 STOP ADDMOD SMOD STOP CALLER "
				},
				"gasEstimates": {
					"creation": {
						"codeDepositCost": "1970000",
						"executionCost": "infinite",
						"totalCost": "infinite"
					},
					"external": {
						"createPermission(string)": "infinite",
						"createPermissionByLevel(string,string)": "infinite",
						"deleteAccount(address)": "infinite",
						"deletePermission(string)": "infinite",
						"grantAccountPermission(string,address)": "infinite",
						"inquiryAccountPermission(bytes32,address)": "infinite",
						"inquiryAccountPermission(string,address)": "infinite",
						"inquiryAdmin()": "infinite",
						"inquiryAllAccountsByPermission(bytes32)": "infinite",
						"inquiryAllAccountsByPermission(string)": "infinite",
						"inquiryAllPermissionsByAccount(address)": "infinite",
						"revokeAccountPermission(string,address)": "infinite",
						"transferAdmin(address)": "infinite"
					}
				},
				"methodIdentifiers": {
					"createPermission(string)": "fe64a0d0",
					"createPermissionByLevel(string,string)": "0c7f0dd0",
					"deleteAccount(address)": "4c1b64cb",
					"deletePermission(string)": "437bf48b",
					"grantAccountPermission(string,address)": "b0258db8",
					"inquiryAccountPermission(bytes32,address)": "e9cb00a2",
					"inquiryAccountPermission(string,address)": "a076a09e",
					"inquiryAdmin()": "7058dd24",
					"inquiryAllAccountsByPermission(bytes32)": "9b8f3bbc",
					"inquiryAllAccountsByPermission(string)": "56353d82",
					"inquiryAllPermissionsByAccount(address)": "80891cb2",
					"revokeAccountPermission(string,address)": "a9c96787",
					"transferAdmin(address)": "75829def"
				}
			},
			"storageLayout": {
				"storage": [
					{
						"astId": 22,
						"contract": "contracts/organization/DaoAccessControl.sol:DaoAccessControl",
						"label": "_allPermissions",
						"offset": 0,
						"slot": "0",
						"type": "t_mapping(t_bytes32,t_struct(MembersData)17_storage)"
					},
					{
						"astId": 26,
						"contract": "contracts/organization/DaoAccessControl.sol:DaoAccessControl",
						"label": "_indexOfPermissions",
						"offset": 0,
						"slot": "1",
						"type": "t_mapping(t_uint256,t_bytes32)"
					},
					{
						"astId": 28,
						"contract": "contracts/organization/DaoAccessControl.sol:DaoAccessControl",
						"label": "_numberOfPermissions",
						"offset": 0,
						"slot": "2",
						"type": "t_uint256"
					}
				],
				"types": {
					"t_address": {
						"encoding": "inplace",
						"label": "address",
						"numberOfBytes": "20"
					},
					"t_bool": {
						"encoding": "inplace",
						"label": "bool",
						"numberOfBytes": "1"
					},
					"t_bytes32": {
						"encoding": "inplace",
						"label": "bytes32",
						"numberOfBytes": "32"
					},
					"t_mapping(t_address,t_bool)": {
						"encoding": "mapping",
						"key": "t_address",
						"label": "mapping(address => bool)",
						"numberOfBytes": "32",
						"value": "t_bool"
					},
					"t_mapping(t_bytes32,t_struct(MembersData)17_storage)": {
						"encoding": "mapping",
						"key": "t_bytes32",
						"label": "mapping(bytes32 => struct AccessControl.MembersData)",
						"numberOfBytes": "32",
						"value": "t_struct(MembersData)17_storage"
					},
					"t_mapping(t_uint256,t_address)": {
						"encoding": "mapping",
						"key": "t_uint256",
						"label": "mapping(uint256 => address)",
						"numberOfBytes": "32",
						"value": "t_address"
					},
					"t_mapping(t_uint256,t_bytes32)": {
						"encoding": "mapping",
						"key": "t_uint256",
						"label": "mapping(uint256 => bytes32)",
						"numberOfBytes": "32",
						"value": "t_bytes32"
					},
					"t_struct(MembersData)17_storage": {
						"encoding": "inplace",
						"label": "struct AccessControl.MembersData",
						"members": [
							{
								"astId": 8,
								"contract": "contracts/organization/DaoAccessControl.sol:DaoAccessControl",
								"label": "members",
								"offset": 0,
								"slot": "0",
								"type": "t_mapping(t_address,t_bool)"
							},
							{
								"astId": 12,
								"contract": "contracts/organization/DaoAccessControl.sol:DaoAccessControl",
								"label": "index",
								"offset": 0,
								"slot": "1",
								"type": "t_mapping(t_uint256,t_address)"
							},
							{
								"astId": 14,
								"contract": "contracts/organization/DaoAccessControl.sol:DaoAccessControl",
								"label": "length",
								"offset": 0,
								"slot": "2",
								"type": "t_uint256"
							},
							{
								"astId": 16,
								"contract": "contracts/organization/DaoAccessControl.sol:DaoAccessControl",
								"label": "isValid",
								"offset": 0,
								"slot": "3",
								"type": "t_bool"
							}
						],
						"numberOfBytes": "128"
					},
					"t_uint256": {
						"encoding": "inplace",
						"label": "uint256",
						"numberOfBytes": "32"
					}
				}
			},
			"userdoc": {
				"kind": "user",
				"methods": {},
				"version": 1
			}
		}
	}
}