{
	"contracts/project-name1/ProjectAccessControl.sol": {
		"ProjectAccessControl": {
			"abi": [
				{
					"inputs": [
						{
							"internalType": "address",
							"name": "daoAccessControlAddress",
							"type": "address"
						},
						{
							"internalType": "string",
							"name": "projectAdminName",
							"type": "string"
						},
						{
							"internalType": "string",
							"name": "projectAdminEmail",
							"type": "string"
						}
					],
					"stateMutability": "nonpayable",
					"type": "constructor"
				},
				{
					"anonymous": false,
					"inputs": [
						{
							"indexed": true,
							"internalType": "address",
							"name": "account",
							"type": "address"
						},
						{
							"indexed": true,
							"internalType": "address",
							"name": "sender",
							"type": "address"
						}
					],
					"name": "AccountDeleted",
					"type": "event"
				},
				{
					"anonymous": false,
					"inputs": [
						{
							"indexed": true,
							"internalType": "address",
							"name": "newAdmin",
							"type": "address"
						},
						{
							"indexed": true,
							"internalType": "address",
							"name": "previousAdmin",
							"type": "address"
						}
					],
					"name": "AdminTransfered",
					"type": "event"
				},
				{
					"anonymous": false,
					"inputs": [
						{
							"indexed": true,
							"internalType": "bytes",
							"name": "permissionName",
							"type": "bytes"
						},
						{
							"indexed": true,
							"internalType": "address",
							"name": "sender",
							"type": "address"
						}
					],
					"name": "PermissionCreated",
					"type": "event"
				},
				{
					"anonymous": false,
					"inputs": [
						{
							"indexed": true,
							"internalType": "bytes",
							"name": "permissionName",
							"type": "bytes"
						},
						{
							"indexed": true,
							"internalType": "address",
							"name": "sender",
							"type": "address"
						}
					],
					"name": "PermissionDeleted",
					"type": "event"
				},
				{
					"anonymous": false,
					"inputs": [
						{
							"indexed": true,
							"internalType": "bytes",
							"name": "permissionName",
							"type": "bytes"
						},
						{
							"indexed": true,
							"internalType": "address",
							"name": "account",
							"type": "address"
						},
						{
							"indexed": true,
							"internalType": "address",
							"name": "sender",
							"type": "address"
						}
					],
					"name": "PermissionGranted",
					"type": "event"
				},
				{
					"anonymous": false,
					"inputs": [
						{
							"indexed": true,
							"internalType": "bytes",
							"name": "permissionName",
							"type": "bytes"
						},
						{
							"indexed": true,
							"internalType": "address",
							"name": "account",
							"type": "address"
						},
						{
							"indexed": true,
							"internalType": "address",
							"name": "sender",
							"type": "address"
						}
					],
					"name": "PermissionRevoked",
					"type": "event"
				},
				{
					"inputs": [],
					"name": "adminEmail",
					"outputs": [
						{
							"internalType": "string",
							"name": "",
							"type": "string"
						}
					],
					"stateMutability": "view",
					"type": "function"
				},
				{
					"inputs": [],
					"name": "adminName",
					"outputs": [
						{
							"internalType": "string",
							"name": "",
							"type": "string"
						}
					],
					"stateMutability": "view",
					"type": "function"
				},
				{
					"inputs": [
						{
							"internalType": "bytes",
							"name": "permissionName",
							"type": "bytes"
						}
					],
					"name": "createPermission",
					"outputs": [],
					"stateMutability": "nonpayable",
					"type": "function"
				},
				{
					"inputs": [
						{
							"internalType": "bytes",
							"name": "permissionName",
							"type": "bytes"
						},
						{
							"internalType": "bytes",
							"name": "permissionAlready",
							"type": "bytes"
						}
					],
					"name": "createPermissionByLevel",
					"outputs": [],
					"stateMutability": "nonpayable",
					"type": "function"
				},
				{
					"inputs": [
						{
							"internalType": "address",
							"name": "account",
							"type": "address"
						}
					],
					"name": "deleteAccount",
					"outputs": [],
					"stateMutability": "nonpayable",
					"type": "function"
				},
				{
					"inputs": [
						{
							"internalType": "bytes",
							"name": "permissionName",
							"type": "bytes"
						}
					],
					"name": "deletePermission",
					"outputs": [],
					"stateMutability": "nonpayable",
					"type": "function"
				},
				{
					"inputs": [
						{
							"internalType": "bytes",
							"name": "permissionName",
							"type": "bytes"
						},
						{
							"internalType": "address",
							"name": "account",
							"type": "address"
						}
					],
					"name": "grantAccountPermission",
					"outputs": [],
					"stateMutability": "nonpayable",
					"type": "function"
				},
				{
					"inputs": [
						{
							"internalType": "bytes32",
							"name": "permission",
							"type": "bytes32"
						},
						{
							"internalType": "address",
							"name": "account",
							"type": "address"
						}
					],
					"name": "inquiryAccountPermission",
					"outputs": [
						{
							"internalType": "bool",
							"name": "",
							"type": "bool"
						}
					],
					"stateMutability": "view",
					"type": "function"
				},
				{
					"inputs": [],
					"name": "inquiryAdmin",
					"outputs": [
						{
							"internalType": "address",
							"name": "",
							"type": "address"
						}
					],
					"stateMutability": "view",
					"type": "function"
				},
				{
					"inputs": [
						{
							"internalType": "bytes32",
							"name": "permission",
							"type": "bytes32"
						}
					],
					"name": "inquiryAllAccountsByPermission",
					"outputs": [
						{
							"internalType": "address[]",
							"name": "",
							"type": "address[]"
						}
					],
					"stateMutability": "view",
					"type": "function"
				},
				{
					"inputs": [
						{
							"internalType": "address",
							"name": "account",
							"type": "address"
						}
					],
					"name": "inquiryAllPermissionsByAccount",
					"outputs": [
						{
							"internalType": "bytes32[]",
							"name": "",
							"type": "bytes32[]"
						}
					],
					"stateMutability": "view",
					"type": "function"
				},
				{
					"inputs": [
						{
							"internalType": "bytes",
							"name": "permissionName",
							"type": "bytes"
						},
						{
							"internalType": "address",
							"name": "account",
							"type": "address"
						}
					],
					"name": "revokeAccountPermission",
					"outputs": [],
					"stateMutability": "nonpayable",
					"type": "function"
				},
				{
					"inputs": [
						{
							"internalType": "address",
							"name": "account",
							"type": "address"
						}
					],
					"name": "transferAdmin",
					"outputs": [],
					"stateMutability": "nonpayable",
					"type": "function"
				}
			],
			"devdoc": {
				"kind": "dev",
				"methods": {},
				"version": 1
			},
			"evm": {
				"assembly": "    /* \"contracts/project-name1/ProjectAccessControl.sol\":131:3184  contract ProjectAccessControl is AccessControl{\r... */\n  mstore(0x40, 0x80)\n    /* \"contracts/project-name1/ProjectAccessControl.sol\":234:262  string public adminName = \"\" */\n  mload(0x40)\n  dup1\n  0x20\n  add\n  0x40\n  mstore\n  dup1\n  0x00\n  dup2\n  mstore\n  pop\n  0x04\n  swap1\n  dup1\n  mload\n  swap1\n  0x20\n  add\n  swap1\n  tag_1\n  swap3\n  swap2\n  swap1\n  tag_2\n  jump\t// in\ntag_1:\n  pop\n    /* \"contracts/project-name1/ProjectAccessControl.sol\":269:298  string public adminEmail = \"\" */\n  mload(0x40)\n  dup1\n  0x20\n  add\n  0x40\n  mstore\n  dup1\n  0x00\n  dup2\n  mstore\n  pop\n  0x05\n  swap1\n  dup1\n  mload\n  swap1\n  0x20\n  add\n  swap1\n  tag_3\n  swap3\n  swap2\n  swap1\n  tag_2\n  jump\t// in\ntag_3:\n  pop\n    /* \"contracts/project-name1/ProjectAccessControl.sol\":307:598  constructor(address daoAccessControlAddress, string memory projectAdminName, string memory projectAdminEmail) {\r... */\n  callvalue\n  dup1\n  iszero\n  tag_4\n  jumpi\n  0x00\n  dup1\n  revert\ntag_4:\n  pop\n  mload(0x40)\n  sub(codesize, bytecodeSize)\n  dup1\n  bytecodeSize\n  dup4\n  codecopy\n  dup2\n  dup2\n  add\n  0x40\n  mstore\n  dup2\n  add\n  swap1\n  tag_5\n  swap2\n  swap1\n  tag_6\n  jump\t// in\ntag_5:\n    /* \"contracts/project-name1/ProjectAccessControl.sol\":428:441  _initialize() */\n  tag_9\n    /* \"contracts/project-name1/ProjectAccessControl.sol\":428:439  _initialize */\n  shl(0x20, tag_10)\n    /* \"contracts/project-name1/ProjectAccessControl.sol\":428:441  _initialize() */\n  0x20\n  shr\n  jump\t// in\ntag_9:\n    /* \"contracts/project-name1/ProjectAccessControl.sol\":486:509  daoAccessControlAddress */\n  dup3\n    /* \"contracts/project-name1/ProjectAccessControl.sol\":452:468  daoAccessControl */\n  0x03\n  0x00\n    /* \"contracts/project-name1/ProjectAccessControl.sol\":452:510  daoAccessControl = IAccessControl(daoAccessControlAddress) */\n  0x0100\n  exp\n  dup2\n  sload\n  dup2\n  0xffffffffffffffffffffffffffffffffffffffff\n  mul\n  not\n  and\n  swap1\n  dup4\n  0xffffffffffffffffffffffffffffffffffffffff\n  and\n  mul\n  or\n  swap1\n  sstore\n  pop\n    /* \"contracts/project-name1/ProjectAccessControl.sol\":533:549  projectAdminName */\n  dup2\n    /* \"contracts/project-name1/ProjectAccessControl.sol\":521:530  adminName */\n  0x04\n    /* \"contracts/project-name1/ProjectAccessControl.sol\":521:549  adminName = projectAdminName */\n  swap1\n  dup1\n  mload\n  swap1\n  0x20\n  add\n  swap1\n  tag_11\n  swap3\n  swap2\n  swap1\n  tag_2\n  jump\t// in\ntag_11:\n  pop\n    /* \"contracts/project-name1/ProjectAccessControl.sol\":573:590  projectAdminEmail */\n  dup1\n    /* \"contracts/project-name1/ProjectAccessControl.sol\":560:570  adminEmail */\n  0x05\n    /* \"contracts/project-name1/ProjectAccessControl.sol\":560:590  adminEmail = projectAdminEmail */\n  swap1\n  dup1\n  mload\n  swap1\n  0x20\n  add\n  swap1\n  tag_12\n  swap3\n  swap2\n  swap1\n  tag_2\n  jump\t// in\ntag_12:\n  pop\n    /* \"contracts/project-name1/ProjectAccessControl.sol\":307:598  constructor(address daoAccessControlAddress, string memory projectAdminName, string memory projectAdminEmail) {\r... */\n  pop\n  pop\n  pop\n    /* \"contracts/project-name1/ProjectAccessControl.sol\":131:3184  contract ProjectAccessControl is AccessControl{\r... */\n  jump(tag_13)\n    /* \"contracts/AccessControl.sol\":2472:2805  function _initialize() internal virtual {\r... */\ntag_10:\n    /* \"contracts/AccessControl.sol\":2556:2560  true */\n  0x01\n    /* \"contracts/AccessControl.sol\":2523:2538  _allPermissions */\n  0x00\n    /* \"contracts/AccessControl.sol\":2523:2545  _allPermissions[ADMIN] */\n  dup1\n    /* \"contracts/AccessControl.sol\":677:695  keccak256(\"ADMIN\") */\n  0xdf8b4c520ffe197c5343c6f5aec59570151ef9a492f2c624fd45ddde6135ec42\n    /* \"contracts/AccessControl.sol\":2523:2545  _allPermissions[ADMIN] */\n  dup2\n  mstore\n  0x20\n  add\n  swap1\n  dup2\n  mstore\n  0x20\n  add\n  0x00\n  keccak256\n    /* \"contracts/AccessControl.sol\":2523:2553  _allPermissions[ADMIN].isValid */\n  0x03\n  add\n  0x00\n    /* \"contracts/AccessControl.sol\":2523:2560  _allPermissions[ADMIN].isValid = true */\n  0x0100\n  exp\n  dup2\n  sload\n  dup2\n  0xff\n  mul\n  not\n  and\n  swap1\n  dup4\n  iszero\n  iszero\n  mul\n  or\n  swap1\n  sstore\n  pop\n    /* \"contracts/AccessControl.sol\":2616:2620  true */\n  0x01\n    /* \"contracts/AccessControl.sol\":2571:2586  _allPermissions */\n  0x00\n    /* \"contracts/AccessControl.sol\":2571:2593  _allPermissions[ADMIN] */\n  dup1\n    /* \"contracts/AccessControl.sol\":677:695  keccak256(\"ADMIN\") */\n  0xdf8b4c520ffe197c5343c6f5aec59570151ef9a492f2c624fd45ddde6135ec42\n    /* \"contracts/AccessControl.sol\":2571:2593  _allPermissions[ADMIN] */\n  dup2\n  mstore\n  0x20\n  add\n  swap1\n  dup2\n  mstore\n  0x20\n  add\n  0x00\n  keccak256\n    /* \"contracts/AccessControl.sol\":2571:2601  _allPermissions[ADMIN].members */\n  0x00\n  add\n    /* \"contracts/AccessControl.sol\":2571:2613  _allPermissions[ADMIN].members[msg.sender] */\n  0x00\n    /* \"contracts/AccessControl.sol\":2602:2612  msg.sender */\n  caller\n    /* \"contracts/AccessControl.sol\":2571:2613  _allPermissions[ADMIN].members[msg.sender] */\n  0xffffffffffffffffffffffffffffffffffffffff\n  and\n  0xffffffffffffffffffffffffffffffffffffffff\n  and\n  dup2\n  mstore\n  0x20\n  add\n  swap1\n  dup2\n  mstore\n  0x20\n  add\n  0x00\n  keccak256\n  0x00\n    /* \"contracts/AccessControl.sol\":2571:2620  _allPermissions[ADMIN].members[msg.sender] = true */\n  0x0100\n  exp\n  dup2\n  sload\n  dup2\n  0xff\n  mul\n  not\n  and\n  swap1\n  dup4\n  iszero\n  iszero\n  mul\n  or\n  swap1\n  sstore\n  pop\n    /* \"contracts/AccessControl.sol\":2665:2675  msg.sender */\n  caller\n    /* \"contracts/AccessControl.sol\":2631:2646  _allPermissions */\n  0x00\n    /* \"contracts/AccessControl.sol\":2631:2653  _allPermissions[ADMIN] */\n  dup1\n    /* \"contracts/AccessControl.sol\":677:695  keccak256(\"ADMIN\") */\n  0xdf8b4c520ffe197c5343c6f5aec59570151ef9a492f2c624fd45ddde6135ec42\n    /* \"contracts/AccessControl.sol\":2631:2653  _allPermissions[ADMIN] */\n  dup2\n  mstore\n  0x20\n  add\n  swap1\n  dup2\n  mstore\n  0x20\n  add\n  0x00\n  keccak256\n    /* \"contracts/AccessControl.sol\":2631:2659  _allPermissions[ADMIN].index */\n  0x01\n  add\n    /* \"contracts/AccessControl.sol\":2631:2662  _allPermissions[ADMIN].index[0] */\n  0x00\n    /* \"contracts/AccessControl.sol\":2660:2661  0 */\n  dup1\n    /* \"contracts/AccessControl.sol\":2631:2662  _allPermissions[ADMIN].index[0] */\n  dup2\n  mstore\n  0x20\n  add\n  swap1\n  dup2\n  mstore\n  0x20\n  add\n  0x00\n  keccak256\n  0x00\n    /* \"contracts/AccessControl.sol\":2631:2675  _allPermissions[ADMIN].index[0] = msg.sender */\n  0x0100\n  exp\n  dup2\n  sload\n  dup2\n  0xffffffffffffffffffffffffffffffffffffffff\n  mul\n  not\n  and\n  swap1\n  dup4\n  0xffffffffffffffffffffffffffffffffffffffff\n  and\n  mul\n  or\n  swap1\n  sstore\n  pop\n    /* \"contracts/AccessControl.sol\":2718:2719  1 */\n  0x01\n    /* \"contracts/AccessControl.sol\":2686:2701  _allPermissions */\n  0x00\n    /* \"contracts/AccessControl.sol\":2686:2708  _allPermissions[ADMIN] */\n  dup1\n    /* \"contracts/AccessControl.sol\":677:695  keccak256(\"ADMIN\") */\n  0xdf8b4c520ffe197c5343c6f5aec59570151ef9a492f2c624fd45ddde6135ec42\n    /* \"contracts/AccessControl.sol\":2686:2708  _allPermissions[ADMIN] */\n  dup2\n  mstore\n  0x20\n  add\n  swap1\n  dup2\n  mstore\n  0x20\n  add\n  0x00\n  keccak256\n    /* \"contracts/AccessControl.sol\":2686:2715  _allPermissions[ADMIN].length */\n  0x02\n  add\n    /* \"contracts/AccessControl.sol\":2686:2719  _allPermissions[ADMIN].length = 1 */\n  dup2\n  swap1\n  sstore\n  pop\n    /* \"contracts/AccessControl.sol\":2755:2756  1 */\n  0x01\n    /* \"contracts/AccessControl.sol\":2732:2752  _numberOfPermissions */\n  0x02\n    /* \"contracts/AccessControl.sol\":2732:2756  _numberOfPermissions = 1 */\n  dup2\n  swap1\n  sstore\n  pop\n    /* \"contracts/AccessControl.sol\":677:695  keccak256(\"ADMIN\") */\n  0xdf8b4c520ffe197c5343c6f5aec59570151ef9a492f2c624fd45ddde6135ec42\n    /* \"contracts/AccessControl.sol\":2767:2786  _indexOfPermissions */\n  0x01\n    /* \"contracts/AccessControl.sol\":2767:2789  _indexOfPermissions[0] */\n  0x00\n    /* \"contracts/AccessControl.sol\":2787:2788  0 */\n  dup1\n    /* \"contracts/AccessControl.sol\":2767:2789  _indexOfPermissions[0] */\n  dup2\n  mstore\n  0x20\n  add\n  swap1\n  dup2\n  mstore\n  0x20\n  add\n  0x00\n  keccak256\n    /* \"contracts/AccessControl.sol\":2767:2797  _indexOfPermissions[0] = ADMIN */\n  dup2\n  swap1\n  sstore\n  pop\n    /* \"contracts/AccessControl.sol\":2472:2805  function _initialize() internal virtual {\r... */\n  jump\t// out\n    /* \"contracts/project-name1/ProjectAccessControl.sol\":131:3184  contract ProjectAccessControl is AccessControl{\r... */\ntag_2:\n  dup3\n  dup1\n  sload\n  tag_15\n  swap1\n  tag_16\n  jump\t// in\ntag_15:\n  swap1\n  0x00\n  mstore\n  keccak256(0x00, 0x20)\n  swap1\n  0x1f\n  add\n  0x20\n  swap1\n  div\n  dup2\n  add\n  swap3\n  dup3\n  tag_18\n  jumpi\n  0x00\n  dup6\n  sstore\n  jump(tag_17)\ntag_18:\n  dup3\n  0x1f\n  lt\n  tag_19\n  jumpi\n  dup1\n  mload\n  not(0xff)\n  and\n  dup4\n  dup1\n  add\n  or\n  dup6\n  sstore\n  jump(tag_17)\ntag_19:\n  dup3\n  dup1\n  add\n  0x01\n  add\n  dup6\n  sstore\n  dup3\n  iszero\n  tag_17\n  jumpi\n  swap2\n  dup3\n  add\ntag_20:\n  dup3\n  dup2\n  gt\n  iszero\n  tag_21\n  jumpi\n  dup3\n  mload\n  dup3\n  sstore\n  swap2\n  0x20\n  add\n  swap2\n  swap1\n  0x01\n  add\n  swap1\n  jump(tag_20)\ntag_21:\ntag_17:\n  pop\n  swap1\n  pop\n  tag_22\n  swap2\n  swap1\n  tag_23\n  jump\t// in\ntag_22:\n  pop\n  swap1\n  jump\t// out\ntag_23:\ntag_24:\n  dup1\n  dup3\n  gt\n  iszero\n  tag_25\n  jumpi\n  0x00\n  dup2\n  0x00\n  swap1\n  sstore\n  pop\n  0x01\n  add\n  jump(tag_24)\ntag_25:\n  pop\n  swap1\n  jump\t// out\n    /* \"#utility.yul\":7:428   */\ntag_27:\n    /* \"#utility.yul\":96:101   */\n  0x00\n    /* \"#utility.yul\":121:187   */\n  tag_29\n    /* \"#utility.yul\":137:186   */\n  tag_30\n    /* \"#utility.yul\":179:185   */\n  dup5\n    /* \"#utility.yul\":137:186   */\n  tag_31\n  jump\t// in\ntag_30:\n    /* \"#utility.yul\":121:187   */\n  tag_32\n  jump\t// in\ntag_29:\n    /* \"#utility.yul\":112:187   */\n  swap1\n  pop\n    /* \"#utility.yul\":210:216   */\n  dup3\n    /* \"#utility.yul\":203:208   */\n  dup2\n    /* \"#utility.yul\":196:217   */\n  mstore\n    /* \"#utility.yul\":248:252   */\n  0x20\n    /* \"#utility.yul\":241:246   */\n  dup2\n    /* \"#utility.yul\":237:253   */\n  add\n    /* \"#utility.yul\":286:289   */\n  dup5\n    /* \"#utility.yul\":277:283   */\n  dup5\n    /* \"#utility.yul\":272:275   */\n  dup5\n    /* \"#utility.yul\":268:284   */\n  add\n    /* \"#utility.yul\":265:290   */\n  gt\n    /* \"#utility.yul\":262:374   */\n  iszero\n  tag_33\n  jumpi\n    /* \"#utility.yul\":293:372   */\n  tag_34\n  tag_35\n  jump\t// in\ntag_34:\n    /* \"#utility.yul\":262:374   */\ntag_33:\n    /* \"#utility.yul\":383:422   */\n  tag_36\n    /* \"#utility.yul\":415:421   */\n  dup5\n    /* \"#utility.yul\":410:413   */\n  dup3\n    /* \"#utility.yul\":405:408   */\n  dup6\n    /* \"#utility.yul\":383:422   */\n  tag_37\n  jump\t// in\ntag_36:\n    /* \"#utility.yul\":102:428   */\n  pop\n    /* \"#utility.yul\":7:428   */\n  swap4\n  swap3\n  pop\n  pop\n  pop\n  jump\t// out\n    /* \"#utility.yul\":434:577   */\ntag_38:\n    /* \"#utility.yul\":491:496   */\n  0x00\n    /* \"#utility.yul\":522:528   */\n  dup2\n    /* \"#utility.yul\":516:529   */\n  mload\n    /* \"#utility.yul\":507:529   */\n  swap1\n  pop\n    /* \"#utility.yul\":538:571   */\n  tag_40\n    /* \"#utility.yul\":565:570   */\n  dup2\n    /* \"#utility.yul\":538:571   */\n  tag_41\n  jump\t// in\ntag_40:\n    /* \"#utility.yul\":434:577   */\n  swap3\n  swap2\n  pop\n  pop\n  jump\t// out\n    /* \"#utility.yul\":597:952   */\ntag_42:\n    /* \"#utility.yul\":664:669   */\n  0x00\n    /* \"#utility.yul\":713:716   */\n  dup3\n    /* \"#utility.yul\":706:710   */\n  0x1f\n    /* \"#utility.yul\":698:704   */\n  dup4\n    /* \"#utility.yul\":694:711   */\n  add\n    /* \"#utility.yul\":690:717   */\n  slt\n    /* \"#utility.yul\":680:802   */\n  tag_44\n  jumpi\n    /* \"#utility.yul\":721:800   */\n  tag_45\n  tag_46\n  jump\t// in\ntag_45:\n    /* \"#utility.yul\":680:802   */\ntag_44:\n    /* \"#utility.yul\":831:837   */\n  dup2\n    /* \"#utility.yul\":825:838   */\n  mload\n    /* \"#utility.yul\":856:946   */\n  tag_47\n    /* \"#utility.yul\":942:945   */\n  dup5\n    /* \"#utility.yul\":934:940   */\n  dup3\n    /* \"#utility.yul\":927:931   */\n  0x20\n    /* \"#utility.yul\":919:925   */\n  dup7\n    /* \"#utility.yul\":915:932   */\n  add\n    /* \"#utility.yul\":856:946   */\n  tag_27\n  jump\t// in\ntag_47:\n    /* \"#utility.yul\":847:946   */\n  swap2\n  pop\n    /* \"#utility.yul\":670:952   */\n  pop\n    /* \"#utility.yul\":597:952   */\n  swap3\n  swap2\n  pop\n  pop\n  jump\t// out\n    /* \"#utility.yul\":958:1967   */\ntag_6:\n    /* \"#utility.yul\":1066:1072   */\n  0x00\n    /* \"#utility.yul\":1074:1080   */\n  dup1\n    /* \"#utility.yul\":1082:1088   */\n  0x00\n    /* \"#utility.yul\":1131:1133   */\n  0x60\n    /* \"#utility.yul\":1119:1128   */\n  dup5\n    /* \"#utility.yul\":1110:1117   */\n  dup7\n    /* \"#utility.yul\":1106:1129   */\n  sub\n    /* \"#utility.yul\":1102:1134   */\n  slt\n    /* \"#utility.yul\":1099:1218   */\n  iszero\n  tag_49\n  jumpi\n    /* \"#utility.yul\":1137:1216   */\n  tag_50\n  tag_51\n  jump\t// in\ntag_50:\n    /* \"#utility.yul\":1099:1218   */\ntag_49:\n    /* \"#utility.yul\":1257:1258   */\n  0x00\n    /* \"#utility.yul\":1282:1346   */\n  tag_52\n    /* \"#utility.yul\":1338:1345   */\n  dup7\n    /* \"#utility.yul\":1329:1335   */\n  dup3\n    /* \"#utility.yul\":1318:1327   */\n  dup8\n    /* \"#utility.yul\":1314:1336   */\n  add\n    /* \"#utility.yul\":1282:1346   */\n  tag_38\n  jump\t// in\ntag_52:\n    /* \"#utility.yul\":1272:1346   */\n  swap4\n  pop\n    /* \"#utility.yul\":1228:1356   */\n  pop\n    /* \"#utility.yul\":1416:1418   */\n  0x20\n    /* \"#utility.yul\":1405:1414   */\n  dup5\n    /* \"#utility.yul\":1401:1419   */\n  add\n    /* \"#utility.yul\":1395:1420   */\n  mload\n    /* \"#utility.yul\":1447:1465   */\n  0xffffffffffffffff\n    /* \"#utility.yul\":1439:1445   */\n  dup2\n    /* \"#utility.yul\":1436:1466   */\n  gt\n    /* \"#utility.yul\":1433:1550   */\n  iszero\n  tag_53\n  jumpi\n    /* \"#utility.yul\":1469:1548   */\n  tag_54\n  tag_55\n  jump\t// in\ntag_54:\n    /* \"#utility.yul\":1433:1550   */\ntag_53:\n    /* \"#utility.yul\":1574:1648   */\n  tag_56\n    /* \"#utility.yul\":1640:1647   */\n  dup7\n    /* \"#utility.yul\":1631:1637   */\n  dup3\n    /* \"#utility.yul\":1620:1629   */\n  dup8\n    /* \"#utility.yul\":1616:1638   */\n  add\n    /* \"#utility.yul\":1574:1648   */\n  tag_42\n  jump\t// in\ntag_56:\n    /* \"#utility.yul\":1564:1648   */\n  swap3\n  pop\n    /* \"#utility.yul\":1366:1658   */\n  pop\n    /* \"#utility.yul\":1718:1720   */\n  0x40\n    /* \"#utility.yul\":1707:1716   */\n  dup5\n    /* \"#utility.yul\":1703:1721   */\n  add\n    /* \"#utility.yul\":1697:1722   */\n  mload\n    /* \"#utility.yul\":1749:1767   */\n  0xffffffffffffffff\n    /* \"#utility.yul\":1741:1747   */\n  dup2\n    /* \"#utility.yul\":1738:1768   */\n  gt\n    /* \"#utility.yul\":1735:1852   */\n  iszero\n  tag_57\n  jumpi\n    /* \"#utility.yul\":1771:1850   */\n  tag_58\n  tag_55\n  jump\t// in\ntag_58:\n    /* \"#utility.yul\":1735:1852   */\ntag_57:\n    /* \"#utility.yul\":1876:1950   */\n  tag_59\n    /* \"#utility.yul\":1942:1949   */\n  dup7\n    /* \"#utility.yul\":1933:1939   */\n  dup3\n    /* \"#utility.yul\":1922:1931   */\n  dup8\n    /* \"#utility.yul\":1918:1940   */\n  add\n    /* \"#utility.yul\":1876:1950   */\n  tag_42\n  jump\t// in\ntag_59:\n    /* \"#utility.yul\":1866:1950   */\n  swap2\n  pop\n    /* \"#utility.yul\":1668:1960   */\n  pop\n    /* \"#utility.yul\":958:1967   */\n  swap3\n  pop\n  swap3\n  pop\n  swap3\n  jump\t// out\n    /* \"#utility.yul\":1973:2102   */\ntag_32:\n    /* \"#utility.yul\":2007:2013   */\n  0x00\n    /* \"#utility.yul\":2034:2054   */\n  tag_61\n  tag_62\n  jump\t// in\ntag_61:\n    /* \"#utility.yul\":2024:2054   */\n  swap1\n  pop\n    /* \"#utility.yul\":2063:2096   */\n  tag_63\n    /* \"#utility.yul\":2091:2095   */\n  dup3\n    /* \"#utility.yul\":2083:2089   */\n  dup3\n    /* \"#utility.yul\":2063:2096   */\n  tag_64\n  jump\t// in\ntag_63:\n    /* \"#utility.yul\":1973:2102   */\n  swap2\n  swap1\n  pop\n  jump\t// out\n    /* \"#utility.yul\":2108:2183   */\ntag_62:\n    /* \"#utility.yul\":2141:2147   */\n  0x00\n    /* \"#utility.yul\":2174:2176   */\n  0x40\n    /* \"#utility.yul\":2168:2177   */\n  mload\n    /* \"#utility.yul\":2158:2177   */\n  swap1\n  pop\n    /* \"#utility.yul\":2108:2183   */\n  swap1\n  jump\t// out\n    /* \"#utility.yul\":2189:2497   */\ntag_31:\n    /* \"#utility.yul\":2251:2255   */\n  0x00\n    /* \"#utility.yul\":2341:2359   */\n  0xffffffffffffffff\n    /* \"#utility.yul\":2333:2339   */\n  dup3\n    /* \"#utility.yul\":2330:2360   */\n  gt\n    /* \"#utility.yul\":2327:2383   */\n  iszero\n  tag_67\n  jumpi\n    /* \"#utility.yul\":2363:2381   */\n  tag_68\n  tag_69\n  jump\t// in\ntag_68:\n    /* \"#utility.yul\":2327:2383   */\ntag_67:\n    /* \"#utility.yul\":2401:2430   */\n  tag_70\n    /* \"#utility.yul\":2423:2429   */\n  dup3\n    /* \"#utility.yul\":2401:2430   */\n  tag_71\n  jump\t// in\ntag_70:\n    /* \"#utility.yul\":2393:2430   */\n  swap1\n  pop\n    /* \"#utility.yul\":2485:2489   */\n  0x20\n    /* \"#utility.yul\":2479:2483   */\n  dup2\n    /* \"#utility.yul\":2475:2490   */\n  add\n    /* \"#utility.yul\":2467:2490   */\n  swap1\n  pop\n    /* \"#utility.yul\":2189:2497   */\n  swap2\n  swap1\n  pop\n  jump\t// out\n    /* \"#utility.yul\":2503:2599   */\ntag_72:\n    /* \"#utility.yul\":2540:2547   */\n  0x00\n    /* \"#utility.yul\":2569:2593   */\n  tag_74\n    /* \"#utility.yul\":2587:2592   */\n  dup3\n    /* \"#utility.yul\":2569:2593   */\n  tag_75\n  jump\t// in\ntag_74:\n    /* \"#utility.yul\":2558:2593   */\n  swap1\n  pop\n    /* \"#utility.yul\":2503:2599   */\n  swap2\n  swap1\n  pop\n  jump\t// out\n    /* \"#utility.yul\":2605:2731   */\ntag_75:\n    /* \"#utility.yul\":2642:2649   */\n  0x00\n    /* \"#utility.yul\":2682:2724   */\n  0xffffffffffffffffffffffffffffffffffffffff\n    /* \"#utility.yul\":2675:2680   */\n  dup3\n    /* \"#utility.yul\":2671:2725   */\n  and\n    /* \"#utility.yul\":2660:2725   */\n  swap1\n  pop\n    /* \"#utility.yul\":2605:2731   */\n  swap2\n  swap1\n  pop\n  jump\t// out\n    /* \"#utility.yul\":2737:3044   */\ntag_37:\n    /* \"#utility.yul\":2805:2806   */\n  0x00\n    /* \"#utility.yul\":2815:2928   */\ntag_78:\n    /* \"#utility.yul\":2829:2835   */\n  dup4\n    /* \"#utility.yul\":2826:2827   */\n  dup2\n    /* \"#utility.yul\":2823:2836   */\n  lt\n    /* \"#utility.yul\":2815:2928   */\n  iszero\n  tag_80\n  jumpi\n    /* \"#utility.yul\":2914:2915   */\n  dup1\n    /* \"#utility.yul\":2909:2912   */\n  dup3\n    /* \"#utility.yul\":2905:2916   */\n  add\n    /* \"#utility.yul\":2899:2917   */\n  mload\n    /* \"#utility.yul\":2895:2896   */\n  dup2\n    /* \"#utility.yul\":2890:2893   */\n  dup5\n    /* \"#utility.yul\":2886:2897   */\n  add\n    /* \"#utility.yul\":2879:2918   */\n  mstore\n    /* \"#utility.yul\":2851:2853   */\n  0x20\n    /* \"#utility.yul\":2848:2849   */\n  dup2\n    /* \"#utility.yul\":2844:2854   */\n  add\n    /* \"#utility.yul\":2839:2854   */\n  swap1\n  pop\n    /* \"#utility.yul\":2815:2928   */\n  jump(tag_78)\ntag_80:\n    /* \"#utility.yul\":2946:2952   */\n  dup4\n    /* \"#utility.yul\":2943:2944   */\n  dup2\n    /* \"#utility.yul\":2940:2953   */\n  gt\n    /* \"#utility.yul\":2937:3038   */\n  iszero\n  tag_81\n  jumpi\n    /* \"#utility.yul\":3026:3027   */\n  0x00\n    /* \"#utility.yul\":3017:3023   */\n  dup5\n    /* \"#utility.yul\":3012:3015   */\n  dup5\n    /* \"#utility.yul\":3008:3024   */\n  add\n    /* \"#utility.yul\":3001:3028   */\n  mstore\n    /* \"#utility.yul\":2937:3038   */\ntag_81:\n    /* \"#utility.yul\":2786:3044   */\n  pop\n    /* \"#utility.yul\":2737:3044   */\n  pop\n  pop\n  pop\n  jump\t// out\n    /* \"#utility.yul\":3050:3370   */\ntag_16:\n    /* \"#utility.yul\":3094:3100   */\n  0x00\n    /* \"#utility.yul\":3131:3132   */\n  0x02\n    /* \"#utility.yul\":3125:3129   */\n  dup3\n    /* \"#utility.yul\":3121:3133   */\n  div\n    /* \"#utility.yul\":3111:3133   */\n  swap1\n  pop\n    /* \"#utility.yul\":3178:3179   */\n  0x01\n    /* \"#utility.yul\":3172:3176   */\n  dup3\n    /* \"#utility.yul\":3168:3180   */\n  and\n    /* \"#utility.yul\":3199:3217   */\n  dup1\n    /* \"#utility.yul\":3189:3270   */\n  tag_83\n  jumpi\n    /* \"#utility.yul\":3255:3259   */\n  0x7f\n    /* \"#utility.yul\":3247:3253   */\n  dup3\n    /* \"#utility.yul\":3243:3260   */\n  and\n    /* \"#utility.yul\":3233:3260   */\n  swap2\n  pop\n    /* \"#utility.yul\":3189:3270   */\ntag_83:\n    /* \"#utility.yul\":3317:3319   */\n  0x20\n    /* \"#utility.yul\":3309:3315   */\n  dup3\n    /* \"#utility.yul\":3306:3320   */\n  lt\n    /* \"#utility.yul\":3286:3304   */\n  dup2\n    /* \"#utility.yul\":3283:3321   */\n  eq\n    /* \"#utility.yul\":3280:3364   */\n  iszero\n  tag_84\n  jumpi\n    /* \"#utility.yul\":3336:3354   */\n  tag_85\n  tag_86\n  jump\t// in\ntag_85:\n    /* \"#utility.yul\":3280:3364   */\ntag_84:\n    /* \"#utility.yul\":3101:3370   */\n  pop\n    /* \"#utility.yul\":3050:3370   */\n  swap2\n  swap1\n  pop\n  jump\t// out\n    /* \"#utility.yul\":3376:3657   */\ntag_64:\n    /* \"#utility.yul\":3459:3486   */\n  tag_88\n    /* \"#utility.yul\":3481:3485   */\n  dup3\n    /* \"#utility.yul\":3459:3486   */\n  tag_71\n  jump\t// in\ntag_88:\n    /* \"#utility.yul\":3451:3457   */\n  dup2\n    /* \"#utility.yul\":3447:3487   */\n  add\n    /* \"#utility.yul\":3589:3595   */\n  dup2\n    /* \"#utility.yul\":3577:3587   */\n  dup2\n    /* \"#utility.yul\":3574:3596   */\n  lt\n    /* \"#utility.yul\":3553:3571   */\n  0xffffffffffffffff\n    /* \"#utility.yul\":3541:3551   */\n  dup3\n    /* \"#utility.yul\":3538:3572   */\n  gt\n    /* \"#utility.yul\":3535:3597   */\n  or\n    /* \"#utility.yul\":3532:3620   */\n  iszero\n  tag_89\n  jumpi\n    /* \"#utility.yul\":3600:3618   */\n  tag_90\n  tag_69\n  jump\t// in\ntag_90:\n    /* \"#utility.yul\":3532:3620   */\ntag_89:\n    /* \"#utility.yul\":3640:3650   */\n  dup1\n    /* \"#utility.yul\":3636:3638   */\n  0x40\n    /* \"#utility.yul\":3629:3651   */\n  mstore\n    /* \"#utility.yul\":3419:3657   */\n  pop\n    /* \"#utility.yul\":3376:3657   */\n  pop\n  pop\n  jump\t// out\n    /* \"#utility.yul\":3663:3843   */\ntag_86:\n    /* \"#utility.yul\":3711:3788   */\n  0x4e487b7100000000000000000000000000000000000000000000000000000000\n    /* \"#utility.yul\":3708:3709   */\n  0x00\n    /* \"#utility.yul\":3701:3789   */\n  mstore\n    /* \"#utility.yul\":3808:3812   */\n  0x22\n    /* \"#utility.yul\":3805:3806   */\n  0x04\n    /* \"#utility.yul\":3798:3813   */\n  mstore\n    /* \"#utility.yul\":3832:3836   */\n  0x24\n    /* \"#utility.yul\":3829:3830   */\n  0x00\n    /* \"#utility.yul\":3822:3837   */\n  revert\n    /* \"#utility.yul\":3849:4029   */\ntag_69:\n    /* \"#utility.yul\":3897:3974   */\n  0x4e487b7100000000000000000000000000000000000000000000000000000000\n    /* \"#utility.yul\":3894:3895   */\n  0x00\n    /* \"#utility.yul\":3887:3975   */\n  mstore\n    /* \"#utility.yul\":3994:3998   */\n  0x41\n    /* \"#utility.yul\":3991:3992   */\n  0x04\n    /* \"#utility.yul\":3984:3999   */\n  mstore\n    /* \"#utility.yul\":4018:4022   */\n  0x24\n    /* \"#utility.yul\":4015:4016   */\n  0x00\n    /* \"#utility.yul\":4008:4023   */\n  revert\n    /* \"#utility.yul\":4035:4152   */\ntag_46:\n    /* \"#utility.yul\":4144:4145   */\n  0x00\n    /* \"#utility.yul\":4141:4142   */\n  dup1\n    /* \"#utility.yul\":4134:4146   */\n  revert\n    /* \"#utility.yul\":4158:4275   */\ntag_35:\n    /* \"#utility.yul\":4267:4268   */\n  0x00\n    /* \"#utility.yul\":4264:4265   */\n  dup1\n    /* \"#utility.yul\":4257:4269   */\n  revert\n    /* \"#utility.yul\":4281:4398   */\ntag_55:\n    /* \"#utility.yul\":4390:4391   */\n  0x00\n    /* \"#utility.yul\":4387:4388   */\n  dup1\n    /* \"#utility.yul\":4380:4392   */\n  revert\n    /* \"#utility.yul\":4404:4521   */\ntag_51:\n    /* \"#utility.yul\":4513:4514   */\n  0x00\n    /* \"#utility.yul\":4510:4511   */\n  dup1\n    /* \"#utility.yul\":4503:4515   */\n  revert\n    /* \"#utility.yul\":4527:4629   */\ntag_71:\n    /* \"#utility.yul\":4568:4574   */\n  0x00\n    /* \"#utility.yul\":4619:4621   */\n  0x1f\n    /* \"#utility.yul\":4615:4622   */\n  not\n    /* \"#utility.yul\":4610:4612   */\n  0x1f\n    /* \"#utility.yul\":4603:4608   */\n  dup4\n    /* \"#utility.yul\":4599:4613   */\n  add\n    /* \"#utility.yul\":4595:4623   */\n  and\n    /* \"#utility.yul\":4585:4623   */\n  swap1\n  pop\n    /* \"#utility.yul\":4527:4629   */\n  swap2\n  swap1\n  pop\n  jump\t// out\n    /* \"#utility.yul\":4635:4757   */\ntag_41:\n    /* \"#utility.yul\":4708:4732   */\n  tag_99\n    /* \"#utility.yul\":4726:4731   */\n  dup2\n    /* \"#utility.yul\":4708:4732   */\n  tag_72\n  jump\t// in\ntag_99:\n    /* \"#utility.yul\":4701:4706   */\n  dup2\n    /* \"#utility.yul\":4698:4733   */\n  eq\n    /* \"#utility.yul\":4688:4751   */\n  tag_100\n  jumpi\n    /* \"#utility.yul\":4747:4748   */\n  0x00\n    /* \"#utility.yul\":4744:4745   */\n  dup1\n    /* \"#utility.yul\":4737:4749   */\n  revert\n    /* \"#utility.yul\":4688:4751   */\ntag_100:\n    /* \"#utility.yul\":4635:4757   */\n  pop\n  jump\t// out\n    /* \"contracts/project-name1/ProjectAccessControl.sol\":131:3184  contract ProjectAccessControl is AccessControl{\r... */\ntag_13:\n  dataSize(sub_0)\n  dup1\n  dataOffset(sub_0)\n  0x00\n  codecopy\n  0x00\n  return\nstop\n\nsub_0: assembly {\n        /* \"contracts/project-name1/ProjectAccessControl.sol\":131:3184  contract ProjectAccessControl is AccessControl{\r... */\n      mstore(0x40, 0x80)\n      callvalue\n      dup1\n      iszero\n      tag_1\n      jumpi\n      0x00\n      dup1\n      revert\n    tag_1:\n      pop\n      jumpi(tag_2, lt(calldatasize, 0x04))\n      shr(0xe0, calldataload(0x00))\n      dup1\n      0x9b8f3bbc\n      gt\n      tag_16\n      jumpi\n      dup1\n      0xaae7c78a\n      gt\n      tag_17\n      jumpi\n      dup1\n      0xaae7c78a\n      eq\n      tag_12\n      jumpi\n      dup1\n      0xc7dc6220\n      eq\n      tag_13\n      jumpi\n      dup1\n      0xc98d6f1e\n      eq\n      tag_14\n      jumpi\n      dup1\n      0xe9cb00a2\n      eq\n      tag_15\n      jumpi\n      jump(tag_2)\n    tag_17:\n      dup1\n      0x9b8f3bbc\n      eq\n      tag_9\n      jumpi\n      dup1\n      0xa10f9524\n      eq\n      tag_10\n      jumpi\n      dup1\n      0xa8a23e39\n      eq\n      tag_11\n      jumpi\n      jump(tag_2)\n    tag_16:\n      dup1\n      0x342da059\n      eq\n      tag_3\n      jumpi\n      dup1\n      0x4c1b64cb\n      eq\n      tag_4\n      jumpi\n      dup1\n      0x4c1cce74\n      eq\n      tag_5\n      jumpi\n      dup1\n      0x7058dd24\n      eq\n      tag_6\n      jumpi\n      dup1\n      0x75829def\n      eq\n      tag_7\n      jumpi\n      dup1\n      0x80891cb2\n      eq\n      tag_8\n      jumpi\n    tag_2:\n      0x00\n      dup1\n      revert\n        /* \"contracts/project-name1/ProjectAccessControl.sol\":1389:1564  function deletePermission(bytes memory permissionName) \r... */\n    tag_3:\n      tag_18\n      0x04\n      dup1\n      calldatasize\n      sub\n      dup2\n      add\n      swap1\n      tag_19\n      swap2\n      swap1\n      tag_20\n      jump\t// in\n    tag_19:\n      tag_21\n      jump\t// in\n    tag_18:\n      stop\n        /* \"contracts/project-name1/ProjectAccessControl.sol\":2016:2166  function deleteAccount(address account) \r... */\n    tag_4:\n      tag_22\n      0x04\n      dup1\n      calldatasize\n      sub\n      dup2\n      add\n      swap1\n      tag_23\n      swap2\n      swap1\n      tag_24\n      jump\t// in\n    tag_23:\n      tag_25\n      jump\t// in\n    tag_22:\n      stop\n        /* \"contracts/project-name1/ProjectAccessControl.sol\":269:298  string public adminEmail = \"\" */\n    tag_5:\n      tag_26\n      tag_27\n      jump\t// in\n    tag_26:\n      mload(0x40)\n      tag_28\n      swap2\n      swap1\n      tag_29\n      jump\t// in\n    tag_28:\n      mload(0x40)\n      dup1\n      swap2\n      sub\n      swap1\n      return\n        /* \"contracts/project-name1/ProjectAccessControl.sol\":3039:3179  function inquiryAdmin() public view override allowPermission(STAFF, STAFF) returns (address) {\r... */\n    tag_6:\n      tag_30\n      tag_31\n      jump\t// in\n    tag_30:\n      mload(0x40)\n      tag_32\n      swap2\n      swap1\n      tag_33\n      jump\t// in\n    tag_32:\n      mload(0x40)\n      dup1\n      swap2\n      sub\n      swap1\n      return\n        /* \"contracts/project-name1/ProjectAccessControl.sol\":2174:2324  function transferAdmin(address account) \r... */\n    tag_7:\n      tag_34\n      0x04\n      dup1\n      calldatasize\n      sub\n      dup2\n      add\n      swap1\n      tag_35\n      swap2\n      swap1\n      tag_24\n      jump\t// in\n    tag_35:\n      tag_36\n      jump\t// in\n    tag_34:\n      stop\n        /* \"contracts/project-name1/ProjectAccessControl.sol\":2808:3031  function inquiryAllPermissionsByAccount(address account) \r... */\n    tag_8:\n      tag_37\n      0x04\n      dup1\n      calldatasize\n      sub\n      dup2\n      add\n      swap1\n      tag_38\n      swap2\n      swap1\n      tag_24\n      jump\t// in\n    tag_38:\n      tag_39\n      jump\t// in\n    tag_37:\n      mload(0x40)\n      tag_40\n      swap2\n      swap1\n      tag_41\n      jump\t// in\n    tag_40:\n      mload(0x40)\n      dup1\n      swap2\n      sub\n      swap1\n      return\n        /* \"contracts/project-name1/ProjectAccessControl.sol\":2571:2800  function inquiryAllAccountsByPermission(bytes32 permission) \r... */\n    tag_9:\n      tag_42\n      0x04\n      dup1\n      calldatasize\n      sub\n      dup2\n      add\n      swap1\n      tag_43\n      swap2\n      swap1\n      tag_44\n      jump\t// in\n    tag_43:\n      tag_45\n      jump\t// in\n    tag_42:\n      mload(0x40)\n      tag_46\n      swap2\n      swap1\n      tag_47\n      jump\t// in\n    tag_46:\n      mload(0x40)\n      dup1\n      swap2\n      sub\n      swap1\n      return\n        /* \"contracts/project-name1/ProjectAccessControl.sol\":1141:1381  function createPermissionByLevel(bytes memory permissionName, bytes memory permissionAlready) \r... */\n    tag_10:\n      tag_48\n      0x04\n      dup1\n      calldatasize\n      sub\n      dup2\n      add\n      swap1\n      tag_49\n      swap2\n      swap1\n      tag_50\n      jump\t// in\n    tag_49:\n      tag_51\n      jump\t// in\n    tag_48:\n      stop\n        /* \"contracts/project-name1/ProjectAccessControl.sol\":234:262  string public adminName = \"\" */\n    tag_11:\n      tag_52\n      tag_53\n      jump\t// in\n    tag_52:\n      mload(0x40)\n      tag_54\n      swap2\n      swap1\n      tag_29\n      jump\t// in\n    tag_54:\n      mload(0x40)\n      dup1\n      swap2\n      sub\n      swap1\n      return\n        /* \"contracts/project-name1/ProjectAccessControl.sol\":958:1133  function createPermission(bytes memory permissionName) \r... */\n    tag_12:\n      tag_55\n      0x04\n      dup1\n      calldatasize\n      sub\n      dup2\n      add\n      swap1\n      tag_56\n      swap2\n      swap1\n      tag_20\n      jump\t// in\n    tag_56:\n      tag_57\n      jump\t// in\n    tag_55:\n      stop\n        /* \"contracts/project-name1/ProjectAccessControl.sol\":1572:1785  function grantAccountPermission(bytes memory permissionName, address account) \r... */\n    tag_13:\n      tag_58\n      0x04\n      dup1\n      calldatasize\n      sub\n      dup2\n      add\n      swap1\n      tag_59\n      swap2\n      swap1\n      tag_60\n      jump\t// in\n    tag_59:\n      tag_61\n      jump\t// in\n    tag_58:\n      stop\n        /* \"contracts/project-name1/ProjectAccessControl.sol\":1793:2008  function revokeAccountPermission(bytes memory permissionName, address account) \r... */\n    tag_14:\n      tag_62\n      0x04\n      dup1\n      calldatasize\n      sub\n      dup2\n      add\n      swap1\n      tag_63\n      swap2\n      swap1\n      tag_60\n      jump\t// in\n    tag_63:\n      tag_64\n      jump\t// in\n    tag_62:\n      stop\n        /* \"contracts/project-name1/ProjectAccessControl.sol\":2332:2563  function inquiryAccountPermission(bytes32 permission, address account) \r... */\n    tag_15:\n      tag_65\n      0x04\n      dup1\n      calldatasize\n      sub\n      dup2\n      add\n      swap1\n      tag_66\n      swap2\n      swap1\n      tag_67\n      jump\t// in\n    tag_66:\n      tag_68\n      jump\t// in\n    tag_65:\n      mload(0x40)\n      tag_69\n      swap2\n      swap1\n      tag_70\n      jump\t// in\n    tag_69:\n      mload(0x40)\n      dup1\n      swap2\n      sub\n      swap1\n      return\n        /* \"contracts/project-name1/ProjectAccessControl.sol\":1389:1564  function deletePermission(bytes memory permissionName) \r... */\n    tag_21:\n        /* \"contracts/AccessControl.sol\":1147:1174  keccak256(\"ACCESS_MANAGER\") */\n      0x73d57861095ed1ff7b0e5c00e25f9fc922cf9164e617149ee7073f371364c954\n        /* \"contracts/AccessControl.sol\":677:695  keccak256(\"ADMIN\") */\n      0xdf8b4c520ffe197c5343c6f5aec59570151ef9a492f2c624fd45ddde6135ec42\n        /* \"contracts/project-name1/ProjectAccessControl.sol\":722:758  _check(objectPermission, msg.sender) */\n      tag_72\n        /* \"contracts/project-name1/ProjectAccessControl.sol\":729:745  objectPermission */\n      dup3\n        /* \"contracts/project-name1/ProjectAccessControl.sol\":747:757  msg.sender */\n      caller\n        /* \"contracts/project-name1/ProjectAccessControl.sol\":722:728  _check */\n      tag_73\n        /* \"contracts/project-name1/ProjectAccessControl.sol\":722:758  _check(objectPermission, msg.sender) */\n      jump\t// in\n    tag_72:\n        /* \"contracts/project-name1/ProjectAccessControl.sol\":722:839  _check(objectPermission, msg.sender) || daoAccessControl.inquiryAccountPermission(organizationPermission, msg.sender) */\n      dup1\n      tag_74\n      jumpi\n      pop\n        /* \"contracts/project-name1/ProjectAccessControl.sol\":762:778  daoAccessControl */\n      0x03\n      0x00\n      swap1\n      sload\n      swap1\n      0x0100\n      exp\n      swap1\n      div\n      0xffffffffffffffffffffffffffffffffffffffff\n      and\n        /* \"contracts/project-name1/ProjectAccessControl.sol\":762:803  daoAccessControl.inquiryAccountPermission */\n      0xffffffffffffffffffffffffffffffffffffffff\n      and\n      0xe9cb00a2\n        /* \"contracts/project-name1/ProjectAccessControl.sol\":804:826  organizationPermission */\n      dup3\n        /* \"contracts/project-name1/ProjectAccessControl.sol\":828:838  msg.sender */\n      caller\n        /* \"contracts/project-name1/ProjectAccessControl.sol\":762:839  daoAccessControl.inquiryAccountPermission(organizationPermission, msg.sender) */\n      mload(0x40)\n      dup4\n      0xffffffff\n      and\n      0xe0\n      shl\n      dup2\n      mstore\n      0x04\n      add\n      tag_75\n      swap3\n      swap2\n      swap1\n      tag_76\n      jump\t// in\n    tag_75:\n      0x20\n      mload(0x40)\n      dup1\n      dup4\n      sub\n      dup2\n      dup7\n      dup1\n      extcodesize\n      iszero\n      dup1\n      iszero\n      tag_77\n      jumpi\n      0x00\n      dup1\n      revert\n    tag_77:\n      pop\n      gas\n      staticcall\n      iszero\n      dup1\n      iszero\n      tag_79\n      jumpi\n      returndatasize\n      0x00\n      dup1\n      returndatacopy\n      revert(0x00, returndatasize)\n    tag_79:\n      pop\n      pop\n      pop\n      pop\n      mload(0x40)\n      returndatasize\n      not(0x1f)\n      0x1f\n      dup3\n      add\n      and\n      dup3\n      add\n      dup1\n      0x40\n      mstore\n      pop\n      dup2\n      add\n      swap1\n      tag_80\n      swap2\n      swap1\n      tag_81\n      jump\t// in\n    tag_80:\n        /* \"contracts/project-name1/ProjectAccessControl.sol\":722:839  _check(objectPermission, msg.sender) || daoAccessControl.inquiryAccountPermission(organizationPermission, msg.sender) */\n    tag_74:\n        /* \"contracts/project-name1/ProjectAccessControl.sol\":700:930  require(\r... */\n      tag_82\n      jumpi\n      mload(0x40)\n      0x08c379a000000000000000000000000000000000000000000000000000000000\n      dup2\n      mstore\n      0x04\n      add\n      tag_83\n      swap1\n      tag_84\n      jump\t// in\n    tag_83:\n      mload(0x40)\n      dup1\n      swap2\n      sub\n      swap1\n      revert\n    tag_82:\n        /* \"contracts/project-name1/ProjectAccessControl.sol\":1517:1556  super._deletePermission(permissionName) */\n      tag_86\n        /* \"contracts/project-name1/ProjectAccessControl.sol\":1541:1555  permissionName */\n      dup4\n        /* \"contracts/project-name1/ProjectAccessControl.sol\":1517:1540  super._deletePermission */\n      tag_87\n        /* \"contracts/project-name1/ProjectAccessControl.sol\":1517:1556  super._deletePermission(permissionName) */\n      jump\t// in\n    tag_86:\n        /* \"contracts/project-name1/ProjectAccessControl.sol\":1389:1564  function deletePermission(bytes memory permissionName) \r... */\n      pop\n      pop\n      pop\n      jump\t// out\n        /* \"contracts/project-name1/ProjectAccessControl.sol\":2016:2166  function deleteAccount(address account) \r... */\n    tag_25:\n        /* \"contracts/AccessControl.sol\":1147:1174  keccak256(\"ACCESS_MANAGER\") */\n      0x73d57861095ed1ff7b0e5c00e25f9fc922cf9164e617149ee7073f371364c954\n        /* \"contracts/AccessControl.sol\":677:695  keccak256(\"ADMIN\") */\n      0xdf8b4c520ffe197c5343c6f5aec59570151ef9a492f2c624fd45ddde6135ec42\n        /* \"contracts/project-name1/ProjectAccessControl.sol\":722:758  _check(objectPermission, msg.sender) */\n      tag_89\n        /* \"contracts/project-name1/ProjectAccessControl.sol\":729:745  objectPermission */\n      dup3\n        /* \"contracts/project-name1/ProjectAccessControl.sol\":747:757  msg.sender */\n      caller\n        /* \"contracts/project-name1/ProjectAccessControl.sol\":722:728  _check */\n      tag_73\n        /* \"contracts/project-name1/ProjectAccessControl.sol\":722:758  _check(objectPermission, msg.sender) */\n      jump\t// in\n    tag_89:\n        /* \"contracts/project-name1/ProjectAccessControl.sol\":722:839  _check(objectPermission, msg.sender) || daoAccessControl.inquiryAccountPermission(organizationPermission, msg.sender) */\n      dup1\n      tag_90\n      jumpi\n      pop\n        /* \"contracts/project-name1/ProjectAccessControl.sol\":762:778  daoAccessControl */\n      0x03\n      0x00\n      swap1\n      sload\n      swap1\n      0x0100\n      exp\n      swap1\n      div\n      0xffffffffffffffffffffffffffffffffffffffff\n      and\n        /* \"contracts/project-name1/ProjectAccessControl.sol\":762:803  daoAccessControl.inquiryAccountPermission */\n      0xffffffffffffffffffffffffffffffffffffffff\n      and\n      0xe9cb00a2\n        /* \"contracts/project-name1/ProjectAccessControl.sol\":804:826  organizationPermission */\n      dup3\n        /* \"contracts/project-name1/ProjectAccessControl.sol\":828:838  msg.sender */\n      caller\n        /* \"contracts/project-name1/ProjectAccessControl.sol\":762:839  daoAccessControl.inquiryAccountPermission(organizationPermission, msg.sender) */\n      mload(0x40)\n      dup4\n      0xffffffff\n      and\n      0xe0\n      shl\n      dup2\n      mstore\n      0x04\n      add\n      tag_91\n      swap3\n      swap2\n      swap1\n      tag_76\n      jump\t// in\n    tag_91:\n      0x20\n      mload(0x40)\n      dup1\n      dup4\n      sub\n      dup2\n      dup7\n      dup1\n      extcodesize\n      iszero\n      dup1\n      iszero\n      tag_92\n      jumpi\n      0x00\n      dup1\n      revert\n    tag_92:\n      pop\n      gas\n      staticcall\n      iszero\n      dup1\n      iszero\n      tag_94\n      jumpi\n      returndatasize\n      0x00\n      dup1\n      returndatacopy\n      revert(0x00, returndatasize)\n    tag_94:\n      pop\n      pop\n      pop\n      pop\n      mload(0x40)\n      returndatasize\n      not(0x1f)\n      0x1f\n      dup3\n      add\n      and\n      dup3\n      add\n      dup1\n      0x40\n      mstore\n      pop\n      dup2\n      add\n      swap1\n      tag_95\n      swap2\n      swap1\n      tag_81\n      jump\t// in\n    tag_95:\n        /* \"contracts/project-name1/ProjectAccessControl.sol\":722:839  _check(objectPermission, msg.sender) || daoAccessControl.inquiryAccountPermission(organizationPermission, msg.sender) */\n    tag_90:\n        /* \"contracts/project-name1/ProjectAccessControl.sol\":700:930  require(\r... */\n      tag_96\n      jumpi\n      mload(0x40)\n      0x08c379a000000000000000000000000000000000000000000000000000000000\n      dup2\n      mstore\n      0x04\n      add\n      tag_97\n      swap1\n      tag_84\n      jump\t// in\n    tag_97:\n      mload(0x40)\n      dup1\n      swap2\n      sub\n      swap1\n      revert\n    tag_96:\n        /* \"contracts/project-name1/ProjectAccessControl.sol\":2129:2158  super._deleteAccount(account) */\n      tag_99\n        /* \"contracts/project-name1/ProjectAccessControl.sol\":2150:2157  account */\n      dup4\n        /* \"contracts/project-name1/ProjectAccessControl.sol\":2129:2149  super._deleteAccount */\n      tag_100\n        /* \"contracts/project-name1/ProjectAccessControl.sol\":2129:2158  super._deleteAccount(account) */\n      jump\t// in\n    tag_99:\n        /* \"contracts/project-name1/ProjectAccessControl.sol\":2016:2166  function deleteAccount(address account) \r... */\n      pop\n      pop\n      pop\n      jump\t// out\n        /* \"contracts/project-name1/ProjectAccessControl.sol\":269:298  string public adminEmail = \"\" */\n    tag_27:\n      0x05\n      dup1\n      sload\n      tag_101\n      swap1\n      tag_102\n      jump\t// in\n    tag_101:\n      dup1\n      0x1f\n      add\n      0x20\n      dup1\n      swap2\n      div\n      mul\n      0x20\n      add\n      mload(0x40)\n      swap1\n      dup2\n      add\n      0x40\n      mstore\n      dup1\n      swap3\n      swap2\n      swap1\n      dup2\n      dup2\n      mstore\n      0x20\n      add\n      dup3\n      dup1\n      sload\n      tag_103\n      swap1\n      tag_102\n      jump\t// in\n    tag_103:\n      dup1\n      iszero\n      tag_104\n      jumpi\n      dup1\n      0x1f\n      lt\n      tag_105\n      jumpi\n      0x0100\n      dup1\n      dup4\n      sload\n      div\n      mul\n      dup4\n      mstore\n      swap2\n      0x20\n      add\n      swap2\n      jump(tag_104)\n    tag_105:\n      dup3\n      add\n      swap2\n      swap1\n      0x00\n      mstore\n      keccak256(0x00, 0x20)\n      swap1\n    tag_106:\n      dup2\n      sload\n      dup2\n      mstore\n      swap1\n      0x01\n      add\n      swap1\n      0x20\n      add\n      dup1\n      dup4\n      gt\n      tag_106\n      jumpi\n      dup3\n      swap1\n      sub\n      0x1f\n      and\n      dup3\n      add\n      swap2\n    tag_104:\n      pop\n      pop\n      pop\n      pop\n      pop\n      dup2\n      jump\t// out\n        /* \"contracts/project-name1/ProjectAccessControl.sol\":3039:3179  function inquiryAdmin() public view override allowPermission(STAFF, STAFF) returns (address) {\r... */\n    tag_31:\n        /* \"contracts/project-name1/ProjectAccessControl.sol\":3123:3130  address */\n      0x00\n        /* \"contracts/AccessControl.sol\":799:817  keccak256(\"STAFF\") */\n      0xa724c0857099da33c38b932ce5d4e84578ee9792153085d9d5e379bfba70cacb\n      dup1\n        /* \"contracts/project-name1/ProjectAccessControl.sol\":722:758  _check(objectPermission, msg.sender) */\n      tag_108\n        /* \"contracts/project-name1/ProjectAccessControl.sol\":729:745  objectPermission */\n      dup3\n        /* \"contracts/project-name1/ProjectAccessControl.sol\":747:757  msg.sender */\n      caller\n        /* \"contracts/project-name1/ProjectAccessControl.sol\":722:728  _check */\n      tag_73\n        /* \"contracts/project-name1/ProjectAccessControl.sol\":722:758  _check(objectPermission, msg.sender) */\n      jump\t// in\n    tag_108:\n        /* \"contracts/project-name1/ProjectAccessControl.sol\":722:839  _check(objectPermission, msg.sender) || daoAccessControl.inquiryAccountPermission(organizationPermission, msg.sender) */\n      dup1\n      tag_109\n      jumpi\n      pop\n        /* \"contracts/project-name1/ProjectAccessControl.sol\":762:778  daoAccessControl */\n      0x03\n      0x00\n      swap1\n      sload\n      swap1\n      0x0100\n      exp\n      swap1\n      div\n      0xffffffffffffffffffffffffffffffffffffffff\n      and\n        /* \"contracts/project-name1/ProjectAccessControl.sol\":762:803  daoAccessControl.inquiryAccountPermission */\n      0xffffffffffffffffffffffffffffffffffffffff\n      and\n      0xe9cb00a2\n        /* \"contracts/project-name1/ProjectAccessControl.sol\":804:826  organizationPermission */\n      dup3\n        /* \"contracts/project-name1/ProjectAccessControl.sol\":828:838  msg.sender */\n      caller\n        /* \"contracts/project-name1/ProjectAccessControl.sol\":762:839  daoAccessControl.inquiryAccountPermission(organizationPermission, msg.sender) */\n      mload(0x40)\n      dup4\n      0xffffffff\n      and\n      0xe0\n      shl\n      dup2\n      mstore\n      0x04\n      add\n      tag_110\n      swap3\n      swap2\n      swap1\n      tag_76\n      jump\t// in\n    tag_110:\n      0x20\n      mload(0x40)\n      dup1\n      dup4\n      sub\n      dup2\n      dup7\n      dup1\n      extcodesize\n      iszero\n      dup1\n      iszero\n      tag_111\n      jumpi\n      0x00\n      dup1\n      revert\n    tag_111:\n      pop\n      gas\n      staticcall\n      iszero\n      dup1\n      iszero\n      tag_113\n      jumpi\n      returndatasize\n      0x00\n      dup1\n      returndatacopy\n      revert(0x00, returndatasize)\n    tag_113:\n      pop\n      pop\n      pop\n      pop\n      mload(0x40)\n      returndatasize\n      not(0x1f)\n      0x1f\n      dup3\n      add\n      and\n      dup3\n      add\n      dup1\n      0x40\n      mstore\n      pop\n      dup2\n      add\n      swap1\n      tag_114\n      swap2\n      swap1\n      tag_81\n      jump\t// in\n    tag_114:\n        /* \"contracts/project-name1/ProjectAccessControl.sol\":722:839  _check(objectPermission, msg.sender) || daoAccessControl.inquiryAccountPermission(organizationPermission, msg.sender) */\n    tag_109:\n        /* \"contracts/project-name1/ProjectAccessControl.sol\":700:930  require(\r... */\n      tag_115\n      jumpi\n      mload(0x40)\n      0x08c379a000000000000000000000000000000000000000000000000000000000\n      dup2\n      mstore\n      0x04\n      add\n      tag_116\n      swap1\n      tag_84\n      jump\t// in\n    tag_116:\n      mload(0x40)\n      dup1\n      swap2\n      sub\n      swap1\n      revert\n    tag_115:\n        /* \"contracts/project-name1/ProjectAccessControl.sol\":3150:3171  super._inquiryAdmin() */\n      tag_118\n        /* \"contracts/project-name1/ProjectAccessControl.sol\":3150:3169  super._inquiryAdmin */\n      tag_119\n        /* \"contracts/project-name1/ProjectAccessControl.sol\":3150:3171  super._inquiryAdmin() */\n      jump\t// in\n    tag_118:\n        /* \"contracts/project-name1/ProjectAccessControl.sol\":3143:3171  return super._inquiryAdmin() */\n      swap3\n      pop\n        /* \"contracts/project-name1/ProjectAccessControl.sol\":3039:3179  function inquiryAdmin() public view override allowPermission(STAFF, STAFF) returns (address) {\r... */\n      pop\n      pop\n      swap1\n      jump\t// out\n        /* \"contracts/project-name1/ProjectAccessControl.sol\":2174:2324  function transferAdmin(address account) \r... */\n    tag_36:\n        /* \"contracts/AccessControl.sol\":1147:1174  keccak256(\"ACCESS_MANAGER\") */\n      0x73d57861095ed1ff7b0e5c00e25f9fc922cf9164e617149ee7073f371364c954\n        /* \"contracts/AccessControl.sol\":677:695  keccak256(\"ADMIN\") */\n      0xdf8b4c520ffe197c5343c6f5aec59570151ef9a492f2c624fd45ddde6135ec42\n        /* \"contracts/project-name1/ProjectAccessControl.sol\":722:758  _check(objectPermission, msg.sender) */\n      tag_121\n        /* \"contracts/project-name1/ProjectAccessControl.sol\":729:745  objectPermission */\n      dup3\n        /* \"contracts/project-name1/ProjectAccessControl.sol\":747:757  msg.sender */\n      caller\n        /* \"contracts/project-name1/ProjectAccessControl.sol\":722:728  _check */\n      tag_73\n        /* \"contracts/project-name1/ProjectAccessControl.sol\":722:758  _check(objectPermission, msg.sender) */\n      jump\t// in\n    tag_121:\n        /* \"contracts/project-name1/ProjectAccessControl.sol\":722:839  _check(objectPermission, msg.sender) || daoAccessControl.inquiryAccountPermission(organizationPermission, msg.sender) */\n      dup1\n      tag_122\n      jumpi\n      pop\n        /* \"contracts/project-name1/ProjectAccessControl.sol\":762:778  daoAccessControl */\n      0x03\n      0x00\n      swap1\n      sload\n      swap1\n      0x0100\n      exp\n      swap1\n      div\n      0xffffffffffffffffffffffffffffffffffffffff\n      and\n        /* \"contracts/project-name1/ProjectAccessControl.sol\":762:803  daoAccessControl.inquiryAccountPermission */\n      0xffffffffffffffffffffffffffffffffffffffff\n      and\n      0xe9cb00a2\n        /* \"contracts/project-name1/ProjectAccessControl.sol\":804:826  organizationPermission */\n      dup3\n        /* \"contracts/project-name1/ProjectAccessControl.sol\":828:838  msg.sender */\n      caller\n        /* \"contracts/project-name1/ProjectAccessControl.sol\":762:839  daoAccessControl.inquiryAccountPermission(organizationPermission, msg.sender) */\n      mload(0x40)\n      dup4\n      0xffffffff\n      and\n      0xe0\n      shl\n      dup2\n      mstore\n      0x04\n      add\n      tag_123\n      swap3\n      swap2\n      swap1\n      tag_76\n      jump\t// in\n    tag_123:\n      0x20\n      mload(0x40)\n      dup1\n      dup4\n      sub\n      dup2\n      dup7\n      dup1\n      extcodesize\n      iszero\n      dup1\n      iszero\n      tag_124\n      jumpi\n      0x00\n      dup1\n      revert\n    tag_124:\n      pop\n      gas\n      staticcall\n      iszero\n      dup1\n      iszero\n      tag_126\n      jumpi\n      returndatasize\n      0x00\n      dup1\n      returndatacopy\n      revert(0x00, returndatasize)\n    tag_126:\n      pop\n      pop\n      pop\n      pop\n      mload(0x40)\n      returndatasize\n      not(0x1f)\n      0x1f\n      dup3\n      add\n      and\n      dup3\n      add\n      dup1\n      0x40\n      mstore\n      pop\n      dup2\n      add\n      swap1\n      tag_127\n      swap2\n      swap1\n      tag_81\n      jump\t// in\n    tag_127:\n        /* \"contracts/project-name1/ProjectAccessControl.sol\":722:839  _check(objectPermission, msg.sender) || daoAccessControl.inquiryAccountPermission(organizationPermission, msg.sender) */\n    tag_122:\n        /* \"contracts/project-name1/ProjectAccessControl.sol\":700:930  require(\r... */\n      tag_128\n      jumpi\n      mload(0x40)\n      0x08c379a000000000000000000000000000000000000000000000000000000000\n      dup2\n      mstore\n      0x04\n      add\n      tag_129\n      swap1\n      tag_84\n      jump\t// in\n    tag_129:\n      mload(0x40)\n      dup1\n      swap2\n      sub\n      swap1\n      revert\n    tag_128:\n        /* \"contracts/project-name1/ProjectAccessControl.sol\":2287:2316  super._transferAdmin(account) */\n      tag_131\n        /* \"contracts/project-name1/ProjectAccessControl.sol\":2308:2315  account */\n      dup4\n        /* \"contracts/project-name1/ProjectAccessControl.sol\":2287:2307  super._transferAdmin */\n      tag_132\n        /* \"contracts/project-name1/ProjectAccessControl.sol\":2287:2316  super._transferAdmin(account) */\n      jump\t// in\n    tag_131:\n        /* \"contracts/project-name1/ProjectAccessControl.sol\":2174:2324  function transferAdmin(address account) \r... */\n      pop\n      pop\n      pop\n      jump\t// out\n        /* \"contracts/project-name1/ProjectAccessControl.sol\":2808:3031  function inquiryAllPermissionsByAccount(address account) \r... */\n    tag_39:\n        /* \"contracts/project-name1/ProjectAccessControl.sol\":2935:2951  bytes32[] memory */\n      0x60\n        /* \"contracts/AccessControl.sol\":799:817  keccak256(\"STAFF\") */\n      0xa724c0857099da33c38b932ce5d4e84578ee9792153085d9d5e379bfba70cacb\n      dup1\n        /* \"contracts/project-name1/ProjectAccessControl.sol\":722:758  _check(objectPermission, msg.sender) */\n      tag_134\n        /* \"contracts/project-name1/ProjectAccessControl.sol\":729:745  objectPermission */\n      dup3\n        /* \"contracts/project-name1/ProjectAccessControl.sol\":747:757  msg.sender */\n      caller\n        /* \"contracts/project-name1/ProjectAccessControl.sol\":722:728  _check */\n      tag_73\n        /* \"contracts/project-name1/ProjectAccessControl.sol\":722:758  _check(objectPermission, msg.sender) */\n      jump\t// in\n    tag_134:\n        /* \"contracts/project-name1/ProjectAccessControl.sol\":722:839  _check(objectPermission, msg.sender) || daoAccessControl.inquiryAccountPermission(organizationPermission, msg.sender) */\n      dup1\n      tag_135\n      jumpi\n      pop\n        /* \"contracts/project-name1/ProjectAccessControl.sol\":762:778  daoAccessControl */\n      0x03\n      0x00\n      swap1\n      sload\n      swap1\n      0x0100\n      exp\n      swap1\n      div\n      0xffffffffffffffffffffffffffffffffffffffff\n      and\n        /* \"contracts/project-name1/ProjectAccessControl.sol\":762:803  daoAccessControl.inquiryAccountPermission */\n      0xffffffffffffffffffffffffffffffffffffffff\n      and\n      0xe9cb00a2\n        /* \"contracts/project-name1/ProjectAccessControl.sol\":804:826  organizationPermission */\n      dup3\n        /* \"contracts/project-name1/ProjectAccessControl.sol\":828:838  msg.sender */\n      caller\n        /* \"contracts/project-name1/ProjectAccessControl.sol\":762:839  daoAccessControl.inquiryAccountPermission(organizationPermission, msg.sender) */\n      mload(0x40)\n      dup4\n      0xffffffff\n      and\n      0xe0\n      shl\n      dup2\n      mstore\n      0x04\n      add\n      tag_136\n      swap3\n      swap2\n      swap1\n      tag_76\n      jump\t// in\n    tag_136:\n      0x20\n      mload(0x40)\n      dup1\n      dup4\n      sub\n      dup2\n      dup7\n      dup1\n      extcodesize\n      iszero\n      dup1\n      iszero\n      tag_137\n      jumpi\n      0x00\n      dup1\n      revert\n    tag_137:\n      pop\n      gas\n      staticcall\n      iszero\n      dup1\n      iszero\n      tag_139\n      jumpi\n      returndatasize\n      0x00\n      dup1\n      returndatacopy\n      revert(0x00, returndatasize)\n    tag_139:\n      pop\n      pop\n      pop\n      pop\n      mload(0x40)\n      returndatasize\n      not(0x1f)\n      0x1f\n      dup3\n      add\n      and\n      dup3\n      add\n      dup1\n      0x40\n      mstore\n      pop\n      dup2\n      add\n      swap1\n      tag_140\n      swap2\n      swap1\n      tag_81\n      jump\t// in\n    tag_140:\n        /* \"contracts/project-name1/ProjectAccessControl.sol\":722:839  _check(objectPermission, msg.sender) || daoAccessControl.inquiryAccountPermission(organizationPermission, msg.sender) */\n    tag_135:\n        /* \"contracts/project-name1/ProjectAccessControl.sol\":700:930  require(\r... */\n      tag_141\n      jumpi\n      mload(0x40)\n      0x08c379a000000000000000000000000000000000000000000000000000000000\n      dup2\n      mstore\n      0x04\n      add\n      tag_142\n      swap1\n      tag_84\n      jump\t// in\n    tag_142:\n      mload(0x40)\n      dup1\n      swap2\n      sub\n      swap1\n      revert\n    tag_141:\n        /* \"contracts/project-name1/ProjectAccessControl.sol\":2977:3023  super._inquiryAllPermissionsByAccount(account) */\n      tag_144\n        /* \"contracts/project-name1/ProjectAccessControl.sol\":3015:3022  account */\n      dup5\n        /* \"contracts/project-name1/ProjectAccessControl.sol\":2977:3014  super._inquiryAllPermissionsByAccount */\n      tag_145\n        /* \"contracts/project-name1/ProjectAccessControl.sol\":2977:3023  super._inquiryAllPermissionsByAccount(account) */\n      jump\t// in\n    tag_144:\n        /* \"contracts/project-name1/ProjectAccessControl.sol\":2970:3023  return super._inquiryAllPermissionsByAccount(account) */\n      swap3\n      pop\n        /* \"contracts/project-name1/ProjectAccessControl.sol\":2808:3031  function inquiryAllPermissionsByAccount(address account) \r... */\n      pop\n      pop\n      swap2\n      swap1\n      pop\n      jump\t// out\n        /* \"contracts/project-name1/ProjectAccessControl.sol\":2571:2800  function inquiryAllAccountsByPermission(bytes32 permission) \r... */\n    tag_45:\n        /* \"contracts/project-name1/ProjectAccessControl.sol\":2701:2717  address[] memory */\n      0x60\n        /* \"contracts/AccessControl.sol\":799:817  keccak256(\"STAFF\") */\n      0xa724c0857099da33c38b932ce5d4e84578ee9792153085d9d5e379bfba70cacb\n      dup1\n        /* \"contracts/project-name1/ProjectAccessControl.sol\":722:758  _check(objectPermission, msg.sender) */\n      tag_147\n        /* \"contracts/project-name1/ProjectAccessControl.sol\":729:745  objectPermission */\n      dup3\n        /* \"contracts/project-name1/ProjectAccessControl.sol\":747:757  msg.sender */\n      caller\n        /* \"contracts/project-name1/ProjectAccessControl.sol\":722:728  _check */\n      tag_73\n        /* \"contracts/project-name1/ProjectAccessControl.sol\":722:758  _check(objectPermission, msg.sender) */\n      jump\t// in\n    tag_147:\n        /* \"contracts/project-name1/ProjectAccessControl.sol\":722:839  _check(objectPermission, msg.sender) || daoAccessControl.inquiryAccountPermission(organizationPermission, msg.sender) */\n      dup1\n      tag_148\n      jumpi\n      pop\n        /* \"contracts/project-name1/ProjectAccessControl.sol\":762:778  daoAccessControl */\n      0x03\n      0x00\n      swap1\n      sload\n      swap1\n      0x0100\n      exp\n      swap1\n      div\n      0xffffffffffffffffffffffffffffffffffffffff\n      and\n        /* \"contracts/project-name1/ProjectAccessControl.sol\":762:803  daoAccessControl.inquiryAccountPermission */\n      0xffffffffffffffffffffffffffffffffffffffff\n      and\n      0xe9cb00a2\n        /* \"contracts/project-name1/ProjectAccessControl.sol\":804:826  organizationPermission */\n      dup3\n        /* \"contracts/project-name1/ProjectAccessControl.sol\":828:838  msg.sender */\n      caller\n        /* \"contracts/project-name1/ProjectAccessControl.sol\":762:839  daoAccessControl.inquiryAccountPermission(organizationPermission, msg.sender) */\n      mload(0x40)\n      dup4\n      0xffffffff\n      and\n      0xe0\n      shl\n      dup2\n      mstore\n      0x04\n      add\n      tag_149\n      swap3\n      swap2\n      swap1\n      tag_76\n      jump\t// in\n    tag_149:\n      0x20\n      mload(0x40)\n      dup1\n      dup4\n      sub\n      dup2\n      dup7\n      dup1\n      extcodesize\n      iszero\n      dup1\n      iszero\n      tag_150\n      jumpi\n      0x00\n      dup1\n      revert\n    tag_150:\n      pop\n      gas\n      staticcall\n      iszero\n      dup1\n      iszero\n      tag_152\n      jumpi\n      returndatasize\n      0x00\n      dup1\n      returndatacopy\n      revert(0x00, returndatasize)\n    tag_152:\n      pop\n      pop\n      pop\n      pop\n      mload(0x40)\n      returndatasize\n      not(0x1f)\n      0x1f\n      dup3\n      add\n      and\n      dup3\n      add\n      dup1\n      0x40\n      mstore\n      pop\n      dup2\n      add\n      swap1\n      tag_153\n      swap2\n      swap1\n      tag_81\n      jump\t// in\n    tag_153:\n        /* \"contracts/project-name1/ProjectAccessControl.sol\":722:839  _check(objectPermission, msg.sender) || daoAccessControl.inquiryAccountPermission(organizationPermission, msg.sender) */\n    tag_148:\n        /* \"contracts/project-name1/ProjectAccessControl.sol\":700:930  require(\r... */\n      tag_154\n      jumpi\n      mload(0x40)\n      0x08c379a000000000000000000000000000000000000000000000000000000000\n      dup2\n      mstore\n      0x04\n      add\n      tag_155\n      swap1\n      tag_84\n      jump\t// in\n    tag_155:\n      mload(0x40)\n      dup1\n      swap2\n      sub\n      swap1\n      revert\n    tag_154:\n        /* \"contracts/project-name1/ProjectAccessControl.sol\":2743:2792  super._inquiryAllAccountsByPermission(permission) */\n      tag_157\n        /* \"contracts/project-name1/ProjectAccessControl.sol\":2781:2791  permission */\n      dup5\n        /* \"contracts/project-name1/ProjectAccessControl.sol\":2743:2780  super._inquiryAllAccountsByPermission */\n      tag_158\n        /* \"contracts/project-name1/ProjectAccessControl.sol\":2743:2792  super._inquiryAllAccountsByPermission(permission) */\n      jump\t// in\n    tag_157:\n        /* \"contracts/project-name1/ProjectAccessControl.sol\":2736:2792  return super._inquiryAllAccountsByPermission(permission) */\n      swap3\n      pop\n        /* \"contracts/project-name1/ProjectAccessControl.sol\":2571:2800  function inquiryAllAccountsByPermission(bytes32 permission) \r... */\n      pop\n      pop\n      swap2\n      swap1\n      pop\n      jump\t// out\n        /* \"contracts/project-name1/ProjectAccessControl.sol\":1141:1381  function createPermissionByLevel(bytes memory permissionName, bytes memory permissionAlready) \r... */\n    tag_51:\n        /* \"contracts/AccessControl.sol\":1147:1174  keccak256(\"ACCESS_MANAGER\") */\n      0x73d57861095ed1ff7b0e5c00e25f9fc922cf9164e617149ee7073f371364c954\n        /* \"contracts/AccessControl.sol\":677:695  keccak256(\"ADMIN\") */\n      0xdf8b4c520ffe197c5343c6f5aec59570151ef9a492f2c624fd45ddde6135ec42\n        /* \"contracts/project-name1/ProjectAccessControl.sol\":722:758  _check(objectPermission, msg.sender) */\n      tag_160\n        /* \"contracts/project-name1/ProjectAccessControl.sol\":729:745  objectPermission */\n      dup3\n        /* \"contracts/project-name1/ProjectAccessControl.sol\":747:757  msg.sender */\n      caller\n        /* \"contracts/project-name1/ProjectAccessControl.sol\":722:728  _check */\n      tag_73\n        /* \"contracts/project-name1/ProjectAccessControl.sol\":722:758  _check(objectPermission, msg.sender) */\n      jump\t// in\n    tag_160:\n        /* \"contracts/project-name1/ProjectAccessControl.sol\":722:839  _check(objectPermission, msg.sender) || daoAccessControl.inquiryAccountPermission(organizationPermission, msg.sender) */\n      dup1\n      tag_161\n      jumpi\n      pop\n        /* \"contracts/project-name1/ProjectAccessControl.sol\":762:778  daoAccessControl */\n      0x03\n      0x00\n      swap1\n      sload\n      swap1\n      0x0100\n      exp\n      swap1\n      div\n      0xffffffffffffffffffffffffffffffffffffffff\n      and\n        /* \"contracts/project-name1/ProjectAccessControl.sol\":762:803  daoAccessControl.inquiryAccountPermission */\n      0xffffffffffffffffffffffffffffffffffffffff\n      and\n      0xe9cb00a2\n        /* \"contracts/project-name1/ProjectAccessControl.sol\":804:826  organizationPermission */\n      dup3\n        /* \"contracts/project-name1/ProjectAccessControl.sol\":828:838  msg.sender */\n      caller\n        /* \"contracts/project-name1/ProjectAccessControl.sol\":762:839  daoAccessControl.inquiryAccountPermission(organizationPermission, msg.sender) */\n      mload(0x40)\n      dup4\n      0xffffffff\n      and\n      0xe0\n      shl\n      dup2\n      mstore\n      0x04\n      add\n      tag_162\n      swap3\n      swap2\n      swap1\n      tag_76\n      jump\t// in\n    tag_162:\n      0x20\n      mload(0x40)\n      dup1\n      dup4\n      sub\n      dup2\n      dup7\n      dup1\n      extcodesize\n      iszero\n      dup1\n      iszero\n      tag_163\n      jumpi\n      0x00\n      dup1\n      revert\n    tag_163:\n      pop\n      gas\n      staticcall\n      iszero\n      dup1\n      iszero\n      tag_165\n      jumpi\n      returndatasize\n      0x00\n      dup1\n      returndatacopy\n      revert(0x00, returndatasize)\n    tag_165:\n      pop\n      pop\n      pop\n      pop\n      mload(0x40)\n      returndatasize\n      not(0x1f)\n      0x1f\n      dup3\n      add\n      and\n      dup3\n      add\n      dup1\n      0x40\n      mstore\n      pop\n      dup2\n      add\n      swap1\n      tag_166\n      swap2\n      swap1\n      tag_81\n      jump\t// in\n    tag_166:\n        /* \"contracts/project-name1/ProjectAccessControl.sol\":722:839  _check(objectPermission, msg.sender) || daoAccessControl.inquiryAccountPermission(organizationPermission, msg.sender) */\n    tag_161:\n        /* \"contracts/project-name1/ProjectAccessControl.sol\":700:930  require(\r... */\n      tag_167\n      jumpi\n      mload(0x40)\n      0x08c379a000000000000000000000000000000000000000000000000000000000\n      dup2\n      mstore\n      0x04\n      add\n      tag_168\n      swap1\n      tag_84\n      jump\t// in\n    tag_168:\n      mload(0x40)\n      dup1\n      swap2\n      sub\n      swap1\n      revert\n    tag_167:\n        /* \"contracts/project-name1/ProjectAccessControl.sol\":1308:1373  super._createPermissionByLevel(permissionName, permissionAlready) */\n      tag_170\n        /* \"contracts/project-name1/ProjectAccessControl.sol\":1339:1353  permissionName */\n      dup5\n        /* \"contracts/project-name1/ProjectAccessControl.sol\":1355:1372  permissionAlready */\n      dup5\n        /* \"contracts/project-name1/ProjectAccessControl.sol\":1308:1338  super._createPermissionByLevel */\n      tag_171\n        /* \"contracts/project-name1/ProjectAccessControl.sol\":1308:1373  super._createPermissionByLevel(permissionName, permissionAlready) */\n      jump\t// in\n    tag_170:\n        /* \"contracts/project-name1/ProjectAccessControl.sol\":1141:1381  function createPermissionByLevel(bytes memory permissionName, bytes memory permissionAlready) \r... */\n      pop\n      pop\n      pop\n      pop\n      jump\t// out\n        /* \"contracts/project-name1/ProjectAccessControl.sol\":234:262  string public adminName = \"\" */\n    tag_53:\n      0x04\n      dup1\n      sload\n      tag_172\n      swap1\n      tag_102\n      jump\t// in\n    tag_172:\n      dup1\n      0x1f\n      add\n      0x20\n      dup1\n      swap2\n      div\n      mul\n      0x20\n      add\n      mload(0x40)\n      swap1\n      dup2\n      add\n      0x40\n      mstore\n      dup1\n      swap3\n      swap2\n      swap1\n      dup2\n      dup2\n      mstore\n      0x20\n      add\n      dup3\n      dup1\n      sload\n      tag_173\n      swap1\n      tag_102\n      jump\t// in\n    tag_173:\n      dup1\n      iszero\n      tag_174\n      jumpi\n      dup1\n      0x1f\n      lt\n      tag_175\n      jumpi\n      0x0100\n      dup1\n      dup4\n      sload\n      div\n      mul\n      dup4\n      mstore\n      swap2\n      0x20\n      add\n      swap2\n      jump(tag_174)\n    tag_175:\n      dup3\n      add\n      swap2\n      swap1\n      0x00\n      mstore\n      keccak256(0x00, 0x20)\n      swap1\n    tag_176:\n      dup2\n      sload\n      dup2\n      mstore\n      swap1\n      0x01\n      add\n      swap1\n      0x20\n      add\n      dup1\n      dup4\n      gt\n      tag_176\n      jumpi\n      dup3\n      swap1\n      sub\n      0x1f\n      and\n      dup3\n      add\n      swap2\n    tag_174:\n      pop\n      pop\n      pop\n      pop\n      pop\n      dup2\n      jump\t// out\n        /* \"contracts/project-name1/ProjectAccessControl.sol\":958:1133  function createPermission(bytes memory permissionName) \r... */\n    tag_57:\n        /* \"contracts/AccessControl.sol\":1147:1174  keccak256(\"ACCESS_MANAGER\") */\n      0x73d57861095ed1ff7b0e5c00e25f9fc922cf9164e617149ee7073f371364c954\n        /* \"contracts/AccessControl.sol\":677:695  keccak256(\"ADMIN\") */\n      0xdf8b4c520ffe197c5343c6f5aec59570151ef9a492f2c624fd45ddde6135ec42\n        /* \"contracts/project-name1/ProjectAccessControl.sol\":722:758  _check(objectPermission, msg.sender) */\n      tag_178\n        /* \"contracts/project-name1/ProjectAccessControl.sol\":729:745  objectPermission */\n      dup3\n        /* \"contracts/project-name1/ProjectAccessControl.sol\":747:757  msg.sender */\n      caller\n        /* \"contracts/project-name1/ProjectAccessControl.sol\":722:728  _check */\n      tag_73\n        /* \"contracts/project-name1/ProjectAccessControl.sol\":722:758  _check(objectPermission, msg.sender) */\n      jump\t// in\n    tag_178:\n        /* \"contracts/project-name1/ProjectAccessControl.sol\":722:839  _check(objectPermission, msg.sender) || daoAccessControl.inquiryAccountPermission(organizationPermission, msg.sender) */\n      dup1\n      tag_179\n      jumpi\n      pop\n        /* \"contracts/project-name1/ProjectAccessControl.sol\":762:778  daoAccessControl */\n      0x03\n      0x00\n      swap1\n      sload\n      swap1\n      0x0100\n      exp\n      swap1\n      div\n      0xffffffffffffffffffffffffffffffffffffffff\n      and\n        /* \"contracts/project-name1/ProjectAccessControl.sol\":762:803  daoAccessControl.inquiryAccountPermission */\n      0xffffffffffffffffffffffffffffffffffffffff\n      and\n      0xe9cb00a2\n        /* \"contracts/project-name1/ProjectAccessControl.sol\":804:826  organizationPermission */\n      dup3\n        /* \"contracts/project-name1/ProjectAccessControl.sol\":828:838  msg.sender */\n      caller\n        /* \"contracts/project-name1/ProjectAccessControl.sol\":762:839  daoAccessControl.inquiryAccountPermission(organizationPermission, msg.sender) */\n      mload(0x40)\n      dup4\n      0xffffffff\n      and\n      0xe0\n      shl\n      dup2\n      mstore\n      0x04\n      add\n      tag_180\n      swap3\n      swap2\n      swap1\n      tag_76\n      jump\t// in\n    tag_180:\n      0x20\n      mload(0x40)\n      dup1\n      dup4\n      sub\n      dup2\n      dup7\n      dup1\n      extcodesize\n      iszero\n      dup1\n      iszero\n      tag_181\n      jumpi\n      0x00\n      dup1\n      revert\n    tag_181:\n      pop\n      gas\n      staticcall\n      iszero\n      dup1\n      iszero\n      tag_183\n      jumpi\n      returndatasize\n      0x00\n      dup1\n      returndatacopy\n      revert(0x00, returndatasize)\n    tag_183:\n      pop\n      pop\n      pop\n      pop\n      mload(0x40)\n      returndatasize\n      not(0x1f)\n      0x1f\n      dup3\n      add\n      and\n      dup3\n      add\n      dup1\n      0x40\n      mstore\n      pop\n      dup2\n      add\n      swap1\n      tag_184\n      swap2\n      swap1\n      tag_81\n      jump\t// in\n    tag_184:\n        /* \"contracts/project-name1/ProjectAccessControl.sol\":722:839  _check(objectPermission, msg.sender) || daoAccessControl.inquiryAccountPermission(organizationPermission, msg.sender) */\n    tag_179:\n        /* \"contracts/project-name1/ProjectAccessControl.sol\":700:930  require(\r... */\n      tag_185\n      jumpi\n      mload(0x40)\n      0x08c379a000000000000000000000000000000000000000000000000000000000\n      dup2\n      mstore\n      0x04\n      add\n      tag_186\n      swap1\n      tag_84\n      jump\t// in\n    tag_186:\n      mload(0x40)\n      dup1\n      swap2\n      sub\n      swap1\n      revert\n    tag_185:\n        /* \"contracts/project-name1/ProjectAccessControl.sol\":1086:1125  super._createPermission(permissionName) */\n      tag_188\n        /* \"contracts/project-name1/ProjectAccessControl.sol\":1110:1124  permissionName */\n      dup4\n        /* \"contracts/project-name1/ProjectAccessControl.sol\":1086:1109  super._createPermission */\n      tag_189\n        /* \"contracts/project-name1/ProjectAccessControl.sol\":1086:1125  super._createPermission(permissionName) */\n      jump\t// in\n    tag_188:\n        /* \"contracts/project-name1/ProjectAccessControl.sol\":958:1133  function createPermission(bytes memory permissionName) \r... */\n      pop\n      pop\n      pop\n      jump\t// out\n        /* \"contracts/project-name1/ProjectAccessControl.sol\":1572:1785  function grantAccountPermission(bytes memory permissionName, address account) \r... */\n    tag_61:\n        /* \"contracts/AccessControl.sol\":1147:1174  keccak256(\"ACCESS_MANAGER\") */\n      0x73d57861095ed1ff7b0e5c00e25f9fc922cf9164e617149ee7073f371364c954\n        /* \"contracts/AccessControl.sol\":677:695  keccak256(\"ADMIN\") */\n      0xdf8b4c520ffe197c5343c6f5aec59570151ef9a492f2c624fd45ddde6135ec42\n        /* \"contracts/project-name1/ProjectAccessControl.sol\":722:758  _check(objectPermission, msg.sender) */\n      tag_191\n        /* \"contracts/project-name1/ProjectAccessControl.sol\":729:745  objectPermission */\n      dup3\n        /* \"contracts/project-name1/ProjectAccessControl.sol\":747:757  msg.sender */\n      caller\n        /* \"contracts/project-name1/ProjectAccessControl.sol\":722:728  _check */\n      tag_73\n        /* \"contracts/project-name1/ProjectAccessControl.sol\":722:758  _check(objectPermission, msg.sender) */\n      jump\t// in\n    tag_191:\n        /* \"contracts/project-name1/ProjectAccessControl.sol\":722:839  _check(objectPermission, msg.sender) || daoAccessControl.inquiryAccountPermission(organizationPermission, msg.sender) */\n      dup1\n      tag_192\n      jumpi\n      pop\n        /* \"contracts/project-name1/ProjectAccessControl.sol\":762:778  daoAccessControl */\n      0x03\n      0x00\n      swap1\n      sload\n      swap1\n      0x0100\n      exp\n      swap1\n      div\n      0xffffffffffffffffffffffffffffffffffffffff\n      and\n        /* \"contracts/project-name1/ProjectAccessControl.sol\":762:803  daoAccessControl.inquiryAccountPermission */\n      0xffffffffffffffffffffffffffffffffffffffff\n      and\n      0xe9cb00a2\n        /* \"contracts/project-name1/ProjectAccessControl.sol\":804:826  organizationPermission */\n      dup3\n        /* \"contracts/project-name1/ProjectAccessControl.sol\":828:838  msg.sender */\n      caller\n        /* \"contracts/project-name1/ProjectAccessControl.sol\":762:839  daoAccessControl.inquiryAccountPermission(organizationPermission, msg.sender) */\n      mload(0x40)\n      dup4\n      0xffffffff\n      and\n      0xe0\n      shl\n      dup2\n      mstore\n      0x04\n      add\n      tag_193\n      swap3\n      swap2\n      swap1\n      tag_76\n      jump\t// in\n    tag_193:\n      0x20\n      mload(0x40)\n      dup1\n      dup4\n      sub\n      dup2\n      dup7\n      dup1\n      extcodesize\n      iszero\n      dup1\n      iszero\n      tag_194\n      jumpi\n      0x00\n      dup1\n      revert\n    tag_194:\n      pop\n      gas\n      staticcall\n      iszero\n      dup1\n      iszero\n      tag_196\n      jumpi\n      returndatasize\n      0x00\n      dup1\n      returndatacopy\n      revert(0x00, returndatasize)\n    tag_196:\n      pop\n      pop\n      pop\n      pop\n      mload(0x40)\n      returndatasize\n      not(0x1f)\n      0x1f\n      dup3\n      add\n      and\n      dup3\n      add\n      dup1\n      0x40\n      mstore\n      pop\n      dup2\n      add\n      swap1\n      tag_197\n      swap2\n      swap1\n      tag_81\n      jump\t// in\n    tag_197:\n        /* \"contracts/project-name1/ProjectAccessControl.sol\":722:839  _check(objectPermission, msg.sender) || daoAccessControl.inquiryAccountPermission(organizationPermission, msg.sender) */\n    tag_192:\n        /* \"contracts/project-name1/ProjectAccessControl.sol\":700:930  require(\r... */\n      tag_198\n      jumpi\n      mload(0x40)\n      0x08c379a000000000000000000000000000000000000000000000000000000000\n      dup2\n      mstore\n      0x04\n      add\n      tag_199\n      swap1\n      tag_84\n      jump\t// in\n    tag_199:\n      mload(0x40)\n      dup1\n      swap2\n      sub\n      swap1\n      revert\n    tag_198:\n        /* \"contracts/project-name1/ProjectAccessControl.sol\":1723:1777  super._grantAccountPermission(permissionName, account) */\n      tag_201\n        /* \"contracts/project-name1/ProjectAccessControl.sol\":1753:1767  permissionName */\n      dup5\n        /* \"contracts/project-name1/ProjectAccessControl.sol\":1769:1776  account */\n      dup5\n        /* \"contracts/project-name1/ProjectAccessControl.sol\":1723:1752  super._grantAccountPermission */\n      tag_202\n        /* \"contracts/project-name1/ProjectAccessControl.sol\":1723:1777  super._grantAccountPermission(permissionName, account) */\n      jump\t// in\n    tag_201:\n        /* \"contracts/project-name1/ProjectAccessControl.sol\":1572:1785  function grantAccountPermission(bytes memory permissionName, address account) \r... */\n      pop\n      pop\n      pop\n      pop\n      jump\t// out\n        /* \"contracts/project-name1/ProjectAccessControl.sol\":1793:2008  function revokeAccountPermission(bytes memory permissionName, address account) \r... */\n    tag_64:\n        /* \"contracts/AccessControl.sol\":1147:1174  keccak256(\"ACCESS_MANAGER\") */\n      0x73d57861095ed1ff7b0e5c00e25f9fc922cf9164e617149ee7073f371364c954\n        /* \"contracts/AccessControl.sol\":677:695  keccak256(\"ADMIN\") */\n      0xdf8b4c520ffe197c5343c6f5aec59570151ef9a492f2c624fd45ddde6135ec42\n        /* \"contracts/project-name1/ProjectAccessControl.sol\":722:758  _check(objectPermission, msg.sender) */\n      tag_204\n        /* \"contracts/project-name1/ProjectAccessControl.sol\":729:745  objectPermission */\n      dup3\n        /* \"contracts/project-name1/ProjectAccessControl.sol\":747:757  msg.sender */\n      caller\n        /* \"contracts/project-name1/ProjectAccessControl.sol\":722:728  _check */\n      tag_73\n        /* \"contracts/project-name1/ProjectAccessControl.sol\":722:758  _check(objectPermission, msg.sender) */\n      jump\t// in\n    tag_204:\n        /* \"contracts/project-name1/ProjectAccessControl.sol\":722:839  _check(objectPermission, msg.sender) || daoAccessControl.inquiryAccountPermission(organizationPermission, msg.sender) */\n      dup1\n      tag_205\n      jumpi\n      pop\n        /* \"contracts/project-name1/ProjectAccessControl.sol\":762:778  daoAccessControl */\n      0x03\n      0x00\n      swap1\n      sload\n      swap1\n      0x0100\n      exp\n      swap1\n      div\n      0xffffffffffffffffffffffffffffffffffffffff\n      and\n        /* \"contracts/project-name1/ProjectAccessControl.sol\":762:803  daoAccessControl.inquiryAccountPermission */\n      0xffffffffffffffffffffffffffffffffffffffff\n      and\n      0xe9cb00a2\n        /* \"contracts/project-name1/ProjectAccessControl.sol\":804:826  organizationPermission */\n      dup3\n        /* \"contracts/project-name1/ProjectAccessControl.sol\":828:838  msg.sender */\n      caller\n        /* \"contracts/project-name1/ProjectAccessControl.sol\":762:839  daoAccessControl.inquiryAccountPermission(organizationPermission, msg.sender) */\n      mload(0x40)\n      dup4\n      0xffffffff\n      and\n      0xe0\n      shl\n      dup2\n      mstore\n      0x04\n      add\n      tag_206\n      swap3\n      swap2\n      swap1\n      tag_76\n      jump\t// in\n    tag_206:\n      0x20\n      mload(0x40)\n      dup1\n      dup4\n      sub\n      dup2\n      dup7\n      dup1\n      extcodesize\n      iszero\n      dup1\n      iszero\n      tag_207\n      jumpi\n      0x00\n      dup1\n      revert\n    tag_207:\n      pop\n      gas\n      staticcall\n      iszero\n      dup1\n      iszero\n      tag_209\n      jumpi\n      returndatasize\n      0x00\n      dup1\n      returndatacopy\n      revert(0x00, returndatasize)\n    tag_209:\n      pop\n      pop\n      pop\n      pop\n      mload(0x40)\n      returndatasize\n      not(0x1f)\n      0x1f\n      dup3\n      add\n      and\n      dup3\n      add\n      dup1\n      0x40\n      mstore\n      pop\n      dup2\n      add\n      swap1\n      tag_210\n      swap2\n      swap1\n      tag_81\n      jump\t// in\n    tag_210:\n        /* \"contracts/project-name1/ProjectAccessControl.sol\":722:839  _check(objectPermission, msg.sender) || daoAccessControl.inquiryAccountPermission(organizationPermission, msg.sender) */\n    tag_205:\n        /* \"contracts/project-name1/ProjectAccessControl.sol\":700:930  require(\r... */\n      tag_211\n      jumpi\n      mload(0x40)\n      0x08c379a000000000000000000000000000000000000000000000000000000000\n      dup2\n      mstore\n      0x04\n      add\n      tag_212\n      swap1\n      tag_84\n      jump\t// in\n    tag_212:\n      mload(0x40)\n      dup1\n      swap2\n      sub\n      swap1\n      revert\n    tag_211:\n        /* \"contracts/project-name1/ProjectAccessControl.sol\":1945:2000  super._revokeAccountPermission(permissionName, account) */\n      tag_214\n        /* \"contracts/project-name1/ProjectAccessControl.sol\":1976:1990  permissionName */\n      dup5\n        /* \"contracts/project-name1/ProjectAccessControl.sol\":1992:1999  account */\n      dup5\n        /* \"contracts/project-name1/ProjectAccessControl.sol\":1945:1975  super._revokeAccountPermission */\n      tag_215\n        /* \"contracts/project-name1/ProjectAccessControl.sol\":1945:2000  super._revokeAccountPermission(permissionName, account) */\n      jump\t// in\n    tag_214:\n        /* \"contracts/project-name1/ProjectAccessControl.sol\":1793:2008  function revokeAccountPermission(bytes memory permissionName, address account) \r... */\n      pop\n      pop\n      pop\n      pop\n      jump\t// out\n        /* \"contracts/project-name1/ProjectAccessControl.sol\":2332:2563  function inquiryAccountPermission(bytes32 permission, address account) \r... */\n    tag_68:\n        /* \"contracts/project-name1/ProjectAccessControl.sol\":2473:2477  bool */\n      0x00\n        /* \"contracts/AccessControl.sol\":799:817  keccak256(\"STAFF\") */\n      0xa724c0857099da33c38b932ce5d4e84578ee9792153085d9d5e379bfba70cacb\n      dup1\n        /* \"contracts/project-name1/ProjectAccessControl.sol\":722:758  _check(objectPermission, msg.sender) */\n      tag_217\n        /* \"contracts/project-name1/ProjectAccessControl.sol\":729:745  objectPermission */\n      dup3\n        /* \"contracts/project-name1/ProjectAccessControl.sol\":747:757  msg.sender */\n      caller\n        /* \"contracts/project-name1/ProjectAccessControl.sol\":722:728  _check */\n      tag_73\n        /* \"contracts/project-name1/ProjectAccessControl.sol\":722:758  _check(objectPermission, msg.sender) */\n      jump\t// in\n    tag_217:\n        /* \"contracts/project-name1/ProjectAccessControl.sol\":722:839  _check(objectPermission, msg.sender) || daoAccessControl.inquiryAccountPermission(organizationPermission, msg.sender) */\n      dup1\n      tag_218\n      jumpi\n      pop\n        /* \"contracts/project-name1/ProjectAccessControl.sol\":762:778  daoAccessControl */\n      0x03\n      0x00\n      swap1\n      sload\n      swap1\n      0x0100\n      exp\n      swap1\n      div\n      0xffffffffffffffffffffffffffffffffffffffff\n      and\n        /* \"contracts/project-name1/ProjectAccessControl.sol\":762:803  daoAccessControl.inquiryAccountPermission */\n      0xffffffffffffffffffffffffffffffffffffffff\n      and\n      0xe9cb00a2\n        /* \"contracts/project-name1/ProjectAccessControl.sol\":804:826  organizationPermission */\n      dup3\n        /* \"contracts/project-name1/ProjectAccessControl.sol\":828:838  msg.sender */\n      caller\n        /* \"contracts/project-name1/ProjectAccessControl.sol\":762:839  daoAccessControl.inquiryAccountPermission(organizationPermission, msg.sender) */\n      mload(0x40)\n      dup4\n      0xffffffff\n      and\n      0xe0\n      shl\n      dup2\n      mstore\n      0x04\n      add\n      tag_219\n      swap3\n      swap2\n      swap1\n      tag_76\n      jump\t// in\n    tag_219:\n      0x20\n      mload(0x40)\n      dup1\n      dup4\n      sub\n      dup2\n      dup7\n      dup1\n      extcodesize\n      iszero\n      dup1\n      iszero\n      tag_220\n      jumpi\n      0x00\n      dup1\n      revert\n    tag_220:\n      pop\n      gas\n      staticcall\n      iszero\n      dup1\n      iszero\n      tag_222\n      jumpi\n      returndatasize\n      0x00\n      dup1\n      returndatacopy\n      revert(0x00, returndatasize)\n    tag_222:\n      pop\n      pop\n      pop\n      pop\n      mload(0x40)\n      returndatasize\n      not(0x1f)\n      0x1f\n      dup3\n      add\n      and\n      dup3\n      add\n      dup1\n      0x40\n      mstore\n      pop\n      dup2\n      add\n      swap1\n      tag_223\n      swap2\n      swap1\n      tag_81\n      jump\t// in\n    tag_223:\n        /* \"contracts/project-name1/ProjectAccessControl.sol\":722:839  _check(objectPermission, msg.sender) || daoAccessControl.inquiryAccountPermission(organizationPermission, msg.sender) */\n    tag_218:\n        /* \"contracts/project-name1/ProjectAccessControl.sol\":700:930  require(\r... */\n      tag_224\n      jumpi\n      mload(0x40)\n      0x08c379a000000000000000000000000000000000000000000000000000000000\n      dup2\n      mstore\n      0x04\n      add\n      tag_225\n      swap1\n      tag_84\n      jump\t// in\n    tag_225:\n      mload(0x40)\n      dup1\n      swap2\n      sub\n      swap1\n      revert\n    tag_224:\n        /* \"contracts/project-name1/ProjectAccessControl.sol\":2503:2555  super._inquiryAccountPermission(permission, account) */\n      tag_227\n        /* \"contracts/project-name1/ProjectAccessControl.sol\":2535:2545  permission */\n      dup6\n        /* \"contracts/project-name1/ProjectAccessControl.sol\":2547:2554  account */\n      dup6\n        /* \"contracts/project-name1/ProjectAccessControl.sol\":2503:2534  super._inquiryAccountPermission */\n      tag_228\n        /* \"contracts/project-name1/ProjectAccessControl.sol\":2503:2555  super._inquiryAccountPermission(permission, account) */\n      jump\t// in\n    tag_227:\n        /* \"contracts/project-name1/ProjectAccessControl.sol\":2496:2555  return super._inquiryAccountPermission(permission, account) */\n      swap3\n      pop\n        /* \"contracts/project-name1/ProjectAccessControl.sol\":2332:2563  function inquiryAccountPermission(bytes32 permission, address account) \r... */\n      pop\n      pop\n      swap3\n      swap2\n      pop\n      pop\n      jump\t// out\n        /* \"contracts/AccessControl.sol\":1652:1924  function _check(bytes32 permission, address account) internal view virtual returns (bool) {\r... */\n    tag_73:\n        /* \"contracts/AccessControl.sol\":1736:1740  bool */\n      0x00\n        /* \"contracts/AccessControl.sol\":1757:1772  _allPermissions */\n      dup1\n        /* \"contracts/AccessControl.sol\":1757:1784  _allPermissions[permission] */\n      0x00\n        /* \"contracts/AccessControl.sol\":1773:1783  permission */\n      dup5\n        /* \"contracts/AccessControl.sol\":1757:1784  _allPermissions[permission] */\n      dup2\n      mstore\n      0x20\n      add\n      swap1\n      dup2\n      mstore\n      0x20\n      add\n      0x00\n      keccak256\n        /* \"contracts/AccessControl.sol\":1757:1792  _allPermissions[permission].isValid */\n      0x03\n      add\n      0x00\n      swap1\n      sload\n      swap1\n      0x0100\n      exp\n      swap1\n      div\n      0xff\n      and\n        /* \"contracts/AccessControl.sol\":1753:1917  if(!_allPermissions[permission].isValid) {\r... */\n      tag_230\n      jumpi\n        /* \"contracts/AccessControl.sol\":1816:1821  false */\n      0x00\n        /* \"contracts/AccessControl.sol\":1809:1821  return false */\n      swap1\n      pop\n      jump(tag_229)\n        /* \"contracts/AccessControl.sol\":1753:1917  if(!_allPermissions[permission].isValid) {\r... */\n    tag_230:\n        /* \"contracts/AccessControl.sol\":1861:1876  _allPermissions */\n      0x00\n        /* \"contracts/AccessControl.sol\":1861:1888  _allPermissions[permission] */\n      dup1\n        /* \"contracts/AccessControl.sol\":1877:1887  permission */\n      dup5\n        /* \"contracts/AccessControl.sol\":1861:1888  _allPermissions[permission] */\n      dup2\n      mstore\n      0x20\n      add\n      swap1\n      dup2\n      mstore\n      0x20\n      add\n      0x00\n      keccak256\n        /* \"contracts/AccessControl.sol\":1861:1896  _allPermissions[permission].members */\n      0x00\n      add\n        /* \"contracts/AccessControl.sol\":1861:1905  _allPermissions[permission].members[account] */\n      0x00\n        /* \"contracts/AccessControl.sol\":1897:1904  account */\n      dup4\n        /* \"contracts/AccessControl.sol\":1861:1905  _allPermissions[permission].members[account] */\n      0xffffffffffffffffffffffffffffffffffffffff\n      and\n      0xffffffffffffffffffffffffffffffffffffffff\n      and\n      dup2\n      mstore\n      0x20\n      add\n      swap1\n      dup2\n      mstore\n      0x20\n      add\n      0x00\n      keccak256\n      0x00\n      swap1\n      sload\n      swap1\n      0x0100\n      exp\n      swap1\n      div\n      0xff\n      and\n        /* \"contracts/AccessControl.sol\":1854:1905  return _allPermissions[permission].members[account] */\n      swap1\n      pop\n        /* \"contracts/AccessControl.sol\":1652:1924  function _check(bytes32 permission, address account) internal view virtual returns (bool) {\r... */\n    tag_229:\n      swap3\n      swap2\n      pop\n      pop\n      jump\t// out\n        /* \"contracts/AccessControl.sol\":4976:5480  function _deletePermission(bytes memory permissionName) internal virtual {\r... */\n    tag_87:\n        /* \"contracts/AccessControl.sol\":5060:5078  bytes32 permission */\n      0x00\n        /* \"contracts/AccessControl.sol\":5091:5105  permissionName */\n      dup2\n        /* \"contracts/AccessControl.sol\":5081:5106  keccak256(permissionName) */\n      dup1\n      mload\n      swap1\n      0x20\n      add\n      keccak256\n        /* \"contracts/AccessControl.sol\":5060:5106  bytes32 permission = keccak256(permissionName) */\n      swap1\n      pop\n        /* \"contracts/AccessControl.sol\":5121:5136  _allPermissions */\n      0x00\n        /* \"contracts/AccessControl.sol\":5121:5148  _allPermissions[permission] */\n      dup1\n        /* \"contracts/AccessControl.sol\":5137:5147  permission */\n      dup3\n        /* \"contracts/AccessControl.sol\":5121:5148  _allPermissions[permission] */\n      dup2\n      mstore\n      0x20\n      add\n      swap1\n      dup2\n      mstore\n      0x20\n      add\n      0x00\n      keccak256\n        /* \"contracts/AccessControl.sol\":5121:5156  _allPermissions[permission].isValid */\n      0x03\n      add\n      0x00\n      swap1\n      sload\n      swap1\n      0x0100\n      exp\n      swap1\n      div\n      0xff\n      and\n        /* \"contracts/AccessControl.sol\":5121:5179  _allPermissions[permission].isValid && permission != ADMIN */\n      dup1\n      iszero\n      tag_233\n      jumpi\n      pop\n        /* \"contracts/AccessControl.sol\":677:695  keccak256(\"ADMIN\") */\n      0xdf8b4c520ffe197c5343c6f5aec59570151ef9a492f2c624fd45ddde6135ec42\n        /* \"contracts/AccessControl.sol\":5160:5170  permission */\n      dup2\n        /* \"contracts/AccessControl.sol\":5160:5179  permission != ADMIN */\n      eq\n      iszero\n        /* \"contracts/AccessControl.sol\":5121:5179  _allPermissions[permission].isValid && permission != ADMIN */\n    tag_233:\n        /* \"contracts/AccessControl.sol\":5117:5473  if (_allPermissions[permission].isValid && permission != ADMIN) {\r... */\n      iszero\n      tag_234\n      jumpi\n        /* \"contracts/AccessControl.sol\":5312:5317  false */\n      0x00\n        /* \"contracts/AccessControl.sol\":5274:5289  _allPermissions */\n      dup1\n        /* \"contracts/AccessControl.sol\":5274:5301  _allPermissions[permission] */\n      0x00\n        /* \"contracts/AccessControl.sol\":5290:5300  permission */\n      dup4\n        /* \"contracts/AccessControl.sol\":5274:5301  _allPermissions[permission] */\n      dup2\n      mstore\n      0x20\n      add\n      swap1\n      dup2\n      mstore\n      0x20\n      add\n      0x00\n      keccak256\n        /* \"contracts/AccessControl.sol\":5274:5309  _allPermissions[permission].isValid */\n      0x03\n      add\n      0x00\n        /* \"contracts/AccessControl.sol\":5274:5317  _allPermissions[permission].isValid = false */\n      0x0100\n      exp\n      dup2\n      sload\n      dup2\n      0xff\n      mul\n      not\n      and\n      swap1\n      dup4\n      iszero\n      iszero\n      mul\n      or\n      swap1\n      sstore\n      pop\n        /* \"contracts/AccessControl.sol\":5371:5381  msg.sender */\n      caller\n        /* \"contracts/AccessControl.sol\":5337:5382  PermissionDeleted(permissionName, msg.sender) */\n      0xffffffffffffffffffffffffffffffffffffffff\n      and\n        /* \"contracts/AccessControl.sol\":5355:5369  permissionName */\n      dup3\n        /* \"contracts/AccessControl.sol\":5337:5382  PermissionDeleted(permissionName, msg.sender) */\n      mload(0x40)\n      tag_235\n      swap2\n      swap1\n      tag_236\n      jump\t// in\n    tag_235:\n      mload(0x40)\n      dup1\n      swap2\n      sub\n      swap1\n      keccak256\n      0xef4f3adabb4ce2cc6076cc23d211eff03f6e49839a9d773d7c77f48a83a2d859\n      mload(0x40)\n      mload(0x40)\n      dup1\n      swap2\n      sub\n      swap1\n      log3\n        /* \"contracts/AccessControl.sol\":5117:5473  if (_allPermissions[permission].isValid && permission != ADMIN) {\r... */\n      jump(tag_237)\n    tag_234:\n        /* \"contracts/AccessControl.sol\":5415:5461  _informFailure(\"The permission is not valid.\") */\n      tag_238\n      mload(0x40)\n      dup1\n      0x40\n      add\n      0x40\n      mstore\n      dup1\n      0x1c\n      dup2\n      mstore\n      0x20\n      add\n      0x546865207065726d697373696f6e206973206e6f742076616c69642e00000000\n      dup2\n      mstore\n      pop\n        /* \"contracts/AccessControl.sol\":5415:5429  _informFailure */\n      tag_239\n        /* \"contracts/AccessControl.sol\":5415:5461  _informFailure(\"The permission is not valid.\") */\n      jump\t// in\n    tag_238:\n        /* \"contracts/AccessControl.sol\":5117:5473  if (_allPermissions[permission].isValid && permission != ADMIN) {\r... */\n    tag_237:\n        /* \"contracts/AccessControl.sol\":5049:5480  {\r... */\n      pop\n        /* \"contracts/AccessControl.sol\":4976:5480  function _deletePermission(bytes memory permissionName) internal virtual {\r... */\n      pop\n      jump\t// out\n        /* \"contracts/AccessControl.sol\":7482:8165  function _deleteAccount(address account) internal virtual {\r... */\n    tag_100:\n        /* \"contracts/AccessControl.sol\":7636:7658  _check(ADMIN, account) */\n      tag_241\n        /* \"contracts/AccessControl.sol\":677:695  keccak256(\"ADMIN\") */\n      0xdf8b4c520ffe197c5343c6f5aec59570151ef9a492f2c624fd45ddde6135ec42\n        /* \"contracts/AccessControl.sol\":7650:7657  account */\n      dup3\n        /* \"contracts/AccessControl.sol\":7636:7642  _check */\n      tag_73\n        /* \"contracts/AccessControl.sol\":7636:7658  _check(ADMIN, account) */\n      jump\t// in\n    tag_241:\n        /* \"contracts/AccessControl.sol\":7635:7658  !_check(ADMIN, account) */\n      iszero\n        /* \"contracts/AccessControl.sol\":7635:7687  !_check(ADMIN, account) || _check(ADMIN, msg.sender) */\n      dup1\n      tag_242\n      jumpi\n      pop\n        /* \"contracts/AccessControl.sol\":7662:7687  _check(ADMIN, msg.sender) */\n      tag_243\n        /* \"contracts/AccessControl.sol\":677:695  keccak256(\"ADMIN\") */\n      0xdf8b4c520ffe197c5343c6f5aec59570151ef9a492f2c624fd45ddde6135ec42\n        /* \"contracts/AccessControl.sol\":7676:7686  msg.sender */\n      caller\n        /* \"contracts/AccessControl.sol\":7662:7668  _check */\n      tag_73\n        /* \"contracts/AccessControl.sol\":7662:7687  _check(ADMIN, msg.sender) */\n      jump\t// in\n    tag_243:\n        /* \"contracts/AccessControl.sol\":7635:7687  !_check(ADMIN, account) || _check(ADMIN, msg.sender) */\n    tag_242:\n        /* \"contracts/AccessControl.sol\":7632:8158  if(!_check(ADMIN, account) || _check(ADMIN, msg.sender)) {\r... */\n      iszero\n      tag_244\n      jumpi\n        /* \"contracts/AccessControl.sol\":7777:7783  uint i */\n      0x00\n        /* \"contracts/AccessControl.sol\":7786:7787  1 */\n      0x01\n        /* \"contracts/AccessControl.sol\":7777:7787  uint i = 1 */\n      swap1\n      pop\n        /* \"contracts/AccessControl.sol\":7773:8021  for(uint i = 1; i < _numberOfPermissions; i++) {\r... */\n    tag_245:\n        /* \"contracts/AccessControl.sol\":7793:7813  _numberOfPermissions */\n      sload(0x02)\n        /* \"contracts/AccessControl.sol\":7789:7790  i */\n      dup2\n        /* \"contracts/AccessControl.sol\":7789:7813  i < _numberOfPermissions */\n      lt\n        /* \"contracts/AccessControl.sol\":7773:8021  for(uint i = 1; i < _numberOfPermissions; i++) {\r... */\n      iszero\n      tag_246\n      jumpi\n        /* \"contracts/AccessControl.sol\":7842:7857  _allPermissions */\n      0x00\n        /* \"contracts/AccessControl.sol\":7842:7881  _allPermissions[_indexOfPermissions[i]] */\n      dup1\n        /* \"contracts/AccessControl.sol\":7858:7877  _indexOfPermissions */\n      0x01\n        /* \"contracts/AccessControl.sol\":7858:7880  _indexOfPermissions[i] */\n      0x00\n        /* \"contracts/AccessControl.sol\":7878:7879  i */\n      dup5\n        /* \"contracts/AccessControl.sol\":7858:7880  _indexOfPermissions[i] */\n      dup2\n      mstore\n      0x20\n      add\n      swap1\n      dup2\n      mstore\n      0x20\n      add\n      0x00\n      keccak256\n      sload\n        /* \"contracts/AccessControl.sol\":7842:7881  _allPermissions[_indexOfPermissions[i]] */\n      dup2\n      mstore\n      0x20\n      add\n      swap1\n      dup2\n      mstore\n      0x20\n      add\n      0x00\n      keccak256\n        /* \"contracts/AccessControl.sol\":7842:7889  _allPermissions[_indexOfPermissions[i]].members */\n      0x00\n      add\n        /* \"contracts/AccessControl.sol\":7842:7898  _allPermissions[_indexOfPermissions[i]].members[account] */\n      0x00\n        /* \"contracts/AccessControl.sol\":7890:7897  account */\n      dup4\n        /* \"contracts/AccessControl.sol\":7842:7898  _allPermissions[_indexOfPermissions[i]].members[account] */\n      0xffffffffffffffffffffffffffffffffffffffff\n      and\n      0xffffffffffffffffffffffffffffffffffffffff\n      and\n      dup2\n      mstore\n      0x20\n      add\n      swap1\n      dup2\n      mstore\n      0x20\n      add\n      0x00\n      keccak256\n      0x00\n      swap1\n      sload\n      swap1\n      0x0100\n      exp\n      swap1\n      div\n      0xff\n      and\n        /* \"contracts/AccessControl.sol\":7839:8006  if(_allPermissions[_indexOfPermissions[i]].members[account]){\r... */\n      iszero\n      tag_248\n      jumpi\n        /* \"contracts/AccessControl.sol\":7981:7986  false */\n      0x00\n        /* \"contracts/AccessControl.sol\":7922:7937  _allPermissions */\n      dup1\n        /* \"contracts/AccessControl.sol\":7922:7961  _allPermissions[_indexOfPermissions[i]] */\n      0x00\n        /* \"contracts/AccessControl.sol\":7938:7957  _indexOfPermissions */\n      0x01\n        /* \"contracts/AccessControl.sol\":7938:7960  _indexOfPermissions[i] */\n      0x00\n        /* \"contracts/AccessControl.sol\":7958:7959  i */\n      dup6\n        /* \"contracts/AccessControl.sol\":7938:7960  _indexOfPermissions[i] */\n      dup2\n      mstore\n      0x20\n      add\n      swap1\n      dup2\n      mstore\n      0x20\n      add\n      0x00\n      keccak256\n      sload\n        /* \"contracts/AccessControl.sol\":7922:7961  _allPermissions[_indexOfPermissions[i]] */\n      dup2\n      mstore\n      0x20\n      add\n      swap1\n      dup2\n      mstore\n      0x20\n      add\n      0x00\n      keccak256\n        /* \"contracts/AccessControl.sol\":7922:7969  _allPermissions[_indexOfPermissions[i]].members */\n      0x00\n      add\n        /* \"contracts/AccessControl.sol\":7922:7978  _allPermissions[_indexOfPermissions[i]].members[account] */\n      0x00\n        /* \"contracts/AccessControl.sol\":7970:7977  account */\n      dup5\n        /* \"contracts/AccessControl.sol\":7922:7978  _allPermissions[_indexOfPermissions[i]].members[account] */\n      0xffffffffffffffffffffffffffffffffffffffff\n      and\n      0xffffffffffffffffffffffffffffffffffffffff\n      and\n      dup2\n      mstore\n      0x20\n      add\n      swap1\n      dup2\n      mstore\n      0x20\n      add\n      0x00\n      keccak256\n      0x00\n        /* \"contracts/AccessControl.sol\":7922:7986  _allPermissions[_indexOfPermissions[i]].members[account] = false */\n      0x0100\n      exp\n      dup2\n      sload\n      dup2\n      0xff\n      mul\n      not\n      and\n      swap1\n      dup4\n      iszero\n      iszero\n      mul\n      or\n      swap1\n      sstore\n      pop\n        /* \"contracts/AccessControl.sol\":7839:8006  if(_allPermissions[_indexOfPermissions[i]].members[account]){\r... */\n    tag_248:\n        /* \"contracts/AccessControl.sol\":7815:7818  i++ */\n      dup1\n      dup1\n      tag_249\n      swap1\n      tag_250\n      jump\t// in\n    tag_249:\n      swap2\n      pop\n      pop\n        /* \"contracts/AccessControl.sol\":7773:8021  for(uint i = 1; i < _numberOfPermissions; i++) {\r... */\n      jump(tag_245)\n    tag_246:\n      pop\n        /* \"contracts/AccessControl.sol\":8060:8070  msg.sender */\n      caller\n        /* \"contracts/AccessControl.sol\":8036:8071  AccountDeleted(account, msg.sender) */\n      0xffffffffffffffffffffffffffffffffffffffff\n      and\n        /* \"contracts/AccessControl.sol\":8051:8058  account */\n      dup2\n        /* \"contracts/AccessControl.sol\":8036:8071  AccountDeleted(account, msg.sender) */\n      0xffffffffffffffffffffffffffffffffffffffff\n      and\n      0xfd7e144a5e02c1180e00f9591ef4f60aa95b127c4f134847224a4b6cb99fef96\n      mload(0x40)\n      mload(0x40)\n      dup1\n      swap2\n      sub\n      swap1\n      log3\n        /* \"contracts/AccessControl.sol\":7632:8158  if(!_check(ADMIN, account) || _check(ADMIN, msg.sender)) {\r... */\n      jump(tag_251)\n    tag_244:\n        /* \"contracts/AccessControl.sol\":8104:8146  _informFailure(\"You cannot delete ADMIN.\") */\n      tag_252\n      mload(0x40)\n      dup1\n      0x40\n      add\n      0x40\n      mstore\n      dup1\n      0x18\n      dup2\n      mstore\n      0x20\n      add\n      0x596f752063616e6e6f742064656c6574652041444d494e2e0000000000000000\n      dup2\n      mstore\n      pop\n        /* \"contracts/AccessControl.sol\":8104:8118  _informFailure */\n      tag_239\n        /* \"contracts/AccessControl.sol\":8104:8146  _informFailure(\"You cannot delete ADMIN.\") */\n      jump\t// in\n    tag_252:\n        /* \"contracts/AccessControl.sol\":7632:8158  if(!_check(ADMIN, account) || _check(ADMIN, msg.sender)) {\r... */\n    tag_251:\n        /* \"contracts/AccessControl.sol\":7482:8165  function _deleteAccount(address account) internal virtual {\r... */\n      pop\n      jump\t// out\n        /* \"contracts/AccessControl.sol\":9934:10267  function _inquiryAdmin() internal view virtual returns (address) {\r... */\n    tag_119:\n        /* \"contracts/AccessControl.sol\":9990:9997  address */\n      0x00\n        /* \"contracts/AccessControl.sol\":10010:10016  uint i */\n      dup1\n        /* \"contracts/AccessControl.sol\":10019:10020  0 */\n      0x00\n        /* \"contracts/AccessControl.sol\":10010:10020  uint i = 0 */\n      swap1\n      pop\n        /* \"contracts/AccessControl.sol\":10031:10211  for(; i < _allPermissions[ADMIN].length; i++) {\r... */\n    tag_254:\n        /* \"contracts/AccessControl.sol\":10041:10056  _allPermissions */\n      0x00\n        /* \"contracts/AccessControl.sol\":10041:10063  _allPermissions[ADMIN] */\n      dup1\n        /* \"contracts/AccessControl.sol\":677:695  keccak256(\"ADMIN\") */\n      0xdf8b4c520ffe197c5343c6f5aec59570151ef9a492f2c624fd45ddde6135ec42\n        /* \"contracts/AccessControl.sol\":10041:10063  _allPermissions[ADMIN] */\n      dup2\n      mstore\n      0x20\n      add\n      swap1\n      dup2\n      mstore\n      0x20\n      add\n      0x00\n      keccak256\n        /* \"contracts/AccessControl.sol\":10041:10070  _allPermissions[ADMIN].length */\n      0x02\n      add\n      sload\n        /* \"contracts/AccessControl.sol\":10037:10038  i */\n      dup2\n        /* \"contracts/AccessControl.sol\":10037:10070  i < _allPermissions[ADMIN].length */\n      lt\n        /* \"contracts/AccessControl.sol\":10031:10211  for(; i < _allPermissions[ADMIN].length; i++) {\r... */\n      iszero\n      tag_255\n      jumpi\n        /* \"contracts/AccessControl.sol\":10095:10110  _allPermissions */\n      0x00\n        /* \"contracts/AccessControl.sol\":10095:10117  _allPermissions[ADMIN] */\n      dup1\n        /* \"contracts/AccessControl.sol\":677:695  keccak256(\"ADMIN\") */\n      0xdf8b4c520ffe197c5343c6f5aec59570151ef9a492f2c624fd45ddde6135ec42\n        /* \"contracts/AccessControl.sol\":10095:10117  _allPermissions[ADMIN] */\n      dup2\n      mstore\n      0x20\n      add\n      swap1\n      dup2\n      mstore\n      0x20\n      add\n      0x00\n      keccak256\n        /* \"contracts/AccessControl.sol\":10095:10125  _allPermissions[ADMIN].members */\n      0x00\n      add\n        /* \"contracts/AccessControl.sol\":10095:10158  _allPermissions[ADMIN].members[_allPermissions[ADMIN].index[i]] */\n      0x00\n        /* \"contracts/AccessControl.sol\":10126:10141  _allPermissions */\n      dup1\n        /* \"contracts/AccessControl.sol\":10126:10148  _allPermissions[ADMIN] */\n      0x00\n        /* \"contracts/AccessControl.sol\":677:695  keccak256(\"ADMIN\") */\n      0xdf8b4c520ffe197c5343c6f5aec59570151ef9a492f2c624fd45ddde6135ec42\n        /* \"contracts/AccessControl.sol\":10126:10148  _allPermissions[ADMIN] */\n      dup2\n      mstore\n      0x20\n      add\n      swap1\n      dup2\n      mstore\n      0x20\n      add\n      0x00\n      keccak256\n        /* \"contracts/AccessControl.sol\":10126:10154  _allPermissions[ADMIN].index */\n      0x01\n      add\n        /* \"contracts/AccessControl.sol\":10126:10157  _allPermissions[ADMIN].index[i] */\n      0x00\n        /* \"contracts/AccessControl.sol\":10155:10156  i */\n      dup5\n        /* \"contracts/AccessControl.sol\":10126:10157  _allPermissions[ADMIN].index[i] */\n      dup2\n      mstore\n      0x20\n      add\n      swap1\n      dup2\n      mstore\n      0x20\n      add\n      0x00\n      keccak256\n      0x00\n      swap1\n      sload\n      swap1\n      0x0100\n      exp\n      swap1\n      div\n      0xffffffffffffffffffffffffffffffffffffffff\n      and\n        /* \"contracts/AccessControl.sol\":10095:10158  _allPermissions[ADMIN].members[_allPermissions[ADMIN].index[i]] */\n      0xffffffffffffffffffffffffffffffffffffffff\n      and\n      0xffffffffffffffffffffffffffffffffffffffff\n      and\n      dup2\n      mstore\n      0x20\n      add\n      swap1\n      dup2\n      mstore\n      0x20\n      add\n      0x00\n      keccak256\n      0x00\n      swap1\n      sload\n      swap1\n      0x0100\n      exp\n      swap1\n      div\n      0xff\n      and\n        /* \"contracts/AccessControl.sol\":10092:10200  if(_allPermissions[ADMIN].members[_allPermissions[ADMIN].index[i]]) {\r... */\n      iszero\n      tag_257\n      jumpi\n        /* \"contracts/AccessControl.sol\":10179:10184  break */\n      jump(tag_255)\n        /* \"contracts/AccessControl.sol\":10092:10200  if(_allPermissions[ADMIN].members[_allPermissions[ADMIN].index[i]]) {\r... */\n    tag_257:\n        /* \"contracts/AccessControl.sol\":10072:10075  i++ */\n      dup1\n      dup1\n      tag_258\n      swap1\n      tag_250\n      jump\t// in\n    tag_258:\n      swap2\n      pop\n      pop\n        /* \"contracts/AccessControl.sol\":10031:10211  for(; i < _allPermissions[ADMIN].length; i++) {\r... */\n      jump(tag_254)\n    tag_255:\n        /* \"contracts/AccessControl.sol\":10228:10243  _allPermissions */\n      0x00\n        /* \"contracts/AccessControl.sol\":10228:10250  _allPermissions[ADMIN] */\n      dup1\n        /* \"contracts/AccessControl.sol\":677:695  keccak256(\"ADMIN\") */\n      0xdf8b4c520ffe197c5343c6f5aec59570151ef9a492f2c624fd45ddde6135ec42\n        /* \"contracts/AccessControl.sol\":10228:10250  _allPermissions[ADMIN] */\n      dup2\n      mstore\n      0x20\n      add\n      swap1\n      dup2\n      mstore\n      0x20\n      add\n      0x00\n      keccak256\n        /* \"contracts/AccessControl.sol\":10228:10256  _allPermissions[ADMIN].index */\n      0x01\n      add\n        /* \"contracts/AccessControl.sol\":10228:10259  _allPermissions[ADMIN].index[i] */\n      0x00\n        /* \"contracts/AccessControl.sol\":10257:10258  i */\n      dup3\n        /* \"contracts/AccessControl.sol\":10228:10259  _allPermissions[ADMIN].index[i] */\n      dup2\n      mstore\n      0x20\n      add\n      swap1\n      dup2\n      mstore\n      0x20\n      add\n      0x00\n      keccak256\n      0x00\n      swap1\n      sload\n      swap1\n      0x0100\n      exp\n      swap1\n      div\n      0xffffffffffffffffffffffffffffffffffffffff\n      and\n        /* \"contracts/AccessControl.sol\":10221:10259  return _allPermissions[ADMIN].index[i] */\n      swap2\n      pop\n      pop\n        /* \"contracts/AccessControl.sol\":9934:10267  function _inquiryAdmin() internal view virtual returns (address) {\r... */\n      swap1\n      jump\t// out\n        /* \"contracts/AccessControl.sol\":8173:8455  function _transferAdmin(address account) internal virtual {\r... */\n    tag_132:\n        /* \"contracts/AccessControl.sol\":8287:8292  false */\n      0x00\n        /* \"contracts/AccessControl.sol\":8242:8257  _allPermissions */\n      dup1\n        /* \"contracts/AccessControl.sol\":8242:8264  _allPermissions[ADMIN] */\n      0x00\n        /* \"contracts/AccessControl.sol\":677:695  keccak256(\"ADMIN\") */\n      0xdf8b4c520ffe197c5343c6f5aec59570151ef9a492f2c624fd45ddde6135ec42\n        /* \"contracts/AccessControl.sol\":8242:8264  _allPermissions[ADMIN] */\n      dup2\n      mstore\n      0x20\n      add\n      swap1\n      dup2\n      mstore\n      0x20\n      add\n      0x00\n      keccak256\n        /* \"contracts/AccessControl.sol\":8242:8272  _allPermissions[ADMIN].members */\n      0x00\n      add\n        /* \"contracts/AccessControl.sol\":8242:8284  _allPermissions[ADMIN].members[msg.sender] */\n      0x00\n        /* \"contracts/AccessControl.sol\":8273:8283  msg.sender */\n      caller\n        /* \"contracts/AccessControl.sol\":8242:8284  _allPermissions[ADMIN].members[msg.sender] */\n      0xffffffffffffffffffffffffffffffffffffffff\n      and\n      0xffffffffffffffffffffffffffffffffffffffff\n      and\n      dup2\n      mstore\n      0x20\n      add\n      swap1\n      dup2\n      mstore\n      0x20\n      add\n      0x00\n      keccak256\n      0x00\n        /* \"contracts/AccessControl.sol\":8242:8292  _allPermissions[ADMIN].members[msg.sender] = false */\n      0x0100\n      exp\n      dup2\n      sload\n      dup2\n      0xff\n      mul\n      not\n      and\n      swap1\n      dup4\n      iszero\n      iszero\n      mul\n      or\n      swap1\n      sstore\n      pop\n        /* \"contracts/AccessControl.sol\":8303:8338  _changeAccountIndex(ADMIN, account) */\n      tag_260\n        /* \"contracts/AccessControl.sol\":677:695  keccak256(\"ADMIN\") */\n      0xdf8b4c520ffe197c5343c6f5aec59570151ef9a492f2c624fd45ddde6135ec42\n        /* \"contracts/AccessControl.sol\":8330:8337  account */\n      dup3\n        /* \"contracts/AccessControl.sol\":8303:8322  _changeAccountIndex */\n      tag_261\n        /* \"contracts/AccessControl.sol\":8303:8338  _changeAccountIndex(ADMIN, account) */\n      jump\t// in\n    tag_260:\n        /* \"contracts/AccessControl.sol\":8391:8395  true */\n      0x01\n        /* \"contracts/AccessControl.sol\":8349:8364  _allPermissions */\n      0x00\n        /* \"contracts/AccessControl.sol\":8349:8371  _allPermissions[ADMIN] */\n      dup1\n        /* \"contracts/AccessControl.sol\":677:695  keccak256(\"ADMIN\") */\n      0xdf8b4c520ffe197c5343c6f5aec59570151ef9a492f2c624fd45ddde6135ec42\n        /* \"contracts/AccessControl.sol\":8349:8371  _allPermissions[ADMIN] */\n      dup2\n      mstore\n      0x20\n      add\n      swap1\n      dup2\n      mstore\n      0x20\n      add\n      0x00\n      keccak256\n        /* \"contracts/AccessControl.sol\":8349:8379  _allPermissions[ADMIN].members */\n      0x00\n      add\n        /* \"contracts/AccessControl.sol\":8349:8388  _allPermissions[ADMIN].members[account] */\n      0x00\n        /* \"contracts/AccessControl.sol\":8380:8387  account */\n      dup4\n        /* \"contracts/AccessControl.sol\":8349:8388  _allPermissions[ADMIN].members[account] */\n      0xffffffffffffffffffffffffffffffffffffffff\n      and\n      0xffffffffffffffffffffffffffffffffffffffff\n      and\n      dup2\n      mstore\n      0x20\n      add\n      swap1\n      dup2\n      mstore\n      0x20\n      add\n      0x00\n      keccak256\n      0x00\n        /* \"contracts/AccessControl.sol\":8349:8395  _allPermissions[ADMIN].members[account] = true */\n      0x0100\n      exp\n      dup2\n      sload\n      dup2\n      0xff\n      mul\n      not\n      and\n      swap1\n      dup4\n      iszero\n      iszero\n      mul\n      or\n      swap1\n      sstore\n      pop\n        /* \"contracts/AccessControl.sol\":8436:8446  msg.sender */\n      caller\n        /* \"contracts/AccessControl.sol\":8411:8447  AdminTransfered(account, msg.sender) */\n      0xffffffffffffffffffffffffffffffffffffffff\n      and\n        /* \"contracts/AccessControl.sol\":8427:8434  account */\n      dup2\n        /* \"contracts/AccessControl.sol\":8411:8447  AdminTransfered(account, msg.sender) */\n      0xffffffffffffffffffffffffffffffffffffffff\n      and\n      0x173de3514d8508f36ce8c81d509adcd8c8c76098400f685d3042b36f9a4160c3\n      mload(0x40)\n      mload(0x40)\n      dup1\n      swap2\n      sub\n      swap1\n      log3\n        /* \"contracts/AccessControl.sol\":8173:8455  function _transferAdmin(address account) internal virtual {\r... */\n      pop\n      jump\t// out\n        /* \"contracts/AccessControl.sol\":8843:9334  function _inquiryAllPermissionsByAccount(address account) \r... */\n    tag_145:\n        /* \"contracts/AccessControl.sol\":8952:8968  bytes32[] memory */\n      0x60\n        /* \"contracts/AccessControl.sol\":8987:9022  bytes32[] memory relatedPermissions */\n      dup1\n        /* \"contracts/AccessControl.sol\":9033:9039  uint j */\n      0x00\n        /* \"contracts/AccessControl.sol\":9058:9064  uint i */\n      dup1\n        /* \"contracts/AccessControl.sol\":9054:9291  for(uint i = 0; i < _numberOfPermissions; i++) {\r... */\n    tag_263:\n        /* \"contracts/AccessControl.sol\":9074:9094  _numberOfPermissions */\n      sload(0x02)\n        /* \"contracts/AccessControl.sol\":9070:9071  i */\n      dup2\n        /* \"contracts/AccessControl.sol\":9070:9094  i < _numberOfPermissions */\n      lt\n        /* \"contracts/AccessControl.sol\":9054:9291  for(uint i = 0; i < _numberOfPermissions; i++) {\r... */\n      iszero\n      tag_264\n      jumpi\n        /* \"contracts/AccessControl.sol\":9119:9134  _allPermissions */\n      0x00\n        /* \"contracts/AccessControl.sol\":9119:9158  _allPermissions[_indexOfPermissions[i]] */\n      dup1\n        /* \"contracts/AccessControl.sol\":9135:9154  _indexOfPermissions */\n      0x01\n        /* \"contracts/AccessControl.sol\":9135:9157  _indexOfPermissions[i] */\n      0x00\n        /* \"contracts/AccessControl.sol\":9155:9156  i */\n      dup5\n        /* \"contracts/AccessControl.sol\":9135:9157  _indexOfPermissions[i] */\n      dup2\n      mstore\n      0x20\n      add\n      swap1\n      dup2\n      mstore\n      0x20\n      add\n      0x00\n      keccak256\n      sload\n        /* \"contracts/AccessControl.sol\":9119:9158  _allPermissions[_indexOfPermissions[i]] */\n      dup2\n      mstore\n      0x20\n      add\n      swap1\n      dup2\n      mstore\n      0x20\n      add\n      0x00\n      keccak256\n        /* \"contracts/AccessControl.sol\":9119:9166  _allPermissions[_indexOfPermissions[i]].members */\n      0x00\n      add\n        /* \"contracts/AccessControl.sol\":9119:9175  _allPermissions[_indexOfPermissions[i]].members[account] */\n      0x00\n        /* \"contracts/AccessControl.sol\":9167:9174  account */\n      dup7\n        /* \"contracts/AccessControl.sol\":9119:9175  _allPermissions[_indexOfPermissions[i]].members[account] */\n      0xffffffffffffffffffffffffffffffffffffffff\n      and\n      0xffffffffffffffffffffffffffffffffffffffff\n      and\n      dup2\n      mstore\n      0x20\n      add\n      swap1\n      dup2\n      mstore\n      0x20\n      add\n      0x00\n      keccak256\n      0x00\n      swap1\n      sload\n      swap1\n      0x0100\n      exp\n      swap1\n      div\n      0xff\n      and\n        /* \"contracts/AccessControl.sol\":9116:9280  if(_allPermissions[_indexOfPermissions[i]].members[account]) {\r... */\n      iszero\n      tag_266\n      jumpi\n        /* \"contracts/AccessControl.sol\":9220:9239  _indexOfPermissions */\n      0x01\n        /* \"contracts/AccessControl.sol\":9220:9242  _indexOfPermissions[i] */\n      0x00\n        /* \"contracts/AccessControl.sol\":9240:9241  i */\n      dup3\n        /* \"contracts/AccessControl.sol\":9220:9242  _indexOfPermissions[i] */\n      dup2\n      mstore\n      0x20\n      add\n      swap1\n      dup2\n      mstore\n      0x20\n      add\n      0x00\n      keccak256\n      sload\n        /* \"contracts/AccessControl.sol\":9196:9214  relatedPermissions */\n      dup4\n        /* \"contracts/AccessControl.sol\":9215:9216  j */\n      dup4\n        /* \"contracts/AccessControl.sol\":9196:9217  relatedPermissions[j] */\n      dup2\n      mload\n      dup2\n      lt\n      tag_267\n      jumpi\n      tag_268\n      tag_269\n      jump\t// in\n    tag_268:\n    tag_267:\n      0x20\n      mul\n      0x20\n      add\n      add\n        /* \"contracts/AccessControl.sol\":9196:9242  relatedPermissions[j] = _indexOfPermissions[i] */\n      dup2\n      dup2\n      mstore\n      pop\n      pop\n        /* \"contracts/AccessControl.sol\":9261:9264  j++ */\n      dup2\n      dup1\n      tag_270\n      swap1\n      tag_250\n      jump\t// in\n    tag_270:\n      swap3\n      pop\n      pop\n        /* \"contracts/AccessControl.sol\":9116:9280  if(_allPermissions[_indexOfPermissions[i]].members[account]) {\r... */\n    tag_266:\n        /* \"contracts/AccessControl.sol\":9096:9099  i++ */\n      dup1\n      dup1\n      tag_271\n      swap1\n      tag_250\n      jump\t// in\n    tag_271:\n      swap2\n      pop\n      pop\n        /* \"contracts/AccessControl.sol\":9054:9291  for(uint i = 0; i < _numberOfPermissions; i++) {\r... */\n      jump(tag_263)\n    tag_264:\n      pop\n        /* \"contracts/AccessControl.sol\":9308:9326  relatedPermissions */\n      dup2\n        /* \"contracts/AccessControl.sol\":9301:9326  return relatedPermissions */\n      swap3\n      pop\n      pop\n      pop\n        /* \"contracts/AccessControl.sol\":8843:9334  function _inquiryAllPermissionsByAccount(address account) \r... */\n      swap2\n      swap1\n      pop\n      jump\t// out\n        /* \"contracts/AccessControl.sol\":9342:9926  function _inquiryAllAccountsByPermission(bytes32 permission) \r... */\n    tag_158:\n        /* \"contracts/AccessControl.sol\":9454:9470  address[] memory */\n      0x60\n        /* \"contracts/AccessControl.sol\":9489:9521  address[] memory relatedAccounts */\n      dup1\n        /* \"contracts/AccessControl.sol\":9532:9538  uint j */\n      0x00\n        /* \"contracts/AccessControl.sol\":9557:9563  uint i */\n      dup1\n        /* \"contracts/AccessControl.sol\":9553:9886  for(uint i = 0; i < _allPermissions[permission].length; i++) {\r... */\n    tag_273:\n        /* \"contracts/AccessControl.sol\":9573:9588  _allPermissions */\n      0x00\n        /* \"contracts/AccessControl.sol\":9573:9600  _allPermissions[permission] */\n      dup1\n        /* \"contracts/AccessControl.sol\":9589:9599  permission */\n      dup7\n        /* \"contracts/AccessControl.sol\":9573:9600  _allPermissions[permission] */\n      dup2\n      mstore\n      0x20\n      add\n      swap1\n      dup2\n      mstore\n      0x20\n      add\n      0x00\n      keccak256\n        /* \"contracts/AccessControl.sol\":9573:9607  _allPermissions[permission].length */\n      0x02\n      add\n      sload\n        /* \"contracts/AccessControl.sol\":9569:9570  i */\n      dup2\n        /* \"contracts/AccessControl.sol\":9569:9607  i < _allPermissions[permission].length */\n      lt\n        /* \"contracts/AccessControl.sol\":9553:9886  for(uint i = 0; i < _allPermissions[permission].length; i++) {\r... */\n      iszero\n      tag_274\n      jumpi\n        /* \"contracts/AccessControl.sol\":9686:9701  _allPermissions */\n      0x00\n        /* \"contracts/AccessControl.sol\":9686:9713  _allPermissions[permission] */\n      dup1\n        /* \"contracts/AccessControl.sol\":9702:9712  permission */\n      dup7\n        /* \"contracts/AccessControl.sol\":9686:9713  _allPermissions[permission] */\n      dup2\n      mstore\n      0x20\n      add\n      swap1\n      dup2\n      mstore\n      0x20\n      add\n      0x00\n      keccak256\n        /* \"contracts/AccessControl.sol\":9686:9721  _allPermissions[permission].members */\n      0x00\n      add\n        /* \"contracts/AccessControl.sol\":9686:9759  _allPermissions[permission].members[_allPermissions[permission].index[i]] */\n      0x00\n        /* \"contracts/AccessControl.sol\":9722:9737  _allPermissions */\n      dup1\n        /* \"contracts/AccessControl.sol\":9722:9749  _allPermissions[permission] */\n      0x00\n        /* \"contracts/AccessControl.sol\":9738:9748  permission */\n      dup9\n        /* \"contracts/AccessControl.sol\":9722:9749  _allPermissions[permission] */\n      dup2\n      mstore\n      0x20\n      add\n      swap1\n      dup2\n      mstore\n      0x20\n      add\n      0x00\n      keccak256\n        /* \"contracts/AccessControl.sol\":9722:9755  _allPermissions[permission].index */\n      0x01\n      add\n        /* \"contracts/AccessControl.sol\":9722:9758  _allPermissions[permission].index[i] */\n      0x00\n        /* \"contracts/AccessControl.sol\":9756:9757  i */\n      dup5\n        /* \"contracts/AccessControl.sol\":9722:9758  _allPermissions[permission].index[i] */\n      dup2\n      mstore\n      0x20\n      add\n      swap1\n      dup2\n      mstore\n      0x20\n      add\n      0x00\n      keccak256\n      0x00\n      swap1\n      sload\n      swap1\n      0x0100\n      exp\n      swap1\n      div\n      0xffffffffffffffffffffffffffffffffffffffff\n      and\n        /* \"contracts/AccessControl.sol\":9686:9759  _allPermissions[permission].members[_allPermissions[permission].index[i]] */\n      0xffffffffffffffffffffffffffffffffffffffff\n      and\n      0xffffffffffffffffffffffffffffffffffffffff\n      and\n      dup2\n      mstore\n      0x20\n      add\n      swap1\n      dup2\n      mstore\n      0x20\n      add\n      0x00\n      keccak256\n      0x00\n      swap1\n      sload\n      swap1\n      0x0100\n      exp\n      swap1\n      div\n      0xff\n      and\n        /* \"contracts/AccessControl.sol\":9683:9875  if(_allPermissions[permission].members[_allPermissions[permission].index[i]]) {\r... */\n      iszero\n      tag_276\n      jumpi\n        /* \"contracts/AccessControl.sol\":9801:9816  _allPermissions */\n      0x00\n        /* \"contracts/AccessControl.sol\":9801:9828  _allPermissions[permission] */\n      dup1\n        /* \"contracts/AccessControl.sol\":9817:9827  permission */\n      dup7\n        /* \"contracts/AccessControl.sol\":9801:9828  _allPermissions[permission] */\n      dup2\n      mstore\n      0x20\n      add\n      swap1\n      dup2\n      mstore\n      0x20\n      add\n      0x00\n      keccak256\n        /* \"contracts/AccessControl.sol\":9801:9834  _allPermissions[permission].index */\n      0x01\n      add\n        /* \"contracts/AccessControl.sol\":9801:9837  _allPermissions[permission].index[i] */\n      0x00\n        /* \"contracts/AccessControl.sol\":9835:9836  i */\n      dup3\n        /* \"contracts/AccessControl.sol\":9801:9837  _allPermissions[permission].index[i] */\n      dup2\n      mstore\n      0x20\n      add\n      swap1\n      dup2\n      mstore\n      0x20\n      add\n      0x00\n      keccak256\n      0x00\n      swap1\n      sload\n      swap1\n      0x0100\n      exp\n      swap1\n      div\n      0xffffffffffffffffffffffffffffffffffffffff\n      and\n        /* \"contracts/AccessControl.sol\":9780:9795  relatedAccounts */\n      dup4\n        /* \"contracts/AccessControl.sol\":9796:9797  j */\n      dup4\n        /* \"contracts/AccessControl.sol\":9780:9798  relatedAccounts[j] */\n      dup2\n      mload\n      dup2\n      lt\n      tag_277\n      jumpi\n      tag_278\n      tag_269\n      jump\t// in\n    tag_278:\n    tag_277:\n      0x20\n      mul\n      0x20\n      add\n      add\n        /* \"contracts/AccessControl.sol\":9780:9837  relatedAccounts[j] = _allPermissions[permission].index[i] */\n      swap1\n      0xffffffffffffffffffffffffffffffffffffffff\n      and\n      swap1\n      dup2\n      0xffffffffffffffffffffffffffffffffffffffff\n      and\n      dup2\n      mstore\n      pop\n      pop\n        /* \"contracts/AccessControl.sol\":9856:9859  j++ */\n      dup2\n      dup1\n      tag_279\n      swap1\n      tag_250\n      jump\t// in\n    tag_279:\n      swap3\n      pop\n      pop\n        /* \"contracts/AccessControl.sol\":9683:9875  if(_allPermissions[permission].members[_allPermissions[permission].index[i]]) {\r... */\n    tag_276:\n        /* \"contracts/AccessControl.sol\":9609:9612  i++ */\n      dup1\n      dup1\n      tag_280\n      swap1\n      tag_250\n      jump\t// in\n    tag_280:\n      swap2\n      pop\n      pop\n        /* \"contracts/AccessControl.sol\":9553:9886  for(uint i = 0; i < _allPermissions[permission].length; i++) {\r... */\n      jump(tag_273)\n    tag_274:\n      pop\n        /* \"contracts/AccessControl.sol\":9903:9918  relatedAccounts */\n      dup2\n        /* \"contracts/AccessControl.sol\":9896:9918  return relatedAccounts */\n      swap3\n      pop\n      pop\n      pop\n        /* \"contracts/AccessControl.sol\":9342:9926  function _inquiryAllAccountsByPermission(bytes32 permission) \r... */\n      swap2\n      swap1\n      pop\n      jump\t// out\n        /* \"contracts/AccessControl.sol\":3907:4968  function _createPermissionByLevel(bytes memory permissionName, bytes memory permissionAlready) internal virtual {\r... */\n    tag_171:\n        /* \"contracts/AccessControl.sol\":4030:4048  bytes32 permission */\n      0x00\n        /* \"contracts/AccessControl.sol\":4061:4075  permissionName */\n      dup3\n        /* \"contracts/AccessControl.sol\":4051:4076  keccak256(permissionName) */\n      dup1\n      mload\n      swap1\n      0x20\n      add\n      keccak256\n        /* \"contracts/AccessControl.sol\":4030:4076  bytes32 permission = keccak256(permissionName) */\n      swap1\n      pop\n        /* \"contracts/AccessControl.sol\":4087:4106  bytes32 permissionA */\n      0x00\n        /* \"contracts/AccessControl.sol\":4119:4136  permissionAlready */\n      dup3\n        /* \"contracts/AccessControl.sol\":4109:4137  keccak256(permissionAlready) */\n      dup1\n      mload\n      swap1\n      0x20\n      add\n      keccak256\n        /* \"contracts/AccessControl.sol\":4087:4137  bytes32 permissionA = keccak256(permissionAlready) */\n      swap1\n      pop\n        /* \"contracts/AccessControl.sol\":4153:4168  _allPermissions */\n      0x00\n        /* \"contracts/AccessControl.sol\":4153:4180  _allPermissions[permission] */\n      dup1\n        /* \"contracts/AccessControl.sol\":4169:4179  permission */\n      dup4\n        /* \"contracts/AccessControl.sol\":4153:4180  _allPermissions[permission] */\n      dup2\n      mstore\n      0x20\n      add\n      swap1\n      dup2\n      mstore\n      0x20\n      add\n      0x00\n      keccak256\n        /* \"contracts/AccessControl.sol\":4153:4188  _allPermissions[permission].isValid */\n      0x03\n      add\n      0x00\n      swap1\n      sload\n      swap1\n      0x0100\n      exp\n      swap1\n      div\n      0xff\n      and\n        /* \"contracts/AccessControl.sol\":4148:4961  if (!_allPermissions[permission].isValid) {\r... */\n      tag_282\n      jumpi\n        /* \"contracts/AccessControl.sol\":4205:4239  _changePermissionIndex(permission) */\n      tag_283\n        /* \"contracts/AccessControl.sol\":4228:4238  permission */\n      dup3\n        /* \"contracts/AccessControl.sol\":4205:4227  _changePermissionIndex */\n      tag_284\n        /* \"contracts/AccessControl.sol\":4205:4239  _changePermissionIndex(permission) */\n      jump\t// in\n    tag_283:\n        /* \"contracts/AccessControl.sol\":4292:4296  true */\n      0x01\n        /* \"contracts/AccessControl.sol\":4254:4269  _allPermissions */\n      0x00\n        /* \"contracts/AccessControl.sol\":4254:4281  _allPermissions[permission] */\n      dup1\n        /* \"contracts/AccessControl.sol\":4270:4280  permission */\n      dup5\n        /* \"contracts/AccessControl.sol\":4254:4281  _allPermissions[permission] */\n      dup2\n      mstore\n      0x20\n      add\n      swap1\n      dup2\n      mstore\n      0x20\n      add\n      0x00\n      keccak256\n        /* \"contracts/AccessControl.sol\":4254:4289  _allPermissions[permission].isValid */\n      0x03\n      add\n      0x00\n        /* \"contracts/AccessControl.sol\":4254:4296  _allPermissions[permission].isValid = true */\n      0x0100\n      exp\n      dup2\n      sload\n      dup2\n      0xff\n      mul\n      not\n      and\n      swap1\n      dup4\n      iszero\n      iszero\n      mul\n      or\n      swap1\n      sstore\n      pop\n        /* \"contracts/AccessControl.sol\":4363:4369  uint i */\n      0x00\n        /* \"contracts/AccessControl.sol\":4359:4715  for(uint i = 0; i < _allPermissions[permissionA].length; i++) {\r... */\n    tag_285:\n        /* \"contracts/AccessControl.sol\":4379:4394  _allPermissions */\n      0x00\n        /* \"contracts/AccessControl.sol\":4379:4407  _allPermissions[permissionA] */\n      dup1\n        /* \"contracts/AccessControl.sol\":4395:4406  permissionA */\n      dup4\n        /* \"contracts/AccessControl.sol\":4379:4407  _allPermissions[permissionA] */\n      dup2\n      mstore\n      0x20\n      add\n      swap1\n      dup2\n      mstore\n      0x20\n      add\n      0x00\n      keccak256\n        /* \"contracts/AccessControl.sol\":4379:4414  _allPermissions[permissionA].length */\n      0x02\n      add\n      sload\n        /* \"contracts/AccessControl.sol\":4375:4376  i */\n      dup2\n        /* \"contracts/AccessControl.sol\":4375:4414  i < _allPermissions[permissionA].length */\n      lt\n        /* \"contracts/AccessControl.sol\":4359:4715  for(uint i = 0; i < _allPermissions[permissionA].length; i++) {\r... */\n      iszero\n      tag_286\n      jumpi\n        /* \"contracts/AccessControl.sol\":4440:4462  address indexOfAddress */\n      0x00\n        /* \"contracts/AccessControl.sol\":4465:4480  _allPermissions */\n      dup1\n        /* \"contracts/AccessControl.sol\":4465:4493  _allPermissions[permissionA] */\n      0x00\n        /* \"contracts/AccessControl.sol\":4481:4492  permissionA */\n      dup5\n        /* \"contracts/AccessControl.sol\":4465:4493  _allPermissions[permissionA] */\n      dup2\n      mstore\n      0x20\n      add\n      swap1\n      dup2\n      mstore\n      0x20\n      add\n      0x00\n      keccak256\n        /* \"contracts/AccessControl.sol\":4465:4499  _allPermissions[permissionA].index */\n      0x01\n      add\n        /* \"contracts/AccessControl.sol\":4465:4502  _allPermissions[permissionA].index[i] */\n      0x00\n        /* \"contracts/AccessControl.sol\":4500:4501  i */\n      dup4\n        /* \"contracts/AccessControl.sol\":4465:4502  _allPermissions[permissionA].index[i] */\n      dup2\n      mstore\n      0x20\n      add\n      swap1\n      dup2\n      mstore\n      0x20\n      add\n      0x00\n      keccak256\n      0x00\n      swap1\n      sload\n      swap1\n      0x0100\n      exp\n      swap1\n      div\n      0xffffffffffffffffffffffffffffffffffffffff\n      and\n        /* \"contracts/AccessControl.sol\":4440:4502  address indexOfAddress = _allPermissions[permissionA].index[i] */\n      swap1\n      pop\n        /* \"contracts/AccessControl.sol\":4575:4590  _allPermissions */\n      0x00\n        /* \"contracts/AccessControl.sol\":4575:4603  _allPermissions[permissionA] */\n      dup1\n        /* \"contracts/AccessControl.sol\":4591:4602  permissionA */\n      dup5\n        /* \"contracts/AccessControl.sol\":4575:4603  _allPermissions[permissionA] */\n      dup2\n      mstore\n      0x20\n      add\n      swap1\n      dup2\n      mstore\n      0x20\n      add\n      0x00\n      keccak256\n        /* \"contracts/AccessControl.sol\":4575:4611  _allPermissions[permissionA].members */\n      0x00\n      add\n        /* \"contracts/AccessControl.sol\":4575:4627  _allPermissions[permissionA].members[indexOfAddress] */\n      0x00\n        /* \"contracts/AccessControl.sol\":4612:4626  indexOfAddress */\n      dup3\n        /* \"contracts/AccessControl.sol\":4575:4627  _allPermissions[permissionA].members[indexOfAddress] */\n      0xffffffffffffffffffffffffffffffffffffffff\n      and\n      0xffffffffffffffffffffffffffffffffffffffff\n      and\n      dup2\n      mstore\n      0x20\n      add\n      swap1\n      dup2\n      mstore\n      0x20\n      add\n      0x00\n      keccak256\n      0x00\n      swap1\n      sload\n      swap1\n      0x0100\n      exp\n      swap1\n      div\n      0xff\n      and\n        /* \"contracts/AccessControl.sol\":4521:4536  _allPermissions */\n      0x00\n        /* \"contracts/AccessControl.sol\":4521:4548  _allPermissions[permission] */\n      dup1\n        /* \"contracts/AccessControl.sol\":4537:4547  permission */\n      dup7\n        /* \"contracts/AccessControl.sol\":4521:4548  _allPermissions[permission] */\n      dup2\n      mstore\n      0x20\n      add\n      swap1\n      dup2\n      mstore\n      0x20\n      add\n      0x00\n      keccak256\n        /* \"contracts/AccessControl.sol\":4521:4556  _allPermissions[permission].members */\n      0x00\n      add\n        /* \"contracts/AccessControl.sol\":4521:4572  _allPermissions[permission].members[indexOfAddress] */\n      0x00\n        /* \"contracts/AccessControl.sol\":4557:4571  indexOfAddress */\n      dup4\n        /* \"contracts/AccessControl.sol\":4521:4572  _allPermissions[permission].members[indexOfAddress] */\n      0xffffffffffffffffffffffffffffffffffffffff\n      and\n      0xffffffffffffffffffffffffffffffffffffffff\n      and\n      dup2\n      mstore\n      0x20\n      add\n      swap1\n      dup2\n      mstore\n      0x20\n      add\n      0x00\n      keccak256\n      0x00\n        /* \"contracts/AccessControl.sol\":4521:4627  _allPermissions[permission].members[indexOfAddress] = _allPermissions[permissionA].members[indexOfAddress] */\n      0x0100\n      exp\n      dup2\n      sload\n      dup2\n      0xff\n      mul\n      not\n      and\n      swap1\n      dup4\n      iszero\n      iszero\n      mul\n      or\n      swap1\n      sstore\n      pop\n        /* \"contracts/AccessControl.sol\":4685:4699  indexOfAddress */\n      dup1\n        /* \"contracts/AccessControl.sol\":4646:4661  _allPermissions */\n      0x00\n        /* \"contracts/AccessControl.sol\":4646:4673  _allPermissions[permission] */\n      dup1\n        /* \"contracts/AccessControl.sol\":4662:4672  permission */\n      dup7\n        /* \"contracts/AccessControl.sol\":4646:4673  _allPermissions[permission] */\n      dup2\n      mstore\n      0x20\n      add\n      swap1\n      dup2\n      mstore\n      0x20\n      add\n      0x00\n      keccak256\n        /* \"contracts/AccessControl.sol\":4646:4679  _allPermissions[permission].index */\n      0x01\n      add\n        /* \"contracts/AccessControl.sol\":4646:4682  _allPermissions[permission].index[i] */\n      0x00\n        /* \"contracts/AccessControl.sol\":4680:4681  i */\n      dup5\n        /* \"contracts/AccessControl.sol\":4646:4682  _allPermissions[permission].index[i] */\n      dup2\n      mstore\n      0x20\n      add\n      swap1\n      dup2\n      mstore\n      0x20\n      add\n      0x00\n      keccak256\n      0x00\n        /* \"contracts/AccessControl.sol\":4646:4699  _allPermissions[permission].index[i] = indexOfAddress */\n      0x0100\n      exp\n      dup2\n      sload\n      dup2\n      0xffffffffffffffffffffffffffffffffffffffff\n      mul\n      not\n      and\n      swap1\n      dup4\n      0xffffffffffffffffffffffffffffffffffffffff\n      and\n      mul\n      or\n      swap1\n      sstore\n      pop\n        /* \"contracts/AccessControl.sol\":4421:4715  {\r... */\n      pop\n        /* \"contracts/AccessControl.sol\":4416:4419  i++ */\n      dup1\n      dup1\n      tag_288\n      swap1\n      tag_250\n      jump\t// in\n    tag_288:\n      swap2\n      pop\n      pop\n        /* \"contracts/AccessControl.sol\":4359:4715  for(uint i = 0; i < _allPermissions[permissionA].length; i++) {\r... */\n      jump(tag_285)\n    tag_286:\n      pop\n        /* \"contracts/AccessControl.sol\":4766:4781  _allPermissions */\n      0x00\n        /* \"contracts/AccessControl.sol\":4766:4794  _allPermissions[permissionA] */\n      dup1\n        /* \"contracts/AccessControl.sol\":4782:4793  permissionA */\n      dup3\n        /* \"contracts/AccessControl.sol\":4766:4794  _allPermissions[permissionA] */\n      dup2\n      mstore\n      0x20\n      add\n      swap1\n      dup2\n      mstore\n      0x20\n      add\n      0x00\n      keccak256\n        /* \"contracts/AccessControl.sol\":4766:4801  _allPermissions[permissionA].length */\n      0x02\n      add\n      sload\n        /* \"contracts/AccessControl.sol\":4729:4744  _allPermissions */\n      0x00\n        /* \"contracts/AccessControl.sol\":4729:4756  _allPermissions[permission] */\n      dup1\n        /* \"contracts/AccessControl.sol\":4745:4755  permission */\n      dup5\n        /* \"contracts/AccessControl.sol\":4729:4756  _allPermissions[permission] */\n      dup2\n      mstore\n      0x20\n      add\n      swap1\n      dup2\n      mstore\n      0x20\n      add\n      0x00\n      keccak256\n        /* \"contracts/AccessControl.sol\":4729:4763  _allPermissions[permission].length */\n      0x02\n      add\n        /* \"contracts/AccessControl.sol\":4729:4801  _allPermissions[permission].length = _allPermissions[permissionA].length */\n      dup2\n      swap1\n      sstore\n      pop\n        /* \"contracts/AccessControl.sol\":4855:4865  msg.sender */\n      caller\n        /* \"contracts/AccessControl.sol\":4821:4866  PermissionCreated(permissionName, msg.sender) */\n      0xffffffffffffffffffffffffffffffffffffffff\n      and\n        /* \"contracts/AccessControl.sol\":4839:4853  permissionName */\n      dup5\n        /* \"contracts/AccessControl.sol\":4821:4866  PermissionCreated(permissionName, msg.sender) */\n      mload(0x40)\n      tag_289\n      swap2\n      swap1\n      tag_236\n      jump\t// in\n    tag_289:\n      mload(0x40)\n      dup1\n      swap2\n      sub\n      swap1\n      keccak256\n      0x629a748ba580fe181c6ae2d3673c4bdfea9e1f2d334f36beec502aff5dbaeff2\n      mload(0x40)\n      mload(0x40)\n      dup1\n      swap2\n      sub\n      swap1\n      log3\n        /* \"contracts/AccessControl.sol\":4148:4961  if (!_allPermissions[permission].isValid) {\r... */\n      jump(tag_290)\n    tag_282:\n        /* \"contracts/AccessControl.sol\":4899:4949  _informFailure(\"The permission has alreay exist.\") */\n      tag_291\n      mload(0x40)\n      dup1\n      0x40\n      add\n      0x40\n      mstore\n      dup1\n      0x20\n      dup2\n      mstore\n      0x20\n      add\n      0x546865207065726d697373696f6e2068617320616c726561792065786973742e\n      dup2\n      mstore\n      pop\n        /* \"contracts/AccessControl.sol\":4899:4913  _informFailure */\n      tag_239\n        /* \"contracts/AccessControl.sol\":4899:4949  _informFailure(\"The permission has alreay exist.\") */\n      jump\t// in\n    tag_291:\n        /* \"contracts/AccessControl.sol\":4148:4961  if (!_allPermissions[permission].isValid) {\r... */\n    tag_290:\n        /* \"contracts/AccessControl.sol\":4019:4968  {\r... */\n      pop\n      pop\n        /* \"contracts/AccessControl.sol\":3907:4968  function _createPermissionByLevel(bytes memory permissionName, bytes memory permissionAlready) internal virtual {\r... */\n      pop\n      pop\n      jump\t// out\n        /* \"contracts/AccessControl.sol\":2813:3770  function _createPermission(bytes memory permissionName) internal virtual {\r... */\n    tag_189:\n        /* \"contracts/AccessControl.sol\":2897:2915  bytes32 permission */\n      0x00\n        /* \"contracts/AccessControl.sol\":2928:2942  permissionName */\n      dup2\n        /* \"contracts/AccessControl.sol\":2918:2943  keccak256(permissionName) */\n      dup1\n      mload\n      swap1\n      0x20\n      add\n      keccak256\n        /* \"contracts/AccessControl.sol\":2897:2943  bytes32 permission = keccak256(permissionName) */\n      swap1\n      pop\n        /* \"contracts/AccessControl.sol\":2959:2974  _allPermissions */\n      0x00\n        /* \"contracts/AccessControl.sol\":2959:2986  _allPermissions[permission] */\n      dup1\n        /* \"contracts/AccessControl.sol\":2975:2985  permission */\n      dup3\n        /* \"contracts/AccessControl.sol\":2959:2986  _allPermissions[permission] */\n      dup2\n      mstore\n      0x20\n      add\n      swap1\n      dup2\n      mstore\n      0x20\n      add\n      0x00\n      keccak256\n        /* \"contracts/AccessControl.sol\":2959:2994  _allPermissions[permission].isValid */\n      0x03\n      add\n      0x00\n      swap1\n      sload\n      swap1\n      0x0100\n      exp\n      swap1\n      div\n      0xff\n      and\n        /* \"contracts/AccessControl.sol\":2954:3763  if (!_allPermissions[permission].isValid) {\r... */\n      tag_293\n      jumpi\n        /* \"contracts/AccessControl.sol\":3011:3045  _changePermissionIndex(permission) */\n      tag_294\n        /* \"contracts/AccessControl.sol\":3034:3044  permission */\n      dup2\n        /* \"contracts/AccessControl.sol\":3011:3033  _changePermissionIndex */\n      tag_284\n        /* \"contracts/AccessControl.sol\":3011:3045  _changePermissionIndex(permission) */\n      jump\t// in\n    tag_294:\n        /* \"contracts/AccessControl.sol\":3098:3102  true */\n      0x01\n        /* \"contracts/AccessControl.sol\":3060:3075  _allPermissions */\n      0x00\n        /* \"contracts/AccessControl.sol\":3060:3087  _allPermissions[permission] */\n      dup1\n        /* \"contracts/AccessControl.sol\":3076:3086  permission */\n      dup4\n        /* \"contracts/AccessControl.sol\":3060:3087  _allPermissions[permission] */\n      dup2\n      mstore\n      0x20\n      add\n      swap1\n      dup2\n      mstore\n      0x20\n      add\n      0x00\n      keccak256\n        /* \"contracts/AccessControl.sol\":3060:3095  _allPermissions[permission].isValid */\n      0x03\n      add\n      0x00\n        /* \"contracts/AccessControl.sol\":3060:3102  _allPermissions[permission].isValid = true */\n      0x0100\n      exp\n      dup2\n      sload\n      dup2\n      0xff\n      mul\n      not\n      and\n      swap1\n      dup4\n      iszero\n      iszero\n      mul\n      or\n      swap1\n      sstore\n      pop\n        /* \"contracts/AccessControl.sol\":3189:3195  uint i */\n      0x00\n        /* \"contracts/AccessControl.sol\":3185:3523  for(uint i = 0; i < _allPermissions[ADMIN].length; i++) {\r... */\n    tag_295:\n        /* \"contracts/AccessControl.sol\":3205:3220  _allPermissions */\n      0x00\n        /* \"contracts/AccessControl.sol\":3205:3227  _allPermissions[ADMIN] */\n      dup1\n        /* \"contracts/AccessControl.sol\":677:695  keccak256(\"ADMIN\") */\n      0xdf8b4c520ffe197c5343c6f5aec59570151ef9a492f2c624fd45ddde6135ec42\n        /* \"contracts/AccessControl.sol\":3205:3227  _allPermissions[ADMIN] */\n      dup2\n      mstore\n      0x20\n      add\n      swap1\n      dup2\n      mstore\n      0x20\n      add\n      0x00\n      keccak256\n        /* \"contracts/AccessControl.sol\":3205:3234  _allPermissions[ADMIN].length */\n      0x02\n      add\n      sload\n        /* \"contracts/AccessControl.sol\":3201:3202  i */\n      dup2\n        /* \"contracts/AccessControl.sol\":3201:3234  i < _allPermissions[ADMIN].length */\n      lt\n        /* \"contracts/AccessControl.sol\":3185:3523  for(uint i = 0; i < _allPermissions[ADMIN].length; i++) {\r... */\n      iszero\n      tag_296\n      jumpi\n        /* \"contracts/AccessControl.sol\":3260:3282  address indexOfAddress */\n      0x00\n        /* \"contracts/AccessControl.sol\":3285:3300  _allPermissions */\n      dup1\n        /* \"contracts/AccessControl.sol\":3285:3307  _allPermissions[ADMIN] */\n      0x00\n        /* \"contracts/AccessControl.sol\":677:695  keccak256(\"ADMIN\") */\n      0xdf8b4c520ffe197c5343c6f5aec59570151ef9a492f2c624fd45ddde6135ec42\n        /* \"contracts/AccessControl.sol\":3285:3307  _allPermissions[ADMIN] */\n      dup2\n      mstore\n      0x20\n      add\n      swap1\n      dup2\n      mstore\n      0x20\n      add\n      0x00\n      keccak256\n        /* \"contracts/AccessControl.sol\":3285:3313  _allPermissions[ADMIN].index */\n      0x01\n      add\n        /* \"contracts/AccessControl.sol\":3285:3316  _allPermissions[ADMIN].index[i] */\n      0x00\n        /* \"contracts/AccessControl.sol\":3314:3315  i */\n      dup4\n        /* \"contracts/AccessControl.sol\":3285:3316  _allPermissions[ADMIN].index[i] */\n      dup2\n      mstore\n      0x20\n      add\n      swap1\n      dup2\n      mstore\n      0x20\n      add\n      0x00\n      keccak256\n      0x00\n      swap1\n      sload\n      swap1\n      0x0100\n      exp\n      swap1\n      div\n      0xffffffffffffffffffffffffffffffffffffffff\n      and\n        /* \"contracts/AccessControl.sol\":3260:3316  address indexOfAddress = _allPermissions[ADMIN].index[i] */\n      swap1\n      pop\n        /* \"contracts/AccessControl.sol\":3389:3404  _allPermissions */\n      0x00\n        /* \"contracts/AccessControl.sol\":3389:3411  _allPermissions[ADMIN] */\n      dup1\n        /* \"contracts/AccessControl.sol\":677:695  keccak256(\"ADMIN\") */\n      0xdf8b4c520ffe197c5343c6f5aec59570151ef9a492f2c624fd45ddde6135ec42\n        /* \"contracts/AccessControl.sol\":3389:3411  _allPermissions[ADMIN] */\n      dup2\n      mstore\n      0x20\n      add\n      swap1\n      dup2\n      mstore\n      0x20\n      add\n      0x00\n      keccak256\n        /* \"contracts/AccessControl.sol\":3389:3419  _allPermissions[ADMIN].members */\n      0x00\n      add\n        /* \"contracts/AccessControl.sol\":3389:3435  _allPermissions[ADMIN].members[indexOfAddress] */\n      0x00\n        /* \"contracts/AccessControl.sol\":3420:3434  indexOfAddress */\n      dup3\n        /* \"contracts/AccessControl.sol\":3389:3435  _allPermissions[ADMIN].members[indexOfAddress] */\n      0xffffffffffffffffffffffffffffffffffffffff\n      and\n      0xffffffffffffffffffffffffffffffffffffffff\n      and\n      dup2\n      mstore\n      0x20\n      add\n      swap1\n      dup2\n      mstore\n      0x20\n      add\n      0x00\n      keccak256\n      0x00\n      swap1\n      sload\n      swap1\n      0x0100\n      exp\n      swap1\n      div\n      0xff\n      and\n        /* \"contracts/AccessControl.sol\":3335:3350  _allPermissions */\n      0x00\n        /* \"contracts/AccessControl.sol\":3335:3362  _allPermissions[permission] */\n      dup1\n        /* \"contracts/AccessControl.sol\":3351:3361  permission */\n      dup6\n        /* \"contracts/AccessControl.sol\":3335:3362  _allPermissions[permission] */\n      dup2\n      mstore\n      0x20\n      add\n      swap1\n      dup2\n      mstore\n      0x20\n      add\n      0x00\n      keccak256\n        /* \"contracts/AccessControl.sol\":3335:3370  _allPermissions[permission].members */\n      0x00\n      add\n        /* \"contracts/AccessControl.sol\":3335:3386  _allPermissions[permission].members[indexOfAddress] */\n      0x00\n        /* \"contracts/AccessControl.sol\":3371:3385  indexOfAddress */\n      dup4\n        /* \"contracts/AccessControl.sol\":3335:3386  _allPermissions[permission].members[indexOfAddress] */\n      0xffffffffffffffffffffffffffffffffffffffff\n      and\n      0xffffffffffffffffffffffffffffffffffffffff\n      and\n      dup2\n      mstore\n      0x20\n      add\n      swap1\n      dup2\n      mstore\n      0x20\n      add\n      0x00\n      keccak256\n      0x00\n        /* \"contracts/AccessControl.sol\":3335:3435  _allPermissions[permission].members[indexOfAddress] = _allPermissions[ADMIN].members[indexOfAddress] */\n      0x0100\n      exp\n      dup2\n      sload\n      dup2\n      0xff\n      mul\n      not\n      and\n      swap1\n      dup4\n      iszero\n      iszero\n      mul\n      or\n      swap1\n      sstore\n      pop\n        /* \"contracts/AccessControl.sol\":3493:3507  indexOfAddress */\n      dup1\n        /* \"contracts/AccessControl.sol\":3454:3469  _allPermissions */\n      0x00\n        /* \"contracts/AccessControl.sol\":3454:3481  _allPermissions[permission] */\n      dup1\n        /* \"contracts/AccessControl.sol\":3470:3480  permission */\n      dup6\n        /* \"contracts/AccessControl.sol\":3454:3481  _allPermissions[permission] */\n      dup2\n      mstore\n      0x20\n      add\n      swap1\n      dup2\n      mstore\n      0x20\n      add\n      0x00\n      keccak256\n        /* \"contracts/AccessControl.sol\":3454:3487  _allPermissions[permission].index */\n      0x01\n      add\n        /* \"contracts/AccessControl.sol\":3454:3490  _allPermissions[permission].index[i] */\n      0x00\n        /* \"contracts/AccessControl.sol\":3488:3489  i */\n      dup5\n        /* \"contracts/AccessControl.sol\":3454:3490  _allPermissions[permission].index[i] */\n      dup2\n      mstore\n      0x20\n      add\n      swap1\n      dup2\n      mstore\n      0x20\n      add\n      0x00\n      keccak256\n      0x00\n        /* \"contracts/AccessControl.sol\":3454:3507  _allPermissions[permission].index[i] = indexOfAddress */\n      0x0100\n      exp\n      dup2\n      sload\n      dup2\n      0xffffffffffffffffffffffffffffffffffffffff\n      mul\n      not\n      and\n      swap1\n      dup4\n      0xffffffffffffffffffffffffffffffffffffffff\n      and\n      mul\n      or\n      swap1\n      sstore\n      pop\n        /* \"contracts/AccessControl.sol\":3241:3523  {\r... */\n      pop\n        /* \"contracts/AccessControl.sol\":3236:3239  i++ */\n      dup1\n      dup1\n      tag_298\n      swap1\n      tag_250\n      jump\t// in\n    tag_298:\n      swap2\n      pop\n      pop\n        /* \"contracts/AccessControl.sol\":3185:3523  for(uint i = 0; i < _allPermissions[ADMIN].length; i++) {\r... */\n      jump(tag_295)\n    tag_296:\n      pop\n        /* \"contracts/AccessControl.sol\":3574:3589  _allPermissions */\n      0x00\n        /* \"contracts/AccessControl.sol\":3574:3596  _allPermissions[ADMIN] */\n      dup1\n        /* \"contracts/AccessControl.sol\":677:695  keccak256(\"ADMIN\") */\n      0xdf8b4c520ffe197c5343c6f5aec59570151ef9a492f2c624fd45ddde6135ec42\n        /* \"contracts/AccessControl.sol\":3574:3596  _allPermissions[ADMIN] */\n      dup2\n      mstore\n      0x20\n      add\n      swap1\n      dup2\n      mstore\n      0x20\n      add\n      0x00\n      keccak256\n        /* \"contracts/AccessControl.sol\":3574:3603  _allPermissions[ADMIN].length */\n      0x02\n      add\n      sload\n        /* \"contracts/AccessControl.sol\":3537:3552  _allPermissions */\n      0x00\n        /* \"contracts/AccessControl.sol\":3537:3564  _allPermissions[permission] */\n      dup1\n        /* \"contracts/AccessControl.sol\":3553:3563  permission */\n      dup4\n        /* \"contracts/AccessControl.sol\":3537:3564  _allPermissions[permission] */\n      dup2\n      mstore\n      0x20\n      add\n      swap1\n      dup2\n      mstore\n      0x20\n      add\n      0x00\n      keccak256\n        /* \"contracts/AccessControl.sol\":3537:3571  _allPermissions[permission].length */\n      0x02\n      add\n        /* \"contracts/AccessControl.sol\":3537:3603  _allPermissions[permission].length = _allPermissions[ADMIN].length */\n      dup2\n      swap1\n      sstore\n      pop\n        /* \"contracts/AccessControl.sol\":3657:3667  msg.sender */\n      caller\n        /* \"contracts/AccessControl.sol\":3623:3668  PermissionCreated(permissionName, msg.sender) */\n      0xffffffffffffffffffffffffffffffffffffffff\n      and\n        /* \"contracts/AccessControl.sol\":3641:3655  permissionName */\n      dup3\n        /* \"contracts/AccessControl.sol\":3623:3668  PermissionCreated(permissionName, msg.sender) */\n      mload(0x40)\n      tag_299\n      swap2\n      swap1\n      tag_236\n      jump\t// in\n    tag_299:\n      mload(0x40)\n      dup1\n      swap2\n      sub\n      swap1\n      keccak256\n      0x629a748ba580fe181c6ae2d3673c4bdfea9e1f2d334f36beec502aff5dbaeff2\n      mload(0x40)\n      mload(0x40)\n      dup1\n      swap2\n      sub\n      swap1\n      log3\n        /* \"contracts/AccessControl.sol\":2954:3763  if (!_allPermissions[permission].isValid) {\r... */\n      jump(tag_300)\n    tag_293:\n        /* \"contracts/AccessControl.sol\":3701:3751  _informFailure(\"The permission has alreay exist.\") */\n      tag_301\n      mload(0x40)\n      dup1\n      0x40\n      add\n      0x40\n      mstore\n      dup1\n      0x20\n      dup2\n      mstore\n      0x20\n      add\n      0x546865207065726d697373696f6e2068617320616c726561792065786973742e\n      dup2\n      mstore\n      pop\n        /* \"contracts/AccessControl.sol\":3701:3715  _informFailure */\n      tag_239\n        /* \"contracts/AccessControl.sol\":3701:3751  _informFailure(\"The permission has alreay exist.\") */\n      jump\t// in\n    tag_301:\n        /* \"contracts/AccessControl.sol\":2954:3763  if (!_allPermissions[permission].isValid) {\r... */\n    tag_300:\n        /* \"contracts/AccessControl.sol\":2886:3770  {\r... */\n      pop\n        /* \"contracts/AccessControl.sol\":2813:3770  function _createPermission(bytes memory permissionName) internal virtual {\r... */\n      pop\n      jump\t// out\n        /* \"contracts/AccessControl.sol\":6238:6837  function _grantAccountPermission(bytes memory permissionName, address account) internal virtual {\r... */\n    tag_202:\n        /* \"contracts/AccessControl.sol\":6345:6363  bytes32 permission */\n      0x00\n        /* \"contracts/AccessControl.sol\":6376:6390  permissionName */\n      dup3\n        /* \"contracts/AccessControl.sol\":6366:6391  keccak256(permissionName) */\n      dup1\n      mload\n      swap1\n      0x20\n      add\n      keccak256\n        /* \"contracts/AccessControl.sol\":6345:6391  bytes32 permission = keccak256(permissionName) */\n      swap1\n      pop\n        /* \"contracts/AccessControl.sol\":6484:6499  _allPermissions */\n      0x00\n        /* \"contracts/AccessControl.sol\":6484:6511  _allPermissions[permission] */\n      dup1\n        /* \"contracts/AccessControl.sol\":6500:6510  permission */\n      dup3\n        /* \"contracts/AccessControl.sol\":6484:6511  _allPermissions[permission] */\n      dup2\n      mstore\n      0x20\n      add\n      swap1\n      dup2\n      mstore\n      0x20\n      add\n      0x00\n      keccak256\n        /* \"contracts/AccessControl.sol\":6484:6519  _allPermissions[permission].isValid */\n      0x03\n      add\n      0x00\n      swap1\n      sload\n      swap1\n      0x0100\n      exp\n      swap1\n      div\n      0xff\n      and\n        /* \"contracts/AccessControl.sol\":6484:6542  _allPermissions[permission].isValid && permission != ADMIN */\n      dup1\n      iszero\n      tag_303\n      jumpi\n      pop\n        /* \"contracts/AccessControl.sol\":677:695  keccak256(\"ADMIN\") */\n      0xdf8b4c520ffe197c5343c6f5aec59570151ef9a492f2c624fd45ddde6135ec42\n        /* \"contracts/AccessControl.sol\":6523:6533  permission */\n      dup2\n        /* \"contracts/AccessControl.sol\":6523:6542  permission != ADMIN */\n      eq\n      iszero\n        /* \"contracts/AccessControl.sol\":6484:6542  _allPermissions[permission].isValid && permission != ADMIN */\n    tag_303:\n        /* \"contracts/AccessControl.sol\":6480:6830  if (_allPermissions[permission].isValid && permission != ADMIN) {\r... */\n      iszero\n      tag_304\n      jumpi\n        /* \"contracts/AccessControl.sol\":6559:6599  _changeAccountIndex(permission, account) */\n      tag_305\n        /* \"contracts/AccessControl.sol\":6579:6589  permission */\n      dup2\n        /* \"contracts/AccessControl.sol\":6591:6598  account */\n      dup4\n        /* \"contracts/AccessControl.sol\":6559:6578  _changeAccountIndex */\n      tag_261\n        /* \"contracts/AccessControl.sol\":6559:6599  _changeAccountIndex(permission, account) */\n      jump\t// in\n    tag_305:\n        /* \"contracts/AccessControl.sol\":6661:6665  true */\n      0x01\n        /* \"contracts/AccessControl.sol\":6614:6629  _allPermissions */\n      0x00\n        /* \"contracts/AccessControl.sol\":6614:6641  _allPermissions[permission] */\n      dup1\n        /* \"contracts/AccessControl.sol\":6630:6640  permission */\n      dup4\n        /* \"contracts/AccessControl.sol\":6614:6641  _allPermissions[permission] */\n      dup2\n      mstore\n      0x20\n      add\n      swap1\n      dup2\n      mstore\n      0x20\n      add\n      0x00\n      keccak256\n        /* \"contracts/AccessControl.sol\":6614:6649  _allPermissions[permission].members */\n      0x00\n      add\n        /* \"contracts/AccessControl.sol\":6614:6658  _allPermissions[permission].members[account] */\n      0x00\n        /* \"contracts/AccessControl.sol\":6650:6657  account */\n      dup5\n        /* \"contracts/AccessControl.sol\":6614:6658  _allPermissions[permission].members[account] */\n      0xffffffffffffffffffffffffffffffffffffffff\n      and\n      0xffffffffffffffffffffffffffffffffffffffff\n      and\n      dup2\n      mstore\n      0x20\n      add\n      swap1\n      dup2\n      mstore\n      0x20\n      add\n      0x00\n      keccak256\n      0x00\n        /* \"contracts/AccessControl.sol\":6614:6665  _allPermissions[permission].members[account] = true */\n      0x0100\n      exp\n      dup2\n      sload\n      dup2\n      0xff\n      mul\n      not\n      and\n      swap1\n      dup4\n      iszero\n      iszero\n      mul\n      or\n      swap1\n      sstore\n      pop\n        /* \"contracts/AccessControl.sol\":6728:6738  msg.sender */\n      caller\n        /* \"contracts/AccessControl.sol\":6685:6739  PermissionGranted(permissionName, account, msg.sender) */\n      0xffffffffffffffffffffffffffffffffffffffff\n      and\n        /* \"contracts/AccessControl.sol\":6719:6726  account */\n      dup3\n        /* \"contracts/AccessControl.sol\":6685:6739  PermissionGranted(permissionName, account, msg.sender) */\n      0xffffffffffffffffffffffffffffffffffffffff\n      and\n        /* \"contracts/AccessControl.sol\":6703:6717  permissionName */\n      dup5\n        /* \"contracts/AccessControl.sol\":6685:6739  PermissionGranted(permissionName, account, msg.sender) */\n      mload(0x40)\n      tag_306\n      swap2\n      swap1\n      tag_236\n      jump\t// in\n    tag_306:\n      mload(0x40)\n      dup1\n      swap2\n      sub\n      swap1\n      keccak256\n      0x1bbdb8ca05419dffb11afa5105f78331a46e3d8a8b900efb115bbb4175a9c2d3\n      mload(0x40)\n      mload(0x40)\n      dup1\n      swap2\n      sub\n      swap1\n      log4\n        /* \"contracts/AccessControl.sol\":6480:6830  if (_allPermissions[permission].isValid && permission != ADMIN) {\r... */\n      jump(tag_307)\n    tag_304:\n        /* \"contracts/AccessControl.sol\":6772:6818  _informFailure(\"The permission is not valid.\") */\n      tag_308\n      mload(0x40)\n      dup1\n      0x40\n      add\n      0x40\n      mstore\n      dup1\n      0x1c\n      dup2\n      mstore\n      0x20\n      add\n      0x546865207065726d697373696f6e206973206e6f742076616c69642e00000000\n      dup2\n      mstore\n      pop\n        /* \"contracts/AccessControl.sol\":6772:6786  _informFailure */\n      tag_239\n        /* \"contracts/AccessControl.sol\":6772:6818  _informFailure(\"The permission is not valid.\") */\n      jump\t// in\n    tag_308:\n        /* \"contracts/AccessControl.sol\":6480:6830  if (_allPermissions[permission].isValid && permission != ADMIN) {\r... */\n    tag_307:\n        /* \"contracts/AccessControl.sol\":6334:6837  {\r... */\n      pop\n        /* \"contracts/AccessControl.sol\":6238:6837  function _grantAccountPermission(bytes memory permissionName, address account) internal virtual {\r... */\n      pop\n      pop\n      jump\t// out\n        /* \"contracts/AccessControl.sol\":6925:7425  function _revokeAccountPermission(bytes memory permissionName, address account) internal virtual {\r... */\n    tag_215:\n        /* \"contracts/AccessControl.sol\":7033:7051  bytes32 permission */\n      0x00\n        /* \"contracts/AccessControl.sol\":7064:7078  permissionName */\n      dup3\n        /* \"contracts/AccessControl.sol\":7054:7079  keccak256(permissionName) */\n      dup1\n      mload\n      swap1\n      0x20\n      add\n      keccak256\n        /* \"contracts/AccessControl.sol\":7033:7079  bytes32 permission = keccak256(permissionName) */\n      swap1\n      pop\n        /* \"contracts/AccessControl.sol\":7094:7121  _check(permission, account) */\n      tag_310\n        /* \"contracts/AccessControl.sol\":7101:7111  permission */\n      dup2\n        /* \"contracts/AccessControl.sol\":7113:7120  account */\n      dup4\n        /* \"contracts/AccessControl.sol\":7094:7100  _check */\n      tag_73\n        /* \"contracts/AccessControl.sol\":7094:7121  _check(permission, account) */\n      jump\t// in\n    tag_310:\n        /* \"contracts/AccessControl.sol\":7094:7144  _check(permission, account) && permission != ADMIN */\n      dup1\n      iszero\n      tag_311\n      jumpi\n      pop\n        /* \"contracts/AccessControl.sol\":677:695  keccak256(\"ADMIN\") */\n      0xdf8b4c520ffe197c5343c6f5aec59570151ef9a492f2c624fd45ddde6135ec42\n        /* \"contracts/AccessControl.sol\":7125:7135  permission */\n      dup2\n        /* \"contracts/AccessControl.sol\":7125:7144  permission != ADMIN */\n      eq\n      iszero\n        /* \"contracts/AccessControl.sol\":7094:7144  _check(permission, account) && permission != ADMIN */\n    tag_311:\n        /* \"contracts/AccessControl.sol\":7090:7418  if (_check(permission, account) && permission != ADMIN) {\r... */\n      iszero\n      tag_312\n      jumpi\n        /* \"contracts/AccessControl.sol\":7208:7213  false */\n      0x00\n        /* \"contracts/AccessControl.sol\":7161:7176  _allPermissions */\n      dup1\n        /* \"contracts/AccessControl.sol\":7161:7188  _allPermissions[permission] */\n      0x00\n        /* \"contracts/AccessControl.sol\":7177:7187  permission */\n      dup4\n        /* \"contracts/AccessControl.sol\":7161:7188  _allPermissions[permission] */\n      dup2\n      mstore\n      0x20\n      add\n      swap1\n      dup2\n      mstore\n      0x20\n      add\n      0x00\n      keccak256\n        /* \"contracts/AccessControl.sol\":7161:7196  _allPermissions[permission].members */\n      0x00\n      add\n        /* \"contracts/AccessControl.sol\":7161:7205  _allPermissions[permission].members[account] */\n      0x00\n        /* \"contracts/AccessControl.sol\":7197:7204  account */\n      dup5\n        /* \"contracts/AccessControl.sol\":7161:7205  _allPermissions[permission].members[account] */\n      0xffffffffffffffffffffffffffffffffffffffff\n      and\n      0xffffffffffffffffffffffffffffffffffffffff\n      and\n      dup2\n      mstore\n      0x20\n      add\n      swap1\n      dup2\n      mstore\n      0x20\n      add\n      0x00\n      keccak256\n      0x00\n        /* \"contracts/AccessControl.sol\":7161:7213  _allPermissions[permission].members[account] = false */\n      0x0100\n      exp\n      dup2\n      sload\n      dup2\n      0xff\n      mul\n      not\n      and\n      swap1\n      dup4\n      iszero\n      iszero\n      mul\n      or\n      swap1\n      sstore\n      pop\n        /* \"contracts/AccessControl.sol\":7276:7286  msg.sender */\n      caller\n        /* \"contracts/AccessControl.sol\":7233:7287  PermissionRevoked(permissionName, account, msg.sender) */\n      0xffffffffffffffffffffffffffffffffffffffff\n      and\n        /* \"contracts/AccessControl.sol\":7267:7274  account */\n      dup3\n        /* \"contracts/AccessControl.sol\":7233:7287  PermissionRevoked(permissionName, account, msg.sender) */\n      0xffffffffffffffffffffffffffffffffffffffff\n      and\n        /* \"contracts/AccessControl.sol\":7251:7265  permissionName */\n      dup5\n        /* \"contracts/AccessControl.sol\":7233:7287  PermissionRevoked(permissionName, account, msg.sender) */\n      mload(0x40)\n      tag_313\n      swap2\n      swap1\n      tag_236\n      jump\t// in\n    tag_313:\n      mload(0x40)\n      dup1\n      swap2\n      sub\n      swap1\n      keccak256\n      0x5658f0a44f1b55364ef0376f818ea716aee06d4e966974edba8ae1b8fa1e379c\n      mload(0x40)\n      mload(0x40)\n      dup1\n      swap2\n      sub\n      swap1\n      log4\n        /* \"contracts/AccessControl.sol\":7090:7418  if (_check(permission, account) && permission != ADMIN) {\r... */\n      jump(tag_314)\n    tag_312:\n        /* \"contracts/AccessControl.sol\":7320:7406  _informFailure(\"The permission is not valid or the account is not in the permission.\") */\n      tag_315\n      mload(0x40)\n      dup1\n      0x80\n      add\n      0x40\n      mstore\n      dup1\n      0x44\n      dup2\n      mstore\n      0x20\n      add\n      data_601972b90d37b25432db4389d8031f8daa2518ef8d99fbf07fd5717b0953de49\n      0x44\n      swap2\n      codecopy\n        /* \"contracts/AccessControl.sol\":7320:7334  _informFailure */\n      tag_239\n        /* \"contracts/AccessControl.sol\":7320:7406  _informFailure(\"The permission is not valid or the account is not in the permission.\") */\n      jump\t// in\n    tag_315:\n        /* \"contracts/AccessControl.sol\":7090:7418  if (_check(permission, account) && permission != ADMIN) {\r... */\n    tag_314:\n        /* \"contracts/AccessControl.sol\":7022:7425  {\r... */\n      pop\n        /* \"contracts/AccessControl.sol\":6925:7425  function _revokeAccountPermission(bytes memory permissionName, address account) internal virtual {\r... */\n      pop\n      pop\n      jump\t// out\n        /* \"contracts/AccessControl.sol\":8647:8835  function _inquiryAccountPermission(bytes32 permission, address account) \r... */\n    tag_228:\n        /* \"contracts/AccessControl.sol\":8770:8774  bool */\n      0x00\n        /* \"contracts/AccessControl.sol\":8800:8827  _check(permission, account) */\n      tag_317\n        /* \"contracts/AccessControl.sol\":8807:8817  permission */\n      dup4\n        /* \"contracts/AccessControl.sol\":8819:8826  account */\n      dup4\n        /* \"contracts/AccessControl.sol\":8800:8806  _check */\n      tag_73\n        /* \"contracts/AccessControl.sol\":8800:8827  _check(permission, account) */\n      jump\t// in\n    tag_317:\n        /* \"contracts/AccessControl.sol\":8793:8827  return _check(permission, account) */\n      swap1\n      pop\n        /* \"contracts/AccessControl.sol\":8647:8835  function _inquiryAccountPermission(bytes32 permission, address account) \r... */\n      swap3\n      swap2\n      pop\n      pop\n      jump\t// out\n        /* \"contracts/AccessControl.sol\":1386:1644  function _informFailure(string memory response) private pure {\r... */\n    tag_239:\n        /* \"contracts/AccessControl.sol\":1583:1591  response */\n      dup1\n        /* \"contracts/AccessControl.sol\":1504:1610  abi.encodePacked(\r... */\n      add(0x20, mload(0x40))\n      tag_319\n      swap2\n      swap1\n      tag_320\n      jump\t// in\n    tag_319:\n      mload(0x40)\n      0x20\n      dup2\n      dup4\n      sub\n      sub\n      dup2\n      mstore\n      swap1\n      0x40\n      mstore\n        /* \"contracts/AccessControl.sol\":1458:1636  revert(\r... */\n      mload(0x40)\n      0x08c379a000000000000000000000000000000000000000000000000000000000\n      dup2\n      mstore\n      0x04\n      add\n      tag_321\n      swap2\n      swap1\n      tag_29\n      jump\t// in\n    tag_321:\n      mload(0x40)\n      dup1\n      swap2\n      sub\n      swap1\n      revert\n        /* \"contracts/AccessControl.sol\":5488:6151  function _changeAccountIndex(bytes32 permission, address account) private {\r... */\n    tag_261:\n        /* \"contracts/AccessControl.sol\":5721:5733  bool isExist */\n      0x00\n        /* \"contracts/AccessControl.sol\":5756:5762  uint i */\n      dup1\n        /* \"contracts/AccessControl.sol\":5752:5964  for(uint i = 0; i < _allPermissions[permission].length; i++) {\r... */\n    tag_323:\n        /* \"contracts/AccessControl.sol\":5772:5787  _allPermissions */\n      0x00\n        /* \"contracts/AccessControl.sol\":5772:5799  _allPermissions[permission] */\n      dup1\n        /* \"contracts/AccessControl.sol\":5788:5798  permission */\n      dup6\n        /* \"contracts/AccessControl.sol\":5772:5799  _allPermissions[permission] */\n      dup2\n      mstore\n      0x20\n      add\n      swap1\n      dup2\n      mstore\n      0x20\n      add\n      0x00\n      keccak256\n        /* \"contracts/AccessControl.sol\":5772:5806  _allPermissions[permission].length */\n      0x02\n      add\n      sload\n        /* \"contracts/AccessControl.sol\":5768:5769  i */\n      dup2\n        /* \"contracts/AccessControl.sol\":5768:5806  i < _allPermissions[permission].length */\n      lt\n        /* \"contracts/AccessControl.sol\":5752:5964  for(uint i = 0; i < _allPermissions[permission].length; i++) {\r... */\n      iszero\n      tag_324\n      jumpi\n        /* \"contracts/AccessControl.sol\":5871:5878  account */\n      dup3\n        /* \"contracts/AccessControl.sol\":5831:5878  _allPermissions[permission].index[i] == account */\n      0xffffffffffffffffffffffffffffffffffffffff\n      and\n        /* \"contracts/AccessControl.sol\":5831:5846  _allPermissions */\n      0x00\n        /* \"contracts/AccessControl.sol\":5831:5858  _allPermissions[permission] */\n      dup1\n        /* \"contracts/AccessControl.sol\":5847:5857  permission */\n      dup7\n        /* \"contracts/AccessControl.sol\":5831:5858  _allPermissions[permission] */\n      dup2\n      mstore\n      0x20\n      add\n      swap1\n      dup2\n      mstore\n      0x20\n      add\n      0x00\n      keccak256\n        /* \"contracts/AccessControl.sol\":5831:5864  _allPermissions[permission].index */\n      0x01\n      add\n        /* \"contracts/AccessControl.sol\":5831:5867  _allPermissions[permission].index[i] */\n      0x00\n        /* \"contracts/AccessControl.sol\":5865:5866  i */\n      dup4\n        /* \"contracts/AccessControl.sol\":5831:5867  _allPermissions[permission].index[i] */\n      dup2\n      mstore\n      0x20\n      add\n      swap1\n      dup2\n      mstore\n      0x20\n      add\n      0x00\n      keccak256\n      0x00\n      swap1\n      sload\n      swap1\n      0x0100\n      exp\n      swap1\n      div\n      0xffffffffffffffffffffffffffffffffffffffff\n      and\n        /* \"contracts/AccessControl.sol\":5831:5878  _allPermissions[permission].index[i] == account */\n      0xffffffffffffffffffffffffffffffffffffffff\n      and\n      eq\n        /* \"contracts/AccessControl.sol\":5828:5953  if(_allPermissions[permission].index[i] == account) {\r... */\n      iszero\n      tag_326\n      jumpi\n        /* \"contracts/AccessControl.sol\":5909:5913  true */\n      0x01\n        /* \"contracts/AccessControl.sol\":5899:5913  isExist = true */\n      swap2\n      pop\n        /* \"contracts/AccessControl.sol\":5932:5937  break */\n      jump(tag_324)\n        /* \"contracts/AccessControl.sol\":5828:5953  if(_allPermissions[permission].index[i] == account) {\r... */\n    tag_326:\n        /* \"contracts/AccessControl.sol\":5808:5811  i++ */\n      dup1\n      dup1\n      tag_327\n      swap1\n      tag_250\n      jump\t// in\n    tag_327:\n      swap2\n      pop\n      pop\n        /* \"contracts/AccessControl.sol\":5752:5964  for(uint i = 0; i < _allPermissions[permission].length; i++) {\r... */\n      jump(tag_323)\n    tag_324:\n      pop\n        /* \"contracts/AccessControl.sol\":5978:5985  isExist */\n      dup1\n        /* \"contracts/AccessControl.sol\":5974:6144  if(!isExist) {\r... */\n      tag_328\n      jumpi\n        /* \"contracts/AccessControl.sol\":6074:6081  account */\n      dup2\n        /* \"contracts/AccessControl.sol\":6002:6017  _allPermissions */\n      0x00\n        /* \"contracts/AccessControl.sol\":6002:6029  _allPermissions[permission] */\n      dup1\n        /* \"contracts/AccessControl.sol\":6018:6028  permission */\n      dup6\n        /* \"contracts/AccessControl.sol\":6002:6029  _allPermissions[permission] */\n      dup2\n      mstore\n      0x20\n      add\n      swap1\n      dup2\n      mstore\n      0x20\n      add\n      0x00\n      keccak256\n        /* \"contracts/AccessControl.sol\":6002:6035  _allPermissions[permission].index */\n      0x01\n      add\n        /* \"contracts/AccessControl.sol\":6002:6071  _allPermissions[permission].index[_allPermissions[permission].length] */\n      0x00\n        /* \"contracts/AccessControl.sol\":6036:6051  _allPermissions */\n      dup1\n        /* \"contracts/AccessControl.sol\":6036:6063  _allPermissions[permission] */\n      0x00\n        /* \"contracts/AccessControl.sol\":6052:6062  permission */\n      dup8\n        /* \"contracts/AccessControl.sol\":6036:6063  _allPermissions[permission] */\n      dup2\n      mstore\n      0x20\n      add\n      swap1\n      dup2\n      mstore\n      0x20\n      add\n      0x00\n      keccak256\n        /* \"contracts/AccessControl.sol\":6036:6070  _allPermissions[permission].length */\n      0x02\n      add\n      sload\n        /* \"contracts/AccessControl.sol\":6002:6071  _allPermissions[permission].index[_allPermissions[permission].length] */\n      dup2\n      mstore\n      0x20\n      add\n      swap1\n      dup2\n      mstore\n      0x20\n      add\n      0x00\n      keccak256\n      0x00\n        /* \"contracts/AccessControl.sol\":6002:6081  _allPermissions[permission].index[_allPermissions[permission].length] = account */\n      0x0100\n      exp\n      dup2\n      sload\n      dup2\n      0xffffffffffffffffffffffffffffffffffffffff\n      mul\n      not\n      and\n      swap1\n      dup4\n      0xffffffffffffffffffffffffffffffffffffffff\n      and\n      mul\n      or\n      swap1\n      sstore\n      pop\n        /* \"contracts/AccessControl.sol\":6096:6111  _allPermissions */\n      0x00\n        /* \"contracts/AccessControl.sol\":6096:6123  _allPermissions[permission] */\n      dup1\n        /* \"contracts/AccessControl.sol\":6112:6122  permission */\n      dup5\n        /* \"contracts/AccessControl.sol\":6096:6123  _allPermissions[permission] */\n      dup2\n      mstore\n      0x20\n      add\n      swap1\n      dup2\n      mstore\n      0x20\n      add\n      0x00\n      keccak256\n        /* \"contracts/AccessControl.sol\":6096:6130  _allPermissions[permission].length */\n      0x02\n      add\n      0x00\n        /* \"contracts/AccessControl.sol\":6096:6132  _allPermissions[permission].length++ */\n      dup2\n      sload\n      dup1\n      swap3\n      swap2\n      swap1\n      tag_329\n      swap1\n      tag_250\n      jump\t// in\n    tag_329:\n      swap2\n      swap1\n      pop\n      sstore\n      pop\n        /* \"contracts/AccessControl.sol\":5974:6144  if(!isExist) {\r... */\n    tag_328:\n        /* \"contracts/AccessControl.sol\":5562:6151  {\r... */\n      pop\n        /* \"contracts/AccessControl.sol\":5488:6151  function _changeAccountIndex(bytes32 permission, address account) private {\r... */\n      pop\n      pop\n      jump\t// out\n        /* \"contracts/AccessControl.sol\":2027:2464  function _changePermissionIndex(bytes32 permission) private {\r... */\n    tag_284:\n        /* \"contracts/AccessControl.sol\":2098:2110  bool isExist */\n      0x00\n        /* \"contracts/AccessControl.sol\":2133:2139  uint i */\n      dup1\n        /* \"contracts/AccessControl.sol\":2129:2316  for(uint i = 0; i < _numberOfPermissions; i++) {\r... */\n    tag_331:\n        /* \"contracts/AccessControl.sol\":2149:2169  _numberOfPermissions */\n      sload(0x02)\n        /* \"contracts/AccessControl.sol\":2145:2146  i */\n      dup2\n        /* \"contracts/AccessControl.sol\":2145:2169  i < _numberOfPermissions */\n      lt\n        /* \"contracts/AccessControl.sol\":2129:2316  for(uint i = 0; i < _numberOfPermissions; i++) {\r... */\n      iszero\n      tag_332\n      jumpi\n        /* \"contracts/AccessControl.sol\":2220:2230  permission */\n      dup3\n        /* \"contracts/AccessControl.sol\":2194:2213  _indexOfPermissions */\n      0x01\n        /* \"contracts/AccessControl.sol\":2194:2216  _indexOfPermissions[i] */\n      0x00\n        /* \"contracts/AccessControl.sol\":2214:2215  i */\n      dup4\n        /* \"contracts/AccessControl.sol\":2194:2216  _indexOfPermissions[i] */\n      dup2\n      mstore\n      0x20\n      add\n      swap1\n      dup2\n      mstore\n      0x20\n      add\n      0x00\n      keccak256\n      sload\n        /* \"contracts/AccessControl.sol\":2194:2230  _indexOfPermissions[i] == permission */\n      eq\n        /* \"contracts/AccessControl.sol\":2191:2305  if(_indexOfPermissions[i] == permission) {\r... */\n      iszero\n      tag_334\n      jumpi\n        /* \"contracts/AccessControl.sol\":2261:2265  true */\n      0x01\n        /* \"contracts/AccessControl.sol\":2251:2265  isExist = true */\n      swap2\n      pop\n        /* \"contracts/AccessControl.sol\":2284:2289  break */\n      jump(tag_332)\n        /* \"contracts/AccessControl.sol\":2191:2305  if(_indexOfPermissions[i] == permission) {\r... */\n    tag_334:\n        /* \"contracts/AccessControl.sol\":2171:2174  i++ */\n      dup1\n      dup1\n      tag_335\n      swap1\n      tag_250\n      jump\t// in\n    tag_335:\n      swap2\n      pop\n      pop\n        /* \"contracts/AccessControl.sol\":2129:2316  for(uint i = 0; i < _numberOfPermissions; i++) {\r... */\n      jump(tag_331)\n    tag_332:\n      pop\n        /* \"contracts/AccessControl.sol\":2330:2337  isExist */\n      dup1\n        /* \"contracts/AccessControl.sol\":2326:2457  if(!isExist) {\r... */\n      tag_336\n      jumpi\n        /* \"contracts/AccessControl.sol\":2398:2408  permission */\n      dup2\n        /* \"contracts/AccessControl.sol\":2354:2373  _indexOfPermissions */\n      0x01\n        /* \"contracts/AccessControl.sol\":2354:2395  _indexOfPermissions[_numberOfPermissions] */\n      0x00\n        /* \"contracts/AccessControl.sol\":2374:2394  _numberOfPermissions */\n      sload(0x02)\n        /* \"contracts/AccessControl.sol\":2354:2395  _indexOfPermissions[_numberOfPermissions] */\n      dup2\n      mstore\n      0x20\n      add\n      swap1\n      dup2\n      mstore\n      0x20\n      add\n      0x00\n      keccak256\n        /* \"contracts/AccessControl.sol\":2354:2408  _indexOfPermissions[_numberOfPermissions] = permission */\n      dup2\n      swap1\n      sstore\n      pop\n        /* \"contracts/AccessControl.sol\":2423:2443  _numberOfPermissions */\n      0x02\n      0x00\n        /* \"contracts/AccessControl.sol\":2423:2445  _numberOfPermissions++ */\n      dup2\n      sload\n      dup1\n      swap3\n      swap2\n      swap1\n      tag_337\n      swap1\n      tag_250\n      jump\t// in\n    tag_337:\n      swap2\n      swap1\n      pop\n      sstore\n      pop\n        /* \"contracts/AccessControl.sol\":2326:2457  if(!isExist) {\r... */\n    tag_336:\n        /* \"contracts/AccessControl.sol\":2087:2464  {\r... */\n      pop\n        /* \"contracts/AccessControl.sol\":2027:2464  function _changePermissionIndex(bytes32 permission) private {\r... */\n      pop\n      jump\t// out\n        /* \"#utility.yul\":7:417   */\n    tag_339:\n        /* \"#utility.yul\":84:89   */\n      0x00\n        /* \"#utility.yul\":109:174   */\n      tag_341\n        /* \"#utility.yul\":125:173   */\n      tag_342\n        /* \"#utility.yul\":166:172   */\n      dup5\n        /* \"#utility.yul\":125:173   */\n      tag_343\n      jump\t// in\n    tag_342:\n        /* \"#utility.yul\":109:174   */\n      tag_344\n      jump\t// in\n    tag_341:\n        /* \"#utility.yul\":100:174   */\n      swap1\n      pop\n        /* \"#utility.yul\":197:203   */\n      dup3\n        /* \"#utility.yul\":190:195   */\n      dup2\n        /* \"#utility.yul\":183:204   */\n      mstore\n        /* \"#utility.yul\":235:239   */\n      0x20\n        /* \"#utility.yul\":228:233   */\n      dup2\n        /* \"#utility.yul\":224:240   */\n      add\n        /* \"#utility.yul\":273:276   */\n      dup5\n        /* \"#utility.yul\":264:270   */\n      dup5\n        /* \"#utility.yul\":259:262   */\n      dup5\n        /* \"#utility.yul\":255:271   */\n      add\n        /* \"#utility.yul\":252:277   */\n      gt\n        /* \"#utility.yul\":249:361   */\n      iszero\n      tag_345\n      jumpi\n        /* \"#utility.yul\":280:359   */\n      tag_346\n      tag_347\n      jump\t// in\n    tag_346:\n        /* \"#utility.yul\":249:361   */\n    tag_345:\n        /* \"#utility.yul\":370:411   */\n      tag_348\n        /* \"#utility.yul\":404:410   */\n      dup5\n        /* \"#utility.yul\":399:402   */\n      dup3\n        /* \"#utility.yul\":394:397   */\n      dup6\n        /* \"#utility.yul\":370:411   */\n      tag_349\n      jump\t// in\n    tag_348:\n        /* \"#utility.yul\":90:417   */\n      pop\n        /* \"#utility.yul\":7:417   */\n      swap4\n      swap3\n      pop\n      pop\n      pop\n      jump\t// out\n        /* \"#utility.yul\":423:562   */\n    tag_350:\n        /* \"#utility.yul\":469:474   */\n      0x00\n        /* \"#utility.yul\":507:513   */\n      dup2\n        /* \"#utility.yul\":494:514   */\n      calldataload\n        /* \"#utility.yul\":485:514   */\n      swap1\n      pop\n        /* \"#utility.yul\":523:556   */\n      tag_352\n        /* \"#utility.yul\":550:555   */\n      dup2\n        /* \"#utility.yul\":523:556   */\n      tag_353\n      jump\t// in\n    tag_352:\n        /* \"#utility.yul\":423:562   */\n      swap3\n      swap2\n      pop\n      pop\n      jump\t// out\n        /* \"#utility.yul\":568:705   */\n    tag_354:\n        /* \"#utility.yul\":622:627   */\n      0x00\n        /* \"#utility.yul\":653:659   */\n      dup2\n        /* \"#utility.yul\":647:660   */\n      mload\n        /* \"#utility.yul\":638:660   */\n      swap1\n      pop\n        /* \"#utility.yul\":669:699   */\n      tag_356\n        /* \"#utility.yul\":693:698   */\n      dup2\n        /* \"#utility.yul\":669:699   */\n      tag_357\n      jump\t// in\n    tag_356:\n        /* \"#utility.yul\":568:705   */\n      swap3\n      swap2\n      pop\n      pop\n      jump\t// out\n        /* \"#utility.yul\":711:850   */\n    tag_358:\n        /* \"#utility.yul\":757:762   */\n      0x00\n        /* \"#utility.yul\":795:801   */\n      dup2\n        /* \"#utility.yul\":782:802   */\n      calldataload\n        /* \"#utility.yul\":773:802   */\n      swap1\n      pop\n        /* \"#utility.yul\":811:844   */\n      tag_360\n        /* \"#utility.yul\":838:843   */\n      dup2\n        /* \"#utility.yul\":811:844   */\n      tag_361\n      jump\t// in\n    tag_360:\n        /* \"#utility.yul\":711:850   */\n      swap3\n      swap2\n      pop\n      pop\n      jump\t// out\n        /* \"#utility.yul\":869:1207   */\n    tag_362:\n        /* \"#utility.yul\":924:929   */\n      0x00\n        /* \"#utility.yul\":973:976   */\n      dup3\n        /* \"#utility.yul\":966:970   */\n      0x1f\n        /* \"#utility.yul\":958:964   */\n      dup4\n        /* \"#utility.yul\":954:971   */\n      add\n        /* \"#utility.yul\":950:977   */\n      slt\n        /* \"#utility.yul\":940:1062   */\n      tag_364\n      jumpi\n        /* \"#utility.yul\":981:1060   */\n      tag_365\n      tag_366\n      jump\t// in\n    tag_365:\n        /* \"#utility.yul\":940:1062   */\n    tag_364:\n        /* \"#utility.yul\":1098:1104   */\n      dup2\n        /* \"#utility.yul\":1085:1105   */\n      calldataload\n        /* \"#utility.yul\":1123:1201   */\n      tag_367\n        /* \"#utility.yul\":1197:1200   */\n      dup5\n        /* \"#utility.yul\":1189:1195   */\n      dup3\n        /* \"#utility.yul\":1182:1186   */\n      0x20\n        /* \"#utility.yul\":1174:1180   */\n      dup7\n        /* \"#utility.yul\":1170:1187   */\n      add\n        /* \"#utility.yul\":1123:1201   */\n      tag_339\n      jump\t// in\n    tag_367:\n        /* \"#utility.yul\":1114:1201   */\n      swap2\n      pop\n        /* \"#utility.yul\":930:1207   */\n      pop\n        /* \"#utility.yul\":869:1207   */\n      swap3\n      swap2\n      pop\n      pop\n      jump\t// out\n        /* \"#utility.yul\":1213:1542   */\n    tag_24:\n        /* \"#utility.yul\":1272:1278   */\n      0x00\n        /* \"#utility.yul\":1321:1323   */\n      0x20\n        /* \"#utility.yul\":1309:1318   */\n      dup3\n        /* \"#utility.yul\":1300:1307   */\n      dup5\n        /* \"#utility.yul\":1296:1319   */\n      sub\n        /* \"#utility.yul\":1292:1324   */\n      slt\n        /* \"#utility.yul\":1289:1408   */\n      iszero\n      tag_369\n      jumpi\n        /* \"#utility.yul\":1327:1406   */\n      tag_370\n      tag_371\n      jump\t// in\n    tag_370:\n        /* \"#utility.yul\":1289:1408   */\n    tag_369:\n        /* \"#utility.yul\":1447:1448   */\n      0x00\n        /* \"#utility.yul\":1472:1525   */\n      tag_372\n        /* \"#utility.yul\":1517:1524   */\n      dup5\n        /* \"#utility.yul\":1508:1514   */\n      dup3\n        /* \"#utility.yul\":1497:1506   */\n      dup6\n        /* \"#utility.yul\":1493:1515   */\n      add\n        /* \"#utility.yul\":1472:1525   */\n      tag_350\n      jump\t// in\n    tag_372:\n        /* \"#utility.yul\":1462:1525   */\n      swap2\n      pop\n        /* \"#utility.yul\":1418:1535   */\n      pop\n        /* \"#utility.yul\":1213:1542   */\n      swap3\n      swap2\n      pop\n      pop\n      jump\t// out\n        /* \"#utility.yul\":1548:1893   */\n    tag_81:\n        /* \"#utility.yul\":1615:1621   */\n      0x00\n        /* \"#utility.yul\":1664:1666   */\n      0x20\n        /* \"#utility.yul\":1652:1661   */\n      dup3\n        /* \"#utility.yul\":1643:1650   */\n      dup5\n        /* \"#utility.yul\":1639:1662   */\n      sub\n        /* \"#utility.yul\":1635:1667   */\n      slt\n        /* \"#utility.yul\":1632:1751   */\n      iszero\n      tag_374\n      jumpi\n        /* \"#utility.yul\":1670:1749   */\n      tag_375\n      tag_371\n      jump\t// in\n    tag_375:\n        /* \"#utility.yul\":1632:1751   */\n    tag_374:\n        /* \"#utility.yul\":1790:1791   */\n      0x00\n        /* \"#utility.yul\":1815:1876   */\n      tag_376\n        /* \"#utility.yul\":1868:1875   */\n      dup5\n        /* \"#utility.yul\":1859:1865   */\n      dup3\n        /* \"#utility.yul\":1848:1857   */\n      dup6\n        /* \"#utility.yul\":1844:1866   */\n      add\n        /* \"#utility.yul\":1815:1876   */\n      tag_354\n      jump\t// in\n    tag_376:\n        /* \"#utility.yul\":1805:1876   */\n      swap2\n      pop\n        /* \"#utility.yul\":1761:1886   */\n      pop\n        /* \"#utility.yul\":1548:1893   */\n      swap3\n      swap2\n      pop\n      pop\n      jump\t// out\n        /* \"#utility.yul\":1899:2228   */\n    tag_44:\n        /* \"#utility.yul\":1958:1964   */\n      0x00\n        /* \"#utility.yul\":2007:2009   */\n      0x20\n        /* \"#utility.yul\":1995:2004   */\n      dup3\n        /* \"#utility.yul\":1986:1993   */\n      dup5\n        /* \"#utility.yul\":1982:2005   */\n      sub\n        /* \"#utility.yul\":1978:2010   */\n      slt\n        /* \"#utility.yul\":1975:2094   */\n      iszero\n      tag_378\n      jumpi\n        /* \"#utility.yul\":2013:2092   */\n      tag_379\n      tag_371\n      jump\t// in\n    tag_379:\n        /* \"#utility.yul\":1975:2094   */\n    tag_378:\n        /* \"#utility.yul\":2133:2134   */\n      0x00\n        /* \"#utility.yul\":2158:2211   */\n      tag_380\n        /* \"#utility.yul\":2203:2210   */\n      dup5\n        /* \"#utility.yul\":2194:2200   */\n      dup3\n        /* \"#utility.yul\":2183:2192   */\n      dup6\n        /* \"#utility.yul\":2179:2201   */\n      add\n        /* \"#utility.yul\":2158:2211   */\n      tag_358\n      jump\t// in\n    tag_380:\n        /* \"#utility.yul\":2148:2211   */\n      swap2\n      pop\n        /* \"#utility.yul\":2104:2221   */\n      pop\n        /* \"#utility.yul\":1899:2228   */\n      swap3\n      swap2\n      pop\n      pop\n      jump\t// out\n        /* \"#utility.yul\":2234:2708   */\n    tag_67:\n        /* \"#utility.yul\":2302:2308   */\n      0x00\n        /* \"#utility.yul\":2310:2316   */\n      dup1\n        /* \"#utility.yul\":2359:2361   */\n      0x40\n        /* \"#utility.yul\":2347:2356   */\n      dup4\n        /* \"#utility.yul\":2338:2345   */\n      dup6\n        /* \"#utility.yul\":2334:2357   */\n      sub\n        /* \"#utility.yul\":2330:2362   */\n      slt\n        /* \"#utility.yul\":2327:2446   */\n      iszero\n      tag_382\n      jumpi\n        /* \"#utility.yul\":2365:2444   */\n      tag_383\n      tag_371\n      jump\t// in\n    tag_383:\n        /* \"#utility.yul\":2327:2446   */\n    tag_382:\n        /* \"#utility.yul\":2485:2486   */\n      0x00\n        /* \"#utility.yul\":2510:2563   */\n      tag_384\n        /* \"#utility.yul\":2555:2562   */\n      dup6\n        /* \"#utility.yul\":2546:2552   */\n      dup3\n        /* \"#utility.yul\":2535:2544   */\n      dup7\n        /* \"#utility.yul\":2531:2553   */\n      add\n        /* \"#utility.yul\":2510:2563   */\n      tag_358\n      jump\t// in\n    tag_384:\n        /* \"#utility.yul\":2500:2563   */\n      swap3\n      pop\n        /* \"#utility.yul\":2456:2573   */\n      pop\n        /* \"#utility.yul\":2612:2614   */\n      0x20\n        /* \"#utility.yul\":2638:2691   */\n      tag_385\n        /* \"#utility.yul\":2683:2690   */\n      dup6\n        /* \"#utility.yul\":2674:2680   */\n      dup3\n        /* \"#utility.yul\":2663:2672   */\n      dup7\n        /* \"#utility.yul\":2659:2681   */\n      add\n        /* \"#utility.yul\":2638:2691   */\n      tag_350\n      jump\t// in\n    tag_385:\n        /* \"#utility.yul\":2628:2691   */\n      swap2\n      pop\n        /* \"#utility.yul\":2583:2701   */\n      pop\n        /* \"#utility.yul\":2234:2708   */\n      swap3\n      pop\n      swap3\n      swap1\n      pop\n      jump\t// out\n        /* \"#utility.yul\":2714:3221   */\n    tag_20:\n        /* \"#utility.yul\":2782:2788   */\n      0x00\n        /* \"#utility.yul\":2831:2833   */\n      0x20\n        /* \"#utility.yul\":2819:2828   */\n      dup3\n        /* \"#utility.yul\":2810:2817   */\n      dup5\n        /* \"#utility.yul\":2806:2829   */\n      sub\n        /* \"#utility.yul\":2802:2834   */\n      slt\n        /* \"#utility.yul\":2799:2918   */\n      iszero\n      tag_387\n      jumpi\n        /* \"#utility.yul\":2837:2916   */\n      tag_388\n      tag_371\n      jump\t// in\n    tag_388:\n        /* \"#utility.yul\":2799:2918   */\n    tag_387:\n        /* \"#utility.yul\":2985:2986   */\n      0x00\n        /* \"#utility.yul\":2974:2983   */\n      dup3\n        /* \"#utility.yul\":2970:2987   */\n      add\n        /* \"#utility.yul\":2957:2988   */\n      calldataload\n        /* \"#utility.yul\":3015:3033   */\n      0xffffffffffffffff\n        /* \"#utility.yul\":3007:3013   */\n      dup2\n        /* \"#utility.yul\":3004:3034   */\n      gt\n        /* \"#utility.yul\":3001:3118   */\n      iszero\n      tag_389\n      jumpi\n        /* \"#utility.yul\":3037:3116   */\n      tag_390\n      tag_391\n      jump\t// in\n    tag_390:\n        /* \"#utility.yul\":3001:3118   */\n    tag_389:\n        /* \"#utility.yul\":3142:3204   */\n      tag_392\n        /* \"#utility.yul\":3196:3203   */\n      dup5\n        /* \"#utility.yul\":3187:3193   */\n      dup3\n        /* \"#utility.yul\":3176:3185   */\n      dup6\n        /* \"#utility.yul\":3172:3194   */\n      add\n        /* \"#utility.yul\":3142:3204   */\n      tag_362\n      jump\t// in\n    tag_392:\n        /* \"#utility.yul\":3132:3204   */\n      swap2\n      pop\n        /* \"#utility.yul\":2928:3214   */\n      pop\n        /* \"#utility.yul\":2714:3221   */\n      swap3\n      swap2\n      pop\n      pop\n      jump\t// out\n        /* \"#utility.yul\":3227:3879   */\n    tag_60:\n        /* \"#utility.yul\":3304:3310   */\n      0x00\n        /* \"#utility.yul\":3312:3318   */\n      dup1\n        /* \"#utility.yul\":3361:3363   */\n      0x40\n        /* \"#utility.yul\":3349:3358   */\n      dup4\n        /* \"#utility.yul\":3340:3347   */\n      dup6\n        /* \"#utility.yul\":3336:3359   */\n      sub\n        /* \"#utility.yul\":3332:3364   */\n      slt\n        /* \"#utility.yul\":3329:3448   */\n      iszero\n      tag_394\n      jumpi\n        /* \"#utility.yul\":3367:3446   */\n      tag_395\n      tag_371\n      jump\t// in\n    tag_395:\n        /* \"#utility.yul\":3329:3448   */\n    tag_394:\n        /* \"#utility.yul\":3515:3516   */\n      0x00\n        /* \"#utility.yul\":3504:3513   */\n      dup4\n        /* \"#utility.yul\":3500:3517   */\n      add\n        /* \"#utility.yul\":3487:3518   */\n      calldataload\n        /* \"#utility.yul\":3545:3563   */\n      0xffffffffffffffff\n        /* \"#utility.yul\":3537:3543   */\n      dup2\n        /* \"#utility.yul\":3534:3564   */\n      gt\n        /* \"#utility.yul\":3531:3648   */\n      iszero\n      tag_396\n      jumpi\n        /* \"#utility.yul\":3567:3646   */\n      tag_397\n      tag_391\n      jump\t// in\n    tag_397:\n        /* \"#utility.yul\":3531:3648   */\n    tag_396:\n        /* \"#utility.yul\":3672:3734   */\n      tag_398\n        /* \"#utility.yul\":3726:3733   */\n      dup6\n        /* \"#utility.yul\":3717:3723   */\n      dup3\n        /* \"#utility.yul\":3706:3715   */\n      dup7\n        /* \"#utility.yul\":3702:3724   */\n      add\n        /* \"#utility.yul\":3672:3734   */\n      tag_362\n      jump\t// in\n    tag_398:\n        /* \"#utility.yul\":3662:3734   */\n      swap3\n      pop\n        /* \"#utility.yul\":3458:3744   */\n      pop\n        /* \"#utility.yul\":3783:3785   */\n      0x20\n        /* \"#utility.yul\":3809:3862   */\n      tag_399\n        /* \"#utility.yul\":3854:3861   */\n      dup6\n        /* \"#utility.yul\":3845:3851   */\n      dup3\n        /* \"#utility.yul\":3834:3843   */\n      dup7\n        /* \"#utility.yul\":3830:3852   */\n      add\n        /* \"#utility.yul\":3809:3862   */\n      tag_350\n      jump\t// in\n    tag_399:\n        /* \"#utility.yul\":3799:3862   */\n      swap2\n      pop\n        /* \"#utility.yul\":3754:3872   */\n      pop\n        /* \"#utility.yul\":3227:3879   */\n      swap3\n      pop\n      swap3\n      swap1\n      pop\n      jump\t// out\n        /* \"#utility.yul\":3885:4715   */\n    tag_50:\n        /* \"#utility.yul\":3971:3977   */\n      0x00\n        /* \"#utility.yul\":3979:3985   */\n      dup1\n        /* \"#utility.yul\":4028:4030   */\n      0x40\n        /* \"#utility.yul\":4016:4025   */\n      dup4\n        /* \"#utility.yul\":4007:4014   */\n      dup6\n        /* \"#utility.yul\":4003:4026   */\n      sub\n        /* \"#utility.yul\":3999:4031   */\n      slt\n        /* \"#utility.yul\":3996:4115   */\n      iszero\n      tag_401\n      jumpi\n        /* \"#utility.yul\":4034:4113   */\n      tag_402\n      tag_371\n      jump\t// in\n    tag_402:\n        /* \"#utility.yul\":3996:4115   */\n    tag_401:\n        /* \"#utility.yul\":4182:4183   */\n      0x00\n        /* \"#utility.yul\":4171:4180   */\n      dup4\n        /* \"#utility.yul\":4167:4184   */\n      add\n        /* \"#utility.yul\":4154:4185   */\n      calldataload\n        /* \"#utility.yul\":4212:4230   */\n      0xffffffffffffffff\n        /* \"#utility.yul\":4204:4210   */\n      dup2\n        /* \"#utility.yul\":4201:4231   */\n      gt\n        /* \"#utility.yul\":4198:4315   */\n      iszero\n      tag_403\n      jumpi\n        /* \"#utility.yul\":4234:4313   */\n      tag_404\n      tag_391\n      jump\t// in\n    tag_404:\n        /* \"#utility.yul\":4198:4315   */\n    tag_403:\n        /* \"#utility.yul\":4339:4401   */\n      tag_405\n        /* \"#utility.yul\":4393:4400   */\n      dup6\n        /* \"#utility.yul\":4384:4390   */\n      dup3\n        /* \"#utility.yul\":4373:4382   */\n      dup7\n        /* \"#utility.yul\":4369:4391   */\n      add\n        /* \"#utility.yul\":4339:4401   */\n      tag_362\n      jump\t// in\n    tag_405:\n        /* \"#utility.yul\":4329:4401   */\n      swap3\n      pop\n        /* \"#utility.yul\":4125:4411   */\n      pop\n        /* \"#utility.yul\":4478:4480   */\n      0x20\n        /* \"#utility.yul\":4467:4476   */\n      dup4\n        /* \"#utility.yul\":4463:4481   */\n      add\n        /* \"#utility.yul\":4450:4482   */\n      calldataload\n        /* \"#utility.yul\":4509:4527   */\n      0xffffffffffffffff\n        /* \"#utility.yul\":4501:4507   */\n      dup2\n        /* \"#utility.yul\":4498:4528   */\n      gt\n        /* \"#utility.yul\":4495:4612   */\n      iszero\n      tag_406\n      jumpi\n        /* \"#utility.yul\":4531:4610   */\n      tag_407\n      tag_391\n      jump\t// in\n    tag_407:\n        /* \"#utility.yul\":4495:4612   */\n    tag_406:\n        /* \"#utility.yul\":4636:4698   */\n      tag_408\n        /* \"#utility.yul\":4690:4697   */\n      dup6\n        /* \"#utility.yul\":4681:4687   */\n      dup3\n        /* \"#utility.yul\":4670:4679   */\n      dup7\n        /* \"#utility.yul\":4666:4688   */\n      add\n        /* \"#utility.yul\":4636:4698   */\n      tag_362\n      jump\t// in\n    tag_408:\n        /* \"#utility.yul\":4626:4698   */\n      swap2\n      pop\n        /* \"#utility.yul\":4421:4708   */\n      pop\n        /* \"#utility.yul\":3885:4715   */\n      swap3\n      pop\n      swap3\n      swap1\n      pop\n      jump\t// out\n        /* \"#utility.yul\":4721:4900   */\n    tag_409:\n        /* \"#utility.yul\":4790:4800   */\n      0x00\n        /* \"#utility.yul\":4811:4857   */\n      tag_411\n        /* \"#utility.yul\":4853:4856   */\n      dup4\n        /* \"#utility.yul\":4845:4851   */\n      dup4\n        /* \"#utility.yul\":4811:4857   */\n      tag_412\n      jump\t// in\n    tag_411:\n        /* \"#utility.yul\":4889:4893   */\n      0x20\n        /* \"#utility.yul\":4884:4887   */\n      dup4\n        /* \"#utility.yul\":4880:4894   */\n      add\n        /* \"#utility.yul\":4866:4894   */\n      swap1\n      pop\n        /* \"#utility.yul\":4721:4900   */\n      swap3\n      swap2\n      pop\n      pop\n      jump\t// out\n        /* \"#utility.yul\":4906:5085   */\n    tag_413:\n        /* \"#utility.yul\":4975:4985   */\n      0x00\n        /* \"#utility.yul\":4996:5042   */\n      tag_415\n        /* \"#utility.yul\":5038:5041   */\n      dup4\n        /* \"#utility.yul\":5030:5036   */\n      dup4\n        /* \"#utility.yul\":4996:5042   */\n      tag_416\n      jump\t// in\n    tag_415:\n        /* \"#utility.yul\":5074:5078   */\n      0x20\n        /* \"#utility.yul\":5069:5072   */\n      dup4\n        /* \"#utility.yul\":5065:5079   */\n      add\n        /* \"#utility.yul\":5051:5079   */\n      swap1\n      pop\n        /* \"#utility.yul\":4906:5085   */\n      swap3\n      swap2\n      pop\n      pop\n      jump\t// out\n        /* \"#utility.yul\":5091:5199   */\n    tag_412:\n        /* \"#utility.yul\":5168:5192   */\n      tag_418\n        /* \"#utility.yul\":5186:5191   */\n      dup2\n        /* \"#utility.yul\":5168:5192   */\n      tag_419\n      jump\t// in\n    tag_418:\n        /* \"#utility.yul\":5163:5166   */\n      dup3\n        /* \"#utility.yul\":5156:5193   */\n      mstore\n        /* \"#utility.yul\":5091:5199   */\n      pop\n      pop\n      jump\t// out\n        /* \"#utility.yul\":5205:5323   */\n    tag_420:\n        /* \"#utility.yul\":5292:5316   */\n      tag_422\n        /* \"#utility.yul\":5310:5315   */\n      dup2\n        /* \"#utility.yul\":5292:5316   */\n      tag_419\n      jump\t// in\n    tag_422:\n        /* \"#utility.yul\":5287:5290   */\n      dup3\n        /* \"#utility.yul\":5280:5317   */\n      mstore\n        /* \"#utility.yul\":5205:5323   */\n      pop\n      pop\n      jump\t// out\n        /* \"#utility.yul\":5359:6091   */\n    tag_423:\n        /* \"#utility.yul\":5478:5481   */\n      0x00\n        /* \"#utility.yul\":5507:5561   */\n      tag_425\n        /* \"#utility.yul\":5555:5560   */\n      dup3\n        /* \"#utility.yul\":5507:5561   */\n      tag_426\n      jump\t// in\n    tag_425:\n        /* \"#utility.yul\":5577:5663   */\n      tag_427\n        /* \"#utility.yul\":5656:5662   */\n      dup2\n        /* \"#utility.yul\":5651:5654   */\n      dup6\n        /* \"#utility.yul\":5577:5663   */\n      tag_428\n      jump\t// in\n    tag_427:\n        /* \"#utility.yul\":5570:5663   */\n      swap4\n      pop\n        /* \"#utility.yul\":5687:5743   */\n      tag_429\n        /* \"#utility.yul\":5737:5742   */\n      dup4\n        /* \"#utility.yul\":5687:5743   */\n      tag_430\n      jump\t// in\n    tag_429:\n        /* \"#utility.yul\":5766:5773   */\n      dup1\n        /* \"#utility.yul\":5797:5798   */\n      0x00\n        /* \"#utility.yul\":5782:6066   */\n    tag_431:\n        /* \"#utility.yul\":5807:5813   */\n      dup4\n        /* \"#utility.yul\":5804:5805   */\n      dup2\n        /* \"#utility.yul\":5801:5814   */\n      lt\n        /* \"#utility.yul\":5782:6066   */\n      iszero\n      tag_433\n      jumpi\n        /* \"#utility.yul\":5883:5889   */\n      dup2\n        /* \"#utility.yul\":5877:5890   */\n      mload\n        /* \"#utility.yul\":5910:5973   */\n      tag_434\n        /* \"#utility.yul\":5969:5972   */\n      dup9\n        /* \"#utility.yul\":5954:5967   */\n      dup3\n        /* \"#utility.yul\":5910:5973   */\n      tag_409\n      jump\t// in\n    tag_434:\n        /* \"#utility.yul\":5903:5973   */\n      swap8\n      pop\n        /* \"#utility.yul\":5996:6056   */\n      tag_435\n        /* \"#utility.yul\":6049:6055   */\n      dup4\n        /* \"#utility.yul\":5996:6056   */\n      tag_436\n      jump\t// in\n    tag_435:\n        /* \"#utility.yul\":5986:6056   */\n      swap3\n      pop\n        /* \"#utility.yul\":5842:6066   */\n      pop\n        /* \"#utility.yul\":5829:5830   */\n      0x01\n        /* \"#utility.yul\":5826:5827   */\n      dup2\n        /* \"#utility.yul\":5822:5831   */\n      add\n        /* \"#utility.yul\":5817:5831   */\n      swap1\n      pop\n        /* \"#utility.yul\":5782:6066   */\n      jump(tag_431)\n    tag_433:\n        /* \"#utility.yul\":5786:5800   */\n      pop\n        /* \"#utility.yul\":6082:6085   */\n      dup6\n        /* \"#utility.yul\":6075:6085   */\n      swap4\n      pop\n        /* \"#utility.yul\":5483:6091   */\n      pop\n      pop\n      pop\n        /* \"#utility.yul\":5359:6091   */\n      swap3\n      swap2\n      pop\n      pop\n      jump\t// out\n        /* \"#utility.yul\":6127:6859   */\n    tag_437:\n        /* \"#utility.yul\":6246:6249   */\n      0x00\n        /* \"#utility.yul\":6275:6329   */\n      tag_439\n        /* \"#utility.yul\":6323:6328   */\n      dup3\n        /* \"#utility.yul\":6275:6329   */\n      tag_440\n      jump\t// in\n    tag_439:\n        /* \"#utility.yul\":6345:6431   */\n      tag_441\n        /* \"#utility.yul\":6424:6430   */\n      dup2\n        /* \"#utility.yul\":6419:6422   */\n      dup6\n        /* \"#utility.yul\":6345:6431   */\n      tag_442\n      jump\t// in\n    tag_441:\n        /* \"#utility.yul\":6338:6431   */\n      swap4\n      pop\n        /* \"#utility.yul\":6455:6511   */\n      tag_443\n        /* \"#utility.yul\":6505:6510   */\n      dup4\n        /* \"#utility.yul\":6455:6511   */\n      tag_444\n      jump\t// in\n    tag_443:\n        /* \"#utility.yul\":6534:6541   */\n      dup1\n        /* \"#utility.yul\":6565:6566   */\n      0x00\n        /* \"#utility.yul\":6550:6834   */\n    tag_445:\n        /* \"#utility.yul\":6575:6581   */\n      dup4\n        /* \"#utility.yul\":6572:6573   */\n      dup2\n        /* \"#utility.yul\":6569:6582   */\n      lt\n        /* \"#utility.yul\":6550:6834   */\n      iszero\n      tag_447\n      jumpi\n        /* \"#utility.yul\":6651:6657   */\n      dup2\n        /* \"#utility.yul\":6645:6658   */\n      mload\n        /* \"#utility.yul\":6678:6741   */\n      tag_448\n        /* \"#utility.yul\":6737:6740   */\n      dup9\n        /* \"#utility.yul\":6722:6735   */\n      dup3\n        /* \"#utility.yul\":6678:6741   */\n      tag_413\n      jump\t// in\n    tag_448:\n        /* \"#utility.yul\":6671:6741   */\n      swap8\n      pop\n        /* \"#utility.yul\":6764:6824   */\n      tag_449\n        /* \"#utility.yul\":6817:6823   */\n      dup4\n        /* \"#utility.yul\":6764:6824   */\n      tag_450\n      jump\t// in\n    tag_449:\n        /* \"#utility.yul\":6754:6824   */\n      swap3\n      pop\n        /* \"#utility.yul\":6610:6834   */\n      pop\n        /* \"#utility.yul\":6597:6598   */\n      0x01\n        /* \"#utility.yul\":6594:6595   */\n      dup2\n        /* \"#utility.yul\":6590:6599   */\n      add\n        /* \"#utility.yul\":6585:6599   */\n      swap1\n      pop\n        /* \"#utility.yul\":6550:6834   */\n      jump(tag_445)\n    tag_447:\n        /* \"#utility.yul\":6554:6568   */\n      pop\n        /* \"#utility.yul\":6850:6853   */\n      dup6\n        /* \"#utility.yul\":6843:6853   */\n      swap4\n      pop\n        /* \"#utility.yul\":6251:6859   */\n      pop\n      pop\n      pop\n        /* \"#utility.yul\":6127:6859   */\n      swap3\n      swap2\n      pop\n      pop\n      jump\t// out\n        /* \"#utility.yul\":6865:6974   */\n    tag_451:\n        /* \"#utility.yul\":6946:6967   */\n      tag_453\n        /* \"#utility.yul\":6961:6966   */\n      dup2\n        /* \"#utility.yul\":6946:6967   */\n      tag_454\n      jump\t// in\n    tag_453:\n        /* \"#utility.yul\":6941:6944   */\n      dup3\n        /* \"#utility.yul\":6934:6968   */\n      mstore\n        /* \"#utility.yul\":6865:6974   */\n      pop\n      pop\n      jump\t// out\n        /* \"#utility.yul\":6980:7088   */\n    tag_416:\n        /* \"#utility.yul\":7057:7081   */\n      tag_456\n        /* \"#utility.yul\":7075:7080   */\n      dup2\n        /* \"#utility.yul\":7057:7081   */\n      tag_457\n      jump\t// in\n    tag_456:\n        /* \"#utility.yul\":7052:7055   */\n      dup3\n        /* \"#utility.yul\":7045:7082   */\n      mstore\n        /* \"#utility.yul\":6980:7088   */\n      pop\n      pop\n      jump\t// out\n        /* \"#utility.yul\":7094:7212   */\n    tag_458:\n        /* \"#utility.yul\":7181:7205   */\n      tag_460\n        /* \"#utility.yul\":7199:7204   */\n      dup2\n        /* \"#utility.yul\":7181:7205   */\n      tag_457\n      jump\t// in\n    tag_460:\n        /* \"#utility.yul\":7176:7179   */\n      dup3\n        /* \"#utility.yul\":7169:7206   */\n      mstore\n        /* \"#utility.yul\":7094:7212   */\n      pop\n      pop\n      jump\t// out\n        /* \"#utility.yul\":7218:7591   */\n    tag_461:\n        /* \"#utility.yul\":7322:7325   */\n      0x00\n        /* \"#utility.yul\":7350:7388   */\n      tag_463\n        /* \"#utility.yul\":7382:7387   */\n      dup3\n        /* \"#utility.yul\":7350:7388   */\n      tag_464\n      jump\t// in\n    tag_463:\n        /* \"#utility.yul\":7404:7492   */\n      tag_465\n        /* \"#utility.yul\":7485:7491   */\n      dup2\n        /* \"#utility.yul\":7480:7483   */\n      dup6\n        /* \"#utility.yul\":7404:7492   */\n      tag_466\n      jump\t// in\n    tag_465:\n        /* \"#utility.yul\":7397:7492   */\n      swap4\n      pop\n        /* \"#utility.yul\":7501:7553   */\n      tag_467\n        /* \"#utility.yul\":7546:7552   */\n      dup2\n        /* \"#utility.yul\":7541:7544   */\n      dup6\n        /* \"#utility.yul\":7534:7538   */\n      0x20\n        /* \"#utility.yul\":7527:7532   */\n      dup7\n        /* \"#utility.yul\":7523:7539   */\n      add\n        /* \"#utility.yul\":7501:7553   */\n      tag_468\n      jump\t// in\n    tag_467:\n        /* \"#utility.yul\":7578:7584   */\n      dup1\n        /* \"#utility.yul\":7573:7576   */\n      dup5\n        /* \"#utility.yul\":7569:7585   */\n      add\n        /* \"#utility.yul\":7562:7585   */\n      swap2\n      pop\n        /* \"#utility.yul\":7326:7591   */\n      pop\n        /* \"#utility.yul\":7218:7591   */\n      swap3\n      swap2\n      pop\n      pop\n      jump\t// out\n        /* \"#utility.yul\":7597:7961   */\n    tag_469:\n        /* \"#utility.yul\":7685:7688   */\n      0x00\n        /* \"#utility.yul\":7713:7752   */\n      tag_471\n        /* \"#utility.yul\":7746:7751   */\n      dup3\n        /* \"#utility.yul\":7713:7752   */\n      tag_472\n      jump\t// in\n    tag_471:\n        /* \"#utility.yul\":7768:7839   */\n      tag_473\n        /* \"#utility.yul\":7832:7838   */\n      dup2\n        /* \"#utility.yul\":7827:7830   */\n      dup6\n        /* \"#utility.yul\":7768:7839   */\n      tag_474\n      jump\t// in\n    tag_473:\n        /* \"#utility.yul\":7761:7839   */\n      swap4\n      pop\n        /* \"#utility.yul\":7848:7900   */\n      tag_475\n        /* \"#utility.yul\":7893:7899   */\n      dup2\n        /* \"#utility.yul\":7888:7891   */\n      dup6\n        /* \"#utility.yul\":7881:7885   */\n      0x20\n        /* \"#utility.yul\":7874:7879   */\n      dup7\n        /* \"#utility.yul\":7870:7886   */\n      add\n        /* \"#utility.yul\":7848:7900   */\n      tag_468\n      jump\t// in\n    tag_475:\n        /* \"#utility.yul\":7925:7954   */\n      tag_476\n        /* \"#utility.yul\":7947:7953   */\n      dup2\n        /* \"#utility.yul\":7925:7954   */\n      tag_477\n      jump\t// in\n    tag_476:\n        /* \"#utility.yul\":7920:7923   */\n      dup5\n        /* \"#utility.yul\":7916:7955   */\n      add\n        /* \"#utility.yul\":7909:7955   */\n      swap2\n      pop\n        /* \"#utility.yul\":7689:7961   */\n      pop\n        /* \"#utility.yul\":7597:7961   */\n      swap3\n      swap2\n      pop\n      pop\n      jump\t// out\n        /* \"#utility.yul\":7967:8344   */\n    tag_478:\n        /* \"#utility.yul\":8073:8076   */\n      0x00\n        /* \"#utility.yul\":8101:8140   */\n      tag_480\n        /* \"#utility.yul\":8134:8139   */\n      dup3\n        /* \"#utility.yul\":8101:8140   */\n      tag_472\n      jump\t// in\n    tag_480:\n        /* \"#utility.yul\":8156:8245   */\n      tag_481\n        /* \"#utility.yul\":8238:8244   */\n      dup2\n        /* \"#utility.yul\":8233:8236   */\n      dup6\n        /* \"#utility.yul\":8156:8245   */\n      tag_482\n      jump\t// in\n    tag_481:\n        /* \"#utility.yul\":8149:8245   */\n      swap4\n      pop\n        /* \"#utility.yul\":8254:8306   */\n      tag_483\n        /* \"#utility.yul\":8299:8305   */\n      dup2\n        /* \"#utility.yul\":8294:8297   */\n      dup6\n        /* \"#utility.yul\":8287:8291   */\n      0x20\n        /* \"#utility.yul\":8280:8285   */\n      dup7\n        /* \"#utility.yul\":8276:8292   */\n      add\n        /* \"#utility.yul\":8254:8306   */\n      tag_468\n      jump\t// in\n    tag_483:\n        /* \"#utility.yul\":8331:8337   */\n      dup1\n        /* \"#utility.yul\":8326:8329   */\n      dup5\n        /* \"#utility.yul\":8322:8338   */\n      add\n        /* \"#utility.yul\":8315:8338   */\n      swap2\n      pop\n        /* \"#utility.yul\":8077:8344   */\n      pop\n        /* \"#utility.yul\":7967:8344   */\n      swap3\n      swap2\n      pop\n      pop\n      jump\t// out\n        /* \"#utility.yul\":8350:8752   */\n    tag_484:\n        /* \"#utility.yul\":8510:8513   */\n      0x00\n        /* \"#utility.yul\":8531:8616   */\n      tag_486\n        /* \"#utility.yul\":8613:8615   */\n      0x0f\n        /* \"#utility.yul\":8608:8611   */\n      dup4\n        /* \"#utility.yul\":8531:8616   */\n      tag_482\n      jump\t// in\n    tag_486:\n        /* \"#utility.yul\":8524:8616   */\n      swap2\n      pop\n        /* \"#utility.yul\":8625:8718   */\n      tag_487\n        /* \"#utility.yul\":8714:8717   */\n      dup3\n        /* \"#utility.yul\":8625:8718   */\n      tag_488\n      jump\t// in\n    tag_487:\n        /* \"#utility.yul\":8743:8745   */\n      0x0f\n        /* \"#utility.yul\":8738:8741   */\n      dup3\n        /* \"#utility.yul\":8734:8746   */\n      add\n        /* \"#utility.yul\":8727:8746   */\n      swap1\n      pop\n        /* \"#utility.yul\":8350:8752   */\n      swap2\n      swap1\n      pop\n      jump\t// out\n        /* \"#utility.yul\":8758:9124   */\n    tag_489:\n        /* \"#utility.yul\":8900:8903   */\n      0x00\n        /* \"#utility.yul\":8921:8988   */\n      tag_491\n        /* \"#utility.yul\":8985:8987   */\n      0x3e\n        /* \"#utility.yul\":8980:8983   */\n      dup4\n        /* \"#utility.yul\":8921:8988   */\n      tag_474\n      jump\t// in\n    tag_491:\n        /* \"#utility.yul\":8914:8988   */\n      swap2\n      pop\n        /* \"#utility.yul\":8997:9090   */\n      tag_492\n        /* \"#utility.yul\":9086:9089   */\n      dup3\n        /* \"#utility.yul\":8997:9090   */\n      tag_493\n      jump\t// in\n    tag_492:\n        /* \"#utility.yul\":9115:9117   */\n      0x40\n        /* \"#utility.yul\":9110:9113   */\n      dup3\n        /* \"#utility.yul\":9106:9118   */\n      add\n        /* \"#utility.yul\":9099:9118   */\n      swap1\n      pop\n        /* \"#utility.yul\":8758:9124   */\n      swap2\n      swap1\n      pop\n      jump\t// out\n        /* \"#utility.yul\":9130:9401   */\n    tag_236:\n        /* \"#utility.yul\":9260:9263   */\n      0x00\n        /* \"#utility.yul\":9282:9375   */\n      tag_495\n        /* \"#utility.yul\":9371:9374   */\n      dup3\n        /* \"#utility.yul\":9362:9368   */\n      dup5\n        /* \"#utility.yul\":9282:9375   */\n      tag_461\n      jump\t// in\n    tag_495:\n        /* \"#utility.yul\":9275:9375   */\n      swap2\n      pop\n        /* \"#utility.yul\":9392:9395   */\n      dup2\n        /* \"#utility.yul\":9385:9395   */\n      swap1\n      pop\n        /* \"#utility.yul\":9130:9401   */\n      swap3\n      swap2\n      pop\n      pop\n      jump\t// out\n        /* \"#utility.yul\":9407:9948   */\n    tag_320:\n        /* \"#utility.yul\":9640:9643   */\n      0x00\n        /* \"#utility.yul\":9662:9810   */\n      tag_497\n        /* \"#utility.yul\":9806:9809   */\n      dup3\n        /* \"#utility.yul\":9662:9810   */\n      tag_484\n      jump\t// in\n    tag_497:\n        /* \"#utility.yul\":9655:9810   */\n      swap2\n      pop\n        /* \"#utility.yul\":9827:9922   */\n      tag_498\n        /* \"#utility.yul\":9918:9921   */\n      dup3\n        /* \"#utility.yul\":9909:9915   */\n      dup5\n        /* \"#utility.yul\":9827:9922   */\n      tag_478\n      jump\t// in\n    tag_498:\n        /* \"#utility.yul\":9820:9922   */\n      swap2\n      pop\n        /* \"#utility.yul\":9939:9942   */\n      dup2\n        /* \"#utility.yul\":9932:9942   */\n      swap1\n      pop\n        /* \"#utility.yul\":9407:9948   */\n      swap3\n      swap2\n      pop\n      pop\n      jump\t// out\n        /* \"#utility.yul\":9954:10176   */\n    tag_33:\n        /* \"#utility.yul\":10047:10051   */\n      0x00\n        /* \"#utility.yul\":10085:10087   */\n      0x20\n        /* \"#utility.yul\":10074:10083   */\n      dup3\n        /* \"#utility.yul\":10070:10088   */\n      add\n        /* \"#utility.yul\":10062:10088   */\n      swap1\n      pop\n        /* \"#utility.yul\":10098:10169   */\n      tag_500\n        /* \"#utility.yul\":10166:10167   */\n      0x00\n        /* \"#utility.yul\":10155:10164   */\n      dup4\n        /* \"#utility.yul\":10151:10168   */\n      add\n        /* \"#utility.yul\":10142:10148   */\n      dup5\n        /* \"#utility.yul\":10098:10169   */\n      tag_420\n      jump\t// in\n    tag_500:\n        /* \"#utility.yul\":9954:10176   */\n      swap3\n      swap2\n      pop\n      pop\n      jump\t// out\n        /* \"#utility.yul\":10182:10555   */\n    tag_47:\n        /* \"#utility.yul\":10325:10329   */\n      0x00\n        /* \"#utility.yul\":10363:10365   */\n      0x20\n        /* \"#utility.yul\":10352:10361   */\n      dup3\n        /* \"#utility.yul\":10348:10366   */\n      add\n        /* \"#utility.yul\":10340:10366   */\n      swap1\n      pop\n        /* \"#utility.yul\":10412:10421   */\n      dup2\n        /* \"#utility.yul\":10406:10410   */\n      dup2\n        /* \"#utility.yul\":10402:10422   */\n      sub\n        /* \"#utility.yul\":10398:10399   */\n      0x00\n        /* \"#utility.yul\":10387:10396   */\n      dup4\n        /* \"#utility.yul\":10383:10400   */\n      add\n        /* \"#utility.yul\":10376:10423   */\n      mstore\n        /* \"#utility.yul\":10440:10548   */\n      tag_502\n        /* \"#utility.yul\":10543:10547   */\n      dup2\n        /* \"#utility.yul\":10534:10540   */\n      dup5\n        /* \"#utility.yul\":10440:10548   */\n      tag_423\n      jump\t// in\n    tag_502:\n        /* \"#utility.yul\":10432:10548   */\n      swap1\n      pop\n        /* \"#utility.yul\":10182:10555   */\n      swap3\n      swap2\n      pop\n      pop\n      jump\t// out\n        /* \"#utility.yul\":10561:10934   */\n    tag_41:\n        /* \"#utility.yul\":10704:10708   */\n      0x00\n        /* \"#utility.yul\":10742:10744   */\n      0x20\n        /* \"#utility.yul\":10731:10740   */\n      dup3\n        /* \"#utility.yul\":10727:10745   */\n      add\n        /* \"#utility.yul\":10719:10745   */\n      swap1\n      pop\n        /* \"#utility.yul\":10791:10800   */\n      dup2\n        /* \"#utility.yul\":10785:10789   */\n      dup2\n        /* \"#utility.yul\":10781:10801   */\n      sub\n        /* \"#utility.yul\":10777:10778   */\n      0x00\n        /* \"#utility.yul\":10766:10775   */\n      dup4\n        /* \"#utility.yul\":10762:10779   */\n      add\n        /* \"#utility.yul\":10755:10802   */\n      mstore\n        /* \"#utility.yul\":10819:10927   */\n      tag_504\n        /* \"#utility.yul\":10922:10926   */\n      dup2\n        /* \"#utility.yul\":10913:10919   */\n      dup5\n        /* \"#utility.yul\":10819:10927   */\n      tag_437\n      jump\t// in\n    tag_504:\n        /* \"#utility.yul\":10811:10927   */\n      swap1\n      pop\n        /* \"#utility.yul\":10561:10934   */\n      swap3\n      swap2\n      pop\n      pop\n      jump\t// out\n        /* \"#utility.yul\":10940:11150   */\n    tag_70:\n        /* \"#utility.yul\":11027:11031   */\n      0x00\n        /* \"#utility.yul\":11065:11067   */\n      0x20\n        /* \"#utility.yul\":11054:11063   */\n      dup3\n        /* \"#utility.yul\":11050:11068   */\n      add\n        /* \"#utility.yul\":11042:11068   */\n      swap1\n      pop\n        /* \"#utility.yul\":11078:11143   */\n      tag_506\n        /* \"#utility.yul\":11140:11141   */\n      0x00\n        /* \"#utility.yul\":11129:11138   */\n      dup4\n        /* \"#utility.yul\":11125:11142   */\n      add\n        /* \"#utility.yul\":11116:11122   */\n      dup5\n        /* \"#utility.yul\":11078:11143   */\n      tag_451\n      jump\t// in\n    tag_506:\n        /* \"#utility.yul\":10940:11150   */\n      swap3\n      swap2\n      pop\n      pop\n      jump\t// out\n        /* \"#utility.yul\":11156:11488   */\n    tag_76:\n        /* \"#utility.yul\":11277:11281   */\n      0x00\n        /* \"#utility.yul\":11315:11317   */\n      0x40\n        /* \"#utility.yul\":11304:11313   */\n      dup3\n        /* \"#utility.yul\":11300:11318   */\n      add\n        /* \"#utility.yul\":11292:11318   */\n      swap1\n      pop\n        /* \"#utility.yul\":11328:11399   */\n      tag_508\n        /* \"#utility.yul\":11396:11397   */\n      0x00\n        /* \"#utility.yul\":11385:11394   */\n      dup4\n        /* \"#utility.yul\":11381:11398   */\n      add\n        /* \"#utility.yul\":11372:11378   */\n      dup6\n        /* \"#utility.yul\":11328:11399   */\n      tag_458\n      jump\t// in\n    tag_508:\n        /* \"#utility.yul\":11409:11481   */\n      tag_509\n        /* \"#utility.yul\":11477:11479   */\n      0x20\n        /* \"#utility.yul\":11466:11475   */\n      dup4\n        /* \"#utility.yul\":11462:11480   */\n      add\n        /* \"#utility.yul\":11453:11459   */\n      dup5\n        /* \"#utility.yul\":11409:11481   */\n      tag_420\n      jump\t// in\n    tag_509:\n        /* \"#utility.yul\":11156:11488   */\n      swap4\n      swap3\n      pop\n      pop\n      pop\n      jump\t// out\n        /* \"#utility.yul\":11494:11807   */\n    tag_29:\n        /* \"#utility.yul\":11607:11611   */\n      0x00\n        /* \"#utility.yul\":11645:11647   */\n      0x20\n        /* \"#utility.yul\":11634:11643   */\n      dup3\n        /* \"#utility.yul\":11630:11648   */\n      add\n        /* \"#utility.yul\":11622:11648   */\n      swap1\n      pop\n        /* \"#utility.yul\":11694:11703   */\n      dup2\n        /* \"#utility.yul\":11688:11692   */\n      dup2\n        /* \"#utility.yul\":11684:11704   */\n      sub\n        /* \"#utility.yul\":11680:11681   */\n      0x00\n        /* \"#utility.yul\":11669:11678   */\n      dup4\n        /* \"#utility.yul\":11665:11682   */\n      add\n        /* \"#utility.yul\":11658:11705   */\n      mstore\n        /* \"#utility.yul\":11722:11800   */\n      tag_511\n        /* \"#utility.yul\":11795:11799   */\n      dup2\n        /* \"#utility.yul\":11786:11792   */\n      dup5\n        /* \"#utility.yul\":11722:11800   */\n      tag_469\n      jump\t// in\n    tag_511:\n        /* \"#utility.yul\":11714:11800   */\n      swap1\n      pop\n        /* \"#utility.yul\":11494:11807   */\n      swap3\n      swap2\n      pop\n      pop\n      jump\t// out\n        /* \"#utility.yul\":11813:12232   */\n    tag_84:\n        /* \"#utility.yul\":11979:11983   */\n      0x00\n        /* \"#utility.yul\":12017:12019   */\n      0x20\n        /* \"#utility.yul\":12006:12015   */\n      dup3\n        /* \"#utility.yul\":12002:12020   */\n      add\n        /* \"#utility.yul\":11994:12020   */\n      swap1\n      pop\n        /* \"#utility.yul\":12066:12075   */\n      dup2\n        /* \"#utility.yul\":12060:12064   */\n      dup2\n        /* \"#utility.yul\":12056:12076   */\n      sub\n        /* \"#utility.yul\":12052:12053   */\n      0x00\n        /* \"#utility.yul\":12041:12050   */\n      dup4\n        /* \"#utility.yul\":12037:12054   */\n      add\n        /* \"#utility.yul\":12030:12077   */\n      mstore\n        /* \"#utility.yul\":12094:12225   */\n      tag_513\n        /* \"#utility.yul\":12220:12224   */\n      dup2\n        /* \"#utility.yul\":12094:12225   */\n      tag_489\n      jump\t// in\n    tag_513:\n        /* \"#utility.yul\":12086:12225   */\n      swap1\n      pop\n        /* \"#utility.yul\":11813:12232   */\n      swap2\n      swap1\n      pop\n      jump\t// out\n        /* \"#utility.yul\":12238:12367   */\n    tag_344:\n        /* \"#utility.yul\":12272:12278   */\n      0x00\n        /* \"#utility.yul\":12299:12319   */\n      tag_515\n      tag_516\n      jump\t// in\n    tag_515:\n        /* \"#utility.yul\":12289:12319   */\n      swap1\n      pop\n        /* \"#utility.yul\":12328:12361   */\n      tag_517\n        /* \"#utility.yul\":12356:12360   */\n      dup3\n        /* \"#utility.yul\":12348:12354   */\n      dup3\n        /* \"#utility.yul\":12328:12361   */\n      tag_518\n      jump\t// in\n    tag_517:\n        /* \"#utility.yul\":12238:12367   */\n      swap2\n      swap1\n      pop\n      jump\t// out\n        /* \"#utility.yul\":12373:12448   */\n    tag_516:\n        /* \"#utility.yul\":12406:12412   */\n      0x00\n        /* \"#utility.yul\":12439:12441   */\n      0x40\n        /* \"#utility.yul\":12433:12442   */\n      mload\n        /* \"#utility.yul\":12423:12442   */\n      swap1\n      pop\n        /* \"#utility.yul\":12373:12448   */\n      swap1\n      jump\t// out\n        /* \"#utility.yul\":12454:12761   */\n    tag_343:\n        /* \"#utility.yul\":12515:12519   */\n      0x00\n        /* \"#utility.yul\":12605:12623   */\n      0xffffffffffffffff\n        /* \"#utility.yul\":12597:12603   */\n      dup3\n        /* \"#utility.yul\":12594:12624   */\n      gt\n        /* \"#utility.yul\":12591:12647   */\n      iszero\n      tag_521\n      jumpi\n        /* \"#utility.yul\":12627:12645   */\n      tag_522\n      tag_523\n      jump\t// in\n    tag_522:\n        /* \"#utility.yul\":12591:12647   */\n    tag_521:\n        /* \"#utility.yul\":12665:12694   */\n      tag_524\n        /* \"#utility.yul\":12687:12693   */\n      dup3\n        /* \"#utility.yul\":12665:12694   */\n      tag_477\n      jump\t// in\n    tag_524:\n        /* \"#utility.yul\":12657:12694   */\n      swap1\n      pop\n        /* \"#utility.yul\":12749:12753   */\n      0x20\n        /* \"#utility.yul\":12743:12747   */\n      dup2\n        /* \"#utility.yul\":12739:12754   */\n      add\n        /* \"#utility.yul\":12731:12754   */\n      swap1\n      pop\n        /* \"#utility.yul\":12454:12761   */\n      swap2\n      swap1\n      pop\n      jump\t// out\n        /* \"#utility.yul\":12767:12899   */\n    tag_430:\n        /* \"#utility.yul\":12834:12838   */\n      0x00\n        /* \"#utility.yul\":12857:12860   */\n      dup2\n        /* \"#utility.yul\":12849:12860   */\n      swap1\n      pop\n        /* \"#utility.yul\":12887:12891   */\n      0x20\n        /* \"#utility.yul\":12882:12885   */\n      dup3\n        /* \"#utility.yul\":12878:12892   */\n      add\n        /* \"#utility.yul\":12870:12892   */\n      swap1\n      pop\n        /* \"#utility.yul\":12767:12899   */\n      swap2\n      swap1\n      pop\n      jump\t// out\n        /* \"#utility.yul\":12905:13037   */\n    tag_444:\n        /* \"#utility.yul\":12972:12976   */\n      0x00\n        /* \"#utility.yul\":12995:12998   */\n      dup2\n        /* \"#utility.yul\":12987:12998   */\n      swap1\n      pop\n        /* \"#utility.yul\":13025:13029   */\n      0x20\n        /* \"#utility.yul\":13020:13023   */\n      dup3\n        /* \"#utility.yul\":13016:13030   */\n      add\n        /* \"#utility.yul\":13008:13030   */\n      swap1\n      pop\n        /* \"#utility.yul\":12905:13037   */\n      swap2\n      swap1\n      pop\n      jump\t// out\n        /* \"#utility.yul\":13043:13157   */\n    tag_426:\n        /* \"#utility.yul\":13110:13116   */\n      0x00\n        /* \"#utility.yul\":13144:13149   */\n      dup2\n        /* \"#utility.yul\":13138:13150   */\n      mload\n        /* \"#utility.yul\":13128:13150   */\n      swap1\n      pop\n        /* \"#utility.yul\":13043:13157   */\n      swap2\n      swap1\n      pop\n      jump\t// out\n        /* \"#utility.yul\":13163:13277   */\n    tag_440:\n        /* \"#utility.yul\":13230:13236   */\n      0x00\n        /* \"#utility.yul\":13264:13269   */\n      dup2\n        /* \"#utility.yul\":13258:13270   */\n      mload\n        /* \"#utility.yul\":13248:13270   */\n      swap1\n      pop\n        /* \"#utility.yul\":13163:13277   */\n      swap2\n      swap1\n      pop\n      jump\t// out\n        /* \"#utility.yul\":13283:13381   */\n    tag_464:\n        /* \"#utility.yul\":13334:13340   */\n      0x00\n        /* \"#utility.yul\":13368:13373   */\n      dup2\n        /* \"#utility.yul\":13362:13374   */\n      mload\n        /* \"#utility.yul\":13352:13374   */\n      swap1\n      pop\n        /* \"#utility.yul\":13283:13381   */\n      swap2\n      swap1\n      pop\n      jump\t// out\n        /* \"#utility.yul\":13387:13486   */\n    tag_472:\n        /* \"#utility.yul\":13439:13445   */\n      0x00\n        /* \"#utility.yul\":13473:13478   */\n      dup2\n        /* \"#utility.yul\":13467:13479   */\n      mload\n        /* \"#utility.yul\":13457:13479   */\n      swap1\n      pop\n        /* \"#utility.yul\":13387:13486   */\n      swap2\n      swap1\n      pop\n      jump\t// out\n        /* \"#utility.yul\":13492:13605   */\n    tag_436:\n        /* \"#utility.yul\":13562:13566   */\n      0x00\n        /* \"#utility.yul\":13594:13598   */\n      0x20\n        /* \"#utility.yul\":13589:13592   */\n      dup3\n        /* \"#utility.yul\":13585:13599   */\n      add\n        /* \"#utility.yul\":13577:13599   */\n      swap1\n      pop\n        /* \"#utility.yul\":13492:13605   */\n      swap2\n      swap1\n      pop\n      jump\t// out\n        /* \"#utility.yul\":13611:13724   */\n    tag_450:\n        /* \"#utility.yul\":13681:13685   */\n      0x00\n        /* \"#utility.yul\":13713:13717   */\n      0x20\n        /* \"#utility.yul\":13708:13711   */\n      dup3\n        /* \"#utility.yul\":13704:13718   */\n      add\n        /* \"#utility.yul\":13696:13718   */\n      swap1\n      pop\n        /* \"#utility.yul\":13611:13724   */\n      swap2\n      swap1\n      pop\n      jump\t// out\n        /* \"#utility.yul\":13730:13914   */\n    tag_428:\n        /* \"#utility.yul\":13829:13840   */\n      0x00\n        /* \"#utility.yul\":13863:13869   */\n      dup3\n        /* \"#utility.yul\":13858:13861   */\n      dup3\n        /* \"#utility.yul\":13851:13870   */\n      mstore\n        /* \"#utility.yul\":13903:13907   */\n      0x20\n        /* \"#utility.yul\":13898:13901   */\n      dup3\n        /* \"#utility.yul\":13894:13908   */\n      add\n        /* \"#utility.yul\":13879:13908   */\n      swap1\n      pop\n        /* \"#utility.yul\":13730:13914   */\n      swap3\n      swap2\n      pop\n      pop\n      jump\t// out\n        /* \"#utility.yul\":13920:14104   */\n    tag_442:\n        /* \"#utility.yul\":14019:14030   */\n      0x00\n        /* \"#utility.yul\":14053:14059   */\n      dup3\n        /* \"#utility.yul\":14048:14051   */\n      dup3\n        /* \"#utility.yul\":14041:14060   */\n      mstore\n        /* \"#utility.yul\":14093:14097   */\n      0x20\n        /* \"#utility.yul\":14088:14091   */\n      dup3\n        /* \"#utility.yul\":14084:14098   */\n      add\n        /* \"#utility.yul\":14069:14098   */\n      swap1\n      pop\n        /* \"#utility.yul\":13920:14104   */\n      swap3\n      swap2\n      pop\n      pop\n      jump\t// out\n        /* \"#utility.yul\":14110:14257   */\n    tag_466:\n        /* \"#utility.yul\":14211:14222   */\n      0x00\n        /* \"#utility.yul\":14248:14251   */\n      dup2\n        /* \"#utility.yul\":14233:14251   */\n      swap1\n      pop\n        /* \"#utility.yul\":14110:14257   */\n      swap3\n      swap2\n      pop\n      pop\n      jump\t// out\n        /* \"#utility.yul\":14263:14432   */\n    tag_474:\n        /* \"#utility.yul\":14347:14358   */\n      0x00\n        /* \"#utility.yul\":14381:14387   */\n      dup3\n        /* \"#utility.yul\":14376:14379   */\n      dup3\n        /* \"#utility.yul\":14369:14388   */\n      mstore\n        /* \"#utility.yul\":14421:14425   */\n      0x20\n        /* \"#utility.yul\":14416:14419   */\n      dup3\n        /* \"#utility.yul\":14412:14426   */\n      add\n        /* \"#utility.yul\":14397:14426   */\n      swap1\n      pop\n        /* \"#utility.yul\":14263:14432   */\n      swap3\n      swap2\n      pop\n      pop\n      jump\t// out\n        /* \"#utility.yul\":14438:14586   */\n    tag_482:\n        /* \"#utility.yul\":14540:14551   */\n      0x00\n        /* \"#utility.yul\":14577:14580   */\n      dup2\n        /* \"#utility.yul\":14562:14580   */\n      swap1\n      pop\n        /* \"#utility.yul\":14438:14586   */\n      swap3\n      swap2\n      pop\n      pop\n      jump\t// out\n        /* \"#utility.yul\":14592:14688   */\n    tag_419:\n        /* \"#utility.yul\":14629:14636   */\n      0x00\n        /* \"#utility.yul\":14658:14682   */\n      tag_539\n        /* \"#utility.yul\":14676:14681   */\n      dup3\n        /* \"#utility.yul\":14658:14682   */\n      tag_540\n      jump\t// in\n    tag_539:\n        /* \"#utility.yul\":14647:14682   */\n      swap1\n      pop\n        /* \"#utility.yul\":14592:14688   */\n      swap2\n      swap1\n      pop\n      jump\t// out\n        /* \"#utility.yul\":14694:14784   */\n    tag_454:\n        /* \"#utility.yul\":14728:14735   */\n      0x00\n        /* \"#utility.yul\":14771:14776   */\n      dup2\n        /* \"#utility.yul\":14764:14777   */\n      iszero\n        /* \"#utility.yul\":14757:14778   */\n      iszero\n        /* \"#utility.yul\":14746:14778   */\n      swap1\n      pop\n        /* \"#utility.yul\":14694:14784   */\n      swap2\n      swap1\n      pop\n      jump\t// out\n        /* \"#utility.yul\":14790:14867   */\n    tag_457:\n        /* \"#utility.yul\":14827:14834   */\n      0x00\n        /* \"#utility.yul\":14856:14861   */\n      dup2\n        /* \"#utility.yul\":14845:14861   */\n      swap1\n      pop\n        /* \"#utility.yul\":14790:14867   */\n      swap2\n      swap1\n      pop\n      jump\t// out\n        /* \"#utility.yul\":14873:14999   */\n    tag_540:\n        /* \"#utility.yul\":14910:14917   */\n      0x00\n        /* \"#utility.yul\":14950:14992   */\n      0xffffffffffffffffffffffffffffffffffffffff\n        /* \"#utility.yul\":14943:14948   */\n      dup3\n        /* \"#utility.yul\":14939:14993   */\n      and\n        /* \"#utility.yul\":14928:14993   */\n      swap1\n      pop\n        /* \"#utility.yul\":14873:14999   */\n      swap2\n      swap1\n      pop\n      jump\t// out\n        /* \"#utility.yul\":15005:15082   */\n    tag_544:\n        /* \"#utility.yul\":15042:15049   */\n      0x00\n        /* \"#utility.yul\":15071:15076   */\n      dup2\n        /* \"#utility.yul\":15060:15076   */\n      swap1\n      pop\n        /* \"#utility.yul\":15005:15082   */\n      swap2\n      swap1\n      pop\n      jump\t// out\n        /* \"#utility.yul\":15088:15242   */\n    tag_349:\n        /* \"#utility.yul\":15172:15178   */\n      dup3\n        /* \"#utility.yul\":15167:15170   */\n      dup2\n        /* \"#utility.yul\":15162:15165   */\n      dup4\n        /* \"#utility.yul\":15149:15179   */\n      calldatacopy\n        /* \"#utility.yul\":15234:15235   */\n      0x00\n        /* \"#utility.yul\":15225:15231   */\n      dup4\n        /* \"#utility.yul\":15220:15223   */\n      dup4\n        /* \"#utility.yul\":15216:15232   */\n      add\n        /* \"#utility.yul\":15209:15236   */\n      mstore\n        /* \"#utility.yul\":15088:15242   */\n      pop\n      pop\n      pop\n      jump\t// out\n        /* \"#utility.yul\":15248:15555   */\n    tag_468:\n        /* \"#utility.yul\":15316:15317   */\n      0x00\n        /* \"#utility.yul\":15326:15439   */\n    tag_548:\n        /* \"#utility.yul\":15340:15346   */\n      dup4\n        /* \"#utility.yul\":15337:15338   */\n      dup2\n        /* \"#utility.yul\":15334:15347   */\n      lt\n        /* \"#utility.yul\":15326:15439   */\n      iszero\n      tag_550\n      jumpi\n        /* \"#utility.yul\":15425:15426   */\n      dup1\n        /* \"#utility.yul\":15420:15423   */\n      dup3\n        /* \"#utility.yul\":15416:15427   */\n      add\n        /* \"#utility.yul\":15410:15428   */\n      mload\n        /* \"#utility.yul\":15406:15407   */\n      dup2\n        /* \"#utility.yul\":15401:15404   */\n      dup5\n        /* \"#utility.yul\":15397:15408   */\n      add\n        /* \"#utility.yul\":15390:15429   */\n      mstore\n        /* \"#utility.yul\":15362:15364   */\n      0x20\n        /* \"#utility.yul\":15359:15360   */\n      dup2\n        /* \"#utility.yul\":15355:15365   */\n      add\n        /* \"#utility.yul\":15350:15365   */\n      swap1\n      pop\n        /* \"#utility.yul\":15326:15439   */\n      jump(tag_548)\n    tag_550:\n        /* \"#utility.yul\":15457:15463   */\n      dup4\n        /* \"#utility.yul\":15454:15455   */\n      dup2\n        /* \"#utility.yul\":15451:15464   */\n      gt\n        /* \"#utility.yul\":15448:15549   */\n      iszero\n      tag_551\n      jumpi\n        /* \"#utility.yul\":15537:15538   */\n      0x00\n        /* \"#utility.yul\":15528:15534   */\n      dup5\n        /* \"#utility.yul\":15523:15526   */\n      dup5\n        /* \"#utility.yul\":15519:15535   */\n      add\n        /* \"#utility.yul\":15512:15539   */\n      mstore\n        /* \"#utility.yul\":15448:15549   */\n    tag_551:\n        /* \"#utility.yul\":15297:15555   */\n      pop\n        /* \"#utility.yul\":15248:15555   */\n      pop\n      pop\n      pop\n      jump\t// out\n        /* \"#utility.yul\":15561:15881   */\n    tag_102:\n        /* \"#utility.yul\":15605:15611   */\n      0x00\n        /* \"#utility.yul\":15642:15643   */\n      0x02\n        /* \"#utility.yul\":15636:15640   */\n      dup3\n        /* \"#utility.yul\":15632:15644   */\n      div\n        /* \"#utility.yul\":15622:15644   */\n      swap1\n      pop\n        /* \"#utility.yul\":15689:15690   */\n      0x01\n        /* \"#utility.yul\":15683:15687   */\n      dup3\n        /* \"#utility.yul\":15679:15691   */\n      and\n        /* \"#utility.yul\":15710:15728   */\n      dup1\n        /* \"#utility.yul\":15700:15781   */\n      tag_553\n      jumpi\n        /* \"#utility.yul\":15766:15770   */\n      0x7f\n        /* \"#utility.yul\":15758:15764   */\n      dup3\n        /* \"#utility.yul\":15754:15771   */\n      and\n        /* \"#utility.yul\":15744:15771   */\n      swap2\n      pop\n        /* \"#utility.yul\":15700:15781   */\n    tag_553:\n        /* \"#utility.yul\":15828:15830   */\n      0x20\n        /* \"#utility.yul\":15820:15826   */\n      dup3\n        /* \"#utility.yul\":15817:15831   */\n      lt\n        /* \"#utility.yul\":15797:15815   */\n      dup2\n        /* \"#utility.yul\":15794:15832   */\n      eq\n        /* \"#utility.yul\":15791:15875   */\n      iszero\n      tag_554\n      jumpi\n        /* \"#utility.yul\":15847:15865   */\n      tag_555\n      tag_556\n      jump\t// in\n    tag_555:\n        /* \"#utility.yul\":15791:15875   */\n    tag_554:\n        /* \"#utility.yul\":15612:15881   */\n      pop\n        /* \"#utility.yul\":15561:15881   */\n      swap2\n      swap1\n      pop\n      jump\t// out\n        /* \"#utility.yul\":15887:16168   */\n    tag_518:\n        /* \"#utility.yul\":15970:15997   */\n      tag_558\n        /* \"#utility.yul\":15992:15996   */\n      dup3\n        /* \"#utility.yul\":15970:15997   */\n      tag_477\n      jump\t// in\n    tag_558:\n        /* \"#utility.yul\":15962:15968   */\n      dup2\n        /* \"#utility.yul\":15958:15998   */\n      add\n        /* \"#utility.yul\":16100:16106   */\n      dup2\n        /* \"#utility.yul\":16088:16098   */\n      dup2\n        /* \"#utility.yul\":16085:16107   */\n      lt\n        /* \"#utility.yul\":16064:16082   */\n      0xffffffffffffffff\n        /* \"#utility.yul\":16052:16062   */\n      dup3\n        /* \"#utility.yul\":16049:16083   */\n      gt\n        /* \"#utility.yul\":16046:16108   */\n      or\n        /* \"#utility.yul\":16043:16131   */\n      iszero\n      tag_559\n      jumpi\n        /* \"#utility.yul\":16111:16129   */\n      tag_560\n      tag_523\n      jump\t// in\n    tag_560:\n        /* \"#utility.yul\":16043:16131   */\n    tag_559:\n        /* \"#utility.yul\":16151:16161   */\n      dup1\n        /* \"#utility.yul\":16147:16149   */\n      0x40\n        /* \"#utility.yul\":16140:16162   */\n      mstore\n        /* \"#utility.yul\":15930:16168   */\n      pop\n        /* \"#utility.yul\":15887:16168   */\n      pop\n      pop\n      jump\t// out\n        /* \"#utility.yul\":16174:16407   */\n    tag_250:\n        /* \"#utility.yul\":16213:16216   */\n      0x00\n        /* \"#utility.yul\":16236:16260   */\n      tag_562\n        /* \"#utility.yul\":16254:16259   */\n      dup3\n        /* \"#utility.yul\":16236:16260   */\n      tag_544\n      jump\t// in\n    tag_562:\n        /* \"#utility.yul\":16227:16260   */\n      swap2\n      pop\n        /* \"#utility.yul\":16282:16348   */\n      0xffffffffffffffffffffffffffffffffffffffffffffffffffffffffffffffff\n        /* \"#utility.yul\":16275:16280   */\n      dup3\n        /* \"#utility.yul\":16272:16349   */\n      eq\n        /* \"#utility.yul\":16269:16372   */\n      iszero\n      tag_563\n      jumpi\n        /* \"#utility.yul\":16352:16370   */\n      tag_564\n      tag_565\n      jump\t// in\n    tag_564:\n        /* \"#utility.yul\":16269:16372   */\n    tag_563:\n        /* \"#utility.yul\":16399:16400   */\n      0x01\n        /* \"#utility.yul\":16392:16397   */\n      dup3\n        /* \"#utility.yul\":16388:16401   */\n      add\n        /* \"#utility.yul\":16381:16401   */\n      swap1\n      pop\n        /* \"#utility.yul\":16174:16407   */\n      swap2\n      swap1\n      pop\n      jump\t// out\n        /* \"#utility.yul\":16413:16593   */\n    tag_565:\n        /* \"#utility.yul\":16461:16538   */\n      0x4e487b7100000000000000000000000000000000000000000000000000000000\n        /* \"#utility.yul\":16458:16459   */\n      0x00\n        /* \"#utility.yul\":16451:16539   */\n      mstore\n        /* \"#utility.yul\":16558:16562   */\n      0x11\n        /* \"#utility.yul\":16555:16556   */\n      0x04\n        /* \"#utility.yul\":16548:16563   */\n      mstore\n        /* \"#utility.yul\":16582:16586   */\n      0x24\n        /* \"#utility.yul\":16579:16580   */\n      0x00\n        /* \"#utility.yul\":16572:16587   */\n      revert\n        /* \"#utility.yul\":16599:16779   */\n    tag_556:\n        /* \"#utility.yul\":16647:16724   */\n      0x4e487b7100000000000000000000000000000000000000000000000000000000\n        /* \"#utility.yul\":16644:16645   */\n      0x00\n        /* \"#utility.yul\":16637:16725   */\n      mstore\n        /* \"#utility.yul\":16744:16748   */\n      0x22\n        /* \"#utility.yul\":16741:16742   */\n      0x04\n        /* \"#utility.yul\":16734:16749   */\n      mstore\n        /* \"#utility.yul\":16768:16772   */\n      0x24\n        /* \"#utility.yul\":16765:16766   */\n      0x00\n        /* \"#utility.yul\":16758:16773   */\n      revert\n        /* \"#utility.yul\":16785:16965   */\n    tag_269:\n        /* \"#utility.yul\":16833:16910   */\n      0x4e487b7100000000000000000000000000000000000000000000000000000000\n        /* \"#utility.yul\":16830:16831   */\n      0x00\n        /* \"#utility.yul\":16823:16911   */\n      mstore\n        /* \"#utility.yul\":16930:16934   */\n      0x32\n        /* \"#utility.yul\":16927:16928   */\n      0x04\n        /* \"#utility.yul\":16920:16935   */\n      mstore\n        /* \"#utility.yul\":16954:16958   */\n      0x24\n        /* \"#utility.yul\":16951:16952   */\n      0x00\n        /* \"#utility.yul\":16944:16959   */\n      revert\n        /* \"#utility.yul\":16971:17151   */\n    tag_523:\n        /* \"#utility.yul\":17019:17096   */\n      0x4e487b7100000000000000000000000000000000000000000000000000000000\n        /* \"#utility.yul\":17016:17017   */\n      0x00\n        /* \"#utility.yul\":17009:17097   */\n      mstore\n        /* \"#utility.yul\":17116:17120   */\n      0x41\n        /* \"#utility.yul\":17113:17114   */\n      0x04\n        /* \"#utility.yul\":17106:17121   */\n      mstore\n        /* \"#utility.yul\":17140:17144   */\n      0x24\n        /* \"#utility.yul\":17137:17138   */\n      0x00\n        /* \"#utility.yul\":17130:17145   */\n      revert\n        /* \"#utility.yul\":17157:17274   */\n    tag_366:\n        /* \"#utility.yul\":17266:17267   */\n      0x00\n        /* \"#utility.yul\":17263:17264   */\n      dup1\n        /* \"#utility.yul\":17256:17268   */\n      revert\n        /* \"#utility.yul\":17280:17397   */\n    tag_347:\n        /* \"#utility.yul\":17389:17390   */\n      0x00\n        /* \"#utility.yul\":17386:17387   */\n      dup1\n        /* \"#utility.yul\":17379:17391   */\n      revert\n        /* \"#utility.yul\":17403:17520   */\n    tag_391:\n        /* \"#utility.yul\":17512:17513   */\n      0x00\n        /* \"#utility.yul\":17509:17510   */\n      dup1\n        /* \"#utility.yul\":17502:17514   */\n      revert\n        /* \"#utility.yul\":17526:17643   */\n    tag_371:\n        /* \"#utility.yul\":17635:17636   */\n      0x00\n        /* \"#utility.yul\":17632:17633   */\n      dup1\n        /* \"#utility.yul\":17625:17637   */\n      revert\n        /* \"#utility.yul\":17649:17751   */\n    tag_477:\n        /* \"#utility.yul\":17690:17696   */\n      0x00\n        /* \"#utility.yul\":17741:17743   */\n      0x1f\n        /* \"#utility.yul\":17737:17744   */\n      not\n        /* \"#utility.yul\":17732:17734   */\n      0x1f\n        /* \"#utility.yul\":17725:17730   */\n      dup4\n        /* \"#utility.yul\":17721:17735   */\n      add\n        /* \"#utility.yul\":17717:17745   */\n      and\n        /* \"#utility.yul\":17707:17745   */\n      swap1\n      pop\n        /* \"#utility.yul\":17649:17751   */\n      swap2\n      swap1\n      pop\n      jump\t// out\n        /* \"#utility.yul\":17757:17922   */\n    tag_488:\n        /* \"#utility.yul\":17897:17914   */\n      0x416363657373436f6e74726f6c3a200000000000000000000000000000000000\n        /* \"#utility.yul\":17893:17894   */\n      0x00\n        /* \"#utility.yul\":17885:17891   */\n      dup3\n        /* \"#utility.yul\":17881:17895   */\n      add\n        /* \"#utility.yul\":17874:17915   */\n      mstore\n        /* \"#utility.yul\":17757:17922   */\n      pop\n      jump\t// out\n        /* \"#utility.yul\":17928:18177   */\n    tag_493:\n        /* \"#utility.yul\":18068:18102   */\n      0x416363657373436f6e74726f6c3a20596f752068617665206e6f207065726d69\n        /* \"#utility.yul\":18064:18065   */\n      0x00\n        /* \"#utility.yul\":18056:18062   */\n      dup3\n        /* \"#utility.yul\":18052:18066   */\n      add\n        /* \"#utility.yul\":18045:18103   */\n      mstore\n        /* \"#utility.yul\":18137:18169   */\n      0x7373696f6e20746f2061636365737320746869732066756e6374696f6e2e0000\n        /* \"#utility.yul\":18132:18134   */\n      0x20\n        /* \"#utility.yul\":18124:18130   */\n      dup3\n        /* \"#utility.yul\":18120:18135   */\n      add\n        /* \"#utility.yul\":18113:18170   */\n      mstore\n        /* \"#utility.yul\":17928:18177   */\n      pop\n      jump\t// out\n        /* \"#utility.yul\":18183:18305   */\n    tag_353:\n        /* \"#utility.yul\":18256:18280   */\n      tag_578\n        /* \"#utility.yul\":18274:18279   */\n      dup2\n        /* \"#utility.yul\":18256:18280   */\n      tag_419\n      jump\t// in\n    tag_578:\n        /* \"#utility.yul\":18249:18254   */\n      dup2\n        /* \"#utility.yul\":18246:18281   */\n      eq\n        /* \"#utility.yul\":18236:18299   */\n      tag_579\n      jumpi\n        /* \"#utility.yul\":18295:18296   */\n      0x00\n        /* \"#utility.yul\":18292:18293   */\n      dup1\n        /* \"#utility.yul\":18285:18297   */\n      revert\n        /* \"#utility.yul\":18236:18299   */\n    tag_579:\n        /* \"#utility.yul\":18183:18305   */\n      pop\n      jump\t// out\n        /* \"#utility.yul\":18311:18427   */\n    tag_357:\n        /* \"#utility.yul\":18381:18402   */\n      tag_581\n        /* \"#utility.yul\":18396:18401   */\n      dup2\n        /* \"#utility.yul\":18381:18402   */\n      tag_454\n      jump\t// in\n    tag_581:\n        /* \"#utility.yul\":18374:18379   */\n      dup2\n        /* \"#utility.yul\":18371:18403   */\n      eq\n        /* \"#utility.yul\":18361:18421   */\n      tag_582\n      jumpi\n        /* \"#utility.yul\":18417:18418   */\n      0x00\n        /* \"#utility.yul\":18414:18415   */\n      dup1\n        /* \"#utility.yul\":18407:18419   */\n      revert\n        /* \"#utility.yul\":18361:18421   */\n    tag_582:\n        /* \"#utility.yul\":18311:18427   */\n      pop\n      jump\t// out\n        /* \"#utility.yul\":18433:18555   */\n    tag_361:\n        /* \"#utility.yul\":18506:18530   */\n      tag_584\n        /* \"#utility.yul\":18524:18529   */\n      dup2\n        /* \"#utility.yul\":18506:18530   */\n      tag_457\n      jump\t// in\n    tag_584:\n        /* \"#utility.yul\":18499:18504   */\n      dup2\n        /* \"#utility.yul\":18496:18531   */\n      eq\n        /* \"#utility.yul\":18486:18549   */\n      tag_585\n      jumpi\n        /* \"#utility.yul\":18545:18546   */\n      0x00\n        /* \"#utility.yul\":18542:18543   */\n      dup1\n        /* \"#utility.yul\":18535:18547   */\n      revert\n        /* \"#utility.yul\":18486:18549   */\n    tag_585:\n        /* \"#utility.yul\":18433:18555   */\n      pop\n      jump\t// out\n    stop\n    data_601972b90d37b25432db4389d8031f8daa2518ef8d99fbf07fd5717b0953de49 546865207065726d697373696f6e206973206e6f742076616c6964206f7220746865206163636f756e74206973206e6f7420696e20746865207065726d697373696f6e2e\n\n    auxdata: 0xa2646970667358221220280a7e59d7a8b5cbfd4604574d7aa57e2989c67cb580a120682d5d5aa99b578764736f6c63430008070033\n}\n",
				"bytecode": {
					"linkReferences": {},
					"object": "608060405260405180602001604052806000815250600490805190602001906200002b929190620002ee565b50604051806020016040528060008152506005908051906020019062000053929190620002ee565b503480156200006157600080fd5b50604051620037a6380380620037a6833981810160405281019062000087919062000433565b620000976200011360201b60201c565b82600360006101000a81548173ffffffffffffffffffffffffffffffffffffffff021916908373ffffffffffffffffffffffffffffffffffffffff1602179055508160049080519060200190620000f0929190620002ee565b50806005908051906020019062000109929190620002ee565b505050506200069f565b60016000807fdf8b4c520ffe197c5343c6f5aec59570151ef9a492f2c624fd45ddde6135ec42815260200190815260200160002060030160006101000a81548160ff02191690831515021790555060016000807fdf8b4c520ffe197c5343c6f5aec59570151ef9a492f2c624fd45ddde6135ec42815260200190815260200160002060000160003373ffffffffffffffffffffffffffffffffffffffff1673ffffffffffffffffffffffffffffffffffffffff16815260200190815260200160002060006101000a81548160ff021916908315150217905550336000807fdf8b4c520ffe197c5343c6f5aec59570151ef9a492f2c624fd45ddde6135ec428152602001908152602001600020600101600080815260200190815260200160002060006101000a81548173ffffffffffffffffffffffffffffffffffffffff021916908373ffffffffffffffffffffffffffffffffffffffff16021790555060016000807fdf8b4c520ffe197c5343c6f5aec59570151ef9a492f2c624fd45ddde6135ec4281526020019081526020016000206002018190555060016002819055507fdf8b4c520ffe197c5343c6f5aec59570151ef9a492f2c624fd45ddde6135ec426001600080815260200190815260200160002081905550565b828054620002fc9062000596565b90600052602060002090601f0160209004810192826200032057600085556200036c565b82601f106200033b57805160ff19168380011785556200036c565b828001600101855582156200036c579182015b828111156200036b5782518255916020019190600101906200034e565b5b5090506200037b91906200037f565b5090565b5b808211156200039a57600081600090555060010162000380565b5090565b6000620003b5620003af84620004f6565b620004cd565b905082815260208101848484011115620003d457620003d362000665565b5b620003e184828562000560565b509392505050565b600081519050620003fa8162000685565b92915050565b600082601f83011262000418576200041762000660565b5b81516200042a8482602086016200039e565b91505092915050565b6000806000606084860312156200044f576200044e6200066f565b5b60006200045f86828701620003e9565b935050602084015167ffffffffffffffff8111156200048357620004826200066a565b5b620004918682870162000400565b925050604084015167ffffffffffffffff811115620004b557620004b46200066a565b5b620004c38682870162000400565b9150509250925092565b6000620004d9620004ec565b9050620004e78282620005cc565b919050565b6000604051905090565b600067ffffffffffffffff82111562000514576200051362000631565b5b6200051f8262000674565b9050602081019050919050565b6000620005398262000540565b9050919050565b600073ffffffffffffffffffffffffffffffffffffffff82169050919050565b60005b838110156200058057808201518184015260208101905062000563565b8381111562000590576000848401525b50505050565b60006002820490506001821680620005af57607f821691505b60208210811415620005c657620005c562000602565b5b50919050565b620005d78262000674565b810181811067ffffffffffffffff82111715620005f957620005f862000631565b5b80604052505050565b7f4e487b7100000000000000000000000000000000000000000000000000000000600052602260045260246000fd5b7f4e487b7100000000000000000000000000000000000000000000000000000000600052604160045260246000fd5b600080fd5b600080fd5b600080fd5b600080fd5b6000601f19601f8301169050919050565b62000690816200052c565b81146200069c57600080fd5b50565b6130f780620006af6000396000f3fe608060405234801561001057600080fd5b50600436106100cf5760003560e01c80639b8f3bbc1161008c578063aae7c78a11610066578063aae7c78a146101fe578063c7dc62201461021a578063c98d6f1e14610236578063e9cb00a214610252576100cf565b80639b8f3bbc14610194578063a10f9524146101c4578063a8a23e39146101e0576100cf565b8063342da059146100d45780634c1b64cb146100f05780634c1cce741461010c5780637058dd241461012a57806375829def1461014857806380891cb214610164575b600080fd5b6100ee60048036038101906100e99190612847565b610282565b005b61010a60048036038101906101059190612780565b6103cf565b005b61011461051c565b6040516101219190612c58565b60405180910390f35b6101326105aa565b60405161013f9190612bb5565b60405180910390f35b610162600480360381019061015d9190612780565b6106da565b005b61017e60048036038101906101799190612780565b610827565b60405161018b9190612bf2565b60405180910390f35b6101ae60048036038101906101a991906127da565b61095a565b6040516101bb9190612bd0565b60405180910390f35b6101de60048036038101906101d991906128ec565b610a8d565b005b6101e8610bdc565b6040516101f59190612c58565b60405180910390f35b61021860048036038101906102139190612847565b610c6a565b005b610234600480360381019061022f9190612890565b610db7565b005b610250600480360381019061024b9190612890565b610f06565b005b61026c60048036038101906102679190612807565b611055565b6040516102799190612c14565b60405180910390f35b7f73d57861095ed1ff7b0e5c00e25f9fc922cf9164e617149ee7073f371364c9547fdf8b4c520ffe197c5343c6f5aec59570151ef9a492f2c624fd45ddde6135ec426102ce823361118a565b806103825750600360009054906101000a900473ffffffffffffffffffffffffffffffffffffffff1673ffffffffffffffffffffffffffffffffffffffff1663e9cb00a282336040518363ffffffff1660e01b8152600401610331929190612c2f565b60206040518083038186803b15801561034957600080fd5b505afa15801561035d573d6000803e3d6000fd5b505050506040513d601f19601f8201168201806040525081019061038191906127ad565b5b6103c1576040517f08c379a00000000000000000000000000000000000000000000000000000000081526004016103b890612c7a565b60405180910390fd5b6103ca83611225565b505050565b7f73d57861095ed1ff7b0e5c00e25f9fc922cf9164e617149ee7073f371364c9547fdf8b4c520ffe197c5343c6f5aec59570151ef9a492f2c624fd45ddde6135ec4261041b823361118a565b806104cf5750600360009054906101000a900473ffffffffffffffffffffffffffffffffffffffff1673ffffffffffffffffffffffffffffffffffffffff1663e9cb00a282336040518363ffffffff1660e01b815260040161047e929190612c2f565b60206040518083038186803b15801561049657600080fd5b505afa1580156104aa573d6000803e3d6000fd5b505050506040513d601f19601f820116820180604052508101906104ce91906127ad565b5b61050e576040517f08c379a000000000000000000000000000000000000000000000000000000000815260040161050590612c7a565b60405180910390fd5b61051783611354565b505050565b6005805461052990612e33565b80601f016020809104026020016040519081016040528092919081815260200182805461055590612e33565b80156105a25780601f10610577576101008083540402835291602001916105a2565b820191906000526020600020905b81548152906001019060200180831161058557829003601f168201915b505050505081565b60007fa724c0857099da33c38b932ce5d4e84578ee9792153085d9d5e379bfba70cacb806105d8823361118a565b8061068c5750600360009054906101000a900473ffffffffffffffffffffffffffffffffffffffff1673ffffffffffffffffffffffffffffffffffffffff1663e9cb00a282336040518363ffffffff1660e01b815260040161063b929190612c2f565b60206040518083038186803b15801561065357600080fd5b505afa158015610667573d6000803e3d6000fd5b505050506040513d601f19601f8201168201806040525081019061068b91906127ad565b5b6106cb576040517f08c379a00000000000000000000000000000000000000000000000000000000081526004016106c290612c7a565b60405180910390fd5b6106d3611572565b9250505090565b7f73d57861095ed1ff7b0e5c00e25f9fc922cf9164e617149ee7073f371364c9547fdf8b4c520ffe197c5343c6f5aec59570151ef9a492f2c624fd45ddde6135ec42610726823361118a565b806107da5750600360009054906101000a900473ffffffffffffffffffffffffffffffffffffffff1673ffffffffffffffffffffffffffffffffffffffff1663e9cb00a282336040518363ffffffff1660e01b8152600401610789929190612c2f565b60206040518083038186803b1580156107a157600080fd5b505afa1580156107b5573d6000803e3d6000fd5b505050506040513d601f19601f820116820180604052508101906107d991906127ad565b5b610819576040517f08c379a000000000000000000000000000000000000000000000000000000000815260040161081090612c7a565b60405180910390fd5b61082283611727565b505050565b60607fa724c0857099da33c38b932ce5d4e84578ee9792153085d9d5e379bfba70cacb80610855823361118a565b806109095750600360009054906101000a900473ffffffffffffffffffffffffffffffffffffffff1673ffffffffffffffffffffffffffffffffffffffff1663e9cb00a282336040518363ffffffff1660e01b81526004016108b8929190612c2f565b60206040518083038186803b1580156108d057600080fd5b505afa1580156108e4573d6000803e3d6000fd5b505050506040513d601f19601f8201168201806040525081019061090891906127ad565b5b610948576040517f08c379a000000000000000000000000000000000000000000000000000000000815260040161093f90612c7a565b60405180910390fd5b610951846118c4565b92505050919050565b60607fa724c0857099da33c38b932ce5d4e84578ee9792153085d9d5e379bfba70cacb80610988823361118a565b80610a3c5750600360009054906101000a900473ffffffffffffffffffffffffffffffffffffffff1673ffffffffffffffffffffffffffffffffffffffff1663e9cb00a282336040518363ffffffff1660e01b81526004016109eb929190612c2f565b60206040518083038186803b158015610a0357600080fd5b505afa158015610a17573d6000803e3d6000fd5b505050506040513d601f19601f82011682018060405250810190610a3b91906127ad565b5b610a7b576040517f08c379a0000000000000000000000000000000000000000000000000000000008152600401610a7290612c7a565b60405180910390fd5b610a84846119ad565b92505050919050565b7f73d57861095ed1ff7b0e5c00e25f9fc922cf9164e617149ee7073f371364c9547fdf8b4c520ffe197c5343c6f5aec59570151ef9a492f2c624fd45ddde6135ec42610ad9823361118a565b80610b8d5750600360009054906101000a900473ffffffffffffffffffffffffffffffffffffffff1673ffffffffffffffffffffffffffffffffffffffff1663e9cb00a282336040518363ffffffff1660e01b8152600401610b3c929190612c2f565b60206040518083038186803b158015610b5457600080fd5b505afa158015610b68573d6000803e3d6000fd5b505050506040513d601f19601f82011682018060405250810190610b8c91906127ad565b5b610bcc576040517f08c379a0000000000000000000000000000000000000000000000000000000008152600401610bc390612c7a565b60405180910390fd5b610bd68484611b3d565b50505050565b60048054610be990612e33565b80601f0160208091040260200160405190810160405280929190818152602001828054610c1590612e33565b8015610c625780601f10610c3757610100808354040283529160200191610c62565b820191906000526020600020905b815481529060010190602001808311610c4557829003601f168201915b505050505081565b7f73d57861095ed1ff7b0e5c00e25f9fc922cf9164e617149ee7073f371364c9547fdf8b4c520ffe197c5343c6f5aec59570151ef9a492f2c624fd45ddde6135ec42610cb6823361118a565b80610d6a5750600360009054906101000a900473ffffffffffffffffffffffffffffffffffffffff1673ffffffffffffffffffffffffffffffffffffffff1663e9cb00a282336040518363ffffffff1660e01b8152600401610d19929190612c2f565b60206040518083038186803b158015610d3157600080fd5b505afa158015610d45573d6000803e3d6000fd5b505050506040513d601f19601f82011682018060405250810190610d6991906127ad565b5b610da9576040517f08c379a0000000000000000000000000000000000000000000000000000000008152600401610da090612c7a565b60405180910390fd5b610db283611e33565b505050565b7f73d57861095ed1ff7b0e5c00e25f9fc922cf9164e617149ee7073f371364c9547fdf8b4c520ffe197c5343c6f5aec59570151ef9a492f2c624fd45ddde6135ec42610e03823361118a565b80610eb75750600360009054906101000a900473ffffffffffffffffffffffffffffffffffffffff1673ffffffffffffffffffffffffffffffffffffffff1663e9cb00a282336040518363ffffffff1660e01b8152600401610e66929190612c2f565b60206040518083038186803b158015610e7e57600080fd5b505afa158015610e92573d6000803e3d6000fd5b505050506040513d601f19601f82011682018060405250810190610eb691906127ad565b5b610ef6576040517f08c379a0000000000000000000000000000000000000000000000000000000008152600401610eed90612c7a565b60405180910390fd5b610f00848461219b565b50505050565b7f73d57861095ed1ff7b0e5c00e25f9fc922cf9164e617149ee7073f371364c9547fdf8b4c520ffe197c5343c6f5aec59570151ef9a492f2c624fd45ddde6135ec42610f52823361118a565b806110065750600360009054906101000a900473ffffffffffffffffffffffffffffffffffffffff1673ffffffffffffffffffffffffffffffffffffffff1663e9cb00a282336040518363ffffffff1660e01b8152600401610fb5929190612c2f565b60206040518083038186803b158015610fcd57600080fd5b505afa158015610fe1573d6000803e3d6000fd5b505050506040513d601f19601f8201168201806040525081019061100591906127ad565b5b611045576040517f08c379a000000000000000000000000000000000000000000000000000000000815260040161103c90612c7a565b60405180910390fd5b61104f8484612329565b50505050565b60007fa724c0857099da33c38b932ce5d4e84578ee9792153085d9d5e379bfba70cacb80611083823361118a565b806111375750600360009054906101000a900473ffffffffffffffffffffffffffffffffffffffff1673ffffffffffffffffffffffffffffffffffffffff1663e9cb00a282336040518363ffffffff1660e01b81526004016110e6929190612c2f565b60206040518083038186803b1580156110fe57600080fd5b505afa158015611112573d6000803e3d6000fd5b505050506040513d601f19601f8201168201806040525081019061113691906127ad565b5b611176576040517f08c379a000000000000000000000000000000000000000000000000000000000815260040161116d90612c7a565b60405180910390fd5b6111808585612477565b9250505092915050565b600080600084815260200190815260200160002060030160009054906101000a900460ff166111bc576000905061121f565b60008084815260200190815260200160002060000160008373ffffffffffffffffffffffffffffffffffffffff1673ffffffffffffffffffffffffffffffffffffffff16815260200190815260200160002060009054906101000a900460ff1690505b92915050565b60008180519060200120905060008082815260200190815260200160002060030160009054906101000a900460ff16801561128057507fdf8b4c520ffe197c5343c6f5aec59570151ef9a492f2c624fd45ddde6135ec428114155b1561131157600080600083815260200190815260200160002060030160006101000a81548160ff0219169083151502179055503373ffffffffffffffffffffffffffffffffffffffff16826040516112d89190612b7c565b60405180910390207fef4f3adabb4ce2cc6076cc23d211eff03f6e49839a9d773d7c77f48a83a2d85960405160405180910390a3611350565b61134f6040518060400160405280601c81526020017f546865207065726d697373696f6e206973206e6f742076616c69642e0000000081525061248b565b5b5050565b61137e7fdf8b4c520ffe197c5343c6f5aec59570151ef9a492f2c624fd45ddde6135ec428261118a565b15806113b057506113af7fdf8b4c520ffe197c5343c6f5aec59570151ef9a492f2c624fd45ddde6135ec423361118a565b5b15611530576000600190505b6002548110156114d0576000806001600084815260200190815260200160002054815260200190815260200160002060000160008373ffffffffffffffffffffffffffffffffffffffff1673ffffffffffffffffffffffffffffffffffffffff16815260200190815260200160002060009054906101000a900460ff16156114bd5760008060006001600085815260200190815260200160002054815260200190815260200160002060000160008473ffffffffffffffffffffffffffffffffffffffff1673ffffffffffffffffffffffffffffffffffffffff16815260200190815260200160002060006101000a81548160ff0219169083151502179055505b80806114c890612e96565b9150506113bc565b503373ffffffffffffffffffffffffffffffffffffffff168173ffffffffffffffffffffffffffffffffffffffff167ffd7e144a5e02c1180e00f9591ef4f60aa95b127c4f134847224a4b6cb99fef9660405160405180910390a361156f565b61156e6040518060400160405280601881526020017f596f752063616e6e6f742064656c6574652041444d494e2e000000000000000081525061248b565b5b50565b600080600090505b6000807fdf8b4c520ffe197c5343c6f5aec59570151ef9a492f2c624fd45ddde6135ec428152602001908152602001600020600201548110156116ba576000807fdf8b4c520ffe197c5343c6f5aec59570151ef9a492f2c624fd45ddde6135ec42815260200190815260200160002060000160008060007fdf8b4c520ffe197c5343c6f5aec59570151ef9a492f2c624fd45ddde6135ec428152602001908152602001600020600101600084815260200190815260200160002060009054906101000a900473ffffffffffffffffffffffffffffffffffffffff1673ffffffffffffffffffffffffffffffffffffffff1673ffffffffffffffffffffffffffffffffffffffff16815260200190815260200160002060009054906101000a900460ff16156116a7576116ba565b80806116b290612e96565b91505061157a565b6000807fdf8b4c520ffe197c5343c6f5aec59570151ef9a492f2c624fd45ddde6135ec428152602001908152602001600020600101600082815260200190815260200160002060009054906101000a900473ffffffffffffffffffffffffffffffffffffffff1691505090565b60008060007fdf8b4c520ffe197c5343c6f5aec59570151ef9a492f2c624fd45ddde6135ec42815260200190815260200160002060000160003373ffffffffffffffffffffffffffffffffffffffff1673ffffffffffffffffffffffffffffffffffffffff16815260200190815260200160002060006101000a81548160ff0219169083151502179055506117dc7fdf8b4c520ffe197c5343c6f5aec59570151ef9a492f2c624fd45ddde6135ec42826124e7565b60016000807fdf8b4c520ffe197c5343c6f5aec59570151ef9a492f2c624fd45ddde6135ec42815260200190815260200160002060000160008373ffffffffffffffffffffffffffffffffffffffff1673ffffffffffffffffffffffffffffffffffffffff16815260200190815260200160002060006101000a81548160ff0219169083151502179055503373ffffffffffffffffffffffffffffffffffffffff168173ffffffffffffffffffffffffffffffffffffffff167f173de3514d8508f36ce8c81d509adcd8c8c76098400f685d3042b36f9a4160c360405160405180910390a350565b6060806000805b6002548110156119a2576000806001600084815260200190815260200160002054815260200190815260200160002060000160008673ffffffffffffffffffffffffffffffffffffffff1673ffffffffffffffffffffffffffffffffffffffff16815260200190815260200160002060009054906101000a900460ff161561198f57600160008281526020019081526020016000205483838151811061197457611973612f3d565b5b602002602001018181525050818061198b90612e96565b9250505b808061199a90612e96565b9150506118cb565b508192505050919050565b6060806000805b60008086815260200190815260200160002060020154811015611b32576000808681526020019081526020016000206000016000806000888152602001908152602001600020600101600084815260200190815260200160002060009054906101000a900473ffffffffffffffffffffffffffffffffffffffff1673ffffffffffffffffffffffffffffffffffffffff1673ffffffffffffffffffffffffffffffffffffffff16815260200190815260200160002060009054906101000a900460ff1615611b1f57600080868152602001908152602001600020600101600082815260200190815260200160002060009054906101000a900473ffffffffffffffffffffffffffffffffffffffff16838381518110611ad657611ad5612f3d565b5b602002602001019073ffffffffffffffffffffffffffffffffffffffff16908173ffffffffffffffffffffffffffffffffffffffff16815250508180611b1b90612e96565b9250505b8080611b2a90612e96565b9150506119b4565b508192505050919050565b60008280519060200120905060008280519060200120905060008083815260200190815260200160002060030160009054906101000a900460ff16611dee57611b858261264f565b600160008084815260200190815260200160002060030160006101000a81548160ff02191690831515021790555060005b60008083815260200190815260200160002060020154811015611d60576000806000848152602001908152602001600020600101600083815260200190815260200160002060009054906101000a900473ffffffffffffffffffffffffffffffffffffffff16905060008084815260200190815260200160002060000160008273ffffffffffffffffffffffffffffffffffffffff1673ffffffffffffffffffffffffffffffffffffffff16815260200190815260200160002060009054906101000a900460ff1660008086815260200190815260200160002060000160008373ffffffffffffffffffffffffffffffffffffffff1673ffffffffffffffffffffffffffffffffffffffff16815260200190815260200160002060006101000a81548160ff02191690831515021790555080600080868152602001908152602001600020600101600084815260200190815260200160002060006101000a81548173ffffffffffffffffffffffffffffffffffffffff021916908373ffffffffffffffffffffffffffffffffffffffff160217905550508080611d5890612e96565b915050611bb6565b5060008082815260200190815260200160002060020154600080848152602001908152602001600020600201819055503373ffffffffffffffffffffffffffffffffffffffff1684604051611db59190612b7c565b60405180910390207f629a748ba580fe181c6ae2d3673c4bdfea9e1f2d334f36beec502aff5dbaeff260405160405180910390a3611e2d565b611e2c6040518060400160405280602081526020017f546865207065726d697373696f6e2068617320616c726561792065786973742e81525061248b565b5b50505050565b60008180519060200120905060008082815260200190815260200160002060030160009054906101000a900460ff1661215857611e6f8161264f565b600160008083815260200190815260200160002060030160006101000a81548160ff02191690831515021790555060005b6000807fdf8b4c520ffe197c5343c6f5aec59570151ef9a492f2c624fd45ddde6135ec428152602001908152602001600020600201548110156120aa5760008060007fdf8b4c520ffe197c5343c6f5aec59570151ef9a492f2c624fd45ddde6135ec428152602001908152602001600020600101600083815260200190815260200160002060009054906101000a900473ffffffffffffffffffffffffffffffffffffffff1690506000807fdf8b4c520ffe197c5343c6f5aec59570151ef9a492f2c624fd45ddde6135ec42815260200190815260200160002060000160008273ffffffffffffffffffffffffffffffffffffffff1673ffffffffffffffffffffffffffffffffffffffff16815260200190815260200160002060009054906101000a900460ff1660008085815260200190815260200160002060000160008373ffffffffffffffffffffffffffffffffffffffff1673ffffffffffffffffffffffffffffffffffffffff16815260200190815260200160002060006101000a81548160ff02191690831515021790555080600080858152602001908152602001600020600101600084815260200190815260200160002060006101000a81548173ffffffffffffffffffffffffffffffffffffffff021916908373ffffffffffffffffffffffffffffffffffffffff1602179055505080806120a290612e96565b915050611ea0565b506000807fdf8b4c520ffe197c5343c6f5aec59570151ef9a492f2c624fd45ddde6135ec42815260200190815260200160002060020154600080838152602001908152602001600020600201819055503373ffffffffffffffffffffffffffffffffffffffff168260405161211f9190612b7c565b60405180910390207f629a748ba580fe181c6ae2d3673c4bdfea9e1f2d334f36beec502aff5dbaeff260405160405180910390a3612197565b6121966040518060400160405280602081526020017f546865207065726d697373696f6e2068617320616c726561792065786973742e81525061248b565b5b5050565b60008280519060200120905060008082815260200190815260200160002060030160009054906101000a900460ff1680156121f657507fdf8b4c520ffe197c5343c6f5aec59570151ef9a492f2c624fd45ddde6135ec428114155b156122e55761220581836124e7565b600160008083815260200190815260200160002060000160008473ffffffffffffffffffffffffffffffffffffffff1673ffffffffffffffffffffffffffffffffffffffff16815260200190815260200160002060006101000a81548160ff0219169083151502179055503373ffffffffffffffffffffffffffffffffffffffff168273ffffffffffffffffffffffffffffffffffffffff16846040516122ac9190612b7c565b60405180910390207f1bbdb8ca05419dffb11afa5105f78331a46e3d8a8b900efb115bbb4175a9c2d360405160405180910390a4612324565b6123236040518060400160405280601c81526020017f546865207065726d697373696f6e206973206e6f742076616c69642e0000000081525061248b565b5b505050565b60008280519060200120905061233f818361118a565b801561236b57507fdf8b4c520ffe197c5343c6f5aec59570151ef9a492f2c624fd45ddde6135ec428114155b1561245057600080600083815260200190815260200160002060000160008473ffffffffffffffffffffffffffffffffffffffff1673ffffffffffffffffffffffffffffffffffffffff16815260200190815260200160002060006101000a81548160ff0219169083151502179055503373ffffffffffffffffffffffffffffffffffffffff168273ffffffffffffffffffffffffffffffffffffffff16846040516124179190612b7c565b60405180910390207f5658f0a44f1b55364ef0376f818ea716aee06d4e966974edba8ae1b8fa1e379c60405160405180910390a4612472565b61247160405180608001604052806044815260200161307e6044913961248b565b5b505050565b6000612483838361118a565b905092915050565b8060405160200161249c9190612b93565b6040516020818303038152906040526040517f08c379a00000000000000000000000000000000000000000000000000000000081526004016124de9190612c58565b60405180910390fd5b6000805b6000808581526020019081526020016000206002015481101561259e578273ffffffffffffffffffffffffffffffffffffffff16600080868152602001908152602001600020600101600083815260200190815260200160002060009054906101000a900473ffffffffffffffffffffffffffffffffffffffff1673ffffffffffffffffffffffffffffffffffffffff16141561258b576001915061259e565b808061259690612e96565b9150506124eb565b508061264a5781600080858152602001908152602001600020600101600080600087815260200190815260200160002060020154815260200190815260200160002060006101000a81548173ffffffffffffffffffffffffffffffffffffffff021916908373ffffffffffffffffffffffffffffffffffffffff160217905550600080848152602001908152602001600020600201600081548092919061264490612e96565b91905055505b505050565b6000805b6002548110156126945782600160008381526020019081526020016000205414156126815760019150612694565b808061268c90612e96565b915050612653565b50806126cd578160016000600254815260200190815260200160002081905550600260008154809291906126c790612e96565b91905055505b5050565b60006126e46126df84612cbf565b612c9a565b905082815260208101848484011115612700576126ff612fa0565b5b61270b848285612df1565b509392505050565b60008135905061272281613038565b92915050565b6000815190506127378161304f565b92915050565b60008135905061274c81613066565b92915050565b600082601f83011261276757612766612f9b565b5b81356127778482602086016126d1565b91505092915050565b60006020828403121561279657612795612faa565b5b60006127a484828501612713565b91505092915050565b6000602082840312156127c3576127c2612faa565b5b60006127d184828501612728565b91505092915050565b6000602082840312156127f0576127ef612faa565b5b60006127fe8482850161273d565b91505092915050565b6000806040838503121561281e5761281d612faa565b5b600061282c8582860161273d565b925050602061283d85828601612713565b9150509250929050565b60006020828403121561285d5761285c612faa565b5b600082013567ffffffffffffffff81111561287b5761287a612fa5565b5b61288784828501612752565b91505092915050565b600080604083850312156128a7576128a6612faa565b5b600083013567ffffffffffffffff8111156128c5576128c4612fa5565b5b6128d185828601612752565b92505060206128e285828601612713565b9150509250929050565b6000806040838503121561290357612902612faa565b5b600083013567ffffffffffffffff81111561292157612920612fa5565b5b61292d85828601612752565b925050602083013567ffffffffffffffff81111561294e5761294d612fa5565b5b61295a85828601612752565b9150509250929050565b60006129708383612994565b60208301905092915050565b60006129888383612a7d565b60208301905092915050565b61299d81612d9f565b82525050565b6129ac81612d9f565b82525050565b60006129bd82612d10565b6129c78185612d56565b93506129d283612cf0565b8060005b83811015612a035781516129ea8882612964565b97506129f583612d3c565b9250506001810190506129d6565b5085935050505092915050565b6000612a1b82612d1b565b612a258185612d67565b9350612a3083612d00565b8060005b83811015612a61578151612a48888261297c565b9750612a5383612d49565b925050600181019050612a34565b5085935050505092915050565b612a7781612db1565b82525050565b612a8681612dbd565b82525050565b612a9581612dbd565b82525050565b6000612aa682612d26565b612ab08185612d78565b9350612ac0818560208601612e00565b80840191505092915050565b6000612ad782612d31565b612ae18185612d83565b9350612af1818560208601612e00565b612afa81612faf565b840191505092915050565b6000612b1082612d31565b612b1a8185612d94565b9350612b2a818560208601612e00565b80840191505092915050565b6000612b43600f83612d94565b9150612b4e82612fc0565b600f82019050919050565b6000612b66603e83612d83565b9150612b7182612fe9565b604082019050919050565b6000612b888284612a9b565b915081905092915050565b6000612b9e82612b36565b9150612baa8284612b05565b915081905092915050565b6000602082019050612bca60008301846129a3565b92915050565b60006020820190508181036000830152612bea81846129b2565b905092915050565b60006020820190508181036000830152612c0c8184612a10565b905092915050565b6000602082019050612c296000830184612a6e565b92915050565b6000604082019050612c446000830185612a8c565b612c5160208301846129a3565b9392505050565b60006020820190508181036000830152612c728184612acc565b905092915050565b60006020820190508181036000830152612c9381612b59565b9050919050565b6000612ca4612cb5565b9050612cb08282612e65565b919050565b6000604051905090565b600067ffffffffffffffff821115612cda57612cd9612f6c565b5b612ce382612faf565b9050602081019050919050565b6000819050602082019050919050565b6000819050602082019050919050565b600081519050919050565b600081519050919050565b600081519050919050565b600081519050919050565b6000602082019050919050565b6000602082019050919050565b600082825260208201905092915050565b600082825260208201905092915050565b600081905092915050565b600082825260208201905092915050565b600081905092915050565b6000612daa82612dc7565b9050919050565b60008115159050919050565b6000819050919050565b600073ffffffffffffffffffffffffffffffffffffffff82169050919050565b6000819050919050565b82818337600083830152505050565b60005b83811015612e1e578082015181840152602081019050612e03565b83811115612e2d576000848401525b50505050565b60006002820490506001821680612e4b57607f821691505b60208210811415612e5f57612e5e612f0e565b5b50919050565b612e6e82612faf565b810181811067ffffffffffffffff82111715612e8d57612e8c612f6c565b5b80604052505050565b6000612ea182612de7565b91507fffffffffffffffffffffffffffffffffffffffffffffffffffffffffffffffff821415612ed457612ed3612edf565b5b600182019050919050565b7f4e487b7100000000000000000000000000000000000000000000000000000000600052601160045260246000fd5b7f4e487b7100000000000000000000000000000000000000000000000000000000600052602260045260246000fd5b7f4e487b7100000000000000000000000000000000000000000000000000000000600052603260045260246000fd5b7f4e487b7100000000000000000000000000000000000000000000000000000000600052604160045260246000fd5b600080fd5b600080fd5b600080fd5b600080fd5b6000601f19601f8301169050919050565b7f416363657373436f6e74726f6c3a200000000000000000000000000000000000600082015250565b7f416363657373436f6e74726f6c3a20596f752068617665206e6f207065726d6960008201527f7373696f6e20746f2061636365737320746869732066756e6374696f6e2e0000602082015250565b61304181612d9f565b811461304c57600080fd5b50565b61305881612db1565b811461306357600080fd5b50565b61306f81612dbd565b811461307a57600080fd5b5056fe546865207065726d697373696f6e206973206e6f742076616c6964206f7220746865206163636f756e74206973206e6f7420696e20746865207065726d697373696f6e2ea2646970667358221220280a7e59d7a8b5cbfd4604574d7aa57e2989c67cb580a120682d5d5aa99b578764736f6c63430008070033",
					"opcodes": "PUSH1 0x80 PUSH1 0x40 MSTORE PUSH1 0x40 MLOAD DUP1 PUSH1 0x20 ADD PUSH1 0x40 MSTORE DUP1 PUSH1 0x0 DUP2 MSTORE POP PUSH1 0x4 SWAP1 DUP1 MLOAD SWAP1 PUSH1 0x20 ADD SWAP1 PUSH3 0x2B SWAP3 SWAP2 SWAP1 PUSH3 0x2EE JUMP JUMPDEST POP PUSH1 0x40 MLOAD DUP1 PUSH1 0x20 ADD PUSH1 0x40 MSTORE DUP1 PUSH1 0x0 DUP2 MSTORE POP PUSH1 0x5 SWAP1 DUP1 MLOAD SWAP1 PUSH1 0x20 ADD SWAP1 PUSH3 0x53 SWAP3 SWAP2 SWAP1 PUSH3 0x2EE JUMP JUMPDEST POP CALLVALUE DUP1 ISZERO PUSH3 0x61 JUMPI PUSH1 0x0 DUP1 REVERT JUMPDEST POP PUSH1 0x40 MLOAD PUSH3 0x37A6 CODESIZE SUB DUP1 PUSH3 0x37A6 DUP4 CODECOPY DUP2 DUP2 ADD PUSH1 0x40 MSTORE DUP2 ADD SWAP1 PUSH3 0x87 SWAP2 SWAP1 PUSH3 0x433 JUMP JUMPDEST PUSH3 0x97 PUSH3 0x113 PUSH1 0x20 SHL PUSH1 0x20 SHR JUMP JUMPDEST DUP3 PUSH1 0x3 PUSH1 0x0 PUSH2 0x100 EXP DUP2 SLOAD DUP2 PUSH20 0xFFFFFFFFFFFFFFFFFFFFFFFFFFFFFFFFFFFFFFFF MUL NOT AND SWAP1 DUP4 PUSH20 0xFFFFFFFFFFFFFFFFFFFFFFFFFFFFFFFFFFFFFFFF AND MUL OR SWAP1 SSTORE POP DUP2 PUSH1 0x4 SWAP1 DUP1 MLOAD SWAP1 PUSH1 0x20 ADD SWAP1 PUSH3 0xF0 SWAP3 SWAP2 SWAP1 PUSH3 0x2EE JUMP JUMPDEST POP DUP1 PUSH1 0x5 SWAP1 DUP1 MLOAD SWAP1 PUSH1 0x20 ADD SWAP1 PUSH3 0x109 SWAP3 SWAP2 SWAP1 PUSH3 0x2EE JUMP JUMPDEST POP POP POP POP PUSH3 0x69F JUMP JUMPDEST PUSH1 0x1 PUSH1 0x0 DUP1 PUSH32 0xDF8B4C520FFE197C5343C6F5AEC59570151EF9A492F2C624FD45DDDE6135EC42 DUP2 MSTORE PUSH1 0x20 ADD SWAP1 DUP2 MSTORE PUSH1 0x20 ADD PUSH1 0x0 KECCAK256 PUSH1 0x3 ADD PUSH1 0x0 PUSH2 0x100 EXP DUP2 SLOAD DUP2 PUSH1 0xFF MUL NOT AND SWAP1 DUP4 ISZERO ISZERO MUL OR SWAP1 SSTORE POP PUSH1 0x1 PUSH1 0x0 DUP1 PUSH32 0xDF8B4C520FFE197C5343C6F5AEC59570151EF9A492F2C624FD45DDDE6135EC42 DUP2 MSTORE PUSH1 0x20 ADD SWAP1 DUP2 MSTORE PUSH1 0x20 ADD PUSH1 0x0 KECCAK256 PUSH1 0x0 ADD PUSH1 0x0 CALLER PUSH20 0xFFFFFFFFFFFFFFFFFFFFFFFFFFFFFFFFFFFFFFFF AND PUSH20 0xFFFFFFFFFFFFFFFFFFFFFFFFFFFFFFFFFFFFFFFF AND DUP2 MSTORE PUSH1 0x20 ADD SWAP1 DUP2 MSTORE PUSH1 0x20 ADD PUSH1 0x0 KECCAK256 PUSH1 0x0 PUSH2 0x100 EXP DUP2 SLOAD DUP2 PUSH1 0xFF MUL NOT AND SWAP1 DUP4 ISZERO ISZERO MUL OR SWAP1 SSTORE POP CALLER PUSH1 0x0 DUP1 PUSH32 0xDF8B4C520FFE197C5343C6F5AEC59570151EF9A492F2C624FD45DDDE6135EC42 DUP2 MSTORE PUSH1 0x20 ADD SWAP1 DUP2 MSTORE PUSH1 0x20 ADD PUSH1 0x0 KECCAK256 PUSH1 0x1 ADD PUSH1 0x0 DUP1 DUP2 MSTORE PUSH1 0x20 ADD SWAP1 DUP2 MSTORE PUSH1 0x20 ADD PUSH1 0x0 KECCAK256 PUSH1 0x0 PUSH2 0x100 EXP DUP2 SLOAD DUP2 PUSH20 0xFFFFFFFFFFFFFFFFFFFFFFFFFFFFFFFFFFFFFFFF MUL NOT AND SWAP1 DUP4 PUSH20 0xFFFFFFFFFFFFFFFFFFFFFFFFFFFFFFFFFFFFFFFF AND MUL OR SWAP1 SSTORE POP PUSH1 0x1 PUSH1 0x0 DUP1 PUSH32 0xDF8B4C520FFE197C5343C6F5AEC59570151EF9A492F2C624FD45DDDE6135EC42 DUP2 MSTORE PUSH1 0x20 ADD SWAP1 DUP2 MSTORE PUSH1 0x20 ADD PUSH1 0x0 KECCAK256 PUSH1 0x2 ADD DUP2 SWAP1 SSTORE POP PUSH1 0x1 PUSH1 0x2 DUP2 SWAP1 SSTORE POP PUSH32 0xDF8B4C520FFE197C5343C6F5AEC59570151EF9A492F2C624FD45DDDE6135EC42 PUSH1 0x1 PUSH1 0x0 DUP1 DUP2 MSTORE PUSH1 0x20 ADD SWAP1 DUP2 MSTORE PUSH1 0x20 ADD PUSH1 0x0 KECCAK256 DUP2 SWAP1 SSTORE POP JUMP JUMPDEST DUP3 DUP1 SLOAD PUSH3 0x2FC SWAP1 PUSH3 0x596 JUMP JUMPDEST SWAP1 PUSH1 0x0 MSTORE PUSH1 0x20 PUSH1 0x0 KECCAK256 SWAP1 PUSH1 0x1F ADD PUSH1 0x20 SWAP1 DIV DUP2 ADD SWAP3 DUP3 PUSH3 0x320 JUMPI PUSH1 0x0 DUP6 SSTORE PUSH3 0x36C JUMP JUMPDEST DUP3 PUSH1 0x1F LT PUSH3 0x33B JUMPI DUP1 MLOAD PUSH1 0xFF NOT AND DUP4 DUP1 ADD OR DUP6 SSTORE PUSH3 0x36C JUMP JUMPDEST DUP3 DUP1 ADD PUSH1 0x1 ADD DUP6 SSTORE DUP3 ISZERO PUSH3 0x36C JUMPI SWAP2 DUP3 ADD JUMPDEST DUP3 DUP2 GT ISZERO PUSH3 0x36B JUMPI DUP3 MLOAD DUP3 SSTORE SWAP2 PUSH1 0x20 ADD SWAP2 SWAP1 PUSH1 0x1 ADD SWAP1 PUSH3 0x34E JUMP JUMPDEST JUMPDEST POP SWAP1 POP PUSH3 0x37B SWAP2 SWAP1 PUSH3 0x37F JUMP JUMPDEST POP SWAP1 JUMP JUMPDEST JUMPDEST DUP1 DUP3 GT ISZERO PUSH3 0x39A JUMPI PUSH1 0x0 DUP2 PUSH1 0x0 SWAP1 SSTORE POP PUSH1 0x1 ADD PUSH3 0x380 JUMP JUMPDEST POP SWAP1 JUMP JUMPDEST PUSH1 0x0 PUSH3 0x3B5 PUSH3 0x3AF DUP5 PUSH3 0x4F6 JUMP JUMPDEST PUSH3 0x4CD JUMP JUMPDEST SWAP1 POP DUP3 DUP2 MSTORE PUSH1 0x20 DUP2 ADD DUP5 DUP5 DUP5 ADD GT ISZERO PUSH3 0x3D4 JUMPI PUSH3 0x3D3 PUSH3 0x665 JUMP JUMPDEST JUMPDEST PUSH3 0x3E1 DUP5 DUP3 DUP6 PUSH3 0x560 JUMP JUMPDEST POP SWAP4 SWAP3 POP POP POP JUMP JUMPDEST PUSH1 0x0 DUP2 MLOAD SWAP1 POP PUSH3 0x3FA DUP2 PUSH3 0x685 JUMP JUMPDEST SWAP3 SWAP2 POP POP JUMP JUMPDEST PUSH1 0x0 DUP3 PUSH1 0x1F DUP4 ADD SLT PUSH3 0x418 JUMPI PUSH3 0x417 PUSH3 0x660 JUMP JUMPDEST JUMPDEST DUP2 MLOAD PUSH3 0x42A DUP5 DUP3 PUSH1 0x20 DUP7 ADD PUSH3 0x39E JUMP JUMPDEST SWAP2 POP POP SWAP3 SWAP2 POP POP JUMP JUMPDEST PUSH1 0x0 DUP1 PUSH1 0x0 PUSH1 0x60 DUP5 DUP7 SUB SLT ISZERO PUSH3 0x44F JUMPI PUSH3 0x44E PUSH3 0x66F JUMP JUMPDEST JUMPDEST PUSH1 0x0 PUSH3 0x45F DUP7 DUP3 DUP8 ADD PUSH3 0x3E9 JUMP JUMPDEST SWAP4 POP POP PUSH1 0x20 DUP5 ADD MLOAD PUSH8 0xFFFFFFFFFFFFFFFF DUP2 GT ISZERO PUSH3 0x483 JUMPI PUSH3 0x482 PUSH3 0x66A JUMP JUMPDEST JUMPDEST PUSH3 0x491 DUP7 DUP3 DUP8 ADD PUSH3 0x400 JUMP JUMPDEST SWAP3 POP POP PUSH1 0x40 DUP5 ADD MLOAD PUSH8 0xFFFFFFFFFFFFFFFF DUP2 GT ISZERO PUSH3 0x4B5 JUMPI PUSH3 0x4B4 PUSH3 0x66A JUMP JUMPDEST JUMPDEST PUSH3 0x4C3 DUP7 DUP3 DUP8 ADD PUSH3 0x400 JUMP JUMPDEST SWAP2 POP POP SWAP3 POP SWAP3 POP SWAP3 JUMP JUMPDEST PUSH1 0x0 PUSH3 0x4D9 PUSH3 0x4EC JUMP JUMPDEST SWAP1 POP PUSH3 0x4E7 DUP3 DUP3 PUSH3 0x5CC JUMP JUMPDEST SWAP2 SWAP1 POP JUMP JUMPDEST PUSH1 0x0 PUSH1 0x40 MLOAD SWAP1 POP SWAP1 JUMP JUMPDEST PUSH1 0x0 PUSH8 0xFFFFFFFFFFFFFFFF DUP3 GT ISZERO PUSH3 0x514 JUMPI PUSH3 0x513 PUSH3 0x631 JUMP JUMPDEST JUMPDEST PUSH3 0x51F DUP3 PUSH3 0x674 JUMP JUMPDEST SWAP1 POP PUSH1 0x20 DUP2 ADD SWAP1 POP SWAP2 SWAP1 POP JUMP JUMPDEST PUSH1 0x0 PUSH3 0x539 DUP3 PUSH3 0x540 JUMP JUMPDEST SWAP1 POP SWAP2 SWAP1 POP JUMP JUMPDEST PUSH1 0x0 PUSH20 0xFFFFFFFFFFFFFFFFFFFFFFFFFFFFFFFFFFFFFFFF DUP3 AND SWAP1 POP SWAP2 SWAP1 POP JUMP JUMPDEST PUSH1 0x0 JUMPDEST DUP4 DUP2 LT ISZERO PUSH3 0x580 JUMPI DUP1 DUP3 ADD MLOAD DUP2 DUP5 ADD MSTORE PUSH1 0x20 DUP2 ADD SWAP1 POP PUSH3 0x563 JUMP JUMPDEST DUP4 DUP2 GT ISZERO PUSH3 0x590 JUMPI PUSH1 0x0 DUP5 DUP5 ADD MSTORE JUMPDEST POP POP POP POP JUMP JUMPDEST PUSH1 0x0 PUSH1 0x2 DUP3 DIV SWAP1 POP PUSH1 0x1 DUP3 AND DUP1 PUSH3 0x5AF JUMPI PUSH1 0x7F DUP3 AND SWAP2 POP JUMPDEST PUSH1 0x20 DUP3 LT DUP2 EQ ISZERO PUSH3 0x5C6 JUMPI PUSH3 0x5C5 PUSH3 0x602 JUMP JUMPDEST JUMPDEST POP SWAP2 SWAP1 POP JUMP JUMPDEST PUSH3 0x5D7 DUP3 PUSH3 0x674 JUMP JUMPDEST DUP2 ADD DUP2 DUP2 LT PUSH8 0xFFFFFFFFFFFFFFFF DUP3 GT OR ISZERO PUSH3 0x5F9 JUMPI PUSH3 0x5F8 PUSH3 0x631 JUMP JUMPDEST JUMPDEST DUP1 PUSH1 0x40 MSTORE POP POP POP JUMP JUMPDEST PUSH32 0x4E487B7100000000000000000000000000000000000000000000000000000000 PUSH1 0x0 MSTORE PUSH1 0x22 PUSH1 0x4 MSTORE PUSH1 0x24 PUSH1 0x0 REVERT JUMPDEST PUSH32 0x4E487B7100000000000000000000000000000000000000000000000000000000 PUSH1 0x0 MSTORE PUSH1 0x41 PUSH1 0x4 MSTORE PUSH1 0x24 PUSH1 0x0 REVERT JUMPDEST PUSH1 0x0 DUP1 REVERT JUMPDEST PUSH1 0x0 DUP1 REVERT JUMPDEST PUSH1 0x0 DUP1 REVERT JUMPDEST PUSH1 0x0 DUP1 REVERT JUMPDEST PUSH1 0x0 PUSH1 0x1F NOT PUSH1 0x1F DUP4 ADD AND SWAP1 POP SWAP2 SWAP1 POP JUMP JUMPDEST PUSH3 0x690 DUP2 PUSH3 0x52C JUMP JUMPDEST DUP2 EQ PUSH3 0x69C JUMPI PUSH1 0x0 DUP1 REVERT JUMPDEST POP JUMP JUMPDEST PUSH2 0x30F7 DUP1 PUSH3 0x6AF PUSH1 0x0 CODECOPY PUSH1 0x0 RETURN INVALID PUSH1 0x80 PUSH1 0x40 MSTORE CALLVALUE DUP1 ISZERO PUSH2 0x10 JUMPI PUSH1 0x0 DUP1 REVERT JUMPDEST POP PUSH1 0x4 CALLDATASIZE LT PUSH2 0xCF JUMPI PUSH1 0x0 CALLDATALOAD PUSH1 0xE0 SHR DUP1 PUSH4 0x9B8F3BBC GT PUSH2 0x8C JUMPI DUP1 PUSH4 0xAAE7C78A GT PUSH2 0x66 JUMPI DUP1 PUSH4 0xAAE7C78A EQ PUSH2 0x1FE JUMPI DUP1 PUSH4 0xC7DC6220 EQ PUSH2 0x21A JUMPI DUP1 PUSH4 0xC98D6F1E EQ PUSH2 0x236 JUMPI DUP1 PUSH4 0xE9CB00A2 EQ PUSH2 0x252 JUMPI PUSH2 0xCF JUMP JUMPDEST DUP1 PUSH4 0x9B8F3BBC EQ PUSH2 0x194 JUMPI DUP1 PUSH4 0xA10F9524 EQ PUSH2 0x1C4 JUMPI DUP1 PUSH4 0xA8A23E39 EQ PUSH2 0x1E0 JUMPI PUSH2 0xCF JUMP JUMPDEST DUP1 PUSH4 0x342DA059 EQ PUSH2 0xD4 JUMPI DUP1 PUSH4 0x4C1B64CB EQ PUSH2 0xF0 JUMPI DUP1 PUSH4 0x4C1CCE74 EQ PUSH2 0x10C JUMPI DUP1 PUSH4 0x7058DD24 EQ PUSH2 0x12A JUMPI DUP1 PUSH4 0x75829DEF EQ PUSH2 0x148 JUMPI DUP1 PUSH4 0x80891CB2 EQ PUSH2 0x164 JUMPI JUMPDEST PUSH1 0x0 DUP1 REVERT JUMPDEST PUSH2 0xEE PUSH1 0x4 DUP1 CALLDATASIZE SUB DUP2 ADD SWAP1 PUSH2 0xE9 SWAP2 SWAP1 PUSH2 0x2847 JUMP JUMPDEST PUSH2 0x282 JUMP JUMPDEST STOP JUMPDEST PUSH2 0x10A PUSH1 0x4 DUP1 CALLDATASIZE SUB DUP2 ADD SWAP1 PUSH2 0x105 SWAP2 SWAP1 PUSH2 0x2780 JUMP JUMPDEST PUSH2 0x3CF JUMP JUMPDEST STOP JUMPDEST PUSH2 0x114 PUSH2 0x51C JUMP JUMPDEST PUSH1 0x40 MLOAD PUSH2 0x121 SWAP2 SWAP1 PUSH2 0x2C58 JUMP JUMPDEST PUSH1 0x40 MLOAD DUP1 SWAP2 SUB SWAP1 RETURN JUMPDEST PUSH2 0x132 PUSH2 0x5AA JUMP JUMPDEST PUSH1 0x40 MLOAD PUSH2 0x13F SWAP2 SWAP1 PUSH2 0x2BB5 JUMP JUMPDEST PUSH1 0x40 MLOAD DUP1 SWAP2 SUB SWAP1 RETURN JUMPDEST PUSH2 0x162 PUSH1 0x4 DUP1 CALLDATASIZE SUB DUP2 ADD SWAP1 PUSH2 0x15D SWAP2 SWAP1 PUSH2 0x2780 JUMP JUMPDEST PUSH2 0x6DA JUMP JUMPDEST STOP JUMPDEST PUSH2 0x17E PUSH1 0x4 DUP1 CALLDATASIZE SUB DUP2 ADD SWAP1 PUSH2 0x179 SWAP2 SWAP1 PUSH2 0x2780 JUMP JUMPDEST PUSH2 0x827 JUMP JUMPDEST PUSH1 0x40 MLOAD PUSH2 0x18B SWAP2 SWAP1 PUSH2 0x2BF2 JUMP JUMPDEST PUSH1 0x40 MLOAD DUP1 SWAP2 SUB SWAP1 RETURN JUMPDEST PUSH2 0x1AE PUSH1 0x4 DUP1 CALLDATASIZE SUB DUP2 ADD SWAP1 PUSH2 0x1A9 SWAP2 SWAP1 PUSH2 0x27DA JUMP JUMPDEST PUSH2 0x95A JUMP JUMPDEST PUSH1 0x40 MLOAD PUSH2 0x1BB SWAP2 SWAP1 PUSH2 0x2BD0 JUMP JUMPDEST PUSH1 0x40 MLOAD DUP1 SWAP2 SUB SWAP1 RETURN JUMPDEST PUSH2 0x1DE PUSH1 0x4 DUP1 CALLDATASIZE SUB DUP2 ADD SWAP1 PUSH2 0x1D9 SWAP2 SWAP1 PUSH2 0x28EC JUMP JUMPDEST PUSH2 0xA8D JUMP JUMPDEST STOP JUMPDEST PUSH2 0x1E8 PUSH2 0xBDC JUMP JUMPDEST PUSH1 0x40 MLOAD PUSH2 0x1F5 SWAP2 SWAP1 PUSH2 0x2C58 JUMP JUMPDEST PUSH1 0x40 MLOAD DUP1 SWAP2 SUB SWAP1 RETURN JUMPDEST PUSH2 0x218 PUSH1 0x4 DUP1 CALLDATASIZE SUB DUP2 ADD SWAP1 PUSH2 0x213 SWAP2 SWAP1 PUSH2 0x2847 JUMP JUMPDEST PUSH2 0xC6A JUMP JUMPDEST STOP JUMPDEST PUSH2 0x234 PUSH1 0x4 DUP1 CALLDATASIZE SUB DUP2 ADD SWAP1 PUSH2 0x22F SWAP2 SWAP1 PUSH2 0x2890 JUMP JUMPDEST PUSH2 0xDB7 JUMP JUMPDEST STOP JUMPDEST PUSH2 0x250 PUSH1 0x4 DUP1 CALLDATASIZE SUB DUP2 ADD SWAP1 PUSH2 0x24B SWAP2 SWAP1 PUSH2 0x2890 JUMP JUMPDEST PUSH2 0xF06 JUMP JUMPDEST STOP JUMPDEST PUSH2 0x26C PUSH1 0x4 DUP1 CALLDATASIZE SUB DUP2 ADD SWAP1 PUSH2 0x267 SWAP2 SWAP1 PUSH2 0x2807 JUMP JUMPDEST PUSH2 0x1055 JUMP JUMPDEST PUSH1 0x40 MLOAD PUSH2 0x279 SWAP2 SWAP1 PUSH2 0x2C14 JUMP JUMPDEST PUSH1 0x40 MLOAD DUP1 SWAP2 SUB SWAP1 RETURN JUMPDEST PUSH32 0x73D57861095ED1FF7B0E5C00E25F9FC922CF9164E617149EE7073F371364C954 PUSH32 0xDF8B4C520FFE197C5343C6F5AEC59570151EF9A492F2C624FD45DDDE6135EC42 PUSH2 0x2CE DUP3 CALLER PUSH2 0x118A JUMP JUMPDEST DUP1 PUSH2 0x382 JUMPI POP PUSH1 0x3 PUSH1 0x0 SWAP1 SLOAD SWAP1 PUSH2 0x100 EXP SWAP1 DIV PUSH20 0xFFFFFFFFFFFFFFFFFFFFFFFFFFFFFFFFFFFFFFFF AND PUSH20 0xFFFFFFFFFFFFFFFFFFFFFFFFFFFFFFFFFFFFFFFF AND PUSH4 0xE9CB00A2 DUP3 CALLER PUSH1 0x40 MLOAD DUP4 PUSH4 0xFFFFFFFF AND PUSH1 0xE0 SHL DUP2 MSTORE PUSH1 0x4 ADD PUSH2 0x331 SWAP3 SWAP2 SWAP1 PUSH2 0x2C2F JUMP JUMPDEST PUSH1 0x20 PUSH1 0x40 MLOAD DUP1 DUP4 SUB DUP2 DUP7 DUP1 EXTCODESIZE ISZERO DUP1 ISZERO PUSH2 0x349 JUMPI PUSH1 0x0 DUP1 REVERT JUMPDEST POP GAS STATICCALL ISZERO DUP1 ISZERO PUSH2 0x35D JUMPI RETURNDATASIZE PUSH1 0x0 DUP1 RETURNDATACOPY RETURNDATASIZE PUSH1 0x0 REVERT JUMPDEST POP POP POP POP PUSH1 0x40 MLOAD RETURNDATASIZE PUSH1 0x1F NOT PUSH1 0x1F DUP3 ADD AND DUP3 ADD DUP1 PUSH1 0x40 MSTORE POP DUP2 ADD SWAP1 PUSH2 0x381 SWAP2 SWAP1 PUSH2 0x27AD JUMP JUMPDEST JUMPDEST PUSH2 0x3C1 JUMPI PUSH1 0x40 MLOAD PUSH32 0x8C379A000000000000000000000000000000000000000000000000000000000 DUP2 MSTORE PUSH1 0x4 ADD PUSH2 0x3B8 SWAP1 PUSH2 0x2C7A JUMP JUMPDEST PUSH1 0x40 MLOAD DUP1 SWAP2 SUB SWAP1 REVERT JUMPDEST PUSH2 0x3CA DUP4 PUSH2 0x1225 JUMP JUMPDEST POP POP POP JUMP JUMPDEST PUSH32 0x73D57861095ED1FF7B0E5C00E25F9FC922CF9164E617149EE7073F371364C954 PUSH32 0xDF8B4C520FFE197C5343C6F5AEC59570151EF9A492F2C624FD45DDDE6135EC42 PUSH2 0x41B DUP3 CALLER PUSH2 0x118A JUMP JUMPDEST DUP1 PUSH2 0x4CF JUMPI POP PUSH1 0x3 PUSH1 0x0 SWAP1 SLOAD SWAP1 PUSH2 0x100 EXP SWAP1 DIV PUSH20 0xFFFFFFFFFFFFFFFFFFFFFFFFFFFFFFFFFFFFFFFF AND PUSH20 0xFFFFFFFFFFFFFFFFFFFFFFFFFFFFFFFFFFFFFFFF AND PUSH4 0xE9CB00A2 DUP3 CALLER PUSH1 0x40 MLOAD DUP4 PUSH4 0xFFFFFFFF AND PUSH1 0xE0 SHL DUP2 MSTORE PUSH1 0x4 ADD PUSH2 0x47E SWAP3 SWAP2 SWAP1 PUSH2 0x2C2F JUMP JUMPDEST PUSH1 0x20 PUSH1 0x40 MLOAD DUP1 DUP4 SUB DUP2 DUP7 DUP1 EXTCODESIZE ISZERO DUP1 ISZERO PUSH2 0x496 JUMPI PUSH1 0x0 DUP1 REVERT JUMPDEST POP GAS STATICCALL ISZERO DUP1 ISZERO PUSH2 0x4AA JUMPI RETURNDATASIZE PUSH1 0x0 DUP1 RETURNDATACOPY RETURNDATASIZE PUSH1 0x0 REVERT JUMPDEST POP POP POP POP PUSH1 0x40 MLOAD RETURNDATASIZE PUSH1 0x1F NOT PUSH1 0x1F DUP3 ADD AND DUP3 ADD DUP1 PUSH1 0x40 MSTORE POP DUP2 ADD SWAP1 PUSH2 0x4CE SWAP2 SWAP1 PUSH2 0x27AD JUMP JUMPDEST JUMPDEST PUSH2 0x50E JUMPI PUSH1 0x40 MLOAD PUSH32 0x8C379A000000000000000000000000000000000000000000000000000000000 DUP2 MSTORE PUSH1 0x4 ADD PUSH2 0x505 SWAP1 PUSH2 0x2C7A JUMP JUMPDEST PUSH1 0x40 MLOAD DUP1 SWAP2 SUB SWAP1 REVERT JUMPDEST PUSH2 0x517 DUP4 PUSH2 0x1354 JUMP JUMPDEST POP POP POP JUMP JUMPDEST PUSH1 0x5 DUP1 SLOAD PUSH2 0x529 SWAP1 PUSH2 0x2E33 JUMP JUMPDEST DUP1 PUSH1 0x1F ADD PUSH1 0x20 DUP1 SWAP2 DIV MUL PUSH1 0x20 ADD PUSH1 0x40 MLOAD SWAP1 DUP2 ADD PUSH1 0x40 MSTORE DUP1 SWAP3 SWAP2 SWAP1 DUP2 DUP2 MSTORE PUSH1 0x20 ADD DUP3 DUP1 SLOAD PUSH2 0x555 SWAP1 PUSH2 0x2E33 JUMP JUMPDEST DUP1 ISZERO PUSH2 0x5A2 JUMPI DUP1 PUSH1 0x1F LT PUSH2 0x577 JUMPI PUSH2 0x100 DUP1 DUP4 SLOAD DIV MUL DUP4 MSTORE SWAP2 PUSH1 0x20 ADD SWAP2 PUSH2 0x5A2 JUMP JUMPDEST DUP3 ADD SWAP2 SWAP1 PUSH1 0x0 MSTORE PUSH1 0x20 PUSH1 0x0 KECCAK256 SWAP1 JUMPDEST DUP2 SLOAD DUP2 MSTORE SWAP1 PUSH1 0x1 ADD SWAP1 PUSH1 0x20 ADD DUP1 DUP4 GT PUSH2 0x585 JUMPI DUP3 SWAP1 SUB PUSH1 0x1F AND DUP3 ADD SWAP2 JUMPDEST POP POP POP POP POP DUP2 JUMP JUMPDEST PUSH1 0x0 PUSH32 0xA724C0857099DA33C38B932CE5D4E84578EE9792153085D9D5E379BFBA70CACB DUP1 PUSH2 0x5D8 DUP3 CALLER PUSH2 0x118A JUMP JUMPDEST DUP1 PUSH2 0x68C JUMPI POP PUSH1 0x3 PUSH1 0x0 SWAP1 SLOAD SWAP1 PUSH2 0x100 EXP SWAP1 DIV PUSH20 0xFFFFFFFFFFFFFFFFFFFFFFFFFFFFFFFFFFFFFFFF AND PUSH20 0xFFFFFFFFFFFFFFFFFFFFFFFFFFFFFFFFFFFFFFFF AND PUSH4 0xE9CB00A2 DUP3 CALLER PUSH1 0x40 MLOAD DUP4 PUSH4 0xFFFFFFFF AND PUSH1 0xE0 SHL DUP2 MSTORE PUSH1 0x4 ADD PUSH2 0x63B SWAP3 SWAP2 SWAP1 PUSH2 0x2C2F JUMP JUMPDEST PUSH1 0x20 PUSH1 0x40 MLOAD DUP1 DUP4 SUB DUP2 DUP7 DUP1 EXTCODESIZE ISZERO DUP1 ISZERO PUSH2 0x653 JUMPI PUSH1 0x0 DUP1 REVERT JUMPDEST POP GAS STATICCALL ISZERO DUP1 ISZERO PUSH2 0x667 JUMPI RETURNDATASIZE PUSH1 0x0 DUP1 RETURNDATACOPY RETURNDATASIZE PUSH1 0x0 REVERT JUMPDEST POP POP POP POP PUSH1 0x40 MLOAD RETURNDATASIZE PUSH1 0x1F NOT PUSH1 0x1F DUP3 ADD AND DUP3 ADD DUP1 PUSH1 0x40 MSTORE POP DUP2 ADD SWAP1 PUSH2 0x68B SWAP2 SWAP1 PUSH2 0x27AD JUMP JUMPDEST JUMPDEST PUSH2 0x6CB JUMPI PUSH1 0x40 MLOAD PUSH32 0x8C379A000000000000000000000000000000000000000000000000000000000 DUP2 MSTORE PUSH1 0x4 ADD PUSH2 0x6C2 SWAP1 PUSH2 0x2C7A JUMP JUMPDEST PUSH1 0x40 MLOAD DUP1 SWAP2 SUB SWAP1 REVERT JUMPDEST PUSH2 0x6D3 PUSH2 0x1572 JUMP JUMPDEST SWAP3 POP POP POP SWAP1 JUMP JUMPDEST PUSH32 0x73D57861095ED1FF7B0E5C00E25F9FC922CF9164E617149EE7073F371364C954 PUSH32 0xDF8B4C520FFE197C5343C6F5AEC59570151EF9A492F2C624FD45DDDE6135EC42 PUSH2 0x726 DUP3 CALLER PUSH2 0x118A JUMP JUMPDEST DUP1 PUSH2 0x7DA JUMPI POP PUSH1 0x3 PUSH1 0x0 SWAP1 SLOAD SWAP1 PUSH2 0x100 EXP SWAP1 DIV PUSH20 0xFFFFFFFFFFFFFFFFFFFFFFFFFFFFFFFFFFFFFFFF AND PUSH20 0xFFFFFFFFFFFFFFFFFFFFFFFFFFFFFFFFFFFFFFFF AND PUSH4 0xE9CB00A2 DUP3 CALLER PUSH1 0x40 MLOAD DUP4 PUSH4 0xFFFFFFFF AND PUSH1 0xE0 SHL DUP2 MSTORE PUSH1 0x4 ADD PUSH2 0x789 SWAP3 SWAP2 SWAP1 PUSH2 0x2C2F JUMP JUMPDEST PUSH1 0x20 PUSH1 0x40 MLOAD DUP1 DUP4 SUB DUP2 DUP7 DUP1 EXTCODESIZE ISZERO DUP1 ISZERO PUSH2 0x7A1 JUMPI PUSH1 0x0 DUP1 REVERT JUMPDEST POP GAS STATICCALL ISZERO DUP1 ISZERO PUSH2 0x7B5 JUMPI RETURNDATASIZE PUSH1 0x0 DUP1 RETURNDATACOPY RETURNDATASIZE PUSH1 0x0 REVERT JUMPDEST POP POP POP POP PUSH1 0x40 MLOAD RETURNDATASIZE PUSH1 0x1F NOT PUSH1 0x1F DUP3 ADD AND DUP3 ADD DUP1 PUSH1 0x40 MSTORE POP DUP2 ADD SWAP1 PUSH2 0x7D9 SWAP2 SWAP1 PUSH2 0x27AD JUMP JUMPDEST JUMPDEST PUSH2 0x819 JUMPI PUSH1 0x40 MLOAD PUSH32 0x8C379A000000000000000000000000000000000000000000000000000000000 DUP2 MSTORE PUSH1 0x4 ADD PUSH2 0x810 SWAP1 PUSH2 0x2C7A JUMP JUMPDEST PUSH1 0x40 MLOAD DUP1 SWAP2 SUB SWAP1 REVERT JUMPDEST PUSH2 0x822 DUP4 PUSH2 0x1727 JUMP JUMPDEST POP POP POP JUMP JUMPDEST PUSH1 0x60 PUSH32 0xA724C0857099DA33C38B932CE5D4E84578EE9792153085D9D5E379BFBA70CACB DUP1 PUSH2 0x855 DUP3 CALLER PUSH2 0x118A JUMP JUMPDEST DUP1 PUSH2 0x909 JUMPI POP PUSH1 0x3 PUSH1 0x0 SWAP1 SLOAD SWAP1 PUSH2 0x100 EXP SWAP1 DIV PUSH20 0xFFFFFFFFFFFFFFFFFFFFFFFFFFFFFFFFFFFFFFFF AND PUSH20 0xFFFFFFFFFFFFFFFFFFFFFFFFFFFFFFFFFFFFFFFF AND PUSH4 0xE9CB00A2 DUP3 CALLER PUSH1 0x40 MLOAD DUP4 PUSH4 0xFFFFFFFF AND PUSH1 0xE0 SHL DUP2 MSTORE PUSH1 0x4 ADD PUSH2 0x8B8 SWAP3 SWAP2 SWAP1 PUSH2 0x2C2F JUMP JUMPDEST PUSH1 0x20 PUSH1 0x40 MLOAD DUP1 DUP4 SUB DUP2 DUP7 DUP1 EXTCODESIZE ISZERO DUP1 ISZERO PUSH2 0x8D0 JUMPI PUSH1 0x0 DUP1 REVERT JUMPDEST POP GAS STATICCALL ISZERO DUP1 ISZERO PUSH2 0x8E4 JUMPI RETURNDATASIZE PUSH1 0x0 DUP1 RETURNDATACOPY RETURNDATASIZE PUSH1 0x0 REVERT JUMPDEST POP POP POP POP PUSH1 0x40 MLOAD RETURNDATASIZE PUSH1 0x1F NOT PUSH1 0x1F DUP3 ADD AND DUP3 ADD DUP1 PUSH1 0x40 MSTORE POP DUP2 ADD SWAP1 PUSH2 0x908 SWAP2 SWAP1 PUSH2 0x27AD JUMP JUMPDEST JUMPDEST PUSH2 0x948 JUMPI PUSH1 0x40 MLOAD PUSH32 0x8C379A000000000000000000000000000000000000000000000000000000000 DUP2 MSTORE PUSH1 0x4 ADD PUSH2 0x93F SWAP1 PUSH2 0x2C7A JUMP JUMPDEST PUSH1 0x40 MLOAD DUP1 SWAP2 SUB SWAP1 REVERT JUMPDEST PUSH2 0x951 DUP5 PUSH2 0x18C4 JUMP JUMPDEST SWAP3 POP POP POP SWAP2 SWAP1 POP JUMP JUMPDEST PUSH1 0x60 PUSH32 0xA724C0857099DA33C38B932CE5D4E84578EE9792153085D9D5E379BFBA70CACB DUP1 PUSH2 0x988 DUP3 CALLER PUSH2 0x118A JUMP JUMPDEST DUP1 PUSH2 0xA3C JUMPI POP PUSH1 0x3 PUSH1 0x0 SWAP1 SLOAD SWAP1 PUSH2 0x100 EXP SWAP1 DIV PUSH20 0xFFFFFFFFFFFFFFFFFFFFFFFFFFFFFFFFFFFFFFFF AND PUSH20 0xFFFFFFFFFFFFFFFFFFFFFFFFFFFFFFFFFFFFFFFF AND PUSH4 0xE9CB00A2 DUP3 CALLER PUSH1 0x40 MLOAD DUP4 PUSH4 0xFFFFFFFF AND PUSH1 0xE0 SHL DUP2 MSTORE PUSH1 0x4 ADD PUSH2 0x9EB SWAP3 SWAP2 SWAP1 PUSH2 0x2C2F JUMP JUMPDEST PUSH1 0x20 PUSH1 0x40 MLOAD DUP1 DUP4 SUB DUP2 DUP7 DUP1 EXTCODESIZE ISZERO DUP1 ISZERO PUSH2 0xA03 JUMPI PUSH1 0x0 DUP1 REVERT JUMPDEST POP GAS STATICCALL ISZERO DUP1 ISZERO PUSH2 0xA17 JUMPI RETURNDATASIZE PUSH1 0x0 DUP1 RETURNDATACOPY RETURNDATASIZE PUSH1 0x0 REVERT JUMPDEST POP POP POP POP PUSH1 0x40 MLOAD RETURNDATASIZE PUSH1 0x1F NOT PUSH1 0x1F DUP3 ADD AND DUP3 ADD DUP1 PUSH1 0x40 MSTORE POP DUP2 ADD SWAP1 PUSH2 0xA3B SWAP2 SWAP1 PUSH2 0x27AD JUMP JUMPDEST JUMPDEST PUSH2 0xA7B JUMPI PUSH1 0x40 MLOAD PUSH32 0x8C379A000000000000000000000000000000000000000000000000000000000 DUP2 MSTORE PUSH1 0x4 ADD PUSH2 0xA72 SWAP1 PUSH2 0x2C7A JUMP JUMPDEST PUSH1 0x40 MLOAD DUP1 SWAP2 SUB SWAP1 REVERT JUMPDEST PUSH2 0xA84 DUP5 PUSH2 0x19AD JUMP JUMPDEST SWAP3 POP POP POP SWAP2 SWAP1 POP JUMP JUMPDEST PUSH32 0x73D57861095ED1FF7B0E5C00E25F9FC922CF9164E617149EE7073F371364C954 PUSH32 0xDF8B4C520FFE197C5343C6F5AEC59570151EF9A492F2C624FD45DDDE6135EC42 PUSH2 0xAD9 DUP3 CALLER PUSH2 0x118A JUMP JUMPDEST DUP1 PUSH2 0xB8D JUMPI POP PUSH1 0x3 PUSH1 0x0 SWAP1 SLOAD SWAP1 PUSH2 0x100 EXP SWAP1 DIV PUSH20 0xFFFFFFFFFFFFFFFFFFFFFFFFFFFFFFFFFFFFFFFF AND PUSH20 0xFFFFFFFFFFFFFFFFFFFFFFFFFFFFFFFFFFFFFFFF AND PUSH4 0xE9CB00A2 DUP3 CALLER PUSH1 0x40 MLOAD DUP4 PUSH4 0xFFFFFFFF AND PUSH1 0xE0 SHL DUP2 MSTORE PUSH1 0x4 ADD PUSH2 0xB3C SWAP3 SWAP2 SWAP1 PUSH2 0x2C2F JUMP JUMPDEST PUSH1 0x20 PUSH1 0x40 MLOAD DUP1 DUP4 SUB DUP2 DUP7 DUP1 EXTCODESIZE ISZERO DUP1 ISZERO PUSH2 0xB54 JUMPI PUSH1 0x0 DUP1 REVERT JUMPDEST POP GAS STATICCALL ISZERO DUP1 ISZERO PUSH2 0xB68 JUMPI RETURNDATASIZE PUSH1 0x0 DUP1 RETURNDATACOPY RETURNDATASIZE PUSH1 0x0 REVERT JUMPDEST POP POP POP POP PUSH1 0x40 MLOAD RETURNDATASIZE PUSH1 0x1F NOT PUSH1 0x1F DUP3 ADD AND DUP3 ADD DUP1 PUSH1 0x40 MSTORE POP DUP2 ADD SWAP1 PUSH2 0xB8C SWAP2 SWAP1 PUSH2 0x27AD JUMP JUMPDEST JUMPDEST PUSH2 0xBCC JUMPI PUSH1 0x40 MLOAD PUSH32 0x8C379A000000000000000000000000000000000000000000000000000000000 DUP2 MSTORE PUSH1 0x4 ADD PUSH2 0xBC3 SWAP1 PUSH2 0x2C7A JUMP JUMPDEST PUSH1 0x40 MLOAD DUP1 SWAP2 SUB SWAP1 REVERT JUMPDEST PUSH2 0xBD6 DUP5 DUP5 PUSH2 0x1B3D JUMP JUMPDEST POP POP POP POP JUMP JUMPDEST PUSH1 0x4 DUP1 SLOAD PUSH2 0xBE9 SWAP1 PUSH2 0x2E33 JUMP JUMPDEST DUP1 PUSH1 0x1F ADD PUSH1 0x20 DUP1 SWAP2 DIV MUL PUSH1 0x20 ADD PUSH1 0x40 MLOAD SWAP1 DUP2 ADD PUSH1 0x40 MSTORE DUP1 SWAP3 SWAP2 SWAP1 DUP2 DUP2 MSTORE PUSH1 0x20 ADD DUP3 DUP1 SLOAD PUSH2 0xC15 SWAP1 PUSH2 0x2E33 JUMP JUMPDEST DUP1 ISZERO PUSH2 0xC62 JUMPI DUP1 PUSH1 0x1F LT PUSH2 0xC37 JUMPI PUSH2 0x100 DUP1 DUP4 SLOAD DIV MUL DUP4 MSTORE SWAP2 PUSH1 0x20 ADD SWAP2 PUSH2 0xC62 JUMP JUMPDEST DUP3 ADD SWAP2 SWAP1 PUSH1 0x0 MSTORE PUSH1 0x20 PUSH1 0x0 KECCAK256 SWAP1 JUMPDEST DUP2 SLOAD DUP2 MSTORE SWAP1 PUSH1 0x1 ADD SWAP1 PUSH1 0x20 ADD DUP1 DUP4 GT PUSH2 0xC45 JUMPI DUP3 SWAP1 SUB PUSH1 0x1F AND DUP3 ADD SWAP2 JUMPDEST POP POP POP POP POP DUP2 JUMP JUMPDEST PUSH32 0x73D57861095ED1FF7B0E5C00E25F9FC922CF9164E617149EE7073F371364C954 PUSH32 0xDF8B4C520FFE197C5343C6F5AEC59570151EF9A492F2C624FD45DDDE6135EC42 PUSH2 0xCB6 DUP3 CALLER PUSH2 0x118A JUMP JUMPDEST DUP1 PUSH2 0xD6A JUMPI POP PUSH1 0x3 PUSH1 0x0 SWAP1 SLOAD SWAP1 PUSH2 0x100 EXP SWAP1 DIV PUSH20 0xFFFFFFFFFFFFFFFFFFFFFFFFFFFFFFFFFFFFFFFF AND PUSH20 0xFFFFFFFFFFFFFFFFFFFFFFFFFFFFFFFFFFFFFFFF AND PUSH4 0xE9CB00A2 DUP3 CALLER PUSH1 0x40 MLOAD DUP4 PUSH4 0xFFFFFFFF AND PUSH1 0xE0 SHL DUP2 MSTORE PUSH1 0x4 ADD PUSH2 0xD19 SWAP3 SWAP2 SWAP1 PUSH2 0x2C2F JUMP JUMPDEST PUSH1 0x20 PUSH1 0x40 MLOAD DUP1 DUP4 SUB DUP2 DUP7 DUP1 EXTCODESIZE ISZERO DUP1 ISZERO PUSH2 0xD31 JUMPI PUSH1 0x0 DUP1 REVERT JUMPDEST POP GAS STATICCALL ISZERO DUP1 ISZERO PUSH2 0xD45 JUMPI RETURNDATASIZE PUSH1 0x0 DUP1 RETURNDATACOPY RETURNDATASIZE PUSH1 0x0 REVERT JUMPDEST POP POP POP POP PUSH1 0x40 MLOAD RETURNDATASIZE PUSH1 0x1F NOT PUSH1 0x1F DUP3 ADD AND DUP3 ADD DUP1 PUSH1 0x40 MSTORE POP DUP2 ADD SWAP1 PUSH2 0xD69 SWAP2 SWAP1 PUSH2 0x27AD JUMP JUMPDEST JUMPDEST PUSH2 0xDA9 JUMPI PUSH1 0x40 MLOAD PUSH32 0x8C379A000000000000000000000000000000000000000000000000000000000 DUP2 MSTORE PUSH1 0x4 ADD PUSH2 0xDA0 SWAP1 PUSH2 0x2C7A JUMP JUMPDEST PUSH1 0x40 MLOAD DUP1 SWAP2 SUB SWAP1 REVERT JUMPDEST PUSH2 0xDB2 DUP4 PUSH2 0x1E33 JUMP JUMPDEST POP POP POP JUMP JUMPDEST PUSH32 0x73D57861095ED1FF7B0E5C00E25F9FC922CF9164E617149EE7073F371364C954 PUSH32 0xDF8B4C520FFE197C5343C6F5AEC59570151EF9A492F2C624FD45DDDE6135EC42 PUSH2 0xE03 DUP3 CALLER PUSH2 0x118A JUMP JUMPDEST DUP1 PUSH2 0xEB7 JUMPI POP PUSH1 0x3 PUSH1 0x0 SWAP1 SLOAD SWAP1 PUSH2 0x100 EXP SWAP1 DIV PUSH20 0xFFFFFFFFFFFFFFFFFFFFFFFFFFFFFFFFFFFFFFFF AND PUSH20 0xFFFFFFFFFFFFFFFFFFFFFFFFFFFFFFFFFFFFFFFF AND PUSH4 0xE9CB00A2 DUP3 CALLER PUSH1 0x40 MLOAD DUP4 PUSH4 0xFFFFFFFF AND PUSH1 0xE0 SHL DUP2 MSTORE PUSH1 0x4 ADD PUSH2 0xE66 SWAP3 SWAP2 SWAP1 PUSH2 0x2C2F JUMP JUMPDEST PUSH1 0x20 PUSH1 0x40 MLOAD DUP1 DUP4 SUB DUP2 DUP7 DUP1 EXTCODESIZE ISZERO DUP1 ISZERO PUSH2 0xE7E JUMPI PUSH1 0x0 DUP1 REVERT JUMPDEST POP GAS STATICCALL ISZERO DUP1 ISZERO PUSH2 0xE92 JUMPI RETURNDATASIZE PUSH1 0x0 DUP1 RETURNDATACOPY RETURNDATASIZE PUSH1 0x0 REVERT JUMPDEST POP POP POP POP PUSH1 0x40 MLOAD RETURNDATASIZE PUSH1 0x1F NOT PUSH1 0x1F DUP3 ADD AND DUP3 ADD DUP1 PUSH1 0x40 MSTORE POP DUP2 ADD SWAP1 PUSH2 0xEB6 SWAP2 SWAP1 PUSH2 0x27AD JUMP JUMPDEST JUMPDEST PUSH2 0xEF6 JUMPI PUSH1 0x40 MLOAD PUSH32 0x8C379A000000000000000000000000000000000000000000000000000000000 DUP2 MSTORE PUSH1 0x4 ADD PUSH2 0xEED SWAP1 PUSH2 0x2C7A JUMP JUMPDEST PUSH1 0x40 MLOAD DUP1 SWAP2 SUB SWAP1 REVERT JUMPDEST PUSH2 0xF00 DUP5 DUP5 PUSH2 0x219B JUMP JUMPDEST POP POP POP POP JUMP JUMPDEST PUSH32 0x73D57861095ED1FF7B0E5C00E25F9FC922CF9164E617149EE7073F371364C954 PUSH32 0xDF8B4C520FFE197C5343C6F5AEC59570151EF9A492F2C624FD45DDDE6135EC42 PUSH2 0xF52 DUP3 CALLER PUSH2 0x118A JUMP JUMPDEST DUP1 PUSH2 0x1006 JUMPI POP PUSH1 0x3 PUSH1 0x0 SWAP1 SLOAD SWAP1 PUSH2 0x100 EXP SWAP1 DIV PUSH20 0xFFFFFFFFFFFFFFFFFFFFFFFFFFFFFFFFFFFFFFFF AND PUSH20 0xFFFFFFFFFFFFFFFFFFFFFFFFFFFFFFFFFFFFFFFF AND PUSH4 0xE9CB00A2 DUP3 CALLER PUSH1 0x40 MLOAD DUP4 PUSH4 0xFFFFFFFF AND PUSH1 0xE0 SHL DUP2 MSTORE PUSH1 0x4 ADD PUSH2 0xFB5 SWAP3 SWAP2 SWAP1 PUSH2 0x2C2F JUMP JUMPDEST PUSH1 0x20 PUSH1 0x40 MLOAD DUP1 DUP4 SUB DUP2 DUP7 DUP1 EXTCODESIZE ISZERO DUP1 ISZERO PUSH2 0xFCD JUMPI PUSH1 0x0 DUP1 REVERT JUMPDEST POP GAS STATICCALL ISZERO DUP1 ISZERO PUSH2 0xFE1 JUMPI RETURNDATASIZE PUSH1 0x0 DUP1 RETURNDATACOPY RETURNDATASIZE PUSH1 0x0 REVERT JUMPDEST POP POP POP POP PUSH1 0x40 MLOAD RETURNDATASIZE PUSH1 0x1F NOT PUSH1 0x1F DUP3 ADD AND DUP3 ADD DUP1 PUSH1 0x40 MSTORE POP DUP2 ADD SWAP1 PUSH2 0x1005 SWAP2 SWAP1 PUSH2 0x27AD JUMP JUMPDEST JUMPDEST PUSH2 0x1045 JUMPI PUSH1 0x40 MLOAD PUSH32 0x8C379A000000000000000000000000000000000000000000000000000000000 DUP2 MSTORE PUSH1 0x4 ADD PUSH2 0x103C SWAP1 PUSH2 0x2C7A JUMP JUMPDEST PUSH1 0x40 MLOAD DUP1 SWAP2 SUB SWAP1 REVERT JUMPDEST PUSH2 0x104F DUP5 DUP5 PUSH2 0x2329 JUMP JUMPDEST POP POP POP POP JUMP JUMPDEST PUSH1 0x0 PUSH32 0xA724C0857099DA33C38B932CE5D4E84578EE9792153085D9D5E379BFBA70CACB DUP1 PUSH2 0x1083 DUP3 CALLER PUSH2 0x118A JUMP JUMPDEST DUP1 PUSH2 0x1137 JUMPI POP PUSH1 0x3 PUSH1 0x0 SWAP1 SLOAD SWAP1 PUSH2 0x100 EXP SWAP1 DIV PUSH20 0xFFFFFFFFFFFFFFFFFFFFFFFFFFFFFFFFFFFFFFFF AND PUSH20 0xFFFFFFFFFFFFFFFFFFFFFFFFFFFFFFFFFFFFFFFF AND PUSH4 0xE9CB00A2 DUP3 CALLER PUSH1 0x40 MLOAD DUP4 PUSH4 0xFFFFFFFF AND PUSH1 0xE0 SHL DUP2 MSTORE PUSH1 0x4 ADD PUSH2 0x10E6 SWAP3 SWAP2 SWAP1 PUSH2 0x2C2F JUMP JUMPDEST PUSH1 0x20 PUSH1 0x40 MLOAD DUP1 DUP4 SUB DUP2 DUP7 DUP1 EXTCODESIZE ISZERO DUP1 ISZERO PUSH2 0x10FE JUMPI PUSH1 0x0 DUP1 REVERT JUMPDEST POP GAS STATICCALL ISZERO DUP1 ISZERO PUSH2 0x1112 JUMPI RETURNDATASIZE PUSH1 0x0 DUP1 RETURNDATACOPY RETURNDATASIZE PUSH1 0x0 REVERT JUMPDEST POP POP POP POP PUSH1 0x40 MLOAD RETURNDATASIZE PUSH1 0x1F NOT PUSH1 0x1F DUP3 ADD AND DUP3 ADD DUP1 PUSH1 0x40 MSTORE POP DUP2 ADD SWAP1 PUSH2 0x1136 SWAP2 SWAP1 PUSH2 0x27AD JUMP JUMPDEST JUMPDEST PUSH2 0x1176 JUMPI PUSH1 0x40 MLOAD PUSH32 0x8C379A000000000000000000000000000000000000000000000000000000000 DUP2 MSTORE PUSH1 0x4 ADD PUSH2 0x116D SWAP1 PUSH2 0x2C7A JUMP JUMPDEST PUSH1 0x40 MLOAD DUP1 SWAP2 SUB SWAP1 REVERT JUMPDEST PUSH2 0x1180 DUP6 DUP6 PUSH2 0x2477 JUMP JUMPDEST SWAP3 POP POP POP SWAP3 SWAP2 POP POP JUMP JUMPDEST PUSH1 0x0 DUP1 PUSH1 0x0 DUP5 DUP2 MSTORE PUSH1 0x20 ADD SWAP1 DUP2 MSTORE PUSH1 0x20 ADD PUSH1 0x0 KECCAK256 PUSH1 0x3 ADD PUSH1 0x0 SWAP1 SLOAD SWAP1 PUSH2 0x100 EXP SWAP1 DIV PUSH1 0xFF AND PUSH2 0x11BC JUMPI PUSH1 0x0 SWAP1 POP PUSH2 0x121F JUMP JUMPDEST PUSH1 0x0 DUP1 DUP5 DUP2 MSTORE PUSH1 0x20 ADD SWAP1 DUP2 MSTORE PUSH1 0x20 ADD PUSH1 0x0 KECCAK256 PUSH1 0x0 ADD PUSH1 0x0 DUP4 PUSH20 0xFFFFFFFFFFFFFFFFFFFFFFFFFFFFFFFFFFFFFFFF AND PUSH20 0xFFFFFFFFFFFFFFFFFFFFFFFFFFFFFFFFFFFFFFFF AND DUP2 MSTORE PUSH1 0x20 ADD SWAP1 DUP2 MSTORE PUSH1 0x20 ADD PUSH1 0x0 KECCAK256 PUSH1 0x0 SWAP1 SLOAD SWAP1 PUSH2 0x100 EXP SWAP1 DIV PUSH1 0xFF AND SWAP1 POP JUMPDEST SWAP3 SWAP2 POP POP JUMP JUMPDEST PUSH1 0x0 DUP2 DUP1 MLOAD SWAP1 PUSH1 0x20 ADD KECCAK256 SWAP1 POP PUSH1 0x0 DUP1 DUP3 DUP2 MSTORE PUSH1 0x20 ADD SWAP1 DUP2 MSTORE PUSH1 0x20 ADD PUSH1 0x0 KECCAK256 PUSH1 0x3 ADD PUSH1 0x0 SWAP1 SLOAD SWAP1 PUSH2 0x100 EXP SWAP1 DIV PUSH1 0xFF AND DUP1 ISZERO PUSH2 0x1280 JUMPI POP PUSH32 0xDF8B4C520FFE197C5343C6F5AEC59570151EF9A492F2C624FD45DDDE6135EC42 DUP2 EQ ISZERO JUMPDEST ISZERO PUSH2 0x1311 JUMPI PUSH1 0x0 DUP1 PUSH1 0x0 DUP4 DUP2 MSTORE PUSH1 0x20 ADD SWAP1 DUP2 MSTORE PUSH1 0x20 ADD PUSH1 0x0 KECCAK256 PUSH1 0x3 ADD PUSH1 0x0 PUSH2 0x100 EXP DUP2 SLOAD DUP2 PUSH1 0xFF MUL NOT AND SWAP1 DUP4 ISZERO ISZERO MUL OR SWAP1 SSTORE POP CALLER PUSH20 0xFFFFFFFFFFFFFFFFFFFFFFFFFFFFFFFFFFFFFFFF AND DUP3 PUSH1 0x40 MLOAD PUSH2 0x12D8 SWAP2 SWAP1 PUSH2 0x2B7C JUMP JUMPDEST PUSH1 0x40 MLOAD DUP1 SWAP2 SUB SWAP1 KECCAK256 PUSH32 0xEF4F3ADABB4CE2CC6076CC23D211EFF03F6E49839A9D773D7C77F48A83A2D859 PUSH1 0x40 MLOAD PUSH1 0x40 MLOAD DUP1 SWAP2 SUB SWAP1 LOG3 PUSH2 0x1350 JUMP JUMPDEST PUSH2 0x134F PUSH1 0x40 MLOAD DUP1 PUSH1 0x40 ADD PUSH1 0x40 MSTORE DUP1 PUSH1 0x1C DUP2 MSTORE PUSH1 0x20 ADD PUSH32 0x546865207065726D697373696F6E206973206E6F742076616C69642E00000000 DUP2 MSTORE POP PUSH2 0x248B JUMP JUMPDEST JUMPDEST POP POP JUMP JUMPDEST PUSH2 0x137E PUSH32 0xDF8B4C520FFE197C5343C6F5AEC59570151EF9A492F2C624FD45DDDE6135EC42 DUP3 PUSH2 0x118A JUMP JUMPDEST ISZERO DUP1 PUSH2 0x13B0 JUMPI POP PUSH2 0x13AF PUSH32 0xDF8B4C520FFE197C5343C6F5AEC59570151EF9A492F2C624FD45DDDE6135EC42 CALLER PUSH2 0x118A JUMP JUMPDEST JUMPDEST ISZERO PUSH2 0x1530 JUMPI PUSH1 0x0 PUSH1 0x1 SWAP1 POP JUMPDEST PUSH1 0x2 SLOAD DUP2 LT ISZERO PUSH2 0x14D0 JUMPI PUSH1 0x0 DUP1 PUSH1 0x1 PUSH1 0x0 DUP5 DUP2 MSTORE PUSH1 0x20 ADD SWAP1 DUP2 MSTORE PUSH1 0x20 ADD PUSH1 0x0 KECCAK256 SLOAD DUP2 MSTORE PUSH1 0x20 ADD SWAP1 DUP2 MSTORE PUSH1 0x20 ADD PUSH1 0x0 KECCAK256 PUSH1 0x0 ADD PUSH1 0x0 DUP4 PUSH20 0xFFFFFFFFFFFFFFFFFFFFFFFFFFFFFFFFFFFFFFFF AND PUSH20 0xFFFFFFFFFFFFFFFFFFFFFFFFFFFFFFFFFFFFFFFF AND DUP2 MSTORE PUSH1 0x20 ADD SWAP1 DUP2 MSTORE PUSH1 0x20 ADD PUSH1 0x0 KECCAK256 PUSH1 0x0 SWAP1 SLOAD SWAP1 PUSH2 0x100 EXP SWAP1 DIV PUSH1 0xFF AND ISZERO PUSH2 0x14BD JUMPI PUSH1 0x0 DUP1 PUSH1 0x0 PUSH1 0x1 PUSH1 0x0 DUP6 DUP2 MSTORE PUSH1 0x20 ADD SWAP1 DUP2 MSTORE PUSH1 0x20 ADD PUSH1 0x0 KECCAK256 SLOAD DUP2 MSTORE PUSH1 0x20 ADD SWAP1 DUP2 MSTORE PUSH1 0x20 ADD PUSH1 0x0 KECCAK256 PUSH1 0x0 ADD PUSH1 0x0 DUP5 PUSH20 0xFFFFFFFFFFFFFFFFFFFFFFFFFFFFFFFFFFFFFFFF AND PUSH20 0xFFFFFFFFFFFFFFFFFFFFFFFFFFFFFFFFFFFFFFFF AND DUP2 MSTORE PUSH1 0x20 ADD SWAP1 DUP2 MSTORE PUSH1 0x20 ADD PUSH1 0x0 KECCAK256 PUSH1 0x0 PUSH2 0x100 EXP DUP2 SLOAD DUP2 PUSH1 0xFF MUL NOT AND SWAP1 DUP4 ISZERO ISZERO MUL OR SWAP1 SSTORE POP JUMPDEST DUP1 DUP1 PUSH2 0x14C8 SWAP1 PUSH2 0x2E96 JUMP JUMPDEST SWAP2 POP POP PUSH2 0x13BC JUMP JUMPDEST POP CALLER PUSH20 0xFFFFFFFFFFFFFFFFFFFFFFFFFFFFFFFFFFFFFFFF AND DUP2 PUSH20 0xFFFFFFFFFFFFFFFFFFFFFFFFFFFFFFFFFFFFFFFF AND PUSH32 0xFD7E144A5E02C1180E00F9591EF4F60AA95B127C4F134847224A4B6CB99FEF96 PUSH1 0x40 MLOAD PUSH1 0x40 MLOAD DUP1 SWAP2 SUB SWAP1 LOG3 PUSH2 0x156F JUMP JUMPDEST PUSH2 0x156E PUSH1 0x40 MLOAD DUP1 PUSH1 0x40 ADD PUSH1 0x40 MSTORE DUP1 PUSH1 0x18 DUP2 MSTORE PUSH1 0x20 ADD PUSH32 0x596F752063616E6E6F742064656C6574652041444D494E2E0000000000000000 DUP2 MSTORE POP PUSH2 0x248B JUMP JUMPDEST JUMPDEST POP JUMP JUMPDEST PUSH1 0x0 DUP1 PUSH1 0x0 SWAP1 POP JUMPDEST PUSH1 0x0 DUP1 PUSH32 0xDF8B4C520FFE197C5343C6F5AEC59570151EF9A492F2C624FD45DDDE6135EC42 DUP2 MSTORE PUSH1 0x20 ADD SWAP1 DUP2 MSTORE PUSH1 0x20 ADD PUSH1 0x0 KECCAK256 PUSH1 0x2 ADD SLOAD DUP2 LT ISZERO PUSH2 0x16BA JUMPI PUSH1 0x0 DUP1 PUSH32 0xDF8B4C520FFE197C5343C6F5AEC59570151EF9A492F2C624FD45DDDE6135EC42 DUP2 MSTORE PUSH1 0x20 ADD SWAP1 DUP2 MSTORE PUSH1 0x20 ADD PUSH1 0x0 KECCAK256 PUSH1 0x0 ADD PUSH1 0x0 DUP1 PUSH1 0x0 PUSH32 0xDF8B4C520FFE197C5343C6F5AEC59570151EF9A492F2C624FD45DDDE6135EC42 DUP2 MSTORE PUSH1 0x20 ADD SWAP1 DUP2 MSTORE PUSH1 0x20 ADD PUSH1 0x0 KECCAK256 PUSH1 0x1 ADD PUSH1 0x0 DUP5 DUP2 MSTORE PUSH1 0x20 ADD SWAP1 DUP2 MSTORE PUSH1 0x20 ADD PUSH1 0x0 KECCAK256 PUSH1 0x0 SWAP1 SLOAD SWAP1 PUSH2 0x100 EXP SWAP1 DIV PUSH20 0xFFFFFFFFFFFFFFFFFFFFFFFFFFFFFFFFFFFFFFFF AND PUSH20 0xFFFFFFFFFFFFFFFFFFFFFFFFFFFFFFFFFFFFFFFF AND PUSH20 0xFFFFFFFFFFFFFFFFFFFFFFFFFFFFFFFFFFFFFFFF AND DUP2 MSTORE PUSH1 0x20 ADD SWAP1 DUP2 MSTORE PUSH1 0x20 ADD PUSH1 0x0 KECCAK256 PUSH1 0x0 SWAP1 SLOAD SWAP1 PUSH2 0x100 EXP SWAP1 DIV PUSH1 0xFF AND ISZERO PUSH2 0x16A7 JUMPI PUSH2 0x16BA JUMP JUMPDEST DUP1 DUP1 PUSH2 0x16B2 SWAP1 PUSH2 0x2E96 JUMP JUMPDEST SWAP2 POP POP PUSH2 0x157A JUMP JUMPDEST PUSH1 0x0 DUP1 PUSH32 0xDF8B4C520FFE197C5343C6F5AEC59570151EF9A492F2C624FD45DDDE6135EC42 DUP2 MSTORE PUSH1 0x20 ADD SWAP1 DUP2 MSTORE PUSH1 0x20 ADD PUSH1 0x0 KECCAK256 PUSH1 0x1 ADD PUSH1 0x0 DUP3 DUP2 MSTORE PUSH1 0x20 ADD SWAP1 DUP2 MSTORE PUSH1 0x20 ADD PUSH1 0x0 KECCAK256 PUSH1 0x0 SWAP1 SLOAD SWAP1 PUSH2 0x100 EXP SWAP1 DIV PUSH20 0xFFFFFFFFFFFFFFFFFFFFFFFFFFFFFFFFFFFFFFFF AND SWAP2 POP POP SWAP1 JUMP JUMPDEST PUSH1 0x0 DUP1 PUSH1 0x0 PUSH32 0xDF8B4C520FFE197C5343C6F5AEC59570151EF9A492F2C624FD45DDDE6135EC42 DUP2 MSTORE PUSH1 0x20 ADD SWAP1 DUP2 MSTORE PUSH1 0x20 ADD PUSH1 0x0 KECCAK256 PUSH1 0x0 ADD PUSH1 0x0 CALLER PUSH20 0xFFFFFFFFFFFFFFFFFFFFFFFFFFFFFFFFFFFFFFFF AND PUSH20 0xFFFFFFFFFFFFFFFFFFFFFFFFFFFFFFFFFFFFFFFF AND DUP2 MSTORE PUSH1 0x20 ADD SWAP1 DUP2 MSTORE PUSH1 0x20 ADD PUSH1 0x0 KECCAK256 PUSH1 0x0 PUSH2 0x100 EXP DUP2 SLOAD DUP2 PUSH1 0xFF MUL NOT AND SWAP1 DUP4 ISZERO ISZERO MUL OR SWAP1 SSTORE POP PUSH2 0x17DC PUSH32 0xDF8B4C520FFE197C5343C6F5AEC59570151EF9A492F2C624FD45DDDE6135EC42 DUP3 PUSH2 0x24E7 JUMP JUMPDEST PUSH1 0x1 PUSH1 0x0 DUP1 PUSH32 0xDF8B4C520FFE197C5343C6F5AEC59570151EF9A492F2C624FD45DDDE6135EC42 DUP2 MSTORE PUSH1 0x20 ADD SWAP1 DUP2 MSTORE PUSH1 0x20 ADD PUSH1 0x0 KECCAK256 PUSH1 0x0 ADD PUSH1 0x0 DUP4 PUSH20 0xFFFFFFFFFFFFFFFFFFFFFFFFFFFFFFFFFFFFFFFF AND PUSH20 0xFFFFFFFFFFFFFFFFFFFFFFFFFFFFFFFFFFFFFFFF AND DUP2 MSTORE PUSH1 0x20 ADD SWAP1 DUP2 MSTORE PUSH1 0x20 ADD PUSH1 0x0 KECCAK256 PUSH1 0x0 PUSH2 0x100 EXP DUP2 SLOAD DUP2 PUSH1 0xFF MUL NOT AND SWAP1 DUP4 ISZERO ISZERO MUL OR SWAP1 SSTORE POP CALLER PUSH20 0xFFFFFFFFFFFFFFFFFFFFFFFFFFFFFFFFFFFFFFFF AND DUP2 PUSH20 0xFFFFFFFFFFFFFFFFFFFFFFFFFFFFFFFFFFFFFFFF AND PUSH32 0x173DE3514D8508F36CE8C81D509ADCD8C8C76098400F685D3042B36F9A4160C3 PUSH1 0x40 MLOAD PUSH1 0x40 MLOAD DUP1 SWAP2 SUB SWAP1 LOG3 POP JUMP JUMPDEST PUSH1 0x60 DUP1 PUSH1 0x0 DUP1 JUMPDEST PUSH1 0x2 SLOAD DUP2 LT ISZERO PUSH2 0x19A2 JUMPI PUSH1 0x0 DUP1 PUSH1 0x1 PUSH1 0x0 DUP5 DUP2 MSTORE PUSH1 0x20 ADD SWAP1 DUP2 MSTORE PUSH1 0x20 ADD PUSH1 0x0 KECCAK256 SLOAD DUP2 MSTORE PUSH1 0x20 ADD SWAP1 DUP2 MSTORE PUSH1 0x20 ADD PUSH1 0x0 KECCAK256 PUSH1 0x0 ADD PUSH1 0x0 DUP7 PUSH20 0xFFFFFFFFFFFFFFFFFFFFFFFFFFFFFFFFFFFFFFFF AND PUSH20 0xFFFFFFFFFFFFFFFFFFFFFFFFFFFFFFFFFFFFFFFF AND DUP2 MSTORE PUSH1 0x20 ADD SWAP1 DUP2 MSTORE PUSH1 0x20 ADD PUSH1 0x0 KECCAK256 PUSH1 0x0 SWAP1 SLOAD SWAP1 PUSH2 0x100 EXP SWAP1 DIV PUSH1 0xFF AND ISZERO PUSH2 0x198F JUMPI PUSH1 0x1 PUSH1 0x0 DUP3 DUP2 MSTORE PUSH1 0x20 ADD SWAP1 DUP2 MSTORE PUSH1 0x20 ADD PUSH1 0x0 KECCAK256 SLOAD DUP4 DUP4 DUP2 MLOAD DUP2 LT PUSH2 0x1974 JUMPI PUSH2 0x1973 PUSH2 0x2F3D JUMP JUMPDEST JUMPDEST PUSH1 0x20 MUL PUSH1 0x20 ADD ADD DUP2 DUP2 MSTORE POP POP DUP2 DUP1 PUSH2 0x198B SWAP1 PUSH2 0x2E96 JUMP JUMPDEST SWAP3 POP POP JUMPDEST DUP1 DUP1 PUSH2 0x199A SWAP1 PUSH2 0x2E96 JUMP JUMPDEST SWAP2 POP POP PUSH2 0x18CB JUMP JUMPDEST POP DUP2 SWAP3 POP POP POP SWAP2 SWAP1 POP JUMP JUMPDEST PUSH1 0x60 DUP1 PUSH1 0x0 DUP1 JUMPDEST PUSH1 0x0 DUP1 DUP7 DUP2 MSTORE PUSH1 0x20 ADD SWAP1 DUP2 MSTORE PUSH1 0x20 ADD PUSH1 0x0 KECCAK256 PUSH1 0x2 ADD SLOAD DUP2 LT ISZERO PUSH2 0x1B32 JUMPI PUSH1 0x0 DUP1 DUP7 DUP2 MSTORE PUSH1 0x20 ADD SWAP1 DUP2 MSTORE PUSH1 0x20 ADD PUSH1 0x0 KECCAK256 PUSH1 0x0 ADD PUSH1 0x0 DUP1 PUSH1 0x0 DUP9 DUP2 MSTORE PUSH1 0x20 ADD SWAP1 DUP2 MSTORE PUSH1 0x20 ADD PUSH1 0x0 KECCAK256 PUSH1 0x1 ADD PUSH1 0x0 DUP5 DUP2 MSTORE PUSH1 0x20 ADD SWAP1 DUP2 MSTORE PUSH1 0x20 ADD PUSH1 0x0 KECCAK256 PUSH1 0x0 SWAP1 SLOAD SWAP1 PUSH2 0x100 EXP SWAP1 DIV PUSH20 0xFFFFFFFFFFFFFFFFFFFFFFFFFFFFFFFFFFFFFFFF AND PUSH20 0xFFFFFFFFFFFFFFFFFFFFFFFFFFFFFFFFFFFFFFFF AND PUSH20 0xFFFFFFFFFFFFFFFFFFFFFFFFFFFFFFFFFFFFFFFF AND DUP2 MSTORE PUSH1 0x20 ADD SWAP1 DUP2 MSTORE PUSH1 0x20 ADD PUSH1 0x0 KECCAK256 PUSH1 0x0 SWAP1 SLOAD SWAP1 PUSH2 0x100 EXP SWAP1 DIV PUSH1 0xFF AND ISZERO PUSH2 0x1B1F JUMPI PUSH1 0x0 DUP1 DUP7 DUP2 MSTORE PUSH1 0x20 ADD SWAP1 DUP2 MSTORE PUSH1 0x20 ADD PUSH1 0x0 KECCAK256 PUSH1 0x1 ADD PUSH1 0x0 DUP3 DUP2 MSTORE PUSH1 0x20 ADD SWAP1 DUP2 MSTORE PUSH1 0x20 ADD PUSH1 0x0 KECCAK256 PUSH1 0x0 SWAP1 SLOAD SWAP1 PUSH2 0x100 EXP SWAP1 DIV PUSH20 0xFFFFFFFFFFFFFFFFFFFFFFFFFFFFFFFFFFFFFFFF AND DUP4 DUP4 DUP2 MLOAD DUP2 LT PUSH2 0x1AD6 JUMPI PUSH2 0x1AD5 PUSH2 0x2F3D JUMP JUMPDEST JUMPDEST PUSH1 0x20 MUL PUSH1 0x20 ADD ADD SWAP1 PUSH20 0xFFFFFFFFFFFFFFFFFFFFFFFFFFFFFFFFFFFFFFFF AND SWAP1 DUP2 PUSH20 0xFFFFFFFFFFFFFFFFFFFFFFFFFFFFFFFFFFFFFFFF AND DUP2 MSTORE POP POP DUP2 DUP1 PUSH2 0x1B1B SWAP1 PUSH2 0x2E96 JUMP JUMPDEST SWAP3 POP POP JUMPDEST DUP1 DUP1 PUSH2 0x1B2A SWAP1 PUSH2 0x2E96 JUMP JUMPDEST SWAP2 POP POP PUSH2 0x19B4 JUMP JUMPDEST POP DUP2 SWAP3 POP POP POP SWAP2 SWAP1 POP JUMP JUMPDEST PUSH1 0x0 DUP3 DUP1 MLOAD SWAP1 PUSH1 0x20 ADD KECCAK256 SWAP1 POP PUSH1 0x0 DUP3 DUP1 MLOAD SWAP1 PUSH1 0x20 ADD KECCAK256 SWAP1 POP PUSH1 0x0 DUP1 DUP4 DUP2 MSTORE PUSH1 0x20 ADD SWAP1 DUP2 MSTORE PUSH1 0x20 ADD PUSH1 0x0 KECCAK256 PUSH1 0x3 ADD PUSH1 0x0 SWAP1 SLOAD SWAP1 PUSH2 0x100 EXP SWAP1 DIV PUSH1 0xFF AND PUSH2 0x1DEE JUMPI PUSH2 0x1B85 DUP3 PUSH2 0x264F JUMP JUMPDEST PUSH1 0x1 PUSH1 0x0 DUP1 DUP5 DUP2 MSTORE PUSH1 0x20 ADD SWAP1 DUP2 MSTORE PUSH1 0x20 ADD PUSH1 0x0 KECCAK256 PUSH1 0x3 ADD PUSH1 0x0 PUSH2 0x100 EXP DUP2 SLOAD DUP2 PUSH1 0xFF MUL NOT AND SWAP1 DUP4 ISZERO ISZERO MUL OR SWAP1 SSTORE POP PUSH1 0x0 JUMPDEST PUSH1 0x0 DUP1 DUP4 DUP2 MSTORE PUSH1 0x20 ADD SWAP1 DUP2 MSTORE PUSH1 0x20 ADD PUSH1 0x0 KECCAK256 PUSH1 0x2 ADD SLOAD DUP2 LT ISZERO PUSH2 0x1D60 JUMPI PUSH1 0x0 DUP1 PUSH1 0x0 DUP5 DUP2 MSTORE PUSH1 0x20 ADD SWAP1 DUP2 MSTORE PUSH1 0x20 ADD PUSH1 0x0 KECCAK256 PUSH1 0x1 ADD PUSH1 0x0 DUP4 DUP2 MSTORE PUSH1 0x20 ADD SWAP1 DUP2 MSTORE PUSH1 0x20 ADD PUSH1 0x0 KECCAK256 PUSH1 0x0 SWAP1 SLOAD SWAP1 PUSH2 0x100 EXP SWAP1 DIV PUSH20 0xFFFFFFFFFFFFFFFFFFFFFFFFFFFFFFFFFFFFFFFF AND SWAP1 POP PUSH1 0x0 DUP1 DUP5 DUP2 MSTORE PUSH1 0x20 ADD SWAP1 DUP2 MSTORE PUSH1 0x20 ADD PUSH1 0x0 KECCAK256 PUSH1 0x0 ADD PUSH1 0x0 DUP3 PUSH20 0xFFFFFFFFFFFFFFFFFFFFFFFFFFFFFFFFFFFFFFFF AND PUSH20 0xFFFFFFFFFFFFFFFFFFFFFFFFFFFFFFFFFFFFFFFF AND DUP2 MSTORE PUSH1 0x20 ADD SWAP1 DUP2 MSTORE PUSH1 0x20 ADD PUSH1 0x0 KECCAK256 PUSH1 0x0 SWAP1 SLOAD SWAP1 PUSH2 0x100 EXP SWAP1 DIV PUSH1 0xFF AND PUSH1 0x0 DUP1 DUP7 DUP2 MSTORE PUSH1 0x20 ADD SWAP1 DUP2 MSTORE PUSH1 0x20 ADD PUSH1 0x0 KECCAK256 PUSH1 0x0 ADD PUSH1 0x0 DUP4 PUSH20 0xFFFFFFFFFFFFFFFFFFFFFFFFFFFFFFFFFFFFFFFF AND PUSH20 0xFFFFFFFFFFFFFFFFFFFFFFFFFFFFFFFFFFFFFFFF AND DUP2 MSTORE PUSH1 0x20 ADD SWAP1 DUP2 MSTORE PUSH1 0x20 ADD PUSH1 0x0 KECCAK256 PUSH1 0x0 PUSH2 0x100 EXP DUP2 SLOAD DUP2 PUSH1 0xFF MUL NOT AND SWAP1 DUP4 ISZERO ISZERO MUL OR SWAP1 SSTORE POP DUP1 PUSH1 0x0 DUP1 DUP7 DUP2 MSTORE PUSH1 0x20 ADD SWAP1 DUP2 MSTORE PUSH1 0x20 ADD PUSH1 0x0 KECCAK256 PUSH1 0x1 ADD PUSH1 0x0 DUP5 DUP2 MSTORE PUSH1 0x20 ADD SWAP1 DUP2 MSTORE PUSH1 0x20 ADD PUSH1 0x0 KECCAK256 PUSH1 0x0 PUSH2 0x100 EXP DUP2 SLOAD DUP2 PUSH20 0xFFFFFFFFFFFFFFFFFFFFFFFFFFFFFFFFFFFFFFFF MUL NOT AND SWAP1 DUP4 PUSH20 0xFFFFFFFFFFFFFFFFFFFFFFFFFFFFFFFFFFFFFFFF AND MUL OR SWAP1 SSTORE POP POP DUP1 DUP1 PUSH2 0x1D58 SWAP1 PUSH2 0x2E96 JUMP JUMPDEST SWAP2 POP POP PUSH2 0x1BB6 JUMP JUMPDEST POP PUSH1 0x0 DUP1 DUP3 DUP2 MSTORE PUSH1 0x20 ADD SWAP1 DUP2 MSTORE PUSH1 0x20 ADD PUSH1 0x0 KECCAK256 PUSH1 0x2 ADD SLOAD PUSH1 0x0 DUP1 DUP5 DUP2 MSTORE PUSH1 0x20 ADD SWAP1 DUP2 MSTORE PUSH1 0x20 ADD PUSH1 0x0 KECCAK256 PUSH1 0x2 ADD DUP2 SWAP1 SSTORE POP CALLER PUSH20 0xFFFFFFFFFFFFFFFFFFFFFFFFFFFFFFFFFFFFFFFF AND DUP5 PUSH1 0x40 MLOAD PUSH2 0x1DB5 SWAP2 SWAP1 PUSH2 0x2B7C JUMP JUMPDEST PUSH1 0x40 MLOAD DUP1 SWAP2 SUB SWAP1 KECCAK256 PUSH32 0x629A748BA580FE181C6AE2D3673C4BDFEA9E1F2D334F36BEEC502AFF5DBAEFF2 PUSH1 0x40 MLOAD PUSH1 0x40 MLOAD DUP1 SWAP2 SUB SWAP1 LOG3 PUSH2 0x1E2D JUMP JUMPDEST PUSH2 0x1E2C PUSH1 0x40 MLOAD DUP1 PUSH1 0x40 ADD PUSH1 0x40 MSTORE DUP1 PUSH1 0x20 DUP2 MSTORE PUSH1 0x20 ADD PUSH32 0x546865207065726D697373696F6E2068617320616C726561792065786973742E DUP2 MSTORE POP PUSH2 0x248B JUMP JUMPDEST JUMPDEST POP POP POP POP JUMP JUMPDEST PUSH1 0x0 DUP2 DUP1 MLOAD SWAP1 PUSH1 0x20 ADD KECCAK256 SWAP1 POP PUSH1 0x0 DUP1 DUP3 DUP2 MSTORE PUSH1 0x20 ADD SWAP1 DUP2 MSTORE PUSH1 0x20 ADD PUSH1 0x0 KECCAK256 PUSH1 0x3 ADD PUSH1 0x0 SWAP1 SLOAD SWAP1 PUSH2 0x100 EXP SWAP1 DIV PUSH1 0xFF AND PUSH2 0x2158 JUMPI PUSH2 0x1E6F DUP2 PUSH2 0x264F JUMP JUMPDEST PUSH1 0x1 PUSH1 0x0 DUP1 DUP4 DUP2 MSTORE PUSH1 0x20 ADD SWAP1 DUP2 MSTORE PUSH1 0x20 ADD PUSH1 0x0 KECCAK256 PUSH1 0x3 ADD PUSH1 0x0 PUSH2 0x100 EXP DUP2 SLOAD DUP2 PUSH1 0xFF MUL NOT AND SWAP1 DUP4 ISZERO ISZERO MUL OR SWAP1 SSTORE POP PUSH1 0x0 JUMPDEST PUSH1 0x0 DUP1 PUSH32 0xDF8B4C520FFE197C5343C6F5AEC59570151EF9A492F2C624FD45DDDE6135EC42 DUP2 MSTORE PUSH1 0x20 ADD SWAP1 DUP2 MSTORE PUSH1 0x20 ADD PUSH1 0x0 KECCAK256 PUSH1 0x2 ADD SLOAD DUP2 LT ISZERO PUSH2 0x20AA JUMPI PUSH1 0x0 DUP1 PUSH1 0x0 PUSH32 0xDF8B4C520FFE197C5343C6F5AEC59570151EF9A492F2C624FD45DDDE6135EC42 DUP2 MSTORE PUSH1 0x20 ADD SWAP1 DUP2 MSTORE PUSH1 0x20 ADD PUSH1 0x0 KECCAK256 PUSH1 0x1 ADD PUSH1 0x0 DUP4 DUP2 MSTORE PUSH1 0x20 ADD SWAP1 DUP2 MSTORE PUSH1 0x20 ADD PUSH1 0x0 KECCAK256 PUSH1 0x0 SWAP1 SLOAD SWAP1 PUSH2 0x100 EXP SWAP1 DIV PUSH20 0xFFFFFFFFFFFFFFFFFFFFFFFFFFFFFFFFFFFFFFFF AND SWAP1 POP PUSH1 0x0 DUP1 PUSH32 0xDF8B4C520FFE197C5343C6F5AEC59570151EF9A492F2C624FD45DDDE6135EC42 DUP2 MSTORE PUSH1 0x20 ADD SWAP1 DUP2 MSTORE PUSH1 0x20 ADD PUSH1 0x0 KECCAK256 PUSH1 0x0 ADD PUSH1 0x0 DUP3 PUSH20 0xFFFFFFFFFFFFFFFFFFFFFFFFFFFFFFFFFFFFFFFF AND PUSH20 0xFFFFFFFFFFFFFFFFFFFFFFFFFFFFFFFFFFFFFFFF AND DUP2 MSTORE PUSH1 0x20 ADD SWAP1 DUP2 MSTORE PUSH1 0x20 ADD PUSH1 0x0 KECCAK256 PUSH1 0x0 SWAP1 SLOAD SWAP1 PUSH2 0x100 EXP SWAP1 DIV PUSH1 0xFF AND PUSH1 0x0 DUP1 DUP6 DUP2 MSTORE PUSH1 0x20 ADD SWAP1 DUP2 MSTORE PUSH1 0x20 ADD PUSH1 0x0 KECCAK256 PUSH1 0x0 ADD PUSH1 0x0 DUP4 PUSH20 0xFFFFFFFFFFFFFFFFFFFFFFFFFFFFFFFFFFFFFFFF AND PUSH20 0xFFFFFFFFFFFFFFFFFFFFFFFFFFFFFFFFFFFFFFFF AND DUP2 MSTORE PUSH1 0x20 ADD SWAP1 DUP2 MSTORE PUSH1 0x20 ADD PUSH1 0x0 KECCAK256 PUSH1 0x0 PUSH2 0x100 EXP DUP2 SLOAD DUP2 PUSH1 0xFF MUL NOT AND SWAP1 DUP4 ISZERO ISZERO MUL OR SWAP1 SSTORE POP DUP1 PUSH1 0x0 DUP1 DUP6 DUP2 MSTORE PUSH1 0x20 ADD SWAP1 DUP2 MSTORE PUSH1 0x20 ADD PUSH1 0x0 KECCAK256 PUSH1 0x1 ADD PUSH1 0x0 DUP5 DUP2 MSTORE PUSH1 0x20 ADD SWAP1 DUP2 MSTORE PUSH1 0x20 ADD PUSH1 0x0 KECCAK256 PUSH1 0x0 PUSH2 0x100 EXP DUP2 SLOAD DUP2 PUSH20 0xFFFFFFFFFFFFFFFFFFFFFFFFFFFFFFFFFFFFFFFF MUL NOT AND SWAP1 DUP4 PUSH20 0xFFFFFFFFFFFFFFFFFFFFFFFFFFFFFFFFFFFFFFFF AND MUL OR SWAP1 SSTORE POP POP DUP1 DUP1 PUSH2 0x20A2 SWAP1 PUSH2 0x2E96 JUMP JUMPDEST SWAP2 POP POP PUSH2 0x1EA0 JUMP JUMPDEST POP PUSH1 0x0 DUP1 PUSH32 0xDF8B4C520FFE197C5343C6F5AEC59570151EF9A492F2C624FD45DDDE6135EC42 DUP2 MSTORE PUSH1 0x20 ADD SWAP1 DUP2 MSTORE PUSH1 0x20 ADD PUSH1 0x0 KECCAK256 PUSH1 0x2 ADD SLOAD PUSH1 0x0 DUP1 DUP4 DUP2 MSTORE PUSH1 0x20 ADD SWAP1 DUP2 MSTORE PUSH1 0x20 ADD PUSH1 0x0 KECCAK256 PUSH1 0x2 ADD DUP2 SWAP1 SSTORE POP CALLER PUSH20 0xFFFFFFFFFFFFFFFFFFFFFFFFFFFFFFFFFFFFFFFF AND DUP3 PUSH1 0x40 MLOAD PUSH2 0x211F SWAP2 SWAP1 PUSH2 0x2B7C JUMP JUMPDEST PUSH1 0x40 MLOAD DUP1 SWAP2 SUB SWAP1 KECCAK256 PUSH32 0x629A748BA580FE181C6AE2D3673C4BDFEA9E1F2D334F36BEEC502AFF5DBAEFF2 PUSH1 0x40 MLOAD PUSH1 0x40 MLOAD DUP1 SWAP2 SUB SWAP1 LOG3 PUSH2 0x2197 JUMP JUMPDEST PUSH2 0x2196 PUSH1 0x40 MLOAD DUP1 PUSH1 0x40 ADD PUSH1 0x40 MSTORE DUP1 PUSH1 0x20 DUP2 MSTORE PUSH1 0x20 ADD PUSH32 0x546865207065726D697373696F6E2068617320616C726561792065786973742E DUP2 MSTORE POP PUSH2 0x248B JUMP JUMPDEST JUMPDEST POP POP JUMP JUMPDEST PUSH1 0x0 DUP3 DUP1 MLOAD SWAP1 PUSH1 0x20 ADD KECCAK256 SWAP1 POP PUSH1 0x0 DUP1 DUP3 DUP2 MSTORE PUSH1 0x20 ADD SWAP1 DUP2 MSTORE PUSH1 0x20 ADD PUSH1 0x0 KECCAK256 PUSH1 0x3 ADD PUSH1 0x0 SWAP1 SLOAD SWAP1 PUSH2 0x100 EXP SWAP1 DIV PUSH1 0xFF AND DUP1 ISZERO PUSH2 0x21F6 JUMPI POP PUSH32 0xDF8B4C520FFE197C5343C6F5AEC59570151EF9A492F2C624FD45DDDE6135EC42 DUP2 EQ ISZERO JUMPDEST ISZERO PUSH2 0x22E5 JUMPI PUSH2 0x2205 DUP2 DUP4 PUSH2 0x24E7 JUMP JUMPDEST PUSH1 0x1 PUSH1 0x0 DUP1 DUP4 DUP2 MSTORE PUSH1 0x20 ADD SWAP1 DUP2 MSTORE PUSH1 0x20 ADD PUSH1 0x0 KECCAK256 PUSH1 0x0 ADD PUSH1 0x0 DUP5 PUSH20 0xFFFFFFFFFFFFFFFFFFFFFFFFFFFFFFFFFFFFFFFF AND PUSH20 0xFFFFFFFFFFFFFFFFFFFFFFFFFFFFFFFFFFFFFFFF AND DUP2 MSTORE PUSH1 0x20 ADD SWAP1 DUP2 MSTORE PUSH1 0x20 ADD PUSH1 0x0 KECCAK256 PUSH1 0x0 PUSH2 0x100 EXP DUP2 SLOAD DUP2 PUSH1 0xFF MUL NOT AND SWAP1 DUP4 ISZERO ISZERO MUL OR SWAP1 SSTORE POP CALLER PUSH20 0xFFFFFFFFFFFFFFFFFFFFFFFFFFFFFFFFFFFFFFFF AND DUP3 PUSH20 0xFFFFFFFFFFFFFFFFFFFFFFFFFFFFFFFFFFFFFFFF AND DUP5 PUSH1 0x40 MLOAD PUSH2 0x22AC SWAP2 SWAP1 PUSH2 0x2B7C JUMP JUMPDEST PUSH1 0x40 MLOAD DUP1 SWAP2 SUB SWAP1 KECCAK256 PUSH32 0x1BBDB8CA05419DFFB11AFA5105F78331A46E3D8A8B900EFB115BBB4175A9C2D3 PUSH1 0x40 MLOAD PUSH1 0x40 MLOAD DUP1 SWAP2 SUB SWAP1 LOG4 PUSH2 0x2324 JUMP JUMPDEST PUSH2 0x2323 PUSH1 0x40 MLOAD DUP1 PUSH1 0x40 ADD PUSH1 0x40 MSTORE DUP1 PUSH1 0x1C DUP2 MSTORE PUSH1 0x20 ADD PUSH32 0x546865207065726D697373696F6E206973206E6F742076616C69642E00000000 DUP2 MSTORE POP PUSH2 0x248B JUMP JUMPDEST JUMPDEST POP POP POP JUMP JUMPDEST PUSH1 0x0 DUP3 DUP1 MLOAD SWAP1 PUSH1 0x20 ADD KECCAK256 SWAP1 POP PUSH2 0x233F DUP2 DUP4 PUSH2 0x118A JUMP JUMPDEST DUP1 ISZERO PUSH2 0x236B JUMPI POP PUSH32 0xDF8B4C520FFE197C5343C6F5AEC59570151EF9A492F2C624FD45DDDE6135EC42 DUP2 EQ ISZERO JUMPDEST ISZERO PUSH2 0x2450 JUMPI PUSH1 0x0 DUP1 PUSH1 0x0 DUP4 DUP2 MSTORE PUSH1 0x20 ADD SWAP1 DUP2 MSTORE PUSH1 0x20 ADD PUSH1 0x0 KECCAK256 PUSH1 0x0 ADD PUSH1 0x0 DUP5 PUSH20 0xFFFFFFFFFFFFFFFFFFFFFFFFFFFFFFFFFFFFFFFF AND PUSH20 0xFFFFFFFFFFFFFFFFFFFFFFFFFFFFFFFFFFFFFFFF AND DUP2 MSTORE PUSH1 0x20 ADD SWAP1 DUP2 MSTORE PUSH1 0x20 ADD PUSH1 0x0 KECCAK256 PUSH1 0x0 PUSH2 0x100 EXP DUP2 SLOAD DUP2 PUSH1 0xFF MUL NOT AND SWAP1 DUP4 ISZERO ISZERO MUL OR SWAP1 SSTORE POP CALLER PUSH20 0xFFFFFFFFFFFFFFFFFFFFFFFFFFFFFFFFFFFFFFFF AND DUP3 PUSH20 0xFFFFFFFFFFFFFFFFFFFFFFFFFFFFFFFFFFFFFFFF AND DUP5 PUSH1 0x40 MLOAD PUSH2 0x2417 SWAP2 SWAP1 PUSH2 0x2B7C JUMP JUMPDEST PUSH1 0x40 MLOAD DUP1 SWAP2 SUB SWAP1 KECCAK256 PUSH32 0x5658F0A44F1B55364EF0376F818EA716AEE06D4E966974EDBA8AE1B8FA1E379C PUSH1 0x40 MLOAD PUSH1 0x40 MLOAD DUP1 SWAP2 SUB SWAP1 LOG4 PUSH2 0x2472 JUMP JUMPDEST PUSH2 0x2471 PUSH1 0x40 MLOAD DUP1 PUSH1 0x80 ADD PUSH1 0x40 MSTORE DUP1 PUSH1 0x44 DUP2 MSTORE PUSH1 0x20 ADD PUSH2 0x307E PUSH1 0x44 SWAP2 CODECOPY PUSH2 0x248B JUMP JUMPDEST JUMPDEST POP POP POP JUMP JUMPDEST PUSH1 0x0 PUSH2 0x2483 DUP4 DUP4 PUSH2 0x118A JUMP JUMPDEST SWAP1 POP SWAP3 SWAP2 POP POP JUMP JUMPDEST DUP1 PUSH1 0x40 MLOAD PUSH1 0x20 ADD PUSH2 0x249C SWAP2 SWAP1 PUSH2 0x2B93 JUMP JUMPDEST PUSH1 0x40 MLOAD PUSH1 0x20 DUP2 DUP4 SUB SUB DUP2 MSTORE SWAP1 PUSH1 0x40 MSTORE PUSH1 0x40 MLOAD PUSH32 0x8C379A000000000000000000000000000000000000000000000000000000000 DUP2 MSTORE PUSH1 0x4 ADD PUSH2 0x24DE SWAP2 SWAP1 PUSH2 0x2C58 JUMP JUMPDEST PUSH1 0x40 MLOAD DUP1 SWAP2 SUB SWAP1 REVERT JUMPDEST PUSH1 0x0 DUP1 JUMPDEST PUSH1 0x0 DUP1 DUP6 DUP2 MSTORE PUSH1 0x20 ADD SWAP1 DUP2 MSTORE PUSH1 0x20 ADD PUSH1 0x0 KECCAK256 PUSH1 0x2 ADD SLOAD DUP2 LT ISZERO PUSH2 0x259E JUMPI DUP3 PUSH20 0xFFFFFFFFFFFFFFFFFFFFFFFFFFFFFFFFFFFFFFFF AND PUSH1 0x0 DUP1 DUP7 DUP2 MSTORE PUSH1 0x20 ADD SWAP1 DUP2 MSTORE PUSH1 0x20 ADD PUSH1 0x0 KECCAK256 PUSH1 0x1 ADD PUSH1 0x0 DUP4 DUP2 MSTORE PUSH1 0x20 ADD SWAP1 DUP2 MSTORE PUSH1 0x20 ADD PUSH1 0x0 KECCAK256 PUSH1 0x0 SWAP1 SLOAD SWAP1 PUSH2 0x100 EXP SWAP1 DIV PUSH20 0xFFFFFFFFFFFFFFFFFFFFFFFFFFFFFFFFFFFFFFFF AND PUSH20 0xFFFFFFFFFFFFFFFFFFFFFFFFFFFFFFFFFFFFFFFF AND EQ ISZERO PUSH2 0x258B JUMPI PUSH1 0x1 SWAP2 POP PUSH2 0x259E JUMP JUMPDEST DUP1 DUP1 PUSH2 0x2596 SWAP1 PUSH2 0x2E96 JUMP JUMPDEST SWAP2 POP POP PUSH2 0x24EB JUMP JUMPDEST POP DUP1 PUSH2 0x264A JUMPI DUP2 PUSH1 0x0 DUP1 DUP6 DUP2 MSTORE PUSH1 0x20 ADD SWAP1 DUP2 MSTORE PUSH1 0x20 ADD PUSH1 0x0 KECCAK256 PUSH1 0x1 ADD PUSH1 0x0 DUP1 PUSH1 0x0 DUP8 DUP2 MSTORE PUSH1 0x20 ADD SWAP1 DUP2 MSTORE PUSH1 0x20 ADD PUSH1 0x0 KECCAK256 PUSH1 0x2 ADD SLOAD DUP2 MSTORE PUSH1 0x20 ADD SWAP1 DUP2 MSTORE PUSH1 0x20 ADD PUSH1 0x0 KECCAK256 PUSH1 0x0 PUSH2 0x100 EXP DUP2 SLOAD DUP2 PUSH20 0xFFFFFFFFFFFFFFFFFFFFFFFFFFFFFFFFFFFFFFFF MUL NOT AND SWAP1 DUP4 PUSH20 0xFFFFFFFFFFFFFFFFFFFFFFFFFFFFFFFFFFFFFFFF AND MUL OR SWAP1 SSTORE POP PUSH1 0x0 DUP1 DUP5 DUP2 MSTORE PUSH1 0x20 ADD SWAP1 DUP2 MSTORE PUSH1 0x20 ADD PUSH1 0x0 KECCAK256 PUSH1 0x2 ADD PUSH1 0x0 DUP2 SLOAD DUP1 SWAP3 SWAP2 SWAP1 PUSH2 0x2644 SWAP1 PUSH2 0x2E96 JUMP JUMPDEST SWAP2 SWAP1 POP SSTORE POP JUMPDEST POP POP POP JUMP JUMPDEST PUSH1 0x0 DUP1 JUMPDEST PUSH1 0x2 SLOAD DUP2 LT ISZERO PUSH2 0x2694 JUMPI DUP3 PUSH1 0x1 PUSH1 0x0 DUP4 DUP2 MSTORE PUSH1 0x20 ADD SWAP1 DUP2 MSTORE PUSH1 0x20 ADD PUSH1 0x0 KECCAK256 SLOAD EQ ISZERO PUSH2 0x2681 JUMPI PUSH1 0x1 SWAP2 POP PUSH2 0x2694 JUMP JUMPDEST DUP1 DUP1 PUSH2 0x268C SWAP1 PUSH2 0x2E96 JUMP JUMPDEST SWAP2 POP POP PUSH2 0x2653 JUMP JUMPDEST POP DUP1 PUSH2 0x26CD JUMPI DUP2 PUSH1 0x1 PUSH1 0x0 PUSH1 0x2 SLOAD DUP2 MSTORE PUSH1 0x20 ADD SWAP1 DUP2 MSTORE PUSH1 0x20 ADD PUSH1 0x0 KECCAK256 DUP2 SWAP1 SSTORE POP PUSH1 0x2 PUSH1 0x0 DUP2 SLOAD DUP1 SWAP3 SWAP2 SWAP1 PUSH2 0x26C7 SWAP1 PUSH2 0x2E96 JUMP JUMPDEST SWAP2 SWAP1 POP SSTORE POP JUMPDEST POP POP JUMP JUMPDEST PUSH1 0x0 PUSH2 0x26E4 PUSH2 0x26DF DUP5 PUSH2 0x2CBF JUMP JUMPDEST PUSH2 0x2C9A JUMP JUMPDEST SWAP1 POP DUP3 DUP2 MSTORE PUSH1 0x20 DUP2 ADD DUP5 DUP5 DUP5 ADD GT ISZERO PUSH2 0x2700 JUMPI PUSH2 0x26FF PUSH2 0x2FA0 JUMP JUMPDEST JUMPDEST PUSH2 0x270B DUP5 DUP3 DUP6 PUSH2 0x2DF1 JUMP JUMPDEST POP SWAP4 SWAP3 POP POP POP JUMP JUMPDEST PUSH1 0x0 DUP2 CALLDATALOAD SWAP1 POP PUSH2 0x2722 DUP2 PUSH2 0x3038 JUMP JUMPDEST SWAP3 SWAP2 POP POP JUMP JUMPDEST PUSH1 0x0 DUP2 MLOAD SWAP1 POP PUSH2 0x2737 DUP2 PUSH2 0x304F JUMP JUMPDEST SWAP3 SWAP2 POP POP JUMP JUMPDEST PUSH1 0x0 DUP2 CALLDATALOAD SWAP1 POP PUSH2 0x274C DUP2 PUSH2 0x3066 JUMP JUMPDEST SWAP3 SWAP2 POP POP JUMP JUMPDEST PUSH1 0x0 DUP3 PUSH1 0x1F DUP4 ADD SLT PUSH2 0x2767 JUMPI PUSH2 0x2766 PUSH2 0x2F9B JUMP JUMPDEST JUMPDEST DUP2 CALLDATALOAD PUSH2 0x2777 DUP5 DUP3 PUSH1 0x20 DUP7 ADD PUSH2 0x26D1 JUMP JUMPDEST SWAP2 POP POP SWAP3 SWAP2 POP POP JUMP JUMPDEST PUSH1 0x0 PUSH1 0x20 DUP3 DUP5 SUB SLT ISZERO PUSH2 0x2796 JUMPI PUSH2 0x2795 PUSH2 0x2FAA JUMP JUMPDEST JUMPDEST PUSH1 0x0 PUSH2 0x27A4 DUP5 DUP3 DUP6 ADD PUSH2 0x2713 JUMP JUMPDEST SWAP2 POP POP SWAP3 SWAP2 POP POP JUMP JUMPDEST PUSH1 0x0 PUSH1 0x20 DUP3 DUP5 SUB SLT ISZERO PUSH2 0x27C3 JUMPI PUSH2 0x27C2 PUSH2 0x2FAA JUMP JUMPDEST JUMPDEST PUSH1 0x0 PUSH2 0x27D1 DUP5 DUP3 DUP6 ADD PUSH2 0x2728 JUMP JUMPDEST SWAP2 POP POP SWAP3 SWAP2 POP POP JUMP JUMPDEST PUSH1 0x0 PUSH1 0x20 DUP3 DUP5 SUB SLT ISZERO PUSH2 0x27F0 JUMPI PUSH2 0x27EF PUSH2 0x2FAA JUMP JUMPDEST JUMPDEST PUSH1 0x0 PUSH2 0x27FE DUP5 DUP3 DUP6 ADD PUSH2 0x273D JUMP JUMPDEST SWAP2 POP POP SWAP3 SWAP2 POP POP JUMP JUMPDEST PUSH1 0x0 DUP1 PUSH1 0x40 DUP4 DUP6 SUB SLT ISZERO PUSH2 0x281E JUMPI PUSH2 0x281D PUSH2 0x2FAA JUMP JUMPDEST JUMPDEST PUSH1 0x0 PUSH2 0x282C DUP6 DUP3 DUP7 ADD PUSH2 0x273D JUMP JUMPDEST SWAP3 POP POP PUSH1 0x20 PUSH2 0x283D DUP6 DUP3 DUP7 ADD PUSH2 0x2713 JUMP JUMPDEST SWAP2 POP POP SWAP3 POP SWAP3 SWAP1 POP JUMP JUMPDEST PUSH1 0x0 PUSH1 0x20 DUP3 DUP5 SUB SLT ISZERO PUSH2 0x285D JUMPI PUSH2 0x285C PUSH2 0x2FAA JUMP JUMPDEST JUMPDEST PUSH1 0x0 DUP3 ADD CALLDATALOAD PUSH8 0xFFFFFFFFFFFFFFFF DUP2 GT ISZERO PUSH2 0x287B JUMPI PUSH2 0x287A PUSH2 0x2FA5 JUMP JUMPDEST JUMPDEST PUSH2 0x2887 DUP5 DUP3 DUP6 ADD PUSH2 0x2752 JUMP JUMPDEST SWAP2 POP POP SWAP3 SWAP2 POP POP JUMP JUMPDEST PUSH1 0x0 DUP1 PUSH1 0x40 DUP4 DUP6 SUB SLT ISZERO PUSH2 0x28A7 JUMPI PUSH2 0x28A6 PUSH2 0x2FAA JUMP JUMPDEST JUMPDEST PUSH1 0x0 DUP4 ADD CALLDATALOAD PUSH8 0xFFFFFFFFFFFFFFFF DUP2 GT ISZERO PUSH2 0x28C5 JUMPI PUSH2 0x28C4 PUSH2 0x2FA5 JUMP JUMPDEST JUMPDEST PUSH2 0x28D1 DUP6 DUP3 DUP7 ADD PUSH2 0x2752 JUMP JUMPDEST SWAP3 POP POP PUSH1 0x20 PUSH2 0x28E2 DUP6 DUP3 DUP7 ADD PUSH2 0x2713 JUMP JUMPDEST SWAP2 POP POP SWAP3 POP SWAP3 SWAP1 POP JUMP JUMPDEST PUSH1 0x0 DUP1 PUSH1 0x40 DUP4 DUP6 SUB SLT ISZERO PUSH2 0x2903 JUMPI PUSH2 0x2902 PUSH2 0x2FAA JUMP JUMPDEST JUMPDEST PUSH1 0x0 DUP4 ADD CALLDATALOAD PUSH8 0xFFFFFFFFFFFFFFFF DUP2 GT ISZERO PUSH2 0x2921 JUMPI PUSH2 0x2920 PUSH2 0x2FA5 JUMP JUMPDEST JUMPDEST PUSH2 0x292D DUP6 DUP3 DUP7 ADD PUSH2 0x2752 JUMP JUMPDEST SWAP3 POP POP PUSH1 0x20 DUP4 ADD CALLDATALOAD PUSH8 0xFFFFFFFFFFFFFFFF DUP2 GT ISZERO PUSH2 0x294E JUMPI PUSH2 0x294D PUSH2 0x2FA5 JUMP JUMPDEST JUMPDEST PUSH2 0x295A DUP6 DUP3 DUP7 ADD PUSH2 0x2752 JUMP JUMPDEST SWAP2 POP POP SWAP3 POP SWAP3 SWAP1 POP JUMP JUMPDEST PUSH1 0x0 PUSH2 0x2970 DUP4 DUP4 PUSH2 0x2994 JUMP JUMPDEST PUSH1 0x20 DUP4 ADD SWAP1 POP SWAP3 SWAP2 POP POP JUMP JUMPDEST PUSH1 0x0 PUSH2 0x2988 DUP4 DUP4 PUSH2 0x2A7D JUMP JUMPDEST PUSH1 0x20 DUP4 ADD SWAP1 POP SWAP3 SWAP2 POP POP JUMP JUMPDEST PUSH2 0x299D DUP2 PUSH2 0x2D9F JUMP JUMPDEST DUP3 MSTORE POP POP JUMP JUMPDEST PUSH2 0x29AC DUP2 PUSH2 0x2D9F JUMP JUMPDEST DUP3 MSTORE POP POP JUMP JUMPDEST PUSH1 0x0 PUSH2 0x29BD DUP3 PUSH2 0x2D10 JUMP JUMPDEST PUSH2 0x29C7 DUP2 DUP6 PUSH2 0x2D56 JUMP JUMPDEST SWAP4 POP PUSH2 0x29D2 DUP4 PUSH2 0x2CF0 JUMP JUMPDEST DUP1 PUSH1 0x0 JUMPDEST DUP4 DUP2 LT ISZERO PUSH2 0x2A03 JUMPI DUP2 MLOAD PUSH2 0x29EA DUP9 DUP3 PUSH2 0x2964 JUMP JUMPDEST SWAP8 POP PUSH2 0x29F5 DUP4 PUSH2 0x2D3C JUMP JUMPDEST SWAP3 POP POP PUSH1 0x1 DUP2 ADD SWAP1 POP PUSH2 0x29D6 JUMP JUMPDEST POP DUP6 SWAP4 POP POP POP POP SWAP3 SWAP2 POP POP JUMP JUMPDEST PUSH1 0x0 PUSH2 0x2A1B DUP3 PUSH2 0x2D1B JUMP JUMPDEST PUSH2 0x2A25 DUP2 DUP6 PUSH2 0x2D67 JUMP JUMPDEST SWAP4 POP PUSH2 0x2A30 DUP4 PUSH2 0x2D00 JUMP JUMPDEST DUP1 PUSH1 0x0 JUMPDEST DUP4 DUP2 LT ISZERO PUSH2 0x2A61 JUMPI DUP2 MLOAD PUSH2 0x2A48 DUP9 DUP3 PUSH2 0x297C JUMP JUMPDEST SWAP8 POP PUSH2 0x2A53 DUP4 PUSH2 0x2D49 JUMP JUMPDEST SWAP3 POP POP PUSH1 0x1 DUP2 ADD SWAP1 POP PUSH2 0x2A34 JUMP JUMPDEST POP DUP6 SWAP4 POP POP POP POP SWAP3 SWAP2 POP POP JUMP JUMPDEST PUSH2 0x2A77 DUP2 PUSH2 0x2DB1 JUMP JUMPDEST DUP3 MSTORE POP POP JUMP JUMPDEST PUSH2 0x2A86 DUP2 PUSH2 0x2DBD JUMP JUMPDEST DUP3 MSTORE POP POP JUMP JUMPDEST PUSH2 0x2A95 DUP2 PUSH2 0x2DBD JUMP JUMPDEST DUP3 MSTORE POP POP JUMP JUMPDEST PUSH1 0x0 PUSH2 0x2AA6 DUP3 PUSH2 0x2D26 JUMP JUMPDEST PUSH2 0x2AB0 DUP2 DUP6 PUSH2 0x2D78 JUMP JUMPDEST SWAP4 POP PUSH2 0x2AC0 DUP2 DUP6 PUSH1 0x20 DUP7 ADD PUSH2 0x2E00 JUMP JUMPDEST DUP1 DUP5 ADD SWAP2 POP POP SWAP3 SWAP2 POP POP JUMP JUMPDEST PUSH1 0x0 PUSH2 0x2AD7 DUP3 PUSH2 0x2D31 JUMP JUMPDEST PUSH2 0x2AE1 DUP2 DUP6 PUSH2 0x2D83 JUMP JUMPDEST SWAP4 POP PUSH2 0x2AF1 DUP2 DUP6 PUSH1 0x20 DUP7 ADD PUSH2 0x2E00 JUMP JUMPDEST PUSH2 0x2AFA DUP2 PUSH2 0x2FAF JUMP JUMPDEST DUP5 ADD SWAP2 POP POP SWAP3 SWAP2 POP POP JUMP JUMPDEST PUSH1 0x0 PUSH2 0x2B10 DUP3 PUSH2 0x2D31 JUMP JUMPDEST PUSH2 0x2B1A DUP2 DUP6 PUSH2 0x2D94 JUMP JUMPDEST SWAP4 POP PUSH2 0x2B2A DUP2 DUP6 PUSH1 0x20 DUP7 ADD PUSH2 0x2E00 JUMP JUMPDEST DUP1 DUP5 ADD SWAP2 POP POP SWAP3 SWAP2 POP POP JUMP JUMPDEST PUSH1 0x0 PUSH2 0x2B43 PUSH1 0xF DUP4 PUSH2 0x2D94 JUMP JUMPDEST SWAP2 POP PUSH2 0x2B4E DUP3 PUSH2 0x2FC0 JUMP JUMPDEST PUSH1 0xF DUP3 ADD SWAP1 POP SWAP2 SWAP1 POP JUMP JUMPDEST PUSH1 0x0 PUSH2 0x2B66 PUSH1 0x3E DUP4 PUSH2 0x2D83 JUMP JUMPDEST SWAP2 POP PUSH2 0x2B71 DUP3 PUSH2 0x2FE9 JUMP JUMPDEST PUSH1 0x40 DUP3 ADD SWAP1 POP SWAP2 SWAP1 POP JUMP JUMPDEST PUSH1 0x0 PUSH2 0x2B88 DUP3 DUP5 PUSH2 0x2A9B JUMP JUMPDEST SWAP2 POP DUP2 SWAP1 POP SWAP3 SWAP2 POP POP JUMP JUMPDEST PUSH1 0x0 PUSH2 0x2B9E DUP3 PUSH2 0x2B36 JUMP JUMPDEST SWAP2 POP PUSH2 0x2BAA DUP3 DUP5 PUSH2 0x2B05 JUMP JUMPDEST SWAP2 POP DUP2 SWAP1 POP SWAP3 SWAP2 POP POP JUMP JUMPDEST PUSH1 0x0 PUSH1 0x20 DUP3 ADD SWAP1 POP PUSH2 0x2BCA PUSH1 0x0 DUP4 ADD DUP5 PUSH2 0x29A3 JUMP JUMPDEST SWAP3 SWAP2 POP POP JUMP JUMPDEST PUSH1 0x0 PUSH1 0x20 DUP3 ADD SWAP1 POP DUP2 DUP2 SUB PUSH1 0x0 DUP4 ADD MSTORE PUSH2 0x2BEA DUP2 DUP5 PUSH2 0x29B2 JUMP JUMPDEST SWAP1 POP SWAP3 SWAP2 POP POP JUMP JUMPDEST PUSH1 0x0 PUSH1 0x20 DUP3 ADD SWAP1 POP DUP2 DUP2 SUB PUSH1 0x0 DUP4 ADD MSTORE PUSH2 0x2C0C DUP2 DUP5 PUSH2 0x2A10 JUMP JUMPDEST SWAP1 POP SWAP3 SWAP2 POP POP JUMP JUMPDEST PUSH1 0x0 PUSH1 0x20 DUP3 ADD SWAP1 POP PUSH2 0x2C29 PUSH1 0x0 DUP4 ADD DUP5 PUSH2 0x2A6E JUMP JUMPDEST SWAP3 SWAP2 POP POP JUMP JUMPDEST PUSH1 0x0 PUSH1 0x40 DUP3 ADD SWAP1 POP PUSH2 0x2C44 PUSH1 0x0 DUP4 ADD DUP6 PUSH2 0x2A8C JUMP JUMPDEST PUSH2 0x2C51 PUSH1 0x20 DUP4 ADD DUP5 PUSH2 0x29A3 JUMP JUMPDEST SWAP4 SWAP3 POP POP POP JUMP JUMPDEST PUSH1 0x0 PUSH1 0x20 DUP3 ADD SWAP1 POP DUP2 DUP2 SUB PUSH1 0x0 DUP4 ADD MSTORE PUSH2 0x2C72 DUP2 DUP5 PUSH2 0x2ACC JUMP JUMPDEST SWAP1 POP SWAP3 SWAP2 POP POP JUMP JUMPDEST PUSH1 0x0 PUSH1 0x20 DUP3 ADD SWAP1 POP DUP2 DUP2 SUB PUSH1 0x0 DUP4 ADD MSTORE PUSH2 0x2C93 DUP2 PUSH2 0x2B59 JUMP JUMPDEST SWAP1 POP SWAP2 SWAP1 POP JUMP JUMPDEST PUSH1 0x0 PUSH2 0x2CA4 PUSH2 0x2CB5 JUMP JUMPDEST SWAP1 POP PUSH2 0x2CB0 DUP3 DUP3 PUSH2 0x2E65 JUMP JUMPDEST SWAP2 SWAP1 POP JUMP JUMPDEST PUSH1 0x0 PUSH1 0x40 MLOAD SWAP1 POP SWAP1 JUMP JUMPDEST PUSH1 0x0 PUSH8 0xFFFFFFFFFFFFFFFF DUP3 GT ISZERO PUSH2 0x2CDA JUMPI PUSH2 0x2CD9 PUSH2 0x2F6C JUMP JUMPDEST JUMPDEST PUSH2 0x2CE3 DUP3 PUSH2 0x2FAF JUMP JUMPDEST SWAP1 POP PUSH1 0x20 DUP2 ADD SWAP1 POP SWAP2 SWAP1 POP JUMP JUMPDEST PUSH1 0x0 DUP2 SWAP1 POP PUSH1 0x20 DUP3 ADD SWAP1 POP SWAP2 SWAP1 POP JUMP JUMPDEST PUSH1 0x0 DUP2 SWAP1 POP PUSH1 0x20 DUP3 ADD SWAP1 POP SWAP2 SWAP1 POP JUMP JUMPDEST PUSH1 0x0 DUP2 MLOAD SWAP1 POP SWAP2 SWAP1 POP JUMP JUMPDEST PUSH1 0x0 DUP2 MLOAD SWAP1 POP SWAP2 SWAP1 POP JUMP JUMPDEST PUSH1 0x0 DUP2 MLOAD SWAP1 POP SWAP2 SWAP1 POP JUMP JUMPDEST PUSH1 0x0 DUP2 MLOAD SWAP1 POP SWAP2 SWAP1 POP JUMP JUMPDEST PUSH1 0x0 PUSH1 0x20 DUP3 ADD SWAP1 POP SWAP2 SWAP1 POP JUMP JUMPDEST PUSH1 0x0 PUSH1 0x20 DUP3 ADD SWAP1 POP SWAP2 SWAP1 POP JUMP JUMPDEST PUSH1 0x0 DUP3 DUP3 MSTORE PUSH1 0x20 DUP3 ADD SWAP1 POP SWAP3 SWAP2 POP POP JUMP JUMPDEST PUSH1 0x0 DUP3 DUP3 MSTORE PUSH1 0x20 DUP3 ADD SWAP1 POP SWAP3 SWAP2 POP POP JUMP JUMPDEST PUSH1 0x0 DUP2 SWAP1 POP SWAP3 SWAP2 POP POP JUMP JUMPDEST PUSH1 0x0 DUP3 DUP3 MSTORE PUSH1 0x20 DUP3 ADD SWAP1 POP SWAP3 SWAP2 POP POP JUMP JUMPDEST PUSH1 0x0 DUP2 SWAP1 POP SWAP3 SWAP2 POP POP JUMP JUMPDEST PUSH1 0x0 PUSH2 0x2DAA DUP3 PUSH2 0x2DC7 JUMP JUMPDEST SWAP1 POP SWAP2 SWAP1 POP JUMP JUMPDEST PUSH1 0x0 DUP2 ISZERO ISZERO SWAP1 POP SWAP2 SWAP1 POP JUMP JUMPDEST PUSH1 0x0 DUP2 SWAP1 POP SWAP2 SWAP1 POP JUMP JUMPDEST PUSH1 0x0 PUSH20 0xFFFFFFFFFFFFFFFFFFFFFFFFFFFFFFFFFFFFFFFF DUP3 AND SWAP1 POP SWAP2 SWAP1 POP JUMP JUMPDEST PUSH1 0x0 DUP2 SWAP1 POP SWAP2 SWAP1 POP JUMP JUMPDEST DUP3 DUP2 DUP4 CALLDATACOPY PUSH1 0x0 DUP4 DUP4 ADD MSTORE POP POP POP JUMP JUMPDEST PUSH1 0x0 JUMPDEST DUP4 DUP2 LT ISZERO PUSH2 0x2E1E JUMPI DUP1 DUP3 ADD MLOAD DUP2 DUP5 ADD MSTORE PUSH1 0x20 DUP2 ADD SWAP1 POP PUSH2 0x2E03 JUMP JUMPDEST DUP4 DUP2 GT ISZERO PUSH2 0x2E2D JUMPI PUSH1 0x0 DUP5 DUP5 ADD MSTORE JUMPDEST POP POP POP POP JUMP JUMPDEST PUSH1 0x0 PUSH1 0x2 DUP3 DIV SWAP1 POP PUSH1 0x1 DUP3 AND DUP1 PUSH2 0x2E4B JUMPI PUSH1 0x7F DUP3 AND SWAP2 POP JUMPDEST PUSH1 0x20 DUP3 LT DUP2 EQ ISZERO PUSH2 0x2E5F JUMPI PUSH2 0x2E5E PUSH2 0x2F0E JUMP JUMPDEST JUMPDEST POP SWAP2 SWAP1 POP JUMP JUMPDEST PUSH2 0x2E6E DUP3 PUSH2 0x2FAF JUMP JUMPDEST DUP2 ADD DUP2 DUP2 LT PUSH8 0xFFFFFFFFFFFFFFFF DUP3 GT OR ISZERO PUSH2 0x2E8D JUMPI PUSH2 0x2E8C PUSH2 0x2F6C JUMP JUMPDEST JUMPDEST DUP1 PUSH1 0x40 MSTORE POP POP POP JUMP JUMPDEST PUSH1 0x0 PUSH2 0x2EA1 DUP3 PUSH2 0x2DE7 JUMP JUMPDEST SWAP2 POP PUSH32 0xFFFFFFFFFFFFFFFFFFFFFFFFFFFFFFFFFFFFFFFFFFFFFFFFFFFFFFFFFFFFFFFF DUP3 EQ ISZERO PUSH2 0x2ED4 JUMPI PUSH2 0x2ED3 PUSH2 0x2EDF JUMP JUMPDEST JUMPDEST PUSH1 0x1 DUP3 ADD SWAP1 POP SWAP2 SWAP1 POP JUMP JUMPDEST PUSH32 0x4E487B7100000000000000000000000000000000000000000000000000000000 PUSH1 0x0 MSTORE PUSH1 0x11 PUSH1 0x4 MSTORE PUSH1 0x24 PUSH1 0x0 REVERT JUMPDEST PUSH32 0x4E487B7100000000000000000000000000000000000000000000000000000000 PUSH1 0x0 MSTORE PUSH1 0x22 PUSH1 0x4 MSTORE PUSH1 0x24 PUSH1 0x0 REVERT JUMPDEST PUSH32 0x4E487B7100000000000000000000000000000000000000000000000000000000 PUSH1 0x0 MSTORE PUSH1 0x32 PUSH1 0x4 MSTORE PUSH1 0x24 PUSH1 0x0 REVERT JUMPDEST PUSH32 0x4E487B7100000000000000000000000000000000000000000000000000000000 PUSH1 0x0 MSTORE PUSH1 0x41 PUSH1 0x4 MSTORE PUSH1 0x24 PUSH1 0x0 REVERT JUMPDEST PUSH1 0x0 DUP1 REVERT JUMPDEST PUSH1 0x0 DUP1 REVERT JUMPDEST PUSH1 0x0 DUP1 REVERT JUMPDEST PUSH1 0x0 DUP1 REVERT JUMPDEST PUSH1 0x0 PUSH1 0x1F NOT PUSH1 0x1F DUP4 ADD AND SWAP1 POP SWAP2 SWAP1 POP JUMP JUMPDEST PUSH32 0x416363657373436F6E74726F6C3A200000000000000000000000000000000000 PUSH1 0x0 DUP3 ADD MSTORE POP JUMP JUMPDEST PUSH32 0x416363657373436F6E74726F6C3A20596F752068617665206E6F207065726D69 PUSH1 0x0 DUP3 ADD MSTORE PUSH32 0x7373696F6E20746F2061636365737320746869732066756E6374696F6E2E0000 PUSH1 0x20 DUP3 ADD MSTORE POP JUMP JUMPDEST PUSH2 0x3041 DUP2 PUSH2 0x2D9F JUMP JUMPDEST DUP2 EQ PUSH2 0x304C JUMPI PUSH1 0x0 DUP1 REVERT JUMPDEST POP JUMP JUMPDEST PUSH2 0x3058 DUP2 PUSH2 0x2DB1 JUMP JUMPDEST DUP2 EQ PUSH2 0x3063 JUMPI PUSH1 0x0 DUP1 REVERT JUMPDEST POP JUMP JUMPDEST PUSH2 0x306F DUP2 PUSH2 0x2DBD JUMP JUMPDEST DUP2 EQ PUSH2 0x307A JUMPI PUSH1 0x0 DUP1 REVERT JUMPDEST POP JUMP INVALID SLOAD PUSH9 0x65207065726D697373 PUSH10 0x6F6E206973206E6F7420 PUSH23 0x616C6964206F7220746865206163636F756E7420697320 PUSH15 0x6F7420696E20746865207065726D69 PUSH20 0x73696F6E2EA2646970667358221220280A7E59D7 0xA8 0xB5 0xCB REVERT CHAINID DIV JUMPI 0x4D PUSH27 0xA57E2989C67CB580A120682D5D5AA99B578764736F6C6343000807 STOP CALLER "
				},
				"gasEstimates": {
					"creation": {
						"codeDepositCost": "2507000",
						"executionCost": "infinite",
						"totalCost": "infinite"
					},
					"external": {
						"adminEmail()": "infinite",
						"adminName()": "infinite",
						"createPermission(bytes)": "infinite",
						"createPermissionByLevel(bytes,bytes)": "infinite",
						"deleteAccount(address)": "infinite",
						"deletePermission(bytes)": "infinite",
						"grantAccountPermission(bytes,address)": "infinite",
						"inquiryAccountPermission(bytes32,address)": "infinite",
						"inquiryAdmin()": "infinite",
						"inquiryAllAccountsByPermission(bytes32)": "infinite",
						"inquiryAllPermissionsByAccount(address)": "infinite",
						"revokeAccountPermission(bytes,address)": "infinite",
						"transferAdmin(address)": "infinite"
					}
				},
				"methodIdentifiers": {
					"adminEmail()": "4c1cce74",
					"adminName()": "a8a23e39",
					"createPermission(bytes)": "aae7c78a",
					"createPermissionByLevel(bytes,bytes)": "a10f9524",
					"deleteAccount(address)": "4c1b64cb",
					"deletePermission(bytes)": "342da059",
					"grantAccountPermission(bytes,address)": "c7dc6220",
					"inquiryAccountPermission(bytes32,address)": "e9cb00a2",
					"inquiryAdmin()": "7058dd24",
					"inquiryAllAccountsByPermission(bytes32)": "9b8f3bbc",
					"inquiryAllPermissionsByAccount(address)": "80891cb2",
					"revokeAccountPermission(bytes,address)": "c98d6f1e",
					"transferAdmin(address)": "75829def"
				}
			},
			"storageLayout": {
				"storage": [
					{
						"astId": 22,
						"contract": "contracts/project-name1/ProjectAccessControl.sol:ProjectAccessControl",
						"label": "_allPermissions",
						"offset": 0,
						"slot": "0",
						"type": "t_mapping(t_bytes32,t_struct(MembersData)17_storage)"
					},
					{
						"astId": 26,
						"contract": "contracts/project-name1/ProjectAccessControl.sol:ProjectAccessControl",
						"label": "_indexOfPermissions",
						"offset": 0,
						"slot": "1",
						"type": "t_mapping(t_uint256,t_bytes32)"
					},
					{
						"astId": 28,
						"contract": "contracts/project-name1/ProjectAccessControl.sol:ProjectAccessControl",
						"label": "_numberOfPermissions",
						"offset": 0,
						"slot": "2",
						"type": "t_uint256"
					},
					{
						"astId": 961,
						"contract": "contracts/project-name1/ProjectAccessControl.sol:ProjectAccessControl",
						"label": "daoAccessControl",
						"offset": 0,
						"slot": "3",
						"type": "t_contract(IAccessControl)952"
					},
					{
						"astId": 964,
						"contract": "contracts/project-name1/ProjectAccessControl.sol:ProjectAccessControl",
						"label": "adminName",
						"offset": 0,
						"slot": "4",
						"type": "t_string_storage"
					},
					{
						"astId": 967,
						"contract": "contracts/project-name1/ProjectAccessControl.sol:ProjectAccessControl",
						"label": "adminEmail",
						"offset": 0,
						"slot": "5",
						"type": "t_string_storage"
					}
				],
				"types": {
					"t_address": {
						"encoding": "inplace",
						"label": "address",
						"numberOfBytes": "20"
					},
					"t_bool": {
						"encoding": "inplace",
						"label": "bool",
						"numberOfBytes": "1"
					},
					"t_bytes32": {
						"encoding": "inplace",
						"label": "bytes32",
						"numberOfBytes": "32"
					},
					"t_contract(IAccessControl)952": {
						"encoding": "inplace",
						"label": "contract IAccessControl",
						"numberOfBytes": "20"
					},
					"t_mapping(t_address,t_bool)": {
						"encoding": "mapping",
						"key": "t_address",
						"label": "mapping(address => bool)",
						"numberOfBytes": "32",
						"value": "t_bool"
					},
					"t_mapping(t_bytes32,t_struct(MembersData)17_storage)": {
						"encoding": "mapping",
						"key": "t_bytes32",
						"label": "mapping(bytes32 => struct AccessControl.MembersData)",
						"numberOfBytes": "32",
						"value": "t_struct(MembersData)17_storage"
					},
					"t_mapping(t_uint256,t_address)": {
						"encoding": "mapping",
						"key": "t_uint256",
						"label": "mapping(uint256 => address)",
						"numberOfBytes": "32",
						"value": "t_address"
					},
					"t_mapping(t_uint256,t_bytes32)": {
						"encoding": "mapping",
						"key": "t_uint256",
						"label": "mapping(uint256 => bytes32)",
						"numberOfBytes": "32",
						"value": "t_bytes32"
					},
					"t_string_storage": {
						"encoding": "bytes",
						"label": "string",
						"numberOfBytes": "32"
					},
					"t_struct(MembersData)17_storage": {
						"encoding": "inplace",
						"label": "struct AccessControl.MembersData",
						"members": [
							{
								"astId": 8,
								"contract": "contracts/project-name1/ProjectAccessControl.sol:ProjectAccessControl",
								"label": "members",
								"offset": 0,
								"slot": "0",
								"type": "t_mapping(t_address,t_bool)"
							},
							{
								"astId": 12,
								"contract": "contracts/project-name1/ProjectAccessControl.sol:ProjectAccessControl",
								"label": "index",
								"offset": 0,
								"slot": "1",
								"type": "t_mapping(t_uint256,t_address)"
							},
							{
								"astId": 14,
								"contract": "contracts/project-name1/ProjectAccessControl.sol:ProjectAccessControl",
								"label": "length",
								"offset": 0,
								"slot": "2",
								"type": "t_uint256"
							},
							{
								"astId": 16,
								"contract": "contracts/project-name1/ProjectAccessControl.sol:ProjectAccessControl",
								"label": "isValid",
								"offset": 0,
								"slot": "3",
								"type": "t_bool"
							}
						],
						"numberOfBytes": "128"
					},
					"t_uint256": {
						"encoding": "inplace",
						"label": "uint256",
						"numberOfBytes": "32"
					}
				}
			},
			"userdoc": {
				"kind": "user",
				"methods": {},
				"version": 1
			}
		}
	}
}