{
	"contracts/DaoTest.sol": {
		"DaoTest": {
			"abi": [
				{
					"anonymous": false,
					"inputs": [
						{
							"indexed": true,
							"internalType": "bytes32",
							"name": "role",
							"type": "bytes32"
						},
						{
							"indexed": true,
							"internalType": "bytes32",
							"name": "previousAdminRole",
							"type": "bytes32"
						},
						{
							"indexed": true,
							"internalType": "bytes32",
							"name": "newAdminRole",
							"type": "bytes32"
						}
					],
					"name": "RoleAdminChanged",
					"type": "event"
				},
				{
					"anonymous": false,
					"inputs": [
						{
							"indexed": true,
							"internalType": "bytes32",
							"name": "role",
							"type": "bytes32"
						},
						{
							"indexed": true,
							"internalType": "address",
							"name": "account",
							"type": "address"
						},
						{
							"indexed": true,
							"internalType": "address",
							"name": "sender",
							"type": "address"
						}
					],
					"name": "RoleGranted",
					"type": "event"
				},
				{
					"anonymous": false,
					"inputs": [
						{
							"indexed": true,
							"internalType": "bytes32",
							"name": "role",
							"type": "bytes32"
						},
						{
							"indexed": true,
							"internalType": "address",
							"name": "account",
							"type": "address"
						},
						{
							"indexed": true,
							"internalType": "address",
							"name": "sender",
							"type": "address"
						}
					],
					"name": "RoleRevoked",
					"type": "event"
				},
				{
					"anonymous": false,
					"inputs": [
						{
							"indexed": false,
							"internalType": "string",
							"name": "newValue",
							"type": "string"
						}
					],
					"name": "someOutputs",
					"type": "event"
				},
				{
					"inputs": [],
					"name": "DEFAULT_ADMIN_ROLE",
					"outputs": [
						{
							"internalType": "bytes32",
							"name": "",
							"type": "bytes32"
						}
					],
					"stateMutability": "view",
					"type": "function"
				},
				{
					"inputs": [
						{
							"internalType": "bytes32",
							"name": "role",
							"type": "bytes32"
						}
					],
					"name": "getRoleAdmin",
					"outputs": [
						{
							"internalType": "bytes32",
							"name": "",
							"type": "bytes32"
						}
					],
					"stateMutability": "view",
					"type": "function"
				},
				{
					"inputs": [
						{
							"internalType": "bytes32",
							"name": "role",
							"type": "bytes32"
						},
						{
							"internalType": "address",
							"name": "account",
							"type": "address"
						}
					],
					"name": "grantRole",
					"outputs": [],
					"stateMutability": "nonpayable",
					"type": "function"
				},
				{
					"inputs": [
						{
							"internalType": "bytes32",
							"name": "role",
							"type": "bytes32"
						},
						{
							"internalType": "address",
							"name": "account",
							"type": "address"
						}
					],
					"name": "hasRole",
					"outputs": [
						{
							"internalType": "bool",
							"name": "",
							"type": "bool"
						}
					],
					"stateMutability": "view",
					"type": "function"
				},
				{
					"inputs": [
						{
							"internalType": "bytes32",
							"name": "role",
							"type": "bytes32"
						},
						{
							"internalType": "address",
							"name": "account",
							"type": "address"
						}
					],
					"name": "renounceRole",
					"outputs": [],
					"stateMutability": "nonpayable",
					"type": "function"
				},
				{
					"inputs": [
						{
							"internalType": "bytes32",
							"name": "role",
							"type": "bytes32"
						},
						{
							"internalType": "address",
							"name": "account",
							"type": "address"
						}
					],
					"name": "revokeRole",
					"outputs": [],
					"stateMutability": "nonpayable",
					"type": "function"
				},
				{
					"inputs": [
						{
							"internalType": "bytes4",
							"name": "interfaceId",
							"type": "bytes4"
						}
					],
					"name": "supportsInterface",
					"outputs": [
						{
							"internalType": "bool",
							"name": "",
							"type": "bool"
						}
					],
					"stateMutability": "view",
					"type": "function"
				},
				{
					"inputs": [
						{
							"internalType": "bool[]",
							"name": "_accessibleRoles",
							"type": "bool[]"
						}
					],
					"name": "test",
					"outputs": [
						{
							"internalType": "bool",
							"name": "",
							"type": "bool"
						}
					],
					"stateMutability": "pure",
					"type": "function"
				},
				{
					"inputs": [],
					"name": "trydy",
					"outputs": [],
					"stateMutability": "pure",
					"type": "function"
				}
			],
			"devdoc": {
				"kind": "dev",
				"methods": {
					"getRoleAdmin(bytes32)": {
						"details": "Returns the admin role that controls `role`. See {grantRole} and {revokeRole}. To change a role's admin, use {_setRoleAdmin}."
					},
					"grantRole(bytes32,address)": {
						"details": "Grants `role` to `account`. If `account` had not been already granted `role`, emits a {RoleGranted} event. Requirements: - the caller must have ``role``'s admin role. May emit a {RoleGranted} event."
					},
					"hasRole(bytes32,address)": {
						"details": "Returns `true` if `account` has been granted `role`."
					},
					"renounceRole(bytes32,address)": {
						"details": "Revokes `role` from the calling account. Roles are often managed via {grantRole} and {revokeRole}: this function's purpose is to provide a mechanism for accounts to lose their privileges if they are compromised (such as when a trusted device is misplaced). If the calling account had been revoked `role`, emits a {RoleRevoked} event. Requirements: - the caller must be `account`. May emit a {RoleRevoked} event."
					},
					"revokeRole(bytes32,address)": {
						"details": "Revokes `role` from `account`. If `account` had been granted `role`, emits a {RoleRevoked} event. Requirements: - the caller must have ``role``'s admin role. May emit a {RoleRevoked} event."
					},
					"supportsInterface(bytes4)": {
						"details": "See {IERC165-supportsInterface}."
					}
				},
				"version": 1
			},
			"evm": {
				"assembly": "    /* \"contracts/DaoTest.sol\":122:998  contract DaoTest is AccessControl {\r... */\n  mstore(0x40, 0x80)\n  callvalue\n  dup1\n  iszero\n  tag_1\n  jumpi\n  0x00\n  dup1\n  revert\ntag_1:\n  pop\n  dataSize(sub_0)\n  dup1\n  dataOffset(sub_0)\n  0x00\n  codecopy\n  0x00\n  return\nstop\n\nsub_0: assembly {\n        /* \"contracts/DaoTest.sol\":122:998  contract DaoTest is AccessControl {\r... */\n      mstore(0x40, 0x80)\n      callvalue\n      dup1\n      iszero\n      tag_1\n      jumpi\n      0x00\n      dup1\n      revert\n    tag_1:\n      pop\n      jumpi(tag_2, lt(calldatasize, 0x04))\n      shr(0xe0, calldataload(0x00))\n      dup1\n      0x36568abe\n      gt\n      tag_12\n      jumpi\n      dup1\n      0x36568abe\n      eq\n      tag_7\n      jumpi\n      dup1\n      0x91d14854\n      eq\n      tag_8\n      jumpi\n      dup1\n      0xa217fddf\n      eq\n      tag_9\n      jumpi\n      dup1\n      0xac5d4f62\n      eq\n      tag_10\n      jumpi\n      dup1\n      0xd547741f\n      eq\n      tag_11\n      jumpi\n      jump(tag_2)\n    tag_12:\n      dup1\n      0x01ffc9a7\n      eq\n      tag_3\n      jumpi\n      dup1\n      0x1a41fc38\n      eq\n      tag_4\n      jumpi\n      dup1\n      0x248a9ca3\n      eq\n      tag_5\n      jumpi\n      dup1\n      0x2f2ff15d\n      eq\n      tag_6\n      jumpi\n    tag_2:\n      0x00\n      dup1\n      revert\n        /* \"@openzeppelin/contracts/access/AccessControl.sol\":2606:2808  function supportsInterface(bytes4 interfaceId) public view virtual override returns (bool) {... */\n    tag_3:\n      tag_13\n      0x04\n      dup1\n      calldatasize\n      sub\n      dup2\n      add\n      swap1\n      tag_14\n      swap2\n      swap1\n      tag_15\n      jump\t// in\n    tag_14:\n      tag_16\n      jump\t// in\n    tag_13:\n      mload(0x40)\n      tag_17\n      swap2\n      swap1\n      tag_18\n      jump\t// in\n    tag_17:\n      mload(0x40)\n      dup1\n      swap2\n      sub\n      swap1\n      return\n        /* \"contracts/DaoTest.sol\":550:759  function trydy() public pure {\r... */\n    tag_4:\n      tag_19\n      tag_20\n      jump\t// in\n    tag_19:\n      stop\n        /* \"@openzeppelin/contracts/access/AccessControl.sol\":4391:4520  function getRoleAdmin(bytes32 role) public view virtual override returns (bytes32) {... */\n    tag_5:\n      tag_21\n      0x04\n      dup1\n      calldatasize\n      sub\n      dup2\n      add\n      swap1\n      tag_22\n      swap2\n      swap1\n      tag_23\n      jump\t// in\n    tag_22:\n      tag_24\n      jump\t// in\n    tag_21:\n      mload(0x40)\n      tag_25\n      swap2\n      swap1\n      tag_26\n      jump\t// in\n    tag_25:\n      mload(0x40)\n      dup1\n      swap2\n      sub\n      swap1\n      return\n        /* \"@openzeppelin/contracts/access/AccessControl.sol\":4816:4961  function grantRole(bytes32 role, address account) public virtual override onlyRole(getRoleAdmin(role)) {... */\n    tag_6:\n      tag_27\n      0x04\n      dup1\n      calldatasize\n      sub\n      dup2\n      add\n      swap1\n      tag_28\n      swap2\n      swap1\n      tag_29\n      jump\t// in\n    tag_28:\n      tag_30\n      jump\t// in\n    tag_27:\n      stop\n        /* \"@openzeppelin/contracts/access/AccessControl.sol\":5925:6139  function renounceRole(bytes32 role, address account) public virtual override {... */\n    tag_7:\n      tag_31\n      0x04\n      dup1\n      calldatasize\n      sub\n      dup2\n      add\n      swap1\n      tag_32\n      swap2\n      swap1\n      tag_29\n      jump\t// in\n    tag_32:\n      tag_33\n      jump\t// in\n    tag_31:\n      stop\n        /* \"@openzeppelin/contracts/access/AccessControl.sol\":2895:3040  function hasRole(bytes32 role, address account) public view virtual override returns (bool) {... */\n    tag_8:\n      tag_34\n      0x04\n      dup1\n      calldatasize\n      sub\n      dup2\n      add\n      swap1\n      tag_35\n      swap2\n      swap1\n      tag_29\n      jump\t// in\n    tag_35:\n      tag_36\n      jump\t// in\n    tag_34:\n      mload(0x40)\n      tag_37\n      swap2\n      swap1\n      tag_18\n      jump\t// in\n    tag_37:\n      mload(0x40)\n      dup1\n      swap2\n      sub\n      swap1\n      return\n        /* \"@openzeppelin/contracts/access/AccessControl.sol\":2027:2076  bytes32 public constant DEFAULT_ADMIN_ROLE = 0x00 */\n    tag_9:\n      tag_38\n      tag_39\n      jump\t// in\n    tag_38:\n      mload(0x40)\n      tag_40\n      swap2\n      swap1\n      tag_26\n      jump\t// in\n    tag_40:\n      mload(0x40)\n      dup1\n      swap2\n      sub\n      swap1\n      return\n        /* \"contracts/DaoTest.sol\":212:542  function test(bool[] memory _accessibleRoles) public pure returns(bool)  {\r... */\n    tag_10:\n      tag_41\n      0x04\n      dup1\n      calldatasize\n      sub\n      dup2\n      add\n      swap1\n      tag_42\n      swap2\n      swap1\n      tag_43\n      jump\t// in\n    tag_42:\n      tag_44\n      jump\t// in\n    tag_41:\n      mload(0x40)\n      tag_45\n      swap2\n      swap1\n      tag_18\n      jump\t// in\n    tag_45:\n      mload(0x40)\n      dup1\n      swap2\n      sub\n      swap1\n      return\n        /* \"@openzeppelin/contracts/access/AccessControl.sol\":5241:5388  function revokeRole(bytes32 role, address account) public virtual override onlyRole(getRoleAdmin(role)) {... */\n    tag_11:\n      tag_46\n      0x04\n      dup1\n      calldatasize\n      sub\n      dup2\n      add\n      swap1\n      tag_47\n      swap2\n      swap1\n      tag_29\n      jump\t// in\n    tag_47:\n      tag_48\n      jump\t// in\n    tag_46:\n      stop\n        /* \"@openzeppelin/contracts/access/AccessControl.sol\":2606:2808  function supportsInterface(bytes4 interfaceId) public view virtual override returns (bool) {... */\n    tag_16:\n        /* \"@openzeppelin/contracts/access/AccessControl.sol\":2691:2695  bool */\n      0x00\n        /* \"@openzeppelin/contracts/access/AccessControl.sol\":2729:2761  type(IAccessControl).interfaceId */\n      0x7965db0b00000000000000000000000000000000000000000000000000000000\n        /* \"@openzeppelin/contracts/access/AccessControl.sol\":2714:2761  interfaceId == type(IAccessControl).interfaceId */\n      not(0xffffffffffffffffffffffffffffffffffffffffffffffffffffffff)\n      and\n        /* \"@openzeppelin/contracts/access/AccessControl.sol\":2714:2725  interfaceId */\n      dup3\n        /* \"@openzeppelin/contracts/access/AccessControl.sol\":2714:2761  interfaceId == type(IAccessControl).interfaceId */\n      not(0xffffffffffffffffffffffffffffffffffffffffffffffffffffffff)\n      and\n      eq\n        /* \"@openzeppelin/contracts/access/AccessControl.sol\":2714:2801  interfaceId == type(IAccessControl).interfaceId || super.supportsInterface(interfaceId) */\n      dup1\n      tag_50\n      jumpi\n      pop\n        /* \"@openzeppelin/contracts/access/AccessControl.sol\":2765:2801  super.supportsInterface(interfaceId) */\n      tag_51\n        /* \"@openzeppelin/contracts/access/AccessControl.sol\":2789:2800  interfaceId */\n      dup3\n        /* \"@openzeppelin/contracts/access/AccessControl.sol\":2765:2788  super.supportsInterface */\n      tag_52\n        /* \"@openzeppelin/contracts/access/AccessControl.sol\":2765:2801  super.supportsInterface(interfaceId) */\n      jump\t// in\n    tag_51:\n        /* \"@openzeppelin/contracts/access/AccessControl.sol\":2714:2801  interfaceId == type(IAccessControl).interfaceId || super.supportsInterface(interfaceId) */\n    tag_50:\n        /* \"@openzeppelin/contracts/access/AccessControl.sol\":2707:2801  return interfaceId == type(IAccessControl).interfaceId || super.supportsInterface(interfaceId) */\n      swap1\n      pop\n        /* \"@openzeppelin/contracts/access/AccessControl.sol\":2606:2808  function supportsInterface(bytes4 interfaceId) public view virtual override returns (bool) {... */\n      swap2\n      swap1\n      pop\n      jump\t// out\n        /* \"contracts/DaoTest.sol\":550:759  function trydy() public pure {\r... */\n    tag_20:\n        /* \"contracts/DaoTest.sol\":590:619  bool[] memory accessibleRoles */\n      0x00\n        /* \"contracts/DaoTest.sol\":633:634  2 */\n      0x02\n        /* \"contracts/DaoTest.sol\":622:635  new bool[](2) */\n      0xffffffffffffffff\n      dup2\n      gt\n      iszero\n      tag_54\n      jumpi\n      tag_55\n      tag_56\n      jump\t// in\n    tag_55:\n    tag_54:\n      mload(0x40)\n      swap1\n      dup1\n      dup3\n      mstore\n      dup1\n      0x20\n      mul\n      0x20\n      add\n      dup3\n      add\n      0x40\n      mstore\n      dup1\n      iszero\n      tag_57\n      jumpi\n      dup2\n      0x20\n      add\n      0x20\n      dup3\n      mul\n      dup1\n      calldatasize\n      dup4\n      calldatacopy\n      dup1\n      dup3\n      add\n      swap2\n      pop\n      pop\n      swap1\n      pop\n    tag_57:\n      pop\n        /* \"contracts/DaoTest.sol\":590:635  bool[] memory accessibleRoles = new bool[](2) */\n      swap1\n      pop\n        /* \"contracts/DaoTest.sol\":667:671  true */\n      0x01\n        /* \"contracts/DaoTest.sol\":646:661  accessibleRoles */\n      dup2\n        /* \"contracts/DaoTest.sol\":662:663  0 */\n      0x00\n        /* \"contracts/DaoTest.sol\":646:664  accessibleRoles[0] */\n      dup2\n      mload\n      dup2\n      lt\n      tag_58\n      jumpi\n      tag_59\n      tag_60\n      jump\t// in\n    tag_59:\n    tag_58:\n      0x20\n      mul\n      0x20\n      add\n      add\n        /* \"contracts/DaoTest.sol\":646:671  accessibleRoles[0] = true */\n      swap1\n      iszero\n      iszero\n      swap1\n      dup2\n      iszero\n      iszero\n      dup2\n      mstore\n      pop\n      pop\n        /* \"contracts/DaoTest.sol\":703:708  false */\n      0x00\n        /* \"contracts/DaoTest.sol\":682:697  accessibleRoles */\n      dup2\n        /* \"contracts/DaoTest.sol\":698:699  0 */\n      0x00\n        /* \"contracts/DaoTest.sol\":682:700  accessibleRoles[0] */\n      dup2\n      mload\n      dup2\n      lt\n      tag_61\n      jumpi\n      tag_62\n      tag_60\n      jump\t// in\n    tag_62:\n    tag_61:\n      0x20\n      mul\n      0x20\n      add\n      add\n        /* \"contracts/DaoTest.sol\":682:708  accessibleRoles[0] = false */\n      swap1\n      iszero\n      iszero\n      swap1\n      dup2\n      iszero\n      iszero\n      dup2\n      mstore\n      pop\n      pop\n        /* \"contracts/DaoTest.sol\":729:750  test(accessibleRoles) */\n      tag_63\n        /* \"contracts/DaoTest.sol\":734:749  accessibleRoles */\n      dup2\n        /* \"contracts/DaoTest.sol\":729:733  test */\n      tag_44\n        /* \"contracts/DaoTest.sol\":729:750  test(accessibleRoles) */\n      jump\t// in\n    tag_63:\n        /* \"contracts/DaoTest.sol\":721:751  require(test(accessibleRoles)) */\n      tag_64\n      jumpi\n      0x00\n      dup1\n      revert\n    tag_64:\n        /* \"contracts/DaoTest.sol\":579:759  {\r... */\n      pop\n        /* \"contracts/DaoTest.sol\":550:759  function trydy() public pure {\r... */\n      jump\t// out\n        /* \"@openzeppelin/contracts/access/AccessControl.sol\":4391:4520  function getRoleAdmin(bytes32 role) public view virtual override returns (bytes32) {... */\n    tag_24:\n        /* \"@openzeppelin/contracts/access/AccessControl.sol\":4465:4472  bytes32 */\n      0x00\n        /* \"@openzeppelin/contracts/access/AccessControl.sol\":4491:4497  _roles */\n      dup1\n        /* \"@openzeppelin/contracts/access/AccessControl.sol\":4491:4503  _roles[role] */\n      0x00\n        /* \"@openzeppelin/contracts/access/AccessControl.sol\":4498:4502  role */\n      dup4\n        /* \"@openzeppelin/contracts/access/AccessControl.sol\":4491:4503  _roles[role] */\n      dup2\n      mstore\n      0x20\n      add\n      swap1\n      dup2\n      mstore\n      0x20\n      add\n      0x00\n      keccak256\n        /* \"@openzeppelin/contracts/access/AccessControl.sol\":4491:4513  _roles[role].adminRole */\n      0x01\n      add\n      sload\n        /* \"@openzeppelin/contracts/access/AccessControl.sol\":4484:4513  return _roles[role].adminRole */\n      swap1\n      pop\n        /* \"@openzeppelin/contracts/access/AccessControl.sol\":4391:4520  function getRoleAdmin(bytes32 role) public view virtual override returns (bytes32) {... */\n      swap2\n      swap1\n      pop\n      jump\t// out\n        /* \"@openzeppelin/contracts/access/AccessControl.sol\":4816:4961  function grantRole(bytes32 role, address account) public virtual override onlyRole(getRoleAdmin(role)) {... */\n    tag_30:\n        /* \"@openzeppelin/contracts/access/AccessControl.sol\":4899:4917  getRoleAdmin(role) */\n      tag_66\n        /* \"@openzeppelin/contracts/access/AccessControl.sol\":4912:4916  role */\n      dup3\n        /* \"@openzeppelin/contracts/access/AccessControl.sol\":4899:4911  getRoleAdmin */\n      tag_24\n        /* \"@openzeppelin/contracts/access/AccessControl.sol\":4899:4917  getRoleAdmin(role) */\n      jump\t// in\n    tag_66:\n        /* \"@openzeppelin/contracts/access/AccessControl.sol\":2505:2521  _checkRole(role) */\n      tag_68\n        /* \"@openzeppelin/contracts/access/AccessControl.sol\":2516:2520  role */\n      dup2\n        /* \"@openzeppelin/contracts/access/AccessControl.sol\":2505:2515  _checkRole */\n      tag_69\n        /* \"@openzeppelin/contracts/access/AccessControl.sol\":2505:2521  _checkRole(role) */\n      jump\t// in\n    tag_68:\n        /* \"@openzeppelin/contracts/access/AccessControl.sol\":4929:4954  _grantRole(role, account) */\n      tag_71\n        /* \"@openzeppelin/contracts/access/AccessControl.sol\":4940:4944  role */\n      dup4\n        /* \"@openzeppelin/contracts/access/AccessControl.sol\":4946:4953  account */\n      dup4\n        /* \"@openzeppelin/contracts/access/AccessControl.sol\":4929:4939  _grantRole */\n      tag_72\n        /* \"@openzeppelin/contracts/access/AccessControl.sol\":4929:4954  _grantRole(role, account) */\n      jump\t// in\n    tag_71:\n        /* \"@openzeppelin/contracts/access/AccessControl.sol\":4816:4961  function grantRole(bytes32 role, address account) public virtual override onlyRole(getRoleAdmin(role)) {... */\n      pop\n      pop\n      pop\n      jump\t// out\n        /* \"@openzeppelin/contracts/access/AccessControl.sol\":5925:6139  function renounceRole(bytes32 role, address account) public virtual override {... */\n    tag_33:\n        /* \"@openzeppelin/contracts/access/AccessControl.sol\":6031:6043  _msgSender() */\n      tag_74\n        /* \"@openzeppelin/contracts/access/AccessControl.sol\":6031:6041  _msgSender */\n      tag_75\n        /* \"@openzeppelin/contracts/access/AccessControl.sol\":6031:6043  _msgSender() */\n      jump\t// in\n    tag_74:\n        /* \"@openzeppelin/contracts/access/AccessControl.sol\":6020:6043  account == _msgSender() */\n      0xffffffffffffffffffffffffffffffffffffffff\n      and\n        /* \"@openzeppelin/contracts/access/AccessControl.sol\":6020:6027  account */\n      dup2\n        /* \"@openzeppelin/contracts/access/AccessControl.sol\":6020:6043  account == _msgSender() */\n      0xffffffffffffffffffffffffffffffffffffffff\n      and\n      eq\n        /* \"@openzeppelin/contracts/access/AccessControl.sol\":6012:6095  require(account == _msgSender(), \"AccessControl: can only renounce roles for self\") */\n      tag_76\n      jumpi\n      mload(0x40)\n      0x08c379a000000000000000000000000000000000000000000000000000000000\n      dup2\n      mstore\n      0x04\n      add\n      tag_77\n      swap1\n      tag_78\n      jump\t// in\n    tag_77:\n      mload(0x40)\n      dup1\n      swap2\n      sub\n      swap1\n      revert\n    tag_76:\n        /* \"@openzeppelin/contracts/access/AccessControl.sol\":6106:6132  _revokeRole(role, account) */\n      tag_79\n        /* \"@openzeppelin/contracts/access/AccessControl.sol\":6118:6122  role */\n      dup3\n        /* \"@openzeppelin/contracts/access/AccessControl.sol\":6124:6131  account */\n      dup3\n        /* \"@openzeppelin/contracts/access/AccessControl.sol\":6106:6117  _revokeRole */\n      tag_80\n        /* \"@openzeppelin/contracts/access/AccessControl.sol\":6106:6132  _revokeRole(role, account) */\n      jump\t// in\n    tag_79:\n        /* \"@openzeppelin/contracts/access/AccessControl.sol\":5925:6139  function renounceRole(bytes32 role, address account) public virtual override {... */\n      pop\n      pop\n      jump\t// out\n        /* \"@openzeppelin/contracts/access/AccessControl.sol\":2895:3040  function hasRole(bytes32 role, address account) public view virtual override returns (bool) {... */\n    tag_36:\n        /* \"@openzeppelin/contracts/access/AccessControl.sol\":2981:2985  bool */\n      0x00\n        /* \"@openzeppelin/contracts/access/AccessControl.sol\":3004:3010  _roles */\n      dup1\n        /* \"@openzeppelin/contracts/access/AccessControl.sol\":3004:3016  _roles[role] */\n      0x00\n        /* \"@openzeppelin/contracts/access/AccessControl.sol\":3011:3015  role */\n      dup5\n        /* \"@openzeppelin/contracts/access/AccessControl.sol\":3004:3016  _roles[role] */\n      dup2\n      mstore\n      0x20\n      add\n      swap1\n      dup2\n      mstore\n      0x20\n      add\n      0x00\n      keccak256\n        /* \"@openzeppelin/contracts/access/AccessControl.sol\":3004:3024  _roles[role].members */\n      0x00\n      add\n        /* \"@openzeppelin/contracts/access/AccessControl.sol\":3004:3033  _roles[role].members[account] */\n      0x00\n        /* \"@openzeppelin/contracts/access/AccessControl.sol\":3025:3032  account */\n      dup4\n        /* \"@openzeppelin/contracts/access/AccessControl.sol\":3004:3033  _roles[role].members[account] */\n      0xffffffffffffffffffffffffffffffffffffffff\n      and\n      0xffffffffffffffffffffffffffffffffffffffff\n      and\n      dup2\n      mstore\n      0x20\n      add\n      swap1\n      dup2\n      mstore\n      0x20\n      add\n      0x00\n      keccak256\n      0x00\n      swap1\n      sload\n      swap1\n      0x0100\n      exp\n      swap1\n      div\n      0xff\n      and\n        /* \"@openzeppelin/contracts/access/AccessControl.sol\":2997:3033  return _roles[role].members[account] */\n      swap1\n      pop\n        /* \"@openzeppelin/contracts/access/AccessControl.sol\":2895:3040  function hasRole(bytes32 role, address account) public view virtual override returns (bool) {... */\n      swap3\n      swap2\n      pop\n      pop\n      jump\t// out\n        /* \"@openzeppelin/contracts/access/AccessControl.sol\":2027:2076  bytes32 public constant DEFAULT_ADMIN_ROLE = 0x00 */\n    tag_39:\n        /* \"@openzeppelin/contracts/access/AccessControl.sol\":2072:2076  0x00 */\n      0x00\n        /* \"@openzeppelin/contracts/access/AccessControl.sol\":2027:2076  bytes32 public constant DEFAULT_ADMIN_ROLE = 0x00 */\n      dup1\n      shl\n      dup2\n      jump\t// out\n        /* \"contracts/DaoTest.sol\":212:542  function test(bool[] memory _accessibleRoles) public pure returns(bool)  {\r... */\n    tag_44:\n        /* \"contracts/DaoTest.sol\":278:282  bool */\n      0x00\n        /* \"contracts/DaoTest.sol\":296:308  bool ifRoles */\n      dup1\n        /* \"contracts/DaoTest.sol\":311:316  false */\n      0x00\n        /* \"contracts/DaoTest.sol\":296:316  bool ifRoles = false */\n      swap1\n      pop\n        /* \"contracts/DaoTest.sol\":332:338  uint i */\n      0x00\n        /* \"contracts/DaoTest.sol\":327:509  for (uint i = 0; i <_accessibleRoles.length; ++i) {\r... */\n    tag_83:\n        /* \"contracts/DaoTest.sol\":347:363  _accessibleRoles */\n      dup4\n        /* \"contracts/DaoTest.sol\":347:370  _accessibleRoles.length */\n      mload\n        /* \"contracts/DaoTest.sol\":344:345  i */\n      dup2\n        /* \"contracts/DaoTest.sol\":344:370  i <_accessibleRoles.length */\n      lt\n        /* \"contracts/DaoTest.sol\":327:509  for (uint i = 0; i <_accessibleRoles.length; ++i) {\r... */\n      iszero\n      tag_84\n      jumpi\n        /* \"contracts/DaoTest.sol\":419:423  true */\n      0x01\n        /* \"contracts/DaoTest.sol\":396:423  _accessibleRoles[i] == true */\n      iszero\n      iszero\n        /* \"contracts/DaoTest.sol\":396:412  _accessibleRoles */\n      dup5\n        /* \"contracts/DaoTest.sol\":413:414  i */\n      dup3\n        /* \"contracts/DaoTest.sol\":396:415  _accessibleRoles[i] */\n      dup2\n      mload\n      dup2\n      lt\n      tag_86\n      jumpi\n      tag_87\n      tag_60\n      jump\t// in\n    tag_87:\n    tag_86:\n      0x20\n      mul\n      0x20\n      add\n      add\n      mload\n        /* \"contracts/DaoTest.sol\":396:423  _accessibleRoles[i] == true */\n      iszero\n      iszero\n      eq\n        /* \"contracts/DaoTest.sol\":392:498  if (_accessibleRoles[i] == true) {\r... */\n      iszero\n      tag_88\n      jumpi\n        /* \"contracts/DaoTest.sol\":454:458  true */\n      0x01\n        /* \"contracts/DaoTest.sol\":444:458  ifRoles = true */\n      swap2\n      pop\n        /* \"contracts/DaoTest.sol\":477:482  break */\n      jump(tag_84)\n        /* \"contracts/DaoTest.sol\":392:498  if (_accessibleRoles[i] == true) {\r... */\n    tag_88:\n        /* \"contracts/DaoTest.sol\":372:375  ++i */\n      dup1\n      tag_89\n      swap1\n      tag_90\n      jump\t// in\n    tag_89:\n      swap1\n      pop\n        /* \"contracts/DaoTest.sol\":327:509  for (uint i = 0; i <_accessibleRoles.length; ++i) {\r... */\n      jump(tag_83)\n    tag_84:\n      pop\n        /* \"contracts/DaoTest.sol\":526:533  ifRoles */\n      dup1\n        /* \"contracts/DaoTest.sol\":519:534  return(ifRoles) */\n      swap2\n      pop\n      pop\n        /* \"contracts/DaoTest.sol\":212:542  function test(bool[] memory _accessibleRoles) public pure returns(bool)  {\r... */\n      swap2\n      swap1\n      pop\n      jump\t// out\n        /* \"@openzeppelin/contracts/access/AccessControl.sol\":5241:5388  function revokeRole(bytes32 role, address account) public virtual override onlyRole(getRoleAdmin(role)) {... */\n    tag_48:\n        /* \"@openzeppelin/contracts/access/AccessControl.sol\":5325:5343  getRoleAdmin(role) */\n      tag_91\n        /* \"@openzeppelin/contracts/access/AccessControl.sol\":5338:5342  role */\n      dup3\n        /* \"@openzeppelin/contracts/access/AccessControl.sol\":5325:5337  getRoleAdmin */\n      tag_24\n        /* \"@openzeppelin/contracts/access/AccessControl.sol\":5325:5343  getRoleAdmin(role) */\n      jump\t// in\n    tag_91:\n        /* \"@openzeppelin/contracts/access/AccessControl.sol\":2505:2521  _checkRole(role) */\n      tag_93\n        /* \"@openzeppelin/contracts/access/AccessControl.sol\":2516:2520  role */\n      dup2\n        /* \"@openzeppelin/contracts/access/AccessControl.sol\":2505:2515  _checkRole */\n      tag_69\n        /* \"@openzeppelin/contracts/access/AccessControl.sol\":2505:2521  _checkRole(role) */\n      jump\t// in\n    tag_93:\n        /* \"@openzeppelin/contracts/access/AccessControl.sol\":5355:5381  _revokeRole(role, account) */\n      tag_95\n        /* \"@openzeppelin/contracts/access/AccessControl.sol\":5367:5371  role */\n      dup4\n        /* \"@openzeppelin/contracts/access/AccessControl.sol\":5373:5380  account */\n      dup4\n        /* \"@openzeppelin/contracts/access/AccessControl.sol\":5355:5366  _revokeRole */\n      tag_80\n        /* \"@openzeppelin/contracts/access/AccessControl.sol\":5355:5381  _revokeRole(role, account) */\n      jump\t// in\n    tag_95:\n        /* \"@openzeppelin/contracts/access/AccessControl.sol\":5241:5388  function revokeRole(bytes32 role, address account) public virtual override onlyRole(getRoleAdmin(role)) {... */\n      pop\n      pop\n      pop\n      jump\t// out\n        /* \"@openzeppelin/contracts/utils/introspection/ERC165.sol\":829:984  function supportsInterface(bytes4 interfaceId) public view virtual override returns (bool) {... */\n    tag_52:\n        /* \"@openzeppelin/contracts/utils/introspection/ERC165.sol\":914:918  bool */\n      0x00\n        /* \"@openzeppelin/contracts/utils/introspection/ERC165.sol\":952:977  type(IERC165).interfaceId */\n      0x01ffc9a700000000000000000000000000000000000000000000000000000000\n        /* \"@openzeppelin/contracts/utils/introspection/ERC165.sol\":937:977  interfaceId == type(IERC165).interfaceId */\n      not(0xffffffffffffffffffffffffffffffffffffffffffffffffffffffff)\n      and\n        /* \"@openzeppelin/contracts/utils/introspection/ERC165.sol\":937:948  interfaceId */\n      dup3\n        /* \"@openzeppelin/contracts/utils/introspection/ERC165.sol\":937:977  interfaceId == type(IERC165).interfaceId */\n      not(0xffffffffffffffffffffffffffffffffffffffffffffffffffffffff)\n      and\n      eq\n        /* \"@openzeppelin/contracts/utils/introspection/ERC165.sol\":930:977  return interfaceId == type(IERC165).interfaceId */\n      swap1\n      pop\n        /* \"@openzeppelin/contracts/utils/introspection/ERC165.sol\":829:984  function supportsInterface(bytes4 interfaceId) public view virtual override returns (bool) {... */\n      swap2\n      swap1\n      pop\n      jump\t// out\n        /* \"@openzeppelin/contracts/access/AccessControl.sol\":3334:3437  function _checkRole(bytes32 role) internal view virtual {... */\n    tag_69:\n        /* \"@openzeppelin/contracts/access/AccessControl.sol\":3400:3430  _checkRole(role, _msgSender()) */\n      tag_98\n        /* \"@openzeppelin/contracts/access/AccessControl.sol\":3411:3415  role */\n      dup2\n        /* \"@openzeppelin/contracts/access/AccessControl.sol\":3417:3429  _msgSender() */\n      tag_99\n        /* \"@openzeppelin/contracts/access/AccessControl.sol\":3417:3427  _msgSender */\n      tag_75\n        /* \"@openzeppelin/contracts/access/AccessControl.sol\":3417:3429  _msgSender() */\n      jump\t// in\n    tag_99:\n        /* \"@openzeppelin/contracts/access/AccessControl.sol\":3400:3410  _checkRole */\n      tag_100\n        /* \"@openzeppelin/contracts/access/AccessControl.sol\":3400:3430  _checkRole(role, _msgSender()) */\n      jump\t// in\n    tag_98:\n        /* \"@openzeppelin/contracts/access/AccessControl.sol\":3334:3437  function _checkRole(bytes32 role) internal view virtual {... */\n      pop\n      jump\t// out\n        /* \"@openzeppelin/contracts/access/AccessControl.sol\":7474:7707  function _grantRole(bytes32 role, address account) internal virtual {... */\n    tag_72:\n        /* \"@openzeppelin/contracts/access/AccessControl.sol\":7557:7579  hasRole(role, account) */\n      tag_102\n        /* \"@openzeppelin/contracts/access/AccessControl.sol\":7565:7569  role */\n      dup3\n        /* \"@openzeppelin/contracts/access/AccessControl.sol\":7571:7578  account */\n      dup3\n        /* \"@openzeppelin/contracts/access/AccessControl.sol\":7557:7564  hasRole */\n      tag_36\n        /* \"@openzeppelin/contracts/access/AccessControl.sol\":7557:7579  hasRole(role, account) */\n      jump\t// in\n    tag_102:\n        /* \"@openzeppelin/contracts/access/AccessControl.sol\":7552:7701  if (!hasRole(role, account)) {... */\n      tag_103\n      jumpi\n        /* \"@openzeppelin/contracts/access/AccessControl.sol\":7627:7631  true */\n      0x01\n        /* \"@openzeppelin/contracts/access/AccessControl.sol\":7595:7601  _roles */\n      0x00\n        /* \"@openzeppelin/contracts/access/AccessControl.sol\":7595:7607  _roles[role] */\n      dup1\n        /* \"@openzeppelin/contracts/access/AccessControl.sol\":7602:7606  role */\n      dup5\n        /* \"@openzeppelin/contracts/access/AccessControl.sol\":7595:7607  _roles[role] */\n      dup2\n      mstore\n      0x20\n      add\n      swap1\n      dup2\n      mstore\n      0x20\n      add\n      0x00\n      keccak256\n        /* \"@openzeppelin/contracts/access/AccessControl.sol\":7595:7615  _roles[role].members */\n      0x00\n      add\n        /* \"@openzeppelin/contracts/access/AccessControl.sol\":7595:7624  _roles[role].members[account] */\n      0x00\n        /* \"@openzeppelin/contracts/access/AccessControl.sol\":7616:7623  account */\n      dup4\n        /* \"@openzeppelin/contracts/access/AccessControl.sol\":7595:7624  _roles[role].members[account] */\n      0xffffffffffffffffffffffffffffffffffffffff\n      and\n      0xffffffffffffffffffffffffffffffffffffffff\n      and\n      dup2\n      mstore\n      0x20\n      add\n      swap1\n      dup2\n      mstore\n      0x20\n      add\n      0x00\n      keccak256\n      0x00\n        /* \"@openzeppelin/contracts/access/AccessControl.sol\":7595:7631  _roles[role].members[account] = true */\n      0x0100\n      exp\n      dup2\n      sload\n      dup2\n      0xff\n      mul\n      not\n      and\n      swap1\n      dup4\n      iszero\n      iszero\n      mul\n      or\n      swap1\n      sstore\n      pop\n        /* \"@openzeppelin/contracts/access/AccessControl.sol\":7677:7689  _msgSender() */\n      tag_104\n        /* \"@openzeppelin/contracts/access/AccessControl.sol\":7677:7687  _msgSender */\n      tag_75\n        /* \"@openzeppelin/contracts/access/AccessControl.sol\":7677:7689  _msgSender() */\n      jump\t// in\n    tag_104:\n        /* \"@openzeppelin/contracts/access/AccessControl.sol\":7650:7690  RoleGranted(role, account, _msgSender()) */\n      0xffffffffffffffffffffffffffffffffffffffff\n      and\n        /* \"@openzeppelin/contracts/access/AccessControl.sol\":7668:7675  account */\n      dup2\n        /* \"@openzeppelin/contracts/access/AccessControl.sol\":7650:7690  RoleGranted(role, account, _msgSender()) */\n      0xffffffffffffffffffffffffffffffffffffffff\n      and\n        /* \"@openzeppelin/contracts/access/AccessControl.sol\":7662:7666  role */\n      dup4\n        /* \"@openzeppelin/contracts/access/AccessControl.sol\":7650:7690  RoleGranted(role, account, _msgSender()) */\n      0x2f8788117e7eff1d82e926ec794901d17c78024a50270940304540a733656f0d\n      mload(0x40)\n      mload(0x40)\n      dup1\n      swap2\n      sub\n      swap1\n      log4\n        /* \"@openzeppelin/contracts/access/AccessControl.sol\":7552:7701  if (!hasRole(role, account)) {... */\n    tag_103:\n        /* \"@openzeppelin/contracts/access/AccessControl.sol\":7474:7707  function _grantRole(bytes32 role, address account) internal virtual {... */\n      pop\n      pop\n      jump\t// out\n        /* \"@openzeppelin/contracts/utils/Context.sol\":640:736  function _msgSender() internal view virtual returns (address) {... */\n    tag_75:\n        /* \"@openzeppelin/contracts/utils/Context.sol\":693:700  address */\n      0x00\n        /* \"@openzeppelin/contracts/utils/Context.sol\":719:729  msg.sender */\n      caller\n        /* \"@openzeppelin/contracts/utils/Context.sol\":712:729  return msg.sender */\n      swap1\n      pop\n        /* \"@openzeppelin/contracts/utils/Context.sol\":640:736  function _msgSender() internal view virtual returns (address) {... */\n      swap1\n      jump\t// out\n        /* \"@openzeppelin/contracts/access/AccessControl.sol\":7878:8112  function _revokeRole(bytes32 role, address account) internal virtual {... */\n    tag_80:\n        /* \"@openzeppelin/contracts/access/AccessControl.sol\":7961:7983  hasRole(role, account) */\n      tag_107\n        /* \"@openzeppelin/contracts/access/AccessControl.sol\":7969:7973  role */\n      dup3\n        /* \"@openzeppelin/contracts/access/AccessControl.sol\":7975:7982  account */\n      dup3\n        /* \"@openzeppelin/contracts/access/AccessControl.sol\":7961:7968  hasRole */\n      tag_36\n        /* \"@openzeppelin/contracts/access/AccessControl.sol\":7961:7983  hasRole(role, account) */\n      jump\t// in\n    tag_107:\n        /* \"@openzeppelin/contracts/access/AccessControl.sol\":7957:8106  if (hasRole(role, account)) {... */\n      iszero\n      tag_108\n      jumpi\n        /* \"@openzeppelin/contracts/access/AccessControl.sol\":8031:8036  false */\n      0x00\n        /* \"@openzeppelin/contracts/access/AccessControl.sol\":7999:8005  _roles */\n      dup1\n        /* \"@openzeppelin/contracts/access/AccessControl.sol\":7999:8011  _roles[role] */\n      0x00\n        /* \"@openzeppelin/contracts/access/AccessControl.sol\":8006:8010  role */\n      dup5\n        /* \"@openzeppelin/contracts/access/AccessControl.sol\":7999:8011  _roles[role] */\n      dup2\n      mstore\n      0x20\n      add\n      swap1\n      dup2\n      mstore\n      0x20\n      add\n      0x00\n      keccak256\n        /* \"@openzeppelin/contracts/access/AccessControl.sol\":7999:8019  _roles[role].members */\n      0x00\n      add\n        /* \"@openzeppelin/contracts/access/AccessControl.sol\":7999:8028  _roles[role].members[account] */\n      0x00\n        /* \"@openzeppelin/contracts/access/AccessControl.sol\":8020:8027  account */\n      dup4\n        /* \"@openzeppelin/contracts/access/AccessControl.sol\":7999:8028  _roles[role].members[account] */\n      0xffffffffffffffffffffffffffffffffffffffff\n      and\n      0xffffffffffffffffffffffffffffffffffffffff\n      and\n      dup2\n      mstore\n      0x20\n      add\n      swap1\n      dup2\n      mstore\n      0x20\n      add\n      0x00\n      keccak256\n      0x00\n        /* \"@openzeppelin/contracts/access/AccessControl.sol\":7999:8036  _roles[role].members[account] = false */\n      0x0100\n      exp\n      dup2\n      sload\n      dup2\n      0xff\n      mul\n      not\n      and\n      swap1\n      dup4\n      iszero\n      iszero\n      mul\n      or\n      swap1\n      sstore\n      pop\n        /* \"@openzeppelin/contracts/access/AccessControl.sol\":8082:8094  _msgSender() */\n      tag_109\n        /* \"@openzeppelin/contracts/access/AccessControl.sol\":8082:8092  _msgSender */\n      tag_75\n        /* \"@openzeppelin/contracts/access/AccessControl.sol\":8082:8094  _msgSender() */\n      jump\t// in\n    tag_109:\n        /* \"@openzeppelin/contracts/access/AccessControl.sol\":8055:8095  RoleRevoked(role, account, _msgSender()) */\n      0xffffffffffffffffffffffffffffffffffffffff\n      and\n        /* \"@openzeppelin/contracts/access/AccessControl.sol\":8073:8080  account */\n      dup2\n        /* \"@openzeppelin/contracts/access/AccessControl.sol\":8055:8095  RoleRevoked(role, account, _msgSender()) */\n      0xffffffffffffffffffffffffffffffffffffffff\n      and\n        /* \"@openzeppelin/contracts/access/AccessControl.sol\":8067:8071  role */\n      dup4\n        /* \"@openzeppelin/contracts/access/AccessControl.sol\":8055:8095  RoleRevoked(role, account, _msgSender()) */\n      0xf6391f5c32d9c69d2a47ea670b442974b53935d1edc7fd64eb21e047a839171b\n      mload(0x40)\n      mload(0x40)\n      dup1\n      swap2\n      sub\n      swap1\n      log4\n        /* \"@openzeppelin/contracts/access/AccessControl.sol\":7957:8106  if (hasRole(role, account)) {... */\n    tag_108:\n        /* \"@openzeppelin/contracts/access/AccessControl.sol\":7878:8112  function _revokeRole(bytes32 role, address account) internal virtual {... */\n      pop\n      pop\n      jump\t// out\n        /* \"@openzeppelin/contracts/access/AccessControl.sol\":3718:4210  function _checkRole(bytes32 role, address account) internal view virtual {... */\n    tag_100:\n        /* \"@openzeppelin/contracts/access/AccessControl.sol\":3806:3828  hasRole(role, account) */\n      tag_111\n        /* \"@openzeppelin/contracts/access/AccessControl.sol\":3814:3818  role */\n      dup3\n        /* \"@openzeppelin/contracts/access/AccessControl.sol\":3820:3827  account */\n      dup3\n        /* \"@openzeppelin/contracts/access/AccessControl.sol\":3806:3813  hasRole */\n      tag_36\n        /* \"@openzeppelin/contracts/access/AccessControl.sol\":3806:3828  hasRole(role, account) */\n      jump\t// in\n    tag_111:\n        /* \"@openzeppelin/contracts/access/AccessControl.sol\":3801:4204  if (!hasRole(role, account)) {... */\n      tag_112\n      jumpi\n        /* \"@openzeppelin/contracts/access/AccessControl.sol\":3989:4030  Strings.toHexString(uint160(account), 20) */\n      tag_113\n        /* \"@openzeppelin/contracts/access/AccessControl.sol\":4017:4024  account */\n      dup2\n        /* \"@openzeppelin/contracts/access/AccessControl.sol\":3989:4030  Strings.toHexString(uint160(account), 20) */\n      0xffffffffffffffffffffffffffffffffffffffff\n      and\n        /* \"@openzeppelin/contracts/access/AccessControl.sol\":4027:4029  20 */\n      0x14\n        /* \"@openzeppelin/contracts/access/AccessControl.sol\":3989:4008  Strings.toHexString */\n      tag_114\n        /* \"@openzeppelin/contracts/access/AccessControl.sol\":3989:4030  Strings.toHexString(uint160(account), 20) */\n      jump\t// in\n    tag_113:\n        /* \"@openzeppelin/contracts/access/AccessControl.sol\":4101:4139  Strings.toHexString(uint256(role), 32) */\n      tag_115\n        /* \"@openzeppelin/contracts/access/AccessControl.sol\":4129:4133  role */\n      dup4\n        /* \"@openzeppelin/contracts/access/AccessControl.sol\":4121:4134  uint256(role) */\n      0x00\n      shr\n        /* \"@openzeppelin/contracts/access/AccessControl.sol\":4136:4138  32 */\n      0x20\n        /* \"@openzeppelin/contracts/access/AccessControl.sol\":4101:4120  Strings.toHexString */\n      tag_114\n        /* \"@openzeppelin/contracts/access/AccessControl.sol\":4101:4139  Strings.toHexString(uint256(role), 32) */\n      jump\t// in\n    tag_115:\n        /* \"@openzeppelin/contracts/access/AccessControl.sol\":3896:4161  abi.encodePacked(... */\n      add(0x20, mload(0x40))\n      tag_116\n      swap3\n      swap2\n      swap1\n      tag_117\n      jump\t// in\n    tag_116:\n      mload(0x40)\n      0x20\n      dup2\n      dup4\n      sub\n      sub\n      dup2\n      mstore\n      swap1\n      0x40\n      mstore\n        /* \"@openzeppelin/contracts/access/AccessControl.sol\":3844:4193  revert(... */\n      mload(0x40)\n      0x08c379a000000000000000000000000000000000000000000000000000000000\n      dup2\n      mstore\n      0x04\n      add\n      tag_118\n      swap2\n      swap1\n      tag_119\n      jump\t// in\n    tag_118:\n      mload(0x40)\n      dup1\n      swap2\n      sub\n      swap1\n      revert\n        /* \"@openzeppelin/contracts/access/AccessControl.sol\":3801:4204  if (!hasRole(role, account)) {... */\n    tag_112:\n        /* \"@openzeppelin/contracts/access/AccessControl.sol\":3718:4210  function _checkRole(bytes32 role, address account) internal view virtual {... */\n      pop\n      pop\n      jump\t// out\n        /* \"@openzeppelin/contracts/utils/Strings.sol\":1652:2093  function toHexString(uint256 value, uint256 length) internal pure returns (string memory) {... */\n    tag_114:\n        /* \"@openzeppelin/contracts/utils/Strings.sol\":1727:1740  string memory */\n      0x60\n        /* \"@openzeppelin/contracts/utils/Strings.sol\":1752:1771  bytes memory buffer */\n      0x00\n        /* \"@openzeppelin/contracts/utils/Strings.sol\":1797:1798  2 */\n      0x02\n        /* \"@openzeppelin/contracts/utils/Strings.sol\":1788:1794  length */\n      dup4\n        /* \"@openzeppelin/contracts/utils/Strings.sol\":1784:1785  2 */\n      0x02\n        /* \"@openzeppelin/contracts/utils/Strings.sol\":1784:1794  2 * length */\n      tag_121\n      swap2\n      swap1\n      tag_122\n      jump\t// in\n    tag_121:\n        /* \"@openzeppelin/contracts/utils/Strings.sol\":1784:1798  2 * length + 2 */\n      tag_123\n      swap2\n      swap1\n      tag_124\n      jump\t// in\n    tag_123:\n        /* \"@openzeppelin/contracts/utils/Strings.sol\":1774:1799  new bytes(2 * length + 2) */\n      0xffffffffffffffff\n      dup2\n      gt\n      iszero\n      tag_125\n      jumpi\n      tag_126\n      tag_56\n      jump\t// in\n    tag_126:\n    tag_125:\n      mload(0x40)\n      swap1\n      dup1\n      dup3\n      mstore\n      dup1\n      0x1f\n      add\n      not(0x1f)\n      and\n      0x20\n      add\n      dup3\n      add\n      0x40\n      mstore\n      dup1\n      iszero\n      tag_127\n      jumpi\n      dup2\n      0x20\n      add\n      0x01\n      dup3\n      mul\n      dup1\n      calldatasize\n      dup4\n      calldatacopy\n      dup1\n      dup3\n      add\n      swap2\n      pop\n      pop\n      swap1\n      pop\n    tag_127:\n      pop\n        /* \"@openzeppelin/contracts/utils/Strings.sol\":1752:1799  bytes memory buffer = new bytes(2 * length + 2) */\n      swap1\n      pop\n        /* \"@openzeppelin/contracts/utils/Strings.sol\":1809:1824  buffer[0] = \"0\" */\n      0x3000000000000000000000000000000000000000000000000000000000000000\n        /* \"@openzeppelin/contracts/utils/Strings.sol\":1809:1815  buffer */\n      dup2\n        /* \"@openzeppelin/contracts/utils/Strings.sol\":1816:1817  0 */\n      0x00\n        /* \"@openzeppelin/contracts/utils/Strings.sol\":1809:1818  buffer[0] */\n      dup2\n      mload\n      dup2\n      lt\n      tag_128\n      jumpi\n      tag_129\n      tag_60\n      jump\t// in\n    tag_129:\n    tag_128:\n      0x20\n      add\n      add\n        /* \"@openzeppelin/contracts/utils/Strings.sol\":1809:1824  buffer[0] = \"0\" */\n      swap1\n      not(0xffffffffffffffffffffffffffffffffffffffffffffffffffffffffffffff)\n      and\n      swap1\n      dup2\n      0x00\n      byte\n      swap1\n      mstore8\n      pop\n        /* \"@openzeppelin/contracts/utils/Strings.sol\":1834:1849  buffer[1] = \"x\" */\n      0x7800000000000000000000000000000000000000000000000000000000000000\n        /* \"@openzeppelin/contracts/utils/Strings.sol\":1834:1840  buffer */\n      dup2\n        /* \"@openzeppelin/contracts/utils/Strings.sol\":1841:1842  1 */\n      0x01\n        /* \"@openzeppelin/contracts/utils/Strings.sol\":1834:1843  buffer[1] */\n      dup2\n      mload\n      dup2\n      lt\n      tag_130\n      jumpi\n      tag_131\n      tag_60\n      jump\t// in\n    tag_131:\n    tag_130:\n      0x20\n      add\n      add\n        /* \"@openzeppelin/contracts/utils/Strings.sol\":1834:1849  buffer[1] = \"x\" */\n      swap1\n      not(0xffffffffffffffffffffffffffffffffffffffffffffffffffffffffffffff)\n      and\n      swap1\n      dup2\n      0x00\n      byte\n      swap1\n      mstore8\n      pop\n        /* \"@openzeppelin/contracts/utils/Strings.sol\":1864:1873  uint256 i */\n      0x00\n        /* \"@openzeppelin/contracts/utils/Strings.sol\":1889:1890  1 */\n      0x01\n        /* \"@openzeppelin/contracts/utils/Strings.sol\":1880:1886  length */\n      dup5\n        /* \"@openzeppelin/contracts/utils/Strings.sol\":1876:1877  2 */\n      0x02\n        /* \"@openzeppelin/contracts/utils/Strings.sol\":1876:1886  2 * length */\n      tag_135\n      swap2\n      swap1\n      tag_122\n      jump\t// in\n    tag_135:\n        /* \"@openzeppelin/contracts/utils/Strings.sol\":1876:1890  2 * length + 1 */\n      tag_136\n      swap2\n      swap1\n      tag_124\n      jump\t// in\n    tag_136:\n        /* \"@openzeppelin/contracts/utils/Strings.sol\":1864:1890  uint256 i = 2 * length + 1 */\n      swap1\n      pop\n        /* \"@openzeppelin/contracts/utils/Strings.sol\":1859:1991  for (uint256 i = 2 * length + 1; i > 1; --i) {... */\n    tag_132:\n        /* \"@openzeppelin/contracts/utils/Strings.sol\":1896:1897  1 */\n      0x01\n        /* \"@openzeppelin/contracts/utils/Strings.sol\":1892:1893  i */\n      dup2\n        /* \"@openzeppelin/contracts/utils/Strings.sol\":1892:1897  i > 1 */\n      gt\n        /* \"@openzeppelin/contracts/utils/Strings.sol\":1859:1991  for (uint256 i = 2 * length + 1; i > 1; --i) {... */\n      iszero\n      tag_133\n      jumpi\n        /* \"@openzeppelin/contracts/utils/Strings.sol\":1930:1942  _HEX_SYMBOLS */\n      0x3031323334353637383961626364656600000000000000000000000000000000\n        /* \"@openzeppelin/contracts/utils/Strings.sol\":1951:1954  0xf */\n      0x0f\n        /* \"@openzeppelin/contracts/utils/Strings.sol\":1943:1948  value */\n      dup7\n        /* \"@openzeppelin/contracts/utils/Strings.sol\":1943:1954  value & 0xf */\n      and\n        /* \"@openzeppelin/contracts/utils/Strings.sol\":1930:1955  _HEX_SYMBOLS[value & 0xf] */\n      0x10\n      dup2\n      lt\n      tag_137\n      jumpi\n      tag_138\n      tag_60\n      jump\t// in\n    tag_138:\n    tag_137:\n      byte\n      0xf8\n      shl\n        /* \"@openzeppelin/contracts/utils/Strings.sol\":1918:1924  buffer */\n      dup3\n        /* \"@openzeppelin/contracts/utils/Strings.sol\":1925:1926  i */\n      dup3\n        /* \"@openzeppelin/contracts/utils/Strings.sol\":1918:1927  buffer[i] */\n      dup2\n      mload\n      dup2\n      lt\n      tag_139\n      jumpi\n      tag_140\n      tag_60\n      jump\t// in\n    tag_140:\n    tag_139:\n      0x20\n      add\n      add\n        /* \"@openzeppelin/contracts/utils/Strings.sol\":1918:1955  buffer[i] = _HEX_SYMBOLS[value & 0xf] */\n      swap1\n      not(0xffffffffffffffffffffffffffffffffffffffffffffffffffffffffffffff)\n      and\n      swap1\n      dup2\n      0x00\n      byte\n      swap1\n      mstore8\n      pop\n        /* \"@openzeppelin/contracts/utils/Strings.sol\":1979:1980  4 */\n      0x04\n        /* \"@openzeppelin/contracts/utils/Strings.sol\":1969:1980  value >>= 4 */\n      dup6\n      swap1\n      shr\n      swap5\n      pop\n        /* \"@openzeppelin/contracts/utils/Strings.sol\":1899:1902  --i */\n      dup1\n      tag_141\n      swap1\n      tag_142\n      jump\t// in\n    tag_141:\n      swap1\n      pop\n        /* \"@openzeppelin/contracts/utils/Strings.sol\":1859:1991  for (uint256 i = 2 * length + 1; i > 1; --i) {... */\n      jump(tag_132)\n    tag_133:\n      pop\n        /* \"@openzeppelin/contracts/utils/Strings.sol\":2017:2018  0 */\n      0x00\n        /* \"@openzeppelin/contracts/utils/Strings.sol\":2008:2013  value */\n      dup5\n        /* \"@openzeppelin/contracts/utils/Strings.sol\":2008:2018  value == 0 */\n      eq\n        /* \"@openzeppelin/contracts/utils/Strings.sol\":2000:2055  require(value == 0, \"Strings: hex length insufficient\") */\n      tag_143\n      jumpi\n      mload(0x40)\n      0x08c379a000000000000000000000000000000000000000000000000000000000\n      dup2\n      mstore\n      0x04\n      add\n      tag_144\n      swap1\n      tag_145\n      jump\t// in\n    tag_144:\n      mload(0x40)\n      dup1\n      swap2\n      sub\n      swap1\n      revert\n    tag_143:\n        /* \"@openzeppelin/contracts/utils/Strings.sol\":2079:2085  buffer */\n      dup1\n        /* \"@openzeppelin/contracts/utils/Strings.sol\":2065:2086  return string(buffer) */\n      swap2\n      pop\n      pop\n        /* \"@openzeppelin/contracts/utils/Strings.sol\":1652:2093  function toHexString(uint256 value, uint256 length) internal pure returns (string memory) {... */\n      swap3\n      swap2\n      pop\n      pop\n      jump\t// out\n        /* \"#utility.yul\":21:734   */\n    tag_147:\n        /* \"#utility.yul\":114:119   */\n      0x00\n        /* \"#utility.yul\":139:217   */\n      tag_149\n        /* \"#utility.yul\":155:216   */\n      tag_150\n        /* \"#utility.yul\":209:215   */\n      dup5\n        /* \"#utility.yul\":155:216   */\n      tag_151\n      jump\t// in\n    tag_150:\n        /* \"#utility.yul\":139:217   */\n      tag_152\n      jump\t// in\n    tag_149:\n        /* \"#utility.yul\":130:217   */\n      swap1\n      pop\n        /* \"#utility.yul\":237:242   */\n      dup1\n        /* \"#utility.yul\":266:272   */\n      dup4\n        /* \"#utility.yul\":259:264   */\n      dup3\n        /* \"#utility.yul\":252:273   */\n      mstore\n        /* \"#utility.yul\":300:304   */\n      0x20\n        /* \"#utility.yul\":293:298   */\n      dup3\n        /* \"#utility.yul\":289:305   */\n      add\n        /* \"#utility.yul\":282:305   */\n      swap1\n      pop\n        /* \"#utility.yul\":326:332   */\n      dup3\n        /* \"#utility.yul\":376:379   */\n      dup6\n        /* \"#utility.yul\":368:372   */\n      0x20\n        /* \"#utility.yul\":360:366   */\n      dup7\n        /* \"#utility.yul\":356:373   */\n      mul\n        /* \"#utility.yul\":351:354   */\n      dup3\n        /* \"#utility.yul\":347:374   */\n      add\n        /* \"#utility.yul\":344:380   */\n      gt\n        /* \"#utility.yul\":341:484   */\n      iszero\n      tag_153\n      jumpi\n        /* \"#utility.yul\":395:474   */\n      tag_154\n      tag_155\n      jump\t// in\n    tag_154:\n        /* \"#utility.yul\":341:484   */\n    tag_153:\n        /* \"#utility.yul\":508:509   */\n      0x00\n        /* \"#utility.yul\":493:728   */\n    tag_156:\n        /* \"#utility.yul\":518:524   */\n      dup6\n        /* \"#utility.yul\":515:516   */\n      dup2\n        /* \"#utility.yul\":512:525   */\n      lt\n        /* \"#utility.yul\":493:728   */\n      iszero\n      tag_158\n      jumpi\n        /* \"#utility.yul\":586:589   */\n      dup2\n        /* \"#utility.yul\":615:649   */\n      tag_159\n        /* \"#utility.yul\":645:648   */\n      dup9\n        /* \"#utility.yul\":633:643   */\n      dup3\n        /* \"#utility.yul\":615:649   */\n      tag_160\n      jump\t// in\n    tag_159:\n        /* \"#utility.yul\":610:613   */\n      dup5\n        /* \"#utility.yul\":603:650   */\n      mstore\n        /* \"#utility.yul\":679:683   */\n      0x20\n        /* \"#utility.yul\":674:677   */\n      dup5\n        /* \"#utility.yul\":670:684   */\n      add\n        /* \"#utility.yul\":663:684   */\n      swap4\n      pop\n        /* \"#utility.yul\":713:717   */\n      0x20\n        /* \"#utility.yul\":708:711   */\n      dup4\n        /* \"#utility.yul\":704:718   */\n      add\n        /* \"#utility.yul\":697:718   */\n      swap3\n      pop\n        /* \"#utility.yul\":553:728   */\n      pop\n        /* \"#utility.yul\":540:541   */\n      0x01\n        /* \"#utility.yul\":537:538   */\n      dup2\n        /* \"#utility.yul\":533:542   */\n      add\n        /* \"#utility.yul\":528:542   */\n      swap1\n      pop\n        /* \"#utility.yul\":493:728   */\n      jump(tag_156)\n    tag_158:\n        /* \"#utility.yul\":497:511   */\n      pop\n        /* \"#utility.yul\":120:734   */\n      pop\n      pop\n        /* \"#utility.yul\":21:734   */\n      swap4\n      swap3\n      pop\n      pop\n      pop\n      jump\t// out\n        /* \"#utility.yul\":740:879   */\n    tag_161:\n        /* \"#utility.yul\":786:791   */\n      0x00\n        /* \"#utility.yul\":824:830   */\n      dup2\n        /* \"#utility.yul\":811:831   */\n      calldataload\n        /* \"#utility.yul\":802:831   */\n      swap1\n      pop\n        /* \"#utility.yul\":840:873   */\n      tag_163\n        /* \"#utility.yul\":867:872   */\n      dup2\n        /* \"#utility.yul\":840:873   */\n      tag_164\n      jump\t// in\n    tag_163:\n        /* \"#utility.yul\":740:879   */\n      swap3\n      swap2\n      pop\n      pop\n      jump\t// out\n        /* \"#utility.yul\":899:1263   */\n    tag_165:\n        /* \"#utility.yul\":967:972   */\n      0x00\n        /* \"#utility.yul\":1016:1019   */\n      dup3\n        /* \"#utility.yul\":1009:1013   */\n      0x1f\n        /* \"#utility.yul\":1001:1007   */\n      dup4\n        /* \"#utility.yul\":997:1014   */\n      add\n        /* \"#utility.yul\":993:1020   */\n      slt\n        /* \"#utility.yul\":983:1105   */\n      tag_167\n      jumpi\n        /* \"#utility.yul\":1024:1103   */\n      tag_168\n      tag_169\n      jump\t// in\n    tag_168:\n        /* \"#utility.yul\":983:1105   */\n    tag_167:\n        /* \"#utility.yul\":1141:1147   */\n      dup2\n        /* \"#utility.yul\":1128:1148   */\n      calldataload\n        /* \"#utility.yul\":1166:1257   */\n      tag_170\n        /* \"#utility.yul\":1253:1256   */\n      dup5\n        /* \"#utility.yul\":1245:1251   */\n      dup3\n        /* \"#utility.yul\":1238:1242   */\n      0x20\n        /* \"#utility.yul\":1230:1236   */\n      dup7\n        /* \"#utility.yul\":1226:1243   */\n      add\n        /* \"#utility.yul\":1166:1257   */\n      tag_147\n      jump\t// in\n    tag_170:\n        /* \"#utility.yul\":1157:1257   */\n      swap2\n      pop\n        /* \"#utility.yul\":973:1263   */\n      pop\n        /* \"#utility.yul\":899:1263   */\n      swap3\n      swap2\n      pop\n      pop\n      jump\t// out\n        /* \"#utility.yul\":1269:1402   */\n    tag_160:\n        /* \"#utility.yul\":1312:1317   */\n      0x00\n        /* \"#utility.yul\":1350:1356   */\n      dup2\n        /* \"#utility.yul\":1337:1357   */\n      calldataload\n        /* \"#utility.yul\":1328:1357   */\n      swap1\n      pop\n        /* \"#utility.yul\":1366:1396   */\n      tag_172\n        /* \"#utility.yul\":1390:1395   */\n      dup2\n        /* \"#utility.yul\":1366:1396   */\n      tag_173\n      jump\t// in\n    tag_172:\n        /* \"#utility.yul\":1269:1402   */\n      swap3\n      swap2\n      pop\n      pop\n      jump\t// out\n        /* \"#utility.yul\":1408:1547   */\n    tag_174:\n        /* \"#utility.yul\":1454:1459   */\n      0x00\n        /* \"#utility.yul\":1492:1498   */\n      dup2\n        /* \"#utility.yul\":1479:1499   */\n      calldataload\n        /* \"#utility.yul\":1470:1499   */\n      swap1\n      pop\n        /* \"#utility.yul\":1508:1541   */\n      tag_176\n        /* \"#utility.yul\":1535:1540   */\n      dup2\n        /* \"#utility.yul\":1508:1541   */\n      tag_177\n      jump\t// in\n    tag_176:\n        /* \"#utility.yul\":1408:1547   */\n      swap3\n      swap2\n      pop\n      pop\n      jump\t// out\n        /* \"#utility.yul\":1553:1690   */\n    tag_178:\n        /* \"#utility.yul\":1598:1603   */\n      0x00\n        /* \"#utility.yul\":1636:1642   */\n      dup2\n        /* \"#utility.yul\":1623:1643   */\n      calldataload\n        /* \"#utility.yul\":1614:1643   */\n      swap1\n      pop\n        /* \"#utility.yul\":1652:1684   */\n      tag_180\n        /* \"#utility.yul\":1678:1683   */\n      dup2\n        /* \"#utility.yul\":1652:1684   */\n      tag_181\n      jump\t// in\n    tag_180:\n        /* \"#utility.yul\":1553:1690   */\n      swap3\n      swap2\n      pop\n      pop\n      jump\t// out\n        /* \"#utility.yul\":1696:2229   */\n    tag_43:\n        /* \"#utility.yul\":1777:1783   */\n      0x00\n        /* \"#utility.yul\":1826:1828   */\n      0x20\n        /* \"#utility.yul\":1814:1823   */\n      dup3\n        /* \"#utility.yul\":1805:1812   */\n      dup5\n        /* \"#utility.yul\":1801:1824   */\n      sub\n        /* \"#utility.yul\":1797:1829   */\n      slt\n        /* \"#utility.yul\":1794:1913   */\n      iszero\n      tag_183\n      jumpi\n        /* \"#utility.yul\":1832:1911   */\n      tag_184\n      tag_185\n      jump\t// in\n    tag_184:\n        /* \"#utility.yul\":1794:1913   */\n    tag_183:\n        /* \"#utility.yul\":1980:1981   */\n      0x00\n        /* \"#utility.yul\":1969:1978   */\n      dup3\n        /* \"#utility.yul\":1965:1982   */\n      add\n        /* \"#utility.yul\":1952:1983   */\n      calldataload\n        /* \"#utility.yul\":2010:2028   */\n      0xffffffffffffffff\n        /* \"#utility.yul\":2002:2008   */\n      dup2\n        /* \"#utility.yul\":1999:2029   */\n      gt\n        /* \"#utility.yul\":1996:2113   */\n      iszero\n      tag_186\n      jumpi\n        /* \"#utility.yul\":2032:2111   */\n      tag_187\n      tag_188\n      jump\t// in\n    tag_187:\n        /* \"#utility.yul\":1996:2113   */\n    tag_186:\n        /* \"#utility.yul\":2137:2212   */\n      tag_189\n        /* \"#utility.yul\":2204:2211   */\n      dup5\n        /* \"#utility.yul\":2195:2201   */\n      dup3\n        /* \"#utility.yul\":2184:2193   */\n      dup6\n        /* \"#utility.yul\":2180:2202   */\n      add\n        /* \"#utility.yul\":2137:2212   */\n      tag_165\n      jump\t// in\n    tag_189:\n        /* \"#utility.yul\":2127:2212   */\n      swap2\n      pop\n        /* \"#utility.yul\":1923:2222   */\n      pop\n        /* \"#utility.yul\":1696:2229   */\n      swap3\n      swap2\n      pop\n      pop\n      jump\t// out\n        /* \"#utility.yul\":2235:2564   */\n    tag_23:\n        /* \"#utility.yul\":2294:2300   */\n      0x00\n        /* \"#utility.yul\":2343:2345   */\n      0x20\n        /* \"#utility.yul\":2331:2340   */\n      dup3\n        /* \"#utility.yul\":2322:2329   */\n      dup5\n        /* \"#utility.yul\":2318:2341   */\n      sub\n        /* \"#utility.yul\":2314:2346   */\n      slt\n        /* \"#utility.yul\":2311:2430   */\n      iszero\n      tag_191\n      jumpi\n        /* \"#utility.yul\":2349:2428   */\n      tag_192\n      tag_185\n      jump\t// in\n    tag_192:\n        /* \"#utility.yul\":2311:2430   */\n    tag_191:\n        /* \"#utility.yul\":2469:2470   */\n      0x00\n        /* \"#utility.yul\":2494:2547   */\n      tag_193\n        /* \"#utility.yul\":2539:2546   */\n      dup5\n        /* \"#utility.yul\":2530:2536   */\n      dup3\n        /* \"#utility.yul\":2519:2528   */\n      dup6\n        /* \"#utility.yul\":2515:2537   */\n      add\n        /* \"#utility.yul\":2494:2547   */\n      tag_174\n      jump\t// in\n    tag_193:\n        /* \"#utility.yul\":2484:2547   */\n      swap2\n      pop\n        /* \"#utility.yul\":2440:2557   */\n      pop\n        /* \"#utility.yul\":2235:2564   */\n      swap3\n      swap2\n      pop\n      pop\n      jump\t// out\n        /* \"#utility.yul\":2570:3044   */\n    tag_29:\n        /* \"#utility.yul\":2638:2644   */\n      0x00\n        /* \"#utility.yul\":2646:2652   */\n      dup1\n        /* \"#utility.yul\":2695:2697   */\n      0x40\n        /* \"#utility.yul\":2683:2692   */\n      dup4\n        /* \"#utility.yul\":2674:2681   */\n      dup6\n        /* \"#utility.yul\":2670:2693   */\n      sub\n        /* \"#utility.yul\":2666:2698   */\n      slt\n        /* \"#utility.yul\":2663:2782   */\n      iszero\n      tag_195\n      jumpi\n        /* \"#utility.yul\":2701:2780   */\n      tag_196\n      tag_185\n      jump\t// in\n    tag_196:\n        /* \"#utility.yul\":2663:2782   */\n    tag_195:\n        /* \"#utility.yul\":2821:2822   */\n      0x00\n        /* \"#utility.yul\":2846:2899   */\n      tag_197\n        /* \"#utility.yul\":2891:2898   */\n      dup6\n        /* \"#utility.yul\":2882:2888   */\n      dup3\n        /* \"#utility.yul\":2871:2880   */\n      dup7\n        /* \"#utility.yul\":2867:2889   */\n      add\n        /* \"#utility.yul\":2846:2899   */\n      tag_174\n      jump\t// in\n    tag_197:\n        /* \"#utility.yul\":2836:2899   */\n      swap3\n      pop\n        /* \"#utility.yul\":2792:2909   */\n      pop\n        /* \"#utility.yul\":2948:2950   */\n      0x20\n        /* \"#utility.yul\":2974:3027   */\n      tag_198\n        /* \"#utility.yul\":3019:3026   */\n      dup6\n        /* \"#utility.yul\":3010:3016   */\n      dup3\n        /* \"#utility.yul\":2999:3008   */\n      dup7\n        /* \"#utility.yul\":2995:3017   */\n      add\n        /* \"#utility.yul\":2974:3027   */\n      tag_161\n      jump\t// in\n    tag_198:\n        /* \"#utility.yul\":2964:3027   */\n      swap2\n      pop\n        /* \"#utility.yul\":2919:3037   */\n      pop\n        /* \"#utility.yul\":2570:3044   */\n      swap3\n      pop\n      swap3\n      swap1\n      pop\n      jump\t// out\n        /* \"#utility.yul\":3050:3377   */\n    tag_15:\n        /* \"#utility.yul\":3108:3114   */\n      0x00\n        /* \"#utility.yul\":3157:3159   */\n      0x20\n        /* \"#utility.yul\":3145:3154   */\n      dup3\n        /* \"#utility.yul\":3136:3143   */\n      dup5\n        /* \"#utility.yul\":3132:3155   */\n      sub\n        /* \"#utility.yul\":3128:3160   */\n      slt\n        /* \"#utility.yul\":3125:3244   */\n      iszero\n      tag_200\n      jumpi\n        /* \"#utility.yul\":3163:3242   */\n      tag_201\n      tag_185\n      jump\t// in\n    tag_201:\n        /* \"#utility.yul\":3125:3244   */\n    tag_200:\n        /* \"#utility.yul\":3283:3284   */\n      0x00\n        /* \"#utility.yul\":3308:3360   */\n      tag_202\n        /* \"#utility.yul\":3352:3359   */\n      dup5\n        /* \"#utility.yul\":3343:3349   */\n      dup3\n        /* \"#utility.yul\":3332:3341   */\n      dup6\n        /* \"#utility.yul\":3328:3350   */\n      add\n        /* \"#utility.yul\":3308:3360   */\n      tag_178\n      jump\t// in\n    tag_202:\n        /* \"#utility.yul\":3298:3360   */\n      swap2\n      pop\n        /* \"#utility.yul\":3254:3370   */\n      pop\n        /* \"#utility.yul\":3050:3377   */\n      swap3\n      swap2\n      pop\n      pop\n      jump\t// out\n        /* \"#utility.yul\":3383:3492   */\n    tag_203:\n        /* \"#utility.yul\":3464:3485   */\n      tag_205\n        /* \"#utility.yul\":3479:3484   */\n      dup2\n        /* \"#utility.yul\":3464:3485   */\n      tag_206\n      jump\t// in\n    tag_205:\n        /* \"#utility.yul\":3459:3462   */\n      dup3\n        /* \"#utility.yul\":3452:3486   */\n      mstore\n        /* \"#utility.yul\":3383:3492   */\n      pop\n      pop\n      jump\t// out\n        /* \"#utility.yul\":3498:3616   */\n    tag_207:\n        /* \"#utility.yul\":3585:3609   */\n      tag_209\n        /* \"#utility.yul\":3603:3608   */\n      dup2\n        /* \"#utility.yul\":3585:3609   */\n      tag_210\n      jump\t// in\n    tag_209:\n        /* \"#utility.yul\":3580:3583   */\n      dup3\n        /* \"#utility.yul\":3573:3610   */\n      mstore\n        /* \"#utility.yul\":3498:3616   */\n      pop\n      pop\n      jump\t// out\n        /* \"#utility.yul\":3622:3986   */\n    tag_211:\n        /* \"#utility.yul\":3710:3713   */\n      0x00\n        /* \"#utility.yul\":3738:3777   */\n      tag_213\n        /* \"#utility.yul\":3771:3776   */\n      dup3\n        /* \"#utility.yul\":3738:3777   */\n      tag_214\n      jump\t// in\n    tag_213:\n        /* \"#utility.yul\":3793:3864   */\n      tag_215\n        /* \"#utility.yul\":3857:3863   */\n      dup2\n        /* \"#utility.yul\":3852:3855   */\n      dup6\n        /* \"#utility.yul\":3793:3864   */\n      tag_216\n      jump\t// in\n    tag_215:\n        /* \"#utility.yul\":3786:3864   */\n      swap4\n      pop\n        /* \"#utility.yul\":3873:3925   */\n      tag_217\n        /* \"#utility.yul\":3918:3924   */\n      dup2\n        /* \"#utility.yul\":3913:3916   */\n      dup6\n        /* \"#utility.yul\":3906:3910   */\n      0x20\n        /* \"#utility.yul\":3899:3904   */\n      dup7\n        /* \"#utility.yul\":3895:3911   */\n      add\n        /* \"#utility.yul\":3873:3925   */\n      tag_218\n      jump\t// in\n    tag_217:\n        /* \"#utility.yul\":3950:3979   */\n      tag_219\n        /* \"#utility.yul\":3972:3978   */\n      dup2\n        /* \"#utility.yul\":3950:3979   */\n      tag_220\n      jump\t// in\n    tag_219:\n        /* \"#utility.yul\":3945:3948   */\n      dup5\n        /* \"#utility.yul\":3941:3980   */\n      add\n        /* \"#utility.yul\":3934:3980   */\n      swap2\n      pop\n        /* \"#utility.yul\":3714:3986   */\n      pop\n        /* \"#utility.yul\":3622:3986   */\n      swap3\n      swap2\n      pop\n      pop\n      jump\t// out\n        /* \"#utility.yul\":3992:4369   */\n    tag_221:\n        /* \"#utility.yul\":4098:4101   */\n      0x00\n        /* \"#utility.yul\":4126:4165   */\n      tag_223\n        /* \"#utility.yul\":4159:4164   */\n      dup3\n        /* \"#utility.yul\":4126:4165   */\n      tag_214\n      jump\t// in\n    tag_223:\n        /* \"#utility.yul\":4181:4270   */\n      tag_224\n        /* \"#utility.yul\":4263:4269   */\n      dup2\n        /* \"#utility.yul\":4258:4261   */\n      dup6\n        /* \"#utility.yul\":4181:4270   */\n      tag_225\n      jump\t// in\n    tag_224:\n        /* \"#utility.yul\":4174:4270   */\n      swap4\n      pop\n        /* \"#utility.yul\":4279:4331   */\n      tag_226\n        /* \"#utility.yul\":4324:4330   */\n      dup2\n        /* \"#utility.yul\":4319:4322   */\n      dup6\n        /* \"#utility.yul\":4312:4316   */\n      0x20\n        /* \"#utility.yul\":4305:4310   */\n      dup7\n        /* \"#utility.yul\":4301:4317   */\n      add\n        /* \"#utility.yul\":4279:4331   */\n      tag_218\n      jump\t// in\n    tag_226:\n        /* \"#utility.yul\":4356:4362   */\n      dup1\n        /* \"#utility.yul\":4351:4354   */\n      dup5\n        /* \"#utility.yul\":4347:4363   */\n      add\n        /* \"#utility.yul\":4340:4363   */\n      swap2\n      pop\n        /* \"#utility.yul\":4102:4369   */\n      pop\n        /* \"#utility.yul\":3992:4369   */\n      swap3\n      swap2\n      pop\n      pop\n      jump\t// out\n        /* \"#utility.yul\":4375:4741   */\n    tag_227:\n        /* \"#utility.yul\":4517:4520   */\n      0x00\n        /* \"#utility.yul\":4538:4605   */\n      tag_229\n        /* \"#utility.yul\":4602:4604   */\n      0x20\n        /* \"#utility.yul\":4597:4600   */\n      dup4\n        /* \"#utility.yul\":4538:4605   */\n      tag_216\n      jump\t// in\n    tag_229:\n        /* \"#utility.yul\":4531:4605   */\n      swap2\n      pop\n        /* \"#utility.yul\":4614:4707   */\n      tag_230\n        /* \"#utility.yul\":4703:4706   */\n      dup3\n        /* \"#utility.yul\":4614:4707   */\n      tag_231\n      jump\t// in\n    tag_230:\n        /* \"#utility.yul\":4732:4734   */\n      0x20\n        /* \"#utility.yul\":4727:4730   */\n      dup3\n        /* \"#utility.yul\":4723:4735   */\n      add\n        /* \"#utility.yul\":4716:4735   */\n      swap1\n      pop\n        /* \"#utility.yul\":4375:4741   */\n      swap2\n      swap1\n      pop\n      jump\t// out\n        /* \"#utility.yul\":4747:5149   */\n    tag_232:\n        /* \"#utility.yul\":4907:4910   */\n      0x00\n        /* \"#utility.yul\":4928:5013   */\n      tag_234\n        /* \"#utility.yul\":5010:5012   */\n      0x17\n        /* \"#utility.yul\":5005:5008   */\n      dup4\n        /* \"#utility.yul\":4928:5013   */\n      tag_225\n      jump\t// in\n    tag_234:\n        /* \"#utility.yul\":4921:5013   */\n      swap2\n      pop\n        /* \"#utility.yul\":5022:5115   */\n      tag_235\n        /* \"#utility.yul\":5111:5114   */\n      dup3\n        /* \"#utility.yul\":5022:5115   */\n      tag_236\n      jump\t// in\n    tag_235:\n        /* \"#utility.yul\":5140:5142   */\n      0x17\n        /* \"#utility.yul\":5135:5138   */\n      dup3\n        /* \"#utility.yul\":5131:5143   */\n      add\n        /* \"#utility.yul\":5124:5143   */\n      swap1\n      pop\n        /* \"#utility.yul\":4747:5149   */\n      swap2\n      swap1\n      pop\n      jump\t// out\n        /* \"#utility.yul\":5155:5557   */\n    tag_237:\n        /* \"#utility.yul\":5315:5318   */\n      0x00\n        /* \"#utility.yul\":5336:5421   */\n      tag_239\n        /* \"#utility.yul\":5418:5420   */\n      0x11\n        /* \"#utility.yul\":5413:5416   */\n      dup4\n        /* \"#utility.yul\":5336:5421   */\n      tag_225\n      jump\t// in\n    tag_239:\n        /* \"#utility.yul\":5329:5421   */\n      swap2\n      pop\n        /* \"#utility.yul\":5430:5523   */\n      tag_240\n        /* \"#utility.yul\":5519:5522   */\n      dup3\n        /* \"#utility.yul\":5430:5523   */\n      tag_241\n      jump\t// in\n    tag_240:\n        /* \"#utility.yul\":5548:5550   */\n      0x11\n        /* \"#utility.yul\":5543:5546   */\n      dup3\n        /* \"#utility.yul\":5539:5551   */\n      add\n        /* \"#utility.yul\":5532:5551   */\n      swap1\n      pop\n        /* \"#utility.yul\":5155:5557   */\n      swap2\n      swap1\n      pop\n      jump\t// out\n        /* \"#utility.yul\":5563:5929   */\n    tag_242:\n        /* \"#utility.yul\":5705:5708   */\n      0x00\n        /* \"#utility.yul\":5726:5793   */\n      tag_244\n        /* \"#utility.yul\":5790:5792   */\n      0x2f\n        /* \"#utility.yul\":5785:5788   */\n      dup4\n        /* \"#utility.yul\":5726:5793   */\n      tag_216\n      jump\t// in\n    tag_244:\n        /* \"#utility.yul\":5719:5793   */\n      swap2\n      pop\n        /* \"#utility.yul\":5802:5895   */\n      tag_245\n        /* \"#utility.yul\":5891:5894   */\n      dup3\n        /* \"#utility.yul\":5802:5895   */\n      tag_246\n      jump\t// in\n    tag_245:\n        /* \"#utility.yul\":5920:5922   */\n      0x40\n        /* \"#utility.yul\":5915:5918   */\n      dup3\n        /* \"#utility.yul\":5911:5923   */\n      add\n        /* \"#utility.yul\":5904:5923   */\n      swap1\n      pop\n        /* \"#utility.yul\":5563:5929   */\n      swap2\n      swap1\n      pop\n      jump\t// out\n        /* \"#utility.yul\":5935:6902   */\n    tag_117:\n        /* \"#utility.yul\":6317:6320   */\n      0x00\n        /* \"#utility.yul\":6339:6487   */\n      tag_248\n        /* \"#utility.yul\":6483:6486   */\n      dup3\n        /* \"#utility.yul\":6339:6487   */\n      tag_232\n      jump\t// in\n    tag_248:\n        /* \"#utility.yul\":6332:6487   */\n      swap2\n      pop\n        /* \"#utility.yul\":6504:6599   */\n      tag_249\n        /* \"#utility.yul\":6595:6598   */\n      dup3\n        /* \"#utility.yul\":6586:6592   */\n      dup6\n        /* \"#utility.yul\":6504:6599   */\n      tag_221\n      jump\t// in\n    tag_249:\n        /* \"#utility.yul\":6497:6599   */\n      swap2\n      pop\n        /* \"#utility.yul\":6616:6764   */\n      tag_250\n        /* \"#utility.yul\":6760:6763   */\n      dup3\n        /* \"#utility.yul\":6616:6764   */\n      tag_237\n      jump\t// in\n    tag_250:\n        /* \"#utility.yul\":6609:6764   */\n      swap2\n      pop\n        /* \"#utility.yul\":6781:6876   */\n      tag_251\n        /* \"#utility.yul\":6872:6875   */\n      dup3\n        /* \"#utility.yul\":6863:6869   */\n      dup5\n        /* \"#utility.yul\":6781:6876   */\n      tag_221\n      jump\t// in\n    tag_251:\n        /* \"#utility.yul\":6774:6876   */\n      swap2\n      pop\n        /* \"#utility.yul\":6893:6896   */\n      dup2\n        /* \"#utility.yul\":6886:6896   */\n      swap1\n      pop\n        /* \"#utility.yul\":5935:6902   */\n      swap4\n      swap3\n      pop\n      pop\n      pop\n      jump\t// out\n        /* \"#utility.yul\":6908:7118   */\n    tag_18:\n        /* \"#utility.yul\":6995:6999   */\n      0x00\n        /* \"#utility.yul\":7033:7035   */\n      0x20\n        /* \"#utility.yul\":7022:7031   */\n      dup3\n        /* \"#utility.yul\":7018:7036   */\n      add\n        /* \"#utility.yul\":7010:7036   */\n      swap1\n      pop\n        /* \"#utility.yul\":7046:7111   */\n      tag_253\n        /* \"#utility.yul\":7108:7109   */\n      0x00\n        /* \"#utility.yul\":7097:7106   */\n      dup4\n        /* \"#utility.yul\":7093:7110   */\n      add\n        /* \"#utility.yul\":7084:7090   */\n      dup5\n        /* \"#utility.yul\":7046:7111   */\n      tag_203\n      jump\t// in\n    tag_253:\n        /* \"#utility.yul\":6908:7118   */\n      swap3\n      swap2\n      pop\n      pop\n      jump\t// out\n        /* \"#utility.yul\":7124:7346   */\n    tag_26:\n        /* \"#utility.yul\":7217:7221   */\n      0x00\n        /* \"#utility.yul\":7255:7257   */\n      0x20\n        /* \"#utility.yul\":7244:7253   */\n      dup3\n        /* \"#utility.yul\":7240:7258   */\n      add\n        /* \"#utility.yul\":7232:7258   */\n      swap1\n      pop\n        /* \"#utility.yul\":7268:7339   */\n      tag_255\n        /* \"#utility.yul\":7336:7337   */\n      0x00\n        /* \"#utility.yul\":7325:7334   */\n      dup4\n        /* \"#utility.yul\":7321:7338   */\n      add\n        /* \"#utility.yul\":7312:7318   */\n      dup5\n        /* \"#utility.yul\":7268:7339   */\n      tag_207\n      jump\t// in\n    tag_255:\n        /* \"#utility.yul\":7124:7346   */\n      swap3\n      swap2\n      pop\n      pop\n      jump\t// out\n        /* \"#utility.yul\":7352:7665   */\n    tag_119:\n        /* \"#utility.yul\":7465:7469   */\n      0x00\n        /* \"#utility.yul\":7503:7505   */\n      0x20\n        /* \"#utility.yul\":7492:7501   */\n      dup3\n        /* \"#utility.yul\":7488:7506   */\n      add\n        /* \"#utility.yul\":7480:7506   */\n      swap1\n      pop\n        /* \"#utility.yul\":7552:7561   */\n      dup2\n        /* \"#utility.yul\":7546:7550   */\n      dup2\n        /* \"#utility.yul\":7542:7562   */\n      sub\n        /* \"#utility.yul\":7538:7539   */\n      0x00\n        /* \"#utility.yul\":7527:7536   */\n      dup4\n        /* \"#utility.yul\":7523:7540   */\n      add\n        /* \"#utility.yul\":7516:7563   */\n      mstore\n        /* \"#utility.yul\":7580:7658   */\n      tag_257\n        /* \"#utility.yul\":7653:7657   */\n      dup2\n        /* \"#utility.yul\":7644:7650   */\n      dup5\n        /* \"#utility.yul\":7580:7658   */\n      tag_211\n      jump\t// in\n    tag_257:\n        /* \"#utility.yul\":7572:7658   */\n      swap1\n      pop\n        /* \"#utility.yul\":7352:7665   */\n      swap3\n      swap2\n      pop\n      pop\n      jump\t// out\n        /* \"#utility.yul\":7671:8090   */\n    tag_145:\n        /* \"#utility.yul\":7837:7841   */\n      0x00\n        /* \"#utility.yul\":7875:7877   */\n      0x20\n        /* \"#utility.yul\":7864:7873   */\n      dup3\n        /* \"#utility.yul\":7860:7878   */\n      add\n        /* \"#utility.yul\":7852:7878   */\n      swap1\n      pop\n        /* \"#utility.yul\":7924:7933   */\n      dup2\n        /* \"#utility.yul\":7918:7922   */\n      dup2\n        /* \"#utility.yul\":7914:7934   */\n      sub\n        /* \"#utility.yul\":7910:7911   */\n      0x00\n        /* \"#utility.yul\":7899:7908   */\n      dup4\n        /* \"#utility.yul\":7895:7912   */\n      add\n        /* \"#utility.yul\":7888:7935   */\n      mstore\n        /* \"#utility.yul\":7952:8083   */\n      tag_259\n        /* \"#utility.yul\":8078:8082   */\n      dup2\n        /* \"#utility.yul\":7952:8083   */\n      tag_227\n      jump\t// in\n    tag_259:\n        /* \"#utility.yul\":7944:8083   */\n      swap1\n      pop\n        /* \"#utility.yul\":7671:8090   */\n      swap2\n      swap1\n      pop\n      jump\t// out\n        /* \"#utility.yul\":8096:8515   */\n    tag_78:\n        /* \"#utility.yul\":8262:8266   */\n      0x00\n        /* \"#utility.yul\":8300:8302   */\n      0x20\n        /* \"#utility.yul\":8289:8298   */\n      dup3\n        /* \"#utility.yul\":8285:8303   */\n      add\n        /* \"#utility.yul\":8277:8303   */\n      swap1\n      pop\n        /* \"#utility.yul\":8349:8358   */\n      dup2\n        /* \"#utility.yul\":8343:8347   */\n      dup2\n        /* \"#utility.yul\":8339:8359   */\n      sub\n        /* \"#utility.yul\":8335:8336   */\n      0x00\n        /* \"#utility.yul\":8324:8333   */\n      dup4\n        /* \"#utility.yul\":8320:8337   */\n      add\n        /* \"#utility.yul\":8313:8360   */\n      mstore\n        /* \"#utility.yul\":8377:8508   */\n      tag_261\n        /* \"#utility.yul\":8503:8507   */\n      dup2\n        /* \"#utility.yul\":8377:8508   */\n      tag_242\n      jump\t// in\n    tag_261:\n        /* \"#utility.yul\":8369:8508   */\n      swap1\n      pop\n        /* \"#utility.yul\":8096:8515   */\n      swap2\n      swap1\n      pop\n      jump\t// out\n        /* \"#utility.yul\":8521:8650   */\n    tag_152:\n        /* \"#utility.yul\":8555:8561   */\n      0x00\n        /* \"#utility.yul\":8582:8602   */\n      tag_263\n      tag_264\n      jump\t// in\n    tag_263:\n        /* \"#utility.yul\":8572:8602   */\n      swap1\n      pop\n        /* \"#utility.yul\":8611:8644   */\n      tag_265\n        /* \"#utility.yul\":8639:8643   */\n      dup3\n        /* \"#utility.yul\":8631:8637   */\n      dup3\n        /* \"#utility.yul\":8611:8644   */\n      tag_266\n      jump\t// in\n    tag_265:\n        /* \"#utility.yul\":8521:8650   */\n      swap2\n      swap1\n      pop\n      jump\t// out\n        /* \"#utility.yul\":8656:8731   */\n    tag_264:\n        /* \"#utility.yul\":8689:8695   */\n      0x00\n        /* \"#utility.yul\":8722:8724   */\n      0x40\n        /* \"#utility.yul\":8716:8725   */\n      mload\n        /* \"#utility.yul\":8706:8725   */\n      swap1\n      pop\n        /* \"#utility.yul\":8656:8731   */\n      swap1\n      jump\t// out\n        /* \"#utility.yul\":8737:9045   */\n    tag_151:\n        /* \"#utility.yul\":8811:8815   */\n      0x00\n        /* \"#utility.yul\":8901:8919   */\n      0xffffffffffffffff\n        /* \"#utility.yul\":8893:8899   */\n      dup3\n        /* \"#utility.yul\":8890:8920   */\n      gt\n        /* \"#utility.yul\":8887:8943   */\n      iszero\n      tag_269\n      jumpi\n        /* \"#utility.yul\":8923:8941   */\n      tag_270\n      tag_56\n      jump\t// in\n    tag_270:\n        /* \"#utility.yul\":8887:8943   */\n    tag_269:\n        /* \"#utility.yul\":8973:8977   */\n      0x20\n        /* \"#utility.yul\":8965:8971   */\n      dup3\n        /* \"#utility.yul\":8961:8978   */\n      mul\n        /* \"#utility.yul\":8953:8978   */\n      swap1\n      pop\n        /* \"#utility.yul\":9033:9037   */\n      0x20\n        /* \"#utility.yul\":9027:9031   */\n      dup2\n        /* \"#utility.yul\":9023:9038   */\n      add\n        /* \"#utility.yul\":9015:9038   */\n      swap1\n      pop\n        /* \"#utility.yul\":8737:9045   */\n      swap2\n      swap1\n      pop\n      jump\t// out\n        /* \"#utility.yul\":9051:9150   */\n    tag_214:\n        /* \"#utility.yul\":9103:9109   */\n      0x00\n        /* \"#utility.yul\":9137:9142   */\n      dup2\n        /* \"#utility.yul\":9131:9143   */\n      mload\n        /* \"#utility.yul\":9121:9143   */\n      swap1\n      pop\n        /* \"#utility.yul\":9051:9150   */\n      swap2\n      swap1\n      pop\n      jump\t// out\n        /* \"#utility.yul\":9156:9325   */\n    tag_216:\n        /* \"#utility.yul\":9240:9251   */\n      0x00\n        /* \"#utility.yul\":9274:9280   */\n      dup3\n        /* \"#utility.yul\":9269:9272   */\n      dup3\n        /* \"#utility.yul\":9262:9281   */\n      mstore\n        /* \"#utility.yul\":9314:9318   */\n      0x20\n        /* \"#utility.yul\":9309:9312   */\n      dup3\n        /* \"#utility.yul\":9305:9319   */\n      add\n        /* \"#utility.yul\":9290:9319   */\n      swap1\n      pop\n        /* \"#utility.yul\":9156:9325   */\n      swap3\n      swap2\n      pop\n      pop\n      jump\t// out\n        /* \"#utility.yul\":9331:9479   */\n    tag_225:\n        /* \"#utility.yul\":9433:9444   */\n      0x00\n        /* \"#utility.yul\":9470:9473   */\n      dup2\n        /* \"#utility.yul\":9455:9473   */\n      swap1\n      pop\n        /* \"#utility.yul\":9331:9479   */\n      swap3\n      swap2\n      pop\n      pop\n      jump\t// out\n        /* \"#utility.yul\":9485:9790   */\n    tag_124:\n        /* \"#utility.yul\":9525:9528   */\n      0x00\n        /* \"#utility.yul\":9544:9564   */\n      tag_275\n        /* \"#utility.yul\":9562:9563   */\n      dup3\n        /* \"#utility.yul\":9544:9564   */\n      tag_276\n      jump\t// in\n    tag_275:\n        /* \"#utility.yul\":9539:9564   */\n      swap2\n      pop\n        /* \"#utility.yul\":9578:9598   */\n      tag_277\n        /* \"#utility.yul\":9596:9597   */\n      dup4\n        /* \"#utility.yul\":9578:9598   */\n      tag_276\n      jump\t// in\n    tag_277:\n        /* \"#utility.yul\":9573:9598   */\n      swap3\n      pop\n        /* \"#utility.yul\":9732:9733   */\n      dup3\n        /* \"#utility.yul\":9664:9730   */\n      0xffffffffffffffffffffffffffffffffffffffffffffffffffffffffffffffff\n        /* \"#utility.yul\":9660:9734   */\n      sub\n        /* \"#utility.yul\":9657:9658   */\n      dup3\n        /* \"#utility.yul\":9654:9735   */\n      gt\n        /* \"#utility.yul\":9651:9758   */\n      iszero\n      tag_278\n      jumpi\n        /* \"#utility.yul\":9738:9756   */\n      tag_279\n      tag_280\n      jump\t// in\n    tag_279:\n        /* \"#utility.yul\":9651:9758   */\n    tag_278:\n        /* \"#utility.yul\":9782:9783   */\n      dup3\n        /* \"#utility.yul\":9779:9780   */\n      dup3\n        /* \"#utility.yul\":9775:9784   */\n      add\n        /* \"#utility.yul\":9768:9784   */\n      swap1\n      pop\n        /* \"#utility.yul\":9485:9790   */\n      swap3\n      swap2\n      pop\n      pop\n      jump\t// out\n        /* \"#utility.yul\":9796:10144   */\n    tag_122:\n        /* \"#utility.yul\":9836:9843   */\n      0x00\n        /* \"#utility.yul\":9859:9879   */\n      tag_282\n        /* \"#utility.yul\":9877:9878   */\n      dup3\n        /* \"#utility.yul\":9859:9879   */\n      tag_276\n      jump\t// in\n    tag_282:\n        /* \"#utility.yul\":9854:9879   */\n      swap2\n      pop\n        /* \"#utility.yul\":9893:9913   */\n      tag_283\n        /* \"#utility.yul\":9911:9912   */\n      dup4\n        /* \"#utility.yul\":9893:9913   */\n      tag_276\n      jump\t// in\n    tag_283:\n        /* \"#utility.yul\":9888:9913   */\n      swap3\n      pop\n        /* \"#utility.yul\":10081:10082   */\n      dup2\n        /* \"#utility.yul\":10013:10079   */\n      0xffffffffffffffffffffffffffffffffffffffffffffffffffffffffffffffff\n        /* \"#utility.yul\":10009:10083   */\n      div\n        /* \"#utility.yul\":10006:10007   */\n      dup4\n        /* \"#utility.yul\":10003:10084   */\n      gt\n        /* \"#utility.yul\":9998:9999   */\n      dup3\n        /* \"#utility.yul\":9991:10000   */\n      iszero\n        /* \"#utility.yul\":9984:10001   */\n      iszero\n        /* \"#utility.yul\":9980:10085   */\n      and\n        /* \"#utility.yul\":9977:10108   */\n      iszero\n      tag_284\n      jumpi\n        /* \"#utility.yul\":10088:10106   */\n      tag_285\n      tag_280\n      jump\t// in\n    tag_285:\n        /* \"#utility.yul\":9977:10108   */\n    tag_284:\n        /* \"#utility.yul\":10136:10137   */\n      dup3\n        /* \"#utility.yul\":10133:10134   */\n      dup3\n        /* \"#utility.yul\":10129:10138   */\n      mul\n        /* \"#utility.yul\":10118:10138   */\n      swap1\n      pop\n        /* \"#utility.yul\":9796:10144   */\n      swap3\n      swap2\n      pop\n      pop\n      jump\t// out\n        /* \"#utility.yul\":10150:10246   */\n    tag_286:\n        /* \"#utility.yul\":10187:10194   */\n      0x00\n        /* \"#utility.yul\":10216:10240   */\n      tag_288\n        /* \"#utility.yul\":10234:10239   */\n      dup3\n        /* \"#utility.yul\":10216:10240   */\n      tag_289\n      jump\t// in\n    tag_288:\n        /* \"#utility.yul\":10205:10240   */\n      swap1\n      pop\n        /* \"#utility.yul\":10150:10246   */\n      swap2\n      swap1\n      pop\n      jump\t// out\n        /* \"#utility.yul\":10252:10342   */\n    tag_206:\n        /* \"#utility.yul\":10286:10293   */\n      0x00\n        /* \"#utility.yul\":10329:10334   */\n      dup2\n        /* \"#utility.yul\":10322:10335   */\n      iszero\n        /* \"#utility.yul\":10315:10336   */\n      iszero\n        /* \"#utility.yul\":10304:10336   */\n      swap1\n      pop\n        /* \"#utility.yul\":10252:10342   */\n      swap2\n      swap1\n      pop\n      jump\t// out\n        /* \"#utility.yul\":10348:10425   */\n    tag_210:\n        /* \"#utility.yul\":10385:10392   */\n      0x00\n        /* \"#utility.yul\":10414:10419   */\n      dup2\n        /* \"#utility.yul\":10403:10419   */\n      swap1\n      pop\n        /* \"#utility.yul\":10348:10425   */\n      swap2\n      swap1\n      pop\n      jump\t// out\n        /* \"#utility.yul\":10431:10580   */\n    tag_292:\n        /* \"#utility.yul\":10467:10474   */\n      0x00\n        /* \"#utility.yul\":10507:10573   */\n      0xffffffff00000000000000000000000000000000000000000000000000000000\n        /* \"#utility.yul\":10500:10505   */\n      dup3\n        /* \"#utility.yul\":10496:10574   */\n      and\n        /* \"#utility.yul\":10485:10574   */\n      swap1\n      pop\n        /* \"#utility.yul\":10431:10580   */\n      swap2\n      swap1\n      pop\n      jump\t// out\n        /* \"#utility.yul\":10586:10712   */\n    tag_289:\n        /* \"#utility.yul\":10623:10630   */\n      0x00\n        /* \"#utility.yul\":10663:10705   */\n      0xffffffffffffffffffffffffffffffffffffffff\n        /* \"#utility.yul\":10656:10661   */\n      dup3\n        /* \"#utility.yul\":10652:10706   */\n      and\n        /* \"#utility.yul\":10641:10706   */\n      swap1\n      pop\n        /* \"#utility.yul\":10586:10712   */\n      swap2\n      swap1\n      pop\n      jump\t// out\n        /* \"#utility.yul\":10718:10795   */\n    tag_276:\n        /* \"#utility.yul\":10755:10762   */\n      0x00\n        /* \"#utility.yul\":10784:10789   */\n      dup2\n        /* \"#utility.yul\":10773:10789   */\n      swap1\n      pop\n        /* \"#utility.yul\":10718:10795   */\n      swap2\n      swap1\n      pop\n      jump\t// out\n        /* \"#utility.yul\":10801:11108   */\n    tag_218:\n        /* \"#utility.yul\":10869:10870   */\n      0x00\n        /* \"#utility.yul\":10879:10992   */\n    tag_297:\n        /* \"#utility.yul\":10893:10899   */\n      dup4\n        /* \"#utility.yul\":10890:10891   */\n      dup2\n        /* \"#utility.yul\":10887:10900   */\n      lt\n        /* \"#utility.yul\":10879:10992   */\n      iszero\n      tag_299\n      jumpi\n        /* \"#utility.yul\":10978:10979   */\n      dup1\n        /* \"#utility.yul\":10973:10976   */\n      dup3\n        /* \"#utility.yul\":10969:10980   */\n      add\n        /* \"#utility.yul\":10963:10981   */\n      mload\n        /* \"#utility.yul\":10959:10960   */\n      dup2\n        /* \"#utility.yul\":10954:10957   */\n      dup5\n        /* \"#utility.yul\":10950:10961   */\n      add\n        /* \"#utility.yul\":10943:10982   */\n      mstore\n        /* \"#utility.yul\":10915:10917   */\n      0x20\n        /* \"#utility.yul\":10912:10913   */\n      dup2\n        /* \"#utility.yul\":10908:10918   */\n      add\n        /* \"#utility.yul\":10903:10918   */\n      swap1\n      pop\n        /* \"#utility.yul\":10879:10992   */\n      jump(tag_297)\n    tag_299:\n        /* \"#utility.yul\":11010:11016   */\n      dup4\n        /* \"#utility.yul\":11007:11008   */\n      dup2\n        /* \"#utility.yul\":11004:11017   */\n      gt\n        /* \"#utility.yul\":11001:11102   */\n      iszero\n      tag_300\n      jumpi\n        /* \"#utility.yul\":11090:11091   */\n      0x00\n        /* \"#utility.yul\":11081:11087   */\n      dup5\n        /* \"#utility.yul\":11076:11079   */\n      dup5\n        /* \"#utility.yul\":11072:11088   */\n      add\n        /* \"#utility.yul\":11065:11092   */\n      mstore\n        /* \"#utility.yul\":11001:11102   */\n    tag_300:\n        /* \"#utility.yul\":10850:11108   */\n      pop\n        /* \"#utility.yul\":10801:11108   */\n      pop\n      pop\n      pop\n      jump\t// out\n        /* \"#utility.yul\":11114:11285   */\n    tag_142:\n        /* \"#utility.yul\":11153:11156   */\n      0x00\n        /* \"#utility.yul\":11176:11200   */\n      tag_302\n        /* \"#utility.yul\":11194:11199   */\n      dup3\n        /* \"#utility.yul\":11176:11200   */\n      tag_276\n      jump\t// in\n    tag_302:\n        /* \"#utility.yul\":11167:11200   */\n      swap2\n      pop\n        /* \"#utility.yul\":11222:11226   */\n      0x00\n        /* \"#utility.yul\":11215:11220   */\n      dup3\n        /* \"#utility.yul\":11212:11227   */\n      eq\n        /* \"#utility.yul\":11209:11250   */\n      iszero\n      tag_303\n      jumpi\n        /* \"#utility.yul\":11230:11248   */\n      tag_304\n      tag_280\n      jump\t// in\n    tag_304:\n        /* \"#utility.yul\":11209:11250   */\n    tag_303:\n        /* \"#utility.yul\":11277:11278   */\n      0x01\n        /* \"#utility.yul\":11270:11275   */\n      dup3\n        /* \"#utility.yul\":11266:11279   */\n      sub\n        /* \"#utility.yul\":11259:11279   */\n      swap1\n      pop\n        /* \"#utility.yul\":11114:11285   */\n      swap2\n      swap1\n      pop\n      jump\t// out\n        /* \"#utility.yul\":11291:11572   */\n    tag_266:\n        /* \"#utility.yul\":11374:11401   */\n      tag_306\n        /* \"#utility.yul\":11396:11400   */\n      dup3\n        /* \"#utility.yul\":11374:11401   */\n      tag_220\n      jump\t// in\n    tag_306:\n        /* \"#utility.yul\":11366:11372   */\n      dup2\n        /* \"#utility.yul\":11362:11402   */\n      add\n        /* \"#utility.yul\":11504:11510   */\n      dup2\n        /* \"#utility.yul\":11492:11502   */\n      dup2\n        /* \"#utility.yul\":11489:11511   */\n      lt\n        /* \"#utility.yul\":11468:11486   */\n      0xffffffffffffffff\n        /* \"#utility.yul\":11456:11466   */\n      dup3\n        /* \"#utility.yul\":11453:11487   */\n      gt\n        /* \"#utility.yul\":11450:11512   */\n      or\n        /* \"#utility.yul\":11447:11535   */\n      iszero\n      tag_307\n      jumpi\n        /* \"#utility.yul\":11515:11533   */\n      tag_308\n      tag_56\n      jump\t// in\n    tag_308:\n        /* \"#utility.yul\":11447:11535   */\n    tag_307:\n        /* \"#utility.yul\":11555:11565   */\n      dup1\n        /* \"#utility.yul\":11551:11553   */\n      0x40\n        /* \"#utility.yul\":11544:11566   */\n      mstore\n        /* \"#utility.yul\":11334:11572   */\n      pop\n        /* \"#utility.yul\":11291:11572   */\n      pop\n      pop\n      jump\t// out\n        /* \"#utility.yul\":11578:11811   */\n    tag_90:\n        /* \"#utility.yul\":11617:11620   */\n      0x00\n        /* \"#utility.yul\":11640:11664   */\n      tag_310\n        /* \"#utility.yul\":11658:11663   */\n      dup3\n        /* \"#utility.yul\":11640:11664   */\n      tag_276\n      jump\t// in\n    tag_310:\n        /* \"#utility.yul\":11631:11664   */\n      swap2\n      pop\n        /* \"#utility.yul\":11686:11752   */\n      0xffffffffffffffffffffffffffffffffffffffffffffffffffffffffffffffff\n        /* \"#utility.yul\":11679:11684   */\n      dup3\n        /* \"#utility.yul\":11676:11753   */\n      eq\n        /* \"#utility.yul\":11673:11776   */\n      iszero\n      tag_311\n      jumpi\n        /* \"#utility.yul\":11756:11774   */\n      tag_312\n      tag_280\n      jump\t// in\n    tag_312:\n        /* \"#utility.yul\":11673:11776   */\n    tag_311:\n        /* \"#utility.yul\":11803:11804   */\n      0x01\n        /* \"#utility.yul\":11796:11801   */\n      dup3\n        /* \"#utility.yul\":11792:11805   */\n      add\n        /* \"#utility.yul\":11785:11805   */\n      swap1\n      pop\n        /* \"#utility.yul\":11578:11811   */\n      swap2\n      swap1\n      pop\n      jump\t// out\n        /* \"#utility.yul\":11817:11997   */\n    tag_280:\n        /* \"#utility.yul\":11865:11942   */\n      0x4e487b7100000000000000000000000000000000000000000000000000000000\n        /* \"#utility.yul\":11862:11863   */\n      0x00\n        /* \"#utility.yul\":11855:11943   */\n      mstore\n        /* \"#utility.yul\":11962:11966   */\n      0x11\n        /* \"#utility.yul\":11959:11960   */\n      0x04\n        /* \"#utility.yul\":11952:11967   */\n      mstore\n        /* \"#utility.yul\":11986:11990   */\n      0x24\n        /* \"#utility.yul\":11983:11984   */\n      0x00\n        /* \"#utility.yul\":11976:11991   */\n      revert\n        /* \"#utility.yul\":12003:12183   */\n    tag_60:\n        /* \"#utility.yul\":12051:12128   */\n      0x4e487b7100000000000000000000000000000000000000000000000000000000\n        /* \"#utility.yul\":12048:12049   */\n      0x00\n        /* \"#utility.yul\":12041:12129   */\n      mstore\n        /* \"#utility.yul\":12148:12152   */\n      0x32\n        /* \"#utility.yul\":12145:12146   */\n      0x04\n        /* \"#utility.yul\":12138:12153   */\n      mstore\n        /* \"#utility.yul\":12172:12176   */\n      0x24\n        /* \"#utility.yul\":12169:12170   */\n      0x00\n        /* \"#utility.yul\":12162:12177   */\n      revert\n        /* \"#utility.yul\":12189:12369   */\n    tag_56:\n        /* \"#utility.yul\":12237:12314   */\n      0x4e487b7100000000000000000000000000000000000000000000000000000000\n        /* \"#utility.yul\":12234:12235   */\n      0x00\n        /* \"#utility.yul\":12227:12315   */\n      mstore\n        /* \"#utility.yul\":12334:12338   */\n      0x41\n        /* \"#utility.yul\":12331:12332   */\n      0x04\n        /* \"#utility.yul\":12324:12339   */\n      mstore\n        /* \"#utility.yul\":12358:12362   */\n      0x24\n        /* \"#utility.yul\":12355:12356   */\n      0x00\n        /* \"#utility.yul\":12348:12363   */\n      revert\n        /* \"#utility.yul\":12375:12492   */\n    tag_169:\n        /* \"#utility.yul\":12484:12485   */\n      0x00\n        /* \"#utility.yul\":12481:12482   */\n      dup1\n        /* \"#utility.yul\":12474:12486   */\n      revert\n        /* \"#utility.yul\":12498:12615   */\n    tag_155:\n        /* \"#utility.yul\":12607:12608   */\n      0x00\n        /* \"#utility.yul\":12604:12605   */\n      dup1\n        /* \"#utility.yul\":12597:12609   */\n      revert\n        /* \"#utility.yul\":12621:12738   */\n    tag_188:\n        /* \"#utility.yul\":12730:12731   */\n      0x00\n        /* \"#utility.yul\":12727:12728   */\n      dup1\n        /* \"#utility.yul\":12720:12732   */\n      revert\n        /* \"#utility.yul\":12744:12861   */\n    tag_185:\n        /* \"#utility.yul\":12853:12854   */\n      0x00\n        /* \"#utility.yul\":12850:12851   */\n      dup1\n        /* \"#utility.yul\":12843:12855   */\n      revert\n        /* \"#utility.yul\":12867:12969   */\n    tag_220:\n        /* \"#utility.yul\":12908:12914   */\n      0x00\n        /* \"#utility.yul\":12959:12961   */\n      0x1f\n        /* \"#utility.yul\":12955:12962   */\n      not\n        /* \"#utility.yul\":12950:12952   */\n      0x1f\n        /* \"#utility.yul\":12943:12948   */\n      dup4\n        /* \"#utility.yul\":12939:12953   */\n      add\n        /* \"#utility.yul\":12935:12963   */\n      and\n        /* \"#utility.yul\":12925:12963   */\n      swap1\n      pop\n        /* \"#utility.yul\":12867:12969   */\n      swap2\n      swap1\n      pop\n      jump\t// out\n        /* \"#utility.yul\":12975:13157   */\n    tag_231:\n        /* \"#utility.yul\":13115:13149   */\n      0x537472696e67733a20686578206c656e67746820696e73756666696369656e74\n        /* \"#utility.yul\":13111:13112   */\n      0x00\n        /* \"#utility.yul\":13103:13109   */\n      dup3\n        /* \"#utility.yul\":13099:13113   */\n      add\n        /* \"#utility.yul\":13092:13150   */\n      mstore\n        /* \"#utility.yul\":12975:13157   */\n      pop\n      jump\t// out\n        /* \"#utility.yul\":13163:13336   */\n    tag_236:\n        /* \"#utility.yul\":13303:13328   */\n      0x416363657373436f6e74726f6c3a206163636f756e7420000000000000000000\n        /* \"#utility.yul\":13299:13300   */\n      0x00\n        /* \"#utility.yul\":13291:13297   */\n      dup3\n        /* \"#utility.yul\":13287:13301   */\n      add\n        /* \"#utility.yul\":13280:13329   */\n      mstore\n        /* \"#utility.yul\":13163:13336   */\n      pop\n      jump\t// out\n        /* \"#utility.yul\":13342:13509   */\n    tag_241:\n        /* \"#utility.yul\":13482:13501   */\n      0x206973206d697373696e6720726f6c6520000000000000000000000000000000\n        /* \"#utility.yul\":13478:13479   */\n      0x00\n        /* \"#utility.yul\":13470:13476   */\n      dup3\n        /* \"#utility.yul\":13466:13480   */\n      add\n        /* \"#utility.yul\":13459:13502   */\n      mstore\n        /* \"#utility.yul\":13342:13509   */\n      pop\n      jump\t// out\n        /* \"#utility.yul\":13515:13749   */\n    tag_246:\n        /* \"#utility.yul\":13655:13689   */\n      0x416363657373436f6e74726f6c3a2063616e206f6e6c792072656e6f756e6365\n        /* \"#utility.yul\":13651:13652   */\n      0x00\n        /* \"#utility.yul\":13643:13649   */\n      dup3\n        /* \"#utility.yul\":13639:13653   */\n      add\n        /* \"#utility.yul\":13632:13690   */\n      mstore\n        /* \"#utility.yul\":13724:13741   */\n      0x20726f6c657320666f722073656c660000000000000000000000000000000000\n        /* \"#utility.yul\":13719:13721   */\n      0x20\n        /* \"#utility.yul\":13711:13717   */\n      dup3\n        /* \"#utility.yul\":13707:13722   */\n      add\n        /* \"#utility.yul\":13700:13742   */\n      mstore\n        /* \"#utility.yul\":13515:13749   */\n      pop\n      jump\t// out\n        /* \"#utility.yul\":13755:13877   */\n    tag_164:\n        /* \"#utility.yul\":13828:13852   */\n      tag_326\n        /* \"#utility.yul\":13846:13851   */\n      dup2\n        /* \"#utility.yul\":13828:13852   */\n      tag_286\n      jump\t// in\n    tag_326:\n        /* \"#utility.yul\":13821:13826   */\n      dup2\n        /* \"#utility.yul\":13818:13853   */\n      eq\n        /* \"#utility.yul\":13808:13871   */\n      tag_327\n      jumpi\n        /* \"#utility.yul\":13867:13868   */\n      0x00\n        /* \"#utility.yul\":13864:13865   */\n      dup1\n        /* \"#utility.yul\":13857:13869   */\n      revert\n        /* \"#utility.yul\":13808:13871   */\n    tag_327:\n        /* \"#utility.yul\":13755:13877   */\n      pop\n      jump\t// out\n        /* \"#utility.yul\":13883:13999   */\n    tag_173:\n        /* \"#utility.yul\":13953:13974   */\n      tag_329\n        /* \"#utility.yul\":13968:13973   */\n      dup2\n        /* \"#utility.yul\":13953:13974   */\n      tag_206\n      jump\t// in\n    tag_329:\n        /* \"#utility.yul\":13946:13951   */\n      dup2\n        /* \"#utility.yul\":13943:13975   */\n      eq\n        /* \"#utility.yul\":13933:13993   */\n      tag_330\n      jumpi\n        /* \"#utility.yul\":13989:13990   */\n      0x00\n        /* \"#utility.yul\":13986:13987   */\n      dup1\n        /* \"#utility.yul\":13979:13991   */\n      revert\n        /* \"#utility.yul\":13933:13993   */\n    tag_330:\n        /* \"#utility.yul\":13883:13999   */\n      pop\n      jump\t// out\n        /* \"#utility.yul\":14005:14127   */\n    tag_177:\n        /* \"#utility.yul\":14078:14102   */\n      tag_332\n        /* \"#utility.yul\":14096:14101   */\n      dup2\n        /* \"#utility.yul\":14078:14102   */\n      tag_210\n      jump\t// in\n    tag_332:\n        /* \"#utility.yul\":14071:14076   */\n      dup2\n        /* \"#utility.yul\":14068:14103   */\n      eq\n        /* \"#utility.yul\":14058:14121   */\n      tag_333\n      jumpi\n        /* \"#utility.yul\":14117:14118   */\n      0x00\n        /* \"#utility.yul\":14114:14115   */\n      dup1\n        /* \"#utility.yul\":14107:14119   */\n      revert\n        /* \"#utility.yul\":14058:14121   */\n    tag_333:\n        /* \"#utility.yul\":14005:14127   */\n      pop\n      jump\t// out\n        /* \"#utility.yul\":14133:14253   */\n    tag_181:\n        /* \"#utility.yul\":14205:14228   */\n      tag_335\n        /* \"#utility.yul\":14222:14227   */\n      dup2\n        /* \"#utility.yul\":14205:14228   */\n      tag_292\n      jump\t// in\n    tag_335:\n        /* \"#utility.yul\":14198:14203   */\n      dup2\n        /* \"#utility.yul\":14195:14229   */\n      eq\n        /* \"#utility.yul\":14185:14247   */\n      tag_336\n      jumpi\n        /* \"#utility.yul\":14243:14244   */\n      0x00\n        /* \"#utility.yul\":14240:14241   */\n      dup1\n        /* \"#utility.yul\":14233:14245   */\n      revert\n        /* \"#utility.yul\":14185:14247   */\n    tag_336:\n        /* \"#utility.yul\":14133:14253   */\n      pop\n      jump\t// out\n\n    auxdata: 0xa264697066735822122057ddd55b9c346d6093fd6853bcf833699b63e40b9f550d411ad2786e2204dc3f64736f6c63430008070033\n}\n",
				"bytecode": {
					"linkReferences": {},
					"object": "608060405234801561001057600080fd5b5061121a806100206000396000f3fe608060405234801561001057600080fd5b50600436106100935760003560e01c806336568abe1161006657806336568abe1461011e57806391d148541461013a578063a217fddf1461016a578063ac5d4f6214610188578063d547741f146101b857610093565b806301ffc9a7146100985780631a41fc38146100c8578063248a9ca3146100d25780632f2ff15d14610102575b600080fd5b6100b260048036038101906100ad9190610b7c565b6101d4565b6040516100bf9190610cf7565b60405180910390f35b6100d061024e565b005b6100ec60048036038101906100e79190610b0f565b610301565b6040516100f99190610d12565b60405180910390f35b61011c60048036038101906101179190610b3c565b610320565b005b61013860048036038101906101339190610b3c565b610341565b005b610154600480360381019061014f9190610b3c565b6103c4565b6040516101619190610cf7565b60405180910390f35b61017261042e565b60405161017f9190610d12565b60405180910390f35b6101a2600480360381019061019d9190610ac6565b610435565b6040516101af9190610cf7565b60405180910390f35b6101d260048036038101906101cd9190610b3c565b610493565b005b60007f7965db0b000000000000000000000000000000000000000000000000000000007bffffffffffffffffffffffffffffffffffffffffffffffffffffffff1916827bffffffffffffffffffffffffffffffffffffffffffffffffffffffff191614806102475750610246826104b4565b5b9050919050565b6000600267ffffffffffffffff81111561026b5761026a61106a565b5b6040519080825280602002602001820160405280156102995781602001602082028036833780820191505090505b5090506001816000815181106102b2576102b161103b565b5b6020026020010190151590811515815250506000816000815181106102da576102d961103b565b5b6020026020010190151590811515815250506102f581610435565b6102fe57600080fd5b50565b6000806000838152602001908152602001600020600101549050919050565b61032982610301565b6103328161051e565b61033c8383610532565b505050565b610349610612565b73ffffffffffffffffffffffffffffffffffffffff168173ffffffffffffffffffffffffffffffffffffffff16146103b6576040517f08c379a00000000000000000000000000000000000000000000000000000000081526004016103ad90610d6f565b60405180910390fd5b6103c0828261061a565b5050565b600080600084815260200190815260200160002060000160008373ffffffffffffffffffffffffffffffffffffffff1673ffffffffffffffffffffffffffffffffffffffff16815260200190815260200160002060009054906101000a900460ff16905092915050565b6000801b81565b6000806000905060005b8351811015610489576001151584828151811061045f5761045e61103b565b5b6020026020010151151514156104785760019150610489565b8061048290610fc3565b905061043f565b5080915050919050565b61049c82610301565b6104a58161051e565b6104af838361061a565b505050565b60007f01ffc9a7000000000000000000000000000000000000000000000000000000007bffffffffffffffffffffffffffffffffffffffffffffffffffffffff1916827bffffffffffffffffffffffffffffffffffffffffffffffffffffffff1916149050919050565b61052f8161052a610612565b6106fb565b50565b61053c82826103c4565b61060e57600160008084815260200190815260200160002060000160008373ffffffffffffffffffffffffffffffffffffffff1673ffffffffffffffffffffffffffffffffffffffff16815260200190815260200160002060006101000a81548160ff0219169083151502179055506105b3610612565b73ffffffffffffffffffffffffffffffffffffffff168173ffffffffffffffffffffffffffffffffffffffff16837f2f8788117e7eff1d82e926ec794901d17c78024a50270940304540a733656f0d60405160405180910390a45b5050565b600033905090565b61062482826103c4565b156106f757600080600084815260200190815260200160002060000160008373ffffffffffffffffffffffffffffffffffffffff1673ffffffffffffffffffffffffffffffffffffffff16815260200190815260200160002060006101000a81548160ff02191690831515021790555061069c610612565b73ffffffffffffffffffffffffffffffffffffffff168173ffffffffffffffffffffffffffffffffffffffff16837ff6391f5c32d9c69d2a47ea670b442974b53935d1edc7fd64eb21e047a839171b60405160405180910390a45b5050565b61070582826103c4565b6107945761072a8173ffffffffffffffffffffffffffffffffffffffff166014610798565b6107388360001c6020610798565b604051602001610749929190610cbd565b6040516020818303038152906040526040517f08c379a000000000000000000000000000000000000000000000000000000000815260040161078b9190610d2d565b60405180910390fd5b5050565b6060600060028360026107ab9190610e5d565b6107b59190610e07565b67ffffffffffffffff8111156107ce576107cd61106a565b5b6040519080825280601f01601f1916602001820160405280156108005781602001600182028036833780820191505090505b5090507f3000000000000000000000000000000000000000000000000000000000000000816000815181106108385761083761103b565b5b60200101907effffffffffffffffffffffffffffffffffffffffffffffffffffffffffffff1916908160001a9053507f78000000000000000000000000000000000000000000000000000000000000008160018151811061089c5761089b61103b565b5b60200101907effffffffffffffffffffffffffffffffffffffffffffffffffffffffffffff1916908160001a905350600060018460026108dc9190610e5d565b6108e69190610e07565b90505b6001811115610986577f3031323334353637383961626364656600000000000000000000000000000000600f8616601081106109285761092761103b565b5b1a60f81b82828151811061093f5761093e61103b565b5b60200101907effffffffffffffffffffffffffffffffffffffffffffffffffffffffffffff1916908160001a905350600485901c94508061097f90610f68565b90506108e9565b50600084146109ca576040517f08c379a00000000000000000000000000000000000000000000000000000000081526004016109c190610d4f565b60405180910390fd5b8091505092915050565b60006109e76109e284610db4565b610d8f565b90508083825260208201905082856020860282011115610a0a57610a0961109e565b5b60005b85811015610a3a5781610a208882610a87565b845260208401935060208301925050600181019050610a0d565b5050509392505050565b600081359050610a5381611188565b92915050565b600082601f830112610a6e57610a6d611099565b5b8135610a7e8482602086016109d4565b91505092915050565b600081359050610a968161119f565b92915050565b600081359050610aab816111b6565b92915050565b600081359050610ac0816111cd565b92915050565b600060208284031215610adc57610adb6110a8565b5b600082013567ffffffffffffffff811115610afa57610af96110a3565b5b610b0684828501610a59565b91505092915050565b600060208284031215610b2557610b246110a8565b5b6000610b3384828501610a9c565b91505092915050565b60008060408385031215610b5357610b526110a8565b5b6000610b6185828601610a9c565b9250506020610b7285828601610a44565b9150509250929050565b600060208284031215610b9257610b916110a8565b5b6000610ba084828501610ab1565b91505092915050565b610bb281610ec9565b82525050565b610bc181610ed5565b82525050565b6000610bd282610de0565b610bdc8185610deb565b9350610bec818560208601610f35565b610bf5816110ad565b840191505092915050565b6000610c0b82610de0565b610c158185610dfc565b9350610c25818560208601610f35565b80840191505092915050565b6000610c3e602083610deb565b9150610c49826110be565b602082019050919050565b6000610c61601783610dfc565b9150610c6c826110e7565b601782019050919050565b6000610c84601183610dfc565b9150610c8f82611110565b601182019050919050565b6000610ca7602f83610deb565b9150610cb282611139565b604082019050919050565b6000610cc882610c54565b9150610cd48285610c00565b9150610cdf82610c77565b9150610ceb8284610c00565b91508190509392505050565b6000602082019050610d0c6000830184610ba9565b92915050565b6000602082019050610d276000830184610bb8565b92915050565b60006020820190508181036000830152610d478184610bc7565b905092915050565b60006020820190508181036000830152610d6881610c31565b9050919050565b60006020820190508181036000830152610d8881610c9a565b9050919050565b6000610d99610daa565b9050610da58282610f92565b919050565b6000604051905090565b600067ffffffffffffffff821115610dcf57610dce61106a565b5b602082029050602081019050919050565b600081519050919050565b600082825260208201905092915050565b600081905092915050565b6000610e1282610f2b565b9150610e1d83610f2b565b9250827fffffffffffffffffffffffffffffffffffffffffffffffffffffffffffffffff03821115610e5257610e5161100c565b5b828201905092915050565b6000610e6882610f2b565b9150610e7383610f2b565b9250817fffffffffffffffffffffffffffffffffffffffffffffffffffffffffffffffff0483118215151615610eac57610eab61100c565b5b828202905092915050565b6000610ec282610f0b565b9050919050565b60008115159050919050565b6000819050919050565b60007fffffffff0000000000000000000000000000000000000000000000000000000082169050919050565b600073ffffffffffffffffffffffffffffffffffffffff82169050919050565b6000819050919050565b60005b83811015610f53578082015181840152602081019050610f38565b83811115610f62576000848401525b50505050565b6000610f7382610f2b565b91506000821415610f8757610f8661100c565b5b600182039050919050565b610f9b826110ad565b810181811067ffffffffffffffff82111715610fba57610fb961106a565b5b80604052505050565b6000610fce82610f2b565b91507fffffffffffffffffffffffffffffffffffffffffffffffffffffffffffffffff8214156110015761100061100c565b5b600182019050919050565b7f4e487b7100000000000000000000000000000000000000000000000000000000600052601160045260246000fd5b7f4e487b7100000000000000000000000000000000000000000000000000000000600052603260045260246000fd5b7f4e487b7100000000000000000000000000000000000000000000000000000000600052604160045260246000fd5b600080fd5b600080fd5b600080fd5b600080fd5b6000601f19601f8301169050919050565b7f537472696e67733a20686578206c656e67746820696e73756666696369656e74600082015250565b7f416363657373436f6e74726f6c3a206163636f756e7420000000000000000000600082015250565b7f206973206d697373696e6720726f6c6520000000000000000000000000000000600082015250565b7f416363657373436f6e74726f6c3a2063616e206f6e6c792072656e6f756e636560008201527f20726f6c657320666f722073656c660000000000000000000000000000000000602082015250565b61119181610eb7565b811461119c57600080fd5b50565b6111a881610ec9565b81146111b357600080fd5b50565b6111bf81610ed5565b81146111ca57600080fd5b50565b6111d681610edf565b81146111e157600080fd5b5056fea264697066735822122057ddd55b9c346d6093fd6853bcf833699b63e40b9f550d411ad2786e2204dc3f64736f6c63430008070033",
					"opcodes": "PUSH1 0x80 PUSH1 0x40 MSTORE CALLVALUE DUP1 ISZERO PUSH2 0x10 JUMPI PUSH1 0x0 DUP1 REVERT JUMPDEST POP PUSH2 0x121A DUP1 PUSH2 0x20 PUSH1 0x0 CODECOPY PUSH1 0x0 RETURN INVALID PUSH1 0x80 PUSH1 0x40 MSTORE CALLVALUE DUP1 ISZERO PUSH2 0x10 JUMPI PUSH1 0x0 DUP1 REVERT JUMPDEST POP PUSH1 0x4 CALLDATASIZE LT PUSH2 0x93 JUMPI PUSH1 0x0 CALLDATALOAD PUSH1 0xE0 SHR DUP1 PUSH4 0x36568ABE GT PUSH2 0x66 JUMPI DUP1 PUSH4 0x36568ABE EQ PUSH2 0x11E JUMPI DUP1 PUSH4 0x91D14854 EQ PUSH2 0x13A JUMPI DUP1 PUSH4 0xA217FDDF EQ PUSH2 0x16A JUMPI DUP1 PUSH4 0xAC5D4F62 EQ PUSH2 0x188 JUMPI DUP1 PUSH4 0xD547741F EQ PUSH2 0x1B8 JUMPI PUSH2 0x93 JUMP JUMPDEST DUP1 PUSH4 0x1FFC9A7 EQ PUSH2 0x98 JUMPI DUP1 PUSH4 0x1A41FC38 EQ PUSH2 0xC8 JUMPI DUP1 PUSH4 0x248A9CA3 EQ PUSH2 0xD2 JUMPI DUP1 PUSH4 0x2F2FF15D EQ PUSH2 0x102 JUMPI JUMPDEST PUSH1 0x0 DUP1 REVERT JUMPDEST PUSH2 0xB2 PUSH1 0x4 DUP1 CALLDATASIZE SUB DUP2 ADD SWAP1 PUSH2 0xAD SWAP2 SWAP1 PUSH2 0xB7C JUMP JUMPDEST PUSH2 0x1D4 JUMP JUMPDEST PUSH1 0x40 MLOAD PUSH2 0xBF SWAP2 SWAP1 PUSH2 0xCF7 JUMP JUMPDEST PUSH1 0x40 MLOAD DUP1 SWAP2 SUB SWAP1 RETURN JUMPDEST PUSH2 0xD0 PUSH2 0x24E JUMP JUMPDEST STOP JUMPDEST PUSH2 0xEC PUSH1 0x4 DUP1 CALLDATASIZE SUB DUP2 ADD SWAP1 PUSH2 0xE7 SWAP2 SWAP1 PUSH2 0xB0F JUMP JUMPDEST PUSH2 0x301 JUMP JUMPDEST PUSH1 0x40 MLOAD PUSH2 0xF9 SWAP2 SWAP1 PUSH2 0xD12 JUMP JUMPDEST PUSH1 0x40 MLOAD DUP1 SWAP2 SUB SWAP1 RETURN JUMPDEST PUSH2 0x11C PUSH1 0x4 DUP1 CALLDATASIZE SUB DUP2 ADD SWAP1 PUSH2 0x117 SWAP2 SWAP1 PUSH2 0xB3C JUMP JUMPDEST PUSH2 0x320 JUMP JUMPDEST STOP JUMPDEST PUSH2 0x138 PUSH1 0x4 DUP1 CALLDATASIZE SUB DUP2 ADD SWAP1 PUSH2 0x133 SWAP2 SWAP1 PUSH2 0xB3C JUMP JUMPDEST PUSH2 0x341 JUMP JUMPDEST STOP JUMPDEST PUSH2 0x154 PUSH1 0x4 DUP1 CALLDATASIZE SUB DUP2 ADD SWAP1 PUSH2 0x14F SWAP2 SWAP1 PUSH2 0xB3C JUMP JUMPDEST PUSH2 0x3C4 JUMP JUMPDEST PUSH1 0x40 MLOAD PUSH2 0x161 SWAP2 SWAP1 PUSH2 0xCF7 JUMP JUMPDEST PUSH1 0x40 MLOAD DUP1 SWAP2 SUB SWAP1 RETURN JUMPDEST PUSH2 0x172 PUSH2 0x42E JUMP JUMPDEST PUSH1 0x40 MLOAD PUSH2 0x17F SWAP2 SWAP1 PUSH2 0xD12 JUMP JUMPDEST PUSH1 0x40 MLOAD DUP1 SWAP2 SUB SWAP1 RETURN JUMPDEST PUSH2 0x1A2 PUSH1 0x4 DUP1 CALLDATASIZE SUB DUP2 ADD SWAP1 PUSH2 0x19D SWAP2 SWAP1 PUSH2 0xAC6 JUMP JUMPDEST PUSH2 0x435 JUMP JUMPDEST PUSH1 0x40 MLOAD PUSH2 0x1AF SWAP2 SWAP1 PUSH2 0xCF7 JUMP JUMPDEST PUSH1 0x40 MLOAD DUP1 SWAP2 SUB SWAP1 RETURN JUMPDEST PUSH2 0x1D2 PUSH1 0x4 DUP1 CALLDATASIZE SUB DUP2 ADD SWAP1 PUSH2 0x1CD SWAP2 SWAP1 PUSH2 0xB3C JUMP JUMPDEST PUSH2 0x493 JUMP JUMPDEST STOP JUMPDEST PUSH1 0x0 PUSH32 0x7965DB0B00000000000000000000000000000000000000000000000000000000 PUSH28 0xFFFFFFFFFFFFFFFFFFFFFFFFFFFFFFFFFFFFFFFFFFFFFFFFFFFFFFFF NOT AND DUP3 PUSH28 0xFFFFFFFFFFFFFFFFFFFFFFFFFFFFFFFFFFFFFFFFFFFFFFFFFFFFFFFF NOT AND EQ DUP1 PUSH2 0x247 JUMPI POP PUSH2 0x246 DUP3 PUSH2 0x4B4 JUMP JUMPDEST JUMPDEST SWAP1 POP SWAP2 SWAP1 POP JUMP JUMPDEST PUSH1 0x0 PUSH1 0x2 PUSH8 0xFFFFFFFFFFFFFFFF DUP2 GT ISZERO PUSH2 0x26B JUMPI PUSH2 0x26A PUSH2 0x106A JUMP JUMPDEST JUMPDEST PUSH1 0x40 MLOAD SWAP1 DUP1 DUP3 MSTORE DUP1 PUSH1 0x20 MUL PUSH1 0x20 ADD DUP3 ADD PUSH1 0x40 MSTORE DUP1 ISZERO PUSH2 0x299 JUMPI DUP2 PUSH1 0x20 ADD PUSH1 0x20 DUP3 MUL DUP1 CALLDATASIZE DUP4 CALLDATACOPY DUP1 DUP3 ADD SWAP2 POP POP SWAP1 POP JUMPDEST POP SWAP1 POP PUSH1 0x1 DUP2 PUSH1 0x0 DUP2 MLOAD DUP2 LT PUSH2 0x2B2 JUMPI PUSH2 0x2B1 PUSH2 0x103B JUMP JUMPDEST JUMPDEST PUSH1 0x20 MUL PUSH1 0x20 ADD ADD SWAP1 ISZERO ISZERO SWAP1 DUP2 ISZERO ISZERO DUP2 MSTORE POP POP PUSH1 0x0 DUP2 PUSH1 0x0 DUP2 MLOAD DUP2 LT PUSH2 0x2DA JUMPI PUSH2 0x2D9 PUSH2 0x103B JUMP JUMPDEST JUMPDEST PUSH1 0x20 MUL PUSH1 0x20 ADD ADD SWAP1 ISZERO ISZERO SWAP1 DUP2 ISZERO ISZERO DUP2 MSTORE POP POP PUSH2 0x2F5 DUP2 PUSH2 0x435 JUMP JUMPDEST PUSH2 0x2FE JUMPI PUSH1 0x0 DUP1 REVERT JUMPDEST POP JUMP JUMPDEST PUSH1 0x0 DUP1 PUSH1 0x0 DUP4 DUP2 MSTORE PUSH1 0x20 ADD SWAP1 DUP2 MSTORE PUSH1 0x20 ADD PUSH1 0x0 KECCAK256 PUSH1 0x1 ADD SLOAD SWAP1 POP SWAP2 SWAP1 POP JUMP JUMPDEST PUSH2 0x329 DUP3 PUSH2 0x301 JUMP JUMPDEST PUSH2 0x332 DUP2 PUSH2 0x51E JUMP JUMPDEST PUSH2 0x33C DUP4 DUP4 PUSH2 0x532 JUMP JUMPDEST POP POP POP JUMP JUMPDEST PUSH2 0x349 PUSH2 0x612 JUMP JUMPDEST PUSH20 0xFFFFFFFFFFFFFFFFFFFFFFFFFFFFFFFFFFFFFFFF AND DUP2 PUSH20 0xFFFFFFFFFFFFFFFFFFFFFFFFFFFFFFFFFFFFFFFF AND EQ PUSH2 0x3B6 JUMPI PUSH1 0x40 MLOAD PUSH32 0x8C379A000000000000000000000000000000000000000000000000000000000 DUP2 MSTORE PUSH1 0x4 ADD PUSH2 0x3AD SWAP1 PUSH2 0xD6F JUMP JUMPDEST PUSH1 0x40 MLOAD DUP1 SWAP2 SUB SWAP1 REVERT JUMPDEST PUSH2 0x3C0 DUP3 DUP3 PUSH2 0x61A JUMP JUMPDEST POP POP JUMP JUMPDEST PUSH1 0x0 DUP1 PUSH1 0x0 DUP5 DUP2 MSTORE PUSH1 0x20 ADD SWAP1 DUP2 MSTORE PUSH1 0x20 ADD PUSH1 0x0 KECCAK256 PUSH1 0x0 ADD PUSH1 0x0 DUP4 PUSH20 0xFFFFFFFFFFFFFFFFFFFFFFFFFFFFFFFFFFFFFFFF AND PUSH20 0xFFFFFFFFFFFFFFFFFFFFFFFFFFFFFFFFFFFFFFFF AND DUP2 MSTORE PUSH1 0x20 ADD SWAP1 DUP2 MSTORE PUSH1 0x20 ADD PUSH1 0x0 KECCAK256 PUSH1 0x0 SWAP1 SLOAD SWAP1 PUSH2 0x100 EXP SWAP1 DIV PUSH1 0xFF AND SWAP1 POP SWAP3 SWAP2 POP POP JUMP JUMPDEST PUSH1 0x0 DUP1 SHL DUP2 JUMP JUMPDEST PUSH1 0x0 DUP1 PUSH1 0x0 SWAP1 POP PUSH1 0x0 JUMPDEST DUP4 MLOAD DUP2 LT ISZERO PUSH2 0x489 JUMPI PUSH1 0x1 ISZERO ISZERO DUP5 DUP3 DUP2 MLOAD DUP2 LT PUSH2 0x45F JUMPI PUSH2 0x45E PUSH2 0x103B JUMP JUMPDEST JUMPDEST PUSH1 0x20 MUL PUSH1 0x20 ADD ADD MLOAD ISZERO ISZERO EQ ISZERO PUSH2 0x478 JUMPI PUSH1 0x1 SWAP2 POP PUSH2 0x489 JUMP JUMPDEST DUP1 PUSH2 0x482 SWAP1 PUSH2 0xFC3 JUMP JUMPDEST SWAP1 POP PUSH2 0x43F JUMP JUMPDEST POP DUP1 SWAP2 POP POP SWAP2 SWAP1 POP JUMP JUMPDEST PUSH2 0x49C DUP3 PUSH2 0x301 JUMP JUMPDEST PUSH2 0x4A5 DUP2 PUSH2 0x51E JUMP JUMPDEST PUSH2 0x4AF DUP4 DUP4 PUSH2 0x61A JUMP JUMPDEST POP POP POP JUMP JUMPDEST PUSH1 0x0 PUSH32 0x1FFC9A700000000000000000000000000000000000000000000000000000000 PUSH28 0xFFFFFFFFFFFFFFFFFFFFFFFFFFFFFFFFFFFFFFFFFFFFFFFFFFFFFFFF NOT AND DUP3 PUSH28 0xFFFFFFFFFFFFFFFFFFFFFFFFFFFFFFFFFFFFFFFFFFFFFFFFFFFFFFFF NOT AND EQ SWAP1 POP SWAP2 SWAP1 POP JUMP JUMPDEST PUSH2 0x52F DUP2 PUSH2 0x52A PUSH2 0x612 JUMP JUMPDEST PUSH2 0x6FB JUMP JUMPDEST POP JUMP JUMPDEST PUSH2 0x53C DUP3 DUP3 PUSH2 0x3C4 JUMP JUMPDEST PUSH2 0x60E JUMPI PUSH1 0x1 PUSH1 0x0 DUP1 DUP5 DUP2 MSTORE PUSH1 0x20 ADD SWAP1 DUP2 MSTORE PUSH1 0x20 ADD PUSH1 0x0 KECCAK256 PUSH1 0x0 ADD PUSH1 0x0 DUP4 PUSH20 0xFFFFFFFFFFFFFFFFFFFFFFFFFFFFFFFFFFFFFFFF AND PUSH20 0xFFFFFFFFFFFFFFFFFFFFFFFFFFFFFFFFFFFFFFFF AND DUP2 MSTORE PUSH1 0x20 ADD SWAP1 DUP2 MSTORE PUSH1 0x20 ADD PUSH1 0x0 KECCAK256 PUSH1 0x0 PUSH2 0x100 EXP DUP2 SLOAD DUP2 PUSH1 0xFF MUL NOT AND SWAP1 DUP4 ISZERO ISZERO MUL OR SWAP1 SSTORE POP PUSH2 0x5B3 PUSH2 0x612 JUMP JUMPDEST PUSH20 0xFFFFFFFFFFFFFFFFFFFFFFFFFFFFFFFFFFFFFFFF AND DUP2 PUSH20 0xFFFFFFFFFFFFFFFFFFFFFFFFFFFFFFFFFFFFFFFF AND DUP4 PUSH32 0x2F8788117E7EFF1D82E926EC794901D17C78024A50270940304540A733656F0D PUSH1 0x40 MLOAD PUSH1 0x40 MLOAD DUP1 SWAP2 SUB SWAP1 LOG4 JUMPDEST POP POP JUMP JUMPDEST PUSH1 0x0 CALLER SWAP1 POP SWAP1 JUMP JUMPDEST PUSH2 0x624 DUP3 DUP3 PUSH2 0x3C4 JUMP JUMPDEST ISZERO PUSH2 0x6F7 JUMPI PUSH1 0x0 DUP1 PUSH1 0x0 DUP5 DUP2 MSTORE PUSH1 0x20 ADD SWAP1 DUP2 MSTORE PUSH1 0x20 ADD PUSH1 0x0 KECCAK256 PUSH1 0x0 ADD PUSH1 0x0 DUP4 PUSH20 0xFFFFFFFFFFFFFFFFFFFFFFFFFFFFFFFFFFFFFFFF AND PUSH20 0xFFFFFFFFFFFFFFFFFFFFFFFFFFFFFFFFFFFFFFFF AND DUP2 MSTORE PUSH1 0x20 ADD SWAP1 DUP2 MSTORE PUSH1 0x20 ADD PUSH1 0x0 KECCAK256 PUSH1 0x0 PUSH2 0x100 EXP DUP2 SLOAD DUP2 PUSH1 0xFF MUL NOT AND SWAP1 DUP4 ISZERO ISZERO MUL OR SWAP1 SSTORE POP PUSH2 0x69C PUSH2 0x612 JUMP JUMPDEST PUSH20 0xFFFFFFFFFFFFFFFFFFFFFFFFFFFFFFFFFFFFFFFF AND DUP2 PUSH20 0xFFFFFFFFFFFFFFFFFFFFFFFFFFFFFFFFFFFFFFFF AND DUP4 PUSH32 0xF6391F5C32D9C69D2A47EA670B442974B53935D1EDC7FD64EB21E047A839171B PUSH1 0x40 MLOAD PUSH1 0x40 MLOAD DUP1 SWAP2 SUB SWAP1 LOG4 JUMPDEST POP POP JUMP JUMPDEST PUSH2 0x705 DUP3 DUP3 PUSH2 0x3C4 JUMP JUMPDEST PUSH2 0x794 JUMPI PUSH2 0x72A DUP2 PUSH20 0xFFFFFFFFFFFFFFFFFFFFFFFFFFFFFFFFFFFFFFFF AND PUSH1 0x14 PUSH2 0x798 JUMP JUMPDEST PUSH2 0x738 DUP4 PUSH1 0x0 SHR PUSH1 0x20 PUSH2 0x798 JUMP JUMPDEST PUSH1 0x40 MLOAD PUSH1 0x20 ADD PUSH2 0x749 SWAP3 SWAP2 SWAP1 PUSH2 0xCBD JUMP JUMPDEST PUSH1 0x40 MLOAD PUSH1 0x20 DUP2 DUP4 SUB SUB DUP2 MSTORE SWAP1 PUSH1 0x40 MSTORE PUSH1 0x40 MLOAD PUSH32 0x8C379A000000000000000000000000000000000000000000000000000000000 DUP2 MSTORE PUSH1 0x4 ADD PUSH2 0x78B SWAP2 SWAP1 PUSH2 0xD2D JUMP JUMPDEST PUSH1 0x40 MLOAD DUP1 SWAP2 SUB SWAP1 REVERT JUMPDEST POP POP JUMP JUMPDEST PUSH1 0x60 PUSH1 0x0 PUSH1 0x2 DUP4 PUSH1 0x2 PUSH2 0x7AB SWAP2 SWAP1 PUSH2 0xE5D JUMP JUMPDEST PUSH2 0x7B5 SWAP2 SWAP1 PUSH2 0xE07 JUMP JUMPDEST PUSH8 0xFFFFFFFFFFFFFFFF DUP2 GT ISZERO PUSH2 0x7CE JUMPI PUSH2 0x7CD PUSH2 0x106A JUMP JUMPDEST JUMPDEST PUSH1 0x40 MLOAD SWAP1 DUP1 DUP3 MSTORE DUP1 PUSH1 0x1F ADD PUSH1 0x1F NOT AND PUSH1 0x20 ADD DUP3 ADD PUSH1 0x40 MSTORE DUP1 ISZERO PUSH2 0x800 JUMPI DUP2 PUSH1 0x20 ADD PUSH1 0x1 DUP3 MUL DUP1 CALLDATASIZE DUP4 CALLDATACOPY DUP1 DUP3 ADD SWAP2 POP POP SWAP1 POP JUMPDEST POP SWAP1 POP PUSH32 0x3000000000000000000000000000000000000000000000000000000000000000 DUP2 PUSH1 0x0 DUP2 MLOAD DUP2 LT PUSH2 0x838 JUMPI PUSH2 0x837 PUSH2 0x103B JUMP JUMPDEST JUMPDEST PUSH1 0x20 ADD ADD SWAP1 PUSH31 0xFFFFFFFFFFFFFFFFFFFFFFFFFFFFFFFFFFFFFFFFFFFFFFFFFFFFFFFFFFFFFF NOT AND SWAP1 DUP2 PUSH1 0x0 BYTE SWAP1 MSTORE8 POP PUSH32 0x7800000000000000000000000000000000000000000000000000000000000000 DUP2 PUSH1 0x1 DUP2 MLOAD DUP2 LT PUSH2 0x89C JUMPI PUSH2 0x89B PUSH2 0x103B JUMP JUMPDEST JUMPDEST PUSH1 0x20 ADD ADD SWAP1 PUSH31 0xFFFFFFFFFFFFFFFFFFFFFFFFFFFFFFFFFFFFFFFFFFFFFFFFFFFFFFFFFFFFFF NOT AND SWAP1 DUP2 PUSH1 0x0 BYTE SWAP1 MSTORE8 POP PUSH1 0x0 PUSH1 0x1 DUP5 PUSH1 0x2 PUSH2 0x8DC SWAP2 SWAP1 PUSH2 0xE5D JUMP JUMPDEST PUSH2 0x8E6 SWAP2 SWAP1 PUSH2 0xE07 JUMP JUMPDEST SWAP1 POP JUMPDEST PUSH1 0x1 DUP2 GT ISZERO PUSH2 0x986 JUMPI PUSH32 0x3031323334353637383961626364656600000000000000000000000000000000 PUSH1 0xF DUP7 AND PUSH1 0x10 DUP2 LT PUSH2 0x928 JUMPI PUSH2 0x927 PUSH2 0x103B JUMP JUMPDEST JUMPDEST BYTE PUSH1 0xF8 SHL DUP3 DUP3 DUP2 MLOAD DUP2 LT PUSH2 0x93F JUMPI PUSH2 0x93E PUSH2 0x103B JUMP JUMPDEST JUMPDEST PUSH1 0x20 ADD ADD SWAP1 PUSH31 0xFFFFFFFFFFFFFFFFFFFFFFFFFFFFFFFFFFFFFFFFFFFFFFFFFFFFFFFFFFFFFF NOT AND SWAP1 DUP2 PUSH1 0x0 BYTE SWAP1 MSTORE8 POP PUSH1 0x4 DUP6 SWAP1 SHR SWAP5 POP DUP1 PUSH2 0x97F SWAP1 PUSH2 0xF68 JUMP JUMPDEST SWAP1 POP PUSH2 0x8E9 JUMP JUMPDEST POP PUSH1 0x0 DUP5 EQ PUSH2 0x9CA JUMPI PUSH1 0x40 MLOAD PUSH32 0x8C379A000000000000000000000000000000000000000000000000000000000 DUP2 MSTORE PUSH1 0x4 ADD PUSH2 0x9C1 SWAP1 PUSH2 0xD4F JUMP JUMPDEST PUSH1 0x40 MLOAD DUP1 SWAP2 SUB SWAP1 REVERT JUMPDEST DUP1 SWAP2 POP POP SWAP3 SWAP2 POP POP JUMP JUMPDEST PUSH1 0x0 PUSH2 0x9E7 PUSH2 0x9E2 DUP5 PUSH2 0xDB4 JUMP JUMPDEST PUSH2 0xD8F JUMP JUMPDEST SWAP1 POP DUP1 DUP4 DUP3 MSTORE PUSH1 0x20 DUP3 ADD SWAP1 POP DUP3 DUP6 PUSH1 0x20 DUP7 MUL DUP3 ADD GT ISZERO PUSH2 0xA0A JUMPI PUSH2 0xA09 PUSH2 0x109E JUMP JUMPDEST JUMPDEST PUSH1 0x0 JUMPDEST DUP6 DUP2 LT ISZERO PUSH2 0xA3A JUMPI DUP2 PUSH2 0xA20 DUP9 DUP3 PUSH2 0xA87 JUMP JUMPDEST DUP5 MSTORE PUSH1 0x20 DUP5 ADD SWAP4 POP PUSH1 0x20 DUP4 ADD SWAP3 POP POP PUSH1 0x1 DUP2 ADD SWAP1 POP PUSH2 0xA0D JUMP JUMPDEST POP POP POP SWAP4 SWAP3 POP POP POP JUMP JUMPDEST PUSH1 0x0 DUP2 CALLDATALOAD SWAP1 POP PUSH2 0xA53 DUP2 PUSH2 0x1188 JUMP JUMPDEST SWAP3 SWAP2 POP POP JUMP JUMPDEST PUSH1 0x0 DUP3 PUSH1 0x1F DUP4 ADD SLT PUSH2 0xA6E JUMPI PUSH2 0xA6D PUSH2 0x1099 JUMP JUMPDEST JUMPDEST DUP2 CALLDATALOAD PUSH2 0xA7E DUP5 DUP3 PUSH1 0x20 DUP7 ADD PUSH2 0x9D4 JUMP JUMPDEST SWAP2 POP POP SWAP3 SWAP2 POP POP JUMP JUMPDEST PUSH1 0x0 DUP2 CALLDATALOAD SWAP1 POP PUSH2 0xA96 DUP2 PUSH2 0x119F JUMP JUMPDEST SWAP3 SWAP2 POP POP JUMP JUMPDEST PUSH1 0x0 DUP2 CALLDATALOAD SWAP1 POP PUSH2 0xAAB DUP2 PUSH2 0x11B6 JUMP JUMPDEST SWAP3 SWAP2 POP POP JUMP JUMPDEST PUSH1 0x0 DUP2 CALLDATALOAD SWAP1 POP PUSH2 0xAC0 DUP2 PUSH2 0x11CD JUMP JUMPDEST SWAP3 SWAP2 POP POP JUMP JUMPDEST PUSH1 0x0 PUSH1 0x20 DUP3 DUP5 SUB SLT ISZERO PUSH2 0xADC JUMPI PUSH2 0xADB PUSH2 0x10A8 JUMP JUMPDEST JUMPDEST PUSH1 0x0 DUP3 ADD CALLDATALOAD PUSH8 0xFFFFFFFFFFFFFFFF DUP2 GT ISZERO PUSH2 0xAFA JUMPI PUSH2 0xAF9 PUSH2 0x10A3 JUMP JUMPDEST JUMPDEST PUSH2 0xB06 DUP5 DUP3 DUP6 ADD PUSH2 0xA59 JUMP JUMPDEST SWAP2 POP POP SWAP3 SWAP2 POP POP JUMP JUMPDEST PUSH1 0x0 PUSH1 0x20 DUP3 DUP5 SUB SLT ISZERO PUSH2 0xB25 JUMPI PUSH2 0xB24 PUSH2 0x10A8 JUMP JUMPDEST JUMPDEST PUSH1 0x0 PUSH2 0xB33 DUP5 DUP3 DUP6 ADD PUSH2 0xA9C JUMP JUMPDEST SWAP2 POP POP SWAP3 SWAP2 POP POP JUMP JUMPDEST PUSH1 0x0 DUP1 PUSH1 0x40 DUP4 DUP6 SUB SLT ISZERO PUSH2 0xB53 JUMPI PUSH2 0xB52 PUSH2 0x10A8 JUMP JUMPDEST JUMPDEST PUSH1 0x0 PUSH2 0xB61 DUP6 DUP3 DUP7 ADD PUSH2 0xA9C JUMP JUMPDEST SWAP3 POP POP PUSH1 0x20 PUSH2 0xB72 DUP6 DUP3 DUP7 ADD PUSH2 0xA44 JUMP JUMPDEST SWAP2 POP POP SWAP3 POP SWAP3 SWAP1 POP JUMP JUMPDEST PUSH1 0x0 PUSH1 0x20 DUP3 DUP5 SUB SLT ISZERO PUSH2 0xB92 JUMPI PUSH2 0xB91 PUSH2 0x10A8 JUMP JUMPDEST JUMPDEST PUSH1 0x0 PUSH2 0xBA0 DUP5 DUP3 DUP6 ADD PUSH2 0xAB1 JUMP JUMPDEST SWAP2 POP POP SWAP3 SWAP2 POP POP JUMP JUMPDEST PUSH2 0xBB2 DUP2 PUSH2 0xEC9 JUMP JUMPDEST DUP3 MSTORE POP POP JUMP JUMPDEST PUSH2 0xBC1 DUP2 PUSH2 0xED5 JUMP JUMPDEST DUP3 MSTORE POP POP JUMP JUMPDEST PUSH1 0x0 PUSH2 0xBD2 DUP3 PUSH2 0xDE0 JUMP JUMPDEST PUSH2 0xBDC DUP2 DUP6 PUSH2 0xDEB JUMP JUMPDEST SWAP4 POP PUSH2 0xBEC DUP2 DUP6 PUSH1 0x20 DUP7 ADD PUSH2 0xF35 JUMP JUMPDEST PUSH2 0xBF5 DUP2 PUSH2 0x10AD JUMP JUMPDEST DUP5 ADD SWAP2 POP POP SWAP3 SWAP2 POP POP JUMP JUMPDEST PUSH1 0x0 PUSH2 0xC0B DUP3 PUSH2 0xDE0 JUMP JUMPDEST PUSH2 0xC15 DUP2 DUP6 PUSH2 0xDFC JUMP JUMPDEST SWAP4 POP PUSH2 0xC25 DUP2 DUP6 PUSH1 0x20 DUP7 ADD PUSH2 0xF35 JUMP JUMPDEST DUP1 DUP5 ADD SWAP2 POP POP SWAP3 SWAP2 POP POP JUMP JUMPDEST PUSH1 0x0 PUSH2 0xC3E PUSH1 0x20 DUP4 PUSH2 0xDEB JUMP JUMPDEST SWAP2 POP PUSH2 0xC49 DUP3 PUSH2 0x10BE JUMP JUMPDEST PUSH1 0x20 DUP3 ADD SWAP1 POP SWAP2 SWAP1 POP JUMP JUMPDEST PUSH1 0x0 PUSH2 0xC61 PUSH1 0x17 DUP4 PUSH2 0xDFC JUMP JUMPDEST SWAP2 POP PUSH2 0xC6C DUP3 PUSH2 0x10E7 JUMP JUMPDEST PUSH1 0x17 DUP3 ADD SWAP1 POP SWAP2 SWAP1 POP JUMP JUMPDEST PUSH1 0x0 PUSH2 0xC84 PUSH1 0x11 DUP4 PUSH2 0xDFC JUMP JUMPDEST SWAP2 POP PUSH2 0xC8F DUP3 PUSH2 0x1110 JUMP JUMPDEST PUSH1 0x11 DUP3 ADD SWAP1 POP SWAP2 SWAP1 POP JUMP JUMPDEST PUSH1 0x0 PUSH2 0xCA7 PUSH1 0x2F DUP4 PUSH2 0xDEB JUMP JUMPDEST SWAP2 POP PUSH2 0xCB2 DUP3 PUSH2 0x1139 JUMP JUMPDEST PUSH1 0x40 DUP3 ADD SWAP1 POP SWAP2 SWAP1 POP JUMP JUMPDEST PUSH1 0x0 PUSH2 0xCC8 DUP3 PUSH2 0xC54 JUMP JUMPDEST SWAP2 POP PUSH2 0xCD4 DUP3 DUP6 PUSH2 0xC00 JUMP JUMPDEST SWAP2 POP PUSH2 0xCDF DUP3 PUSH2 0xC77 JUMP JUMPDEST SWAP2 POP PUSH2 0xCEB DUP3 DUP5 PUSH2 0xC00 JUMP JUMPDEST SWAP2 POP DUP2 SWAP1 POP SWAP4 SWAP3 POP POP POP JUMP JUMPDEST PUSH1 0x0 PUSH1 0x20 DUP3 ADD SWAP1 POP PUSH2 0xD0C PUSH1 0x0 DUP4 ADD DUP5 PUSH2 0xBA9 JUMP JUMPDEST SWAP3 SWAP2 POP POP JUMP JUMPDEST PUSH1 0x0 PUSH1 0x20 DUP3 ADD SWAP1 POP PUSH2 0xD27 PUSH1 0x0 DUP4 ADD DUP5 PUSH2 0xBB8 JUMP JUMPDEST SWAP3 SWAP2 POP POP JUMP JUMPDEST PUSH1 0x0 PUSH1 0x20 DUP3 ADD SWAP1 POP DUP2 DUP2 SUB PUSH1 0x0 DUP4 ADD MSTORE PUSH2 0xD47 DUP2 DUP5 PUSH2 0xBC7 JUMP JUMPDEST SWAP1 POP SWAP3 SWAP2 POP POP JUMP JUMPDEST PUSH1 0x0 PUSH1 0x20 DUP3 ADD SWAP1 POP DUP2 DUP2 SUB PUSH1 0x0 DUP4 ADD MSTORE PUSH2 0xD68 DUP2 PUSH2 0xC31 JUMP JUMPDEST SWAP1 POP SWAP2 SWAP1 POP JUMP JUMPDEST PUSH1 0x0 PUSH1 0x20 DUP3 ADD SWAP1 POP DUP2 DUP2 SUB PUSH1 0x0 DUP4 ADD MSTORE PUSH2 0xD88 DUP2 PUSH2 0xC9A JUMP JUMPDEST SWAP1 POP SWAP2 SWAP1 POP JUMP JUMPDEST PUSH1 0x0 PUSH2 0xD99 PUSH2 0xDAA JUMP JUMPDEST SWAP1 POP PUSH2 0xDA5 DUP3 DUP3 PUSH2 0xF92 JUMP JUMPDEST SWAP2 SWAP1 POP JUMP JUMPDEST PUSH1 0x0 PUSH1 0x40 MLOAD SWAP1 POP SWAP1 JUMP JUMPDEST PUSH1 0x0 PUSH8 0xFFFFFFFFFFFFFFFF DUP3 GT ISZERO PUSH2 0xDCF JUMPI PUSH2 0xDCE PUSH2 0x106A JUMP JUMPDEST JUMPDEST PUSH1 0x20 DUP3 MUL SWAP1 POP PUSH1 0x20 DUP2 ADD SWAP1 POP SWAP2 SWAP1 POP JUMP JUMPDEST PUSH1 0x0 DUP2 MLOAD SWAP1 POP SWAP2 SWAP1 POP JUMP JUMPDEST PUSH1 0x0 DUP3 DUP3 MSTORE PUSH1 0x20 DUP3 ADD SWAP1 POP SWAP3 SWAP2 POP POP JUMP JUMPDEST PUSH1 0x0 DUP2 SWAP1 POP SWAP3 SWAP2 POP POP JUMP JUMPDEST PUSH1 0x0 PUSH2 0xE12 DUP3 PUSH2 0xF2B JUMP JUMPDEST SWAP2 POP PUSH2 0xE1D DUP4 PUSH2 0xF2B JUMP JUMPDEST SWAP3 POP DUP3 PUSH32 0xFFFFFFFFFFFFFFFFFFFFFFFFFFFFFFFFFFFFFFFFFFFFFFFFFFFFFFFFFFFFFFFF SUB DUP3 GT ISZERO PUSH2 0xE52 JUMPI PUSH2 0xE51 PUSH2 0x100C JUMP JUMPDEST JUMPDEST DUP3 DUP3 ADD SWAP1 POP SWAP3 SWAP2 POP POP JUMP JUMPDEST PUSH1 0x0 PUSH2 0xE68 DUP3 PUSH2 0xF2B JUMP JUMPDEST SWAP2 POP PUSH2 0xE73 DUP4 PUSH2 0xF2B JUMP JUMPDEST SWAP3 POP DUP2 PUSH32 0xFFFFFFFFFFFFFFFFFFFFFFFFFFFFFFFFFFFFFFFFFFFFFFFFFFFFFFFFFFFFFFFF DIV DUP4 GT DUP3 ISZERO ISZERO AND ISZERO PUSH2 0xEAC JUMPI PUSH2 0xEAB PUSH2 0x100C JUMP JUMPDEST JUMPDEST DUP3 DUP3 MUL SWAP1 POP SWAP3 SWAP2 POP POP JUMP JUMPDEST PUSH1 0x0 PUSH2 0xEC2 DUP3 PUSH2 0xF0B JUMP JUMPDEST SWAP1 POP SWAP2 SWAP1 POP JUMP JUMPDEST PUSH1 0x0 DUP2 ISZERO ISZERO SWAP1 POP SWAP2 SWAP1 POP JUMP JUMPDEST PUSH1 0x0 DUP2 SWAP1 POP SWAP2 SWAP1 POP JUMP JUMPDEST PUSH1 0x0 PUSH32 0xFFFFFFFF00000000000000000000000000000000000000000000000000000000 DUP3 AND SWAP1 POP SWAP2 SWAP1 POP JUMP JUMPDEST PUSH1 0x0 PUSH20 0xFFFFFFFFFFFFFFFFFFFFFFFFFFFFFFFFFFFFFFFF DUP3 AND SWAP1 POP SWAP2 SWAP1 POP JUMP JUMPDEST PUSH1 0x0 DUP2 SWAP1 POP SWAP2 SWAP1 POP JUMP JUMPDEST PUSH1 0x0 JUMPDEST DUP4 DUP2 LT ISZERO PUSH2 0xF53 JUMPI DUP1 DUP3 ADD MLOAD DUP2 DUP5 ADD MSTORE PUSH1 0x20 DUP2 ADD SWAP1 POP PUSH2 0xF38 JUMP JUMPDEST DUP4 DUP2 GT ISZERO PUSH2 0xF62 JUMPI PUSH1 0x0 DUP5 DUP5 ADD MSTORE JUMPDEST POP POP POP POP JUMP JUMPDEST PUSH1 0x0 PUSH2 0xF73 DUP3 PUSH2 0xF2B JUMP JUMPDEST SWAP2 POP PUSH1 0x0 DUP3 EQ ISZERO PUSH2 0xF87 JUMPI PUSH2 0xF86 PUSH2 0x100C JUMP JUMPDEST JUMPDEST PUSH1 0x1 DUP3 SUB SWAP1 POP SWAP2 SWAP1 POP JUMP JUMPDEST PUSH2 0xF9B DUP3 PUSH2 0x10AD JUMP JUMPDEST DUP2 ADD DUP2 DUP2 LT PUSH8 0xFFFFFFFFFFFFFFFF DUP3 GT OR ISZERO PUSH2 0xFBA JUMPI PUSH2 0xFB9 PUSH2 0x106A JUMP JUMPDEST JUMPDEST DUP1 PUSH1 0x40 MSTORE POP POP POP JUMP JUMPDEST PUSH1 0x0 PUSH2 0xFCE DUP3 PUSH2 0xF2B JUMP JUMPDEST SWAP2 POP PUSH32 0xFFFFFFFFFFFFFFFFFFFFFFFFFFFFFFFFFFFFFFFFFFFFFFFFFFFFFFFFFFFFFFFF DUP3 EQ ISZERO PUSH2 0x1001 JUMPI PUSH2 0x1000 PUSH2 0x100C JUMP JUMPDEST JUMPDEST PUSH1 0x1 DUP3 ADD SWAP1 POP SWAP2 SWAP1 POP JUMP JUMPDEST PUSH32 0x4E487B7100000000000000000000000000000000000000000000000000000000 PUSH1 0x0 MSTORE PUSH1 0x11 PUSH1 0x4 MSTORE PUSH1 0x24 PUSH1 0x0 REVERT JUMPDEST PUSH32 0x4E487B7100000000000000000000000000000000000000000000000000000000 PUSH1 0x0 MSTORE PUSH1 0x32 PUSH1 0x4 MSTORE PUSH1 0x24 PUSH1 0x0 REVERT JUMPDEST PUSH32 0x4E487B7100000000000000000000000000000000000000000000000000000000 PUSH1 0x0 MSTORE PUSH1 0x41 PUSH1 0x4 MSTORE PUSH1 0x24 PUSH1 0x0 REVERT JUMPDEST PUSH1 0x0 DUP1 REVERT JUMPDEST PUSH1 0x0 DUP1 REVERT JUMPDEST PUSH1 0x0 DUP1 REVERT JUMPDEST PUSH1 0x0 DUP1 REVERT JUMPDEST PUSH1 0x0 PUSH1 0x1F NOT PUSH1 0x1F DUP4 ADD AND SWAP1 POP SWAP2 SWAP1 POP JUMP JUMPDEST PUSH32 0x537472696E67733A20686578206C656E67746820696E73756666696369656E74 PUSH1 0x0 DUP3 ADD MSTORE POP JUMP JUMPDEST PUSH32 0x416363657373436F6E74726F6C3A206163636F756E7420000000000000000000 PUSH1 0x0 DUP3 ADD MSTORE POP JUMP JUMPDEST PUSH32 0x206973206D697373696E6720726F6C6520000000000000000000000000000000 PUSH1 0x0 DUP3 ADD MSTORE POP JUMP JUMPDEST PUSH32 0x416363657373436F6E74726F6C3A2063616E206F6E6C792072656E6F756E6365 PUSH1 0x0 DUP3 ADD MSTORE PUSH32 0x20726F6C657320666F722073656C660000000000000000000000000000000000 PUSH1 0x20 DUP3 ADD MSTORE POP JUMP JUMPDEST PUSH2 0x1191 DUP2 PUSH2 0xEB7 JUMP JUMPDEST DUP2 EQ PUSH2 0x119C JUMPI PUSH1 0x0 DUP1 REVERT JUMPDEST POP JUMP JUMPDEST PUSH2 0x11A8 DUP2 PUSH2 0xEC9 JUMP JUMPDEST DUP2 EQ PUSH2 0x11B3 JUMPI PUSH1 0x0 DUP1 REVERT JUMPDEST POP JUMP JUMPDEST PUSH2 0x11BF DUP2 PUSH2 0xED5 JUMP JUMPDEST DUP2 EQ PUSH2 0x11CA JUMPI PUSH1 0x0 DUP1 REVERT JUMPDEST POP JUMP JUMPDEST PUSH2 0x11D6 DUP2 PUSH2 0xEDF JUMP JUMPDEST DUP2 EQ PUSH2 0x11E1 JUMPI PUSH1 0x0 DUP1 REVERT JUMPDEST POP JUMP INVALID LOG2 PUSH5 0x6970667358 0x22 SLT KECCAK256 JUMPI 0xDD 0xD5 JUMPDEST SWAP13 CALLVALUE PUSH14 0x6093FD6853BCF833699B63E40B9F SSTORE 0xD COINBASE BYTE 0xD2 PUSH25 0x6E2204DC3F64736F6C63430008070033000000000000000000 "
				},
				"gasEstimates": {
					"creation": {
						"codeDepositCost": "926800",
						"executionCost": "962",
						"totalCost": "927762"
					},
					"external": {
						"DEFAULT_ADMIN_ROLE()": "379",
						"getRoleAdmin(bytes32)": "infinite",
						"grantRole(bytes32,address)": "infinite",
						"hasRole(bytes32,address)": "3162",
						"renounceRole(bytes32,address)": "infinite",
						"revokeRole(bytes32,address)": "infinite",
						"supportsInterface(bytes4)": "728",
						"test(bool[])": "infinite",
						"trydy()": "infinite"
					}
				},
				"methodIdentifiers": {
					"DEFAULT_ADMIN_ROLE()": "a217fddf",
					"getRoleAdmin(bytes32)": "248a9ca3",
					"grantRole(bytes32,address)": "2f2ff15d",
					"hasRole(bytes32,address)": "91d14854",
					"renounceRole(bytes32,address)": "36568abe",
					"revokeRole(bytes32,address)": "d547741f",
					"supportsInterface(bytes4)": "01ffc9a7",
					"test(bool[])": "ac5d4f62",
					"trydy()": "1a41fc38"
				}
			},
			"storageLayout": {
				"storage": [
					{
						"astId": 24,
						"contract": "contracts/DaoTest.sol:DaoTest",
						"label": "_roles",
						"offset": 0,
						"slot": "0",
						"type": "t_mapping(t_bytes32,t_struct(RoleData)19_storage)"
					}
				],
				"types": {
					"t_address": {
						"encoding": "inplace",
						"label": "address",
						"numberOfBytes": "20"
					},
					"t_bool": {
						"encoding": "inplace",
						"label": "bool",
						"numberOfBytes": "1"
					},
					"t_bytes32": {
						"encoding": "inplace",
						"label": "bytes32",
						"numberOfBytes": "32"
					},
					"t_mapping(t_address,t_bool)": {
						"encoding": "mapping",
						"key": "t_address",
						"label": "mapping(address => bool)",
						"numberOfBytes": "32",
						"value": "t_bool"
					},
					"t_mapping(t_bytes32,t_struct(RoleData)19_storage)": {
						"encoding": "mapping",
						"key": "t_bytes32",
						"label": "mapping(bytes32 => struct AccessControl.RoleData)",
						"numberOfBytes": "32",
						"value": "t_struct(RoleData)19_storage"
					},
					"t_struct(RoleData)19_storage": {
						"encoding": "inplace",
						"label": "struct AccessControl.RoleData",
						"members": [
							{
								"astId": 16,
								"contract": "contracts/DaoTest.sol:DaoTest",
								"label": "members",
								"offset": 0,
								"slot": "0",
								"type": "t_mapping(t_address,t_bool)"
							},
							{
								"astId": 18,
								"contract": "contracts/DaoTest.sol:DaoTest",
								"label": "adminRole",
								"offset": 0,
								"slot": "1",
								"type": "t_bytes32"
							}
						],
						"numberOfBytes": "64"
					}
				}
			},
			"userdoc": {
				"kind": "user",
				"methods": {},
				"version": 1
			}
		}
	}
}