{
	"contracts/DaoTest.sol": {
		"DaoTest": {
			"abi": [
				{
					"anonymous": false,
					"inputs": [
						{
							"indexed": true,
							"internalType": "bytes32",
							"name": "role",
							"type": "bytes32"
						},
						{
							"indexed": true,
							"internalType": "bytes32",
							"name": "previousAdminRole",
							"type": "bytes32"
						},
						{
							"indexed": true,
							"internalType": "bytes32",
							"name": "newAdminRole",
							"type": "bytes32"
						}
					],
					"name": "RoleAdminChanged",
					"type": "event"
				},
				{
					"anonymous": false,
					"inputs": [
						{
							"indexed": true,
							"internalType": "bytes32",
							"name": "role",
							"type": "bytes32"
						},
						{
							"indexed": true,
							"internalType": "address",
							"name": "account",
							"type": "address"
						},
						{
							"indexed": true,
							"internalType": "address",
							"name": "sender",
							"type": "address"
						}
					],
					"name": "RoleGranted",
					"type": "event"
				},
				{
					"anonymous": false,
					"inputs": [
						{
							"indexed": true,
							"internalType": "bytes32",
							"name": "role",
							"type": "bytes32"
						},
						{
							"indexed": true,
							"internalType": "address",
							"name": "account",
							"type": "address"
						},
						{
							"indexed": true,
							"internalType": "address",
							"name": "sender",
							"type": "address"
						}
					],
					"name": "RoleRevoked",
					"type": "event"
				},
				{
					"anonymous": false,
					"inputs": [
						{
							"indexed": false,
							"internalType": "string",
							"name": "newValue",
							"type": "string"
						}
					],
					"name": "someOutputs",
					"type": "event"
				},
				{
					"inputs": [],
					"name": "DEFAULT_ADMIN_ROLE",
					"outputs": [
						{
							"internalType": "bytes32",
							"name": "",
							"type": "bytes32"
						}
					],
					"stateMutability": "view",
					"type": "function"
				},
				{
					"inputs": [
						{
							"internalType": "bytes32",
							"name": "role",
							"type": "bytes32"
						}
					],
					"name": "getRoleAdmin",
					"outputs": [
						{
							"internalType": "bytes32",
							"name": "",
							"type": "bytes32"
						}
					],
					"stateMutability": "view",
					"type": "function"
				},
				{
					"inputs": [
						{
							"internalType": "bytes32",
							"name": "role",
							"type": "bytes32"
						},
						{
							"internalType": "address",
							"name": "account",
							"type": "address"
						}
					],
					"name": "grantRole",
					"outputs": [],
					"stateMutability": "nonpayable",
					"type": "function"
				},
				{
					"inputs": [
						{
							"internalType": "bytes32",
							"name": "role",
							"type": "bytes32"
						},
						{
							"internalType": "address",
							"name": "account",
							"type": "address"
						}
					],
					"name": "hasRole",
					"outputs": [
						{
							"internalType": "bool",
							"name": "",
							"type": "bool"
						}
					],
					"stateMutability": "view",
					"type": "function"
				},
				{
					"inputs": [
						{
							"internalType": "bytes32",
							"name": "role",
							"type": "bytes32"
						},
						{
							"internalType": "address",
							"name": "account",
							"type": "address"
						}
					],
					"name": "renounceRole",
					"outputs": [],
					"stateMutability": "nonpayable",
					"type": "function"
				},
				{
					"inputs": [
						{
							"internalType": "bytes32",
							"name": "role",
							"type": "bytes32"
						},
						{
							"internalType": "address",
							"name": "account",
							"type": "address"
						}
					],
					"name": "revokeRole",
					"outputs": [],
					"stateMutability": "nonpayable",
					"type": "function"
				},
				{
					"inputs": [
						{
							"internalType": "bytes4",
							"name": "interfaceId",
							"type": "bytes4"
						}
					],
					"name": "supportsInterface",
					"outputs": [
						{
							"internalType": "bool",
							"name": "",
							"type": "bool"
						}
					],
					"stateMutability": "view",
					"type": "function"
				},
				{
					"inputs": [
						{
							"internalType": "bool[]",
							"name": "_accessibleRoles",
							"type": "bool[]"
						}
					],
					"name": "test",
					"outputs": [
						{
							"internalType": "bool",
							"name": "",
							"type": "bool"
						}
					],
					"stateMutability": "pure",
					"type": "function"
				},
				{
					"inputs": [],
					"name": "trydy",
					"outputs": [],
					"stateMutability": "nonpayable",
					"type": "function"
				}
			],
			"devdoc": {
				"kind": "dev",
				"methods": {
					"getRoleAdmin(bytes32)": {
						"details": "Returns the admin role that controls `role`. See {grantRole} and {revokeRole}. To change a role's admin, use {_setRoleAdmin}."
					},
					"grantRole(bytes32,address)": {
						"details": "Grants `role` to `account`. If `account` had not been already granted `role`, emits a {RoleGranted} event. Requirements: - the caller must have ``role``'s admin role. May emit a {RoleGranted} event."
					},
					"hasRole(bytes32,address)": {
						"details": "Returns `true` if `account` has been granted `role`."
					},
					"renounceRole(bytes32,address)": {
						"details": "Revokes `role` from the calling account. Roles are often managed via {grantRole} and {revokeRole}: this function's purpose is to provide a mechanism for accounts to lose their privileges if they are compromised (such as when a trusted device is misplaced). If the calling account had been revoked `role`, emits a {RoleRevoked} event. Requirements: - the caller must be `account`. May emit a {RoleRevoked} event."
					},
					"revokeRole(bytes32,address)": {
						"details": "Revokes `role` from `account`. If `account` had been granted `role`, emits a {RoleRevoked} event. Requirements: - the caller must have ``role``'s admin role. May emit a {RoleRevoked} event."
					},
					"supportsInterface(bytes4)": {
						"details": "See {IERC165-supportsInterface}."
					}
				},
				"version": 1
			},
			"evm": {
				"assembly": "    /* \"contracts/DaoTest.sol\":122:1070  contract DaoTest is AccessControl {\r... */\n  mstore(0x40, 0x80)\n  callvalue\n  dup1\n  iszero\n  tag_1\n  jumpi\n  0x00\n  dup1\n  revert\ntag_1:\n  pop\n  dataSize(sub_0)\n  dup1\n  dataOffset(sub_0)\n  0x00\n  codecopy\n  0x00\n  return\nstop\n\nsub_0: assembly {\n        /* \"contracts/DaoTest.sol\":122:1070  contract DaoTest is AccessControl {\r... */\n      mstore(0x40, 0x80)\n      callvalue\n      dup1\n      iszero\n      tag_1\n      jumpi\n      0x00\n      dup1\n      revert\n    tag_1:\n      pop\n      jumpi(tag_2, lt(calldatasize, 0x04))\n      shr(0xe0, calldataload(0x00))\n      dup1\n      0x36568abe\n      gt\n      tag_12\n      jumpi\n      dup1\n      0x36568abe\n      eq\n      tag_7\n      jumpi\n      dup1\n      0x91d14854\n      eq\n      tag_8\n      jumpi\n      dup1\n      0xa217fddf\n      eq\n      tag_9\n      jumpi\n      dup1\n      0xac5d4f62\n      eq\n      tag_10\n      jumpi\n      dup1\n      0xd547741f\n      eq\n      tag_11\n      jumpi\n      jump(tag_2)\n    tag_12:\n      dup1\n      0x01ffc9a7\n      eq\n      tag_3\n      jumpi\n      dup1\n      0x1a41fc38\n      eq\n      tag_4\n      jumpi\n      dup1\n      0x248a9ca3\n      eq\n      tag_5\n      jumpi\n      dup1\n      0x2f2ff15d\n      eq\n      tag_6\n      jumpi\n    tag_2:\n      0x00\n      dup1\n      revert\n        /* \"@openzeppelin/contracts/access/AccessControl.sol\":2606:2808  function supportsInterface(bytes4 interfaceId) public view virtual override returns (bool) {... */\n    tag_3:\n      tag_13\n      0x04\n      dup1\n      calldatasize\n      sub\n      dup2\n      add\n      swap1\n      tag_14\n      swap2\n      swap1\n      tag_15\n      jump\t// in\n    tag_14:\n      tag_16\n      jump\t// in\n    tag_13:\n      mload(0x40)\n      tag_17\n      swap2\n      swap1\n      tag_18\n      jump\t// in\n    tag_17:\n      mload(0x40)\n      dup1\n      swap2\n      sub\n      swap1\n      return\n        /* \"contracts/DaoTest.sol\":550:831  function trydy() public {\r... */\n    tag_4:\n      tag_19\n      tag_20\n      jump\t// in\n    tag_19:\n      stop\n        /* \"@openzeppelin/contracts/access/AccessControl.sol\":4391:4520  function getRoleAdmin(bytes32 role) public view virtual override returns (bytes32) {... */\n    tag_5:\n      tag_21\n      0x04\n      dup1\n      calldatasize\n      sub\n      dup2\n      add\n      swap1\n      tag_22\n      swap2\n      swap1\n      tag_23\n      jump\t// in\n    tag_22:\n      tag_24\n      jump\t// in\n    tag_21:\n      mload(0x40)\n      tag_25\n      swap2\n      swap1\n      tag_26\n      jump\t// in\n    tag_25:\n      mload(0x40)\n      dup1\n      swap2\n      sub\n      swap1\n      return\n        /* \"@openzeppelin/contracts/access/AccessControl.sol\":4816:4961  function grantRole(bytes32 role, address account) public virtual override onlyRole(getRoleAdmin(role)) {... */\n    tag_6:\n      tag_27\n      0x04\n      dup1\n      calldatasize\n      sub\n      dup2\n      add\n      swap1\n      tag_28\n      swap2\n      swap1\n      tag_29\n      jump\t// in\n    tag_28:\n      tag_30\n      jump\t// in\n    tag_27:\n      stop\n        /* \"@openzeppelin/contracts/access/AccessControl.sol\":5925:6139  function renounceRole(bytes32 role, address account) public virtual override {... */\n    tag_7:\n      tag_31\n      0x04\n      dup1\n      calldatasize\n      sub\n      dup2\n      add\n      swap1\n      tag_32\n      swap2\n      swap1\n      tag_29\n      jump\t// in\n    tag_32:\n      tag_33\n      jump\t// in\n    tag_31:\n      stop\n        /* \"@openzeppelin/contracts/access/AccessControl.sol\":2895:3040  function hasRole(bytes32 role, address account) public view virtual override returns (bool) {... */\n    tag_8:\n      tag_34\n      0x04\n      dup1\n      calldatasize\n      sub\n      dup2\n      add\n      swap1\n      tag_35\n      swap2\n      swap1\n      tag_29\n      jump\t// in\n    tag_35:\n      tag_36\n      jump\t// in\n    tag_34:\n      mload(0x40)\n      tag_37\n      swap2\n      swap1\n      tag_18\n      jump\t// in\n    tag_37:\n      mload(0x40)\n      dup1\n      swap2\n      sub\n      swap1\n      return\n        /* \"@openzeppelin/contracts/access/AccessControl.sol\":2027:2076  bytes32 public constant DEFAULT_ADMIN_ROLE = 0x00 */\n    tag_9:\n      tag_38\n      tag_39\n      jump\t// in\n    tag_38:\n      mload(0x40)\n      tag_40\n      swap2\n      swap1\n      tag_26\n      jump\t// in\n    tag_40:\n      mload(0x40)\n      dup1\n      swap2\n      sub\n      swap1\n      return\n        /* \"contracts/DaoTest.sol\":212:542  function test(bool[] memory _accessibleRoles) public pure returns(bool)  {\r... */\n    tag_10:\n      tag_41\n      0x04\n      dup1\n      calldatasize\n      sub\n      dup2\n      add\n      swap1\n      tag_42\n      swap2\n      swap1\n      tag_43\n      jump\t// in\n    tag_42:\n      tag_44\n      jump\t// in\n    tag_41:\n      mload(0x40)\n      tag_45\n      swap2\n      swap1\n      tag_18\n      jump\t// in\n    tag_45:\n      mload(0x40)\n      dup1\n      swap2\n      sub\n      swap1\n      return\n        /* \"@openzeppelin/contracts/access/AccessControl.sol\":5241:5388  function revokeRole(bytes32 role, address account) public virtual override onlyRole(getRoleAdmin(role)) {... */\n    tag_11:\n      tag_46\n      0x04\n      dup1\n      calldatasize\n      sub\n      dup2\n      add\n      swap1\n      tag_47\n      swap2\n      swap1\n      tag_29\n      jump\t// in\n    tag_47:\n      tag_48\n      jump\t// in\n    tag_46:\n      stop\n        /* \"@openzeppelin/contracts/access/AccessControl.sol\":2606:2808  function supportsInterface(bytes4 interfaceId) public view virtual override returns (bool) {... */\n    tag_16:\n        /* \"@openzeppelin/contracts/access/AccessControl.sol\":2691:2695  bool */\n      0x00\n        /* \"@openzeppelin/contracts/access/AccessControl.sol\":2729:2761  type(IAccessControl).interfaceId */\n      0x7965db0b00000000000000000000000000000000000000000000000000000000\n        /* \"@openzeppelin/contracts/access/AccessControl.sol\":2714:2761  interfaceId == type(IAccessControl).interfaceId */\n      not(0xffffffffffffffffffffffffffffffffffffffffffffffffffffffff)\n      and\n        /* \"@openzeppelin/contracts/access/AccessControl.sol\":2714:2725  interfaceId */\n      dup3\n        /* \"@openzeppelin/contracts/access/AccessControl.sol\":2714:2761  interfaceId == type(IAccessControl).interfaceId */\n      not(0xffffffffffffffffffffffffffffffffffffffffffffffffffffffff)\n      and\n      eq\n        /* \"@openzeppelin/contracts/access/AccessControl.sol\":2714:2801  interfaceId == type(IAccessControl).interfaceId || super.supportsInterface(interfaceId) */\n      dup1\n      tag_50\n      jumpi\n      pop\n        /* \"@openzeppelin/contracts/access/AccessControl.sol\":2765:2801  super.supportsInterface(interfaceId) */\n      tag_51\n        /* \"@openzeppelin/contracts/access/AccessControl.sol\":2789:2800  interfaceId */\n      dup3\n        /* \"@openzeppelin/contracts/access/AccessControl.sol\":2765:2788  super.supportsInterface */\n      tag_52\n        /* \"@openzeppelin/contracts/access/AccessControl.sol\":2765:2801  super.supportsInterface(interfaceId) */\n      jump\t// in\n    tag_51:\n        /* \"@openzeppelin/contracts/access/AccessControl.sol\":2714:2801  interfaceId == type(IAccessControl).interfaceId || super.supportsInterface(interfaceId) */\n    tag_50:\n        /* \"@openzeppelin/contracts/access/AccessControl.sol\":2707:2801  return interfaceId == type(IAccessControl).interfaceId || super.supportsInterface(interfaceId) */\n      swap1\n      pop\n        /* \"@openzeppelin/contracts/access/AccessControl.sol\":2606:2808  function supportsInterface(bytes4 interfaceId) public view virtual override returns (bool) {... */\n      swap2\n      swap1\n      pop\n      jump\t// out\n        /* \"contracts/DaoTest.sol\":550:831  function trydy() public {\r... */\n    tag_20:\n        /* \"contracts/DaoTest.sol\":585:614  bool[] memory accessibleRoles */\n      0x00\n        /* \"contracts/DaoTest.sol\":628:629  2 */\n      0x02\n        /* \"contracts/DaoTest.sol\":617:630  new bool[](2) */\n      0xffffffffffffffff\n      dup2\n      gt\n      iszero\n      tag_54\n      jumpi\n      tag_55\n      tag_56\n      jump\t// in\n    tag_55:\n    tag_54:\n      mload(0x40)\n      swap1\n      dup1\n      dup3\n      mstore\n      dup1\n      0x20\n      mul\n      0x20\n      add\n      dup3\n      add\n      0x40\n      mstore\n      dup1\n      iszero\n      tag_57\n      jumpi\n      dup2\n      0x20\n      add\n      0x20\n      dup3\n      mul\n      dup1\n      calldatasize\n      dup4\n      calldatacopy\n      dup1\n      dup3\n      add\n      swap2\n      pop\n      pop\n      swap1\n      pop\n    tag_57:\n      pop\n        /* \"contracts/DaoTest.sol\":585:630  bool[] memory accessibleRoles = new bool[](2) */\n      swap1\n      pop\n        /* \"contracts/DaoTest.sol\":662:666  true */\n      0x01\n        /* \"contracts/DaoTest.sol\":641:656  accessibleRoles */\n      dup2\n        /* \"contracts/DaoTest.sol\":657:658  0 */\n      0x00\n        /* \"contracts/DaoTest.sol\":641:659  accessibleRoles[0] */\n      dup2\n      mload\n      dup2\n      lt\n      tag_58\n      jumpi\n      tag_59\n      tag_60\n      jump\t// in\n    tag_59:\n    tag_58:\n      0x20\n      mul\n      0x20\n      add\n      add\n        /* \"contracts/DaoTest.sol\":641:666  accessibleRoles[0] = true */\n      swap1\n      iszero\n      iszero\n      swap1\n      dup2\n      iszero\n      iszero\n      dup2\n      mstore\n      pop\n      pop\n        /* \"contracts/DaoTest.sol\":698:703  false */\n      0x00\n        /* \"contracts/DaoTest.sol\":677:692  accessibleRoles */\n      dup2\n        /* \"contracts/DaoTest.sol\":693:694  1 */\n      0x01\n        /* \"contracts/DaoTest.sol\":677:695  accessibleRoles[1] */\n      dup2\n      mload\n      dup2\n      lt\n      tag_61\n      jumpi\n      tag_62\n      tag_60\n      jump\t// in\n    tag_62:\n    tag_61:\n      0x20\n      mul\n      0x20\n      add\n      add\n        /* \"contracts/DaoTest.sol\":677:703  accessibleRoles[1] = false */\n      swap1\n      iszero\n      iszero\n      swap1\n      dup2\n      iszero\n      iszero\n      dup2\n      mstore\n      pop\n      pop\n        /* \"contracts/DaoTest.sol\":724:745  test(accessibleRoles) */\n      tag_63\n        /* \"contracts/DaoTest.sol\":729:744  accessibleRoles */\n      dup2\n        /* \"contracts/DaoTest.sol\":724:728  test */\n      tag_44\n        /* \"contracts/DaoTest.sol\":724:745  test(accessibleRoles) */\n      jump\t// in\n    tag_63:\n        /* \"contracts/DaoTest.sol\":716:778  require(test(accessibleRoles), \"this permission not from you\") */\n      tag_64\n      jumpi\n      mload(0x40)\n      0x08c379a000000000000000000000000000000000000000000000000000000000\n      dup2\n      mstore\n      0x04\n      add\n      tag_65\n      swap1\n      tag_66\n      jump\t// in\n    tag_65:\n      mload(0x40)\n      dup1\n      swap2\n      sub\n      swap1\n      revert\n    tag_64:\n        /* \"contracts/DaoTest.sol\":796:823  someOutputs(\"hello world.\") */\n      0x63e9370c5b01ee8896e536f1f2fc902c945d630eb37faf0981fb9146088fc423\n      mload(0x40)\n      tag_67\n      swap1\n      tag_68\n      jump\t// in\n    tag_67:\n      mload(0x40)\n      dup1\n      swap2\n      sub\n      swap1\n      log1\n        /* \"contracts/DaoTest.sol\":574:831  {\r... */\n      pop\n        /* \"contracts/DaoTest.sol\":550:831  function trydy() public {\r... */\n      jump\t// out\n        /* \"@openzeppelin/contracts/access/AccessControl.sol\":4391:4520  function getRoleAdmin(bytes32 role) public view virtual override returns (bytes32) {... */\n    tag_24:\n        /* \"@openzeppelin/contracts/access/AccessControl.sol\":4465:4472  bytes32 */\n      0x00\n        /* \"@openzeppelin/contracts/access/AccessControl.sol\":4491:4497  _roles */\n      dup1\n        /* \"@openzeppelin/contracts/access/AccessControl.sol\":4491:4503  _roles[role] */\n      0x00\n        /* \"@openzeppelin/contracts/access/AccessControl.sol\":4498:4502  role */\n      dup4\n        /* \"@openzeppelin/contracts/access/AccessControl.sol\":4491:4503  _roles[role] */\n      dup2\n      mstore\n      0x20\n      add\n      swap1\n      dup2\n      mstore\n      0x20\n      add\n      0x00\n      keccak256\n        /* \"@openzeppelin/contracts/access/AccessControl.sol\":4491:4513  _roles[role].adminRole */\n      0x01\n      add\n      sload\n        /* \"@openzeppelin/contracts/access/AccessControl.sol\":4484:4513  return _roles[role].adminRole */\n      swap1\n      pop\n        /* \"@openzeppelin/contracts/access/AccessControl.sol\":4391:4520  function getRoleAdmin(bytes32 role) public view virtual override returns (bytes32) {... */\n      swap2\n      swap1\n      pop\n      jump\t// out\n        /* \"@openzeppelin/contracts/access/AccessControl.sol\":4816:4961  function grantRole(bytes32 role, address account) public virtual override onlyRole(getRoleAdmin(role)) {... */\n    tag_30:\n        /* \"@openzeppelin/contracts/access/AccessControl.sol\":4899:4917  getRoleAdmin(role) */\n      tag_70\n        /* \"@openzeppelin/contracts/access/AccessControl.sol\":4912:4916  role */\n      dup3\n        /* \"@openzeppelin/contracts/access/AccessControl.sol\":4899:4911  getRoleAdmin */\n      tag_24\n        /* \"@openzeppelin/contracts/access/AccessControl.sol\":4899:4917  getRoleAdmin(role) */\n      jump\t// in\n    tag_70:\n        /* \"@openzeppelin/contracts/access/AccessControl.sol\":2505:2521  _checkRole(role) */\n      tag_72\n        /* \"@openzeppelin/contracts/access/AccessControl.sol\":2516:2520  role */\n      dup2\n        /* \"@openzeppelin/contracts/access/AccessControl.sol\":2505:2515  _checkRole */\n      tag_73\n        /* \"@openzeppelin/contracts/access/AccessControl.sol\":2505:2521  _checkRole(role) */\n      jump\t// in\n    tag_72:\n        /* \"@openzeppelin/contracts/access/AccessControl.sol\":4929:4954  _grantRole(role, account) */\n      tag_75\n        /* \"@openzeppelin/contracts/access/AccessControl.sol\":4940:4944  role */\n      dup4\n        /* \"@openzeppelin/contracts/access/AccessControl.sol\":4946:4953  account */\n      dup4\n        /* \"@openzeppelin/contracts/access/AccessControl.sol\":4929:4939  _grantRole */\n      tag_76\n        /* \"@openzeppelin/contracts/access/AccessControl.sol\":4929:4954  _grantRole(role, account) */\n      jump\t// in\n    tag_75:\n        /* \"@openzeppelin/contracts/access/AccessControl.sol\":4816:4961  function grantRole(bytes32 role, address account) public virtual override onlyRole(getRoleAdmin(role)) {... */\n      pop\n      pop\n      pop\n      jump\t// out\n        /* \"@openzeppelin/contracts/access/AccessControl.sol\":5925:6139  function renounceRole(bytes32 role, address account) public virtual override {... */\n    tag_33:\n        /* \"@openzeppelin/contracts/access/AccessControl.sol\":6031:6043  _msgSender() */\n      tag_78\n        /* \"@openzeppelin/contracts/access/AccessControl.sol\":6031:6041  _msgSender */\n      tag_79\n        /* \"@openzeppelin/contracts/access/AccessControl.sol\":6031:6043  _msgSender() */\n      jump\t// in\n    tag_78:\n        /* \"@openzeppelin/contracts/access/AccessControl.sol\":6020:6043  account == _msgSender() */\n      0xffffffffffffffffffffffffffffffffffffffff\n      and\n        /* \"@openzeppelin/contracts/access/AccessControl.sol\":6020:6027  account */\n      dup2\n        /* \"@openzeppelin/contracts/access/AccessControl.sol\":6020:6043  account == _msgSender() */\n      0xffffffffffffffffffffffffffffffffffffffff\n      and\n      eq\n        /* \"@openzeppelin/contracts/access/AccessControl.sol\":6012:6095  require(account == _msgSender(), \"AccessControl: can only renounce roles for self\") */\n      tag_80\n      jumpi\n      mload(0x40)\n      0x08c379a000000000000000000000000000000000000000000000000000000000\n      dup2\n      mstore\n      0x04\n      add\n      tag_81\n      swap1\n      tag_82\n      jump\t// in\n    tag_81:\n      mload(0x40)\n      dup1\n      swap2\n      sub\n      swap1\n      revert\n    tag_80:\n        /* \"@openzeppelin/contracts/access/AccessControl.sol\":6106:6132  _revokeRole(role, account) */\n      tag_83\n        /* \"@openzeppelin/contracts/access/AccessControl.sol\":6118:6122  role */\n      dup3\n        /* \"@openzeppelin/contracts/access/AccessControl.sol\":6124:6131  account */\n      dup3\n        /* \"@openzeppelin/contracts/access/AccessControl.sol\":6106:6117  _revokeRole */\n      tag_84\n        /* \"@openzeppelin/contracts/access/AccessControl.sol\":6106:6132  _revokeRole(role, account) */\n      jump\t// in\n    tag_83:\n        /* \"@openzeppelin/contracts/access/AccessControl.sol\":5925:6139  function renounceRole(bytes32 role, address account) public virtual override {... */\n      pop\n      pop\n      jump\t// out\n        /* \"@openzeppelin/contracts/access/AccessControl.sol\":2895:3040  function hasRole(bytes32 role, address account) public view virtual override returns (bool) {... */\n    tag_36:\n        /* \"@openzeppelin/contracts/access/AccessControl.sol\":2981:2985  bool */\n      0x00\n        /* \"@openzeppelin/contracts/access/AccessControl.sol\":3004:3010  _roles */\n      dup1\n        /* \"@openzeppelin/contracts/access/AccessControl.sol\":3004:3016  _roles[role] */\n      0x00\n        /* \"@openzeppelin/contracts/access/AccessControl.sol\":3011:3015  role */\n      dup5\n        /* \"@openzeppelin/contracts/access/AccessControl.sol\":3004:3016  _roles[role] */\n      dup2\n      mstore\n      0x20\n      add\n      swap1\n      dup2\n      mstore\n      0x20\n      add\n      0x00\n      keccak256\n        /* \"@openzeppelin/contracts/access/AccessControl.sol\":3004:3024  _roles[role].members */\n      0x00\n      add\n        /* \"@openzeppelin/contracts/access/AccessControl.sol\":3004:3033  _roles[role].members[account] */\n      0x00\n        /* \"@openzeppelin/contracts/access/AccessControl.sol\":3025:3032  account */\n      dup4\n        /* \"@openzeppelin/contracts/access/AccessControl.sol\":3004:3033  _roles[role].members[account] */\n      0xffffffffffffffffffffffffffffffffffffffff\n      and\n      0xffffffffffffffffffffffffffffffffffffffff\n      and\n      dup2\n      mstore\n      0x20\n      add\n      swap1\n      dup2\n      mstore\n      0x20\n      add\n      0x00\n      keccak256\n      0x00\n      swap1\n      sload\n      swap1\n      0x0100\n      exp\n      swap1\n      div\n      0xff\n      and\n        /* \"@openzeppelin/contracts/access/AccessControl.sol\":2997:3033  return _roles[role].members[account] */\n      swap1\n      pop\n        /* \"@openzeppelin/contracts/access/AccessControl.sol\":2895:3040  function hasRole(bytes32 role, address account) public view virtual override returns (bool) {... */\n      swap3\n      swap2\n      pop\n      pop\n      jump\t// out\n        /* \"@openzeppelin/contracts/access/AccessControl.sol\":2027:2076  bytes32 public constant DEFAULT_ADMIN_ROLE = 0x00 */\n    tag_39:\n        /* \"@openzeppelin/contracts/access/AccessControl.sol\":2072:2076  0x00 */\n      0x00\n        /* \"@openzeppelin/contracts/access/AccessControl.sol\":2027:2076  bytes32 public constant DEFAULT_ADMIN_ROLE = 0x00 */\n      dup1\n      shl\n      dup2\n      jump\t// out\n        /* \"contracts/DaoTest.sol\":212:542  function test(bool[] memory _accessibleRoles) public pure returns(bool)  {\r... */\n    tag_44:\n        /* \"contracts/DaoTest.sol\":278:282  bool */\n      0x00\n        /* \"contracts/DaoTest.sol\":296:308  bool ifRoles */\n      dup1\n        /* \"contracts/DaoTest.sol\":311:316  false */\n      0x00\n        /* \"contracts/DaoTest.sol\":296:316  bool ifRoles = false */\n      swap1\n      pop\n        /* \"contracts/DaoTest.sol\":332:338  uint i */\n      0x00\n        /* \"contracts/DaoTest.sol\":327:509  for (uint i = 0; i <_accessibleRoles.length; ++i) {\r... */\n    tag_87:\n        /* \"contracts/DaoTest.sol\":347:363  _accessibleRoles */\n      dup4\n        /* \"contracts/DaoTest.sol\":347:370  _accessibleRoles.length */\n      mload\n        /* \"contracts/DaoTest.sol\":344:345  i */\n      dup2\n        /* \"contracts/DaoTest.sol\":344:370  i <_accessibleRoles.length */\n      lt\n        /* \"contracts/DaoTest.sol\":327:509  for (uint i = 0; i <_accessibleRoles.length; ++i) {\r... */\n      iszero\n      tag_88\n      jumpi\n        /* \"contracts/DaoTest.sol\":419:423  true */\n      0x01\n        /* \"contracts/DaoTest.sol\":396:423  _accessibleRoles[i] == true */\n      iszero\n      iszero\n        /* \"contracts/DaoTest.sol\":396:412  _accessibleRoles */\n      dup5\n        /* \"contracts/DaoTest.sol\":413:414  i */\n      dup3\n        /* \"contracts/DaoTest.sol\":396:415  _accessibleRoles[i] */\n      dup2\n      mload\n      dup2\n      lt\n      tag_90\n      jumpi\n      tag_91\n      tag_60\n      jump\t// in\n    tag_91:\n    tag_90:\n      0x20\n      mul\n      0x20\n      add\n      add\n      mload\n        /* \"contracts/DaoTest.sol\":396:423  _accessibleRoles[i] == true */\n      iszero\n      iszero\n      eq\n        /* \"contracts/DaoTest.sol\":392:498  if (_accessibleRoles[i] == true) {\r... */\n      iszero\n      tag_92\n      jumpi\n        /* \"contracts/DaoTest.sol\":454:458  true */\n      0x01\n        /* \"contracts/DaoTest.sol\":444:458  ifRoles = true */\n      swap2\n      pop\n        /* \"contracts/DaoTest.sol\":477:482  break */\n      jump(tag_88)\n        /* \"contracts/DaoTest.sol\":392:498  if (_accessibleRoles[i] == true) {\r... */\n    tag_92:\n        /* \"contracts/DaoTest.sol\":372:375  ++i */\n      dup1\n      tag_93\n      swap1\n      tag_94\n      jump\t// in\n    tag_93:\n      swap1\n      pop\n        /* \"contracts/DaoTest.sol\":327:509  for (uint i = 0; i <_accessibleRoles.length; ++i) {\r... */\n      jump(tag_87)\n    tag_88:\n      pop\n        /* \"contracts/DaoTest.sol\":526:533  ifRoles */\n      dup1\n        /* \"contracts/DaoTest.sol\":519:534  return(ifRoles) */\n      swap2\n      pop\n      pop\n        /* \"contracts/DaoTest.sol\":212:542  function test(bool[] memory _accessibleRoles) public pure returns(bool)  {\r... */\n      swap2\n      swap1\n      pop\n      jump\t// out\n        /* \"@openzeppelin/contracts/access/AccessControl.sol\":5241:5388  function revokeRole(bytes32 role, address account) public virtual override onlyRole(getRoleAdmin(role)) {... */\n    tag_48:\n        /* \"@openzeppelin/contracts/access/AccessControl.sol\":5325:5343  getRoleAdmin(role) */\n      tag_95\n        /* \"@openzeppelin/contracts/access/AccessControl.sol\":5338:5342  role */\n      dup3\n        /* \"@openzeppelin/contracts/access/AccessControl.sol\":5325:5337  getRoleAdmin */\n      tag_24\n        /* \"@openzeppelin/contracts/access/AccessControl.sol\":5325:5343  getRoleAdmin(role) */\n      jump\t// in\n    tag_95:\n        /* \"@openzeppelin/contracts/access/AccessControl.sol\":2505:2521  _checkRole(role) */\n      tag_97\n        /* \"@openzeppelin/contracts/access/AccessControl.sol\":2516:2520  role */\n      dup2\n        /* \"@openzeppelin/contracts/access/AccessControl.sol\":2505:2515  _checkRole */\n      tag_73\n        /* \"@openzeppelin/contracts/access/AccessControl.sol\":2505:2521  _checkRole(role) */\n      jump\t// in\n    tag_97:\n        /* \"@openzeppelin/contracts/access/AccessControl.sol\":5355:5381  _revokeRole(role, account) */\n      tag_99\n        /* \"@openzeppelin/contracts/access/AccessControl.sol\":5367:5371  role */\n      dup4\n        /* \"@openzeppelin/contracts/access/AccessControl.sol\":5373:5380  account */\n      dup4\n        /* \"@openzeppelin/contracts/access/AccessControl.sol\":5355:5366  _revokeRole */\n      tag_84\n        /* \"@openzeppelin/contracts/access/AccessControl.sol\":5355:5381  _revokeRole(role, account) */\n      jump\t// in\n    tag_99:\n        /* \"@openzeppelin/contracts/access/AccessControl.sol\":5241:5388  function revokeRole(bytes32 role, address account) public virtual override onlyRole(getRoleAdmin(role)) {... */\n      pop\n      pop\n      pop\n      jump\t// out\n        /* \"@openzeppelin/contracts/utils/introspection/ERC165.sol\":829:984  function supportsInterface(bytes4 interfaceId) public view virtual override returns (bool) {... */\n    tag_52:\n        /* \"@openzeppelin/contracts/utils/introspection/ERC165.sol\":914:918  bool */\n      0x00\n        /* \"@openzeppelin/contracts/utils/introspection/ERC165.sol\":952:977  type(IERC165).interfaceId */\n      0x01ffc9a700000000000000000000000000000000000000000000000000000000\n        /* \"@openzeppelin/contracts/utils/introspection/ERC165.sol\":937:977  interfaceId == type(IERC165).interfaceId */\n      not(0xffffffffffffffffffffffffffffffffffffffffffffffffffffffff)\n      and\n        /* \"@openzeppelin/contracts/utils/introspection/ERC165.sol\":937:948  interfaceId */\n      dup3\n        /* \"@openzeppelin/contracts/utils/introspection/ERC165.sol\":937:977  interfaceId == type(IERC165).interfaceId */\n      not(0xffffffffffffffffffffffffffffffffffffffffffffffffffffffff)\n      and\n      eq\n        /* \"@openzeppelin/contracts/utils/introspection/ERC165.sol\":930:977  return interfaceId == type(IERC165).interfaceId */\n      swap1\n      pop\n        /* \"@openzeppelin/contracts/utils/introspection/ERC165.sol\":829:984  function supportsInterface(bytes4 interfaceId) public view virtual override returns (bool) {... */\n      swap2\n      swap1\n      pop\n      jump\t// out\n        /* \"@openzeppelin/contracts/access/AccessControl.sol\":3334:3437  function _checkRole(bytes32 role) internal view virtual {... */\n    tag_73:\n        /* \"@openzeppelin/contracts/access/AccessControl.sol\":3400:3430  _checkRole(role, _msgSender()) */\n      tag_102\n        /* \"@openzeppelin/contracts/access/AccessControl.sol\":3411:3415  role */\n      dup2\n        /* \"@openzeppelin/contracts/access/AccessControl.sol\":3417:3429  _msgSender() */\n      tag_103\n        /* \"@openzeppelin/contracts/access/AccessControl.sol\":3417:3427  _msgSender */\n      tag_79\n        /* \"@openzeppelin/contracts/access/AccessControl.sol\":3417:3429  _msgSender() */\n      jump\t// in\n    tag_103:\n        /* \"@openzeppelin/contracts/access/AccessControl.sol\":3400:3410  _checkRole */\n      tag_104\n        /* \"@openzeppelin/contracts/access/AccessControl.sol\":3400:3430  _checkRole(role, _msgSender()) */\n      jump\t// in\n    tag_102:\n        /* \"@openzeppelin/contracts/access/AccessControl.sol\":3334:3437  function _checkRole(bytes32 role) internal view virtual {... */\n      pop\n      jump\t// out\n        /* \"@openzeppelin/contracts/access/AccessControl.sol\":7474:7707  function _grantRole(bytes32 role, address account) internal virtual {... */\n    tag_76:\n        /* \"@openzeppelin/contracts/access/AccessControl.sol\":7557:7579  hasRole(role, account) */\n      tag_106\n        /* \"@openzeppelin/contracts/access/AccessControl.sol\":7565:7569  role */\n      dup3\n        /* \"@openzeppelin/contracts/access/AccessControl.sol\":7571:7578  account */\n      dup3\n        /* \"@openzeppelin/contracts/access/AccessControl.sol\":7557:7564  hasRole */\n      tag_36\n        /* \"@openzeppelin/contracts/access/AccessControl.sol\":7557:7579  hasRole(role, account) */\n      jump\t// in\n    tag_106:\n        /* \"@openzeppelin/contracts/access/AccessControl.sol\":7552:7701  if (!hasRole(role, account)) {... */\n      tag_107\n      jumpi\n        /* \"@openzeppelin/contracts/access/AccessControl.sol\":7627:7631  true */\n      0x01\n        /* \"@openzeppelin/contracts/access/AccessControl.sol\":7595:7601  _roles */\n      0x00\n        /* \"@openzeppelin/contracts/access/AccessControl.sol\":7595:7607  _roles[role] */\n      dup1\n        /* \"@openzeppelin/contracts/access/AccessControl.sol\":7602:7606  role */\n      dup5\n        /* \"@openzeppelin/contracts/access/AccessControl.sol\":7595:7607  _roles[role] */\n      dup2\n      mstore\n      0x20\n      add\n      swap1\n      dup2\n      mstore\n      0x20\n      add\n      0x00\n      keccak256\n        /* \"@openzeppelin/contracts/access/AccessControl.sol\":7595:7615  _roles[role].members */\n      0x00\n      add\n        /* \"@openzeppelin/contracts/access/AccessControl.sol\":7595:7624  _roles[role].members[account] */\n      0x00\n        /* \"@openzeppelin/contracts/access/AccessControl.sol\":7616:7623  account */\n      dup4\n        /* \"@openzeppelin/contracts/access/AccessControl.sol\":7595:7624  _roles[role].members[account] */\n      0xffffffffffffffffffffffffffffffffffffffff\n      and\n      0xffffffffffffffffffffffffffffffffffffffff\n      and\n      dup2\n      mstore\n      0x20\n      add\n      swap1\n      dup2\n      mstore\n      0x20\n      add\n      0x00\n      keccak256\n      0x00\n        /* \"@openzeppelin/contracts/access/AccessControl.sol\":7595:7631  _roles[role].members[account] = true */\n      0x0100\n      exp\n      dup2\n      sload\n      dup2\n      0xff\n      mul\n      not\n      and\n      swap1\n      dup4\n      iszero\n      iszero\n      mul\n      or\n      swap1\n      sstore\n      pop\n        /* \"@openzeppelin/contracts/access/AccessControl.sol\":7677:7689  _msgSender() */\n      tag_108\n        /* \"@openzeppelin/contracts/access/AccessControl.sol\":7677:7687  _msgSender */\n      tag_79\n        /* \"@openzeppelin/contracts/access/AccessControl.sol\":7677:7689  _msgSender() */\n      jump\t// in\n    tag_108:\n        /* \"@openzeppelin/contracts/access/AccessControl.sol\":7650:7690  RoleGranted(role, account, _msgSender()) */\n      0xffffffffffffffffffffffffffffffffffffffff\n      and\n        /* \"@openzeppelin/contracts/access/AccessControl.sol\":7668:7675  account */\n      dup2\n        /* \"@openzeppelin/contracts/access/AccessControl.sol\":7650:7690  RoleGranted(role, account, _msgSender()) */\n      0xffffffffffffffffffffffffffffffffffffffff\n      and\n        /* \"@openzeppelin/contracts/access/AccessControl.sol\":7662:7666  role */\n      dup4\n        /* \"@openzeppelin/contracts/access/AccessControl.sol\":7650:7690  RoleGranted(role, account, _msgSender()) */\n      0x2f8788117e7eff1d82e926ec794901d17c78024a50270940304540a733656f0d\n      mload(0x40)\n      mload(0x40)\n      dup1\n      swap2\n      sub\n      swap1\n      log4\n        /* \"@openzeppelin/contracts/access/AccessControl.sol\":7552:7701  if (!hasRole(role, account)) {... */\n    tag_107:\n        /* \"@openzeppelin/contracts/access/AccessControl.sol\":7474:7707  function _grantRole(bytes32 role, address account) internal virtual {... */\n      pop\n      pop\n      jump\t// out\n        /* \"@openzeppelin/contracts/utils/Context.sol\":640:736  function _msgSender() internal view virtual returns (address) {... */\n    tag_79:\n        /* \"@openzeppelin/contracts/utils/Context.sol\":693:700  address */\n      0x00\n        /* \"@openzeppelin/contracts/utils/Context.sol\":719:729  msg.sender */\n      caller\n        /* \"@openzeppelin/contracts/utils/Context.sol\":712:729  return msg.sender */\n      swap1\n      pop\n        /* \"@openzeppelin/contracts/utils/Context.sol\":640:736  function _msgSender() internal view virtual returns (address) {... */\n      swap1\n      jump\t// out\n        /* \"@openzeppelin/contracts/access/AccessControl.sol\":7878:8112  function _revokeRole(bytes32 role, address account) internal virtual {... */\n    tag_84:\n        /* \"@openzeppelin/contracts/access/AccessControl.sol\":7961:7983  hasRole(role, account) */\n      tag_111\n        /* \"@openzeppelin/contracts/access/AccessControl.sol\":7969:7973  role */\n      dup3\n        /* \"@openzeppelin/contracts/access/AccessControl.sol\":7975:7982  account */\n      dup3\n        /* \"@openzeppelin/contracts/access/AccessControl.sol\":7961:7968  hasRole */\n      tag_36\n        /* \"@openzeppelin/contracts/access/AccessControl.sol\":7961:7983  hasRole(role, account) */\n      jump\t// in\n    tag_111:\n        /* \"@openzeppelin/contracts/access/AccessControl.sol\":7957:8106  if (hasRole(role, account)) {... */\n      iszero\n      tag_112\n      jumpi\n        /* \"@openzeppelin/contracts/access/AccessControl.sol\":8031:8036  false */\n      0x00\n        /* \"@openzeppelin/contracts/access/AccessControl.sol\":7999:8005  _roles */\n      dup1\n        /* \"@openzeppelin/contracts/access/AccessControl.sol\":7999:8011  _roles[role] */\n      0x00\n        /* \"@openzeppelin/contracts/access/AccessControl.sol\":8006:8010  role */\n      dup5\n        /* \"@openzeppelin/contracts/access/AccessControl.sol\":7999:8011  _roles[role] */\n      dup2\n      mstore\n      0x20\n      add\n      swap1\n      dup2\n      mstore\n      0x20\n      add\n      0x00\n      keccak256\n        /* \"@openzeppelin/contracts/access/AccessControl.sol\":7999:8019  _roles[role].members */\n      0x00\n      add\n        /* \"@openzeppelin/contracts/access/AccessControl.sol\":7999:8028  _roles[role].members[account] */\n      0x00\n        /* \"@openzeppelin/contracts/access/AccessControl.sol\":8020:8027  account */\n      dup4\n        /* \"@openzeppelin/contracts/access/AccessControl.sol\":7999:8028  _roles[role].members[account] */\n      0xffffffffffffffffffffffffffffffffffffffff\n      and\n      0xffffffffffffffffffffffffffffffffffffffff\n      and\n      dup2\n      mstore\n      0x20\n      add\n      swap1\n      dup2\n      mstore\n      0x20\n      add\n      0x00\n      keccak256\n      0x00\n        /* \"@openzeppelin/contracts/access/AccessControl.sol\":7999:8036  _roles[role].members[account] = false */\n      0x0100\n      exp\n      dup2\n      sload\n      dup2\n      0xff\n      mul\n      not\n      and\n      swap1\n      dup4\n      iszero\n      iszero\n      mul\n      or\n      swap1\n      sstore\n      pop\n        /* \"@openzeppelin/contracts/access/AccessControl.sol\":8082:8094  _msgSender() */\n      tag_113\n        /* \"@openzeppelin/contracts/access/AccessControl.sol\":8082:8092  _msgSender */\n      tag_79\n        /* \"@openzeppelin/contracts/access/AccessControl.sol\":8082:8094  _msgSender() */\n      jump\t// in\n    tag_113:\n        /* \"@openzeppelin/contracts/access/AccessControl.sol\":8055:8095  RoleRevoked(role, account, _msgSender()) */\n      0xffffffffffffffffffffffffffffffffffffffff\n      and\n        /* \"@openzeppelin/contracts/access/AccessControl.sol\":8073:8080  account */\n      dup2\n        /* \"@openzeppelin/contracts/access/AccessControl.sol\":8055:8095  RoleRevoked(role, account, _msgSender()) */\n      0xffffffffffffffffffffffffffffffffffffffff\n      and\n        /* \"@openzeppelin/contracts/access/AccessControl.sol\":8067:8071  role */\n      dup4\n        /* \"@openzeppelin/contracts/access/AccessControl.sol\":8055:8095  RoleRevoked(role, account, _msgSender()) */\n      0xf6391f5c32d9c69d2a47ea670b442974b53935d1edc7fd64eb21e047a839171b\n      mload(0x40)\n      mload(0x40)\n      dup1\n      swap2\n      sub\n      swap1\n      log4\n        /* \"@openzeppelin/contracts/access/AccessControl.sol\":7957:8106  if (hasRole(role, account)) {... */\n    tag_112:\n        /* \"@openzeppelin/contracts/access/AccessControl.sol\":7878:8112  function _revokeRole(bytes32 role, address account) internal virtual {... */\n      pop\n      pop\n      jump\t// out\n        /* \"@openzeppelin/contracts/access/AccessControl.sol\":3718:4210  function _checkRole(bytes32 role, address account) internal view virtual {... */\n    tag_104:\n        /* \"@openzeppelin/contracts/access/AccessControl.sol\":3806:3828  hasRole(role, account) */\n      tag_115\n        /* \"@openzeppelin/contracts/access/AccessControl.sol\":3814:3818  role */\n      dup3\n        /* \"@openzeppelin/contracts/access/AccessControl.sol\":3820:3827  account */\n      dup3\n        /* \"@openzeppelin/contracts/access/AccessControl.sol\":3806:3813  hasRole */\n      tag_36\n        /* \"@openzeppelin/contracts/access/AccessControl.sol\":3806:3828  hasRole(role, account) */\n      jump\t// in\n    tag_115:\n        /* \"@openzeppelin/contracts/access/AccessControl.sol\":3801:4204  if (!hasRole(role, account)) {... */\n      tag_116\n      jumpi\n        /* \"@openzeppelin/contracts/access/AccessControl.sol\":3989:4030  Strings.toHexString(uint160(account), 20) */\n      tag_117\n        /* \"@openzeppelin/contracts/access/AccessControl.sol\":4017:4024  account */\n      dup2\n        /* \"@openzeppelin/contracts/access/AccessControl.sol\":3989:4030  Strings.toHexString(uint160(account), 20) */\n      0xffffffffffffffffffffffffffffffffffffffff\n      and\n        /* \"@openzeppelin/contracts/access/AccessControl.sol\":4027:4029  20 */\n      0x14\n        /* \"@openzeppelin/contracts/access/AccessControl.sol\":3989:4008  Strings.toHexString */\n      tag_118\n        /* \"@openzeppelin/contracts/access/AccessControl.sol\":3989:4030  Strings.toHexString(uint160(account), 20) */\n      jump\t// in\n    tag_117:\n        /* \"@openzeppelin/contracts/access/AccessControl.sol\":4101:4139  Strings.toHexString(uint256(role), 32) */\n      tag_119\n        /* \"@openzeppelin/contracts/access/AccessControl.sol\":4129:4133  role */\n      dup4\n        /* \"@openzeppelin/contracts/access/AccessControl.sol\":4121:4134  uint256(role) */\n      0x00\n      shr\n        /* \"@openzeppelin/contracts/access/AccessControl.sol\":4136:4138  32 */\n      0x20\n        /* \"@openzeppelin/contracts/access/AccessControl.sol\":4101:4120  Strings.toHexString */\n      tag_118\n        /* \"@openzeppelin/contracts/access/AccessControl.sol\":4101:4139  Strings.toHexString(uint256(role), 32) */\n      jump\t// in\n    tag_119:\n        /* \"@openzeppelin/contracts/access/AccessControl.sol\":3896:4161  abi.encodePacked(... */\n      add(0x20, mload(0x40))\n      tag_120\n      swap3\n      swap2\n      swap1\n      tag_121\n      jump\t// in\n    tag_120:\n      mload(0x40)\n      0x20\n      dup2\n      dup4\n      sub\n      sub\n      dup2\n      mstore\n      swap1\n      0x40\n      mstore\n        /* \"@openzeppelin/contracts/access/AccessControl.sol\":3844:4193  revert(... */\n      mload(0x40)\n      0x08c379a000000000000000000000000000000000000000000000000000000000\n      dup2\n      mstore\n      0x04\n      add\n      tag_122\n      swap2\n      swap1\n      tag_123\n      jump\t// in\n    tag_122:\n      mload(0x40)\n      dup1\n      swap2\n      sub\n      swap1\n      revert\n        /* \"@openzeppelin/contracts/access/AccessControl.sol\":3801:4204  if (!hasRole(role, account)) {... */\n    tag_116:\n        /* \"@openzeppelin/contracts/access/AccessControl.sol\":3718:4210  function _checkRole(bytes32 role, address account) internal view virtual {... */\n      pop\n      pop\n      jump\t// out\n        /* \"@openzeppelin/contracts/utils/Strings.sol\":1652:2093  function toHexString(uint256 value, uint256 length) internal pure returns (string memory) {... */\n    tag_118:\n        /* \"@openzeppelin/contracts/utils/Strings.sol\":1727:1740  string memory */\n      0x60\n        /* \"@openzeppelin/contracts/utils/Strings.sol\":1752:1771  bytes memory buffer */\n      0x00\n        /* \"@openzeppelin/contracts/utils/Strings.sol\":1797:1798  2 */\n      0x02\n        /* \"@openzeppelin/contracts/utils/Strings.sol\":1788:1794  length */\n      dup4\n        /* \"@openzeppelin/contracts/utils/Strings.sol\":1784:1785  2 */\n      0x02\n        /* \"@openzeppelin/contracts/utils/Strings.sol\":1784:1794  2 * length */\n      tag_125\n      swap2\n      swap1\n      tag_126\n      jump\t// in\n    tag_125:\n        /* \"@openzeppelin/contracts/utils/Strings.sol\":1784:1798  2 * length + 2 */\n      tag_127\n      swap2\n      swap1\n      tag_128\n      jump\t// in\n    tag_127:\n        /* \"@openzeppelin/contracts/utils/Strings.sol\":1774:1799  new bytes(2 * length + 2) */\n      0xffffffffffffffff\n      dup2\n      gt\n      iszero\n      tag_129\n      jumpi\n      tag_130\n      tag_56\n      jump\t// in\n    tag_130:\n    tag_129:\n      mload(0x40)\n      swap1\n      dup1\n      dup3\n      mstore\n      dup1\n      0x1f\n      add\n      not(0x1f)\n      and\n      0x20\n      add\n      dup3\n      add\n      0x40\n      mstore\n      dup1\n      iszero\n      tag_131\n      jumpi\n      dup2\n      0x20\n      add\n      0x01\n      dup3\n      mul\n      dup1\n      calldatasize\n      dup4\n      calldatacopy\n      dup1\n      dup3\n      add\n      swap2\n      pop\n      pop\n      swap1\n      pop\n    tag_131:\n      pop\n        /* \"@openzeppelin/contracts/utils/Strings.sol\":1752:1799  bytes memory buffer = new bytes(2 * length + 2) */\n      swap1\n      pop\n        /* \"@openzeppelin/contracts/utils/Strings.sol\":1809:1824  buffer[0] = \"0\" */\n      0x3000000000000000000000000000000000000000000000000000000000000000\n        /* \"@openzeppelin/contracts/utils/Strings.sol\":1809:1815  buffer */\n      dup2\n        /* \"@openzeppelin/contracts/utils/Strings.sol\":1816:1817  0 */\n      0x00\n        /* \"@openzeppelin/contracts/utils/Strings.sol\":1809:1818  buffer[0] */\n      dup2\n      mload\n      dup2\n      lt\n      tag_132\n      jumpi\n      tag_133\n      tag_60\n      jump\t// in\n    tag_133:\n    tag_132:\n      0x20\n      add\n      add\n        /* \"@openzeppelin/contracts/utils/Strings.sol\":1809:1824  buffer[0] = \"0\" */\n      swap1\n      not(0xffffffffffffffffffffffffffffffffffffffffffffffffffffffffffffff)\n      and\n      swap1\n      dup2\n      0x00\n      byte\n      swap1\n      mstore8\n      pop\n        /* \"@openzeppelin/contracts/utils/Strings.sol\":1834:1849  buffer[1] = \"x\" */\n      0x7800000000000000000000000000000000000000000000000000000000000000\n        /* \"@openzeppelin/contracts/utils/Strings.sol\":1834:1840  buffer */\n      dup2\n        /* \"@openzeppelin/contracts/utils/Strings.sol\":1841:1842  1 */\n      0x01\n        /* \"@openzeppelin/contracts/utils/Strings.sol\":1834:1843  buffer[1] */\n      dup2\n      mload\n      dup2\n      lt\n      tag_134\n      jumpi\n      tag_135\n      tag_60\n      jump\t// in\n    tag_135:\n    tag_134:\n      0x20\n      add\n      add\n        /* \"@openzeppelin/contracts/utils/Strings.sol\":1834:1849  buffer[1] = \"x\" */\n      swap1\n      not(0xffffffffffffffffffffffffffffffffffffffffffffffffffffffffffffff)\n      and\n      swap1\n      dup2\n      0x00\n      byte\n      swap1\n      mstore8\n      pop\n        /* \"@openzeppelin/contracts/utils/Strings.sol\":1864:1873  uint256 i */\n      0x00\n        /* \"@openzeppelin/contracts/utils/Strings.sol\":1889:1890  1 */\n      0x01\n        /* \"@openzeppelin/contracts/utils/Strings.sol\":1880:1886  length */\n      dup5\n        /* \"@openzeppelin/contracts/utils/Strings.sol\":1876:1877  2 */\n      0x02\n        /* \"@openzeppelin/contracts/utils/Strings.sol\":1876:1886  2 * length */\n      tag_139\n      swap2\n      swap1\n      tag_126\n      jump\t// in\n    tag_139:\n        /* \"@openzeppelin/contracts/utils/Strings.sol\":1876:1890  2 * length + 1 */\n      tag_140\n      swap2\n      swap1\n      tag_128\n      jump\t// in\n    tag_140:\n        /* \"@openzeppelin/contracts/utils/Strings.sol\":1864:1890  uint256 i = 2 * length + 1 */\n      swap1\n      pop\n        /* \"@openzeppelin/contracts/utils/Strings.sol\":1859:1991  for (uint256 i = 2 * length + 1; i > 1; --i) {... */\n    tag_136:\n        /* \"@openzeppelin/contracts/utils/Strings.sol\":1896:1897  1 */\n      0x01\n        /* \"@openzeppelin/contracts/utils/Strings.sol\":1892:1893  i */\n      dup2\n        /* \"@openzeppelin/contracts/utils/Strings.sol\":1892:1897  i > 1 */\n      gt\n        /* \"@openzeppelin/contracts/utils/Strings.sol\":1859:1991  for (uint256 i = 2 * length + 1; i > 1; --i) {... */\n      iszero\n      tag_137\n      jumpi\n        /* \"@openzeppelin/contracts/utils/Strings.sol\":1930:1942  _HEX_SYMBOLS */\n      0x3031323334353637383961626364656600000000000000000000000000000000\n        /* \"@openzeppelin/contracts/utils/Strings.sol\":1951:1954  0xf */\n      0x0f\n        /* \"@openzeppelin/contracts/utils/Strings.sol\":1943:1948  value */\n      dup7\n        /* \"@openzeppelin/contracts/utils/Strings.sol\":1943:1954  value & 0xf */\n      and\n        /* \"@openzeppelin/contracts/utils/Strings.sol\":1930:1955  _HEX_SYMBOLS[value & 0xf] */\n      0x10\n      dup2\n      lt\n      tag_141\n      jumpi\n      tag_142\n      tag_60\n      jump\t// in\n    tag_142:\n    tag_141:\n      byte\n      0xf8\n      shl\n        /* \"@openzeppelin/contracts/utils/Strings.sol\":1918:1924  buffer */\n      dup3\n        /* \"@openzeppelin/contracts/utils/Strings.sol\":1925:1926  i */\n      dup3\n        /* \"@openzeppelin/contracts/utils/Strings.sol\":1918:1927  buffer[i] */\n      dup2\n      mload\n      dup2\n      lt\n      tag_143\n      jumpi\n      tag_144\n      tag_60\n      jump\t// in\n    tag_144:\n    tag_143:\n      0x20\n      add\n      add\n        /* \"@openzeppelin/contracts/utils/Strings.sol\":1918:1955  buffer[i] = _HEX_SYMBOLS[value & 0xf] */\n      swap1\n      not(0xffffffffffffffffffffffffffffffffffffffffffffffffffffffffffffff)\n      and\n      swap1\n      dup2\n      0x00\n      byte\n      swap1\n      mstore8\n      pop\n        /* \"@openzeppelin/contracts/utils/Strings.sol\":1979:1980  4 */\n      0x04\n        /* \"@openzeppelin/contracts/utils/Strings.sol\":1969:1980  value >>= 4 */\n      dup6\n      swap1\n      shr\n      swap5\n      pop\n        /* \"@openzeppelin/contracts/utils/Strings.sol\":1899:1902  --i */\n      dup1\n      tag_145\n      swap1\n      tag_146\n      jump\t// in\n    tag_145:\n      swap1\n      pop\n        /* \"@openzeppelin/contracts/utils/Strings.sol\":1859:1991  for (uint256 i = 2 * length + 1; i > 1; --i) {... */\n      jump(tag_136)\n    tag_137:\n      pop\n        /* \"@openzeppelin/contracts/utils/Strings.sol\":2017:2018  0 */\n      0x00\n        /* \"@openzeppelin/contracts/utils/Strings.sol\":2008:2013  value */\n      dup5\n        /* \"@openzeppelin/contracts/utils/Strings.sol\":2008:2018  value == 0 */\n      eq\n        /* \"@openzeppelin/contracts/utils/Strings.sol\":2000:2055  require(value == 0, \"Strings: hex length insufficient\") */\n      tag_147\n      jumpi\n      mload(0x40)\n      0x08c379a000000000000000000000000000000000000000000000000000000000\n      dup2\n      mstore\n      0x04\n      add\n      tag_148\n      swap1\n      tag_149\n      jump\t// in\n    tag_148:\n      mload(0x40)\n      dup1\n      swap2\n      sub\n      swap1\n      revert\n    tag_147:\n        /* \"@openzeppelin/contracts/utils/Strings.sol\":2079:2085  buffer */\n      dup1\n        /* \"@openzeppelin/contracts/utils/Strings.sol\":2065:2086  return string(buffer) */\n      swap2\n      pop\n      pop\n        /* \"@openzeppelin/contracts/utils/Strings.sol\":1652:2093  function toHexString(uint256 value, uint256 length) internal pure returns (string memory) {... */\n      swap3\n      swap2\n      pop\n      pop\n      jump\t// out\n        /* \"#utility.yul\":21:734   */\n    tag_151:\n        /* \"#utility.yul\":114:119   */\n      0x00\n        /* \"#utility.yul\":139:217   */\n      tag_153\n        /* \"#utility.yul\":155:216   */\n      tag_154\n        /* \"#utility.yul\":209:215   */\n      dup5\n        /* \"#utility.yul\":155:216   */\n      tag_155\n      jump\t// in\n    tag_154:\n        /* \"#utility.yul\":139:217   */\n      tag_156\n      jump\t// in\n    tag_153:\n        /* \"#utility.yul\":130:217   */\n      swap1\n      pop\n        /* \"#utility.yul\":237:242   */\n      dup1\n        /* \"#utility.yul\":266:272   */\n      dup4\n        /* \"#utility.yul\":259:264   */\n      dup3\n        /* \"#utility.yul\":252:273   */\n      mstore\n        /* \"#utility.yul\":300:304   */\n      0x20\n        /* \"#utility.yul\":293:298   */\n      dup3\n        /* \"#utility.yul\":289:305   */\n      add\n        /* \"#utility.yul\":282:305   */\n      swap1\n      pop\n        /* \"#utility.yul\":326:332   */\n      dup3\n        /* \"#utility.yul\":376:379   */\n      dup6\n        /* \"#utility.yul\":368:372   */\n      0x20\n        /* \"#utility.yul\":360:366   */\n      dup7\n        /* \"#utility.yul\":356:373   */\n      mul\n        /* \"#utility.yul\":351:354   */\n      dup3\n        /* \"#utility.yul\":347:374   */\n      add\n        /* \"#utility.yul\":344:380   */\n      gt\n        /* \"#utility.yul\":341:484   */\n      iszero\n      tag_157\n      jumpi\n        /* \"#utility.yul\":395:474   */\n      tag_158\n      tag_159\n      jump\t// in\n    tag_158:\n        /* \"#utility.yul\":341:484   */\n    tag_157:\n        /* \"#utility.yul\":508:509   */\n      0x00\n        /* \"#utility.yul\":493:728   */\n    tag_160:\n        /* \"#utility.yul\":518:524   */\n      dup6\n        /* \"#utility.yul\":515:516   */\n      dup2\n        /* \"#utility.yul\":512:525   */\n      lt\n        /* \"#utility.yul\":493:728   */\n      iszero\n      tag_162\n      jumpi\n        /* \"#utility.yul\":586:589   */\n      dup2\n        /* \"#utility.yul\":615:649   */\n      tag_163\n        /* \"#utility.yul\":645:648   */\n      dup9\n        /* \"#utility.yul\":633:643   */\n      dup3\n        /* \"#utility.yul\":615:649   */\n      tag_164\n      jump\t// in\n    tag_163:\n        /* \"#utility.yul\":610:613   */\n      dup5\n        /* \"#utility.yul\":603:650   */\n      mstore\n        /* \"#utility.yul\":679:683   */\n      0x20\n        /* \"#utility.yul\":674:677   */\n      dup5\n        /* \"#utility.yul\":670:684   */\n      add\n        /* \"#utility.yul\":663:684   */\n      swap4\n      pop\n        /* \"#utility.yul\":713:717   */\n      0x20\n        /* \"#utility.yul\":708:711   */\n      dup4\n        /* \"#utility.yul\":704:718   */\n      add\n        /* \"#utility.yul\":697:718   */\n      swap3\n      pop\n        /* \"#utility.yul\":553:728   */\n      pop\n        /* \"#utility.yul\":540:541   */\n      0x01\n        /* \"#utility.yul\":537:538   */\n      dup2\n        /* \"#utility.yul\":533:542   */\n      add\n        /* \"#utility.yul\":528:542   */\n      swap1\n      pop\n        /* \"#utility.yul\":493:728   */\n      jump(tag_160)\n    tag_162:\n        /* \"#utility.yul\":497:511   */\n      pop\n        /* \"#utility.yul\":120:734   */\n      pop\n      pop\n        /* \"#utility.yul\":21:734   */\n      swap4\n      swap3\n      pop\n      pop\n      pop\n      jump\t// out\n        /* \"#utility.yul\":740:879   */\n    tag_165:\n        /* \"#utility.yul\":786:791   */\n      0x00\n        /* \"#utility.yul\":824:830   */\n      dup2\n        /* \"#utility.yul\":811:831   */\n      calldataload\n        /* \"#utility.yul\":802:831   */\n      swap1\n      pop\n        /* \"#utility.yul\":840:873   */\n      tag_167\n        /* \"#utility.yul\":867:872   */\n      dup2\n        /* \"#utility.yul\":840:873   */\n      tag_168\n      jump\t// in\n    tag_167:\n        /* \"#utility.yul\":740:879   */\n      swap3\n      swap2\n      pop\n      pop\n      jump\t// out\n        /* \"#utility.yul\":899:1263   */\n    tag_169:\n        /* \"#utility.yul\":967:972   */\n      0x00\n        /* \"#utility.yul\":1016:1019   */\n      dup3\n        /* \"#utility.yul\":1009:1013   */\n      0x1f\n        /* \"#utility.yul\":1001:1007   */\n      dup4\n        /* \"#utility.yul\":997:1014   */\n      add\n        /* \"#utility.yul\":993:1020   */\n      slt\n        /* \"#utility.yul\":983:1105   */\n      tag_171\n      jumpi\n        /* \"#utility.yul\":1024:1103   */\n      tag_172\n      tag_173\n      jump\t// in\n    tag_172:\n        /* \"#utility.yul\":983:1105   */\n    tag_171:\n        /* \"#utility.yul\":1141:1147   */\n      dup2\n        /* \"#utility.yul\":1128:1148   */\n      calldataload\n        /* \"#utility.yul\":1166:1257   */\n      tag_174\n        /* \"#utility.yul\":1253:1256   */\n      dup5\n        /* \"#utility.yul\":1245:1251   */\n      dup3\n        /* \"#utility.yul\":1238:1242   */\n      0x20\n        /* \"#utility.yul\":1230:1236   */\n      dup7\n        /* \"#utility.yul\":1226:1243   */\n      add\n        /* \"#utility.yul\":1166:1257   */\n      tag_151\n      jump\t// in\n    tag_174:\n        /* \"#utility.yul\":1157:1257   */\n      swap2\n      pop\n        /* \"#utility.yul\":973:1263   */\n      pop\n        /* \"#utility.yul\":899:1263   */\n      swap3\n      swap2\n      pop\n      pop\n      jump\t// out\n        /* \"#utility.yul\":1269:1402   */\n    tag_164:\n        /* \"#utility.yul\":1312:1317   */\n      0x00\n        /* \"#utility.yul\":1350:1356   */\n      dup2\n        /* \"#utility.yul\":1337:1357   */\n      calldataload\n        /* \"#utility.yul\":1328:1357   */\n      swap1\n      pop\n        /* \"#utility.yul\":1366:1396   */\n      tag_176\n        /* \"#utility.yul\":1390:1395   */\n      dup2\n        /* \"#utility.yul\":1366:1396   */\n      tag_177\n      jump\t// in\n    tag_176:\n        /* \"#utility.yul\":1269:1402   */\n      swap3\n      swap2\n      pop\n      pop\n      jump\t// out\n        /* \"#utility.yul\":1408:1547   */\n    tag_178:\n        /* \"#utility.yul\":1454:1459   */\n      0x00\n        /* \"#utility.yul\":1492:1498   */\n      dup2\n        /* \"#utility.yul\":1479:1499   */\n      calldataload\n        /* \"#utility.yul\":1470:1499   */\n      swap1\n      pop\n        /* \"#utility.yul\":1508:1541   */\n      tag_180\n        /* \"#utility.yul\":1535:1540   */\n      dup2\n        /* \"#utility.yul\":1508:1541   */\n      tag_181\n      jump\t// in\n    tag_180:\n        /* \"#utility.yul\":1408:1547   */\n      swap3\n      swap2\n      pop\n      pop\n      jump\t// out\n        /* \"#utility.yul\":1553:1690   */\n    tag_182:\n        /* \"#utility.yul\":1598:1603   */\n      0x00\n        /* \"#utility.yul\":1636:1642   */\n      dup2\n        /* \"#utility.yul\":1623:1643   */\n      calldataload\n        /* \"#utility.yul\":1614:1643   */\n      swap1\n      pop\n        /* \"#utility.yul\":1652:1684   */\n      tag_184\n        /* \"#utility.yul\":1678:1683   */\n      dup2\n        /* \"#utility.yul\":1652:1684   */\n      tag_185\n      jump\t// in\n    tag_184:\n        /* \"#utility.yul\":1553:1690   */\n      swap3\n      swap2\n      pop\n      pop\n      jump\t// out\n        /* \"#utility.yul\":1696:2229   */\n    tag_43:\n        /* \"#utility.yul\":1777:1783   */\n      0x00\n        /* \"#utility.yul\":1826:1828   */\n      0x20\n        /* \"#utility.yul\":1814:1823   */\n      dup3\n        /* \"#utility.yul\":1805:1812   */\n      dup5\n        /* \"#utility.yul\":1801:1824   */\n      sub\n        /* \"#utility.yul\":1797:1829   */\n      slt\n        /* \"#utility.yul\":1794:1913   */\n      iszero\n      tag_187\n      jumpi\n        /* \"#utility.yul\":1832:1911   */\n      tag_188\n      tag_189\n      jump\t// in\n    tag_188:\n        /* \"#utility.yul\":1794:1913   */\n    tag_187:\n        /* \"#utility.yul\":1980:1981   */\n      0x00\n        /* \"#utility.yul\":1969:1978   */\n      dup3\n        /* \"#utility.yul\":1965:1982   */\n      add\n        /* \"#utility.yul\":1952:1983   */\n      calldataload\n        /* \"#utility.yul\":2010:2028   */\n      0xffffffffffffffff\n        /* \"#utility.yul\":2002:2008   */\n      dup2\n        /* \"#utility.yul\":1999:2029   */\n      gt\n        /* \"#utility.yul\":1996:2113   */\n      iszero\n      tag_190\n      jumpi\n        /* \"#utility.yul\":2032:2111   */\n      tag_191\n      tag_192\n      jump\t// in\n    tag_191:\n        /* \"#utility.yul\":1996:2113   */\n    tag_190:\n        /* \"#utility.yul\":2137:2212   */\n      tag_193\n        /* \"#utility.yul\":2204:2211   */\n      dup5\n        /* \"#utility.yul\":2195:2201   */\n      dup3\n        /* \"#utility.yul\":2184:2193   */\n      dup6\n        /* \"#utility.yul\":2180:2202   */\n      add\n        /* \"#utility.yul\":2137:2212   */\n      tag_169\n      jump\t// in\n    tag_193:\n        /* \"#utility.yul\":2127:2212   */\n      swap2\n      pop\n        /* \"#utility.yul\":1923:2222   */\n      pop\n        /* \"#utility.yul\":1696:2229   */\n      swap3\n      swap2\n      pop\n      pop\n      jump\t// out\n        /* \"#utility.yul\":2235:2564   */\n    tag_23:\n        /* \"#utility.yul\":2294:2300   */\n      0x00\n        /* \"#utility.yul\":2343:2345   */\n      0x20\n        /* \"#utility.yul\":2331:2340   */\n      dup3\n        /* \"#utility.yul\":2322:2329   */\n      dup5\n        /* \"#utility.yul\":2318:2341   */\n      sub\n        /* \"#utility.yul\":2314:2346   */\n      slt\n        /* \"#utility.yul\":2311:2430   */\n      iszero\n      tag_195\n      jumpi\n        /* \"#utility.yul\":2349:2428   */\n      tag_196\n      tag_189\n      jump\t// in\n    tag_196:\n        /* \"#utility.yul\":2311:2430   */\n    tag_195:\n        /* \"#utility.yul\":2469:2470   */\n      0x00\n        /* \"#utility.yul\":2494:2547   */\n      tag_197\n        /* \"#utility.yul\":2539:2546   */\n      dup5\n        /* \"#utility.yul\":2530:2536   */\n      dup3\n        /* \"#utility.yul\":2519:2528   */\n      dup6\n        /* \"#utility.yul\":2515:2537   */\n      add\n        /* \"#utility.yul\":2494:2547   */\n      tag_178\n      jump\t// in\n    tag_197:\n        /* \"#utility.yul\":2484:2547   */\n      swap2\n      pop\n        /* \"#utility.yul\":2440:2557   */\n      pop\n        /* \"#utility.yul\":2235:2564   */\n      swap3\n      swap2\n      pop\n      pop\n      jump\t// out\n        /* \"#utility.yul\":2570:3044   */\n    tag_29:\n        /* \"#utility.yul\":2638:2644   */\n      0x00\n        /* \"#utility.yul\":2646:2652   */\n      dup1\n        /* \"#utility.yul\":2695:2697   */\n      0x40\n        /* \"#utility.yul\":2683:2692   */\n      dup4\n        /* \"#utility.yul\":2674:2681   */\n      dup6\n        /* \"#utility.yul\":2670:2693   */\n      sub\n        /* \"#utility.yul\":2666:2698   */\n      slt\n        /* \"#utility.yul\":2663:2782   */\n      iszero\n      tag_199\n      jumpi\n        /* \"#utility.yul\":2701:2780   */\n      tag_200\n      tag_189\n      jump\t// in\n    tag_200:\n        /* \"#utility.yul\":2663:2782   */\n    tag_199:\n        /* \"#utility.yul\":2821:2822   */\n      0x00\n        /* \"#utility.yul\":2846:2899   */\n      tag_201\n        /* \"#utility.yul\":2891:2898   */\n      dup6\n        /* \"#utility.yul\":2882:2888   */\n      dup3\n        /* \"#utility.yul\":2871:2880   */\n      dup7\n        /* \"#utility.yul\":2867:2889   */\n      add\n        /* \"#utility.yul\":2846:2899   */\n      tag_178\n      jump\t// in\n    tag_201:\n        /* \"#utility.yul\":2836:2899   */\n      swap3\n      pop\n        /* \"#utility.yul\":2792:2909   */\n      pop\n        /* \"#utility.yul\":2948:2950   */\n      0x20\n        /* \"#utility.yul\":2974:3027   */\n      tag_202\n        /* \"#utility.yul\":3019:3026   */\n      dup6\n        /* \"#utility.yul\":3010:3016   */\n      dup3\n        /* \"#utility.yul\":2999:3008   */\n      dup7\n        /* \"#utility.yul\":2995:3017   */\n      add\n        /* \"#utility.yul\":2974:3027   */\n      tag_165\n      jump\t// in\n    tag_202:\n        /* \"#utility.yul\":2964:3027   */\n      swap2\n      pop\n        /* \"#utility.yul\":2919:3037   */\n      pop\n        /* \"#utility.yul\":2570:3044   */\n      swap3\n      pop\n      swap3\n      swap1\n      pop\n      jump\t// out\n        /* \"#utility.yul\":3050:3377   */\n    tag_15:\n        /* \"#utility.yul\":3108:3114   */\n      0x00\n        /* \"#utility.yul\":3157:3159   */\n      0x20\n        /* \"#utility.yul\":3145:3154   */\n      dup3\n        /* \"#utility.yul\":3136:3143   */\n      dup5\n        /* \"#utility.yul\":3132:3155   */\n      sub\n        /* \"#utility.yul\":3128:3160   */\n      slt\n        /* \"#utility.yul\":3125:3244   */\n      iszero\n      tag_204\n      jumpi\n        /* \"#utility.yul\":3163:3242   */\n      tag_205\n      tag_189\n      jump\t// in\n    tag_205:\n        /* \"#utility.yul\":3125:3244   */\n    tag_204:\n        /* \"#utility.yul\":3283:3284   */\n      0x00\n        /* \"#utility.yul\":3308:3360   */\n      tag_206\n        /* \"#utility.yul\":3352:3359   */\n      dup5\n        /* \"#utility.yul\":3343:3349   */\n      dup3\n        /* \"#utility.yul\":3332:3341   */\n      dup6\n        /* \"#utility.yul\":3328:3350   */\n      add\n        /* \"#utility.yul\":3308:3360   */\n      tag_182\n      jump\t// in\n    tag_206:\n        /* \"#utility.yul\":3298:3360   */\n      swap2\n      pop\n        /* \"#utility.yul\":3254:3370   */\n      pop\n        /* \"#utility.yul\":3050:3377   */\n      swap3\n      swap2\n      pop\n      pop\n      jump\t// out\n        /* \"#utility.yul\":3383:3492   */\n    tag_207:\n        /* \"#utility.yul\":3464:3485   */\n      tag_209\n        /* \"#utility.yul\":3479:3484   */\n      dup2\n        /* \"#utility.yul\":3464:3485   */\n      tag_210\n      jump\t// in\n    tag_209:\n        /* \"#utility.yul\":3459:3462   */\n      dup3\n        /* \"#utility.yul\":3452:3486   */\n      mstore\n        /* \"#utility.yul\":3383:3492   */\n      pop\n      pop\n      jump\t// out\n        /* \"#utility.yul\":3498:3616   */\n    tag_211:\n        /* \"#utility.yul\":3585:3609   */\n      tag_213\n        /* \"#utility.yul\":3603:3608   */\n      dup2\n        /* \"#utility.yul\":3585:3609   */\n      tag_214\n      jump\t// in\n    tag_213:\n        /* \"#utility.yul\":3580:3583   */\n      dup3\n        /* \"#utility.yul\":3573:3610   */\n      mstore\n        /* \"#utility.yul\":3498:3616   */\n      pop\n      pop\n      jump\t// out\n        /* \"#utility.yul\":3622:3986   */\n    tag_215:\n        /* \"#utility.yul\":3710:3713   */\n      0x00\n        /* \"#utility.yul\":3738:3777   */\n      tag_217\n        /* \"#utility.yul\":3771:3776   */\n      dup3\n        /* \"#utility.yul\":3738:3777   */\n      tag_218\n      jump\t// in\n    tag_217:\n        /* \"#utility.yul\":3793:3864   */\n      tag_219\n        /* \"#utility.yul\":3857:3863   */\n      dup2\n        /* \"#utility.yul\":3852:3855   */\n      dup6\n        /* \"#utility.yul\":3793:3864   */\n      tag_220\n      jump\t// in\n    tag_219:\n        /* \"#utility.yul\":3786:3864   */\n      swap4\n      pop\n        /* \"#utility.yul\":3873:3925   */\n      tag_221\n        /* \"#utility.yul\":3918:3924   */\n      dup2\n        /* \"#utility.yul\":3913:3916   */\n      dup6\n        /* \"#utility.yul\":3906:3910   */\n      0x20\n        /* \"#utility.yul\":3899:3904   */\n      dup7\n        /* \"#utility.yul\":3895:3911   */\n      add\n        /* \"#utility.yul\":3873:3925   */\n      tag_222\n      jump\t// in\n    tag_221:\n        /* \"#utility.yul\":3950:3979   */\n      tag_223\n        /* \"#utility.yul\":3972:3978   */\n      dup2\n        /* \"#utility.yul\":3950:3979   */\n      tag_224\n      jump\t// in\n    tag_223:\n        /* \"#utility.yul\":3945:3948   */\n      dup5\n        /* \"#utility.yul\":3941:3980   */\n      add\n        /* \"#utility.yul\":3934:3980   */\n      swap2\n      pop\n        /* \"#utility.yul\":3714:3986   */\n      pop\n        /* \"#utility.yul\":3622:3986   */\n      swap3\n      swap2\n      pop\n      pop\n      jump\t// out\n        /* \"#utility.yul\":3992:4369   */\n    tag_225:\n        /* \"#utility.yul\":4098:4101   */\n      0x00\n        /* \"#utility.yul\":4126:4165   */\n      tag_227\n        /* \"#utility.yul\":4159:4164   */\n      dup3\n        /* \"#utility.yul\":4126:4165   */\n      tag_218\n      jump\t// in\n    tag_227:\n        /* \"#utility.yul\":4181:4270   */\n      tag_228\n        /* \"#utility.yul\":4263:4269   */\n      dup2\n        /* \"#utility.yul\":4258:4261   */\n      dup6\n        /* \"#utility.yul\":4181:4270   */\n      tag_229\n      jump\t// in\n    tag_228:\n        /* \"#utility.yul\":4174:4270   */\n      swap4\n      pop\n        /* \"#utility.yul\":4279:4331   */\n      tag_230\n        /* \"#utility.yul\":4324:4330   */\n      dup2\n        /* \"#utility.yul\":4319:4322   */\n      dup6\n        /* \"#utility.yul\":4312:4316   */\n      0x20\n        /* \"#utility.yul\":4305:4310   */\n      dup7\n        /* \"#utility.yul\":4301:4317   */\n      add\n        /* \"#utility.yul\":4279:4331   */\n      tag_222\n      jump\t// in\n    tag_230:\n        /* \"#utility.yul\":4356:4362   */\n      dup1\n        /* \"#utility.yul\":4351:4354   */\n      dup5\n        /* \"#utility.yul\":4347:4363   */\n      add\n        /* \"#utility.yul\":4340:4363   */\n      swap2\n      pop\n        /* \"#utility.yul\":4102:4369   */\n      pop\n        /* \"#utility.yul\":3992:4369   */\n      swap3\n      swap2\n      pop\n      pop\n      jump\t// out\n        /* \"#utility.yul\":4375:4741   */\n    tag_231:\n        /* \"#utility.yul\":4517:4520   */\n      0x00\n        /* \"#utility.yul\":4538:4605   */\n      tag_233\n        /* \"#utility.yul\":4602:4604   */\n      0x20\n        /* \"#utility.yul\":4597:4600   */\n      dup4\n        /* \"#utility.yul\":4538:4605   */\n      tag_220\n      jump\t// in\n    tag_233:\n        /* \"#utility.yul\":4531:4605   */\n      swap2\n      pop\n        /* \"#utility.yul\":4614:4707   */\n      tag_234\n        /* \"#utility.yul\":4703:4706   */\n      dup3\n        /* \"#utility.yul\":4614:4707   */\n      tag_235\n      jump\t// in\n    tag_234:\n        /* \"#utility.yul\":4732:4734   */\n      0x20\n        /* \"#utility.yul\":4727:4730   */\n      dup3\n        /* \"#utility.yul\":4723:4735   */\n      add\n        /* \"#utility.yul\":4716:4735   */\n      swap1\n      pop\n        /* \"#utility.yul\":4375:4741   */\n      swap2\n      swap1\n      pop\n      jump\t// out\n        /* \"#utility.yul\":4747:5113   */\n    tag_236:\n        /* \"#utility.yul\":4889:4892   */\n      0x00\n        /* \"#utility.yul\":4910:4977   */\n      tag_238\n        /* \"#utility.yul\":4974:4976   */\n      0x0c\n        /* \"#utility.yul\":4969:4972   */\n      dup4\n        /* \"#utility.yul\":4910:4977   */\n      tag_220\n      jump\t// in\n    tag_238:\n        /* \"#utility.yul\":4903:4977   */\n      swap2\n      pop\n        /* \"#utility.yul\":4986:5079   */\n      tag_239\n        /* \"#utility.yul\":5075:5078   */\n      dup3\n        /* \"#utility.yul\":4986:5079   */\n      tag_240\n      jump\t// in\n    tag_239:\n        /* \"#utility.yul\":5104:5106   */\n      0x20\n        /* \"#utility.yul\":5099:5102   */\n      dup3\n        /* \"#utility.yul\":5095:5107   */\n      add\n        /* \"#utility.yul\":5088:5107   */\n      swap1\n      pop\n        /* \"#utility.yul\":4747:5113   */\n      swap2\n      swap1\n      pop\n      jump\t// out\n        /* \"#utility.yul\":5119:5485   */\n    tag_241:\n        /* \"#utility.yul\":5261:5264   */\n      0x00\n        /* \"#utility.yul\":5282:5349   */\n      tag_243\n        /* \"#utility.yul\":5346:5348   */\n      0x1c\n        /* \"#utility.yul\":5341:5344   */\n      dup4\n        /* \"#utility.yul\":5282:5349   */\n      tag_220\n      jump\t// in\n    tag_243:\n        /* \"#utility.yul\":5275:5349   */\n      swap2\n      pop\n        /* \"#utility.yul\":5358:5451   */\n      tag_244\n        /* \"#utility.yul\":5447:5450   */\n      dup3\n        /* \"#utility.yul\":5358:5451   */\n      tag_245\n      jump\t// in\n    tag_244:\n        /* \"#utility.yul\":5476:5478   */\n      0x20\n        /* \"#utility.yul\":5471:5474   */\n      dup3\n        /* \"#utility.yul\":5467:5479   */\n      add\n        /* \"#utility.yul\":5460:5479   */\n      swap1\n      pop\n        /* \"#utility.yul\":5119:5485   */\n      swap2\n      swap1\n      pop\n      jump\t// out\n        /* \"#utility.yul\":5491:5893   */\n    tag_246:\n        /* \"#utility.yul\":5651:5654   */\n      0x00\n        /* \"#utility.yul\":5672:5757   */\n      tag_248\n        /* \"#utility.yul\":5754:5756   */\n      0x17\n        /* \"#utility.yul\":5749:5752   */\n      dup4\n        /* \"#utility.yul\":5672:5757   */\n      tag_229\n      jump\t// in\n    tag_248:\n        /* \"#utility.yul\":5665:5757   */\n      swap2\n      pop\n        /* \"#utility.yul\":5766:5859   */\n      tag_249\n        /* \"#utility.yul\":5855:5858   */\n      dup3\n        /* \"#utility.yul\":5766:5859   */\n      tag_250\n      jump\t// in\n    tag_249:\n        /* \"#utility.yul\":5884:5886   */\n      0x17\n        /* \"#utility.yul\":5879:5882   */\n      dup3\n        /* \"#utility.yul\":5875:5887   */\n      add\n        /* \"#utility.yul\":5868:5887   */\n      swap1\n      pop\n        /* \"#utility.yul\":5491:5893   */\n      swap2\n      swap1\n      pop\n      jump\t// out\n        /* \"#utility.yul\":5899:6301   */\n    tag_251:\n        /* \"#utility.yul\":6059:6062   */\n      0x00\n        /* \"#utility.yul\":6080:6165   */\n      tag_253\n        /* \"#utility.yul\":6162:6164   */\n      0x11\n        /* \"#utility.yul\":6157:6160   */\n      dup4\n        /* \"#utility.yul\":6080:6165   */\n      tag_229\n      jump\t// in\n    tag_253:\n        /* \"#utility.yul\":6073:6165   */\n      swap2\n      pop\n        /* \"#utility.yul\":6174:6267   */\n      tag_254\n        /* \"#utility.yul\":6263:6266   */\n      dup3\n        /* \"#utility.yul\":6174:6267   */\n      tag_255\n      jump\t// in\n    tag_254:\n        /* \"#utility.yul\":6292:6294   */\n      0x11\n        /* \"#utility.yul\":6287:6290   */\n      dup3\n        /* \"#utility.yul\":6283:6295   */\n      add\n        /* \"#utility.yul\":6276:6295   */\n      swap1\n      pop\n        /* \"#utility.yul\":5899:6301   */\n      swap2\n      swap1\n      pop\n      jump\t// out\n        /* \"#utility.yul\":6307:6673   */\n    tag_256:\n        /* \"#utility.yul\":6449:6452   */\n      0x00\n        /* \"#utility.yul\":6470:6537   */\n      tag_258\n        /* \"#utility.yul\":6534:6536   */\n      0x2f\n        /* \"#utility.yul\":6529:6532   */\n      dup4\n        /* \"#utility.yul\":6470:6537   */\n      tag_220\n      jump\t// in\n    tag_258:\n        /* \"#utility.yul\":6463:6537   */\n      swap2\n      pop\n        /* \"#utility.yul\":6546:6639   */\n      tag_259\n        /* \"#utility.yul\":6635:6638   */\n      dup3\n        /* \"#utility.yul\":6546:6639   */\n      tag_260\n      jump\t// in\n    tag_259:\n        /* \"#utility.yul\":6664:6666   */\n      0x40\n        /* \"#utility.yul\":6659:6662   */\n      dup3\n        /* \"#utility.yul\":6655:6667   */\n      add\n        /* \"#utility.yul\":6648:6667   */\n      swap1\n      pop\n        /* \"#utility.yul\":6307:6673   */\n      swap2\n      swap1\n      pop\n      jump\t// out\n        /* \"#utility.yul\":6679:7646   */\n    tag_121:\n        /* \"#utility.yul\":7061:7064   */\n      0x00\n        /* \"#utility.yul\":7083:7231   */\n      tag_262\n        /* \"#utility.yul\":7227:7230   */\n      dup3\n        /* \"#utility.yul\":7083:7231   */\n      tag_246\n      jump\t// in\n    tag_262:\n        /* \"#utility.yul\":7076:7231   */\n      swap2\n      pop\n        /* \"#utility.yul\":7248:7343   */\n      tag_263\n        /* \"#utility.yul\":7339:7342   */\n      dup3\n        /* \"#utility.yul\":7330:7336   */\n      dup6\n        /* \"#utility.yul\":7248:7343   */\n      tag_225\n      jump\t// in\n    tag_263:\n        /* \"#utility.yul\":7241:7343   */\n      swap2\n      pop\n        /* \"#utility.yul\":7360:7508   */\n      tag_264\n        /* \"#utility.yul\":7504:7507   */\n      dup3\n        /* \"#utility.yul\":7360:7508   */\n      tag_251\n      jump\t// in\n    tag_264:\n        /* \"#utility.yul\":7353:7508   */\n      swap2\n      pop\n        /* \"#utility.yul\":7525:7620   */\n      tag_265\n        /* \"#utility.yul\":7616:7619   */\n      dup3\n        /* \"#utility.yul\":7607:7613   */\n      dup5\n        /* \"#utility.yul\":7525:7620   */\n      tag_225\n      jump\t// in\n    tag_265:\n        /* \"#utility.yul\":7518:7620   */\n      swap2\n      pop\n        /* \"#utility.yul\":7637:7640   */\n      dup2\n        /* \"#utility.yul\":7630:7640   */\n      swap1\n      pop\n        /* \"#utility.yul\":6679:7646   */\n      swap4\n      swap3\n      pop\n      pop\n      pop\n      jump\t// out\n        /* \"#utility.yul\":7652:7862   */\n    tag_18:\n        /* \"#utility.yul\":7739:7743   */\n      0x00\n        /* \"#utility.yul\":7777:7779   */\n      0x20\n        /* \"#utility.yul\":7766:7775   */\n      dup3\n        /* \"#utility.yul\":7762:7780   */\n      add\n        /* \"#utility.yul\":7754:7780   */\n      swap1\n      pop\n        /* \"#utility.yul\":7790:7855   */\n      tag_267\n        /* \"#utility.yul\":7852:7853   */\n      0x00\n        /* \"#utility.yul\":7841:7850   */\n      dup4\n        /* \"#utility.yul\":7837:7854   */\n      add\n        /* \"#utility.yul\":7828:7834   */\n      dup5\n        /* \"#utility.yul\":7790:7855   */\n      tag_207\n      jump\t// in\n    tag_267:\n        /* \"#utility.yul\":7652:7862   */\n      swap3\n      swap2\n      pop\n      pop\n      jump\t// out\n        /* \"#utility.yul\":7868:8090   */\n    tag_26:\n        /* \"#utility.yul\":7961:7965   */\n      0x00\n        /* \"#utility.yul\":7999:8001   */\n      0x20\n        /* \"#utility.yul\":7988:7997   */\n      dup3\n        /* \"#utility.yul\":7984:8002   */\n      add\n        /* \"#utility.yul\":7976:8002   */\n      swap1\n      pop\n        /* \"#utility.yul\":8012:8083   */\n      tag_269\n        /* \"#utility.yul\":8080:8081   */\n      0x00\n        /* \"#utility.yul\":8069:8078   */\n      dup4\n        /* \"#utility.yul\":8065:8082   */\n      add\n        /* \"#utility.yul\":8056:8062   */\n      dup5\n        /* \"#utility.yul\":8012:8083   */\n      tag_211\n      jump\t// in\n    tag_269:\n        /* \"#utility.yul\":7868:8090   */\n      swap3\n      swap2\n      pop\n      pop\n      jump\t// out\n        /* \"#utility.yul\":8096:8409   */\n    tag_123:\n        /* \"#utility.yul\":8209:8213   */\n      0x00\n        /* \"#utility.yul\":8247:8249   */\n      0x20\n        /* \"#utility.yul\":8236:8245   */\n      dup3\n        /* \"#utility.yul\":8232:8250   */\n      add\n        /* \"#utility.yul\":8224:8250   */\n      swap1\n      pop\n        /* \"#utility.yul\":8296:8305   */\n      dup2\n        /* \"#utility.yul\":8290:8294   */\n      dup2\n        /* \"#utility.yul\":8286:8306   */\n      sub\n        /* \"#utility.yul\":8282:8283   */\n      0x00\n        /* \"#utility.yul\":8271:8280   */\n      dup4\n        /* \"#utility.yul\":8267:8284   */\n      add\n        /* \"#utility.yul\":8260:8307   */\n      mstore\n        /* \"#utility.yul\":8324:8402   */\n      tag_271\n        /* \"#utility.yul\":8397:8401   */\n      dup2\n        /* \"#utility.yul\":8388:8394   */\n      dup5\n        /* \"#utility.yul\":8324:8402   */\n      tag_215\n      jump\t// in\n    tag_271:\n        /* \"#utility.yul\":8316:8402   */\n      swap1\n      pop\n        /* \"#utility.yul\":8096:8409   */\n      swap3\n      swap2\n      pop\n      pop\n      jump\t// out\n        /* \"#utility.yul\":8415:8834   */\n    tag_149:\n        /* \"#utility.yul\":8581:8585   */\n      0x00\n        /* \"#utility.yul\":8619:8621   */\n      0x20\n        /* \"#utility.yul\":8608:8617   */\n      dup3\n        /* \"#utility.yul\":8604:8622   */\n      add\n        /* \"#utility.yul\":8596:8622   */\n      swap1\n      pop\n        /* \"#utility.yul\":8668:8677   */\n      dup2\n        /* \"#utility.yul\":8662:8666   */\n      dup2\n        /* \"#utility.yul\":8658:8678   */\n      sub\n        /* \"#utility.yul\":8654:8655   */\n      0x00\n        /* \"#utility.yul\":8643:8652   */\n      dup4\n        /* \"#utility.yul\":8639:8656   */\n      add\n        /* \"#utility.yul\":8632:8679   */\n      mstore\n        /* \"#utility.yul\":8696:8827   */\n      tag_273\n        /* \"#utility.yul\":8822:8826   */\n      dup2\n        /* \"#utility.yul\":8696:8827   */\n      tag_231\n      jump\t// in\n    tag_273:\n        /* \"#utility.yul\":8688:8827   */\n      swap1\n      pop\n        /* \"#utility.yul\":8415:8834   */\n      swap2\n      swap1\n      pop\n      jump\t// out\n        /* \"#utility.yul\":8840:9259   */\n    tag_68:\n        /* \"#utility.yul\":9006:9010   */\n      0x00\n        /* \"#utility.yul\":9044:9046   */\n      0x20\n        /* \"#utility.yul\":9033:9042   */\n      dup3\n        /* \"#utility.yul\":9029:9047   */\n      add\n        /* \"#utility.yul\":9021:9047   */\n      swap1\n      pop\n        /* \"#utility.yul\":9093:9102   */\n      dup2\n        /* \"#utility.yul\":9087:9091   */\n      dup2\n        /* \"#utility.yul\":9083:9103   */\n      sub\n        /* \"#utility.yul\":9079:9080   */\n      0x00\n        /* \"#utility.yul\":9068:9077   */\n      dup4\n        /* \"#utility.yul\":9064:9081   */\n      add\n        /* \"#utility.yul\":9057:9104   */\n      mstore\n        /* \"#utility.yul\":9121:9252   */\n      tag_275\n        /* \"#utility.yul\":9247:9251   */\n      dup2\n        /* \"#utility.yul\":9121:9252   */\n      tag_236\n      jump\t// in\n    tag_275:\n        /* \"#utility.yul\":9113:9252   */\n      swap1\n      pop\n        /* \"#utility.yul\":8840:9259   */\n      swap2\n      swap1\n      pop\n      jump\t// out\n        /* \"#utility.yul\":9265:9684   */\n    tag_66:\n        /* \"#utility.yul\":9431:9435   */\n      0x00\n        /* \"#utility.yul\":9469:9471   */\n      0x20\n        /* \"#utility.yul\":9458:9467   */\n      dup3\n        /* \"#utility.yul\":9454:9472   */\n      add\n        /* \"#utility.yul\":9446:9472   */\n      swap1\n      pop\n        /* \"#utility.yul\":9518:9527   */\n      dup2\n        /* \"#utility.yul\":9512:9516   */\n      dup2\n        /* \"#utility.yul\":9508:9528   */\n      sub\n        /* \"#utility.yul\":9504:9505   */\n      0x00\n        /* \"#utility.yul\":9493:9502   */\n      dup4\n        /* \"#utility.yul\":9489:9506   */\n      add\n        /* \"#utility.yul\":9482:9529   */\n      mstore\n        /* \"#utility.yul\":9546:9677   */\n      tag_277\n        /* \"#utility.yul\":9672:9676   */\n      dup2\n        /* \"#utility.yul\":9546:9677   */\n      tag_241\n      jump\t// in\n    tag_277:\n        /* \"#utility.yul\":9538:9677   */\n      swap1\n      pop\n        /* \"#utility.yul\":9265:9684   */\n      swap2\n      swap1\n      pop\n      jump\t// out\n        /* \"#utility.yul\":9690:10109   */\n    tag_82:\n        /* \"#utility.yul\":9856:9860   */\n      0x00\n        /* \"#utility.yul\":9894:9896   */\n      0x20\n        /* \"#utility.yul\":9883:9892   */\n      dup3\n        /* \"#utility.yul\":9879:9897   */\n      add\n        /* \"#utility.yul\":9871:9897   */\n      swap1\n      pop\n        /* \"#utility.yul\":9943:9952   */\n      dup2\n        /* \"#utility.yul\":9937:9941   */\n      dup2\n        /* \"#utility.yul\":9933:9953   */\n      sub\n        /* \"#utility.yul\":9929:9930   */\n      0x00\n        /* \"#utility.yul\":9918:9927   */\n      dup4\n        /* \"#utility.yul\":9914:9931   */\n      add\n        /* \"#utility.yul\":9907:9954   */\n      mstore\n        /* \"#utility.yul\":9971:10102   */\n      tag_279\n        /* \"#utility.yul\":10097:10101   */\n      dup2\n        /* \"#utility.yul\":9971:10102   */\n      tag_256\n      jump\t// in\n    tag_279:\n        /* \"#utility.yul\":9963:10102   */\n      swap1\n      pop\n        /* \"#utility.yul\":9690:10109   */\n      swap2\n      swap1\n      pop\n      jump\t// out\n        /* \"#utility.yul\":10115:10244   */\n    tag_156:\n        /* \"#utility.yul\":10149:10155   */\n      0x00\n        /* \"#utility.yul\":10176:10196   */\n      tag_281\n      tag_282\n      jump\t// in\n    tag_281:\n        /* \"#utility.yul\":10166:10196   */\n      swap1\n      pop\n        /* \"#utility.yul\":10205:10238   */\n      tag_283\n        /* \"#utility.yul\":10233:10237   */\n      dup3\n        /* \"#utility.yul\":10225:10231   */\n      dup3\n        /* \"#utility.yul\":10205:10238   */\n      tag_284\n      jump\t// in\n    tag_283:\n        /* \"#utility.yul\":10115:10244   */\n      swap2\n      swap1\n      pop\n      jump\t// out\n        /* \"#utility.yul\":10250:10325   */\n    tag_282:\n        /* \"#utility.yul\":10283:10289   */\n      0x00\n        /* \"#utility.yul\":10316:10318   */\n      0x40\n        /* \"#utility.yul\":10310:10319   */\n      mload\n        /* \"#utility.yul\":10300:10319   */\n      swap1\n      pop\n        /* \"#utility.yul\":10250:10325   */\n      swap1\n      jump\t// out\n        /* \"#utility.yul\":10331:10639   */\n    tag_155:\n        /* \"#utility.yul\":10405:10409   */\n      0x00\n        /* \"#utility.yul\":10495:10513   */\n      0xffffffffffffffff\n        /* \"#utility.yul\":10487:10493   */\n      dup3\n        /* \"#utility.yul\":10484:10514   */\n      gt\n        /* \"#utility.yul\":10481:10537   */\n      iszero\n      tag_287\n      jumpi\n        /* \"#utility.yul\":10517:10535   */\n      tag_288\n      tag_56\n      jump\t// in\n    tag_288:\n        /* \"#utility.yul\":10481:10537   */\n    tag_287:\n        /* \"#utility.yul\":10567:10571   */\n      0x20\n        /* \"#utility.yul\":10559:10565   */\n      dup3\n        /* \"#utility.yul\":10555:10572   */\n      mul\n        /* \"#utility.yul\":10547:10572   */\n      swap1\n      pop\n        /* \"#utility.yul\":10627:10631   */\n      0x20\n        /* \"#utility.yul\":10621:10625   */\n      dup2\n        /* \"#utility.yul\":10617:10632   */\n      add\n        /* \"#utility.yul\":10609:10632   */\n      swap1\n      pop\n        /* \"#utility.yul\":10331:10639   */\n      swap2\n      swap1\n      pop\n      jump\t// out\n        /* \"#utility.yul\":10645:10744   */\n    tag_218:\n        /* \"#utility.yul\":10697:10703   */\n      0x00\n        /* \"#utility.yul\":10731:10736   */\n      dup2\n        /* \"#utility.yul\":10725:10737   */\n      mload\n        /* \"#utility.yul\":10715:10737   */\n      swap1\n      pop\n        /* \"#utility.yul\":10645:10744   */\n      swap2\n      swap1\n      pop\n      jump\t// out\n        /* \"#utility.yul\":10750:10919   */\n    tag_220:\n        /* \"#utility.yul\":10834:10845   */\n      0x00\n        /* \"#utility.yul\":10868:10874   */\n      dup3\n        /* \"#utility.yul\":10863:10866   */\n      dup3\n        /* \"#utility.yul\":10856:10875   */\n      mstore\n        /* \"#utility.yul\":10908:10912   */\n      0x20\n        /* \"#utility.yul\":10903:10906   */\n      dup3\n        /* \"#utility.yul\":10899:10913   */\n      add\n        /* \"#utility.yul\":10884:10913   */\n      swap1\n      pop\n        /* \"#utility.yul\":10750:10919   */\n      swap3\n      swap2\n      pop\n      pop\n      jump\t// out\n        /* \"#utility.yul\":10925:11073   */\n    tag_229:\n        /* \"#utility.yul\":11027:11038   */\n      0x00\n        /* \"#utility.yul\":11064:11067   */\n      dup2\n        /* \"#utility.yul\":11049:11067   */\n      swap1\n      pop\n        /* \"#utility.yul\":10925:11073   */\n      swap3\n      swap2\n      pop\n      pop\n      jump\t// out\n        /* \"#utility.yul\":11079:11384   */\n    tag_128:\n        /* \"#utility.yul\":11119:11122   */\n      0x00\n        /* \"#utility.yul\":11138:11158   */\n      tag_293\n        /* \"#utility.yul\":11156:11157   */\n      dup3\n        /* \"#utility.yul\":11138:11158   */\n      tag_294\n      jump\t// in\n    tag_293:\n        /* \"#utility.yul\":11133:11158   */\n      swap2\n      pop\n        /* \"#utility.yul\":11172:11192   */\n      tag_295\n        /* \"#utility.yul\":11190:11191   */\n      dup4\n        /* \"#utility.yul\":11172:11192   */\n      tag_294\n      jump\t// in\n    tag_295:\n        /* \"#utility.yul\":11167:11192   */\n      swap3\n      pop\n        /* \"#utility.yul\":11326:11327   */\n      dup3\n        /* \"#utility.yul\":11258:11324   */\n      0xffffffffffffffffffffffffffffffffffffffffffffffffffffffffffffffff\n        /* \"#utility.yul\":11254:11328   */\n      sub\n        /* \"#utility.yul\":11251:11252   */\n      dup3\n        /* \"#utility.yul\":11248:11329   */\n      gt\n        /* \"#utility.yul\":11245:11352   */\n      iszero\n      tag_296\n      jumpi\n        /* \"#utility.yul\":11332:11350   */\n      tag_297\n      tag_298\n      jump\t// in\n    tag_297:\n        /* \"#utility.yul\":11245:11352   */\n    tag_296:\n        /* \"#utility.yul\":11376:11377   */\n      dup3\n        /* \"#utility.yul\":11373:11374   */\n      dup3\n        /* \"#utility.yul\":11369:11378   */\n      add\n        /* \"#utility.yul\":11362:11378   */\n      swap1\n      pop\n        /* \"#utility.yul\":11079:11384   */\n      swap3\n      swap2\n      pop\n      pop\n      jump\t// out\n        /* \"#utility.yul\":11390:11738   */\n    tag_126:\n        /* \"#utility.yul\":11430:11437   */\n      0x00\n        /* \"#utility.yul\":11453:11473   */\n      tag_300\n        /* \"#utility.yul\":11471:11472   */\n      dup3\n        /* \"#utility.yul\":11453:11473   */\n      tag_294\n      jump\t// in\n    tag_300:\n        /* \"#utility.yul\":11448:11473   */\n      swap2\n      pop\n        /* \"#utility.yul\":11487:11507   */\n      tag_301\n        /* \"#utility.yul\":11505:11506   */\n      dup4\n        /* \"#utility.yul\":11487:11507   */\n      tag_294\n      jump\t// in\n    tag_301:\n        /* \"#utility.yul\":11482:11507   */\n      swap3\n      pop\n        /* \"#utility.yul\":11675:11676   */\n      dup2\n        /* \"#utility.yul\":11607:11673   */\n      0xffffffffffffffffffffffffffffffffffffffffffffffffffffffffffffffff\n        /* \"#utility.yul\":11603:11677   */\n      div\n        /* \"#utility.yul\":11600:11601   */\n      dup4\n        /* \"#utility.yul\":11597:11678   */\n      gt\n        /* \"#utility.yul\":11592:11593   */\n      dup3\n        /* \"#utility.yul\":11585:11594   */\n      iszero\n        /* \"#utility.yul\":11578:11595   */\n      iszero\n        /* \"#utility.yul\":11574:11679   */\n      and\n        /* \"#utility.yul\":11571:11702   */\n      iszero\n      tag_302\n      jumpi\n        /* \"#utility.yul\":11682:11700   */\n      tag_303\n      tag_298\n      jump\t// in\n    tag_303:\n        /* \"#utility.yul\":11571:11702   */\n    tag_302:\n        /* \"#utility.yul\":11730:11731   */\n      dup3\n        /* \"#utility.yul\":11727:11728   */\n      dup3\n        /* \"#utility.yul\":11723:11732   */\n      mul\n        /* \"#utility.yul\":11712:11732   */\n      swap1\n      pop\n        /* \"#utility.yul\":11390:11738   */\n      swap3\n      swap2\n      pop\n      pop\n      jump\t// out\n        /* \"#utility.yul\":11744:11840   */\n    tag_304:\n        /* \"#utility.yul\":11781:11788   */\n      0x00\n        /* \"#utility.yul\":11810:11834   */\n      tag_306\n        /* \"#utility.yul\":11828:11833   */\n      dup3\n        /* \"#utility.yul\":11810:11834   */\n      tag_307\n      jump\t// in\n    tag_306:\n        /* \"#utility.yul\":11799:11834   */\n      swap1\n      pop\n        /* \"#utility.yul\":11744:11840   */\n      swap2\n      swap1\n      pop\n      jump\t// out\n        /* \"#utility.yul\":11846:11936   */\n    tag_210:\n        /* \"#utility.yul\":11880:11887   */\n      0x00\n        /* \"#utility.yul\":11923:11928   */\n      dup2\n        /* \"#utility.yul\":11916:11929   */\n      iszero\n        /* \"#utility.yul\":11909:11930   */\n      iszero\n        /* \"#utility.yul\":11898:11930   */\n      swap1\n      pop\n        /* \"#utility.yul\":11846:11936   */\n      swap2\n      swap1\n      pop\n      jump\t// out\n        /* \"#utility.yul\":11942:12019   */\n    tag_214:\n        /* \"#utility.yul\":11979:11986   */\n      0x00\n        /* \"#utility.yul\":12008:12013   */\n      dup2\n        /* \"#utility.yul\":11997:12013   */\n      swap1\n      pop\n        /* \"#utility.yul\":11942:12019   */\n      swap2\n      swap1\n      pop\n      jump\t// out\n        /* \"#utility.yul\":12025:12174   */\n    tag_310:\n        /* \"#utility.yul\":12061:12068   */\n      0x00\n        /* \"#utility.yul\":12101:12167   */\n      0xffffffff00000000000000000000000000000000000000000000000000000000\n        /* \"#utility.yul\":12094:12099   */\n      dup3\n        /* \"#utility.yul\":12090:12168   */\n      and\n        /* \"#utility.yul\":12079:12168   */\n      swap1\n      pop\n        /* \"#utility.yul\":12025:12174   */\n      swap2\n      swap1\n      pop\n      jump\t// out\n        /* \"#utility.yul\":12180:12306   */\n    tag_307:\n        /* \"#utility.yul\":12217:12224   */\n      0x00\n        /* \"#utility.yul\":12257:12299   */\n      0xffffffffffffffffffffffffffffffffffffffff\n        /* \"#utility.yul\":12250:12255   */\n      dup3\n        /* \"#utility.yul\":12246:12300   */\n      and\n        /* \"#utility.yul\":12235:12300   */\n      swap1\n      pop\n        /* \"#utility.yul\":12180:12306   */\n      swap2\n      swap1\n      pop\n      jump\t// out\n        /* \"#utility.yul\":12312:12389   */\n    tag_294:\n        /* \"#utility.yul\":12349:12356   */\n      0x00\n        /* \"#utility.yul\":12378:12383   */\n      dup2\n        /* \"#utility.yul\":12367:12383   */\n      swap1\n      pop\n        /* \"#utility.yul\":12312:12389   */\n      swap2\n      swap1\n      pop\n      jump\t// out\n        /* \"#utility.yul\":12395:12702   */\n    tag_222:\n        /* \"#utility.yul\":12463:12464   */\n      0x00\n        /* \"#utility.yul\":12473:12586   */\n    tag_315:\n        /* \"#utility.yul\":12487:12493   */\n      dup4\n        /* \"#utility.yul\":12484:12485   */\n      dup2\n        /* \"#utility.yul\":12481:12494   */\n      lt\n        /* \"#utility.yul\":12473:12586   */\n      iszero\n      tag_317\n      jumpi\n        /* \"#utility.yul\":12572:12573   */\n      dup1\n        /* \"#utility.yul\":12567:12570   */\n      dup3\n        /* \"#utility.yul\":12563:12574   */\n      add\n        /* \"#utility.yul\":12557:12575   */\n      mload\n        /* \"#utility.yul\":12553:12554   */\n      dup2\n        /* \"#utility.yul\":12548:12551   */\n      dup5\n        /* \"#utility.yul\":12544:12555   */\n      add\n        /* \"#utility.yul\":12537:12576   */\n      mstore\n        /* \"#utility.yul\":12509:12511   */\n      0x20\n        /* \"#utility.yul\":12506:12507   */\n      dup2\n        /* \"#utility.yul\":12502:12512   */\n      add\n        /* \"#utility.yul\":12497:12512   */\n      swap1\n      pop\n        /* \"#utility.yul\":12473:12586   */\n      jump(tag_315)\n    tag_317:\n        /* \"#utility.yul\":12604:12610   */\n      dup4\n        /* \"#utility.yul\":12601:12602   */\n      dup2\n        /* \"#utility.yul\":12598:12611   */\n      gt\n        /* \"#utility.yul\":12595:12696   */\n      iszero\n      tag_318\n      jumpi\n        /* \"#utility.yul\":12684:12685   */\n      0x00\n        /* \"#utility.yul\":12675:12681   */\n      dup5\n        /* \"#utility.yul\":12670:12673   */\n      dup5\n        /* \"#utility.yul\":12666:12682   */\n      add\n        /* \"#utility.yul\":12659:12686   */\n      mstore\n        /* \"#utility.yul\":12595:12696   */\n    tag_318:\n        /* \"#utility.yul\":12444:12702   */\n      pop\n        /* \"#utility.yul\":12395:12702   */\n      pop\n      pop\n      pop\n      jump\t// out\n        /* \"#utility.yul\":12708:12879   */\n    tag_146:\n        /* \"#utility.yul\":12747:12750   */\n      0x00\n        /* \"#utility.yul\":12770:12794   */\n      tag_320\n        /* \"#utility.yul\":12788:12793   */\n      dup3\n        /* \"#utility.yul\":12770:12794   */\n      tag_294\n      jump\t// in\n    tag_320:\n        /* \"#utility.yul\":12761:12794   */\n      swap2\n      pop\n        /* \"#utility.yul\":12816:12820   */\n      0x00\n        /* \"#utility.yul\":12809:12814   */\n      dup3\n        /* \"#utility.yul\":12806:12821   */\n      eq\n        /* \"#utility.yul\":12803:12844   */\n      iszero\n      tag_321\n      jumpi\n        /* \"#utility.yul\":12824:12842   */\n      tag_322\n      tag_298\n      jump\t// in\n    tag_322:\n        /* \"#utility.yul\":12803:12844   */\n    tag_321:\n        /* \"#utility.yul\":12871:12872   */\n      0x01\n        /* \"#utility.yul\":12864:12869   */\n      dup3\n        /* \"#utility.yul\":12860:12873   */\n      sub\n        /* \"#utility.yul\":12853:12873   */\n      swap1\n      pop\n        /* \"#utility.yul\":12708:12879   */\n      swap2\n      swap1\n      pop\n      jump\t// out\n        /* \"#utility.yul\":12885:13166   */\n    tag_284:\n        /* \"#utility.yul\":12968:12995   */\n      tag_324\n        /* \"#utility.yul\":12990:12994   */\n      dup3\n        /* \"#utility.yul\":12968:12995   */\n      tag_224\n      jump\t// in\n    tag_324:\n        /* \"#utility.yul\":12960:12966   */\n      dup2\n        /* \"#utility.yul\":12956:12996   */\n      add\n        /* \"#utility.yul\":13098:13104   */\n      dup2\n        /* \"#utility.yul\":13086:13096   */\n      dup2\n        /* \"#utility.yul\":13083:13105   */\n      lt\n        /* \"#utility.yul\":13062:13080   */\n      0xffffffffffffffff\n        /* \"#utility.yul\":13050:13060   */\n      dup3\n        /* \"#utility.yul\":13047:13081   */\n      gt\n        /* \"#utility.yul\":13044:13106   */\n      or\n        /* \"#utility.yul\":13041:13129   */\n      iszero\n      tag_325\n      jumpi\n        /* \"#utility.yul\":13109:13127   */\n      tag_326\n      tag_56\n      jump\t// in\n    tag_326:\n        /* \"#utility.yul\":13041:13129   */\n    tag_325:\n        /* \"#utility.yul\":13149:13159   */\n      dup1\n        /* \"#utility.yul\":13145:13147   */\n      0x40\n        /* \"#utility.yul\":13138:13160   */\n      mstore\n        /* \"#utility.yul\":12928:13166   */\n      pop\n        /* \"#utility.yul\":12885:13166   */\n      pop\n      pop\n      jump\t// out\n        /* \"#utility.yul\":13172:13405   */\n    tag_94:\n        /* \"#utility.yul\":13211:13214   */\n      0x00\n        /* \"#utility.yul\":13234:13258   */\n      tag_328\n        /* \"#utility.yul\":13252:13257   */\n      dup3\n        /* \"#utility.yul\":13234:13258   */\n      tag_294\n      jump\t// in\n    tag_328:\n        /* \"#utility.yul\":13225:13258   */\n      swap2\n      pop\n        /* \"#utility.yul\":13280:13346   */\n      0xffffffffffffffffffffffffffffffffffffffffffffffffffffffffffffffff\n        /* \"#utility.yul\":13273:13278   */\n      dup3\n        /* \"#utility.yul\":13270:13347   */\n      eq\n        /* \"#utility.yul\":13267:13370   */\n      iszero\n      tag_329\n      jumpi\n        /* \"#utility.yul\":13350:13368   */\n      tag_330\n      tag_298\n      jump\t// in\n    tag_330:\n        /* \"#utility.yul\":13267:13370   */\n    tag_329:\n        /* \"#utility.yul\":13397:13398   */\n      0x01\n        /* \"#utility.yul\":13390:13395   */\n      dup3\n        /* \"#utility.yul\":13386:13399   */\n      add\n        /* \"#utility.yul\":13379:13399   */\n      swap1\n      pop\n        /* \"#utility.yul\":13172:13405   */\n      swap2\n      swap1\n      pop\n      jump\t// out\n        /* \"#utility.yul\":13411:13591   */\n    tag_298:\n        /* \"#utility.yul\":13459:13536   */\n      0x4e487b7100000000000000000000000000000000000000000000000000000000\n        /* \"#utility.yul\":13456:13457   */\n      0x00\n        /* \"#utility.yul\":13449:13537   */\n      mstore\n        /* \"#utility.yul\":13556:13560   */\n      0x11\n        /* \"#utility.yul\":13553:13554   */\n      0x04\n        /* \"#utility.yul\":13546:13561   */\n      mstore\n        /* \"#utility.yul\":13580:13584   */\n      0x24\n        /* \"#utility.yul\":13577:13578   */\n      0x00\n        /* \"#utility.yul\":13570:13585   */\n      revert\n        /* \"#utility.yul\":13597:13777   */\n    tag_60:\n        /* \"#utility.yul\":13645:13722   */\n      0x4e487b7100000000000000000000000000000000000000000000000000000000\n        /* \"#utility.yul\":13642:13643   */\n      0x00\n        /* \"#utility.yul\":13635:13723   */\n      mstore\n        /* \"#utility.yul\":13742:13746   */\n      0x32\n        /* \"#utility.yul\":13739:13740   */\n      0x04\n        /* \"#utility.yul\":13732:13747   */\n      mstore\n        /* \"#utility.yul\":13766:13770   */\n      0x24\n        /* \"#utility.yul\":13763:13764   */\n      0x00\n        /* \"#utility.yul\":13756:13771   */\n      revert\n        /* \"#utility.yul\":13783:13963   */\n    tag_56:\n        /* \"#utility.yul\":13831:13908   */\n      0x4e487b7100000000000000000000000000000000000000000000000000000000\n        /* \"#utility.yul\":13828:13829   */\n      0x00\n        /* \"#utility.yul\":13821:13909   */\n      mstore\n        /* \"#utility.yul\":13928:13932   */\n      0x41\n        /* \"#utility.yul\":13925:13926   */\n      0x04\n        /* \"#utility.yul\":13918:13933   */\n      mstore\n        /* \"#utility.yul\":13952:13956   */\n      0x24\n        /* \"#utility.yul\":13949:13950   */\n      0x00\n        /* \"#utility.yul\":13942:13957   */\n      revert\n        /* \"#utility.yul\":13969:14086   */\n    tag_173:\n        /* \"#utility.yul\":14078:14079   */\n      0x00\n        /* \"#utility.yul\":14075:14076   */\n      dup1\n        /* \"#utility.yul\":14068:14080   */\n      revert\n        /* \"#utility.yul\":14092:14209   */\n    tag_159:\n        /* \"#utility.yul\":14201:14202   */\n      0x00\n        /* \"#utility.yul\":14198:14199   */\n      dup1\n        /* \"#utility.yul\":14191:14203   */\n      revert\n        /* \"#utility.yul\":14215:14332   */\n    tag_192:\n        /* \"#utility.yul\":14324:14325   */\n      0x00\n        /* \"#utility.yul\":14321:14322   */\n      dup1\n        /* \"#utility.yul\":14314:14326   */\n      revert\n        /* \"#utility.yul\":14338:14455   */\n    tag_189:\n        /* \"#utility.yul\":14447:14448   */\n      0x00\n        /* \"#utility.yul\":14444:14445   */\n      dup1\n        /* \"#utility.yul\":14437:14449   */\n      revert\n        /* \"#utility.yul\":14461:14563   */\n    tag_224:\n        /* \"#utility.yul\":14502:14508   */\n      0x00\n        /* \"#utility.yul\":14553:14555   */\n      0x1f\n        /* \"#utility.yul\":14549:14556   */\n      not\n        /* \"#utility.yul\":14544:14546   */\n      0x1f\n        /* \"#utility.yul\":14537:14542   */\n      dup4\n        /* \"#utility.yul\":14533:14547   */\n      add\n        /* \"#utility.yul\":14529:14557   */\n      and\n        /* \"#utility.yul\":14519:14557   */\n      swap1\n      pop\n        /* \"#utility.yul\":14461:14563   */\n      swap2\n      swap1\n      pop\n      jump\t// out\n        /* \"#utility.yul\":14569:14751   */\n    tag_235:\n        /* \"#utility.yul\":14709:14743   */\n      0x537472696e67733a20686578206c656e67746820696e73756666696369656e74\n        /* \"#utility.yul\":14705:14706   */\n      0x00\n        /* \"#utility.yul\":14697:14703   */\n      dup3\n        /* \"#utility.yul\":14693:14707   */\n      add\n        /* \"#utility.yul\":14686:14744   */\n      mstore\n        /* \"#utility.yul\":14569:14751   */\n      pop\n      jump\t// out\n        /* \"#utility.yul\":14757:14919   */\n    tag_240:\n        /* \"#utility.yul\":14897:14911   */\n      0x68656c6c6f20776f726c642e0000000000000000000000000000000000000000\n        /* \"#utility.yul\":14893:14894   */\n      0x00\n        /* \"#utility.yul\":14885:14891   */\n      dup3\n        /* \"#utility.yul\":14881:14895   */\n      add\n        /* \"#utility.yul\":14874:14912   */\n      mstore\n        /* \"#utility.yul\":14757:14919   */\n      pop\n      jump\t// out\n        /* \"#utility.yul\":14925:15103   */\n    tag_245:\n        /* \"#utility.yul\":15065:15095   */\n      0x74686973207065726d697373696f6e206e6f742066726f6d20796f7500000000\n        /* \"#utility.yul\":15061:15062   */\n      0x00\n        /* \"#utility.yul\":15053:15059   */\n      dup3\n        /* \"#utility.yul\":15049:15063   */\n      add\n        /* \"#utility.yul\":15042:15096   */\n      mstore\n        /* \"#utility.yul\":14925:15103   */\n      pop\n      jump\t// out\n        /* \"#utility.yul\":15109:15282   */\n    tag_250:\n        /* \"#utility.yul\":15249:15274   */\n      0x416363657373436f6e74726f6c3a206163636f756e7420000000000000000000\n        /* \"#utility.yul\":15245:15246   */\n      0x00\n        /* \"#utility.yul\":15237:15243   */\n      dup3\n        /* \"#utility.yul\":15233:15247   */\n      add\n        /* \"#utility.yul\":15226:15275   */\n      mstore\n        /* \"#utility.yul\":15109:15282   */\n      pop\n      jump\t// out\n        /* \"#utility.yul\":15288:15455   */\n    tag_255:\n        /* \"#utility.yul\":15428:15447   */\n      0x206973206d697373696e6720726f6c6520000000000000000000000000000000\n        /* \"#utility.yul\":15424:15425   */\n      0x00\n        /* \"#utility.yul\":15416:15422   */\n      dup3\n        /* \"#utility.yul\":15412:15426   */\n      add\n        /* \"#utility.yul\":15405:15448   */\n      mstore\n        /* \"#utility.yul\":15288:15455   */\n      pop\n      jump\t// out\n        /* \"#utility.yul\":15461:15695   */\n    tag_260:\n        /* \"#utility.yul\":15601:15635   */\n      0x416363657373436f6e74726f6c3a2063616e206f6e6c792072656e6f756e6365\n        /* \"#utility.yul\":15597:15598   */\n      0x00\n        /* \"#utility.yul\":15589:15595   */\n      dup3\n        /* \"#utility.yul\":15585:15599   */\n      add\n        /* \"#utility.yul\":15578:15636   */\n      mstore\n        /* \"#utility.yul\":15670:15687   */\n      0x20726f6c657320666f722073656c660000000000000000000000000000000000\n        /* \"#utility.yul\":15665:15667   */\n      0x20\n        /* \"#utility.yul\":15657:15663   */\n      dup3\n        /* \"#utility.yul\":15653:15668   */\n      add\n        /* \"#utility.yul\":15646:15688   */\n      mstore\n        /* \"#utility.yul\":15461:15695   */\n      pop\n      jump\t// out\n        /* \"#utility.yul\":15701:15823   */\n    tag_168:\n        /* \"#utility.yul\":15774:15798   */\n      tag_346\n        /* \"#utility.yul\":15792:15797   */\n      dup2\n        /* \"#utility.yul\":15774:15798   */\n      tag_304\n      jump\t// in\n    tag_346:\n        /* \"#utility.yul\":15767:15772   */\n      dup2\n        /* \"#utility.yul\":15764:15799   */\n      eq\n        /* \"#utility.yul\":15754:15817   */\n      tag_347\n      jumpi\n        /* \"#utility.yul\":15813:15814   */\n      0x00\n        /* \"#utility.yul\":15810:15811   */\n      dup1\n        /* \"#utility.yul\":15803:15815   */\n      revert\n        /* \"#utility.yul\":15754:15817   */\n    tag_347:\n        /* \"#utility.yul\":15701:15823   */\n      pop\n      jump\t// out\n        /* \"#utility.yul\":15829:15945   */\n    tag_177:\n        /* \"#utility.yul\":15899:15920   */\n      tag_349\n        /* \"#utility.yul\":15914:15919   */\n      dup2\n        /* \"#utility.yul\":15899:15920   */\n      tag_210\n      jump\t// in\n    tag_349:\n        /* \"#utility.yul\":15892:15897   */\n      dup2\n        /* \"#utility.yul\":15889:15921   */\n      eq\n        /* \"#utility.yul\":15879:15939   */\n      tag_350\n      jumpi\n        /* \"#utility.yul\":15935:15936   */\n      0x00\n        /* \"#utility.yul\":15932:15933   */\n      dup1\n        /* \"#utility.yul\":15925:15937   */\n      revert\n        /* \"#utility.yul\":15879:15939   */\n    tag_350:\n        /* \"#utility.yul\":15829:15945   */\n      pop\n      jump\t// out\n        /* \"#utility.yul\":15951:16073   */\n    tag_181:\n        /* \"#utility.yul\":16024:16048   */\n      tag_352\n        /* \"#utility.yul\":16042:16047   */\n      dup2\n        /* \"#utility.yul\":16024:16048   */\n      tag_214\n      jump\t// in\n    tag_352:\n        /* \"#utility.yul\":16017:16022   */\n      dup2\n        /* \"#utility.yul\":16014:16049   */\n      eq\n        /* \"#utility.yul\":16004:16067   */\n      tag_353\n      jumpi\n        /* \"#utility.yul\":16063:16064   */\n      0x00\n        /* \"#utility.yul\":16060:16061   */\n      dup1\n        /* \"#utility.yul\":16053:16065   */\n      revert\n        /* \"#utility.yul\":16004:16067   */\n    tag_353:\n        /* \"#utility.yul\":15951:16073   */\n      pop\n      jump\t// out\n        /* \"#utility.yul\":16079:16199   */\n    tag_185:\n        /* \"#utility.yul\":16151:16174   */\n      tag_355\n        /* \"#utility.yul\":16168:16173   */\n      dup2\n        /* \"#utility.yul\":16151:16174   */\n      tag_310\n      jump\t// in\n    tag_355:\n        /* \"#utility.yul\":16144:16149   */\n      dup2\n        /* \"#utility.yul\":16141:16175   */\n      eq\n        /* \"#utility.yul\":16131:16193   */\n      tag_356\n      jumpi\n        /* \"#utility.yul\":16189:16190   */\n      0x00\n        /* \"#utility.yul\":16186:16187   */\n      dup1\n        /* \"#utility.yul\":16179:16191   */\n      revert\n        /* \"#utility.yul\":16131:16193   */\n    tag_356:\n        /* \"#utility.yul\":16079:16199   */\n      pop\n      jump\t// out\n\n    auxdata: 0xa2646970667358221220c58469e08dfc6fdacc8b0d2d5cf7b0b64fabed55b2a9c7ba7025954276100a9764736f6c63430008070033\n}\n",
				"bytecode": {
					"linkReferences": {},
					"object": "608060405234801561001057600080fd5b5061135d806100206000396000f3fe608060405234801561001057600080fd5b50600436106100935760003560e01c806336568abe1161006657806336568abe1461011e57806391d148541461013a578063a217fddf1461016a578063ac5d4f6214610188578063d547741f146101b857610093565b806301ffc9a7146100985780631a41fc38146100c8578063248a9ca3146100d25780632f2ff15d14610102575b600080fd5b6100b260048036038101906100ad9190610be7565b6101d4565b6040516100bf9190610da8565b60405180910390f35b6100d061024e565b005b6100ec60048036038101906100e79190610b7a565b61036c565b6040516100f99190610dc3565b60405180910390f35b61011c60048036038101906101179190610ba7565b61038b565b005b61013860048036038101906101339190610ba7565b6103ac565b005b610154600480360381019061014f9190610ba7565b61042f565b6040516101619190610da8565b60405180910390f35b610172610499565b60405161017f9190610dc3565b60405180910390f35b6101a2600480360381019061019d9190610b31565b6104a0565b6040516101af9190610da8565b60405180910390f35b6101d260048036038101906101cd9190610ba7565b6104fe565b005b60007f7965db0b000000000000000000000000000000000000000000000000000000007bffffffffffffffffffffffffffffffffffffffffffffffffffffffff1916827bffffffffffffffffffffffffffffffffffffffffffffffffffffffff1916148061024757506102468261051f565b5b9050919050565b6000600267ffffffffffffffff81111561026b5761026a61115b565b5b6040519080825280602002602001820160405280156102995781602001602082028036833780820191505090505b5090506001816000815181106102b2576102b161112c565b5b6020026020010190151590811515815250506000816001815181106102da576102d961112c565b5b6020026020010190151590811515815250506102f5816104a0565b610334576040517f08c379a000000000000000000000000000000000000000000000000000000000815260040161032b90610e40565b60405180910390fd5b7f63e9370c5b01ee8896e536f1f2fc902c945d630eb37faf0981fb9146088fc42360405161036190610e20565b60405180910390a150565b6000806000838152602001908152602001600020600101549050919050565b6103948261036c565b61039d81610589565b6103a7838361059d565b505050565b6103b461067d565b73ffffffffffffffffffffffffffffffffffffffff168173ffffffffffffffffffffffffffffffffffffffff1614610421576040517f08c379a000000000000000000000000000000000000000000000000000000000815260040161041890610e60565b60405180910390fd5b61042b8282610685565b5050565b600080600084815260200190815260200160002060000160008373ffffffffffffffffffffffffffffffffffffffff1673ffffffffffffffffffffffffffffffffffffffff16815260200190815260200160002060009054906101000a900460ff16905092915050565b6000801b81565b6000806000905060005b83518110156104f457600115158482815181106104ca576104c961112c565b5b6020026020010151151514156104e357600191506104f4565b806104ed906110b4565b90506104aa565b5080915050919050565b6105078261036c565b61051081610589565b61051a8383610685565b505050565b60007f01ffc9a7000000000000000000000000000000000000000000000000000000007bffffffffffffffffffffffffffffffffffffffffffffffffffffffff1916827bffffffffffffffffffffffffffffffffffffffffffffffffffffffff1916149050919050565b61059a8161059561067d565b610766565b50565b6105a7828261042f565b61067957600160008084815260200190815260200160002060000160008373ffffffffffffffffffffffffffffffffffffffff1673ffffffffffffffffffffffffffffffffffffffff16815260200190815260200160002060006101000a81548160ff02191690831515021790555061061e61067d565b73ffffffffffffffffffffffffffffffffffffffff168173ffffffffffffffffffffffffffffffffffffffff16837f2f8788117e7eff1d82e926ec794901d17c78024a50270940304540a733656f0d60405160405180910390a45b5050565b600033905090565b61068f828261042f565b1561076257600080600084815260200190815260200160002060000160008373ffffffffffffffffffffffffffffffffffffffff1673ffffffffffffffffffffffffffffffffffffffff16815260200190815260200160002060006101000a81548160ff02191690831515021790555061070761067d565b73ffffffffffffffffffffffffffffffffffffffff168173ffffffffffffffffffffffffffffffffffffffff16837ff6391f5c32d9c69d2a47ea670b442974b53935d1edc7fd64eb21e047a839171b60405160405180910390a45b5050565b610770828261042f565b6107ff576107958173ffffffffffffffffffffffffffffffffffffffff166014610803565b6107a38360001c6020610803565b6040516020016107b4929190610d6e565b6040516020818303038152906040526040517f08c379a00000000000000000000000000000000000000000000000000000000081526004016107f69190610dde565b60405180910390fd5b5050565b6060600060028360026108169190610f4e565b6108209190610ef8565b67ffffffffffffffff8111156108395761083861115b565b5b6040519080825280601f01601f19166020018201604052801561086b5781602001600182028036833780820191505090505b5090507f3000000000000000000000000000000000000000000000000000000000000000816000815181106108a3576108a261112c565b5b60200101907effffffffffffffffffffffffffffffffffffffffffffffffffffffffffffff1916908160001a9053507f7800000000000000000000000000000000000000000000000000000000000000816001815181106109075761090661112c565b5b60200101907effffffffffffffffffffffffffffffffffffffffffffffffffffffffffffff1916908160001a905350600060018460026109479190610f4e565b6109519190610ef8565b90505b60018111156109f1577f3031323334353637383961626364656600000000000000000000000000000000600f8616601081106109935761099261112c565b5b1a60f81b8282815181106109aa576109a961112c565b5b60200101907effffffffffffffffffffffffffffffffffffffffffffffffffffffffffffff1916908160001a905350600485901c9450806109ea90611059565b9050610954565b5060008414610a35576040517f08c379a0000000000000000000000000000000000000000000000000000000008152600401610a2c90610e00565b60405180910390fd5b8091505092915050565b6000610a52610a4d84610ea5565b610e80565b90508083825260208201905082856020860282011115610a7557610a7461118f565b5b60005b85811015610aa55781610a8b8882610af2565b845260208401935060208301925050600181019050610a78565b5050509392505050565b600081359050610abe816112cb565b92915050565b600082601f830112610ad957610ad861118a565b5b8135610ae9848260208601610a3f565b91505092915050565b600081359050610b01816112e2565b92915050565b600081359050610b16816112f9565b92915050565b600081359050610b2b81611310565b92915050565b600060208284031215610b4757610b46611199565b5b600082013567ffffffffffffffff811115610b6557610b64611194565b5b610b7184828501610ac4565b91505092915050565b600060208284031215610b9057610b8f611199565b5b6000610b9e84828501610b07565b91505092915050565b60008060408385031215610bbe57610bbd611199565b5b6000610bcc85828601610b07565b9250506020610bdd85828601610aaf565b9150509250929050565b600060208284031215610bfd57610bfc611199565b5b6000610c0b84828501610b1c565b91505092915050565b610c1d81610fba565b82525050565b610c2c81610fc6565b82525050565b6000610c3d82610ed1565b610c478185610edc565b9350610c57818560208601611026565b610c608161119e565b840191505092915050565b6000610c7682610ed1565b610c808185610eed565b9350610c90818560208601611026565b80840191505092915050565b6000610ca9602083610edc565b9150610cb4826111af565b602082019050919050565b6000610ccc600c83610edc565b9150610cd7826111d8565b602082019050919050565b6000610cef601c83610edc565b9150610cfa82611201565b602082019050919050565b6000610d12601783610eed565b9150610d1d8261122a565b601782019050919050565b6000610d35601183610eed565b9150610d4082611253565b601182019050919050565b6000610d58602f83610edc565b9150610d638261127c565b604082019050919050565b6000610d7982610d05565b9150610d858285610c6b565b9150610d9082610d28565b9150610d9c8284610c6b565b91508190509392505050565b6000602082019050610dbd6000830184610c14565b92915050565b6000602082019050610dd86000830184610c23565b92915050565b60006020820190508181036000830152610df88184610c32565b905092915050565b60006020820190508181036000830152610e1981610c9c565b9050919050565b60006020820190508181036000830152610e3981610cbf565b9050919050565b60006020820190508181036000830152610e5981610ce2565b9050919050565b60006020820190508181036000830152610e7981610d4b565b9050919050565b6000610e8a610e9b565b9050610e968282611083565b919050565b6000604051905090565b600067ffffffffffffffff821115610ec057610ebf61115b565b5b602082029050602081019050919050565b600081519050919050565b600082825260208201905092915050565b600081905092915050565b6000610f038261101c565b9150610f0e8361101c565b9250827fffffffffffffffffffffffffffffffffffffffffffffffffffffffffffffffff03821115610f4357610f426110fd565b5b828201905092915050565b6000610f598261101c565b9150610f648361101c565b9250817fffffffffffffffffffffffffffffffffffffffffffffffffffffffffffffffff0483118215151615610f9d57610f9c6110fd565b5b828202905092915050565b6000610fb382610ffc565b9050919050565b60008115159050919050565b6000819050919050565b60007fffffffff0000000000000000000000000000000000000000000000000000000082169050919050565b600073ffffffffffffffffffffffffffffffffffffffff82169050919050565b6000819050919050565b60005b83811015611044578082015181840152602081019050611029565b83811115611053576000848401525b50505050565b60006110648261101c565b91506000821415611078576110776110fd565b5b600182039050919050565b61108c8261119e565b810181811067ffffffffffffffff821117156110ab576110aa61115b565b5b80604052505050565b60006110bf8261101c565b91507fffffffffffffffffffffffffffffffffffffffffffffffffffffffffffffffff8214156110f2576110f16110fd565b5b600182019050919050565b7f4e487b7100000000000000000000000000000000000000000000000000000000600052601160045260246000fd5b7f4e487b7100000000000000000000000000000000000000000000000000000000600052603260045260246000fd5b7f4e487b7100000000000000000000000000000000000000000000000000000000600052604160045260246000fd5b600080fd5b600080fd5b600080fd5b600080fd5b6000601f19601f8301169050919050565b7f537472696e67733a20686578206c656e67746820696e73756666696369656e74600082015250565b7f68656c6c6f20776f726c642e0000000000000000000000000000000000000000600082015250565b7f74686973207065726d697373696f6e206e6f742066726f6d20796f7500000000600082015250565b7f416363657373436f6e74726f6c3a206163636f756e7420000000000000000000600082015250565b7f206973206d697373696e6720726f6c6520000000000000000000000000000000600082015250565b7f416363657373436f6e74726f6c3a2063616e206f6e6c792072656e6f756e636560008201527f20726f6c657320666f722073656c660000000000000000000000000000000000602082015250565b6112d481610fa8565b81146112df57600080fd5b50565b6112eb81610fba565b81146112f657600080fd5b50565b61130281610fc6565b811461130d57600080fd5b50565b61131981610fd0565b811461132457600080fd5b5056fea2646970667358221220c58469e08dfc6fdacc8b0d2d5cf7b0b64fabed55b2a9c7ba7025954276100a9764736f6c63430008070033",
					"opcodes": "PUSH1 0x80 PUSH1 0x40 MSTORE CALLVALUE DUP1 ISZERO PUSH2 0x10 JUMPI PUSH1 0x0 DUP1 REVERT JUMPDEST POP PUSH2 0x135D DUP1 PUSH2 0x20 PUSH1 0x0 CODECOPY PUSH1 0x0 RETURN INVALID PUSH1 0x80 PUSH1 0x40 MSTORE CALLVALUE DUP1 ISZERO PUSH2 0x10 JUMPI PUSH1 0x0 DUP1 REVERT JUMPDEST POP PUSH1 0x4 CALLDATASIZE LT PUSH2 0x93 JUMPI PUSH1 0x0 CALLDATALOAD PUSH1 0xE0 SHR DUP1 PUSH4 0x36568ABE GT PUSH2 0x66 JUMPI DUP1 PUSH4 0x36568ABE EQ PUSH2 0x11E JUMPI DUP1 PUSH4 0x91D14854 EQ PUSH2 0x13A JUMPI DUP1 PUSH4 0xA217FDDF EQ PUSH2 0x16A JUMPI DUP1 PUSH4 0xAC5D4F62 EQ PUSH2 0x188 JUMPI DUP1 PUSH4 0xD547741F EQ PUSH2 0x1B8 JUMPI PUSH2 0x93 JUMP JUMPDEST DUP1 PUSH4 0x1FFC9A7 EQ PUSH2 0x98 JUMPI DUP1 PUSH4 0x1A41FC38 EQ PUSH2 0xC8 JUMPI DUP1 PUSH4 0x248A9CA3 EQ PUSH2 0xD2 JUMPI DUP1 PUSH4 0x2F2FF15D EQ PUSH2 0x102 JUMPI JUMPDEST PUSH1 0x0 DUP1 REVERT JUMPDEST PUSH2 0xB2 PUSH1 0x4 DUP1 CALLDATASIZE SUB DUP2 ADD SWAP1 PUSH2 0xAD SWAP2 SWAP1 PUSH2 0xBE7 JUMP JUMPDEST PUSH2 0x1D4 JUMP JUMPDEST PUSH1 0x40 MLOAD PUSH2 0xBF SWAP2 SWAP1 PUSH2 0xDA8 JUMP JUMPDEST PUSH1 0x40 MLOAD DUP1 SWAP2 SUB SWAP1 RETURN JUMPDEST PUSH2 0xD0 PUSH2 0x24E JUMP JUMPDEST STOP JUMPDEST PUSH2 0xEC PUSH1 0x4 DUP1 CALLDATASIZE SUB DUP2 ADD SWAP1 PUSH2 0xE7 SWAP2 SWAP1 PUSH2 0xB7A JUMP JUMPDEST PUSH2 0x36C JUMP JUMPDEST PUSH1 0x40 MLOAD PUSH2 0xF9 SWAP2 SWAP1 PUSH2 0xDC3 JUMP JUMPDEST PUSH1 0x40 MLOAD DUP1 SWAP2 SUB SWAP1 RETURN JUMPDEST PUSH2 0x11C PUSH1 0x4 DUP1 CALLDATASIZE SUB DUP2 ADD SWAP1 PUSH2 0x117 SWAP2 SWAP1 PUSH2 0xBA7 JUMP JUMPDEST PUSH2 0x38B JUMP JUMPDEST STOP JUMPDEST PUSH2 0x138 PUSH1 0x4 DUP1 CALLDATASIZE SUB DUP2 ADD SWAP1 PUSH2 0x133 SWAP2 SWAP1 PUSH2 0xBA7 JUMP JUMPDEST PUSH2 0x3AC JUMP JUMPDEST STOP JUMPDEST PUSH2 0x154 PUSH1 0x4 DUP1 CALLDATASIZE SUB DUP2 ADD SWAP1 PUSH2 0x14F SWAP2 SWAP1 PUSH2 0xBA7 JUMP JUMPDEST PUSH2 0x42F JUMP JUMPDEST PUSH1 0x40 MLOAD PUSH2 0x161 SWAP2 SWAP1 PUSH2 0xDA8 JUMP JUMPDEST PUSH1 0x40 MLOAD DUP1 SWAP2 SUB SWAP1 RETURN JUMPDEST PUSH2 0x172 PUSH2 0x499 JUMP JUMPDEST PUSH1 0x40 MLOAD PUSH2 0x17F SWAP2 SWAP1 PUSH2 0xDC3 JUMP JUMPDEST PUSH1 0x40 MLOAD DUP1 SWAP2 SUB SWAP1 RETURN JUMPDEST PUSH2 0x1A2 PUSH1 0x4 DUP1 CALLDATASIZE SUB DUP2 ADD SWAP1 PUSH2 0x19D SWAP2 SWAP1 PUSH2 0xB31 JUMP JUMPDEST PUSH2 0x4A0 JUMP JUMPDEST PUSH1 0x40 MLOAD PUSH2 0x1AF SWAP2 SWAP1 PUSH2 0xDA8 JUMP JUMPDEST PUSH1 0x40 MLOAD DUP1 SWAP2 SUB SWAP1 RETURN JUMPDEST PUSH2 0x1D2 PUSH1 0x4 DUP1 CALLDATASIZE SUB DUP2 ADD SWAP1 PUSH2 0x1CD SWAP2 SWAP1 PUSH2 0xBA7 JUMP JUMPDEST PUSH2 0x4FE JUMP JUMPDEST STOP JUMPDEST PUSH1 0x0 PUSH32 0x7965DB0B00000000000000000000000000000000000000000000000000000000 PUSH28 0xFFFFFFFFFFFFFFFFFFFFFFFFFFFFFFFFFFFFFFFFFFFFFFFFFFFFFFFF NOT AND DUP3 PUSH28 0xFFFFFFFFFFFFFFFFFFFFFFFFFFFFFFFFFFFFFFFFFFFFFFFFFFFFFFFF NOT AND EQ DUP1 PUSH2 0x247 JUMPI POP PUSH2 0x246 DUP3 PUSH2 0x51F JUMP JUMPDEST JUMPDEST SWAP1 POP SWAP2 SWAP1 POP JUMP JUMPDEST PUSH1 0x0 PUSH1 0x2 PUSH8 0xFFFFFFFFFFFFFFFF DUP2 GT ISZERO PUSH2 0x26B JUMPI PUSH2 0x26A PUSH2 0x115B JUMP JUMPDEST JUMPDEST PUSH1 0x40 MLOAD SWAP1 DUP1 DUP3 MSTORE DUP1 PUSH1 0x20 MUL PUSH1 0x20 ADD DUP3 ADD PUSH1 0x40 MSTORE DUP1 ISZERO PUSH2 0x299 JUMPI DUP2 PUSH1 0x20 ADD PUSH1 0x20 DUP3 MUL DUP1 CALLDATASIZE DUP4 CALLDATACOPY DUP1 DUP3 ADD SWAP2 POP POP SWAP1 POP JUMPDEST POP SWAP1 POP PUSH1 0x1 DUP2 PUSH1 0x0 DUP2 MLOAD DUP2 LT PUSH2 0x2B2 JUMPI PUSH2 0x2B1 PUSH2 0x112C JUMP JUMPDEST JUMPDEST PUSH1 0x20 MUL PUSH1 0x20 ADD ADD SWAP1 ISZERO ISZERO SWAP1 DUP2 ISZERO ISZERO DUP2 MSTORE POP POP PUSH1 0x0 DUP2 PUSH1 0x1 DUP2 MLOAD DUP2 LT PUSH2 0x2DA JUMPI PUSH2 0x2D9 PUSH2 0x112C JUMP JUMPDEST JUMPDEST PUSH1 0x20 MUL PUSH1 0x20 ADD ADD SWAP1 ISZERO ISZERO SWAP1 DUP2 ISZERO ISZERO DUP2 MSTORE POP POP PUSH2 0x2F5 DUP2 PUSH2 0x4A0 JUMP JUMPDEST PUSH2 0x334 JUMPI PUSH1 0x40 MLOAD PUSH32 0x8C379A000000000000000000000000000000000000000000000000000000000 DUP2 MSTORE PUSH1 0x4 ADD PUSH2 0x32B SWAP1 PUSH2 0xE40 JUMP JUMPDEST PUSH1 0x40 MLOAD DUP1 SWAP2 SUB SWAP1 REVERT JUMPDEST PUSH32 0x63E9370C5B01EE8896E536F1F2FC902C945D630EB37FAF0981FB9146088FC423 PUSH1 0x40 MLOAD PUSH2 0x361 SWAP1 PUSH2 0xE20 JUMP JUMPDEST PUSH1 0x40 MLOAD DUP1 SWAP2 SUB SWAP1 LOG1 POP JUMP JUMPDEST PUSH1 0x0 DUP1 PUSH1 0x0 DUP4 DUP2 MSTORE PUSH1 0x20 ADD SWAP1 DUP2 MSTORE PUSH1 0x20 ADD PUSH1 0x0 KECCAK256 PUSH1 0x1 ADD SLOAD SWAP1 POP SWAP2 SWAP1 POP JUMP JUMPDEST PUSH2 0x394 DUP3 PUSH2 0x36C JUMP JUMPDEST PUSH2 0x39D DUP2 PUSH2 0x589 JUMP JUMPDEST PUSH2 0x3A7 DUP4 DUP4 PUSH2 0x59D JUMP JUMPDEST POP POP POP JUMP JUMPDEST PUSH2 0x3B4 PUSH2 0x67D JUMP JUMPDEST PUSH20 0xFFFFFFFFFFFFFFFFFFFFFFFFFFFFFFFFFFFFFFFF AND DUP2 PUSH20 0xFFFFFFFFFFFFFFFFFFFFFFFFFFFFFFFFFFFFFFFF AND EQ PUSH2 0x421 JUMPI PUSH1 0x40 MLOAD PUSH32 0x8C379A000000000000000000000000000000000000000000000000000000000 DUP2 MSTORE PUSH1 0x4 ADD PUSH2 0x418 SWAP1 PUSH2 0xE60 JUMP JUMPDEST PUSH1 0x40 MLOAD DUP1 SWAP2 SUB SWAP1 REVERT JUMPDEST PUSH2 0x42B DUP3 DUP3 PUSH2 0x685 JUMP JUMPDEST POP POP JUMP JUMPDEST PUSH1 0x0 DUP1 PUSH1 0x0 DUP5 DUP2 MSTORE PUSH1 0x20 ADD SWAP1 DUP2 MSTORE PUSH1 0x20 ADD PUSH1 0x0 KECCAK256 PUSH1 0x0 ADD PUSH1 0x0 DUP4 PUSH20 0xFFFFFFFFFFFFFFFFFFFFFFFFFFFFFFFFFFFFFFFF AND PUSH20 0xFFFFFFFFFFFFFFFFFFFFFFFFFFFFFFFFFFFFFFFF AND DUP2 MSTORE PUSH1 0x20 ADD SWAP1 DUP2 MSTORE PUSH1 0x20 ADD PUSH1 0x0 KECCAK256 PUSH1 0x0 SWAP1 SLOAD SWAP1 PUSH2 0x100 EXP SWAP1 DIV PUSH1 0xFF AND SWAP1 POP SWAP3 SWAP2 POP POP JUMP JUMPDEST PUSH1 0x0 DUP1 SHL DUP2 JUMP JUMPDEST PUSH1 0x0 DUP1 PUSH1 0x0 SWAP1 POP PUSH1 0x0 JUMPDEST DUP4 MLOAD DUP2 LT ISZERO PUSH2 0x4F4 JUMPI PUSH1 0x1 ISZERO ISZERO DUP5 DUP3 DUP2 MLOAD DUP2 LT PUSH2 0x4CA JUMPI PUSH2 0x4C9 PUSH2 0x112C JUMP JUMPDEST JUMPDEST PUSH1 0x20 MUL PUSH1 0x20 ADD ADD MLOAD ISZERO ISZERO EQ ISZERO PUSH2 0x4E3 JUMPI PUSH1 0x1 SWAP2 POP PUSH2 0x4F4 JUMP JUMPDEST DUP1 PUSH2 0x4ED SWAP1 PUSH2 0x10B4 JUMP JUMPDEST SWAP1 POP PUSH2 0x4AA JUMP JUMPDEST POP DUP1 SWAP2 POP POP SWAP2 SWAP1 POP JUMP JUMPDEST PUSH2 0x507 DUP3 PUSH2 0x36C JUMP JUMPDEST PUSH2 0x510 DUP2 PUSH2 0x589 JUMP JUMPDEST PUSH2 0x51A DUP4 DUP4 PUSH2 0x685 JUMP JUMPDEST POP POP POP JUMP JUMPDEST PUSH1 0x0 PUSH32 0x1FFC9A700000000000000000000000000000000000000000000000000000000 PUSH28 0xFFFFFFFFFFFFFFFFFFFFFFFFFFFFFFFFFFFFFFFFFFFFFFFFFFFFFFFF NOT AND DUP3 PUSH28 0xFFFFFFFFFFFFFFFFFFFFFFFFFFFFFFFFFFFFFFFFFFFFFFFFFFFFFFFF NOT AND EQ SWAP1 POP SWAP2 SWAP1 POP JUMP JUMPDEST PUSH2 0x59A DUP2 PUSH2 0x595 PUSH2 0x67D JUMP JUMPDEST PUSH2 0x766 JUMP JUMPDEST POP JUMP JUMPDEST PUSH2 0x5A7 DUP3 DUP3 PUSH2 0x42F JUMP JUMPDEST PUSH2 0x679 JUMPI PUSH1 0x1 PUSH1 0x0 DUP1 DUP5 DUP2 MSTORE PUSH1 0x20 ADD SWAP1 DUP2 MSTORE PUSH1 0x20 ADD PUSH1 0x0 KECCAK256 PUSH1 0x0 ADD PUSH1 0x0 DUP4 PUSH20 0xFFFFFFFFFFFFFFFFFFFFFFFFFFFFFFFFFFFFFFFF AND PUSH20 0xFFFFFFFFFFFFFFFFFFFFFFFFFFFFFFFFFFFFFFFF AND DUP2 MSTORE PUSH1 0x20 ADD SWAP1 DUP2 MSTORE PUSH1 0x20 ADD PUSH1 0x0 KECCAK256 PUSH1 0x0 PUSH2 0x100 EXP DUP2 SLOAD DUP2 PUSH1 0xFF MUL NOT AND SWAP1 DUP4 ISZERO ISZERO MUL OR SWAP1 SSTORE POP PUSH2 0x61E PUSH2 0x67D JUMP JUMPDEST PUSH20 0xFFFFFFFFFFFFFFFFFFFFFFFFFFFFFFFFFFFFFFFF AND DUP2 PUSH20 0xFFFFFFFFFFFFFFFFFFFFFFFFFFFFFFFFFFFFFFFF AND DUP4 PUSH32 0x2F8788117E7EFF1D82E926EC794901D17C78024A50270940304540A733656F0D PUSH1 0x40 MLOAD PUSH1 0x40 MLOAD DUP1 SWAP2 SUB SWAP1 LOG4 JUMPDEST POP POP JUMP JUMPDEST PUSH1 0x0 CALLER SWAP1 POP SWAP1 JUMP JUMPDEST PUSH2 0x68F DUP3 DUP3 PUSH2 0x42F JUMP JUMPDEST ISZERO PUSH2 0x762 JUMPI PUSH1 0x0 DUP1 PUSH1 0x0 DUP5 DUP2 MSTORE PUSH1 0x20 ADD SWAP1 DUP2 MSTORE PUSH1 0x20 ADD PUSH1 0x0 KECCAK256 PUSH1 0x0 ADD PUSH1 0x0 DUP4 PUSH20 0xFFFFFFFFFFFFFFFFFFFFFFFFFFFFFFFFFFFFFFFF AND PUSH20 0xFFFFFFFFFFFFFFFFFFFFFFFFFFFFFFFFFFFFFFFF AND DUP2 MSTORE PUSH1 0x20 ADD SWAP1 DUP2 MSTORE PUSH1 0x20 ADD PUSH1 0x0 KECCAK256 PUSH1 0x0 PUSH2 0x100 EXP DUP2 SLOAD DUP2 PUSH1 0xFF MUL NOT AND SWAP1 DUP4 ISZERO ISZERO MUL OR SWAP1 SSTORE POP PUSH2 0x707 PUSH2 0x67D JUMP JUMPDEST PUSH20 0xFFFFFFFFFFFFFFFFFFFFFFFFFFFFFFFFFFFFFFFF AND DUP2 PUSH20 0xFFFFFFFFFFFFFFFFFFFFFFFFFFFFFFFFFFFFFFFF AND DUP4 PUSH32 0xF6391F5C32D9C69D2A47EA670B442974B53935D1EDC7FD64EB21E047A839171B PUSH1 0x40 MLOAD PUSH1 0x40 MLOAD DUP1 SWAP2 SUB SWAP1 LOG4 JUMPDEST POP POP JUMP JUMPDEST PUSH2 0x770 DUP3 DUP3 PUSH2 0x42F JUMP JUMPDEST PUSH2 0x7FF JUMPI PUSH2 0x795 DUP2 PUSH20 0xFFFFFFFFFFFFFFFFFFFFFFFFFFFFFFFFFFFFFFFF AND PUSH1 0x14 PUSH2 0x803 JUMP JUMPDEST PUSH2 0x7A3 DUP4 PUSH1 0x0 SHR PUSH1 0x20 PUSH2 0x803 JUMP JUMPDEST PUSH1 0x40 MLOAD PUSH1 0x20 ADD PUSH2 0x7B4 SWAP3 SWAP2 SWAP1 PUSH2 0xD6E JUMP JUMPDEST PUSH1 0x40 MLOAD PUSH1 0x20 DUP2 DUP4 SUB SUB DUP2 MSTORE SWAP1 PUSH1 0x40 MSTORE PUSH1 0x40 MLOAD PUSH32 0x8C379A000000000000000000000000000000000000000000000000000000000 DUP2 MSTORE PUSH1 0x4 ADD PUSH2 0x7F6 SWAP2 SWAP1 PUSH2 0xDDE JUMP JUMPDEST PUSH1 0x40 MLOAD DUP1 SWAP2 SUB SWAP1 REVERT JUMPDEST POP POP JUMP JUMPDEST PUSH1 0x60 PUSH1 0x0 PUSH1 0x2 DUP4 PUSH1 0x2 PUSH2 0x816 SWAP2 SWAP1 PUSH2 0xF4E JUMP JUMPDEST PUSH2 0x820 SWAP2 SWAP1 PUSH2 0xEF8 JUMP JUMPDEST PUSH8 0xFFFFFFFFFFFFFFFF DUP2 GT ISZERO PUSH2 0x839 JUMPI PUSH2 0x838 PUSH2 0x115B JUMP JUMPDEST JUMPDEST PUSH1 0x40 MLOAD SWAP1 DUP1 DUP3 MSTORE DUP1 PUSH1 0x1F ADD PUSH1 0x1F NOT AND PUSH1 0x20 ADD DUP3 ADD PUSH1 0x40 MSTORE DUP1 ISZERO PUSH2 0x86B JUMPI DUP2 PUSH1 0x20 ADD PUSH1 0x1 DUP3 MUL DUP1 CALLDATASIZE DUP4 CALLDATACOPY DUP1 DUP3 ADD SWAP2 POP POP SWAP1 POP JUMPDEST POP SWAP1 POP PUSH32 0x3000000000000000000000000000000000000000000000000000000000000000 DUP2 PUSH1 0x0 DUP2 MLOAD DUP2 LT PUSH2 0x8A3 JUMPI PUSH2 0x8A2 PUSH2 0x112C JUMP JUMPDEST JUMPDEST PUSH1 0x20 ADD ADD SWAP1 PUSH31 0xFFFFFFFFFFFFFFFFFFFFFFFFFFFFFFFFFFFFFFFFFFFFFFFFFFFFFFFFFFFFFF NOT AND SWAP1 DUP2 PUSH1 0x0 BYTE SWAP1 MSTORE8 POP PUSH32 0x7800000000000000000000000000000000000000000000000000000000000000 DUP2 PUSH1 0x1 DUP2 MLOAD DUP2 LT PUSH2 0x907 JUMPI PUSH2 0x906 PUSH2 0x112C JUMP JUMPDEST JUMPDEST PUSH1 0x20 ADD ADD SWAP1 PUSH31 0xFFFFFFFFFFFFFFFFFFFFFFFFFFFFFFFFFFFFFFFFFFFFFFFFFFFFFFFFFFFFFF NOT AND SWAP1 DUP2 PUSH1 0x0 BYTE SWAP1 MSTORE8 POP PUSH1 0x0 PUSH1 0x1 DUP5 PUSH1 0x2 PUSH2 0x947 SWAP2 SWAP1 PUSH2 0xF4E JUMP JUMPDEST PUSH2 0x951 SWAP2 SWAP1 PUSH2 0xEF8 JUMP JUMPDEST SWAP1 POP JUMPDEST PUSH1 0x1 DUP2 GT ISZERO PUSH2 0x9F1 JUMPI PUSH32 0x3031323334353637383961626364656600000000000000000000000000000000 PUSH1 0xF DUP7 AND PUSH1 0x10 DUP2 LT PUSH2 0x993 JUMPI PUSH2 0x992 PUSH2 0x112C JUMP JUMPDEST JUMPDEST BYTE PUSH1 0xF8 SHL DUP3 DUP3 DUP2 MLOAD DUP2 LT PUSH2 0x9AA JUMPI PUSH2 0x9A9 PUSH2 0x112C JUMP JUMPDEST JUMPDEST PUSH1 0x20 ADD ADD SWAP1 PUSH31 0xFFFFFFFFFFFFFFFFFFFFFFFFFFFFFFFFFFFFFFFFFFFFFFFFFFFFFFFFFFFFFF NOT AND SWAP1 DUP2 PUSH1 0x0 BYTE SWAP1 MSTORE8 POP PUSH1 0x4 DUP6 SWAP1 SHR SWAP5 POP DUP1 PUSH2 0x9EA SWAP1 PUSH2 0x1059 JUMP JUMPDEST SWAP1 POP PUSH2 0x954 JUMP JUMPDEST POP PUSH1 0x0 DUP5 EQ PUSH2 0xA35 JUMPI PUSH1 0x40 MLOAD PUSH32 0x8C379A000000000000000000000000000000000000000000000000000000000 DUP2 MSTORE PUSH1 0x4 ADD PUSH2 0xA2C SWAP1 PUSH2 0xE00 JUMP JUMPDEST PUSH1 0x40 MLOAD DUP1 SWAP2 SUB SWAP1 REVERT JUMPDEST DUP1 SWAP2 POP POP SWAP3 SWAP2 POP POP JUMP JUMPDEST PUSH1 0x0 PUSH2 0xA52 PUSH2 0xA4D DUP5 PUSH2 0xEA5 JUMP JUMPDEST PUSH2 0xE80 JUMP JUMPDEST SWAP1 POP DUP1 DUP4 DUP3 MSTORE PUSH1 0x20 DUP3 ADD SWAP1 POP DUP3 DUP6 PUSH1 0x20 DUP7 MUL DUP3 ADD GT ISZERO PUSH2 0xA75 JUMPI PUSH2 0xA74 PUSH2 0x118F JUMP JUMPDEST JUMPDEST PUSH1 0x0 JUMPDEST DUP6 DUP2 LT ISZERO PUSH2 0xAA5 JUMPI DUP2 PUSH2 0xA8B DUP9 DUP3 PUSH2 0xAF2 JUMP JUMPDEST DUP5 MSTORE PUSH1 0x20 DUP5 ADD SWAP4 POP PUSH1 0x20 DUP4 ADD SWAP3 POP POP PUSH1 0x1 DUP2 ADD SWAP1 POP PUSH2 0xA78 JUMP JUMPDEST POP POP POP SWAP4 SWAP3 POP POP POP JUMP JUMPDEST PUSH1 0x0 DUP2 CALLDATALOAD SWAP1 POP PUSH2 0xABE DUP2 PUSH2 0x12CB JUMP JUMPDEST SWAP3 SWAP2 POP POP JUMP JUMPDEST PUSH1 0x0 DUP3 PUSH1 0x1F DUP4 ADD SLT PUSH2 0xAD9 JUMPI PUSH2 0xAD8 PUSH2 0x118A JUMP JUMPDEST JUMPDEST DUP2 CALLDATALOAD PUSH2 0xAE9 DUP5 DUP3 PUSH1 0x20 DUP7 ADD PUSH2 0xA3F JUMP JUMPDEST SWAP2 POP POP SWAP3 SWAP2 POP POP JUMP JUMPDEST PUSH1 0x0 DUP2 CALLDATALOAD SWAP1 POP PUSH2 0xB01 DUP2 PUSH2 0x12E2 JUMP JUMPDEST SWAP3 SWAP2 POP POP JUMP JUMPDEST PUSH1 0x0 DUP2 CALLDATALOAD SWAP1 POP PUSH2 0xB16 DUP2 PUSH2 0x12F9 JUMP JUMPDEST SWAP3 SWAP2 POP POP JUMP JUMPDEST PUSH1 0x0 DUP2 CALLDATALOAD SWAP1 POP PUSH2 0xB2B DUP2 PUSH2 0x1310 JUMP JUMPDEST SWAP3 SWAP2 POP POP JUMP JUMPDEST PUSH1 0x0 PUSH1 0x20 DUP3 DUP5 SUB SLT ISZERO PUSH2 0xB47 JUMPI PUSH2 0xB46 PUSH2 0x1199 JUMP JUMPDEST JUMPDEST PUSH1 0x0 DUP3 ADD CALLDATALOAD PUSH8 0xFFFFFFFFFFFFFFFF DUP2 GT ISZERO PUSH2 0xB65 JUMPI PUSH2 0xB64 PUSH2 0x1194 JUMP JUMPDEST JUMPDEST PUSH2 0xB71 DUP5 DUP3 DUP6 ADD PUSH2 0xAC4 JUMP JUMPDEST SWAP2 POP POP SWAP3 SWAP2 POP POP JUMP JUMPDEST PUSH1 0x0 PUSH1 0x20 DUP3 DUP5 SUB SLT ISZERO PUSH2 0xB90 JUMPI PUSH2 0xB8F PUSH2 0x1199 JUMP JUMPDEST JUMPDEST PUSH1 0x0 PUSH2 0xB9E DUP5 DUP3 DUP6 ADD PUSH2 0xB07 JUMP JUMPDEST SWAP2 POP POP SWAP3 SWAP2 POP POP JUMP JUMPDEST PUSH1 0x0 DUP1 PUSH1 0x40 DUP4 DUP6 SUB SLT ISZERO PUSH2 0xBBE JUMPI PUSH2 0xBBD PUSH2 0x1199 JUMP JUMPDEST JUMPDEST PUSH1 0x0 PUSH2 0xBCC DUP6 DUP3 DUP7 ADD PUSH2 0xB07 JUMP JUMPDEST SWAP3 POP POP PUSH1 0x20 PUSH2 0xBDD DUP6 DUP3 DUP7 ADD PUSH2 0xAAF JUMP JUMPDEST SWAP2 POP POP SWAP3 POP SWAP3 SWAP1 POP JUMP JUMPDEST PUSH1 0x0 PUSH1 0x20 DUP3 DUP5 SUB SLT ISZERO PUSH2 0xBFD JUMPI PUSH2 0xBFC PUSH2 0x1199 JUMP JUMPDEST JUMPDEST PUSH1 0x0 PUSH2 0xC0B DUP5 DUP3 DUP6 ADD PUSH2 0xB1C JUMP JUMPDEST SWAP2 POP POP SWAP3 SWAP2 POP POP JUMP JUMPDEST PUSH2 0xC1D DUP2 PUSH2 0xFBA JUMP JUMPDEST DUP3 MSTORE POP POP JUMP JUMPDEST PUSH2 0xC2C DUP2 PUSH2 0xFC6 JUMP JUMPDEST DUP3 MSTORE POP POP JUMP JUMPDEST PUSH1 0x0 PUSH2 0xC3D DUP3 PUSH2 0xED1 JUMP JUMPDEST PUSH2 0xC47 DUP2 DUP6 PUSH2 0xEDC JUMP JUMPDEST SWAP4 POP PUSH2 0xC57 DUP2 DUP6 PUSH1 0x20 DUP7 ADD PUSH2 0x1026 JUMP JUMPDEST PUSH2 0xC60 DUP2 PUSH2 0x119E JUMP JUMPDEST DUP5 ADD SWAP2 POP POP SWAP3 SWAP2 POP POP JUMP JUMPDEST PUSH1 0x0 PUSH2 0xC76 DUP3 PUSH2 0xED1 JUMP JUMPDEST PUSH2 0xC80 DUP2 DUP6 PUSH2 0xEED JUMP JUMPDEST SWAP4 POP PUSH2 0xC90 DUP2 DUP6 PUSH1 0x20 DUP7 ADD PUSH2 0x1026 JUMP JUMPDEST DUP1 DUP5 ADD SWAP2 POP POP SWAP3 SWAP2 POP POP JUMP JUMPDEST PUSH1 0x0 PUSH2 0xCA9 PUSH1 0x20 DUP4 PUSH2 0xEDC JUMP JUMPDEST SWAP2 POP PUSH2 0xCB4 DUP3 PUSH2 0x11AF JUMP JUMPDEST PUSH1 0x20 DUP3 ADD SWAP1 POP SWAP2 SWAP1 POP JUMP JUMPDEST PUSH1 0x0 PUSH2 0xCCC PUSH1 0xC DUP4 PUSH2 0xEDC JUMP JUMPDEST SWAP2 POP PUSH2 0xCD7 DUP3 PUSH2 0x11D8 JUMP JUMPDEST PUSH1 0x20 DUP3 ADD SWAP1 POP SWAP2 SWAP1 POP JUMP JUMPDEST PUSH1 0x0 PUSH2 0xCEF PUSH1 0x1C DUP4 PUSH2 0xEDC JUMP JUMPDEST SWAP2 POP PUSH2 0xCFA DUP3 PUSH2 0x1201 JUMP JUMPDEST PUSH1 0x20 DUP3 ADD SWAP1 POP SWAP2 SWAP1 POP JUMP JUMPDEST PUSH1 0x0 PUSH2 0xD12 PUSH1 0x17 DUP4 PUSH2 0xEED JUMP JUMPDEST SWAP2 POP PUSH2 0xD1D DUP3 PUSH2 0x122A JUMP JUMPDEST PUSH1 0x17 DUP3 ADD SWAP1 POP SWAP2 SWAP1 POP JUMP JUMPDEST PUSH1 0x0 PUSH2 0xD35 PUSH1 0x11 DUP4 PUSH2 0xEED JUMP JUMPDEST SWAP2 POP PUSH2 0xD40 DUP3 PUSH2 0x1253 JUMP JUMPDEST PUSH1 0x11 DUP3 ADD SWAP1 POP SWAP2 SWAP1 POP JUMP JUMPDEST PUSH1 0x0 PUSH2 0xD58 PUSH1 0x2F DUP4 PUSH2 0xEDC JUMP JUMPDEST SWAP2 POP PUSH2 0xD63 DUP3 PUSH2 0x127C JUMP JUMPDEST PUSH1 0x40 DUP3 ADD SWAP1 POP SWAP2 SWAP1 POP JUMP JUMPDEST PUSH1 0x0 PUSH2 0xD79 DUP3 PUSH2 0xD05 JUMP JUMPDEST SWAP2 POP PUSH2 0xD85 DUP3 DUP6 PUSH2 0xC6B JUMP JUMPDEST SWAP2 POP PUSH2 0xD90 DUP3 PUSH2 0xD28 JUMP JUMPDEST SWAP2 POP PUSH2 0xD9C DUP3 DUP5 PUSH2 0xC6B JUMP JUMPDEST SWAP2 POP DUP2 SWAP1 POP SWAP4 SWAP3 POP POP POP JUMP JUMPDEST PUSH1 0x0 PUSH1 0x20 DUP3 ADD SWAP1 POP PUSH2 0xDBD PUSH1 0x0 DUP4 ADD DUP5 PUSH2 0xC14 JUMP JUMPDEST SWAP3 SWAP2 POP POP JUMP JUMPDEST PUSH1 0x0 PUSH1 0x20 DUP3 ADD SWAP1 POP PUSH2 0xDD8 PUSH1 0x0 DUP4 ADD DUP5 PUSH2 0xC23 JUMP JUMPDEST SWAP3 SWAP2 POP POP JUMP JUMPDEST PUSH1 0x0 PUSH1 0x20 DUP3 ADD SWAP1 POP DUP2 DUP2 SUB PUSH1 0x0 DUP4 ADD MSTORE PUSH2 0xDF8 DUP2 DUP5 PUSH2 0xC32 JUMP JUMPDEST SWAP1 POP SWAP3 SWAP2 POP POP JUMP JUMPDEST PUSH1 0x0 PUSH1 0x20 DUP3 ADD SWAP1 POP DUP2 DUP2 SUB PUSH1 0x0 DUP4 ADD MSTORE PUSH2 0xE19 DUP2 PUSH2 0xC9C JUMP JUMPDEST SWAP1 POP SWAP2 SWAP1 POP JUMP JUMPDEST PUSH1 0x0 PUSH1 0x20 DUP3 ADD SWAP1 POP DUP2 DUP2 SUB PUSH1 0x0 DUP4 ADD MSTORE PUSH2 0xE39 DUP2 PUSH2 0xCBF JUMP JUMPDEST SWAP1 POP SWAP2 SWAP1 POP JUMP JUMPDEST PUSH1 0x0 PUSH1 0x20 DUP3 ADD SWAP1 POP DUP2 DUP2 SUB PUSH1 0x0 DUP4 ADD MSTORE PUSH2 0xE59 DUP2 PUSH2 0xCE2 JUMP JUMPDEST SWAP1 POP SWAP2 SWAP1 POP JUMP JUMPDEST PUSH1 0x0 PUSH1 0x20 DUP3 ADD SWAP1 POP DUP2 DUP2 SUB PUSH1 0x0 DUP4 ADD MSTORE PUSH2 0xE79 DUP2 PUSH2 0xD4B JUMP JUMPDEST SWAP1 POP SWAP2 SWAP1 POP JUMP JUMPDEST PUSH1 0x0 PUSH2 0xE8A PUSH2 0xE9B JUMP JUMPDEST SWAP1 POP PUSH2 0xE96 DUP3 DUP3 PUSH2 0x1083 JUMP JUMPDEST SWAP2 SWAP1 POP JUMP JUMPDEST PUSH1 0x0 PUSH1 0x40 MLOAD SWAP1 POP SWAP1 JUMP JUMPDEST PUSH1 0x0 PUSH8 0xFFFFFFFFFFFFFFFF DUP3 GT ISZERO PUSH2 0xEC0 JUMPI PUSH2 0xEBF PUSH2 0x115B JUMP JUMPDEST JUMPDEST PUSH1 0x20 DUP3 MUL SWAP1 POP PUSH1 0x20 DUP2 ADD SWAP1 POP SWAP2 SWAP1 POP JUMP JUMPDEST PUSH1 0x0 DUP2 MLOAD SWAP1 POP SWAP2 SWAP1 POP JUMP JUMPDEST PUSH1 0x0 DUP3 DUP3 MSTORE PUSH1 0x20 DUP3 ADD SWAP1 POP SWAP3 SWAP2 POP POP JUMP JUMPDEST PUSH1 0x0 DUP2 SWAP1 POP SWAP3 SWAP2 POP POP JUMP JUMPDEST PUSH1 0x0 PUSH2 0xF03 DUP3 PUSH2 0x101C JUMP JUMPDEST SWAP2 POP PUSH2 0xF0E DUP4 PUSH2 0x101C JUMP JUMPDEST SWAP3 POP DUP3 PUSH32 0xFFFFFFFFFFFFFFFFFFFFFFFFFFFFFFFFFFFFFFFFFFFFFFFFFFFFFFFFFFFFFFFF SUB DUP3 GT ISZERO PUSH2 0xF43 JUMPI PUSH2 0xF42 PUSH2 0x10FD JUMP JUMPDEST JUMPDEST DUP3 DUP3 ADD SWAP1 POP SWAP3 SWAP2 POP POP JUMP JUMPDEST PUSH1 0x0 PUSH2 0xF59 DUP3 PUSH2 0x101C JUMP JUMPDEST SWAP2 POP PUSH2 0xF64 DUP4 PUSH2 0x101C JUMP JUMPDEST SWAP3 POP DUP2 PUSH32 0xFFFFFFFFFFFFFFFFFFFFFFFFFFFFFFFFFFFFFFFFFFFFFFFFFFFFFFFFFFFFFFFF DIV DUP4 GT DUP3 ISZERO ISZERO AND ISZERO PUSH2 0xF9D JUMPI PUSH2 0xF9C PUSH2 0x10FD JUMP JUMPDEST JUMPDEST DUP3 DUP3 MUL SWAP1 POP SWAP3 SWAP2 POP POP JUMP JUMPDEST PUSH1 0x0 PUSH2 0xFB3 DUP3 PUSH2 0xFFC JUMP JUMPDEST SWAP1 POP SWAP2 SWAP1 POP JUMP JUMPDEST PUSH1 0x0 DUP2 ISZERO ISZERO SWAP1 POP SWAP2 SWAP1 POP JUMP JUMPDEST PUSH1 0x0 DUP2 SWAP1 POP SWAP2 SWAP1 POP JUMP JUMPDEST PUSH1 0x0 PUSH32 0xFFFFFFFF00000000000000000000000000000000000000000000000000000000 DUP3 AND SWAP1 POP SWAP2 SWAP1 POP JUMP JUMPDEST PUSH1 0x0 PUSH20 0xFFFFFFFFFFFFFFFFFFFFFFFFFFFFFFFFFFFFFFFF DUP3 AND SWAP1 POP SWAP2 SWAP1 POP JUMP JUMPDEST PUSH1 0x0 DUP2 SWAP1 POP SWAP2 SWAP1 POP JUMP JUMPDEST PUSH1 0x0 JUMPDEST DUP4 DUP2 LT ISZERO PUSH2 0x1044 JUMPI DUP1 DUP3 ADD MLOAD DUP2 DUP5 ADD MSTORE PUSH1 0x20 DUP2 ADD SWAP1 POP PUSH2 0x1029 JUMP JUMPDEST DUP4 DUP2 GT ISZERO PUSH2 0x1053 JUMPI PUSH1 0x0 DUP5 DUP5 ADD MSTORE JUMPDEST POP POP POP POP JUMP JUMPDEST PUSH1 0x0 PUSH2 0x1064 DUP3 PUSH2 0x101C JUMP JUMPDEST SWAP2 POP PUSH1 0x0 DUP3 EQ ISZERO PUSH2 0x1078 JUMPI PUSH2 0x1077 PUSH2 0x10FD JUMP JUMPDEST JUMPDEST PUSH1 0x1 DUP3 SUB SWAP1 POP SWAP2 SWAP1 POP JUMP JUMPDEST PUSH2 0x108C DUP3 PUSH2 0x119E JUMP JUMPDEST DUP2 ADD DUP2 DUP2 LT PUSH8 0xFFFFFFFFFFFFFFFF DUP3 GT OR ISZERO PUSH2 0x10AB JUMPI PUSH2 0x10AA PUSH2 0x115B JUMP JUMPDEST JUMPDEST DUP1 PUSH1 0x40 MSTORE POP POP POP JUMP JUMPDEST PUSH1 0x0 PUSH2 0x10BF DUP3 PUSH2 0x101C JUMP JUMPDEST SWAP2 POP PUSH32 0xFFFFFFFFFFFFFFFFFFFFFFFFFFFFFFFFFFFFFFFFFFFFFFFFFFFFFFFFFFFFFFFF DUP3 EQ ISZERO PUSH2 0x10F2 JUMPI PUSH2 0x10F1 PUSH2 0x10FD JUMP JUMPDEST JUMPDEST PUSH1 0x1 DUP3 ADD SWAP1 POP SWAP2 SWAP1 POP JUMP JUMPDEST PUSH32 0x4E487B7100000000000000000000000000000000000000000000000000000000 PUSH1 0x0 MSTORE PUSH1 0x11 PUSH1 0x4 MSTORE PUSH1 0x24 PUSH1 0x0 REVERT JUMPDEST PUSH32 0x4E487B7100000000000000000000000000000000000000000000000000000000 PUSH1 0x0 MSTORE PUSH1 0x32 PUSH1 0x4 MSTORE PUSH1 0x24 PUSH1 0x0 REVERT JUMPDEST PUSH32 0x4E487B7100000000000000000000000000000000000000000000000000000000 PUSH1 0x0 MSTORE PUSH1 0x41 PUSH1 0x4 MSTORE PUSH1 0x24 PUSH1 0x0 REVERT JUMPDEST PUSH1 0x0 DUP1 REVERT JUMPDEST PUSH1 0x0 DUP1 REVERT JUMPDEST PUSH1 0x0 DUP1 REVERT JUMPDEST PUSH1 0x0 DUP1 REVERT JUMPDEST PUSH1 0x0 PUSH1 0x1F NOT PUSH1 0x1F DUP4 ADD AND SWAP1 POP SWAP2 SWAP1 POP JUMP JUMPDEST PUSH32 0x537472696E67733A20686578206C656E67746820696E73756666696369656E74 PUSH1 0x0 DUP3 ADD MSTORE POP JUMP JUMPDEST PUSH32 0x68656C6C6F20776F726C642E0000000000000000000000000000000000000000 PUSH1 0x0 DUP3 ADD MSTORE POP JUMP JUMPDEST PUSH32 0x74686973207065726D697373696F6E206E6F742066726F6D20796F7500000000 PUSH1 0x0 DUP3 ADD MSTORE POP JUMP JUMPDEST PUSH32 0x416363657373436F6E74726F6C3A206163636F756E7420000000000000000000 PUSH1 0x0 DUP3 ADD MSTORE POP JUMP JUMPDEST PUSH32 0x206973206D697373696E6720726F6C6520000000000000000000000000000000 PUSH1 0x0 DUP3 ADD MSTORE POP JUMP JUMPDEST PUSH32 0x416363657373436F6E74726F6C3A2063616E206F6E6C792072656E6F756E6365 PUSH1 0x0 DUP3 ADD MSTORE PUSH32 0x20726F6C657320666F722073656C660000000000000000000000000000000000 PUSH1 0x20 DUP3 ADD MSTORE POP JUMP JUMPDEST PUSH2 0x12D4 DUP2 PUSH2 0xFA8 JUMP JUMPDEST DUP2 EQ PUSH2 0x12DF JUMPI PUSH1 0x0 DUP1 REVERT JUMPDEST POP JUMP JUMPDEST PUSH2 0x12EB DUP2 PUSH2 0xFBA JUMP JUMPDEST DUP2 EQ PUSH2 0x12F6 JUMPI PUSH1 0x0 DUP1 REVERT JUMPDEST POP JUMP JUMPDEST PUSH2 0x1302 DUP2 PUSH2 0xFC6 JUMP JUMPDEST DUP2 EQ PUSH2 0x130D JUMPI PUSH1 0x0 DUP1 REVERT JUMPDEST POP JUMP JUMPDEST PUSH2 0x1319 DUP2 PUSH2 0xFD0 JUMP JUMPDEST DUP2 EQ PUSH2 0x1324 JUMPI PUSH1 0x0 DUP1 REVERT JUMPDEST POP JUMP INVALID LOG2 PUSH5 0x6970667358 0x22 SLT KECCAK256 0xC5 DUP5 PUSH10 0xE08DFC6FDACC8B0D2D5C 0xF7 0xB0 0xB6 0x4F 0xAB 0xED SSTORE 0xB2 0xA9 0xC7 0xBA PUSH17 0x25954276100A9764736F6C634300080700 CALLER "
				},
				"gasEstimates": {
					"creation": {
						"codeDepositCost": "991400",
						"executionCost": "1027",
						"totalCost": "992427"
					},
					"external": {
						"DEFAULT_ADMIN_ROLE()": "379",
						"getRoleAdmin(bytes32)": "infinite",
						"grantRole(bytes32,address)": "infinite",
						"hasRole(bytes32,address)": "3162",
						"renounceRole(bytes32,address)": "infinite",
						"revokeRole(bytes32,address)": "infinite",
						"supportsInterface(bytes4)": "728",
						"test(bool[])": "infinite",
						"trydy()": "infinite"
					}
				},
				"methodIdentifiers": {
					"DEFAULT_ADMIN_ROLE()": "a217fddf",
					"getRoleAdmin(bytes32)": "248a9ca3",
					"grantRole(bytes32,address)": "2f2ff15d",
					"hasRole(bytes32,address)": "91d14854",
					"renounceRole(bytes32,address)": "36568abe",
					"revokeRole(bytes32,address)": "d547741f",
					"supportsInterface(bytes4)": "01ffc9a7",
					"test(bool[])": "ac5d4f62",
					"trydy()": "1a41fc38"
				}
			},
			"storageLayout": {
				"storage": [
					{
						"astId": 24,
						"contract": "contracts/DaoTest.sol:DaoTest",
						"label": "_roles",
						"offset": 0,
						"slot": "0",
						"type": "t_mapping(t_bytes32,t_struct(RoleData)19_storage)"
					}
				],
				"types": {
					"t_address": {
						"encoding": "inplace",
						"label": "address",
						"numberOfBytes": "20"
					},
					"t_bool": {
						"encoding": "inplace",
						"label": "bool",
						"numberOfBytes": "1"
					},
					"t_bytes32": {
						"encoding": "inplace",
						"label": "bytes32",
						"numberOfBytes": "32"
					},
					"t_mapping(t_address,t_bool)": {
						"encoding": "mapping",
						"key": "t_address",
						"label": "mapping(address => bool)",
						"numberOfBytes": "32",
						"value": "t_bool"
					},
					"t_mapping(t_bytes32,t_struct(RoleData)19_storage)": {
						"encoding": "mapping",
						"key": "t_bytes32",
						"label": "mapping(bytes32 => struct AccessControl.RoleData)",
						"numberOfBytes": "32",
						"value": "t_struct(RoleData)19_storage"
					},
					"t_struct(RoleData)19_storage": {
						"encoding": "inplace",
						"label": "struct AccessControl.RoleData",
						"members": [
							{
								"astId": 16,
								"contract": "contracts/DaoTest.sol:DaoTest",
								"label": "members",
								"offset": 0,
								"slot": "0",
								"type": "t_mapping(t_address,t_bool)"
							},
							{
								"astId": 18,
								"contract": "contracts/DaoTest.sol:DaoTest",
								"label": "adminRole",
								"offset": 0,
								"slot": "1",
								"type": "t_bytes32"
							}
						],
						"numberOfBytes": "64"
					}
				}
			},
			"userdoc": {
				"kind": "user",
				"methods": {},
				"version": 1
			}
		}
	}
}