{
	"contracts/DaoTest.sol": {
		"DaoTest": {
			"abi": [
				{
					"anonymous": false,
					"inputs": [
						{
							"indexed": true,
							"internalType": "bytes32",
							"name": "role",
							"type": "bytes32"
						},
						{
							"indexed": true,
							"internalType": "bytes32",
							"name": "previousAdminRole",
							"type": "bytes32"
						},
						{
							"indexed": true,
							"internalType": "bytes32",
							"name": "newAdminRole",
							"type": "bytes32"
						}
					],
					"name": "RoleAdminChanged",
					"type": "event"
				},
				{
					"anonymous": false,
					"inputs": [
						{
							"indexed": true,
							"internalType": "bytes32",
							"name": "role",
							"type": "bytes32"
						},
						{
							"indexed": true,
							"internalType": "address",
							"name": "account",
							"type": "address"
						},
						{
							"indexed": true,
							"internalType": "address",
							"name": "sender",
							"type": "address"
						}
					],
					"name": "RoleGranted",
					"type": "event"
				},
				{
					"anonymous": false,
					"inputs": [
						{
							"indexed": true,
							"internalType": "bytes32",
							"name": "role",
							"type": "bytes32"
						},
						{
							"indexed": true,
							"internalType": "address",
							"name": "account",
							"type": "address"
						},
						{
							"indexed": true,
							"internalType": "address",
							"name": "sender",
							"type": "address"
						}
					],
					"name": "RoleRevoked",
					"type": "event"
				},
				{
					"anonymous": false,
					"inputs": [
						{
							"indexed": false,
							"internalType": "string",
							"name": "newValue",
							"type": "string"
						}
					],
					"name": "someOutputs",
					"type": "event"
				},
				{
					"inputs": [],
					"name": "DEFAULT_ADMIN_ROLE",
					"outputs": [
						{
							"internalType": "bytes32",
							"name": "",
							"type": "bytes32"
						}
					],
					"stateMutability": "view",
					"type": "function"
				},
				{
					"inputs": [
						{
							"internalType": "bytes32",
							"name": "role",
							"type": "bytes32"
						}
					],
					"name": "getRoleAdmin",
					"outputs": [
						{
							"internalType": "bytes32",
							"name": "",
							"type": "bytes32"
						}
					],
					"stateMutability": "view",
					"type": "function"
				},
				{
					"inputs": [
						{
							"internalType": "bytes32",
							"name": "role",
							"type": "bytes32"
						},
						{
							"internalType": "address",
							"name": "account",
							"type": "address"
						}
					],
					"name": "grantRole",
					"outputs": [],
					"stateMutability": "nonpayable",
					"type": "function"
				},
				{
					"inputs": [
						{
							"internalType": "bytes32",
							"name": "role",
							"type": "bytes32"
						},
						{
							"internalType": "address",
							"name": "account",
							"type": "address"
						}
					],
					"name": "hasRole",
					"outputs": [
						{
							"internalType": "bool",
							"name": "",
							"type": "bool"
						}
					],
					"stateMutability": "view",
					"type": "function"
				},
				{
					"inputs": [
						{
							"internalType": "bytes32",
							"name": "role",
							"type": "bytes32"
						},
						{
							"internalType": "address",
							"name": "account",
							"type": "address"
						}
					],
					"name": "renounceRole",
					"outputs": [],
					"stateMutability": "nonpayable",
					"type": "function"
				},
				{
					"inputs": [
						{
							"internalType": "bytes32",
							"name": "role",
							"type": "bytes32"
						},
						{
							"internalType": "address",
							"name": "account",
							"type": "address"
						}
					],
					"name": "revokeRole",
					"outputs": [],
					"stateMutability": "nonpayable",
					"type": "function"
				},
				{
					"inputs": [
						{
							"internalType": "bytes4",
							"name": "interfaceId",
							"type": "bytes4"
						}
					],
					"name": "supportsInterface",
					"outputs": [
						{
							"internalType": "bool",
							"name": "",
							"type": "bool"
						}
					],
					"stateMutability": "view",
					"type": "function"
				},
				{
					"inputs": [],
					"name": "trytodo",
					"outputs": [],
					"stateMutability": "nonpayable",
					"type": "function"
				}
			],
			"devdoc": {
				"kind": "dev",
				"methods": {
					"getRoleAdmin(bytes32)": {
						"details": "Returns the admin role that controls `role`. See {grantRole} and {revokeRole}. To change a role's admin, use {_setRoleAdmin}."
					},
					"grantRole(bytes32,address)": {
						"details": "Grants `role` to `account`. If `account` had not been already granted `role`, emits a {RoleGranted} event. Requirements: - the caller must have ``role``'s admin role. May emit a {RoleGranted} event."
					},
					"hasRole(bytes32,address)": {
						"details": "Returns `true` if `account` has been granted `role`."
					},
					"renounceRole(bytes32,address)": {
						"details": "Revokes `role` from the calling account. Roles are often managed via {grantRole} and {revokeRole}: this function's purpose is to provide a mechanism for accounts to lose their privileges if they are compromised (such as when a trusted device is misplaced). If the calling account had been revoked `role`, emits a {RoleRevoked} event. Requirements: - the caller must be `account`. May emit a {RoleRevoked} event."
					},
					"revokeRole(bytes32,address)": {
						"details": "Revokes `role` from `account`. If `account` had been granted `role`, emits a {RoleRevoked} event. Requirements: - the caller must have ``role``'s admin role. May emit a {RoleRevoked} event."
					},
					"supportsInterface(bytes4)": {
						"details": "See {IERC165-supportsInterface}."
					}
				},
				"version": 1
			},
			"evm": {
				"assembly": "    /* \"contracts/DaoTest.sol\":122:861  contract DaoTest is AccessControl {\r... */\n  mstore(0x40, 0x80)\n  callvalue\n  dup1\n  iszero\n  tag_1\n  jumpi\n  0x00\n  dup1\n  revert\ntag_1:\n  pop\n  dataSize(sub_0)\n  dup1\n  dataOffset(sub_0)\n  0x00\n  codecopy\n  0x00\n  return\nstop\n\nsub_0: assembly {\n        /* \"contracts/DaoTest.sol\":122:861  contract DaoTest is AccessControl {\r... */\n      mstore(0x40, 0x80)\n      callvalue\n      dup1\n      iszero\n      tag_1\n      jumpi\n      0x00\n      dup1\n      revert\n    tag_1:\n      pop\n      jumpi(tag_2, lt(calldatasize, 0x04))\n      shr(0xe0, calldataload(0x00))\n      dup1\n      0x91d14854\n      gt\n      tag_11\n      jumpi\n      dup1\n      0x91d14854\n      eq\n      tag_7\n      jumpi\n      dup1\n      0xa217fddf\n      eq\n      tag_8\n      jumpi\n      dup1\n      0xa3298778\n      eq\n      tag_9\n      jumpi\n      dup1\n      0xd547741f\n      eq\n      tag_10\n      jumpi\n      jump(tag_2)\n    tag_11:\n      dup1\n      0x01ffc9a7\n      eq\n      tag_3\n      jumpi\n      dup1\n      0x248a9ca3\n      eq\n      tag_4\n      jumpi\n      dup1\n      0x2f2ff15d\n      eq\n      tag_5\n      jumpi\n      dup1\n      0x36568abe\n      eq\n      tag_6\n      jumpi\n    tag_2:\n      0x00\n      dup1\n      revert\n        /* \"@openzeppelin/contracts/access/AccessControl.sol\":2606:2808  function supportsInterface(bytes4 interfaceId) public view virtual override returns (bool) {... */\n    tag_3:\n      tag_12\n      0x04\n      dup1\n      calldatasize\n      sub\n      dup2\n      add\n      swap1\n      tag_13\n      swap2\n      swap1\n      tag_14\n      jump\t// in\n    tag_13:\n      tag_15\n      jump\t// in\n    tag_12:\n      mload(0x40)\n      tag_16\n      swap2\n      swap1\n      tag_17\n      jump\t// in\n    tag_16:\n      mload(0x40)\n      dup1\n      swap2\n      sub\n      swap1\n      return\n        /* \"@openzeppelin/contracts/access/AccessControl.sol\":4391:4520  function getRoleAdmin(bytes32 role) public view virtual override returns (bytes32) {... */\n    tag_4:\n      tag_18\n      0x04\n      dup1\n      calldatasize\n      sub\n      dup2\n      add\n      swap1\n      tag_19\n      swap2\n      swap1\n      tag_20\n      jump\t// in\n    tag_19:\n      tag_21\n      jump\t// in\n    tag_18:\n      mload(0x40)\n      tag_22\n      swap2\n      swap1\n      tag_23\n      jump\t// in\n    tag_22:\n      mload(0x40)\n      dup1\n      swap2\n      sub\n      swap1\n      return\n        /* \"@openzeppelin/contracts/access/AccessControl.sol\":4816:4961  function grantRole(bytes32 role, address account) public virtual override onlyRole(getRoleAdmin(role)) {... */\n    tag_5:\n      tag_24\n      0x04\n      dup1\n      calldatasize\n      sub\n      dup2\n      add\n      swap1\n      tag_25\n      swap2\n      swap1\n      tag_26\n      jump\t// in\n    tag_25:\n      tag_27\n      jump\t// in\n    tag_24:\n      stop\n        /* \"@openzeppelin/contracts/access/AccessControl.sol\":5925:6139  function renounceRole(bytes32 role, address account) public virtual override {... */\n    tag_6:\n      tag_28\n      0x04\n      dup1\n      calldatasize\n      sub\n      dup2\n      add\n      swap1\n      tag_29\n      swap2\n      swap1\n      tag_26\n      jump\t// in\n    tag_29:\n      tag_30\n      jump\t// in\n    tag_28:\n      stop\n        /* \"@openzeppelin/contracts/access/AccessControl.sol\":2895:3040  function hasRole(bytes32 role, address account) public view virtual override returns (bool) {... */\n    tag_7:\n      tag_31\n      0x04\n      dup1\n      calldatasize\n      sub\n      dup2\n      add\n      swap1\n      tag_32\n      swap2\n      swap1\n      tag_26\n      jump\t// in\n    tag_32:\n      tag_33\n      jump\t// in\n    tag_31:\n      mload(0x40)\n      tag_34\n      swap2\n      swap1\n      tag_17\n      jump\t// in\n    tag_34:\n      mload(0x40)\n      dup1\n      swap2\n      sub\n      swap1\n      return\n        /* \"@openzeppelin/contracts/access/AccessControl.sol\":2027:2076  bytes32 public constant DEFAULT_ADMIN_ROLE = 0x00 */\n    tag_8:\n      tag_35\n      tag_36\n      jump\t// in\n    tag_35:\n      mload(0x40)\n      tag_37\n      swap2\n      swap1\n      tag_23\n      jump\t// in\n    tag_37:\n      mload(0x40)\n      dup1\n      swap2\n      sub\n      swap1\n      return\n        /* \"contracts/DaoTest.sol\":682:782  function trytodo() teststring(\"dfaffdadf\") public {\r... */\n    tag_9:\n      tag_38\n      tag_39\n      jump\t// in\n    tag_38:\n      stop\n        /* \"@openzeppelin/contracts/access/AccessControl.sol\":5241:5388  function revokeRole(bytes32 role, address account) public virtual override onlyRole(getRoleAdmin(role)) {... */\n    tag_10:\n      tag_40\n      0x04\n      dup1\n      calldatasize\n      sub\n      dup2\n      add\n      swap1\n      tag_41\n      swap2\n      swap1\n      tag_26\n      jump\t// in\n    tag_41:\n      tag_42\n      jump\t// in\n    tag_40:\n      stop\n        /* \"@openzeppelin/contracts/access/AccessControl.sol\":2606:2808  function supportsInterface(bytes4 interfaceId) public view virtual override returns (bool) {... */\n    tag_15:\n        /* \"@openzeppelin/contracts/access/AccessControl.sol\":2691:2695  bool */\n      0x00\n        /* \"@openzeppelin/contracts/access/AccessControl.sol\":2729:2761  type(IAccessControl).interfaceId */\n      0x7965db0b00000000000000000000000000000000000000000000000000000000\n        /* \"@openzeppelin/contracts/access/AccessControl.sol\":2714:2761  interfaceId == type(IAccessControl).interfaceId */\n      not(0xffffffffffffffffffffffffffffffffffffffffffffffffffffffff)\n      and\n        /* \"@openzeppelin/contracts/access/AccessControl.sol\":2714:2725  interfaceId */\n      dup3\n        /* \"@openzeppelin/contracts/access/AccessControl.sol\":2714:2761  interfaceId == type(IAccessControl).interfaceId */\n      not(0xffffffffffffffffffffffffffffffffffffffffffffffffffffffff)\n      and\n      eq\n        /* \"@openzeppelin/contracts/access/AccessControl.sol\":2714:2801  interfaceId == type(IAccessControl).interfaceId || super.supportsInterface(interfaceId) */\n      dup1\n      tag_44\n      jumpi\n      pop\n        /* \"@openzeppelin/contracts/access/AccessControl.sol\":2765:2801  super.supportsInterface(interfaceId) */\n      tag_45\n        /* \"@openzeppelin/contracts/access/AccessControl.sol\":2789:2800  interfaceId */\n      dup3\n        /* \"@openzeppelin/contracts/access/AccessControl.sol\":2765:2788  super.supportsInterface */\n      tag_46\n        /* \"@openzeppelin/contracts/access/AccessControl.sol\":2765:2801  super.supportsInterface(interfaceId) */\n      jump\t// in\n    tag_45:\n        /* \"@openzeppelin/contracts/access/AccessControl.sol\":2714:2801  interfaceId == type(IAccessControl).interfaceId || super.supportsInterface(interfaceId) */\n    tag_44:\n        /* \"@openzeppelin/contracts/access/AccessControl.sol\":2707:2801  return interfaceId == type(IAccessControl).interfaceId || super.supportsInterface(interfaceId) */\n      swap1\n      pop\n        /* \"@openzeppelin/contracts/access/AccessControl.sol\":2606:2808  function supportsInterface(bytes4 interfaceId) public view virtual override returns (bool) {... */\n      swap2\n      swap1\n      pop\n      jump\t// out\n        /* \"@openzeppelin/contracts/access/AccessControl.sol\":4391:4520  function getRoleAdmin(bytes32 role) public view virtual override returns (bytes32) {... */\n    tag_21:\n        /* \"@openzeppelin/contracts/access/AccessControl.sol\":4465:4472  bytes32 */\n      0x00\n        /* \"@openzeppelin/contracts/access/AccessControl.sol\":4491:4497  _roles */\n      dup1\n        /* \"@openzeppelin/contracts/access/AccessControl.sol\":4491:4503  _roles[role] */\n      0x00\n        /* \"@openzeppelin/contracts/access/AccessControl.sol\":4498:4502  role */\n      dup4\n        /* \"@openzeppelin/contracts/access/AccessControl.sol\":4491:4503  _roles[role] */\n      dup2\n      mstore\n      0x20\n      add\n      swap1\n      dup2\n      mstore\n      0x20\n      add\n      0x00\n      keccak256\n        /* \"@openzeppelin/contracts/access/AccessControl.sol\":4491:4513  _roles[role].adminRole */\n      0x01\n      add\n      sload\n        /* \"@openzeppelin/contracts/access/AccessControl.sol\":4484:4513  return _roles[role].adminRole */\n      swap1\n      pop\n        /* \"@openzeppelin/contracts/access/AccessControl.sol\":4391:4520  function getRoleAdmin(bytes32 role) public view virtual override returns (bytes32) {... */\n      swap2\n      swap1\n      pop\n      jump\t// out\n        /* \"@openzeppelin/contracts/access/AccessControl.sol\":4816:4961  function grantRole(bytes32 role, address account) public virtual override onlyRole(getRoleAdmin(role)) {... */\n    tag_27:\n        /* \"@openzeppelin/contracts/access/AccessControl.sol\":4899:4917  getRoleAdmin(role) */\n      tag_48\n        /* \"@openzeppelin/contracts/access/AccessControl.sol\":4912:4916  role */\n      dup3\n        /* \"@openzeppelin/contracts/access/AccessControl.sol\":4899:4911  getRoleAdmin */\n      tag_21\n        /* \"@openzeppelin/contracts/access/AccessControl.sol\":4899:4917  getRoleAdmin(role) */\n      jump\t// in\n    tag_48:\n        /* \"@openzeppelin/contracts/access/AccessControl.sol\":2505:2521  _checkRole(role) */\n      tag_50\n        /* \"@openzeppelin/contracts/access/AccessControl.sol\":2516:2520  role */\n      dup2\n        /* \"@openzeppelin/contracts/access/AccessControl.sol\":2505:2515  _checkRole */\n      tag_51\n        /* \"@openzeppelin/contracts/access/AccessControl.sol\":2505:2521  _checkRole(role) */\n      jump\t// in\n    tag_50:\n        /* \"@openzeppelin/contracts/access/AccessControl.sol\":4929:4954  _grantRole(role, account) */\n      tag_53\n        /* \"@openzeppelin/contracts/access/AccessControl.sol\":4940:4944  role */\n      dup4\n        /* \"@openzeppelin/contracts/access/AccessControl.sol\":4946:4953  account */\n      dup4\n        /* \"@openzeppelin/contracts/access/AccessControl.sol\":4929:4939  _grantRole */\n      tag_54\n        /* \"@openzeppelin/contracts/access/AccessControl.sol\":4929:4954  _grantRole(role, account) */\n      jump\t// in\n    tag_53:\n        /* \"@openzeppelin/contracts/access/AccessControl.sol\":4816:4961  function grantRole(bytes32 role, address account) public virtual override onlyRole(getRoleAdmin(role)) {... */\n      pop\n      pop\n      pop\n      jump\t// out\n        /* \"@openzeppelin/contracts/access/AccessControl.sol\":5925:6139  function renounceRole(bytes32 role, address account) public virtual override {... */\n    tag_30:\n        /* \"@openzeppelin/contracts/access/AccessControl.sol\":6031:6043  _msgSender() */\n      tag_56\n        /* \"@openzeppelin/contracts/access/AccessControl.sol\":6031:6041  _msgSender */\n      tag_57\n        /* \"@openzeppelin/contracts/access/AccessControl.sol\":6031:6043  _msgSender() */\n      jump\t// in\n    tag_56:\n        /* \"@openzeppelin/contracts/access/AccessControl.sol\":6020:6043  account == _msgSender() */\n      0xffffffffffffffffffffffffffffffffffffffff\n      and\n        /* \"@openzeppelin/contracts/access/AccessControl.sol\":6020:6027  account */\n      dup2\n        /* \"@openzeppelin/contracts/access/AccessControl.sol\":6020:6043  account == _msgSender() */\n      0xffffffffffffffffffffffffffffffffffffffff\n      and\n      eq\n        /* \"@openzeppelin/contracts/access/AccessControl.sol\":6012:6095  require(account == _msgSender(), \"AccessControl: can only renounce roles for self\") */\n      tag_58\n      jumpi\n      mload(0x40)\n      0x08c379a000000000000000000000000000000000000000000000000000000000\n      dup2\n      mstore\n      0x04\n      add\n      tag_59\n      swap1\n      tag_60\n      jump\t// in\n    tag_59:\n      mload(0x40)\n      dup1\n      swap2\n      sub\n      swap1\n      revert\n    tag_58:\n        /* \"@openzeppelin/contracts/access/AccessControl.sol\":6106:6132  _revokeRole(role, account) */\n      tag_61\n        /* \"@openzeppelin/contracts/access/AccessControl.sol\":6118:6122  role */\n      dup3\n        /* \"@openzeppelin/contracts/access/AccessControl.sol\":6124:6131  account */\n      dup3\n        /* \"@openzeppelin/contracts/access/AccessControl.sol\":6106:6117  _revokeRole */\n      tag_62\n        /* \"@openzeppelin/contracts/access/AccessControl.sol\":6106:6132  _revokeRole(role, account) */\n      jump\t// in\n    tag_61:\n        /* \"@openzeppelin/contracts/access/AccessControl.sol\":5925:6139  function renounceRole(bytes32 role, address account) public virtual override {... */\n      pop\n      pop\n      jump\t// out\n        /* \"@openzeppelin/contracts/access/AccessControl.sol\":2895:3040  function hasRole(bytes32 role, address account) public view virtual override returns (bool) {... */\n    tag_33:\n        /* \"@openzeppelin/contracts/access/AccessControl.sol\":2981:2985  bool */\n      0x00\n        /* \"@openzeppelin/contracts/access/AccessControl.sol\":3004:3010  _roles */\n      dup1\n        /* \"@openzeppelin/contracts/access/AccessControl.sol\":3004:3016  _roles[role] */\n      0x00\n        /* \"@openzeppelin/contracts/access/AccessControl.sol\":3011:3015  role */\n      dup5\n        /* \"@openzeppelin/contracts/access/AccessControl.sol\":3004:3016  _roles[role] */\n      dup2\n      mstore\n      0x20\n      add\n      swap1\n      dup2\n      mstore\n      0x20\n      add\n      0x00\n      keccak256\n        /* \"@openzeppelin/contracts/access/AccessControl.sol\":3004:3024  _roles[role].members */\n      0x00\n      add\n        /* \"@openzeppelin/contracts/access/AccessControl.sol\":3004:3033  _roles[role].members[account] */\n      0x00\n        /* \"@openzeppelin/contracts/access/AccessControl.sol\":3025:3032  account */\n      dup4\n        /* \"@openzeppelin/contracts/access/AccessControl.sol\":3004:3033  _roles[role].members[account] */\n      0xffffffffffffffffffffffffffffffffffffffff\n      and\n      0xffffffffffffffffffffffffffffffffffffffff\n      and\n      dup2\n      mstore\n      0x20\n      add\n      swap1\n      dup2\n      mstore\n      0x20\n      add\n      0x00\n      keccak256\n      0x00\n      swap1\n      sload\n      swap1\n      0x0100\n      exp\n      swap1\n      div\n      0xff\n      and\n        /* \"@openzeppelin/contracts/access/AccessControl.sol\":2997:3033  return _roles[role].members[account] */\n      swap1\n      pop\n        /* \"@openzeppelin/contracts/access/AccessControl.sol\":2895:3040  function hasRole(bytes32 role, address account) public view virtual override returns (bool) {... */\n      swap3\n      swap2\n      pop\n      pop\n      jump\t// out\n        /* \"@openzeppelin/contracts/access/AccessControl.sol\":2027:2076  bytes32 public constant DEFAULT_ADMIN_ROLE = 0x00 */\n    tag_36:\n        /* \"@openzeppelin/contracts/access/AccessControl.sol\":2072:2076  0x00 */\n      0x00\n        /* \"@openzeppelin/contracts/access/AccessControl.sol\":2027:2076  bytes32 public constant DEFAULT_ADMIN_ROLE = 0x00 */\n      dup1\n      shl\n      dup2\n      jump\t// out\n        /* \"contracts/DaoTest.sol\":682:782  function trytodo() teststring(\"dfaffdadf\") public {\r... */\n    tag_39:\n        /* \"contracts/DaoTest.sol\":579:674  modifier teststring(string memory _name) {\r... */\n      mload(0x40)\n      dup1\n      0x40\n      add\n      0x40\n      mstore\n      dup1\n      0x09\n      dup2\n      mstore\n      0x20\n      add\n      0x6466616666646164660000000000000000000000000000000000000000000000\n      dup2\n      mstore\n      pop\n        /* \"contracts/DaoTest.sol\":636:654  someOutputs(_name) */\n      0x63e9370c5b01ee8896e536f1f2fc902c945d630eb37faf0981fb9146088fc423\n        /* \"contracts/DaoTest.sol\":648:653  _name */\n      dup2\n        /* \"contracts/DaoTest.sol\":636:654  someOutputs(_name) */\n      mload(0x40)\n      tag_65\n      swap2\n      swap1\n      tag_66\n      jump\t// in\n    tag_65:\n      mload(0x40)\n      dup1\n      swap2\n      sub\n      swap1\n      log1\n        /* \"contracts/DaoTest.sol\":748:774  someOutputs(\"dfafadfafda\") */\n      0x63e9370c5b01ee8896e536f1f2fc902c945d630eb37faf0981fb9146088fc423\n      mload(0x40)\n      tag_68\n      swap1\n      tag_69\n      jump\t// in\n    tag_68:\n      mload(0x40)\n      dup1\n      swap2\n      sub\n      swap1\n      log1\n        /* \"contracts/DaoTest.sol\":682:782  function trytodo() teststring(\"dfaffdadf\") public {\r... */\n      pop\n      jump\t// out\n        /* \"@openzeppelin/contracts/access/AccessControl.sol\":5241:5388  function revokeRole(bytes32 role, address account) public virtual override onlyRole(getRoleAdmin(role)) {... */\n    tag_42:\n        /* \"@openzeppelin/contracts/access/AccessControl.sol\":5325:5343  getRoleAdmin(role) */\n      tag_70\n        /* \"@openzeppelin/contracts/access/AccessControl.sol\":5338:5342  role */\n      dup3\n        /* \"@openzeppelin/contracts/access/AccessControl.sol\":5325:5337  getRoleAdmin */\n      tag_21\n        /* \"@openzeppelin/contracts/access/AccessControl.sol\":5325:5343  getRoleAdmin(role) */\n      jump\t// in\n    tag_70:\n        /* \"@openzeppelin/contracts/access/AccessControl.sol\":2505:2521  _checkRole(role) */\n      tag_72\n        /* \"@openzeppelin/contracts/access/AccessControl.sol\":2516:2520  role */\n      dup2\n        /* \"@openzeppelin/contracts/access/AccessControl.sol\":2505:2515  _checkRole */\n      tag_51\n        /* \"@openzeppelin/contracts/access/AccessControl.sol\":2505:2521  _checkRole(role) */\n      jump\t// in\n    tag_72:\n        /* \"@openzeppelin/contracts/access/AccessControl.sol\":5355:5381  _revokeRole(role, account) */\n      tag_74\n        /* \"@openzeppelin/contracts/access/AccessControl.sol\":5367:5371  role */\n      dup4\n        /* \"@openzeppelin/contracts/access/AccessControl.sol\":5373:5380  account */\n      dup4\n        /* \"@openzeppelin/contracts/access/AccessControl.sol\":5355:5366  _revokeRole */\n      tag_62\n        /* \"@openzeppelin/contracts/access/AccessControl.sol\":5355:5381  _revokeRole(role, account) */\n      jump\t// in\n    tag_74:\n        /* \"@openzeppelin/contracts/access/AccessControl.sol\":5241:5388  function revokeRole(bytes32 role, address account) public virtual override onlyRole(getRoleAdmin(role)) {... */\n      pop\n      pop\n      pop\n      jump\t// out\n        /* \"@openzeppelin/contracts/utils/introspection/ERC165.sol\":829:984  function supportsInterface(bytes4 interfaceId) public view virtual override returns (bool) {... */\n    tag_46:\n        /* \"@openzeppelin/contracts/utils/introspection/ERC165.sol\":914:918  bool */\n      0x00\n        /* \"@openzeppelin/contracts/utils/introspection/ERC165.sol\":952:977  type(IERC165).interfaceId */\n      0x01ffc9a700000000000000000000000000000000000000000000000000000000\n        /* \"@openzeppelin/contracts/utils/introspection/ERC165.sol\":937:977  interfaceId == type(IERC165).interfaceId */\n      not(0xffffffffffffffffffffffffffffffffffffffffffffffffffffffff)\n      and\n        /* \"@openzeppelin/contracts/utils/introspection/ERC165.sol\":937:948  interfaceId */\n      dup3\n        /* \"@openzeppelin/contracts/utils/introspection/ERC165.sol\":937:977  interfaceId == type(IERC165).interfaceId */\n      not(0xffffffffffffffffffffffffffffffffffffffffffffffffffffffff)\n      and\n      eq\n        /* \"@openzeppelin/contracts/utils/introspection/ERC165.sol\":930:977  return interfaceId == type(IERC165).interfaceId */\n      swap1\n      pop\n        /* \"@openzeppelin/contracts/utils/introspection/ERC165.sol\":829:984  function supportsInterface(bytes4 interfaceId) public view virtual override returns (bool) {... */\n      swap2\n      swap1\n      pop\n      jump\t// out\n        /* \"@openzeppelin/contracts/access/AccessControl.sol\":3334:3437  function _checkRole(bytes32 role) internal view virtual {... */\n    tag_51:\n        /* \"@openzeppelin/contracts/access/AccessControl.sol\":3400:3430  _checkRole(role, _msgSender()) */\n      tag_77\n        /* \"@openzeppelin/contracts/access/AccessControl.sol\":3411:3415  role */\n      dup2\n        /* \"@openzeppelin/contracts/access/AccessControl.sol\":3417:3429  _msgSender() */\n      tag_78\n        /* \"@openzeppelin/contracts/access/AccessControl.sol\":3417:3427  _msgSender */\n      tag_57\n        /* \"@openzeppelin/contracts/access/AccessControl.sol\":3417:3429  _msgSender() */\n      jump\t// in\n    tag_78:\n        /* \"@openzeppelin/contracts/access/AccessControl.sol\":3400:3410  _checkRole */\n      tag_79\n        /* \"@openzeppelin/contracts/access/AccessControl.sol\":3400:3430  _checkRole(role, _msgSender()) */\n      jump\t// in\n    tag_77:\n        /* \"@openzeppelin/contracts/access/AccessControl.sol\":3334:3437  function _checkRole(bytes32 role) internal view virtual {... */\n      pop\n      jump\t// out\n        /* \"@openzeppelin/contracts/access/AccessControl.sol\":7474:7707  function _grantRole(bytes32 role, address account) internal virtual {... */\n    tag_54:\n        /* \"@openzeppelin/contracts/access/AccessControl.sol\":7557:7579  hasRole(role, account) */\n      tag_81\n        /* \"@openzeppelin/contracts/access/AccessControl.sol\":7565:7569  role */\n      dup3\n        /* \"@openzeppelin/contracts/access/AccessControl.sol\":7571:7578  account */\n      dup3\n        /* \"@openzeppelin/contracts/access/AccessControl.sol\":7557:7564  hasRole */\n      tag_33\n        /* \"@openzeppelin/contracts/access/AccessControl.sol\":7557:7579  hasRole(role, account) */\n      jump\t// in\n    tag_81:\n        /* \"@openzeppelin/contracts/access/AccessControl.sol\":7552:7701  if (!hasRole(role, account)) {... */\n      tag_82\n      jumpi\n        /* \"@openzeppelin/contracts/access/AccessControl.sol\":7627:7631  true */\n      0x01\n        /* \"@openzeppelin/contracts/access/AccessControl.sol\":7595:7601  _roles */\n      0x00\n        /* \"@openzeppelin/contracts/access/AccessControl.sol\":7595:7607  _roles[role] */\n      dup1\n        /* \"@openzeppelin/contracts/access/AccessControl.sol\":7602:7606  role */\n      dup5\n        /* \"@openzeppelin/contracts/access/AccessControl.sol\":7595:7607  _roles[role] */\n      dup2\n      mstore\n      0x20\n      add\n      swap1\n      dup2\n      mstore\n      0x20\n      add\n      0x00\n      keccak256\n        /* \"@openzeppelin/contracts/access/AccessControl.sol\":7595:7615  _roles[role].members */\n      0x00\n      add\n        /* \"@openzeppelin/contracts/access/AccessControl.sol\":7595:7624  _roles[role].members[account] */\n      0x00\n        /* \"@openzeppelin/contracts/access/AccessControl.sol\":7616:7623  account */\n      dup4\n        /* \"@openzeppelin/contracts/access/AccessControl.sol\":7595:7624  _roles[role].members[account] */\n      0xffffffffffffffffffffffffffffffffffffffff\n      and\n      0xffffffffffffffffffffffffffffffffffffffff\n      and\n      dup2\n      mstore\n      0x20\n      add\n      swap1\n      dup2\n      mstore\n      0x20\n      add\n      0x00\n      keccak256\n      0x00\n        /* \"@openzeppelin/contracts/access/AccessControl.sol\":7595:7631  _roles[role].members[account] = true */\n      0x0100\n      exp\n      dup2\n      sload\n      dup2\n      0xff\n      mul\n      not\n      and\n      swap1\n      dup4\n      iszero\n      iszero\n      mul\n      or\n      swap1\n      sstore\n      pop\n        /* \"@openzeppelin/contracts/access/AccessControl.sol\":7677:7689  _msgSender() */\n      tag_83\n        /* \"@openzeppelin/contracts/access/AccessControl.sol\":7677:7687  _msgSender */\n      tag_57\n        /* \"@openzeppelin/contracts/access/AccessControl.sol\":7677:7689  _msgSender() */\n      jump\t// in\n    tag_83:\n        /* \"@openzeppelin/contracts/access/AccessControl.sol\":7650:7690  RoleGranted(role, account, _msgSender()) */\n      0xffffffffffffffffffffffffffffffffffffffff\n      and\n        /* \"@openzeppelin/contracts/access/AccessControl.sol\":7668:7675  account */\n      dup2\n        /* \"@openzeppelin/contracts/access/AccessControl.sol\":7650:7690  RoleGranted(role, account, _msgSender()) */\n      0xffffffffffffffffffffffffffffffffffffffff\n      and\n        /* \"@openzeppelin/contracts/access/AccessControl.sol\":7662:7666  role */\n      dup4\n        /* \"@openzeppelin/contracts/access/AccessControl.sol\":7650:7690  RoleGranted(role, account, _msgSender()) */\n      0x2f8788117e7eff1d82e926ec794901d17c78024a50270940304540a733656f0d\n      mload(0x40)\n      mload(0x40)\n      dup1\n      swap2\n      sub\n      swap1\n      log4\n        /* \"@openzeppelin/contracts/access/AccessControl.sol\":7552:7701  if (!hasRole(role, account)) {... */\n    tag_82:\n        /* \"@openzeppelin/contracts/access/AccessControl.sol\":7474:7707  function _grantRole(bytes32 role, address account) internal virtual {... */\n      pop\n      pop\n      jump\t// out\n        /* \"@openzeppelin/contracts/utils/Context.sol\":640:736  function _msgSender() internal view virtual returns (address) {... */\n    tag_57:\n        /* \"@openzeppelin/contracts/utils/Context.sol\":693:700  address */\n      0x00\n        /* \"@openzeppelin/contracts/utils/Context.sol\":719:729  msg.sender */\n      caller\n        /* \"@openzeppelin/contracts/utils/Context.sol\":712:729  return msg.sender */\n      swap1\n      pop\n        /* \"@openzeppelin/contracts/utils/Context.sol\":640:736  function _msgSender() internal view virtual returns (address) {... */\n      swap1\n      jump\t// out\n        /* \"@openzeppelin/contracts/access/AccessControl.sol\":7878:8112  function _revokeRole(bytes32 role, address account) internal virtual {... */\n    tag_62:\n        /* \"@openzeppelin/contracts/access/AccessControl.sol\":7961:7983  hasRole(role, account) */\n      tag_86\n        /* \"@openzeppelin/contracts/access/AccessControl.sol\":7969:7973  role */\n      dup3\n        /* \"@openzeppelin/contracts/access/AccessControl.sol\":7975:7982  account */\n      dup3\n        /* \"@openzeppelin/contracts/access/AccessControl.sol\":7961:7968  hasRole */\n      tag_33\n        /* \"@openzeppelin/contracts/access/AccessControl.sol\":7961:7983  hasRole(role, account) */\n      jump\t// in\n    tag_86:\n        /* \"@openzeppelin/contracts/access/AccessControl.sol\":7957:8106  if (hasRole(role, account)) {... */\n      iszero\n      tag_87\n      jumpi\n        /* \"@openzeppelin/contracts/access/AccessControl.sol\":8031:8036  false */\n      0x00\n        /* \"@openzeppelin/contracts/access/AccessControl.sol\":7999:8005  _roles */\n      dup1\n        /* \"@openzeppelin/contracts/access/AccessControl.sol\":7999:8011  _roles[role] */\n      0x00\n        /* \"@openzeppelin/contracts/access/AccessControl.sol\":8006:8010  role */\n      dup5\n        /* \"@openzeppelin/contracts/access/AccessControl.sol\":7999:8011  _roles[role] */\n      dup2\n      mstore\n      0x20\n      add\n      swap1\n      dup2\n      mstore\n      0x20\n      add\n      0x00\n      keccak256\n        /* \"@openzeppelin/contracts/access/AccessControl.sol\":7999:8019  _roles[role].members */\n      0x00\n      add\n        /* \"@openzeppelin/contracts/access/AccessControl.sol\":7999:8028  _roles[role].members[account] */\n      0x00\n        /* \"@openzeppelin/contracts/access/AccessControl.sol\":8020:8027  account */\n      dup4\n        /* \"@openzeppelin/contracts/access/AccessControl.sol\":7999:8028  _roles[role].members[account] */\n      0xffffffffffffffffffffffffffffffffffffffff\n      and\n      0xffffffffffffffffffffffffffffffffffffffff\n      and\n      dup2\n      mstore\n      0x20\n      add\n      swap1\n      dup2\n      mstore\n      0x20\n      add\n      0x00\n      keccak256\n      0x00\n        /* \"@openzeppelin/contracts/access/AccessControl.sol\":7999:8036  _roles[role].members[account] = false */\n      0x0100\n      exp\n      dup2\n      sload\n      dup2\n      0xff\n      mul\n      not\n      and\n      swap1\n      dup4\n      iszero\n      iszero\n      mul\n      or\n      swap1\n      sstore\n      pop\n        /* \"@openzeppelin/contracts/access/AccessControl.sol\":8082:8094  _msgSender() */\n      tag_88\n        /* \"@openzeppelin/contracts/access/AccessControl.sol\":8082:8092  _msgSender */\n      tag_57\n        /* \"@openzeppelin/contracts/access/AccessControl.sol\":8082:8094  _msgSender() */\n      jump\t// in\n    tag_88:\n        /* \"@openzeppelin/contracts/access/AccessControl.sol\":8055:8095  RoleRevoked(role, account, _msgSender()) */\n      0xffffffffffffffffffffffffffffffffffffffff\n      and\n        /* \"@openzeppelin/contracts/access/AccessControl.sol\":8073:8080  account */\n      dup2\n        /* \"@openzeppelin/contracts/access/AccessControl.sol\":8055:8095  RoleRevoked(role, account, _msgSender()) */\n      0xffffffffffffffffffffffffffffffffffffffff\n      and\n        /* \"@openzeppelin/contracts/access/AccessControl.sol\":8067:8071  role */\n      dup4\n        /* \"@openzeppelin/contracts/access/AccessControl.sol\":8055:8095  RoleRevoked(role, account, _msgSender()) */\n      0xf6391f5c32d9c69d2a47ea670b442974b53935d1edc7fd64eb21e047a839171b\n      mload(0x40)\n      mload(0x40)\n      dup1\n      swap2\n      sub\n      swap1\n      log4\n        /* \"@openzeppelin/contracts/access/AccessControl.sol\":7957:8106  if (hasRole(role, account)) {... */\n    tag_87:\n        /* \"@openzeppelin/contracts/access/AccessControl.sol\":7878:8112  function _revokeRole(bytes32 role, address account) internal virtual {... */\n      pop\n      pop\n      jump\t// out\n        /* \"@openzeppelin/contracts/access/AccessControl.sol\":3718:4210  function _checkRole(bytes32 role, address account) internal view virtual {... */\n    tag_79:\n        /* \"@openzeppelin/contracts/access/AccessControl.sol\":3806:3828  hasRole(role, account) */\n      tag_90\n        /* \"@openzeppelin/contracts/access/AccessControl.sol\":3814:3818  role */\n      dup3\n        /* \"@openzeppelin/contracts/access/AccessControl.sol\":3820:3827  account */\n      dup3\n        /* \"@openzeppelin/contracts/access/AccessControl.sol\":3806:3813  hasRole */\n      tag_33\n        /* \"@openzeppelin/contracts/access/AccessControl.sol\":3806:3828  hasRole(role, account) */\n      jump\t// in\n    tag_90:\n        /* \"@openzeppelin/contracts/access/AccessControl.sol\":3801:4204  if (!hasRole(role, account)) {... */\n      tag_91\n      jumpi\n        /* \"@openzeppelin/contracts/access/AccessControl.sol\":3989:4030  Strings.toHexString(uint160(account), 20) */\n      tag_92\n        /* \"@openzeppelin/contracts/access/AccessControl.sol\":4017:4024  account */\n      dup2\n        /* \"@openzeppelin/contracts/access/AccessControl.sol\":3989:4030  Strings.toHexString(uint160(account), 20) */\n      0xffffffffffffffffffffffffffffffffffffffff\n      and\n        /* \"@openzeppelin/contracts/access/AccessControl.sol\":4027:4029  20 */\n      0x14\n        /* \"@openzeppelin/contracts/access/AccessControl.sol\":3989:4008  Strings.toHexString */\n      tag_93\n        /* \"@openzeppelin/contracts/access/AccessControl.sol\":3989:4030  Strings.toHexString(uint160(account), 20) */\n      jump\t// in\n    tag_92:\n        /* \"@openzeppelin/contracts/access/AccessControl.sol\":4101:4139  Strings.toHexString(uint256(role), 32) */\n      tag_94\n        /* \"@openzeppelin/contracts/access/AccessControl.sol\":4129:4133  role */\n      dup4\n        /* \"@openzeppelin/contracts/access/AccessControl.sol\":4121:4134  uint256(role) */\n      0x00\n      shr\n        /* \"@openzeppelin/contracts/access/AccessControl.sol\":4136:4138  32 */\n      0x20\n        /* \"@openzeppelin/contracts/access/AccessControl.sol\":4101:4120  Strings.toHexString */\n      tag_93\n        /* \"@openzeppelin/contracts/access/AccessControl.sol\":4101:4139  Strings.toHexString(uint256(role), 32) */\n      jump\t// in\n    tag_94:\n        /* \"@openzeppelin/contracts/access/AccessControl.sol\":3896:4161  abi.encodePacked(... */\n      add(0x20, mload(0x40))\n      tag_95\n      swap3\n      swap2\n      swap1\n      tag_96\n      jump\t// in\n    tag_95:\n      mload(0x40)\n      0x20\n      dup2\n      dup4\n      sub\n      sub\n      dup2\n      mstore\n      swap1\n      0x40\n      mstore\n        /* \"@openzeppelin/contracts/access/AccessControl.sol\":3844:4193  revert(... */\n      mload(0x40)\n      0x08c379a000000000000000000000000000000000000000000000000000000000\n      dup2\n      mstore\n      0x04\n      add\n      tag_97\n      swap2\n      swap1\n      tag_66\n      jump\t// in\n    tag_97:\n      mload(0x40)\n      dup1\n      swap2\n      sub\n      swap1\n      revert\n        /* \"@openzeppelin/contracts/access/AccessControl.sol\":3801:4204  if (!hasRole(role, account)) {... */\n    tag_91:\n        /* \"@openzeppelin/contracts/access/AccessControl.sol\":3718:4210  function _checkRole(bytes32 role, address account) internal view virtual {... */\n      pop\n      pop\n      jump\t// out\n        /* \"@openzeppelin/contracts/utils/Strings.sol\":1652:2093  function toHexString(uint256 value, uint256 length) internal pure returns (string memory) {... */\n    tag_93:\n        /* \"@openzeppelin/contracts/utils/Strings.sol\":1727:1740  string memory */\n      0x60\n        /* \"@openzeppelin/contracts/utils/Strings.sol\":1752:1771  bytes memory buffer */\n      0x00\n        /* \"@openzeppelin/contracts/utils/Strings.sol\":1797:1798  2 */\n      0x02\n        /* \"@openzeppelin/contracts/utils/Strings.sol\":1788:1794  length */\n      dup4\n        /* \"@openzeppelin/contracts/utils/Strings.sol\":1784:1785  2 */\n      0x02\n        /* \"@openzeppelin/contracts/utils/Strings.sol\":1784:1794  2 * length */\n      tag_99\n      swap2\n      swap1\n      tag_100\n      jump\t// in\n    tag_99:\n        /* \"@openzeppelin/contracts/utils/Strings.sol\":1784:1798  2 * length + 2 */\n      tag_101\n      swap2\n      swap1\n      tag_102\n      jump\t// in\n    tag_101:\n        /* \"@openzeppelin/contracts/utils/Strings.sol\":1774:1799  new bytes(2 * length + 2) */\n      0xffffffffffffffff\n      dup2\n      gt\n      iszero\n      tag_103\n      jumpi\n      tag_104\n      tag_105\n      jump\t// in\n    tag_104:\n    tag_103:\n      mload(0x40)\n      swap1\n      dup1\n      dup3\n      mstore\n      dup1\n      0x1f\n      add\n      not(0x1f)\n      and\n      0x20\n      add\n      dup3\n      add\n      0x40\n      mstore\n      dup1\n      iszero\n      tag_106\n      jumpi\n      dup2\n      0x20\n      add\n      0x01\n      dup3\n      mul\n      dup1\n      calldatasize\n      dup4\n      calldatacopy\n      dup1\n      dup3\n      add\n      swap2\n      pop\n      pop\n      swap1\n      pop\n    tag_106:\n      pop\n        /* \"@openzeppelin/contracts/utils/Strings.sol\":1752:1799  bytes memory buffer = new bytes(2 * length + 2) */\n      swap1\n      pop\n        /* \"@openzeppelin/contracts/utils/Strings.sol\":1809:1824  buffer[0] = \"0\" */\n      0x3000000000000000000000000000000000000000000000000000000000000000\n        /* \"@openzeppelin/contracts/utils/Strings.sol\":1809:1815  buffer */\n      dup2\n        /* \"@openzeppelin/contracts/utils/Strings.sol\":1816:1817  0 */\n      0x00\n        /* \"@openzeppelin/contracts/utils/Strings.sol\":1809:1818  buffer[0] */\n      dup2\n      mload\n      dup2\n      lt\n      tag_107\n      jumpi\n      tag_108\n      tag_109\n      jump\t// in\n    tag_108:\n    tag_107:\n      0x20\n      add\n      add\n        /* \"@openzeppelin/contracts/utils/Strings.sol\":1809:1824  buffer[0] = \"0\" */\n      swap1\n      not(0xffffffffffffffffffffffffffffffffffffffffffffffffffffffffffffff)\n      and\n      swap1\n      dup2\n      0x00\n      byte\n      swap1\n      mstore8\n      pop\n        /* \"@openzeppelin/contracts/utils/Strings.sol\":1834:1849  buffer[1] = \"x\" */\n      0x7800000000000000000000000000000000000000000000000000000000000000\n        /* \"@openzeppelin/contracts/utils/Strings.sol\":1834:1840  buffer */\n      dup2\n        /* \"@openzeppelin/contracts/utils/Strings.sol\":1841:1842  1 */\n      0x01\n        /* \"@openzeppelin/contracts/utils/Strings.sol\":1834:1843  buffer[1] */\n      dup2\n      mload\n      dup2\n      lt\n      tag_110\n      jumpi\n      tag_111\n      tag_109\n      jump\t// in\n    tag_111:\n    tag_110:\n      0x20\n      add\n      add\n        /* \"@openzeppelin/contracts/utils/Strings.sol\":1834:1849  buffer[1] = \"x\" */\n      swap1\n      not(0xffffffffffffffffffffffffffffffffffffffffffffffffffffffffffffff)\n      and\n      swap1\n      dup2\n      0x00\n      byte\n      swap1\n      mstore8\n      pop\n        /* \"@openzeppelin/contracts/utils/Strings.sol\":1864:1873  uint256 i */\n      0x00\n        /* \"@openzeppelin/contracts/utils/Strings.sol\":1889:1890  1 */\n      0x01\n        /* \"@openzeppelin/contracts/utils/Strings.sol\":1880:1886  length */\n      dup5\n        /* \"@openzeppelin/contracts/utils/Strings.sol\":1876:1877  2 */\n      0x02\n        /* \"@openzeppelin/contracts/utils/Strings.sol\":1876:1886  2 * length */\n      tag_115\n      swap2\n      swap1\n      tag_100\n      jump\t// in\n    tag_115:\n        /* \"@openzeppelin/contracts/utils/Strings.sol\":1876:1890  2 * length + 1 */\n      tag_116\n      swap2\n      swap1\n      tag_102\n      jump\t// in\n    tag_116:\n        /* \"@openzeppelin/contracts/utils/Strings.sol\":1864:1890  uint256 i = 2 * length + 1 */\n      swap1\n      pop\n        /* \"@openzeppelin/contracts/utils/Strings.sol\":1859:1991  for (uint256 i = 2 * length + 1; i > 1; --i) {... */\n    tag_112:\n        /* \"@openzeppelin/contracts/utils/Strings.sol\":1896:1897  1 */\n      0x01\n        /* \"@openzeppelin/contracts/utils/Strings.sol\":1892:1893  i */\n      dup2\n        /* \"@openzeppelin/contracts/utils/Strings.sol\":1892:1897  i > 1 */\n      gt\n        /* \"@openzeppelin/contracts/utils/Strings.sol\":1859:1991  for (uint256 i = 2 * length + 1; i > 1; --i) {... */\n      iszero\n      tag_113\n      jumpi\n        /* \"@openzeppelin/contracts/utils/Strings.sol\":1930:1942  _HEX_SYMBOLS */\n      0x3031323334353637383961626364656600000000000000000000000000000000\n        /* \"@openzeppelin/contracts/utils/Strings.sol\":1951:1954  0xf */\n      0x0f\n        /* \"@openzeppelin/contracts/utils/Strings.sol\":1943:1948  value */\n      dup7\n        /* \"@openzeppelin/contracts/utils/Strings.sol\":1943:1954  value & 0xf */\n      and\n        /* \"@openzeppelin/contracts/utils/Strings.sol\":1930:1955  _HEX_SYMBOLS[value & 0xf] */\n      0x10\n      dup2\n      lt\n      tag_117\n      jumpi\n      tag_118\n      tag_109\n      jump\t// in\n    tag_118:\n    tag_117:\n      byte\n      0xf8\n      shl\n        /* \"@openzeppelin/contracts/utils/Strings.sol\":1918:1924  buffer */\n      dup3\n        /* \"@openzeppelin/contracts/utils/Strings.sol\":1925:1926  i */\n      dup3\n        /* \"@openzeppelin/contracts/utils/Strings.sol\":1918:1927  buffer[i] */\n      dup2\n      mload\n      dup2\n      lt\n      tag_119\n      jumpi\n      tag_120\n      tag_109\n      jump\t// in\n    tag_120:\n    tag_119:\n      0x20\n      add\n      add\n        /* \"@openzeppelin/contracts/utils/Strings.sol\":1918:1955  buffer[i] = _HEX_SYMBOLS[value & 0xf] */\n      swap1\n      not(0xffffffffffffffffffffffffffffffffffffffffffffffffffffffffffffff)\n      and\n      swap1\n      dup2\n      0x00\n      byte\n      swap1\n      mstore8\n      pop\n        /* \"@openzeppelin/contracts/utils/Strings.sol\":1979:1980  4 */\n      0x04\n        /* \"@openzeppelin/contracts/utils/Strings.sol\":1969:1980  value >>= 4 */\n      dup6\n      swap1\n      shr\n      swap5\n      pop\n        /* \"@openzeppelin/contracts/utils/Strings.sol\":1899:1902  --i */\n      dup1\n      tag_121\n      swap1\n      tag_122\n      jump\t// in\n    tag_121:\n      swap1\n      pop\n        /* \"@openzeppelin/contracts/utils/Strings.sol\":1859:1991  for (uint256 i = 2 * length + 1; i > 1; --i) {... */\n      jump(tag_112)\n    tag_113:\n      pop\n        /* \"@openzeppelin/contracts/utils/Strings.sol\":2017:2018  0 */\n      0x00\n        /* \"@openzeppelin/contracts/utils/Strings.sol\":2008:2013  value */\n      dup5\n        /* \"@openzeppelin/contracts/utils/Strings.sol\":2008:2018  value == 0 */\n      eq\n        /* \"@openzeppelin/contracts/utils/Strings.sol\":2000:2055  require(value == 0, \"Strings: hex length insufficient\") */\n      tag_123\n      jumpi\n      mload(0x40)\n      0x08c379a000000000000000000000000000000000000000000000000000000000\n      dup2\n      mstore\n      0x04\n      add\n      tag_124\n      swap1\n      tag_125\n      jump\t// in\n    tag_124:\n      mload(0x40)\n      dup1\n      swap2\n      sub\n      swap1\n      revert\n    tag_123:\n        /* \"@openzeppelin/contracts/utils/Strings.sol\":2079:2085  buffer */\n      dup1\n        /* \"@openzeppelin/contracts/utils/Strings.sol\":2065:2086  return string(buffer) */\n      swap2\n      pop\n      pop\n        /* \"@openzeppelin/contracts/utils/Strings.sol\":1652:2093  function toHexString(uint256 value, uint256 length) internal pure returns (string memory) {... */\n      swap3\n      swap2\n      pop\n      pop\n      jump\t// out\n        /* \"#utility.yul\":7:146   */\n    tag_127:\n        /* \"#utility.yul\":53:58   */\n      0x00\n        /* \"#utility.yul\":91:97   */\n      dup2\n        /* \"#utility.yul\":78:98   */\n      calldataload\n        /* \"#utility.yul\":69:98   */\n      swap1\n      pop\n        /* \"#utility.yul\":107:140   */\n      tag_129\n        /* \"#utility.yul\":134:139   */\n      dup2\n        /* \"#utility.yul\":107:140   */\n      tag_130\n      jump\t// in\n    tag_129:\n        /* \"#utility.yul\":7:146   */\n      swap3\n      swap2\n      pop\n      pop\n      jump\t// out\n        /* \"#utility.yul\":152:291   */\n    tag_131:\n        /* \"#utility.yul\":198:203   */\n      0x00\n        /* \"#utility.yul\":236:242   */\n      dup2\n        /* \"#utility.yul\":223:243   */\n      calldataload\n        /* \"#utility.yul\":214:243   */\n      swap1\n      pop\n        /* \"#utility.yul\":252:285   */\n      tag_133\n        /* \"#utility.yul\":279:284   */\n      dup2\n        /* \"#utility.yul\":252:285   */\n      tag_134\n      jump\t// in\n    tag_133:\n        /* \"#utility.yul\":152:291   */\n      swap3\n      swap2\n      pop\n      pop\n      jump\t// out\n        /* \"#utility.yul\":297:434   */\n    tag_135:\n        /* \"#utility.yul\":342:347   */\n      0x00\n        /* \"#utility.yul\":380:386   */\n      dup2\n        /* \"#utility.yul\":367:387   */\n      calldataload\n        /* \"#utility.yul\":358:387   */\n      swap1\n      pop\n        /* \"#utility.yul\":396:428   */\n      tag_137\n        /* \"#utility.yul\":422:427   */\n      dup2\n        /* \"#utility.yul\":396:428   */\n      tag_138\n      jump\t// in\n    tag_137:\n        /* \"#utility.yul\":297:434   */\n      swap3\n      swap2\n      pop\n      pop\n      jump\t// out\n        /* \"#utility.yul\":440:769   */\n    tag_20:\n        /* \"#utility.yul\":499:505   */\n      0x00\n        /* \"#utility.yul\":548:550   */\n      0x20\n        /* \"#utility.yul\":536:545   */\n      dup3\n        /* \"#utility.yul\":527:534   */\n      dup5\n        /* \"#utility.yul\":523:546   */\n      sub\n        /* \"#utility.yul\":519:551   */\n      slt\n        /* \"#utility.yul\":516:635   */\n      iszero\n      tag_140\n      jumpi\n        /* \"#utility.yul\":554:633   */\n      tag_141\n      tag_142\n      jump\t// in\n    tag_141:\n        /* \"#utility.yul\":516:635   */\n    tag_140:\n        /* \"#utility.yul\":674:675   */\n      0x00\n        /* \"#utility.yul\":699:752   */\n      tag_143\n        /* \"#utility.yul\":744:751   */\n      dup5\n        /* \"#utility.yul\":735:741   */\n      dup3\n        /* \"#utility.yul\":724:733   */\n      dup6\n        /* \"#utility.yul\":720:742   */\n      add\n        /* \"#utility.yul\":699:752   */\n      tag_131\n      jump\t// in\n    tag_143:\n        /* \"#utility.yul\":689:752   */\n      swap2\n      pop\n        /* \"#utility.yul\":645:762   */\n      pop\n        /* \"#utility.yul\":440:769   */\n      swap3\n      swap2\n      pop\n      pop\n      jump\t// out\n        /* \"#utility.yul\":775:1249   */\n    tag_26:\n        /* \"#utility.yul\":843:849   */\n      0x00\n        /* \"#utility.yul\":851:857   */\n      dup1\n        /* \"#utility.yul\":900:902   */\n      0x40\n        /* \"#utility.yul\":888:897   */\n      dup4\n        /* \"#utility.yul\":879:886   */\n      dup6\n        /* \"#utility.yul\":875:898   */\n      sub\n        /* \"#utility.yul\":871:903   */\n      slt\n        /* \"#utility.yul\":868:987   */\n      iszero\n      tag_145\n      jumpi\n        /* \"#utility.yul\":906:985   */\n      tag_146\n      tag_142\n      jump\t// in\n    tag_146:\n        /* \"#utility.yul\":868:987   */\n    tag_145:\n        /* \"#utility.yul\":1026:1027   */\n      0x00\n        /* \"#utility.yul\":1051:1104   */\n      tag_147\n        /* \"#utility.yul\":1096:1103   */\n      dup6\n        /* \"#utility.yul\":1087:1093   */\n      dup3\n        /* \"#utility.yul\":1076:1085   */\n      dup7\n        /* \"#utility.yul\":1072:1094   */\n      add\n        /* \"#utility.yul\":1051:1104   */\n      tag_131\n      jump\t// in\n    tag_147:\n        /* \"#utility.yul\":1041:1104   */\n      swap3\n      pop\n        /* \"#utility.yul\":997:1114   */\n      pop\n        /* \"#utility.yul\":1153:1155   */\n      0x20\n        /* \"#utility.yul\":1179:1232   */\n      tag_148\n        /* \"#utility.yul\":1224:1231   */\n      dup6\n        /* \"#utility.yul\":1215:1221   */\n      dup3\n        /* \"#utility.yul\":1204:1213   */\n      dup7\n        /* \"#utility.yul\":1200:1222   */\n      add\n        /* \"#utility.yul\":1179:1232   */\n      tag_127\n      jump\t// in\n    tag_148:\n        /* \"#utility.yul\":1169:1232   */\n      swap2\n      pop\n        /* \"#utility.yul\":1124:1242   */\n      pop\n        /* \"#utility.yul\":775:1249   */\n      swap3\n      pop\n      swap3\n      swap1\n      pop\n      jump\t// out\n        /* \"#utility.yul\":1255:1582   */\n    tag_14:\n        /* \"#utility.yul\":1313:1319   */\n      0x00\n        /* \"#utility.yul\":1362:1364   */\n      0x20\n        /* \"#utility.yul\":1350:1359   */\n      dup3\n        /* \"#utility.yul\":1341:1348   */\n      dup5\n        /* \"#utility.yul\":1337:1360   */\n      sub\n        /* \"#utility.yul\":1333:1365   */\n      slt\n        /* \"#utility.yul\":1330:1449   */\n      iszero\n      tag_150\n      jumpi\n        /* \"#utility.yul\":1368:1447   */\n      tag_151\n      tag_142\n      jump\t// in\n    tag_151:\n        /* \"#utility.yul\":1330:1449   */\n    tag_150:\n        /* \"#utility.yul\":1488:1489   */\n      0x00\n        /* \"#utility.yul\":1513:1565   */\n      tag_152\n        /* \"#utility.yul\":1557:1564   */\n      dup5\n        /* \"#utility.yul\":1548:1554   */\n      dup3\n        /* \"#utility.yul\":1537:1546   */\n      dup6\n        /* \"#utility.yul\":1533:1555   */\n      add\n        /* \"#utility.yul\":1513:1565   */\n      tag_135\n      jump\t// in\n    tag_152:\n        /* \"#utility.yul\":1503:1565   */\n      swap2\n      pop\n        /* \"#utility.yul\":1459:1575   */\n      pop\n        /* \"#utility.yul\":1255:1582   */\n      swap3\n      swap2\n      pop\n      pop\n      jump\t// out\n        /* \"#utility.yul\":1588:1697   */\n    tag_153:\n        /* \"#utility.yul\":1669:1690   */\n      tag_155\n        /* \"#utility.yul\":1684:1689   */\n      dup2\n        /* \"#utility.yul\":1669:1690   */\n      tag_156\n      jump\t// in\n    tag_155:\n        /* \"#utility.yul\":1664:1667   */\n      dup3\n        /* \"#utility.yul\":1657:1691   */\n      mstore\n        /* \"#utility.yul\":1588:1697   */\n      pop\n      pop\n      jump\t// out\n        /* \"#utility.yul\":1703:1821   */\n    tag_157:\n        /* \"#utility.yul\":1790:1814   */\n      tag_159\n        /* \"#utility.yul\":1808:1813   */\n      dup2\n        /* \"#utility.yul\":1790:1814   */\n      tag_160\n      jump\t// in\n    tag_159:\n        /* \"#utility.yul\":1785:1788   */\n      dup3\n        /* \"#utility.yul\":1778:1815   */\n      mstore\n        /* \"#utility.yul\":1703:1821   */\n      pop\n      pop\n      jump\t// out\n        /* \"#utility.yul\":1827:2191   */\n    tag_161:\n        /* \"#utility.yul\":1915:1918   */\n      0x00\n        /* \"#utility.yul\":1943:1982   */\n      tag_163\n        /* \"#utility.yul\":1976:1981   */\n      dup3\n        /* \"#utility.yul\":1943:1982   */\n      tag_164\n      jump\t// in\n    tag_163:\n        /* \"#utility.yul\":1998:2069   */\n      tag_165\n        /* \"#utility.yul\":2062:2068   */\n      dup2\n        /* \"#utility.yul\":2057:2060   */\n      dup6\n        /* \"#utility.yul\":1998:2069   */\n      tag_166\n      jump\t// in\n    tag_165:\n        /* \"#utility.yul\":1991:2069   */\n      swap4\n      pop\n        /* \"#utility.yul\":2078:2130   */\n      tag_167\n        /* \"#utility.yul\":2123:2129   */\n      dup2\n        /* \"#utility.yul\":2118:2121   */\n      dup6\n        /* \"#utility.yul\":2111:2115   */\n      0x20\n        /* \"#utility.yul\":2104:2109   */\n      dup7\n        /* \"#utility.yul\":2100:2116   */\n      add\n        /* \"#utility.yul\":2078:2130   */\n      tag_168\n      jump\t// in\n    tag_167:\n        /* \"#utility.yul\":2155:2184   */\n      tag_169\n        /* \"#utility.yul\":2177:2183   */\n      dup2\n        /* \"#utility.yul\":2155:2184   */\n      tag_170\n      jump\t// in\n    tag_169:\n        /* \"#utility.yul\":2150:2153   */\n      dup5\n        /* \"#utility.yul\":2146:2185   */\n      add\n        /* \"#utility.yul\":2139:2185   */\n      swap2\n      pop\n        /* \"#utility.yul\":1919:2191   */\n      pop\n        /* \"#utility.yul\":1827:2191   */\n      swap3\n      swap2\n      pop\n      pop\n      jump\t// out\n        /* \"#utility.yul\":2197:2574   */\n    tag_171:\n        /* \"#utility.yul\":2303:2306   */\n      0x00\n        /* \"#utility.yul\":2331:2370   */\n      tag_173\n        /* \"#utility.yul\":2364:2369   */\n      dup3\n        /* \"#utility.yul\":2331:2370   */\n      tag_164\n      jump\t// in\n    tag_173:\n        /* \"#utility.yul\":2386:2475   */\n      tag_174\n        /* \"#utility.yul\":2468:2474   */\n      dup2\n        /* \"#utility.yul\":2463:2466   */\n      dup6\n        /* \"#utility.yul\":2386:2475   */\n      tag_175\n      jump\t// in\n    tag_174:\n        /* \"#utility.yul\":2379:2475   */\n      swap4\n      pop\n        /* \"#utility.yul\":2484:2536   */\n      tag_176\n        /* \"#utility.yul\":2529:2535   */\n      dup2\n        /* \"#utility.yul\":2524:2527   */\n      dup6\n        /* \"#utility.yul\":2517:2521   */\n      0x20\n        /* \"#utility.yul\":2510:2515   */\n      dup7\n        /* \"#utility.yul\":2506:2522   */\n      add\n        /* \"#utility.yul\":2484:2536   */\n      tag_168\n      jump\t// in\n    tag_176:\n        /* \"#utility.yul\":2561:2567   */\n      dup1\n        /* \"#utility.yul\":2556:2559   */\n      dup5\n        /* \"#utility.yul\":2552:2568   */\n      add\n        /* \"#utility.yul\":2545:2568   */\n      swap2\n      pop\n        /* \"#utility.yul\":2307:2574   */\n      pop\n        /* \"#utility.yul\":2197:2574   */\n      swap3\n      swap2\n      pop\n      pop\n      jump\t// out\n        /* \"#utility.yul\":2580:2946   */\n    tag_177:\n        /* \"#utility.yul\":2722:2725   */\n      0x00\n        /* \"#utility.yul\":2743:2810   */\n      tag_179\n        /* \"#utility.yul\":2807:2809   */\n      0x20\n        /* \"#utility.yul\":2802:2805   */\n      dup4\n        /* \"#utility.yul\":2743:2810   */\n      tag_166\n      jump\t// in\n    tag_179:\n        /* \"#utility.yul\":2736:2810   */\n      swap2\n      pop\n        /* \"#utility.yul\":2819:2912   */\n      tag_180\n        /* \"#utility.yul\":2908:2911   */\n      dup3\n        /* \"#utility.yul\":2819:2912   */\n      tag_181\n      jump\t// in\n    tag_180:\n        /* \"#utility.yul\":2937:2939   */\n      0x20\n        /* \"#utility.yul\":2932:2935   */\n      dup3\n        /* \"#utility.yul\":2928:2940   */\n      add\n        /* \"#utility.yul\":2921:2940   */\n      swap1\n      pop\n        /* \"#utility.yul\":2580:2946   */\n      swap2\n      swap1\n      pop\n      jump\t// out\n        /* \"#utility.yul\":2952:3318   */\n    tag_182:\n        /* \"#utility.yul\":3094:3097   */\n      0x00\n        /* \"#utility.yul\":3115:3182   */\n      tag_184\n        /* \"#utility.yul\":3179:3181   */\n      0x0b\n        /* \"#utility.yul\":3174:3177   */\n      dup4\n        /* \"#utility.yul\":3115:3182   */\n      tag_166\n      jump\t// in\n    tag_184:\n        /* \"#utility.yul\":3108:3182   */\n      swap2\n      pop\n        /* \"#utility.yul\":3191:3284   */\n      tag_185\n        /* \"#utility.yul\":3280:3283   */\n      dup3\n        /* \"#utility.yul\":3191:3284   */\n      tag_186\n      jump\t// in\n    tag_185:\n        /* \"#utility.yul\":3309:3311   */\n      0x20\n        /* \"#utility.yul\":3304:3307   */\n      dup3\n        /* \"#utility.yul\":3300:3312   */\n      add\n        /* \"#utility.yul\":3293:3312   */\n      swap1\n      pop\n        /* \"#utility.yul\":2952:3318   */\n      swap2\n      swap1\n      pop\n      jump\t// out\n        /* \"#utility.yul\":3324:3726   */\n    tag_187:\n        /* \"#utility.yul\":3484:3487   */\n      0x00\n        /* \"#utility.yul\":3505:3590   */\n      tag_189\n        /* \"#utility.yul\":3587:3589   */\n      0x17\n        /* \"#utility.yul\":3582:3585   */\n      dup4\n        /* \"#utility.yul\":3505:3590   */\n      tag_175\n      jump\t// in\n    tag_189:\n        /* \"#utility.yul\":3498:3590   */\n      swap2\n      pop\n        /* \"#utility.yul\":3599:3692   */\n      tag_190\n        /* \"#utility.yul\":3688:3691   */\n      dup3\n        /* \"#utility.yul\":3599:3692   */\n      tag_191\n      jump\t// in\n    tag_190:\n        /* \"#utility.yul\":3717:3719   */\n      0x17\n        /* \"#utility.yul\":3712:3715   */\n      dup3\n        /* \"#utility.yul\":3708:3720   */\n      add\n        /* \"#utility.yul\":3701:3720   */\n      swap1\n      pop\n        /* \"#utility.yul\":3324:3726   */\n      swap2\n      swap1\n      pop\n      jump\t// out\n        /* \"#utility.yul\":3732:4134   */\n    tag_192:\n        /* \"#utility.yul\":3892:3895   */\n      0x00\n        /* \"#utility.yul\":3913:3998   */\n      tag_194\n        /* \"#utility.yul\":3995:3997   */\n      0x11\n        /* \"#utility.yul\":3990:3993   */\n      dup4\n        /* \"#utility.yul\":3913:3998   */\n      tag_175\n      jump\t// in\n    tag_194:\n        /* \"#utility.yul\":3906:3998   */\n      swap2\n      pop\n        /* \"#utility.yul\":4007:4100   */\n      tag_195\n        /* \"#utility.yul\":4096:4099   */\n      dup3\n        /* \"#utility.yul\":4007:4100   */\n      tag_196\n      jump\t// in\n    tag_195:\n        /* \"#utility.yul\":4125:4127   */\n      0x11\n        /* \"#utility.yul\":4120:4123   */\n      dup3\n        /* \"#utility.yul\":4116:4128   */\n      add\n        /* \"#utility.yul\":4109:4128   */\n      swap1\n      pop\n        /* \"#utility.yul\":3732:4134   */\n      swap2\n      swap1\n      pop\n      jump\t// out\n        /* \"#utility.yul\":4140:4506   */\n    tag_197:\n        /* \"#utility.yul\":4282:4285   */\n      0x00\n        /* \"#utility.yul\":4303:4370   */\n      tag_199\n        /* \"#utility.yul\":4367:4369   */\n      0x2f\n        /* \"#utility.yul\":4362:4365   */\n      dup4\n        /* \"#utility.yul\":4303:4370   */\n      tag_166\n      jump\t// in\n    tag_199:\n        /* \"#utility.yul\":4296:4370   */\n      swap2\n      pop\n        /* \"#utility.yul\":4379:4472   */\n      tag_200\n        /* \"#utility.yul\":4468:4471   */\n      dup3\n        /* \"#utility.yul\":4379:4472   */\n      tag_201\n      jump\t// in\n    tag_200:\n        /* \"#utility.yul\":4497:4499   */\n      0x40\n        /* \"#utility.yul\":4492:4495   */\n      dup3\n        /* \"#utility.yul\":4488:4500   */\n      add\n        /* \"#utility.yul\":4481:4500   */\n      swap1\n      pop\n        /* \"#utility.yul\":4140:4506   */\n      swap2\n      swap1\n      pop\n      jump\t// out\n        /* \"#utility.yul\":4512:5479   */\n    tag_96:\n        /* \"#utility.yul\":4894:4897   */\n      0x00\n        /* \"#utility.yul\":4916:5064   */\n      tag_203\n        /* \"#utility.yul\":5060:5063   */\n      dup3\n        /* \"#utility.yul\":4916:5064   */\n      tag_187\n      jump\t// in\n    tag_203:\n        /* \"#utility.yul\":4909:5064   */\n      swap2\n      pop\n        /* \"#utility.yul\":5081:5176   */\n      tag_204\n        /* \"#utility.yul\":5172:5175   */\n      dup3\n        /* \"#utility.yul\":5163:5169   */\n      dup6\n        /* \"#utility.yul\":5081:5176   */\n      tag_171\n      jump\t// in\n    tag_204:\n        /* \"#utility.yul\":5074:5176   */\n      swap2\n      pop\n        /* \"#utility.yul\":5193:5341   */\n      tag_205\n        /* \"#utility.yul\":5337:5340   */\n      dup3\n        /* \"#utility.yul\":5193:5341   */\n      tag_192\n      jump\t// in\n    tag_205:\n        /* \"#utility.yul\":5186:5341   */\n      swap2\n      pop\n        /* \"#utility.yul\":5358:5453   */\n      tag_206\n        /* \"#utility.yul\":5449:5452   */\n      dup3\n        /* \"#utility.yul\":5440:5446   */\n      dup5\n        /* \"#utility.yul\":5358:5453   */\n      tag_171\n      jump\t// in\n    tag_206:\n        /* \"#utility.yul\":5351:5453   */\n      swap2\n      pop\n        /* \"#utility.yul\":5470:5473   */\n      dup2\n        /* \"#utility.yul\":5463:5473   */\n      swap1\n      pop\n        /* \"#utility.yul\":4512:5479   */\n      swap4\n      swap3\n      pop\n      pop\n      pop\n      jump\t// out\n        /* \"#utility.yul\":5485:5695   */\n    tag_17:\n        /* \"#utility.yul\":5572:5576   */\n      0x00\n        /* \"#utility.yul\":5610:5612   */\n      0x20\n        /* \"#utility.yul\":5599:5608   */\n      dup3\n        /* \"#utility.yul\":5595:5613   */\n      add\n        /* \"#utility.yul\":5587:5613   */\n      swap1\n      pop\n        /* \"#utility.yul\":5623:5688   */\n      tag_208\n        /* \"#utility.yul\":5685:5686   */\n      0x00\n        /* \"#utility.yul\":5674:5683   */\n      dup4\n        /* \"#utility.yul\":5670:5687   */\n      add\n        /* \"#utility.yul\":5661:5667   */\n      dup5\n        /* \"#utility.yul\":5623:5688   */\n      tag_153\n      jump\t// in\n    tag_208:\n        /* \"#utility.yul\":5485:5695   */\n      swap3\n      swap2\n      pop\n      pop\n      jump\t// out\n        /* \"#utility.yul\":5701:5923   */\n    tag_23:\n        /* \"#utility.yul\":5794:5798   */\n      0x00\n        /* \"#utility.yul\":5832:5834   */\n      0x20\n        /* \"#utility.yul\":5821:5830   */\n      dup3\n        /* \"#utility.yul\":5817:5835   */\n      add\n        /* \"#utility.yul\":5809:5835   */\n      swap1\n      pop\n        /* \"#utility.yul\":5845:5916   */\n      tag_210\n        /* \"#utility.yul\":5913:5914   */\n      0x00\n        /* \"#utility.yul\":5902:5911   */\n      dup4\n        /* \"#utility.yul\":5898:5915   */\n      add\n        /* \"#utility.yul\":5889:5895   */\n      dup5\n        /* \"#utility.yul\":5845:5916   */\n      tag_157\n      jump\t// in\n    tag_210:\n        /* \"#utility.yul\":5701:5923   */\n      swap3\n      swap2\n      pop\n      pop\n      jump\t// out\n        /* \"#utility.yul\":5929:6242   */\n    tag_66:\n        /* \"#utility.yul\":6042:6046   */\n      0x00\n        /* \"#utility.yul\":6080:6082   */\n      0x20\n        /* \"#utility.yul\":6069:6078   */\n      dup3\n        /* \"#utility.yul\":6065:6083   */\n      add\n        /* \"#utility.yul\":6057:6083   */\n      swap1\n      pop\n        /* \"#utility.yul\":6129:6138   */\n      dup2\n        /* \"#utility.yul\":6123:6127   */\n      dup2\n        /* \"#utility.yul\":6119:6139   */\n      sub\n        /* \"#utility.yul\":6115:6116   */\n      0x00\n        /* \"#utility.yul\":6104:6113   */\n      dup4\n        /* \"#utility.yul\":6100:6117   */\n      add\n        /* \"#utility.yul\":6093:6140   */\n      mstore\n        /* \"#utility.yul\":6157:6235   */\n      tag_212\n        /* \"#utility.yul\":6230:6234   */\n      dup2\n        /* \"#utility.yul\":6221:6227   */\n      dup5\n        /* \"#utility.yul\":6157:6235   */\n      tag_161\n      jump\t// in\n    tag_212:\n        /* \"#utility.yul\":6149:6235   */\n      swap1\n      pop\n        /* \"#utility.yul\":5929:6242   */\n      swap3\n      swap2\n      pop\n      pop\n      jump\t// out\n        /* \"#utility.yul\":6248:6667   */\n    tag_125:\n        /* \"#utility.yul\":6414:6418   */\n      0x00\n        /* \"#utility.yul\":6452:6454   */\n      0x20\n        /* \"#utility.yul\":6441:6450   */\n      dup3\n        /* \"#utility.yul\":6437:6455   */\n      add\n        /* \"#utility.yul\":6429:6455   */\n      swap1\n      pop\n        /* \"#utility.yul\":6501:6510   */\n      dup2\n        /* \"#utility.yul\":6495:6499   */\n      dup2\n        /* \"#utility.yul\":6491:6511   */\n      sub\n        /* \"#utility.yul\":6487:6488   */\n      0x00\n        /* \"#utility.yul\":6476:6485   */\n      dup4\n        /* \"#utility.yul\":6472:6489   */\n      add\n        /* \"#utility.yul\":6465:6512   */\n      mstore\n        /* \"#utility.yul\":6529:6660   */\n      tag_214\n        /* \"#utility.yul\":6655:6659   */\n      dup2\n        /* \"#utility.yul\":6529:6660   */\n      tag_177\n      jump\t// in\n    tag_214:\n        /* \"#utility.yul\":6521:6660   */\n      swap1\n      pop\n        /* \"#utility.yul\":6248:6667   */\n      swap2\n      swap1\n      pop\n      jump\t// out\n        /* \"#utility.yul\":6673:7092   */\n    tag_69:\n        /* \"#utility.yul\":6839:6843   */\n      0x00\n        /* \"#utility.yul\":6877:6879   */\n      0x20\n        /* \"#utility.yul\":6866:6875   */\n      dup3\n        /* \"#utility.yul\":6862:6880   */\n      add\n        /* \"#utility.yul\":6854:6880   */\n      swap1\n      pop\n        /* \"#utility.yul\":6926:6935   */\n      dup2\n        /* \"#utility.yul\":6920:6924   */\n      dup2\n        /* \"#utility.yul\":6916:6936   */\n      sub\n        /* \"#utility.yul\":6912:6913   */\n      0x00\n        /* \"#utility.yul\":6901:6910   */\n      dup4\n        /* \"#utility.yul\":6897:6914   */\n      add\n        /* \"#utility.yul\":6890:6937   */\n      mstore\n        /* \"#utility.yul\":6954:7085   */\n      tag_216\n        /* \"#utility.yul\":7080:7084   */\n      dup2\n        /* \"#utility.yul\":6954:7085   */\n      tag_182\n      jump\t// in\n    tag_216:\n        /* \"#utility.yul\":6946:7085   */\n      swap1\n      pop\n        /* \"#utility.yul\":6673:7092   */\n      swap2\n      swap1\n      pop\n      jump\t// out\n        /* \"#utility.yul\":7098:7517   */\n    tag_60:\n        /* \"#utility.yul\":7264:7268   */\n      0x00\n        /* \"#utility.yul\":7302:7304   */\n      0x20\n        /* \"#utility.yul\":7291:7300   */\n      dup3\n        /* \"#utility.yul\":7287:7305   */\n      add\n        /* \"#utility.yul\":7279:7305   */\n      swap1\n      pop\n        /* \"#utility.yul\":7351:7360   */\n      dup2\n        /* \"#utility.yul\":7345:7349   */\n      dup2\n        /* \"#utility.yul\":7341:7361   */\n      sub\n        /* \"#utility.yul\":7337:7338   */\n      0x00\n        /* \"#utility.yul\":7326:7335   */\n      dup4\n        /* \"#utility.yul\":7322:7339   */\n      add\n        /* \"#utility.yul\":7315:7362   */\n      mstore\n        /* \"#utility.yul\":7379:7510   */\n      tag_218\n        /* \"#utility.yul\":7505:7509   */\n      dup2\n        /* \"#utility.yul\":7379:7510   */\n      tag_197\n      jump\t// in\n    tag_218:\n        /* \"#utility.yul\":7371:7510   */\n      swap1\n      pop\n        /* \"#utility.yul\":7098:7517   */\n      swap2\n      swap1\n      pop\n      jump\t// out\n        /* \"#utility.yul\":7604:7703   */\n    tag_164:\n        /* \"#utility.yul\":7656:7662   */\n      0x00\n        /* \"#utility.yul\":7690:7695   */\n      dup2\n        /* \"#utility.yul\":7684:7696   */\n      mload\n        /* \"#utility.yul\":7674:7696   */\n      swap1\n      pop\n        /* \"#utility.yul\":7604:7703   */\n      swap2\n      swap1\n      pop\n      jump\t// out\n        /* \"#utility.yul\":7709:7878   */\n    tag_166:\n        /* \"#utility.yul\":7793:7804   */\n      0x00\n        /* \"#utility.yul\":7827:7833   */\n      dup3\n        /* \"#utility.yul\":7822:7825   */\n      dup3\n        /* \"#utility.yul\":7815:7834   */\n      mstore\n        /* \"#utility.yul\":7867:7871   */\n      0x20\n        /* \"#utility.yul\":7862:7865   */\n      dup3\n        /* \"#utility.yul\":7858:7872   */\n      add\n        /* \"#utility.yul\":7843:7872   */\n      swap1\n      pop\n        /* \"#utility.yul\":7709:7878   */\n      swap3\n      swap2\n      pop\n      pop\n      jump\t// out\n        /* \"#utility.yul\":7884:8032   */\n    tag_175:\n        /* \"#utility.yul\":7986:7997   */\n      0x00\n        /* \"#utility.yul\":8023:8026   */\n      dup2\n        /* \"#utility.yul\":8008:8026   */\n      swap1\n      pop\n        /* \"#utility.yul\":7884:8032   */\n      swap3\n      swap2\n      pop\n      pop\n      jump\t// out\n        /* \"#utility.yul\":8038:8343   */\n    tag_102:\n        /* \"#utility.yul\":8078:8081   */\n      0x00\n        /* \"#utility.yul\":8097:8117   */\n      tag_225\n        /* \"#utility.yul\":8115:8116   */\n      dup3\n        /* \"#utility.yul\":8097:8117   */\n      tag_226\n      jump\t// in\n    tag_225:\n        /* \"#utility.yul\":8092:8117   */\n      swap2\n      pop\n        /* \"#utility.yul\":8131:8151   */\n      tag_227\n        /* \"#utility.yul\":8149:8150   */\n      dup4\n        /* \"#utility.yul\":8131:8151   */\n      tag_226\n      jump\t// in\n    tag_227:\n        /* \"#utility.yul\":8126:8151   */\n      swap3\n      pop\n        /* \"#utility.yul\":8285:8286   */\n      dup3\n        /* \"#utility.yul\":8217:8283   */\n      0xffffffffffffffffffffffffffffffffffffffffffffffffffffffffffffffff\n        /* \"#utility.yul\":8213:8287   */\n      sub\n        /* \"#utility.yul\":8210:8211   */\n      dup3\n        /* \"#utility.yul\":8207:8288   */\n      gt\n        /* \"#utility.yul\":8204:8311   */\n      iszero\n      tag_228\n      jumpi\n        /* \"#utility.yul\":8291:8309   */\n      tag_229\n      tag_230\n      jump\t// in\n    tag_229:\n        /* \"#utility.yul\":8204:8311   */\n    tag_228:\n        /* \"#utility.yul\":8335:8336   */\n      dup3\n        /* \"#utility.yul\":8332:8333   */\n      dup3\n        /* \"#utility.yul\":8328:8337   */\n      add\n        /* \"#utility.yul\":8321:8337   */\n      swap1\n      pop\n        /* \"#utility.yul\":8038:8343   */\n      swap3\n      swap2\n      pop\n      pop\n      jump\t// out\n        /* \"#utility.yul\":8349:8697   */\n    tag_100:\n        /* \"#utility.yul\":8389:8396   */\n      0x00\n        /* \"#utility.yul\":8412:8432   */\n      tag_232\n        /* \"#utility.yul\":8430:8431   */\n      dup3\n        /* \"#utility.yul\":8412:8432   */\n      tag_226\n      jump\t// in\n    tag_232:\n        /* \"#utility.yul\":8407:8432   */\n      swap2\n      pop\n        /* \"#utility.yul\":8446:8466   */\n      tag_233\n        /* \"#utility.yul\":8464:8465   */\n      dup4\n        /* \"#utility.yul\":8446:8466   */\n      tag_226\n      jump\t// in\n    tag_233:\n        /* \"#utility.yul\":8441:8466   */\n      swap3\n      pop\n        /* \"#utility.yul\":8634:8635   */\n      dup2\n        /* \"#utility.yul\":8566:8632   */\n      0xffffffffffffffffffffffffffffffffffffffffffffffffffffffffffffffff\n        /* \"#utility.yul\":8562:8636   */\n      div\n        /* \"#utility.yul\":8559:8560   */\n      dup4\n        /* \"#utility.yul\":8556:8637   */\n      gt\n        /* \"#utility.yul\":8551:8552   */\n      dup3\n        /* \"#utility.yul\":8544:8553   */\n      iszero\n        /* \"#utility.yul\":8537:8554   */\n      iszero\n        /* \"#utility.yul\":8533:8638   */\n      and\n        /* \"#utility.yul\":8530:8661   */\n      iszero\n      tag_234\n      jumpi\n        /* \"#utility.yul\":8641:8659   */\n      tag_235\n      tag_230\n      jump\t// in\n    tag_235:\n        /* \"#utility.yul\":8530:8661   */\n    tag_234:\n        /* \"#utility.yul\":8689:8690   */\n      dup3\n        /* \"#utility.yul\":8686:8687   */\n      dup3\n        /* \"#utility.yul\":8682:8691   */\n      mul\n        /* \"#utility.yul\":8671:8691   */\n      swap1\n      pop\n        /* \"#utility.yul\":8349:8697   */\n      swap3\n      swap2\n      pop\n      pop\n      jump\t// out\n        /* \"#utility.yul\":8703:8799   */\n    tag_236:\n        /* \"#utility.yul\":8740:8747   */\n      0x00\n        /* \"#utility.yul\":8769:8793   */\n      tag_238\n        /* \"#utility.yul\":8787:8792   */\n      dup3\n        /* \"#utility.yul\":8769:8793   */\n      tag_239\n      jump\t// in\n    tag_238:\n        /* \"#utility.yul\":8758:8793   */\n      swap1\n      pop\n        /* \"#utility.yul\":8703:8799   */\n      swap2\n      swap1\n      pop\n      jump\t// out\n        /* \"#utility.yul\":8805:8895   */\n    tag_156:\n        /* \"#utility.yul\":8839:8846   */\n      0x00\n        /* \"#utility.yul\":8882:8887   */\n      dup2\n        /* \"#utility.yul\":8875:8888   */\n      iszero\n        /* \"#utility.yul\":8868:8889   */\n      iszero\n        /* \"#utility.yul\":8857:8889   */\n      swap1\n      pop\n        /* \"#utility.yul\":8805:8895   */\n      swap2\n      swap1\n      pop\n      jump\t// out\n        /* \"#utility.yul\":8901:8978   */\n    tag_160:\n        /* \"#utility.yul\":8938:8945   */\n      0x00\n        /* \"#utility.yul\":8967:8972   */\n      dup2\n        /* \"#utility.yul\":8956:8972   */\n      swap1\n      pop\n        /* \"#utility.yul\":8901:8978   */\n      swap2\n      swap1\n      pop\n      jump\t// out\n        /* \"#utility.yul\":8984:9133   */\n    tag_242:\n        /* \"#utility.yul\":9020:9027   */\n      0x00\n        /* \"#utility.yul\":9060:9126   */\n      0xffffffff00000000000000000000000000000000000000000000000000000000\n        /* \"#utility.yul\":9053:9058   */\n      dup3\n        /* \"#utility.yul\":9049:9127   */\n      and\n        /* \"#utility.yul\":9038:9127   */\n      swap1\n      pop\n        /* \"#utility.yul\":8984:9133   */\n      swap2\n      swap1\n      pop\n      jump\t// out\n        /* \"#utility.yul\":9139:9265   */\n    tag_239:\n        /* \"#utility.yul\":9176:9183   */\n      0x00\n        /* \"#utility.yul\":9216:9258   */\n      0xffffffffffffffffffffffffffffffffffffffff\n        /* \"#utility.yul\":9209:9214   */\n      dup3\n        /* \"#utility.yul\":9205:9259   */\n      and\n        /* \"#utility.yul\":9194:9259   */\n      swap1\n      pop\n        /* \"#utility.yul\":9139:9265   */\n      swap2\n      swap1\n      pop\n      jump\t// out\n        /* \"#utility.yul\":9271:9348   */\n    tag_226:\n        /* \"#utility.yul\":9308:9315   */\n      0x00\n        /* \"#utility.yul\":9337:9342   */\n      dup2\n        /* \"#utility.yul\":9326:9342   */\n      swap1\n      pop\n        /* \"#utility.yul\":9271:9348   */\n      swap2\n      swap1\n      pop\n      jump\t// out\n        /* \"#utility.yul\":9354:9661   */\n    tag_168:\n        /* \"#utility.yul\":9422:9423   */\n      0x00\n        /* \"#utility.yul\":9432:9545   */\n    tag_247:\n        /* \"#utility.yul\":9446:9452   */\n      dup4\n        /* \"#utility.yul\":9443:9444   */\n      dup2\n        /* \"#utility.yul\":9440:9453   */\n      lt\n        /* \"#utility.yul\":9432:9545   */\n      iszero\n      tag_249\n      jumpi\n        /* \"#utility.yul\":9531:9532   */\n      dup1\n        /* \"#utility.yul\":9526:9529   */\n      dup3\n        /* \"#utility.yul\":9522:9533   */\n      add\n        /* \"#utility.yul\":9516:9534   */\n      mload\n        /* \"#utility.yul\":9512:9513   */\n      dup2\n        /* \"#utility.yul\":9507:9510   */\n      dup5\n        /* \"#utility.yul\":9503:9514   */\n      add\n        /* \"#utility.yul\":9496:9535   */\n      mstore\n        /* \"#utility.yul\":9468:9470   */\n      0x20\n        /* \"#utility.yul\":9465:9466   */\n      dup2\n        /* \"#utility.yul\":9461:9471   */\n      add\n        /* \"#utility.yul\":9456:9471   */\n      swap1\n      pop\n        /* \"#utility.yul\":9432:9545   */\n      jump(tag_247)\n    tag_249:\n        /* \"#utility.yul\":9563:9569   */\n      dup4\n        /* \"#utility.yul\":9560:9561   */\n      dup2\n        /* \"#utility.yul\":9557:9570   */\n      gt\n        /* \"#utility.yul\":9554:9655   */\n      iszero\n      tag_250\n      jumpi\n        /* \"#utility.yul\":9643:9644   */\n      0x00\n        /* \"#utility.yul\":9634:9640   */\n      dup5\n        /* \"#utility.yul\":9629:9632   */\n      dup5\n        /* \"#utility.yul\":9625:9641   */\n      add\n        /* \"#utility.yul\":9618:9645   */\n      mstore\n        /* \"#utility.yul\":9554:9655   */\n    tag_250:\n        /* \"#utility.yul\":9403:9661   */\n      pop\n        /* \"#utility.yul\":9354:9661   */\n      pop\n      pop\n      pop\n      jump\t// out\n        /* \"#utility.yul\":9667:9838   */\n    tag_122:\n        /* \"#utility.yul\":9706:9709   */\n      0x00\n        /* \"#utility.yul\":9729:9753   */\n      tag_252\n        /* \"#utility.yul\":9747:9752   */\n      dup3\n        /* \"#utility.yul\":9729:9753   */\n      tag_226\n      jump\t// in\n    tag_252:\n        /* \"#utility.yul\":9720:9753   */\n      swap2\n      pop\n        /* \"#utility.yul\":9775:9779   */\n      0x00\n        /* \"#utility.yul\":9768:9773   */\n      dup3\n        /* \"#utility.yul\":9765:9780   */\n      eq\n        /* \"#utility.yul\":9762:9803   */\n      iszero\n      tag_253\n      jumpi\n        /* \"#utility.yul\":9783:9801   */\n      tag_254\n      tag_230\n      jump\t// in\n    tag_254:\n        /* \"#utility.yul\":9762:9803   */\n    tag_253:\n        /* \"#utility.yul\":9830:9831   */\n      0x01\n        /* \"#utility.yul\":9823:9828   */\n      dup3\n        /* \"#utility.yul\":9819:9832   */\n      sub\n        /* \"#utility.yul\":9812:9832   */\n      swap1\n      pop\n        /* \"#utility.yul\":9667:9838   */\n      swap2\n      swap1\n      pop\n      jump\t// out\n        /* \"#utility.yul\":9844:10024   */\n    tag_230:\n        /* \"#utility.yul\":9892:9969   */\n      0x4e487b7100000000000000000000000000000000000000000000000000000000\n        /* \"#utility.yul\":9889:9890   */\n      0x00\n        /* \"#utility.yul\":9882:9970   */\n      mstore\n        /* \"#utility.yul\":9989:9993   */\n      0x11\n        /* \"#utility.yul\":9986:9987   */\n      0x04\n        /* \"#utility.yul\":9979:9994   */\n      mstore\n        /* \"#utility.yul\":10013:10017   */\n      0x24\n        /* \"#utility.yul\":10010:10011   */\n      0x00\n        /* \"#utility.yul\":10003:10018   */\n      revert\n        /* \"#utility.yul\":10030:10210   */\n    tag_109:\n        /* \"#utility.yul\":10078:10155   */\n      0x4e487b7100000000000000000000000000000000000000000000000000000000\n        /* \"#utility.yul\":10075:10076   */\n      0x00\n        /* \"#utility.yul\":10068:10156   */\n      mstore\n        /* \"#utility.yul\":10175:10179   */\n      0x32\n        /* \"#utility.yul\":10172:10173   */\n      0x04\n        /* \"#utility.yul\":10165:10180   */\n      mstore\n        /* \"#utility.yul\":10199:10203   */\n      0x24\n        /* \"#utility.yul\":10196:10197   */\n      0x00\n        /* \"#utility.yul\":10189:10204   */\n      revert\n        /* \"#utility.yul\":10216:10396   */\n    tag_105:\n        /* \"#utility.yul\":10264:10341   */\n      0x4e487b7100000000000000000000000000000000000000000000000000000000\n        /* \"#utility.yul\":10261:10262   */\n      0x00\n        /* \"#utility.yul\":10254:10342   */\n      mstore\n        /* \"#utility.yul\":10361:10365   */\n      0x41\n        /* \"#utility.yul\":10358:10359   */\n      0x04\n        /* \"#utility.yul\":10351:10366   */\n      mstore\n        /* \"#utility.yul\":10385:10389   */\n      0x24\n        /* \"#utility.yul\":10382:10383   */\n      0x00\n        /* \"#utility.yul\":10375:10390   */\n      revert\n        /* \"#utility.yul\":10525:10642   */\n    tag_142:\n        /* \"#utility.yul\":10634:10635   */\n      0x00\n        /* \"#utility.yul\":10631:10632   */\n      dup1\n        /* \"#utility.yul\":10624:10636   */\n      revert\n        /* \"#utility.yul\":10648:10750   */\n    tag_170:\n        /* \"#utility.yul\":10689:10695   */\n      0x00\n        /* \"#utility.yul\":10740:10742   */\n      0x1f\n        /* \"#utility.yul\":10736:10743   */\n      not\n        /* \"#utility.yul\":10731:10733   */\n      0x1f\n        /* \"#utility.yul\":10724:10729   */\n      dup4\n        /* \"#utility.yul\":10720:10734   */\n      add\n        /* \"#utility.yul\":10716:10744   */\n      and\n        /* \"#utility.yul\":10706:10744   */\n      swap1\n      pop\n        /* \"#utility.yul\":10648:10750   */\n      swap2\n      swap1\n      pop\n      jump\t// out\n        /* \"#utility.yul\":10756:10938   */\n    tag_181:\n        /* \"#utility.yul\":10896:10930   */\n      0x537472696e67733a20686578206c656e67746820696e73756666696369656e74\n        /* \"#utility.yul\":10892:10893   */\n      0x00\n        /* \"#utility.yul\":10884:10890   */\n      dup3\n        /* \"#utility.yul\":10880:10894   */\n      add\n        /* \"#utility.yul\":10873:10931   */\n      mstore\n        /* \"#utility.yul\":10756:10938   */\n      pop\n      jump\t// out\n        /* \"#utility.yul\":10944:11105   */\n    tag_186:\n        /* \"#utility.yul\":11084:11097   */\n      0x6466616661646661666461000000000000000000000000000000000000000000\n        /* \"#utility.yul\":11080:11081   */\n      0x00\n        /* \"#utility.yul\":11072:11078   */\n      dup3\n        /* \"#utility.yul\":11068:11082   */\n      add\n        /* \"#utility.yul\":11061:11098   */\n      mstore\n        /* \"#utility.yul\":10944:11105   */\n      pop\n      jump\t// out\n        /* \"#utility.yul\":11111:11284   */\n    tag_191:\n        /* \"#utility.yul\":11251:11276   */\n      0x416363657373436f6e74726f6c3a206163636f756e7420000000000000000000\n        /* \"#utility.yul\":11247:11248   */\n      0x00\n        /* \"#utility.yul\":11239:11245   */\n      dup3\n        /* \"#utility.yul\":11235:11249   */\n      add\n        /* \"#utility.yul\":11228:11277   */\n      mstore\n        /* \"#utility.yul\":11111:11284   */\n      pop\n      jump\t// out\n        /* \"#utility.yul\":11290:11457   */\n    tag_196:\n        /* \"#utility.yul\":11430:11449   */\n      0x206973206d697373696e6720726f6c6520000000000000000000000000000000\n        /* \"#utility.yul\":11426:11427   */\n      0x00\n        /* \"#utility.yul\":11418:11424   */\n      dup3\n        /* \"#utility.yul\":11414:11428   */\n      add\n        /* \"#utility.yul\":11407:11450   */\n      mstore\n        /* \"#utility.yul\":11290:11457   */\n      pop\n      jump\t// out\n        /* \"#utility.yul\":11463:11697   */\n    tag_201:\n        /* \"#utility.yul\":11603:11637   */\n      0x416363657373436f6e74726f6c3a2063616e206f6e6c792072656e6f756e6365\n        /* \"#utility.yul\":11599:11600   */\n      0x00\n        /* \"#utility.yul\":11591:11597   */\n      dup3\n        /* \"#utility.yul\":11587:11601   */\n      add\n        /* \"#utility.yul\":11580:11638   */\n      mstore\n        /* \"#utility.yul\":11672:11689   */\n      0x20726f6c657320666f722073656c660000000000000000000000000000000000\n        /* \"#utility.yul\":11667:11669   */\n      0x20\n        /* \"#utility.yul\":11659:11665   */\n      dup3\n        /* \"#utility.yul\":11655:11670   */\n      add\n        /* \"#utility.yul\":11648:11690   */\n      mstore\n        /* \"#utility.yul\":11463:11697   */\n      pop\n      jump\t// out\n        /* \"#utility.yul\":11703:11825   */\n    tag_130:\n        /* \"#utility.yul\":11776:11800   */\n      tag_268\n        /* \"#utility.yul\":11794:11799   */\n      dup2\n        /* \"#utility.yul\":11776:11800   */\n      tag_236\n      jump\t// in\n    tag_268:\n        /* \"#utility.yul\":11769:11774   */\n      dup2\n        /* \"#utility.yul\":11766:11801   */\n      eq\n        /* \"#utility.yul\":11756:11819   */\n      tag_269\n      jumpi\n        /* \"#utility.yul\":11815:11816   */\n      0x00\n        /* \"#utility.yul\":11812:11813   */\n      dup1\n        /* \"#utility.yul\":11805:11817   */\n      revert\n        /* \"#utility.yul\":11756:11819   */\n    tag_269:\n        /* \"#utility.yul\":11703:11825   */\n      pop\n      jump\t// out\n        /* \"#utility.yul\":11831:11953   */\n    tag_134:\n        /* \"#utility.yul\":11904:11928   */\n      tag_271\n        /* \"#utility.yul\":11922:11927   */\n      dup2\n        /* \"#utility.yul\":11904:11928   */\n      tag_160\n      jump\t// in\n    tag_271:\n        /* \"#utility.yul\":11897:11902   */\n      dup2\n        /* \"#utility.yul\":11894:11929   */\n      eq\n        /* \"#utility.yul\":11884:11947   */\n      tag_272\n      jumpi\n        /* \"#utility.yul\":11943:11944   */\n      0x00\n        /* \"#utility.yul\":11940:11941   */\n      dup1\n        /* \"#utility.yul\":11933:11945   */\n      revert\n        /* \"#utility.yul\":11884:11947   */\n    tag_272:\n        /* \"#utility.yul\":11831:11953   */\n      pop\n      jump\t// out\n        /* \"#utility.yul\":11959:12079   */\n    tag_138:\n        /* \"#utility.yul\":12031:12054   */\n      tag_274\n        /* \"#utility.yul\":12048:12053   */\n      dup2\n        /* \"#utility.yul\":12031:12054   */\n      tag_242\n      jump\t// in\n    tag_274:\n        /* \"#utility.yul\":12024:12029   */\n      dup2\n        /* \"#utility.yul\":12021:12055   */\n      eq\n        /* \"#utility.yul\":12011:12073   */\n      tag_275\n      jumpi\n        /* \"#utility.yul\":12069:12070   */\n      0x00\n        /* \"#utility.yul\":12066:12067   */\n      dup1\n        /* \"#utility.yul\":12059:12071   */\n      revert\n        /* \"#utility.yul\":12011:12073   */\n    tag_275:\n        /* \"#utility.yul\":11959:12079   */\n      pop\n      jump\t// out\n\n    auxdata: 0xa2646970667358221220d9b88cd64d291cf7475e180e90a75fe716430a268895fe9431fa88cf50b1c04364736f6c63430008070033\n}\n",
				"bytecode": {
					"linkReferences": {},
					"object": "608060405234801561001057600080fd5b50610ff2806100206000396000f3fe608060405234801561001057600080fd5b50600436106100885760003560e01c806391d148541161005b57806391d1485414610125578063a217fddf14610155578063a329877814610173578063d547741f1461017d57610088565b806301ffc9a71461008d578063248a9ca3146100bd5780632f2ff15d146100ed57806336568abe14610109575b600080fd5b6100a760048036038101906100a291906109d9565b610199565b6040516100b49190610b77565b60405180910390f35b6100d760048036038101906100d2919061096c565b610213565b6040516100e49190610b92565b60405180910390f35b61010760048036038101906101029190610999565b610232565b005b610123600480360381019061011e9190610999565b610253565b005b61013f600480360381019061013a9190610999565b6102d6565b60405161014c9190610b77565b60405180910390f35b61015d610340565b60405161016a9190610b92565b60405180910390f35b61017b610347565b005b61019760048036038101906101929190610999565b6103ec565b005b60007f7965db0b000000000000000000000000000000000000000000000000000000007bffffffffffffffffffffffffffffffffffffffffffffffffffffffff1916827bffffffffffffffffffffffffffffffffffffffffffffffffffffffff1916148061020c575061020b8261040d565b5b9050919050565b6000806000838152602001908152602001600020600101549050919050565b61023b82610213565b61024481610477565b61024e838361048b565b505050565b61025b61056b565b73ffffffffffffffffffffffffffffffffffffffff168173ffffffffffffffffffffffffffffffffffffffff16146102c8576040517f08c379a00000000000000000000000000000000000000000000000000000000081526004016102bf90610c0f565b60405180910390fd5b6102d28282610573565b5050565b600080600084815260200190815260200160002060000160008373ffffffffffffffffffffffffffffffffffffffff1673ffffffffffffffffffffffffffffffffffffffff16815260200190815260200160002060009054906101000a900460ff16905092915050565b6000801b81565b6040518060400160405280600981526020017f64666166666461646600000000000000000000000000000000000000000000008152507f63e9370c5b01ee8896e536f1f2fc902c945d630eb37faf0981fb9146088fc423816040516103ac9190610bad565b60405180910390a17f63e9370c5b01ee8896e536f1f2fc902c945d630eb37faf0981fb9146088fc4236040516103e190610bef565b60405180910390a150565b6103f582610213565b6103fe81610477565b6104088383610573565b505050565b60007f01ffc9a7000000000000000000000000000000000000000000000000000000007bffffffffffffffffffffffffffffffffffffffffffffffffffffffff1916827bffffffffffffffffffffffffffffffffffffffffffffffffffffffff1916149050919050565b6104888161048361056b565b610654565b50565b61049582826102d6565b61056757600160008084815260200190815260200160002060000160008373ffffffffffffffffffffffffffffffffffffffff1673ffffffffffffffffffffffffffffffffffffffff16815260200190815260200160002060006101000a81548160ff02191690831515021790555061050c61056b565b73ffffffffffffffffffffffffffffffffffffffff168173ffffffffffffffffffffffffffffffffffffffff16837f2f8788117e7eff1d82e926ec794901d17c78024a50270940304540a733656f0d60405160405180910390a45b5050565b600033905090565b61057d82826102d6565b1561065057600080600084815260200190815260200160002060000160008373ffffffffffffffffffffffffffffffffffffffff1673ffffffffffffffffffffffffffffffffffffffff16815260200190815260200160002060006101000a81548160ff0219169083151502179055506105f561056b565b73ffffffffffffffffffffffffffffffffffffffff168173ffffffffffffffffffffffffffffffffffffffff16837ff6391f5c32d9c69d2a47ea670b442974b53935d1edc7fd64eb21e047a839171b60405160405180910390a45b5050565b61065e82826102d6565b6106ed576106838173ffffffffffffffffffffffffffffffffffffffff1660146106f1565b6106918360001c60206106f1565b6040516020016106a2929190610b3d565b6040516020818303038152906040526040517f08c379a00000000000000000000000000000000000000000000000000000000081526004016106e49190610bad565b60405180910390fd5b5050565b6060600060028360026107049190610cac565b61070e9190610c56565b67ffffffffffffffff81111561072757610726610e3f565b5b6040519080825280601f01601f1916602001820160405280156107595781602001600182028036833780820191505090505b5090507f30000000000000000000000000000000000000000000000000000000000000008160008151811061079157610790610e10565b5b60200101907effffffffffffffffffffffffffffffffffffffffffffffffffffffffffffff1916908160001a9053507f7800000000000000000000000000000000000000000000000000000000000000816001815181106107f5576107f4610e10565b5b60200101907effffffffffffffffffffffffffffffffffffffffffffffffffffffffffffff1916908160001a905350600060018460026108359190610cac565b61083f9190610c56565b90505b60018111156108df577f3031323334353637383961626364656600000000000000000000000000000000600f86166010811061088157610880610e10565b5b1a60f81b82828151811061089857610897610e10565b5b60200101907effffffffffffffffffffffffffffffffffffffffffffffffffffffffffffff1916908160001a905350600485901c9450806108d890610db7565b9050610842565b5060008414610923576040517f08c379a000000000000000000000000000000000000000000000000000000000815260040161091a90610bcf565b60405180910390fd5b8091505092915050565b60008135905061093c81610f77565b92915050565b60008135905061095181610f8e565b92915050565b60008135905061096681610fa5565b92915050565b60006020828403121561098257610981610e6e565b5b600061099084828501610942565b91505092915050565b600080604083850312156109b0576109af610e6e565b5b60006109be85828601610942565b92505060206109cf8582860161092d565b9150509250929050565b6000602082840312156109ef576109ee610e6e565b5b60006109fd84828501610957565b91505092915050565b610a0f81610d18565b82525050565b610a1e81610d24565b82525050565b6000610a2f82610c2f565b610a398185610c3a565b9350610a49818560208601610d84565b610a5281610e73565b840191505092915050565b6000610a6882610c2f565b610a728185610c4b565b9350610a82818560208601610d84565b80840191505092915050565b6000610a9b602083610c3a565b9150610aa682610e84565b602082019050919050565b6000610abe600b83610c3a565b9150610ac982610ead565b602082019050919050565b6000610ae1601783610c4b565b9150610aec82610ed6565b601782019050919050565b6000610b04601183610c4b565b9150610b0f82610eff565b601182019050919050565b6000610b27602f83610c3a565b9150610b3282610f28565b604082019050919050565b6000610b4882610ad4565b9150610b548285610a5d565b9150610b5f82610af7565b9150610b6b8284610a5d565b91508190509392505050565b6000602082019050610b8c6000830184610a06565b92915050565b6000602082019050610ba76000830184610a15565b92915050565b60006020820190508181036000830152610bc78184610a24565b905092915050565b60006020820190508181036000830152610be881610a8e565b9050919050565b60006020820190508181036000830152610c0881610ab1565b9050919050565b60006020820190508181036000830152610c2881610b1a565b9050919050565b600081519050919050565b600082825260208201905092915050565b600081905092915050565b6000610c6182610d7a565b9150610c6c83610d7a565b9250827fffffffffffffffffffffffffffffffffffffffffffffffffffffffffffffffff03821115610ca157610ca0610de1565b5b828201905092915050565b6000610cb782610d7a565b9150610cc283610d7a565b9250817fffffffffffffffffffffffffffffffffffffffffffffffffffffffffffffffff0483118215151615610cfb57610cfa610de1565b5b828202905092915050565b6000610d1182610d5a565b9050919050565b60008115159050919050565b6000819050919050565b60007fffffffff0000000000000000000000000000000000000000000000000000000082169050919050565b600073ffffffffffffffffffffffffffffffffffffffff82169050919050565b6000819050919050565b60005b83811015610da2578082015181840152602081019050610d87565b83811115610db1576000848401525b50505050565b6000610dc282610d7a565b91506000821415610dd657610dd5610de1565b5b600182039050919050565b7f4e487b7100000000000000000000000000000000000000000000000000000000600052601160045260246000fd5b7f4e487b7100000000000000000000000000000000000000000000000000000000600052603260045260246000fd5b7f4e487b7100000000000000000000000000000000000000000000000000000000600052604160045260246000fd5b600080fd5b6000601f19601f8301169050919050565b7f537472696e67733a20686578206c656e67746820696e73756666696369656e74600082015250565b7f6466616661646661666461000000000000000000000000000000000000000000600082015250565b7f416363657373436f6e74726f6c3a206163636f756e7420000000000000000000600082015250565b7f206973206d697373696e6720726f6c6520000000000000000000000000000000600082015250565b7f416363657373436f6e74726f6c3a2063616e206f6e6c792072656e6f756e636560008201527f20726f6c657320666f722073656c660000000000000000000000000000000000602082015250565b610f8081610d06565b8114610f8b57600080fd5b50565b610f9781610d24565b8114610fa257600080fd5b50565b610fae81610d2e565b8114610fb957600080fd5b5056fea2646970667358221220d9b88cd64d291cf7475e180e90a75fe716430a268895fe9431fa88cf50b1c04364736f6c63430008070033",
					"opcodes": "PUSH1 0x80 PUSH1 0x40 MSTORE CALLVALUE DUP1 ISZERO PUSH2 0x10 JUMPI PUSH1 0x0 DUP1 REVERT JUMPDEST POP PUSH2 0xFF2 DUP1 PUSH2 0x20 PUSH1 0x0 CODECOPY PUSH1 0x0 RETURN INVALID PUSH1 0x80 PUSH1 0x40 MSTORE CALLVALUE DUP1 ISZERO PUSH2 0x10 JUMPI PUSH1 0x0 DUP1 REVERT JUMPDEST POP PUSH1 0x4 CALLDATASIZE LT PUSH2 0x88 JUMPI PUSH1 0x0 CALLDATALOAD PUSH1 0xE0 SHR DUP1 PUSH4 0x91D14854 GT PUSH2 0x5B JUMPI DUP1 PUSH4 0x91D14854 EQ PUSH2 0x125 JUMPI DUP1 PUSH4 0xA217FDDF EQ PUSH2 0x155 JUMPI DUP1 PUSH4 0xA3298778 EQ PUSH2 0x173 JUMPI DUP1 PUSH4 0xD547741F EQ PUSH2 0x17D JUMPI PUSH2 0x88 JUMP JUMPDEST DUP1 PUSH4 0x1FFC9A7 EQ PUSH2 0x8D JUMPI DUP1 PUSH4 0x248A9CA3 EQ PUSH2 0xBD JUMPI DUP1 PUSH4 0x2F2FF15D EQ PUSH2 0xED JUMPI DUP1 PUSH4 0x36568ABE EQ PUSH2 0x109 JUMPI JUMPDEST PUSH1 0x0 DUP1 REVERT JUMPDEST PUSH2 0xA7 PUSH1 0x4 DUP1 CALLDATASIZE SUB DUP2 ADD SWAP1 PUSH2 0xA2 SWAP2 SWAP1 PUSH2 0x9D9 JUMP JUMPDEST PUSH2 0x199 JUMP JUMPDEST PUSH1 0x40 MLOAD PUSH2 0xB4 SWAP2 SWAP1 PUSH2 0xB77 JUMP JUMPDEST PUSH1 0x40 MLOAD DUP1 SWAP2 SUB SWAP1 RETURN JUMPDEST PUSH2 0xD7 PUSH1 0x4 DUP1 CALLDATASIZE SUB DUP2 ADD SWAP1 PUSH2 0xD2 SWAP2 SWAP1 PUSH2 0x96C JUMP JUMPDEST PUSH2 0x213 JUMP JUMPDEST PUSH1 0x40 MLOAD PUSH2 0xE4 SWAP2 SWAP1 PUSH2 0xB92 JUMP JUMPDEST PUSH1 0x40 MLOAD DUP1 SWAP2 SUB SWAP1 RETURN JUMPDEST PUSH2 0x107 PUSH1 0x4 DUP1 CALLDATASIZE SUB DUP2 ADD SWAP1 PUSH2 0x102 SWAP2 SWAP1 PUSH2 0x999 JUMP JUMPDEST PUSH2 0x232 JUMP JUMPDEST STOP JUMPDEST PUSH2 0x123 PUSH1 0x4 DUP1 CALLDATASIZE SUB DUP2 ADD SWAP1 PUSH2 0x11E SWAP2 SWAP1 PUSH2 0x999 JUMP JUMPDEST PUSH2 0x253 JUMP JUMPDEST STOP JUMPDEST PUSH2 0x13F PUSH1 0x4 DUP1 CALLDATASIZE SUB DUP2 ADD SWAP1 PUSH2 0x13A SWAP2 SWAP1 PUSH2 0x999 JUMP JUMPDEST PUSH2 0x2D6 JUMP JUMPDEST PUSH1 0x40 MLOAD PUSH2 0x14C SWAP2 SWAP1 PUSH2 0xB77 JUMP JUMPDEST PUSH1 0x40 MLOAD DUP1 SWAP2 SUB SWAP1 RETURN JUMPDEST PUSH2 0x15D PUSH2 0x340 JUMP JUMPDEST PUSH1 0x40 MLOAD PUSH2 0x16A SWAP2 SWAP1 PUSH2 0xB92 JUMP JUMPDEST PUSH1 0x40 MLOAD DUP1 SWAP2 SUB SWAP1 RETURN JUMPDEST PUSH2 0x17B PUSH2 0x347 JUMP JUMPDEST STOP JUMPDEST PUSH2 0x197 PUSH1 0x4 DUP1 CALLDATASIZE SUB DUP2 ADD SWAP1 PUSH2 0x192 SWAP2 SWAP1 PUSH2 0x999 JUMP JUMPDEST PUSH2 0x3EC JUMP JUMPDEST STOP JUMPDEST PUSH1 0x0 PUSH32 0x7965DB0B00000000000000000000000000000000000000000000000000000000 PUSH28 0xFFFFFFFFFFFFFFFFFFFFFFFFFFFFFFFFFFFFFFFFFFFFFFFFFFFFFFFF NOT AND DUP3 PUSH28 0xFFFFFFFFFFFFFFFFFFFFFFFFFFFFFFFFFFFFFFFFFFFFFFFFFFFFFFFF NOT AND EQ DUP1 PUSH2 0x20C JUMPI POP PUSH2 0x20B DUP3 PUSH2 0x40D JUMP JUMPDEST JUMPDEST SWAP1 POP SWAP2 SWAP1 POP JUMP JUMPDEST PUSH1 0x0 DUP1 PUSH1 0x0 DUP4 DUP2 MSTORE PUSH1 0x20 ADD SWAP1 DUP2 MSTORE PUSH1 0x20 ADD PUSH1 0x0 KECCAK256 PUSH1 0x1 ADD SLOAD SWAP1 POP SWAP2 SWAP1 POP JUMP JUMPDEST PUSH2 0x23B DUP3 PUSH2 0x213 JUMP JUMPDEST PUSH2 0x244 DUP2 PUSH2 0x477 JUMP JUMPDEST PUSH2 0x24E DUP4 DUP4 PUSH2 0x48B JUMP JUMPDEST POP POP POP JUMP JUMPDEST PUSH2 0x25B PUSH2 0x56B JUMP JUMPDEST PUSH20 0xFFFFFFFFFFFFFFFFFFFFFFFFFFFFFFFFFFFFFFFF AND DUP2 PUSH20 0xFFFFFFFFFFFFFFFFFFFFFFFFFFFFFFFFFFFFFFFF AND EQ PUSH2 0x2C8 JUMPI PUSH1 0x40 MLOAD PUSH32 0x8C379A000000000000000000000000000000000000000000000000000000000 DUP2 MSTORE PUSH1 0x4 ADD PUSH2 0x2BF SWAP1 PUSH2 0xC0F JUMP JUMPDEST PUSH1 0x40 MLOAD DUP1 SWAP2 SUB SWAP1 REVERT JUMPDEST PUSH2 0x2D2 DUP3 DUP3 PUSH2 0x573 JUMP JUMPDEST POP POP JUMP JUMPDEST PUSH1 0x0 DUP1 PUSH1 0x0 DUP5 DUP2 MSTORE PUSH1 0x20 ADD SWAP1 DUP2 MSTORE PUSH1 0x20 ADD PUSH1 0x0 KECCAK256 PUSH1 0x0 ADD PUSH1 0x0 DUP4 PUSH20 0xFFFFFFFFFFFFFFFFFFFFFFFFFFFFFFFFFFFFFFFF AND PUSH20 0xFFFFFFFFFFFFFFFFFFFFFFFFFFFFFFFFFFFFFFFF AND DUP2 MSTORE PUSH1 0x20 ADD SWAP1 DUP2 MSTORE PUSH1 0x20 ADD PUSH1 0x0 KECCAK256 PUSH1 0x0 SWAP1 SLOAD SWAP1 PUSH2 0x100 EXP SWAP1 DIV PUSH1 0xFF AND SWAP1 POP SWAP3 SWAP2 POP POP JUMP JUMPDEST PUSH1 0x0 DUP1 SHL DUP2 JUMP JUMPDEST PUSH1 0x40 MLOAD DUP1 PUSH1 0x40 ADD PUSH1 0x40 MSTORE DUP1 PUSH1 0x9 DUP2 MSTORE PUSH1 0x20 ADD PUSH32 0x6466616666646164660000000000000000000000000000000000000000000000 DUP2 MSTORE POP PUSH32 0x63E9370C5B01EE8896E536F1F2FC902C945D630EB37FAF0981FB9146088FC423 DUP2 PUSH1 0x40 MLOAD PUSH2 0x3AC SWAP2 SWAP1 PUSH2 0xBAD JUMP JUMPDEST PUSH1 0x40 MLOAD DUP1 SWAP2 SUB SWAP1 LOG1 PUSH32 0x63E9370C5B01EE8896E536F1F2FC902C945D630EB37FAF0981FB9146088FC423 PUSH1 0x40 MLOAD PUSH2 0x3E1 SWAP1 PUSH2 0xBEF JUMP JUMPDEST PUSH1 0x40 MLOAD DUP1 SWAP2 SUB SWAP1 LOG1 POP JUMP JUMPDEST PUSH2 0x3F5 DUP3 PUSH2 0x213 JUMP JUMPDEST PUSH2 0x3FE DUP2 PUSH2 0x477 JUMP JUMPDEST PUSH2 0x408 DUP4 DUP4 PUSH2 0x573 JUMP JUMPDEST POP POP POP JUMP JUMPDEST PUSH1 0x0 PUSH32 0x1FFC9A700000000000000000000000000000000000000000000000000000000 PUSH28 0xFFFFFFFFFFFFFFFFFFFFFFFFFFFFFFFFFFFFFFFFFFFFFFFFFFFFFFFF NOT AND DUP3 PUSH28 0xFFFFFFFFFFFFFFFFFFFFFFFFFFFFFFFFFFFFFFFFFFFFFFFFFFFFFFFF NOT AND EQ SWAP1 POP SWAP2 SWAP1 POP JUMP JUMPDEST PUSH2 0x488 DUP2 PUSH2 0x483 PUSH2 0x56B JUMP JUMPDEST PUSH2 0x654 JUMP JUMPDEST POP JUMP JUMPDEST PUSH2 0x495 DUP3 DUP3 PUSH2 0x2D6 JUMP JUMPDEST PUSH2 0x567 JUMPI PUSH1 0x1 PUSH1 0x0 DUP1 DUP5 DUP2 MSTORE PUSH1 0x20 ADD SWAP1 DUP2 MSTORE PUSH1 0x20 ADD PUSH1 0x0 KECCAK256 PUSH1 0x0 ADD PUSH1 0x0 DUP4 PUSH20 0xFFFFFFFFFFFFFFFFFFFFFFFFFFFFFFFFFFFFFFFF AND PUSH20 0xFFFFFFFFFFFFFFFFFFFFFFFFFFFFFFFFFFFFFFFF AND DUP2 MSTORE PUSH1 0x20 ADD SWAP1 DUP2 MSTORE PUSH1 0x20 ADD PUSH1 0x0 KECCAK256 PUSH1 0x0 PUSH2 0x100 EXP DUP2 SLOAD DUP2 PUSH1 0xFF MUL NOT AND SWAP1 DUP4 ISZERO ISZERO MUL OR SWAP1 SSTORE POP PUSH2 0x50C PUSH2 0x56B JUMP JUMPDEST PUSH20 0xFFFFFFFFFFFFFFFFFFFFFFFFFFFFFFFFFFFFFFFF AND DUP2 PUSH20 0xFFFFFFFFFFFFFFFFFFFFFFFFFFFFFFFFFFFFFFFF AND DUP4 PUSH32 0x2F8788117E7EFF1D82E926EC794901D17C78024A50270940304540A733656F0D PUSH1 0x40 MLOAD PUSH1 0x40 MLOAD DUP1 SWAP2 SUB SWAP1 LOG4 JUMPDEST POP POP JUMP JUMPDEST PUSH1 0x0 CALLER SWAP1 POP SWAP1 JUMP JUMPDEST PUSH2 0x57D DUP3 DUP3 PUSH2 0x2D6 JUMP JUMPDEST ISZERO PUSH2 0x650 JUMPI PUSH1 0x0 DUP1 PUSH1 0x0 DUP5 DUP2 MSTORE PUSH1 0x20 ADD SWAP1 DUP2 MSTORE PUSH1 0x20 ADD PUSH1 0x0 KECCAK256 PUSH1 0x0 ADD PUSH1 0x0 DUP4 PUSH20 0xFFFFFFFFFFFFFFFFFFFFFFFFFFFFFFFFFFFFFFFF AND PUSH20 0xFFFFFFFFFFFFFFFFFFFFFFFFFFFFFFFFFFFFFFFF AND DUP2 MSTORE PUSH1 0x20 ADD SWAP1 DUP2 MSTORE PUSH1 0x20 ADD PUSH1 0x0 KECCAK256 PUSH1 0x0 PUSH2 0x100 EXP DUP2 SLOAD DUP2 PUSH1 0xFF MUL NOT AND SWAP1 DUP4 ISZERO ISZERO MUL OR SWAP1 SSTORE POP PUSH2 0x5F5 PUSH2 0x56B JUMP JUMPDEST PUSH20 0xFFFFFFFFFFFFFFFFFFFFFFFFFFFFFFFFFFFFFFFF AND DUP2 PUSH20 0xFFFFFFFFFFFFFFFFFFFFFFFFFFFFFFFFFFFFFFFF AND DUP4 PUSH32 0xF6391F5C32D9C69D2A47EA670B442974B53935D1EDC7FD64EB21E047A839171B PUSH1 0x40 MLOAD PUSH1 0x40 MLOAD DUP1 SWAP2 SUB SWAP1 LOG4 JUMPDEST POP POP JUMP JUMPDEST PUSH2 0x65E DUP3 DUP3 PUSH2 0x2D6 JUMP JUMPDEST PUSH2 0x6ED JUMPI PUSH2 0x683 DUP2 PUSH20 0xFFFFFFFFFFFFFFFFFFFFFFFFFFFFFFFFFFFFFFFF AND PUSH1 0x14 PUSH2 0x6F1 JUMP JUMPDEST PUSH2 0x691 DUP4 PUSH1 0x0 SHR PUSH1 0x20 PUSH2 0x6F1 JUMP JUMPDEST PUSH1 0x40 MLOAD PUSH1 0x20 ADD PUSH2 0x6A2 SWAP3 SWAP2 SWAP1 PUSH2 0xB3D JUMP JUMPDEST PUSH1 0x40 MLOAD PUSH1 0x20 DUP2 DUP4 SUB SUB DUP2 MSTORE SWAP1 PUSH1 0x40 MSTORE PUSH1 0x40 MLOAD PUSH32 0x8C379A000000000000000000000000000000000000000000000000000000000 DUP2 MSTORE PUSH1 0x4 ADD PUSH2 0x6E4 SWAP2 SWAP1 PUSH2 0xBAD JUMP JUMPDEST PUSH1 0x40 MLOAD DUP1 SWAP2 SUB SWAP1 REVERT JUMPDEST POP POP JUMP JUMPDEST PUSH1 0x60 PUSH1 0x0 PUSH1 0x2 DUP4 PUSH1 0x2 PUSH2 0x704 SWAP2 SWAP1 PUSH2 0xCAC JUMP JUMPDEST PUSH2 0x70E SWAP2 SWAP1 PUSH2 0xC56 JUMP JUMPDEST PUSH8 0xFFFFFFFFFFFFFFFF DUP2 GT ISZERO PUSH2 0x727 JUMPI PUSH2 0x726 PUSH2 0xE3F JUMP JUMPDEST JUMPDEST PUSH1 0x40 MLOAD SWAP1 DUP1 DUP3 MSTORE DUP1 PUSH1 0x1F ADD PUSH1 0x1F NOT AND PUSH1 0x20 ADD DUP3 ADD PUSH1 0x40 MSTORE DUP1 ISZERO PUSH2 0x759 JUMPI DUP2 PUSH1 0x20 ADD PUSH1 0x1 DUP3 MUL DUP1 CALLDATASIZE DUP4 CALLDATACOPY DUP1 DUP3 ADD SWAP2 POP POP SWAP1 POP JUMPDEST POP SWAP1 POP PUSH32 0x3000000000000000000000000000000000000000000000000000000000000000 DUP2 PUSH1 0x0 DUP2 MLOAD DUP2 LT PUSH2 0x791 JUMPI PUSH2 0x790 PUSH2 0xE10 JUMP JUMPDEST JUMPDEST PUSH1 0x20 ADD ADD SWAP1 PUSH31 0xFFFFFFFFFFFFFFFFFFFFFFFFFFFFFFFFFFFFFFFFFFFFFFFFFFFFFFFFFFFFFF NOT AND SWAP1 DUP2 PUSH1 0x0 BYTE SWAP1 MSTORE8 POP PUSH32 0x7800000000000000000000000000000000000000000000000000000000000000 DUP2 PUSH1 0x1 DUP2 MLOAD DUP2 LT PUSH2 0x7F5 JUMPI PUSH2 0x7F4 PUSH2 0xE10 JUMP JUMPDEST JUMPDEST PUSH1 0x20 ADD ADD SWAP1 PUSH31 0xFFFFFFFFFFFFFFFFFFFFFFFFFFFFFFFFFFFFFFFFFFFFFFFFFFFFFFFFFFFFFF NOT AND SWAP1 DUP2 PUSH1 0x0 BYTE SWAP1 MSTORE8 POP PUSH1 0x0 PUSH1 0x1 DUP5 PUSH1 0x2 PUSH2 0x835 SWAP2 SWAP1 PUSH2 0xCAC JUMP JUMPDEST PUSH2 0x83F SWAP2 SWAP1 PUSH2 0xC56 JUMP JUMPDEST SWAP1 POP JUMPDEST PUSH1 0x1 DUP2 GT ISZERO PUSH2 0x8DF JUMPI PUSH32 0x3031323334353637383961626364656600000000000000000000000000000000 PUSH1 0xF DUP7 AND PUSH1 0x10 DUP2 LT PUSH2 0x881 JUMPI PUSH2 0x880 PUSH2 0xE10 JUMP JUMPDEST JUMPDEST BYTE PUSH1 0xF8 SHL DUP3 DUP3 DUP2 MLOAD DUP2 LT PUSH2 0x898 JUMPI PUSH2 0x897 PUSH2 0xE10 JUMP JUMPDEST JUMPDEST PUSH1 0x20 ADD ADD SWAP1 PUSH31 0xFFFFFFFFFFFFFFFFFFFFFFFFFFFFFFFFFFFFFFFFFFFFFFFFFFFFFFFFFFFFFF NOT AND SWAP1 DUP2 PUSH1 0x0 BYTE SWAP1 MSTORE8 POP PUSH1 0x4 DUP6 SWAP1 SHR SWAP5 POP DUP1 PUSH2 0x8D8 SWAP1 PUSH2 0xDB7 JUMP JUMPDEST SWAP1 POP PUSH2 0x842 JUMP JUMPDEST POP PUSH1 0x0 DUP5 EQ PUSH2 0x923 JUMPI PUSH1 0x40 MLOAD PUSH32 0x8C379A000000000000000000000000000000000000000000000000000000000 DUP2 MSTORE PUSH1 0x4 ADD PUSH2 0x91A SWAP1 PUSH2 0xBCF JUMP JUMPDEST PUSH1 0x40 MLOAD DUP1 SWAP2 SUB SWAP1 REVERT JUMPDEST DUP1 SWAP2 POP POP SWAP3 SWAP2 POP POP JUMP JUMPDEST PUSH1 0x0 DUP2 CALLDATALOAD SWAP1 POP PUSH2 0x93C DUP2 PUSH2 0xF77 JUMP JUMPDEST SWAP3 SWAP2 POP POP JUMP JUMPDEST PUSH1 0x0 DUP2 CALLDATALOAD SWAP1 POP PUSH2 0x951 DUP2 PUSH2 0xF8E JUMP JUMPDEST SWAP3 SWAP2 POP POP JUMP JUMPDEST PUSH1 0x0 DUP2 CALLDATALOAD SWAP1 POP PUSH2 0x966 DUP2 PUSH2 0xFA5 JUMP JUMPDEST SWAP3 SWAP2 POP POP JUMP JUMPDEST PUSH1 0x0 PUSH1 0x20 DUP3 DUP5 SUB SLT ISZERO PUSH2 0x982 JUMPI PUSH2 0x981 PUSH2 0xE6E JUMP JUMPDEST JUMPDEST PUSH1 0x0 PUSH2 0x990 DUP5 DUP3 DUP6 ADD PUSH2 0x942 JUMP JUMPDEST SWAP2 POP POP SWAP3 SWAP2 POP POP JUMP JUMPDEST PUSH1 0x0 DUP1 PUSH1 0x40 DUP4 DUP6 SUB SLT ISZERO PUSH2 0x9B0 JUMPI PUSH2 0x9AF PUSH2 0xE6E JUMP JUMPDEST JUMPDEST PUSH1 0x0 PUSH2 0x9BE DUP6 DUP3 DUP7 ADD PUSH2 0x942 JUMP JUMPDEST SWAP3 POP POP PUSH1 0x20 PUSH2 0x9CF DUP6 DUP3 DUP7 ADD PUSH2 0x92D JUMP JUMPDEST SWAP2 POP POP SWAP3 POP SWAP3 SWAP1 POP JUMP JUMPDEST PUSH1 0x0 PUSH1 0x20 DUP3 DUP5 SUB SLT ISZERO PUSH2 0x9EF JUMPI PUSH2 0x9EE PUSH2 0xE6E JUMP JUMPDEST JUMPDEST PUSH1 0x0 PUSH2 0x9FD DUP5 DUP3 DUP6 ADD PUSH2 0x957 JUMP JUMPDEST SWAP2 POP POP SWAP3 SWAP2 POP POP JUMP JUMPDEST PUSH2 0xA0F DUP2 PUSH2 0xD18 JUMP JUMPDEST DUP3 MSTORE POP POP JUMP JUMPDEST PUSH2 0xA1E DUP2 PUSH2 0xD24 JUMP JUMPDEST DUP3 MSTORE POP POP JUMP JUMPDEST PUSH1 0x0 PUSH2 0xA2F DUP3 PUSH2 0xC2F JUMP JUMPDEST PUSH2 0xA39 DUP2 DUP6 PUSH2 0xC3A JUMP JUMPDEST SWAP4 POP PUSH2 0xA49 DUP2 DUP6 PUSH1 0x20 DUP7 ADD PUSH2 0xD84 JUMP JUMPDEST PUSH2 0xA52 DUP2 PUSH2 0xE73 JUMP JUMPDEST DUP5 ADD SWAP2 POP POP SWAP3 SWAP2 POP POP JUMP JUMPDEST PUSH1 0x0 PUSH2 0xA68 DUP3 PUSH2 0xC2F JUMP JUMPDEST PUSH2 0xA72 DUP2 DUP6 PUSH2 0xC4B JUMP JUMPDEST SWAP4 POP PUSH2 0xA82 DUP2 DUP6 PUSH1 0x20 DUP7 ADD PUSH2 0xD84 JUMP JUMPDEST DUP1 DUP5 ADD SWAP2 POP POP SWAP3 SWAP2 POP POP JUMP JUMPDEST PUSH1 0x0 PUSH2 0xA9B PUSH1 0x20 DUP4 PUSH2 0xC3A JUMP JUMPDEST SWAP2 POP PUSH2 0xAA6 DUP3 PUSH2 0xE84 JUMP JUMPDEST PUSH1 0x20 DUP3 ADD SWAP1 POP SWAP2 SWAP1 POP JUMP JUMPDEST PUSH1 0x0 PUSH2 0xABE PUSH1 0xB DUP4 PUSH2 0xC3A JUMP JUMPDEST SWAP2 POP PUSH2 0xAC9 DUP3 PUSH2 0xEAD JUMP JUMPDEST PUSH1 0x20 DUP3 ADD SWAP1 POP SWAP2 SWAP1 POP JUMP JUMPDEST PUSH1 0x0 PUSH2 0xAE1 PUSH1 0x17 DUP4 PUSH2 0xC4B JUMP JUMPDEST SWAP2 POP PUSH2 0xAEC DUP3 PUSH2 0xED6 JUMP JUMPDEST PUSH1 0x17 DUP3 ADD SWAP1 POP SWAP2 SWAP1 POP JUMP JUMPDEST PUSH1 0x0 PUSH2 0xB04 PUSH1 0x11 DUP4 PUSH2 0xC4B JUMP JUMPDEST SWAP2 POP PUSH2 0xB0F DUP3 PUSH2 0xEFF JUMP JUMPDEST PUSH1 0x11 DUP3 ADD SWAP1 POP SWAP2 SWAP1 POP JUMP JUMPDEST PUSH1 0x0 PUSH2 0xB27 PUSH1 0x2F DUP4 PUSH2 0xC3A JUMP JUMPDEST SWAP2 POP PUSH2 0xB32 DUP3 PUSH2 0xF28 JUMP JUMPDEST PUSH1 0x40 DUP3 ADD SWAP1 POP SWAP2 SWAP1 POP JUMP JUMPDEST PUSH1 0x0 PUSH2 0xB48 DUP3 PUSH2 0xAD4 JUMP JUMPDEST SWAP2 POP PUSH2 0xB54 DUP3 DUP6 PUSH2 0xA5D JUMP JUMPDEST SWAP2 POP PUSH2 0xB5F DUP3 PUSH2 0xAF7 JUMP JUMPDEST SWAP2 POP PUSH2 0xB6B DUP3 DUP5 PUSH2 0xA5D JUMP JUMPDEST SWAP2 POP DUP2 SWAP1 POP SWAP4 SWAP3 POP POP POP JUMP JUMPDEST PUSH1 0x0 PUSH1 0x20 DUP3 ADD SWAP1 POP PUSH2 0xB8C PUSH1 0x0 DUP4 ADD DUP5 PUSH2 0xA06 JUMP JUMPDEST SWAP3 SWAP2 POP POP JUMP JUMPDEST PUSH1 0x0 PUSH1 0x20 DUP3 ADD SWAP1 POP PUSH2 0xBA7 PUSH1 0x0 DUP4 ADD DUP5 PUSH2 0xA15 JUMP JUMPDEST SWAP3 SWAP2 POP POP JUMP JUMPDEST PUSH1 0x0 PUSH1 0x20 DUP3 ADD SWAP1 POP DUP2 DUP2 SUB PUSH1 0x0 DUP4 ADD MSTORE PUSH2 0xBC7 DUP2 DUP5 PUSH2 0xA24 JUMP JUMPDEST SWAP1 POP SWAP3 SWAP2 POP POP JUMP JUMPDEST PUSH1 0x0 PUSH1 0x20 DUP3 ADD SWAP1 POP DUP2 DUP2 SUB PUSH1 0x0 DUP4 ADD MSTORE PUSH2 0xBE8 DUP2 PUSH2 0xA8E JUMP JUMPDEST SWAP1 POP SWAP2 SWAP1 POP JUMP JUMPDEST PUSH1 0x0 PUSH1 0x20 DUP3 ADD SWAP1 POP DUP2 DUP2 SUB PUSH1 0x0 DUP4 ADD MSTORE PUSH2 0xC08 DUP2 PUSH2 0xAB1 JUMP JUMPDEST SWAP1 POP SWAP2 SWAP1 POP JUMP JUMPDEST PUSH1 0x0 PUSH1 0x20 DUP3 ADD SWAP1 POP DUP2 DUP2 SUB PUSH1 0x0 DUP4 ADD MSTORE PUSH2 0xC28 DUP2 PUSH2 0xB1A JUMP JUMPDEST SWAP1 POP SWAP2 SWAP1 POP JUMP JUMPDEST PUSH1 0x0 DUP2 MLOAD SWAP1 POP SWAP2 SWAP1 POP JUMP JUMPDEST PUSH1 0x0 DUP3 DUP3 MSTORE PUSH1 0x20 DUP3 ADD SWAP1 POP SWAP3 SWAP2 POP POP JUMP JUMPDEST PUSH1 0x0 DUP2 SWAP1 POP SWAP3 SWAP2 POP POP JUMP JUMPDEST PUSH1 0x0 PUSH2 0xC61 DUP3 PUSH2 0xD7A JUMP JUMPDEST SWAP2 POP PUSH2 0xC6C DUP4 PUSH2 0xD7A JUMP JUMPDEST SWAP3 POP DUP3 PUSH32 0xFFFFFFFFFFFFFFFFFFFFFFFFFFFFFFFFFFFFFFFFFFFFFFFFFFFFFFFFFFFFFFFF SUB DUP3 GT ISZERO PUSH2 0xCA1 JUMPI PUSH2 0xCA0 PUSH2 0xDE1 JUMP JUMPDEST JUMPDEST DUP3 DUP3 ADD SWAP1 POP SWAP3 SWAP2 POP POP JUMP JUMPDEST PUSH1 0x0 PUSH2 0xCB7 DUP3 PUSH2 0xD7A JUMP JUMPDEST SWAP2 POP PUSH2 0xCC2 DUP4 PUSH2 0xD7A JUMP JUMPDEST SWAP3 POP DUP2 PUSH32 0xFFFFFFFFFFFFFFFFFFFFFFFFFFFFFFFFFFFFFFFFFFFFFFFFFFFFFFFFFFFFFFFF DIV DUP4 GT DUP3 ISZERO ISZERO AND ISZERO PUSH2 0xCFB JUMPI PUSH2 0xCFA PUSH2 0xDE1 JUMP JUMPDEST JUMPDEST DUP3 DUP3 MUL SWAP1 POP SWAP3 SWAP2 POP POP JUMP JUMPDEST PUSH1 0x0 PUSH2 0xD11 DUP3 PUSH2 0xD5A JUMP JUMPDEST SWAP1 POP SWAP2 SWAP1 POP JUMP JUMPDEST PUSH1 0x0 DUP2 ISZERO ISZERO SWAP1 POP SWAP2 SWAP1 POP JUMP JUMPDEST PUSH1 0x0 DUP2 SWAP1 POP SWAP2 SWAP1 POP JUMP JUMPDEST PUSH1 0x0 PUSH32 0xFFFFFFFF00000000000000000000000000000000000000000000000000000000 DUP3 AND SWAP1 POP SWAP2 SWAP1 POP JUMP JUMPDEST PUSH1 0x0 PUSH20 0xFFFFFFFFFFFFFFFFFFFFFFFFFFFFFFFFFFFFFFFF DUP3 AND SWAP1 POP SWAP2 SWAP1 POP JUMP JUMPDEST PUSH1 0x0 DUP2 SWAP1 POP SWAP2 SWAP1 POP JUMP JUMPDEST PUSH1 0x0 JUMPDEST DUP4 DUP2 LT ISZERO PUSH2 0xDA2 JUMPI DUP1 DUP3 ADD MLOAD DUP2 DUP5 ADD MSTORE PUSH1 0x20 DUP2 ADD SWAP1 POP PUSH2 0xD87 JUMP JUMPDEST DUP4 DUP2 GT ISZERO PUSH2 0xDB1 JUMPI PUSH1 0x0 DUP5 DUP5 ADD MSTORE JUMPDEST POP POP POP POP JUMP JUMPDEST PUSH1 0x0 PUSH2 0xDC2 DUP3 PUSH2 0xD7A JUMP JUMPDEST SWAP2 POP PUSH1 0x0 DUP3 EQ ISZERO PUSH2 0xDD6 JUMPI PUSH2 0xDD5 PUSH2 0xDE1 JUMP JUMPDEST JUMPDEST PUSH1 0x1 DUP3 SUB SWAP1 POP SWAP2 SWAP1 POP JUMP JUMPDEST PUSH32 0x4E487B7100000000000000000000000000000000000000000000000000000000 PUSH1 0x0 MSTORE PUSH1 0x11 PUSH1 0x4 MSTORE PUSH1 0x24 PUSH1 0x0 REVERT JUMPDEST PUSH32 0x4E487B7100000000000000000000000000000000000000000000000000000000 PUSH1 0x0 MSTORE PUSH1 0x32 PUSH1 0x4 MSTORE PUSH1 0x24 PUSH1 0x0 REVERT JUMPDEST PUSH32 0x4E487B7100000000000000000000000000000000000000000000000000000000 PUSH1 0x0 MSTORE PUSH1 0x41 PUSH1 0x4 MSTORE PUSH1 0x24 PUSH1 0x0 REVERT JUMPDEST PUSH1 0x0 DUP1 REVERT JUMPDEST PUSH1 0x0 PUSH1 0x1F NOT PUSH1 0x1F DUP4 ADD AND SWAP1 POP SWAP2 SWAP1 POP JUMP JUMPDEST PUSH32 0x537472696E67733A20686578206C656E67746820696E73756666696369656E74 PUSH1 0x0 DUP3 ADD MSTORE POP JUMP JUMPDEST PUSH32 0x6466616661646661666461000000000000000000000000000000000000000000 PUSH1 0x0 DUP3 ADD MSTORE POP JUMP JUMPDEST PUSH32 0x416363657373436F6E74726F6C3A206163636F756E7420000000000000000000 PUSH1 0x0 DUP3 ADD MSTORE POP JUMP JUMPDEST PUSH32 0x206973206D697373696E6720726F6C6520000000000000000000000000000000 PUSH1 0x0 DUP3 ADD MSTORE POP JUMP JUMPDEST PUSH32 0x416363657373436F6E74726F6C3A2063616E206F6E6C792072656E6F756E6365 PUSH1 0x0 DUP3 ADD MSTORE PUSH32 0x20726F6C657320666F722073656C660000000000000000000000000000000000 PUSH1 0x20 DUP3 ADD MSTORE POP JUMP JUMPDEST PUSH2 0xF80 DUP2 PUSH2 0xD06 JUMP JUMPDEST DUP2 EQ PUSH2 0xF8B JUMPI PUSH1 0x0 DUP1 REVERT JUMPDEST POP JUMP JUMPDEST PUSH2 0xF97 DUP2 PUSH2 0xD24 JUMP JUMPDEST DUP2 EQ PUSH2 0xFA2 JUMPI PUSH1 0x0 DUP1 REVERT JUMPDEST POP JUMP JUMPDEST PUSH2 0xFAE DUP2 PUSH2 0xD2E JUMP JUMPDEST DUP2 EQ PUSH2 0xFB9 JUMPI PUSH1 0x0 DUP1 REVERT JUMPDEST POP JUMP INVALID LOG2 PUSH5 0x6970667358 0x22 SLT KECCAK256 0xD9 0xB8 DUP13 0xD6 0x4D 0x29 SHR 0xF7 SELFBALANCE 0x5E XOR 0xE SWAP1 0xA7 0x5F 0xE7 AND NUMBER EXP 0x26 DUP9 SWAP6 INVALID SWAP5 BALANCE STATICCALL DUP9 0xCF POP 0xB1 0xC0 NUMBER PUSH5 0x736F6C6343 STOP ADDMOD SMOD STOP CALLER "
				},
				"gasEstimates": {
					"creation": {
						"codeDepositCost": "816400",
						"executionCost": "851",
						"totalCost": "817251"
					},
					"external": {
						"DEFAULT_ADMIN_ROLE()": "357",
						"getRoleAdmin(bytes32)": "infinite",
						"grantRole(bytes32,address)": "infinite",
						"hasRole(bytes32,address)": "3140",
						"renounceRole(bytes32,address)": "infinite",
						"revokeRole(bytes32,address)": "infinite",
						"supportsInterface(bytes4)": "728",
						"trytodo()": "infinite"
					}
				},
				"methodIdentifiers": {
					"DEFAULT_ADMIN_ROLE()": "a217fddf",
					"getRoleAdmin(bytes32)": "248a9ca3",
					"grantRole(bytes32,address)": "2f2ff15d",
					"hasRole(bytes32,address)": "91d14854",
					"renounceRole(bytes32,address)": "36568abe",
					"revokeRole(bytes32,address)": "d547741f",
					"supportsInterface(bytes4)": "01ffc9a7",
					"trytodo()": "a3298778"
				}
			},
			"storageLayout": {
				"storage": [
					{
						"astId": 24,
						"contract": "contracts/DaoTest.sol:DaoTest",
						"label": "_roles",
						"offset": 0,
						"slot": "0",
						"type": "t_mapping(t_bytes32,t_struct(RoleData)19_storage)"
					},
					{
						"astId": 684,
						"contract": "contracts/DaoTest.sol:DaoTest",
						"label": "accessibleRoles",
						"offset": 0,
						"slot": "1",
						"type": "t_array(t_bool)dyn_storage"
					}
				],
				"types": {
					"t_address": {
						"encoding": "inplace",
						"label": "address",
						"numberOfBytes": "20"
					},
					"t_array(t_bool)dyn_storage": {
						"base": "t_bool",
						"encoding": "dynamic_array",
						"label": "bool[]",
						"numberOfBytes": "32"
					},
					"t_bool": {
						"encoding": "inplace",
						"label": "bool",
						"numberOfBytes": "1"
					},
					"t_bytes32": {
						"encoding": "inplace",
						"label": "bytes32",
						"numberOfBytes": "32"
					},
					"t_mapping(t_address,t_bool)": {
						"encoding": "mapping",
						"key": "t_address",
						"label": "mapping(address => bool)",
						"numberOfBytes": "32",
						"value": "t_bool"
					},
					"t_mapping(t_bytes32,t_struct(RoleData)19_storage)": {
						"encoding": "mapping",
						"key": "t_bytes32",
						"label": "mapping(bytes32 => struct AccessControl.RoleData)",
						"numberOfBytes": "32",
						"value": "t_struct(RoleData)19_storage"
					},
					"t_struct(RoleData)19_storage": {
						"encoding": "inplace",
						"label": "struct AccessControl.RoleData",
						"members": [
							{
								"astId": 16,
								"contract": "contracts/DaoTest.sol:DaoTest",
								"label": "members",
								"offset": 0,
								"slot": "0",
								"type": "t_mapping(t_address,t_bool)"
							},
							{
								"astId": 18,
								"contract": "contracts/DaoTest.sol:DaoTest",
								"label": "adminRole",
								"offset": 0,
								"slot": "1",
								"type": "t_bytes32"
							}
						],
						"numberOfBytes": "64"
					}
				}
			},
			"userdoc": {
				"kind": "user",
				"methods": {},
				"version": 1
			}
		}
	}
}