{
	"data": {
		"bytecode": {
			"linkReferences": {},
			"object": "60a06040819052600060808190526200001b9160039162000223565b503480156200002957600080fd5b5060405162001f8f38038062001f8f8339810160408190526200004c91620002c9565b6200005662000073565b80516200006b90600390602084019062000223565b505062000422565b6000600255620000a37fdf8b4c520ffe197c5343c6f5aec59570151ef9a492f2c624fd45ddde6135ec42620001a7565b620000ce7f73d57861095ed1ff7b0e5c00e25f9fc922cf9164e617149ee7073f371364c954620001a7565b620000f97f593fb413ec9f9ad9f53f309300b515310ff474591268ca3cbe9752fd88eb76a0620001a7565b620001247f619c22e0b753cc842b48b0d4e2babc23b4eb0174b02a532e9e237dfcff24a5d3620001a7565b6200014f7f3f5ee1af94e3aa4df76e406b3122f661b96747f62a002ec9e7c726e310fcc5de620001a7565b6200017a7fa724c0857099da33c38b932ce5d4e84578ee9792153085d9d5e379bfba70cacb620001a7565b620001a57fffa60083152bd11704a80cc8c7a409dad8aa74288b454a3ba0e94c0abc7cf168620001a7565b565b600081815260208181526040808320600381018054600160ff1991821681179092553380875283865284872080549092168317909155858052818301855283862080546001600160a01b031916909117905560029182018190558154855290925282208390558054916200021b83620003e2565b919050555050565b8280546200023190620003a5565b90600052602060002090601f016020900481019282620002555760008555620002a0565b82601f106200027057805160ff1916838001178555620002a0565b82800160010185558215620002a0579182015b82811115620002a057825182559160200191906001019062000283565b50620002ae929150620002b2565b5090565b5b80821115620002ae5760008155600101620002b3565b60006020808385031215620002dd57600080fd5b82516001600160401b0380821115620002f557600080fd5b818501915085601f8301126200030a57600080fd5b8151818111156200031f576200031f6200040c565b604051601f8201601f19908116603f011681019083821181831017156200034a576200034a6200040c565b8160405282815288868487010111156200036357600080fd5b600093505b8284101562000387578484018601518185018701529285019262000368565b82841115620003995760008684830101525b98975050505050505050565b600181811c90821680620003ba57607f821691505b60208210811415620003dc57634e487b7160e01b600052602260045260246000fd5b50919050565b60006000198214156200040557634e487b7160e01b600052601160045260246000fd5b5060010190565b634e487b7160e01b600052604160045260246000fd5b611b5d80620004326000396000f3fe608060405234801561001057600080fd5b506004361061010b5760003560e01c806375829def116100a2578063a425af8511610071578063a425af851461022f578063a9c9678714610237578063b0258db81461024a578063e9cb00a21461025d578063fe64a0d01461027057600080fd5b806375829def146101e357806380891cb2146101f65780639b8f3bbc14610209578063a076a09e1461021c57600080fd5b806348976936116100de578063489769361461017a5780634c1b64cb1461018f57806356353d82146101a25780637058dd24146101c357600080fd5b80630a1eadce146101105780630c7f0dd01461012f5780633bee542c14610144578063437bf48b14610167575b600080fd5b610118610283565b60405161012692919061189f565b60405180910390f35b61014261013d366004611767565b6102d5565b005b6101576101523660046116b8565b610327565b6040519015158152602001610126565b6101426101753660046116ed565b610371565b6101826103ba565b60405161012691906118d8565b61014261019d366004611651565b610448565b6101b56101b03660046116ed565b610486565b60405161012692919061183f565b6101cb6104d8565b6040516001600160a01b039091168152602001610126565b6101426101f1366004611651565b61051d565b610118610204366004611651565b61055b565b6101b5610217366004611673565b61059c565b61015761022a366004611722565b6105dd565b61018261062d565b610142610245366004611722565b6106f5565b610142610258366004611722565b61073b565b61015761026b36600461168c565b610781565b61014261027e3660046116ed565b6107c2565b606080600080516020611b0883398151915261029f8133610807565b6102c45760405162461bcd60e51b81526004016102bb9061190b565b60405180910390fd5b6102cc610832565b92509250509091565b600080516020611ab18339815191526102ee8133610807565b61030a5760405162461bcd60e51b81526004016102bb9061190b565b61032283805190602001208380519060200120610966565b505050565b6000600080516020611b088339815191526103428133610807565b61035e5760405162461bcd60e51b81526004016102bb9061190b565b6103688484610970565b95945050505050565b600080516020611ab183398151915261038a8133610807565b6103a65760405162461bcd60e51b81526004016102bb9061190b565b6103b682805190602001206109a2565b5050565b600380546103c7906119ba565b80601f01602080910402602001604051908101604052809291908181526020018280546103f3906119ba565b80156104405780601f1061041557610100808354040283529160200191610440565b820191906000526020600020905b81548152906001019060200180831161042357829003601f168201915b505050505081565b600080516020611ab18339815191526104618133610807565b61047d5760405162461bcd60e51b81526004016102bb9061190b565b6103b682610aa3565b606080600080516020611b088339815191526104a28133610807565b6104be5760405162461bcd60e51b81526004016102bb9061190b565b6104ce8480519060200120610bbe565b9250925050915091565b6000600080516020611b088339815191526104f38133610807565b61050f5760405162461bcd60e51b81526004016102bb9061190b565b610517610d2f565b91505090565b600080516020611a918339815191526105368133610807565b6105525760405162461bcd60e51b81526004016102bb9061190b565b6103b682610e31565b606080600080516020611b088339815191526105778133610807565b6105935760405162461bcd60e51b81526004016102bb9061190b565b6104ce84610f21565b606080600080516020611b088339815191526105b88133610807565b6105d45760405162461bcd60e51b81526004016102bb9061190b565b6104ce84610bbe565b6000600080516020611b088339815191526105f88133610807565b6106145760405162461bcd60e51b81526004016102bb9061190b565b610625848051906020012084610970565b949350505050565b6060600080516020611b088339815191526106488133610807565b6106645760405162461bcd60e51b81526004016102bb9061190b565b60038054610671906119ba565b80601f016020809104026020016040519081016040528092919081815260200182805461069d906119ba565b80156106ea5780601f106106bf576101008083540402835291602001916106ea565b820191906000526020600020905b8154815290600101906020018083116106cd57829003601f168201915b505050505091505090565b600080516020611ab183398151915261070e8133610807565b61072a5760405162461bcd60e51b81526004016102bb9061190b565b610322838051906020012083611064565b600080516020611ab18339815191526107548133610807565b6107705760405162461bcd60e51b81526004016102bb9061190b565b61032283805190602001208361110b565b6000600080516020611b0883398151915261079c8133610807565b6107b85760405162461bcd60e51b81526004016102bb9061190b565b6106258484610970565b600080516020611ab18339815191526107db8133610807565b6107f75760405162461bcd60e51b81526004016102bb9061190b565b6103b682805190602001206111e0565b6000828152602081815260408083206001600160a01b038516845290915290205460ff165b92915050565b606080600060025467ffffffffffffffff81111561085257610852611a36565b60405190808252806020026020018201604052801561087b578160200160208202803683370190505b509050600060025467ffffffffffffffff81111561089b5761089b611a36565b6040519080825280602002602001820160405280156108c4578160200160208202803683370190505b50905060005b60025481101561095c5760008181526001602052604090205483518490839081106108f7576108f7611a20565b6020908102919091018101919091526000828152600182526040808220548252918190522060030154825160ff9091169083908390811061093a5761093a611a20565b9115156020928302919091019091015280610954816119ef565b9150506108ca565b5090939092509050565b6103b682826111f4565b60008281526020819052604081206003015460ff166109915750600061082c565b61099b8383610807565b905061082c565b60008181526020819052604090206003015460ff1680156109d15750600080516020611a918339815191528114155b15610a7f5760005b600082815260208190526040902060020154811015610a3857600082815260208181526040808320848452600181018352818420546001600160a01b031684529091529020805460ff1916905580610a30816119ef565b9150506109d9565b50600081815260208190526040808220600301805460ff1916905551339183917fe80208c3116f2c5b710796d7b3e8eb0b697c1c98be4297f9993bdb1905a2827b9190a350565b610aa0604051806060016040528060378152602001611ad160379139611429565b50565b610abb600080516020611a9183398151915282610807565b610b805760015b600254811015610b465760008181526001602090815260408083205483528282528083206001600160a01b038616845290915290205460ff1615610b345760008181526001602090815260408083205483528282528083206001600160a01b03861684529091529020805460ff191690555b80610b3e816119ef565b915050610ac2565b5060405133906001600160a01b038316907ffd7e144a5e02c1180e00f9591ef4f60aa95b127c4f134847224a4b6cb99fef9690600090a350565b610aa06040518060400160405280601881526020017f596f752063616e6e6f742064656c6574652041444d494e2e0000000000000000815250611429565b6000818152602081905260408120600201546060918291908167ffffffffffffffff811115610bef57610bef611a36565b604051908082528060200260200182016040528015610c18578160200160208202803683370190505b50905060008267ffffffffffffffff811115610c3657610c36611a36565b604051908082528060200260200182016040528015610c5f578160200160208202803683370190505b50905060005b83811015610d235760008781526020818152604080832084845260010190915290205483516001600160a01b0390911690849083908110610ca857610ca8611a20565b6001600160a01b0392831660209182029290920181019190915260008981528082526040808220858352600181018452818320549094168252929091522054825160ff90911690839083908110610d0157610d01611a20565b9115156020928302919091019091015280610d1b816119ef565b915050610c65565b50909590945092505050565b6000805b600080516020611a9183398151915260009081526020527f5cbfc8ee58ca47855df7bcf648dd304ddb6b932f9b87878bdf6318d7ec7ee5b954811015610df55760008181527f5cbfc8ee58ca47855df7bcf648dd304ddb6b932f9b87878bdf6318d7ec7ee5b860209081526040808320546001600160a01b031683527f5cbfc8ee58ca47855df7bcf648dd304ddb6b932f9b87878bdf6318d7ec7ee5b790915290205460ff1615610de357610df5565b80610ded816119ef565b915050610d33565b60009081527f5cbfc8ee58ca47855df7bcf648dd304ddb6b932f9b87878bdf6318d7ec7ee5b860205260409020546001600160a01b0316919050565b600080516020611a91833981519152600090815260208190527f5cbfc8ee58ca47855df7bcf648dd304ddb6b932f9b87878bdf6318d7ec7ee5b781610e74610d2f565b6001600160a01b031681526020810191909152604001600020805460ff1916911515919091179055610eb4600080516020611a9183398151915282611460565b6001600160a01b03811660008181527f5cbfc8ee58ca47855df7bcf648dd304ddb6b932f9b87878bdf6318d7ec7ee5b76020526040808220805460ff19166001179055513392917f173de3514d8508f36ce8c81d509adcd8c8c76098400f685d3042b36f9a4160c391a350565b606080600060025467ffffffffffffffff811115610f4157610f41611a36565b604051908082528060200260200182016040528015610f6a578160200160208202803683370190505b509050600060025467ffffffffffffffff811115610f8a57610f8a611a36565b604051908082528060200260200182016040528015610fb3578160200160208202803683370190505b50905060005b600254811015611059576000818152600160205260409020548351849083908110610fe657610fe6611a20565b60209081029190910181019190915260008281526001825260408082205482528183528082206001600160a01b038a1683529092522054825160ff9091169083908390811061103757611037611a20565b9115156020928302919091019091015280611051816119ef565b915050610fb9565b509094909350915050565b61106e8282610807565b801561108f575061108d600080516020611a9183398151915282610807565b155b156110ea576000828152602081815260408083206001600160a01b0385168085529252808320805460ff1916905551339285917f7b42e026d3b17cf41399915c285780d0f724b3464b269297aff73c0de0fe417f9190a45050565b6103b6604051806080016040528060448152602001611a4d60449139611429565b60008281526020819052604090206003015460ff16801561113a5750600080516020611a918339815191528214155b156111a2576111498282611460565b6000828152602081815260408083206001600160a01b0385168085529252808320805460ff1916600117905551339285917fef6ee312a0062a24a46be2eba5284183a87ff848110e8d4df979bd690d9e9f689190a45050565b6103b66040518060400160405280601c81526020017f546865207065726d697373696f6e206973206e6f742076616c69642e00000000815250611429565b610aa081600080516020611a918339815191525b60008281526020819052604090206003015460ff166113ef576000828152602081905260409020600301805460ff1916600117905561123282611523565b156112fc5760005b6000828152602081905260409020600201548110156112d65760008281526020818152604080832084845260018082018452828520546001600160a01b031680865291845282852054888652858552838620838752808652848720805460ff191660ff9093161515929092179091558686520190925290912080546001600160a01b0319169091179055806112ce816119ef565b91505061123a565b5060008181526020819052604080822060029081015485845291909220909101556113bc565b60005b60008281526020819052604090206002015481101561138857600082815260208181526040808320848452600181018352818420546001600160a01b0316808552908352818420548785528484528285208286529093529220805460ff191660ff90921615159190911790556113758482611460565b5080611380816119ef565b9150506112ff565b50600081815260208190526040808220600290810154858452918320018054919290916113b6908490611972565b90915550505b6040513390829084907f227207c738669ac0fa6cf2d0d961deb2e77c5c402417af5ffc0a11fe0b4d409490600090a45050565b6103b66040518060400160405280602081526020017f546865207065726d697373696f6e2068617320616c726561792065786973742e8152505b8060405160200161143a9190611808565b60408051601f198184030181529082905262461bcd60e51b82526102bb916004016118d8565b6000805b6000848152602081905260409020600201548110156114c6576000848152602081815260408083208484526001019091529020546001600160a01b03848116911614156114b457600191506114c6565b806114be816119ef565b915050611464565b50806103225760008381526020818152604080832060028101805485526001909101835290832080546001600160a01b0319166001600160a01b03871617905585835290829052805491611519836119ef565b9190505550505050565b600080805b600254811015611563576000818152600160205260409020548414156115515760019150611563565b8061155b816119ef565b915050611528565b5080611599576002805460009081526001602052604081208590558154919061158b836119ef565b909155506001949350505050565b50600092915050565b50919050565b80356001600160a01b03811681146115bf57600080fd5b919050565b600082601f8301126115d557600080fd5b813567ffffffffffffffff808211156115f0576115f0611a36565b604051601f8301601f19908116603f0116810190828211818310171561161857611618611a36565b8160405283815286602085880101111561163157600080fd5b836020870160208301376000602085830101528094505050505092915050565b60006020828403121561166357600080fd5b61166c826115a8565b9392505050565b60006020828403121561168557600080fd5b5035919050565b6000806040838503121561169f57600080fd5b823591506116af602084016115a8565b90509250929050565b6000806000606084860312156116cd57600080fd5b83359250602084013591506116e4604085016115a8565b90509250925092565b6000602082840312156116ff57600080fd5b813567ffffffffffffffff81111561171657600080fd5b610625848285016115c4565b6000806040838503121561173557600080fd5b823567ffffffffffffffff81111561174c57600080fd5b611758858286016115c4565b9250506116af602084016115a8565b6000806040838503121561177a57600080fd5b823567ffffffffffffffff8082111561179257600080fd5b61179e868387016115c4565b935060208501359150808211156117b457600080fd5b506117c1858286016115c4565b9150509250929050565b600081518084526020808501945080840160005b838110156117fd5781511515875295820195908201906001016117df565b509495945050505050565b6e020b1b1b2b9b9a1b7b73a3937b61d1608d1b81526000825161183281600f85016020870161198a565b91909101600f0192915050565b604080825283519082018190526000906020906060840190828701845b828110156118815781516001600160a01b03168452928401929084019060010161185c565b5050508381038285015261189581866117cb565b9695505050505050565b604080825283519082018190526000906020906060840190828701845b82811015611881578151845292840192908401906001016118bc565b60208152600082518060208401526118f781604085016020870161198a565b601f01601f19169190910160400192915050565b60208082526041908201527f44616f416363657373436f6e74726f6c3a20596f752068617665206e6f20706560408201527f726d697373696f6e20746f2061636365737320746869732066756e6374696f6e6060820152601760f91b608082015260a00190565b6000821982111561198557611985611a0a565b500190565b60005b838110156119a557818101518382015260200161198d565b838111156119b4576000848401525b50505050565b600181811c908216806119ce57607f821691505b602082108114156115a257634e487b7160e01b600052602260045260246000fd5b6000600019821415611a0357611a03611a0a565b5060010190565b634e487b7160e01b600052601160045260246000fd5b634e487b7160e01b600052603260045260246000fd5b634e487b7160e01b600052604160045260246000fdfe546865207065726d697373696f6e206973206e6f742076616c6964206f7220746865206163636f756e74206973206e6f7420696e20746865207065726d697373696f6e2edf8b4c520ffe197c5343c6f5aec59570151ef9a492f2c624fd45ddde6135ec4273d57861095ed1ff7b0e5c00e25f9fc922cf9164e617149ee7073f371364c954546865207065726d697373696f6e206973206e6f742076616c6964206f7220746865207065726d697373696f6e2069732041444d494e2ea724c0857099da33c38b932ce5d4e84578ee9792153085d9d5e379bfba70cacba2646970667358221220c3e03bd3e36d3b1a3f93ee2764f6b1b66bba3129afebe4c146cd8cf537562cda64736f6c63430008070033",
			"opcodes": "PUSH1 0xA0 PUSH1 0x40 DUP2 SWAP1 MSTORE PUSH1 0x0 PUSH1 0x80 DUP2 SWAP1 MSTORE PUSH3 0x1B SWAP2 PUSH1 0x3 SWAP2 PUSH3 0x223 JUMP JUMPDEST POP CALLVALUE DUP1 ISZERO PUSH3 0x29 JUMPI PUSH1 0x0 DUP1 REVERT JUMPDEST POP PUSH1 0x40 MLOAD PUSH3 0x1F8F CODESIZE SUB DUP1 PUSH3 0x1F8F DUP4 CODECOPY DUP2 ADD PUSH1 0x40 DUP2 SWAP1 MSTORE PUSH3 0x4C SWAP2 PUSH3 0x2C9 JUMP JUMPDEST PUSH3 0x56 PUSH3 0x73 JUMP JUMPDEST DUP1 MLOAD PUSH3 0x6B SWAP1 PUSH1 0x3 SWAP1 PUSH1 0x20 DUP5 ADD SWAP1 PUSH3 0x223 JUMP JUMPDEST POP POP PUSH3 0x422 JUMP JUMPDEST PUSH1 0x0 PUSH1 0x2 SSTORE PUSH3 0xA3 PUSH32 0xDF8B4C520FFE197C5343C6F5AEC59570151EF9A492F2C624FD45DDDE6135EC42 PUSH3 0x1A7 JUMP JUMPDEST PUSH3 0xCE PUSH32 0x73D57861095ED1FF7B0E5C00E25F9FC922CF9164E617149EE7073F371364C954 PUSH3 0x1A7 JUMP JUMPDEST PUSH3 0xF9 PUSH32 0x593FB413EC9F9AD9F53F309300B515310FF474591268CA3CBE9752FD88EB76A0 PUSH3 0x1A7 JUMP JUMPDEST PUSH3 0x124 PUSH32 0x619C22E0B753CC842B48B0D4E2BABC23B4EB0174B02A532E9E237DFCFF24A5D3 PUSH3 0x1A7 JUMP JUMPDEST PUSH3 0x14F PUSH32 0x3F5EE1AF94E3AA4DF76E406B3122F661B96747F62A002EC9E7C726E310FCC5DE PUSH3 0x1A7 JUMP JUMPDEST PUSH3 0x17A PUSH32 0xA724C0857099DA33C38B932CE5D4E84578EE9792153085D9D5E379BFBA70CACB PUSH3 0x1A7 JUMP JUMPDEST PUSH3 0x1A5 PUSH32 0xFFA60083152BD11704A80CC8C7A409DAD8AA74288B454A3BA0E94C0ABC7CF168 PUSH3 0x1A7 JUMP JUMPDEST JUMP JUMPDEST PUSH1 0x0 DUP2 DUP2 MSTORE PUSH1 0x20 DUP2 DUP2 MSTORE PUSH1 0x40 DUP1 DUP4 KECCAK256 PUSH1 0x3 DUP2 ADD DUP1 SLOAD PUSH1 0x1 PUSH1 0xFF NOT SWAP2 DUP3 AND DUP2 OR SWAP1 SWAP3 SSTORE CALLER DUP1 DUP8 MSTORE DUP4 DUP7 MSTORE DUP5 DUP8 KECCAK256 DUP1 SLOAD SWAP1 SWAP3 AND DUP4 OR SWAP1 SWAP2 SSTORE DUP6 DUP1 MSTORE DUP2 DUP4 ADD DUP6 MSTORE DUP4 DUP7 KECCAK256 DUP1 SLOAD PUSH1 0x1 PUSH1 0x1 PUSH1 0xA0 SHL SUB NOT AND SWAP1 SWAP2 OR SWAP1 SSTORE PUSH1 0x2 SWAP2 DUP3 ADD DUP2 SWAP1 SSTORE DUP2 SLOAD DUP6 MSTORE SWAP1 SWAP3 MSTORE DUP3 KECCAK256 DUP4 SWAP1 SSTORE DUP1 SLOAD SWAP2 PUSH3 0x21B DUP4 PUSH3 0x3E2 JUMP JUMPDEST SWAP2 SWAP1 POP SSTORE POP POP JUMP JUMPDEST DUP3 DUP1 SLOAD PUSH3 0x231 SWAP1 PUSH3 0x3A5 JUMP JUMPDEST SWAP1 PUSH1 0x0 MSTORE PUSH1 0x20 PUSH1 0x0 KECCAK256 SWAP1 PUSH1 0x1F ADD PUSH1 0x20 SWAP1 DIV DUP2 ADD SWAP3 DUP3 PUSH3 0x255 JUMPI PUSH1 0x0 DUP6 SSTORE PUSH3 0x2A0 JUMP JUMPDEST DUP3 PUSH1 0x1F LT PUSH3 0x270 JUMPI DUP1 MLOAD PUSH1 0xFF NOT AND DUP4 DUP1 ADD OR DUP6 SSTORE PUSH3 0x2A0 JUMP JUMPDEST DUP3 DUP1 ADD PUSH1 0x1 ADD DUP6 SSTORE DUP3 ISZERO PUSH3 0x2A0 JUMPI SWAP2 DUP3 ADD JUMPDEST DUP3 DUP2 GT ISZERO PUSH3 0x2A0 JUMPI DUP3 MLOAD DUP3 SSTORE SWAP2 PUSH1 0x20 ADD SWAP2 SWAP1 PUSH1 0x1 ADD SWAP1 PUSH3 0x283 JUMP JUMPDEST POP PUSH3 0x2AE SWAP3 SWAP2 POP PUSH3 0x2B2 JUMP JUMPDEST POP SWAP1 JUMP JUMPDEST JUMPDEST DUP1 DUP3 GT ISZERO PUSH3 0x2AE JUMPI PUSH1 0x0 DUP2 SSTORE PUSH1 0x1 ADD PUSH3 0x2B3 JUMP JUMPDEST PUSH1 0x0 PUSH1 0x20 DUP1 DUP4 DUP6 SUB SLT ISZERO PUSH3 0x2DD JUMPI PUSH1 0x0 DUP1 REVERT JUMPDEST DUP3 MLOAD PUSH1 0x1 PUSH1 0x1 PUSH1 0x40 SHL SUB DUP1 DUP3 GT ISZERO PUSH3 0x2F5 JUMPI PUSH1 0x0 DUP1 REVERT JUMPDEST DUP2 DUP6 ADD SWAP2 POP DUP6 PUSH1 0x1F DUP4 ADD SLT PUSH3 0x30A JUMPI PUSH1 0x0 DUP1 REVERT JUMPDEST DUP2 MLOAD DUP2 DUP2 GT ISZERO PUSH3 0x31F JUMPI PUSH3 0x31F PUSH3 0x40C JUMP JUMPDEST PUSH1 0x40 MLOAD PUSH1 0x1F DUP3 ADD PUSH1 0x1F NOT SWAP1 DUP2 AND PUSH1 0x3F ADD AND DUP2 ADD SWAP1 DUP4 DUP3 GT DUP2 DUP4 LT OR ISZERO PUSH3 0x34A JUMPI PUSH3 0x34A PUSH3 0x40C JUMP JUMPDEST DUP2 PUSH1 0x40 MSTORE DUP3 DUP2 MSTORE DUP9 DUP7 DUP5 DUP8 ADD ADD GT ISZERO PUSH3 0x363 JUMPI PUSH1 0x0 DUP1 REVERT JUMPDEST PUSH1 0x0 SWAP4 POP JUMPDEST DUP3 DUP5 LT ISZERO PUSH3 0x387 JUMPI DUP5 DUP5 ADD DUP7 ADD MLOAD DUP2 DUP6 ADD DUP8 ADD MSTORE SWAP3 DUP6 ADD SWAP3 PUSH3 0x368 JUMP JUMPDEST DUP3 DUP5 GT ISZERO PUSH3 0x399 JUMPI PUSH1 0x0 DUP7 DUP5 DUP4 ADD ADD MSTORE JUMPDEST SWAP9 SWAP8 POP POP POP POP POP POP POP POP JUMP JUMPDEST PUSH1 0x1 DUP2 DUP2 SHR SWAP1 DUP3 AND DUP1 PUSH3 0x3BA JUMPI PUSH1 0x7F DUP3 AND SWAP2 POP JUMPDEST PUSH1 0x20 DUP3 LT DUP2 EQ ISZERO PUSH3 0x3DC JUMPI PUSH4 0x4E487B71 PUSH1 0xE0 SHL PUSH1 0x0 MSTORE PUSH1 0x22 PUSH1 0x4 MSTORE PUSH1 0x24 PUSH1 0x0 REVERT JUMPDEST POP SWAP2 SWAP1 POP JUMP JUMPDEST PUSH1 0x0 PUSH1 0x0 NOT DUP3 EQ ISZERO PUSH3 0x405 JUMPI PUSH4 0x4E487B71 PUSH1 0xE0 SHL PUSH1 0x0 MSTORE PUSH1 0x11 PUSH1 0x4 MSTORE PUSH1 0x24 PUSH1 0x0 REVERT JUMPDEST POP PUSH1 0x1 ADD SWAP1 JUMP JUMPDEST PUSH4 0x4E487B71 PUSH1 0xE0 SHL PUSH1 0x0 MSTORE PUSH1 0x41 PUSH1 0x4 MSTORE PUSH1 0x24 PUSH1 0x0 REVERT JUMPDEST PUSH2 0x1B5D DUP1 PUSH3 0x432 PUSH1 0x0 CODECOPY PUSH1 0x0 RETURN INVALID PUSH1 0x80 PUSH1 0x40 MSTORE CALLVALUE DUP1 ISZERO PUSH2 0x10 JUMPI PUSH1 0x0 DUP1 REVERT JUMPDEST POP PUSH1 0x4 CALLDATASIZE LT PUSH2 0x10B JUMPI PUSH1 0x0 CALLDATALOAD PUSH1 0xE0 SHR DUP1 PUSH4 0x75829DEF GT PUSH2 0xA2 JUMPI DUP1 PUSH4 0xA425AF85 GT PUSH2 0x71 JUMPI DUP1 PUSH4 0xA425AF85 EQ PUSH2 0x22F JUMPI DUP1 PUSH4 0xA9C96787 EQ PUSH2 0x237 JUMPI DUP1 PUSH4 0xB0258DB8 EQ PUSH2 0x24A JUMPI DUP1 PUSH4 0xE9CB00A2 EQ PUSH2 0x25D JUMPI DUP1 PUSH4 0xFE64A0D0 EQ PUSH2 0x270 JUMPI PUSH1 0x0 DUP1 REVERT JUMPDEST DUP1 PUSH4 0x75829DEF EQ PUSH2 0x1E3 JUMPI DUP1 PUSH4 0x80891CB2 EQ PUSH2 0x1F6 JUMPI DUP1 PUSH4 0x9B8F3BBC EQ PUSH2 0x209 JUMPI DUP1 PUSH4 0xA076A09E EQ PUSH2 0x21C JUMPI PUSH1 0x0 DUP1 REVERT JUMPDEST DUP1 PUSH4 0x48976936 GT PUSH2 0xDE JUMPI DUP1 PUSH4 0x48976936 EQ PUSH2 0x17A JUMPI DUP1 PUSH4 0x4C1B64CB EQ PUSH2 0x18F JUMPI DUP1 PUSH4 0x56353D82 EQ PUSH2 0x1A2 JUMPI DUP1 PUSH4 0x7058DD24 EQ PUSH2 0x1C3 JUMPI PUSH1 0x0 DUP1 REVERT JUMPDEST DUP1 PUSH4 0xA1EADCE EQ PUSH2 0x110 JUMPI DUP1 PUSH4 0xC7F0DD0 EQ PUSH2 0x12F JUMPI DUP1 PUSH4 0x3BEE542C EQ PUSH2 0x144 JUMPI DUP1 PUSH4 0x437BF48B EQ PUSH2 0x167 JUMPI JUMPDEST PUSH1 0x0 DUP1 REVERT JUMPDEST PUSH2 0x118 PUSH2 0x283 JUMP JUMPDEST PUSH1 0x40 MLOAD PUSH2 0x126 SWAP3 SWAP2 SWAP1 PUSH2 0x189F JUMP JUMPDEST PUSH1 0x40 MLOAD DUP1 SWAP2 SUB SWAP1 RETURN JUMPDEST PUSH2 0x142 PUSH2 0x13D CALLDATASIZE PUSH1 0x4 PUSH2 0x1767 JUMP JUMPDEST PUSH2 0x2D5 JUMP JUMPDEST STOP JUMPDEST PUSH2 0x157 PUSH2 0x152 CALLDATASIZE PUSH1 0x4 PUSH2 0x16B8 JUMP JUMPDEST PUSH2 0x327 JUMP JUMPDEST PUSH1 0x40 MLOAD SWAP1 ISZERO ISZERO DUP2 MSTORE PUSH1 0x20 ADD PUSH2 0x126 JUMP JUMPDEST PUSH2 0x142 PUSH2 0x175 CALLDATASIZE PUSH1 0x4 PUSH2 0x16ED JUMP JUMPDEST PUSH2 0x371 JUMP JUMPDEST PUSH2 0x182 PUSH2 0x3BA JUMP JUMPDEST PUSH1 0x40 MLOAD PUSH2 0x126 SWAP2 SWAP1 PUSH2 0x18D8 JUMP JUMPDEST PUSH2 0x142 PUSH2 0x19D CALLDATASIZE PUSH1 0x4 PUSH2 0x1651 JUMP JUMPDEST PUSH2 0x448 JUMP JUMPDEST PUSH2 0x1B5 PUSH2 0x1B0 CALLDATASIZE PUSH1 0x4 PUSH2 0x16ED JUMP JUMPDEST PUSH2 0x486 JUMP JUMPDEST PUSH1 0x40 MLOAD PUSH2 0x126 SWAP3 SWAP2 SWAP1 PUSH2 0x183F JUMP JUMPDEST PUSH2 0x1CB PUSH2 0x4D8 JUMP JUMPDEST PUSH1 0x40 MLOAD PUSH1 0x1 PUSH1 0x1 PUSH1 0xA0 SHL SUB SWAP1 SWAP2 AND DUP2 MSTORE PUSH1 0x20 ADD PUSH2 0x126 JUMP JUMPDEST PUSH2 0x142 PUSH2 0x1F1 CALLDATASIZE PUSH1 0x4 PUSH2 0x1651 JUMP JUMPDEST PUSH2 0x51D JUMP JUMPDEST PUSH2 0x118 PUSH2 0x204 CALLDATASIZE PUSH1 0x4 PUSH2 0x1651 JUMP JUMPDEST PUSH2 0x55B JUMP JUMPDEST PUSH2 0x1B5 PUSH2 0x217 CALLDATASIZE PUSH1 0x4 PUSH2 0x1673 JUMP JUMPDEST PUSH2 0x59C JUMP JUMPDEST PUSH2 0x157 PUSH2 0x22A CALLDATASIZE PUSH1 0x4 PUSH2 0x1722 JUMP JUMPDEST PUSH2 0x5DD JUMP JUMPDEST PUSH2 0x182 PUSH2 0x62D JUMP JUMPDEST PUSH2 0x142 PUSH2 0x245 CALLDATASIZE PUSH1 0x4 PUSH2 0x1722 JUMP JUMPDEST PUSH2 0x6F5 JUMP JUMPDEST PUSH2 0x142 PUSH2 0x258 CALLDATASIZE PUSH1 0x4 PUSH2 0x1722 JUMP JUMPDEST PUSH2 0x73B JUMP JUMPDEST PUSH2 0x157 PUSH2 0x26B CALLDATASIZE PUSH1 0x4 PUSH2 0x168C JUMP JUMPDEST PUSH2 0x781 JUMP JUMPDEST PUSH2 0x142 PUSH2 0x27E CALLDATASIZE PUSH1 0x4 PUSH2 0x16ED JUMP JUMPDEST PUSH2 0x7C2 JUMP JUMPDEST PUSH1 0x60 DUP1 PUSH1 0x0 DUP1 MLOAD PUSH1 0x20 PUSH2 0x1B08 DUP4 CODECOPY DUP2 MLOAD SWAP2 MSTORE PUSH2 0x29F DUP2 CALLER PUSH2 0x807 JUMP JUMPDEST PUSH2 0x2C4 JUMPI PUSH1 0x40 MLOAD PUSH3 0x461BCD PUSH1 0xE5 SHL DUP2 MSTORE PUSH1 0x4 ADD PUSH2 0x2BB SWAP1 PUSH2 0x190B JUMP JUMPDEST PUSH1 0x40 MLOAD DUP1 SWAP2 SUB SWAP1 REVERT JUMPDEST PUSH2 0x2CC PUSH2 0x832 JUMP JUMPDEST SWAP3 POP SWAP3 POP POP SWAP1 SWAP2 JUMP JUMPDEST PUSH1 0x0 DUP1 MLOAD PUSH1 0x20 PUSH2 0x1AB1 DUP4 CODECOPY DUP2 MLOAD SWAP2 MSTORE PUSH2 0x2EE DUP2 CALLER PUSH2 0x807 JUMP JUMPDEST PUSH2 0x30A JUMPI PUSH1 0x40 MLOAD PUSH3 0x461BCD PUSH1 0xE5 SHL DUP2 MSTORE PUSH1 0x4 ADD PUSH2 0x2BB SWAP1 PUSH2 0x190B JUMP JUMPDEST PUSH2 0x322 DUP4 DUP1 MLOAD SWAP1 PUSH1 0x20 ADD KECCAK256 DUP4 DUP1 MLOAD SWAP1 PUSH1 0x20 ADD KECCAK256 PUSH2 0x966 JUMP JUMPDEST POP POP POP JUMP JUMPDEST PUSH1 0x0 PUSH1 0x0 DUP1 MLOAD PUSH1 0x20 PUSH2 0x1B08 DUP4 CODECOPY DUP2 MLOAD SWAP2 MSTORE PUSH2 0x342 DUP2 CALLER PUSH2 0x807 JUMP JUMPDEST PUSH2 0x35E JUMPI PUSH1 0x40 MLOAD PUSH3 0x461BCD PUSH1 0xE5 SHL DUP2 MSTORE PUSH1 0x4 ADD PUSH2 0x2BB SWAP1 PUSH2 0x190B JUMP JUMPDEST PUSH2 0x368 DUP5 DUP5 PUSH2 0x970 JUMP JUMPDEST SWAP6 SWAP5 POP POP POP POP POP JUMP JUMPDEST PUSH1 0x0 DUP1 MLOAD PUSH1 0x20 PUSH2 0x1AB1 DUP4 CODECOPY DUP2 MLOAD SWAP2 MSTORE PUSH2 0x38A DUP2 CALLER PUSH2 0x807 JUMP JUMPDEST PUSH2 0x3A6 JUMPI PUSH1 0x40 MLOAD PUSH3 0x461BCD PUSH1 0xE5 SHL DUP2 MSTORE PUSH1 0x4 ADD PUSH2 0x2BB SWAP1 PUSH2 0x190B JUMP JUMPDEST PUSH2 0x3B6 DUP3 DUP1 MLOAD SWAP1 PUSH1 0x20 ADD KECCAK256 PUSH2 0x9A2 JUMP JUMPDEST POP POP JUMP JUMPDEST PUSH1 0x3 DUP1 SLOAD PUSH2 0x3C7 SWAP1 PUSH2 0x19BA JUMP JUMPDEST DUP1 PUSH1 0x1F ADD PUSH1 0x20 DUP1 SWAP2 DIV MUL PUSH1 0x20 ADD PUSH1 0x40 MLOAD SWAP1 DUP2 ADD PUSH1 0x40 MSTORE DUP1 SWAP3 SWAP2 SWAP1 DUP2 DUP2 MSTORE PUSH1 0x20 ADD DUP3 DUP1 SLOAD PUSH2 0x3F3 SWAP1 PUSH2 0x19BA JUMP JUMPDEST DUP1 ISZERO PUSH2 0x440 JUMPI DUP1 PUSH1 0x1F LT PUSH2 0x415 JUMPI PUSH2 0x100 DUP1 DUP4 SLOAD DIV MUL DUP4 MSTORE SWAP2 PUSH1 0x20 ADD SWAP2 PUSH2 0x440 JUMP JUMPDEST DUP3 ADD SWAP2 SWAP1 PUSH1 0x0 MSTORE PUSH1 0x20 PUSH1 0x0 KECCAK256 SWAP1 JUMPDEST DUP2 SLOAD DUP2 MSTORE SWAP1 PUSH1 0x1 ADD SWAP1 PUSH1 0x20 ADD DUP1 DUP4 GT PUSH2 0x423 JUMPI DUP3 SWAP1 SUB PUSH1 0x1F AND DUP3 ADD SWAP2 JUMPDEST POP POP POP POP POP DUP2 JUMP JUMPDEST PUSH1 0x0 DUP1 MLOAD PUSH1 0x20 PUSH2 0x1AB1 DUP4 CODECOPY DUP2 MLOAD SWAP2 MSTORE PUSH2 0x461 DUP2 CALLER PUSH2 0x807 JUMP JUMPDEST PUSH2 0x47D JUMPI PUSH1 0x40 MLOAD PUSH3 0x461BCD PUSH1 0xE5 SHL DUP2 MSTORE PUSH1 0x4 ADD PUSH2 0x2BB SWAP1 PUSH2 0x190B JUMP JUMPDEST PUSH2 0x3B6 DUP3 PUSH2 0xAA3 JUMP JUMPDEST PUSH1 0x60 DUP1 PUSH1 0x0 DUP1 MLOAD PUSH1 0x20 PUSH2 0x1B08 DUP4 CODECOPY DUP2 MLOAD SWAP2 MSTORE PUSH2 0x4A2 DUP2 CALLER PUSH2 0x807 JUMP JUMPDEST PUSH2 0x4BE JUMPI PUSH1 0x40 MLOAD PUSH3 0x461BCD PUSH1 0xE5 SHL DUP2 MSTORE PUSH1 0x4 ADD PUSH2 0x2BB SWAP1 PUSH2 0x190B JUMP JUMPDEST PUSH2 0x4CE DUP5 DUP1 MLOAD SWAP1 PUSH1 0x20 ADD KECCAK256 PUSH2 0xBBE JUMP JUMPDEST SWAP3 POP SWAP3 POP POP SWAP2 POP SWAP2 JUMP JUMPDEST PUSH1 0x0 PUSH1 0x0 DUP1 MLOAD PUSH1 0x20 PUSH2 0x1B08 DUP4 CODECOPY DUP2 MLOAD SWAP2 MSTORE PUSH2 0x4F3 DUP2 CALLER PUSH2 0x807 JUMP JUMPDEST PUSH2 0x50F JUMPI PUSH1 0x40 MLOAD PUSH3 0x461BCD PUSH1 0xE5 SHL DUP2 MSTORE PUSH1 0x4 ADD PUSH2 0x2BB SWAP1 PUSH2 0x190B JUMP JUMPDEST PUSH2 0x517 PUSH2 0xD2F JUMP JUMPDEST SWAP2 POP POP SWAP1 JUMP JUMPDEST PUSH1 0x0 DUP1 MLOAD PUSH1 0x20 PUSH2 0x1A91 DUP4 CODECOPY DUP2 MLOAD SWAP2 MSTORE PUSH2 0x536 DUP2 CALLER PUSH2 0x807 JUMP JUMPDEST PUSH2 0x552 JUMPI PUSH1 0x40 MLOAD PUSH3 0x461BCD PUSH1 0xE5 SHL DUP2 MSTORE PUSH1 0x4 ADD PUSH2 0x2BB SWAP1 PUSH2 0x190B JUMP JUMPDEST PUSH2 0x3B6 DUP3 PUSH2 0xE31 JUMP JUMPDEST PUSH1 0x60 DUP1 PUSH1 0x0 DUP1 MLOAD PUSH1 0x20 PUSH2 0x1B08 DUP4 CODECOPY DUP2 MLOAD SWAP2 MSTORE PUSH2 0x577 DUP2 CALLER PUSH2 0x807 JUMP JUMPDEST PUSH2 0x593 JUMPI PUSH1 0x40 MLOAD PUSH3 0x461BCD PUSH1 0xE5 SHL DUP2 MSTORE PUSH1 0x4 ADD PUSH2 0x2BB SWAP1 PUSH2 0x190B JUMP JUMPDEST PUSH2 0x4CE DUP5 PUSH2 0xF21 JUMP JUMPDEST PUSH1 0x60 DUP1 PUSH1 0x0 DUP1 MLOAD PUSH1 0x20 PUSH2 0x1B08 DUP4 CODECOPY DUP2 MLOAD SWAP2 MSTORE PUSH2 0x5B8 DUP2 CALLER PUSH2 0x807 JUMP JUMPDEST PUSH2 0x5D4 JUMPI PUSH1 0x40 MLOAD PUSH3 0x461BCD PUSH1 0xE5 SHL DUP2 MSTORE PUSH1 0x4 ADD PUSH2 0x2BB SWAP1 PUSH2 0x190B JUMP JUMPDEST PUSH2 0x4CE DUP5 PUSH2 0xBBE JUMP JUMPDEST PUSH1 0x0 PUSH1 0x0 DUP1 MLOAD PUSH1 0x20 PUSH2 0x1B08 DUP4 CODECOPY DUP2 MLOAD SWAP2 MSTORE PUSH2 0x5F8 DUP2 CALLER PUSH2 0x807 JUMP JUMPDEST PUSH2 0x614 JUMPI PUSH1 0x40 MLOAD PUSH3 0x461BCD PUSH1 0xE5 SHL DUP2 MSTORE PUSH1 0x4 ADD PUSH2 0x2BB SWAP1 PUSH2 0x190B JUMP JUMPDEST PUSH2 0x625 DUP5 DUP1 MLOAD SWAP1 PUSH1 0x20 ADD KECCAK256 DUP5 PUSH2 0x970 JUMP JUMPDEST SWAP5 SWAP4 POP POP POP POP JUMP JUMPDEST PUSH1 0x60 PUSH1 0x0 DUP1 MLOAD PUSH1 0x20 PUSH2 0x1B08 DUP4 CODECOPY DUP2 MLOAD SWAP2 MSTORE PUSH2 0x648 DUP2 CALLER PUSH2 0x807 JUMP JUMPDEST PUSH2 0x664 JUMPI PUSH1 0x40 MLOAD PUSH3 0x461BCD PUSH1 0xE5 SHL DUP2 MSTORE PUSH1 0x4 ADD PUSH2 0x2BB SWAP1 PUSH2 0x190B JUMP JUMPDEST PUSH1 0x3 DUP1 SLOAD PUSH2 0x671 SWAP1 PUSH2 0x19BA JUMP JUMPDEST DUP1 PUSH1 0x1F ADD PUSH1 0x20 DUP1 SWAP2 DIV MUL PUSH1 0x20 ADD PUSH1 0x40 MLOAD SWAP1 DUP2 ADD PUSH1 0x40 MSTORE DUP1 SWAP3 SWAP2 SWAP1 DUP2 DUP2 MSTORE PUSH1 0x20 ADD DUP3 DUP1 SLOAD PUSH2 0x69D SWAP1 PUSH2 0x19BA JUMP JUMPDEST DUP1 ISZERO PUSH2 0x6EA JUMPI DUP1 PUSH1 0x1F LT PUSH2 0x6BF JUMPI PUSH2 0x100 DUP1 DUP4 SLOAD DIV MUL DUP4 MSTORE SWAP2 PUSH1 0x20 ADD SWAP2 PUSH2 0x6EA JUMP JUMPDEST DUP3 ADD SWAP2 SWAP1 PUSH1 0x0 MSTORE PUSH1 0x20 PUSH1 0x0 KECCAK256 SWAP1 JUMPDEST DUP2 SLOAD DUP2 MSTORE SWAP1 PUSH1 0x1 ADD SWAP1 PUSH1 0x20 ADD DUP1 DUP4 GT PUSH2 0x6CD JUMPI DUP3 SWAP1 SUB PUSH1 0x1F AND DUP3 ADD SWAP2 JUMPDEST POP POP POP POP POP SWAP2 POP POP SWAP1 JUMP JUMPDEST PUSH1 0x0 DUP1 MLOAD PUSH1 0x20 PUSH2 0x1AB1 DUP4 CODECOPY DUP2 MLOAD SWAP2 MSTORE PUSH2 0x70E DUP2 CALLER PUSH2 0x807 JUMP JUMPDEST PUSH2 0x72A JUMPI PUSH1 0x40 MLOAD PUSH3 0x461BCD PUSH1 0xE5 SHL DUP2 MSTORE PUSH1 0x4 ADD PUSH2 0x2BB SWAP1 PUSH2 0x190B JUMP JUMPDEST PUSH2 0x322 DUP4 DUP1 MLOAD SWAP1 PUSH1 0x20 ADD KECCAK256 DUP4 PUSH2 0x1064 JUMP JUMPDEST PUSH1 0x0 DUP1 MLOAD PUSH1 0x20 PUSH2 0x1AB1 DUP4 CODECOPY DUP2 MLOAD SWAP2 MSTORE PUSH2 0x754 DUP2 CALLER PUSH2 0x807 JUMP JUMPDEST PUSH2 0x770 JUMPI PUSH1 0x40 MLOAD PUSH3 0x461BCD PUSH1 0xE5 SHL DUP2 MSTORE PUSH1 0x4 ADD PUSH2 0x2BB SWAP1 PUSH2 0x190B JUMP JUMPDEST PUSH2 0x322 DUP4 DUP1 MLOAD SWAP1 PUSH1 0x20 ADD KECCAK256 DUP4 PUSH2 0x110B JUMP JUMPDEST PUSH1 0x0 PUSH1 0x0 DUP1 MLOAD PUSH1 0x20 PUSH2 0x1B08 DUP4 CODECOPY DUP2 MLOAD SWAP2 MSTORE PUSH2 0x79C DUP2 CALLER PUSH2 0x807 JUMP JUMPDEST PUSH2 0x7B8 JUMPI PUSH1 0x40 MLOAD PUSH3 0x461BCD PUSH1 0xE5 SHL DUP2 MSTORE PUSH1 0x4 ADD PUSH2 0x2BB SWAP1 PUSH2 0x190B JUMP JUMPDEST PUSH2 0x625 DUP5 DUP5 PUSH2 0x970 JUMP JUMPDEST PUSH1 0x0 DUP1 MLOAD PUSH1 0x20 PUSH2 0x1AB1 DUP4 CODECOPY DUP2 MLOAD SWAP2 MSTORE PUSH2 0x7DB DUP2 CALLER PUSH2 0x807 JUMP JUMPDEST PUSH2 0x7F7 JUMPI PUSH1 0x40 MLOAD PUSH3 0x461BCD PUSH1 0xE5 SHL DUP2 MSTORE PUSH1 0x4 ADD PUSH2 0x2BB SWAP1 PUSH2 0x190B JUMP JUMPDEST PUSH2 0x3B6 DUP3 DUP1 MLOAD SWAP1 PUSH1 0x20 ADD KECCAK256 PUSH2 0x11E0 JUMP JUMPDEST PUSH1 0x0 DUP3 DUP2 MSTORE PUSH1 0x20 DUP2 DUP2 MSTORE PUSH1 0x40 DUP1 DUP4 KECCAK256 PUSH1 0x1 PUSH1 0x1 PUSH1 0xA0 SHL SUB DUP6 AND DUP5 MSTORE SWAP1 SWAP2 MSTORE SWAP1 KECCAK256 SLOAD PUSH1 0xFF AND JUMPDEST SWAP3 SWAP2 POP POP JUMP JUMPDEST PUSH1 0x60 DUP1 PUSH1 0x0 PUSH1 0x2 SLOAD PUSH8 0xFFFFFFFFFFFFFFFF DUP2 GT ISZERO PUSH2 0x852 JUMPI PUSH2 0x852 PUSH2 0x1A36 JUMP JUMPDEST PUSH1 0x40 MLOAD SWAP1 DUP1 DUP3 MSTORE DUP1 PUSH1 0x20 MUL PUSH1 0x20 ADD DUP3 ADD PUSH1 0x40 MSTORE DUP1 ISZERO PUSH2 0x87B JUMPI DUP2 PUSH1 0x20 ADD PUSH1 0x20 DUP3 MUL DUP1 CALLDATASIZE DUP4 CALLDATACOPY ADD SWAP1 POP JUMPDEST POP SWAP1 POP PUSH1 0x0 PUSH1 0x2 SLOAD PUSH8 0xFFFFFFFFFFFFFFFF DUP2 GT ISZERO PUSH2 0x89B JUMPI PUSH2 0x89B PUSH2 0x1A36 JUMP JUMPDEST PUSH1 0x40 MLOAD SWAP1 DUP1 DUP3 MSTORE DUP1 PUSH1 0x20 MUL PUSH1 0x20 ADD DUP3 ADD PUSH1 0x40 MSTORE DUP1 ISZERO PUSH2 0x8C4 JUMPI DUP2 PUSH1 0x20 ADD PUSH1 0x20 DUP3 MUL DUP1 CALLDATASIZE DUP4 CALLDATACOPY ADD SWAP1 POP JUMPDEST POP SWAP1 POP PUSH1 0x0 JUMPDEST PUSH1 0x2 SLOAD DUP2 LT ISZERO PUSH2 0x95C JUMPI PUSH1 0x0 DUP2 DUP2 MSTORE PUSH1 0x1 PUSH1 0x20 MSTORE PUSH1 0x40 SWAP1 KECCAK256 SLOAD DUP4 MLOAD DUP5 SWAP1 DUP4 SWAP1 DUP2 LT PUSH2 0x8F7 JUMPI PUSH2 0x8F7 PUSH2 0x1A20 JUMP JUMPDEST PUSH1 0x20 SWAP1 DUP2 MUL SWAP2 SWAP1 SWAP2 ADD DUP2 ADD SWAP2 SWAP1 SWAP2 MSTORE PUSH1 0x0 DUP3 DUP2 MSTORE PUSH1 0x1 DUP3 MSTORE PUSH1 0x40 DUP1 DUP3 KECCAK256 SLOAD DUP3 MSTORE SWAP2 DUP2 SWAP1 MSTORE KECCAK256 PUSH1 0x3 ADD SLOAD DUP3 MLOAD PUSH1 0xFF SWAP1 SWAP2 AND SWAP1 DUP4 SWAP1 DUP4 SWAP1 DUP2 LT PUSH2 0x93A JUMPI PUSH2 0x93A PUSH2 0x1A20 JUMP JUMPDEST SWAP2 ISZERO ISZERO PUSH1 0x20 SWAP3 DUP4 MUL SWAP2 SWAP1 SWAP2 ADD SWAP1 SWAP2 ADD MSTORE DUP1 PUSH2 0x954 DUP2 PUSH2 0x19EF JUMP JUMPDEST SWAP2 POP POP PUSH2 0x8CA JUMP JUMPDEST POP SWAP1 SWAP4 SWAP1 SWAP3 POP SWAP1 POP JUMP JUMPDEST PUSH2 0x3B6 DUP3 DUP3 PUSH2 0x11F4 JUMP JUMPDEST PUSH1 0x0 DUP3 DUP2 MSTORE PUSH1 0x20 DUP2 SWAP1 MSTORE PUSH1 0x40 DUP2 KECCAK256 PUSH1 0x3 ADD SLOAD PUSH1 0xFF AND PUSH2 0x991 JUMPI POP PUSH1 0x0 PUSH2 0x82C JUMP JUMPDEST PUSH2 0x99B DUP4 DUP4 PUSH2 0x807 JUMP JUMPDEST SWAP1 POP PUSH2 0x82C JUMP JUMPDEST PUSH1 0x0 DUP2 DUP2 MSTORE PUSH1 0x20 DUP2 SWAP1 MSTORE PUSH1 0x40 SWAP1 KECCAK256 PUSH1 0x3 ADD SLOAD PUSH1 0xFF AND DUP1 ISZERO PUSH2 0x9D1 JUMPI POP PUSH1 0x0 DUP1 MLOAD PUSH1 0x20 PUSH2 0x1A91 DUP4 CODECOPY DUP2 MLOAD SWAP2 MSTORE DUP2 EQ ISZERO JUMPDEST ISZERO PUSH2 0xA7F JUMPI PUSH1 0x0 JUMPDEST PUSH1 0x0 DUP3 DUP2 MSTORE PUSH1 0x20 DUP2 SWAP1 MSTORE PUSH1 0x40 SWAP1 KECCAK256 PUSH1 0x2 ADD SLOAD DUP2 LT ISZERO PUSH2 0xA38 JUMPI PUSH1 0x0 DUP3 DUP2 MSTORE PUSH1 0x20 DUP2 DUP2 MSTORE PUSH1 0x40 DUP1 DUP4 KECCAK256 DUP5 DUP5 MSTORE PUSH1 0x1 DUP2 ADD DUP4 MSTORE DUP2 DUP5 KECCAK256 SLOAD PUSH1 0x1 PUSH1 0x1 PUSH1 0xA0 SHL SUB AND DUP5 MSTORE SWAP1 SWAP2 MSTORE SWAP1 KECCAK256 DUP1 SLOAD PUSH1 0xFF NOT AND SWAP1 SSTORE DUP1 PUSH2 0xA30 DUP2 PUSH2 0x19EF JUMP JUMPDEST SWAP2 POP POP PUSH2 0x9D9 JUMP JUMPDEST POP PUSH1 0x0 DUP2 DUP2 MSTORE PUSH1 0x20 DUP2 SWAP1 MSTORE PUSH1 0x40 DUP1 DUP3 KECCAK256 PUSH1 0x3 ADD DUP1 SLOAD PUSH1 0xFF NOT AND SWAP1 SSTORE MLOAD CALLER SWAP2 DUP4 SWAP2 PUSH32 0xE80208C3116F2C5B710796D7B3E8EB0B697C1C98BE4297F9993BDB1905A2827B SWAP2 SWAP1 LOG3 POP JUMP JUMPDEST PUSH2 0xAA0 PUSH1 0x40 MLOAD DUP1 PUSH1 0x60 ADD PUSH1 0x40 MSTORE DUP1 PUSH1 0x37 DUP2 MSTORE PUSH1 0x20 ADD PUSH2 0x1AD1 PUSH1 0x37 SWAP2 CODECOPY PUSH2 0x1429 JUMP JUMPDEST POP JUMP JUMPDEST PUSH2 0xABB PUSH1 0x0 DUP1 MLOAD PUSH1 0x20 PUSH2 0x1A91 DUP4 CODECOPY DUP2 MLOAD SWAP2 MSTORE DUP3 PUSH2 0x807 JUMP JUMPDEST PUSH2 0xB80 JUMPI PUSH1 0x1 JUMPDEST PUSH1 0x2 SLOAD DUP2 LT ISZERO PUSH2 0xB46 JUMPI PUSH1 0x0 DUP2 DUP2 MSTORE PUSH1 0x1 PUSH1 0x20 SWAP1 DUP2 MSTORE PUSH1 0x40 DUP1 DUP4 KECCAK256 SLOAD DUP4 MSTORE DUP3 DUP3 MSTORE DUP1 DUP4 KECCAK256 PUSH1 0x1 PUSH1 0x1 PUSH1 0xA0 SHL SUB DUP7 AND DUP5 MSTORE SWAP1 SWAP2 MSTORE SWAP1 KECCAK256 SLOAD PUSH1 0xFF AND ISZERO PUSH2 0xB34 JUMPI PUSH1 0x0 DUP2 DUP2 MSTORE PUSH1 0x1 PUSH1 0x20 SWAP1 DUP2 MSTORE PUSH1 0x40 DUP1 DUP4 KECCAK256 SLOAD DUP4 MSTORE DUP3 DUP3 MSTORE DUP1 DUP4 KECCAK256 PUSH1 0x1 PUSH1 0x1 PUSH1 0xA0 SHL SUB DUP7 AND DUP5 MSTORE SWAP1 SWAP2 MSTORE SWAP1 KECCAK256 DUP1 SLOAD PUSH1 0xFF NOT AND SWAP1 SSTORE JUMPDEST DUP1 PUSH2 0xB3E DUP2 PUSH2 0x19EF JUMP JUMPDEST SWAP2 POP POP PUSH2 0xAC2 JUMP JUMPDEST POP PUSH1 0x40 MLOAD CALLER SWAP1 PUSH1 0x1 PUSH1 0x1 PUSH1 0xA0 SHL SUB DUP4 AND SWAP1 PUSH32 0xFD7E144A5E02C1180E00F9591EF4F60AA95B127C4F134847224A4B6CB99FEF96 SWAP1 PUSH1 0x0 SWAP1 LOG3 POP JUMP JUMPDEST PUSH2 0xAA0 PUSH1 0x40 MLOAD DUP1 PUSH1 0x40 ADD PUSH1 0x40 MSTORE DUP1 PUSH1 0x18 DUP2 MSTORE PUSH1 0x20 ADD PUSH32 0x596F752063616E6E6F742064656C6574652041444D494E2E0000000000000000 DUP2 MSTORE POP PUSH2 0x1429 JUMP JUMPDEST PUSH1 0x0 DUP2 DUP2 MSTORE PUSH1 0x20 DUP2 SWAP1 MSTORE PUSH1 0x40 DUP2 KECCAK256 PUSH1 0x2 ADD SLOAD PUSH1 0x60 SWAP2 DUP3 SWAP2 SWAP1 DUP2 PUSH8 0xFFFFFFFFFFFFFFFF DUP2 GT ISZERO PUSH2 0xBEF JUMPI PUSH2 0xBEF PUSH2 0x1A36 JUMP JUMPDEST PUSH1 0x40 MLOAD SWAP1 DUP1 DUP3 MSTORE DUP1 PUSH1 0x20 MUL PUSH1 0x20 ADD DUP3 ADD PUSH1 0x40 MSTORE DUP1 ISZERO PUSH2 0xC18 JUMPI DUP2 PUSH1 0x20 ADD PUSH1 0x20 DUP3 MUL DUP1 CALLDATASIZE DUP4 CALLDATACOPY ADD SWAP1 POP JUMPDEST POP SWAP1 POP PUSH1 0x0 DUP3 PUSH8 0xFFFFFFFFFFFFFFFF DUP2 GT ISZERO PUSH2 0xC36 JUMPI PUSH2 0xC36 PUSH2 0x1A36 JUMP JUMPDEST PUSH1 0x40 MLOAD SWAP1 DUP1 DUP3 MSTORE DUP1 PUSH1 0x20 MUL PUSH1 0x20 ADD DUP3 ADD PUSH1 0x40 MSTORE DUP1 ISZERO PUSH2 0xC5F JUMPI DUP2 PUSH1 0x20 ADD PUSH1 0x20 DUP3 MUL DUP1 CALLDATASIZE DUP4 CALLDATACOPY ADD SWAP1 POP JUMPDEST POP SWAP1 POP PUSH1 0x0 JUMPDEST DUP4 DUP2 LT ISZERO PUSH2 0xD23 JUMPI PUSH1 0x0 DUP8 DUP2 MSTORE PUSH1 0x20 DUP2 DUP2 MSTORE PUSH1 0x40 DUP1 DUP4 KECCAK256 DUP5 DUP5 MSTORE PUSH1 0x1 ADD SWAP1 SWAP2 MSTORE SWAP1 KECCAK256 SLOAD DUP4 MLOAD PUSH1 0x1 PUSH1 0x1 PUSH1 0xA0 SHL SUB SWAP1 SWAP2 AND SWAP1 DUP5 SWAP1 DUP4 SWAP1 DUP2 LT PUSH2 0xCA8 JUMPI PUSH2 0xCA8 PUSH2 0x1A20 JUMP JUMPDEST PUSH1 0x1 PUSH1 0x1 PUSH1 0xA0 SHL SUB SWAP3 DUP4 AND PUSH1 0x20 SWAP2 DUP3 MUL SWAP3 SWAP1 SWAP3 ADD DUP2 ADD SWAP2 SWAP1 SWAP2 MSTORE PUSH1 0x0 DUP10 DUP2 MSTORE DUP1 DUP3 MSTORE PUSH1 0x40 DUP1 DUP3 KECCAK256 DUP6 DUP4 MSTORE PUSH1 0x1 DUP2 ADD DUP5 MSTORE DUP2 DUP4 KECCAK256 SLOAD SWAP1 SWAP5 AND DUP3 MSTORE SWAP3 SWAP1 SWAP2 MSTORE KECCAK256 SLOAD DUP3 MLOAD PUSH1 0xFF SWAP1 SWAP2 AND SWAP1 DUP4 SWAP1 DUP4 SWAP1 DUP2 LT PUSH2 0xD01 JUMPI PUSH2 0xD01 PUSH2 0x1A20 JUMP JUMPDEST SWAP2 ISZERO ISZERO PUSH1 0x20 SWAP3 DUP4 MUL SWAP2 SWAP1 SWAP2 ADD SWAP1 SWAP2 ADD MSTORE DUP1 PUSH2 0xD1B DUP2 PUSH2 0x19EF JUMP JUMPDEST SWAP2 POP POP PUSH2 0xC65 JUMP JUMPDEST POP SWAP1 SWAP6 SWAP1 SWAP5 POP SWAP3 POP POP POP JUMP JUMPDEST PUSH1 0x0 DUP1 JUMPDEST PUSH1 0x0 DUP1 MLOAD PUSH1 0x20 PUSH2 0x1A91 DUP4 CODECOPY DUP2 MLOAD SWAP2 MSTORE PUSH1 0x0 SWAP1 DUP2 MSTORE PUSH1 0x20 MSTORE PUSH32 0x5CBFC8EE58CA47855DF7BCF648DD304DDB6B932F9B87878BDF6318D7EC7EE5B9 SLOAD DUP2 LT ISZERO PUSH2 0xDF5 JUMPI PUSH1 0x0 DUP2 DUP2 MSTORE PUSH32 0x5CBFC8EE58CA47855DF7BCF648DD304DDB6B932F9B87878BDF6318D7EC7EE5B8 PUSH1 0x20 SWAP1 DUP2 MSTORE PUSH1 0x40 DUP1 DUP4 KECCAK256 SLOAD PUSH1 0x1 PUSH1 0x1 PUSH1 0xA0 SHL SUB AND DUP4 MSTORE PUSH32 0x5CBFC8EE58CA47855DF7BCF648DD304DDB6B932F9B87878BDF6318D7EC7EE5B7 SWAP1 SWAP2 MSTORE SWAP1 KECCAK256 SLOAD PUSH1 0xFF AND ISZERO PUSH2 0xDE3 JUMPI PUSH2 0xDF5 JUMP JUMPDEST DUP1 PUSH2 0xDED DUP2 PUSH2 0x19EF JUMP JUMPDEST SWAP2 POP POP PUSH2 0xD33 JUMP JUMPDEST PUSH1 0x0 SWAP1 DUP2 MSTORE PUSH32 0x5CBFC8EE58CA47855DF7BCF648DD304DDB6B932F9B87878BDF6318D7EC7EE5B8 PUSH1 0x20 MSTORE PUSH1 0x40 SWAP1 KECCAK256 SLOAD PUSH1 0x1 PUSH1 0x1 PUSH1 0xA0 SHL SUB AND SWAP2 SWAP1 POP JUMP JUMPDEST PUSH1 0x0 DUP1 MLOAD PUSH1 0x20 PUSH2 0x1A91 DUP4 CODECOPY DUP2 MLOAD SWAP2 MSTORE PUSH1 0x0 SWAP1 DUP2 MSTORE PUSH1 0x20 DUP2 SWAP1 MSTORE PUSH32 0x5CBFC8EE58CA47855DF7BCF648DD304DDB6B932F9B87878BDF6318D7EC7EE5B7 DUP2 PUSH2 0xE74 PUSH2 0xD2F JUMP JUMPDEST PUSH1 0x1 PUSH1 0x1 PUSH1 0xA0 SHL SUB AND DUP2 MSTORE PUSH1 0x20 DUP2 ADD SWAP2 SWAP1 SWAP2 MSTORE PUSH1 0x40 ADD PUSH1 0x0 KECCAK256 DUP1 SLOAD PUSH1 0xFF NOT AND SWAP2 ISZERO ISZERO SWAP2 SWAP1 SWAP2 OR SWAP1 SSTORE PUSH2 0xEB4 PUSH1 0x0 DUP1 MLOAD PUSH1 0x20 PUSH2 0x1A91 DUP4 CODECOPY DUP2 MLOAD SWAP2 MSTORE DUP3 PUSH2 0x1460 JUMP JUMPDEST PUSH1 0x1 PUSH1 0x1 PUSH1 0xA0 SHL SUB DUP2 AND PUSH1 0x0 DUP2 DUP2 MSTORE PUSH32 0x5CBFC8EE58CA47855DF7BCF648DD304DDB6B932F9B87878BDF6318D7EC7EE5B7 PUSH1 0x20 MSTORE PUSH1 0x40 DUP1 DUP3 KECCAK256 DUP1 SLOAD PUSH1 0xFF NOT AND PUSH1 0x1 OR SWAP1 SSTORE MLOAD CALLER SWAP3 SWAP2 PUSH32 0x173DE3514D8508F36CE8C81D509ADCD8C8C76098400F685D3042B36F9A4160C3 SWAP2 LOG3 POP JUMP JUMPDEST PUSH1 0x60 DUP1 PUSH1 0x0 PUSH1 0x2 SLOAD PUSH8 0xFFFFFFFFFFFFFFFF DUP2 GT ISZERO PUSH2 0xF41 JUMPI PUSH2 0xF41 PUSH2 0x1A36 JUMP JUMPDEST PUSH1 0x40 MLOAD SWAP1 DUP1 DUP3 MSTORE DUP1 PUSH1 0x20 MUL PUSH1 0x20 ADD DUP3 ADD PUSH1 0x40 MSTORE DUP1 ISZERO PUSH2 0xF6A JUMPI DUP2 PUSH1 0x20 ADD PUSH1 0x20 DUP3 MUL DUP1 CALLDATASIZE DUP4 CALLDATACOPY ADD SWAP1 POP JUMPDEST POP SWAP1 POP PUSH1 0x0 PUSH1 0x2 SLOAD PUSH8 0xFFFFFFFFFFFFFFFF DUP2 GT ISZERO PUSH2 0xF8A JUMPI PUSH2 0xF8A PUSH2 0x1A36 JUMP JUMPDEST PUSH1 0x40 MLOAD SWAP1 DUP1 DUP3 MSTORE DUP1 PUSH1 0x20 MUL PUSH1 0x20 ADD DUP3 ADD PUSH1 0x40 MSTORE DUP1 ISZERO PUSH2 0xFB3 JUMPI DUP2 PUSH1 0x20 ADD PUSH1 0x20 DUP3 MUL DUP1 CALLDATASIZE DUP4 CALLDATACOPY ADD SWAP1 POP JUMPDEST POP SWAP1 POP PUSH1 0x0 JUMPDEST PUSH1 0x2 SLOAD DUP2 LT ISZERO PUSH2 0x1059 JUMPI PUSH1 0x0 DUP2 DUP2 MSTORE PUSH1 0x1 PUSH1 0x20 MSTORE PUSH1 0x40 SWAP1 KECCAK256 SLOAD DUP4 MLOAD DUP5 SWAP1 DUP4 SWAP1 DUP2 LT PUSH2 0xFE6 JUMPI PUSH2 0xFE6 PUSH2 0x1A20 JUMP JUMPDEST PUSH1 0x20 SWAP1 DUP2 MUL SWAP2 SWAP1 SWAP2 ADD DUP2 ADD SWAP2 SWAP1 SWAP2 MSTORE PUSH1 0x0 DUP3 DUP2 MSTORE PUSH1 0x1 DUP3 MSTORE PUSH1 0x40 DUP1 DUP3 KECCAK256 SLOAD DUP3 MSTORE DUP2 DUP4 MSTORE DUP1 DUP3 KECCAK256 PUSH1 0x1 PUSH1 0x1 PUSH1 0xA0 SHL SUB DUP11 AND DUP4 MSTORE SWAP1 SWAP3 MSTORE KECCAK256 SLOAD DUP3 MLOAD PUSH1 0xFF SWAP1 SWAP2 AND SWAP1 DUP4 SWAP1 DUP4 SWAP1 DUP2 LT PUSH2 0x1037 JUMPI PUSH2 0x1037 PUSH2 0x1A20 JUMP JUMPDEST SWAP2 ISZERO ISZERO PUSH1 0x20 SWAP3 DUP4 MUL SWAP2 SWAP1 SWAP2 ADD SWAP1 SWAP2 ADD MSTORE DUP1 PUSH2 0x1051 DUP2 PUSH2 0x19EF JUMP JUMPDEST SWAP2 POP POP PUSH2 0xFB9 JUMP JUMPDEST POP SWAP1 SWAP5 SWAP1 SWAP4 POP SWAP2 POP POP JUMP JUMPDEST PUSH2 0x106E DUP3 DUP3 PUSH2 0x807 JUMP JUMPDEST DUP1 ISZERO PUSH2 0x108F JUMPI POP PUSH2 0x108D PUSH1 0x0 DUP1 MLOAD PUSH1 0x20 PUSH2 0x1A91 DUP4 CODECOPY DUP2 MLOAD SWAP2 MSTORE DUP3 PUSH2 0x807 JUMP JUMPDEST ISZERO JUMPDEST ISZERO PUSH2 0x10EA JUMPI PUSH1 0x0 DUP3 DUP2 MSTORE PUSH1 0x20 DUP2 DUP2 MSTORE PUSH1 0x40 DUP1 DUP4 KECCAK256 PUSH1 0x1 PUSH1 0x1 PUSH1 0xA0 SHL SUB DUP6 AND DUP1 DUP6 MSTORE SWAP3 MSTORE DUP1 DUP4 KECCAK256 DUP1 SLOAD PUSH1 0xFF NOT AND SWAP1 SSTORE MLOAD CALLER SWAP3 DUP6 SWAP2 PUSH32 0x7B42E026D3B17CF41399915C285780D0F724B3464B269297AFF73C0DE0FE417F SWAP2 SWAP1 LOG4 POP POP JUMP JUMPDEST PUSH2 0x3B6 PUSH1 0x40 MLOAD DUP1 PUSH1 0x80 ADD PUSH1 0x40 MSTORE DUP1 PUSH1 0x44 DUP2 MSTORE PUSH1 0x20 ADD PUSH2 0x1A4D PUSH1 0x44 SWAP2 CODECOPY PUSH2 0x1429 JUMP JUMPDEST PUSH1 0x0 DUP3 DUP2 MSTORE PUSH1 0x20 DUP2 SWAP1 MSTORE PUSH1 0x40 SWAP1 KECCAK256 PUSH1 0x3 ADD SLOAD PUSH1 0xFF AND DUP1 ISZERO PUSH2 0x113A JUMPI POP PUSH1 0x0 DUP1 MLOAD PUSH1 0x20 PUSH2 0x1A91 DUP4 CODECOPY DUP2 MLOAD SWAP2 MSTORE DUP3 EQ ISZERO JUMPDEST ISZERO PUSH2 0x11A2 JUMPI PUSH2 0x1149 DUP3 DUP3 PUSH2 0x1460 JUMP JUMPDEST PUSH1 0x0 DUP3 DUP2 MSTORE PUSH1 0x20 DUP2 DUP2 MSTORE PUSH1 0x40 DUP1 DUP4 KECCAK256 PUSH1 0x1 PUSH1 0x1 PUSH1 0xA0 SHL SUB DUP6 AND DUP1 DUP6 MSTORE SWAP3 MSTORE DUP1 DUP4 KECCAK256 DUP1 SLOAD PUSH1 0xFF NOT AND PUSH1 0x1 OR SWAP1 SSTORE MLOAD CALLER SWAP3 DUP6 SWAP2 PUSH32 0xEF6EE312A0062A24A46BE2EBA5284183A87FF848110E8D4DF979BD690D9E9F68 SWAP2 SWAP1 LOG4 POP POP JUMP JUMPDEST PUSH2 0x3B6 PUSH1 0x40 MLOAD DUP1 PUSH1 0x40 ADD PUSH1 0x40 MSTORE DUP1 PUSH1 0x1C DUP2 MSTORE PUSH1 0x20 ADD PUSH32 0x546865207065726D697373696F6E206973206E6F742076616C69642E00000000 DUP2 MSTORE POP PUSH2 0x1429 JUMP JUMPDEST PUSH2 0xAA0 DUP2 PUSH1 0x0 DUP1 MLOAD PUSH1 0x20 PUSH2 0x1A91 DUP4 CODECOPY DUP2 MLOAD SWAP2 MSTORE JUMPDEST PUSH1 0x0 DUP3 DUP2 MSTORE PUSH1 0x20 DUP2 SWAP1 MSTORE PUSH1 0x40 SWAP1 KECCAK256 PUSH1 0x3 ADD SLOAD PUSH1 0xFF AND PUSH2 0x13EF JUMPI PUSH1 0x0 DUP3 DUP2 MSTORE PUSH1 0x20 DUP2 SWAP1 MSTORE PUSH1 0x40 SWAP1 KECCAK256 PUSH1 0x3 ADD DUP1 SLOAD PUSH1 0xFF NOT AND PUSH1 0x1 OR SWAP1 SSTORE PUSH2 0x1232 DUP3 PUSH2 0x1523 JUMP JUMPDEST ISZERO PUSH2 0x12FC JUMPI PUSH1 0x0 JUMPDEST PUSH1 0x0 DUP3 DUP2 MSTORE PUSH1 0x20 DUP2 SWAP1 MSTORE PUSH1 0x40 SWAP1 KECCAK256 PUSH1 0x2 ADD SLOAD DUP2 LT ISZERO PUSH2 0x12D6 JUMPI PUSH1 0x0 DUP3 DUP2 MSTORE PUSH1 0x20 DUP2 DUP2 MSTORE PUSH1 0x40 DUP1 DUP4 KECCAK256 DUP5 DUP5 MSTORE PUSH1 0x1 DUP1 DUP3 ADD DUP5 MSTORE DUP3 DUP6 KECCAK256 SLOAD PUSH1 0x1 PUSH1 0x1 PUSH1 0xA0 SHL SUB AND DUP1 DUP7 MSTORE SWAP2 DUP5 MSTORE DUP3 DUP6 KECCAK256 SLOAD DUP9 DUP7 MSTORE DUP6 DUP6 MSTORE DUP4 DUP7 KECCAK256 DUP4 DUP8 MSTORE DUP1 DUP7 MSTORE DUP5 DUP8 KECCAK256 DUP1 SLOAD PUSH1 0xFF NOT AND PUSH1 0xFF SWAP1 SWAP4 AND ISZERO ISZERO SWAP3 SWAP1 SWAP3 OR SWAP1 SWAP2 SSTORE DUP7 DUP7 MSTORE ADD SWAP1 SWAP3 MSTORE SWAP1 SWAP2 KECCAK256 DUP1 SLOAD PUSH1 0x1 PUSH1 0x1 PUSH1 0xA0 SHL SUB NOT AND SWAP1 SWAP2 OR SWAP1 SSTORE DUP1 PUSH2 0x12CE DUP2 PUSH2 0x19EF JUMP JUMPDEST SWAP2 POP POP PUSH2 0x123A JUMP JUMPDEST POP PUSH1 0x0 DUP2 DUP2 MSTORE PUSH1 0x20 DUP2 SWAP1 MSTORE PUSH1 0x40 DUP1 DUP3 KECCAK256 PUSH1 0x2 SWAP1 DUP2 ADD SLOAD DUP6 DUP5 MSTORE SWAP2 SWAP1 SWAP3 KECCAK256 SWAP1 SWAP2 ADD SSTORE PUSH2 0x13BC JUMP JUMPDEST PUSH1 0x0 JUMPDEST PUSH1 0x0 DUP3 DUP2 MSTORE PUSH1 0x20 DUP2 SWAP1 MSTORE PUSH1 0x40 SWAP1 KECCAK256 PUSH1 0x2 ADD SLOAD DUP2 LT ISZERO PUSH2 0x1388 JUMPI PUSH1 0x0 DUP3 DUP2 MSTORE PUSH1 0x20 DUP2 DUP2 MSTORE PUSH1 0x40 DUP1 DUP4 KECCAK256 DUP5 DUP5 MSTORE PUSH1 0x1 DUP2 ADD DUP4 MSTORE DUP2 DUP5 KECCAK256 SLOAD PUSH1 0x1 PUSH1 0x1 PUSH1 0xA0 SHL SUB AND DUP1 DUP6 MSTORE SWAP1 DUP4 MSTORE DUP2 DUP5 KECCAK256 SLOAD DUP8 DUP6 MSTORE DUP5 DUP5 MSTORE DUP3 DUP6 KECCAK256 DUP3 DUP7 MSTORE SWAP1 SWAP4 MSTORE SWAP3 KECCAK256 DUP1 SLOAD PUSH1 0xFF NOT AND PUSH1 0xFF SWAP1 SWAP3 AND ISZERO ISZERO SWAP2 SWAP1 SWAP2 OR SWAP1 SSTORE PUSH2 0x1375 DUP5 DUP3 PUSH2 0x1460 JUMP JUMPDEST POP DUP1 PUSH2 0x1380 DUP2 PUSH2 0x19EF JUMP JUMPDEST SWAP2 POP POP PUSH2 0x12FF JUMP JUMPDEST POP PUSH1 0x0 DUP2 DUP2 MSTORE PUSH1 0x20 DUP2 SWAP1 MSTORE PUSH1 0x40 DUP1 DUP3 KECCAK256 PUSH1 0x2 SWAP1 DUP2 ADD SLOAD DUP6 DUP5 MSTORE SWAP2 DUP4 KECCAK256 ADD DUP1 SLOAD SWAP2 SWAP3 SWAP1 SWAP2 PUSH2 0x13B6 SWAP1 DUP5 SWAP1 PUSH2 0x1972 JUMP JUMPDEST SWAP1 SWAP2 SSTORE POP POP JUMPDEST PUSH1 0x40 MLOAD CALLER SWAP1 DUP3 SWAP1 DUP5 SWAP1 PUSH32 0x227207C738669AC0FA6CF2D0D961DEB2E77C5C402417AF5FFC0A11FE0B4D4094 SWAP1 PUSH1 0x0 SWAP1 LOG4 POP POP JUMP JUMPDEST PUSH2 0x3B6 PUSH1 0x40 MLOAD DUP1 PUSH1 0x40 ADD PUSH1 0x40 MSTORE DUP1 PUSH1 0x20 DUP2 MSTORE PUSH1 0x20 ADD PUSH32 0x546865207065726D697373696F6E2068617320616C726561792065786973742E DUP2 MSTORE POP JUMPDEST DUP1 PUSH1 0x40 MLOAD PUSH1 0x20 ADD PUSH2 0x143A SWAP2 SWAP1 PUSH2 0x1808 JUMP JUMPDEST PUSH1 0x40 DUP1 MLOAD PUSH1 0x1F NOT DUP2 DUP5 SUB ADD DUP2 MSTORE SWAP1 DUP3 SWAP1 MSTORE PUSH3 0x461BCD PUSH1 0xE5 SHL DUP3 MSTORE PUSH2 0x2BB SWAP2 PUSH1 0x4 ADD PUSH2 0x18D8 JUMP JUMPDEST PUSH1 0x0 DUP1 JUMPDEST PUSH1 0x0 DUP5 DUP2 MSTORE PUSH1 0x20 DUP2 SWAP1 MSTORE PUSH1 0x40 SWAP1 KECCAK256 PUSH1 0x2 ADD SLOAD DUP2 LT ISZERO PUSH2 0x14C6 JUMPI PUSH1 0x0 DUP5 DUP2 MSTORE PUSH1 0x20 DUP2 DUP2 MSTORE PUSH1 0x40 DUP1 DUP4 KECCAK256 DUP5 DUP5 MSTORE PUSH1 0x1 ADD SWAP1 SWAP2 MSTORE SWAP1 KECCAK256 SLOAD PUSH1 0x1 PUSH1 0x1 PUSH1 0xA0 SHL SUB DUP5 DUP2 AND SWAP2 AND EQ ISZERO PUSH2 0x14B4 JUMPI PUSH1 0x1 SWAP2 POP PUSH2 0x14C6 JUMP JUMPDEST DUP1 PUSH2 0x14BE DUP2 PUSH2 0x19EF JUMP JUMPDEST SWAP2 POP POP PUSH2 0x1464 JUMP JUMPDEST POP DUP1 PUSH2 0x322 JUMPI PUSH1 0x0 DUP4 DUP2 MSTORE PUSH1 0x20 DUP2 DUP2 MSTORE PUSH1 0x40 DUP1 DUP4 KECCAK256 PUSH1 0x2 DUP2 ADD DUP1 SLOAD DUP6 MSTORE PUSH1 0x1 SWAP1 SWAP2 ADD DUP4 MSTORE SWAP1 DUP4 KECCAK256 DUP1 SLOAD PUSH1 0x1 PUSH1 0x1 PUSH1 0xA0 SHL SUB NOT AND PUSH1 0x1 PUSH1 0x1 PUSH1 0xA0 SHL SUB DUP8 AND OR SWAP1 SSTORE DUP6 DUP4 MSTORE SWAP1 DUP3 SWAP1 MSTORE DUP1 SLOAD SWAP2 PUSH2 0x1519 DUP4 PUSH2 0x19EF JUMP JUMPDEST SWAP2 SWAP1 POP SSTORE POP POP POP POP JUMP JUMPDEST PUSH1 0x0 DUP1 DUP1 JUMPDEST PUSH1 0x2 SLOAD DUP2 LT ISZERO PUSH2 0x1563 JUMPI PUSH1 0x0 DUP2 DUP2 MSTORE PUSH1 0x1 PUSH1 0x20 MSTORE PUSH1 0x40 SWAP1 KECCAK256 SLOAD DUP5 EQ ISZERO PUSH2 0x1551 JUMPI PUSH1 0x1 SWAP2 POP PUSH2 0x1563 JUMP JUMPDEST DUP1 PUSH2 0x155B DUP2 PUSH2 0x19EF JUMP JUMPDEST SWAP2 POP POP PUSH2 0x1528 JUMP JUMPDEST POP DUP1 PUSH2 0x1599 JUMPI PUSH1 0x2 DUP1 SLOAD PUSH1 0x0 SWAP1 DUP2 MSTORE PUSH1 0x1 PUSH1 0x20 MSTORE PUSH1 0x40 DUP2 KECCAK256 DUP6 SWAP1 SSTORE DUP2 SLOAD SWAP2 SWAP1 PUSH2 0x158B DUP4 PUSH2 0x19EF JUMP JUMPDEST SWAP1 SWAP2 SSTORE POP PUSH1 0x1 SWAP5 SWAP4 POP POP POP POP JUMP JUMPDEST POP PUSH1 0x0 SWAP3 SWAP2 POP POP JUMP JUMPDEST POP SWAP2 SWAP1 POP JUMP JUMPDEST DUP1 CALLDATALOAD PUSH1 0x1 PUSH1 0x1 PUSH1 0xA0 SHL SUB DUP2 AND DUP2 EQ PUSH2 0x15BF JUMPI PUSH1 0x0 DUP1 REVERT JUMPDEST SWAP2 SWAP1 POP JUMP JUMPDEST PUSH1 0x0 DUP3 PUSH1 0x1F DUP4 ADD SLT PUSH2 0x15D5 JUMPI PUSH1 0x0 DUP1 REVERT JUMPDEST DUP2 CALLDATALOAD PUSH8 0xFFFFFFFFFFFFFFFF DUP1 DUP3 GT ISZERO PUSH2 0x15F0 JUMPI PUSH2 0x15F0 PUSH2 0x1A36 JUMP JUMPDEST PUSH1 0x40 MLOAD PUSH1 0x1F DUP4 ADD PUSH1 0x1F NOT SWAP1 DUP2 AND PUSH1 0x3F ADD AND DUP2 ADD SWAP1 DUP3 DUP3 GT DUP2 DUP4 LT OR ISZERO PUSH2 0x1618 JUMPI PUSH2 0x1618 PUSH2 0x1A36 JUMP JUMPDEST DUP2 PUSH1 0x40 MSTORE DUP4 DUP2 MSTORE DUP7 PUSH1 0x20 DUP6 DUP9 ADD ADD GT ISZERO PUSH2 0x1631 JUMPI PUSH1 0x0 DUP1 REVERT JUMPDEST DUP4 PUSH1 0x20 DUP8 ADD PUSH1 0x20 DUP4 ADD CALLDATACOPY PUSH1 0x0 PUSH1 0x20 DUP6 DUP4 ADD ADD MSTORE DUP1 SWAP5 POP POP POP POP POP SWAP3 SWAP2 POP POP JUMP JUMPDEST PUSH1 0x0 PUSH1 0x20 DUP3 DUP5 SUB SLT ISZERO PUSH2 0x1663 JUMPI PUSH1 0x0 DUP1 REVERT JUMPDEST PUSH2 0x166C DUP3 PUSH2 0x15A8 JUMP JUMPDEST SWAP4 SWAP3 POP POP POP JUMP JUMPDEST PUSH1 0x0 PUSH1 0x20 DUP3 DUP5 SUB SLT ISZERO PUSH2 0x1685 JUMPI PUSH1 0x0 DUP1 REVERT JUMPDEST POP CALLDATALOAD SWAP2 SWAP1 POP JUMP JUMPDEST PUSH1 0x0 DUP1 PUSH1 0x40 DUP4 DUP6 SUB SLT ISZERO PUSH2 0x169F JUMPI PUSH1 0x0 DUP1 REVERT JUMPDEST DUP3 CALLDATALOAD SWAP2 POP PUSH2 0x16AF PUSH1 0x20 DUP5 ADD PUSH2 0x15A8 JUMP JUMPDEST SWAP1 POP SWAP3 POP SWAP3 SWAP1 POP JUMP JUMPDEST PUSH1 0x0 DUP1 PUSH1 0x0 PUSH1 0x60 DUP5 DUP7 SUB SLT ISZERO PUSH2 0x16CD JUMPI PUSH1 0x0 DUP1 REVERT JUMPDEST DUP4 CALLDATALOAD SWAP3 POP PUSH1 0x20 DUP5 ADD CALLDATALOAD SWAP2 POP PUSH2 0x16E4 PUSH1 0x40 DUP6 ADD PUSH2 0x15A8 JUMP JUMPDEST SWAP1 POP SWAP3 POP SWAP3 POP SWAP3 JUMP JUMPDEST PUSH1 0x0 PUSH1 0x20 DUP3 DUP5 SUB SLT ISZERO PUSH2 0x16FF JUMPI PUSH1 0x0 DUP1 REVERT JUMPDEST DUP2 CALLDATALOAD PUSH8 0xFFFFFFFFFFFFFFFF DUP2 GT ISZERO PUSH2 0x1716 JUMPI PUSH1 0x0 DUP1 REVERT JUMPDEST PUSH2 0x625 DUP5 DUP3 DUP6 ADD PUSH2 0x15C4 JUMP JUMPDEST PUSH1 0x0 DUP1 PUSH1 0x40 DUP4 DUP6 SUB SLT ISZERO PUSH2 0x1735 JUMPI PUSH1 0x0 DUP1 REVERT JUMPDEST DUP3 CALLDATALOAD PUSH8 0xFFFFFFFFFFFFFFFF DUP2 GT ISZERO PUSH2 0x174C JUMPI PUSH1 0x0 DUP1 REVERT JUMPDEST PUSH2 0x1758 DUP6 DUP3 DUP7 ADD PUSH2 0x15C4 JUMP JUMPDEST SWAP3 POP POP PUSH2 0x16AF PUSH1 0x20 DUP5 ADD PUSH2 0x15A8 JUMP JUMPDEST PUSH1 0x0 DUP1 PUSH1 0x40 DUP4 DUP6 SUB SLT ISZERO PUSH2 0x177A JUMPI PUSH1 0x0 DUP1 REVERT JUMPDEST DUP3 CALLDATALOAD PUSH8 0xFFFFFFFFFFFFFFFF DUP1 DUP3 GT ISZERO PUSH2 0x1792 JUMPI PUSH1 0x0 DUP1 REVERT JUMPDEST PUSH2 0x179E DUP7 DUP4 DUP8 ADD PUSH2 0x15C4 JUMP JUMPDEST SWAP4 POP PUSH1 0x20 DUP6 ADD CALLDATALOAD SWAP2 POP DUP1 DUP3 GT ISZERO PUSH2 0x17B4 JUMPI PUSH1 0x0 DUP1 REVERT JUMPDEST POP PUSH2 0x17C1 DUP6 DUP3 DUP7 ADD PUSH2 0x15C4 JUMP JUMPDEST SWAP2 POP POP SWAP3 POP SWAP3 SWAP1 POP JUMP JUMPDEST PUSH1 0x0 DUP2 MLOAD DUP1 DUP5 MSTORE PUSH1 0x20 DUP1 DUP6 ADD SWAP5 POP DUP1 DUP5 ADD PUSH1 0x0 JUMPDEST DUP4 DUP2 LT ISZERO PUSH2 0x17FD JUMPI DUP2 MLOAD ISZERO ISZERO DUP8 MSTORE SWAP6 DUP3 ADD SWAP6 SWAP1 DUP3 ADD SWAP1 PUSH1 0x1 ADD PUSH2 0x17DF JUMP JUMPDEST POP SWAP5 SWAP6 SWAP5 POP POP POP POP POP JUMP JUMPDEST PUSH15 0x20B1B1B2B9B9A1B7B73A3937B61D1 PUSH1 0x8D SHL DUP2 MSTORE PUSH1 0x0 DUP3 MLOAD PUSH2 0x1832 DUP2 PUSH1 0xF DUP6 ADD PUSH1 0x20 DUP8 ADD PUSH2 0x198A JUMP JUMPDEST SWAP2 SWAP1 SWAP2 ADD PUSH1 0xF ADD SWAP3 SWAP2 POP POP JUMP JUMPDEST PUSH1 0x40 DUP1 DUP3 MSTORE DUP4 MLOAD SWAP1 DUP3 ADD DUP2 SWAP1 MSTORE PUSH1 0x0 SWAP1 PUSH1 0x20 SWAP1 PUSH1 0x60 DUP5 ADD SWAP1 DUP3 DUP8 ADD DUP5 JUMPDEST DUP3 DUP2 LT ISZERO PUSH2 0x1881 JUMPI DUP2 MLOAD PUSH1 0x1 PUSH1 0x1 PUSH1 0xA0 SHL SUB AND DUP5 MSTORE SWAP3 DUP5 ADD SWAP3 SWAP1 DUP5 ADD SWAP1 PUSH1 0x1 ADD PUSH2 0x185C JUMP JUMPDEST POP POP POP DUP4 DUP2 SUB DUP3 DUP6 ADD MSTORE PUSH2 0x1895 DUP2 DUP7 PUSH2 0x17CB JUMP JUMPDEST SWAP7 SWAP6 POP POP POP POP POP POP JUMP JUMPDEST PUSH1 0x40 DUP1 DUP3 MSTORE DUP4 MLOAD SWAP1 DUP3 ADD DUP2 SWAP1 MSTORE PUSH1 0x0 SWAP1 PUSH1 0x20 SWAP1 PUSH1 0x60 DUP5 ADD SWAP1 DUP3 DUP8 ADD DUP5 JUMPDEST DUP3 DUP2 LT ISZERO PUSH2 0x1881 JUMPI DUP2 MLOAD DUP5 MSTORE SWAP3 DUP5 ADD SWAP3 SWAP1 DUP5 ADD SWAP1 PUSH1 0x1 ADD PUSH2 0x18BC JUMP JUMPDEST PUSH1 0x20 DUP2 MSTORE PUSH1 0x0 DUP3 MLOAD DUP1 PUSH1 0x20 DUP5 ADD MSTORE PUSH2 0x18F7 DUP2 PUSH1 0x40 DUP6 ADD PUSH1 0x20 DUP8 ADD PUSH2 0x198A JUMP JUMPDEST PUSH1 0x1F ADD PUSH1 0x1F NOT AND SWAP2 SWAP1 SWAP2 ADD PUSH1 0x40 ADD SWAP3 SWAP2 POP POP JUMP JUMPDEST PUSH1 0x20 DUP1 DUP3 MSTORE PUSH1 0x41 SWAP1 DUP3 ADD MSTORE PUSH32 0x44616F416363657373436F6E74726F6C3A20596F752068617665206E6F207065 PUSH1 0x40 DUP3 ADD MSTORE PUSH32 0x726D697373696F6E20746F2061636365737320746869732066756E6374696F6E PUSH1 0x60 DUP3 ADD MSTORE PUSH1 0x17 PUSH1 0xF9 SHL PUSH1 0x80 DUP3 ADD MSTORE PUSH1 0xA0 ADD SWAP1 JUMP JUMPDEST PUSH1 0x0 DUP3 NOT DUP3 GT ISZERO PUSH2 0x1985 JUMPI PUSH2 0x1985 PUSH2 0x1A0A JUMP JUMPDEST POP ADD SWAP1 JUMP JUMPDEST PUSH1 0x0 JUMPDEST DUP4 DUP2 LT ISZERO PUSH2 0x19A5 JUMPI DUP2 DUP2 ADD MLOAD DUP4 DUP3 ADD MSTORE PUSH1 0x20 ADD PUSH2 0x198D JUMP JUMPDEST DUP4 DUP2 GT ISZERO PUSH2 0x19B4 JUMPI PUSH1 0x0 DUP5 DUP5 ADD MSTORE JUMPDEST POP POP POP POP JUMP JUMPDEST PUSH1 0x1 DUP2 DUP2 SHR SWAP1 DUP3 AND DUP1 PUSH2 0x19CE JUMPI PUSH1 0x7F DUP3 AND SWAP2 POP JUMPDEST PUSH1 0x20 DUP3 LT DUP2 EQ ISZERO PUSH2 0x15A2 JUMPI PUSH4 0x4E487B71 PUSH1 0xE0 SHL PUSH1 0x0 MSTORE PUSH1 0x22 PUSH1 0x4 MSTORE PUSH1 0x24 PUSH1 0x0 REVERT JUMPDEST PUSH1 0x0 PUSH1 0x0 NOT DUP3 EQ ISZERO PUSH2 0x1A03 JUMPI PUSH2 0x1A03 PUSH2 0x1A0A JUMP JUMPDEST POP PUSH1 0x1 ADD SWAP1 JUMP JUMPDEST PUSH4 0x4E487B71 PUSH1 0xE0 SHL PUSH1 0x0 MSTORE PUSH1 0x11 PUSH1 0x4 MSTORE PUSH1 0x24 PUSH1 0x0 REVERT JUMPDEST PUSH4 0x4E487B71 PUSH1 0xE0 SHL PUSH1 0x0 MSTORE PUSH1 0x32 PUSH1 0x4 MSTORE PUSH1 0x24 PUSH1 0x0 REVERT JUMPDEST PUSH4 0x4E487B71 PUSH1 0xE0 SHL PUSH1 0x0 MSTORE PUSH1 0x41 PUSH1 0x4 MSTORE PUSH1 0x24 PUSH1 0x0 REVERT INVALID SLOAD PUSH9 0x65207065726D697373 PUSH10 0x6F6E206973206E6F7420 PUSH23 0x616C6964206F7220746865206163636F756E7420697320 PUSH15 0x6F7420696E20746865207065726D69 PUSH20 0x73696F6E2EDF8B4C520FFE197C5343C6F5AEC595 PUSH17 0x151EF9A492F2C624FD45DDDE6135EC4273 0xD5 PUSH25 0x61095ED1FF7B0E5C00E25F9FC922CF9164E617149EE7073F37 SGT PUSH5 0xC954546865 KECCAK256 PUSH17 0x65726D697373696F6E206973206E6F7420 PUSH23 0x616C6964206F7220746865207065726D697373696F6E20 PUSH10 0x732041444D494E2EA724 0xC0 DUP6 PUSH17 0x99DA33C38B932CE5D4E84578EE97921530 DUP6 0xD9 0xD5 0xE3 PUSH26 0xBFBA70CACBA2646970667358221220C3E03BD3E36D3B1A3F93EE 0x27 PUSH5 0xF6B1B66BBA BALANCE 0x29 0xAF 0xEB 0xE4 0xC1 CHAINID 0xCD DUP13 CREATE2 CALLDATACOPY JUMP 0x2C 0xDA PUSH5 0x736F6C6343 STOP ADDMOD SMOD STOP CALLER "
		},
		"gasEstimates": {
			"creation": {
				"codeDepositCost": "1401000",
				"executionCost": "infinite",
				"totalCost": "infinite"
			},
			"external": {
				"createPermission(string)": "infinite",
				"createPermissionByLevel(string,string)": "infinite",
				"daoName()": "infinite",
				"deleteAccount(address)": "infinite",
				"deletePermission(string)": "infinite",
				"grantAccountPermission(string,address)": "infinite",
				"inquiryAccountPermission(bytes32,address)": "infinite",
				"inquiryAccountPermission(bytes32,bytes32,address)": "infinite",
				"inquiryAccountPermission(string,address)": "infinite",
				"inquiryAdmin()": "infinite",
				"inquiryAllAccountsByPermission(bytes32)": "infinite",
				"inquiryAllAccountsByPermission(string)": "infinite",
				"inquiryAllPermissions()": "infinite",
				"inquiryAllPermissionsByAccount(address)": "infinite",
				"inquiryDaoName()": "infinite",
				"revokeAccountPermission(string,address)": "infinite",
				"transferAdmin(address)": "infinite"
			}
		},
		"methodIdentifiers": {
			"createPermission(string)": "fe64a0d0",
			"createPermissionByLevel(string,string)": "0c7f0dd0",
			"daoName()": "48976936",
			"deleteAccount(address)": "4c1b64cb",
			"deletePermission(string)": "437bf48b",
			"grantAccountPermission(string,address)": "b0258db8",
			"inquiryAccountPermission(bytes32,address)": "e9cb00a2",
			"inquiryAccountPermission(bytes32,bytes32,address)": "3bee542c",
			"inquiryAccountPermission(string,address)": "a076a09e",
			"inquiryAdmin()": "7058dd24",
			"inquiryAllAccountsByPermission(bytes32)": "9b8f3bbc",
			"inquiryAllAccountsByPermission(string)": "56353d82",
			"inquiryAllPermissions()": "0a1eadce",
			"inquiryAllPermissionsByAccount(address)": "80891cb2",
			"inquiryDaoName()": "a425af85",
			"revokeAccountPermission(string,address)": "a9c96787",
			"transferAdmin(address)": "75829def"
		}
	},
	"abi": [
		{
			"inputs": [
				{
					"internalType": "string",
					"name": "Name",
					"type": "string"
				}
			],
			"stateMutability": "nonpayable",
			"type": "constructor"
		},
		{
			"anonymous": false,
			"inputs": [
				{
					"indexed": true,
					"internalType": "address",
					"name": "account",
					"type": "address"
				},
				{
					"indexed": true,
					"internalType": "address",
					"name": "sender",
					"type": "address"
				}
			],
			"name": "AccountDeleted",
			"type": "event"
		},
		{
			"anonymous": false,
			"inputs": [
				{
					"indexed": true,
					"internalType": "address",
					"name": "newAdmin",
					"type": "address"
				},
				{
					"indexed": true,
					"internalType": "address",
					"name": "previousAdmin",
					"type": "address"
				}
			],
			"name": "AdminTransfered",
			"type": "event"
		},
		{
			"anonymous": false,
			"inputs": [
				{
					"indexed": true,
					"internalType": "bytes32",
					"name": "permissionName",
					"type": "bytes32"
				},
				{
					"indexed": true,
					"internalType": "bytes32",
					"name": "permissionOriginal",
					"type": "bytes32"
				},
				{
					"indexed": true,
					"internalType": "address",
					"name": "sender",
					"type": "address"
				}
			],
			"name": "PermissionCreated",
			"type": "event"
		},
		{
			"anonymous": false,
			"inputs": [
				{
					"indexed": true,
					"internalType": "bytes32",
					"name": "permissionName",
					"type": "bytes32"
				},
				{
					"indexed": true,
					"internalType": "address",
					"name": "sender",
					"type": "address"
				}
			],
			"name": "PermissionDeleted",
			"type": "event"
		},
		{
			"anonymous": false,
			"inputs": [
				{
					"indexed": true,
					"internalType": "bytes32",
					"name": "permissionName",
					"type": "bytes32"
				},
				{
					"indexed": true,
					"internalType": "address",
					"name": "account",
					"type": "address"
				},
				{
					"indexed": true,
					"internalType": "address",
					"name": "sender",
					"type": "address"
				}
			],
			"name": "PermissionGranted",
			"type": "event"
		},
		{
			"anonymous": false,
			"inputs": [
				{
					"indexed": true,
					"internalType": "bytes32",
					"name": "permissionName",
					"type": "bytes32"
				},
				{
					"indexed": true,
					"internalType": "address",
					"name": "account",
					"type": "address"
				},
				{
					"indexed": true,
					"internalType": "address",
					"name": "sender",
					"type": "address"
				}
			],
			"name": "PermissionRevoked",
			"type": "event"
		},
		{
			"inputs": [
				{
					"internalType": "string",
					"name": "permissionName",
					"type": "string"
				}
			],
			"name": "createPermission",
			"outputs": [],
			"stateMutability": "nonpayable",
			"type": "function"
		},
		{
			"inputs": [
				{
					"internalType": "string",
					"name": "permissionName",
					"type": "string"
				},
				{
					"internalType": "string",
					"name": "permissionOriginal",
					"type": "string"
				}
			],
			"name": "createPermissionByLevel",
			"outputs": [],
			"stateMutability": "nonpayable",
			"type": "function"
		},
		{
			"inputs": [],
			"name": "daoName",
			"outputs": [
				{
					"internalType": "string",
					"name": "",
					"type": "string"
				}
			],
			"stateMutability": "view",
			"type": "function"
		},
		{
			"inputs": [
				{
					"internalType": "address",
					"name": "account",
					"type": "address"
				}
			],
			"name": "deleteAccount",
			"outputs": [],
			"stateMutability": "nonpayable",
			"type": "function"
		},
		{
			"inputs": [
				{
					"internalType": "string",
					"name": "permissionName",
					"type": "string"
				}
			],
			"name": "deletePermission",
			"outputs": [],
			"stateMutability": "nonpayable",
			"type": "function"
		},
		{
			"inputs": [
				{
					"internalType": "string",
					"name": "permissionName",
					"type": "string"
				},
				{
					"internalType": "address",
					"name": "account",
					"type": "address"
				}
			],
			"name": "grantAccountPermission",
			"outputs": [],
			"stateMutability": "nonpayable",
			"type": "function"
		},
		{
			"inputs": [
				{
					"internalType": "bytes32",
					"name": "projectPermission",
					"type": "bytes32"
				},
				{
					"internalType": "bytes32",
					"name": "organizationPermission",
					"type": "bytes32"
				},
				{
					"internalType": "address",
					"name": "account",
					"type": "address"
				}
			],
			"name": "inquiryAccountPermission",
			"outputs": [
				{
					"internalType": "bool",
					"name": "",
					"type": "bool"
				}
			],
			"stateMutability": "view",
			"type": "function"
		},
		{
			"inputs": [
				{
					"internalType": "string",
					"name": "permissionName",
					"type": "string"
				},
				{
					"internalType": "address",
					"name": "account",
					"type": "address"
				}
			],
			"name": "inquiryAccountPermission",
			"outputs": [
				{
					"internalType": "bool",
					"name": "",
					"type": "bool"
				}
			],
			"stateMutability": "view",
			"type": "function"
		},
		{
			"inputs": [
				{
					"internalType": "bytes32",
					"name": "permission",
					"type": "bytes32"
				},
				{
					"internalType": "address",
					"name": "account",
					"type": "address"
				}
			],
			"name": "inquiryAccountPermission",
			"outputs": [
				{
					"internalType": "bool",
					"name": "",
					"type": "bool"
				}
			],
			"stateMutability": "view",
			"type": "function"
		},
		{
			"inputs": [],
			"name": "inquiryAdmin",
			"outputs": [
				{
					"internalType": "address",
					"name": "",
					"type": "address"
				}
			],
			"stateMutability": "view",
			"type": "function"
		},
		{
			"inputs": [
				{
					"internalType": "string",
					"name": "permissionName",
					"type": "string"
				}
			],
			"name": "inquiryAllAccountsByPermission",
			"outputs": [
				{
					"internalType": "address[]",
					"name": "",
					"type": "address[]"
				},
				{
					"internalType": "bool[]",
					"name": "",
					"type": "bool[]"
				}
			],
			"stateMutability": "view",
			"type": "function"
		},
		{
			"inputs": [
				{
					"internalType": "bytes32",
					"name": "permission",
					"type": "bytes32"
				}
			],
			"name": "inquiryAllAccountsByPermission",
			"outputs": [
				{
					"internalType": "address[]",
					"name": "",
					"type": "address[]"
				},
				{
					"internalType": "bool[]",
					"name": "",
					"type": "bool[]"
				}
			],
			"stateMutability": "view",
			"type": "function"
		},
		{
			"inputs": [],
			"name": "inquiryAllPermissions",
			"outputs": [
				{
					"internalType": "bytes32[]",
					"name": "",
					"type": "bytes32[]"
				},
				{
					"internalType": "bool[]",
					"name": "",
					"type": "bool[]"
				}
			],
			"stateMutability": "view",
			"type": "function"
		},
		{
			"inputs": [
				{
					"internalType": "address",
					"name": "account",
					"type": "address"
				}
			],
			"name": "inquiryAllPermissionsByAccount",
			"outputs": [
				{
					"internalType": "bytes32[]",
					"name": "",
					"type": "bytes32[]"
				},
				{
					"internalType": "bool[]",
					"name": "",
					"type": "bool[]"
				}
			],
			"stateMutability": "view",
			"type": "function"
		},
		{
			"inputs": [],
			"name": "inquiryDaoName",
			"outputs": [
				{
					"internalType": "string",
					"name": "",
					"type": "string"
				}
			],
			"stateMutability": "view",
			"type": "function"
		},
		{
			"inputs": [
				{
					"internalType": "string",
					"name": "permissionName",
					"type": "string"
				},
				{
					"internalType": "address",
					"name": "account",
					"type": "address"
				}
			],
			"name": "revokeAccountPermission",
			"outputs": [],
			"stateMutability": "nonpayable",
			"type": "function"
		},
		{
			"inputs": [
				{
					"internalType": "address",
					"name": "account",
					"type": "address"
				}
			],
			"name": "transferAdmin",
			"outputs": [],
			"stateMutability": "nonpayable",
			"type": "function"
		}
	]
}