{
	"data": {
		"bytecode": {
			"linkReferences": {},
			"object": "60806040526000805534801561001457600080fd5b506101ae806100246000396000f3fe608060405234801561001057600080fd5b506004361061004c5760003560e01c806304ff21cc1461005157806325fc790f1461006f57806379c342241461008d578063d050cf5b146100ab575b600080fd5b6100596100c9565b604051610066919061012c565b60405180910390f35b6100776100da565b6040516100849190610147565b60405180910390f35b6100956100fc565b6040516100a29190610147565b60405180910390f35b6100b3610105565b6040516100c0919061012c565b60405180910390f35b600060036000819055506001905090565b60006100e4610105565b806100f357506100f26100c9565b5b50600054905090565b60008054905090565b60006001905090565b61011781610162565b82525050565b6101268161016e565b82525050565b6000602082019050610141600083018461010e565b92915050565b600060208201905061015c600083018461011d565b92915050565b60008115159050919050565b600081905091905056fea2646970667358221220b6bc25209d7a66381f853b2099d2a44574831d35b667794255ba4e0be990cced64736f6c63430008070033",
			"opcodes": "PUSH1 0x80 PUSH1 0x40 MSTORE PUSH1 0x0 DUP1 SSTORE CALLVALUE DUP1 ISZERO PUSH2 0x14 JUMPI PUSH1 0x0 DUP1 REVERT JUMPDEST POP PUSH2 0x1AE DUP1 PUSH2 0x24 PUSH1 0x0 CODECOPY PUSH1 0x0 RETURN INVALID PUSH1 0x80 PUSH1 0x40 MSTORE CALLVALUE DUP1 ISZERO PUSH2 0x10 JUMPI PUSH1 0x0 DUP1 REVERT JUMPDEST POP PUSH1 0x4 CALLDATASIZE LT PUSH2 0x4C JUMPI PUSH1 0x0 CALLDATALOAD PUSH1 0xE0 SHR DUP1 PUSH4 0x4FF21CC EQ PUSH2 0x51 JUMPI DUP1 PUSH4 0x25FC790F EQ PUSH2 0x6F JUMPI DUP1 PUSH4 0x79C34224 EQ PUSH2 0x8D JUMPI DUP1 PUSH4 0xD050CF5B EQ PUSH2 0xAB JUMPI JUMPDEST PUSH1 0x0 DUP1 REVERT JUMPDEST PUSH2 0x59 PUSH2 0xC9 JUMP JUMPDEST PUSH1 0x40 MLOAD PUSH2 0x66 SWAP2 SWAP1 PUSH2 0x12C JUMP JUMPDEST PUSH1 0x40 MLOAD DUP1 SWAP2 SUB SWAP1 RETURN JUMPDEST PUSH2 0x77 PUSH2 0xDA JUMP JUMPDEST PUSH1 0x40 MLOAD PUSH2 0x84 SWAP2 SWAP1 PUSH2 0x147 JUMP JUMPDEST PUSH1 0x40 MLOAD DUP1 SWAP2 SUB SWAP1 RETURN JUMPDEST PUSH2 0x95 PUSH2 0xFC JUMP JUMPDEST PUSH1 0x40 MLOAD PUSH2 0xA2 SWAP2 SWAP1 PUSH2 0x147 JUMP JUMPDEST PUSH1 0x40 MLOAD DUP1 SWAP2 SUB SWAP1 RETURN JUMPDEST PUSH2 0xB3 PUSH2 0x105 JUMP JUMPDEST PUSH1 0x40 MLOAD PUSH2 0xC0 SWAP2 SWAP1 PUSH2 0x12C JUMP JUMPDEST PUSH1 0x40 MLOAD DUP1 SWAP2 SUB SWAP1 RETURN JUMPDEST PUSH1 0x0 PUSH1 0x3 PUSH1 0x0 DUP2 SWAP1 SSTORE POP PUSH1 0x1 SWAP1 POP SWAP1 JUMP JUMPDEST PUSH1 0x0 PUSH2 0xE4 PUSH2 0x105 JUMP JUMPDEST DUP1 PUSH2 0xF3 JUMPI POP PUSH2 0xF2 PUSH2 0xC9 JUMP JUMPDEST JUMPDEST POP PUSH1 0x0 SLOAD SWAP1 POP SWAP1 JUMP JUMPDEST PUSH1 0x0 DUP1 SLOAD SWAP1 POP SWAP1 JUMP JUMPDEST PUSH1 0x0 PUSH1 0x1 SWAP1 POP SWAP1 JUMP JUMPDEST PUSH2 0x117 DUP2 PUSH2 0x162 JUMP JUMPDEST DUP3 MSTORE POP POP JUMP JUMPDEST PUSH2 0x126 DUP2 PUSH2 0x16E JUMP JUMPDEST DUP3 MSTORE POP POP JUMP JUMPDEST PUSH1 0x0 PUSH1 0x20 DUP3 ADD SWAP1 POP PUSH2 0x141 PUSH1 0x0 DUP4 ADD DUP5 PUSH2 0x10E JUMP JUMPDEST SWAP3 SWAP2 POP POP JUMP JUMPDEST PUSH1 0x0 PUSH1 0x20 DUP3 ADD SWAP1 POP PUSH2 0x15C PUSH1 0x0 DUP4 ADD DUP5 PUSH2 0x11D JUMP JUMPDEST SWAP3 SWAP2 POP POP JUMP JUMPDEST PUSH1 0x0 DUP2 ISZERO ISZERO SWAP1 POP SWAP2 SWAP1 POP JUMP JUMPDEST PUSH1 0x0 DUP2 SWAP1 POP SWAP2 SWAP1 POP JUMP INVALID LOG2 PUSH5 0x6970667358 0x22 SLT KECCAK256 0xB6 0xBC 0x25 KECCAK256 SWAP14 PUSH27 0x66381F853B2099D2A44574831D35B667794255BA4E0BE990CCED64 PUSH20 0x6F6C634300080700330000000000000000000000 "
		},
		"gasEstimates": {
			"creation": {
				"codeDepositCost": "86000",
				"executionCost": "5141",
				"totalCost": "91141"
			},
			"external": {
				"inquiry()": "2459",
				"te()": "2494",
				"te1()": "387",
				"te2()": "22435"
			}
		},
		"methodIdentifiers": {
			"inquiry()": "79c34224",
			"te()": "25fc790f",
			"te1()": "d050cf5b",
			"te2()": "04ff21cc"
		}
	},
	"abi": [
		{
			"inputs": [],
			"name": "inquiry",
			"outputs": [
				{
					"internalType": "uint256",
					"name": "",
					"type": "uint256"
				}
			],
			"stateMutability": "view",
			"type": "function"
		},
		{
			"inputs": [],
			"name": "te",
			"outputs": [
				{
					"internalType": "uint256",
					"name": "",
					"type": "uint256"
				}
			],
			"stateMutability": "nonpayable",
			"type": "function"
		},
		{
			"inputs": [],
			"name": "te1",
			"outputs": [
				{
					"internalType": "bool",
					"name": "",
					"type": "bool"
				}
			],
			"stateMutability": "pure",
			"type": "function"
		},
		{
			"inputs": [],
			"name": "te2",
			"outputs": [
				{
					"internalType": "bool",
					"name": "",
					"type": "bool"
				}
			],
			"stateMutability": "nonpayable",
			"type": "function"
		}
	]
}